ARM Linker, 5.03 [Build 76] [MDK-ARM Standard]

==============================================================================

Section Cross References

    stm32l1xx_adc.o(i.ADC_DeInit) refers to stm32l1xx_rcc.o(i.RCC_APB2PeriphResetCmd) for RCC_APB2PeriphResetCmd
    stm32l1xx_aes.o(i.AES_DeInit) refers to stm32l1xx_rcc.o(i.RCC_AHBPeriphResetCmd) for RCC_AHBPeriphResetCmd
    stm32l1xx_aes_util.o(i.AES_CBC_Decrypt) refers to stm32l1xx_aes.o(i.AES_KeyInit) for AES_KeyInit
    stm32l1xx_aes_util.o(i.AES_CBC_Decrypt) refers to stm32l1xx_aes.o(i.AES_IVInit) for AES_IVInit
    stm32l1xx_aes_util.o(i.AES_CBC_Decrypt) refers to stm32l1xx_aes.o(i.AES_Init) for AES_Init
    stm32l1xx_aes_util.o(i.AES_CBC_Decrypt) refers to stm32l1xx_aes.o(i.AES_Cmd) for AES_Cmd
    stm32l1xx_aes_util.o(i.AES_CBC_Decrypt) refers to stm32l1xx_aes.o(i.AES_WriteSubData) for AES_WriteSubData
    stm32l1xx_aes_util.o(i.AES_CBC_Decrypt) refers to stm32l1xx_aes.o(i.AES_GetFlagStatus) for AES_GetFlagStatus
    stm32l1xx_aes_util.o(i.AES_CBC_Decrypt) refers to stm32l1xx_aes.o(i.AES_ClearFlag) for AES_ClearFlag
    stm32l1xx_aes_util.o(i.AES_CBC_Decrypt) refers to stm32l1xx_aes.o(i.AES_ReadSubData) for AES_ReadSubData
    stm32l1xx_aes_util.o(i.AES_CBC_Encrypt) refers to stm32l1xx_aes.o(i.AES_KeyInit) for AES_KeyInit
    stm32l1xx_aes_util.o(i.AES_CBC_Encrypt) refers to stm32l1xx_aes.o(i.AES_IVInit) for AES_IVInit
    stm32l1xx_aes_util.o(i.AES_CBC_Encrypt) refers to stm32l1xx_aes.o(i.AES_Init) for AES_Init
    stm32l1xx_aes_util.o(i.AES_CBC_Encrypt) refers to stm32l1xx_aes.o(i.AES_Cmd) for AES_Cmd
    stm32l1xx_aes_util.o(i.AES_CBC_Encrypt) refers to stm32l1xx_aes.o(i.AES_WriteSubData) for AES_WriteSubData
    stm32l1xx_aes_util.o(i.AES_CBC_Encrypt) refers to stm32l1xx_aes.o(i.AES_GetFlagStatus) for AES_GetFlagStatus
    stm32l1xx_aes_util.o(i.AES_CBC_Encrypt) refers to stm32l1xx_aes.o(i.AES_ClearFlag) for AES_ClearFlag
    stm32l1xx_aes_util.o(i.AES_CBC_Encrypt) refers to stm32l1xx_aes.o(i.AES_ReadSubData) for AES_ReadSubData
==============================================================================

Removing Unused input sections from the image.

    Removing misc.o(.emb_text), (8 bytes).
    Removing misc.o(i.NVIC_SetVectorTable), (20 bytes).
    Removing misc.o(i.NVIC_SystemLPConfig), (32 bytes).
    Removing misc.o(i.SysTick_CLKSourceConfig), (40 bytes).
    Removing stm32l1xx_adc.o(.emb_text), (8 bytes).
    Removing stm32l1xx_adc.o(i.ADC_AnalogWatchdogCmd), (20 bytes).
    Removing stm32l1xx_adc.o(i.ADC_AnalogWatchdogSingleChannelConfig), (16 bytes).
    Removing stm32l1xx_adc.o(i.ADC_AnalogWatchdogThresholdsConfig), (6 bytes).
    Removing stm32l1xx_adc.o(i.ADC_AutoInjectedConvCmd), (22 bytes).
    Removing stm32l1xx_adc.o(i.ADC_BankSelection), (22 bytes).
    Removing stm32l1xx_adc.o(i.ADC_ClearFlag), (6 bytes).
    Removing stm32l1xx_adc.o(i.ADC_ClearITPendingBit), (10 bytes).
    Removing stm32l1xx_adc.o(i.ADC_CommonInit), (28 bytes).
    Removing stm32l1xx_adc.o(i.ADC_CommonStructInit), (6 bytes).
    Removing stm32l1xx_adc.o(i.ADC_ContinuousModeCmd), (22 bytes).
    Removing stm32l1xx_adc.o(i.ADC_DeInit), (32 bytes).
    Removing stm32l1xx_adc.o(i.ADC_DelaySelectionConfig), (16 bytes).
    Removing stm32l1xx_adc.o(i.ADC_DiscModeChannelCountConfig), (24 bytes).
==============================================================================

Image Symbol Table

    Local Symbols

    Symbol Name                              Value     Ov Type        Size  Object(Section)

    ../clib/microlib/division.c              0x00000000   Number         0  uldiv.o ABSOLUTE
    ../clib/microlib/division.c              0x00000000   Number         0  uidiv.o ABSOLUTE
    ../clib/microlib/errno.c                 0x00000000   Number         0  errno.o ABSOLUTE
    ../clib/microlib/init/entry.s            0x00000000   Number         0  entry10b.o ABSOLUTE
    ../clib/microlib/init/entry.s            0x00000000   Number         0  entry8a.o ABSOLUTE
    ../clib/microlib/init/entry.s            0x00000000   Number         0  entry7a.o ABSOLUTE
    ../clib/microlib/init/entry.s            0x00000000   Number         0  entry7b.o ABSOLUTE
    ../clib/microlib/init/entry.s            0x00000000   Number         0  entry8b.o ABSOLUTE
    ../clib/microlib/init/entry.s            0x00000000   Number         0  entry9a.o ABSOLUTE
    ../clib/microlib/init/entry.s            0x00000000   Number         0  entry.o ABSOLUTE
    ../clib/microlib/init/entry.s            0x00000000   Number         0  entry9b.o ABSOLUTE
    ../clib/microlib/init/entry.s            0x00000000   Number         0  entry11b.o ABSOLUTE
    ../clib/microlib/init/entry.s            0x00000000   Number         0  entry10a.o ABSOLUTE
    ../clib/microlib/init/entry.s            0x00000000   Number         0  entry11a.o ABSOLUTE
    ../clib/microlib/init/entry.s            0x00000000   Number         0  entry5.o ABSOLUTE
    ../clib/microlib/init/entry.s            0x00000000   Number         0  entry2.o ABSOLUTE
    ../clib/microlib/longlong.c              0x00000000   Number         0  llushr.o ABSOLUTE
    ../clib/microlib/longlong.c              0x00000000   Number         0  llsshr.o ABSOLUTE
    ../clib/microlib/longlong.c              0x00000000   Number         0  llshl.o ABSOLUTE
    ../clib/microlib/printf/printf.c         0x00000000   Number         0  printfa.o ABSOLUTE
    ../clib/microlib/stdio/fputc.c           0x00000000   Number         0  fputc.o ABSOLUTE
    ../clib/microlib/stdio/semi.s            0x00000000   Number         0  semi.o ABSOLUTE
    ../clib/microlib/stdio/streams.c         0x00000000   Number         0  stdout.o ABSOLUTE
    ../clib/microlib/stubs.s                 0x00000000   Number         0  iusesemip.o ABSOLUTE
    ../clib/microlib/stubs.s                 0x00000000   Number         0  iusefp.o ABSOLUTE
    ../fplib/microlib/d2f.c                  0x00000000   Number         0  d2f.o ABSOLUTE
    ../fplib/microlib/f2d.c                  0x00000000   Number         0  f2d.o ABSOLUTE
    ../fplib/microlib/fpadd.c                0x00000000   Number         0  dadd.o ABSOLUTE
    ../fplib/microlib/fpadd.c                0x00000000   Number         0  fadd.o ABSOLUTE
    ../fplib/microlib/fpdiv.c                0x00000000   Number         0  ddiv.o ABSOLUTE
    ../fplib/microlib/fpdiv.c                0x00000000   Number         0  fdiv.o ABSOLUTE
    ../fplib/microlib/fpepilogue.c           0x00000000   Number         0  depilogue.o ABSOLUTE
    ../fplib/microlib/fpepilogue.c           0x00000000   Number         0  fepilogue.o ABSOLUTE
    ../fplib/microlib/fpfix.c                0x00000000   Number         0  dfixul.o ABSOLUTE
    ../fplib/microlib/fpfix.c                0x00000000   Number         0  dfixui.o ABSOLUTE
    ../fplib/microlib/fpfix.c                0x00000000   Number         0  ffixui.o ABSOLUTE
    ../fplib/microlib/fpfix.c                0x00000000   Number         0  dfixi.o ABSOLUTE
    ../fplib/microlib/fpfix.c                0x00000000   Number         0  ffixi.o ABSOLUTE
    ../fplib/microlib/fpflt.c                0x00000000   Number         0  dfltui.o ABSOLUTE
    ../fplib/microlib/fpflt.c                0x00000000   Number         0  dflti.o ABSOLUTE
    ../fplib/microlib/fpflt.c                0x00000000   Number         0  ffltui.o ABSOLUTE
    ../fplib/microlib/fpflt.c                0x00000000   Number         0  fflti.o ABSOLUTE
    ../fplib/microlib/fpmul.c                0x00000000   Number         0  fmul.o ABSOLUTE
    ../fplib/microlib/fpmul.c                0x00000000   Number         0  dmul.o ABSOLUTE
    ../fplib/microlib/fpscalb.c              0x00000000   Number         0  dscalb.o ABSOLUTE
    ../mathlib/cos_i.c                       0x00000000   Number         0  cos_i.o ABSOLUTE
    ../mathlib/dunder.c                      0x00000000   Number         0  dunder.o ABSOLUTE
    ../mathlib/fpclassify.c                  0x00000000   Number         0  fpclassify.o ABSOLUTE
    ../mathlib/poly.c                        0x00000000   Number         0  poly.o ABSOLUTE
    ../mathlib/rred.c                        0x00000000   Number         0  rred.o ABSOLUTE
    ../mathlib/sin.c                         0x00000000   Number         0  sin.o ABSOLUTE
    ../mathlib/sin.c                         0x00000000   Number         0  sin_x.o ABSOLUTE
    ../mathlib/sin_i.c                       0x00000000   Number         0  sin_i.o ABSOLUTE
    ../mathlib/sin_i.c                       0x00000000   Number         0  sin_i_x.o ABSOLUTE
    ..\Driver\GPIOL_Driver.c                 0x00000000   Number         0  gpiol_driver.o ABSOLUTE
    ..\Driver\STM32L_CPU.c                   0x00000000   Number         0  stm32l_cpu.o ABSOLUTE
    ..\Driver\UsartL_Driver.c                0x00000000   Number         0  usartl_driver.o ABSOLUTE
    ..\FuncTask\ComKeyBoard.c                0x00000000   Number         0  comkeyboard.o ABSOLUTE
    ..\FuncTask\Func_Face.c                  0x00000000   Number         0  func_face.o ABSOLUTE
    ..\Libraries\CMSIS\CM3\DeviceSupport\ST\STM32L1xx\startup\arm\startup_stm32l1xx_hd.s 0x00000000   Number         0  startup_stm32l1xx_hd.o ABSOLUTE
    ..\Libraries\CMSIS\CM3\DeviceSupport\ST\STM32L1xx\stm32l1xx_it.c 0x00000000   Number         0  stm32l1xx_it.o ABSOLUTE
    ..\Libraries\CMSIS\CM3\DeviceSupport\ST\STM32L1xx\system_stm32l1xx.c 0x00000000   Number         0  system_stm32l1xx.o ABSOLUTE
    ..\Libraries\STM32L1xx_StdPeriph_Driver\src\misc.c 0x00000000   Number         0  misc.o ABSOLUTE
    ..\Libraries\STM32L1xx_StdPeriph_Driver\src\stm32l1xx_adc.c 0x00000000   Number         0  stm32l1xx_adc.o ABSOLUTE
    ..\Libraries\STM32L1xx_StdPeriph_Driver\src\stm32l1xx_aes.c 0x00000000   Number         0  stm32l1xx_aes.o ABSOLUTE
    ..\Libraries\STM32L1xx_StdPeriph_Driver\src\stm32l1xx_aes_util.c 0x00000000   Number         0  stm32l1xx_aes_util.o ABSOLUTE
    ..\Libraries\STM32L1xx_StdPeriph_Driver\src\stm32l1xx_comp.c 0x00000000   Number         0  stm32l1xx_comp.o ABSOLUTE
    ..\Libraries\STM32L1xx_StdPeriph_Driver\src\stm32l1xx_crc.c 0x00000000   Number         0  stm32l1xx_crc.o ABSOLUTE
    ..\Libraries\STM32L1xx_StdPeriph_Driver\src\stm32l1xx_dac.c 0x00000000   Number         0  stm32l1xx_dac.o ABSOLUTE
    ..\Libraries\STM32L1xx_StdPeriph_Driver\src\stm32l1xx_dbgmcu.c 0x00000000   Number         0  stm32l1xx_dbgmcu.o ABSOLUTE
    ..\Libraries\STM32L1xx_StdPeriph_Driver\src\stm32l1xx_dma.c 0x00000000   Number         0  stm32l1xx_dma.o ABSOLUTE
    ..\Libraries\STM32L1xx_StdPeriph_Driver\src\stm32l1xx_exti.c 0x00000000   Number         0  stm32l1xx_exti.o ABSOLUTE
    ..\Libraries\STM32L1xx_StdPeriph_Driver\src\stm32l1xx_flash.c 0x00000000   Number         0  stm32l1xx_flash.o ABSOLUTE
    ..\Libraries\STM32L1xx_StdPeriph_Driver\src\stm32l1xx_flash_ramfunc.c 0x00000000   Number         0  stm32l1xx_flash_ramfunc.o ABSOLUTE
    ..\Libraries\STM32L1xx_StdPeriph_Driver\src\stm32l1xx_fsmc.c 0x00000000   Number         0  stm32l1xx_fsmc.o ABSOLUTE
    ..\Libraries\STM32L1xx_StdPeriph_Driver\src\stm32l1xx_gpio.c 0x00000000   Number         0  stm32l1xx_gpio.o ABSOLUTE
    ..\Libraries\STM32L1xx_StdPeriph_Driver\src\stm32l1xx_i2c.c 0x00000000   Number         0  stm32l1xx_i2c.o ABSOLUTE
    ..\Libraries\STM32L1xx_StdPeriph_Driver\src\stm32l1xx_iwdg.c 0x00000000   Number         0  stm32l1xx_iwdg.o ABSOLUTE
    ..\Libraries\STM32L1xx_StdPeriph_Driver\src\stm32l1xx_lcd.c 0x00000000   Number         0  stm32l1xx_lcd.o ABSOLUTE
    ..\Libraries\STM32L1xx_StdPeriph_Driver\src\stm32l1xx_opamp.c 0x00000000   Number         0  stm32l1xx_opamp.o ABSOLUTE
    ..\Libraries\STM32L1xx_StdPeriph_Driver\src\stm32l1xx_pwr.c 0x00000000   Number         0  stm32l1xx_pwr.o ABSOLUTE
    ..\Libraries\STM32L1xx_StdPeriph_Driver\src\stm32l1xx_rcc.c 0x00000000   Number         0  stm32l1xx_rcc.o ABSOLUTE
    ..\Libraries\STM32L1xx_StdPeriph_Driver\src\stm32l1xx_rtc.c 0x00000000   Number         0  stm32l1xx_rtc.o ABSOLUTE
    ..\Libraries\STM32L1xx_StdPeriph_Driver\src\stm32l1xx_sdio.c 0x00000000   Number         0  stm32l1xx_sdio.o ABSOLUTE
    ..\Libraries\STM32L1xx_StdPeriph_Driver\src\stm32l1xx_spi.c 0x00000000   Number         0  stm32l1xx_spi.o ABSOLUTE
    ..\Libraries\STM32L1xx_StdPeriph_Driver\src\stm32l1xx_syscfg.c 0x00000000   Number         0  stm32l1xx_syscfg.o ABSOLUTE
    ..\Libraries\STM32L1xx_StdPeriph_Driver\src\stm32l1xx_tim.c 0x00000000   Number         0  stm32l1xx_tim.o ABSOLUTE
    ..\Libraries\STM32L1xx_StdPeriph_Driver\src\stm32l1xx_usart.c 0x00000000   Number         0  stm32l1xx_usart.o ABSOLUTE
    ..\Libraries\STM32L1xx_StdPeriph_Driver\src\stm32l1xx_wwdg.c 0x00000000   Number         0  stm32l1xx_wwdg.o ABSOLUTE
    ..\Tools\AppConfig.c                     0x00000000   Number         0  appconfig.o ABSOLUTE
    ..\Tools\CheakOut.c                      0x00000000   Number         0  cheakout.o ABSOLUTE
    ..\Tools\DeBug.c                         0x00000000   Number         0  debug.o ABSOLUTE
    ..\Tools\ModBus.c                        0x00000000   Number         0  modbus.o ABSOLUTE
    ..\Tools\Operation.c                     0x00000000   Number         0  operation.o ABSOLUTE
    ..\Tools\StandardModBus.c                0x00000000   Number         0  standardmodbus.o ABSOLUTE
    ..\Tools\Text.c                          0x00000000   Number         0  text.o ABSOLUTE
    ..\Tos\LockCode.c                        0x00000000   Number         0  lockcode.o ABSOLUTE
    ..\Tos\Tos.c                             0x00000000   Number         0  tos.o ABSOLUTE
    ..\Tos\Tos_Device.c                      0x00000000   Number         0  tos_device.o ABSOLUTE
    ..\Tos\Tos_Mema.c                        0x00000000   Number         0  tos_mema.o ABSOLUTE
    ..\Tos\Tos_timer.c                       0x00000000   Number         0  tos_timer.o ABSOLUTE
    ..\Tos\tos_core_a.asm                    0x00000000   Number         0  tos_core_a.o ABSOLUTE
    ..\USER\Main.c                           0x00000000   Number         0  main.o ABSOLUTE
    ..\\Driver\\GPIOL_Driver.c               0x00000000   Number         0  gpiol_driver.o ABSOLUTE
    ..\\Driver\\STM32L_CPU.c                 0x00000000   Number         0  stm32l_cpu.o ABSOLUTE
    ..\\Driver\\UsartL_Driver.c              0x00000000   Number         0  usartl_driver.o ABSOLUTE
    ..\\FuncTask\\ComKeyBoard.c              0x00000000   Number         0  comkeyboard.o ABSOLUTE
    ..\\FuncTask\\Func_Face.c                0x00000000   Number         0  func_face.o ABSOLUTE
    ..\\Libraries\\CMSIS\\CM3\\DeviceSupport\\ST\\STM32L1xx\\stm32l1xx_it.c 0x00000000   Number         0  stm32l1xx_it.o ABSOLUTE
    ..\\Libraries\\CMSIS\\CM3\\DeviceSupport\\ST\\STM32L1xx\\system_stm32l1xx.c 0x00000000   Number         0  system_stm32l1xx.o ABSOLUTE
    ..\\Libraries\\STM32L1xx_StdPeriph_Driver\\src\\misc.c 0x00000000   Number         0  misc.o ABSOLUTE
    ..\\Libraries\\STM32L1xx_StdPeriph_Driver\\src\\stm32l1xx_adc.c 0x00000000   Number         0  stm32l1xx_adc.o ABSOLUTE
    ..\\Libraries\\STM32L1xx_StdPeriph_Driver\\src\\stm32l1xx_aes.c 0x00000000   Number         0  stm32l1xx_aes.o ABSOLUTE
    ..\\Libraries\\STM32L1xx_StdPeriph_Driver\\src\\stm32l1xx_aes_util.c 0x00000000   Number         0  stm32l1xx_aes_util.o ABSOLUTE
    ..\\Libraries\\STM32L1xx_StdPeriph_Driver\\src\\stm32l1xx_comp.c 0x00000000   Number         0  stm32l1xx_comp.o ABSOLUTE
    ..\\Libraries\\STM32L1xx_StdPeriph_Driver\\src\\stm32l1xx_crc.c 0x00000000   Number         0  stm32l1xx_crc.o ABSOLUTE
    ..\\Libraries\\STM32L1xx_StdPeriph_Driver\\src\\stm32l1xx_dac.c 0x00000000   Number         0  stm32l1xx_dac.o ABSOLUTE
    ..\\Libraries\\STM32L1xx_StdPeriph_Driver\\src\\stm32l1xx_dbgmcu.c 0x00000000   Number         0  stm32l1xx_dbgmcu.o ABSOLUTE
    ..\\Libraries\\STM32L1xx_StdPeriph_Driver\\src\\stm32l1xx_dma.c 0x00000000   Number         0  stm32l1xx_dma.o ABSOLUTE
    ..\\Libraries\\STM32L1xx_StdPeriph_Driver\\src\\stm32l1xx_exti.c 0x00000000   Number         0  stm32l1xx_exti.o ABSOLUTE
    ..\\Libraries\\STM32L1xx_StdPeriph_Driver\\src\\stm32l1xx_flash.c 0x00000000   Number         0  stm32l1xx_flash.o ABSOLUTE
    ..\\Libraries\\STM32L1xx_StdPeriph_Driver\\src\\stm32l1xx_flash_ramfunc.c 0x00000000   Number         0  stm32l1xx_flash_ramfunc.o ABSOLUTE
    ..\\Libraries\\STM32L1xx_StdPeriph_Driver\\src\\stm32l1xx_fsmc.c 0x00000000   Number         0  stm32l1xx_fsmc.o ABSOLUTE
    ..\\Libraries\\STM32L1xx_StdPeriph_Driver\\src\\stm32l1xx_gpio.c 0x00000000   Number         0  stm32l1xx_gpio.o ABSOLUTE
    ..\\Libraries\\STM32L1xx_StdPeriph_Driver\\src\\stm32l1xx_i2c.c 0x00000000   Number         0  stm32l1xx_i2c.o ABSOLUTE
    ..\\Libraries\\STM32L1xx_StdPeriph_Driver\\src\\stm32l1xx_iwdg.c 0x00000000   Number         0  stm32l1xx_iwdg.o ABSOLUTE
    ..\\Libraries\\STM32L1xx_StdPeriph_Driver\\src\\stm32l1xx_lcd.c 0x00000000   Number         0  stm32l1xx_lcd.o ABSOLUTE
    ..\\Libraries\\STM32L1xx_StdPeriph_Driver\\src\\stm32l1xx_opamp.c 0x00000000   Number         0  stm32l1xx_opamp.o ABSOLUTE
    ..\\Libraries\\STM32L1xx_StdPeriph_Driver\\src\\stm32l1xx_pwr.c 0x00000000   Number         0  stm32l1xx_pwr.o ABSOLUTE
    ..\\Libraries\\STM32L1xx_StdPeriph_Driver\\src\\stm32l1xx_rcc.c 0x00000000   Number         0  stm32l1xx_rcc.o ABSOLUTE
    ..\\Libraries\\STM32L1xx_StdPeriph_Driver\\src\\stm32l1xx_rtc.c 0x00000000   Number         0  stm32l1xx_rtc.o ABSOLUTE
    ..\\Libraries\\STM32L1xx_StdPeriph_Driver\\src\\stm32l1xx_sdio.c 0x00000000   Number         0  stm32l1xx_sdio.o ABSOLUTE
    ..\\Libraries\\STM32L1xx_StdPeriph_Driver\\src\\stm32l1xx_spi.c 0x00000000   Number         0  stm32l1xx_spi.o ABSOLUTE
    ..\\Libraries\\STM32L1xx_StdPeriph_Driver\\src\\stm32l1xx_syscfg.c 0x00000000   Number         0  stm32l1xx_syscfg.o ABSOLUTE
    ..\\Libraries\\STM32L1xx_StdPeriph_Driver\\src\\stm32l1xx_tim.c 0x00000000   Number         0  stm32l1xx_tim.o ABSOLUTE
    ..\\Libraries\\STM32L1xx_StdPeriph_Driver\\src\\stm32l1xx_usart.c 0x00000000   Number         0  stm32l1xx_usart.o ABSOLUTE
    ..\\Libraries\\STM32L1xx_StdPeriph_Driver\\src\\stm32l1xx_wwdg.c 0x00000000   Number         0  stm32l1xx_wwdg.o ABSOLUTE
    ..\\Tools\\AppConfig.c                   0x00000000   Number         0  appconfig.o ABSOLUTE
    ..\\Tools\\CheakOut.c                    0x00000000   Number         0  cheakout.o ABSOLUTE
    ..\\Tools\\DeBug.c                       0x00000000   Number         0  debug.o ABSOLUTE
    ..\\Tools\\ModBus.c                      0x00000000   Number         0  modbus.o ABSOLUTE
    ..\\Tools\\StandardModBus.c              0x00000000   Number         0  standardmodbus.o ABSOLUTE
    ..\\Tools\\Text.c                        0x00000000   Number         0  text.o ABSOLUTE
    ..\\Tos\\LockCode.c                      0x00000000   Number         0  lockcode.o ABSOLUTE
    ..\\Tos\\Tos.c                           0x00000000   Number         0  tos.o ABSOLUTE
    ..\\Tos\\Tos_Device.c                    0x00000000   Number         0  tos_device.o ABSOLUTE
    ..\\Tos\\Tos_Mema.c                      0x00000000   Number         0  tos_mema.o ABSOLUTE
    ..\\Tos\\Tos_timer.c                     0x00000000   Number         0  tos_timer.o ABSOLUTE
    ..\\USER\\Main.c                         0x00000000   Number         0  main.o ABSOLUTE
    cdrcmple.s                               0x00000000   Number         0  cdrcmple.o ABSOLUTE
    cfcmple.s                                0x00000000   Number         0  cfcmple.o ABSOLUTE
    cfrcmple.s                               0x00000000   Number         0  cfrcmple.o ABSOLUTE
    dc.s                                     0x00000000   Number         0  dc.o ABSOLUTE
    handlers.s                               0x00000000   Number         0  handlers.o ABSOLUTE
    init.s                                   0x00000000   Number         0  init.o ABSOLUTE
    RESET                                    0x08000000   Section      292  startup_stm32l1xx_hd.o(RESET)
    .ARM.Collect$$$$00000000                 0x08000124   Section        0  entry.o(.ARM.Collect$$$$00000000)
    .ARM.Collect$$$$00000001                 0x08000124   Section        4  entry2.o(.ARM.Collect$$$$00000001)
    .ARM.Collect$$$$00000004                 0x08000128   Section        4  entry5.o(.ARM.Collect$$$$00000004)
    .ARM.Collect$$$$00000008                 0x0800012c   Section        0  entry7b.o(.ARM.Collect$$$$00000008)
    .ARM.Collect$$$$0000000A                 0x0800012c   Section        0  entry8b.o(.ARM.Collect$$$$0000000A)
    .ARM.Collect$$$$0000000B                 0x0800012c   Section        8  entry9a.o(.ARM.Collect$$$$0000000B)
    .ARM.Collect$$$$0000000D                 0x08000134   Section        0  entry10a.o(.ARM.Collect$$$$0000000D)
    .ARM.Collect$$$$0000000F                 0x08000134   Section        0  entry11a.o(.ARM.Collect$$$$0000000F)
    .ARM.Collect$$$$00002712                 0x08000134   Section        4  entry2.o(.ARM.Collect$$$$00002712)
    __lit__00000000                          0x08000134   Data           4  entry2.o(.ARM.Collect$$$$00002712)
    .text                                    0x08000138   Section       36  startup_stm32l1xx_hd.o(.text)
    .text                                    0x0800015c   Section        0  dadd.o(.text)
    .text                                    0x080002aa   Section        0  dmul.o(.text)
    .text                                    0x0800038e   Section        0  ddiv.o(.text)
    .text                                    0x0800046c   Section        0  dfixi.o(.text)
    .text                                    0x080004aa   Section        0  uidiv.o(.text)
    .text                                    0x080004d6   Section        0  uldiv.o(.text)
    .text                                    0x08000538   Section        0  llshl.o(.text)
    .text                                    0x08000556   Section        0  llushr.o(.text)
    .text                                    0x08000576   Section        0  llsshr.o(.text)
    .text                                    0x0800059a   Section        0  depilogue.o(.text)
    .text                                    0x0800059a   Section        0  iusefp.o(.text)
    .text                                    0x08000658   Section        0  dfixul.o(.text)
    .text                                    0x08000688   Section       40  cdrcmple.o(.text)
    .text                                    0x080006b0   Section       36  init.o(.text)
    TOS_CORE_A                               0x080006d4   Section       80  tos_core_a.o(TOS_CORE_A)
    i.ADC1_GPIO_Config                       0x08000724   Section        0  main.o(i.ADC1_GPIO_Config)
    ADC1_GPIO_Config                         0x08000725   Thumb Code    46  main.o(i.ADC1_GPIO_Config)
    i.ADC1_Init                              0x08000758   Section        0  main.o(i.ADC1_Init)
    i.ADC1_Mode_Config                       0x08000768   Section        0  main.o(i.ADC1_Mode_Config)
    ADC1_Mode_Config                         0x08000769   Thumb Code   290  main.o(i.ADC1_Mode_Config)
    i.ADC_Cmd                                0x08000894   Section        0  stm32l1xx_adc.o(i.ADC_Cmd)
    i.ADC_DMACmd                             0x080008aa   Section        0  stm32l1xx_adc.o(i.ADC_DMACmd)
    i.ADC_DMARequestAfterLastTransferCmd     0x080008c0   Section        0  stm32l1xx_adc.o(i.ADC_DMARequestAfterLastTransferCmd)
    i.ADC_GetFlagStatus                      0x080008d6   Section        0  stm32l1xx_adc.o(i.ADC_GetFlagStatus)
    i.ADC_Init                               0x080008e8   Section        0  stm32l1xx_adc.o(i.ADC_Init)
    i.ADC_RegularChannelConfig               0x0800093c   Section        0  stm32l1xx_adc.o(i.ADC_RegularChannelConfig)
    i.ADC_SoftwareStartConv                  0x08000a94   Section        0  stm32l1xx_adc.o(i.ADC_SoftwareStartConv)
    i.BRG_RGB                                0x08000a9e   Section        0  main.o(i.BRG_RGB)
    i.BareDelay                              0x08000ab4   Section        0  stm32l_cpu.o(i.BareDelay)
    i.BufferCoppy                            0x08000ace   Section        0  text.o(i.BufferCoppy)
    i.BusFault_Handler                       0x08000af0   Section        0  stm32l1xx_it.o(i.BusFault_Handler)
    i.DMA_Cmd                                0x08000af4   Section        0  stm32l1xx_dma.o(i.DMA_Cmd)
    i.DMA_DeInit                             0x08000b0c   Section        0  stm32l1xx_dma.o(i.DMA_DeInit)
    i.DMA_Init                               0x08000c58   Section        0  stm32l1xx_dma.o(i.DMA_Init)
    i.DeBug                                  0x08000c94   Section        0  debug.o(i.DeBug)
    i.DeBug_OutSet                           0x08000e20   Section        0  debug.o(i.DeBug_OutSet)
    i.DebugMon_Handler                       0x08000e2c   Section        0  stm32l1xx_it.o(i.DebugMon_Handler)
    i.DeviceList_Init                        0x08000e30   Section        0  tos_device.o(i.DeviceList_Init)
    i.DeviceMount_GPIO                       0x08000eb0   Section        0  gpiol_driver.o(i.DeviceMount_GPIO)
    i.DeviceMount_Usart                      0x08000f7c   Section        0  usartl_driver.o(i.DeviceMount_Usart)
    i.Device_Init                            0x08001140   Section        0  tos_device.o(i.Device_Init)
    i.Device_Ok                              0x080011f8   Section        0  tos_device.o(i.Device_Ok)
    i.EXTI0_IRQHandler                       0x0800121c   Section        0  stm32l_cpu.o(i.EXTI0_IRQHandler)
    i.EXTI_ClearITPendingBit                 0x08001228   Section        0  stm32l1xx_exti.o(i.EXTI_ClearITPendingBit)
    i.FlowPoolFilter                         0x08001234   Section        0  text.o(i.FlowPoolFilter)
    i.GPIO_Init                              0x0800126e   Section        0  stm32l1xx_gpio.o(i.GPIO_Init)
    i.GPIO_InitList                          0x08001300   Section        0  stm32l_cpu.o(i.GPIO_InitList)
    i.GPIO_PinAFConfig                       0x080013d8   Section        0  stm32l1xx_gpio.o(i.GPIO_PinAFConfig)
    i.GPIO_ResetBits                         0x0800141e   Section        0  stm32l1xx_gpio.o(i.GPIO_ResetBits)
    i.GPIO_Set                               0x08001422   Section        0  gpiol_driver.o(i.GPIO_Set)
    i.GPIO_SetBits                           0x08001440   Section        0  stm32l1xx_gpio.o(i.GPIO_SetBits)
    i.GPIO_SetIndex                          0x08001444   Section        0  gpiol_driver.o(i.GPIO_SetIndex)
    i.GetChar_List                           0x08001478   Section        0  debug.o(i.GetChar_List)
    i.GetTextLength                          0x080014f8   Section        0  text.o(i.GetTextLength)
    i.HardFault_Handler                      0x08001510   Section        0  stm32l1xx_it.o(i.HardFault_Handler)
    i.MCU_Reset                              0x08001514   Section        0  stm32l_cpu.o(i.MCU_Reset)
    i.MemManage_Handler                      0x08001540   Section        0  stm32l1xx_it.o(i.MemManage_Handler)
    i.Mema_Free                              0x08001544   Section        0  tos_mema.o(i.Mema_Free)
    i.Mema_GetSize                           0x08001574   Section        0  tos_mema.o(i.Mema_GetSize)
    i.Mema_Init                              0x08001580   Section        0  tos_mema.o(i.Mema_Init)
    i.Mema_Malloc                            0x0800159c   Section        0  tos_mema.o(i.Mema_Malloc)
    i.Moto_A                                 0x080015e8   Section        0  main.o(i.Moto_A)
    i.Moto_AB                                0x08001616   Section        0  main.o(i.Moto_AB)
    i.Moto_B                                 0x0800162a   Section        0  main.o(i.Moto_B)
    i.NMI_Handler                            0x08001658   Section        0  stm32l1xx_it.o(i.NMI_Handler)
    i.NVIC_Init                              0x0800165c   Section        0  misc.o(i.NVIC_Init)
    i.NVIC_PriorityGroupConfig               0x080016d4   Section        0  misc.o(i.NVIC_PriorityGroupConfig)
    i.PWM_Set                                0x080016e8   Section        0  main.o(i.PWM_Set)
    i.PendSV_Handler                         0x0800171c   Section        0  stm32l1xx_it.o(i.PendSV_Handler)
    i.Pwm_Init                               0x08001720   Section        0  main.o(i.Pwm_Init)
    i.RCC_AHBPeriphClockCmd                  0x08001828   Section        0  stm32l1xx_rcc.o(i.RCC_AHBPeriphClockCmd)
    i.RCC_APB1PeriphClockCmd                 0x08001848   Section        0  stm32l1xx_rcc.o(i.RCC_APB1PeriphClockCmd)
    i.RCC_APB2PeriphClockCmd                 0x08001868   Section        0  stm32l1xx_rcc.o(i.RCC_APB2PeriphClockCmd)
    i.RCC_GetClocksFreq                      0x08001888   Section        0  stm32l1xx_rcc.o(i.RCC_GetClocksFreq)
    i.RCC_HSICmd                             0x08001988   Section        0  stm32l1xx_rcc.o(i.RCC_HSICmd)
    i.RGB_Light                              0x08001994   Section        0  main.o(i.RGB_Light)
    i.SVC_Handler                            0x080019ca   Section        0  stm32l1xx_it.o(i.SVC_Handler)
    i.SetSysClock                            0x080019cc   Section        0  system_stm32l1xx.o(i.SetSysClock)
    SetSysClock                              0x080019cd   Thumb Code   254  system_stm32l1xx.o(i.SetSysClock)
    i.StringEndingAppend                     0x08001ad8   Section        0  text.o(i.StringEndingAppend)
    i.SysTick_Handler                        0x08001b1a   Section        0  stm32l1xx_it.o(i.SysTick_Handler)
    i.SysTick_Set                            0x08001b24   Section        0  stm32l_cpu.o(i.SysTick_Set)
    i.SystemInit                             0x08001b78   Section        0  system_stm32l1xx.o(i.SystemInit)
    i.TIM2_IRQHandler                        0x08001be0   Section        0  stm32l1xx_it.o(i.TIM2_IRQHandler)
    i.TIM_ARRPreloadConfig                   0x08001be2   Section        0  stm32l1xx_tim.o(i.TIM_ARRPreloadConfig)
    i.TIM_Cmd                                0x08001bfa   Section        0  stm32l1xx_tim.o(i.TIM_Cmd)
    i.TIM_OC1Init                            0x08001c12   Section        0  stm32l1xx_tim.o(i.TIM_OC1Init)
    i.TIM_OC1PreloadConfig                   0x08001c4a   Section        0  stm32l1xx_tim.o(i.TIM_OC1PreloadConfig)
    i.TIM_OC2Init                            0x08001c5c   Section        0  stm32l1xx_tim.o(i.TIM_OC2Init)
    i.TIM_OC2PreloadConfig                   0x08001ca2   Section        0  stm32l1xx_tim.o(i.TIM_OC2PreloadConfig)
    i.TIM_OC3Init                            0x08001cbc   Section        0  stm32l1xx_tim.o(i.TIM_OC3Init)
    i.TIM_OC3PreloadConfig                   0x08001cfe   Section        0  stm32l1xx_tim.o(i.TIM_OC3PreloadConfig)
    i.TIM_OC4Init                            0x08001d10   Section        0  stm32l1xx_tim.o(i.TIM_OC4Init)
    i.TIM_OC4PreloadConfig                   0x08001d56   Section        0  stm32l1xx_tim.o(i.TIM_OC4PreloadConfig)
    i.TIM_TimeBaseInit                       0x08001d70   Section        0  stm32l1xx_tim.o(i.TIM_TimeBaseInit)
    i.Task_P                                 0x08001dd0   Section        0  main.o(i.Task_P)
    i.Task_Task0                             0x08001df8   Section        0  main.o(i.Task_Task0)
    i.Tos_ComputeCPURate                     0x08001ed8   Section        0  tos.o(i.Tos_ComputeCPURate)
    i.Tos_Init                               0x08001f34   Section        0  tos.o(i.Tos_Init)
    i.Tos_ListCreate                         0x08001fcc   Section        0  tos.o(i.Tos_ListCreate)
    i.Tos_RootTask                           0x08001fec   Section        0  tos.o(i.Tos_RootTask)
    i.Tos_ScanTimer                          0x08002000   Section        0  tos_timer.o(i.Tos_ScanTimer)
    i.Tos_Start                              0x08002038   Section        0  tos.o(i.Tos_Start)
    i.Tos_SysTick                            0x08002068   Section        0  tos.o(i.Tos_SysTick)
    i.Tos_TaskCreate                         0x080020b8   Section        0  tos.o(i.Tos_TaskCreate)
    i.Tos_TaskCreateFindID                   0x08002188   Section        0  tos.o(i.Tos_TaskCreateFindID)
    i.Tos_TaskDelay                          0x080021ec   Section        0  tos.o(i.Tos_TaskDelay)
    i.Tos_TaskDropDev                        0x0800224c   Section        0  tos_device.o(i.Tos_TaskDropDev)
    i.Tos_TaskGetDev                         0x0800228c   Section        0  tos_device.o(i.Tos_TaskGetDev)
    i.Tos_TaskReady                          0x08002318   Section        0  tos.o(i.Tos_TaskReady)
    i.Tos_TaskRun                            0x080023d8   Section        0  tos.o(i.Tos_TaskRun)
    i.Tos_TaskStackInit                      0x0800242c   Section        0  tos.o(i.Tos_TaskStackInit)
    i.Tos_TaskStart                          0x0800249c   Section        0  tos.o(i.Tos_TaskStart)
    i.Tos_TaskSuspend                        0x080024c0   Section        0  tos.o(i.Tos_TaskSuspend)
    i.Tos_TaskSwitch                         0x0800253c   Section        0  tos.o(i.Tos_TaskSwitch)
    i.Tos_TaskTcbInit                        0x080025dc   Section        0  tos.o(i.Tos_TaskTcbInit)
    i.Tos_TaskTimeout                        0x080025f0   Section        0  tos.o(i.Tos_TaskTimeout)
    i.Tos_TimerReady                         0x08002644   Section        0  tos_timer.o(i.Tos_TimerReady)
    i.Tos_WaitDev                            0x08002698   Section        0  tos.o(i.Tos_WaitDev)
    i.USART1_IRQHandler                      0x080026d4   Section        0  usartl_driver.o(i.USART1_IRQHandler)
    i.USART2_IRQHandler                      0x08002728   Section        0  usartl_driver.o(i.USART2_IRQHandler)
    i.USART3_IRQHandler                      0x08002788   Section        0  usartl_driver.o(i.USART3_IRQHandler)
    i.USART_ClearFlag                        0x080027e8   Section        0  stm32l1xx_usart.o(i.USART_ClearFlag)
    i.USART_ClearITPendingBit                0x080027fa   Section        0  stm32l1xx_usart.o(i.USART_ClearITPendingBit)
    i.USART_Cmd                              0x08002818   Section        0  stm32l1xx_usart.o(i.USART_Cmd)
    i.USART_Configuration                    0x08002830   Section        0  usartl_driver.o(i.USART_Configuration)
    i.USART_ConfigurationAll                 0x080028c8   Section        0  usartl_driver.o(i.USART_ConfigurationAll)
    i.USART_GPIO_Init                        0x08002938   Section        0  usartl_driver.o(i.USART_GPIO_Init)
    i.USART_GPIO_InitAll                     0x08002a20   Section        0  usartl_driver.o(i.USART_GPIO_InitAll)
    i.USART_GetFlagStatus                    0x08002a5c   Section        0  stm32l1xx_usart.o(i.USART_GetFlagStatus)
    i.USART_GetITStatus                      0x08002a76   Section        0  stm32l1xx_usart.o(i.USART_GetITStatus)
    i.USART_GetIndex                         0x08002acc   Section        0  usartl_driver.o(i.USART_GetIndex)
    i.USART_GetTypeDef                       0x08002b14   Section        0  usartl_driver.o(i.USART_GetTypeDef)
    i.USART_ITConfig                         0x08002b50   Section        0  stm32l1xx_usart.o(i.USART_ITConfig)
    i.USART_Init                             0x08002b9c   Section        0  stm32l1xx_usart.o(i.USART_Init)
    i.USART_Read                             0x08002c68   Section        0  usartl_driver.o(i.USART_Read)
    i.USART_ReadDatas                        0x08002ca8   Section        0  usartl_driver.o(i.USART_ReadDatas)
    i.USART_SendData                         0x08002d60   Section        0  stm32l1xx_usart.o(i.USART_SendData)
    i.USART_Write                            0x08002d68   Section        0  usartl_driver.o(i.USART_Write)
    i.USART_WriteDatas                       0x08002d88   Section        0  usartl_driver.o(i.USART_WriteDatas)
    i.UsageFault_Handler                     0x08002db6   Section        0  stm32l1xx_it.o(i.UsageFault_Handler)
    i.WS2812_Write                           0x08002dbc   Section        0  main.o(i.WS2812_Write)
    i.WS2812_WriteList                       0x08002dd4   Section        0  main.o(i.WS2812_WriteList)
    i.WS_Double                              0x08003116   Section        0  main.o(i.WS_Double)
    i.__0vsprintf                            0x08003198   Section        0  printfa.o(i.__0vsprintf)
    i.__scatterload_copy                     0x080031bc   Section       14  handlers.o(i.__scatterload_copy)
    i.__scatterload_null                     0x080031ca   Section        2  handlers.o(i.__scatterload_null)
    i.__scatterload_zeroinit                 0x080031cc   Section       14  handlers.o(i.__scatterload_zeroinit)
    i._fp_digits                             0x080031dc   Section        0  printfa.o(i._fp_digits)
    _fp_digits                               0x080031dd   Thumb Code   326  printfa.o(i._fp_digits)
    i._printf_core                           0x08003338   Section        0  printfa.o(i._printf_core)
    _printf_core                             0x08003339   Thumb Code  1762  printfa.o(i._printf_core)
    i._printf_post_padding                   0x08003a28   Section        0  printfa.o(i._printf_post_padding)
    _printf_post_padding                     0x08003a29   Thumb Code    38  printfa.o(i._printf_post_padding)
    i._printf_pre_padding                    0x08003a4e   Section        0  printfa.o(i._printf_pre_padding)
    _printf_pre_padding                      0x08003a4f   Thumb Code    48  printfa.o(i._printf_pre_padding)
    i._sputc                                 0x08003a7e   Section        0  printfa.o(i._sputc)
    _sputc                                   0x08003a7f   Thumb Code    10  printfa.o(i._sputc)
    i.main                                   0x08003a88   Section        0  main.o(i.main)
    .constdata                               0x08003ab8   Section      268  main.o(.constdata)
    .conststring                             0x08003bc4   Section        6  main.o(.conststring)
    .data                                    0x20000000   Section       25  stm32l1xx_rcc.o(.data)
    PLLMulTable                              0x20000000   Data           9  stm32l1xx_rcc.o(.data)
    APBAHBPrescTable                         0x20000009   Data          16  stm32l1xx_rcc.o(.data)
    .data                                    0x20000019   Section        1  gpiol_driver.o(.data)
    .data                                    0x2000001a   Section       24  usartl_driver.o(.data)
    .data                                    0x20000034   Section       44  tos.o(.data)
    Count                                    0x20000034   Data           1  tos.o(.data)
    i                                        0x20000035   Data           1  tos.o(.data)
    Pool                                     0x20000038   Data           4  tos.o(.data)
    Use                                      0x2000003c   Data           1  tos.o(.data)
    .data                                    0x20000060   Section        8  tos_device.o(.data)
    .data                                    0x20000068   Section        4  tos_mema.o(.data)
    .data                                    0x2000006c   Section        4  tos_timer.o(.data)
    .data                                    0x20000070   Section        8  debug.o(.data)
    .bss                                     0x20000078   Section       24  usartl_driver.o(.bss)
    .bss                                     0x20000090   Section     8000  tos_mema.o(.bss)
    STACK                                    0x20001fd0   Section     1024  startup_stm32l1xx_hd.o(STACK)

    Global Symbols

    Symbol Name                              Value     Ov Type        Size  Object(Section)

    BuildAttributes$$THM_ISAv4$P$D$K$B$S$PE$A:L22UL41UL21$X:L11$S22US41US21$IEEE1$IW$USESV6$~STKCKD$USESV7$~SHL$OTIME$ROPI$IEEEX$EBA8$MICROLIB$REQ8$PRES8$EABIv2 0x00000000   Number         0  anon$$obj.o ABSOLUTE
    __ARM_use_no_argv                        0x00000000   Number         0  main.o ABSOLUTE
    __cpp_initialize__aeabi_                  - Undefined Weak Reference
    __cxa_finalize                            - Undefined Weak Reference
    __decompress                              - Undefined Weak Reference
    _clock_init                               - Undefined Weak Reference
    _microlib_exit                            - Undefined Weak Reference
    __Vectors_Size                           0x00000124   Number         0  startup_stm32l1xx_hd.o ABSOLUTE
    __Vectors                                0x08000000   Data           4  startup_stm32l1xx_hd.o(RESET)
    __Vectors_End                            0x08000124   Data           0  startup_stm32l1xx_hd.o(RESET)
    __main                                   0x08000125   Thumb Code     0  entry.o(.ARM.Collect$$$$00000000)
    _main_stk                                0x08000125   Thumb Code     0  entry2.o(.ARM.Collect$$$$00000001)
    _main_scatterload                        0x08000129   Thumb Code     0  entry5.o(.ARM.Collect$$$$00000004)
    __main_after_scatterload                 0x0800012d   Thumb Code     0  entry5.o(.ARM.Collect$$$$00000004)
    _main_clock                              0x0800012d   Thumb Code     0  entry7b.o(.ARM.Collect$$$$00000008)
    _main_cpp_init                           0x0800012d   Thumb Code     0  entry8b.o(.ARM.Collect$$$$0000000A)
    _main_init                               0x0800012d   Thumb Code     0  entry9a.o(.ARM.Collect$$$$0000000B)
    __rt_final_cpp                           0x08000135   Thumb Code     0  entry10a.o(.ARM.Collect$$$$0000000D)
    __rt_final_exit                          0x08000135   Thumb Code     0  entry11a.o(.ARM.Collect$$$$0000000F)
    Reset_Handler                            0x08000139   Thumb Code     8  startup_stm32l1xx_hd.o(.text)
    ADC1_IRQHandler                          0x08000153   Thumb Code     0  startup_stm32l1xx_hd.o(.text)
    AES_IRQHandler                           0x08000153   Thumb Code     0  startup_stm32l1xx_hd.o(.text)
    COMP_ACQ_IRQHandler                      0x08000153   Thumb Code     0  startup_stm32l1xx_hd.o(.text)
    COMP_IRQHandler                          0x08000153   Thumb Code     0  startup_stm32l1xx_hd.o(.text)
    DAC_IRQHandler                           0x08000153   Thumb Code     0  startup_stm32l1xx_hd.o(.text)
    DMA1_Channel1_IRQHandler                 0x08000153   Thumb Code     0  startup_stm32l1xx_hd.o(.text)
    DMA1_Channel2_IRQHandler                 0x08000153   Thumb Code     0  startup_stm32l1xx_hd.o(.text)
    DMA1_Channel3_IRQHandler                 0x08000153   Thumb Code     0  startup_stm32l1xx_hd.o(.text)
    DMA1_Channel4_IRQHandler                 0x08000153   Thumb Code     0  startup_stm32l1xx_hd.o(.text)
    DMA1_Channel5_IRQHandler                 0x08000153   Thumb Code     0  startup_stm32l1xx_hd.o(.text)
    DMA1_Channel6_IRQHandler                 0x08000153   Thumb Code     0  startup_stm32l1xx_hd.o(.text)
    DMA1_Channel7_IRQHandler                 0x08000153   Thumb Code     0  startup_stm32l1xx_hd.o(.text)
    DMA2_Channel1_IRQHandler                 0x08000153   Thumb Code     0  startup_stm32l1xx_hd.o(.text)
    DMA2_Channel2_IRQHandler                 0x08000153   Thumb Code     0  startup_stm32l1xx_hd.o(.text)
    DMA2_Channel3_IRQHandler                 0x08000153   Thumb Code     0  startup_stm32l1xx_hd.o(.text)
    DMA2_Channel4_IRQHandler                 0x08000153   Thumb Code     0  startup_stm32l1xx_hd.o(.text)
    DMA2_Channel5_IRQHandler                 0x08000153   Thumb Code     0  startup_stm32l1xx_hd.o(.text)
    EXTI15_10_IRQHandler                     0x08000153   Thumb Code     0  startup_stm32l1xx_hd.o(.text)
    EXTI1_IRQHandler                         0x08000153   Thumb Code     0  startup_stm32l1xx_hd.o(.text)
    EXTI2_IRQHandler                         0x08000153   Thumb Code     0  startup_stm32l1xx_hd.o(.text)
    EXTI3_IRQHandler                         0x08000153   Thumb Code     0  startup_stm32l1xx_hd.o(.text)
    EXTI4_IRQHandler                         0x08000153   Thumb Code     0  startup_stm32l1xx_hd.o(.text)
    EXTI9_5_IRQHandler                       0x08000153   Thumb Code     0  startup_stm32l1xx_hd.o(.text)
    FLASH_IRQHandler                         0x08000153   Thumb Code     0  startup_stm32l1xx_hd.o(.text)
    I2C1_ER_IRQHandler                       0x08000153   Thumb Code     0  startup_stm32l1xx_hd.o(.text)
    I2C1_EV_IRQHandler                       0x08000153   Thumb Code     0  startup_stm32l1xx_hd.o(.text)
    I2C2_ER_IRQHandler                       0x08000153   Thumb Code     0  startup_stm32l1xx_hd.o(.text)
    I2C2_EV_IRQHandler                       0x08000153   Thumb Code     0  startup_stm32l1xx_hd.o(.text)
    LCD_IRQHandler                           0x08000153   Thumb Code     0  startup_stm32l1xx_hd.o(.text)
    PVD_IRQHandler                           0x08000153   Thumb Code     0  startup_stm32l1xx_hd.o(.text)
    RCC_IRQHandler                           0x08000153   Thumb Code     0  startup_stm32l1xx_hd.o(.text)
    RTC_Alarm_IRQHandler                     0x08000153   Thumb Code     0  startup_stm32l1xx_hd.o(.text)
    RTC_WKUP_IRQHandler                      0x08000153   Thumb Code     0  startup_stm32l1xx_hd.o(.text)
    SDIO_IRQHandler                          0x08000153   Thumb Code     0  startup_stm32l1xx_hd.o(.text)
    SPI1_IRQHandler                          0x08000153   Thumb Code     0  startup_stm32l1xx_hd.o(.text)
    SPI2_IRQHandler                          0x08000153   Thumb Code     0  startup_stm32l1xx_hd.o(.text)
    SPI3_IRQHandler                          0x08000153   Thumb Code     0  startup_stm32l1xx_hd.o(.text)
    TAMPER_STAMP_IRQHandler                  0x08000153   Thumb Code     0  startup_stm32l1xx_hd.o(.text)
    TIM10_IRQHandler                         0x08000153   Thumb Code     0  startup_stm32l1xx_hd.o(.text)
    TIM11_IRQHandler                         0x08000153   Thumb Code     0  startup_stm32l1xx_hd.o(.text)
    TIM3_IRQHandler                          0x08000153   Thumb Code     0  startup_stm32l1xx_hd.o(.text)
    TIM4_IRQHandler                          0x08000153   Thumb Code     0  startup_stm32l1xx_hd.o(.text)
    TIM5_IRQHandler                          0x08000153   Thumb Code     0  startup_stm32l1xx_hd.o(.text)
    TIM6_IRQHandler                          0x08000153   Thumb Code     0  startup_stm32l1xx_hd.o(.text)
    TIM7_IRQHandler                          0x08000153   Thumb Code     0  startup_stm32l1xx_hd.o(.text)
    TIM9_IRQHandler                          0x08000153   Thumb Code     0  startup_stm32l1xx_hd.o(.text)
    UART4_IRQHandler                         0x08000153   Thumb Code     0  startup_stm32l1xx_hd.o(.text)
    UART5_IRQHandler                         0x08000153   Thumb Code     0  startup_stm32l1xx_hd.o(.text)
    USB_FS_WKUP_IRQHandler                   0x08000153   Thumb Code     0  startup_stm32l1xx_hd.o(.text)
    USB_HP_IRQHandler                        0x08000153   Thumb Code     0  startup_stm32l1xx_hd.o(.text)
    USB_LP_IRQHandler                        0x08000153   Thumb Code     0  startup_stm32l1xx_hd.o(.text)
    WWDG_IRQHandler                          0x08000153   Thumb Code     0  startup_stm32l1xx_hd.o(.text)
    __aeabi_dadd                             0x0800015d   Thumb Code   322  dadd.o(.text)
    __aeabi_dsub                             0x0800029f   Thumb Code     6  dadd.o(.text)
    __aeabi_drsub                            0x080002a5   Thumb Code     6  dadd.o(.text)
    __aeabi_dmul                             0x080002ab   Thumb Code   228  dmul.o(.text)
    __aeabi_ddiv                             0x0800038f   Thumb Code   222  ddiv.o(.text)
    __aeabi_d2iz                             0x0800046d   Thumb Code    62  dfixi.o(.text)
    __aeabi_uidiv                            0x080004ab   Thumb Code     0  uidiv.o(.text)
    __aeabi_uidivmod                         0x080004ab   Thumb Code    44  uidiv.o(.text)
    __aeabi_uldivmod                         0x080004d7   Thumb Code    98  uldiv.o(.text)
    __aeabi_llsl                             0x08000539   Thumb Code    30  llshl.o(.text)
    _ll_shift_l                              0x08000539   Thumb Code     0  llshl.o(.text)
    __aeabi_llsr                             0x08000557   Thumb Code    32  llushr.o(.text)
    _ll_ushift_r                             0x08000557   Thumb Code     0  llushr.o(.text)
    __aeabi_lasr                             0x08000577   Thumb Code    36  llsshr.o(.text)
    _ll_sshift_r                             0x08000577   Thumb Code     0  llsshr.o(.text)
    __I$use$fp                               0x0800059b   Thumb Code     0  iusefp.o(.text)
    _double_round                            0x0800059b   Thumb Code    26  depilogue.o(.text)
    _double_epilogue                         0x080005b5   Thumb Code   164  depilogue.o(.text)
    __aeabi_d2ulz                            0x08000659   Thumb Code    48  dfixul.o(.text)
    __aeabi_cdrcmple                         0x08000689   Thumb Code    38  cdrcmple.o(.text)
    __scatterload                            0x080006b1   Thumb Code    28  init.o(.text)
    __scatterload_rt2                        0x080006b1   Thumb Code     0  init.o(.text)
    TOS_ContextSwitch                        0x080006d5   Thumb Code     0  tos_core_a.o(TOS_CORE_A)
    TOS_SwitchToTask                         0x08000707   Thumb Code     0  tos_core_a.o(TOS_CORE_A)
    ADC1_Init                                0x08000759   Thumb Code    16  main.o(i.ADC1_Init)
    ADC_Cmd                                  0x08000895   Thumb Code    22  stm32l1xx_adc.o(i.ADC_Cmd)
    ADC_DMACmd                               0x080008ab   Thumb Code    22  stm32l1xx_adc.o(i.ADC_DMACmd)
    ADC_DMARequestAfterLastTransferCmd       0x080008c1   Thumb Code    22  stm32l1xx_adc.o(i.ADC_DMARequestAfterLastTransferCmd)
    ADC_GetFlagStatus                        0x080008d7   Thumb Code    18  stm32l1xx_adc.o(i.ADC_GetFlagStatus)
    ADC_Init                                 0x080008e9   Thumb Code    74  stm32l1xx_adc.o(i.ADC_Init)
    ADC_RegularChannelConfig                 0x0800093d   Thumb Code   344  stm32l1xx_adc.o(i.ADC_RegularChannelConfig)
    ADC_SoftwareStartConv                    0x08000a95   Thumb Code    10  stm32l1xx_adc.o(i.ADC_SoftwareStartConv)
    BRG_RGB                                  0x08000a9f   Thumb Code    22  main.o(i.BRG_RGB)
    BareDelay                                0x08000ab5   Thumb Code    26  stm32l_cpu.o(i.BareDelay)
    BufferCoppy                              0x08000acf   Thumb Code    34  text.o(i.BufferCoppy)
    BusFault_Handler                         0x08000af1   Thumb Code     4  stm32l1xx_it.o(i.BusFault_Handler)
    DMA_Cmd                                  0x08000af5   Thumb Code    24  stm32l1xx_dma.o(i.DMA_Cmd)
    DMA_DeInit                               0x08000b0d   Thumb Code   324  stm32l1xx_dma.o(i.DMA_DeInit)
    DMA_Init                                 0x08000c59   Thumb Code    60  stm32l1xx_dma.o(i.DMA_Init)
    DeBug                                    0x08000c95   Thumb Code   358  debug.o(i.DeBug)
    DeBug_OutSet                             0x08000e21   Thumb Code     6  debug.o(i.DeBug_OutSet)
    DebugMon_Handler                         0x08000e2d   Thumb Code     2  stm32l1xx_it.o(i.DebugMon_Handler)
    DeviceList_Init                          0x08000e31   Thumb Code   112  tos_device.o(i.DeviceList_Init)
    DeviceMount_GPIO                         0x08000eb1   Thumb Code   180  gpiol_driver.o(i.DeviceMount_GPIO)
    DeviceMount_Usart                        0x08000f7d   Thumb Code   394  usartl_driver.o(i.DeviceMount_Usart)
    Device_Init                              0x08001141   Thumb Code   152  tos_device.o(i.Device_Init)
    Device_Ok                                0x080011f9   Thumb Code    30  tos_device.o(i.Device_Ok)
    EXTI0_IRQHandler                         0x0800121d   Thumb Code    10  stm32l_cpu.o(i.EXTI0_IRQHandler)
    EXTI_ClearITPendingBit                   0x08001229   Thumb Code     6  stm32l1xx_exti.o(i.EXTI_ClearITPendingBit)
    FlowPoolFilter                           0x08001235   Thumb Code    58  text.o(i.FlowPoolFilter)
    GPIO_Init                                0x0800126f   Thumb Code   144  stm32l1xx_gpio.o(i.GPIO_Init)
    GPIO_InitList                            0x08001301   Thumb Code   206  stm32l_cpu.o(i.GPIO_InitList)
    GPIO_PinAFConfig                         0x080013d9   Thumb Code    70  stm32l1xx_gpio.o(i.GPIO_PinAFConfig)
    GPIO_ResetBits                           0x0800141f   Thumb Code     4  stm32l1xx_gpio.o(i.GPIO_ResetBits)
    GPIO_Set                                 0x08001423   Thumb Code    30  gpiol_driver.o(i.GPIO_Set)
    GPIO_SetBits                             0x08001441   Thumb Code     4  stm32l1xx_gpio.o(i.GPIO_SetBits)
    GPIO_SetIndex                            0x08001445   Thumb Code    44  gpiol_driver.o(i.GPIO_SetIndex)
    GetChar_List                             0x08001479   Thumb Code   128  debug.o(i.GetChar_List)
    GetTextLength                            0x080014f9   Thumb Code    24  text.o(i.GetTextLength)
    HardFault_Handler                        0x08001511   Thumb Code     4  stm32l1xx_it.o(i.HardFault_Handler)
    MCU_Reset                                0x08001515   Thumb Code    36  stm32l_cpu.o(i.MCU_Reset)
    MemManage_Handler                        0x08001541   Thumb Code     4  stm32l1xx_it.o(i.MemManage_Handler)
    Mema_Free                                0x08001545   Thumb Code    44  tos_mema.o(i.Mema_Free)
    Mema_GetSize                             0x08001575   Thumb Code    12  tos_mema.o(i.Mema_GetSize)
    Mema_Init                                0x08001581   Thumb Code    22  tos_mema.o(i.Mema_Init)
    Mema_Malloc                              0x0800159d   Thumb Code    72  tos_mema.o(i.Mema_Malloc)
    Moto_A                                   0x080015e9   Thumb Code    46  main.o(i.Moto_A)
    Moto_AB                                  0x08001617   Thumb Code    20  main.o(i.Moto_AB)
    Moto_B                                   0x0800162b   Thumb Code    46  main.o(i.Moto_B)
    NMI_Handler                              0x08001659   Thumb Code     2  stm32l1xx_it.o(i.NMI_Handler)
    NVIC_Init                                0x0800165d   Thumb Code   108  misc.o(i.NVIC_Init)
    NVIC_PriorityGroupConfig                 0x080016d5   Thumb Code    10  misc.o(i.NVIC_PriorityGroupConfig)
    PWM_Set                                  0x080016e9   Thumb Code    46  main.o(i.PWM_Set)
    PendSV_Handler                           0x0800171d   Thumb Code     2  stm32l1xx_it.o(i.PendSV_Handler)
    Pwm_Init                                 0x08001721   Thumb Code   254  main.o(i.Pwm_Init)
    RCC_AHBPeriphClockCmd                    0x08001829   Thumb Code    26  stm32l1xx_rcc.o(i.RCC_AHBPeriphClockCmd)
    RCC_APB1PeriphClockCmd                   0x08001849   Thumb Code    26  stm32l1xx_rcc.o(i.RCC_APB1PeriphClockCmd)
    RCC_APB2PeriphClockCmd                   0x08001869   Thumb Code    26  stm32l1xx_rcc.o(i.RCC_APB2PeriphClockCmd)
    RCC_GetClocksFreq                        0x08001889   Thumb Code   234  stm32l1xx_rcc.o(i.RCC_GetClocksFreq)
    RCC_HSICmd                               0x08001989   Thumb Code     6  stm32l1xx_rcc.o(i.RCC_HSICmd)
    RGB_Light                                0x08001995   Thumb Code    54  main.o(i.RGB_Light)
    SVC_Handler                              0x080019cb   Thumb Code     2  stm32l1xx_it.o(i.SVC_Handler)
    StringEndingAppend                       0x08001ad9   Thumb Code    66  text.o(i.StringEndingAppend)
    SysTick_Handler                          0x08001b1b   Thumb Code     8  stm32l1xx_it.o(i.SysTick_Handler)
    SysTick_Set                              0x08001b25   Thumb Code    76  stm32l_cpu.o(i.SysTick_Set)
    SystemInit                               0x08001b79   Thumb Code    88  system_stm32l1xx.o(i.SystemInit)
    TIM2_IRQHandler                          0x08001be1   Thumb Code     2  stm32l1xx_it.o(i.TIM2_IRQHandler)
    TIM_ARRPreloadConfig                     0x08001be3   Thumb Code    24  stm32l1xx_tim.o(i.TIM_ARRPreloadConfig)
    TIM_Cmd                                  0x08001bfb   Thumb Code    24  stm32l1xx_tim.o(i.TIM_Cmd)
    TIM_OC1Init                              0x08001c13   Thumb Code    56  stm32l1xx_tim.o(i.TIM_OC1Init)
    TIM_OC1PreloadConfig                     0x08001c4b   Thumb Code    18  stm32l1xx_tim.o(i.TIM_OC1PreloadConfig)
    TIM_OC2Init                              0x08001c5d   Thumb Code    70  stm32l1xx_tim.o(i.TIM_OC2Init)
    TIM_OC2PreloadConfig                     0x08001ca3   Thumb Code    26  stm32l1xx_tim.o(i.TIM_OC2PreloadConfig)
    TIM_OC3Init                              0x08001cbd   Thumb Code    66  stm32l1xx_tim.o(i.TIM_OC3Init)
    TIM_OC3PreloadConfig                     0x08001cff   Thumb Code    18  stm32l1xx_tim.o(i.TIM_OC3PreloadConfig)
    TIM_OC4Init                              0x08001d11   Thumb Code    70  stm32l1xx_tim.o(i.TIM_OC4Init)
    TIM_OC4PreloadConfig                     0x08001d57   Thumb Code    26  stm32l1xx_tim.o(i.TIM_OC4PreloadConfig)
    TIM_TimeBaseInit                         0x08001d71   Thumb Code    76  stm32l1xx_tim.o(i.TIM_TimeBaseInit)
    Task_P                                   0x08001dd1   Thumb Code    36  main.o(i.Task_P)
    Task_Task0                               0x08001df9   Thumb Code   152  main.o(i.Task_Task0)
    Tos_ComputeCPURate                       0x08001ed9   Thumb Code    68  tos.o(i.Tos_ComputeCPURate)
    Tos_Init                                 0x08001f35   Thumb Code   132  tos.o(i.Tos_Init)
    Tos_ListCreate                           0x08001fcd   Thumb Code    32  tos.o(i.Tos_ListCreate)
    Tos_RootTask                             0x08001fed   Thumb Code    18  tos.o(i.Tos_RootTask)
    Tos_ScanTimer                            0x08002001   Thumb Code    52  tos_timer.o(i.Tos_ScanTimer)
    Tos_Start                                0x08002039   Thumb Code    32  tos.o(i.Tos_Start)
    Tos_SysTick                              0x08002069   Thumb Code    42  tos.o(i.Tos_SysTick)
    Tos_TaskCreate                           0x080020b9   Thumb Code   204  tos.o(i.Tos_TaskCreate)
    Tos_TaskCreateFindID                     0x08002189   Thumb Code    94  tos.o(i.Tos_TaskCreateFindID)
    Tos_TaskDelay                            0x080021ed   Thumb Code    84  tos.o(i.Tos_TaskDelay)
    Tos_TaskDropDev                          0x0800224d   Thumb Code    56  tos_device.o(i.Tos_TaskDropDev)
    Tos_TaskGetDev                           0x0800228d   Thumb Code   132  tos_device.o(i.Tos_TaskGetDev)
    Tos_TaskReady                            0x08002319   Thumb Code   184  tos.o(i.Tos_TaskReady)
    Tos_TaskRun                              0x080023d9   Thumb Code    66  tos.o(i.Tos_TaskRun)
    Tos_TaskStackInit                        0x0800242d   Thumb Code   110  tos.o(i.Tos_TaskStackInit)
    Tos_TaskStart                            0x0800249d   Thumb Code    28  tos.o(i.Tos_TaskStart)
    Tos_TaskSuspend                          0x080024c1   Thumb Code   118  tos.o(i.Tos_TaskSuspend)
    Tos_TaskSwitch                           0x0800253d   Thumb Code   148  tos.o(i.Tos_TaskSwitch)
    Tos_TaskTcbInit                          0x080025dd   Thumb Code    18  tos.o(i.Tos_TaskTcbInit)
    Tos_TaskTimeout                          0x080025f1   Thumb Code    78  tos.o(i.Tos_TaskTimeout)
    Tos_TimerReady                           0x08002645   Thumb Code    78  tos_timer.o(i.Tos_TimerReady)
    Tos_WaitDev                              0x08002699   Thumb Code    50  tos.o(i.Tos_WaitDev)
    USART1_IRQHandler                        0x080026d5   Thumb Code    64  usartl_driver.o(i.USART1_IRQHandler)
    USART2_IRQHandler                        0x08002729   Thumb Code    76  usartl_driver.o(i.USART2_IRQHandler)
    USART3_IRQHandler                        0x08002789   Thumb Code    76  usartl_driver.o(i.USART3_IRQHandler)
    USART_ClearFlag                          0x080027e9   Thumb Code    18  stm32l1xx_usart.o(i.USART_ClearFlag)
    USART_ClearITPendingBit                  0x080027fb   Thumb Code    30  stm32l1xx_usart.o(i.USART_ClearITPendingBit)
    USART_Cmd                                0x08002819   Thumb Code    24  stm32l1xx_usart.o(i.USART_Cmd)
    USART_Configuration                      0x08002831   Thumb Code   130  usartl_driver.o(i.USART_Configuration)
    USART_ConfigurationAll                   0x080028c9   Thumb Code   110  usartl_driver.o(i.USART_ConfigurationAll)
    USART_GPIO_Init                          0x08002939   Thumb Code   196  usartl_driver.o(i.USART_GPIO_Init)
    USART_GPIO_InitAll                       0x08002a21   Thumb Code    60  usartl_driver.o(i.USART_GPIO_InitAll)
    USART_GetFlagStatus                      0x08002a5d   Thumb Code    26  stm32l1xx_usart.o(i.USART_GetFlagStatus)
    USART_GetITStatus                        0x08002a77   Thumb Code    84  stm32l1xx_usart.o(i.USART_GetITStatus)
    USART_GetIndex                           0x08002acd   Thumb Code    62  usartl_driver.o(i.USART_GetIndex)
    USART_GetTypeDef                         0x08002b15   Thumb Code    40  usartl_driver.o(i.USART_GetTypeDef)
    USART_ITConfig                           0x08002b51   Thumb Code    74  stm32l1xx_usart.o(i.USART_ITConfig)
    USART_Init                               0x08002b9d   Thumb Code   198  stm32l1xx_usart.o(i.USART_Init)
    USART_Read                               0x08002c69   Thumb Code    58  usartl_driver.o(i.USART_Read)
    USART_ReadDatas                          0x08002ca9   Thumb Code   160  usartl_driver.o(i.USART_ReadDatas)
    USART_SendData                           0x08002d61   Thumb Code     8  stm32l1xx_usart.o(i.USART_SendData)
    USART_Write                              0x08002d69   Thumb Code    32  usartl_driver.o(i.USART_Write)
    USART_WriteDatas                         0x08002d89   Thumb Code    46  usartl_driver.o(i.USART_WriteDatas)
    UsageFault_Handler                       0x08002db7   Thumb Code     4  stm32l1xx_it.o(i.UsageFault_Handler)
    WS2812_Write                             0x08002dbd   Thumb Code    18  main.o(i.WS2812_Write)
    WS2812_WriteList                         0x08002dd5   Thumb Code   834  main.o(i.WS2812_WriteList)
    WS_Double                                0x08003117   Thumb Code   130  main.o(i.WS_Double)
    __0vsprintf                              0x08003199   Thumb Code    30  printfa.o(i.__0vsprintf)
    __1vsprintf                              0x08003199   Thumb Code     0  printfa.o(i.__0vsprintf)
    __2vsprintf                              0x08003199   Thumb Code     0  printfa.o(i.__0vsprintf)
    __c89vsprintf                            0x08003199   Thumb Code     0  printfa.o(i.__0vsprintf)
    vsprintf                                 0x08003199   Thumb Code     0  printfa.o(i.__0vsprintf)
    __scatterload_copy                       0x080031bd   Thumb Code    14  handlers.o(i.__scatterload_copy)
    __scatterload_null                       0x080031cb   Thumb Code     2  handlers.o(i.__scatterload_null)
    __scatterload_zeroinit                   0x080031cd   Thumb Code    14  handlers.o(i.__scatterload_zeroinit)
    main                                     0x08003a89   Thumb Code    32  main.o(i.main)
    IO_Control_List                          0x08003ab8   Data         204  main.o(.constdata)
    TaskList                                 0x08003b84   Data          48  main.o(.constdata)
    Region$$Table$$Base                      0x08003bcc   Number         0  anon$$obj.o(Region$$Table)
    Region$$Table$$Limit                     0x08003bec   Number         0  anon$$obj.o(Region$$Table)
    DeviceId_GPIO                            0x20000019   Data           1  gpiol_driver.o(.data)
    DeviceId_USART_TX                        0x2000001a   Data           3  usartl_driver.o(.data)
    DeviceId_USART_RX                        0x2000001d   Data           3  usartl_driver.o(.data)
    USART_TX_TaskID                          0x20000020   Data           3  usartl_driver.o(.data)
    USART_RX_TaskID                          0x20000023   Data           3  usartl_driver.o(.data)
    USART_RX_Count                           0x20000026   Data           6  usartl_driver.o(.data)
    USART_RX_Index                           0x2000002c   Data           6  usartl_driver.o(.data)
    guiNextTaskSp                            0x20000040   Data           4  tos.o(.data)
    gpuiCurTaskSpAddr                        0x20000044   Data           4  tos.o(.data)
    Tos_CPUInfor                             0x20000048   Data           8  tos.o(.data)
    Tos_TaskCurrent                          0x20000050   Data           1  tos.o(.data)
    Tos_TaskMail                             0x20000054   Data           4  tos.o(.data)
    Tos_TaskTcb                              0x20000058   Data           4  tos.o(.data)
    Tos_TaskStackIndex                       0x2000005c   Data           4  tos.o(.data)
    DeviceId_Index                           0x20000060   Data           1  tos_device.o(.data)
    Tos_Device_Tab                           0x20000064   Data           4  tos_device.o(.data)
    RootMema                                 0x20000068   Data           4  tos_mema.o(.data)
    Tos_Timer_P                              0x2000006c   Data           4  tos_timer.o(.data)
    DeBug_EN                                 0x20000070   Data           1  debug.o(.data)
    DeBug_Out                                0x20000071   Data           1  debug.o(.data)
    DeBug_Type                               0x20000072   Data           1  debug.o(.data)
    DeBug_CB                                 0x20000074   Data           4  debug.o(.data)
    USART_RX_Buffer                          0x20000078   Data          12  usartl_driver.o(.bss)
    USART_TX_Buffer                          0x20000084   Data          12  usartl_driver.o(.bss)
    MemBuf                                   0x20000090   Data        8000  tos_mema.o(.bss)
    __initial_sp                             0x200023d0   Data           0  startup_stm32l1xx_hd.o(STACK)



==============================================================================

Memory Map of the image

  Image Entry point : 0x08000125

  Load Region LR_IROM1 (Base: 0x08000000, Size: 0x00003c64, Max: 0x00010000, ABSOLUTE)

    Execution Region ER_IROM1 (Base: 0x08000000, Size: 0x00003bec, Max: 0x00010000, ABSOLUTE)

    Base Addr    Size         Type   Attr      Idx    E Section Name        Object

    0x08000000   0x00000124   Data   RO         3786    RESET               startup_stm32l1xx_hd.o
    0x08000124   0x00000000   Code   RO         5752  * .ARM.Collect$$$$00000000  mc_w.l(entry.o)
    0x08000124   0x00000004   Code   RO         5833    .ARM.Collect$$$$00000001  mc_w.l(entry2.o)
    0x08000128   0x00000004   Code   RO         5836    .ARM.Collect$$$$00000004  mc_w.l(entry5.o)
    0x0800012c   0x00000000   Code   RO         5838    .ARM.Collect$$$$00000008  mc_w.l(entry7b.o)
    0x0800012c   0x00000000   Code   RO         5840    .ARM.Collect$$$$0000000A  mc_w.l(entry8b.o)
    0x0800012c   0x00000008   Code   RO         5841    .ARM.Collect$$$$0000000B  mc_w.l(entry9a.o)
    0x08000134   0x00000000   Code   RO         5843    .ARM.Collect$$$$0000000D  mc_w.l(entry10a.o)
    0x08000134   0x00000000   Code   RO         5845    .ARM.Collect$$$$0000000F  mc_w.l(entry11a.o)
    0x08000134   0x00000004   Code   RO         5834    .ARM.Collect$$$$00002712  mc_w.l(entry2.o)
    0x08000138   0x00000024   Code   RO         3787    .text               startup_stm32l1xx_hd.o
    0x0800015c   0x0000014e   Code   RO         5789    .text               mf_w.l(dadd.o)
    0x080002aa   0x000000e4   Code   RO         5791    .text               mf_w.l(dmul.o)
    0x0800038e   0x000000de   Code   RO         5793    .text               mf_w.l(ddiv.o)
    0x0800046c   0x0000003e   Code   RO         5807    .text               mf_w.l(dfixi.o)
    0x080004aa   0x0000002c   Code   RO         5850    .text               mc_w.l(uidiv.o)
    0x080004d6   0x00000062   Code   RO         5852    .text               mc_w.l(uldiv.o)
    0x08000538   0x0000001e   Code   RO         5854    .text               mc_w.l(llshl.o)
    0x08000556   0x00000020   Code   RO         5856    .text               mc_w.l(llushr.o)
    0x08000576   0x00000024   Code   RO         5858    .text               mc_w.l(llsshr.o)
    0x0800059a   0x00000000   Code   RO         5867    .text               mc_w.l(iusefp.o)
    0x0800059a   0x000000be   Code   RO         5870    .text               mf_w.l(depilogue.o)
    0x08000658   0x00000030   Code   RO         5874    .text               mf_w.l(dfixul.o)
    0x08000688   0x00000028   Code   RO         5876    .text               mf_w.l(cdrcmple.o)
    0x080006b0   0x00000024   Code   RO         5884    .text               mc_w.l(init.o)
    0x080006d4   0x00000050   Code   RO         4679    TOS_CORE_A          tos_core_a.o
    0x08000724   0x00000034   Code   RO         5533    i.ADC1_GPIO_Config  main.o
    0x08000758   0x00000010   Code   RO         5534    i.ADC1_Init         main.o
    0x08000768   0x0000012c   Code   RO         5535    i.ADC1_Mode_Config  main.o
    0x08000894   0x00000016   Code   RO          150    i.ADC_Cmd           stm32l1xx_adc.o
    0x080008aa   0x00000016   Code   RO          154    i.ADC_DMACmd        stm32l1xx_adc.o
    0x080008c0   0x00000016   Code   RO          155    i.ADC_DMARequestAfterLastTransferCmd  stm32l1xx_adc.o
    0x080008d6   0x00000012   Code   RO          164    i.ADC_GetFlagStatus  stm32l1xx_adc.o
    0x080008e8   0x00000054   Code   RO          170    i.ADC_Init          stm32l1xx_adc.o
    0x0800093c   0x00000158   Code   RO          175    i.ADC_RegularChannelConfig  stm32l1xx_adc.o
    0x08000a94   0x0000000a   Code   RO          177    i.ADC_SoftwareStartConv  stm32l1xx_adc.o
    0x08000a9e   0x00000016   Code   RO         5536    i.BRG_RGB           main.o
    0x08000ab4   0x0000001a   Code   RO         3901    i.BareDelay         stm32l_cpu.o
    0x08000ace   0x00000022   Code   RO         4794    i.BufferCoppy       text.o
    0x08000af0   0x00000004   Code   RO         3679    i.BusFault_Handler  stm32l1xx_it.o
    0x08000af4   0x00000018   Code   RO          797    i.DMA_Cmd           stm32l1xx_dma.o
    0x08000b0c   0x0000014c   Code   RO          798    i.DMA_DeInit        stm32l1xx_dma.o
    0x08000c58   0x0000003c   Code   RO          803    i.DMA_Init          stm32l1xx_dma.o
    0x08000c94   0x0000018c   Code   RO         4683    i.DeBug             debug.o
    0x08000e20   0x0000000c   Code   RO         4686    i.DeBug_OutSet      debug.o
    0x08000e2c   0x00000002   Code   RO         3680    i.DebugMon_Handler  stm32l1xx_it.o
    0x08000e2e   0x00000002   PAD
    0x08000e30   0x00000080   Code   RO         4500    i.DeviceList_Init   tos_device.o
    0x08000eb0   0x000000cc   Code   RO         3792    i.DeviceMount_GPIO  gpiol_driver.o
    0x08000f7c   0x000001c4   Code   RO         4113    i.DeviceMount_Usart  usartl_driver.o
    0x08001140   0x000000b8   Code   RO         4504    i.Device_Init       tos_device.o
    0x080011f8   0x00000024   Code   RO         4505    i.Device_Ok         tos_device.o
    0x0800121c   0x0000000a   Code   RO         3902    i.EXTI0_IRQHandler  stm32l_cpu.o
    0x08001226   0x00000002   PAD
    0x08001228   0x0000000c   Code   RO          872    i.EXTI_ClearITPendingBit  stm32l1xx_exti.o
    0x08001234   0x0000003a   Code   RO         4815    i.FlowPoolFilter    text.o
    0x0800126e   0x00000090   Code   RO         1300    i.GPIO_Init         stm32l1xx_gpio.o
    0x080012fe   0x00000002   PAD
    0x08001300   0x000000d8   Code   RO         3903    i.GPIO_InitList     stm32l_cpu.o
    0x080013d8   0x00000046   Code   RO         1301    i.GPIO_PinAFConfig  stm32l1xx_gpio.o
    0x0800141e   0x00000004   Code   RO         1307    i.GPIO_ResetBits    stm32l1xx_gpio.o
    0x08001422   0x0000001e   Code   RO         3796    i.GPIO_Set          gpiol_driver.o
    0x08001440   0x00000004   Code   RO         1308    i.GPIO_SetBits      stm32l1xx_gpio.o
    0x08001444   0x00000034   Code   RO         3798    i.GPIO_SetIndex     gpiol_driver.o
    0x08001478   0x00000080   Code   RO         4689    i.GetChar_List      debug.o
    0x080014f8   0x00000018   Code   RO         4827    i.GetTextLength     text.o
    0x08001510   0x00000004   Code   RO         3681    i.HardFault_Handler  stm32l1xx_it.o
    0x08001514   0x0000002c   Code   RO         3916    i.MCU_Reset         stm32l_cpu.o
    0x08001540   0x00000004   Code   RO         3682    i.MemManage_Handler  stm32l1xx_it.o
    0x08001544   0x00000030   Code   RO         4583    i.Mema_Free         tos_mema.o
    0x08001574   0x0000000c   Code   RO         4584    i.Mema_GetSize      tos_mema.o
    0x08001580   0x0000001c   Code   RO         4585    i.Mema_Init         tos_mema.o
    0x0800159c   0x0000004c   Code   RO         4586    i.Mema_Malloc       tos_mema.o
    0x080015e8   0x0000002e   Code   RO         5544    i.Moto_A            main.o
    0x08001616   0x00000014   Code   RO         5545    i.Moto_AB           main.o
    0x0800162a   0x0000002e   Code   RO         5546    i.Moto_B            main.o
    0x08001658   0x00000002   Code   RO         3683    i.NMI_Handler       stm32l1xx_it.o
    0x0800165a   0x00000002   PAD
    0x0800165c   0x00000078   Code   RO            2    i.NVIC_Init         misc.o
    0x080016d4   0x00000014   Code   RO            3    i.NVIC_PriorityGroupConfig  misc.o
    0x080016e8   0x00000034   Code   RO         5547    i.PWM_Set           main.o
    0x0800171c   0x00000002   Code   RO         3684    i.PendSV_Handler    stm32l1xx_it.o
    0x0800171e   0x00000002   PAD
    0x08001720   0x00000108   Code   RO         5549    i.Pwm_Init          main.o
    0x08001828   0x00000020   Code   RO         1923    i.RCC_AHBPeriphClockCmd  stm32l1xx_rcc.o
    0x08001848   0x00000020   Code   RO         1926    i.RCC_APB1PeriphClockCmd  stm32l1xx_rcc.o
    0x08001868   0x00000020   Code   RO         1929    i.RCC_APB2PeriphClockCmd  stm32l1xx_rcc.o
    0x08001888   0x00000100   Code   RO         1938    i.RCC_GetClocksFreq  stm32l1xx_rcc.o
    0x08001988   0x0000000c   Code   RO         1944    i.RCC_HSICmd        stm32l1xx_rcc.o
    0x08001994   0x00000036   Code   RO         5550    i.RGB_Light         main.o
    0x080019ca   0x00000002   Code   RO         3685    i.SVC_Handler       stm32l1xx_it.o
    0x080019cc   0x0000010c   Code   RO         3752    i.SetSysClock       system_stm32l1xx.o
    0x08001ad8   0x00000042   Code   RO         4841    i.StringEndingAppend  text.o
    0x08001b1a   0x00000008   Code   RO         3686    i.SysTick_Handler   stm32l1xx_it.o
    0x08001b22   0x00000002   PAD
    0x08001b24   0x00000054   Code   RO         3928    i.SysTick_Set       stm32l_cpu.o
    0x08001b78   0x00000068   Code   RO         3754    i.SystemInit        system_stm32l1xx.o
    0x08001be0   0x00000002   Code   RO         3687    i.TIM2_IRQHandler   stm32l1xx_it.o
    0x08001be2   0x00000018   Code   RO         2931    i.TIM_ARRPreloadConfig  stm32l1xx_tim.o
    0x08001bfa   0x00000018   Code   RO         2939    i.TIM_Cmd           stm32l1xx_tim.o
    0x08001c12   0x00000038   Code   RO         2967    i.TIM_OC1Init       stm32l1xx_tim.o
    0x08001c4a   0x00000012   Code   RO         2969    i.TIM_OC1PreloadConfig  stm32l1xx_tim.o
    0x08001c5c   0x00000046   Code   RO         2971    i.TIM_OC2Init       stm32l1xx_tim.o
    0x08001ca2   0x0000001a   Code   RO         2973    i.TIM_OC2PreloadConfig  stm32l1xx_tim.o
    0x08001cbc   0x00000042   Code   RO         2975    i.TIM_OC3Init       stm32l1xx_tim.o
    0x08001cfe   0x00000012   Code   RO         2977    i.TIM_OC3PreloadConfig  stm32l1xx_tim.o
    0x08001d10   0x00000046   Code   RO         2979    i.TIM_OC4Init       stm32l1xx_tim.o
    0x08001d56   0x0000001a   Code   RO         2981    i.TIM_OC4PreloadConfig  stm32l1xx_tim.o
    0x08001d70   0x00000060   Code   RO         3007    i.TIM_TimeBaseInit  stm32l1xx_tim.o
    0x08001dd0   0x00000028   Code   RO         5551    i.Task_P            main.o
    0x08001df8   0x000000e0   Code   RO         5552    i.Task_Task0        main.o
    0x08001ed8   0x0000005c   Code   RO         4280    i.Tos_ComputeCPURate  tos.o
    0x08001f34   0x00000098   Code   RO         4282    i.Tos_Init          tos.o
    0x08001fcc   0x00000020   Code   RO         4283    i.Tos_ListCreate    tos.o
    0x08001fec   0x00000012   Code   RO         4284    i.Tos_RootTask      tos.o
    0x08001ffe   0x00000002   PAD
    0x08002000   0x00000038   Code   RO         4637    i.Tos_ScanTimer     tos_timer.o
    0x08002038   0x00000030   Code   RO         4286    i.Tos_Start         tos.o
    0x08002068   0x00000050   Code   RO         4287    i.Tos_SysTick       tos.o
    0x080020b8   0x000000d0   Code   RO         4288    i.Tos_TaskCreate    tos.o
    0x08002188   0x00000064   Code   RO         4289    i.Tos_TaskCreateFindID  tos.o
    0x080021ec   0x00000060   Code   RO         4291    i.Tos_TaskDelay     tos.o
    0x0800224c   0x00000040   Code   RO         4506    i.Tos_TaskDropDev   tos_device.o
    0x0800228c   0x0000008c   Code   RO         4507    i.Tos_TaskGetDev    tos_device.o
    0x08002318   0x000000c0   Code   RO         4300    i.Tos_TaskReady     tos.o
    0x080023d8   0x00000054   Code   RO         4303    i.Tos_TaskRun       tos.o
    0x0800242c   0x0000006e   Code   RO         4305    i.Tos_TaskStackInit  tos.o
    0x0800249a   0x00000002   PAD
    0x0800249c   0x00000024   Code   RO         4306    i.Tos_TaskStart     tos.o
    0x080024c0   0x0000007c   Code   RO         4308    i.Tos_TaskSuspend   tos.o
    0x0800253c   0x000000a0   Code   RO         4309    i.Tos_TaskSwitch    tos.o
    0x080025dc   0x00000012   Code   RO         4310    i.Tos_TaskTcbInit   tos.o
    0x080025ee   0x00000002   PAD
    0x080025f0   0x00000054   Code   RO         4311    i.Tos_TaskTimeout   tos.o
    0x08002644   0x00000054   Code   RO         4638    i.Tos_TimerReady    tos_timer.o
    0x08002698   0x0000003c   Code   RO         4312    i.Tos_WaitDev       tos.o
    0x080026d4   0x00000054   Code   RO         4114    i.USART1_IRQHandler  usartl_driver.o
    0x08002728   0x00000060   Code   RO         4115    i.USART2_IRQHandler  usartl_driver.o
    0x08002788   0x00000060   Code   RO         4116    i.USART3_IRQHandler  usartl_driver.o
    0x080027e8   0x00000012   Code   RO         3437    i.USART_ClearFlag   stm32l1xx_usart.o
    0x080027fa   0x0000001e   Code   RO         3438    i.USART_ClearITPendingBit  stm32l1xx_usart.o
    0x08002818   0x00000018   Code   RO         3441    i.USART_Cmd         stm32l1xx_usart.o
    0x08002830   0x00000098   Code   RO         4117    i.USART_Configuration  usartl_driver.o
    0x080028c8   0x0000006e   Code   RO         4118    i.USART_ConfigurationAll  usartl_driver.o
    0x08002936   0x00000002   PAD
    0x08002938   0x000000e8   Code   RO         4119    i.USART_GPIO_Init   usartl_driver.o
    0x08002a20   0x0000003c   Code   RO         4120    i.USART_GPIO_InitAll  usartl_driver.o
    0x08002a5c   0x0000001a   Code   RO         3444    i.USART_GetFlagStatus  stm32l1xx_usart.o
    0x08002a76   0x00000054   Code   RO         3445    i.USART_GetITStatus  stm32l1xx_usart.o
    0x08002aca   0x00000002   PAD
    0x08002acc   0x00000048   Code   RO         4121    i.USART_GetIndex    usartl_driver.o
    0x08002b14   0x0000003c   Code   RO         4122    i.USART_GetTypeDef  usartl_driver.o
    0x08002b50   0x0000004a   Code   RO         3447    i.USART_ITConfig    stm32l1xx_usart.o
    0x08002b9a   0x00000002   PAD
    0x08002b9c   0x000000cc   Code   RO         3448    i.USART_Init        stm32l1xx_usart.o
    0x08002c68   0x00000040   Code   RO         4123    i.USART_Read        usartl_driver.o
    0x08002ca8   0x000000b8   Code   RO         4124    i.USART_ReadDatas   usartl_driver.o
    0x08002d60   0x00000008   Code   RO         3458    i.USART_SendData    stm32l1xx_usart.o
    0x08002d68   0x00000020   Code   RO         4125    i.USART_Write       usartl_driver.o
    0x08002d88   0x0000002e   Code   RO         4126    i.USART_WriteDatas  usartl_driver.o
    0x08002db6   0x00000004   Code   RO         3688    i.UsageFault_Handler  stm32l1xx_it.o
    0x08002dba   0x00000002   PAD
    0x08002dbc   0x00000018   Code   RO         5558    i.WS2812_Write      main.o
    0x08002dd4   0x00000342   Code   RO         5559    i.WS2812_WriteList  main.o
    0x08003116   0x00000082   Code   RO         5560    i.WS_Double         main.o
    0x08003198   0x00000024   Code   RO         5762    i.__0vsprintf       mc_w.l(printfa.o)
    0x080031bc   0x0000000e   Code   RO         5890    i.__scatterload_copy  mc_w.l(handlers.o)
    0x080031ca   0x00000002   Code   RO         5891    i.__scatterload_null  mc_w.l(handlers.o)
    0x080031cc   0x0000000e   Code   RO         5892    i.__scatterload_zeroinit  mc_w.l(handlers.o)
    0x080031da   0x00000002   PAD
    0x080031dc   0x0000015c   Code   RO         5763    i._fp_digits        mc_w.l(printfa.o)
    0x08003338   0x000006f0   Code   RO         5764    i._printf_core      mc_w.l(printfa.o)
    0x08003a28   0x00000026   Code   RO         5765    i._printf_post_padding  mc_w.l(printfa.o)
    0x08003a4e   0x00000030   Code   RO         5766    i._printf_pre_padding  mc_w.l(printfa.o)
    0x08003a7e   0x0000000a   Code   RO         5768    i._sputc            mc_w.l(printfa.o)
    0x08003a88   0x00000030   Code   RO         5561    i.main              main.o
    0x08003ab8   0x0000010c   Data   RO         5563    .constdata          main.o
    0x08003bc4   0x00000006   Data   RO         5564    .conststring        main.o
    0x08003bca   0x00000002   PAD
    0x08003bcc   0x00000020   Data   RO         5888    Region$$Table       anon$$obj.o


    Execution Region RW_IRAM1 (Base: 0x20000000, Size: 0x000023d0, Max: 0x00002800, ABSOLUTE)

    Base Addr    Size         Type   Attr      Idx    E Section Name        Object

    0x20000000   0x00000019   Data   RW         1961    .data               stm32l1xx_rcc.o
    0x20000019   0x00000001   Data   RW         3800    .data               gpiol_driver.o
    0x2000001a   0x00000018   Data   RW         4129    .data               usartl_driver.o
    0x20000032   0x00000002   PAD
    0x20000034   0x0000002c   Data   RW         4313    .data               tos.o
    0x20000060   0x00000008   Data   RW         4508    .data               tos_device.o
    0x20000068   0x00000004   Data   RW         4588    .data               tos_mema.o
    0x2000006c   0x00000004   Data   RW         4639    .data               tos_timer.o
    0x20000070   0x00000008   Data   RW         4690    .data               debug.o
    0x20000078   0x00000018   Zero   RW         4128    .bss                usartl_driver.o
    0x20000090   0x00001f40   Zero   RW         4587    .bss                tos_mema.o
    0x20001fd0   0x00000400   Zero   RW         3784    STACK               startup_stm32l1xx_hd.o


==============================================================================

Image component sizes


      Code (inc. data)   RO Data    RW Data    ZI Data      Debug   Object Name

       536         44          0          8          0       2071   debug.o
       286         32          0          1          0      10712   gpiol_driver.o
      2172        130        274          0          0       9865   main.o
       140         22          0          0          0     242171   misc.o
        36          8        292          0       1024        848   startup_stm32l1xx_hd.o
       522         10          0          0          0       5566   stm32l1xx_adc.o
       416          8          0          0          0       3406   stm32l1xx_dma.o
        12          6          0          0          0        513   stm32l1xx_exti.o
       222          0          0          0          0       2807   stm32l1xx_gpio.o
        34          0          0          0          0       4648   stm32l1xx_it.o
       364         46          0         25          0       4759   stm32l1xx_rcc.o
       494         20          0          0          0       7008   stm32l1xx_tim.o
       468          6          0          0          0       5905   stm32l1xx_usart.o
       380         26          0          0          0      27580   stm32l_cpu.o
       372         30          0          0          0       1573   system_stm32l1xx.o
       182          0          0          0          0       2656   text.o
      1694        188          0         44          0      10676   tos.o
        80         10          0          0          0        228   tos_core_a.o
       552         70          0          8          0       4263   tos_device.o
       164         14          0          4       8000       2767   tos_mema.o
       140         10          0          4          0       1959   tos_timer.o
      1740        248          0         24         24       9458   usartl_driver.o

    ----------------------------------------------------------------------
     11032        928        600        120       9048     361439   Object Totals
         0          0         32          0          0          0   (incl. Generated)
        26          0          2          2          0          0   (incl. Padding)

    ----------------------------------------------------------------------

      Code (inc. data)   RO Data    RW Data    ZI Data      Debug   Library Member Name

         0          0          0          0          0          0   entry.o
         0          0          0          0          0          0   entry10a.o
         0          0          0          0          0          0   entry11a.o
         8          4          0          0          0          0   entry2.o
         4          0          0          0          0          0   entry5.o
         0          0          0          0          0          0   entry7b.o
         0          0          0          0          0          0   entry8b.o
         8          4          0          0          0          0   entry9a.o
        30          0          0          0          0          0   handlers.o
        36          8          0          0          0         68   init.o
         0          0          0          0          0          0   iusefp.o
        30          0          0          0          0         68   llshl.o
        36          0          0          0          0         68   llsshr.o
        32          0          0          0          0         68   llushr.o
      2256         86          0          0          0        508   printfa.o
        44          0          0          0          0         80   uidiv.o
        98          0          0          0          0         92   uldiv.o
        40          2          0          0          0         68   cdrcmple.o
       334          0          0          0          0        148   dadd.o
       222          0          0          0          0        100   ddiv.o
       190          0          0          0          0        176   depilogue.o
        62          0          0          0          0         80   dfixi.o
        48          0          0          0          0         68   dfixul.o
       228          0          0          0          0         96   dmul.o

    ----------------------------------------------------------------------
      3708        104          0          0          0       1688   Library Totals
         2          0          0          0          0          0   (incl. Padding)

    ----------------------------------------------------------------------

      Code (inc. data)   RO Data    RW Data    ZI Data      Debug   Library Name

      2582        102          0          0          0        952   mc_w.l
      1124          2          0          0          0        736   mf_w.l

    ----------------------------------------------------------------------
      3708        104          0          0          0       1688   Library Totals

    ----------------------------------------------------------------------

==============================================================================


      Code (inc. data)   RO Data    RW Data    ZI Data      Debug   

     14740       1032        600        120       9048     355795   Grand Totals
     14740       1032        600        120       9048     355795   ELF Image Totals
     14740       1032        600        120          0          0   ROM Totals

==============================================================================

    Total RO  Size (Code + RO Data)                15340 (  14.98kB)
    Total RW  Size (RW Data + ZI Data)              9168 (   8.95kB)
    Total ROM Size (Code + RO Data + RW Data)      15460 (  15.10kB)

==============================================================================

