:020000040800F2
:10000000C8A2002045010008F51A0008B51800082C
:10001000591A0008DF070008D9370008000000005F
:10002000000000000000000000000000F51E0008B5
:100030001911000800000000391D00085F270008A2
:100040005F0100085F0100085F0100085F01000810
:100050005F0100085F010008451400085F01000807
:100060005F0100085F0100085F0100085F010008F0
:100070005F0100085F0100085F0100085F010008E0
:100080005F0100085F0100085F0100085F010008D0
:10009000D13700085F0100085F0100085F01000818
:1000A0005F0100085F0100085F0100085F010008B0
:1000B0005F0100085F0100085F0100085F010008A0
:1000C0005F0100085F0100085F0100085F01000890
:1000D0005F010008C13200081533000875330008BD
:1000E0005F0100085F010008B53600085F010008E5
:1000F0005F0100085F0100085F0100085F01000860
:100100005F0100085F0100085F0100085F0100084F
:10011000193200086D3200085F0100085F01000815
:100120005F0100085F0100085F0100085F0100082F
:10013000DFF80CD000F0C2FA004800475D44000828
:10014000C8A200200648804706480047FEE7FEE7B1
:10015000FEE7FEE7FEE7FEE7FEE7FEE7FEE7FEE777
:10016000C1270008310100082DE9FE4F804681EAD1
:100170000300C00F0C46009021F0004123F0004521
:10018000B8EB0200A94105D24046214690461C46E4
:100190000B46024623F00040104304D1404621465E
:1001A00003B0BDE8F08F270DC7F30A00C3F30A516F
:1001B0000290401A0190402866DAC3F3130040F41D
:1001C000801B0098924620B10023D2EB030A63EB18
:1001D0000B0B01985946C0F14002504600F0B2F9AD
:1001E00006460D4650465946019A00F0CAF910EBF2
:1001F00008006141002487EA115284EAE7731A4338
:100200003BD0009A3AB3019A012A4FEA075210DC18
:10021000001B61EB02014FF0004202EA0752CDE9F8
:100220000042001C41F5801132462B4600F0C8F90F
:10023000B6E7001B61EB0201001C41F580130018BA
:100240005B412018A2F5001747EB030140EAD57087
:10025000B6196D4111E06D084FEA360645EAC075E2
:100260004FEA0752001B61EB0201001C41F58011AF
:1002700049084FEA30000019514132462B4603B07D
:10028000BDE8F04F00F08FB9009801224000002334
:10029000D0EB020263EBE073009821464FEAE07472
:1002A000B8EB000061EB0401E9E783F000435BE792
:1002B00081F0004158E72DE9FE4F81EA030404F084
:1002C000004421F0004100944FF0000B23F0004364
:1002D00050EA010402D052EA030404D1002001468E
:1002E00003B0BDE8F08FC3F30A54C1F30A552C44A0
:1002F000A4F2F3340194A0FB0254C1F3130141F4BE
:100300008011C3F3130343F4801301FB024400FB89
:10031000034E840A970A44EA815447EA8357A4FBB0
:10032000076802958D0A05FB07854FEA932C04FBAD
:100330000C542705029D4FEA065847EA1637B5EBDD
:1003400008056EEB070C870E920E47EA811742EA0A
:100350008312A7FB0201B6EB0B0164EB00042B0D2B
:1003600043EA0C335E1844EB1C50DA465146E7FB77
:100370000201C5F313044FEA0B3343EA14534FEA67
:100380000432019C43EA0603A4F10C040294009C8D
:10039000CDE900B400F014F9A2E72DE9F04D81EAAF
:1003A000030404F0004B21F0004514464FF0000A0E
:1003B00023F0004150EA050220D054EA01021DD08A
:1003C000C5F30A570246C5F31303C1F31300C1F383
:1003D0000A5640F4801543F48013A7EB0608101B5F
:1003E000D64608F2FD3873EB050002D308F1010888
:1003F00001E092185B41B8F1000F03DA00200146DA
:10040000BDE8F08D00204FF48011064684460EE0D2
:10041000171B73EB050705D3121B63EB050306439C
:100420004CEA010C49084FEA300092185B4150EA4F
:100430000107EDD152EA030012D082EA040083EAF8
:100440000501084303D100224FF0004308E0101BD0
:10045000AB4102D20122002302E06FF001025310EF
:100460001AEB06004CEB085110EB0A0041EB0B01B4
:10047000BDE8F04D00F097B870B5C1F30A5201F035
:1004800000450024C1F3130140F2FF3341F4801111
:100490009A4201DA002070BD40F233439A42A2F240
:1004A000334203DC524200F05CF800E090402C4301
:1004B000F1D0404270BD30B50B46014600202022ED
:1004C000012409E021FA02F59D4205D303FA02F561
:1004D000491B04FA02F52844151EA2F10102F1DCC1
:1004E00030BD2DE9F05F0546002092469B468846C8
:1004F0000646814640241BE02846414647462246A0
:1005000000F02FF853465A46C01A914110D31146B5
:100510001846224600F016F82D1A67EB01084F46E0
:1005200022460120002100F00DF817EB00094E4192
:10053000201EA4F10104DFDC484631462A4643462A
:10054000BDE8F09F202A04DB203A00FA02F10020E7
:1005500070479140C2F1200320FA03F31943904001
:100560007047202A04DB203A21FA02F0002170476C
:1005700021FA02F3D040C2F120029140084319460B
:100580007047202A06DBCB17203A41FA02F043EAF3
:10059000E07306E041FA02F3D040C2F1200291403C
:1005A00008431946704710B5002B08DA401C41F18A
:1005B000000192185B411A4301D120F0010010BDE7
:1005C0002DE9F04D92469B4611B1B1FA81F202E05D
:1005D000B0FA80F220329046FFF7B4FF04460F468F
:1005E00040EA0A0041EA0B0153465A46084303D148
:1005F00020463946BDE8F08D114653EA010015D07A
:10060000C8F140025046FFF7ACFF05460E46504683
:1006100059464246FFF796FF084301D0012000E00B
:100620000020054346EAE0762C4337430A984FEA18
:100630004453A0EB08004FEAD4240A304FF00002E4
:1006400044EA47544FEAD72502D500200146D1E7B6
:10065000010510196941DDE9084500196941BDE846
:10066000F04DA0E7C1F30A52C1F3130140F2FF338A
:1006700041F480119A4202DA00200146704740F2AC
:1006800033439A42A2F2334202DC5242FFF769BF7F
:10069000FFF758BF30B5002904DB4FF0004440425B
:1006A00064EB0101002B04DB4FF00044524264EB89
:1006B0000303994208BF904230BD0000064C074D2D
:1006C00006E0E06840F0010394E807009847103422
:1006D000AC42F6D3FFF730FD5446000874460008DC
:1006E00070B501EB020410F8015B15F0070301D1AE
:1006F00010F8013B2A1106D110F8012B03E010F885
:10070000016B01F8016B5B1EF9D12B0705D40023A7
:10071000521E0FD401F8013BFAE710F8013B02F139
:100720000202A1EB030303E013F8015B01F8015B94
:10073000521EF9D5A142D6D3002070BD82B02DE95A
:10074000FF1FEFF3038001B4684600F1400000E9A9
:1007500001400C480168C1F800D00B48D0F800D027
:1007600001BC80F30388BDE8FF1F01B000BD06484F
:10077000D0F800D001BC80F30388BDE8FF1F01B0B2
:1007800000BD0000500000204C00002006E04FF4A7
:100790007A7100BF0A00A1F10101FBD10200A0F1B2
:1007A0000100F4D17047F0B5034600201C460D4609
:1007B000104603E014F8016B05F8016B1600A2F176
:1007C0000107BAB2F6D1F0BD30B5034601E003F837
:1007D000011B1400A2F10105AAB2F8D130BD00BF7F
:1007E000FEE70146CAB20B1243EA0220704700003E
:1007F00010B5002469E147F6FF70B9490860B948AF
:10080000008800F00F00B8490870084600780028FA
:100810007DD1B3484438006800F44050B3490880A3
:10082000AF484438006800F03000B1490880AC4956
:10083000443909684BF68F7201EA020080F40050D7
:10084000A74944390860096848F6BF7201EA020006
:1008500080F02000A24944390860A248008810F0C6
:10086000100F38D10846006848F60F7108409C49BF
:100870004439086001F056F89949443909684BF643
:100880008F7201EA02009949098811F4805F01D052
:1008900080F480509549098811F4005F01D080F4FC
:1008A00000508F4944390860096848F6BF7201EA70
:1008B00002008F49097811F0100F01D080F010006C
:1008C0008B49097811F0200F01D080F02000844975
:1008D0004439086010BD82484438006884B214F07E
:1008E000800F3BD07E484438006848F60F710840BE
:1008F0007B494439086001F015F8794944390968A1
:100900004BF68F7201EA02007849098800E0A3E003
:1009100011F4805F01D080F480507449098811F48B
:10092000005F01D080F400506D49443908600968C7
:1009300048F6BF7201EA02006D49097811F0100F04
:1009400001D080F010006A49097811F0200F01D021
:1009500080F02000624944390860BBE714F4006F5E
:100960003BD05F4844380068C0F30E0048F68F71F2
:1009700008405B494439086001F050FC584944394B
:1009800009684BF68F7201EA02005849098811F490
:10099000805F01D080F480505449098811F4005FD1
:1009A00001D080F400504E4944390860096848F687
:1009B000BF7201EA02004E49097811F0100F01D010
:1009C00080F010004A49097811F0200F01D080F022
:1009D00020004349443908607CE714F4004F74D088
:1009E0003F4844380068C0F30E0048F68F71084055
:1009F0003B494439086001F063F9394944390968D1
:100A00004BF68F7201EA02003849098811F4805FC1
:100A100001D080F480503549098811F4005F01D07D
:100A200080F400502E4944390860096848F6BF72C6
:100A300001EA02002E49097811F0100F01D080F070
:100A400010002B49097811F0200F01D080F0200010
:100A50002349443908603DE7234800782049443958
:100A600051F8200084B214F4004F15D01E480078CD
:100A700051F82000C0F30E0048F68F7108401A4963
:100A80000978174A443A42F8210017490978491E63
:100A9000184A52F82100804714F0800F15D01248F0
:100AA00000780F49443951F8200048F60F7108408A
:100AB0000D4909780A4A443A42F821000A4909785E
:100AC000491E0D4A52F8210080470548006880B24F
:100AD0000449088010F4004F7FF48DAE00BFF9E6A2
:100AE000445C00409C01002084010020980100200B
:100AF0009A010020CC000020B0000020084951F8E5
:100B0000201011F4804F0AD0054951F8201048F602
:100B10008F72114041F48041014A42F82010704721
:100B2000005C0040084951F8201011F0400F0AD035
:100B3000054951F8201048F68F72114041F04001EC
:100B4000014A42F820107047005C004002E0002299
:100B500000F8012B0A00A1F1010399B2F7D1704707
:100B6000044951F8201048F68F621140014A42F8BA
:100B700020107047005C00402DE9F04728480068CD
:100B800000F110052E8826480068077AD6B9042F90
:100B900018D12448007801280FD10021224800688C
:100BA00080B2801C214A42F8101030202049088071
:100BB00000BF00201B49087003E0072710201C49D4
:100BC000088027E0AC88A64201D8042000E002207B
:100BD0000746B44200D93446A0B2A9688847804687
:100BE000002000F023FE8146A2B24946404602F0B2
:100BF000FDFDA1B2002001F019FA2888001B288011
:100C0000688820446880302009490880000209492A
:100C1000088000BF024909680F72BDE8F087000034
:100C20008801002089000020505C004000600040E6
:100C30009A010020980100202DE9F0412848006821
:100C400000F110042688A068C0B1BEB1A588B542E5
:100C500000D93546A8B2A168884707462088401BBE
:100C60002080608828446080002000F0BDFD804620
:100C7000AAB24146384601F04BF800BF208850B177
:100C80004FF44050174908800021084601F0CEF982
:100C90003020154908802088A188884204DB032081
:100CA0000F490968087218E02088002804DD052033
:100CB0000B490968087210E0208870B906200849BD
:100CC0000968087200210948006880B2801C084A3F
:100CD00042F81010302004490880BDE8F08100007F
:100CE00088010020980100209A010020505C0040FB
:100CF000006000402DE9F84F9848006845780027CB
:100D0000BA46062D1AD195480068007810F07F0F7A
:100D100013D1924909688878012803D1904909685C
:100D2000CF690AE0022803D18D4909680F6A04E0FF
:100D3000032802D18A4909684F6A90E0002D60D1EA
:100D400086480068408800285BD184480068C088D5
:100D5000022856D1814800680079002851D17F4887
:100D60000068007810F07F0F05D17C48006880880B
:100D700008B97C4F73E079480068007800F07F0084
:100D8000012810D1754909684879754909688A6947
:100D900000219047002862D170480068807A0028BE
:100DA0005DD0704F5BE06D480068007800F07F0018
:100DB000022854D169480068407900F00F0667485E
:100DC0000068407900F0700964480068407910F0CC
:100DD000800F05D0644850F8260000F0300804E089
:100DE000614850F8260000F4405860480078B0424E
:100DF00035D9B9F1000F32D1B8F1000F2FD0594FCA
:100E00002DE0082D07D155480068007810F07F0FBD
:100E100025D1574F23E00A2D21D150480068007892
:100E200000F07F0001281AD14C480068807AB0B1E8
:100E30004A480068408890B948480068007970B90D
:100E400046480068C088012809D1444909684879A2
:100E5000434909688A690021904700B9454F57B155
:100E60003E480068A0F812A03C4800688761002056
:100E7000B84700240FE0394A12685078384A12689F
:100E8000116988470446032C05D1092033490968B4
:100E90000872BDE8F88F31480068008AA0F57F41EC
:100EA000FF3904D109202D4909680872F1E7022CA5
:100EB00003D02A480068008A20B908202749096819
:100EC0000872E6E725480068007810F0800F3CD0F3
:100ED00022480068C088009020480068008A009975
:100EE000884204D91D4900980968088223E01B48FC
:100EF0000068008A19490968C98888421BDA1748BE
:100F00000068008A1649096891F82C10884203DAB3
:100F10000020194908700EE010480068008A104946
:100F2000096891F82C1090FBF1F201FB120010B946
:100F30000120114908700A48006890F82C100748F1
:100F400000688182FFF718FE06E003200349096864
:100F5000087200030949088000BF9AE78801002051
:100F60008C01002081240008005C0040F400002077
:100F7000052400085524000889000020980100205D
:100F80000FB42DE9F04186B0002501260027B002FC
:100F900000F08AFD044654480078FF2801D1012062
:100FA00000E0002050490978504A1278914201D15E
:100FB000012100E0002108437DD00DA805902046C6
:100FC000059A0C9902F0D2FD002005900DA805901D
:100FD00069460C9800F0C8FB06462AE02846691CC2
:100FE000CDB21DF80000012804D0022806D0032845
:100FF0001AD115E0059880C8059019E00598C01D24
:1010000020F007000590D0E90021DDF814C00CF1B4
:10101000080C1046CDF814C0FFF72EFA074607E07B
:10102000059880C8059003E0059880C8059000BF2A
:1010300000BF3000A6F10106D0D1059880C8059008
:10104000002005902A480078FF2801D1012000E007
:10105000002027490978B94201DB012100E0002185
:10106000084338D0214623A001F040FB22480078F5
:1010700010F0020F0DD02149087800F0B5F940B109
:10108000204600F0E3FB8046424621461C4802F021
:1010900001FB1948007810F0040F0FD01749487869
:1010A00000F0A2F950B1204600F0D0FB8046424645
:1010B0002146144800E00EE002F0ECFA1248006805
:1010C00048B1204600F0C2FB00F0FF084146204630
:1010D0000D4A12689047204600F0C0FC06B0BDE8FB
:1010E000F0015DF814FB00007C0000205C00002093
:1010F0007E0000200D0A00007D0000202800002056
:101100000038014000440040800000200149086090
:1011100070470000800000207047000010B50020DC
:101120001A4908704FF4A07000F0BEFC184908601E
:10113000002406E0FF201749085517490855601C90
:10114000C4B2052CF6DB00241DE00020104909681C
:1011500001EB4411486103200D49096801EB44117A
:10116000087200200A49096801EB44110861084926
:10117000096801EB4411C8600549096801EB441195
:101180008861601CC4B20A2CDFDB10BD6C0000203B
:1011900070000020280000202D0000202C49097834
:1011A0002C4A11702A490978491C294A1170294989
:1011B0000978294A1268274B1B7802EB43121171F8
:1011C00026A1254A1268234B1B7802EB43121160BB
:1011D0000021214A12681F4B1B7802EB4312517108
:1011E00002221D4909681B4B1B7801EB4311CA7190
:1011F000012219490968174B1B7801EB43110A7248
:101200001849154A1268134B1B7802EB43125161BF
:10121000114909680F4A127801EB4211C861002296
:101220000D4909680B4B1B7801EB4311CA60002183
:10123000094A1268074B1B7802EB43121161002226
:1012400005490968034B1B7801EB43118A6170471C
:101250006C0000203C000020700000204750494FE7
:1012600000000000A91500082C4909782C4A1170CB
:101270002A490978491C294A117029490978294ABB
:101280001268274B1B7802EB4312117126A1254AE5
:101290001268234B1B7802EB431211600021214A94
:1012A00012681F4B1B7802EB4312517102221D4939
:1012B00009681B4B1B7801EB4311CA7101221949C4
:1012C0000968174B1B7801EB43110A721749154A3D
:1012D0001268134B1B7802EB4312516111490968E4
:1012E0000F4A127801EB4211C86100220D490968CA
:1012F0000B4B1B7801EB4311CA600021094A1268AD
:10130000074B1B7802EB4312116100220549096863
:10131000034B1B7801EB43118A6170476C0000207E
:101320008800002070000020494F0000A915000827
:1013300010B5032124A0FFF723FE002441E0294833
:10134000006800EB44104069C8B32648006800EB11
:101350004410C079012806D0022817D003280ED0E7
:1013600004282BD11EE01F4A126802EB4412107FA2
:101370001C4A126802EB4412516988471EE0194961
:10138000096801EB44114869804717E0154A126863
:1013900002EB4412D069134A126802EB44125169FD
:1013A00088470BE00F4A126802EB4412D0690D4ADD
:1013B000126802EB44125169884700BF00BF601CED
:1013C000C4B20A2CBBDB10BD546F73204465766930
:1013D000636520496E69742E2E2E2E2E2E2E2E2EF3
:1013E0002E000000700000200146FF2901D10020DE
:1013F00070470548006800EB4110406908B90020BB
:10140000F6E70120F4E70000700000200020014909
:1014100008607047A800002000B5032000F0F4F930
:10142000064908600846006882B24FF48871044893
:1014300000F06EFC032000F0D7FD00BDA4000020EA
:10144000889E0020012000F003F800F0F1FA00006F
:1014500001490860704700001404014070B504465B
:101460000025107820B116782068B0FBF6F085B220
:101470002068084420601078984203DA1078401CF5
:10148000107002E02068401B206016782068B0FBD6
:10149000F6F080B270BD2DE9F0410246002500262D
:1014A000002000230024002791F803C00CF00F0552
:1014B00091F803C01CF0100F03D091F802C04CEA61
:1014C000050591F800C0BCF1000F31D01468002070
:1014D0002BE04FF0010C0CFA00F3B1F800C00CEA5D
:1014E00003069E4220D183004FF00F0C0CFA03F745
:1014F000BC4305FA03FC4CEA040491F803C0BCF1B8
:10150000280F06D14FF0010C0CFA00FCC2F814C0F1
:101510000AE091F803C0BCF1480F05D14FF0010C6F
:101520000CFA00FCC2F810C0401C0828D1D314608B
:10153000B1F800C0BCF1FF0F34DD546800202EE08C
:1015400000F1080C4FF0010808FA0CF3B1F800C0E4
:101550000CEA03069E4221D183004FF00F0C0CFAD7
:1015600003F7BC4305FA03FC4CEA040491F803C0FA
:10157000BCF1280F05D100F1080C08FA0CF8C2F8EC
:10158000148091F803C0BCF1480F07D100F1080C9A
:101590004FF0010808FA0CF8C2F81080401C082827
:1015A000CED35460BDE8F08138B5044636E01D4A1C
:1015B0006068811A904217D009DC1B4940180DD091
:1015C000B0F5806F0CD0B0F5006F13D10AE0B1F523
:1015D000806F0BD0B1F5006F0CD109E0042509E054
:1015E000082507E0102505E0202503E0402501E05F
:1015F000802500BF00BF45F00100012100F0F2FB93
:1016000020788DF802002089ADF8000060788DF810
:10161000030069466068FFF73EFF0C34207800281D
:10162000C5D138BD0014014000F8FEBFF0B50A4630
:10163000002300240021002500F00046B6F1004FF1
:1016400002D11D4EF16901E01B4E7168C0F30345E4
:1016500083B200F44016B6F5401F08D121F0706146
:10166000154E766826F07066134F7E6012E000F427
:101670008016B6F5801F06D1032606FA05F4A143AD
:1016800041F0706106E0460D360103FA06F6B143FB
:1016900041F0706122B1460D360103FA06F631437E
:1016A00000F00046B6F1004F02D1034EF16101E0B7
:1016B000014E7160F0BD00000000014041617047C3
:1016C0001FB51C462CB1BDF80810019800F030F889
:1016D00004E0BDF808100198FFF7F0FF1FBD0000FF
:1016E0002DE9F0410546104800681049097800EBE3
:1016F0004110C669002412E004EB440016F82000F3
:1017000000B90EE005F0010304EB440006EB80078E
:1017100097E80700FFF7D4FF6D08601CC4B2FF2CE8
:10172000EADB00BFBDE8F081700000203C00002033
:10173000016170472DE9F04104460D4608480068F4
:101740000849097800EB4110C66904EB440006EB38
:1017500080072B4697E80700FFF7B2FFBDE8F0814E
:10176000700000203C000020F0B504460A4600232B
:1017700000200025214633E00E78252E02D10125D8
:10178000461CB0B2012D2AD10E78642E06D1AC468B
:101790001E465F1CBBB202F806C000250E78662EFE
:1017A00007D14FF0020C1E465F1CBBB202F806C008
:1017B00000250E78732E07D14FF0030C1E465F1CD8
:1017C000BBB202F806C000250E78632E07D14FF099
:1017D000040C1E465F1CBBB202F806C00025491C63
:1017E0000E78002EC8D1F0BD01460548006880B2D1
:1017F00000EBC100001D034A32F8100080B27047B0
:10180000505C00400060004001460648006880B21D
:1018100000EBC100801D044A32F81000C0F309003B
:1018200070470000505C00400060004001460548E1
:10183000006880B200EBC100034A32F8100080B2A9
:1018400070470000505C00400060004010B5014649
:1018500000200A4601E0431C98B212F8014B002C0C
:10186000F9D110BD10B5114B18681B1D19681B1D4F
:101870001A684FF0FF3001460246A8B10C4CA07028
:10188000030A2371030CA371030E2372A1720B0AC6
:1018900023730B0CA3730B0E2374A274130A23750A
:1018A000130CA375130E237610BD0000E8F7FF1F7D
:1018B0008A00002001E000F0BBF8FCE710B545F21B
:1018C000555000F029F8062000F01AF84FF47F6018
:1018D00000F01CF800F00CF800F002F810BD000059
:1018E0004CF6CC40014908607047000000300040D1
:1018F0004AF6AA2001490860704700000030004005
:10190000014948607047000000300040014988608C
:101910007047000000300040014908607047000037
:101920000030004010B518480068047A022C01D03D
:10193000042C05D1FFF720F913480068047A1CE055
:10194000062C19D110480068407805280ED10E48A1
:101950000068007810F07F0F08D10B490968C8783B
:1019600000F0D2FA09490968086A804708490968FD
:1019700088688047082400E00824034909680C723D
:1019800000F0DCF910BD0000880100209401002067
:101990008C0100202DE9F04781460D469046002637
:1019A0000027B2464146484600F0C1FE0446404684
:1019B000FFF74CFF044435E020785B2803D1701C0E
:1019C000C6B24FF0010A36B920787B2803D1781CC3
:1019D000C7B24FF0010A20785D2801D1701EC6B24F
:1019E00026B920787D2801D1781EC7B20EB9012012
:1019F00000E000200FB9012100E00021084010EABA
:101A00000A0F08D0207805F8010B2846FFF71EFFC3
:101A1000C0B2BDE8F08756EA070002D0207805F88A
:101A2000010B641C20780028C6D100BFF1E700003C
:101A300071B600BF0648006800F4E060054908433D
:101A4000001D03490860BFF3408F00BF00BFFEE7E1
:101A50000CED00E00000FA0500BFFEE702460A4B6D
:101A60001868002106E0A2F10803834200D107E0D4
:101A7000014600680368002BF5D101B10B60704787
:101A800003680B6000BFFAE7740000200549086096
:101A90000021044A126811600821024A126851604C
:101AA000704700007400002010B50346104801681C
:101AB00003F1080083B20FE00868401A4C68001B6D
:101AC000984208D3486842185360086810600A605A
:101AD00002F1080010BD096808680028ECD14868C8
:101AE00042180020106053600A6002F10800F1E71C
:101AF000740000207047704770B5002100230F224A
:101B0000C4780CB3164C246804F4E064C4F5E064B3
:101B1000210AC1F10403CA40447804FA03F184782D
:101B20001440214309010F4C0678A155047804F0B4
:101B30001F050124AC4005786D114FF0E02606EB3F
:101B40008505C5F8004109E0047804F01F0501246B
:101B5000AC40054D0678761145F8264070BD000072
:101B60000CED00E000E400E080E100E00249014308
:101B7000024A1160704700000000FA050CED00E019
:101B800070B50226494800684478484800680078E3
:101B900010F07F0F4AD1092C03D100F0E5FC064676
:101BA00065E0052C14D141480068C0787F280BDC23
:101BB0003E480068807838B93C480068808818B989
:101BC0003A480068807A08B108256BE000264EE0AC
:101BD000032C14D135480068C07801280DD1334852
:101BE0000068808848B931480068407A10F0200FBA
:101BF00003D000F0DDFC064639E0022637E0012C78
:101C000035D12A480068C07801280DD127480068DE
:101C1000808848B925480068407A10F0200F03D02A
:101C200000F054FB064622E0022620E01F48006830
:101C3000007800F07F00012805D10B2C17D100F0AF
:101C40001FFD064613E019480068007800F07F0089
:101C500002280BD1012C03D100F038FB064606E028
:101C6000032C04D100F0B8FC064600E002264EB179
:101C7000E0B20F4A1268516988470646032E01D127
:101C800009250FE00EB108250CE0062500210948C2
:101C9000006880B2801C084A42F8101030200749C2
:101CA000088000BF014909680D7270BD88010020DD
:101CB0008C010020505C0040006000409A01002030
:101CC00010B511480068047A032C01D0052C05D109
:101CD000FEF7B2FF0C480068047A0EE0072C05D12D
:101CE0000A490968C8688047082406E0022C01D028
:101CF000042C01D1082400E00824034909680C726F
:101D000000F01CF810BD0000880100208C010020AC
:101D1000F0B5561C7510074E06EB41042B4605E046
:101D200034F8047B20F8017B401C5B1E002BF7D1AC
:101D3000F0BD0000006000407047000000B50D4895
:101D400090F82C10002000F011F90B480068007A80
:101D5000082805D140020949088010200849088058
:101D600005480068007A092801D1012000BD002043
:101D7000FCE70000F8000020880100209801002006
:101D80009A01002010B5012001F09AFC01240B48B3
:101D9000046000200A490880084600880749086056
:101DA0000020091D08604FF4E050054908800846EE
:101DB000008802490860002010BD0000405C00401F
:101DC0009201002029B1064AD2690243044BDA612C
:101DD00004E0034AD2698243014BDA617047000094
:101DE0000010024029B1064A92690243044B9A61ED
:101DF00004E0034A92698243014B9A6170470000F4
:101E00000010024030B500210022002400232D4D97
:101E10006D6805F00C0121B1042905D0082923D1F2
:101E200005E0294D056022E0274D05601FE0254DA6
:101E30006D6805F47012234D6D6805F48034022539
:101E400005EB92421CB9214D554305600BE01D4D39
:101E50006D6815F4003F03D01C4D5543056002E04A
:101E6000194D5543056002E0174D056000BF00BFE6
:101E7000144D6D6805F0F0010909154D6B5C05689E
:101E8000DD4045600F4D6D6805F4E061090A104DB5
:101E90006B5C4568DD4085600A4D6D6805F46051F6
:101EA000C90A0B4D6B5C4568DD40C560054D6D682A
:101EB00005F44041890B074D6B5CC568B5FBF3F534
:101EC000056130BD0010024000127A0000093D009B
:101ED0000000002010000020014908607047000049
:101EE000D800424210B501210148FFF79FFB10BD09
:101EF00000023000704700004FF6F8710140014ABF
:101F000011607047505C004030B501460C4B1A78A8
:101F100000200DE0C3B20B4C54F8233048F68F7408
:101F20002340C4B22343C4B2064D45F82430401CBC
:101F30009042EFD341F08003024C4C34236030BD1B
:101F4000F4000020005C004010B54A105300054A20
:101F5000126892B202EBC002121D034C44F8123018
:101F600010BD0000505C00400060004010B502460B
:101F70000F48006880B200EBC200801D0D4C04EBDE
:101F800040033E290BDD481111F01F0F01D1441E03
:101F9000A0B24FF4004444EA80241C6007E04810DB
:101FA00011F0010F01D0441CA0B284021C6010BDCE
:101FB000505C00400060004010B50A4B53F82030E0
:101FC0004BF68F7403EA040211F4805F01D082F4AF
:101FD000805211F4005F01D082F40052014B43F8AB
:101FE000202010BD005C0040074A52F820204BF62C
:101FF0008F7302EA030181F4805181F40051024A97
:1020000042F8201070470000005C004010B54A10F4
:102010005300044A126892B202EBC002024C44F828
:10202000123010BD505C004000600040044A12684D
:1020300092B202EBC002921C024B43F8121070479E
:10204000505C00400060004010B50A4B53F820304F
:1020500048F6BF7403EA040211F0100F01D082F0B9
:10206000100211F0200F01D082F02002014B43F842
:10207000202010BD005C0040074A52F8202048F69E
:10208000BF7302EA030181F0100181F02001024ACE
:1020900042F8201070470000005C0040054A52F8EA
:1020A000202048F68F131A400A43024B43F82020A1
:1020B00070470000005C004010B500F001F810BD52
:1020C0000CB50020019000903248006840F4803048
:1020D0003049086000BF2F48006800F400300090CD
:1020E0000198401C0190009818B90198B0F5A06FB4
:1020F000F1D12848006810F4003F02D00120009080
:1021000001E0002000900098012842D12248006898
:1021100040F01000204908600846006820F00300E5
:1021200008600846006840F00200086019484068EE
:10213000184948600846406848600846406840F4CE
:10214000806048600846406820F47C10486008467B
:10215000406840F4E81048600846006840F080702D
:10216000086000BF0B48006810F0007FFAD00948F3
:10217000406820F00300074948600846406840F086
:102180000200486000BF0348406800F00C000828C7
:10219000F9D10CBD001002400020024008B500F04B
:1021A0000FFB012144F22400FFF71CFE0121042053
:1021B000FFF718FE4FF48070ADF8000003208DF893
:1021C000020014208DF8030069460E48FFF763F9FA
:1021D0004FF48060ADF8000004208DF803006946DC
:1021E0000848FFF758F94FF40070ADF800000320DD
:1021F0008DF8020018208DF8030069460148FFF7AA
:102200004AF908BD0008014010B50020FFF764FE40
:102210000121C805FFF7D6FD10BD000008B528480C
:10222000006880B2001D274931F8100080B201EB30
:102230004000009024480068007A09282FD00098B8
:1022400000782149096808700098401C00900098A7
:1022500000781D49096848700098401C009000985B
:10226000801C0090009931F8020B0091FEF7B9FA3A
:102270001549096848800098801C0090009931F841
:10228000020B0091FEF7ADFA0F49096888800098AB
:10229000801C0090009800880B490968C8800120C4
:1022A00009490968087208480068C08810B9FFF732
:1022B00067FC01E0FEF71EFDFFF740FD08BD0000D2
:1022C000505C004000600040880100202DE9F0478C
:1022D00047480068007800F07F08B8F1000F0AD185
:1022E00043480068407A00F0DF00414909684872BD
:1022F0000020BDE8F087B8F1020F76D13C480068B5
:10230000408818B93A480068007908B10220F0E71F
:10231000DFF8E09036480068477927F080052C46C2
:1023200033480068407910F0800F05D0324850F8EB
:10233000240000F0300604E02F4850F8240000F498
:10234000405699F80000A84204D91EB128480068F8
:10235000807A08B90220CCE717F0800F0ED026480B
:1023600050F8240000F03000102837D1E0B2FEF71A
:10237000D9FBE0B23021FFF767FE2FE01E4850F88E
:10238000240000F44050B0F5805F27D1A4B91B4A67
:1023900092F82C10E0B2FFF7E9FD174951F824102C
:1023A0004BF68F7201EA020080F4805080F40050F6
:1023B000114941F8240011E0E0B2FEF79FFB0E49FD
:1023C00051F824104BF68F7201EA020080F480501D
:1023D00080F40050084941F8240000BF084909680A
:1023E00048698047002084E7FFE700BF022080E7BC
:1023F00088010020F4000020005C0040F80000206C
:102400009401002010B504462CB901200649096842
:102410000882002010BD0549096808688047024805
:1024200000680A30F6E700008801002094010020CF
:1024300010B5024606480068438A32B98888C01A37
:10244000034C24682082002010BD08681844FBE774
:102450008801002010B504462CB9012006490968FE
:102460000882002010BD0549096888688047024835
:1024700000680C30F6E7000088010020940100207D
:1024800010B504462CB9022033490968088200209F
:1024900010BD0020314908802F480068007810F0F6
:1024A0007F0F1CD12C490968487A10F0200F05D005
:1024B0002A49097841F00201284A117010F0400FB2
:1024C00006D02649097801F0FE01244A117005E082
:1024D0002249097841F00101204A117036E01E4876
:1024E0000068007800F07F00012801D11B48CFE789
:1024F00019480068007800F07F00022824D1164AAD
:102500001268517901F00F0011F0800F0DD0144ABC
:1025100052F8202002F03002102A14D10F4A12780B
:1025200042F001020D4B1A700DE00D4A52F82020C6
:1025300002F44052B2F5805F05D1084A127842F0A9
:102540000102064B1A7001E00020A1E70549096865
:102550000869804701489BE788010020820100202C
:10256000005C00409401002010B50E480068C0785F
:102570000D494978884213DC0A480068807878B9A8
:1025800008480068808858B906480068C07805493E
:10259000096888720549096848688047002010BDAD
:1025A0000220FCE788010020F400002094010020B4
:1025B00010B507480068407A40F0200004490968D7
:1025C000487204490968C8698047002010BD0000AE
:1025D00088010020940100202DE9F0412448006882
:1025E000467926F080073C4621480068407910F083
:1025F000800F05D01F4850F8240000F0300504E09B
:102600001C4850F8240000F440551B480078A042B4
:1026100008D917480068408820B91DB114480068DF
:10262000807A10B90220BDE8F08116F0800F0CD03E
:10263000104951F8241048F6BF7201EA020080F0F8
:1026400010000C4941F824000CE00A4951F824100C
:102650004BF68F7201EA020080F48050054941F880
:10266000240000BF05490968886980470020DAE72F
:1026700088010020005C0040F4000020940100204C
:1026800010B5174B1B68D978154B1B685879154B3B
:102690001B689A699047044611480068807AE8B13F
:1026A0003CB90F480068007918B90D480068807877
:1026B00008B1022010BD8CB90B490968C868804771
:1026C00007480068407906490968C87204480068EC
:1026D000C0780349096808730020EBE70220E9E7A6
:1026E000880100208C010020940100202DE9F04198
:1026F00006460D462C4637462846FFF7A7F8044401
:102700003046FFF7A3F8804618F1010001D1BDE87B
:10271000F08103E017F8010B04F8010B5FEA0800F1
:10272000A8F10108F6D104F8010B00BFEFE710B5DE
:102730000246087888B10CE0002305E0C81840780C
:1027400008B9104610BD5B1CD05CCC5CA042F5D033
:10275000521C10780028EFD1F4E71046F2E710B5CC
:1027600000F0FEF910BD000030B51249B1F1807FD4
:1027700000D31DE021F07F40401E4FF0E022506169
:1027800050170F22002807DA13071D0E0A4B00F01E
:102790000F04241F1D5503E013071C0E074B1C5488
:1027A00000BF00204FF0E02290610720106100BFC1
:1027B00030BD00004019010018ED00E000E400E029
:1027C00010B51348006840F0010011490860084640
:1027D0004068104908400E494860084600680E49A4
:1027E00008400B4908600846006820F48020086013
:1027F0000846406820F4FE0048604FF41F008860DF
:10280000FFF75AFC4FF000600449086010BD00005B
:10281000001002400000FFF8FFFFF6FE08ED00E0A8
:10282000FFF760FB4FF6FF70FEF75AFF0FE04FF423
:102830007A7000F087FA00210846FEF77BFF4FF41C
:102840007A7000F07FFA01210020FEF773FFEEE7B7
:10285000FFF7A4FCFFF7D8FC00F062FF00F042FF96
:102860000348FEF753FC02E0642000F06BFAFBE73C
:10287000DD3700089AB011A44FF4FA6000F062FA54
:1028800004211EA0FEF77CFB6422002101A8FDF7B5
:102890009BFF1CA201A92046FFF77CF80CE04FF437
:1028A0007A7000F04FFA4FF47A7000F04BFA04227D
:1028B00001A917A0FEF764FBF1E700007B53656EEA
:1028C000736F72446174613A5B7B2756616C756506
:1028D00031273A31322E30307D2C7B2756616C7592
:1028E0006532273A367D2C7B2756616C7565322719
:1028F0003A7472746F737D5D7D0000007374617251
:102900007400000053656E736F724461746100005F
:1029100025730000B2B000250AE005EB45006946CA
:1029200001EB80001EA901EBC5014860681CC5B21F
:102930000A2DF2DB0A211EA800F0D4F91048007815
:10294000104908701BE00A2000F0FCF900F02AFA98
:102950000646A6B174682079012804D0022805D063
:1029600003280BD106E02068804707E0207A216821
:10297000884703E02168A068884700BF00BFE2E7FE
:102980005C000020840000209AB019E00A2000F0CA
:10299000D9F9642101A8FEF7D9F801A801F092F84D
:1029A00004466CB19DF8040050B19DF804008DF808
:1029B00001006B46032201210248007800F028FA4A
:1029C000E4E700008500002010B5104800781328C7
:1029D00004D00F480078401C0D4908700D4800785D
:1029E000401C0C4908700846007864280DDD002062
:1029F00008701423084A064801780848FEF72EFD9F
:102A00000749087000200249087010BD5C000020D2
:102A10004800002040000020410000204400002029
:102A20005400002010B54FF47070FFF73DF81E49B8
:102A3000086002201D49487000204860002428E0FA
:102A4000012004EB4401184A126802EB01110881CD
:102A5000002004EB4401144A126802EB0111886162
:102A6000002104EB4400104A126802EB00100160E0
:102A7000002004EB44010C4A126802EB0111C8610A
:102A800004EB4401084A126802EB01110884601C3F
:102A9000C4B2142CD4DB132005490870002005496A
:102AA00008600549086010BD640000205400002043
:102AB0005C000020680000207800002070B504460B
:102AC000FFF7B0FF04E094E80F0000F0D9F81034ED
:102AD00020680028F7D100F02BF870BDFEF728FC25
:102AE000FEF7ECFE06E0FEF703FF642000F02AF993
:102AF00000F002F8F7E7000010B50C48046804B9CC
:102B000010BD0EE02468A07A10F0010F09D0A07A61
:102B100010F0020F05D0E0688047A07A20F0020094
:102B2000A07220680028EDD100BFE9E778000020FE
:102B300008B5FFF719FE4FF4FA6005A30022074914
:102B40000090132000F034F8132000F07FFA08BD45
:102B50005461736B526F6F7400000000DD2A00082F
:102B600010B5FFF731FF00F095F90848407840288C
:102B700005D1032106A0FEF703FAFEF759FF0B4823
:102B8000006808B100F01EFB10BD000054000020DA
:102B90005461736B2054696D654F75742057696C6F
:102BA0006C20544F532052657365740078000020E8
:102BB0002DE9F04704460D4691461F46DDF820807A
:102BC0000DB9BDE8F08704EB44002C49096801EB1E
:102BD00000100089012800D0F3E704EB44002749E6
:102BE000096801EB0010008C98B91FFA88F0FEF715
:102BF0005BFF064604EB4401204A126802EB011118
:102C0000A1F8208004EB44011C4A126802EB011178
:102C1000CE6104EB4402194B1B6803EB0212118CCA
:102C200004EB4402154B1B6803EB0212D06900F061
:102C300095FA8246022104EB4400104A126802EB26
:102C40000010018104EB44000C49096801EB0010FD
:102C5000456004EB44000949096801EB0010C762B4
:102C60004A462946504600F0B9F904EB4401034AAC
:102C7000126802EB0111086000BFA2E764000020A7
:102C80002DE9F84305460E461746984600241AE0FB
:102C900004EB44001249096801EB0010008900B9F7
:102CA00012E004EB44000E49096801EB00100089B2
:102CB000012800D108E0601C80B20446142802DB21
:102CC0000020BDE8F883E3E700BFE0B23B463246B0
:102CD0002946CDF80080FFF76BFF0120F1E70000E7
:102CE0006400002010B5154A127802EB4202144B22
:102CF0001B6803EB02129062104A127802EB420248
:102D00000F4B1B6803EB021282F8231000220B4BBF
:102D10001B7803EB43030A4C246804EB031383F88A
:102D200024200023054A127802EB4202044C246856
:102D300004EB021282F8253010BD00005C00002078
:102D40006400002010B504461348407801281FD0C5
:102D500000201249097801EB4101114A126802EB87
:102D6000011188610D48007800EB40000C490968AA
:102D700001EB0010446110210848007800EB40008E
:102D8000074A126802EB0010018100F097F902E097
:102D90002046FDF7FBFC10BD540000205C00002025
:102DA0006400002070B51848007800EB4000174917
:102DB000096801EB0014A06A08B9002070BD94F8FE
:102DC000250018B91048007800F052F994F8250051
:102DD00008B90020F2E704F12304D4F80500617873
:102DE00000EBC105607800F10100217890FBF1F261
:102DF00001FB12006070A078A0F10100A070A4F1A6
:102E000023042846DAE700005C000020640000206C
:102E10002DE9F0470646884691469A46142E01DB76
:102E2000BDE8F08706EB46001949096801EB00147C
:102E3000A06A00B9F4E794F8250094F823108842BA
:102E400020DA04F123046078A1780844217890FB0B
:102E5000F1F201FB1200C7B214F82309B84200DCFA
:102E6000DEE7A06A00EBC70585F800804A465046B9
:102E70006968FDF798FC85F8019094F82500401CDE
:102E800084F82500304600F065F800BFC8E7000070
:102E900064000020002056E000EB40012B4A12683D
:102EA00002EB01110989022902D0102947D11DE046
:102EB00000EB4001254A126802EB01118969491CA7
:102EC00000EB4002214B1B6803EB0212916100EB07
:102ED00040011E4A126802EB0111896944F6206222
:102EE000914202D940211A4A517029E0002100EB99
:102EF0004002164B1B6803EB0212916100EB40018C
:102F0000124A126802EB0111496941B9022100EB32
:102F100040020E4B1B6803EB021211810EE000EB26
:102F200040010A4A126802EB01114969491E00EB8F
:102F30004002064B1B6803EB0212516100E000BF28
:102F400000BF411CC8B21428A6DB704764000020F3
:102F500054000020142800DB704700EB4001094AB0
:102F6000126802EB01110989012900D1F4E710214F
:102F700000EB4002034B1B6803EB0212118100BF00
:102F8000EAE700006400002010B504460F4800780E
:102F9000A04200D110BD0D48007800EB40000C4964
:102FA000096801EB00100B490860084804700078BC
:102FB00000EB40000649096801EB00100068064973
:102FC0000860FDF7BBFB00BFE4E700005C000020E9
:102FD00064000020500000204C00002030B5034663
:102FE0001846041F20462160041F20462360002548
:102FF000041F20462560041F20462560041F20462C
:103000002560041F20462560041F20462560041FFC
:1030100020462560041F20462560041F20462560A9
:10302000041F20462560041F20462560041F2046FB
:103030002560041F20462560041F204622604FF0B3
:103040008075041F2046256030BD000010B5044681
:1030500004EB44000449096801EB001000680349CF
:103060000860FDF784FB10BD640000204C000020C8
:1030700010B50446142C00DB10BD04EB44000E49CF
:10308000096801EB00100089012800D1F4E7042051
:1030900004EB4401084A126802EB01110881002187
:1030A00004EB4400044A126802EB0010416100F096
:1030B00005F800BFE0E700006400002010B5022121
:1030C00023480068A0F8981300243DE004EB440076
:1030D0001F49096801EB00100089022802D020284E
:1030E0002ED107E01B480078A04202D02046FFF70F
:1030F0004BFF10BD04EB44001549096801EB0010BB
:1031000090F822001449096801EB4010007A012868
:1031100015D1102004EB44010D4A126802EB011195
:103120000881032004EB4401094A126802EB0111F3
:1031300091F82210084A126802EB4111087200E06F
:1031400000BF00BF601CC4B2142CBFDB00BFD0E7BF
:10315000640000205C00002070000020024650182F
:1031600020F00303A3F1300020F0070070470000B7
:1031700010B5142800DB10BD00EB4002104B1B689B
:1031800003EB02121289042A00D1F4E7002200EBBB
:1031900040030B4C246804EB03139A61102300EBEB
:1031A0004002074C246804EB0212138100EB40023A
:1031B000034B1B6803EB0212516100BFDBE7000009
:1031C0006400002010B51348006800B910BD114814
:1031D0000068E0B10F480068807A10F0010F16D047
:1031E0000C48006800890B4909688988884207DB18
:1031F00008490968C86880470020064909680881AD
:10320000044800680089401C02490968088100BF21
:10321000DCE700007800002010B540F225510E4890
:1032200000F07CF9B8B10C48001D0088C4B20B480E
:10323000C0880B49C98888420DDA0848C188C0880F
:10324000401C064AD0800748C06844540649C878E4
:103250000A21FFF78DFF10BD004C0040D201002075
:10326000C8010020A00100203700002010B540F266
:1032700025510E4800F052F9B0B10C488088C4B214
:103280000B4800890B49098988420DDA08480189F1
:103290000089401C064A10810748006944540749C8
:1032A00008790A21FFF764FF10BD000000500040BC
:1032B000D2010020C8010020A0010020370000201A
:1032C00010B540F225510E4800F028F9B8B10C486D
:1032D000001D0088C4B20B4800880B490988884249
:1032E0000DDA084801880088401C064A108007480B
:1032F00000684454064908780A21FFF739FF10BDD9
:1033000000380140D2010020C8010020A0010020A7
:103310003700002010B540F22551114800F0FEF8AA
:10332000C0B10F48001D0088C4B20E4840880E4945
:103330004988884213DA0B4841884088401C094A72
:1033400050800A4840684454094948780A21FFF7E8
:103350000FFF04E040F22551014800F03BF810BD9A
:1033600000440040D2010020C8010020A00100203C
:103370003700002010B540F22551114800F0CEF87A
:10338000C0B10F48001D0088C4B20E4880880E49A5
:103390008988884213DA0B4881888088401C094A52
:1033A00090800A4880684454094988780A21FFF7C8
:1033B000DFFE04E040F22551014800F00BF810BD9B
:1033C00000480040D2010020C8010020A0010020D8
:1033D0003700002010B500220023A1F510646A3CDC
:1033E00000D100BF0A1201249440A3B2DC43048040
:1033F00010BD21B1828942F40052828104E08289A9
:103400004DF6FF731A4082817047000010B53148B5
:10341000007920B1012806D002280ED108E0002052
:103420002D49C8800DE04FF440502B49C88008E07A
:103430004FF400502849C88003E000F051F8002004
:1034400010BD00BF2348407920B1012806D00228D2
:103450000ED108E00020204908810DE04FF4806083
:103460001D49088108E04FF4C0601B49088103E052
:1034700000F036F80020E3E700BF164880790728FF
:1034800002D0082810D103E00020134988800FE003
:103490001148008918B900200F49888003E04FF4D3
:1034A00080500D49888003E000F01AF80020C7E73B
:1034B00000BF0848006808490860002088810C2087
:1034C0004881064800F07AF801210448FFF791FF8F
:1034D0000120B5E7EC000020389E002000380140B4
:1034E00010B54FF416500B49086000208880C88042
:1034F0004FF4C0600881002088810C204881064874
:1035000000F05CF8012240F22551034800F030F849
:1035100010BD0000389E00200038014070B5024602
:103520000024002300250020A1F510666A3E00D18A
:1035300000BFC1F3421501F01F03012606FA03F391
:10354000012D02D19689334006E0022D02D1168A60
:10355000334001E0968A33400C12012606FA04F447
:103560001688344013B10CB1012000E0002070BD7A
:10357000F0B503460024002600250020A1F51067C1
:103580006A3F00D100BF1846C1F3421401F01F0684
:10359000012707FA06F5012C01D10C3004E0022CBA
:1035A00001D1103000E014301AB107682F430760D2
:1035B00002E00768AF430760F0BD00002DE9F04767
:1035C00085B005460E460024A24600BFA14600274E
:1035D000B08900B100BF2F462C8A4CF6FF70044022
:1035E000F08804432C82AC8928480440B088318993
:1035F0000843718908430443AC81AC8A4FF6FF400D
:103600000440B0890443AC826846FEF7FBFB2048C7
:10361000874202D1DDF80CA001E0DDF808A0A889FE
:1036200010F4004F08D00AEBCA0000EB0A10316812
:103630004900B0FBF1F807E00AEBCA0000EB0A1002
:1036400031688900B0FBF1F86420B8FBF0F00401A8
:103650002009642101FB1089A88910F4004F08D0CB
:10366000322000EBC900B0FBF1F000F0070004438A
:1036700008E0322000EB09106421B0FBF1F000F00B
:103680000F0004432C8105B0BDE8F087FFFEF0FF7A
:103690000038014010B50B46002108E000BF048847
:1036A00014F0800FFBD05C5C84804C1CA1B2914272
:1036B000F4DB10BD00B54FF48020FDF7C9FE00BD5E
:1036C00010B504462CB14FF480710548FDF7F6FFA4
:1036D00004E04FF480710248FEF72AF810BD0000A4
:1036E0000008014010B50848084908600220096830
:1036F00008720748074908600748084908600549F3
:1037000009680868804710BD1C9E002088010020C1
:10371000F80000208C0100202801002094010020E6
:1037200008B54FF4C060FEF721FA14208DF80000B0
:1037300000208DF801008DF8020001208DF80300B3
:103740006846FEF7D9F925208DF8000001208DF894
:1037500001006846FEF7D0F908BD000010B5174813
:103760000068174908800846008800F48060154901
:103770000988084206D04FF6FF3010490860124908
:10378000486880470E48008800F400700D49098899
:10379000084208D04FF6FF50084908600B480078EF
:1037A000401C0A4908700648008800F4004005499A
:1037B0000988084201D0FDF71BF810BD445C0040A9
:1037C0009C01002092010020F8000020AC000020A5
:1037D00010B5FFF7C3FF10BD00BFFEE770B504468C
:1037E0000D462946204600F08DF970BDF0B514460F
:1037F00004F1010C4FEA6C07DFF824C00CEB410325
:103800003D460AE00678401C90F800C046EA0C22CB
:1038100023F8022B9B1C401C6D1E002DF2D1F0BD25
:103820000060004070B504460025212C08D11248E4
:103830000068007800F07F0021280ED10F4D0CE0C9
:10384000202C0AD10C480068007800F07F00212865
:1038500000D10B4D20200B4908700DB9022070BD1E
:103860000548006885610021034800684182002006
:10387000A8470020F3E7000088010020B1380008C5
:10388000413A0008E800002010B5044602492046ED
:10389000FEF7CEFD10BD00005401002010B5044617
:1038A00002492046FEF7C4FD10BD00004C01002077
:1038B000014629B90820034A126810820020704787
:1038C0000148FCE788010020EC00002030B50546E7
:1038D00006480068C478042C01DD002030BD04488F
:1038E00000EBC4012846FEF7A3FDF7E7880100209E
:1038F0005C0100200246002901DD02207047012AF8
:1039000001DD0220FAE70020F8E700000146084840
:103910000068007800F07F00212807D1022901D13A
:1039200000207047222901D10020FAE70220F8E7A1
:103930008801002000B500203449096888723448A5
:10394000C079324909684872002030490968C87254
:10395000FEF7D2FA4FF400710020FEF79FFB102112
:103960000020FEF771FB40210020FEF7EDFA8021D8
:103970000020FEF74BFB0020FDF7F2F8254890F8F9
:103980002C100020FEF7F2FA0020FEF72DFB00219C
:103990000120FEF783FBC0210120FEF737FB202129
:1039A0000120FEF751FB00210120FEF705FB4FF43B
:1039B000C0610220FEF772FB4FF480710220FEF717
:1039C00025FB00210220FEF7F7FA20210220FEF756
:1039D0003BFB00210320FEF761FB4FF488710320BD
:1039E000FEF7B2FA40210320FEF7C0FA4FF440512F
:1039F0000320FEF7E1FA00210320FEF725FB00205B
:103A0000FEF782FA01200449086000BD8801002009
:103A10009E440008F80000207C0100200348817AC1
:103A200011B10521024A1160704700001C9E002060
:103A30007C01002004200149086070477C010020BF
:103A4000014629B90820034A1268108200207047F5
:103A50000148FCE788010020EC00002010B5054873
:103A60000078202804D1FFF7D1FC0020014908701C
:103A700010BD0000E80000207047000010B5FDF701
:103A8000F1FE00200B4909688872FEF77BF90020DF
:103A9000094908604FF40640084908800846008834
:103AA0000549091F0860FFF71BFD00200449086055
:103AB00010BD000088010020445C004092010020FD
:103AC0007C01002070B504460B48006890B10B489B
:103AD000006805280ED10848006882B221460848CF
:103AE000FCF761FE04480068C5B200200249086086
:103AF000284670BD0020FCE7A40000207C010020C7
:103B0000889E00202DE9F04105460C46002626E05F
:103B100002E00120FFF716F9134800680028F8D1E9
:103B2000402C0CDBA4F1400084B2A8194022C02133
:103B3000FFF75CFE402706F1400086B208E0402C0B
:103B400006DAA8192246C021FFF750FE27460024B6
:103B500039460120FEF76AFA0120FEF78DFA002CA3
:103B6000D6D1BDE8F0810000A800002037B514468A
:103B70000846064B6A46214600F0C8F804466946E6
:103B8000002000F066FC20463EBD000053440008C3
:103B900002E008C8121F08C1002AFAD17047704716
:103BA000002001E001C1121F002AFBD17047000074
:103BB0002DE9FF5FDDE90220010DDDF838B0024399
:103BC00010D10F9801244CA2012808D000210098A0
:103BD0000F9BC0E90021C0E90243BDE8FF9F6FEAE7
:103BE0000B01F4E7A1F2FF3144F6105041430D14EC
:103BF0000F9801280ED0A5EB0B00401C4FF00004DD
:103C00003E4EDFF8FC90B0F1000AA04605DACAF19A
:103C1000000717E0CBF10000F0E7074612E0F807D5
:103C200007D02246334640464946FCF744FB8046CF
:103C300089462246334610461946FCF73CFB0446AB
:103C40000E467F10002FEAD1DDE90201BAF1000F24
:103C500042464B4602DAFCF72EFB01E0FCF79DFBE7
:103C600004460E460022274BFCF714FD03D84FF004
:103C7000FF30014607E00022234B20463146FCF787
:103C800073FAFCF7EFFC102409E0002C0ADB0A228F
:103C90000023FCF726FC019B30321A55641E50EAC3
:103CA0000102F2D1641C019AC4F1110314440F9A69
:103CB000012A09D00122084301D15B450FDD4FF0F5
:103CC000000205F101050DE0084303D1A3EB0B054C
:103CD0006D1E09E000204FF0110B0F9088E701DA0C
:103CE00000226D1E002A83D000980F99C0E902318E
:103CF000C0E9004571E700003000000000002440EA
:103D00000000F03F0000F0430000E03F2DE9FF4FCE
:103D100095B09B4689460646002512E2252878D1B3
:103D20000024761CF94A2746012105943378203B6C
:103D300001FA03F0104202D00443761CF6E7307813
:103D40002A2811D06FF02F033078A0F13002092A11
:103D500016D8059A44F0020402EB820203EB4202F9
:103D60001044761C0590EFE759F8042B0592002AC1
:103D700003DA504244F40054059044F00204761CE7
:103D800030782E2816D116F8010F44F004042A28A2
:103D90000DD06FF02F023078A0F13003092B09D835
:103DA00007EB870302EB4303C718761CF3E759F8C8
:103DB000047B761C30786C280FD006DC4C2817D09A
:103DC00068280DD06A2814D104E0742810D07A280D
:103DD0000FD10DE044F400140AE044F4801401E033
:103DE00044F440147278824202D1761C04F58014A7
:103DF000761C307866280BD013DC582877D009DC85
:103E0000002875D04528F6D04628F4D047281AD186
:103E10009FE118E0632835D0642879D0652812D155
:103E200097E1702873D008DC6728F1D069286FD03B
:103E30006E280DD06F2806D1B5E073282CD07528D8
:103E400075D0782874D05A46179990476D1C76E142
:103E5000C4F30250022809D003280DD0D9F800106D
:103E600004280DD00D6009F1040968E1D9F80010AB
:103E7000EA17C1E90052F6E7D9F800100D80F2E721
:103E80000D70F0E719F8041B8DF8001000208DF874
:103E90000100EA46012003E059F804AB4FF0FF307F
:103EA00061074FF0000102D40DE008F101018846DE
:103EB000B9420FDA8045F8DB1AF808100029F4D16E
:103EC00008E008F1010188468142FADB1AF808107F
:103ED0000029F6D105985B46A0EB08072146384635
:103EE000179A00F09EFA284400EB080507E04DE021
:103EF0002BE10DE01AF8010B5A4617999047B8F1DB
:103F00000108F7D25B4621463846179A14E142E091
:103F10000A220092C4F302524FF0000A022A08D08B
:103F200059F804CB032A4FEAEC710AD00DE029E0DE
:103F30002AE009F1070121F00702F2E802C19146E7
:103F400009E00FFA8CFC4FEAEC71042A03D14FFA16
:103F50008CFC4FEAEC71002907DA0A460021DCF1FB
:103F6000000C61EB02012D2202E0220504D52B2278
:103F70008DF80420012203E0E20701D02022F7E7B8
:103F8000904653E00A2102E010220DE010214FF08C
:103F9000000A00910BE010224FF0000A44F00404E4
:103FA0000827009203E008224FF0000A0092C4F3B1
:103FB0000252022A05D059F804CB0021032A08D066
:103FC00009E009F1070121F00702F2E802C1914678
:103FD00005E01FFA8CFC042A01D10CF0FF0C4FF015
:103FE0000008220722D5702827D0009B83F01003F9
:103FF00053EA0A0309D15CEA010206D030228DF8A7
:1040000004208DF8050002229046009B83F00803EF
:1040100053EA0A030AD15CEA010201D1620705D51D
:1040200030228DF804204FF001087F1E582809D057
:1040300037A003900EA8029013E040228DF80420D0
:104040000122E1E737A0F4E753466046009AFCF707
:1040500048FA84460398825C0298A0F1010002901D
:1040600002705CEA0100EFD1029806A9A1EB000002
:1040700000F1200A600702D524F4803400E0012713
:10408000574502DDA7EB0A0000E0002000EB0A0123
:10409000009005984144A0EB01000590E00306D490
:1040A0005B462146179A059800F0BBF905440027A6
:1040B00006E001A85A46C05D179990476D1C7F1C09
:1040C0004745F6DBE0030CD55B462146179A059879
:1040D00000F0A7F9054404E030205A4617999047AC
:1040E0006D1C0099481E00900029F5DC08E002983C
:1040F00002995A460078491C0291179990476D1C05
:10410000BAF10001AAF1010AF1DC6BE10928010012
:10411000303132333435363738396162636465663D
:1041200000000000303132333435363738394142FF
:10413000434445460000000000F060F9054406F1E4
:104140000106307800287FF4E9AD19B02846BDE8B3
:10415000F08F620700D4062709F1070222F0070C4E
:10416000FCE80223E14603F000485FEA080C02D0B5
:104170000FF27C2C0DE05FEA045C02D50FF2742C88
:1041800007E05FEAC47C02D00FF26C2C01E0AFF2D2
:10419000700C4FF0FF3823F00043CDF850C0652875
:1041A0000CD006DC452809D046281DD047283ED132
:1041B0003EE0662818D0672839D139E00021112F58
:1041C00001DB112000E0781CCDE9000106A90EA852
:1041D000FFF7EEFCDDE90F010E9A0391002100923A
:1041E00007F1010A04914EE04FF000400097CDE93D
:1041F000011006A90EA8FFF7DBFCDDE90F02039210
:104200000E9B11990022DDF80CA00093049219B9BD
:1042100007F1010100EB010AB7EB0A0004D4C0F179
:10422000FF3007F1010A0490AAEB0700019046E075
:10423000012F00DA01270021112F01DD112000E0FC
:104240003846CDE9000106A90EA8FFF7B1FCDDE96B
:104250000F010E9A0391002104910092BA462107A2
:104260000CD40399514500DA8A46BAF1010F05DDF5
:10427000009AAAF10101515C302908D0B84202DA53
:1042800010F1040F06DA0121CDE9011017E0AAF1BF
:104290000101E9E7002805DC049901440491AAEB37
:1042A000000102E0411C514500DD8A460499A0EB63
:1042B000010000F1010001904FF000400290200742
:1042C00004D40198504501DBCDF8048000208DF81E
:1042D0004F0002980DF14F07B0F1004F25D02B2071
:1042E0000E9002984FF0020800280CDA404202902B
:1042F0002D200E9007E00A210298FCF7DCF83031FF
:10430000029007F8011DB8F10001A8F10108F2DCE4
:1043100002980028EFD1791E0E980870307800F0CE
:10432000200040F0450007F8020D12A8A0EB07009E
:1043300000F107081498007800B1012000EB0A0191
:10434000019801EBE07105984144A0EB0100A0F158
:1043500001000590E00306D45B462146179A0598B4
:1043600000F05FF805441498007820B15A46179978
:10437000904705F10105E00323D55B462146179AD6
:10438000059800F04EF805441BE00498002807DB70
:10439000DDE90301884203DD0098405C179901E0E4
:1043A000179930205A46904704986D1C401C049081
:1043B0000198401E019004D12E205A46179990472B
:1043C0006D1CBAF10001AAF1010ADEDC05E017F864
:1043D000010B5A46179990476D1CB8F10001A8F1DE
:1043E0000108F4DC5B462146179A0598A4E6000014
:1043F0002D0000002B000000200000002DE9F041FE
:10440000044600251E461746880405D406E03946B2
:104410002020B04705F10105641EF8D52846BDE807
:10442000F0812DE9F041044600251E469046C80360
:1044300001D5302700E02027880405D506E0414655
:104440003846B04705F10105641EF8D52846BDE899
:10445000F0810A68531C0B60107070470748FDF725
:1044600015FBFCF75BFE0648FCF7FEFE0548FCF773
:1044700095FE0548FEF722FB00BFFEE7DC010020A9
:10448000A0450008F445000840450008120100025C
:1044900002000040830440570002010203010902A8
:1044A0004300020100C032090400000102020100C1
:1044B0000524001001052401000104240202052442
:1044C000060001070582030800FF09040100020A33
:1044D00000000007050302400000070581024000BC
:1044E00000040309042603530054004D00690063CF
:1044F0000072006F0065006C00650063007400725C
:10450000006F006E006900630073003203530054B3
:10451000004D003300320020005600690072007424
:1045200000750061006C00200043004F004D00202A
:104530000050006F00720074002000200000000096
:1045400021280008000000003C460008D0070000B9
:1045500051280008000000003C460008D007000079
:1045600075280008000000003C460008409C000040
:10457000152900080000000046460008D00700008A
:10458000892900080000000042460008D00700000A
:10459000000000000000000000000000000000001B
:1045A000021C00000010014001000000021C00007D
:1045B0000010014002000000021C00000010014039
:1045C00004000000021C0000001001400800000070
:1045D000021C00000008014000800000021C0000D6
:1045E000001001401000000000000000000000006A
:1045F0000000000002100000001001400100000057
:104600000210000000100140020000000210000033
:1046100000100140040000000210000000100140E2
:1046200008000000021000000008014000800000A7
:104630000000000000000000000000005461736BE7
:1046400030004B6579005461736B5F417272617227
:10465000790000007446000800000020A00100005E
:10466000E006000814470008A001002028A100006F
:10467000A03B0008412D01020304041009060708AD
:10468000090204060884A24A0469180114023FFFC3
:104690005AFF421AFF0712FF141A03531254124D05
:1046A000123312321231021730130D140C1C08F79A
:1046B0001A040A1119245133C20112081A040713EB
:1046C0007D3A140835391B085D081A79041325381A
:1046D0001B080D101AF5081A9D041A89041ACD0436
:1046E00041324029441A1D280916741A351C138CAE
:1046F000443308121A9E0832431AE10832041AE5BC
:10470000083226130B45330832228A73201A299265
:04471000011C000088
:0400000508000131BD
:00000001FF
