:020000040800F2
:10000000D82F002045010008D51D0008BB1C0008A2
:10001000D11D000889070008BD3600080000000057
:100020000000000000000000000000009D22000809
:100030000D130008000000000F1F0008C723000870
:10004000B1370008A51E0008312400085F01000830
:10005000591900088D2100085F0100085F010008A0
:10006000CD180008ED1800080D1900085F01000800
:10007000250E00084D0E0008750E0008B50E00088C
:100080005F010008E50E00085F0100085F0100083D
:100090007D360008ED0700080D0800082D1900083E
:1000A00051240008B5240008912400087124000898
:1000B0005F010008D5240008F1240008E11C0008B5
:1000C000C11C0008211D0008011D0008492200086C
:1000D0006522000889320008B53300085F01000876
:1000E000A9180008192200087136000845250008E3
:1000F000A92500088525000865250008F5060008E3
:10010000AD1900085F0100080D25000881220008D4
:100110005F0100085F0100085F0100082925000851
:100120000D0F0008350F00085D0F00085F01000883
:10013000DFF80CD000F0A4FA00480047BD400008EA
:10014000D82F00200648804706480047FEE7FEE714
:10015000FEE7FEE7FEE7FEE7FEE7FEE7FEE7FEE777
:10016000D1230008310100082DE9FE4F804681EAC5
:100170000300C00F0C46009021F0004123F0004521
:10018000B8EB0200A94105D24046214690461C46E4
:100190000B46024623F00040104304D1404621465E
:1001A00003B0BDE8F08F270DC7F30A00C3F30A516F
:1001B0000290401A0190402866DAC3F3130040F41D
:1001C000801B0098924620B10023D2EB030A63EB18
:1001D0000B0B01985946C0F14002504600F093F9CC
:1001E00006460D4650465946019A00F0ABF910EB11
:1001F00008006141002487EA115284EAE7731A4338
:100200003BD0009A3AB3019A012A4FEA075210DC18
:10021000001B61EB02014FF0004202EA0752CDE9F8
:100220000042001C41F5801132462B4600F0A9F92E
:10023000B6E7001B61EB0201001C41F580130018BA
:100240005B412018A2F5001747EB030140EAD57087
:10025000B6196D4111E06D084FEA360645EAC075E2
:100260004FEA0752001B61EB0201001C41F58011AF
:1002700049084FEA30000019514132462B4603B07D
:10028000BDE8F04F00F070B9009801224000002353
:10029000D0EB020263EBE073009821464FEAE07472
:1002A000B8EB000061EB0401E9E783F000435BE792
:1002B00081F0004158E72DE9FE4F81EA030404F084
:1002C000004421F0004100944FF0000B23F0004364
:1002D00050EA010402D052EA030404D1002001468E
:1002E00003B0BDE8F08FC3F30A54C1F30A552C44A0
:1002F000A4F2F3340194A0FB0254C1F3130141F4BE
:100300008011C3F3130343F4801301FB024400FB89
:10031000034E840A970A44EA815447EA8357A4FBB0
:10032000076802958D0A05FB07854FEA932C04FBAD
:100330000C542705029D4FEA065847EA1637B5EBDD
:1003400008056EEB070C870E920E47EA811742EA0A
:100350008312A7FB0201B6EB0B0164EB00042B0D2B
:1003600043EA0C335E1844EB1C50DA465146E7FB77
:100370000201C5F313044FEA0B3343EA14534FEA67
:100380000432019C43EA0603A4F10C040294009C8D
:10039000CDE900B400F0F5F8A2E72DE9F04D81EACF
:1003A000030404F0004B21F0004514464FF0000A0E
:1003B00023F0004150EA050220D054EA01021DD08A
:1003C000C5F30A570246C5F31303C1F31300C1F383
:1003D0000A5640F4801543F48013A7EB0608101B5F
:1003E000D64608F2FD3873EB050002D308F1010888
:1003F00001E092185B41B8F1000F03DA00200146DA
:10040000BDE8F08D00204FF48011064684460EE0D2
:10041000171B73EB050705D3121B63EB050306439C
:100420004CEA010C49084FEA300092185B4150EA4F
:100430000107EDD152EA030012D082EA040083EAF8
:100440000501084303D100224FF0004308E0101BD0
:10045000AB4102D20122002302E06FF001025310EF
:100460001AEB06004CEB085110EB0A0041EB0B01B4
:10047000BDE8F04D00F078B830B50B4601460020DD
:100480002022012409E021FA02F59D4205D303FA56
:1004900002F5491B04FA02F52844151EA2F10102D7
:1004A000F1DC30BD2DE9F05F0546002092469B4609
:1004B00088460646814640241BE02846414647467A
:1004C000224600F02FF853465A46C01A914110D3E5
:1004D00011461846224600F016F82D1A67EB01085F
:1004E0004F4622460120002100F00DF817EB0009CD
:1004F0004E41201EA4F10104DFDC484631462A4665
:100500004346BDE8F09F202A04DB203A00FA02F1BE
:10051000002070479140C2F1200320FA03F31943F1
:1005200090407047202A04DB203A21FA02F0002193
:10053000704721FA02F3D040C2F1200291400843F3
:1005400019467047202A06DBCB17203A41FA02F001
:1005500043EAE07306E041FA02F3D040C2F1200220
:10056000914008431946704710B5002B08DA401C2B
:1005700041F1000192185B411A4301D120F00100C2
:1005800010BD2DE9F04D92469B4611B1B1FA81F2B2
:1005900002E0B0FA80F220329046FFF7B4FF044642
:1005A0000F4640EA0A0041EA0B0153465A46084307
:1005B00003D120463946BDE8F08D114653EA0100CB
:1005C00015D0C8F140025046FFF7ACFF05460E4675
:1005D000504659464246FFF796FF084301D0012096
:1005E00000E00020054346EAE0762C4337430A98B2
:1005F0004FEA4453A0EB08004FEAD4240A304FF0EE
:10060000000244EA47544FEAD72502D500200146AC
:10061000D1E7010510196941DDE908450019694173
:10062000BDE8F04DA0E7C1F30A52C1F3130140F257
:10063000FF3341F480119A4202DA002001467047EC
:1006400040F233439A42A2F2334202DC5242FFF7B5
:1006500069BFFFF758BF000030B5002904DB4FF039
:100660000044404264EB0101002B04DB4FF00044E6
:10067000524264EB0303994208BF904230BD000030
:10068000064C074D06E0E06840F0010394E80700DF
:1006900098471034AC42F6D3FFF74EFD50410008A6
:1006A0007041000882B02DE9FF1FEFF3038001B411
:1006B000684600F1400000E901400C480168C1F8BB
:1006C00000D00B48D0F800D001BC80F30388BDE80F
:1006D000FF1F01B000BD0648D0F800D001BC80F378
:1006E0000388BDE8FF1F01B000BD000054000020DA
:1006F0005000002010B5032101A000F02BFD10BD1B
:10070000414443335F49525148616E646C657200E5
:1007100006E04FF47A7100BF0A00A1F10101FBD19C
:100720000200A0F10100F4D1704710B50246042385
:1007300003E0080E02F8010B09021800A3F10104FE
:10074000E3B2F6D1042010BD30B5024604230020E8
:1007500003E0000212F8014B20431C00A3F1010545
:10076000EBB2F6D130BDF0B5034600201C460D4675
:10077000104603E014F8016B05F8016B1600A2F1B6
:100780000107BAB2F6D1F0BD00BFFEE708B50121FE
:10079000842001F0EDFB48208DF803004FF4006049
:1007A000ADF800006946084801F07CF918208DF882
:1007B000030001208DF802000003ADF80000694637
:1007C000014801F06FF908BD0008014008B5142088
:1007D0008DF8000000208DF801008DF80200012046
:1007E0008DF80300684601F0F7FA08BD10B5032143
:1007F00001A000F0AFFC10BD43414E315F525831B3
:100800005F49525148616E646C65720010B50321F6
:1008100001A000F09FFC10BD43414E315F534345A2
:100820005F49525148616E646C657200B1F5007F9A
:100830003AD00FDC202928D006DC01291CD004295D
:100840001DD0082940D11DE0402921D0B1F5807F7D
:100850003AD126E0B1F5004F31D006DCB1F5806F1A
:1008600025D0B1F5006F2FD124E0B1F5803F12D033
:10087000B1F5003F28D111E0154A826025E0082239
:10088000C26022E01022C2601FE0082202611CE068
:100890001022026119E00822426016E01022426034
:1008A00013E00422426010E0042242600DE00422C2
:1008B00042600AE0002282610422426005E00022D8
:1008C00082610422426000E000BF00BF7047000068
:1008D0000101010010B504460B48844209D10121F1
:1008E000480601F035FB00214FF0007001F030FBAD
:1008F00008E00121880601F02BFB00214FF0806009
:1009000001F026FB10BD00000064004010B500217E
:10091000837A012202FA03F13D4A126842F0010291
:100920003B4B1A603A4A1C3212688A43384B1C33DC
:100930001A60027BCAB9364A0C3212688A43344BB9
:100940000C331A604288C38842EA0343304A40327B
:10095000847A42F834300288838842EA03432C4A7E
:100960004032847A02EBC4025360027B012A19D11F
:10097000274A0C3212680A43254B0C331A6042880E
:10098000038842EA0343224A4032847A42F83430F0
:10099000C288838842EA03431D4A4032847A02EBCC
:1009A000C4025360C27A3AB9194A121D12688A43C6
:1009B000174B1B1D1A6006E0154A121D12680A43E8
:1009C000134B1B1D1A60028932B9114A1432126886
:1009D0008A430F4B14331A600289012A06D10C4A4C
:1009E000143212680A430A4B14331A60427B012AFC
:1009F00006D1074A1C3212680A43054B1C331A60A1
:100A0000034A126822F00102014B1A6010BD000077
:100A10000066004070B504460D4600266069284215
:100A200071D0B5F5807F5CD010DC082D35D006DCA8
:100A3000012D20D0022D24D0042D72D127E0102DBD
:100A400031D0202D35D0402D6BD138E0B5F5004F99
:100A500060D009DCB5F5007F49D0B5F5806F4CD08A
:100A6000B5F5006F5DD14FE0B5F5803F2DD0B5F500
:100A7000003F56D12FE0A0682D4900F0CBF9064683
:100A800051E0E068032100F0C5F906464BE0E0685C
:100A9000082100F0BFF9064645E0E068102100F0AB
:100AA000B9F906463FE02069032100F0B3F9064694
:100AB00039E02069082100F0ADF9064633E02069ED
:100AC000102100F0A7F906462DE06068082100F02B
:100AD000A1F9064627E06068102100F09BF9064660
:100AE00021E0A069012100F095F906461BE0A0690C
:100AF000022100F08FF9064615E0A069042100F0FC
:100B000089F906460FE00FE0A069702100F082F934
:100B1000064608E06068042100F07CF9064602E021
:100B2000FFE7002600BF00E00026304670BD000051
:100B3000010101001AB143690B43436102E04369BB
:100B40008B434361704730B5024600200023146890
:100B500024F002041460146844F00104146000E0FE
:100B60005B1C546814F0010F03D1A3F57F44FF3CD4
:100B7000F6D1546814F0010F01D100206CE08C799B
:100B8000012C04D1146844F08004146003E014685C
:100B900024F080041460CC79012C04D1146844F052
:100BA0004004146003E0146824F0400414600C7ADC
:100BB000012C04D1146844F02004146003E014688C
:100BC00024F0200414604C7A012C04D1146844F001
:100BD0001004146003E0146824F0100414608C7A8C
:100BE000012C04D1146844F00804146003E0146874
:100BF00024F008041460CC7A012C04D1146844F069
:100C00000404146003E0146824F0040414608C7875
:100C1000A407CD7844EA05640D7944EA05444D798A
:100C200044EA05540D886D1E2C43D461146824F0E9
:100C300001041460002300E05B1C546814F0010FF1
:100C400003D0A3F57F44FF3CF6D1546814F0010FA4
:100C500001D0002000E0012030BD10B500F5D873B0
:100C600003EB01131B6803F004031372137A53B9E7
:100C700000F5D87303EB01131B6840F2FF7404EA1C
:100C80005353136009E000F5D87303EB01131B689D
:100C90006FF0604404EAD303536000F5D87303EBAC
:100CA00001131B6803F00203537200F5D87303EBC2
:100CB00001135B6803F00F03937200F5D87303EB25
:100CC00001135B681B0AD37400F5D87303EB01139F
:100CD0009B68D37200F5D87303EB01139B681C0A61
:100CE000147300F5D87303EB01139B681C0C547349
:100CF00000F5D87303EB01139B681B0E937300F58B
:100D0000D87303EB0113DB68D37300F5D87303EBDF
:100D10000113DB681C0A147400F5D87303EB01138C
:100D2000DB681C0C547400F5D87303EB0113DB680B
:100D30001B0E937421B9C36843F02003C36003E022
:100D4000036943F02003036110BD1FB500208DF837
:100D50000A008DF80B0001208DF80C000020ADF882
:100D60000000ADF80400ADF80200ADF80600ADF8E3
:100D7000080001208DF80D006846FFF7C7FD1FBD74
:100D80000EB5FFF723FDFFF701FD0121480601F035
:100D9000CFF81748FFF79EFD684600F02BF80020BB
:100DA0008DF806008DF807008DF8080001208DF8F9
:100DB000090000208DF80A008DF80B008DF8020064
:100DC0008DF8030005208DF8040000208DF8050043
:100DD0000920ADF8000069460548FFF7B4FE01227E
:100DE00002210348FFF7A6FEFFF7AFFF0EBD00008C
:100DF0000064004000218171C171017241728172F1
:100E0000C1728170C1700321017102214171012100
:100E100001807047024600200A4201D0012000E014
:100E20000020704710B5032101A000F093F910BD18
:100E3000444D41315F4368616E6E656C325F49526B
:100E40005148616E646C65720000000010B50321AA
:100E500001A000F07FF910BD444D41315F4368614E
:100E60006E6E656C335F49525148616E646C657299
:100E70000000000010B54FF4005000F083F80C485B
:100E8000007801F0A3FE082800D110BD08480078C2
:100E900001F09CFE042804D10548007801F07CFF95
:100EA00004E00A210248007802F09CF800BFECE759
:100EB0001600002010B54FF4003000F063F8084829
:100EC000007801F083FE042804D10548007801F081
:100ED00063FF04E00A210248007802F083F810BDA5
:100EE0002600002010B5032101A000F033F910BD49
:100EF000444D41315F4368616E6E656C375F4952A6
:100F00005148616E646C65720000000010B50321E9
:100F100001A000F01FF910BD444D41325F436861EC
:100F20006E6E656C315F49525148616E646C6572DA
:100F30000000000010B5032101A000F00BF910BD66
:100F4000444D41325F4368616E6E656C325F495259
:100F50005148616E646C65720000000010B5032199
:100F600001A000F0F7F810BD444D41325F436861C5
:100F70006E6E656C335F49525148616E646C657288
:100F80000000000010F0805F02D00349086001E01B
:100F9000024948607047000004040240000002401B
:100FA00021B1026842F00102026004E002684FF6DB
:100FB000FE731A400260704701684FF6FE721140DE
:100FC00001600021016041608160C1604B4988423D
:100FD00008D14A490839496841F00F01474A083A9F
:100FE00051608AE045491431884208D143490839A3
:100FF000496841F0F001414A083A51607DE03F49BB
:101000002831884208D13D490839496841F4706166
:101010003A4A083A516070E038493C31884208D178
:1010200036490839496841F47041344A083A5160F8
:1010300063E032495031884208D130490839496863
:1010400041F470212D4A083A516056E02B49643131
:10105000884208D129490839496841F47001274A72
:10106000083A516049E025497831884208D123493E
:101070000839496841F07061204A083A51603CE003
:101080001F49884206D1011F096841F00F01021F64
:10109000116032E01A491431884208D11849091FF9
:1010A000096841F0F001164A121F116025E0144949
:1010B0002831884208D11249091F096841F470613A
:1010C0000F4A121F116018E00D493C31884208D1C7
:1010D0000B49091F096841F47041094A121F116048
:1010E0000BE007495031884207D10549091F0968BB
:1010F00041F47021024A121F11607047080002403B
:10110000080402401AB103680B43036002E003685D
:101110008B430360704710B50022026847F6F073F6
:101120009A430C6A8B6823430C6923434C6923431D
:101130008C692343CC6923434C6A23438C6A234341
:101140001A430260CB6843600B6883604B68C360DE
:1011500010BD00000FB470B58EB0012400255048BA
:101160000078FF2801D1012000E000204C490978D7
:101170004C4A1278914201D1012100E0002108433C
:101180007ED013A80D9068460D9A129902F01EFBAE
:1011900000200D9013A80D902521129800F014FC4A
:1011A000044602E00D9820C80D902000A4F101042F
:1011B000F8D10D9820C80D9000200D903A48007885
:1011C000FF2801D1012000E0002037490978A94219
:1011D00001D1012100E0002108435CD033480078B0
:1011E00010F0010F07D03248007800F04DFB10B12D
:1011F000684600F083F869462EA001F0C3F82B483A
:10120000007810F0020F0CD02B48007800F03CFB67
:1012100038B1684600F032FD06463146684601F0B6
:10122000E5FF2248007810F0020F0DD02248007828
:1012300000F02AFB40B1684600F020FD0646324629
:1012400069461E4802F004FA1848007810F0040FAE
:101250000CD01B48007800F017FB38B1684600F04E
:101260000DFD06463146684602F00CF90F4800783D
:1012700010F0040F0FD01349487800F005FB00E090
:1012800009E040B1684600F0F9FC0646324669467E
:101290000D4802F0DDF90EB070BC5DF814FB0000E3
:1012A0006500002058000020670000206600002034
:1012B0002A0000200D0A0000140000200038014020
:1012C000220000202F000020004400400248007847
:1012D0000249087070470000580000206500002097
:1012E00010B501F00FFF022000F002F810BD000061
:1012F0000149087070470000660000207047000038
:101300000149087070470000670000207047000026
:1013100010B500201349087000F064FB00241DE0A4
:10132000FF20114901EB4411087100200E4901EB27
:101330004411486103200C4901EB4411087200205C
:10134000094901EB44110861074901EB4411C860E8
:10135000054901EB44118861601CC4B20A2CDFDB33
:1013600010BD000064000020942A0020244800786A
:101370002449087022480078401C214908702148FF
:10138000007821491F4A127801EB421108711FA011
:101390001D491C4A127801EB4211086000211A48CD
:1013A000184A127800EB421041710B201649154A79
:1013B000127801EB4211C87101201349114A1278C9
:1013C00001EB4211087213490F480E4A127800EBE4
:1013D0004210416100200C490A4A127801EB421187
:1013E000C86000210848074A127800EB42100161EA
:1013F0000548044A127800EB4210816170470000F2
:10140000640000201F000020942A002043414E3138
:1014100000000000810D000824480078244908706D
:1014200022480078401C2149087021480078214951
:101430001F4A127801EB421108711FA01D491C4A76
:10144000127801EB4211086000211A48184A1278FC
:1014500000EB421041710B201649154A127801EB3E
:101460004211C87101201349114A127801EB42114F
:10147000087212490F480E4A127800EB421041617F
:1014800000200C490A4A127801EB4211C860002181
:101490000848074A127800EB421001610548044AE7
:1014A000127800EB42108161704700006400002058
:1014B00068000020942A0020435452002D1A00088E
:1014C000244800782449087022480078401C2149AB
:1014D00008702148007821491F4A127801EB421117
:1014E00008711FA01D491C4A127801EB42110860C7
:1014F00000211A48184A127800EB421041710B2063
:101500001649154A127801EB4211C871012013499E
:10151000114A127801EB4211087212490F480E4A23
:10152000127800EB4210416100200C490A4A1278FF
:1015300001EB4211C86000210848074A127800EB0D
:10154000421001610548044A127800EB42108161A3
:10155000704700006400002069000020942A0020E9
:1015600043545200511C000849480078494908700A
:1015700047480078401C464908704648007846496C
:10158000444A127801EB4211087144A04249414A91
:10159000127801EB4211086000203F493D4A127861
:1015A00001EB421148710B203B493A4A127801EB9A
:1015B0004211C87103203849364A127801EB4211B2
:1015C000087238493448334A127800EB42104161BE
:1015D000354831492F4A127801EB4211C86033482F
:1015E0002D492C4A127801EB4211086100212A484A
:1015F000284A127800EB42108161254800782C4976
:10160000087023480078401C214908702848007859
:101610002149274A127801EB4211087125A01E4981
:10162000234A127801EB4211086000211A48204A2F
:10163000127800EB421041710B2117481C4A1278B6
:1016400000EB4210C17103211348194A127800EBD4
:101650004210017200211048154A127800EB421026
:10166000416111480C49124A127801EB4211C860DD
:101670000E4909480E4A127800EB42100161002021
:1016800005490B4A127801EB42118861704700004E
:101690006400002014000020942A00205553415279
:1016A0005431000061310008C5360008C136000819
:1016B000150000205553415254315F52580000002C
:1016C000484800784849087046480078401C454919
:1016D0000870454800784549434A127801EB4211A9
:1016E000087143A04149404A127801EB4211086059
:1016F00000203E493C4A127801EB421148710B2010
:101700003A49394A127801EB4211C871032037492E
:10171000354A127801EB4211087237493348324A90
:10172000127800EB42104161002030492E4A1278B5
:1017300001EB4211C8602D492B4A127801EB42118E
:10174000086100212948284A127800EB4210816183
:10175000244800782949087022480078401C214913
:101760000870264800782149244A127801EB42117A
:10177000087123A01D49214A127801EB421108602B
:1017800000211A481D4A127800EB421041710B21CA
:1017900016481A4A127800EB4210C171032113480F
:1017A000164A127800EB4210017200210F48134ACA
:1017B000127800EB4210416100200C490F4A127868
:1017C00001EB4211C860002108480C4A127800EB76
:1017D0004210016100200549084A127801EB4211CC
:1017E000886170476400002022000020942A0020B5
:1017F00055534152543200000933000823000020A1
:101800005553415254325F525800000010B5032125
:1018100015A0FFF79FFC002422E01A4800EB4410BB
:101820000079FF281AD0174800EB44104069A8B18E
:10183000144800EB4410C07910F0080F05D011498E
:1018400001EB44114869804708E00E4A02EB44125C
:10185000107F0C4A02EB441251698847601CC4B2E5
:101860000A2CDADB10BD0000546F732044657669E2
:10187000636520496E69742E2E2E2E2E2E2E2E2E4E
:101880002E000000942A00200146FF2901D10020EB
:101890007047044800EB4110406908B90020F7E7A1
:1018A0000120F5E7942A002010B5032101A0FFF7DD
:1018B00051FC10BD4558544931355F31305F4952B4
:1018C0005148616E646C65720000000010B5032120
:1018D00001A0FFF73FFC10BD45585449325F495203
:1018E0005148616E646C65720000000010B5032100
:1018F00001A0FFF72FFC10BD45585449335F4952F2
:101900005148616E646C65720000000010B50321DF
:1019100001A0FFF71FFC10BD45585449345F4952E0
:101920005148616E646C65720000000010B50321BF
:1019300001A0FFF70FFC10BD45585449395F355FD2
:1019400049525148616E646C65720000014908603B
:10195000704700001404014010B5032101A0FFF7F7
:10196000F9FB10BD464C4153485F49525148616EE6
:10197000646C6572000000000549096821F01001DF
:10198000034A116011460968014311607047000065
:101990000020024001460020034A106800F0380091
:1019A00008431060704700000020024010B503217A
:1019B00001A0FFF7CFFB10BD46534D435F49525185
:1019C00048616E646C65720010B50246002005E047
:1019D00012F8014B8C4201D1431C98B21378002BB2
:1019E000F6D110BD00200149087070471D0000208D
:1019F00070B504460025107820B116782068B0FB39
:101A0000F6F085B22068084420601078984203DA26
:101A10001078401C107002E02068401B206016788F
:101A20002068B0FBF6F080B270BD000008B501215F
:101A3000042000F09DFA7020ADF8000003208DF81E
:101A4000020010208DF803006946144800F02AF8BF
:101A50000121082000F08CFA3020ADF800000320AE
:101A60008DF8020010208DF8030069460C4800F044
:101A700019F80121042000F07BFA0220ADF80000E3
:101A800003208DF8020010208DF8030069460348FA
:101A900000F008F800F0D0FB08BD0000000801408D
:101AA000000C01402DE9F0410246002500260020EF
:101AB00000230024002791F803C00CF00F0591F8D3
:101AC00003C01CF0100F03D091F802C04CEA0505CA
:101AD00091F800C0BCF1000F31D0146800202BE059
:101AE0004FF0010C0CFA00F3B1F800C00CEA030649
:101AF0009E4220D183004FF00F0C0CFA03F7BC4339
:101B000005FA03FC4CEA040491F803C0BCF1280F69
:101B100006D14FF0010C0CFA00FCC2F814C00AE028
:101B200091F803C0BCF1480F05D14FF0010C0CFA3D
:101B300000FCC2F810C0401C0828D1D31460B1F8D2
:101B400000C0BCF1FF0F34DD546800202EE000F12E
:101B5000080C4FF0010808FA0CF3B1F800C00CEAC9
:101B600003069E4221D183004FF00F0C0CFA03F7BD
:101B7000BC4305FA03FC4CEA040491F803C0BCF131
:101B8000280F05D100F1080C08FA0CF8C2F81480EF
:101B900091F803C0BCF1480F07D100F1080C4FF0D9
:101BA000010808FA0CF8C2F81080401C0828CED3AF
:101BB0005460BDE8F0810000F0B50A46002300241F
:101BC0000021002500F00046B6F1004F02D11D4E65
:101BD000F16901E01B4E7168C0F3034583B200F464
:101BE0004016B6F5401F08D121F07061154E766899
:101BF00026F07066134F7E6012E000F48016B6F592
:101C0000801F06D1032606FA05F4A14341F0706156
:101C100006E0460D360103FA06F6B14341F0706165
:101C200022B1460D360103FA06F6314300F00046B4
:101C3000B6F1004F02D1034EF16101E0014E716037
:101C4000F0BD000000000140416170470161704734
:101C500008B50121202000F08BF91820ADF8000014
:101C600003208DF8020048208DF8030069460248E1
:101C7000FFF718FF08BD0000000C014010B5014639
:101C800000200A4601E0431C98B212F8014B002CD8
:101C9000F9D110BD0246002039B950784FF6FF73D4
:101CA00003EA00201378184306E010784FF6FF731C
:101CB00003EA002053781843704700BFFEE7000096
:101CC00010B5032101A0FFF745FA10BD4932433199
:101CD0005F45525F49525148616E646C6572000005
:101CE00010B5032101A0FFF735FA10BD4932433189
:101CF0005F45565F49525148616E646C65720000E1
:101D000010B5032101A0FFF725FA10BD4932433277
:101D10005F45525F49525148616E646C65720000C4
:101D200010B5032101A0FFF715FA10BD4932433267
:101D30005F45565F49525148616E646C65720000A0
:101D400010B545F2555000F029F8062000F01AF8B9
:101D50004FF47F6000F01CF800F00CF800F002F87F
:101D600010BD00004CF6CC400149086070470000EF
:101D7000003000404AF6AA20014908607047000080
:101D800000300040014948607047000000300040CA
:101D90000149886070470000003000400149086038
:101DA000704700000030004071B600BF0648006870
:101DB00000F4E06005490843001D03490860BFF3D3
:101DC000408F00BF00BFFEE70CED00E00000FA0509
:101DD00000BFFEE77047000070B5002100230F220E
:101DE000C4780CB3164C246804F4E064C4F5E064D1
:101DF000210AC1F10403CA40447804FA03F184784B
:101E00001440214309010F4C0678A155047804F0D1
:101E10001F050124AC4005786D114FF0E02606EB5C
:101E20008505C5F8004109E0047804F01F05012488
:101E3000AC40054D0678761145F8264070BD00008F
:101E40000CED00E000E400E080E100E00249014325
:101E5000024A1160704700000000FA050CED00E036
:101E6000F0B504460E4617460025FF2229466D1C94
:101E7000625429466D1C665460193946FEF755FCBC
:101E80002844C5B26078A1780844E17808442179F3
:101E9000084461790844C2B22846691CCDB2225474
:101EA0002846F0BD10B5032101A0FFF753F910BD7E
:101EB0005056445F49525148616E646C657200002F
:101EC000F0B504460E46002500272A466D1CA05C8E
:101ED000FF2801D00020F0BD28466A1CD5B2205C46
:101EE00008B10020F7E7012104E0605C3844C7B284
:101EF000481CC1B20629F8DBA079B84201D0002005
:101F0000E9E76019FEF720FC30600120E3E7704745
:101F100029B1064A52690243044B5A6104E0034A5C
:101F200052698243014B5A61704700000010024021
:101F300029B1064AD2690243044BDA6104E0034A3C
:101F4000D2698243014BDA61704700000010024001
:101F500029B1064A12690243044B1A6104E0034A9C
:101F600012698243014B1A61704700000010024061
:101F700029B1064A92690243044B9A6104E0034A7C
:101F800092698243014B9A61704700000010024041
:101F900010B500F033F8012000F0F2F8002000F056
:101FA0002FF900BF212000F0B9F80028FAD0002056
:101FB00000F0DAF8002000F003F94FF4806000F040
:101FC000F3F80220FFF7E6FC1020FFF7D5FC4FF4F2
:101FD000E011002000F006F9012000F0FDF800BF3C
:101FE000392000F09BF80028FAD0022000F008F910
:101FF00000BF00F0B1F80828FBD110BD0F48006801
:1020000040F001000D490860084640680C4908404E
:102010000A494860084600680A49084007490860BC
:102020000846006820F4802008600846406820F4D4
:10203000FE0048604FF41F008860704700100240A7
:102040000000FFF8FFFFF6FE30B50021002200245B
:1020500000232D4D6D6805F00C0121B1042905D038
:10206000082923D105E0294D056022E0274D0560B0
:102070001FE0254D6D6805F47012234D6D6805F461
:102080008034022505EB92421CB9214D5543056071
:102090000BE01D4D6D6815F4003F03D01C4D5543FA
:1020A000056002E0194D5543056002E0174D0560DB
:1020B00000BF00BF144D6D6805F0F0010909154D12
:1020C0006B5C0568DD4045600F4D6D6805F4E061AF
:1020D000090A104D6B5C4568DD4085600A4D6D68EE
:1020E00005F46051C90A0B4D6B5C4568DD40C56065
:1020F000054D6D6805F44041890B074D6B5CC56863
:10210000B5FBF3F5056130BD0010024000127A0006
:1021100000093D00000000201000002010B501461D
:102120000022002300204A11012A02D1094C236811
:1021300006E0022A02D1074C236A01E0054C636ADB
:1021400001F01F02012494401C4201D0012000E054
:10215000002010BD001002400248406800F00C0052
:10216000704700000010024001460020034A5068FA
:1021700020F0F0000843506070470000001002405B
:1021800001490860704700000000424210B5032179
:1021900001A0FEF7DFFF10BD5243435F4952514893
:1021A000616E646C6572000001460020034A50684D
:1021B00020F4E060084350607047000000100240C7
:1021C00001460020034A506820F4605040EAC100F4
:1021D00050607047001002400149086670470000D7
:1021E0000000424202460020044B586820F47C1054
:1021F00042EA01031843014B586070470010024047
:1022000001460020034A506820F003000843506054
:10221000704700000010024010B5032101A0FEF736
:1022200099FF10BD525443416C61726D5F49525128
:1022300048616E646C65720010B501210148FFF7BA
:10224000BBFC10BD0002300010B5032101A0FEF759
:1022500081FF10BD535049315F49525148616E644E
:102260006C65720010B5032101A0FEF773FF10BD6D
:10227000535049325F49525148616E646C65720037
:1022800010B5032101A0FEF765FF10BD535049337F
:102290005F49525148616E646C657200704710B5B9
:1022A00000F002F810BD00000CB500200190009075
:1022B0003248006840F480303049086000BF2F4841
:1022C000006800F4003000900198401C01900098D4
:1022D00018B90198B0F5A06FF1D12848006810F442
:1022E000003F02D00120009001E000200090009803
:1022F000012842D12248006840F0100020490860BF
:102300000846006820F0030008600846006840F0B6
:10231000020008601948406818494860084640684B
:1023200048600846406840F480604860084640685D
:1023300020F47C1048600846406840F4E81048608B
:102340000846006840F08070086000BF0B480068D5
:1023500010F0007FFAD00948406820F003000749D8
:1023600048600846406840F00200486000BF0348EB
:10237000406800F00C000828F9D10CBD00100240A4
:10238000002002402DE9F04106460D462C46374616
:102390002846FFF773FC04443046FFF76FFC804685
:1023A00018F1010001D1BDE8F08103E017F8010B3D
:1023B00004F8010B5FEA0800A8F10108F6D104F85F
:1023C000010B00BFEFE710B500F048FA10BD0000A8
:1023D00010B51348006840F0010011490860084634
:1023E0004068104908400E494860084600680E4998
:1023F00008400B4908600846006820F48020086007
:102400000846406820F4FE0048604FF41F008860D2
:10241000FFF745FF4FF000600449086010BD000061
:10242000001002400000FFF8FFFFF6FE08ED00E09C
:1024300010B5032101A0FEF78DFE10BD54414D5093
:1024400045525F49525148616E646C6572000000EC
:1024500010B5032101A0FEF77DFE10BD54494D319A
:102460005F42524B5F49525148616E646C65720025
:1024700010B5032101A0FEF76DFE10BD54494D318A
:102480005F43435F49525148616E646C657200005E
:1024900010B5032101A0FEF75DFE10BD54494D317A
:1024A0005F5452475F434F4D5F49525148616E64DC
:1024B0006C65720010B5032101A0FEF74BFE10BD44
:1024C00054494D315F55505F49525148616E646CBB
:1024D0006572000010B50121044800F078F818B1C9
:1024E0000121024800F070F810BD00000004004017
:1024F00010B5032101A0FEF72DFE10BD54494D3447
:102500005F49525148616E646C65720010B50321D9
:1025100001A0FEF71FFE10BD54494D355F495251D1
:1025200048616E646C65720010B5032101A0FEF76E
:1025300011FE10BD54494D375F49525148616E64D8
:102540006C65720010B5032101A0FEF703FE10BDFB
:1025500054494D385F42524B5F49525148616E6455
:102560006C65720010B5032101A0FEF7F3FD10BDEC
:1025700054494D385F43435F49525148616E646C22
:102580006572000010B5032101A0FEF7E3FD10BD48
:1025900054494D385F5452475F434F4D5F49525144
:1025A00048616E646C65720010B5032101A0FEF7EE
:1025B000D1FD10BD54494D385F55505F49525148C7
:1025C000616E646C65720000CA430282704730B568
:1025D0000246002000230024158A05EA010395899C
:1025E00005EA010413B10CB1012000E0002030BD68
:1025F0000620FEF77DFEFF20FEF782FE0FE0102191
:102600000748FFF723FB4FF4FA7000F0F5F91021AB
:102610000348FFF719FB4FF4FA7000F0EDF9EEE70D
:10262000000C014000F03AFA17E00A2000F0E4F94B
:1026300000F096FA04466CB165682868602807D1F6
:10264000002105F10B00FFF725FB0449088000E09D
:1026500000BF00BF0A2000F0CFF9E6E770000020BD
:1026600040F2A46533E0002440211948FFF7ECFA5A
:1026700018480188A5F10A00814204DA2021144893
:10268000FFF7E2FA0EE01348018805F10A008142E3
:1026900004DD20210E48FFF7D9FA03E040210C4861
:1026A000FFF7D4FA00240FE010210948FFF7CCFA15
:1026B000022000F0A1F910210548FFF7C7FA022017
:1026C00000F09AF9601C84B2022CEDDB00BFCAE76F
:1026D000000801407200002010B51048007804285E
:1026E00004D00F480078401C0D4908700D48007850
:1026F000401C0C4908700846007864280DDD002055
:1027000008701423084A064801780848FFF770F952
:102710000749087000200249087010BD58000020C9
:102720004C0000204400002045000020480000200C
:102730005802002010B502201D494870002425E0F1
:10274000002004EB840101EBC4011A4A02EB810171
:10275000088104EB840101EBC40102EB8101886173
:1027600004EB840101EBC40142F8210004EB840175
:1027700001EBC40102EB8101086204EB840101EB6F
:10278000C40102EB81018884601CC4B2052CD7DB34
:102790000420094908700020084908600849887326
:1027A000084BFF224FF47A71054800F031FC10BD50
:1027B000580200206C020020580000206000002019
:1027C000802A002075300008FFF7BAFA04E0FFF70E
:1027D000D1FA642000F010F9F9E7000038B5184983
:1027E000B1F1807F00D31DE021F07F40401E4FF00B
:1027F000E022506150170F22002807DA13071D0E40
:10280000104B00F00F04241F1D5503E013071C0E8E
:102810000D4B1C5400BF00204FF0E02290610720B8
:10282000106100BF4FF4C87008A300220A4900904D
:10283000042000F045F8042000F02AFB38BD000019
:102840004019010018ED00E000E400E05461736BF2
:10285000526F6F7400000000C927000810B5FFF721
:102860003BFF00F005FA0D484078102805D1032100
:102870000BA0FEF76FFCFFF797FA10488089401C09
:102880000E498881084680890989884205DD0B49FF
:102890000869804700200949888110BD580200203E
:1028A0005461736B2054696D654F75742057696C62
:1028B0006C20544F5320526573657400802A0020A9
:1028C0002DE9F04304460D4690461E46079F0DB97C
:1028D000BDE8F08304EB840000EBC4002A4901EB5F
:1028E0008000808CA8B929480068384427490860CE
:1028F00004EB840101EBC401234A02EB81018F84C4
:102900002248006804EB840101EBC40102EB810161
:10291000086204EB840202EBC4021B4B03EB82024D
:10292000918C04EB840202EBC40203EB8202126A74
:10293000174BD01800F04CFB8146022004EB8401B9
:1029400001EBC401104A02EB8101088104EB840011
:1029500000EBC400114601EB8000456004EB8400ED
:1029600000EBC40001EB800006634246294648465E
:1029700000F056FA04EB840101EBC401024A42F86C
:10298000210000BFA4E700006C02002060000020CE
:102990007003002010B5164A127802EB820303EB95
:1029A000C202144B03EB8202D062114A127802EB8E
:1029B000820303EBC2020F4B03EB820282F8271063
:1029C00000220B4B1B7803EB830404EBC303094C7D
:1029D00004EB830383F82820054B1B7803EB830467
:1029E00004EBC303034C04EB830383F8292010BDDD
:1029F000580000206C02002010B5044615484078AD
:102A0000012822D000201449097801EB810202EB51
:102A1000C101124A02EB810188610F48007800EB86
:102A2000800101EBC000114601EB800044610820E9
:102A30000949097801EB810202EBC101074A02EB67
:102A40008101088100F06EFA02E02046FDF760FE89
:102A500010BD000058020020580000206C02002029
:102A600001460C4800EB4110007A08B9002070477D
:102A7000084800EB41104079074A1278904201D093
:102A80000020F4E70120034A02EB4112107200BF5C
:102A9000EDE70000942A00205800002010B50C48F3
:102AA00000780C49087000240AE004EB84000A490D
:102AB00001EB8000094901EBC4014860601CC4B20D
:102AC0000A2CF2DB0A210548FFF764FF10BD000065
:102AD000580000201E0000202C010020DC000020F7
:102AE00070B504460D4600BF1B4800EB4410007A49
:102AF00030B1012814D0022804D003282AD11CE0C8
:102B0000002070BD144800EB441040791349097847
:102B1000884201D10120F4E7204600F0D3FAE3E730
:102B200002200D4901EB441108720C4800780A4953
:102B300001EB441148710120E3E70220064901EB53
:102B40004411087205480078034901EB44114871AB
:102B50000120D6E70020D4E7942A00205800002066
:102B600070B51848007800EB800101EBC0001649F1
:102B700001EB8004E06A08B9002070BD94F82900D8
:102B800018B91048007800F095F994F8290008B9B0
:102B90000020F2E704F12704D4F80500617800EB87
:102BA000C105607800F10100217890FBF1F201FB92
:102BB00012006070A078A0F10100A070A4F12704B9
:102BC0002846DAE7580000206C020020014605295B
:102BD00001DB0020704701EB810000EBC100024ADD
:102BE00002EB80000089F5E76C0200202DE9F04738
:102BF0000646884691469A46052E01DBBDE8F087D9
:102C000006EB860000EBC600184901EB8004E06A81
:102C100000B9F3E794F8290094F82710884220DAE5
:102C200004F127046078A1780844217890FBF1F240
:102C300001FB1200C7B214F82709B84200DCDDE737
:102C4000E06A00EBC70585F800804A46504669688F
:102C5000FDF789FD85F8019094F82900401C84F85F
:102C60002900304600F098F800BFC7E76C0200204A
:102C7000002088E000EB800101EBC001444A02EB38
:102C800081010989022906D0082924D010294FD0B2
:102C9000202974D172E000EB800101EBC0013C4AB5
:102CA00002EB81018969491C00EB800202EBC00242
:102CB000374B03EB8202916100EB800101EBC00115
:102CC0001A4602EB81018969B1F5FA6F02D9102128
:102CD000304A517054E0002100EB800202EBC00248
:102CE0002B4B03EB8202916100EB800101EBC001F1
:102CF0001A4602EB8101496941B9022100EB8002C9
:102D000002EBC00203EB8202118110E000EB8001B4
:102D100001EBC0011E4A02EB81014969491E00EB2B
:102D2000800202EBC0021A4B03EB8202516127E0E2
:102D300000EB800101EBC001154A02EB8101C9697A
:102D400049B9022100EB800202EBC002104B03EBF9
:102D50008202118110E000EB800101EBC0010C4AFE
:102D600002EB8101C969491E00EB800202EBC0023F
:102D7000074B03EB8202D16102E000E000E000BFFC
:102D800000BF411CC8B20528FFF674AF70470000B1
:102D90006C02002058020020052800DB704700EB81
:102DA000800101EBC001084A02EB81010989082971
:102DB00008D0082100EB800202EBC002024B03EBBB
:102DC0008202118100BFE9E76C02002010B50446C1
:102DD0000F480078A04200D110BD0D48007800EBEC
:102DE000800101EBC0000B4901EB80000A4908603B
:102DF00007480470007800EB800101EBC000054932
:102E000051F8200005490860FDF74CFC00BFE3E7DE
:102E1000580000206C0200205400002050000020C8
:102E200030B503461846041F20462160041F204683
:102E300023600025041F20462560041F20462560CE
:102E4000041F20462560041F20462560041F2046DD
:102E50002560041F20462560041F20462560041FAE
:102E600020462560041F20462560041F204625605B
:102E7000041F20462560041F20462560041F2046AD
:102E800022604FF08075041F2046256030BD000091
:102E900010B5044604EB840000EBC400034951F86C
:102EA000200003490860FDF716FC10BD6C020020ED
:102EB0005000002010B50446052C00DB10BD04EBCB
:102EC000840000EBC400164901EB8000008908284B
:102ED00001D1012000E0002004EB840101EBC401DA
:102EE0000F4A02EB81010989022901D1012100E089
:102EF0000021084312D0042004EB840101EBC4013B
:102F0000074A02EB81010881002004EB840101EBF8
:102F1000C40102EB8101486100F004F800BFCDE775
:102F20006C02002010B502212648A0F8D810002419
:102F300044E004EB840000EBC400224901EB800074
:102F40000089022806D008280CD010280BD0202891
:102F500030D109E01C480078A04202D02046FFF79B
:102F600035FF10BD27E026E004EB840000EBC40031
:102F7000144901EB800090F82600144901EB401041
:102F8000007A012815D1082004EB840101EBC4016B
:102F90000C4A02EB81010881032004EB840101EB60
:102FA000C40102EB810191F82610084A02EB41119D
:102FB000087200E000BF00BF601CC4B2052CB8DB83
:102FC00000BFCEE76C02002058000020942A0020A9
:102FD0000246501820F00303A3F1340020F007004C
:102FE0007047000010B5102200EB800303EBC00314
:102FF000064C04EB83031A8100EB800202EBC00253
:10300000234603EB8202D16110BD00006C02002058
:1030100070B504460D46164601221449887B0028E7
:1030200016DD0AE04968002A07DD0878904202D0E0
:103030002270002201E0501CC2B248680028F1D181
:10304000002A00DD22700A480078A0734C6005E079
:103050000C460020207006480078A0732581668108
:103060000020A08123616060207870BD802A00204C
:103070005800002012481EE04068817B11F0400F8C
:1030800019D04189002916DD81890289914203DA2C
:103090008189491C81810EE04189FF2902DA418939
:1030A000491E41814189002901DD00218181817B07
:1030B00041F08001817341680029DDD17047000033
:1030C000802A002010B504460C48007800EB8001EF
:1030D00001EBC0000A4901EB800080F82640202067
:1030E0000649097801EB810202EBC101044A02EBB7
:1030F00081010881FFF716FF10BD00005800002075
:103100006C0200201FB500F09DF801218803FEF736
:103110002FFF4FF4E13000900020ADF80400ADF82F
:103120000600ADF80800ADF80C000C20ADF80A0060
:1031300069460A4800F020FA012240F2255107486A
:1031400000F0F5F90121054800F0B2F9012000F086
:10315000C5F84021014800F0A2F91FBD0038014028
:1031600000B58DB0FFF7CEFF01210846FEF7D0FE77
:103170000E208DF8300003208DF8310002208DF8EC
:10318000320001208DF833000CA8FEF725FE14480C
:10319000FDF712FF1348019013480290102003908E
:1031A0003220049000200590802006900020079097
:1031B000089009904FF400500A9000200B9001A94C
:1031C0000748FDF7A8FF012202210548FDF79AFFF5
:1031D000012280210348001F00F076F90DB000BDE8
:1031E0004400024004380140AA00002070B50446A3
:1031F0000D4600210F480078FFF772FC0646C6B165
:103200000D4800780D4908700D480465856401215A
:103210000B484430FDF7C4FE08480078FFF74AFE2B
:10322000002107484430FDF7BBFE02480078FFF755
:1032300017FC70BD1400002058000020160000206C
:103240000000024008B501210520FEF791FE4FF471
:103250000070ADF8000003208DF8020018208DF8F2
:10326000030069460748FEF71DFC4FF48060ADF887
:10327000000004208DF8030069460248FEF712FCA6
:1032800008BD00000008014010B540F225510E486D
:1032900000F023F9B0B10C48001D0088C4B20B48FF
:1032A00000880B49098888420CDA084801880088A0
:1032B000401C064A1080074844540A2106480078FA
:1032C000FFF790FE10BD0000003801401A000020FA
:1032D00018000020780000201700002038B50446B0
:1032E0004FF48060FEF7B2FD25208DF8000002202B
:1032F0008DF8010001208DF802008DF8034068462A
:10330000FEF76AFD38BD000000B587B0012104203A
:10331000FEF72EFE0420ADF8140003208DF81600F1
:1033200018208DF8170005A92048FEF7BBFB0820E0
:10333000ADF8140004208DF8170005A91B48FEF70E
:10334000B1FB01214804FEF7F3FD4FF41660019034
:103350000020ADF80800ADF80A00ADF80C00ADF89B
:1033600010000C20ADF80E0001A9114800F004F97E
:10337000012240F225510E4800F0D9F801210C48F5
:1033800000F096F84FF48060FEF760FD26208DF87F
:10339000180002208DF8190001208DF81A008DF810
:1033A0001B0006A8FEF718FD07B000BD000801408D
:1033B0000044004010B540F225510E4800F08DF851
:1033C000B0B10C48001D0088C4B20B4800880B49FE
:1033D000098888420CDA084801880088401C064A9F
:1033E000108007484454642106480078FFF7FAFD2E
:1033F00010BD0000004400402800002024000020F0
:10340000F4010020270000202DE9F04107460D4679
:10341000144600210F480078FFF762FB0646AEB164
:103420000D4800780D4908700D48058000200D49B1
:1034300008801CB12046FFF7DFFA03E00748007858
:10344000FFF738FD03480078FFF70AFB05480088BE
:10345000BDE8F08123000020580000202700002054
:10346000240000202800002000BF0549098811F031
:10347000800FFAD0C0F30801014A121D1180704775
:103480000044004030B504460D46002304E0E05CF3
:10349000FFF7EAFF581C83B2AB42F8DB30BD01F402
:1034A0000072B2F5007F00D100BFCA4302807047AE
:1034B00021B1828942F40052828104E082894DF672
:1034C000FF731A40828170471AB1838A0B4383824B
:1034D00002E0838A8B438382704770B502460024E2
:1034E000002300250020A1F510666A3E00D100BF30
:1034F000C1F3421501F01F03012606FA03F3012D63
:1035000002D19689334006E0022D02D1168A33405B
:1035100001E0968A33400C12012606FA04F416885C
:10352000344013B10CB1012000E0002070BDF0B5B3
:1035300003460024002600250020A1F510676A3FFD
:1035400000D100BF1846C1F3421401F01F06012745
:1035500007FA06F5012C01D10C3004E0022C01D150
:10356000103000E014301AB107682F43076002E002
:103570000768AF430760F0BD2DE9F04786B0054608
:103580000E460024A24600BFA1460027B08900B124
:1035900000BF2F462C8A4CF6FF700440F08804438D
:1035A0002C82AC894EF6F3100440B0883189084370
:1035B000718908430443AC81AC8A4FF6FF40044054
:1035C000B0890443AC8201A8FEF73EFD1F48874244
:1035D00002D1DDF810A001E0DDF80CA0A88910F4FC
:1035E000004F08D00AEBCA0000EB0A10316849000E
:1035F000B0FBF1F807E00AEBCA0000EB0A103168F3
:103600008900B0FBF1F86420B8FBF0F00401200958
:10361000642101FB1089A88910F4004F08D03220E2
:1036200000EBC900B0FBF1F000F00700044308E034
:10363000322000EB09106421B0FBF1F000F00F0024
:1036400004432C8106B0BDE8F0870000003801403B
:1036500010B50B46002108E000BF048814F0800F6D
:10366000FBD05C5C84804C1CA1B29142F4DB10BDA9
:1036700010B54FF48020FEF769F910BD00B585B094
:1036800002210C48FDF7C6F990B102210948FDF767
:10369000CDF86A4600210748FDF7DFFA9DF80900DA
:1036A00030B96B461422002103480078FFF79EFAD8
:1036B00005B000BD006400401E00002000BFFEE712
:1036C0007047000070B506460C4615460A4800785B
:1036D0000A4908700A480465856401210848443095
:1036E000FDF75EFC05480078FFF7E4FB0021044885
:1036F0004430FDF755FC70BD580000201600002036
:10370000000002408CB00620FDF7F2FDFDF7DEFD63
:1037100044E06420FFF770F902212148FEF796FA91
:103720004FF08072022101A8FEF79AFB0446214661
:1037300001A8FFF7A7FE0420FFF75EF90221184851
:10374000FEF782FA642232210020FFF75DFEC4B248
:1037500024B30BA91348FEF7B3FBF8B100211148BD
:10376000801CFEF797FA1049088000210D48001DC3
:10377000FEF790FA0C49488002210948FEF766FAE4
:1037800008210A48FEF762FA0A20FFF735F90821F6
:103790000648FEF759FA0A20FFF72EF9B9E70000AC
:1037A00000080140F401002072000020000C0140DC
:1037B00010B5032101A0FDF7CDFC10BD57574447BC
:1037C0005F49525148616E646C65720037B51446AA
:1037D0000846064B6A46214600F0C8F8044669468A
:1037E000002000F066FC20463EBD0000B34000080B
:1037F00002E008C8121F08C1002AFAD170477047BA
:10380000002001E001C1121F002AFBD17047000017
:103810002DE9FF5FDDE90220010DDDF838B002433C
:1038200010D10F9801244CA2012808D00021009843
:103830000F9BC0E90021C0E90243BDE8FF9F6FEA8A
:103840000B01F4E7A1F2FF3144F6105041430D148F
:103850000F9801280ED0A5EB0B00401C4FF0000480
:103860003E4EDFF8FC90B0F1000AA04605DACAF13E
:10387000000717E0CBF10000F0E7074612E0F80779
:1038800007D02246334640464946FCF714FD8046A1
:1038900089462246334610461946FCF70CFD04467D
:1038A0000E467F10002FEAD1DDE90201BAF1000FC8
:1038B00042464B4602DAFCF7FEFC01E0FCF76DFDE8
:1038C00004460E460022274BFCF7C6FE03D84FF0F5
:1038D000FF30014607E00022234B20463146FCF72B
:1038E00043FCFCF7A0FE102409E0002C0ADB0A22AE
:1038F0000023FCF7D7FD019B30321A55641E50EAB5
:103900000102F2D1641C019AC4F1110314440F9A0C
:10391000012A09D00122084301D15B450FDD4FF098
:10392000000205F101050DE0084303D1A3EB0B05EF
:103930006D1E09E000204FF0110B0F9088E701DAAF
:1039400000226D1E002A83D000980F99C0E9023131
:10395000C0E9004571E7000030000000000024408D
:103960000000F03F0000F0430000E03F2DE9FF4F72
:1039700095B09B4689460646002512E2252878D157
:103980000024761CF94A2746012105943378203B10
:1039900001FA03F0104202D00443761CF6E73078B7
:1039A0002A2811D06FF02F033078A0F13002092AB5
:1039B00016D8059A44F0020402EB820203EB42029D
:1039C0001044761C0590EFE759F8042B0592002A65
:1039D00003DA504244F40054059044F00204761C8B
:1039E00030782E2816D116F8010F44F004042A2846
:1039F0000DD06FF02F023078A0F13003092B09D8D9
:103A000007EB870302EB4303C718761CF3E759F86B
:103A1000047B761C30786C280FD006DC4C2817D03D
:103A200068280DD06A2814D104E0742810D07A28B0
:103A30000FD10DE044F400140AE044F4801401E0D6
:103A400044F440147278824202D1761C04F580144A
:103A5000761C307866280BD013DC582877D009DC28
:103A6000002875D04528F6D04628F4D047281AD12A
:103A70009FE118E0632835D0642879D0652812D1F9
:103A800097E1702873D008DC6728F1D069286FD0DF
:103A90006E280DD06F2806D1B5E073282CD075287C
:103AA00075D0782874D05A46179990476D1C76E1E6
:103AB000C4F30250022809D003280DD0D9F8001011
:103AC00004280DD00D6009F1040968E1D9F800104F
:103AD000EA17C1E90052F6E7D9F800100D80F2E7C5
:103AE0000D70F0E719F8041B8DF8001000208DF818
:103AF0000100EA46012003E059F804AB4FF0FF3023
:103B000061074FF0000102D40DE008F10101884681
:103B1000B9420FDA8045F8DB1AF808100029F4D111
:103B200008E008F1010188468142FADB1AF8081022
:103B30000029F6D105985B46A0EB080721463846D8
:103B4000179A00F09EFA284400EB080507E04DE0C4
:103B50002BE10DE01AF8010B5A4617999047B8F17E
:103B60000108F7D25B4621463846179A14E142E035
:103B70000A220092C4F302524FF0000A022A08D02F
:103B800059F804CB032A4FEAEC710AD00DE029E082
:103B90002AE009F1070121F00702F2E802C191468B
:103BA00009E00FFA8CFC4FEAEC71042A03D14FFABA
:103BB0008CFC4FEAEC71002907DA0A460021DCF19F
:103BC000000C61EB02012D2202E0220504D52B221C
:103BD0008DF80420012203E0E20701D02022F7E75C
:103BE000904653E00A2102E010220DE010214FF030
:103BF000000A00910BE010224FF0000A44F0040488
:103C00000827009203E008224FF0000A0092C4F354
:103C10000252022A05D059F804CB0021032A08D009
:103C200009E009F1070121F00702F2E802C191461B
:103C300005E01FFA8CFC042A01D10CF0FF0C4FF0B8
:103C40000008220722D5702827D0009B83F010039C
:103C500053EA0A0309D15CEA010206D030228DF84A
:103C600004208DF8050002229046009B83F0080393
:103C700053EA0A030AD15CEA010201D1620705D5C1
:103C800030228DF804204FF001087F1E582809D0FB
:103C900037A003900EA8029013E040228DF8042074
:103CA0000122E1E737A0F4E753466046009AFCF7AB
:103CB000F9FB84460398825C0298A0F1010002900F
:103CC00002705CEA0100EFD1029806A9A1EB0000A6
:103CD00000F1200A600702D524F4803400E00127B7
:103CE000574502DDA7EB0A0000E0002000EB0A01C7
:103CF000009005984144A0EB01000590E00306D434
:103D00005B462146179A059800F0BBF90544002749
:103D100006E001A85A46C05D179990476D1C7F1CAC
:103D20004745F6DBE0030CD55B462146179A05981C
:103D300000F0A7F9054404E030205A46179990474F
:103D40006D1C0099481E00900029F5DC08E00298DF
:103D500002995A460078491C0291179990476D1CA8
:103D6000BAF10001AAF1010AF1DC6BE109280100B6
:103D700030313233343536373839616263646566E1
:103D800000000000303132333435363738394142A3
:103D9000434445460000000000F060F9054406F188
:103DA0000106307800287FF4E9AD19B02846BDE857
:103DB000F08F620700D4062709F1070222F0070CF2
:103DC000FCE80223E14603F000485FEA080C02D059
:103DD0000FF27C2C0DE05FEA045C02D50FF2742C2C
:103DE00007E05FEAC47C02D00FF26C2C01E0AFF276
:103DF000700C4FF0FF3823F00043CDF850C0652819
:103E00000CD006DC452809D046281DD047283ED1D5
:103E10003EE0662818D0672839D139E00021112FFB
:103E200001DB112000E0781CCDE9000106A90EA8F5
:103E3000FFF7EEFCDDE90F010E9A039100210092DD
:103E400007F1010A04914EE04FF000400097CDE9E0
:103E5000011006A90EA8FFF7DBFCDDE90F020392B3
:103E60000E9B11990022DDF80CA00093049219B961
:103E700007F1010100EB010AB7EB0A0004D4C0F11D
:103E8000FF3007F1010A0490AAEB0700019046E019
:103E9000012F00DA01270021112F01DD112000E0A0
:103EA0003846CDE9000106A90EA8FFF7B1FCDDE90F
:103EB0000F010E9A0391002104910092BA46210746
:103EC0000CD40399514500DA8A46BAF1010F05DD99
:103ED000009AAAF10101515C302908D0B84202DAF7
:103EE00010F1040F06DA0121CDE9011017E0AAF163
:103EF0000101E9E7002805DC049901440491AAEBDB
:103F0000000102E0411C514500DD8A460499A0EB06
:103F1000010000F1010001904FF0004002902007E5
:103F200004D40198504501DBCDF8048000208DF8C1
:103F30004F0002980DF14F07B0F1004F25D02B2014
:103F40000E9002984FF0020800280CDA40420290CE
:103F50002D200E9007E00A210298FCF78DFA3031EF
:103F6000029007F8011DB8F10001A8F10108F2DC88
:103F700002980028EFD1791E0E980870307800F072
:103F8000200040F0450007F8020D12A8A0EB070042
:103F900000F107081498007800B1012000EB0A0135
:103FA000019801EBE07105984144A0EB0100A0F1FC
:103FB00001000590E00306D45B462146179A059858
:103FC00000F05FF805441498007820B15A4617991C
:103FD000904705F10105E00323D55B462146179A7A
:103FE000059800F04EF805441BE00498002807DB14
:103FF000DDE90301884203DD0098405C179901E088
:10400000179930205A46904704986D1C401C049024
:104010000198401E019004D12E205A4617999047CE
:104020006D1CBAF10001AAF1010ADEDC05E017F807
:10403000010B5A46179990476D1CB8F10001A8F181
:104040000108F4DC5B462146179A0598A4E60000B7
:104050002D0000002B000000200000002DE9F041A1
:10406000044600251E461746880405D406E0394656
:104070002020B04705F10105641EF8D52846BDE8AB
:10408000F0812DE9F041044600251E469046C80304
:1040900001D5302700E02027880405D506E04146F9
:1040A0003846B04705F10105641EF8D52846BDE83D
:1040B000F0810A68531C0B601070704708B5FDF75B
:1040C00067FFFDF70DF9FDF723F9FDF74DFAFDF751
:1040D000F7FAFDF7A1F9FDF7F3F9FDF747F9FDF759
:1040E00095FBFEF727FB40F6B83013A300221449D6
:1040F00000901046FEF7E4FB4FF47A700EA3002206
:10410000104900900120FEF7DBFB4FF47A700AA300
:1041100000220D4900900220FEF7D2FB4FF47A7086
:1041200005A30022094900900320FEF7C9FBFEF712
:1041300055FB00BFFEE700005461737430000000BF
:10414000F12500086126000825260008053700082B
:10415000704100080000002078000000F0370008DF
:10416000E841000878000020602F000000380008B7
:10417000000000000102030401020304060708090D
:1041800002040608FFFF050500000000FF00FFFF16
:104190003000FFFF000000000000FF0000000000F2
:1041A000000000000000000000000000000000000F
:1041B00000000000000000000000000000000000FF
:1041C00000000000000000000000000000000000EF
:1041D0000000000000FFFFFFFFFFFFFF00000000E6
:0841E0000000000000000000D7
:0400000508000131BD
:00000001FF
