:020000040800F2
:10000000D0AB002001010008054400088128000849
:1000100009430008170B0008158C000800000000B9
:10002000000000000000000000000000D1520008A5
:100030000B10000800000000394700085756000860
:100040001B0100081B0100081B0100081B01000820
:100050001B0100081B010008991500081B0100087E
:100060001B0100081B0100081B0100081B01000800
:100070001B0100081B0100081B0100081B010008F0
:100080001B0100081B0100081B0100081B010008E0
:100090001B0100081B0100081B0100081B010008D0
:1000A0001B0100081B0100081B0100081B010008C0
:1000B0001B0100081B0100081B0100081B010008B0
:1000C0001B0100081B0100081B0100081B010008A0
:1000D0001B01000875850008C985000829860008ED
:1000E0001B0100081B010008098C0008DFF80CD078
:1000F00000F07AFC0048004731A70008D0AB002090
:100100000648804706480047FEE7FEE7FEE7FEE7B1
:10011000FEE7FEE7FEE7FEE7FEE7FEE7B95600086A
:10012000ED0000080649074A0868504343F23902C7
:10013000104408604008704701490860704700009B
:10014000100100206D4EC64140EA01039B0703D019
:1001500009E008C9121F08C0042AFAD203E011F806
:10016000013B00F8013B521EF9D2704730B50546FD
:100170000020034600E05B1C934205D2EC5CC85CA7
:10018000201A01D1002CF6D130BDF0B480EA010272
:10019000D40F4200B2EB410F02D20246084611468C
:1001A0004A0042D0C30DDDB2C1F3C752AD1A202DB3
:1001B00035DAC1F3160141F4000204B15242C5F12F
:1001C000200602FA06F12A411044B3EBD05F23D097
:1001D000C4B1012DA0EBC35009DCF0BC4FF00042CC
:1001E00002EAC35200F50000DBB200F02DBB400074
:1001F00000F1807000EBC350A0F1807040EAD17034
:10020000490009E0490841EAC071A0EBC35000F57C
:100210000000400800EBC350F0BC00F00CBB614292
:10022000012202EB4101001BF6E7F0BC704781F0B0
:100230000041AAE780F00040A7E780EA010210B57C
:1002400002F00043400026D04A0023D04FEA10615C
:1002500001EB1261C0F35600C2F3560240F40000F5
:1002600042F40002A0FB0220A1F17F014FEA00400E
:10027000140401D000F1010050EA124001D4400002
:10028000491EC2B20C0604EBD010401C4008802A64
:1002900002D003E0002010BD20F00100002900DAA8
:1002A0000020184310BD30B480EA010202F000457E
:1002B00030F0004221F0004015D0A0B1C0F3C75388
:1002C000C2F3C754C2F31601C0F31600E41A41F496
:1002D000000140F400027D34914201D3641C00E02F
:1002E0004900002C02DA30BC002070474FF40000B7
:1002F0000023914201D3891A034340084FEA410188
:10030000F7D151B1914202D14FF0004105E002D244
:100310004FF0010101E06FF0010103EBC4502844EC
:1003200030BC00F088BA2DE9FE4F804681EA030018
:10033000C00F0C46009021F0004123F00045B8EBBF
:100340000200A94105D24046214690461C460B4674
:10035000024623F00040104304D14046214603B03A
:10036000BDE8F08F270DC7F30A00C3F30A510290CE
:10037000401A0190402866DAC3F3130040F4801B52
:100380000098924620B10023D2EB030A63EB0B0BDB
:1003900001985946C0F14002504600F01BFA06464B
:1003A0000D4650465946019A00F033FA10EB08000A
:1003B0006141002487EA115284EAE7731A433BD073
:1003C000009A3AB3019A012A4FEA075210DC001B47
:1003D00061EB02014FF0004202EA0752CDE9004210
:1003E000001C41F5801132462B4600F067FAB6E753
:1003F000001B61EB0201001C41F5801300185B41FA
:100400002018A2F5001747EB030140EAD570B61992
:100410006D4111E06D084FEA360645EAC0754FEAB6
:100420000752001B61EB0201001C41F580114908D5
:100430004FEA30000019514132462B4603B0BDE867
:10044000F04F00F02EBA0098012240000023D0EBBC
:10045000020263EBE073009821464FEAE074B8EBC8
:10046000000061EB0401E9E783F000435BE781F002
:10047000004158E72DE9FE4F81EA030404F00044EF
:1004800021F0004100944FF0000B23F0004350EAAC
:10049000010402D052EA030404D10020014603B053
:1004A000BDE8F08FC3F30A54C1F30A552C44A4F2FB
:1004B000F3340194A0FB0254C1F3130141F4801101
:1004C000C3F3130343F4801301FB024400FB034E08
:1004D000840A970A44EA815447EA8357A4FB0768D1
:1004E00002958D0A05FB07854FEA932C04FB0C54FB
:1004F0002705029D4FEA065847EA1637B5EB08056F
:100500006EEB070C870E920E47EA811742EA8312C0
:10051000A7FB0201B6EB0B0164EB00042B0D43EAD1
:100520000C335E1844EB1C50DA465146E7FB0201DF
:10053000C5F313044FEA0B3343EA14534FEA043272
:10054000019C43EA0603A4F10C040294009CCDE94B
:1005500000B400F0B3F9A2E72DE9F04D81EA0304FD
:1005600004F0004B21F0004514464FF0000A23F040
:10057000004150EA050220D054EA01021DD0C5F323
:100580000A570246C5F31303C1F31300C1F30A5619
:1005900040F4801543F48013A7EB0608101BD646E1
:1005A00008F2FD3873EB050002D308F1010801E001
:1005B00092185B41B8F1000F03DA00200146BDE854
:1005C000F08D00204FF48011064684460EE0171B84
:1005D00073EB050705D3121B63EB050306434CEAD7
:1005E000010C49084FEA300092185B4150EA0107BC
:1005F000EDD152EA030012D082EA040083EA050139
:10060000084303D100224FF0004308E0101BAB4128
:1006100002D20122002302E06FF0010253101AEB14
:1006200006004CEB085110EB0A0041EB0B01BDE852
:10063000F04D00F036B9C10F80EAE0700844CA07F7
:100640009623002100F000B996230022114600F005
:10065000FBB80EB5C10F80EAE0700844CA0700215C
:1006600040F233438DE80E000A460B4600F026F9AF
:1006700003B000BD0EB540F2334102910021CDE937
:1006800000110A460B4600F019F903B000BD00F056
:10069000004220F00040C10DC0F3160040F40000FD
:1006A0007F2901DA00207047962903DCC1F1960109
:1006B000C84001E096398840002AF4D04042704793
:1006C00020F00040C10DC0F3160040F400007F2967
:1006D00001DA00207047962903DCC1F19601C84079
:1006E000704796398840704700F0004230F0004073
:1006F0000AD0C10D01F56071C0F3160042EA015144
:10070000C20840071143704700200146704701F0BE
:10071000004330B421F0004150EA010206D00A0D36
:10072000A2F56072C1F31301002A02DC30BC002084
:100730007047440F44EAC104C100E01830BC00EB2C
:10074000C25000F078B830B50B4601460020202298
:10075000012409E021FA02F59D4205D303FA02F5CE
:10076000491B04FA02F52844151EA2F10102F1DC2E
:1007700030BD2DE9F05F0546002092469B46884635
:100780000646814640241BE028464146474622460D
:1007900000F02FF853465A46C01A914110D3114623
:1007A0001846224600F016F82D1A67EB01084F464E
:1007B00022460120002100F00DF817EB00094E4100
:1007C000201EA4F10104DFDC484631462A46434698
:1007D000BDE8F09F202A04DB203A00FA02F1002055
:1007E00070479140C2F1200320FA03F3194390406F
:1007F0007047202A04DB203A21FA02F000217047DA
:1008000021FA02F3D040C2F1200291400843194678
:100810007047202A06DBCB17203A41FA02F043EA60
:10082000E07306E041FA02F3D040C2F120029140A9
:100830000843194670470029A8BF7047401C49006B
:1008400008BF20F00100704710B4B0FA80FC00FA35
:100850000CF050EA010404BF10BC704749B1CCF160
:10086000200421FA04F411FA0CF118BF01212143EC
:100870000843A3EB0C01CB1D0106000A002BBEBFF1
:10088000002010BC704700EBC35010440029A4BFE7
:1008900010BC7047401C490008BF20F0010010BC8C
:1008A000704710B5002B08DA401C41F10001921886
:1008B0005B411A4301D120F0010010BD2DE9F04D3C
:1008C00092469B4611B1B1FA81F202E0B0FA80F291
:1008D00020329046FFF77EFF04460F4640EA0A00AA
:1008E00041EA0B0153465A46084303D12046394694
:1008F000BDE8F08D114653EA010015D0C8F1400261
:100900005046FFF776FF05460E465046594642468A
:10091000FFF760FF084301D0012000E000200543FD
:1009200046EAE0762C4337430A984FEA4453A0EB5B
:1009300008004FEAD4240A304FF0000244EA47543A
:100940004FEAD72502D500200146D1E7010510194D
:100950006941DDE9084500196941BDE8F04DA0E7AE
:1009600070B521F0004303430CD0C1F30A550024B5
:10097000D5EB040564EB0403D617AD1AB34102DBD3
:100980000020014670BD201841EB025170BDC1F33B
:100990000A52C1F3130140F2FF3341F480119A422D
:1009A00002DA00200146704740F233439A42A2F235
:1009B000334202DC5242FFF71CBFFFF70BBF0000BF
:1009C00030B5002904DB4FF00044404264EB0101E4
:1009D000002B04DB4FF00044524264EB03039942C6
:1009E00008BF904230BD0000064C074D06E0E068AD
:1009F00040F0010394E8070098471034AC42F6D366
:100A0000FFF778FB40C5010860C5010870B5C1F368
:100A10000A5201F000450024C1F3130140F2FF33F4
:100A200041F480119A4201DA002070BD40F2334354
:100A30009A42A2F2334203DC5242FFF7DAFE00E0B0
:100A400090402C43F1D0404270BD000082B02DE9AF
:100A5000FF1FEFF3038001B4684600F1400000E996
:100A600001400C480168C1F800D00B48D0F800D014
:100A700001BC80F30388BDE8FF1F01B000BD06483C
:100A8000D0F800D001BC80F30388BDE8FF1F01B09F
:100A900000BD00004C0000204800002001461F223D
:100AA00002EA11404FF6FF7202EA80103F2202EA8A
:100AB000112210434FF6FF7202EA401001F01F02AC
:100AC0001043704706E04FF47A7100BF0A00A1F1AD
:100AD0000101FBD10200A0F10100F4D17047F0B593
:100AE000034600201C460D46104603E014F8016B37
:100AF00005F8016B1600A2F10107BAB2F6D1F0BDFC
:100B000030B5034601E003F8011B1400A2F1010512
:100B1000AAB2F8D130BD00BFFEE770B504460B465F
:100B20001546002200210CE0A05C5E5CB04204D1BE
:100B3000501C82B2481C81B203E0501A401C82B2A1
:100B40000021281EA5F1010501DD012000E00020A3
:100B50005E5C002E01DD012600E000263042E3D17C
:100B6000585C08B9104670BD0020FCE770B505461A
:100B70000E46144614B1012C0ED106E00023074A9C
:100B80003146284602F050FB06E00123034A314675
:100B9000284602F049FB00BF00BF70BDE2B3010868
:100BA000F0B504460F4617B1022F60D11AE00025B8
:100BB00014E000260DE06288A37905FB032291B2C0
:100BC000228806FB032290B20022FFF7CFFF701CA1
:100BD00086B26079B042EEDC681C85B22079A8420A
:100BE000E7DC44E000253EE0A06830F81500E1684D
:100BF00031F81510884234D0002629E0A06830F87A
:100C000015100120B0400840E16831F815100122AC
:100C1000B2401140884219D0A36833F815304FF024
:100C2000010C0CFA06FC13EA0C0F01D0012300E0C2
:100C300000231A46638894F806C005FB0C3399B26A
:100C4000238806FB0C3398B2FFF790FF701C86B226
:100C50006079B042D2DCA06830F81500E16821F874
:100C60001500681C85B22079A842BDDC00BF00BF1A
:100C7000F0BD000070B58EB0044638220F496846BA
:100C8000FFF762FA2046E11704EB1171C1F3071573
:100C9000E11704EB11710911A4EB0111CEB2072D7C
:100CA00002DB00200EB070BD042E01DB0020F9E74E
:100CB000684600EBC50030F81600F3E728BC0108D1
:100CC0002DE9F05F04460F463846FFF7D3FF814613
:100CD0006079A17948430A301FFA80FA6088401C85
:100CE0001FFA80FB002624E04FEA29384FF6FF70F8
:100CF00000EA0919002518E0C5F1020C012303FAE6
:100D00000CF303EA0803002B01DD012300E00023BC
:100D10001A46A37903FB06B399B2A37903FB05A393
:100D200098B2FFF723FF681CC5B2032DE4DB701CEB
:100D3000C6B2042ED8DBBDE8F09F00002DE9F043D9
:100D400089B004460E461C22474902A8FFF7FCF969
:100D500046480068408C6188401A062190FBF1F0FB
:100D600000F0FF0816F0010F54D04149887F04F0CD
:100D700047FF00254CE0607CA84204D106F058FEF5
:100D80000121417003E006F053FE00214170032071
:100D9000DFF8D8C00090DCF800C0BCF81E9005F168
:100DA000010C0CFB089C1FFA8CF3DFF8C0C0DCF8C8
:100DB00000C0BCF81EC005FB08CC1FFA8CF1DFF8A0
:100DC000ACC0DCF800C0BCF82020DFF8A0C0DCF824
:100DD00000C0BCF820C0ACF1640C1FFA8CF004F029
:100DE000D7FFA07C042801D1012000E000200DB92C
:100DF000012100E00021084203D0089803F09EFC86
:100E000004E002A951F8250003F098FC681CC5B263
:100E1000062DB0DB16F0040F1ED006F009FE818906
:100E200006F006FEC089814203D106F001FE8789E3
:100E300001E00F48878B637994F806C003FB0CF33D
:100E40009B1C98B26388C3F1F1039AB263889B1E1E
:100E500099B23B4601F021FF06F0EAFD0021417006
:100E600009B0BDE8F083000060BC0108F800002074
:100E7000C89D002010B50446002006F0B5F922797F
:100E80000248A168FFF72BFE10BD0000EE9D002078
:100E9000F0B502460B46272B12D101201074907D2D
:100EA000401C9075107D401C1075D07D947D40EAEB
:100EB0000410C4B2557D681C507502F118004455E9
:100EC000252B12D102201074907D401E9075107D4C
:100ED000401C1075D07D947D40EA0410C4B2557D4D
:100EE000681C507502F118004455282B12D10320BC
:100EF0001074D07D401CD075107D401C1075D07DC5
:100F0000947D40EA0410C4B2557D681C507502F10E
:100F100018004455262B12D104201074D07D401E99
:100F2000D075107D401C1075D07D947D40EA041072
:100F3000C4B2557D681C507502F11800445500215B
:100F400005E00020946824F81100481CC1B2107913
:100F50008842F6DC00212AE0557D6E1A02F1180560
:100F6000A85DC51700EB15752D11A0EB051596684A
:100F700036F81550567D771A02F11806F45DE6171B
:100F800004EB167637110126BE403543AEB2557DCF
:100F90006F1A02F11805E85DC51700EB15752D11E4
:100FA000A0EB0515976827F81560481CC1B2107DA5
:100FB0008842D1DC0020F0BD02E0002200F8012BC5
:100FC0000A00A1F1010399B2F7D1704770B5054647
:100FD0000C46284601F07AF90646204601F076F9DB
:100FE000864201D0002070BD07E015F8011B14F8FF
:100FF000012B914201D00020F5E7287810B120782C
:101000000028F2D10120EEE77047704701B502E0F9
:101010000098401E009000980028F9D108BD0000FB
:1010200010B500201A4908704FF4A07003F0ACF915
:1010300018490860002406E0FF20174908551749A1
:101040000855601CC4B2052CF6DB00241DE000200E
:101050001049096801EB4411486103200D490968F2
:1010600001EB4411087200200A49096801EB4411A0
:1010700008610849096801EB4411C860054909681D
:1010800001EB44118861601CC4B20A2CDFDB10BD87
:10109000680000206C000020280000202D000020A7
:1010A0002D4800782D4908702B480078401C2A49AB
:1010B00008702A4800782A490968284A127801EB02
:1010C0004211087127A126480068244A127800EBD3
:1010D00042100160002022490968204A127801EB81
:1010E0004211487102201E4909681C4A127801EB1E
:1010F0004211C87101211A480068184A127800EBA1
:10110000421001721A4816490968144A127801EB14
:1011100042114861174912480068104A127800EBE2
:101120004210C16114490E4800680C4A127800EB65
:101130004210C16011480A490968084A127801EB57
:1011400042110861002106480068044A127800EB49
:101150004210816170470000680000207D0000207F
:101160006C000020494F5F44726976657200000090
:10117000CD1A0008582A010821290008E52800088E
:10118000244800782449087022480078401C2149EE
:10119000087022A0224909681F4A127801EB421107
:1011A000086000211E4800681B4A127800EB4210BC
:1011B000417103201A490968174A127801EB42115C
:1011C000C871012116480068134A127800EB4210DA
:1011D00001721448124909680F4A127801EB421152
:1011E000486111480E4909680B4A127801EB421117
:1011F000C8600E490A480068074A127800EB42109E
:101200000161002106480068034A127800EB421091
:1012100081617047680000207C0000204C4344003E
:101220006C000020452400087B310008793100085B
:1012300070B50546284607F083FB04465F48005D0D
:10124000FF2808D15E4800785C4908555C48007862
:10125000401C5B4908705BA05849095D5B4A1268F5
:1012600002EB4111086000205449095D574A126899
:1012700002EB4111487101205049095D534A12683F
:1012800002EB4111C87103204C49095D4F4A1268B5
:1012900002EB411108724E484849095D4B4A1268F9
:1012A00002EB411148614548005D4849096801EB7E
:1012B0004010C46147494148005D444A126802EB4E
:1012C0004010C16044483D49095D404A126802EB44
:1012D0004111086100213948005D3C4A126802EB67
:1012E0004010816100203D4921F814004FF49670B0
:1012F00003F04AF83A4941F82400284607F020FB59
:1013000004463848005DFF2808D12D48007835494B
:1013100008552B480078401C2949087032A03149F3
:10132000095D2A4A126802EB4111086000202D492C
:10133000095D264A126802EB4111487101212948D2
:10134000005D224A126802EB4010C171032025495A
:10135000095D1E4A126802EB411108721C492148BE
:10136000005D1A4A126802EB401041611D48005DA1
:101370001649096801EB4010C46116481949095D16
:10138000124A126802EB4111C86013481549095D01
:101390000E4A126802EB4111086100201149095DF3
:1013A0000A4A126802EB411188614FF4967002F00C
:1013B000EBFF0F4941F8240070BD00002D00002014
:1013C0006800002055534152527800006C00002004
:1013D000D1860008C98B0008E98A00084001002076
:1013E0001801002028000020555341525478000075
:1013F0002C010020284800782849087026480078E9
:10140000401C2549087026A027490968234A1278FC
:1014100001EB421108600020234909681F4A127835
:1014200001EB4211487103201F4909681B4A1278D9
:1014300001EB4211C87101211B480068174A12785C
:1014400000EB42100172194817490968134A1278D3
:1014500001EB421148610021134800680F4A1278DD
:1014600000EB4210C16112490F4800680B4A127824
:1014700000EB4210C1600F490B480068074A127820
:1014800000EB42100161002007490968034A127805
:1014900001EB421188617047680000207F00002046
:1014A00057323551313600006C000020D55000080D
:1014B000718C00085D8C000810B5032124A0FFF793
:1014C000A3FD002441E02948006800EB4410406976
:1014D000C8B32648006800EB4410C079012806D044
:1014E000022817D003280ED004282BD11EE01F4A53
:1014F000126802EB4412107F1C4A126802EB44127D
:10150000516988471EE01949096801EB441148698F
:10151000804717E0154A126802EB4412D069134A5B
:10152000126802EB4412516988470BE00F4A1268B7
:1015300002EB4412D0690D4A126802EB4412516961
:10154000884700BF00BF601CC4B20A2CBBDB10BDC3
:10155000546F732044657669636520496E69742E03
:101560002E2E2E2E2E2E2E2E2E0000006C00002051
:101570002DE9FE4704460D4616461F46DDE90C9A46
:10158000DDF82C803B463246294620468DE8000790
:1015900000F04CF9BDE8FE87012000F003F801F0EF
:1015A0002FFE00000149086070470000140401404C
:1015B00030B5044604254FF4302000F06FF805469E
:1015C000042D17D10C48006940F002000A49086157
:1015D00008464461006940F0400008614FF4302043
:1015E00000F05CF805460448006941F6FD710840CA
:1015F00001490861284630BD0020024004200B4903
:10160000C96811F0010F01D001200EE00749C96837
:1016100011F0040F01D0022007E00449C96811F05D
:10162000100F01D0032000E004207047002002408A
:101630000348006940F080000149086170470000DC
:101640000020024070B504460D460426F00200F06A
:1016500025F80646042E11D10948006940F0010022
:10166000074908612580F00200F018F80646044892
:10167000006941F6FE71084001490861304670BDBD
:101680000020024002480349486003484860704710
:101690002301674500200240AB89EFCD00B502462B
:1016A0000423FFF7ABFF034603E0FFF7A7FF034662
:1016B000521E012B01D1002AF7D102B90523184689
:1016C00000BD00B597B0002001900290012003906A
:1016D000002004900590069007900890099008203B
:1016E0000A9010200B9000200C900E900F901090FC
:1016F0004FF480501190002012901390149001A884
:101700001590169008A800F021F80121002000F0A3
:1017100003F817B000BD000051B14FF0204252F85D
:10172000202042F001024FF0204343F8202009E03E
:101730004FF0204252F82020034B1A404FF0204334
:1017400043F8202070470000FEFF0F00D0E901128F
:101750001143C2681143026911434269114382690E
:101760001143C2691143026A1143426A1143826AFA
:101770001143C26A1143026B11434FF020430268C8
:1017800043F822108168082908D11A46016852F8E6
:10179000211041F04001026843F82210416B0968B2
:1017A000426B526841EA0211426B926841EA02219F
:1017B000426B928941EA0241426B128A41EA02512C
:1017C000426B127D41EA0261426B926911430268E9
:1017D000521C4FF0204343F82210C16AB1F5804FEC
:1017E0001AD1816B0968826B526841EA0211826BDF
:1017F000926841EA0221826B128A41EA0251826BAD
:10180000127D41EA0261826B92691143026803EB27
:101810008202C2F8041108E06FF070414FF02043DB
:10182000026803EB8202C2F8041170472DE9F04F01
:1018300080460C4615461E46DDF824B0C2463019D7
:1018400083B2E81D82B23146284603F0FBFD4FF01B
:10185000000918E000270EE00120B8409AF80010B7
:10186000084203D00A48A0F800B002E008490A98EC
:101870000880781CC7B2082FEEDB0AF1010A09F1D3
:10188000010000F0FF09A145E4DBBDE8F08F000096
:10189000000002602DE9F04304460D4616461F463F
:1018A000DDF81C803B4632462946204603F0CAFD3F
:1018B000301B791B00FB01F902E00548A0F800800D
:1018C0005FEA0900A9F10109F7D1BDE8F083000042
:1018D0000000026070B50B46044603E014F8015B9B
:1018E00003F8015B1500A2F10106B2B2F6D170BD9A
:1018F0002DE9F0470646884614460027C14600F009
:10190000EDFF2046E11704EBD151C1F34F27E1175A
:1019100004EBD1514912B4EB412101D0781C87B2BC
:10192000002507E04FF4007101FB076000F0C4FFE1
:10193000681C85B2BD42F5DB002508E039F8021BC2
:101940002A466B1C9DB206EB420000F0BFFF200050
:10195000A4F101018CB2F1D100F0B4FFBDE8F08731
:1019600070B504460025107820B116782068B0FBC9
:10197000F6F085B22068084420601078984203DAB7
:101980001078401C107002E02068401B2060167820
:101990002068B0FBF6F080B270BD0FB438B50446D5
:1019A00006A800902046009A059907F0AFFB00209A
:1019B000009038BC5DF814FB2DE9F041024600258B
:1019C0000026002000230024002791F803C00CF01B
:1019D0000F0591F803C01CF0100F03D091F802C05E
:1019E0004CEA050591F800C0BCF1000F31D0146835
:1019F00000202BE04FF0010C0CFA00F3B1F800C00E
:101A00000CEA03069E4220D183004FF00F0C0CFA23
:101A100003F7BC4305FA03FC4CEA040491F803C045
:101A2000BCF1280F06D14FF0010C0CFA00FCC2F8F3
:101A300014C00AE091F803C0BCF1480F05D14FF083
:101A4000010C0CFA00FCC2F810C0401C0828D1D3CD
:101A50001460B1F800C0BCF1FF0F34DD5468002001
:101A60002EE000F1080C4FF0010808FA0CF3B1F871
:101A700000C00CEA03069E4221D183004FF00F0CF8
:101A80000CFA03F7BC4305FA03FC4CEA040491F892
:101A900003C0BCF1280F05D100F1080C08FA0CF8BE
:101AA000C2F8148091F803C0BCF1480F07D100F1CF
:101AB000080C4FF0010808FA0CF8C2F81080401C1E
:101AC0000828CED35460BDE8F081000038B5044644
:101AD00036E01D4A6068811A904217D009DC1B4924
:101AE00040180DD0B0F5806F0CD0B0F5006F13D159
:101AF0000AE0B1F5806F0BD0B1F5006F0CD109E0B1
:101B0000042509E0082507E0102505E0202503E06D
:101B1000402501E0802500BF00BF45F00100012104
:101B200003F0C8F820788DF802002089ADF8000095
:101B300060788DF8030069466068FFF73DFF0C345C
:101B400020780028C5D138BD0014014000F8FEBF40
:101B50000246002093680B4201D0012000E00020E3
:101B6000704741617047016170470246002105E0FE
:101B7000505C08B908467047481C81B24FF6FF70A8
:101B80008142F5DB00BFF6E7014600200A78302AE3
:101B900001DB012200E000220B78392B01DC01235C
:101BA00000E000231A4203D00A781207100E24E046
:101BB0000A78412A01DB012200E000220B78462B43
:101BC00001DC012300E000231A4204D00A78D21F6E
:101BD0001207100E11E00A78612A01DB012200E0F1
:101BE00000220B78662B01DC012300E000231A425F
:101BF00003D00A78D21F1207100E4A78302A01DB70
:101C0000012200E000224B78392B01DC012300E0A7
:101C100000231A4204D04A78303A0244D0B224E079
:101C20004A78412A01DB012200E000224B78462B52
:101C300001DC012300E000231A4204D04A78373A3D
:101C40000244D0B211E04A78612A01DB012200E0AF
:101C500000224B78662B01DC012300E000231A42AE
:101C600003D04A78573A0244D0B2704770B59AB060
:101C700005460E46002440A20021284608F0FEFC3E
:101C800004464DA22146284608F0F8FC04464CA222
:101C90002146284608F0F2FC04464B4A21462846D5
:101CA00008F0ECFC044649A22146284608F0E6FC70
:101CB00004464CA22146284608F0E0FC0446424A6D
:101CC00048322146284608F0D9FC04463E4AC03234
:101CD0002146284608F0D2FC0446314601A801F00E
:101CE000EFFE01AA2146284608F0C8FC044649A296
:101CF0002146284608F0C2FC04464CA2214628464C
:101D000008F0BCFC04464EA22146284608F0B6FC6A
:101D100004464EA22146284608F0B0FC044654A2D0
:101D20002146284608F0AAFC044657A22146284628
:101D300008F0A4FC0446604A2146284608F09EFCB0
:101D400004465EA22146284608F098FC04465EA29E
:101D50002146284608F092FC04465DA2214628460A
:101D600008F08CFC04465CA22146284608F086FC5C
:101D7000044620461AB070BD485454502F312E30BE
:101D800020323030204F4B0D0A436F6E74656E74F5
:101D90002D547970653A20746578742F68746D6C71
:101DA0000D0A507261676D613A206E6F2D63616339
:101DB00068650D0A0D0A00003C68746D6C3E0000F9
:101DC0003C686561643E0000CCBC01083C746974E9
:101DD0006C653EC7EBCAE4C8EB3C2F7469746C6554
:101DE0003E0000003C626F6479206261636B677241
:101DF0006F756E643D687474703A2F2F3139322ECE
:101E00003136382E302E332F696D6731322E6A709D
:101E1000673E00003C2F464F4E543E3C2F535452D9
:101E20004F4E473E3C2F503E3C503E003C485220D7
:101E3000636F6C6F723D236666303030303E000059
:101E40003C63656E7465723E000000003C666F7214
:101E50006D20616374696F6E3D22696E70757422C6
:101E6000206D6574686F643D22706F7374223E004C
:101E70003C5020616C69676E3D63656E74657220CD
:101E80003E3C62723E0000003C494E505554207367
:101E900074796C653D22464F4E542D53495A453A4C
:101EA00020373270743B2057494454483A2035302B
:101EB000307078220000000000BE01083C2F6365EE
:101EC0006E7465723E0000003C2F666F726D3E00BE
:101ED0003C2F626F64793E003C2F68746D6C3E004D
:101EE0002DE9F0419AB007460C46002564A0006831
:101EF0000090002663A20021384608F0BFFB05468B
:101F000070A22946384608F0B9FB05466FA229465B
:101F1000384608F0B3FB05466E4A2946384608F0B5
:101F2000ADFB05466CA22946384608F0A7FB0546DE
:101F30006FA22946384608F0A1FB05466EA2294645
:101F4000384608F09BFB0546624AC03229463846AF
:101F500008F094FB054601F011FDD0F800804246E0
:101F60002946384608F08AFB05466FA229463846BE
:101F700008F084FB054672A22946384608F07EFB2D
:101F8000054674A22946384608F078FB05464CE021
:101F900073A22946384608F071FB05467D4A29465A
:101FA000384608F05DFB05467B4A2946384608F06E
:101FB00057FB054679A22946384608F051FB0546ED
:101FC000642096FBF0F100FB11600A2190FBF1F018
:101FD0003030C0B28DF800003046711CCEB20A21FC
:101FE00090FBF1F201FB12003030C0B28DF801001D
:101FF0006A462946384608F033FB054668A229465A
:10200000384608F03BFB0546214601A801F058FD83
:1020100001AA2946384608F031FB054661A2294647
:10202000384608F02BFB05460C34207A0028AFD147
:1020300060A22946384608F021FB054660A22946E1
:10204000384608F01BFB05465DA22946384608F0D5
:1020500015FB05465CA22946384608F00FFB0546ED
:102060005BA22946384608F009FB05465AA22946D4
:10207000384608F003FB054628461AB0BDE8F08153
:1020800030310000485454502F312E30203230303F
:10209000204F4B0D0A436F6E74656E742D5479702A
:1020A000653A20746578742F68746D6C0D0A5072EF
:1020B00061676D613A206E6F2D63616368650D0A1B
:1020C0000D0A00003C68746D6C3E00003C68656160
:1020D000643E0000CCBC01083C7469746C653E57DA
:1020E000656220CAB5D1E93C2F7469746C653E0005
:1020F0003C2F686561643E003C626F6479206261D8
:10210000636B67726F756E643D687474703A2F2FDD
:102110003139322E3136382E302E332F696D6731FA
:10212000322E6A70673E00003C2F464F4E543E3CB4
:102130002F5354524F4E473E3C2F503E3C503E0092
:102140003C485220636F6C6F723D236666303030BE
:10215000303E00003C5354524F4E473E00000000BA
:102160003C5020616C69676E3D6C6566743E3C4610
:102170004F4E5420636F6C6F723D23666630303073
:10218000302073697A653D373E3C41206872656650
:102190003D220000AF000020CC0000202F000000F6
:1021A000223E00003C2F413E3C2F464F4E543E3CC9
:1021B0002F503E003C2F5354524F4E473E000000DC
:1021C0003C62723E000000003C48523E00000000AD
:1021D0003C2F626F64793E003C2F68746D6C3E004A
:1021E0000FB438B5044606A800902046009A059919
:1021F00006F08CFF00200090204600F067F8C0B287
:1022000038BC5DF814FB00002DE9FC5F0546002694
:10221000B346B1464FF07E5A44E015F8014B2D2CE1
:1022200001D101263EE02E2C02D14FF0010B39E006
:10223000302C2EDB392C2CDCBBF1000F0ED11F49CA
:102240004846FDF7FAFF8146A4F13000FEF7F3F9A6
:1022500007464946FDF799FF814623E05046FEF7C1
:1022600043FA0746164A174BFEF704F9CDE9000179
:10227000FEF74DFA8246A4F13000FEF7DCF9804605
:102280005146FDF7DAFF07464946FDF77EFF8146D6
:1022900008E026B10C494846FDF7CFFF8146484685
:1022A000BDE8FC9F28780028B7DC26B106494846DF
:1022B000FDF7C3FF81464846F2E7000000002041D9
:1022C0009A9999999999B93F000080BF10B5014634
:1022D00000200A4601E0431C98B212F8014B002C82
:1022E000F9D110BD10B50246104605E00378802BE9
:1022F00001DD801C00E0401C0B00A1F10104E1B2F3
:10230000F4D110BD0246002039B950784FF6FF7362
:1023100003EA00201378184306E010784FF6FF73A5
:1023200003EA0020537818437047000030B5044694
:10233000EF2340F23F120021084603F083F8002506
:1023400002E0034804806D1CB5F5963FF9D330BD1B
:102350000000026008B501217C2002F0ABFC2020C7
:10236000ADF8000010208DF8030003208DF8020066
:1023700069463148FFF720FB42F24800ADF8000003
:1023800069462E48FFF718FB0120ADF800006946AA
:102390002B48FFF711FB0220ADF8000069462848E2
:1023A000FFF70AFB4CF23370ADF8000003208DF804
:1023B000020018208DF8030069462048FFF7FCFA58
:1023C0004FF68070ADF8000069461D48FFF7F4FA3B
:1023D0008020ADF8000069461848FFF7EDFA4FF489
:1023E0000060ADF8000069461448FFF7E5FA802167
:1023F0001248FFF7B8FB4CF203011048FFF7B3FB9C
:102400004FF4F0610E48FFF7AEFB01210C48FFF7D7
:10241000A8FB02210A48FFF7A4FB10210748FFF799
:10242000A2FB20210548FFF79EFB4FF40051034813
:10243000FFF797FB08BD00000010014000140140A9
:102440000018014010B5FFF785FF0121080202F0D6
:1024500011FC0121084602F02DFCFFF732F90221A0
:10246000FE48FFF77EFBFE48FEF7D0FD0221FB4849
:10247000FFF779FBFA48FEF7C9FD1420FEF7C6FD09
:10248000CF204FF0C04108801420FEF7BFFD002090
:10249000F44908801420FEF7B9FD8120F149088035
:1024A0001420FEF7B3FD3020EE4908801420FEF71B
:1024B000ADFDED204FF0C04108801420FEF7A6FDD1
:1024C0006420E84908801420FEF7A0FD0320E549B8
:1024D00008801420FEF79AFD1220E249088014209B
:1024E000FEF794FD8120DF4908801420FEF78EFD61
:1024F000E8204FF0C04108801420FEF787FD8520BA
:10250000D84908801420FEF781FD1020D5490880A5
:102510001420FEF77BFD7820D24908801420FEF7B6
:1025200075FDCB20410708801420FEF76FFD392090
:10253000CC4908801420FEF769FD2C20C949088089
:102540001420FEF763FD0020C64908801420FEF722
:102550005DFD3420C34908801420FEF757FD02209A
:10256000C04908801420FEF751FDF7204FF0C0410C
:1025700008801420FEF74AFD2020BA490880142064
:10258000FEF744FDEA204FF0C04108801420FEF71A
:102590003DFD0020B34908801420FEF737FD0020E0
:1025A000B04908801420FEF731FDB1204FF0C04142
:1025B00008801420FEF72AFD0020AA490880142074
:1025C000FEF724FD1B20A74908801420FEF71EFDFE
:1025D000B620010708801420FEF718FD1420FEF72E
:1025E00015FD0A209F4908801420FEF70FFDA22048
:1025F0009C4908801420FEF709FD1420FEF706FD13
:10260000C020C10508801420FEF700FD3520954943
:1026100008801420FEF7FAFCC1204FF0C04108806A
:102620001420FEF7F3FC11208E490880C5204FF0DE
:10263000C041088045208B4908801420FEF7E6FC45
:10264000452088490880C7204FF0C04108801420E9
:10265000FEF7DCFCA22083490880F2204FF0C04145
:1026600008801420FEF7D2FC00207E490880142048
:10267000FEF7CCFC2620010708801420FEF7C6FCDC
:102680000120784908801420FEF7C0FCE0204FF0BC
:10269000C04108801420FEF7B9FC0F207149088062
:1026A00026200880242008800B2008800E20088027
:1026B0000920088054200880A8200880462008802F
:1026C0000C20088017200880092008800F2008802F
:1026D00007200880002008801420FEF797FCE120E6
:1026E0004FF0C041088000205E4908801920088012
:1026F0001B20088004200880102008800720088004
:102700002A2008804720088039200880032008807C
:1027100006200880088030200880382008800F209C
:1027200008801420FEF772FC362001070880142070
:10273000FEF76CFC68204B4908801420FEF766FC0D
:102740002A204FF0C04108801420FEF75FFC0020D3
:10275000444908801420FEF759FC002041490880B4
:102760001420FEF753FC01203E4908801420FEF798
:102770004DFC3F203B4908801420FEF747FC142005
:10278000FEF744FC2B20410708801420FEF73EFC96
:102790000020344908801420FEF738FC002031491D
:1027A00008801420FEF732FC00202E4908801420F7
:1027B000FEF72CFCEF202B4908801420FEF726FCA6
:1027C0003A204FF0C04108801420FEF71FFC55202E
:1027D000244908801420FEF719FC11204FF0C04155
:1027E00008801420FEF712FC1420FEF70FFC2920AD
:1027F0004FF0C04108801420FEF708FC1420FEF7BB
:1028000005FC1420FEF702FC1420FEF7FFFB142049
:10281000FEF7FCFB1420FEF7F9FB1420FEF7F6FB95
:102820001420FEF7F3FB1420FEF7F0FB1420FEF754
:10283000EDFB1420FEF7EAFB1420FEF7E7FB002077
:1028400002F020FE002002F01DFE002002F01AFE21
:10285000002002F017FE2C20C10605E00018014000
:10286000FCBF0200000002600880002404E0002099
:102870004FF0C0410880641CB4F5963FF7D310BDFB
:1028800001E000F0BDFCFCE770B506463446354675
:102890000DE02078252806D1601CFFF775F905F8B2
:1028A000010BE41C03E014F8010B05F8010B207880
:1028B0000028EED1287070BD10B504462046FEF702
:1028C00077FE10BD10B5FEF7B3FE10BD70B504461F
:1028D0000D4629462046FEF7B5FE70BD10B5FEF741
:1028E000D1FE10BD2DE9F04105460E4617462C4697
:1028F0000020207020210948FFF72AF918B9207814
:1029000040F00100207040210448FFF721F918B978
:10291000207840F002002070BDE8F08100180140EE
:102920002DE9F04104460E4617462546287810F05A
:10293000010F04D008211248FFF713F903E0082122
:102940000F48FFF710F9287810F0020F04D010217B
:102950000B48FFF706F903E010210948FFF703F9D8
:10296000287810F0040F04D020210548FFF7F9F86B
:1029700003E020210248FFF7F6F8BDE8F0810000EF
:102980000010014002460B4600210AE0505C9842CC
:1029900001D108467047505C08B90020FAE7481C8E
:1029A000C1B2F3E730B503460C46002113E0585C92
:1029B000802805DA585C2578A84201D1084630BD48
:1029C000585C802805DB585A2588A84201D1084662
:1029D000F5E7481CC1B21000A2F10105EAB2E6D148
:1029E000FF20ECE72DE9F043B3B007460E4614464E
:1029F000C822002101A8FEF783F814F0010F03D0CC
:102A000001A92FA002F0C4FD14F0020F03D001A908
:102A10002CA002F0BDFD14F0040F03D001A92AA0E0
:102A200002F0B6FD14F0080F03D001A929A002F0AE
:102A3000AFFD14F0100F03D001A92DA002F0A8FDE6
:102A400014F0200F07D004F0EDFF01A9D0F810908A
:102A5000484602F09DFD14F0400F03D001A92BA0C1
:102A600002F096FD01A92AA002F092FD01A8FFF74D
:102A70002DFC00F0FF08262F0ED1317801A8FFF7BA
:102A800081FF0546681CC5B2A8F10100A84200DC20
:102A9000002501A8405D3070282F0DD1317801A8A4
:102AA000FFF770FF054615B9A8F10100C5B2681E11
:102AB000C5B201A8405D307033B0BDE8F0830000BE
:102AC0002E0000002D00000030313233343536370F
:102AD000383900006162636465666768696A6B6CB7
:102AE0006D6E6F707172737475767778797A000095
:102AF0004142434445464748494A4B4C4D4E4F504E
:102B00005152535455565758595A00000D0A000057
:102B10000A0000002DE9F047B2B08046894615460C
:102B20004E46C82200216846FDF7EAFF15F0010F66
:102B300003D069463CA002F02BFD15F0020F03D034
:102B400069463AA002F024FD15F0040F03D069464F
:102B500037A002F01DFD15F0080F03D0694637A01D
:102B600002F016FD15F0100F03D069463AA002F0EE
:102B70000FFD15F0200F07D004F054FF6946D0F880
:102B800010A0504602F004FD6846FFF79FFBC7B255
:102B9000781CC7B23A4631466846FFF703FF044641
:102BA000FF2C00D10024B8F1260F16D11DF8040027
:102BB000802802DA601CC4B201E0A01CC4B2BC428E
:102BC00000DB00241DF80400802803DA1DF804004F
:102BD000307002E03DF804003080B8F1280F17D1C2
:102BE000A01E1DF80000802802DA601EC4B201E0B9
:102BF000A01EC4B2FF2C00D13C461DF80400802862
:102C000003DA1DF80400307002E03DF80400308063
:102C10003A4631466846FFF7C5FE0446FF2C00D110
:102C2000002432B0BDE8F0872E0000002D00000027
:102C300030313233343536373839000061626364FD
:102C400065666768696A6B6C6D6E6F7071727374BC
:102C500075767778797A0000414243444546474883
:102C6000494A4B4C4D4E4F5051525354555657585C
:102C7000595A0000F0B504460F4615461E4606E0B8
:102C80002046621C94B23246394602F047FB2800C7
:102C9000A5F101018DB2F3D1F0BDF0B507460C46A8
:102CA00015461E4606E02146621C94B2324638465E
:102CB00002F034FB2800A5F101018DB2F3D1F0BD83
:102CC000F8B504460D461646052E5BD2DFE806F041
:102CD000030A1132390001232B4A2946204600F00D
:102CE000A3FA4FE00123294A2946204600F09CFA26
:102CF00048E004F09DFE078ADFF88CC00097BCF81E
:102D000002C0AC440CF1010C1FFA8CF3DFF878C060
:102D1000BCF800C0A4440CF1010C1FFA8CF2A5F120
:102D2000010C1FFA8CF1A4F1010C1FFA8CF002F0D7
:102D30007DFE27E00023144A2946204600F074FA5D
:102D400020E004F075FE8789DFF83CC00097BCF8EE
:102D500002C0AC440CF1010C1FFA8CF3DFF828C060
:102D6000BCF800C0A4440CF1010C1FFA8CF2A5F1D0
:102D7000010C1FFA8CF1A4F1010C1FFA8CF002F087
:102D800055FE00BF00BFF8BDCEAC0108F2AF010890
:102D9000F0B504460F4627B1012F1DD0022F1AD1DE
:102DA00060E0002514E000260DE06288A37905FBB1
:102DB000032291B2228806FB032290B20322FFF77E
:102DC0007FFF701C86B26079B042EEDC681C85B271
:102DD0002079A842E7DC84E0E07E022832D1E07D61
:102DE000617E884201D0012000E00020217EA27E89
:102DF000914201D0012100E00021084331D06288D6
:102E0000A37E94F806C003FB0C2291B22288637E55
:102E100003FB0C2290B20422FFF752FF6288237E4C
:102E200094F806C003FB0C2291B22288E37D03FBD9
:102E30000C2290B20222FFF743FFE07D6076207EF5
:102E4000A0760EE06288A37E94F806C003FB0C22F5
:102E500091B22288637E03FB0C2290B20422FFF71A
:102E60002FFF3EE0002538E0E01D415D0830405D69
:102E7000814230D0002627E0E01D415D0120B040B6
:102E8000084004F10F014A5D0121B1400A4090421F
:102E900018D0E31D5B5D4FF0010C0CFA06FC13EA41
:102EA0000C0F01D0012300E000231A46638894F838
:102EB00006C005FB0C3399B2238806FB0C3398B28D
:102EC000FFF7FEFE701C86B26079B042D4DCE01DD4
:102ED000415D08304155681C85B22079A842C3DCA9
:102EE00000BF00BFF0BD00002DE9F04788B00446E8
:102EF0000F461C22484901A8FDF726F947480068FB
:102F0000408C6188401A062190FBF1F000F0FF0828
:102F10004349887F02F074FE00254BE0AF4204D1A4
:102F200004F086FD0121417003E004F081FD0021E1
:102F300041700420DFF8E4C00090DCF800C0BCF869
:102F40001E9005F1010C0CFB089C1FFA8CF3DFF8B6
:102F5000CCC0DCF800C0BCF81EC005FB08CC1FFAD2
:102F60008CF1DFF8B8C0DCF800C0BCF82020DFF836
:102F7000ACC0DCF800C0BCF820C0ACF1640C1FFA97
:102F80008CF002F005FFE07E042801D1012000E072
:102F900000200DB9012100E00021084203D007986C
:102FA00001F0CCFB04E001A951F8250001F0C6FBBB
:102FB000681CC5B2062DB1DB04F03AFD818904F02E
:102FC00037FDC089814203D104F032FD868901E0DA
:102FD0001348868B0096B4F802C094F8059094F8D4
:102FE00006A009FB0ACC1FFA8CF309FB0AFC0CF1C2
:102FF000030C1FFA8CF2B4F802C0ACF1030C1FFAF8
:103000008CF1B4F800C0ACF1020C1FFA8CF002F0A5
:103010000DFD08B0BDE8F08790BB0108F800002066
:10302000C89D00202DE9FF4F0446884691460020A8
:10303000002300217CE0002274E0002543E000260C
:103040003BE001EB050A0AF0FF07012F00DA082731
:10305000082F00DD012702EB060A0AF0FF0CBCF185
:10306000010F01DA4FF0080CBCF1080F01DD4FF041
:10307000010C012D01D1AA4601E04FF0000A012EFA
:1030800001D1B34601E04FF0000B1AEA0B0F10D14B
:10309000A7F1010A18F80AA0ACF1010B4FF0010EDC
:1030A0000EFA0BFE1AEA0E0F03D003F1010A0AF022
:1030B000FF0306F1010A0AF0FF06032EC1DB05F14A
:1030C000010A0AF0FF05032DB9DB032B0DD114F81B
:1030D00001A04FF0010B0BFA02FB4AEA0B0A04F8BD
:1030E00001A000F1010A0AF0FF00022B09DA14F82E
:1030F00001A04FF0010B0BFA02FB2AEA0B0A04F8BD
:1031000001A0032B09DD14F801A04FF0010B0BFA0D
:1031100002FB2AEA0B0A04F801A0002302F1010ACB
:103120000AF0FF024A4588DB01F1010A0AF0FF01BB
:10313000DDF80CA05145FFF67EAF04B0BDE8F08F7E
:1031400010B50446002004F04FF82279E11D024832
:10315000FDF7C5FC10BD0000EE9D002010B5044633
:1031600022790449E01DFDF7BAFC002004F02CF997
:1031700010BD0000EE9D00207047704770B50446FA
:103180000D462B4622460249024800F005F870BD64
:1031900000F80708D51800082DE9F04707468846CB
:1031A00014461D46A14608EBC52004222146B84717
:1031B0004E463088B0F5006F01DD012000E00020B0
:1031C0003188042901DA012100E00021084300D000
:1031D00013E0328808EBC5202146B8473088001F2D
:1031E00081B209F1040004F0CFFB82467188514599
:1031F00000D002E00120BDE8F0870020FBE70000DE
:1032000071B600BF0648006800F4E0600549084355
:10321000001D03490860BFF3408F00BF00BFFEE7F9
:103220000CED00E00000FA052DE9FF4F82B0824668
:103230000F469346D846B8F80060B8F80290059853
:1032400007287DD2DFE800F004153D6894B5D8006A
:1032500004F0EEFB80890190009007EB0900401C10
:1032600083B20AEB060082B23946504602F05EFC99
:10327000EBE0002522E000241CE0B4F5A07F17DA83
:10328000F02F15DA04F0D4FB418A05FB0640801CC0
:1032900038F8100081420BD005FB06439B1C38F820
:1032A0001320EB1999B204EB0A0398B202F036F836
:1032B000601C84B2B442E0DB681C85B24D45DADBA9
:1032C000C3E0002525E000241FE0B4F5A07F1ADA52
:1032D000F02F18DA04F0ACFB418A05FB0640801C95
:1032E00038F81000C04381420DD005FB06439B1CFB
:1032F00038F81330DB439AB2EB1999B204EB0A03A6
:1033000098B202F00BF8601C84B2B442DDDB681C9A
:1033100085B24D45D7DB98E0002526E0002420E06B
:10332000B4F5A07F1BDAF02F19DA04F081FB418A93
:1033300005FB0640801C38F8100081420FD000E0E9
:1033400082E005FB06439B1C38F81320EB1999B269
:103350000AEB06035B1E1B1B98B201F0DFFF601C2B
:1033600084B2B442DCDB681C85B24D45D6DB6CE030
:1033700000251BE0002415E0B4F5A07F10DAF02F43
:103380000EDA05FB06439B1C38F8132007EB0903F4
:103390005B1E5B1B99B204EB0A0398B201F0BEFFFF
:1033A000601C84B2B442E7DB681C85B24D45E1DBAA
:1033B0004BE000251DE0002417E0B4F5A07F12DAF1
:1033C000F02F10DA05FB06439B1C38F8132007EB9F
:1033D00009035B1E5B1B99B20AEB06035B1E1B1BFA
:1033E00098B201F09BFF601C84B2B442E5DB681C1C
:1033F00085B24D45DFDB28E0002522E000241CE0FB
:10340000B4F5A07F17DAF02F15DA04F011FB418A2A
:1034100005FB0640801C38F8100081420BD005FBEC
:1034200006439B1C38F81320EB1999B204EB0A03EE
:1034300098B201F073FF601C84B2B442E0DB681CF8
:1034400085B24D45DADB00E000BF00BF06B0BDE845
:10345000F08F000010B50446484800680078FF2847
:1034600001D102F071F902F079F94448006840692D
:1034700042490968896988421DD0012000F036FD63
:103480003E490968886900F007FE002000F02EFD23
:103490003A490968486900F0FFFD3848006840690A
:1034A00036490968886135480068007820F00100D5
:1034B00032490968087031480068007810F0010F3F
:1034C0000FD0002000F012FD2C490968486900F077
:1034D000E3FD2A480068007820F0010027490968C8
:1034E0000870264800680069A04219D0012000F049
:1034F000FDFC22490968086900F042F8002000F04C
:10350000F5FC204600F03CF81C48006804611B48AC
:103510000068007820F0020018490968087015E07A
:1035200016480068007810F0020F0FD0002000F05D
:10353000DDFC12490968C86800F022F80F480068ED
:10354000007820F002000D49096808700B480068F7
:10355000007810F0080F0FD0002000F0C7FC0749DA
:103560000968C86800F00CF804480068007820F08A
:10357000080002490968087010BD0000F80000202A
:10358000F0B59BB0064634460CB91BB0F0BD4049BF
:10359000887F02F035FB00203E4A00901268D18BF4
:1035A0003C4A1268908BF0234FF4A07202F0F0FBBB
:1035B00038480068817937480068401C405C3549CC
:1035C000096891F8241090FBF1F0C5B23148006809
:1035D00090F82400684300EB400004EB80042E4880
:1035E0000078854214D004F023FA8789294A00978D
:1035F0001268D28B521C91B2264A1268928B521CCE
:1036000090B2EE234FF49F7202F090FA22480570B8
:10361000012533E01F480068C1681E4800688279B0
:103620001C480068401C805C00EB400001EB8000FF
:10363000A04204D104F0FCF90121417003E004F040
:10364000F7F900214170214602A800F039FA02A8DA
:1036500001F074F8681CC0B205460E49096891F87B
:103660002410884200DD0CE00C3404F0E1F9811DE7
:1036700004F0D8F900780A8810440880207A0028DD
:10368000C8D100BF04F0D4F90021417000BF7CE72D
:10369000C89D0020F8000020D300002070B504462B
:1036A000207A0B2846D007DC072837D2DFE800F065
:1036B000990D37997162510016380728F5D2DFE865
:1036C00000F0339071908A7A820047480068C068A1
:1036D000454909680861607A4349096889798842DF
:1036E0000CDD607A40490968887100213E48006815
:1036F00082793D480068401C815403E0607A3A4971
:1037000009688871384960680968C8603648006887
:10371000007840F0020034490968087061E0606890
:1037200008B1606880475CE0606810B1607A6168E9
:10373000884756E061680878FCF786FF0646617A9C
:10374000042200F0EBFA0546FCF7BAFF6168087046
:1037500047E0616891F90000FCF76DFF0646617A69
:10376000062200F0DBFA0546FCF791FF40B26168E3
:10377000087036E061680888FCF766FF0646617AE3
:10378000042200F0CBFA0546FCF79AFF6168088036
:1037900027E0617A62681068072200F0BFFA61686A
:1037A00008601EE06068007808B9012000E0002091
:1037B0006168087015E061680868052100F0F0F89C
:1037C000616808600DE061680888052100F048F82C
:1037D0006168088005E0617A3722606800F01CFAB1
:1037E00000BF00BF70BD0000F80000202DE9FE4FB3
:1037F00004460E4615461F46DDE90C9A1748006838
:10380000C089029000200190281B1FFA80F8B81B85
:103810001FFA80FBD8451EDD1BE008FB0AF090FB79
:10382000F9F20198411C89B20191824203DA0B48F6
:1038300000688089029002983B46224631460090FB
:10384000204602F0BBFC2046611C8CB2A84200DB83
:1038500000E0E2E700BFBDE8FE8F0000D4000020DA
:103860002DE9F04389B00746884600240C263DA088
:1038700000F028FB1222002104A8FDF741F9B8B29C
:1038800001F04AFF0390B8B201F046FF0290B8B2CF
:1038900001F042FF01909DF80E0000909DF8093064
:1038A0009DF8042031A104A8FEF79AFC4BE000200B
:1038B00000F01CFB701CC1B2224604A800F07EFF81
:1038C000002000F0EBF80546252D02D10CB1601E5A
:1038D000C4B2272D03D1B44201DA601CC4B2B44291
:1038E00016D1262D01D1012000E00020282D01D184
:1038F000012100E0002108430AD000208DF81B00C0
:1039000004A801F073FE8146FDF7C8F807461BE0E6
:1039100064B9262D01D1012000E00020282D01D11D
:10392000012100E00021084300D00DE0B44206DA96
:10393000601E04AA811842462846FFF753F800216A
:10394000701E04AA1154B2E700BF012000F0CEFAA5
:10395000701CC1B2012204A800F030FF384609B043
:10396000BDE8F083507574496E0000002530336463
:103970002E253033642E25303364000030B50748DF
:103980000068C46805490968C86800F08FFA0546F0
:1039900005EB450004EB800030BD0000F80000207E
:1039A000F3B587B00F460024102635A000F08AFA40
:1039B0001222002102A8FDF7A3F89DF81C009DF833
:1039C0001D10CDE900109DF81E309DF81F202EA17E
:1039D00002A8FEF705FC45E0002000F087FA701C05
:1039E000C1B2224602A800F0E9FE002000F056F81D
:1039F0000546252D02D10CB1601EC4B2272D03D17E
:103A0000B44201DA601CC4B2B44210D1262D01D1F7
:103A1000012000E00020282D01D1012100E000213B
:103A2000084304D002A801F0E1FD07901BE064B94F
:103A3000262D01D1012000E00020282D01D10121F7
:103A400000E00021084300D00DE0B44206DA601E19
:103A500002AA81183A462846FEF7C4FF0021701ECC
:103A600002AA1154B8E700BF012000F03FFA701C11
:103A7000C1B2012202A800F0A1FE079809B0F0BD72
:103A8000507574496E000000253033642E253033A4
:103A9000642E253033642E253033640070B505461E
:103AA00025B1284604F09AFA044602E004F060FAD0
:103AB000044614B16668707870BD0020FCE7000011
:103AC0002DE9FF4105460C46207A0C2837D008DC4A
:103AD00078D2DFE800F096159696282161969647F1
:103AE000961A1A2838D006DC0D282FD0172840D077
:103AF000182867D146E01B2856D01C28F9D162E06F
:103B000028462168FDF749FF80E060680278284672
:103B10002168FDF742FF79E0606802882846216845
:103B2000FDF73BFF72E061680868FCF7DDFD0646C3
:103B30000B46324628462168FDF72FFF66E0606895
:103B4000027828462168FDF728FF5FE02846D4E97F
:103B50000012FDF722FF59E02846D4E90012FDF7D4
:103B60001CFF53E06068026828462168FDF715FFD6
:103B70004CE0606880470646324628462168FDF7DB
:103B80000CFF43E060680078224B53F82020284661
:103B90002168FDF702FF39E0606890F900202846AF
:103BA0002168FDF7FAFE31E06068007861684978C5
:103BB000CDE9001060688378C27828462168FDF757
:103BC000ECFE23E01DE06168098888B201F0A4FDE5
:103BD00003906168098888B201F09EFD02906168D7
:103BE000098888B201F098FD01909DF80E000090C0
:103BF0009DF809309DF8042028462168FDF7CDFE88
:103C000004E028462168FDF7C8FE00BF00BFBDE8FC
:103C1000FF8100008C0000202DE9F04786B080462F
:103C20000E46914600243BA000F04CF912220021E0
:103C300001A8FCF765FF01A9404601F097FC5BE095
:103C4000002000F053F9B01CC7B201A8805D8028A5
:103C500002DD2D2001A98855701E01A9085C80286D
:103C600001DA0020885523463A46314601A800F083
:103C700059FE0020FFF712FF0546252D02D10CB199
:103C8000601EC4B2272D04D1781EA04201DD601C45
:103C9000C4B2781EA04210D1262D01D1012000E02F
:103CA0000020282D01D1012100E00021084304D08B
:103CB000414601A801F05AFC1FE064B9262D01D14C
:103CC000012000E00020282D01D1012100E0002189
:103CD000084300D011E0BC420ADA601EC1B201A85C
:103CE000FEF700FB82464A4651462846FEF712FF81
:103CF0000021781E01AA1154A2E700BF012000F0A4
:103D0000F5F823463A46314601A800F00BFE06B00E
:103D1000BDE8F087507574496E0000002DE9FE4F34
:103D200081460D4692460024681CC5B233A000F0BF
:103D3000C9F80A2200216846FCF7E2FE4846FCF773
:103D4000D3FC07463A460B462EA16846FEF748FAD2
:103D500045E0002000F0CAF8681CC1B2224668465F
:103D600000F02CFD0020FFF799FE0646252E02D11B
:103D70000CB1601EC4B2272E03D1AC4201DA601C24
:103D8000C4B2AC4210D1262E01D1012000E00020A7
:103D9000282E01D1012100E00021084304D068460B
:103DA000FEF732FA81461BE064B9262E01D10120CC
:103DB00000E00020282E01D1012100E0002108436D
:103DC00000D00DE0AC4206DA601E6A468118524609
:103DD0003046FEF707FE0021681E0DF80010B8E718
:103DE00000BF012000F082F8681CC1B201226846C1
:103DF00000F0E4FC4846BDE8FE8F000050757449B1
:103E00006E000000252E33660000000070B50546E8
:103E1000FF2023490968087022A0214909684861E8
:103E2000002406E000211E480068401C0155601C6B
:103E3000C4B2052CF6DB00201949096888711848BE
:103E40000068C5601849887F01F0DAFE0020144937
:103E500009688883322012490968C8834FF4A0702A
:103E60000F4909680884F0200D490968488403F067
:103E7000D9FD00780A490968498C094A1268D28B31
:103E8000891A91FBF0F00649096881F824000220A4
:103E90000349096881F82500012001F0E7FE70BDA3
:103EA000F800002020000000C89D002001460020EE
:103EB0000A4602E00C32431CD8B2137A002BF9D127
:103EC0007047000010B5044607480068007840F0CD
:103ED0000200054909680870034800684461002031
:103EE000FFF7B8FA10BD0000F800002030B5044616
:103EF00034B9084D6B8BEA8A298BA88A01F070FED1
:103F0000012C06D1034D6B8BEA8AE98AE88A01F01D
:103F100067FE30BDC89D00200646B146282000F04F
:103F200033FA5C490860092000F02EFA8046182018
:103F300000F02AFA0746002507E005EB450040445B
:103F400007EBC5014860681CC5B2032DF5DB0321F2
:103F5000384603F0EBFE01F001FC03F0FFFF03F035
:103F6000F3FF002003F040F90120FFF7BFFF01F04D
:103F7000EBFB4846FFF74AFF8BE0FFF7FFFC0068CA
:103F800044490968486143490968C868FFF762FA0B
:103F900040490968C868FFF789FF3E490968C87148
:103FA0000020FFF77BFD0446282C25D13948006806
:103FB000C079401E374909688A7936490968491C21
:103FC000895C884210DD3348006881793148006897
:103FD000401C405C401CC1B22E48006882792D48CC
:103FE0000068401C815407E000212A48006882795B
:103FF00028480068401C8154262C24D1254800689C
:10400000817924480068401C405C80B121480068E8
:10401000817920480068401C405C401EC1B21D48A8
:10402000006882791B480068401C81540BE01948E5
:104030000068C079401EC1B21648006882791548F0
:104040000068401C8154272C0FD112490968CA68A6
:10405000104909688B790F490968491CC95C01EB53
:10406000410102EB8100FFF719FB252C07D100214C
:1040700008480068827907480068401C8154054858
:104080000068007840F0020002490968087003F0F7
:10409000F3F872E7F800002038B5044604B938BDDB
:1040A000154DAB8B154D2D682A8C144D2D68E98B61
:1040B000124D2D68A88BFEF7DDFD0F48808BF02395
:1040C0004FF4A07200210090084601F0AFFC0A49AD
:1040D000C87F01F095FD0420009008480068C38B5C
:1040E00006480068028C0021084601F051FE204677
:1040F00000F024FB00BFD2E7C89D0020F80000209C
:104100002DE9FC4706460D463046FFF7DBFE00244E
:1041100099E00020FFF7EAFE1E20DFF8D4C1CDE9C8
:104120000004DCF800C0BCF81EC0CCF1F00808EBBD
:10413000D87CDFF8BC91D9F80090B9F81E9009EB53
:104140006C0C0CF10A0C1FFA8CF3DFF8A4C1DCF83C
:1041500000C0BCF81EC0CCF1F00707EBD77CDFF83D
:104160009091D9F80090B9F81E9009EB6C0C1FFAE9
:104170008CF1DFF87CC1DCF800C0BCF820C0ACF1E9
:10418000020C1FFA8CF2DFF868C1DCF800C0BCF842
:104190001CC00CF1010C1FFA8CF0FFF727FB5549EE
:1041A000887F01F02DFD04EB840080011E2190FB2F
:1041B000F1F028301FFA80F8012000904C48006888
:1041C000C08BC0F1F00707EBD770494A1268D28B59
:1041D00002EB60000A3081B2F0234246002001F079
:1041E000D7FD0020FFF782FE2046FCF72DFA82461D
:1041F0004149FCF722F881464049FCF754F88046D3
:10420000FCF75EFAC7B239463DA000F097FA28469F
:1042100003F0BCFD0120FFF769FE2046FCF714FA0D
:1042200082463549FCF709F807463449FCF73BF864
:104230008146FCF745FA00F0FF08414630A000F047
:104240007DFA601CC4B21E2CFFF663AF03F0F0FBD6
:10425000B0F80C90DFF898C0CDF80090DCF800C002
:10426000BCF81EC0CCF1F00707EBD77CDFF880A0CC
:10427000DAF800A0BAF81EA00AEB6C0C0CF10A0CDC
:104280001FFA8CF3DFF868C0DCF800C0BCF81EC071
:10429000CCF1F00808EBD87CDFF854A0DAF800A0E5
:1042A000BAF81EA00AEB6C0C1FFA8CF1DFF840C0C4
:1042B000DCF800C0BCF820C0ACF1020C1FFA8CF294
:1042C000DFF82CC0DCF800C0BCF81CC00CF1010CFD
:1042D0001FFA8CF001F02AFCFF20054909680870DC
:1042E00003490968C868FFF7B5F8BDE8FC87000016
:1042F000F8000020C89D00200000C8420000F041E6
:10430000256425252000000000BFFEE72DE9F041CF
:1043100004460D46284600F037F80646A4F1080783
:10432000B888083882B231462046FCF7D8FB2046D0
:1043300000F004F83046BDE8F081000002460A4B68
:104340001868002106E0A2F10803834200D107E0CB
:10435000014600680368002BF5D101B10B6070477E
:1043600003680B6000BFFAE7700000200549086091
:104370000021044A126811600821024A1268516043
:10438000704700007000002010B503461048016817
:1043900003F1080083B20FE00868401A4C68001B64
:1043A000984208D3486842185360086810600A6051
:1043B00002F1080010BD096808680028ECD14868BF
:1043C00042180020106053600A6002F10800F1E713
:1043D000700000202DE9F0410446E078851D281F7B
:1043E00081B2A01C03F0D0FA0646A91E08190021CC
:1043F000FDF788FF0746B74202D10120BDE8F081F2
:104400000020FBE77047000070B5002100230F2259
:10441000C4780CB3164C246804F4E064C4F5E0647A
:10442000210AC1F10403CA40447804FA03F18478F4
:104430001440214309010F4C0678A155047804F07B
:104440001F050124AC4005786D114FF0E02606EB06
:104450008505C5F8004109E0047804F01F05012432
:10446000AC40054D0678761145F8264070BD000039
:104470000CED00E000E400E080E100E002490143CF
:10448000024A1160704700000000FA050CED00E0E0
:104490002DE9FE43002600270025F020FFF774FFDA
:1044A000804601F051F93EE00027294622A000F0A5
:1044B0006FF9002620E038467A1C97B2C0EB001056
:1044C000000105EB8502D200C2EB021200EB0211E3
:1044D000F022404600F044FD4FF4FC601F21CA0268
:1044E0000023CDE9002102903246F0214046FDF73D
:1044F0003FF806F1080086B2B6F5A07FDBDB0020AE
:10450000FFF7CCFA0446252C03D1002D01DD681EEF
:1045100085B2272C01D1681C85B2282C00D103E07C
:10452000262C00D100E0BFE700BF4046FFF706FFA2
:1045300002F016FFBDE8FE8350616765496E646551
:10454000785B25645D205570446F776E457869749B
:104550000000000010B5044624B180210448FDF796
:1045600002FB03E080210248FDF7FBFA10BD0000CA
:104570000008014010B5044624B120210448FDF78D
:10458000F2FA03E020210248FDF7EBFA10BD00002B
:104590000008014010B504210148FDF7D9FA10BD0B
:1045A0000014014010B54FF400710248FDF7D0FA35
:1045B00010BD00000010014010B5044624B1802158
:1045C0000448FDF7D0FA03E080210248FDF7C9FA5C
:1045D00010BD00000010014010B504462CB14FF48E
:1045E00080410548FDF7BFFA04E04FF480410248DE
:1045F000FDF7B7FA10BD0000000C01402DE9F047AF
:1046000088B004460F461C22484901A8FBF79CFDD0
:1046100047480068408C6188401A062190FBF1F001
:1046200000F0FF084349887F01F0EAFA00254BE0DB
:10463000AF4204D103F0FCF90121417003E003F023
:10464000F7F9002141700420DFF8E4C00090DCF8A5
:1046500000C0BCF81E9005F1010C0CFB089C1FFA71
:104660008CF3DFF8CCC0DCF800C0BCF81EC005FB42
:1046700008CC1FFA8CF1DFF8B8C0DCF800C0BCF839
:104680002020DFF8ACC0DCF800C0BCF820C0ACF1E2
:10469000640C1FFA8CF001F07BFBE07E042801D152
:1046A000012000E000200DB9012100E000210842B6
:1046B00003D0079800F042F804E001A951F8250062
:1046C00000F03CF8681CC5B2062DB1DB03F0B0F970
:1046D000818903F0ADF9C089814203D103F0A8F9C3
:1046E000868901E01348868B0096B4F802C094F8DE
:1046F000059094F806A009FB0ACC1FFA8CF309FB7D
:104700000AFC0CF1030C1FFA8CF2B4F802C0ACF1F5
:10471000030C1FFA8CF1B4F800C0ACF1020C1FFAC4
:104720008CF001F083F908B0BDE8F0870CBC0108FB
:10473000F8000020C89D0020704700000FB410B59D
:10474000C4B047A8439003A8439A469904F0DEFCFE
:104750000E48006880780D490968097D03AA0B4C52
:10476000CDE90021029024686389084C24682289DD
:10477000064C2468E188054C2468A08801F04EF8B6
:104780000020439044B010BC5DF814FBD40000201E
:104790000FB400B58FB011A80E9001A80E9A109911
:1047A00004F0B4FC4FF47A7101A800F085F8002001
:1047B0000E9001200FB05DF814FB00002DE9FC47BE
:1047C00007460D461646394991F8200001F018FABF
:1047D00003F028F940786843C0F5A07101EBD1706F
:1047E000C0F34F0801242DE003F01CF94178601C50
:1047F00000FB01801FFA80F903F014F9407804FBF4
:1048000000801FFA80FA0320F0234A46002100901E
:10481000504601F0BDFA601E385C8DF8040000209F
:104820008DF80500B44204D103F002F90121417072
:1048300003E003F0FDF80021417001A8FFF77EFFBF
:10484000601CC4B2681EA042CEDC0320F0234FF4EB
:104850009F7200210090084601F09AFA26B903F0F1
:10486000E7F80121417003E003F0E2F80021417014
:104870000FA0FFF763FF0520F0234FF49F72002184
:104880000090084601F084FA681EB04204D103F09B
:10489000CFF80121417003E003F0CAF80021417014
:1048A00004A0FFF74BFFBDE8FC870000C89D002077
:1048B0004E6F00005965730038B505460C4615A0CB
:1048C000FFF700FB154991F8200001F099F9042049
:1048D000F0234FF4A07200210090084601F058FA2E
:1048E0000020FFF703FB2846FFF728FF204603F0D0
:1048F0004DFA0120FFF7FAFA2846FFF71FFFFF20C5
:1049000007490968087006490968C868FEF7A2FDEA
:10491000012038BD496E666F72000000C89D0020FE
:10492000F80000202DE9FF5F0546894617461E4620
:104930004FF00108002003904E4991F8200001F04B
:104940005FF903F06FF8407800FB09F0C0F5A07143
:1049500001EBD170C0F34F0A012454E0B04504D1FB
:1049600003F066F80121417003E003F061F80021D3
:10497000417003F057F84178601C00FB01A01FFA5A
:1049800080FB03F04FF8407804FB00A080B2019058
:104990000320F0235A4600210090019801F0F8F915
:1049A000601E285C802810DD601E285C8DF80800E1
:1049B000285D8DF8090000208DF80A00A01CC4B203
:1049C00008F1010000F0FF080CE0601E285C8DF883
:1049D000080000208DF80900601CC4B208F1010035
:1049E00000F0FF089DF8080008B901200390039823
:1049F000012805D120208DF8080000208DF809003D
:104A000002A8FFF79BFE781EA042A7DC0320F0233C
:104A10004FF49F7200210090084601F0B9F926B9C1
:104A200003F006F80121417003E003F001F80021D2
:104A3000417011A0FFF782FE0520F0234FF49F7212
:104A400000210090084601F0A3F9781EB04204D17D
:104A500002F0EEFF0121417003E002F0E9FF0021C6
:104A6000417006A0FFF76AFE02F0E2FF00214170EC
:104A7000BDE8FF9FC89D00204E6F00005965730080
:104A800038B505462846FFF71DFA1D4991F8200064
:104A900001F0B6F81CE00020FFF728FA0420F0230C
:104AA0004FF4A07200210090084601F071F902F065
:104AB000BFFF0121417013A0FFF740FE0020FEF769
:104AC000EDFF0446262C00D103E0282C00D100E0A5
:104AD000E1E700BF0120FFF709FA0420F0234FF4BB
:104AE000A07200210090084601F052F902F0A0FFE8
:104AF0000021417003A0FFF721FE012038BD000016
:104B0000C89D00204F6B0000F8B507460025002621
:104B10003846FFF7D7F9224991F8200001F070F8E4
:104B200035E03046FFF7E2F90320F0231A46002172
:104B30000090502001F02CF902F07AFF457019A086
:104B4000FFF7FCFD0520F0231A46002100905020BD
:104B500001F01EF902F06CFF0DB9012100E0002107
:104B6000417011A0FFF7EAFD06B111E01EB9002067
:104B7000FEF794FF0446262C00D10126282C00D1F4
:104B80000126252C00D10125272C00D10025C8E7BE
:104B900000BF02F04DFF002141702846F8BD000023
:104BA000C89D00204F6B00004E6F00002DE9FE43B2
:104BB000002600270025F020FFF7E6FB804600F0E6
:104BC000C3FD40E00027294623A0FFF7E1FD0026B2
:104BD00023E039467A1C97B2C1EB01114FF0007205
:104BE00002EB011105EB8502D200C2EB021201EBD0
:104BF0000210F0224146FCF76DFE4FF4FC601F21CD
:104C0000CA020023CDE9002102903246F02140463D
:104C1000FCF7AEFC06F1080086B2022ED9DB0020BC
:104C2000FEF73CFF0446252C03D1002D01DD681E54
:104C300085B2272C01D1681C85B2282C00D103E055
:104C4000262C00D100E0BDE700BF4046FFF776FB11
:104C500002F086FBBDE8FE8350616765496E6465BE
:104C6000785B25645D205570446F776E4578697474
:104C70000000000029B1064A52690243044B5A6100
:104C800004E0034A52698243014B5A6170470000B5
:104C90000010024029B1064AD2690243044BDA618E
:104CA00004E0034AD2698243014BDA617047000095
:104CB0000010024029B1064A92690243044B9A61EE
:104CC00004E0034A92698243014B9A6170470000F5
:104CD0000010024030B500210022002400232D4D99
:104CE0006D6805F00C0121B1042905D0082923D1F4
:104CF00005E0294D056022E0274D05601FE0254DA8
:104D00006D6805F47012234D6D6805F4803402253A
:104D100005EB92421CB9214D554305600BE01D4D3A
:104D20006D6815F4003F03D01C4D5543056002E04B
:104D3000194D5543056002E0174D056000BF00BFE7
:104D4000144D6D6805F0F0010909154D6B5C05689F
:104D5000DD4045600F4D6D6805F4E061090A104DB6
:104D60006B5C4568DD4085600A4D6D6805F46051F7
:104D7000C90A0B4D6B5C4568DD40C560054D6D682B
:104D800005F44041890B074D6B5CC568B5FBF3F535
:104D9000056130BD0010024000127A0000093D009C
:104DA00000000020100000202DE9FE43002600270F
:104DB0000025F020FFF7E8FA804600F0C5FC41E04E
:104DC0000027294624A0FFF7E3FC002623E039460C
:104DD0007A1C97B2C1EB01114FF0006202EB011196
:104DE00005EB8502D200C2EB021201EB0210F022A9
:104DF0004146FCF76FFD4FF4FC601F21CA020023FF
:104E0000CDE9002102903246F0214046FCF7B0FB8C
:104E100006F1080086B2B6F5A07FD8DB0020FEF7C9
:104E20003DFE0446252C03D1002D01DD681E85B210
:104E3000272C01D1681C85B2282C00D103E0262C38
:104E400000D100E0BCE700BF4046FFF777FA02F070
:104E500087FABDE8FE83000050616765496E6465AE
:104E6000785B25645D205570446F776E4578697472
:104E70000000000010B5044600BF02210A4800F0FF
:104E8000F9F90028F9D02146074800F0FFF900BFE2
:104E90000121054800F0EEF90028F9D0024800F0A1
:104EA000F2F9C0B210BD00000030014021B102880B
:104EB00042F04002028004E002884FF6BF731A40BD
:104EC0000280704700B587B0012141F20400FFF76E
:104ED000F1FEE020ADF8180001208DF81A0018202E
:104EE0008DF81B0006A91C48FCF766FD1020ADF8E4
:104EF000180001208DF81A0010208DF81B0006A95B
:104F00001548FCF759FD10211348FCF72CFE002032
:104F1000ADF804004FF48270ADF806000020ADF843
:104F20000800ADF80A00ADF80C004FF40070ADF8C1
:104F30000E001020ADF810000020ADF81200072080
:104F4000ADF8140001A9054800F0A2F901210348B9
:104F5000FFF7ACFF07B000BD000801400030014082
:104F600070B505460C46164610211048FCF7F9FDB1
:104F7000032000F03BF9C4F3074000F037F9C4F315
:104F8000072000F033F9E0B200F030F904E0FF2030
:104F900000F02CF928706D1C3000A6F101018EB2D2
:104FA000F5D110210148FCF7DEFD70BD000801407D
:104FB0002DE9F05F07460E4614464FF00008C14643
:104FC000C2460025AB4606F0FF0ACAF10000C5B292
:104FD0002046E11704EB1151C1F30738E11704EB48
:104FE00011510913A4EB013101F0FF09BAF1000FCF
:104FF00020D1B8F1000F05D122463146384600F0E5
:10500000C5F864E009E04FF480523146384600F0BC
:10501000BDF806F5805607F580575FEA0800A8F14D
:10502000010101F0FF08EED14A463146384600F052
:10503000ADF84CE0B8F1000F18D1A94510DDA9EB8F
:10504000050000F0FF0B2A463146384600F09EF876
:105050002E442F445A463146384600F097F836E041
:1050600022463146384600F091F830E0601B84B2A9
:105070002046E11704EB11514FEA2138E11704EB08
:1050800011510913A4EB013101F0FF092A46314601
:10509000384600F07BF82E442F4409E04FF480524C
:1050A0003146384600F072F806F5805607F580570D
:1050B0005FEA0800A8F1010101F0FF08EED1B9F1A3
:1050C000000F04D04A463146384600F05FF8BDE88C
:1050D000F09F000000B587B001212420FFF7EAFD12
:1050E00001210803FFF7E6FD2020ADF804000320AE
:1050F0008DF8060018208DF8070001A92148FCF75B
:105100005BFC4020ADF8040001A91E48FCF754FCEC
:105110008020ADF8040001A91A48FCF74DFC1020CE
:10512000ADF804008DF8070001A91648FCF744FC0F
:1051300010211448FCF717FD0020ADF808004FF4CB
:105140008270ADF80A000020ADF80C000220ADF826
:105150000E000120ADF810004002ADF8120038201A
:10516000ADF814000020ADF816000720ADF81800C7
:1051700002A9054800F08CF801210348FFF796FECC
:1051800007B000BD000801400030014070B5054681
:105190000C46164600F05EF810211348FCF7E1FCBF
:1051A000022000F023F8C4F3074000F01FF8C4F316
:1051B000072000F01BF8E0B200F018F8B6F5805FA9
:1051C00001DD4FF4805603E0287800F00FF86D1CE5
:1051D0003000A6F101018EB2F6D110210248FCF791
:1051E000C2FC00F01FF870BD0008014010B5044675
:1051F00000BF02210A4800F03DF80028F9D02146FE
:10520000074800F043F800BF0121054800F032F8DC
:105210000028F9D0024800F036F8C0B210BD0000F6
:105220000030014010B5002410210948FCF799FC1A
:105230000520FFF7DBFF00BFFF20FFF7D7FF044685
:1052400014F0010FF8D110210148FCF78CFC10BDBF
:105250000008014010B510210548FCF782FC06202B
:10526000FFF7C4FF10210248FCF77DFC10BD0000D1
:10527000000801400246002013890B4201D00120A2
:1052800000E000207047014688897047818170479F
:1052900010B5002202880D4B1A400B884C8823431E
:1052A0008C882343CC8823430C8923434C89234394
:1052B0008C892343CC8923431A430280838B4FF28A
:1052C000FF74234083830B8A038210BDFFFEF0FF2F
:1052D0007047000070B504460D462B462246024931
:1052E000024800F005F870BD00F80708F118000842
:1052F0002DE9F0478046894614461F4625462E462E
:105300003088001F81B2201D02F03EFB7080328881
:1053100009EBC7202946C047BDE8F08710B52A230E
:105320004FF0C044238003120C4C2380C3B223806F
:10533000012323803F2323802B235C0723800B1230
:10534000064C2380CBB2238000232380EF232380CD
:105350002C23DC062380014B1A8010BD0000026064
:1053600010B500F001F810BD0CB5002001900090C0
:105370003248006840F480303049086000BF2F4850
:10538000006800F4003000900198401C01900098E3
:1053900018B90198B0F5A06FF1D12848006810F451
:1053A000003F02D00120009001E000200090009812
:1053B000012842D12248006840F0100020490860CE
:1053C0000846006820F0030008600846006840F0C6
:1053D000020008601948406818494860084640685B
:1053E00048600846406840F480604860084640686D
:1053F00020F47C1048600846406840F4E81048609B
:105400000846006840F08070086000BF0B480068E4
:1054100010F0007FFAD00948406820F003000749E7
:1054200048600846406840F00200486000BF0348FA
:10543000406800F00C000828F9D10CBD00100240B3
:105440000020024030B52A244FF0C0452C800412C1
:105450000B4D2C80C4B22C8014122C80D4B22C8022
:105460002B2465072C800C12054D2C80CCB22C808F
:105470001C122C80DCB22C802C24E5062C8030BD44
:105480000000026000B5014611B101296AD14CE06B
:105490001420FBF7BBFD3620020710801420FBF719
:1054A000B5FD6820304A10801420FBF7AFFD2A209C
:1054B0004FF0C04210801420FBF7A8FD00202A4ABC
:1054C00010801420FBF7A2FD0020274A1080142032
:1054D000FBF79CFD0120244A10801420FBF796FD69
:1054E0003F20214A10801420FBF790FD2B2042071B
:1054F00010801420FBF78AFD00201B4A1080142026
:10550000FBF784FD0020184A10801420FBF77EFD75
:105510000020154A10801420FBF778FDEF20124A76
:1055200010801420FBF772FD1CE03620020710806B
:1055300048200D4A10802A204FF0C04210800020E1
:10554000094A108010801080EF2010802B20420725
:1055500010800020044A10801080012010803F201D
:10556000108000BF00BF00BD0000026030B50346E0
:105570000C4600201946224605E011F8015B02F8AE
:10558000015B451CA8B20D78002DF6D1157030BD19
:105590002DE9F04106460D462C4637462846FCF7D5
:1055A00095FE04443046FCF791FE804618F1010058
:1055B00001D1BDE8F08103E017F8010B04F8010BFD
:1055C0005FEA0800A8F10108F6D104F8010B00BF5A
:1055D000EFE710B50346184604E004788C4200D18A
:1055E0000270401C0478002CF7D110BD30B5014684
:1055F00000230022002027E00C78302C01DB01245E
:1056000000E000240D78392D01DC012500E00025A3
:105610002C4209D002EB82044FF6FF7505EA4402E2
:105620000C78303C1444A2B20C782E2C05D1000228
:10563000FF2A00DDFF2210430022491C1C465D1C8E
:10564000EBB20F2C00DD02E00C78002CD4D100BFAF
:105650000002104330BD10B502F0A6FA10BD0000E4
:1056600030B51249B1F1807F00D31DE021F07F40B9
:10567000401E4FF0E022506150170F22002807DA39
:1056800013071D0E0A4B00F00F04241F1D5503E0E5
:1056900013071C0E074B1C5400BF00204FF0E022E4
:1056A00090610720106100BF30BD0000401901006B
:1056B00018ED00E000E400E010B51348006840F089
:1056C00001001149086008464068104908400E4929
:1056D0004860084600680E4908400B4908600846C3
:1056E000006820F4802008600846406820F4FE002E
:1056F00048604FF41F008860FFF732FE4FF00060F3
:105700000449086010BD0000001002400000FFF8CE
:10571000FFFFF6FE08ED00E008B501461F2000EA95
:10572000E1208DF800003F2000EA61108DF80100B3
:1057300001F01F008DF80200BDF8002010469DF812
:10574000022040EA024008BD00B503490968888983
:10575000FCF7ECFD00BD0000D40000200348044924
:10576000086004480449086070470000949D0020C8
:10577000D4000020AC9D0020D80000202DE9FE4F71
:1057800004460F469046A8F120052248006800799B
:10579000454320480068806805441E4909684978E7
:1057A000081DC11700EB51714FEAE10B00262CE0F8
:1057B000194800684078012808D117480068B0F8F7
:1057C000109015480068B0F80EA007E01248006875
:1057D000B0F80E9010480068B0F80CA00E480068B1
:1057E000408A0C4ACDE9009A029012681178094A61
:1057F0001268127806FB02503B462246FBF7B8FEC1
:1058000004F1080084B2701CC6B25E45D0DBBDE86E
:10581000FE8F0000D8000020D40000202DE9FE4FAC
:1058200005460E4617469846DDF830A00120009048
:10583000A81C85B2B81E87B200200290834650464D
:1058400000F088F9044614F4004F06D0C4F30E04A7
:105850007448006890F8029003E07248006890F87D
:1058600000900D98092872D2DFE800F0050C18208E
:105870002E4150596700681C80B20290701C1FFABC
:1058800080FB64E0791B081B00EBD07105EB610124
:1058900089B20291701C1FFA80FB58E0381B401E31
:1058A00080B20290701C1FFA80FB50E0681C80B22E
:1058B0000290A8EB0601A1EB090000EBD07106EB0A
:1058C00061011FFA81FB42E0791B081B00EBD071DC
:1058D00005EB610189B20291A8EB0601A1EB090079
:1058E00000EBD07106EB61011FFA81FB2FE0381B42
:1058F000401E80B20290A8EB0601A1EB090000EB6C
:10590000D07106EB61011FFA81FB20E0681C80B2B8
:105910000290A8EB0B00401E1FFA80FB17E0791BDA
:10592000081B00EBD07105EB610189B20291A8EB75
:105930000B00401E1FFA80FB09E0381B401E80B29E
:105940000290A8EB0B00401E1FFA80FB00BF00BFB7
:1059500061E01AF8014B802C17DD4FF6FF7000EA6A
:1059600004249AF8000004430AF1010A2D48006853
:10597000C078019022465946029800F07DF8DDE992
:105980000110084480B2029021E00A2C0FD1029548
:105990000BEB09001FFA80FB23480068858822482A
:1059A0000068C088484420490968C8800FE00D2C71
:1059B0000DD01C4800684078019022465946029854
:1059C000FFF7DCFEDDE90110084480B202909AF88E
:1059D0000040802C07DD13480068C1780298084415
:1059E00080B2019006E00F480068417802980844B0
:1059F00080B201900198B8420DDD02950BEB0900D1
:105A00001FFA80FBC34501DDBDE8FE8F0098401CF6
:105A1000C0B2009000BF9AF80000002899DC00BFD7
:105A2000F2E70000D8000020D40000202DE9F0416A
:105A300006460F4614461D46DDF81880A01B82B2AC
:105A4000434639463046FDF715F9A01B82B243465E
:105A500029463046FDF70EF9E81B82B24346394627
:105A60003046FDF71AF9E81B82B243463946204614
:105A7000FDF713F9BDE8F0812DE9FE4705460F4615
:105A80009046404600F082F8064626480068C088E6
:105A9000464324480068C0680644224A1268D17808
:105AA000CA1701EB5272D2101E4B1B68D878C3176D
:105AB00000EB5373DB10B0EBC30301D0012300E014
:105AC00000231A441FFA82F9002427E016480068D0
:105AD0004078012804D114480068B0F810A003E011
:105AE00011480068B0F80EA00F480068418A0E48BF
:105AF000006880890B4ACDE900A002911268917874
:105B0000084A1268927804FB02603B462A46FBF77B
:105B10002FFD05F1080085B2601C84B24C45D5DB31
:105B2000BDE8FE87D8000020D40000202DE9F84110
:105B300005460E4617461C46DDF81C80601C83B2E5
:105B40003A4631462846CDF80080FBF7A3FEBDE873
:105B5000F88100000146002011E011F8013B802B84
:105B600008DD491C084A1268D278024490B240F419
:105B7000004004E0044A12685278024490B20A7865
:105B8000002AEADC70470000D800002010B5034668
:105B9000002100BF1AE0114800680069425C4FF61E
:105BA000FF7000EA02220D4800680469481C205C6E
:105BB000104482B2934205D10C4601EBD470C0F37D
:105BC0004F0010BD481C81B2481C81B203480068D8
:105BD000808A8842DFDC0020F3E70000D800002044
:105BE00010B5064C2468E081044C2468A281034C63
:105BF00024682182014C2468638210BDD4000020F7
:105C000010B50446124800680470072C1DD2DFE866
:105C100004F01C04080C101418000E4800F02CF8B6
:105C200013E00D4800F028F80FE00C4800F024F8CD
:105C30000BE00B4800F020F807E00A4800F01CF8E1
:105C400003E0094800F018F800BF00BF10BD0000D5
:105C5000D400002068AD00087CAD000890AD0008BD
:105C6000A4AD0008B8AD0008CCAD00080149096832
:105C700088707047D400002010B50446434800687F
:105C8000846142480068806940784049096808702A
:105C90003E480068806900783C49096848703B4884
:105CA0000068806940783949096888703748006819
:105CB000806900784006000E34490968C870334A8C
:105CC00012685178CA1701EB5272D2102F4B1B6821
:105CD0005878C31700EB5373DB10B0EBC30301D04C
:105CE000012300E000231A44284B1B689B695B7862
:105CF0005A43264B1B681A71244A1268D178CA1776
:105D000001EB5272D210214B1B68D878C31700EBFD
:105D10005373DB10B0EBC30301D0012300E0002379
:105D20001A441A4B1B689B695B785A43174B1B68D4
:105D3000DA801648006880694068144909688860FC
:105D4000124800688069C06810490968C8600F4837
:105D50000068806900690D49096808610B49096894
:105D60000869FBF702FF094909688882074800684B
:105D70008069806840B10549096889698868FCF7CD
:105D8000A5FA02490968C88210BD0000D8000020A9
:105D900030B5039C074D2D68A880064D2D68E9801D
:105DA000044D2D682A81034D2D686B81014D2D68AE
:105DB000AC8230BDD40000202DE9FF4FA3B00F46C8
:105DC0000125002009900890079006900590049006
:105DD0008046D3E10998FAF787FC00221346CDE903
:105DE0000001FAF7A0FACDE90201FAF790FC099058
:105DF0000898FAF779FC00221346CDE90001FAF77A
:105E000092FACDE90201FAF782FC08900798FAF7B6
:105E10006BFC00221346CDE90001FAF784FACDE9C4
:105E20000201FAF774FC07904DB30698FAF75CFC90
:105E3000D64AD74BCDE90001FAF775FACDE9020150
:105E4000FAF765FC06900598FAF74EFCCF4AD04B5E
:105E5000CDE90001FAF767FACDE90201FAF757FC3C
:105E600005900498FAF740FCC84AC94BCDE90001F7
:105E7000FAF759FACDE90201FAF749FC04900698BD
:105E8000FAF732FCCDE9000104F008FECDE9020189
:105E9000FAF73DFC0E900698FAF726FCCDE90001D2
:105EA00004F03EF9CDE90201FAF731FC0D900598B6
:105EB000FAF71AFCCDE9000104F0F0FDCDE902018A
:105EC000FAF725FC0C900598FAF70EFCCDE90001D5
:105ED00004F026F9CDE90201FAF719FC834604988B
:105EE000FAF702FCCDE9000104F0D8FDCDE902018A
:105EF000FAF70DFC0B900498FAF7F6FBCDE90001D8
:105F000004F00EF9CDE90201FAF701FC064600247F
:105F1000B6E0A04931F91400FAF78DFB11909E49C3
:105F200031F91400FAF787FB10909C4931F91400FD
:105F3000FAF781FB0F90DDE90E10FAF77EF9039076
:105F40000D991098FAF779F902900399FAF76FF919
:105F500082460D990F98FAF770F903900E991098F0
:105F6000FAF76BF902900399FAF70FF91290CDF84E
:105F700040A012980F900C990F98FAF75EF95946C5
:105F800003901198FAF759F902900399FAF74FF92B
:105F9000814659460F98FAF750F903900C991198D9
:105FA000FAF74BF902900399FAF7EFF81290CDF84F
:105FB000449012980F900B991098FAF73EF93146D9
:105FC00003901198FAF739F902900399FAF72FF92B
:105FD000814631461098FAF730F903900B991198E1
:105FE000FAF72BF902900399FAF7CFF88246CDF829
:105FF0004490CDF840A009991198FAF7C6F811908D
:1060000008991098FAF7C1F810902598FAF71CFB38
:1060100002900F99FAF7B9F803900799FAF707F980
:106020000F902398FAF710FB4FF0854102901198DA
:10603000FAF703F900900F99FAF735F901900299F0
:10604000FAF7A3F80390FAF722FB1BA941F8240002
:106050003846FAF7F9FA4FF0854102901098FAF7AE
:10606000ECF800900F99FAF71EF901900299FAF7EF
:106070008CF80390FAF70BFB13A941F82400641C79
:10608000082CFFF646AF00246BE0454931F91410A7
:10609000481EFAF7D0FA0A900A98FAF7F8FA1BA9FC
:1060A00051F820003F4908600A98FAF7F0FA13A95E
:1060B00051F820003C4908603C4931F91410481E51
:1060C000FAF7B9FA0A900A98FAF7E1FA1BA951F817
:1060D0002000374908600A98FAF7D9FA13A951F84D
:1060E000200034490860EDB133480068C0898C460F
:1060F0000090BCF800C01FFA8CF3DFF8B4C0BCF805
:1061000000C01FFA8CF2DFF8A0C0BCF800C01FFA74
:106110008CF1DFF890C0BCF800C01FFA8CF000F0E2
:106120004DF81DE0244800688089DFF888C00090A1
:10613000BCF800C01FFA8CF3DFF874C0BCF800C0D4
:106140001FFA8CF2DFF860C0BCF800C01FFA8CF1B7
:10615000DFF850C0BCF800C01FFA8CF000F02EF839
:10616000641C0C2C91DB15B1269801F00FFE0DB9C3
:10617000012000E00020054608F10108B8F1C90F30
:106180007FF728AE27B0BDE8F08F00009A99999963
:106190009999B93FF0290108002A0108102A01083D
:1061A000202A0108E0000020E4000020382A01082D
:1061B000E8000020EC000020D40000202DE9F04F82
:1061C0000746884691469A46DDF824B0A9EB0706B3
:1061D000AAEB0805002E66DB002D31DBAE4217DB93
:1061E000304606EBD071A5EB61040EE05A464146FD
:1061F0003846FFF793F8002C04DD08F101001FFA80
:1062000080F8A41B781C87B22C444F45EEDDB1E02A
:10621000284605EBD071A6EB61040EE05A464146D4
:106220003846FFF77BF8002C02DD781C87B2641B30
:1062300008F101001FFA80F83444D045EEDD99E002
:106240006D42AE4217DB304606EBD071A5EB610420
:106250000EE05A4641463846FFF760F8002C04DD50
:10626000A8F101001FFA80F8A41B781C87B22C4407
:106270004F45EEDD7EE0284605EBD071A6EB6104CC
:106280000EE05A4641463846FFF748F8002C02DD3A
:10629000781C87B2641BA8F101001FFA80F834440F
:1062A000D045EEDA66E07642002D31DBAE4217DBF8
:1062B000304606EBD071A5EB61040EE05A4641462C
:1062C0003846FFF72BF8002C04DD08F101001FFA17
:1062D00080F8A41B781E87B22C444F45EEDA49E0C3
:1062E000284605EBD071A6EB61040EE05A46414604
:1062F0003846FFF713F8002C02DD781E87B2641BC6
:1063000008F101001FFA80F83444D045EEDD31E099
:106310006D42AE4217DB304606EBD071A5EB61044F
:106320000EE05A4641463846FEF7F8FF002C04DDE1
:10633000A8F101001FFA80F8A41B781E87B22C4434
:106340004F45EEDA16E0284605EBD071A6EB610466
:106350000EE05A4641463846FEF7E0FF002C02DDCB
:10636000781E87B2641BA8F101001FFA80F834443C
:10637000D045EEDABDE8F08FF0B58BB004460026CC
:1063800000270222002101A8FAF7BAFB002511E03C
:10639000A06830F81500A0F54071FF3908D0A0685A
:1063A00030F815203046711CCEB201A921F810201A
:1063B000681CC5B22079A842EADC2079801BC5B2EE
:1063C0000AE03846791CCFB201A931F81000A16863
:1063D00021F81500681CC5B22079A842F1DC207EA6
:1063E0002179891B08442076207E642804DDA07D65
:1063F000401CA075002121762079801B03D0062146
:10640000204600F0EBF80BB0F0BD000070B505467B
:106410000E46144614B1012C0ED106E00023074AA3
:1064200031462846FCF700FF06E00123034A3146C7
:106430002846FCF7F9FE00BF00BF70BD16B3010887
:10644000F0B504460F4617B1022F60D11AE00025BF
:1064500014E000260DE06288A37905FB032291B2C7
:10646000228806FB032290B20022FFF7CFFF701CA8
:1064700086B26079B042EEDC681C85B22079A84211
:10648000E7DC44E000253EE0A06830F81500E16854
:1064900031F81510884234D0002629E0A06830F881
:1064A00015100120B0400840E16831F815100122B4
:1064B000B2401140884219D0A36833F815304FF02C
:1064C000010C0CFA06FC13EA0C0F01D0012300E0CA
:1064D00000231A46638894F806C005FB0C3399B272
:1064E000238806FB0C3398B2FFF790FF701C86B22E
:1064F0006079B042D2DCA06830F81500E16821F87C
:106500001500681C85B22079A842BDDC00BF00BF21
:10651000F0BD000070B58EB0044638220F496846C1
:10652000F9F712FE2046E11704EB1171C1F30715CC
:10653000E11704EB11710911A4EB0111CEB2072D83
:1065400002DB00200EB070BD042E01DB0020F9E755
:10655000684600EBC50030F81600F3E7ACBB010855
:106560002DE9F05F04460F463846FFF7D3FF81461A
:106570006079A17948430A301FFA80FA6088401C8C
:106580001FFA80FB002624E04FEA29384FF6FF70FF
:1065900000EA0919002518E0C5F1020C012303FAED
:1065A0000CF303EA0803002B01DD012300E00023C4
:1065B0001A46A37903FB06B399B2A37903FB05A39B
:1065C00098B2FFF723FF681CC5B2032DE4DB701CF3
:1065D000C6B2042ED8DBBDE8F09F00002DE9F043E1
:1065E0008FB004460E461C229C4908A8F9F7ACFD62
:1065F00000200490059006900790984A1C32D2E93A
:1066000000109268CDE90202019195480068408C23
:106610006188401A062190FBF1F0C7B216F0010F15
:1066200054D09049887FFFF7EBFA00254CE0A07C1E
:10663000A84204D101F0FCF90121417003E001F00E
:10664000F7F9002141700320DFF814C20090DCF854
:1066500000C0BCF81E9005F1010C0CFB079C1FFA52
:106660008CF3DFF8FCC1DCF800C0BCF81EC005FBF1
:1066700007CC1FFA8CF1DFF8E8C1DCF800C0BCF8E9
:106680002020DFF8DCC1DCF800C0BCF820C0ACF191
:10669000640C1FFA8CF0FFF77BFBE07C042801D12F
:1066A000012000E000200DB9012100E00021084296
:1066B00003D00E98FEF742F804E008A951F825002F
:1066C000FEF73CF8681CC5B2062DB0DB16F0020FD1
:1066D0004ED063490968498C6288881AC11700EB5B
:1066E0009171C1F387070220FFF78AFA00253DE088
:1066F00001F09EF9002141700020DFF864C1009094
:10670000DCF800C0BCF81E9005F1020C0CFB079CE5
:106710001FFA8CF394F805C094F806900CFB09FC62
:106720000CF13C0C1FFA8CF2DFF834C1DCF800C02D
:10673000BCF81E9005F1010C0CFB079C1FFA8CF1B4
:1067400094F805C094F806900CFB09FC0CF1020CBF
:106750001FFA8CF0FFF71CFB04F11602515D01AA31
:1067600052F82500FDF7EAFF681CC5B2032DBFDB18
:1067700016F0040F6ED001F05BF9818901F058F931
:10678000C089814204D101F053F9B0F80C8002E0D5
:106790003448B0F81C80CDF80080637994F806C0C6
:1067A00003FB0CF334339AB2637903FB0CF39B1CA9
:1067B00098B263889B1E99B2F023FFF737F92279CC
:1067C000A37902FB03F94FEAE97209EB9272244BB9
:1067D0001B68DB8B03EBA202921C91B26279A37956
:1067E0005A43921C90B243463222FCF743FA227974
:1067F000A37902FB03F94FEAE97209EB9272921056
:10680000174B1B68DB8B03EB4202921C91B262793F
:10681000A3795A43921C90B243463222FCF72AFADB
:106820002279A37902FB03F94FEAE97209EB92722C
:10683000921002EB42020A4B1B68DB8B1A44921C3B
:1068400091B26279A3795A43921C90B243463222A4
:10685000FCF710FA0FB0BDE8F0830000E4BB0108BC
:10686000F8000020C89D00202DE9FF5F0E46174666
:1068700099464846FFF74EFE834600253FE04FEA23
:106880002B3A4FF6FF7000EA0B1B002433E0C4F1F3
:1068900003010120884010EA0A0F2AD00E9820B187
:1068A000012813D0022823D119E0E819C2B2301907
:1068B000C1B2FF23009800F04DF88046B8F1000FF8
:1068C00003D0404604B0BDE8F09F11E0E819C2B221
:1068D0003019C1B20123009800F03CF808E0E81933
:1068E000C2B23019C1B20023009800F033F800BFE3
:1068F00000BF601CC4B2042CC9DB681CC5B2042DE7
:10690000BDDB0020DEE710B50446207CF9F714FC5F
:10691000207C00F0F0006074F9F704FC6F2190FB1C
:10692000F1F201FB12002074207C00F0F0012046FF
:10693000FFF716FE10BD000010B50446002000F061
:1069400053FC22790248A168FAF7C9F810BD00008B
:10695000EE9D002030B504466079884201DCFF20BE
:1069600030BD2079904201DCFF20F9E74BB9A068E7
:1069700030F8120001258D40A843A56825F81200C3
:106980000AE0012B08D1A06830F8120001258D40E3
:106990002843A56825F81200A06830F812000125E8
:1069A0008D402840002801DD0120D9E70020D7E7ED
:1069B000F8B504460D46272D28D102200090637CAF
:1069C000627D217D2046FFF74FFF00200090637C11
:1069D000627D207D401CC1B22046FFF745FF68B9AB
:1069E00001200090637C627D207D401CC1B2204666
:1069F000FFF73AFF207D401C207507E00120009042
:106A0000637C627D217D2046FFF72EFF252D28D156
:106A100002200090637C627D217D2046FFF724FFE9
:106A200000200090637C627D207D401EC1B2204624
:106A3000FFF71AFF68B901200090637C627D207D1A
:106A4000401EC1B22046FFF70FFF207D401E20757B
:106A500007E001200090637C627D217D2046FFF7E6
:106A600003FF282D2DD102200090637C627D217DC3
:106A70002046FFF7F9FE00200090637C607D401CFB
:106A8000C2B2217D2046FFF7EFFE68B901200090D9
:106A9000637C607D401CC2B2217D2046FFF7E4FE8E
:106AA000607D401C60750CE001200090637C627D7D
:106AB000217D2046FFF7D8FE2046FFF75DFC012030
:106AC000F8BD262D33D1607CC11700EB117109117F
:106AD000A0EB0111CEB2701CC6B2042E00DB002662
:106AE000607C00F0F000064302200090637C627D31
:106AF000217D2046FFF7B8FE00200090627D217DB9
:106B000033462046FFF7B0FE48B901200090627D71
:106B1000217D33462046FFF7A7FE667407E001207B
:106B20000090637C627D217D2046FFF79DFE002062
:106B3000C6E700BF02E0642001F028F9FBE7054644
:106B40002C4605E0E388A28861882088FFF734F9A5
:106B5000F8E70000B2B000250AE005EB4500694601
:106B600001EB80001EA901EBC5014860681CC5B29D
:106B70000A2DF2DB0A211EA801F0D8F8104800788F
:106B8000104908701BE00A2001F000F901F0F0F94B
:106B90000646A6B174682079012804D0022805D0E1
:106BA00003280BD106E02068804707E0207A21689F
:106BB000884703E02168A068884700BF00BFE2E77C
:106BC000580000207800002010B5B4B0A1A0FDF757
:106BD00079F9A2480068808B801C80B2ADF804006F
:106BE0009E480068C08B801C80B2ADF80600112062
:106BF0008DF8080010208DF8090001208DF816008E
:106C00000B208DF80A0020A803902AA804900020E9
:106C10008DF815008DF814008DF8190001208DF8FD
:106C2000180064208DF817000020FDF75FF9FF21A0
:106C300001A8FAF783F8F6E09DF8160007286ED24F
:106C4000DFE800F0E70412135F6E9B0028220021AA
:106C500020A8F9F755FF2822FF212AA8F9F750FFAD
:106C600003208DF81600D5E0D4E0002101A8FAF742
:106C700065F80020FCF712FF0446262C0CD19DF885
:106C8000150018B905208DF8150005E09DF81500D0
:106C9000401EC0B28DF81500282C05D19DF81500B6
:106CA000401CC0B28DF815009DF81500062802DBC7
:106CB00000208DF81500232C05D105208DF8160035
:106CC00000208DF81500272C1AD19DF815000528F5
:106CD00002D100208DF816009DF8150010B904208F
:106CE0008DF816009DF81500012802D105208DF8B9
:106CF00016009DF81500022802D101A8FAF7BAF88B
:106D000088E00020FCF7CAFE0446214601A8FAF7F5
:106D1000BFF8232C02D106208DF816007AE078E027
:106D20002822002120A8F9F7EBFE2822FF212AA81B
:106D3000F9F7E6FE6422FF2107A8F9F7E1FE00203B
:106D40008DF81B008DF81A0004208DF81600002025
:106D50008DF815009DF8090000EBD07149108DF8F1
:106D60001A109DF8080000EBD07149108DF81A1028
:106D7000072101A8F9F7E2FF4CE0012101A8F9F78A
:106D8000DDFF0020FCF78AFE0446262C0CD19DF87E
:106D9000150018B905208DF8150005E09DF81500BF
:106DA000401EC0B28DF81500282C05D19DF81500A5
:106DB000401CC0B28DF815009DF81500062802DBB6
:106DC00000208DF81500232C05D104208DF8160025
:106DD00000208DF81500272C16D19DF815000528E8
:106DE00002D100208DF816009DF8150028B9042066
:106DF0008DF8160000208DF815009DF8150001286B
:106E000002D105208DF81600012101A8F9F796FF9F
:106E100000E000BF00BF012101A8F9F7C1FE022177
:106E200001A8F9F7BDFE9DF8160000287FF404AF15
:106E3000002101A8F9F7B4FEFF2101A8F9F740FFEE
:106E40000120FDF753F8FF2101A8F9F777FF34B0CF
:106E500010BD0000536E616B65000000F80000205B
:106E60001CB525E00A2000F091FF0022114601A880
:106E7000FBF738FD9DF80400D0B19DF8040010F038
:106E8000010F02D027208DF801009DF8040010F0BA
:106E9000020F02D028208DF801006B460322012149
:106EA0000448007801F0D0F84FF4967000F06EFFBF
:106EB000D8E700007E00002008B506463746384671
:106EC00001F03EFD044635E0012000F05FFF1A4965
:106ED00051F824004FF49671FAF76EF800234FF43E
:106EE00096721946384601F017FE0546124951F8C8
:106EF0002400FDF76FFAE8B104250F4850F824107C
:106F0000A81E085C012814D10B4850F82400405DED
:106F10008DF80100084850F82410681C085C8DF8B2
:106F200000006B46032201210448007801F08CF830
:106F300000BF00BFC8E70000180100207900002052
:106F4000FEB506460C46154600968DF8044002959F
:106F50006B460C2200210248007801F075F8FEBD56
:106F60007800002070B51C20FDF70EFA04469AA0A8
:106F7000FCF7A8FF9B480068808BC01C20809948C4
:106F80000068C08B001D60800820207160710120A6
:106F9000E0761720A0710020E07520760120607651
:106FA000A0760020FCF7A2FFFF212046FBF79CFF04
:106FB00030212046FDF7AAF9044680212046FDF73E
:106FC000A5F90446F4E0E07E012806D0022812D09C
:106FD000032876D0042875D1C5E008220021E01DE1
:106FE000F9F78EFD0822FF2104F10F00F9F788FD63
:106FF0000220E076D3E00020FCF750FD0546272D67
:107000000AD1E07D401CC0B2E0756179884203DBA3
:107010000320E07600202076252D13D1E07D002886
:1070200003DDE07D401EE0750CE06079401EE075F8
:10703000207E002803DD207E401E207602E020799D
:10704000401E2076282D11D1207E401CC0B2207613
:10705000217988420ADB00202076E07D401CC0B206
:10706000E0756179884201DB0020E075262D13D19F
:10707000207E002803DD207E401E20760CE0207953
:10708000401E2076E07D002803DDE07D401EE07597
:1070900002E06079401EE075232D1FD1217EE01DA6
:1070A000405CE27D0121914008420CD0217EE01D30
:1070B000405CE27D012191408843227EE11D88549D
:1070C0000CE00CE06AE0217EE01D405CE27D0121E5
:1070D00091400843C1B2227EE01D81545FE0217ED1
:1070E0002046FBF701FF0020FCF7D8FC0546262DC3
:1070F00007D1207E10B90520207602E0207E401EB8
:107100002076282D02D1207E401C2076207E062865
:1071100001DB00202076252D08D10220E07600201A
:10712000E0752076FF212046FBF7DEFE272D19D1E2
:10713000207E052801D10020E076207E08B90420B9
:10714000E076207E012802D12046FCF707F8207E59
:10715000022802D12046FBF7F3FF207E042801D14C
:107160000120E0761BE01DB1217E2046FBF7BCFE2E
:107170006379227904F10F01E01DFBF753FF08B991
:107180000320E076782000F001FE0120FCF786FC69
:107190000546272D01D10320E07600E000BF00BFA7
:1071A00001212046FBF7F4FD02212046FBF7F0FD0C
:1071B000E07E00287FF407AF00212046FBF7E8FDC2
:1071C0000120FCF793FEFF212046FBF78DFE2046B1
:1071D000FDF7B4F870BD00004C69666520506C6125
:1071E00079000000F800002010B50446002109488D
:1071F000FBF7C4FF30B900F0CBF84FF47A7106A06A
:10720000FDF75AFB14B1204600F0B2FB00F0A8F8DD
:1072100010BD0000C89D00204C6F61642045727253
:107220006F72210010B5044600200A4948802146AB
:10723000084801F0F1FC38B94FF47A7106A0FDF767
:107240003BFB0020FFF7D0FF032000F091FB00F094
:1072500087F810BDC89D0020436865636B204572A8
:10726000726F72212052654C6F61642044656661C3
:10727000756C742E0000000010B5144890F82300BF
:1072800020B108211248FAF76CFC03E008211048ED
:10729000FAF769FC0D4890F8240020B110210C4841
:1072A000FAF75FFC03E010210948FAF75CFC074895
:1072B00090F8250020B120210548FAF752FC03E0A0
:1072C00020210348FAF74FFC10BD0000C89D0020A4
:1072D0000010014010B51C20FDF756F804461CA014
:1072E000FCF7F0FD1D480068808BC01C20801B4807
:1072F0000068C08B001D6080082020716071012033
:10730000E0761720A0710020E075207601206076DD
:10731000A0760020FCF7EAFDFF212046FDF76EF97C
:1073200008E0E07E012803D10A2000F02FFD00E0F4
:1073300000BF00BFE07E0028F3D10120FCF7D6FD9E
:10734000FF212046FDF75AF92046FCF7F7FF10BD54
:10735000506963204D6F766500000000F800002042
:1073600000B5FF2009490968087000F05BFB007850
:1073700006490968498C054A1268D28B891A91FB23
:10738000F0F00249096881F8240000BDF8000020EF
:1073900010B500210B48C1824FF4784101834FF4AE
:1073A000FC60084988821F21064841834FF6FF711F
:1073B0008183042181770621C177002000F004F841
:1073C00010BD0000C89D002010B5044640200549AE
:1073D000088000210348FDF77DFF14B1204600F02E
:1073E000C7FA10BDC89D002010B5044640200549CD
:1073F00008802146034801F025FC032000F0B8FA7C
:1074000010BD0000C89D002010B5044604488477D4
:107410000146887FFEF7F4FBFFF7A2FF10BD0000D6
:10742000C89D002010B50446064880F8204001465B
:1074300091F82000FEF7E4FB4FF47A7102A0FDF70B
:107440003BFA10BDC89D002053616D706C65000053
:1074500000B503460248C377FFF782FF00BD000076
:10746000C89D002010B502A0FDF70AFB10BD00006A
:107470004265696E672052657365740010B50446F5
:10748000642004FB00F102A0FDF716FA10BD000015
:1074900048656C6C6F21000070B50A241CA0FCF7D5
:1074A00011FD062419E01D4A5288C2F1F00505EBD2
:1074B000D572C2F34F01194A1288C2F5A07606EBC5
:1074C000D672C2F34F002346144AFBF7ADFE4FF4C9
:1074D000967000F05BFC601EC4B2002CE3D101206A
:1074E000FCF704FD0D4A5288C2F1F00505EBD57298
:1074F000C2F34F01094A1288C2F5A07606EBD67294
:10750000C2F34F000023054AFBF78EFE70BD00005A
:1075100041626F757420544F53000000102B010816
:1075200010B508A0FDF7F0FA28B14FF47A7107A062
:10753000FDF7C2F904E04FF47A7107A0FDF7BCF93A
:1075400010BD0000537572653F00000043686F6F07
:10755000736520596573000043686F6F7365204E33
:107560006F00000070B50546354800F067FAC4B2F8
:1075700035B1012D1CD0022D2ED0032D5CD143E05E
:10758000FF2C05D14FF47A712EA0FDF795F970BD4F
:10759000204600F02BFC28B14FF47A712DA0FDF7A6
:1075A0008BF904E04FF47A712EA0FDF785F943E0E2
:1075B00040F6B833224A2F492F4800F085FB28B106
:1075C0004FF47A712DA0FDF777F904E04FF47A714A
:1075D0002EA0FDF771F92FE0FF2C05D14FF47A7141
:1075E00018A0FDF769F9D2E7204600F0B9FE28B1EE
:1075F0004FF47A7129A0FDF75FF904E04FF47A7136
:107600002BA0FDF759F917E0FF2C05D14FF47A7143
:107610000CA0FDF751F9BAE7204600F0D1FD28B1E2
:107620004FF47A7126A0FDF747F904E04FF47A7120
:1076300027A0FDF741F900BF00BF00BFA7E700008A
:10764000CC9D00204E6F2046696E64205461736BA0
:107650000000000044656C657465205375636365C4
:107660006564210044656C657465204661696C2120
:1076700000000000502A01083F6B0008437265615A
:1076800074652053756363656564210043726561A9
:107690007465204661696C210000000053757370A9
:1076A000656E6420537563636565642100000000A6
:1076B00053757370656E64204661696C210000002B
:1076C000526573756D65205375636365656421004C
:1076D000526573756D65204661696C21000000007C
:1076E00010B59CB09FA0FCF7EDFBA0480068808B14
:1076F000801C80B2ADF804009C480068C08B801CE0
:1077000080B2ADF8060011208DF808000A208DF82F
:10771000090001208DF817000B208DF80A0008A839
:10772000039012A8049000208DF814008DF8160024
:1077300001208DF815000020FCF7D8FBFF2101A8DF
:10774000FEF74CFFF8E09DF81700072877D2DFE836
:1077500000F0E90412135F779D002822002108A899
:10776000F9F7CEF92822FF2112A8F9F7C9F9032069
:107770008DF81700D7E0D6E0002101A8FEF72EFF14
:107780000020FCF78BF90446262C0CD19DF816003E
:1077900018B905208DF8160005E09DF81600401E6A
:1077A000C0B28DF81600282C05D19DF81600401C9B
:1077B000C0B28DF816009DF81600062802DB0020E6
:1077C0008DF81600232C05D105208DF81700002018
:1077D0008DF81600272C1AD19DF81600052802D125
:1077E00000208DF817009DF8160010B904208DF8C0
:1077F00017009DF81600012802D105208DF817000A
:107800009DF81600022802D101A8FFF795F88AE03A
:107810000020FCF743F90446214601A8FFF7C8F809
:1078200038B101A8FFF76FF800208DF819008DF826
:107830001800232C02D106208DF8170073E071E0A8
:107840002822002108A8F9F75BF92822FF2112A8B5
:10785000F9F756F901A8FFF756F801A8FFF753F812
:1078600000208DF819008DF8180004208DF81700FD
:1078700000208DF81600032200210DF11A00F9F7FF
:107880003FF9072101A8FEF7A9FE4CE0012101A85C
:10789000FEF7A4FE0020FCF701F90446262C0CD1CB
:1078A0009DF8160018B905208DF8160005E09DF822
:1078B0001600401EC0B28DF81600282C05D19DF888
:1078C0001600401CC0B28DF816009DF81600062860
:1078D00002DB00208DF81600232C05D104208DF842
:1078E000170000208DF81600272C16D19DF81600E1
:1078F000052802D100208DF817009DF8160028B940
:1079000004208DF8170000208DF816009DF8160051
:10791000012802D105208DF81700012101A8FEF7EA
:107920005DFE00E000BF00BF012101A8FEF788FD59
:10793000022101A8FEF784FD9DF8170000287FF4BE
:1079400002AF002101A8FEF77BFDFF2101A8FEF791
:1079500007FE0120FCF7CAFAFF2101A8FEF73EFE50
:107960001CB010BD5465747269730000F8000020EB
:1079700010B50446214602A0FCF7C2FB10BD000072
:1079800057616974696E6700F0B502460C46FF21C5
:10799000FF2500260BE012F8017B87EA0503084F5C
:1079A000FF5C87EA0105074FF95C771CBEB2A6426F
:1079B000F1DB08464FF6FF7707EA00202843F0BDC9
:1079C00068AB000868AC000810B5104800781328B0
:1079D00004D00F480078401C0D4908700D4800780D
:1079E000401C0C4908700846007864280DDD002012
:1079F00008701423084A064801780848F9F7B0FFD0
:107A00000749087000200249087010BD5800002086
:107A1000440000203C0000203D00002040000020E9
:107A2000500000200148006870470000D800002086
:107A30000148006870470000D400002070B505467A
:107A4000002413E004EB4400094A126802EB001022
:107A5000C16A2846F9F7BAFA08B1204670BD601C21
:107A600080B20446142801DBFF20F7E7EAE70000B4
:107A70006000002010B54FF47070FCF785FC1E49C3
:107A8000086002201D49487000204860002428E05A
:107A9000012004EB4401184A126802EB011108812D
:107AA000002004EB4401144A126802EB01118861C2
:107AB000002104EB4400104A126802EB0010016040
:107AC000002004EB44010C4A126802EB0111C8616A
:107AD00004EB4401084A126802EB01110884601C9F
:107AE000C4B2142CD4DB13200549087000200549CA
:107AF00008600549086010BD6000002050000020AB
:107B000058000020640000207400002070B5044676
:107B1000FFF7B0FF04E094E80F0000F0D5F8103450
:107B200020680028F7D100F027F870BDF9F7C4FCF1
:107B300004E0642000F02AF900F002F8F9E7000000
:107B400010B50C48046804B910BD0EE02468A07A92
:107B500010F0010F09D0A07A10F0020F05D0E068F4
:107B60008047A07A20F00200A07220680028EDD1A2
:107B700000BFE9E77400002008B5FDF771FD4FF480
:107B80007A7005A3002207490090132000F034F812
:107B9000132000F0ADFB08BD5461736B526F6F741E
:107BA000000000002D7B000810B5FFF70DFF00F06E
:107BB0008DFA08484078402805D1032106A0F9F73E
:107BC00023FAFBF71DFB0B48006808B100F08AFCA4
:107BD00010BD0000500000205461736B2054696D8B
:107BE000654F75742057696C6C20544F5320526553
:107BF00073657400740000202DE9F04704460D46BB
:107C000091461F46DDF820800DB9BDE8F08704EBF2
:107C100044002C49096801EB00100089012800D0BC
:107C2000F3E704EB44002749096801EB0010008CDE
:107C300098B91FFA88F0FCF7A7FB064604EB44014D
:107C4000204A126802EB0111A1F8208004EB4401E4
:107C50001C4A126802EB0111CE6104EB4402194B7D
:107C60001B6803EB0212118C04EB4402154B1B68DA
:107C700003EB0212D06900F001FC8246022104EB02
:107C80004400104A126802EB0010018104EB44002A
:107C90000C49096801EB0010456004EB44000949F8
:107CA000096801EB0010C7624A462946504600F0B9
:107CB000E7FA04EB4401034A126802EB0111086081
:107CC00000BFA2E7600000202DE9F84305460E46FC
:107CD0001746984600241AE004EB4400124909684C
:107CE00001EB0010008900B912E004EB44000E49DA
:107CF000096801EB00100089012800D108E0601C30
:107D000080B20446142802DB0020BDE8F883E3E7D4
:107D100000BFE0B23B4632462946CDF80080FFF76F
:107D20006BFF0120F1E700006000002010B5154A4C
:107D3000127802EB4202144B1B6803EB02129062B2
:107D4000104A127802EB42020F4B1B6803EB02123F
:107D500082F8231000220B4B1B7803EB43030A4CE1
:107D6000246804EB031383F824200023054A1278C7
:107D700002EB4202044C246804EB021282F8253024
:107D800010BD0000580000206000002010B504461F
:107D90001348407801281FD000201249097801EBD0
:107DA0004101114A126802EB011188610D48007807
:107DB00000EB40000C49096801EB00104461102100
:107DC0000848007800EB4000074A126802EB0010F8
:107DD000018100F003FB02E02046F8F773FE10BDBE
:107DE00050000020580000206000002010B504461C
:107DF000142C01DB002010BD04EB44001E4909686F
:107E000001EB00100089012801D10020F3E70020D8
:107E100004EB4401184A126802EB0111C862002108
:107E200004EB4400144A126802EB00108161002048
:107E300004EB4401104A126802EB01114861012071
:107E400004EB44010C4A126802EB0111088104EBB7
:107E50004401094A126802EB0111C869FCF76EFA85
:107E6000002104EB4400044A126802EB0010018474
:107E700000F0B4FA0120BEE76000002001460D4882
:107E8000006800EB4110007A08B9002070470948EB
:107E9000006800EB41104079074A1278904201D007
:107EA0000020F3E70120034A126802EB411210722E
:107EB00000BFEBE76C0000205800002070B50446BE
:107EC0000D4600BF1E48006800EB4410007A30B138
:107ED000012815D0022804D003282FD11FE000204C
:107EE00070BD1748006800EB4410407915490978C7
:107EF000884201D10120F3E7204600F01DFBE1E7B5
:107F000002200F49096801EB441108720D480078FE
:107F10000B49096801EB441148710120E0E7022098
:107F20000749096801EB44110872064800780449C2
:107F3000096801EB441148710120D1E70020CFE727
:107F40006C000020580000200248007802490870A8
:107F500070470000580000207E0000200248007892
:107F60000249087070470000580000207900002086
:107F700070B51848007800EB40001749096801EB1C
:107F80000014A06A08B9002070BD94F8250018B943
:107F90001048007800F0BEF994F8250008B90020D8
:107FA000F2E704F12304D4F80500617800EBC10581
:107FB000607800F10100217890FBF1F201FB1200E2
:107FC0006070A078A0F10100A070A4F123042846FD
:107FD000DAE70000580000206000002070B5064677
:107FE0001748007800EB40001649096801EB0014BF
:107FF000A06A08B9002070BD94F8250010B9304679
:10800000FFF7C4FE94F8250008B90020F3E704F157
:108010002304D4F80500617800EBC105607800F115
:108020000100217890FBF1F201FB12006070A07852
:10803000A0F10100A070A4F123042846DBE70000B2
:1080400058000020600000202DE9F04706468846D1
:1080500091469A46142E01DBBDE8F08706EB4600F8
:108060001949096801EB0014A06A00B9F4E794F813
:10807000250094F82310884220DA04F12304607864
:10808000A1780844217890FBF1F201FB1200C7B2FD
:1080900014F82309B84200DCDEE7A06A00EBC7054C
:1080A00085F800804A4650466968F8F718FD85F85B
:1080B000019094F82500401C84F82500304600F01B
:1080C00065F800BFC8E7000060000020002055E010
:1080D00000EB40012B4A126802EB011109890229C9
:1080E00002D0102946D11CE000EB4001254A12685D
:1080F00002EB01118969491C00EB4002214B1B680E
:1081000003EB0212916100EB40011E4A126802EB80
:1081100001118969B1F5FA6F02D940211A4A5170EB
:1081200029E0002100EB4002164B1B6803EB021212
:10813000916100EB4001134A126802EB0111496999
:1081400041B9022100EB40020E4B1B6803EB021207
:1081500011810EE000EB40010A4A126802EB0111A6
:108160004969491E00EB4002064B1B6803EB0212F3
:10817000516100E000BF00BF411CC8B21428A7DB5A
:10818000704700006000002050000020142800DB31
:10819000704700EB4001094A126802EB011109899E
:1081A000012900D1F4E7102100EB4002034B1B68CA
:1081B00003EB0212118100BFEAE70000600000201B
:1081C00010B50446142C01DB002010BD04EB440064
:1081D0001549096801EB00100089012801D1002030
:1081E000F3E704EB44001049096801EB0010008933
:1081F000102801D10020E8E704EB44000A4909688F
:1082000001EB00100089022801D10020DDE70220E7
:1082100004EB4401044A126802EB0111088100F0EA
:10822000DDF80120D1E700006000002010B5044611
:108230000F480078A04200D110BD0D48007800EB37
:1082400040000C49096801EB00100B490860084820
:108250000470007800EB40000649096801EB00104B
:10826000006806490860F8F7F1FB00BFE4E700008A
:1082700058000020600000204C0000204800002032
:1082800030B503461846041F20462160041F2046CF
:1082900023600025041F20462560041F204625601A
:1082A000041F20462560041F20462560041F204629
:1082B0002560041F20462560041F20462560041FFA
:1082C00020462560041F20462560041F20462560A7
:1082D000041F20462560041F20462560041F2046F9
:1082E00022604FF08075041F2046256030BD0000DD
:1082F00010B5044604EB44000449096801EB001082
:10830000006803490860F8F7BAFB10BD6000002060
:108310004800002010B50446142C00DB10BD04EB0F
:1083200044000E49096801EB00100089012800D1C2
:10833000F4E7042004EB4401084A126802EB01113F
:108340000881002104EB4400044A126802EB00108B
:10835000416100F043F800BFE0E70000600000204A
:1083600010B50446142C01DB002010BD04EB4400C2
:108370001949096801EB00100089012801D100208A
:10838000F3E704EB44001449096801EB001000898D
:10839000042801D10020E8E704EB44000E490968F5
:1083A00001EB00100089082801D10020DDE708203A
:1083B00004EB4401084A126802EB01110881002015
:1083C00004EB4401044A126802EB0111486100F019
:1083D00005F80120C9E700006000002010B5022167
:1083E00023480068A0F8981300243DE004EB440003
:1083F0001F49096801EB00100089022802D02028DB
:108400002ED107E01B480078A04202D02046FFF79B
:108410000DFF10BD04EB44001549096801EB001085
:1084200090F822001449096801EB4010007A0128F5
:1084300015D1102004EB44010D4A126802EB011122
:108440000881032004EB4401094A126802EB011180
:1084500091F82210084A126802EB4111087200E0FC
:1084600000BF00BF601CC4B2142CBFDB00BFD0E74C
:1084700060000020580000206C00002002465018C8
:1084800020F00303A3F1300020F007007047000044
:1084900010B5142800DB10BD00EB4002104B1B6828
:1084A00003EB02121289042A00D1F4E7002200EB48
:1084B00040030B4C246804EB03139A61102300EB78
:1084C0004002074C246804EB0212138100EB4002C7
:1084D000034B1B6803EB0212516100BFDBE7000096
:1084E0006000002010B51348006800B910BD1148A5
:1084F0000068E0B10F480068807A10F0010F16D0D4
:108500000C48006800890B4909688988884207DBA4
:1085100008490968C8688047002006490968088139
:10852000044800680089401C02490968088100BFAE
:10853000DCE700007400002010B504460B4800780A
:1085400000EB40000A49096801EB001080F8224066
:1085500020200649097801EB4101054A126802EB27
:1085600001110881FFF73AFF10BD000058000020FC
:108570006000002010B540F225510E4800F0B5F91A
:10858000B8B10C48001D0088C4B20B4800880B49E4
:10859000098888420DDA084801880088401C064A8C
:1085A0001080074800684454064908780A21FFF7FC
:1085B0006FFF10BD003801404A010020400100203B
:1085C000180100203700002010B540F22551114855
:1085D00000F08BF9C0B10F48001D0088C4B20E48EE
:1085E00040880E494988884213DA0B484188408800
:1085F000401C094A50800A48406844540949487858
:108600000A21FFF745FF04E040F22551014800F040
:1086100044F810BD004400404A0100204001002001
:10862000180100203700002010B540F225511148F4
:1086300000F05BF9C0B10F48001D0088C4B20E48BD
:1086400080880E498988884213DA0B48818880889F
:10865000401C094A90800A48806844540949887837
:108660000A21FFF715FF04E040F22551014800F010
:1086700014F810BD004800404A01002040010020CD
:10868000180100203700002001F40072B2F5007FCD
:1086900000D100BFCA430280704710B500220023FA
:1086A000A1F510646A3C00D100BF0A120124944075
:1086B000A3B2DC43048010BD21B1828942F4005290
:1086C000828104E082894DF6FF731A4082817047EF
:1086D00070B50446204600F057F9054600F076F8DC
:1086E000062C2ED2DFE804F0030A11181F262522DB
:1086F0004FF4E131144800F031F822E026224FF423
:10870000E131124800F02AF81BE027224FF4E13152
:108710000F4800F023F814E027224FF4E1310C4811
:1087200000F01CF80DE034224FF4E131094800F06C
:1087300015F806E035224FF4E131074800F00EF855
:1087400000BF00BF70BD0000003801400044004081
:1087500000480040004C00400050004070B586B01A
:1087600006460C46154601940020ADF80800ADF809
:108770000A00ADF80C00ADF810000C20ADF80E00AA
:1087800001A9304600F044F9012240F2255130465B
:1087900000F018F901213046FFF78EFF40213046E6
:1087A000FFF772FF4FF48060FBF768FE8DF81450FE
:1087B00002208DF8150001208DF816008DF81700A5
:1087C00005A8FBF721FE06B070BD000038B50446D1
:1087D000274884420BD10D202315264A51150090BD
:1087E000104600F057F801218803FCF763FA22488D
:1087F00084420BD1042008231E4A014600901046F3
:1088000000F048F801214804FCF744FA1B48844270
:108810000FD10920E3141A4A11150090104600F0F8
:1088200039F801218804FCF735FA01218804FCF7A6
:1088300041FA144884420BD11120E314124A111555
:108840000090104600F026F80121C804FCF722FA37
:108850000E4884420BD1312004230D4A911400901C
:10886000094800F017F801210805FCF713FA38BD94
:10887000003801400008014000440040004800402A
:10888000000C0140004C004000100140005000402E
:10889000001401402DE9F84307460D4616461C46D4
:1088A000DDF8208001214046FCF704FAADF80050C5
:1088B00003208DF8020018208DF803006946384621
:1088C000F9F77AF8ADF8004004208DF80300694606
:1088D0003046F9F771F829463846F9F744F9214648
:1088E0003046F9F740F9BDE8F88370B50246002438
:1088F000002300250020A1F510666A3E00D100BFCC
:10890000C1F3421501F01F03012606FA03F3012DFE
:1089100002D19689334006E0022D02D1168A3340F7
:1089200001E0968A33400C12012606FA04F41688F8
:10893000344013B10CB1012000E0002070BD0000F4
:1089400001460F4A881A914213D006DC0D480818D8
:108950000BD0B0F5806F10D109E0B0F5806F0AD070
:10896000B0F56C4F09D1002070470120FCE70220D0
:10897000FAE70320F8E70420F6E70020F4E7000018
:10898000004C004000BCFFBF014605290ED2DFE8C5
:1089900001F0030507090B00054870470548FCE78F
:1089A0000548FAE70548F8E70548F6E70020F4E748
:1089B000003801400044004000480040004C0040A6
:1089C00000500040F0B5034600240026002500209A
:1089D000A1F510676A3F00D100BF1846C1F34214E9
:1089E00001F01F06012707FA06F5012C01D10C3012
:1089F00004E0022C01D1103000E014301AB10768F5
:108A00002F43076002E00768AF430760F0BD000036
:108A10002DE9F04785B005460E460024A24600BF6A
:108A2000A1460027B08900B100BF2F462C8A4CF622
:108A3000FF700440F08804432C82AC89284804402D
:108A4000B08831890843718908430443AC81AC8AFA
:108A50004FF6FF400440B0890443AC826846FCF7FF
:108A600039F92048874202D1DDF80CA001E0DDF899
:108A700008A0A88910F4004F08D00AEBCA0000EB48
:108A80000A1031684900B0FBF1F807E00AEBCA00B0
:108A900000EB0A1031688900B0FBF1F86420B8FBE4
:108AA000F0F004012009642101FB1089A88910F469
:108AB000004F08D0322000EBC900B0FBF1F000F00D
:108AC0000700044308E0322000EB09106421B0FBEA
:108AD000F1F000F00F0004432C8105B0BDE8F087F1
:108AE000FFFEF0FF003801402DE9F04705460E4635
:108AF00014462F46B046A1463846FFF721FF82466E
:108B000000234FF496724146384600F005F8A9F864
:108B10000000BDE8F08700002DE9F04780460F46D1
:108B200015461E464046FFF70BFF04462049085DE8
:108B30000021FFF7C3F98146B9F1000F28D00122C7
:108B400040F225514046FFF73DFF1A4800781A4988
:108B50000855B5F5967F01DB4FF49675174820F858
:108B600014500020164921F814001EB13046FFF7BA
:108B70000DF903E01049085DFFF7F2FB0C49085DB1
:108B8000FFF77CF9002240F225514046FFF71AFF1B
:108B900047B10B4931F814200A4951F824003946ED
:108BA000F7F79DFF064830F81400BDE8F087000095
:108BB0002D00002058000020370000204001002038
:108BC0004A010020180100202DE9F04304460D461B
:108BD00016462746A846B6F800904A46414638460B
:108BE00000F002F8BDE8F08310B50B46002108E064
:108BF00000BF048814F0800FFBD05C5C84804C1CA8
:108C0000A1B29142F4DB10BD00B54FF48020F8F71B
:108C1000C9FC00BD00BFFEE770B504460D46290340
:108C2000002322460148FAF7B7FA70BD318C0008DC
:108C300070B504460D461646324621462846FCF7D6
:108C40008FF970BD70B504460D46290300232246F6
:108C50000148FCF74DFB70BD858C000870B50446DB
:108C60000D461646328828462168FCF779F970BD12
:108C700070B504460D461646328828462168FCF732
:108C800097F970BD70B504460D461646324621462A
:108C90002846FCF78DF970BD08B54FF00008C246B4
:108CA000FCF710F9A74801F091FA40F27641142040
:108CB00001F0BDFBA4480278A449A24801F0FAFCE7
:108CC0003EE10A20FFF762F8A14940F6C41001F026
:108CD0001BFB074607B933E139469D4801F062FCAA
:108CE00018B19B4801F042FD2AE13946984801F04D
:108CF0007BFC00B924E19648C07D012809D1944845
:108D000090F82200082804D13946914801F060FD0E
:108D100016E18F48C07D062876D18D4890F8240052
:108D20000028F9D18A4890F82500874909688842C7
:108D3000F2D1874890F82F0010F0020F03D084483A
:108D400001F0EAFDFCE0824890F82F0010F0100FCF
:108D50005AD07F4801F0CCFC01F09EFC05464DB98D
:108D60007B4890F82F0010F0010F02D0784801F0F6
:108D700079FDE5E076484119042276A0F7F7F6F987
:108D800008B33A4675A17248F7F7C7FE8146B9F1B4
:108D9000000F17D06E4800EB090BBAB201467148BC
:108DA000FFF722FF002226215846FCF712FC584606
:108DB000F9F76AFD59466C48006800F005F9002093
:108DC00000F096F97EE0624A281D1118022267A081
:108DD000F7F7CCF9C8B966A200215D4801F04EFC56
:108DE00007466FA239465A4801F048FC07466F4AC9
:108DF0003946574801F034FC07466DA239465448BD
:108E000001F03CFC074665E06CE0514A691D5018D2
:108E100001F024F90646002E53DB69480068C0685B
:108E200006EB460100EB8104207A0B280CD006DC0F
:108E3000042821D0052817D0062835D10CE01A289F
:108E400022D01B2830D127E021464148F8F70EFFF9
:108E50000746454804603DE021463D48F8F706FFD7
:108E600007464148046035E021463948F8F7FEFEE0
:108E700007463D4804602DE021463548F8F7F6FEE8
:108E800007463948046025E021463148F8F7EEFEF0
:108E90000746354804601DE021462D48F8F7E6FEF8
:108EA00007463148046015E045490968C96806EB82
:108EB000460201EB8200002100F086F8002000F05D
:108EC00017F900BF3E480068C1682148F9F708F863
:108ED000074600BF1E4801F0C5FC39461C4801F09A
:108EE000F5FC2DE01A48C07D112828D1184890F8CB
:108EF0002400042823D1164890F82500B0281ED15C
:108F0000134890F826A04FEA0A2A90F82700504408
:108F1000A0F1080A4FF0000808E008F12A000C4907
:108F2000095C009800F8081008F10108D045F4D356
:108F30002448524603680648009901F071FD00BFBD
:108F4000BFE60000A5000020C4000020AB00002008
:108F5000089E0020474554200000000054657874A6
:108F6000313D0000004400400C0100202F20000093
:108F7000485454502F312E3020323030204F4B0D7A
:108F80000A436F6E74656E742D547970653A20745F
:108F90006578742F68746D6C0D0A0D0A000000006E
:108FA0003C703E55736167653A200000AF000020B9
:108FB00070617373776F72643C2F703E0000000025
:108FC000F8000020C800002070B504460D46207A45
:108FD0000B2850D007DC072837D2DFE800F0830DDC
:108FE0003783685F5500162838D0182871D01A28A2
:108FF00063D01B2876D165E03B480068C0683A49D9
:1090000009680861607A38490968897988420CDD05
:10901000607A35490968887100213348006882798F
:1090200031480068401C815403E0607A2E49096889
:1090300088712D4960680968C8602B48006800780D
:1090400040F002002849096808704BE0606820B1D0
:10905000002201216068FDF773FF43E0606820B1E2
:10906000627A02216068FDF76BFF002202211F482F
:10907000FDF766FF36E02846F9F7C6F80646F7F72B
:109080001FFB616808702DE02846F9F7BDF8064619
:10909000F7F7FDFA40B26168087023E02846F9F757
:1090A000B3F80646F7F70CFB616808801AE028461B
:1090B000F9F7AAF86168086014E028466168FCF7CF
:1090C00055FA0FE02846FCF791FA6168086009E05C
:1090D000FFE76068007808B9012000E000206168BF
:1090E000087000BF00BF70BDF8000020F1900008BC
:1090F00038B504468DF801406B4603220121024831
:109100000078FEF7A1FF38BD7E00002037B5144679
:109110000846064B6A46214600F0F8FB04466946BD
:10912000002000F096FF20463EBD000053A000083E
:10913000490050EAC12018BF04204A0D18BF40F072
:10914000010040F2FF72B2EB515F08BF40F0020035
:10915000012808BF052070472DE9F74F144696B047
:109160000021C4E902111799089121F00045CA496C
:109170008D4206DC1799C4E9000119B00020BDE852
:10918000F08FC649DFF818A3A9423CDD0899C54E07
:109190000029C54FC54A1799534619DDF7F764F9F9
:1091A000554506D0C24AC34BF7F75EF9C4E9000142
:1091B0000AE04FF0D352BF4BF7F756F932463B4621
:1091C000F7F752F9C4E9000119B00120BDE8F08FAA
:1091D000F7F7A9F8554506D0B54AB64BF7F7A3F807
:1091E000C4E900010AE04FF0D352B24BF7F79BF805
:1091F00032463B46F7F797F8C4E9000119B04FF043
:10920000FF30BDE8F08FAC49A942179978DB21F017
:1092100000488346A94AAA4B4146F7F72BF900229A
:10922000A84BF7F780F8F7F7F1FB0990F7F711FA79
:1092300006460F469D4A5346F7F71CF95A464346E1
:10924000F7F715F980468A46994A9A4B30463946CF
:10925000F7F710F92A0D01250B9242465346F7F70E
:1092600006F9032DC4E9000139D00B98C1F30A5166
:10927000401A05EB45111139814230DA9248C34654
:10928000784400EB0510CDF81CA00C90D0E9002329
:1092900030463946F7F7EEF8CDE9020102460B46B3
:1092A00058460799F7F7E0F880468A4602460B468B
:1092B00058460799F7F7D8F8DDE90223F7F7D4F80D
:1092C00083460C9803913946D0E902233046F7F7DC
:1092D000D1F85A46039BF7F7C7F86D1CBDE708980D
:1092E0000028A2BF099819B0BDE8F08F616881F02D
:1092F00000416160099819B04042BDE8F08FFFE776
:10930000C1F3130141F480110E911799C1F30A5171
:10931000A1F2F532511102F01F08C8F12002129299
:1093200000220C920D92694A7A4402EB810101F10C
:10933000140C0DA95FF00607DCF80020DCF80450DF
:1093400002FA08F3129AD1F800A025FA02F21A43A1
:109350000E9BA2FB0356A2FB00329A4415449A4589
:1093600034BF4FF0010B4FF0000B51F8043C05EBFC
:109370000B0E7344954234BF012200221644BBF108
:10938000000F02D0AB4202D903E0AB4201D201226E
:1093900000E000223244C1F800A041E90223091F85
:1093A000ACF1040C7F1EC7D10898DDE90A6500F115
:1093B0000050800F11900898099F8000F7F749F935
:1093C00080468A463846F7F755F96FF01D02F7F7E1
:1093D000C7FA074630460591F7F74CF96FF03D02A2
:1093E000F7F7BEFACDE903102846F7F743F96FF017
:1093F0005D02F7F7B5FA064602460B460191DDE934
:109400000310F6F790FF3A46059BF6F78CFF4246AD
:109410005346F6F788FF00200D46834642465346E2
:10942000F7F722F83A46059BF7F71EF8DDE9033215
:10943000F7F71AF83246019BF7F719F8DFF894802E
:10944000234A4346F7F716F806460F46224A234BAF
:1094500058462946F7F70EF832463B46F6F763FFC3
:109460000F4606464FF0A842434658462946F7F7AE
:1094700001F832463B46F6F756FF179A12F0004FB6
:1094800004D0119A81F0004152421192C4E90001C6
:10949000119819B0BDE8F08FFB21E93F7CD902405B
:1094A000FB21F93F7370032E8A19A33B000040543F
:1094B0003163621A61B4D03DFB21394183C8C96D63
:1094C000305FE43F0000E03F242C0100AC2B0100A2
:1094D000182D4454FB21F93D3326A611460B113CAF
:1094E0002DE9FF4D21F0004807460C46B8F1795FA1
:1094F00008DAF7F78BFA002801BF0020324904B0E0
:10950000BDE8F08D3A46234610461946F6F7B2FFFD
:10951000054602462D480E460B460621784400F0CB
:109520005DF82A463346F6F7A5FFDDE902238246B9
:109530008B4638462146F6F79DFF04460F465246B5
:109540005B4628463146F6F795FF22463B46F6F73E
:109550008BFF07468A464FF0FF3228463146F7F721
:10956000FFF91B4A90450ADA3A465346F6F77CFF64
:1095700004B00022BDE8F04D134BF6F778BF154A52
:109580004245A8BFA8F500154FF00004B8BF124D22
:1095900022462B46F6F768FF0646884622462B46AB
:1095A00000200949F6F760FF04460D463A46534647
:1095B00030464146F6F758FF04B022462B46BDE838
:1095C000F04DF6F754BF00000000F03F58290100AD
:1095D0003333D33F0000E93F0000D23F2DE9F04193
:1095E0004F1E00EBC7010446D1E9000115461E4697
:1095F00037F006020DD02A463346F6F73BFF7F1EB2
:1096000004EBC703D3E90023F6F78DFE37F006021B
:10961000F1D1022F25D0042F13D0062F18BFBDE89B
:10962000F0812A463346F6F725FFD4E90A23F6F7F8
:109630007AFE2A463346F6F71DFFD4E90823F6F7EB
:1096400072FE2A463346F6F715FFD4E90623F6F7ED
:109650006AFE2A463346F6F70DFFD4E90423F6F7EF
:1096600062FE2A463346F6F705FFD4E90223F6F7F1
:109670005AFE2A463346F6F7FDFED4E90023BDE83C
:10968000F041F6F750BE00002DE9FF4D054621F0F0
:10969000004084B00C46B0F1795F0BDA2846FFF742
:1096A00047FD042808BF00F065F8284608B02146A9
:1096B000BDE8F08D2A460B461046F6F7DBFE06465F
:1096C0000F462A462346F6F7D5FE804626488A46A8
:1096D00032463B4605217844FFF780FF83461098C9
:1096E000029160B3214A224B40465146F6F7C2FE32
:1096F000CDE900015A4640465146029BF6F7BAFEB4
:1097000082468846DDE906014FF0FF32F7F728F977
:1097100052464346F6F7A8FE32463B46F6F7AAFE07
:10972000DDE90623F6F7A0FEDDE90023F6F79CFE4F
:1097300008B02A462346BDE8F04DF6F798BE0B4622
:109740005A4630463946F6F795FE084A084BF6F772
:10975000EAFD42465346F6F78DFE08B02A462346F8
:10976000BDE8F04DF6F7DFBD962801004955555587
:109770005555C5BF024A00201107F7F7F1B80000A0
:1097800001FDFFFF02E008C8121F08C1002AFAD13C
:1097900070477047002001E001C1121F002AFBD171
:1097A0007047000001490860704700001401002064
:1097B0002DE9FF5FDDE90220010DDDF838B002433D
:1097C00010D10F9801244CA2012808D00021009844
:1097D0000F9BC0E90021C0E90243BDE8FF9F6FEA8B
:1097E0000B01F4E7A1F2FF3144F6105041430D1490
:1097F0000F9801280ED0A5EB0B00401C4FF0000481
:109800003E4EDFF8FC90B0F1000AA04605DACAF13E
:10981000000717E0CBF10000F0E7074612E0F80779
:1098200007D02246334640464946F6F723FE804697
:1098300089462246334610461946F6F71BFE044673
:109840000E467F10002FEAD1DDE90201BAF1000FC8
:1098500042464B4602DAF6F70DFE01E0F6F77CFED3
:1098600004460E460022274BF7F7AAF803D84FF01C
:10987000FF30014607E00022234B20463146F6F731
:1098800052FDF7F784F8102409E0002C0ADB0A22C5
:109890000023F6F76EFF019B30321A55641E50EA22
:1098A0000102F2D1641C019AC4F1110314440F9A0D
:1098B000012A09D00122084301D15B450FDD4FF099
:1098C000000205F101050DE0084303D1A3EB0B05F0
:1098D0006D1E09E000204FF0110B0F9088E701DAB0
:1098E00000226D1E002A83D000980F99C0E9023132
:1098F000C0E9004571E7000030000000000024408E
:109900000000F03F0000F0430000E03F2DE9FF4F72
:1099100095B09B4689460646002512E2252878D157
:109920000024761CF94A2746012105943378203B10
:1099300001FA03F0104202D00443761CF6E73078B7
:109940002A2811D06FF02F033078A0F13002092AB5
:1099500016D8059A44F0020402EB820203EB42029D
:109960001044761C0590EFE759F8042B0592002A65
:1099700003DA504244F40054059044F00204761C8B
:1099800030782E2816D116F8010F44F004042A2846
:109990000DD06FF02F023078A0F13003092B09D8D9
:1099A00007EB870302EB4303C718761CF3E759F86C
:1099B000047B761C30786C280FD006DC4C2817D03E
:1099C00068280DD06A2814D104E0742810D07A28B1
:1099D0000FD10DE044F400140AE044F4801401E0D7
:1099E00044F440147278824202D1761C04F580144B
:1099F000761C307866280BD013DC582877D009DC29
:109A0000002875D04528F6D04628F4D047281AD12A
:109A10009FE118E0632835D0642879D0652812D1F9
:109A200097E1702873D008DC6728F1D069286FD0DF
:109A30006E280DD06F2806D1B5E073282CD075287C
:109A400075D0782874D05A46179990476D1C76E1E6
:109A5000C4F30250022809D003280DD0D9F8001011
:109A600004280DD00D6009F1040968E1D9F800104F
:109A7000EA17C1E90052F6E7D9F800100D80F2E7C5
:109A80000D70F0E719F8041B8DF8001000208DF818
:109A90000100EA46012003E059F804AB4FF0FF3023
:109AA00061074FF0000102D40DE008F10101884682
:109AB000B9420FDA8045F8DB1AF808100029F4D112
:109AC00008E008F1010188468142FADB1AF8081023
:109AD0000029F6D105985B46A0EB080721463846D9
:109AE000179A00F09EFA284400EB080507E04DE0C5
:109AF0002BE10DE01AF8010B5A4617999047B8F17F
:109B00000108F7D25B4621463846179A14E142E035
:109B10000A220092C4F302524FF0000A022A08D02F
:109B200059F804CB032A4FEAEC710AD00DE029E082
:109B30002AE009F1070121F00702F2E802C191468B
:109B400009E00FFA8CFC4FEAEC71042A03D14FFABA
:109B50008CFC4FEAEC71002907DA0A460021DCF19F
:109B6000000C61EB02012D2202E0220504D52B221C
:109B70008DF80420012203E0E20701D02022F7E75C
:109B8000904653E00A2102E010220DE010214FF030
:109B9000000A00910BE010224FF0000A44F0040488
:109BA0000827009203E008224FF0000A0092C4F355
:109BB0000252022A05D059F804CB0021032A08D00A
:109BC00009E009F1070121F00702F2E802C191461C
:109BD00005E01FFA8CFC042A01D10CF0FF0C4FF0B9
:109BE0000008220722D5702827D0009B83F010039D
:109BF00053EA0A0309D15CEA010206D030228DF84B
:109C000004208DF8050002229046009B83F0080393
:109C100053EA0A030AD15CEA010201D1620705D5C1
:109C200030228DF804204FF001087F1E582809D0FB
:109C300037A003900EA8029013E040228DF8042074
:109C40000122E1E737A0F4E753466046009AF6F7B1
:109C500090FD84460398825C0298A0F10100029076
:109C600002705CEA0100EFD1029806A9A1EB0000A6
:109C700000F1200A600702D524F4803400E00127B7
:109C8000574502DDA7EB0A0000E0002000EB0A01C7
:109C9000009005984144A0EB01000590E00306D434
:109CA0005B462146179A059800F0BBF9054400274A
:109CB00006E001A85A46C05D179990476D1C7F1CAD
:109CC0004745F6DBE0030CD55B462146179A05981D
:109CD00000F0A7F9054404E030205A461799904750
:109CE0006D1C0099481E00900029F5DC08E00298E0
:109CF00002995A460078491C0291179990476D1CA9
:109D0000BAF10001AAF1010AF1DC6BE109280100B6
:109D100030313233343536373839616263646566E1
:109D200000000000303132333435363738394142A3
:109D3000434445460000000000F060F9054406F188
:109D40000106307800287FF4E9AD19B02846BDE857
:109D5000F08F620700D4062709F1070222F0070CF2
:109D6000FCE80223E14603F000485FEA080C02D059
:109D70000FF27C2C0DE05FEA045C02D50FF2742C2C
:109D800007E05FEAC47C02D00FF26C2C01E0AFF276
:109D9000700C4FF0FF3823F00043CDF850C0652819
:109DA0000CD006DC452809D046281DD047283ED1D6
:109DB0003EE0662818D0672839D139E00021112FFC
:109DC00001DB112000E0781CCDE9000106A90EA8F6
:109DD000FFF7EEFCDDE90F010E9A039100210092DE
:109DE00007F1010A04914EE04FF000400097CDE9E1
:109DF000011006A90EA8FFF7DBFCDDE90F020392B4
:109E00000E9B11990022DDF80CA00093049219B961
:109E100007F1010100EB010AB7EB0A0004D4C0F11D
:109E2000FF3007F1010A0490AAEB0700019046E019
:109E3000012F00DA01270021112F01DD112000E0A0
:109E40003846CDE9000106A90EA8FFF7B1FCDDE90F
:109E50000F010E9A0391002104910092BA46210746
:109E60000CD40399514500DA8A46BAF1010F05DD99
:109E7000009AAAF10101515C302908D0B84202DAF7
:109E800010F1040F06DA0121CDE9011017E0AAF163
:109E90000101E9E7002805DC049901440491AAEBDB
:109EA000000102E0411C514500DD8A460499A0EB07
:109EB000010000F1010001904FF0004002902007E6
:109EC00004D40198504501DBCDF8048000208DF8C2
:109ED0004F0002980DF14F07B0F1004F25D02B2015
:109EE0000E9002984FF0020800280CDA40420290CF
:109EF0002D200E9007E00A210298F6F724FC30315D
:109F0000029007F8011DB8F10001A8F10108F2DC88
:109F100002980028EFD1791E0E980870307800F072
:109F2000200040F0450007F8020D12A8A0EB070042
:109F300000F107081498007800B1012000EB0A0135
:109F4000019801EBE07105984144A0EB0100A0F1FC
:109F500001000590E00306D45B462146179A059858
:109F600000F05FF805441498007820B15A4617991C
:109F7000904705F10105E00323D55B462146179A7A
:109F8000059800F04EF805441BE00498002807DB14
:109F9000DDE90301884203DD0098405C179901E088
:109FA000179930205A46904704986D1C401C049025
:109FB0000198401E019004D12E205A4617999047CF
:109FC0006D1CBAF10001AAF1010ADEDC05E017F808
:109FD000010B5A46179990476D1CB8F10001A8F182
:109FE0000108F4DC5B462146179A0598A4E60000B8
:109FF0002D0000002B000000200000002DE9F041A2
:10A00000044600251E461746880405D406E0394656
:10A010002020B04705F10105641EF8D52846BDE8AB
:10A02000F0812DE9F041044600251E469046C80304
:10A0300001D5302700E02027880405D506E04146F9
:10A040003846B04705F10105641EF8D52846BDE83D
:10A05000F0810A68531C0B601070704770B504469D
:10A0600000260025204600F071FD08B9681E70BD6D
:10A0700007E020782F2801D1641C0CE0701CC6B2C8
:10A08000641C207838B10A2E05DA20782C2802DDED
:10A0900020787B28EDDB00BF2078392805DC20788C
:10A0A000302802DB2078A0F13005641C20783928A4
:10A0B0000ADC2078302807DB05EB85004500207896
:10A0C000303805442846D2E76FF00100CFE730B5BD
:10A0D00004460B460021012A03D11131A3F10800E7
:10A0E0000144022A03D1891DA3F10800014406E0BE
:10A0F0006078257840EA05200144A41C9B1E012BB2
:10A10000F6D813B1207801EB002102E088B200EB11
:10A110001141080CFAD14FF6FF7581EA050030BDF8
:10A1200000B5284B21F0004287B09A42DCBF0022E4
:10A13000134631DD244B9A420DD168B94FF001002E
:10A14000FFF730FB002207B01346104611465DF8BA
:10A1500004EBF6F701BA06DB07B04FF001025DF839
:10A1600004EBF6F7FDBB02AAFEF7F6FF10F00301C1
:10A1700004BF0DF1080CBCE80F000DD0012001292F
:10A180000ED0022914D00DF1080C0090BCE80F008D
:10A19000FFF77AFA07B000BDFFF7A2F907B000BDDC
:10A1A0000DF1080C0090BCE80F00FFF76DFA05E018
:10A1B0000DF1080CBCE80F00FFF792F907B081F031
:10A1C000004100BDFB21E93F0000F07F10B50446CF
:10A1D00010204B490860FF220021104600F0C6F90C
:10A1E0000020484908600021082000F09BF9002168
:10A1F000092000F097F900210C2000F093F90021CC
:10A200000D2000F08FF9FE210A2000F08BF91921B2
:10A210000B2000F087F9FF21042000F083F91921B9
:10A22000052000F07FF9FF21062000F07BF91F21B7
:10A23000072000F077F9B021382000F073F93F21B2
:10A24000282000F06FF93021292000F06BF9F92166
:10A25000302000F067F9F721312000F063F90D217B
:10A26000C02000F05FF90021C12000F05BF933222B
:10A27000C221802000F07AF91221C62000F052F9A4
:10A280000C21C72000F04EF91521C42000F04AF936
:10A29000DC21CA2000F046F90521CB2000F042F96C
:10A2A0002178E42000F03EF96178E52000F03AF9E9
:10A2B000A178E22000F036F9E178E32000F032F9ED
:10A2C0002179E02000F02EF96179E12000F02AF9EF
:10A2D0004FF48071002000F0AAF84FF48071102034
:10A2E00000F0A5F81F2000F003F9C0221B218020F8
:10A2F00000F03CF904221F21802000F037F910BD46
:10A3000010080140080100202DE9F04105460F46E4
:10A31000392000F0A4F810B90020BDE8F0812948E8
:10A320000178002000F0FEF826480088C0F30721DD
:10A33000012000F0F7F800213A2000F0B7F8214999
:10A34000086000213A2000F0B1F81E49096841EA8E
:10A3500000201C49086000213A2000F0A7F80446BC
:10A3600000213A2000F0A2F844EA0024241F002132
:10A370003A2000F09BF8064600213A2000F096F8BB
:10A3800046EA0026681EA04200D26C1E16F0800F1E
:10A3900001D1002403E03946204600F06BF809485B
:10A3A00001780C2000F0BEF806480088C0F30721B1
:10A3B0000D2000F0B7F840221E21802000F0D6F8D2
:10A3C0002046AAE70801002070B504460D46FF218B
:10A3D000022000F0A7F81921032000F0A3F8FF20C5
:10A3E0002044C1B2062000F09DF841F6FF10204441
:10A3F000C0F30721072000F095F8002211467A20CB
:10A4000000F0B4F82946204600F098F808221F21F1
:10A41000802000F0ABF81C2000F021F810F0020FB3
:10A4200004D008221F21A02000F0A0F870BD70B554
:10A4300005460C462946D42000F074F8E1B2D62037
:10A4400000F070F8C4F30721D72000F06BF800BFCC
:10A45000EA2000F004F810F0010FF9D170BD10B53A
:10A460000446204600F044F82146002000F01EF883
:10A4700010BD000070B505460C4610200A49086062
:10A480003A20FAF7F7FC05E06D1E0020FAF7F2FC1F
:10A490002070641C002DF7D100202070102002498C
:10A4A000091F086070BD00001408014070B5054622
:10A4B0000C46002610200D49086004F01F0040EAF9
:10A4C00005063046FAF7D6FCFF20FAF7D3FC06461D
:10A4D00014F0800F03D0FF20FAF7CCFC06461020C2
:10A4E0000249091F0860304670BD00001408014091
:10A4F00010B5044604F060000949097888420ED07E
:10A5000003221F21A02000F031F8C4F341121F21C3
:10A51000802000F02BF804F060000149087010BDA5
:10A520000601002070B504460D462046FFF7E0FF07
:10A530002A462146402000F019F870BD70B5044647
:10A540000D461020084908607A20FAF793FC04E0D1
:10A55000641E2878FAF78EFC6D1C002CF8D11020B0
:10A560000149091F086070BD140801402DE9F04140
:10A5700004460D461646002710200949086005F0DC
:10A580001F0040EA04073846FAF774FC374638469D
:10A59000FAF770FC10200249091F0860BDE8F0813D
:10A5A0001408014010B502460B460021292B01D2A8
:10A5B000002010BD107B082802D1507B062801D056
:10A5C0000020F6E70AE001F12600105C054C645C0F
:10A5D000A04201D00020ECE7481CC1B20429F2DB04
:10A5E0000120E6E70201002010B502460B460021DB
:10A5F0002A2B01D2002010BD107B082801D1507BEE
:10A6000008B10020F7E7907B452801D00020F2E751
:10A610000AE001F11E00105C054C645CA04201D010
:10A620000020E8E7481CC1B20429F2DB0120E2E780
:10A630000201002030B504460020207660764020DC
:10A640002075002060754020A0750022142104F1BF
:10A650000E00FFF73CFD0546280A2076657630BDE2
:10A6600010B5034605E0147801F136001C54491C6E
:10A67000521C10780028F6D1084610BD10B50346CC
:10A6800005E012F8014B01F136001C54491C10780A
:10A690000028F6D1084610BD0448006818B10448E7
:10A6A0000068223070470020FCE70000A000002076
:10A6B0009C00002030B5034600200A4C227004E0C4
:10A6C0000C5C094D2C54441CE0B20428F8DB00203B
:10A6D00004E01C5C054D2C54441CE0B20628F8DB59
:10A6E00030BD00009800002002010020FC00002086
:10A6F000027C417C62F31F210B4A116011460968FC
:10A700001439116090F82E1009118900074A116060
:10A71000054909681268891A034A116011460968D7
:10A7200009B9002111607047A00000209C000020A2
:10A730000A48F9F71BFEF6F773FCF6F721FD084807
:10A74000F6F776FD0748F6F773FDF6F753FEF6F7D2
:10A75000A7FC0548FDF7DAF900BFFEE75401002029
:10A76000003801400044004010BB010870B50546A8
:10A770000024284600F04CF8002028750220687557
:10A780000BE004F11600295C0A3029540E48015DE3
:10A7900004F116002954601CC4B2062CF1DB00241D
:10A7A0000BE004F11C00295C0A3029540748015DC4
:10A7B00004F11C002954601CC4B2042CF1DB2946AE
:10A7C0002A20FFF701FE70BDFC00002002010020DE
:10A7D00070B504460D46204600F01AF8204600F0F9
:10A7E00029F8002084F8220094F82400F72804DDDA
:10A7F00094F82500401C84F8250094F824000830C3
:10A8000084F8240021462846FFF7DEFD70BD0000D5
:10A810000146002008E0821D8A5C0A54044A135C49
:10A82000821D8B54421CD0B20628F4DB7047000016
:10A83000FC00002030B5054600240BE004F11A00AE
:10A84000295C001D29540648015D04F11A002954B1
:10A85000601CC4B2042CF1DB2846FFF7EBFE30BDD0
:10A860000201002070B504462046FFF7D1FF1020FA
:10A8700084F82F001448006830B9012300221946DB
:10A88000204600F06FF806E0012300220E48016820
:10A89000204600F067F82825280A207465742046B1
:10A8A000FFF7C8FF02221C2104F11A00FFF70FFC7A
:10A8B0000546280A84F8320084F8335021463620B1
:10A8C000FFF782FD70BD0000A000002070B50446B7
:10A8D0000D46192084F82F0005F12806300A20744F
:10A8E00066742046FFF7A6FE002084F8320084F844
:10A8F000330005F11C01022204F11A00FFF7E7FB07
:10A900000646300A84F8320084F8336005F13600D8
:10A910002146FFF759FD70BD70B504462046FFF78C
:10A9200077FF002020742C2060742046FFF782FF00
:10A93000122084F82F00002301221146204600F047
:10A9400011F80222202104F11A00FFF7C0FB05468E
:10A95000280A84F8320084F8335021463A20FFF761
:10A9600033FD70BDF0B50C46002109E001F122066F
:10A97000875DB61C87550027B61E87554E1CF1B261
:10A980000229F3DB244E367880F82360042112E09C
:10A9900001F12506865D344401F12906855D845563
:10A9A00013B1361F855503E0002701F125068755B1
:10A9B000240A4E1EF1B20029EADC83B9002600F811
:10A9C000266F4670154E367886700026C670A0F148
:10A9D0002600124E367806F10206104F3E704FF0F8
:10A9E000000680F8326080F833608AB1022600F1F8
:10A9F0002E0006724FF0040646724FF0050686726E
:10AA00004FF08006C6724FF0600600F82E6902E033
:10AA1000502680F82E60F0BD98000020A400002091
:10AA20002DE9F0470446894615461F460026204674
:10AA3000FFF7EEFE05F11C06300A2074667420460E
:10AA4000FFF7F8FE380A04F8240F6770280AA07090
:10AA500005F10800E070002020716071A4F1240469
:10AA600005E019F8061006F12A002154761CAE42C2
:10AA7000F7D305F11001012204F11A00FFF727FBBB
:10AA800080464FEA182084F8280084F8298005F1D0
:10AA90002A002146FFF798FCBDE8F08700B5294B56
:10AAA00021F0004287B09A4203DC00221346009254
:10AAB00033E0254B9A420DD168B94FF00100FEF703
:10AAC00071FE002207B01346104611465DF804EBF4
:10AAD000F5F742BD06DB07B04FF001025DF804EB6D
:10AAE000F5F73EBF02AAFEF737FB10F003014FF067
:10AAF00001000DD0012914D002291AD00DF1080C43
:10AB0000BCE80F00FEF7ECFC07B081F0004100BD8F
:10AB10000DF1080C0090BCE80F00FEF7B5FD07B082
:10AB200000BD0DF1080CBCE80F00FEF7D9FC07B022
:10AB300000BD0DF1080C0090BCE80F00FEF7A4FD6D
:10AB4000E2E70000FB21E93F0000F07F10B504467A
:10AB5000052221460348F5F709FB08B9012010BD7D
:10AB60000020FCE7CC00002000C1814001C08041F2
:10AB700001C0804100C1814001C0804100C18140CD
:10AB800000C1814001C0804101C0804100C18140BD
:10AB900000C1814001C0804100C1814001C08041AD
:10ABA00001C0804100C1814001C0804100C181409D
:10ABB00000C1814001C0804100C1814001C080418D
:10ABC00001C0804100C1814000C1814001C080417D
:10ABD00001C0804100C1814001C0804100C181406D
:10ABE00000C1814001C0804101C0804100C181405D
:10ABF00000C1814001C0804100C1814001C080414D
:10AC000001C0804100C1814000C1814001C080413C
:10AC100001C0804100C1814001C0804100C181402C
:10AC200000C1814001C0804100C1814001C080411C
:10AC300001C0804100C1814001C0804100C181400C
:10AC400000C1814001C0804101C0804100C18140FC
:10AC500000C1814001C0804100C1814001C08041EC
:10AC600001C0804100C1814000C0C101C30302C2D4
:10AC7000C60607C705C5C404CC0C0DCD0FCFCE0E3C
:10AC80000ACACB0BC90908C8D81819D91BDBDA1AAC
:10AC90001EDEDF1FDD1D1CDC14D4D515D71716D61C
:10ACA000D21213D311D1D010F03031F133F3F2328C
:10ACB00036F6F737F53534F43CFCFD3DFF3F3EFEFC
:10ACC000FA3A3BFB39F9F83828E8E929EB2B2AEA6C
:10ACD000EE2E2FEF2DEDEC2CE42425E527E7E626DC
:10ACE00022E2E323E12120E0A06061A163A3A2624C
:10ACF00066A6A767A56564A46CACAD6DAF6F6EAEBC
:10AD0000AA6A6BAB69A9A86878B8B979BB7B7ABA2B
:10AD1000BE7E7FBF7DBDBC7CB47475B577B7B6769B
:10AD200072B2B373B17170B050909151935352920B
:10AD300096565797559594549C5C5D9D5F9F9E5E7B
:10AD40005A9A9B5B99595898884849894B8B8A4AEB
:10AD50004E8E8F4F8D4D4C8C44848545874746865B
:10AD60008242438341818040060C0000E0AD000830
:10AD70000000000063B2000854B200080810000090
:10AD80000BB300080000000004B90008FBB800087D
:10AD90000818000084B900080000000075C200080F
:10ADA0006CC200080C18000035C300080000000049
:10ADB0000ED5000805D50008102000002ED600088A
:10ADC00000000000F7ED0008EEED0008183000006C
:10ADD000F7EF000800000000702501086725010852
:10ADE000000000000000000000000000000004045B
:10ADF000040404000004000014140A000000000011
:10AE00000000000000000A0A1F0A0A1F0A0A0000C8
:10AE100000040E1505060C14150E04000000121592
:10AE20000D152E2C2A1200000000040A0A361515F2
:10AE300029160000020201000000000000000000CE
:10AE4000100808040404040408081000020404089C
:10AE5000080808080404020000000004150E0E157E
:10AE60000400000000000008083E08080000000080
:10AE700000000000000000000202010000000000CD
:10AE8000003F000000000000000000000000000083
:10AE90000002000000201010080804040202010053
:10AEA00000000E1111111111110E00000000040616
:10AEB00004040404040E000000000E111108040232
:10AEC000011F000000000E11100C1010110E0000E8
:10AED0000000080C0C0A091F081C000000001F01DC
:10AEE000010F1110110E000000000C12010D1311C2
:10AEF000110E000000001E100808040404040000E5
:10AF000000000E11110E1111110E000000000E11A3
:10AF100011191610090600000000000004000000CE
:10AF20000004000000000000000400000004040011
:10AF300000001008040202040810000000000000D5
:10AF40003F003F000000000000000204081010084D
:10AF50000402000000000E111108040400040000A7
:10AF600000001C22292D2D1D221C000000000404BD
:10AF70000C0A0A1E1233000000000F12120E1212E9
:10AF8000120F000000001E1101010101110E00004E
:10AF900000000F1212121212120F000000001F12F6
:10AFA0000A0E0A02121F000000001F120A0E0A02F7
:10AFB0000207000000001C1201013911120C0000F0
:10AFC00000003312121E12121233000000001F0480
:10AFD00004040404041F000000003E0808080808D8
:10AFE00008080907000037120A060A121237000083
:10AFF0000000070202020202223F000000003B1B89
:10B000001B1B15151535000000003B1216161A1AE9
:10B010001217000000000E1111111111110E000085
:10B0200000000F12120E02020207000000000E11B3
:10B0300011111117190E180000000F12120E0A122A
:10B040001237000000001E1101060810110F000049
:10B0500000001F1504040404040E00000000331255
:10B0600012121212120C000000003312120A0A0C03
:10B07000040400000000151515150E0A0A0A000048
:10B0800000001B0A0A04040A0A1B000000001B0A35
:10B090000A0A0404040E000000001F090804040248
:10B0A000121F00001C0404040404040404041C0013
:10B0B0000002020404040808081010000E08080822
:10B0C0000808080808080E00040A00000000000034
:10B0D0000000000000000000000000000000003F31
:10B0E000020400000000000000000000000000005A
:10B0F000000C121C123C000000030202020E12128D
:10B10000120E000000000000001C1202120C0000D1
:10B1100000181010101C1212123C00000000000059
:10B12000000C121E021C000000182404041E04045B
:10B13000041E000000000000003C120C021C221C37
:10B1400000030202020E1212123700000004040073
:10B1500000060404040E000000080800000C0808A3
:10B160000808080700030202021A0A060A13000070
:10B170000007040404040404041F0000000000008D
:10B18000000F15151515000000000000000F121229
:10B190001237000000000000000C1212120C000018
:10B1A00000000000000F1212120E02070000000043
:10B1B000001C1212121C103800000000001B0602B6
:10B1C0000207000000000000001E020C101E00001C
:10B1D00000000004041E0404041C00000000000021
:10B1E000001B1212123C000000000000001B0A0AA3
:10B1F00004040000000000000015150E0A0A0000FB
:10B2000000000000001B0A040A1B000000000000F0
:10B21000003312120C08040300000000001E080492
:10B22000041E000018080808080C08080808180080
:10B23000080808080808080808080808060404049C
:10B2400004080404040406001609000000000000BD
:10B2500000000000B2E2CAD4D7D6CCE5CDAFBEAA7A
:10B26000D3EE00007D4654545556545412294404DC
:10B2700004050505050505050404060102F00003A3
:10B280007222222262360205010701010101010139
:10B290000506041020FF0100FC8040FF202038003C
:10B2A0000007040001000007000000444442FA4384
:10B2B000E2524A46F242420000000300000102044A
:10B2C00001000020FE88FF22FE22FE20FE20FF005B
:10B2D00003000702030203000300074484F40DE5A2
:10B2E0002525E484A494C40000070003020203009F
:10B2F0000204001020FF0101FC2020FF2020380064
:10B300000007040401000007000000000000000026
:10B31000000000000000000000000000000008081D
:10B320000808080808000008080000004824241243
:10B33000000000000000000000000000000048487D
:10B34000487E2424247E24242400000000103C5243
:10B3500052121C30505052523C1010000000222556
:10B3600015150D2A585454522200000000000C12EA
:10B3700012120A76252919916E00000006040402B3
:10B38000000000000000000000000000402010103D
:10B3900008080808080810102040000002040808E7
:10B3A000101010101010080804020000000000081F
:10B3B000086B1C1C6B080800000000000000000067
:10B3C000101010FE1010100000000000000000001F
:10B3D000000000000000000604040200000000005D
:10B3E0000000007E000000000000000000000000DF
:10B3F00000000000000000060600000000402020C1
:10B40000201010080808040402020000000018249C
:10B410004242424242424224180000000000101CF6
:10B4200010101010101010107C00000000003C42A2
:10B4300042424020100804427E00000000003C42CE
:10B4400042402018204042423C00000000002030D2
:10B450003028242422FE2020F800000000007E0274
:10B4600002021E22404042221C000000000018245C
:10B4700002023A46424242443800000000007E4246
:10B4800020201010080808080800000000003C42B6
:10B4900042422418244242423C00000000001C2288
:10B4A000424242625C40402418000000000000005C
:10B4B000001818000000001818000000000000002C
:10B4C00000000800000000000808080000004020FC
:10B4D00010080402040810204000000000000000D2
:10B4E000007E00007E00000000000000000002045A
:10B4F00008102040201008040200000000003C4218
:10B5000042462010101000181800000000001C22F5
:10B510005A55555555553A423C0000000000080860
:10B52000181414243C224242E700000000001F22AD
:10B5300022221E22424242221F00000000007C42C2
:10B5400042010101010142221C00000000001F22F3
:10B5500042424242424242221F00000000003F425B
:10B5600012121E12120242423F00000000003F422F
:10B5700012121E12120202020700000000003C22FA
:10B5800022010101712122221C0000000000E7427B
:10B590004242427E42424242E700000000003E0832
:10B5A00008080808080808083E00000000007C1091
:10B5B000101010101010101010110F000000772242
:10B5C000120A0E0A1212222277000000000007025F
:10B5D00002020202020202427F00000000007736EF
:10B5E000363636362A2A2A2A6B0000000000E34647
:10B5F000464A4A52525262624700000000001C2232
:10B6000041414141414141221C00000000003F42B4
:10B610004242423E020202020700000000001C22D9
:10B620004141414141414D321C60000000003F4218
:10B6300042423E1212222242C700000000007C4219
:10B6400042020418204042423E00000000007F49B0
:10B6500008080808080808081C0000000000E74265
:10B6600042424242424242423C0000000000E74265
:10B6700042222424141418080800000000006B2A39
:10B680002A2A2A2A36141414140000000000E74263
:10B690002424181818242442E70000000000772210
:10B6A00022141408080808081C00000000007E216D
:10B6B00020101008040442423F00000078080808E7
:10B6C00008080808080808080878000000020404B0
:10B6D0000408080810102020204040001E10101000
:10B6E0001010101010101010101E00001824000070
:10B6F000000000000000000000000000000000004A
:10B7000000000000000000000000FF00060800002C
:10B710000000000000000000000000000000000029
:10B7200000001C22302C22326C00000000000003BC
:10B7300002021A26424242261A00000000000000BF
:10B74000000038440202024438000000000000609B
:10B7500040407C4242424262DC00000000000000A7
:10B7600000003C42427E02423C00000000000030EB
:10B7700048083E08080808083E00000000000000D5
:10B7800000007C22221C023C42423C0000000003DC
:10B7900002023A4642424242E700000000000C0C1E
:10B7A00000000E08080808083E00000000003030C5
:10B7B000000038202020202020221E00000000034E
:10B7C000020272120A0E1222770000000000080E18
:10B7D00008080808080808083E00000000000000EB
:10B7E00000007F9292929292B70000000000000049
:10B7F00000003B4642424242E700000000000000D9
:10B8000000003C42424242423C0000000000000076
:10B8100000001B26424242261A02070000000000D8
:10B8200000005864424242645840E00000000000BA
:10B830000000774C040404041F0000000000000016
:10B8400000007C42023C40423E000000000000003C
:10B8500008083E0808080848300000000000000002
:10B860000000634242424262DC000000000000002F
:10B8700000007722221414080800000000000000D5
:10B880000000DB91525A2A2424000000000000002E
:10B8900000006E2418181824760000000000000034
:10B8A0000000E742242418180808060000000000E1
:10B8B00000007E22100808447E000000C0202020E6
:10B8C000202020102020202020C000101010101058
:10B8D00010101010101010101010100003040404A9
:10B8E0000404040804040404040300045A200000AF
:10B8F0000000000000000000000000B2E2CAD4D73F
:10B90000D6CCE50000E42828A1A2A2A8A8A4A78478
:10B91000444424102023222A2A2A2A2A2A2A2A2096
:10B920002122281000040808E0000FE8888888A871
:10B9300098E84000142424047F040407040808083D
:10B94000535060404080FE0201F8000080FF80807C
:10B950008080A04000007F4020070201007F00009F
:10B960000000000010101008E80C0C0A898848A894
:10B9700018080808020202023F0207070A0A122FEB
:10B98000420202020000000000000000000000006F
:10B9900000000000000000000000000000000000A7
:10B9A00008181818180808080808080000000818DF
:10B9B000180000000000686C241412000000000051
:10B9C0000000000000000000000000000000000077
:10B9D000044424247E7E24242424247E7E222222C5
:10B9E00020000000000000001834347232140C18DB
:10B9F0001830305056565234181000000000000025
:10BA000002262529191919156E689898949494623C
:10BA100062000000000000000814121212120C0450
:10BA200026262929291191B24C00000000000606A3
:10BA300004040202000000000000000000000000FA
:10BA400000000000000040402020101010100808E6
:10BA5000080808101010102020400000000002020A
:10BA6000040408080808080810080808080808045A
:10BA7000040200000000000000000018184A6E3C9C
:10BA8000182C6E4A0818000000000000000000009A
:10BA90000000001010101010FE1010101000000018
:10BAA0000000000000000000000000000000000096
:10BAB000000000000000060604040202000000006E
:10BAC00000000000000000007F00000000000000F7
:10BAD0000000000000000000000000000000000066
:10BAE0000000000000000606060000000000004004
:10BAF0004040202020101010080808080404040208
:10BB00000202000000000000182424424242424287
:10BB10004242424242422424180000000000000039
:10BB20001010181010101010101010101010101805
:10BB30003C00000000000000182442424242402025
:10BB4000201008080444427E7E000000000000002F
:10BB500018242262622020101020404042424222DB
:10BB60001C00000000000000202030302828242481
:10BB70002222227E202020207800000000000000E9
:10BB8000007C020202021A266240404042424222E7
:10BB90001C00000000000000102C64020202122AA7
:10BBA0004642424242424624180000000000000083
:10BBB000007E4222202010101010080808080808F3
:10BBC0000800000000000000182442424242262CD7
:10BBD0001C326242424242221C000000000000006F
:10BBE00018242242424242426256484040202616D1
:10BBF0000C00000000000000000000000000181809
:10BC000000000000000008181800000000000000FC
:10BC100000000000000018180000000000000018DC
:10BC20001808080000000000402020100808040246
:10BC30000204040810102040400000000000000032
:10BC40000000000000003E0000007F000000000037
:10BC50000000000000000000020404081010204052
:10BC6000402020100808040202000000000000002C
:10BC700018244242424240201010080800000818D0
:10BC80001800000000000000102C4472AAAAAAAA02
:10BC9000A6A6A6762A8242443800000000000000D2
:10BCA000001818181814142424243C22226242423A
:10BCB000E300000000000000003E424242426232C7
:10BCC0002E424242424242621F0000000000000039
:10BCD000106C4442020202020202020202424224A8
:10BCE0001800000000000000003E22424242424292
:10BCF00042424242424222320F0000000000000055
:10BD0000007E4202022222223E222202028242427D
:10BD10007F00000000000000007E4282020202223A
:10BD20003E220202020202020700000000000000A0
:10BD30001824444242020203030342424242426444
:10BD4000180000000000000000424242424242420D
:10BD50007E42424242424242E700000000000000B0
:10BD6000003C181818181818181818181818181847
:10BD70007E0000000000000000782020202020200D
:10BD800020202020202020201012120C0000000073
:10BD90000022222212120A0A1616123222222242ED
:10BDA000E700000000000000000606060606060682
:10BDB00006060606068646467F00000000000000D4
:10BDC00000424262666666565656565A4A4A4A4A81
:10BDD000EB0000000000000000424646464A4A4A86
:10BDE000525252626262424247000000000000006C
:10BDF00018244442424242C2C2C242424242422407
:10BE00001800000000000000003E42424242424250
:10BE10003E020202020202020700000000000000CF
:10BE20001824424242424242424242425E56562414
:10BE30003860600000000000003E42424242422260
:10BE40001E12122222222242C7000000000000001F
:10BE5000186442420202060C18206040404242260A
:10BE60001800000000000000007E490908080808CA
:10BE700008080808080808083C0000000000000046
:10BE800000424242424242424242424242424224F2
:10BE90001800000000000000004242422424242434
:10BEA00024141818181808080000000000000000EA
:10BEB000005252525252525A5A5A34342424242490
:10BEC0000400000000000000004624242418181874
:10BED0001018181824242442E70000000000000075
:10BEE00000424224242424181818080808080808C6
:10BEF0003C00000000000000007E422020201010C6
:10BF000018080804040442427E000000000078087B
:10BF100008080808080808080808080808080808A1
:10BF2000080878000000000002040404040808085F
:10BF300008101010102020204040404000001E102B
:10BF400010101010101010101010101010101010F1
:10BF500010101E0000001824000000000000000067
:10BF600000000000000000000000000000000000D1
:10BF700000000000000000000000000000000000C1
:10BF8000000000FF00000C10000000000000000096
:10BF900000000000000000000000000000000000A1
:10BFA0000000000000003C22222038242222A2B2FD
:10BFB0004C000000000000000202020202023A46A9
:10BFC00046424242424242261A000000000000005F
:10BFD0000000000000003824620202020202422433
:10BFE00018000000000000004040404040405864FD
:10BFF00042424242424262E4180000000000000057
:10C0000000000000000038244242423E0202422466
:10C0100018000000000000000070C80808083E0872
:10C0200008080808080808083E0000000000000092
:10C030000000000000005C24222222241C020C7C50
:10C040004242423C000000000202020202023A2682
:10C050004242424242424242E700000000000000E9
:10C060000018100000000C08080808080808080854
:10C070003C000000000000002020200000003820CC
:10C0800020202020202020202020221C0000000032
:10C09000000202020202722212120A161222224226
:10C0A000E60000000000000008080808080808086A
:10C0B00008080808080808083C0000000000000004
:10C0C0000000000000006F5252525252525252521F
:10C0D000DB000000000000000000000000003A2625
:10C0E0004242424242424242E70000000000000059
:10C0F00000000000000038244242424242424224F2
:10C1000018000000000000000000000000003B4696
:10C1100042424242424242261A0202060000000007
:10C120000000000000005864424242424242426421
:10C13000584040600000000000000000000066540D
:10C140000C040404040404041F00000000000000A8
:10C150000000000000003C4442040C3860424246AB
:10C160003A000000000000000000080808083E082F
:10C1700008080808080848483000000000000000CF
:10C18000000000000000634242424242424262D448
:10C190000C000000000000000000000000006644E9
:10C1A00024242424181818080000000000000000AF
:10C1B000000000000000DB5252525A5A343424244A
:10C1C00004000000000000000000000000006E24D9
:10C1D0002418181018242424660000000000000011
:10C1E00000000000000066242424242818181810D9
:10C1F00008080A06000000000000000000003E22BF
:10C2000022101008084444423E0000000000202094
:10C210002020202020201010081010202020202076
:10C2200020204000101010101010101010101010CE
:10C230001010101010101010101010100000040436
:10C240000404040404040808100804040404040496
:10C2500004040200000E8A5060000000000000008C
:10C26000000000000000000000000000B2E2CAD49C
:10C27000D7D6CCE500000004E8282820A2B2B4B448
:10C28000A8A8A8A8A46644444424140800000022D6
:10C2900023223A2A2A2A2A2A2A2A2A2A2A2828210A
:10C2A000222232200000000004080808E800000CE8
:10C2B0000AC8080808082828987808000000001C08
:10C2C000242424447F0404080A0D09090909115390
:10C2D00071606040000000800000F804040CF00071
:10C2E000000000FE000000000000E08000000000F0
:10C2F00001217F2010080F040201017F01010101CB
:10C30000010100000000001010100808E8080C0CE3
:10C310008A8A88484828E8180808080800000006A3
:10C32000020202227F070B0B0A0A121222621F026C
:10C3300002020202000000000000000000000000F5
:10C3400000000000000000000000000000000000ED
:10C3500000000000000000000000000000000000DD
:10C36000000000000000000000606060606060602D
:10C3700040202020000000606060000000000000FD
:10C3800000000000000000000000000000000000AD
:10C390000000000000000060603098884400000049
:10C3A0000000000000000000000000000000000687
:10C3B0000603010000000000000000000000000073
:10C3C00000000000000000000010101010FEFE0829
:10C3D00008080808FEFE0404040400000000000031
:10C3E0000002020202070702010101010707010121
:10C3F00001010000000000004040F0584CCC4C58B7
:10C4000070E0C0C0404C5C4C48F040400000000070
:10C410000000010303030000000001010303030304
:10C420000100000000000000000E0A91919151519E
:10C430003AAEA050504848488484000000000000F4
:10C4400000010100000000000003020404040404D1
:10C45000020300000000000000386C6C6C6C6C2C57
:10C46000981C1A333363E3C3C63C0000000000008D
:10C4700000000000000000000701010101010008A8
:10C48000090700000000000C1C1010080400000048
:10C49000000000000000000000000000000000009C
:10C4A000000000000000000000000000000000008C
:10C4B00000000000000000000000808040402020BC
:10C4C0002020202020404080800000000000000448
:10C4D0000201000000000000000000000000000059
:10C4E0000001020400000002040810102020404057
:10C4F000404040404020201010080402000000008E
:10C50000000000000000000000000000000000002B
:10C51000000000000000000000000040C040464E47
:10C52000D0F05E46404040000000000000000000E7
:10C530000000000000000C0F01010F0C00000000C3
:10C5400000000000000000000000000040404040EB
:10C5500040FE40404040400000000000000000005D
:10C560000000000000000000000F000000000000BC
:10C5700000000000000000000000000000000000BB
:10C58000000000000000000C1C1010080400000057
:10C59000000000000000000000000000000000009B
:10C5A000000000000000000000000000000000008B
:10C5B00000FE00000000000000000000000000007D
:10C5C0000000000000000000000700000000000064
:10C5D000000000000000000000000000000000005B
:10C5E000000000000000001C1C1C000000000000F7
:10C5F000000000000000000000000000000000003B
:10C6000000000000000000000000000000808040EA
:10C6100040602020101008080C04060200000004EE
:10C6200006020301010000000000000000000000FD
:10C6300000000000000000000000F0980C0C06064E
:10C640000606060606060C0C98F000000000000026
:10C65000000000010303060606060606060603039D
:10C6600001000000000000000000407C606060608D
:10C67000606060606060606060FC0000000000005E
:10C6800000000000000000000000000000000000AA
:10C6900000030000000000000000F884020606000D
:10C6A0000080C0602010080406FE000000000000AA
:10C6B0000000000103030303010100000000020267
:10C6C0000203000000000000000078C6868680801B
:10C6D000C07080000000060686F800000000000020
:10C6E0000000000001010101000001010303030338
:10C6F000010000000000000000008080C0A0A090A9
:10C7000088888482FE80808080E000000000000035
:10C710000000010101010101010101010F010101FD
:10C7200001070000000000000000FC0404040404F1
:10C73000F48C04000006068284F80000000000006B
:10C7400000000300000000000001030303030301D5
:10C7500001000000000000000000E0180C0C0406BE
:10C76000E6160E060606040C18F000000000000095
:10C77000000001030300000001030606060606028E
:10C7800003000000000000000000F80C040400009A
:10C7900080804040406060606060000000000000F9
:10C7A0000000070602010101000000000000000077
:10C7B00000000000000000000000F80C0606060C57
:10C7C0001CF0C80C060606060CF000000000000075
:10C7D0000000010306060602030001030606060622
:10C7E00003010000000000000000F00C0C0606062B
:10C7F00006068C780000000C8C7800000000000019
:10C8000000000001030206060607060606030301F0
:10C81000010000000000000000000000000000E037
:10C82000E0E00000000000E0E0E0000000000000A8
:10C8300000000000000000000000000000000000F8
:10C840000000000000000000000000000000006088
:10C850006000000000000000606040202000000038
:10C8600000000000000000000000000000000000C8
:10C8700000000000000000000000000080402010C8
:10C8800008040810204080000000000000000000A4
:10C890000004020100000000000000000000000190
:10C8A000020400000000000000000000000000FE84
:10C8B000000000FE0000000000000000000000007A
:10C8C000000000000000000700000007000000005A
:10C8D000000000000000000000040810204080005C
:10C8E000000000008040201008040000000000004C
:10C8F000000000000000000102040201000000002E
:10C9000000000000000000000000E01804040C0C0F
:10C9100000804040400000E0E0E000000000000037
:10C92000000003060C0C0C0C0701000000000000C6
:10C93000000000000000000000E0180CCC6466A6B7
:10C94000B6B6B6B6B6E40C0C18F000000000000055
:10C9500000000302050505050404040402010402A5
:10C9600003000000000000000000606050D09090C4
:10C97000888808F804040402020F00000000000088
:10C98000000000000000000000010101030302029A
:10C99000060F0000000000000000FE8C0C0C0C0CC8
:10C9A0008CFC0C0C0C0C0C0C0CFE000000000000AD
:10C9B000000000030303030301000302060606064A
:10C9C00003010000000000000000E0180C0C040649
:10C9D0000606060606060C0C18F000000000000013
:10C9E0000000030306040400000000000004040229
:10C9F000030000000000000000007F8C0C0C0C0CF9
:10CA00000C0C0C0C0C0C0C0C8C7F000000000000BB
:10CA100000000001030306060606060606060303D9
:10CA200001000000000000000000FF060606068668
:10CA300086FE86868606060606FF000000000000C9
:10CA400000000303040400000000000000000404D0
:10CA500002030000000000000000FF060606068634
:10CA600086FE868686060606061F00000000000079
:10CA700000000303040400000000000000000000A8
:10CA800000000000000000000000F0180C0C04067C
:10CA9000060606C606060C0C18F000000000000092
:10CAA00000000001020202000000000F0303030364
:10CAB000030000000000000000000F060606060646
:10CAC00006FE060606060606060F00000000000029
:10CAD00000000F06060606060607060606060606F8
:10CAE000060F0000000000000000FC606060606055
:10CAF000606060606060606060FC000000000000DA
:10CB00000000030000000000000000000000000022
:10CB100000030000000000000000F8C0C0C0C0C05A
:10CB2000C0C0C0C0C0C0C0C0C0C0C6663C0000001D
:10CB300000000700000000000000000000000000EE
:10CB400000000000000000000000CF86C646261648
:10CB5000362E6E46C6868606068F00000000000050
:10CB600000000301000000000000000000000101BF
:10CB7000030700000000000000001F06060606066E
:10CB8000060606060606060606FF00000000000070
:10CB9000000000000000000000000000000004048D
:10CBA000020300000000000000000786868E8E4E03
:10CBB0004E4A5A5A3A3232321287000000000000C0
:10CBC0000000070303030303030303030303030337
:10CBD000030700000000000000008E0C1C1C343411
:10CBE000646444C484848404041F000000000000C2
:10CBF00000000F0202020202020202020203030309
:10CC000003020000000000000000F0980C0C060673
:10CC10000606060606060C0C98F000000000000050
:10CC200000000001030206060606060606060203C9
:10CC300001000000000000000000FF0606060606D6
:10CC40000686FE0606060606061F00000000000017
:10CC500000000003060606060603000000000000B0
:10CC600000000000000000000000F0980C0C060618
:10CC70000606060606764CCC98F080000000000000
:10CC80000000000103020606060606060606020369
:10CC900001000703000000000000FF06060606066C
:10CCA00006FE46C686860606060F00000000000047
:10CCB000000001030606060603000000000103034E
:10CCC000060E0000000000000000F80C0606060E2C
:10CCD0003CF8E080000202060CF0000000000000BA
:10CCE000000002030202000000000303070606061C
:10CCF00003010000000000000000FE62616160604E
:10CD0000606060606060606060F8000000000000CB
:10CD100000000704080800000000000000000000F8
:10CD2000000100000000000000001E0C0C0C0C0CA8
:10CD30000C0C0C0C0C0C0C0C18F00000000000008B
:10CD400000000702020202020202020202020202C2
:10CD5000010000000000000000000F0604040C0C9D
:10CD60008888989850507030202000000000000003
:10CD700000000702010101010000000000000000A6
:10CD800000000000000000000000F7624246466418
:10CD900064E4E49C9C989888888800000000000067
:10CDA00000000E0404040402020202020101010157
:10CDB000000000000000000000009E0C081890B069
:10CDC00060206060D0908808048E000000000000A1
:10CDD0000000070101010000000000000000010147
:10CDE000030700000000000000000F06040C0818F4
:10CDF000B8B070606060606060F800000000000023
:10CE000000000F0402020101000000000000000009
:10CE100000010000000000000000FC0C0602808001
:10CE2000404020201018080C04FE00000000000004
:10CE300000000702030101000000000000000404DC
:10CE400002030000000000E02020202020202020FD
:10CE50002020202020202020202020E0000000038F
:10CE600000000000000000000000000000000000C2
:10CE70000000000300000000000404080810101067
:10CE800020204040C0808000000000000000000022
:10CE90000000000000000000000000000000000191
:10CEA000010202020400007C4040404040404040FB
:10CEB00040404040404040404040407C0000000036
:10CEC0000000000000000000000000000000000062
:10CED000000000000000609008000000000000005A
:10CEE0000000000000000000000000000000000042
:10CEF0000100000000000000000000000000000031
:10CF00000000000000000000000000000000000021
:10CF1000000000000000000000000000FF00000012
:10CF20000000000000000000000000000000000001
:10CF3000000000000F00001860000000000000006A
:10CF400000000000000000000000000000000000E1
:10CF500000000000000000000000000000000000D1
:10CF6000000000000000000000000000000000F0D1
:10CF70000C0C00E01C0E06068E7C00000000000079
:10CF80000000000000000001030303030303030388
:10CF90000B0E00000000000000080E0C0C0C0CCC66
:10CFA0003C1C0C0C0C0C0C0C1CE4000000000000E1
:10CFB0000000000000000001030606060606060247
:10CFC000030100000000000000000000000000F06D
:10CFD0008C8C86060606060C0CF000000000000093
:10CFE000000000000000000001010100000002023A
:10CFF00001000000000000000000C00000000078F8
:10D000008C0C0606060606048C7800000000000062
:10D0100000020303030303030303030303030303E4
:10D02000070100000000000000000000000000E018
:10D0300018080C0CFC0C0C1818E000000000000094
:10D0400000000000000000010302060607000004C3
:10D0500002010000000000000000C060303030FE1F
:10D06000303030303030303030FC00000000000014
:10D0700000000306060000010000000000000000A0
:10D08000000100000000000000000000000000F0AF
:10D09000D88C8C8C98F80CFCCC06068EF80000001E
:10D0A000000000000000000706010101010000006F
:10D0B000030303030000000000080E0C0C0C0CEC32
:10D0C0001C0C0C0C0C0C0C0C0C9E00000000000046
:10D0D0000000000000000001030303030303030337
:10D0E0000307000000000000000060600000407CBA
:10D0F000606060606060606060FC000000000000D4
:10D10000000000000000000000000000000000001F
:10D1100000030000000000000000C0C0000000F09C
:10D120008080808080808080808080CC7C00000037
:10D1300000000101000001010101010101010101E3
:10D14000010101000000000000080E0C0C0C0C8C0A
:10D150008C8C4C6C5C8C8C0C0C9E000000000000D5
:10D1600000000000000000030000000000000101BA
:10D17000030700000000000000407C606060606009
:10D18000606060606060606060FC00000000000043
:10D19000000000000000000000000000000000008F
:10D1A0000003000000000000000000000000003745
:10D1B000EE6666666666666666FF00000000000052
:10D1C0000000000000000007060606060606060628
:10D1D000060F00000000000000000000000000EE4C
:10D1E0001C0C0C0C0C0C0C0C0C9E00000000000025
:10D1F0000000000000000001030303030303030316
:10D20000030700000000000000000000000000F024
:10D21000980C06060606060C0CF000000000000044
:10D2200000000000000000000103060606060603D9
:10D23000030000000000000000000000000000EEFD
:10D240001C0C0C0C0C0C0C0C1CEC0C0C3E00000010
:10D2500000000000000000010306060606060603A3
:10D260000301000000000000000000000000007842
:10D270008C0C0606060606048C780000C000000030
:10D280000000000000000002030303030303030384
:10D290000303030307000000000000000000009FDC
:10D2A000583818181818181818FF00000000000047
:10D2B000000000000000000306060000000000005F
:10D2C000000000000000000000000000000000F06E
:10D2D0001C0C0C38F0C004048CFC000000000000A2
:10D2E000000000000000000303020200000303032B
:10D2F000030100000000000000000020203030FE8C
:10D30000303030303030303030E00000000000008D
:10D31000000000000000000100000000000000020A
:10D320000201000000000000000000000000088E64
:10D330000C0C0C0C0C0C0C0C9C7800000000000079
:10D3400000000000000002030303030303030303C0
:10D350000701000000000000000000000000001EA7
:10D360000C08081890B0B0606020000000000000B9
:10D3700000000000000000070201010100000000A1
:10D38000000000000000000000000000000000F7A6
:10D3900062466464EC9C98989808000000000000C5
:10D3A000000000000000000E04040202020101015E
:10D3B000010000000000000000000000000000BCB0
:10D3C0001810B06060E09008089E000000000000A7
:10D3D0000000000000000007010100000000000143
:10D3E0000307000000000000000000000000009E95
:10D3F0000808089090B06060602020241C000000A5
:10D400000000000000000007010101000000000012
:10D41000000000000000000000000000000000FC10
:10D4200084C44460203018080CFC00000000000098
:10D4300000000000000000010100000000000202E6
:10D4400003010000000000008080808080808080D8
:10D450004020408080808080808080000000000329
:10D4600000000000000000000000000000000000BC
:10D4700000000003004040404040404040404040E9
:10D48000404040404040404040404040400000005C
:10D49000000000000000000000000000000000008C
:10D4A000000000000000000C1010101010101010F0
:10D4B00020402010101010101010100C0000000060
:10D4C000000000000000000000000000000000005C
:10D4D0000000000000001C22C280000000000000CC
:10D4E0000000000000000000000000000000000438
:10D4F0000403000000000000000000000000000025
:10D500000000000000B2E2CAD4D7D6CCE50000008B
:10D510000890B0808082CCC8C8A0A0A090909C98B1
:10D52000181818D820000000007F61616D6D6D6DC6
:10D530006D6D6D6D656525061A2361400000000064
:10D5400010101010161212121212121212121210C1
:10D550001010101C180000000008103020200000DF
:10D560007E20202020202020A060702000000000CD
:10D570008080000000FF000040FF1010101012918A
:10D58000700E020000000000000F1911217F010140
:10D5900001010103020206444C48387040000000BB
:10D5A000000010F01018EC0000000000FE00000069
:10D5B0000000000000000004181810FF0000FF80A9
:10D5C000C0201818FF1818181818181F0C00000091
:10D5D0000000103F18080703000000003F00000093
:10D5E0000000000000000040C040602020107028B3
:10D5F00028242220202020A060202020200000407D
:10D60000C0404040FF60705050484844464241FE90
:10D610004040404040000000000000003F01010188
:10D62000020206040C18343F000000000000000055
:10D6300000000000000000000000000000000000EA
:10D6400000000000000000000000000000000000DA
:10D6500000000000000000000000000000000000CA
:10D6600000000000000000000000000000000000BA
:10D6700000000000C0C0C0C0C0C08080808080802A
:10D6800080808000000080C0C0800000000000009A
:10D690000000000003030303030303010101010170
:10D6A000010101000000010303010000000000006F
:10D6B000C0E0E07030188C84000000000000000022
:10D6C000000000000000000000000000000000005A
:10D6D000181C1C0E060301000000000000000000E2
:10D6E000000000000000000000000000000000003A
:10D6F000000000002020202020FEFEFE1010101050
:10D700001010FEFEFE1808080808000000000000C7
:10D710000000000010101010107F7F7F080808081C
:10D7200008087F7F7F0C0404040400000000000050
:10D7300000008080C0B090989898B8B0F0E0C080A9
:10D74000808080809C9C8C8C98E080808000000091
:10D7500000000000030C18181C1C00000000030748
:10D760000F0C1C181818180C06030000000000000D
:10D77000000000001C362263636363636322B69C6F
:10D780004040402020101010080800000000000059
:10D7900000000000080804040202020101011C3616
:10D7A0002263636363636322361C00000000000091
:10D7B00000000000F0988C8C8C8C8CCC5C381C3C6D
:10D7C000327363E3C38383068C780000000000009B
:10D7D00000000000000001010101000000003E08FF
:10D7E00008080404040343673E1C00000000000016
:10D7F0001C3C3C3030100C06000000000000000013
:10D800000000000000000000000000000000000018
:10D810000000000000000000000000000000000008
:10D8200000000000000000000000000000000000F8
:10D8300000000000000000000000808080808080E8
:10D840008080800000000000000000000000000058
:10D85000402010180C04060203030101010101011C
:10D8600001010103030206040C181020400000000F
:10D870000204081830206040C0C080808080808012
:10D88000808080C0C0C06020301808040200000002
:10D890000000000000000000000001010101010182
:10D8A0000101010000000000000000000000000075
:10D8B0000000000000000080800C1C386080806048
:10D8C000381C8C80808000000000000000000000F8
:10D8D0000000000000000303036371390D03030D12
:10D8E0003971610303030000000000000000000024
:10D8F0000000000000000000000000000000FC002C
:10D900000000000000000000000000000000000017
:10D9100000000000000000010101010101017F0180
:10D9200001010101010100000000000000000000F1
:10D9300000000000000000000000000000000000E7
:10D940000000000000001C3C3C3030100C060000C1
:10D9500000000000000000000000000000000000C7
:10D9600000000000000000000000000000000000B7
:10D970000000000000000000000000000000FE00A9
:10D980000000000000000000000000000000000097
:10D9900000000000000000000000000000007F0008
:10D9A0000000000000000000000000000000000077
:10D9B0000000000000000000000000000000000067
:10D9C000000000000000183C3C18000000000000AF
:10D9D0000000000000000000000000000000000047
:10D9E0000000000000000000000000000000000037
:10D9F0000000000000000000000000000000808027
:10DA0000C0406020301018080C040602000000001E
:10DA100000406020301018080C04060203010100C9
:10DA200000000000000000000000000000000000F6
:10DA300000000000C060301818180C0C0C0C0C0C06
:10DA40000C0C0C0C1818183060C00000000000000E
:10DA50000000000003040C18181030303030303053
:10DA6000303030301018180C0403000000000000A3
:10DA7000000000000080F8808080808080808080AE
:10DA80008080808080808080C0F8000000000000DE
:10DA9000000000000101010101010101010101017A
:10DAA0000101010101010101031F0000000000004C
:10DAB00000000000E0100804040C0C00000000004E
:10DAC0000080C04020100804FCFC000000000000A2
:10DAD00000000000071C18303030303018180C06D9
:10DAE00003010000202020301F1F00000000000064
:10DAF00000000000E0180C0C0C0C00000000C0003E
:10DB0000000000000C0C0C0C18E0000000000000ED
:10DB10000000000003060C18181818180C06030E55
:10DB200018103030303010180C03000000000000D6
:10DB3000000000000000000080804020201010083D
:10DB40000C0402FE0000000000C000000000000005
:10DB5000000000000606070706060606060606067B
:10DB60000606063F06060606063F00000000000007
:10DB700000000000F0F0080808080808C828180885
:10DB8000000000000C0C040418E00000000000007D
:10DB9000000000003F3F000000000000070C1810CC
:10DBA00030303030303018180C0300000000000016
:10DBB00000000000806030101808080CCC6C1C1CA1
:10DBC0000C0C0C0C0C18183070C000000000000089
:10DBD000000000000718181800000000070C1810BB
:10DBE00030303030303010180C07000000000000DA
:10DBF00000000000F8F8080C040400000000000019
:10DC000080808080C0C0C0C0C0C000000000000094
:10DC1000000000003F3F1008080404020202010156
:10DC200000000000000000000000000000000000F4
:10DC300000000000E030180C0C0C1C1C78F0E01800
:10DC40000C0C06060606060C18E00000000000009A
:10DC500000000000070C1830303030101804030F9B
:10DC60001E1C3830303030180C030000000000005B
:10DC700000000000E0180C0C0606060606060E0C56
:10DC800018F0000000000C0C0CF000000000000078
:10DC900000000000030408181030303030303834F1
:10DCA0003631301818080C0603010000000000008F
:10DCB000000000000000000000000080C0C08000E4
:10DCC00000000000000080C0C080000000000000D4
:10DCD000000000000000000000000001030301003C
:10DCE000000000000000010303010000000000002C
:10DCF000000000000000000000000000C0C0C000E4
:10DD000000000000000000C0C0C080C0C0000000D3
:10DD10000000000000000000000000000101010000
:10DD200000000000000000010101010000000000EF
:10DD300000000000000000000000804020100808E3
:10DD400010204080000000000000000000000000E3
:10DD50000000000020100804020100000000000084
:10DD60000000000001020408102000000000000074
:10DD70000000000000000000000000FE00000000A5
:10DD800000FE000000000000000000000000000095
:10DD900000000000000000000000007F0000000004
:10DDA000007F0000000000000000000000000000F4
:10DDB0000000000004081020408000000000000067
:10DDC0000000000080402010080400000000000057
:10DDD0000000000000000000000001020408101014
:10DDE0000804020100000000000000000000000024
:10DDF00000000000C03018080C1C1C1C00000000B3
:10DE000000000000000080C0C08000000000000092
:10DE100000000000071830606060606030180E037A
:10DE200001010101000001030301000000000000E6
:10DE300000000000C06030180C8C84C6C6666666A0
:10DE400066666664CC0C081830C000000000000054
:10DE500000000000070810202B4D4C4C4444444463
:10DE6000462626170C40203018070000000000004E
:10DE700000000000C0C0C0C02020202030101010C2
:10DE800010F8080808040404061F00000000000041
:10DE9000000000000101010103030303020606065E
:10DEA000040F0C0C0C181818387C0000000000003F
:10DEB00000000000FE181818181818181818F8187C
:10DEC000181818181818181818FE0000000000007C
:10DED00000000000071C183030303030180C0718D4
:10DEE0003020606060606030180F000000000000AB
:10DEF00000000000C06010180C0C0C060606060698
:10DF0000060606060C0C081830C0000000000000D1
:10DF100000000000073830604040000000000000B2
:10DF20000000000040402010080700000000000032
:10DF300000000000FE1818181818181818181818DB
:10DF4000181818181818181818FE000000000000FB
:10DF500000000000030E18103030606060606060E8
:10DF600060606020303018180603000000000000D8
:10DF700000000000FE181818181818181818F818BB
:10DF8000181818181818181818FE000000000000BB
:10DF9000000000003F30204040000008080C0F0C3B
:10DFA0000808000000404020303F00000000000052
:10DFB00000000000FE181818181818181818F8187B
:10DFC0001818181818181818187E000000000000FB
:10DFD000000000003F38204040000008080C0F0CF3
:10DFE0000808080000000000000000000000000019
:10DFF00000000000C03010180C0C040606060606CF
:10E00000060606040C0C081830E0000000000000B2
:10E0100000000000030C08181010000000000000B1
:10E020007E181818181818180403000000000000C3
:10E03000000000003F0C0C0C0C0C0C0C0C0CFC0C2D
:10E040000C0C0C0C0C0C0C0C0C3F00000000000025
:10E0500000000000FC3030303030303030303F30A5
:10E06000303030303030303030FC00000000000004
:10E0700000000000F8808080808080808080808028
:10E08000808080808080808080F800000000000018
:10E09000000000001F010101010101010101010156
:10E0A0000101010101010101011F00000000000048
:10E0B00000000000E0000000000000000000000080
:10E0C000000000000000000000000E0E8EFC0000AA
:10E0D000000000007F06060606060606060606067F
:10E0E00006060606060606060606060301000000EA
:10E0F000000000007E1818181818189898D8B8B89A
:10E100001818181818181818187E000000000000B9
:10E11000000000003E0C04060201010000000101A5
:10E12000030306060C0C0C18187C0000000000000D
:10E13000000000007E181818181818181818181859
:10E14000181818181818181818FE000000000000F9
:10E1500000000000000000000000000000000000BF
:10E160000000000000404020303F000000000000A0
:10E17000000000000F1C1C1C1C1C3434343434649C
:10E1800064646444C4C4C4C4848F000000000000FC
:10E1900000000000F0383838383434343432323249
:10E1A000323231313131303030FC000000000000BB
:10E1B000000000000F1C1C34346464C4C484840454
:10E1C0000404040404040404041F0000000000000C
:10E1D00000000000F82020202020202020212123E2
:10E1E0002326262C2C383830302000000000000078
:10E1F00000000000C03018080C0C060606060606D3
:10E20000060606040C0C081830C0000000000000D0
:10E2100000000000030C1810303020606060606067
:10E2200060606060303010180C03000000000000D7
:10E2300000000000FE18181818181818181818F8F8
:10E240001818181818181818187E00000000000078
:10E25000000000000F1830606060606060301807D8
:10E2600000000000000000000000000000000000AE
:10E2700000000000C03018080C0C06060606060652
:10E2800006060606E41C1C1830C000000000000052
:10E2900000000000030C18103030606060606060A7
:10E2A000606060602133361E0E074C3C3800000071
:10E2B00000000000FE181818181818181818F81878
:10E2C0001818181818181818187E000000000000F8
:10E2D00000000000071C183030303030180C0703E5
:10E2E000030606060C0C0C1818780000000000004D
:10E2F00000000000F0180C060606060E3CF8E08050
:10E30000000000020206040C1CE4000000000000F3
:10E3100000000000131E1818101000000000030F6A
:10E320001E183830303030180C0700000000000094
:10E3300000000000FC8C848282808080808080804D
:10E34000808080808080808080E00000000000006D
:10E35000000000003F216141410101010101010173
:10E36000010101010101010101070000000000009D
:10E37000000000003F0C0C0C0C0C0C0C0C0C0C0CDA
:10E380000C0C0C0C0C0C0C1838E000000000000009
:10E39000000000007C101010101010101010101051
:10E3A00010101010101010080403000000000000EE
:10E3B000000000003E18181818303030303060600F
:10E3C0006060C0C0C0C0808080800000000000008D
:10E3D0000000000078301010100808080804040439
:10E3E000040202020201010100000000000000001E
:10E3F00000000000CF868684040C8C8C8C8C8848AE
:10E4000058585838303030301010000000000000EC
:10E4100000000000F3612121212323231313131291
:10E4200016160E0E0E0E0C04040400000000000070
:10E43000000000003E181830306060C0C08080804E
:10E440008040402020101018083E0000000000000E
:10E45000000000007C100808040402020101010110
:10E46000030306060E0C0C18387C000000000000A8
:10E47000000000007E1C18183030306060C0C0C042
:10E48000808080808080808080E00000000000002C
:10E49000000000007C1010080808040404020201B7
:10E4A000010101010101010101070000000000005C
:10E4B00000000000F838180C040000000000808004
:10E4C000C0C060603018180C0CFE00000000000096
:10E4D000000000007F303018180C0606030301010D
:10E4E0000000000000406020383F000000000000F5
:10E4F00000C0C0C0C0C0C0C0C0C0C0C0C0C0C0C0DC
:10E50000C0C0C0C0C0C0C0C0C0C0C0C0000000000B
:10E51000003F0000000000000000000000000000BC
:10E5200000000000000000000000003F00000000AC
:10E530000000001818103020606040C0808080000B
:10E5400000000000000000000000000000000000CB
:10E5500000000000000000000000000000010101B8
:10E56000030206060C0C0C18183030306000000056
:10E5700000FC00000000000000000000000000009F
:10E580000000000000000000000000FC000000008F
:10E59000000303030303030303030303030303034E
:10E5A0000303030303030303030303030000000047
:10E5B000C0C060100000000000000000000000006B
:10E5C000000000000000000000000000000000004B
:10E5D0000307040800000000000000000000000025
:10E5E000000000000000000000000000000000002B
:10E5F000000000000000000000000000000000001B
:10E6000000000000000000000000000000FF00000B
:10E6100000000000000000000000000000000000FA
:10E6200000000000000000000000000000FF0000EB
:10E6300078C00000000000000000000000000000A2
:10E6400000000000000000000000000000000000CA
:10E6500000000100000000000000000000000000B9
:10E6600000000000000000000000000000000000AA
:10E670000000000000000000000000E0180C0C0C7E
:10E6800000E0380C060606060CF80000000000004A
:10E690000000000000000000000000070C1818181F
:10E6A0001C1B1818181818989E7100000000000014
:10E6B000000000101E181818181818985838381824
:10E6C000181818181818183838C80000000000006A
:10E6D0000000000000000000000000071C1830309F
:10E6E00030303030303010180C07000000000000CF
:10E6F0000000000000000000000000C07030180C96
:10E700000C0C0C0C0C0C181830C0000000000000A1
:10E7100000000000000000000000000708181818A2
:10E72000000000000020201008070000000000008A
:10E730000000000000000000000000E03018180C8D
:10E740000C0C0C0C0C0C081830E000000000000051
:10E75000000000101E1818181818181B1C1818187C
:10E76000181818181818181C7A0900000000000062
:10E770000000000000000000000000C03010180C75
:10E780000C0CFC0C0C0C181870C0000000000000F1
:10E790000000000000000000000000030C18103012
:10E7A00030303F000000201018070000000000007B
:10E7B00000000000008080C0C0C0C0FCC0C0C0C05D
:10E7C000C0C0C0C0C0C0C0C0C0F800000000000091
:10E7D000000000003E6160600000001F00000000BB
:10E7E0000000000000000000000F0000000000001A
:10E7F0000000000000000000000000C030101818E9
:10E80000181030F01818F8F0180C0C0C18E0000074
:10E810000000000000000000000000776C181818CD
:10E8200018180C070000031F38303030180700009C
:10E83000000000101E1818181818189858381818C2
:10E840001818181818181818187E00000000000072
:10E850000000000000000000000000070C1818185D
:10E860001818181818181818187E00000000000052
:10E870000000000080C08000000000F880808080E0
:10E88000808080808080808080F800000000000010
:10E89000000000000103010000000101010101016D
:10E8A0000101010101010101011F00000000000040
:10E8B0000000000000000000000000C00000000098
:10E8C00000000000000000000000001818F0000028
:10E8D000000000001C1E0C000000080F0C0C0C0CAB
:10E8E0000C0C0C0C0C0C0C0C0C0C0C06020100009B
:10E8F000000000101E1818181818181818181818E2
:10E9000098D8783818181818187E000000000000F1
:10E9100000000000000000000000003E0C040201A6
:10E9200001010303060C0C18387C000000000000F5
:10E9300000000000F880808080808080808080805F
:10E94000808080808080808080F80000000000004F
:10E9500000000001010101010101010101010101AA
:10E960000101010101010101011F0000000000007F
:10E970000000000000000000000004F78E8686867C
:10E98000868686868686868686CF00000000000002
:10E9900000000000000000000000003C63616161B5
:10E9A000616161616161616161F30000000000000B
:10E9B0000000000000000000000000905E38181801
:10E9C0001818181818181818187E000000000000F1
:10E9D0000000000000000000000000070C181818DC
:10E9E0001818181818181818187E000000000000D1
:10E9F0000000000000000000000000C030101808F7
:10EA00000C0C0C0C0C0C181830C00000000000009E
:10EA10000000000000000000000000030C18183087
:10EA200030303030303018180C0300000000000087
:10EA30000000000000000000000000905E38181880
:10EA4000181818181818183878981818187E000010
:10EA50000000000000000000000000070C1810304B
:10EA600030303030303018180C0700000000000043
:10EA70000000000000000000000000C03018180C6A
:10EA80000C0C0C0C0C0C081830E00000000000000E
:10EA90000000000000000000000000131E1C1818F9
:10EAA000181818181818181C1E191818187E0000A5
:10EAB0000000000000000000000000607E60E0E058
:10EAC000606060606060606060FE000000000000E8
:10EAD0000000000000000000000000386661010036
:10EAE000000000000000000000070000000000001F
:10EAF0000000000000000000000000C06030303066
:10EB000070E080000008081838C80000000000000D
:10EB10000000000000000000000000273830202026
:10EB200000030F1E38303030180F000000000000C6
:10EB3000000000000000808080C0E0FCC0C0C0C0B9
:10EB4000C0C0C0C0C0C0C0C0800000000000000045
:10EB500000000000000000000000001F0000000096
:10EB60000000000000002020110F00000000000045
:10EB700000000000000000000000101E1818181807
:10EB8000181818181818181830E0000000000000B5
:10EB900000000000000000000000101E18181818E7
:10EBA000181818181818181C7A090000000000001E
:10EBB00000000000000000000000003E181818309F
:10EBC00030206060C0C0C080808000000000000075
:10EBD00000000000000000000000007C3010180859
:10EBE0000804040402020301010000000000000008
:10EBF0000000000000000000000000DF86848C8C14
:10EC00008C885858587030303020000000000000C8
:10EC10000000000000000000000000F3612121213D
:10EC2000131313120E0E0E0C04040000000000005B
:10EC300000000000000000000000007C307060C098
:10EC4000C080808040202010183E0000000000009E
:10EC500000000000000000000000003E0808040260
:10EC60000201010306060C18187E000000000000D7
:10EC700000000000000000000000003E18181030E6
:10EC800020606040C0808080808080407C3C0000AC
:10EC900000000000000000000000007C18080808C8
:10ECA0000404040202020101000000000000000050
:10ECB0000000000000000000000000FC0C0C040438
:10ECC0000080C0C0607030180CFC00000000000024
:10ECD00000000000000000000000001F1C0C0607E0
:10ECE0000301010000202030181F00000000000078
:10ECF0000000000000000000000000000000800094
:10ED00000000000000000000000000000000000003
:10ED10003008040404040404040404040403010289
:10ED2000040404040404040404040408300000007F
:10ED300000000000000000000000000000000000D3
:10ED400000000000000000000000000000000101C1
:10ED500001010101010101010101010101010101A3
:10ED60000101010101010101010101010101000095
:10ED7000182040404040404040404040408000809B
:10ED8000404040404040404040404020180000008B
:10ED9000000000000000000000000000000103006F
:10EDA00000000000000000000000000000000078EB
:10EDB000C48202000000000000000000000000000B
:10EDC0000000000000000000000000000000000043
:10EDD000004141271C00000000000000000000006E
:10EDE0000000000000000000000000000000B2E28F
:10EDF000CAD4D7D6CCE5000000103060C0C00000F7
:10EE0000000C183830908080804040607E38303070
:10EE10003030303000800000000004FC0C0C0C4C42
:10EE2000CCCCCDCDCDCCCC4C4C4C4C4C6C64A0302F
:10EE300010180C06010000000000000F0C0CCCCCD8
:10EE4000CDCCCCCCCCCCCCCCCCCCCCCCC4C0C001EC
:10EE5000020E0C8C08000000000818181818181969
:10EE60001818181818181818181818181818181822
:10EE70001818180F0E0400000000003060C0C0C059
:10EE80000000000080FEC0C0C0C0C0C0C0C0C0C084
:10EE9000C0C0C0C0800000000000000000000000F2
:10EEA000FC0000000001F8808080808080908884D1
:10EEB000C27B1101000000000020E0606060606023
:10EEC000FF60606060685F41C1C1C1818181310FB5
:10EED00003000000000000000000030E0C081810E2
:10EEE0003F0000000000000000000000010123239B
:10EEF000262E3C3830200000000000000020E020DA
:10EF000030301880000000000000FC00000000000D
:10EF100000000000000000000060C0808000FF00D2
:10EF2000000000FF000000808080FF8080808080E3
:10EF3000808080FCE0400000000000010301FF0031
:10EF4000000040FFE0380C020101FF010101010156
:10EF500001010101010000000000000000081F0C79
:10EF6000060200000000000000183F000000000042
:10EF7000000000000000000000000000008080C0D1
:10EF8000C040E0E0D0D8C8C4C2C0C0C0C0C0C0C08B
:10EF9000C0C0C0C0C0400000000007030301010062
:10EFA000FC000100008080C0C0602010180CE4024A
:10EFB00000000000000000000000381818181818A1
:10EFC000FF3E3E5B5B599998181818181818FF18DF
:10EFD00018181818180000000000000000000018A1
:10EFE0003F000000000000000103060E1C3D1F0052
:10EFF0000000000000000000000000000000000011
:10F000000000000000000000000000000000000000
:10F0100000000000000000000000000000000000F0
:10F0200000000000000000000000000000000000E0
:10F0300000000000000000000000000000000000D0
:10F0400000000000000000000000000000000000C0
:10F0500000000000000000000000000000000000B0
:10F0600000000000000000000000000000000000A0
:10F070000000000000000000000000000000000090
:10F080000000000000000000000000000000000080
:10F090000000000000000000000000000000000070
:10F0A0000000000000000000000000000000000060
:10F0B0000000000000000000000000000000181C1C
:10F0C0001C1C1C1C1C1C1C1C181808080808080800
:10F0D00008080808080000000000001C3E3E3E1C16
:10F0E0000000000000000000000000000000000020
:10F0F0000000000000000000000000000000000010
:10F1000000000000000000000000000000000000FF
:10F110000000000000000000000000008080C0C06F
:10F12000E0E070301808000000000000000000005F
:10F1300000000000000000000000000000000000CF
:10F1400000000000000000000000060F8F8FC7C302
:10F15000E1E070301808000000000000000000002E
:10F16000000000000000000000000000000000009F
:10F1700000000000000000000000060F0F0F070352
:10F18000010000000000000000000000000000007E
:10F19000000000000000000000000000000000006F
:10F1A00000000000000000000000000000000080DF
:10F1B00080808080808080FCFCFCFCC0C0C0C0C01F
:10F1C000C0C04040FCFCFCFC60606060606060604F
:10F1D000000000000000000000000000000000012E
:10F1E00001010000000000FFFFFFFF000000000021
:10F1F00000000000FFFFFFFF808080808080808013
:10F2000000000000000000000000000000000006F8
:10F21000060602020202023F3F3F3F0303030303CD
:10F22000030301013F3F3F3F0101010101010101D2
:10F2300000000000000000000000000000000000CE
:10F2400080C0E06070707070F0E0E0C0800000008E
:10F250000000000000007078787838303060C0001E
:10F26000000000000000000000000000181818FE58
:10F270009B1818181818181818191B1F1F3F7EFC08
:10F28000F8F8D89818181818181818181818D87FD7
:10F2900018181818180000000000000000000000F6
:10F2A0000307060E0E0F0F0700000000000000000D
:10F2B000010307070F0F0E0E0E0E0E0607030100C7
:10F2C000000000000000000000000000000000F04E
:10F2D000180C040606060606060606060C0C98F030
:10F2E000000000000000000000808080404060209E
:10F2F000000000000000000000000000000000000E
:10F3000001030206068686C6464666263213111893
:10F3100088CCC444666262616161606040C0800004
:10F3200000000000000000000000000000000004D9
:10F330000602030101010000000000000000000FB0
:10F340001930302060606060606060602030190FAC
:10F35000000000000000000000000000000000802D
:10F36000C0E06070707070707070F0E0E0E0E0D04D
:10F37000D89C8C8C0E0E0E0E0E0E1E1C3C78F0E0EF
:10F380000000000000000000000000000000000F6E
:10F390001C18383838383838181C0C0E0601E101B2
:10F3A000030307070F0F9E9CBCF870F0F0D88F0383
:10F3B000000000000000000000000000000000004D
:10F3C00000000000000000000000000000001F0717
:10F3D00003030303010101010000004061233F0E0C
:10F3E0000000000000000000000070F8F8F8F0C015
:10F3F000C0C06070380C0000000000000000000079
:10F4000000000000000000000000000000000000FC
:10F4100000000000000000000000000001010101E8
:10F4200001000000000000000000000000000000DB
:10F4300000000000000000000000000000000000CC
:10F4400000000000000000000000000000000000BC
:10F4500000000000000000000000000000000000AC
:10F46000000000000000000000000000000000009C
:10F47000000000000000000000000000000000008C
:10F48000000000000000000000000000000000007C
:10F49000000000000000000000000000000000006C
:10F4A000000000000000000000000000000080805C
:10F4B000C060603030301818180C0C0C0C0C0C0CA0
:10F4C0000C0C0C0C1818181030306060C0808000D4
:10F4D00000000000000000000010080C06030100FE
:10F4E000000000000000000000000000000000001C
:10F4F0000000000000000000000000000000010308
:10F50000060C0810000000000008103060C08000E9
:10F5100000000000000000000000000000000000EB
:10F52000000000000000000000000000000080C09B
:10F530006030100800000000000000000000010121
:10F540000306060C0C0C18181830303030303030F0
:10F5500030303030181818080C0C06060301010072
:10F56000000000000000000000000000000000009B
:10F57000000000000000000000000000000000008B
:10F58000000000000000000000000000000000007B
:10F59000000000000000000000000000000000006B
:10F5A00000000000000000000C3E7EFCF080000027
:10F5B00080F0FC7E3E0E0000000000000000000015
:10F5C000000000000000000000000000000000003B
:10F5D0000000001C1C1C1C1C1C1C0888C9EB1C1CEB
:10F5E000EBC988081C1C1C1C1C1C1C000000000013
:10F5F000000000000000000000000000000000000B
:10F6000000000000000000001C3E3F1F070000003B
:10F6100000071F3F3E38000000000000000000000F
:10F6200000000000000000000000000000000000DA
:10F630000000000000000000000000000000FCFCD2
:10F6400000000000000000000000000000000000BA
:10F6500000000000000000000000000000000000AA
:10F660000000001818181818181818181818FFFF94
:10F670001818181818181818181818000000000082
:10F68000000000000000000000000000000000007A
:10F6900000000000000000000000000000003F3FEC
:10F6A000000000000000000000000000000000005A
:10F6B000000000000000000000000000000000004A
:10F6C000000000000000000000000000000000003A
:10F6D0000000000000000000000070F8F8F8F0C022
:10F6E000C0C06070380C0000000000000000000086
:10F6F000000000000000000000000000000000000A
:10F7000000000000000000000000000001010101F5
:10F7100001000000000000000000000000000000E8
:10F7200000000000000000000000000000000000D9
:10F7300000000000000000000000000000000000C9
:10F7400000000000000000000000000000000000B9
:10F750000000000000000000000000000000FCFCB1
:10F760000000000000000000000000000000000099
:10F770000000000000000000000000000000000089
:10F780000000000000000000000000000000FFFF7B
:10F790000000000000000000000000000000000069
:10F7A0000000000000000000000000000000000059
:10F7B00000000000000000000000000000003F3FCB
:10F7C0000000000000000000000000000000000039
:10F7D0000000000000000000000000000000000029
:10F7E0000000000000000000000000000000000019
:10F7F00000000000000000000000F0F8F8F8F8F049
:10F8000000000000000000000000000000000000F8
:10F8100000000000000000000000000000000000E8
:10F8200000000000000000000000000101010100D4
:10F8300000000000000000000000000000000000C8
:10F8400000000000000000000000000000000000B8
:10F8500000000000000000000000000000000000A8
:10F860000000000000000000000000000000000098
:10F870000000000000000000000000000000000088
:10F880000000000000000000808040406020301038
:10F8900018080C0400000000000000000000000038
:10F8A000000000000000008080C040602030101880
:10F8B000080C040602030101000000000000000023
:10F8C00000000000000000000000002030101808B8
:10F8D0000C0406020201010000000000000000000C
:10F8E0000000000000000000000000000000000018
:10F8F0000000000000000000000000000000000008
:10F9000080C0C0607030383838181C1C1C1C1C1C8F
:10F910001C1C1C1C1C18383838307060C0C000001B
:10F920000000000000000000000000000000007E59
:10F93000C301000000000000000000000000000003
:10F940000000000000000000000000000001C37E75
:10F9500000000000000000000000000000000000A7
:10F96000010307060E0C1C1C1C3838383838383890
:10F970003838383838181C1C1C0C0E0607030100D8
:10F980000000000000000000000000000000000077
:10F990000000C000000000000000000000000000A7
:10F9A000000000000000000000000000000000C097
:10F9B0000000000000000000000000000000002027
:10F9C00030383F38383838383838383838383838B8
:10F9D00038383838383838383838383838387CFF9C
:10F9E0000000000000000000000000000000000017
:10F9F0000000000000000000000000000000000007
:10FA000000000000000000000000000000000007EF
:10FA100000000000000000000000000000000000E6
:10FA2000806030303838387878700000000000008E
:10FA300000000000000080C0E06030381CFCFCFCCE
:10FA4000000000000000000000000000000000FEB8
:10FA5000C10000000000000000000000000080C0A5
:10FA6000E070381C0E0703010000000000FFFFFFDC
:10FA70000000000000000000000000000000000086
:10FA800003070E0E1C1C1C1C1C1C0E0E070703017A
:10FA90000000000000000000101018080E0F0F0FEB
:10FAA0000000000000000000000000000000000056
:10FAB00080402030307070600000000000000000C6
:10FAC0000000000000000030787878383060C00016
:10FAD0000000000000000000000000000000007EA8
:10FAE000C1800000000000000000000080E03EE057
:10FAF0008000000000000000000000000000C07F47
:10FB000000000000000000000000000000000000F5
:10FB1000010307070E0E0E0E0E060703010000007C
:10FB200003070E0C1C1C1C1C1C1C0C0E06030100E5
:10FB300000000000000000000000000000000000C5
:10FB400000000000000000000000000080C04060D5
:10FB5000203018180CFC000000000000000000001D
:10FB60000000000000000000000000000000008015
:10FB7000C0C0E0F0D0C8C8C4C6C2C3C1C0C0C0C005
:10FB8000C0C0C0C0C0FFC0C0C0C0C0C0C0C0E0FED8
:10FB90000000000000000000000000000000000164
:10FBA0000101010101010101010101010101010145
:10FBB00001010101013F0101010101010101033FB7
:10FBC000000000000000000000000000000000E055
:10FBD000E0E02020202020303030303030B0F07095
:10FBE0003000000000003078787838303060C00095
:10FBF000000000000000000000000000000000FF06
:10FC0000FFFF000000000000000000FEFF81000078
:10FC10000000000000000000000000000000C17FA4
:10FC20000000000000000000000000000000000FC5
:10FC30000F0F000000000000000000000107070E89
:10FC40000E1E1C1C1C1C1C1C1C0C0E0E0703010091
:10FC500000000000000000000000000000000000A4
:10FC60000080C060603030383818181C1C9CDC7C68
:10FC70003C3C1C1C1C1C1C1838383070E0C0800038
:10FC8000000000000000000000000000000000F87C
:10FC90000701000000000000000000FCFF830000DE
:10FCA000000000000000000000000000000183FED2
:10FCB0000000000000000000000000000000000143
:10FCC00002060E0E0E0000000000000003070E1CCE
:10FCD0001C3838383838383838181C1C0C060300E3
:10FCE000000000000000000000000000000000F024
:10FCF000F0F070301818080000000000000000004C
:10FD000000000000000000000000000000000000F3
:10FD1000000000000000000000000000000000FFE4
:10FD2000FFFF00000000008080C04060603030189D
:10FD300018181C0C0E0E0E0E0F0F0F0F0F0F0F06C4
:10FD40000000000000000000000000000000001F94
:10FD50001F0F0C040203010100000000000000005E
:10FD60000000000000000000000000000000000093
:10FD70000000000000000000000000000000000083
:10FD8000C0E07070383838387878F0E0E08000C033
:10FD9000E0703038381C1C1C1C1C18383060C00047
:10FDA000000000000000000000000000000000FE55
:10FDB00081000000000000000000000387DF7FFDDD
:10FDC000F0C0800000000000000000000000817F03
:10FDD0000000000000000000000000000000000023
:10FDE00003070E0E1C1C1C1C1C0C0E07030100003C
:10FDF0000307070F0E1E1C1C1C1C0C0E0603010023
:10FE000000000000000000000000000000000000F2
:10FE1000C060703838181C1C1C1C1C1C1C3C38385A
:10FE200078F0E0800000000000007070707060806A
:10FE30000000000000000000000000000000003F83
:10FE4000C180000000000000000000000000000071
:10FE500080E17F1F0000000000000080C0E0701FF4
:10FE60000000000000000000000000000000000092
:10FE700000010306060E0C0C1C1C1C1C1C1E1F1D66
:10FE80001D1C1C1C0E0E0E0E0607030301000000B5
:10FE90000000000000000000000000000000000062
:10FEA0000000000000000000000000000000000052
:10FEB0000000000000000000000000000000000042
:10FEC0000000000000000000000000000000000032
:10FED0000000000000000000001C3E3E3E1C000030
:10FEE00000000000000000000000001C3E3E3E1C20
:10FEF0000000000000000000000000000000000002
:10FF000000000000000000000000000000000000F1
:10FF100000000000000000000000000000000000E1
:10FF200000000000000000000000000000000000D1
:10FF300000000000000000000000000000000000C1
:10FF400000000000000000000000000000000000B1
:10FF500000000000000000000000000000000000A1
:10FF600000000000000000000000003C3C3C3C00A1
:10FF70000000000000000000000000003C3C3C3C91
:10FF8000301818080C0000000000000000000000FD
:10FF90000000000000000000000000000000000061
:10FFA0000000000000000000000000000000000051
:10FFB0000000000000000000000000000000000041
:10FFC000000000000000000000000080C060301849
:10FFD0003060C08000000000000000000000000051
:10FFE0000000000000000000000000000000000011
:10FFF00000000080C06030180C0603010000000003
:020000040801F1
:100000000000000103060C183060C08000000000F2
:1000100000000000000000000000000000000008D8
:100020001C0E07030100000000000000000000009B
:10003000000000000000000000000103070E1C0883
:1000400000000000000000000000000000000000B0
:10005000000000000000000000FCFC0000000000A8
:100060000000FCFC00000000000000000000000098
:100070000000000000000000000000000000000080
:10008000000000000000000000FFFF000000000072
:100090000000FFFF00000000000000000000000062
:1000A0000000000000000000000000000000000050
:1000B0000000000000000000003F3F0000000000C2
:1000C00000003F3F000000000000000000000000B2
:1000D0000000000000000000000000000000001010
:1000E0003870E0C080000000000000000000000048
:1000F0000000000000000000000080C0E070381028
:1001000000000000000000000000000000000000EF
:100110000000000103060C183060C08000000000E1
:1001200000000080C06030180C06030100000000D1
:1001300000000000000000000000000000000000BF
:1001400000000000000000000000000103060C1881
:100150000C06030100000000000000000000000089
:10016000000000000000000000000000000000008F
:10017000C0E03018080C0C3C7C7C780000000000CB
:10018000000000000000000000000000000000006F
:100190000000000000000000000000000000007FE0
:1001A000FFC08000000000000000000080C0E07080
:1001B000381C0C0C0C0C0C0C0000001C3E3E3E1CB1
:1001C000000000000000000000000000000000002F
:1001D0000103070F0E1E1E1E1E1E1E0F0F0701001D
:1001E000000000000000000000000000000000000F
:1001F00000000000000000000000000000000000FF
:100200000080C0E06030303838181C1C1C1C1C1CDE
:100210001C1C1C1C1C383838307070E0C08000007A
:10022000000000000000000000000000000000FCD2
:100230000701000000E03038181C0C0E0E068687FF
:1002400087878787C7C7A6BE1C0000000107FFFC81
:10025000000000000000000000000000000000009E
:100260000306081830363767676363636363636345
:10027000616131313119190F076020301C0F0700FF
:10028000000000000000000000000000000000006E
:1002900000000000000000000080808080C0C0409E
:1002A0004060E0202030301010181818181C1C7FF7
:1002B0000000000000000000000000000000001C22
:1002C0001C3E3E3E323373716161E1E0C0C0C0C08C
:1002D000C080FF808000000000000000000000805F
:1002E000000000000000000000000000000000000E
:1002F00000000000000000000000000000000101FC
:10030000010103030303070707070E0E0E0E1E7FEE
:10031000000000000000000000000000000000FEDF
:100320007070707070707070707070707070F0704D
:10033000707070707070707070707070707070FE2F
:10034000000000000000000000000000000000FFAE
:10035000C0000000000000000000000000C07F801E
:10036000000000000000000000000000000080FF0E
:10037000000000000000000000000000000000007D
:1003800003070E1C1C1C1C1C1C1C0E0E070100036A
:10039000060E1C1C383838383838381C1C0E030040
:1003A000000000000000000000000000000000004D
:1003B0000080C0E06070303838181C1C1C1C1C1CED
:1003C0001C1C1C1C1C1C3838387070E0E0C000007D
:1003D000000000000000000000000000000000FC21
:1003E0000701000000000000000000000000000005
:1003F0000000000000000000000000000103FFFCFE
:1004000000000000000000000000000000000000EC
:100410001F1C181810302000000000000000000011
:1004200000000000000020201010180C060701003A
:10043000000000000000000000000000000000FEBE
:10044000F07070707070707070707070707070702C
:10045000707070707070707070707070707070FE0E
:100460000000000000000000000000000000001F6D
:10047000E08000000000000000000000000000001C
:1004800000000000000000000000000080C0F01F1D
:10049000000000000000000000000000000000005C
:1004A000000103060E0C1C1C1C383838383838384C
:1004B0003838383838181C1C1C0C0E070301000093
:1004C000000000000000000000000000000000FE2E
:1004D0007070707070707070707070707070F0709C
:1004E000707070707070707070707070707070FE7E
:1004F000000000000000000000000000000000FFFD
:100500000000000000000000000000000080FFC0AC
:10051000800000000000000000000000000000FF5C
:1005200000000000000000000000000000000007C4
:10053000070E0C0818100000000101010101010163
:10054000010101010000000020201010181C0F0FF5
:10055000000000000000000000000000000000FE9D
:100560007070707070707070707070707070F0700B
:10057000707070707070707070707070707070FEED
:10058000000000000000000000000000000000FF6C
:100590000000000000000000000000000000FF80DC
:1005A0000000000000000000000000000000000348
:1005B0000000000000000000000000000000001F1C
:1005C0001E3C3020604000000002020202030303D0
:1005D0000302020200000000000000000000000012
:1005E000000000000000000000000000000000000B
:1005F00080C060703038181C1C0C0C0E0E0E0E0ED5
:100600000E0E0E0E0E1C1C1C1838383060E08000D8
:100610000000000000000000000000000000007E5C
:10062000C300000000000000000000000000000007
:1006300000C0000000000000000000000000837EF9
:1006400000000000000000000000000000000004A6
:1006500007070706040C0C0800000000000000005B
:10066000007F1F0E0E0E0E0E0E0E0E0E0E0F010050
:10067000000000000000000000000000000000FF7B
:100680003838383838383838383838383838F8382A
:10069000383838383838383838383838383838FF13
:1006A000000000000000000000000000000000C189
:1006B0000000000000000000000000000000FF003B
:1006C000000000000000000000000000000000C169
:1006D0000000000000000000000000000000007F9B
:1006E0000E0E0E0E0E0E0E0E0E0E0E0E0E0E0F0E29
:1006F0000E0E0E0E0E0E0E0E0E0E0E0E0E0E0E7FA9
:10070000000000000000000000000000000000E009
:1007100000000000000000000000000000000000D9
:10072000000000000000000000000000000000E0E9
:10073000000000000000000000000000000000FFBA
:100740003838383838383838383838383838383829
:10075000383838383838383838383838383838FF52
:100760000000000000000000000000000000000F7A
:100770000000000000000000000000000000000079
:100780000000000000000000000000000000000F5A
:100790000000000000000000000000000000000059
:1007A0000000000000000000000000000000000049
:1007B0000000000000000000000000000000000039
:1007C000183C3C3C38E0000000000000000000FF46
:1007D000C0C0C0C0C0C0C0C0C0C0C0C0C0C0C0C019
:1007E000C0C0C0C0C0C0C0C0C0C0C0C0C0C0C0C009
:1007F000C0E0603018070000000000000000007F2B
:1008000001010101010101010101010101010101D8
:1008100001010101010101010101010101010101C8
:10082000000000000000000000000000000000FECA
:1008300070707070707070707070707070707070B8
:10084000F0F070707070707070707070707070FE1A
:10085000000000000000000000000000000000C3D5
:100860000000008080C060203010080C1C1E1F3962
:10087000387070E0E0C0C0C08080000000000083DD
:100880000000000000000000000000000000003F29
:100890000F0703010000000000000000000000003E
:1008A0000000000000010101030307070E0E1E7F78
:1008B000000000000000000000000000000000FC3C
:1008C000E0E0E0E0E0E0E0E0E0E0E0E0E0E0E0E028
:1008D000E0E0E0E0E0E0E0E0E0E0E0E0E0E0E0FCFC
:1008E0000000000000000000000000000000000701
:1008F00000000000000000000000000000000000F8
:10090000000000000000000000000000000000FFE8
:1009100000000000000000000000000000000000D7
:1009200000000000000000000000000000000000C7
:10093000000000000000000020203010181C1E1FC6
:100940000000000000000000000000000000003E69
:1009500038387878787878E8E8E8E8C8C8C8C8C847
:100960008888888808080808080808080808083ED1
:100970000000000000000000000000000000000077
:10098000000000000000008080808081C141414162
:1009900063232323373717171F1E0E0E0E0C0C84EC
:1009A0000000000000000000000000000000007EC9
:1009B0001E1E1E1D1D1D1D1D1C1C1C1C1C1C1C1C6C
:1009C0001C1C1C1C1C1C1C1C1C1C1C1C1C1C1C7F04
:1009D0000000000000000000000000000000007E99
:1009E00070F0F0F0D0D09090101010101010101087
:1009F000101010101010101010101010101010FE09
:100A000000000000000000000000000000000000E6
:100A1000000000010103030707070E0E1C1C3838F5
:100A20007070E0E0C0C0C0808000000000000000E6
:100A30000000000000000000000000000000007F37
:100A40000808080808080808080808080808080826
:100A50000808080809090B0B0F0F0F0E0E0C0C08E5
:100A60000000000000000000000000000000000086
:100A70000080C0607030383838181C1C1C1C1C1CCE
:100A80001C1C1C1C1C18383830307060C0800000E2
:100A90000000000000000000000000000000007CDA
:100AA00083010000000000000000000000000000C2
:100AB0000000000000000000000000000001837C36
:100AC0000000000000000000000000000000000026
:100AD0000102060C1C181838383070707070707075
:100AE000707070707030303838181C0C06030100BC
:100AF000000000000000000000000000000000FEF8
:100B0000707070707070707070707070707070F065
:100B1000707070707070707070707070707070FE47
:100B2000000000000000000000000000000000FFC6
:100B3000800000000000000000000000000080FFB6
:100B400000000000000000000000000000000003A2
:100B50000000000000000000000000000000000095
:100B6000030E1C1C383838383838381C0C0E03007B
:100B70000000000000000000000000000000000075
:100B80000000000000000000000000000000000065
:100B900080C0E0607030383818181C1C1C1C1C1CED
:100BA0001C1C1C1C1C1C18B8B8F0F060E0C08000B5
:100BB0000000000000000000000000000000007EB7
:100BC000C300000000000000000000000000000062
:100BD0000000000000001F3F7170E0E0E0C0C3FEB5
:100BE000C080800000000000000000000000000045
:100BF000010306060C0C1C1C1838383838383838F5
:100C000038383838383818181C1C0C06060301010F
:100C1000131F0F070000000000000000000000FE8E
:100C20007070707070707070707070707070F07044
:100C3000707070707070707070707070707070FE26
:100C4000000000000000000000000000000000FFA5
:100C5000C0000000000000000000000000C0FF30E5
:100C60007070E0E0E0C0C080808000000000000301
:100C70000000000000000000000000000000000074
:100C800003070E1E1C1C1C1C1C1C0E0E0703000060
:100C90000000000000010103030307070F0E1E7C84
:100CA0000000000000000000000000000000000044
:100CB000C07030381C1C1C1C1C3C78F8F0C0800034
:100CC00000000000000000040C0C08183878F80838
:100CD0000000000000000000000000000000007F95
:100CE000C00000000000000000000001071F7FFEA0
:100CF000F0E0800000000000000000000000817EA5
:100D000000000000000000000000000000000000E3
:100D100007070E0E0C0C0800000000000000000089
:100D200003070F0F1E1C1C1C1C1C0C0E06070100C9
:100D3000000000000000000000000000000000F8BB
:100D40001C0C0C0406020000000000000000000063
:100D50000000000000000000000000000000008013
:100D6000000000000000000000000000000000FF84
:100D70001C1C1C1C1C1C1C1C1C1C1C1C1C1C1C1CB3
:100D80001C1C1C1C1C1C1C1C1C1C1C1C1C1C1CFFC0
:100D90000000000000000000000000000000001F34
:100DA0001C1810103020000000000000000000009F
:100DB0000000000000000000000000000000000033
:100DC000000000000000000000000000000000FF24
:100DD0003838383838383838383838383838383893
:100DE00038383838383838383838383070E0C0005B
:100DF00000000000000000000000000000000001F2
:100E000000000000000000000000000000000000E2
:100E10000000000000000000000000000000817FD2
:100E20000000000000000000000000000000007F43
:100E30000808080808080808080808080808080832
:100E4000080808080808080808080804060300003D
:100E5000000000000000000000000000000000FE94
:100E600078707070F0E0E0E0E0C0C0C0C0808080CA
:100E700080000000000000000000000000000000F2
:100E80000000000000000000000000000000000161
:100E90000000000000000000000101010103838345
:100EA0008387C747474F6E2E2E3E3C1C1C1C0808EC
:100EB0000000000000000000000000000000007FB3
:100EC0001C0C0C0C040406060202030101010100C3
:100ED0000000000000000000000000000000000012
:100EE0000000000000000000000000000000007F83
:100EF0001C1C1C1C1C1818383838383830307070DE
:100F00007070606060E0E0E0E0C0C0C0C0C0C08061
:100F10000000000000000000000000000000007E53
:100F200038383838383838387878787C7C7464E4E5
:100F3000E6E6E2E2C2C3C3C1C1C1C1818080808054
:100F4000000000000000000000000000000000FCA5
:100F5000303030101010101818080808080C04045D
:100F60000404060602020303030301010101010157
:100F7000000000000000000000000000000000FC75
:100F80007070E0E0C0C08080000000000000000041
:100F9000000000000000008080C04060603038FE2B
:100FA00000000000000000000000000000000081C0
:100FB00000000000018183C3C7476F2E3E1C1C3810
:100FC0003C7C7676E3E3C1C1808080000000008035
:100FD0000000000000000000000000000000003FD2
:100FE0000E060603030101000000000000000000DF
:100FF0000000000000000101030307070F0E1E7F21
:10100000000000000000000000000000000000FEE2
:1010100078707070E0E0E0C0C0C080800000000028
:101020000000000000000000000000000000008040
:10103000000000000000000000000000000000812F
:1010400000000000000000818183C3434747272E32
:101050003E1E1C1C1C1C1C1C1C1C1C1C1C1C1CFFC9
:101060000000000000000000000000000000003F41
:101070000E0606020301010100000000000000004E
:101080000000000000000000000000000000000060
:10109000000000000000000000000000000000E070
:1010A000E0F03030180800000000000000000000F0
:1010B00000000000008080C0C0E0E0F0707838FCE4
:1010C000000000000000000000000000000000FF21
:1010D00001000000008080C0C0E0E0F07078383C83
:1010E0001C1E0E0F0707030301010000000000FF94
:1010F0000000000000000000000000000000003FB1
:101100001C1E0E0F07070303010100000000000072
:10111000000000000000000000203010181C0F0F1D
:1011200000000000000000000000000000000000BF
:1011300000000000000000000000000000000000AF
:10114000000000000000000000000000000000009F
:1011500000000000000000000000FEFE060606067B
:10116000060606060606060606060606060606061F
:10117000060606060606060606060606060606060F
:101180000606FEFE0000000000001F1F0000000019
:10119000000000000000000000000000000000004F
:1011A000000000000000000000000000000000003F
:1011B00000001F1F00000000000000000030307021
:1011C0006060C0C0C080800000000000000000001F
:1011D000000000000000000000000000000000000F
:1011E00000000000000000000000000000000000FF
:1011F00000000000010101030306060E0C0C181884
:101200003830306060C0C0C0808000000000000046
:1012100000000000000000000000000000000000CE
:1012200000000000000000000000000000000000BE
:101230000000000000000000010103030706060C87
:101240000C181818300000000000F8F8000000002A
:10125000000000000000000000000000000000008E
:10126000000000000000000000000000000000007E
:101270000000F8F80000000000003F3F2020202080
:10128000202020202020202020202020202020205E
:10129000202020202020202020202020202020204E
:1012A00020203F3F00000000000000000000000080
:1012B000000000000000000000000000000000002E
:1012C000000000000000000000000000000000001E
:1012D000000000000000000000000000008040004E
:1012E00000000000000000000000000000000000FE
:1012F00000000000000000000000000000000000EE
:10130000000000000000000000007CEE87010000EB
:1013100000000000000000000000000000000000CD
:1013200000000000000000000000000000000000BD
:1013300000000000000000000000000001030400A5
:10134000000000000000000000000000000000009D
:10135000000000000000000000000000000000008D
:10136000000000000000000000000000000000007D
:10137000000000000000000000000000000000006D
:10138000000000000000000000000000000000005D
:10139000000000000000FF0000000000000000004E
:1013A000000000000000000000000000000000003D
:1013B000000000000000000000000000000000002D
:1013C000000000000000FF0000000000000000001E
:1013D000000000000000000000000000000000000D
:1013E00000000000000000000000000000000000FD
:1013F000000000000000FF0000F0C000000000003E
:1014000000000000000000000000000000000000DC
:1014100000000000000000000000000000000000CC
:1014200000000000000000000003070F1C20000067
:1014300000000000000000000000000000000000AC
:10144000000000000000000000000000000000009C
:10145000000000000000000000000000000000008C
:10146000000000000000000000000000000000007C
:10147000000000000000000000000000000000006C
:10148000000000000000000000000000000000005C
:101490000000000000000000000000C030383838B4
:1014A00038000000C07038381C1C1C1C1C3870C070
:1014B000000000000000000000000000000000002C
:1014C000000000000000000000007FC0800000005D
:1014D0000000F00F010000000000000000C0701FBD
:1014E00000000000000000000000000000000000FC
:1014F00000000000000000000000000103070707D3
:101500000707070707070707070707474747271E74
:10151000000000000000000000000000000040602B
:101520007E707070707070707070707070F0F0F02D
:10153000707070707070707070707070F0F030104B
:10154000000000000000000000000000000000009B
:1015500000000000000000000000F8860301000009
:101560000000000000000000000000000000837C7C
:10157000000000000000000000000000000000006B
:10158000000000000000000000000003070E0E0C29
:101590001C1C1C1C1C1C1C1C1C0C0E0E060301001D
:1015A000000000000000000000000000000000003B
:1015B000000000000000000000000000C0C0E0705B
:1015C000703838383838383838307070E0C08000BB
:1015D000000000000000000000000000000000000B
:1015E00000000000000000000000FC0701000000F7
:1015F000000000000000000000000000000103FEE9
:1016000000000000000000000000000000000000DA
:10161000000000000000000000000003060E0E0E97
:101620000E00000000000000001010080C0603006F
:1016300000000000000000000000000000000000AA
:10164000000000000000000000000080C0E070709A
:1016500070383838383838383830707060C08000AA
:10166000000000000000000000000000000000007A
:10167000C00000000000000000003EC300000000A9
:101680000000000000000000000000000080413F5A
:101690000000000000000000000000000000080C36
:1016A0000F0E0E0E0E0E0E0E0E0E0E0E0F0E0E0E58
:1016B0000E0E0E0E0E0E0E0E0E0E0E0F0F0E7E06E0
:1016C000000000000000000000000000000000001A
:1016D000000000000000000000000080C0E060701A
:1016E00030383838F838383838307070E0C080001A
:1016F00000000000000000000000000000000000EA
:10170000000000000000000000007E8301000000D7
:1017100000000000FF000000000000000001837EC8
:1017200000000000000000000000000000000000B9
:1017300000000000000000000000000103060E0C85
:101740001C1C1C1C1F0000000000080404020100F7
:101750000000000000000000000000000000000089
:1017600000000000000000000000FC00000000007D
:10177000000000000000000000000000000000F871
:101780000000000000000000000000000000000059
:10179000E0380C0E070707070707FF0707070707CB
:1017A000070707070707070707070707070707FFD1
:1017B0000000000000000000000000000000000029
:1017C0000F30707070000000000007000000000083
:1017D0000000000000000000000000000000000108
:1017E00000000000000000000000000000000000F9
:1017F000000000000000000000000080C0E07070E9
:10180000707070E0C080E0707070F0E0C0703038D0
:1018100038383870E00000000000000000000000D0
:10182000000000000000000000007FC18080000078
:101830000000000080C17E0000000FFFFF8000005C
:101840000000000081FF0000000000000000000018
:1018500000000000000000000000383F33030707CD
:101860000707070303010000000000030F0F1E1C01
:101870001C1C0C0E03000000000000000000406073
:101880007E707070707070707070707070F0F0704A
:10189000707070707070707070707070707070FEBA
:1018A0000000000000000000000000000000000038
:1018B00000000000000000000000F88603010000A6
:1018C000000000000000000000000000000000C355
:1018D0000000000000000000000000000000000008
:1018E000000000000000000000000103070E0E0EC3
:1018F0000E0E0E0E0E0E0E0E0E0E0E0E0E0E0E7F97
:1019000000000000000000000000000000000000D7
:1019100000000000000000000000E00000000000E7
:10192000000000000000000000000000000000E0D7
:10193000000000000000000000000000000000386F
:101940007C7C7C380000000000303F383838383864
:10195000383838383838383838383838383838FF40
:101960000000000000000000000000000000000077
:101970000000000000000000000000000000000067
:101980000000000000000000000000000000000F48
:101990000000000000000000000000000000000047
:1019A0000000000000000000000000000000000037
:1019B0000000000000000000000000000000000027
:1019C00000707070E0C00000000000000000000027
:1019D00080808000000000000000F800000000008F
:1019E00000000000000000000000000000000000F7
:1019F000000080C0601F0000000000000000000721
:101A00000F0F0F0700000000000607070707070772
:101A10000707070707070707070707070707070756
:101A20000703030100000000000000000000406008
:101A30007E70707070707070707070707070707098
:101A40007070707070F0F07070707070707070FE08
:101A50000000000000000000000000000000000086
:101A600000000000000000000000E080C0C0603006
:101A7000180C1C1E3B3970E0E0C0C080000000C3A1
:101A80000000000000000000000000000000000056
:101A9000000000000000000000000F010000000036
:101AA00000000000000000000001010307070F3FD5
:101AB0000000000000000000000000000000000026
:101AC000E000000000000000000000000000000036
:101AD000000000000000000000000000000000E026
:101AE000000000000000000000000000000020389E
:101AF0003F3838383838383838383838383838385F
:101B0000383838383838383838383838383838FF8E
:101B100000000000000000000000000000000000C5
:101B200000000000000000000000000000000000B5
:101B30000000000000000000000000000000000F96
:101B40000000000000000000000000000000000095
:101B5000000000000000000000203EB8783838384F
:101B6000383838383838383838383838383838FE2F
:101B70000000000000000000000000000000000065
:101B8000000000000000000000001FBC783838385A
:101B9000383838383838383838383838383838FEFF
:101BA0000000000000000000000000000000000035
:101BB000000000000000000000000F1C383838381A
:101BC000383838383838383838383838383838FECF
:101BD0000000000000000000000000000000000005
:101BE000000000000000000000407E7070F0F07007
:101BF000707070707070707070707070707070FE57
