:020000040800F2
:1000000010A1002045010008B11900085115000891
:1000100027190008FF070008C53400080000000089
:10002000000000000000000000000000F11D0008BA
:100030007D0B000800000000591A0008371F000857
:10004000C93400083D1A0008A11F00085F0100081C
:1000500051120008611D00085F0100085F010008DF
:10006000C5110008E5110008051200085F0100082D
:100070004D090008750900085F0100085F010008CC
:100080005F0100089D0900085F0100085F0100088A
:100090005F0100080508000825080008251200086F
:1000A000C11F00082520000801200008E11F0008EA
:1000B0005F0100085F010008452000087D18000866
:1000C0005D180008BD1800089D1800089D1D000857
:1000D000B91D0008B92E00080D2F00085F010008A7
:1000E000A11100087D1D0008B934000899200008FE
:1000F000FD200008D9200008B92000089107000859
:10010000711200085F01000861200008D51D000879
:10011000112E0008652E00085F0100087D200008F0
:10012000C5090008ED090008150A00085F0100086C
:10013000DFF80CD000F0F2FA00480047D53D000887
:1001400010A100200648804706480047FEE7FEE76A
:10015000FEE7FEE7FEE7FEE7FEE7FEE7FEE7FEE777
:10016000411F0008310100082DE9FE4F804681EA59
:100170000300C00F0C46009021F0004123F0004521
:10018000B8EB0200A94105D24046214690461C46E4
:100190000B46024623F00040104304D1404621465E
:1001A00003B0BDE8F08F270DC7F30A00C3F30A516F
:1001B0000290401A0190402866DAC3F3130040F41D
:1001C000801B0098924620B10023D2EB030A63EB18
:1001D0000B0B01985946C0F14002504600F0ABF9B4
:1001E00006460D4650465946019A00F0C3F910EBF9
:1001F00008006141002487EA115284EAE7731A4338
:100200003BD0009A3AB3019A012A4FEA075210DC18
:10021000001B61EB02014FF0004202EA0752CDE9F8
:100220000042001C41F5801132462B4600F0F7F9E0
:10023000B6E7001B61EB0201001C41F580130018BA
:100240005B412018A2F5001747EB030140EAD57087
:10025000B6196D4111E06D084FEA360645EAC075E2
:100260004FEA0752001B61EB0201001C41F58011AF
:1002700049084FEA30000019514132462B4603B07D
:10028000BDE8F04F00F0BEB9009801224000002305
:10029000D0EB020263EBE073009821464FEAE07472
:1002A000B8EB000061EB0401E9E783F000435BE792
:1002B00081F0004158E72DE9FE4F81EA030404F084
:1002C000004421F0004100944FF0000B23F0004364
:1002D00050EA010402D052EA030404D1002001468E
:1002E00003B0BDE8F08FC3F30A54C1F30A552C44A0
:1002F000A4F2F3340194A0FB0254C1F3130141F4BE
:100300008011C3F3130343F4801301FB024400FB89
:10031000034E840A970A44EA815447EA8357A4FBB0
:10032000076802958D0A05FB07854FEA932C04FBAD
:100330000C542705029D4FEA065847EA1637B5EBDD
:1003400008056EEB070C870E920E47EA811742EA0A
:100350008312A7FB0201B6EB0B0164EB00042B0D2B
:1003600043EA0C335E1844EB1C50DA465146E7FB77
:100370000201C5F313044FEA0B3343EA14534FEA67
:100380000432019C43EA0603A4F10C040294009C8D
:10039000CDE900B400F043F9A2E72DE9F04D81EA80
:1003A000030404F0004B21F0004514464FF0000A0E
:1003B00023F0004150EA050220D054EA01021DD08A
:1003C000C5F30A570246C5F31303C1F31300C1F383
:1003D0000A5640F4801543F48013A7EB0608101B5F
:1003E000D64608F2FD3873EB050002D308F1010888
:1003F00001E092185B41B8F1000F03DA00200146DA
:10040000BDE8F08D00204FF48011064684460EE0D2
:10041000171B73EB050705D3121B63EB050306439C
:100420004CEA010C49084FEA300092185B4150EA4F
:100430000107EDD152EA030012D082EA040083EAF8
:100440000501084303D100224FF0004308E0101BD0
:10045000AB4102D20122002302E06FF001025310EF
:100460001AEB06004CEB085110EB0A0041EB0B01B4
:10047000BDE8F04D00F0C6B896230022114600F00A
:1004800094B800F0004230F000400AD0C10D01F5F0
:100490006071C0F3160042EA0151C20840071143DF
:1004A000704700200146704730B50B4601460020DA
:1004B0002022012409E021FA02F59D4205D303FA26
:1004C00002F5491B04FA02F52844151EA2F10102A7
:1004D000F1DC30BD2DE9F05F0546002092469B46D9
:1004E00088460646814640241BE02846414647464A
:1004F000224600F02FF853465A46C01A914110D3B5
:1005000011461846224600F016F82D1A67EB01082E
:100510004F4622460120002100F00DF817EB00099C
:100520004E41201EA4F10104DFDC484631462A4634
:100530004346BDE8F09F202A04DB203A00FA02F18E
:10054000002070479140C2F1200320FA03F31943C1
:1005500090407047202A04DB203A21FA02F0002163
:10056000704721FA02F3D040C2F1200291400843C3
:1005700019467047202A06DBCB17203A41FA02F0D1
:1005800043EAE07306E041FA02F3D040C2F12002F0
:1005900091400843194670470029A8BF7047401C86
:1005A000490008BF20F00100704710B4B0FA80FC89
:1005B00000FA0CF050EA010404BF10BC704749B1C6
:1005C000CCF1200421FA04F411FA0CF118BF012136
:1005D00021430843A3EB0C01CB1D0106000A002BAD
:1005E000BEBF002010BC704700EBC3501044002970
:1005F000A4BF10BC7047401C490008BF20F0010098
:1006000010BC704710B5002B08DA401C41F1000106
:1006100092185B411A4301D120F0010010BD2DE971
:10062000F04D92469B4611B1B1FA81F202E0B0FA68
:1006300080F220329046FFF77EFF04460F4640EAE4
:100640000A0041EA0B0153465A46084303D12046AB
:100650003946BDE8F08D114653EA010015D0C8F1C6
:1006600040025046FFF776FF05460E465046594673
:100670004246FFF760FF084301D0012000E0002060
:10068000054346EAE0762C4337430A984FEA445341
:10069000A0EB08004FEAD4240A304FF0000244EAED
:1006A00047544FEAD72502D500200146D1E701057E
:1006B00010196941DDE9084500196941BDE8F04DAF
:1006C000A0E7C1F30A52C1F3130140F2FF3341F432
:1006D00080119A4202DA00200146704740F233430B
:1006E0009A42A2F2334202DC5242FFF733BFFFF7D5
:1006F00022BF000030B5002904DB4FF00044404227
:1007000064EB0101002B04DB4FF00044524264EB28
:100710000303994208BF904230BD0000064C074DCC
:1007200006E0E06840F0010394E8070098471034C1
:10073000AC42F6D3FFF700FD003F0008203F000861
:1007400082B02DE9FF1FEFF3038001B4684600F18A
:10075000400000E901400C480168C1F800D00B4896
:10076000D0F800D001BC80F30388BDE8FF1F01B0C2
:1007700000BD0648D0F800D001BC80F30388BDE876
:10078000FF1F01B000BD00003C0000203800002029
:1007900010B5032101A000F051F910BD41444333CD
:1007A0005F49525148616E646C65720006E04FF417
:1007B0007A7100BF0A00A1F10101FBD10200A0F192
:1007C0000100F4D17047F0B5034600201C460D46E9
:1007D000104603E014F8016B05F8016B1600A2F156
:1007E0000107BAB2F6D1F0BD30B5034601E003F817
:1007F000011B1400A2F10105AAB2F8D130BD00BF5F
:10080000FEE7000010B5032101A000F017F910BDAC
:1008100043414E315F5258315F49525148616E64D5
:100820006C65720010B5032101A000F007F910BD3E
:1008300043414E315F5343455F49525148616E64B5
:100840006C65720010B5002400F04CF804E0601CE8
:10085000C4B2012000F01EF80D48006808B1642CF5
:10086000F5DB642C01DB012010BD002404E0601CDA
:10087000C4B2012000F00EF80548006808B9642CE5
:10088000F5DB642C01DB0120EEE70020ECE7000043
:100890001001214200EB80014906080E00BF010053
:1008A000A0F10102D0B2FAD17047000008B50121D1
:1008B000042001F0DBF91020ADF800008DF80300F2
:1008C00003208DF802006946054800F019FD10214B
:1008D000034800F0ECFD00F023F8FFF7B3FF08BD7C
:1008E0000008014008B51020ADF8000048208DF840
:1008F00003006946014800F003FD08BD00080140FF
:1009000008B51020ADF800008DF8030003208DF825
:1009100002006946014800F0F3FC08BD00080140F0
:1009200010B5FFF7EDFF0020064908604FF01200F8
:1009300001F090FE01200449C1F89001022001F06D
:1009400089FE10BD900121420000214210B5032113
:1009500001A000F073F810BD444D41315F43686160
:100960006E6E656C325F49525148616E646C65729F
:100970000000000010B5032101A000F05FF810BDD9
:10098000444D41315F4368616E6E656C335F49521F
:100990005148616E646C65720000000010B503215F
:1009A00001A000F04BF810BD444D41315F43686138
:1009B0006E6E656C375F49525148616E646C65724A
:1009C0000000000010B5032101A000F037F810BDB1
:1009D000444D41325F4368616E6E656C315F4952D0
:1009E0005148616E646C65720000000010B503210F
:1009F00001A000F023F810BD444D41325F4368610F
:100A00006E6E656C325F49525148616E646C6572FE
:100A10000000000010B5032101A000F00FF810BD88
:100A2000444D41325F4368616E6E656C335F49527D
:100A30005148616E646C6572000000000FB470B5BF
:100A40009AB0012400253D480078FF2801D10120FB
:100A500000E0002039490978394A1278914201D1E1
:100A6000012100E00021084363D01FA819906846C7
:100A7000199A1E9902F036FD002019901FA81990AE
:100A800025211E9800F002FC044602E0199820C8B7
:100A900019902000A4F10104F8D1199820C81990E8
:100AA0000020199027480078FF2801D1012000E09C
:100AB000002024490978A94201D1012100E0002148
:100AC000084336D02048007810F0010F07D01F48A7
:100AD000007800F053FB10B1684600F047F8694613
:100AE0001BA001F007FA1848007810F0020F0DD093
:100AF0001849087800F042FB40B1684600F0D9FC84
:100B0000064632466946144802F0C6FC0E48007894
:100B100010F0040F0DD00F49487800F02FFB40B1C2
:100B2000684600F0C6FC0646324669460B4802F0AD
:100B3000B3FC1AB070BC5DF814FB00006400002028
:100B400048000020660000206500002014000020FE
:100B50000D0A00001500002000380140004400404C
:100B600001490870704700006500002070470000D0
:100B700001490870704700006600002070470000BF
:100B800010B500201A4908704FF4A07000F0EAFE7A
:100B900018490860002406E0FF2017490855174946
:100BA0000855601CC4B2052CF6DB00241DE00020B3
:100BB0001049096801EB4411486103200D49096897
:100BC00001EB4411087200200A49096801EB441145
:100BD00008610849096801EB4411C86005490968C2
:100BE00001EB44118861601CC4B20A2CDFDB10BD2C
:100BF000580000205C000020150000201A00002092
:100C000038B500243CE02048006800EB4410006840
:100C1000002833D01C48006800EB4410C07901283C
:100C200004D002281ED0032827D110E00320009012
:100C30001548006800EB4410C3691348006800EBD6
:100C400044102146026811A0FFF7F8FE15E00E4897
:100C5000006800EB441003232146026811A0FFF74F
:100C6000EDFE0AE00848006800EB4410032321462B
:100C700002680CA0FFF7E2FE00BF00BF601CC4B218
:100C80000A2CC0DB38BD00005C000020446576699A
:100C900063655B25645D4E616D653A25735B256414
:100CA0005D0000004465766963655B25645D4E61A7
:100CB0006D653A25730000002D4800782D490870B5
:100CC0002B480078401C2A4908702A4800782A4995
:100CD0000968284A127801EB4211087127A12648B9
:100CE0000068244A127800EB42100160002022497B
:100CF0000968204A127801EB4211487102201E490E
:100D000009681C4A127801EB4211C87101211A4886
:100D10000068184A127800EB421001721848164910
:100D20000968144A127801EB4211486115491248CA
:100D30000068104A127800EB4210C16100210E4891
:100D400000680C4A127800EB4210C16000200A498A
:100D50000968084A127801EB42110861002106482F
:100D60000068044A127800EB42108161704700006D
:100D700058000020680000205C000020435452000E
:100D800015140008083E00082C4800782C4908700B
:100D90002A480078401C29490870294800782949C8
:100DA0000968274A127801EB4211087126A12548EB
:100DB0000068234A127800EB4210016000202149AC
:100DC00009681F4A127801EB4211487103201D493E
:100DD00009681B4A127801EB4211C87101211948B8
:100DE0000068174A127800EB421001721848154942
:100DF0000968134A127801EB421148610021114839
:100E000000680F4A127800EB4210C1610D4800687B
:100E10000B4A127800EB4210C160002009490968B2
:100E2000074A127801EB4211086100210548006869
:100E3000034A127800EB421081617047580000208D
:100E40006B0000205C000020485431363231000035
:100E5000F91400082D4800782D4908702B480078B7
:100E6000401C2A4908702A4800782A490968284AFB
:100E7000127801EB4211087127A126480068244A24
:100E8000127800EB42100160002022490968204AD4
:100E9000127801EB4211487102201E4909681C4A70
:100EA000127801EB4211C87101211A480068184AF2
:100EB000127800EB42100172184816490968144A6A
:100EC000127801EB42114861154912480068104A36
:100ED000127800EB4210C16100210E4800680C4AF4
:100EE000127800EB4210C16000200A490968084AE4
:100EF000127801EB42110861002106480068044A9B
:100F0000127800EB42108161704700005800002009
:100F1000690000205C0000205349470015140008B8
:100F2000383E000870B50546284602F06FF90446C1
:100F30005F48005DFF2808D15E4800785C4908558D
:100F40005C480078401C5B4908705BA05849095D0B
:100F50005B4A126802EB4111086000205449095DA8
:100F6000574A126802EB4111487101205049095D4E
:100F7000534A126802EB4111C87103204C49095DC4
:100F80004F4A126802EB411108724E484849095D08
:100F90004B4A126802EB411148614548005D4849DF
:100FA000096801EB4010C46147494148005D444A6B
:100FB000126802EB4010C16044483D49095D404A57
:100FC000126802EB4111086100213948005D3C4A7A
:100FD000126802EB4010816100203D4921F81400A5
:100FE0004FF4967000F0BEFC3A4941F824002846C0
:100FF00002F00CF904463848005DFF2808D12D485E
:101000000078354908552B480078401C294908705C
:1010100029A03149095D2A4A126802EB4111086092
:1010200000202D49095D264A126802EB41114871E2
:1010300001212948005D224A126802EB4010C1716B
:1010400003202549095D1E4A126802EB411108720E
:101050001C492148005D1A4A126802EB40104161A8
:101060001D48005D1649096801EB4010C46116482F
:101070001949095D124A126802EB4111C860134810
:101080001549095D0E4A126802EB41110861002002
:101090001149095D0A4A126802EB411188614FF457
:1010A000967000F05FFC0D4941F8240070BD00000F
:1010B0001A00002058000020555341525478000077
:1010C0005C000020B52F000879340008B533000813
:1010D00098000020700000201500002084000020EF
:1010E00010B503211DA0FFF7A9FC002433E022481E
:1010F000006800EB4410406958B31F48006800EBDB
:101100004410C079012804D0022815D003281FD12B
:101110000BE0194A126802EB4412107F164A12685B
:1011200002EB44125169884712E01349096801EB48
:101130004411486980470BE00F4A126802EB4412E1
:10114000D0690D4A126802EB44125169884700BF0A
:1011500000BF601CC4B20A2CC9DB10BD546F7320E1
:1011600044657669636520496E69742E2E2E2E2E95
:101170002E2E2E2E2E0000005C0000200146FF299E
:1011800001D1002070470548006800EB411040691C
:1011900008B90020F6E70120F4E700005C00002019
:1011A00010B5032101A0FFF749FC10BD4558544973
:1011B00031355F31305F49525148616E646C657200
:1011C0000000000010B5032101A0FFF737FC10BD9F
:1011D00045585449325F49525148616E646C65729A
:1011E0000000000010B5032101A0FFF727FC10BD8F
:1011F00045585449335F49525148616E646C657279
:101200000000000010B5032101A0FFF717FC10BD7E
:1012100045585449345F49525148616E646C657257
:101220000000000010B5032101A0FFF707FC10BD6E
:1012300045585449395F355F49525148616E646C75
:101240006572000001490860704700001404014005
:1012500010B5032101A0FFF7F1FB10BD464C41532F
:10126000485F49525148616E646C6572000000002D
:1012700010B5032101A0FFF7E1FB10BD46534D431C
:101280005F49525148616E646C65720010B5024648
:10129000002005E012F8014B8C4201D1431C98B2AA
:1012A0001378002BF6D110BD70B5044600251078D8
:1012B00020B116782068B0FBF6F085B220680844AB
:1012C00020601078984203DA1078401C107002E019
:1012D0002068401B206016782068B0FBF6F080B2D2
:1012E00070BD0FB438B5044606A800902046009A99
:1012F000059902F0F7F80020009038BC5DF814FB67
:101300002DE9F0410246002500260020002300249C
:10131000002791F803C00CF00F0591F803C01CF0F2
:10132000100F03D091F802C04CEA050591F800C0F7
:10133000BCF1000F31D0146800202BE04FF0010CFD
:101340000CFA00F3B1F800C00CEA03069E4220D16B
:1013500083004FF00F0C0CFA03F7BC4305FA03FCB3
:101360004CEA040491F803C0BCF1280F06D14FF0F9
:10137000010C0CFA00FCC2F814C00AE091F803C09A
:10138000BCF1480F05D14FF0010C0CFA00FCC2F87B
:1013900010C0401C0828D1D31460B1F800C0BCF1C3
:1013A000FF0F34DD546800202EE000F1080C4FF0F0
:1013B000010808FA0CF3B1F800C00CEA03069E42DB
:1013C00021D183004FF00F0C0CFA03F7BC4305FA50
:1013D00003FC4CEA040491F803C0BCF1280F05D1CA
:1013E00000F1080C08FA0CF8C2F8148091F803C058
:1013F000BCF1480F07D100F1080C4FF0010808FAC2
:101400000CF8C2F81080401C0828CED35460BDE808
:10141000F081000038B5044636E01D4A6068811A44
:10142000904217D009DC1B4940180DD0B0F5806FF1
:101430000CD0B0F5006F13D10AE0B1F5806F0BD07E
:10144000B1F5006F0CD109E0042509E0082507E09B
:10145000102505E0202503E0402501E0802500BFA0
:1014600000BF45F00100012100F000FC20788DF85C
:1014700002002089ADF8000060788DF8030069460D
:101480006068FFF73DFF0C3420780028C5D138BDD7
:101490000014014000F8FEBF0246002093680B4292
:1014A00001D0012000E000207047416170470161D8
:1014B000704710B5014600200A4601E0431C98B26F
:1014C00012F8014B002CF9D110BD000000200021C2
:1014D0000CE001EB4102074B1B6803EB021212897F
:1014E000012A01D0421CD0B24A1CD1B21429F0DB2F
:1014F000704700005000002010B50B48FFF78AFF2E
:10150000562000F029F8302000F026F8002000F0E6
:1015100023F80A2000F020F8032000F01DF8062030
:1015200000F01AF810BD0000503E000810B500246D
:1015300001210648FFF7B0FF00B902240221034849
:10154000FFF7AAFF00B90124204610BD001001409A
:1015500001E000F0C3F9FCE710B5044680210B4818
:10156000FFF7A3FF032000F03FF80421802000F0E4
:101570000FF80821204600F00BF880210348FFF700
:1015800096FF042000F030F810BD00000008014074
:1015900070B504460D46002620E040211148FFF7B3
:1015A00084FF032000F020F814F0800F04D02021E5
:1015B0000C48FFF77CFF03E020210A48FFF775FF86
:1015C000032000F011F840210648FFF770FF600685
:1015D000040E012000F008F8701CC6B2AE42DCDB3D
:1015E00070BD00000008014000EB400188B200BF60
:1015F0000100A0F1010290B2FAD1704710B50024A9
:1016000000BF05E00021204600F008F9601CC4B2CC
:101610001E2CF7DB10BD00003EB5002015490881E7
:101620000846008940F088000881FFF7E7FF11496C
:101630000868FEF726FF044622460B460EA16846C0
:10164000FFF74FFE684600F081F80A494868FEF748
:1016500018FF044622460B4607A16846FFF741FEE5
:10166000684600F01BF80348017A1E2000F0C8F815
:101670003EBD0000009D0020252E32660A000000BD
:1016800070B505460C4604480168284600F0B1FBD9
:10169000265C304670BD00006C0000207CB506461C
:1016A00000243546082200216846FFF79DF81CE01B
:1016B00028782E280CD028782349FFF7E1FF1DF861
:1016C000041008430DF80400601CC4B26D1C09E04E
:1016D0006D1C1D492E20FFF7D3FF1DF80410084391
:1016E0000DF80400032C00DD02E028780028DFD18B
:1016F00000BF6D4617E014492E20FFF7C1FF9DF88B
:10170000011008420ED0032409E0601E1DF80000FD
:101710000DF804000021601E0DF80010C4B2002C6A
:1017200001DDF2E700E0E6E700BF002409E015F87C
:10173000011B0A2202EB4402D0B200F061F8601CE7
:10174000C4B2042CF3DB7CBD813E00087CB50646A8
:1017500000243546082200216846FFF745F81CE0C2
:1017600028782E280CD028782449FFF789FF1DF807
:10177000041008430DF80400601CC4B26D1C09E09D
:101780006D1C1E492E20FFF77BFF1DF80410084337
:101790000DF80400032C00DD02E028780028DFD1DA
:1017A00000BF6D46062417E014492E20FFF768FF9E
:1017B0009DF8011008420ED0032409E0601E1DF8B8
:1017C00000000DF804000021601E0DF80010C4B2E6
:1017D000002C01DDF2E700E0E6E700BF002409E0AD
:1017E00015F8011B0622A2EB4402D0B200F008F863
:1017F000601CC4B2042CF3DB7CBD0000743E000806
:1018000070B505460C4604F00F01284600F006F8B6
:1018100021116A1CD0B200F001F870BD70B5044609
:101820000D4680210C48FFF740FE0320FFF7DCFE49
:101830000321A020FFF7ACFEA106080E0621FFF74A
:10184000A7FE2907080E0421FFF7A2FE8021024807
:10185000FFF72DFE70BD00000008014010B5032108
:1018600001A0FFF7EBF810BD493243315F45525FED
:1018700049525148616E646C6572000010B50321D5
:1018800001A0FFF7DBF810BD493243315F45565FD9
:1018900049525148616E646C6572000010B50321B5
:1018A00001A0FFF7CBF810BD493243325F45525FCC
:1018B00049525148616E646C6572000010B5032195
:1018C00001A0FFF7BBF810BD493243325F45565FB8
:1018D00049525148616E646C6572000071B600BF78
:1018E0000648006800F4E06005490843001D03490C
:1018F0000860BFF3408F00BF00BFFEE70CED00E0C3
:101900000000FA0570B5054625B1284600F078FFBD
:10191000044602E000F03EFF044614B1666830461B
:1019200070BD0020FCE700BFFEE70000054A11681B
:10193000486802E009684A6810440A68002AF9D138
:101940007047000060000020054908600021044A3B
:10195000126811600821024A126851607047000045
:101960006000002010B503461048016803F108002C
:1019700083B20FE00868401A4C68001B984208D3F5
:10198000486842185360086810600A6002F1080055
:1019900010BD096808680028ECD14868421800208A
:1019A000106053600A6002F10800F1E76000002057
:1019B0007047000070B5002100230F22C4780CB3DB
:1019C000164C246804F4E064C4F5E064210AC1F113
:1019D0000403CA40447804FA03F184781440214394
:1019E00009010F4C0678A155047804F01F05012465
:1019F000AC4005786D114FF0E02606EB8505C5F883
:101A0000004109E0047804F01F050124AC40054DB5
:101A10000678761145F8264070BD00000CED00E018
:101A200000E400E080E100E002490143024A116065
:101A3000704700000000FA050CED00E010B503212E
:101A400001A0FEF7FBFF10BD5056445F49525148BC
:101A5000616E646C657200007047000010B503226F
:101A600009A10BA0FEF7EAFF03220DA110A0FEF7CB
:101A7000E5FF0322124913A0FEF7E0FF03221649F7
:101A800016A0FEF7DBFF10BDB2E2CAD400000000D2
:101A9000426F6172645F4E616D653A2573000000AC
:101AA00053544D33324631303356455436000000DE
:101AB0004350555F4D6F64656C3A2573000000001C
:101AC00000127A004370755F4F53435F4652455191
:101AD0003A2025644D687A0000A24A044370755F7D
:101AE000467265713A2025644D687A00704700009F
:101AF0001FB50948006801900748001D0068029062
:101B000005480830006803900320009003A001A955
:101B10000EC9FEF793FF1FBDE8F7FF1F494320439F
:101B20006F64653A2558202558202558000000008C
:101B30007047000010B5032108A0FEF77FFFFFF7F4
:101B40008DFFFFF7D3FFFFF7D3FFFFF759F800F042
:101B500013F8FFF7EDFF00F02FF810BD0A546F7374
:101B60002053797374656D2053746172742E2E2E18
:101B70002E2E2E2E2E2E2E0010B5FFF7A7FC04467B
:101B800003232246142102A0FEF758FF10BD0000D7
:101B90005461736B506F6F6C53697A653A2564209A
:101BA00062757420686173202564207461736B20F2
:101BB0006372656174652E0038B500241DE004EB86
:101BC00044001549096801EB0010C06A98B1032070
:101BD000009004EB44001049096801EB0010038CED
:101BE00004EB44000C49096801EB00102146C26A6D
:101BF0000AA0FEF723FF601CC4B2142CDFDB601EBA
:101C0000C4B2FFF793FE054603232A4649F6404136
:101C100007A0FEF713FF38BD500000205461736B1E
:101C20005B25645D4E616D653A2573282564290046
:101C30004D656D6F727953697A653A2564206275D6
:101C40007420757365723A256400000029B1064A54
:101C5000D2690243044BDA6104E0034AD269824349
:101C6000014BDA61704700000010024029B1064ABA
:101C700092690243044B9A6104E0034A92698243E9
:101C8000014B9A61704700000010024030B50021FE
:101C90000022002400232D4D6D6805F00C0121B1B8
:101CA000042905D0082923D105E0294D056022E04B
:101CB000274D05601FE0254D6D6805F47012234D1A
:101CC0006D6805F48034022505EB92421CB9214D64
:101CD000554305600BE01D4D6D6815F4003F03D0C2
:101CE0001C4D5543056002E0194D5543056002E067
:101CF000174D056000BF00BF144D6D6805F0F00181
:101D00000909154D6B5C0568DD4045600F4D6D6838
:101D100005F4E061090A104D6B5C4568DD408560A3
:101D20000A4D6D6805F46051C90A0B4D6B5C45683E
:101D3000DD40C560054D6D6805F44041890B074DD8
:101D40006B5CC568B5FBF3F5056130BD0010024062
:101D500000127A0000093D00000000201000002061
:101D600010B5032101A0FEF769FE10BD5243435F89
:101D700049525148616E646C6572000010B50321D0
:101D800001A0FEF75BFE10BD525443416C61726DC1
:101D90005F49525148616E646C65720010B5032151
:101DA00001A0FEF74BFE10BD535049315F4952511F
:101DB00048616E646C65720010B5032101A0FEF7E6
:101DC0003DFE10BD535049325F49525148616E6427
:101DD0006C65720010B5032101A0FEF72FFE10BD47
:101DE000535049335F49525148616E646C657200CB
:101DF00070470246002006E00B78934200D17047FE
:101E0000431CD8B2491C0B78002BF5D100BFF6E774
:101E100010B500F001F810BD0CB500200190009045
:101E20003248006840F480303049086000BF2F48D5
:101E3000006800F4003000900198401C0190009868
:101E400018B90198B0F5A06FF1D12848006810F4D6
:101E5000003F02D00120009001E000200090009897
:101E6000012842D12248006840F010002049086053
:101E70000846006820F0030008600846006840F04B
:101E800002000860194840681849486008464068E0
:101E900048600846406840F48060486008464068F2
:101EA00020F47C1048600846406840F4E810486020
:101EB0000846006840F08070086000BF0B4800686A
:101EC00010F0007FFAD00948406820F0030007496D
:101ED00048600846406840F00200486000BF034880
:101EE000406800F00C000828F9D10CBD0010024039
:101EF000002002402DE9F04106460D462C463746AB
:101F00002846FFF7D6FA04443046FFF7D2FA804657
:101F100018F1010001D1BDE8F08103E017F8010BD1
:101F200004F8010B5FEA0800A8F10108F6D104F8F3
:101F3000010B00BFEFE710B500F090FA10BD0000F4
:101F400010B51348006840F00100114908600846C8
:101F50004068104908400E494860084600680E492C
:101F600008400B4908600846006820F4802008609B
:101F70000846406820F4FE0048604FF41F00886067
:101F8000FFF746FF4FF000600449086010BD0000F5
:101F9000001002400000FFF8FFFFF6FE08ED00E031
:101FA00010B5032101A0FEF749FD10BD54414D506D
:101FB00045525F49525148616E646C657200000081
:101FC00010B5032101A0FEF739FD10BD54494D3174
:101FD0005F42524B5F49525148616E646C657200BA
:101FE00010B5032101A0FEF729FD10BD54494D3164
:101FF0005F43435F49525148616E646C65720000F3
:1020000010B5032101A0FEF719FD10BD54494D3153
:102010005F5452475F434F4D5F49525148616E6470
:102020006C65720010B5032101A0FEF707FD10BD1D
:1020300054494D315F55505F49525148616E646C4F
:102040006572000010B5032101A0FEF7F7FC10BD7A
:1020500054494D345F49525148616E646C65720059
:1020600010B5032101A0FEF7E9FC10BD54494D3520
:102070005F49525148616E646C65720010B503216E
:1020800001A0FEF7DBFC10BD54494D375F495251AA
:1020900048616E646C65720010B5032101A0FEF703
:1020A000CDFC10BD54494D385F42524B5F495251EF
:1020B00048616E646C65720010B5032101A0FEF7E3
:1020C000BDFC10BD54494D385F43435F49525148F0
:1020D000616E646C6572000010B5032101A0FEF70B
:1020E000ADFC10BD54494D385F5452475F434F4DCE
:1020F0005F49525148616E646C65720010B50321EE
:1021000001A0FEF79BFC10BD54494D385F55505F50
:1021100049525148616E646C657200000220FEF7FE
:102120001FFDFF20FEF724FDFFF704FD07E0052259
:1021300003A1064801F0B0F90A2000F08BFAF6E797
:1021400046647361667361670000000000380140F7
:1021500086B000F015FB002509E005EB4500694657
:10216000084402A901EBC5014860681CC5B2022DF4
:10217000F3DB022102A800F03DFA1BE00A2000F088
:1021800069FA0020FFF7BEFB04469CB16078012885
:1021900006D12078062803D180210748FFF785F96A
:1021A0006078012806D12078042803D180210248D4
:1021B000FFF77DF9E2E70000000C014008210E481E
:1021C000FFF775F908210C48FFF76FF912E04FF49B
:1021D0007A7000F03FFAFFF71FFAFEF767FB04463C
:1021E000FEF74AF905490860054848604FF47A70DF
:1021F00000F030FAEBE7000000100140009D0020E5
:10220000CDCC444108B546E00A2000F023FAFFF7A0
:102210008DF98DF8010000208DF802009DF8010075
:10222000002838D008211C48FFF741F9042000F0AD
:1022300011FA08211848FFF738F90DE00A2000F0DC
:1022400009FA9DF80200401C40B28DF802009DF989
:102250000200322800DD03E0FFF768F90028EDD125
:1022600000BF9DF90200322803DD04208DF8000034
:1022700002E006208DF800006B460322012107488A
:10228000007800F0F3FA02E00A2000F0E3F9FFF72B
:102290004DF90028F8D1B7E7001001406A0000208E
:1022A00010B510480078132804D00F480078401C5F
:1022B0000D4908700D480078401C0C49087008460C
:1022C000007864280DDD002008701423084A0648B1
:1022D00001780848FEF7E8FF074908700020024926
:1022E000087010BD48000020340000202C000020A1
:1022F0002D000020300000204000002010B54FF4D9
:102300007070FFF72FFB22490860022021494870B6
:1023100000204860002428E0012004EB44011C4A0E
:10232000126802EB01110881002004EB4401184AF5
:10233000126802EB01118861002104EB4400144A89
:10234000126802EB00100160002004EB4401104A07
:10235000126802EB0111C86104EB44010C4A1268D7
:1023600002EB01110884601CC4B2142CD4DB1320CE
:102370000949087000200949086009498873094B18
:10238000FF224FF47A71064800F088FC10BD00006F
:102390005000002040000020480000205400002091
:1023A000AC000020852D000870B50446FFF7A6FF9D
:1023B00004E094E80F0000F0EBF8103420680028E7
:1023C000F7D100F00BF870BDFEF78AFE04E0642040
:1023D00000F040F900F0ACFCF9E7000038B518490E
:1023E000B1F1807F00D31DE021F07F40401E4FF00F
:1023F000E022506150170F22002807DA13071D0E44
:10240000104B00F00F04241F1D5503E013071C0E92
:102410000D4B1C5400BF00204FF0E02290610720BC
:10242000106100BF4FF47A7008A300220A4900909F
:10243000132000F045F8132000F036FB38BD0000F3
:102440004019010018ED00E000E400E05461736BF6
:10245000526F6F7400000000C923000810B5FFF729
:102460001FFF00F045FA0D484078402805D10321B0
:102470000BA0FEF7E3FAFFF731FA10488089401C01
:102480000E498881084680890989884205DD0B4903
:102490000869804700200949888110BD400000205C
:1024A0005461736B2054696D654F75742057696C66
:1024B0006C20544F5320526573657400AC000020AB
:1024C0002DE9F04704460D4691461F46DDF8208071
:1024D0000DB9BDE8F08704EB44002C49096801EB15
:1024E00000100089012800D0F3E704EB44002749DD
:1024F000096801EB0010008C98B91FFA88F0FFF70B
:1025000031FA064604EB4401204A126802EB01113D
:10251000A1F8208004EB44011C4A126802EB01116F
:10252000CE6104EB4402194B1B6803EB0212118CC1
:1025300004EB4402154B1B6803EB0212D06900F058
:1025400079FB8246022104EB4400104A126802EB38
:102550000010018104EB44000C49096801EB0010F4
:10256000456004EB44000949096801EB0010C762AB
:102570004A462946504600F05FFA04EB4401034AFC
:10258000126802EB0111086000BFA2E750000020B2
:102590002DE9F84305460E461746984600241AE0F2
:1025A00004EB44001249096801EB0010008900B9EE
:1025B00012E004EB44000E49096801EB00100089A9
:1025C000012800D108E0601C80B20446142802DB18
:1025D0000020BDE8F883E3E700BFE0B23B463246A7
:1025E0002946CDF80080FFF76BFF0120F1E70000DE
:1025F0005000002010B5154A127802EB4202144B2D
:102600001B6803EB02129062104A127802EB42023E
:102610000F4B1B6803EB021282F8231000220B4BB6
:102620001B7803EB43030A4C246804EB031383F881
:1026300024200023054A127802EB4202044C24684D
:1026400004EB021282F8253010BD00004800002083
:102650005000002010B504461348407801281FD0D0
:1026600000201249097801EB4101114A126802EB7E
:10267000011188610D48007800EB40000C490968A1
:1026800001EB0010446110210848007800EB400085
:10269000074A126802EB0010018100F07BFA02E0A9
:1026A0002046FEF783F810BD4000002048000020BF
:1026B0005000002001460D48006800EB4110007AF0
:1026C00008B9002070470948006800EB41104079C4
:1026D000074A1278904201D00020F3E70120034A14
:1026E000126802EB4112107200BFEBE75C000020A1
:1026F0004800002070B504460D4600BF1E48006823
:1027000000EB4410007A30B1012815D0022804D023
:1027100003282FD11FE0002070BD1748006800EB90
:102720004410407915490978884201D10120F3E726
:10273000204600F04FFBE1E702200F49096801EB5A
:10274000441108720D4800780B49096801EB4411E7
:1027500048710120E0E702200749096801EB4411B4
:102760000872064800780449096801EB4411487171
:102770000120D1E70020CFE75C00002048000020C6
:1027800002480078024908707047000048000020A5
:102790006A00002070B51848007800EB4000174927
:1027A000096801EB0014A06A08B9002070BD94F814
:1027B000250018B91048007800F088F994F8250031
:1027C00008B90020F2E704F12304D4F80500617889
:1027D00000EBC105607800F10100217890FBF1F277
:1027E00001FB12006070A078A0F10100A070A4F1BC
:1027F00023042846DAE700004800002050000020AB
:1028000070B506461748007800EB40001649096885
:1028100001EB0014A06A08B9002070BD94F82500EF
:1028200010B93046FFF716FF94F8250008B90020CC
:10283000F3E704F12304D4F80500617800EBC10547
:10284000607800F10100217890FBF1F201FB1200A9
:102850006070A078A0F10100A070A4F123042846C4
:10286000DBE7000048000020500000202DE9F04781
:102870000646884691469A46142E01DBBDE8F0874D
:1028800006EB46001949096801EB0014A06A00B97B
:10289000F4E794F8250094F82310884220DA04F134
:1028A00023046078A1780844217890FBF1F201FBC1
:1028B0001200C7B214F82309B84200DCDEE7A06AB0
:1028C00000EBC70585F800804A4650466968FDF769
:1028D0007AFF85F8019094F82500401C84F82500C3
:1028E000304600F065F800BFC8E700005000002047
:1028F000002055E000EB40012B4A126802EB011169
:102900000989022902D0102946D11CE000EB4001C0
:10291000254A126802EB01118969491C00EB40024B
:10292000214B1B6803EB0212916100EB40011E4A30
:10293000126802EB01118969B1F5FA6F02D94021E1
:102940001A4A517029E0002100EB4002164B1B6827
:1029500003EB0212916100EB4001134A126802EB93
:102960000111496941B9022100EB40020E4B1B687D
:1029700003EB021211810EE000EB40010A4A1268DB
:1029800002EB01114969491E00EB4002064B1B682E
:1029900003EB0212516100E000BF00BF411CC8B24E
:1029A0001428A7DB704700005000002040000020E2
:1029B000142800DB704700EB4001094A126802EB63
:1029C00001110989012900D1F4E7102100EB40022F
:1029D000034B1B6803EB0212118100BFEAE7000002
:1029E0005000002010B504460F480078A04200D1E6
:1029F00010BD0D48007800EB40000C49096801EB60
:102A000000100B49086008480470007800EB400093
:102A10000649096801EB0010006806490860FDF7E7
:102A20008FFE00BFE4E700004800002050000020B7
:102A30003C0000203800002030B503461846041F33
:102A400020462160041F204623600025041F2046E5
:102A50002560041F20462560041F20462560041FB2
:102A600020462560041F20462560041F204625605F
:102A7000041F20462560041F20462560041F2046B1
:102A80002560041F20462560041F20462560041F82
:102A900020462560041F204622604FF08075041FE9
:102AA0002046256030BD000010B5044604EB44000C
:102AB0000449096801EB0010006803490860FDF74C
:102AC00058FE10BD500000203800002010B504460C
:102AD000142C00DB10BD04EB44000E49096801EB27
:102AE00000100089012800D1F4E7042004EB440120
:102AF000084A126802EB01110881002104EB44002E
:102B0000044A126802EB0010416100F043F800BF74
:102B1000E0E700005000002010B50446142C01DB53
:102B2000002010BD04EB44001949096801EB0010B6
:102B30000089012801D10020F3E704EB4400144987
:102B4000096801EB00100089042801D10020E8E7A2
:102B500004EB44000E49096801EB001000890828C5
:102B600001D10020DDE7082004EB4401084A126887
:102B700002EB01110881002004EB4401044A1268B1
:102B800002EB0111486100F005F80120C9E70000DF
:102B90005000002010B5022123480068A0F89813C7
:102BA00000243DE004EB44001F49096801EB0010DC
:102BB0000089022802D020282ED107E01B48007887
:102BC000A04202D02046FFF70DFF10BD04EB4400E9
:102BD0001549096801EB001090F8220014490968B2
:102BE00001EB4010007A012815D1102004EB4401BC
:102BF0000D4A126802EB01110881032004EB440125
:102C0000094A126802EB011191F82210084A126871
:102C100002EB4111087200E000BF00BF601CC4B2AB
:102C2000142CBFDB00BFD0E750000020480000207C
:102C30005C0000200246501820F00303A3F130008E
:102C400020F007007047000010B5142800DB10BD0D
:102C500000EB4002104B1B6803EB02121289042A9E
:102C600000D1F4E7002200EB40030B4C246804EB96
:102C700003139A61102300EB4002074C246804EB15
:102C80000212138100EB4002034B1B6803EB02129C
:102C9000516100BFDBE700005000002070B5044622
:102CA0000D46164601221449887B002816DD0AE0ED
:102CB0004968002A07DD0878904202D0227000227D
:102CC00001E0501CC2B248680028F1D1002A00DDA2
:102CD00022700A480078A0734C6005E00C46002082
:102CE000207006480078A073258166810020A081AD
:102CF00023616060207870BDAC0000204800002097
:102D000002460A490CE048680078904207D100204A
:102D10004B68588148684068486010467047496869
:102D200048680028EFD100BFF8E70000AC000020A1
:102D300010B5134C1FE06068807B10F0400F19D075
:102D40006068807B10F0800F12D06168086980474E
:102D50006068807B20F080006168887360684089CB
:102D600020B961680878FFF7CBFF04E0646802E0EF
:102D7000646800E0646860680028DCD110BD000071
:102D8000AC00002012481EE04068817B11F0400F2B
:102D900019D04189002916DD81890289914203DA1F
:102DA0008189491C81810EE04189FF2902DA41892C
:102DB000491E41814189002901DD00218181817BFA
:102DC00041F08001817341680029DDD17047000026
:102DD000AC00002010B504460B48007800EB400022
:102DE0000A49096801EB001080F8224020200649BA
:102DF000097801EB4101054A126802EB01110881D3
:102E0000FFF7C8FE10BD0000480000205000002061
:102E100010B540F225510E4800F0CDF9B8B10C487C
:102E2000001D0088C4B20B48C0880B49C98888427D
:102E30000DDA0848C188C088401C064AD08007487F
:102E4000C06844540649C8780A21FFF7FDFE10BD4A
:102E5000004C0040A20000209800002070000020DC
:102E60002400002010B540F225510E4800F0A3F9CF
:102E7000B0B10C488088C4B20B4800890B4909895D
:102E800088420DDA084801890089401C064A1081F1
:102E9000074800694454074908790A21FFF7D4FE1E
:102EA00010BD000000500040A2000020980000204B
:102EB000700000202400002010B540F225510E487B
:102EC00000F079F9B8B10C48001D0088C4B20B4875
:102ED00000880B49098888420DDA08480188008873
:102EE000401C064A10800748006844540649087888
:102EF0000A21FFF7A9FE10BD00380140A200002002
:102F000098000020700000202400002010B540F23E
:102F10002551114800F04FF9C0B10F48001D00883D
:102F2000C4B20E4840880E494988884213DA0B48DB
:102F300041884088401C094A50800A4840684454EF
:102F4000094948780A21FFF77FFE04E040F2255145
:102F5000014800F014F810BD00440040A200002019
:102F600098000020700000202400002001F400726E
:102F7000B2F5007F00D100BFCA430280704710B590
:102F800000220023A1F510646A3C00D100BF0A12A0
:102F900001249440A3B2DC43048010BD21B1828996
:102FA00042F40052828104E082894DF6FF731A4098
:102FB0008281704770B50446204600F04BF9054603
:102FC00000F06EF8052C27D2DFE804F0030A111890
:102FD0001F0025224FF4E131104800F029F81BE0D2
:102FE00026224FF4E1310E4800F022F814E02722A7
:102FF0004FF4E1310B4800F01BF80DE034224FF4A0
:10300000E131094800F014F806E035224FF4E131CF
:10301000064800F00DF800BF00BF70BD0038014049
:103020000044004000480040004C00400050004078
:1030300070B586B006460C46154601940020ADF8E2
:103040000800ADF80A00ADF80C00ADF810000C2037
:10305000ADF80E0001A9304600F040F9012240F21F
:103060002551304600F014F901213046FFF796FF54
:1030700040213046FFF77AFF4FF48060FEF7D4FC22
:103080008DF8145002208DF8150001208DF81600DF
:103090008DF8170005A8FEF78DFC06B070BD000086
:1030A00038B50446254884420BD10D202315244A07
:1030B00051150090234800F053F801218803FEF7D2
:1030C000C5FD214884420BD1042008231C4A014637
:1030D0000090104600F044F801214804FEF7B6FDC8
:1030E0001A4884420BD10920E314164A11150090A6
:1030F000104600F035F801218804FEF7A7FD1448BA
:1031000084420BD11120E314124A1115009010468D
:1031100000F026F80121C804FEF798FD0E4884420D
:103120000BD1312004230D4A91140090094800F07E
:1031300017F801210805FEF789FD38BD0038014068
:1031400000080140000C01400044004000480040DD
:10315000004C0040001001400050004000140140AD
:103160002DE9F84307460D4616461C46DDF820803B
:1031700001214046FEF77AFDADF8005003208DF89E
:10318000020018208DF8030069463846FEF7B8F8AB
:10319000ADF8004048208DF8030069463046FEF740
:1031A000AFF829463846FEF782F921463046FEF749
:1031B0007EF9BDE8F88370B502460024002300259F
:1031C0000020A1F510666A3E00D100BFC1F3421590
:1031D00001F01F03012606FA03F3012D02D196899F
:1031E000334006E0022D02D1168A334001E0968A70
:1031F00033400C12012606FA04F41688344013B149
:103200000CB1012000E0002070BD000001460F4A13
:10321000881A914213D006DC0D4808180BD0B0F57F
:10322000806F10D109E0B0F5806F0AD0B0F56C4F17
:1032300009D1002070470120FCE70220FAE70320B3
:10324000F8E70420F6E70020F4E70000004C004017
:1032500000BCFFBF014605290ED2DFE801F00305DF
:1032600007090B00054870470548FCE70548FAE7E1
:103270000548F8E70548F6E70020F4E70038014084
:103280000044004000480040004C00400050004016
:10329000F0B503460024002600250020A1F51067A4
:1032A0006A3F00D100BF1846C1F3421401F01F0667
:1032B000012707FA06F5012C01D10C3004E0022C9D
:1032C00001D1103000E014301AB107682F430760B5
:1032D00002E00768AF430760F0BD00002DE9F0474A
:1032E00086B005460E460024A24600BFA146002730
:1032F000B08900B100BF2F462C8A4CF6FF70044005
:10330000F08804432C82AC894EF6F3100440B08858
:1033100031890843718908430443AC81AC8A4FF674
:10332000FF400440B0890443AC8201A8FEF7AEFC24
:103330001F48874202D1DDF810A001E0DDF80CA0A3
:10334000A88910F4004F08D00AEBCA0000EB0A105D
:1033500031684900B0FBF1F807E00AEBCA0000EB66
:103360000A1031688900B0FBF1F86420B8FBF0F076
:1033700004012009642101FB1089A88910F4004F81
:1033800008D0322000EBC900B0FBF1F000F00700DC
:10339000044308E0322000EB09106421B0FBF1F097
:1033A00000F00F0004432C8106B0BDE8F087000058
:1033B000003801402DE9F04705460E4614462F46D9
:1033C000B046A1463846FFF721FF8246002304227B
:1033D0004146384600F004F8A9F80000BDE8F0873F
:1033E0002DE9F04780460F4615461E464046FFF73A
:1033F0000DFF04461A49085D0021FFF77BF981465D
:10340000B9F1000F1CD01748007817490855B5F5D9
:10341000967F01DB4FF49675144820F81450002075
:10342000134921F814001EB13046FFF713F903E0E9
:103430000D49085DFFF770FB0949085DFFF73AF990
:1034400047B10B4931F814200A4951F82400394694
:10345000FDF7B9F9064830F81400BDE8F087000020
:103460001A000020480000202400002098000020BE
:10347000A2000020700000202DE9F04304460D4614
:1034800016462746A846B6F800904A4641463846B2
:1034900000F002F8BDE8F08310B50B46002108E00B
:1034A00000BF048814F0800FFBD05C5C84804C1C4F
:1034B000A1B29142F4DB10BD10B54FF48020FDF7AE
:1034C000C1FE10BD00BFFEE710B5032101A0FDF74E
:1034D000B5FA10BD575744475F49525148616E6471
:1034E0006C65720037B514460846064B6A4621469D
:1034F00000F0C8F804466946002000F066FC20464B
:103500003EBD0000CB3D000802E008C8121F08C104
:10351000002AFAD170477047002001E001C1121F54
:10352000002AFBD1704700002DE9FF5FDDE9022092
:10353000010DDDF838B0024310D10F9801244CA2E0
:10354000012808D0002100980F9BC0E90021C0E9A4
:103550000243BDE8FF9F6FEA0B01F4E7A1F2FF31E0
:1035600044F6105041430D140F9801280ED0A5EBDE
:103570000B00401C4FF000043E4EDFF8FC90B0F111
:10358000000AA04605DACAF1000717E0CBF10000F7
:10359000F0E7074612E0F80707D0224633464046D8
:1035A0004946FCF788FE8046894622463346104647
:1035B0001946FCF780FE04460E467F10002FEAD124
:1035C000DDE90201BAF1000F42464B4602DAFCF790
:1035D00072FE01E0FCF7E1FE04460E460022274B96
:1035E000FDF788F803D84FF0FF30014607E00022CE
:1035F000234B20463146FCF7B7FDFDF762F8102457
:1036000009E0002C0ADB0A220023FCF763FF019B80
:1036100030321A55641E50EA0102F2D1641C019A3C
:10362000C4F1110314440F9A012A09D0012208435E
:1036300001D15B450FDD4FF0000205F101050DE002
:10364000084303D1A3EB0B056D1E09E000204FF0EA
:10365000110B0F9088E701DA00226D1E002A83D03B
:1036600000980F99C0E90231C0E9004571E70000F8
:1036700030000000000024400000F03F0000F04354
:103680000000E03F2DE9FF4F95B09B468946064676
:10369000002512E2252878D10024761CF94A274615
:1036A000012105943378203B01FA03F0104202D047
:1036B0000443761CF6E730782A2811D06FF02F03E8
:1036C0003078A0F13002092A16D8059A44F0020495
:1036D00002EB820203EB42021044761C0590EFE7F6
:1036E00059F8042B0592002A03DA504244F400549E
:1036F000059044F00204761C30782E2816D116F876
:10370000010F44F004042A280DD06FF02F02307806
:10371000A0F13003092B09D807EB870302EB430321
:10372000C718761CF3E759F8047B761C30786C28B0
:103730000FD006DC4C2817D068280DD06A2814D189
:1037400004E0742810D07A280FD10DE044F400145E
:103750000AE044F4801401E044F440147278824298
:1037600002D1761C04F58014761C307866280BD0C4
:1037700013DC582877D009DC002875D04528F6D00E
:103780004628F4D047281AD19FE118E0632835D0A5
:10379000642879D0652812D197E1702873D008DCAD
:1037A0006728F1D069286FD06E280DD06F2806D118
:1037B000B5E073282CD0752875D0782874D05A4677
:1037C000179990476D1C76E1C4F30250022809D086
:1037D00003280DD0D9F8001004280DD00D6009F190
:1037E000040968E1D9F80010EA17C1E90052F6E7C8
:1037F000D9F800100D80F2E70D70F0E719F8041BFE
:103800008DF8001000208DF80100EA46012003E049
:1038100059F804AB4FF0FF3061074FF0000102D4BC
:103820000DE008F101018846B9420FDA8045F8DB66
:103830001AF808100029F4D108E008F101018846BF
:103840008142FADB1AF808100029F6D105985B4688
:10385000A0EB080721463846179A00F09EFA284444
:1038600000EB080507E04DE02BE10DE01AF8010B35
:103870005A4617999047B8F10108F7D25B4621469E
:103880003846179A14E142E00A220092C4F3025229
:103890004FF0000A022A08D059F804CB032A4FEA55
:1038A000EC710AD00DE029E02AE009F1070121F0CE
:1038B0000702F2E802C1914609E00FFA8CFC4FEAD8
:1038C000EC71042A03D14FFA8CFC4FEAEC71002909
:1038D00007DA0A460021DCF1000C61EB02012D221F
:1038E00002E0220504D52B228DF80420012203E0FA
:1038F000E20701D02022F7E7904653E00A2102E0D8
:1039000010220DE010214FF0000A00910BE0102270
:103910004FF0000A44F004040827009203E0082254
:103920004FF0000A0092C4F30252022A05D059F85F
:1039300004CB0021032A08D009E009F1070121F096
:103940000702F2E802C1914605E01FFA8CFC042A46
:1039500001D10CF0FF0C4FF00008220722D570288F
:1039600027D0009B83F0100353EA0A0309D15CEAD5
:10397000010206D030228DF804208DF805000222C5
:103980009046009B83F0080353EA0A030AD15CEADD
:10399000010201D1620705D530228DF804204FF0D5
:1039A00001087F1E582809D037A003900EA8029066
:1039B00013E040228DF804200122E1E737A0F4E76C
:1039C00053466046009AFCF785FD84460398825C66
:1039D0000298A0F10100029002705CEA0100EFD1B0
:1039E000029806A9A1EB000000F1200A600702D5A9
:1039F00024F4803400E00127574502DDA7EB0A00DC
:103A000000E0002000EB0A01009005984144A0EB83
:103A100001000590E00306D45B462146179A0598FD
:103A200000F0BBF90544002706E001A85A46C05D36
:103A3000179990476D1C7F1C4745F6DBE0030CD5BA
:103A40005B462146179A059800F0A7F9054404E063
:103A500030205A46179990476D1C0099481E0090D7
:103A60000029F5DC08E0029802995A460078491CC2
:103A70000291179990476D1CBAF10001AAF1010A51
:103A8000F1DC6BE10928010030313233343536374F
:103A9000383961626364656600000000303132339A
:103AA000343536373839414243444546000000003A
:103AB00000F060F9054406F10106307800287FF433
:103AC000E9AD19B02846BDE8F08F620700D406279B
:103AD00009F1070222F0070CFCE80223E14603F09B
:103AE00000485FEA080C02D00FF27C2C0DE05FEA80
:103AF000045C02D50FF2742C07E05FEAC47C02D0AC
:103B00000FF26C2C01E0AFF2700C4FF0FF3823F095
:103B10000043CDF850C065280CD006DC452809D0FC
:103B200046281DD047283ED13EE0662818D0672899
:103B300039D139E00021112F01DB112000E0781C80
:103B4000CDE9000106A90EA8FFF7EEFCDDE90F01A3
:103B50000E9A03910021009207F1010A04914EE0B0
:103B60004FF000400097CDE9011006A90EA8FFF71D
:103B7000DBFCDDE90F0203920E9B11990022DDF8B8
:103B80000CA00093049219B907F1010100EB010A9E
:103B9000B7EB0A0004D4C0F1FF3007F1010A04902A
:103BA000AAEB0700019046E0012F00DA012700216F
:103BB000112F01DD112000E03846CDE9000106A9F2
:103BC0000EA8FFF7B1FCDDE90F010E9A0391002169
:103BD00004910092BA4621070CD40399514500DAAA
:103BE0008A46BAF1010F05DD009AAAF10101515C84
:103BF000302908D0B84202DA10F1040F06DA0121A8
:103C0000CDE9011017E0AAF10101E9E7002805DC80
:103C1000049901440491AAEB000102E0411C5145C2
:103C200000DD8A460499A0EB010000F1010001903B
:103C30004FF000400290200704D40198504501DB6A
:103C4000CDF8048000208DF84F0002980DF14F0749
:103C5000B0F1004F25D02B200E9002984FF00208B3
:103C600000280CDA404202902D200E9007E00A2135
:103C70000298FCF719FC3031029007F8011DB8F1E9
:103C80000001A8F10108F2DC02980028EFD1791EAA
:103C90000E980870307800F0200040F0450007F8DA
:103CA000020D12A8A0EB070000F107081498007895
:103CB00000B1012000EB0A01019801EBE0710598C9
:103CC0004144A0EB0100A0F101000590E00306D4FF
:103CD0005B462146179A059800F05FF80544149852
:103CE000007820B15A461799904705F10105E00385
:103CF00023D55B462146179A059800F04EF80544F7
:103D00001BE00498002807DBDDE90301884203DD9E
:103D10000098405C179901E0179930205A46904767
:103D200004986D1C401C04900198401E019004D121
:103D30002E205A46179990476D1CBAF10001AAF13E
:103D4000010ADEDC05E017F8010B5A461799904787
:103D50006D1CB8F10001A8F10108F4DC5B462146B6
:103D6000179A0598A4E600002D0000002B00000023
:103D7000200000002DE9F041044600251E461746AC
:103D8000880405D406E039462020B04705F1010536
:103D9000641EF8D52846BDE8F0812DE9F0410446BF
:103DA00000251E469046C80301D5302700E0202795
:103DB000880405D506E041463846B04705F10105BF
:103DC000641EF8D52846BDE8F0810A68531C0B60D4
:103DD000107070470948FDF7B7FDFCF7D1FE0848A1
:103DE000FDF7A0F8FCF768FFFDF734F8FCF7CCFF0F
:103DF0000448FEF7D9FA00BFFEE70000C00000202B
:103E000000380140903E000802100000000C014004
:103E1000C000000002100000001001400800000077
:103E200003480000001001400300000000000000F3
:103E300000000000000000000348000000100140E6
:103E4000030000000000000000000000000000006F
:103E50000210000000080140E8000000021000000D
:103E60000008014008000000000000000000000001
:103E700000000000AFA06D4FC6CBEB0EEFCF10409F
:103E800000FA0AD6F46CBCBEE0FEFC01040000009F
:103E90001D21000800000000EE3E0008A00F0000F9
:103EA0005121000800000000F43E0008A00F0000AF
:103EB000BD21000800000000FA3E0008A00F00002D
:103EC0000522000800000000FA3E0008A00F0000D4
:103ED00000000000000000000000000000000000E2
:103EE000303132333435363738392E2D2000546195
:103EF000736B30005461736B32005461736B330029
:103F0000203F000800000020700000000835000875
:103F1000903F000870000020A0A0000018350008A5
:103F2000000000000102030401020304060708095F
:103F300002040608FF00000000000000000000006E
:103F40000000000000000000000000000000000071
:103F50000000000000000000000000000000000061
:103F60000000000000000000000000000000000051
:103F70000000000000000000000000000000000041
:103F800000000000FF00FF00FFFFFFFFE03E000811
:0400000508000131BD
:00000001FF
