:020000040800F2
:10000000A00400204501000879020008430200080E
:1000100075020008B50100084B0A00080000000046
:10002000000000000000000000000000ED040008D7
:10003000BB010008000000007B020008D505000895
:100040005F0100085F0100085F0100085F01000810
:100050005F0100085F010008BD0100085F010008A2
:100060005F0100085F0100085F0100085F010008F0
:100070005F0100085F0100085F0100085F010008E0
:100080005F0100085F0100085F0100085F010008D0
:100090005F0100085F0100085F0100085F010008C0
:1000A0005F0100085F0100085F0100085F010008B0
:1000B0005F0100085F0100085F0100085F010008A0
:1000C0005F0100085F0100085F0100085F01000890
:1000D0005F010008B90800080D0900086D09000853
:1000E0005F0100085F0100083F0A00085F01000887
:1000F0005F0100085F0100085F0100085F01000860
:100100005F0100085F0100085F0100085F0100084F
:1001100011080008650800085F0100085F01000879
:100120005F0100085F0100085F0100085F0100082F
:10013000DFF80CD000F018F8004800476D0A0008FE
:10014000A00400200648804706480047FEE7FEE777
:10015000FEE7FEE7FEE7FEE7FEE7FEE7FEE7FEE777
:10016000DD05000831010008064C074D06E0E06897
:1001700040F0010394E8070098471034AC42F6D3EE
:10018000FFF7DAFF7C0A00089C0A000810B5064851
:100190004068064908600846006805490860084646
:1001A0000068804710BD0000005000084800002093
:1001B0004400002000BFFEE770477047012000F0B8
:1001C00003F800F043F800000149086070470000A0
:1001D000140401400549096821F01001034A116027
:1001E0001146096801431160704700000020024079
:1001F00001460020034A106800F0380008431060F0
:10020000704700000020024070B5044600251078B9
:1002100020B116782068B0FBF6F085B2206808445B
:1002200020601078984203DA1078401C107002E0C9
:100230002068401B206016782068B0FBF6F080B282
:1002400070BD01E000F002F8FCE7000071B600BFED
:100250000648006800F4E06005490843001D0349B2
:100260000860BFF3408F00BF00BFFEE70CED00E069
:100270000000FA0500BFFEE77047704729B1064A43
:1002800052690243044B5A6104E0034A52698243B3
:10029000014B5A61704700000010024029B1064A24
:1002A00092690243044B9A6104E0034A92698243D3
:1002B000014B9A61704700000010024010B500F039
:1002C00043F84FF4803000F097F800F0F3F804465C
:1002D000012C38D11020FFF77DFF0220FFF788FFA7
:1002E000002000F07DF8002000F0B8F8A00200F037
:1002F000A9F84FF4E011200400F0C2F8012000F04A
:10030000B9F800BF392000F045F80028FAD00220E3
:1003100000F0C4F800BF00F05BF80828FBD1012111
:100320003C20FFF7BBFF01210846FFF7B7FF012183
:100330008803FFF7B3FF01210846FFF79FFF012164
:100340004802FFF7ABFF10BD0F48006840F0010006
:100350000D490860084640680C4908400A49486051
:10036000084600680A4908400749086008460068CE
:1003700020F4802008600846406820F4FE004860B1
:100380004FF41F0088607047001002400000FFF823
:10039000FFFFF6FE10B501460022002300204A119F
:1003A000012A02D1094C236806E0022A02D1074C37
:1003B000236A01E0054C636A01F01F0201249440A6
:1003C0001C4201D0012000E0002010BD00100240BE
:1003D0000248406800F00C00704700000010024026
:1003E00001460020034A506820F0F00008435060A6
:1003F00070470000001002401149096821F4803163
:100400000F4A11601146096821F480211160B0F58E
:10041000803F03D0B0F5802F0ED106E0084909686F
:1004200041F48031064A116007E00549096841F44A
:10043000A021034A116000E000BF00BF7047000028
:100440000010024001460020034A506820F4E0609A
:100450000843506070470000001002400146002031
:10046000034A506820F4605040EAC1005060704771
:100470000010024001490866704700000000424237
:1004800002460020044B586820F47C1042EA010325
:100490001843014B5860704700100240014600208D
:1004A000034A506820F00300084350607047000082
:1004B0000010024038B5002000900024002500BF45
:1004C0003120FFF767FF05460098401C0090009818
:1004D000B0F5A06F01D0002DF2D03120FFF75AFF08
:1004E00008B1012400E00024204638BD704710B553
:1004F00000F002F810BD00000CB500200190009043
:100500003248006840F480303049086000BF2F480E
:10051000006800F4003000900198401C01900098A1
:1005200018B90198B0F5A06FF1D12848006810F40F
:10053000003F02D00120009001E0002000900098D0
:10054000012842D12248006840F01000204908608C
:100550000846006820F0030008600846006840F084
:100560000200086019484068184948600846406819
:1005700048600846406840F480604860084640682B
:1005800020F47C1048600846406840F4E810486059
:100590000846006840F08070086000BF0B480068A3
:1005A00010F0007FFAD00948406820F003000749A6
:1005B00048600846406840F00200486000BF0348B9
:1005C000406800F00C000828F9D10CBD0010024072
:1005D0000020024010B500F05FF810BD10B51348C0
:1005E000006840F001001149086008464068104961
:1005F00008400E494860084600680E4908400B490B
:1006000008600846006820F48020086008464068BA
:1006100020F4FE0048604FF41F008860FFF767FF7A
:100620004FF000600449086010BD00000010024057
:100630000000FFF8FFFFF6FE08ED00E010B51048DF
:100640000078132804D00F480078401C0D4908702A
:100650000D480078401C0C49087008460078642852
:100660000DDD002008701423084A06480178084868
:10067000FFF7CAFD0749087000200249087010BD45
:10068000300000201C000020140000201500002075
:10069000180000202800002010B5FFF7CFFF00F061
:1006A0002DF80D484078402805D103210BA0FFF715
:1006B00083FDFFF7CBFD10488089401C0E498881DF
:1006C000084680890989884205DD0B490869804709
:1006D00000200949888110BD280000205461736BF7
:1006E0002054696D654F75742057696C6C20544FA8
:1006F000532052657365740088000020002055E087
:1007000000EB40012B4A126802EB01110989022912
:1007100002D0102946D11CE000EB4001254A1268A6
:1007200002EB01118969491C00EB4002214B1B6857
:1007300003EB0212916100EB40011E4A126802EBCA
:1007400001118969B1F5FA6F02D940211A4A517035
:1007500029E0002100EB4002164B1B6803EB02125C
:10076000916100EB4001134A126802EB01114969E3
:1007700041B9022100EB40020E4B1B6803EB021251
:1007800011810EE000EB40010A4A126802EB0111F0
:100790004969491E00EB4002064B1B6803EB02123D
:1007A000516100E000BF00BF411CC8B21428A7DBA4
:1007B00070470000380000202800002010B51428E1
:1007C00000DB10BD00EB4002104B1B6803EB021274
:1007D0001289042A00D1F4E7002200EB40030B4CFD
:1007E000246804EB03139A61102300EB4002074CCA
:1007F000246804EB0212138100EB4002034B1B68D8
:1008000003EB0212516100BFDBE70000380000205B
:1008100010B540F225510E4800F0E7F8B8B10C4889
:10082000001D0088C4B20B48C0880B49C9888842A3
:100830000DDA0848C188C088401C064AD0800748A5
:10084000C06844540649C8780A21FFF7B7FF10BDB5
:10085000004C00407E000020740000204C0000206E
:100860000F00002010B540F225510E4800F0BDF8F1
:10087000B0B10C488088C4B20B4800890B49098983
:1008800088420DDA084801890089401C064A108117
:10089000074800694454074908790A21FFF78EFF89
:1008A00010BD0000005000407E00002074000020B9
:1008B0004C0000200F00002010B540F225510E48DA
:1008C00000F093F8B8B10C48001D0088C4B20B4882
:1008D00000880B49098888420DDA08480188008899
:1008E000401C064A108007480068445406490878AE
:1008F0000A21FFF763FF10BD003801407E00002091
:10090000740000204C0000200F00002010B540F2C1
:100910002551114800F069F8C0B10F48001D00884A
:10092000C4B20E4840880E494988884213DA0B4801
:1009300041884088401C094A50800A484068445415
:10094000094948780A21FFF739FF04E040F22551B0
:10095000014800F03BF810BD004400407E0000203C
:10096000740000204C0000200F00002010B540F261
:100970002551114800F039F8C0B10F48001D00881A
:10098000C4B20E4880880E498988884213DA0B4821
:1009900081888088401C094A90800A4880684454B5
:1009A000094988780A21FFF709FF04E040F2255140
:1009B000014800F00BF810BD004800407E00002008
:1009C000740000204C0000200F00002010B5002211
:1009D0000023A1F510646A3C00D100BF0A12012473
:1009E0009440A3B2DC43048010BD70B502460024DD
:1009F000002300250020A1F510666A3E00D100BF4B
:100A0000C1F3421501F01F03012606FA03F3012D7D
:100A100002D19689334006E0022D02D1168A334076
:100A200001E0968A33400C12012606FA04F4168877
:100A3000344013B10CB1012000E0002070BD00B5BE
:100A40004FF48020FFF7C0FB00BD00BFFEE702E0CF
:100A500008C8121F08C1002AFAD170477047002049
:100A600001E001C1121F002AFBD1704700BFFFF750
:100A700025FCFFF78BFB00BFFEE700009C0A000887
:100A8000000000204C0000004E0A0008E80A0008A0
:100A90004C000020540400005E0A00080000000022
:100AA0000000000000000000000000000000000046
:100AB0000000000000000000000000000000000036
:100AC0000000000000000000000000000000000026
:100AD000000000000000000000000000FF0F000008
:080AE00000000000000000000E
:0400000508000131BD
:00000001FF
