:020000040800F2
:10000000783300200101000801100008AD0E00083F
:10001000650F00084F070008E51A000800000000FF
:100020000000000000000000000000002510000893
:10003000E108000800000000031000085311000848
:100040001B0100081B0100081B0100081B01000820
:100050001B0100081B0100081B0100081B01000810
:100060001B0100081B0100081B0100081B01000800
:100070001B0100081B0100081B0100081B010008F0
:100080001B0100081B0100081B0100081B010008E0
:100090001B0100081B0100081B0100081B010008D0
:1000A0001B0100081B0100081B0100081B010008C0
:1000B0001B0100081B010008000000001B010008D4
:1000C0001B01000800000000000000001B010008E8
:1000D0000000000085190008E51900080000000074
:1000E0001B0100081B010008D91A0008DFF80CD01A
:1000F00000F0C4FA00480047C92300087833002004
:100100000648804706480047FEE7FEE7FEE7FEE7B1
:10011000FEE7FEE7FEE7FEE7FEE7FEE7B5110008B3
:10012000ED0000082DE9FE4F804681EA0300C00F74
:100130000C46009021F0004123F00045B8EB02008E
:10014000A94105D24046214690461C460B46024630
:1001500023F00040104347D0270DC7F30A00C3F334
:100160000A510290401A019040286BDAC3F3130041
:1001700040F4801B0098924620B10023D2EB030A82
:1001800063EB0B0B01985946C0F14002504600F05A
:10019000B7F906460D4650465946019A00F0CFF988
:1001A00010EB08006141002487EA115284EAE773EA
:1001B0001A4340D0009A62B3019A012A4FEA0752CB
:1001C00015DC001B61EB02014FF0004202EA07520E
:1001D000CDE90042001C41F5801132462B4600F06B
:1001E000CFF903B0BDE8F08F40462146F9E7001B88
:1001F00061EB0201001C41F5801300185B412018DF
:10020000A2F5001747EB030140EAD570B6196D411E
:1002100011E06D084FEA360645EAC0754FEA07520D
:10022000001B61EB0201001C41F5801149084FEAF7
:1002300030000019514132462B4603B0BDE8F04F63
:1002400000F08FB90098012240000023D0EB020299
:1002500063EBE073009821464FEAE074B8EB0000CE
:1002600061EB0401E9E783F000435BE781F00041C3
:1002700058E72DE9FE4F81EA030404F0004421F021
:10028000004100944FF0000B23F0004350EA0104BA
:100290005ED052EA03045BD0C3F30A54C1F30A559B
:1002A0002C44A4F2F3340194A0FB0254C1F31301D3
:1002B00041F48011C3F3130343F4801301FB0244A0
:1002C00000FB034E840A970A44EA815447EA8357A5
:1002D000A4FB076802958D0A05FB07854FEA932C5E
:1002E00004FB0C542705029D4FEA065847EA1637CF
:1002F000B5EB08056EEB070C870E920E47EA8117E7
:1003000042EA8312A7FB0201B6EB0B0164EB000487
:100310002B0D43EA0C335E1844EB1C50DA46514671
:10032000E7FB0201C5F313044FEA0B3343EA14530E
:100330004FEA0432019C43EA0603A4F10C04029440
:10034000009CCDE900B400F01BF903B0BDE8F08FCC
:1003500000200146F9E72DE9F04D81EA030404F09D
:10036000004B21F0004514464FF0000A23F00041F5
:1003700050EA050220D054EA01021DD0C5F30A5705
:100380000246C5F31303C1F31300C1F30A5640F448
:10039000801543F48013A7EB0608101BD64608F21D
:1003A000FD3873EB050002D308F1010801E0921853
:1003B0005B41B8F1000F03DA00200146BDE8F08D83
:1003C00000204FF48011064684460EE0171B73EBA5
:1003D000050705D3121B63EB050306434CEA010C2A
:1003E00049084FEA300092185B4150EA0107EDD10D
:1003F00052EA030012D082EA040083EA05010843AE
:1004000005D0101BAB4106D20122002306E00022DA
:100410004FF0004302E06FF0010253101AEB0600A8
:100420004CEB085110EB0A0041EB0B01BDE8F04D1D
:1004300000F097B870B5C1F30A5201F000450024EE
:10044000C1F3130140F2FF3341F480119A4201DA03
:10045000002070BD40F233439A42A2F2334203DCE3
:10046000524200F05CF800E090402C43F1D0404252
:1004700070BD30B50B46014600202022012409E062
:1004800021FA02F59D4205D303FA02F5491B04FA4D
:1004900002F52844151EA2F10102F1DC30BD2DE960
:1004A000F05F0546002092469B46884606468146F8
:1004B00040241BE0284641464746224600F02FF8DC
:1004C00053465A46C01A914110D311461846224647
:1004D00000F016F82D1A67EB01084F46224601205E
:1004E000002100F00DF817EB00094E41201EA4F189
:1004F0000104DFDC484631462A464346BDE8F09F0A
:10050000202A04DB203A00FA02F1002070479140D3
:10051000C2F1200320FA03F3194390407047202AC8
:1005200004DB203A21FA02F00021704721FA02F39D
:10053000D040C2F120029140084319467047202A5A
:1005400006DBCB17203A41FA02F043EAE07306E0FB
:1005500041FA02F3D040C2F120029140084319460B
:10056000704710B5141E73F1000408DA401C41F105
:10057000000192185B411A4301D120F0010010BD27
:100580002DE9F04D92469B4611B1B1FA81F202E09D
:10059000B0FA80F220329046FFF7B2FF04460F46D1
:1005A00040EA0A0041EA0B0153465A46084313D079
:1005B000114653EA010019D0C8F140025046FFF736
:1005C000AEFF05460E46504659464246FFF798FF95
:1005D000084305D0012004E020463946BDE8F08DEF
:1005E0000020054346EAE0762C4337430A9863052A
:1005F000E40AA0EB08000022FD0A44EA47540A304E
:1006000002D500200146E9E7010510196941DDE93D
:10061000084500196941BDE8F04DA2E7C1F30A524F
:10062000C1F3130140F2FF3341F480119A4202DA20
:1006300000200146704740F233439A42A2F233420F
:1006400002DC5242FFF76BBFFFF75ABF30B5041E02
:1006500071F1000404DB4FF00044404264EB0101FF
:10066000141E73F1000405DB1C464FF00043524298
:1006700063EB0403994208BF904230BD064C074D1E
:1006800006E0E06840F0010394E807009847103462
:10069000AC42F6D3FFF72EFD1827000838270008D4
:1006A00082B02DE9FF1FEFF3038001B4684600F12B
:1006B000400000E901400C480168C1F800D00B4837
:1006C000D0F800D001BC80F30388BDE8FF1F01B063
:1006D00000BD0648D0F800D001BC80F30388BDE817
:1006E000FF1F01B000BD00001C000020180000200A
:1006F00070B50C210D4800F0E3FD04460C4E304669
:1007000005884FF6FF70854207D100F0DFFB2146D8
:10071000304600F0D3FB00F0CDFB05480588A5422C
:1007200001D0002070BD0120FCE70000E8F7FF1FAA
:100730001024000806E04FF47A7100BF0A1EA1F1F0
:100740000101FBD1021EA0F10100F4D1704700BFEE
:10075000FEE700000FB42DE9F04186B00025012628
:100760000027B00200F026FC044654480078FF2819
:1007700001D1012000E0002050490978504A127848
:10078000914201D1012100E00021084300287DD0E1
:100790000DA805902046059A0C9901F0A5F90020B6
:1007A00005900DA8059069460C9800F033FB0646AD
:1007B0002AE02846691CCDB21DF80000012804D0AB
:1007C000022806D003281AD115E0059880C80590A4
:1007D00019E00598C01D20F007000590D0E9002120
:1007E000DDF814C00CF1080C1046CDF814C0FFF76A
:1007F00021FE074607E0059880C8059003E00598AC
:1008000080C8059000BF00BF301EA6F10106D0D100
:10081000059880C80590002005902A480078FF2898
:1008200001D1012000E0002026490978B94201DB0E
:10083000012100E00021084340B3214622A000F03E
:1008400067FC2248007800F0020068B1204908786F
:1008500000F04AF940B1204600F01CFB80464246B9
:1008600021461C4801F027F91848007800F00400E0
:1008700078B11749487800F037F950B1204600F0B8
:1008800009FB804642462146134800E00EE001F095
:1008900012F91248006848B1204600F0FBFA00F057
:1008A000FF08414620460D4A12689047204600F056
:1008B0005BFB06B0BDE8F0015DF814FB54000020BE
:1008C00028000020560000200D0A000055000020DE
:1008D000000000200038014000440040500000208B
:1008E0007047000010B500201A4908704FF4A0703E
:1008F00000F060FB18490860002406E0FF2017495B
:10090000085517490855601CC4B2052CF6DB0024B5
:100910001DE000201049096801EB441148610320E3
:100920000D49096801EB4411087200200A49096861
:1009300001EB441108610849096801EB4411C860E2
:100940000549096801EB44118861601CC4B20A2C96
:10095000DFDB10BD4000002044000020000000202C
:10096000050000202C4909782C4A11702A49097881
:10097000491C294A117029490978294A1268274BCC
:100980001B7802EB4312117126A1254A1268234BF2
:100990001B7802EB431211600021214A12681F4BA1
:1009A0001B7802EB4312517102221D4909681B4B4F
:1009B0001B7801EB4311CA71012219490968174BD1
:1009C0001B7801EB43110A721849154A1268134B40
:1009D0001B7802EB43125161114909680F4A1278E2
:1009E00001EB4211C86100220D4909680B4B1B78CD
:1009F00001EB4311CA600021094A1268074B1B78BA
:100A000002EB43121161002205490968034B1B7870
:100A100001EB43118A617047400000201400002060
:100A2000440000204750494F00000000310D0008ED
:100A300010B5032124A0FFF78DFE002441E02948D2
:100A4000006800EB44104069C8B32648006800EB1A
:100A50004410C079012806D0022817D003280ED0F0
:100A600004282BD11EE01F4A126802EB4412107FAB
:100A70001C4A126802EB4412516988471EE019496A
:100A8000096801EB44114869804717E0154A12686C
:100A900002EB4412D069134A126802EB4412516906
:100AA00088470BE00F4A126802EB4412D0690D4AE6
:100AB000126802EB44125169884700BF00BF601CF6
:100AC000C4B20A2CBBDB10BD546F73204465766939
:100AD000636520496E69742E2E2E2E2E2E2E2E2EFC
:100AE0002E000000440000200146FF2901D1002013
:100AF00070470548006800EB4110406908B90020C4
:100B0000F6E70120F4E700004400002001490860F6
:100B1000704700001404014004200B49C96801F02B
:100B2000010109B101200EE00749C96801F0040183
:100B300009B1022007E00449C96801F0100109B1B8
:100B4000032000E0042070470020024003480069B1
:100B500040F0800001490861704700000020024019
:100B600070B504460D460426F00200F025F806464E
:100B7000042E11D10948006940F0010007490861BD
:100B80002580F00200F018F806460448006941F696
:100B9000FE71084001490861304670BD00200240E6
:100BA000024803494860034848607047230167458D
:100BB00000200240AB89EFCD00B502460423FFF7C9
:100BC000ABFF034603E0FFF7A7FF0346521E012BCE
:100BD00001D1002AF7D102B90523184600BD70B52E
:100BE00004460025107820B116782068B0FBF6F096
:100BF00085B22068084420601078984203DA1078A3
:100C0000401C107002E02068401B206016782068AD
:100C1000B0FBF6F080B270BD2DE9F0410246002530
:100C20000026002000230024002791F803C00CF0C8
:100C30000F0591F803C00CF0100CBCF1000F03D0AD
:100C400091F802C04CEA050591F800C0BCF1000F14
:100C500031D0146800202BE04FF0010C0CFA00F3A7
:100C6000B1F800C00CEA03069E4220D183004FF089
:100C70000F0C0CFA03F7BC4305FA03FC4CEA04041E
:100C800091F803C0BCF1280F06D14FF0010C0CFA0B
:100C900000FCC2F814C00AE091F803C0BCF1480F90
:100CA00005D14FF0010C0CFA00FCC2F810C0401C3A
:100CB0000828D1D31460B1F800C0BCF1FF0F34DDB7
:100CC000546800202EE000F1080C4FF0010808FAEB
:100CD0000CF3B1F800C00CEA03069E4221D1830058
:100CE0004FF00F0C0CFA03F7BC4305FA03FC4CEA77
:100CF000040491F803C0BCF1280F05D100F1080CE1
:100D000008FA0CF8C2F8148091F803C0BCF1480F3F
:100D100007D100F1080C4FF0010808FA0CF8C2F8EE
:100D20001080401C0828CED35460BDE8F08100003C
:100D300038B50446002536E01D4A6068811A9042A5
:100D400017D009DC1B49084468B1B0F5806F0CD09E
:100D5000B0F5006F13D10AE0B1F5806F0BD0B1F59B
:100D6000006F0CD109E0042509E0082507E01025F3
:100D700005E0202503E0402501E0802500BF00BFFD
:100D800045F00100012100F03DF920788DF80200C6
:100D90002089ADF8000060788DF80300694660682E
:100DA000FFF73AFF0C3420780028C5D138BD000089
:100DB0000014014000F8FEBF416170471FB51C469A
:100DC0002CB1BDF80810019800F007F804E0BDF858
:100DD00008100198FFF7F0FF1FBD01617047000088
:100DE0002DE9F04104460D46084800680849097895
:100DF00000EB4110C66904EB440006EB80072B466C
:100E000097E80700FFF7DAFFBDE8F0814400002013
:100E100014000020F0B504460A46002300200025F7
:100E2000214633E00E78252E02D10125461CB0B2B2
:100E3000012D2AD10E78642E06D1AC461E465F1CC9
:100E4000BBB202F806C000250E78662E07D14FF01F
:100E5000020C1E465F1CBBB202F806C000250E78CD
:100E6000732E07D14FF0030C1E465F1CBBB202F875
:100E700006C000250E78632E07D14FF0040C1E46E5
:100E80005F1CBBB202F806C00025491C0E78002E7C
:100E9000C8D1F0BD10B5014600200A4601E0431C50
:100EA00098B212F8014B002CF9D110BD01E000F00E
:100EB00045F8FCE710B5FFF749FE10BD70B50446D4
:100EC0000D4629462046FFF74BFE70BD10B5FFF7D3
:100ED00067FE10BD10B545F2555000F029F8062008
:100EE00000F01AF84FF47F6000F01CF800F00CF8E6
:100EF00000F002F810BD00004CF6CC40014908603B
:100F000070470000003000404AF6AA2001490860FE
:100F10007047000000300040014948607047000001
:100F200000300040014988607047000000300040F8
:100F300001490860704700000030004071B600BFF2
:100F40000648006800F4E06005490843001D0349B5
:100F50000860BFF34F8F00BF00BFFEE70CED00E05D
:100F60000000FA0500BFFEE702460A4B18680021A0
:100F700006E0A2F10803834200D107E001460068C1
:100F80000368002BF5D101B10B60704703680B605B
:100F900000BFFAE748000020054908600021044A24
:100FA000126811600821024A1268516070470000FF
:100FB0004800002010B503461048016803F10800FE
:100FC00083B20FE00868401A4C68001B984208D3AF
:100FD000486842185360086810600A6002F108000F
:100FE00010BD096808680028ECD148684218002044
:100FF000106053600A6002F10800F1E74800002029
:101000007047704729B1064A92690243044B9A61BE
:1010100004E0034A92698243014B9A6170470000E1
:1010200000100240704710B500F002F810BD00003B
:101030000CB50020019000903348006840F48030E7
:101040003149086000BF3048006800F4003000906B
:101050000198401C0190009818B90198B0F5A06F54
:10106000F1D12948006800F4003010B1012000904F
:1010700001E0002000900098012843D12348006837
:1010800040F01000214908600846006820F0030085
:1010900008600846006840F0020008601A4840688E
:1010A000194948600846406848600846406840F46E
:1010B000806048600846406820F47C10486008461C
:1010C000406840F4E81048600846006840F08070CE
:1010D000086000BF0C48006800F000700028F9D0DC
:1010E0000948406820F00300074948600846406806
:1010F00040F00200486000BF0348406800F00C0068
:101100000828F9D10CBD0000001002400020024068
:101110002DE9F04106460D462C4637462846FFF796
:10112000B9FE04443046FFF7B5FE804608F10100E1
:1011300008B9BDE8F08103E017F8010B04F8010BD2
:10114000B8F10000A8F10108F6D104F8010B00BFC6
:10115000EFE710B500F0A6F910BD000030B5124958
:10116000B1F1807F00D31DE021F07F40401E4FF0A1
:10117000E022506150170F22002807DA13071D0ED6
:101180000A4B00F00F04241F1D5503E013071C0E2B
:10119000074B1C5400BF00204FF0E0229061072055
:1011A000106100BF30BD00004019010018ED00E0E3
:1011B00000E400E010B51348006840F00100114958
:1011C000086008464068104908400E4948600846D3
:1011D00000680E4908400B4908600846006820F482
:1011E000802008600846406820F4FE0048604FF404
:1011F0001F008860FFF717FF4FF000600449086088
:1012000010BD0000001002400000FFF8FFFFF6FED6
:1012100008ED00E00FE001210846FFF7E1FD4FF483
:101220007A7000F0FDF900210120FFF7D9FD4FF49D
:101230007A7000F0F5F9EEE70DE001210020FFF7EC
:10124000CFFD642000F0ECF900210846FFF7C8FD4F
:10125000642000F0E5F9F0E70EE001210220FFF73D
:10126000BFFDC82000F0DCF900210220FFF7B8FD27
:101270004FF4967000F0D4F9EFE70EE0012103205F
:10128000FFF7AEFD4FF4A57000F0CAF9002103206E
:10129000FFF7A6FD6E2000F0C3F9EFE70FE0012194
:1012A0000420FFF79DFD40F2762000F0B9F90021FF
:1012B0000420FFF795FD4FF4FF7000F0B1F9EEE761
:1012C000F0B502460C46FF21FF2500260BE012F880
:1012D000017B87EA0503084FFF5C87EA0105074F9A
:1012E000F95C771CBEB2A642F1DB08464FF6FF77E9
:1012F00007EA00202843F0BD122400081225000848
:1013000010B510480078132804D00F480078401C0E
:101310000D4908700D480078401C0C4908700846BB
:10132000007864280DDD002008701423084A064860
:1013300001780848FFF753FC07490870002002496C
:10134000087010BD280000203C0000203400002060
:1013500035000020380000202000002010B54FF498
:101360007070FFF727FE1E49086002201D49487073
:1013700000204860002428E0012004EB4401184AC2
:10138000126802EB01110881002004EB4401144AA9
:10139000126802EB01118861002104EB4400104A3D
:1013A000126802EB00100160002004EB44010C4ABB
:1013B000126802EB0111C86104EB4401084A12688B
:1013C00002EB01110884601CC4B2142CD4DB13207E
:1013D000054908700020054908600549086010BDEE
:1013E0002C000020200000202800002030000020D9
:1013F0004C00002070B50446FFF7B0FF04E094E80D
:101400000F0000F0DBF8103420680028F7D100F05E
:1014100031F870BD10B50446FFF70AFBFFF75AFD1F
:10142000FFF766F900B910BD06E0FFF76DFD642017
:1014300000F0F6F800F002F8F7E7000010B50C48ED
:10144000046804B910BD0EE02468A07A00F0010021
:1014500048B1A07A00F0020028B1E0688047A07A85
:1014600020F00200A07220680028EDD100BFE9E75B
:101470004C00002008B5FFF771FE4FF4FA6005A399
:10148000002207490090132000F030F8132000F0EC
:10149000B9F908BD5461736B526F6F74000000009E
:1014A0001514000810B5FFF72BFF00F0E9F8084805
:1014B0004078402805D1032106A0FFF74BF9FFF73C
:1014C0003DFD0948006808B100F032FA10BD000087
:1014D00020000020544F532054696D654F757420CF
:1014E00052657365740000004C0000202DE9F04740
:1014F00004460D4691461F46DDF820800DB9BDE833
:10150000F08704EB44002C49096801EB00100089C6
:10151000012800D0F3E704EB44002749096801EBF8
:101520000010008C98B91FFA88F0FFF743FD0646BB
:1015300004EB4401204A126802EB0111A1F820805B
:1015400004EB44011C4A126802EB0111CE6104EB6A
:101550004402194B1B6803EB0212118C04EB44028A
:10156000154B1B6803EB0212D06900F0ADF98246FF
:10157000022104EB4400104A126802EB00100181C2
:1015800004EB44000C49096801EB0010456004EBD2
:1015900044000949096801EB0010C7624A46294620
:1015A000504600F0F7F804EB4401034A126802EBDE
:1015B0000111086000BFA2E72C0000202DE9F843CC
:1015C00005460E461746984600241AE004EB4400F0
:1015D0001249096801EB0010008900B912E004EB20
:1015E00044000E49096801EB00100089012800D170
:1015F00008E0601C80B20446142802DB0020BDE82D
:10160000F883E3E700BFE0B23B4632462946CDF817
:101610000080FFF76BFF0120F1E700002C000020A5
:1016200010B504461348407801281FD00020124905
:10163000097801EB4101114A126802EB011188613E
:101640000D48007800EB40000C49096801EB0010E0
:10165000446110210848007800EB4000074A1268F6
:1016600002EB0010018100F0DFF802E02046FFF7F6
:1016700061F810BD20000020280000202C00002070
:10168000002056E000EB40012B4A126802EB0111EA
:101690000989022902D0102947D11DE000EB400141
:1016A000254A126802EB01118969491C00EB4002CE
:1016B000214B1B6803EB0212916100EB40011E4AB3
:1016C000126802EB0111896944F62062914202D945
:1016D00040211A4A517029E0002100EB4002164BCC
:1016E0001B6803EB0212916100EB4001124A126881
:1016F00002EB0111496941B9022100EB40020E4B96
:101700001B6803EB021211810EE000EB40010A4A54
:10171000126802EB01114969491E00EB4002064BB9
:101720001B6803EB0212516100E000BF00BF411CC7
:10173000C8B21428A6DB70472C000020200000202F
:1017400010B504460F480078A04200D110BD0D48E6
:10175000007800EB40000C49096801EB00100B49D0
:10176000086008480470007800EB400006490968EA
:1017700001EB0010006806490860FEF791FF00BF0A
:10178000E4E70000280000202C0000201C000020BE
:101790001800002030B503461846041F204621607B
:1017A000041F204623600025041F20462560041FD7
:1017B00020462560041F20462560041F2046256022
:1017C000041F20462560041F20462560041F204674
:1017D0002560041F20462560041F20462560041F45
:1017E00020462560041F20462560041F20462560F2
:1017F000041F204622604FF08075041F204625609C
:1018000030BD000010B5044604EB440004490968EB
:1018100001EB0010006803490860FEF75AFF10BD95
:101820002C0000201800002010B502212348006879
:10183000A0F8981300243DE004EB44001F49096818
:1018400001EB00100089022802D020282ED107E0E9
:101850001B480078A04202D02046FFF771FF10BD60
:1018600004EB44001549096801EB001090F82200D0
:101870001449096801EB4010007A012815D11020A5
:1018800004EB44010D4A126802EB011108810320A8
:1018900004EB4401094A126802EB011191F822108D
:1018A000084A126802EB4111087200E000BF00BF55
:1018B000601CC4B2142CBFDB00BFD0E72C0000209A
:1018C00028000020440000200246501820F00303A6
:1018D000A3F1300020F007007047000010B5142875
:1018E00000DB10BD00EB4002104B1B6803EB021243
:1018F0001289042A00D1F4E7002200EB40030B4CCC
:10190000246804EB03139A61102300EB4002074C98
:10191000246804EB0212138100EB4002034B1B68A6
:1019200003EB0212516100BFDBE700002C00002036
:1019300010B51348006800B910BD11480068E0B147
:101940000F480068807A00F00100B0B10C480068D0
:1019500000890B4909688988884207DB08490968BA
:10196000C868804700200649096808810448006863
:101970000089401C02490968088100BFDCE70000BB
:101980004C00002010B540F22551114800F069F8D4
:10199000C0B10F48001D0088C4B20E4800880E492F
:1019A0000988884213DA0B4801880088401C094ADC
:1019B00010800A4800684454094908780A21FFF752
:1019C0008DFF04E040F22551014800F03BF810BDC6
:1019D000003801408A0000208000002058000020CC
:1019E0000F00002010B540F22551114800F039F8E1
:1019F000C0B10F48001D0088C4B20E4840880E498F
:101A00004988884213DA0B4841884088401C094ABB
:101A100050800A4840684454094948780A21FFF731
:101A20005DFF04E040F22551014800F00BF810BDC5
:101A3000004400408A000020800000205800002060
:101A40000F00002010B50022002340F66A14A142C6
:101A500000D100BF0A1201249440A3B2DC430480E9
:101A600010BD70B50246002400230025002040F67A
:101A70006A16B14200D100BFC1F3421501F01F0345
:101A8000012606FA03F3012D02D19689334006E0C0
:101A9000022D02D1168A334001E0968A33400C129F
:101AA000012606FA04F41688344013B10CB1012063
:101AB00000E0002070BD10B50B46002109E000BF1A
:101AC000048804F08004002CFAD05C5C84804C1CF8
:101AD000A1B29142F3DB10BD10B54FF48020FFF7A7
:101AE00015F810BD00BFFEE737B514460846064B93
:101AF0006A46214600F0CCF804466946002000F012
:101B00005EFC20463EBD0000BF23000802E008C87E
:101B1000121F08C1002AFAD170477047002001E067
:101B200001C1121F002AFBD1704700002DE9FF5FA1
:101B3000DDE90220010DDDF838B0024318D044F68B
:101B40001050A1F2FF3141430D140F98012820D00D
:101B5000A5EB0B00401C5FEA000A4FF00004474E63
:101B6000DFF81C91A046504616D5CAF1000728E0C0
:101B70000F98012443A2012808D0002100980F9B50
:101B8000C0E90021C0E90243BDE8FF9F6FEA0B01F5
:101B9000F4E7CBF10000DEE7074612E0F80707D0D4
:101BA0002246334640464946FEF763FB8046894657
:101BB0002246334610461946FEF75BFB04460E46A6
:101BC0007F10002FEAD1DDE90201BAF1000F424691
:101BD0004B4602DAFEF74DFB01E0FEF7BCFB044684
:101BE0000E460022284BFEF731FD03D84FF0FF30A0
:101BF000014607E00022254B20463146FEF792FAC7
:101C0000FEF70CFD102409E0002C0ADB0A22002359
:101C1000FEF745FC019B30321A55641E50EA010262
:101C2000F2D1641C019AC4F1110314440F9A012AE1
:101C300003D0012208430DD10AE0084304D000205C
:101C40004FF0110B0F9080E7A3EB0B056D1E0DE01D
:101C50005B4504DD4FF0000205F1010504E003DA05
:101C60004FF00002A5F10105002AECD000980F9971
:101C7000C0E90231C0E9004586E7000000002440C9
:101C80000000F03F300000000000F0430000E03FA3
:101C90002DE9FF4F95B09B468946064600250FE289
:101CA000252877D100242746F84A0121059400E031
:101CB000044316F8013F203B01FA03F01042F7D12C
:101CC00030782A2811D06FF02F033078A0F130023D
:101CD000092A16D8059A44F0020402EB820203EBAB
:101CE00042021044761C0590EFE759F8042B059248
:101CF000002A03DA504244F40054059044F00204F0
:101D0000761C30782E2816D116F8010F44F0040402
:101D10002A280DD06FF02F023078A0F13003092B64
:101D200009D807EB870302EB4303C718761CF3E7D8
:101D300059F8047B761C30786C280FD006DC4C28D0
:101D400017D068280DD06A2814D104E0742810D068
:101D50007A280FD10DE044F400140AE044F4801412
:101D600001E044F440147278824202D104F58014F8
:101D7000761C761C307866280BD013DC582877D078
:101D800009DC002875D04528F6D04628F4D047282D
:101D90001AD19DE118E0632835D0642879D06528F0
:101DA00012D195E1702873D008DC6728F1D069283A
:101DB0006FD06E280DD06F2806D1B5E073282CD0D7
:101DC000752875D0782874D05A46179990476D1C9D
:101DD00075E1C4F30250022809D003280DD0D9F8C8
:101DE000001004280DD00D6009F1040967E1D9F84D
:101DF0000010EA17C1E90052F6E7D9F800100D808B
:101E0000F2E70D70F0E719F8041B8DF800100020C0
:101E10008DF80100EA46012003E059F804AB4FF0C9
:101E2000FF3061074FF0000102D40DE008F101011D
:101E30008846B9420FDA8045F8DB1AF80810002905
:101E4000F4D108E008F1010188468142FADB1AF872
:101E500008100029F6D105985B46A0EB080721463B
:101E60003846179A00F094FA284400EB080507E07A
:101E70004DE029E10DE01AF8010B5A4617999047F9
:101E8000B8F10108F7D25B4621463846179A13E1AC
:101E900042E00A220092C4F302524FF0000A022AE2
:101EA00008D059F804CB032A4FEAEC710AD00DE0B0
:101EB00029E02AE009F1070121F00702F2E802C156
:101EC000914609E00FFA8CFC4FEAEC71042A03D129
:101ED0004FFA8CFC4FEAEC71002907DA0A46002120
:101EE000DCF1000C61EB02012D2202E0220504D599
:101EF0002B228DF80420012203E0E20701D02022EA
:101F0000F7E7904659E00A2102E010220DE0102187
:101F10004FF0000A00910BE010224FF0000A44F04D
:101F200004040827009203E008224FF0000A009200
:101F3000C4F30252022A05D059F804CB0021032A27
:101F400008D009E009F1070121F00702F2E802C117
:101F5000914605E01FFA8CFC042A01D10CF0FF0C1D
:101F60004FF00008220728D5702806D0009B83F088
:101F7000100353EA0A0305D00EE040228DF8042036
:101F8000012208E05CEA010206D030228DF804202C
:101F90008DF8050002229046009B83F0080353EA67
:101FA0000A030AD15CEA010201D1620705D5302299
:101FB0008DF804204FF001087F1E582804D034A06B
:101FC00003900EA802900DE036A0F9E75346604654
:101FD000009AFEF764FA84460398825C0298401ED9
:101FE000029002705CEA0100F0D1029806A9081A7A
:101FF00000F1200A600702D524F4803400E00127B4
:10200000574502DDA7EB0A0000E0002000EB0A01C3
:10201000009005984144401A0590E00306D45B46C1
:102020002146179A059800F0B3F90544002706E009
:1020300001A85A46C05D179990476D1C7F1C474503
:10204000F6DBE0030CD55B462146179A059800F0B5
:102050009FF9054404E030205A46179990476D1CBB
:102060000099481E00900029F5DC08E002980299CA
:102070005A460078491C0291179990476D1CBAF195
:102080000001AAF1010AF1DC65E100000928010064
:1020900030313233343536373839616263646566DE
:1020A00000000000303132333435363738394142A0
:1020B000434445460000000000F058F90544761CF2
:1020C000307800287FF4ECAD19B02846BDE8F08FD9
:1020D000620700D4062709F1070222F0070CFCE88A
:1020E0000223E14603F000485FEA080C02D00FF239
:1020F000702C0DE05FEA045C02D50FF2682C07E05B
:102100005FEAC47C02D00FF2602C01E0AFF2700CE9
:102110004FF0FF3823F00043CDF850C065280CD0B5
:1021200006DC452809D046281DD047283DD13DE092
:10213000662818D067287ED138E00021112F01DBF6
:10214000112000E0781CCDE9000106A90EA8FFF7D8
:10215000EDFCDDE90F010E9A03910021009207F1D9
:10216000010A04914DE04FF000400097CDE90110C5
:1021700006A90EA8FFF7DAFCDDE90F0203920E9B19
:1021800011990022DDF80CA00093049211B9791C7A
:1021900000EB010AB7EB0A0004D4C0F1FF3007F1ED
:1021A000010A0490AAEB0700019044E0012F00DA35
:1021B00001270021112F01DD112000E03846CDE973
:1021C000000106A90EA8FFF7B1FCDDE90F010E9A88
:1021D0000391002104910092BA4621070CD403997F
:1021E000514500DA8A46BAF1010F05DD009AAAF1DD
:1021F0000101515C302908D0B84202DA10F1040F15
:1022000006DA0121CDE9011015E0AAF10101E9E7A3
:10221000002805DC049901440491AAEB000102E0C6
:10222000411C514500DD8A460499401A401C01902A
:102230004FF000400290200704D40198504501DB84
:10224000CDF8048000208DF84F0002980DF14F0763
:10225000B0F1004F25D02B200E9002984FF00208CD
:1022600000280CDA404202902D200E9007E00A214F
:102270000298FEF7FEF83031029007F8011DB8F120
:102280000001A8F10108F2DC02980028EFD1791EC4
:102290000E980870307800F0200040F0450007F8F4
:1022A000020D12A8C01B00F107081498007800B1B5
:1022B000012000EB0A01019801EBE071059841440F
:1022C000401A401E0590E00306D45B462146179A4B
:1022D000059800F05DF805441498007818B15A4646
:1022E000179990476D1CE00324D55B462146179A49
:1022F000059800F04DF805441CE00498002807DB21
:10230000DDE90301884203DD0098405C179901E094
:10231000179930205A469047049805F10105401C52
:1023200004900198401E019004D12E205A4617991E
:1023300090476D1CBAF10001AAF1010ADDDC05E04D
:1023400017F8010B5A46179990476D1CB8F1000118
:10235000A8F10108F4DC5B462146179A0598ABE624
:102360002D0000002B000000200000002DE9F041AE
:10237000044600251E461746880404D405E0394665
:102380002020B0476D1C641EF9D52846BDE8F081B9
:102390002DE9F041044600251E469046C80301D5AC
:1023A000302700E02027880404D505E04146384660
:1023B000B0476D1C641EF9D52846BDE8F0810A6857
:1023C000531C0B60107070470648FEF7E5FDFEF7E2
:1023D00089FA0548FEF7C6FA0448FFF70BF800BF74
:1023E000FEE7000094000020742600081426000870
:1023F000685551F46662386B2324391F4244618466
:10240000B2441336198E50C6412529BB9E528748C7
:10241000FFFF00C1814001C0804101C0804100C177
:10242000814001C0804100C1814000C1814001C0A4
:10243000804101C0804100C1814000C1814001C094
:10244000804100C1814001C0804101C0804100C184
:10245000814001C0804100C1814000C1814001C074
:10246000804100C1814001C0804101C0804100C164
:10247000814000C1814001C0804101C0804100C154
:10248000814001C0804100C1814000C1814001C044
:10249000804101C0804100C1814000C1814001C034
:1024A000804100C1814001C0804101C0804100C124
:1024B000814000C1814001C0804101C0804100C114
:1024C000814001C0804100C1814000C1814001C004
:1024D000804100C1814001C0804101C0804100C1F4
:1024E000814001C0804100C1814000C1814001C0E4
:1024F000804101C0804100C1814000C1814001C0D4
:10250000804100C1814001C0804101C0804100C1C3
:10251000814000C0C101C30302C2C60607C705C58A
:10252000C404CC0C0DCD0FCFCE0E0ACACB0BC909FB
:1025300008C8D81819D91BDBDA1A1EDEDF1FDD1D0B
:102540001CDC14D4D515D71716D6D21213D311D13B
:10255000D010F03031F133F3F23236F6F737F5358B
:1025600034F43CFCFD3DFF3F3EFEFA3A3BFB39F9BB
:10257000F83828E8E929EB2B2AEAEE2E2FEF2DED8B
:10258000EC2CE42425E527E7E62622E2E323E121FB
:1025900020E0A06061A163A3A26266A6A767A5650B
:1025A00064A46CACAD6DAF6F6EAEAA6A6BAB69A97B
:1025B000A86878B8B979BB7B7ABABE7E7FBF7DBD8B
:1025C000BC7CB47475B577B7B67672B2B373B171BB
:1025D00070B050909151935352929656579755958B
:1025E00094549C5C5D9D5F9F9E5E5A9A9B5B99593B
:1025F0005898884849894B8B8A4A4E8E8F4F8D4D0B
:102600004C8C44848545874746868242438341817A
:10261000804000001512000800000000F8260008A5
:10262000E80300003912000800000000002700083D
:10263000E803000059120008000000000827000805
:10264000E80300007B1200080000000010270008CB
:10265000E80300009D120008000000001027000899
:10266000E80300000000000000000000000000007F
:102670000000000002100000000C014020000000DB
:1026800002100000000C0140400000000210000099
:10269000000C01408000000002100000000C01400E
:1026A0000001000002100000000C014000020000C8
:1026B00002100000000C01400100000002100000A8
:1026C000000C01400200000002100000000C01405C
:1026D0000400000002100000000C01400004000093
:1026E00002100000000C0140000800000000000083
:1026F00000000000000000005461736B3000000017
:102700005461736B310000005461736B3200000040
:102710005461736B3300000038270008000000206C
:10272000580000000C1B00089027000858000020EB
:10273000203300001C1B0008000000000000000007
:10274000000000000000000000000000FF05000085
:102750000000000000000000000000000000000079
:102760000000000000000000000000000000000069
:102770000000000000000000000000000000000059
:10278000000000000000000000000000FF00FF004B
:04000005080000ED02
:00000001FF
