:020000040800F2
:10000000D038002045010008BD180008711500080F
:1000100015180008A50900088D350008000000002B
:10002000000000000000000000000000B51C0008F7
:10003000550B00080000000049190008CD1F0008FA
:100040005F0100085F0100085F0100085F01000810
:100050005F0100085F0100085D0F00085F010008F4
:100060005F0100085F0100085F0100085F010008F0
:100070005F0100085F0100085F0100085F010008E0
:100080005F0100085F0100085F0100085F010008D0
:100090005F0100085F0100085F010008790F000898
:1000A0005F0100085F0100085F0100085F010008B0
:1000B0005F0100085F0100085F0100085F010008A0
:1000C0005F0100085F0100085F0100085F01000890
:1000D0005F010008D92E0008392F0008992F000869
:1000E0005F0100085F010008813500085F0100081A
:1000F0005F0100085F0100085F0100085F01000860
:100100005F0100085F0100085F0100085F0100084F
:10011000192E0008792E00085F0100085F01000811
:100120005F0100085F0100085F0100085F0100082F
:10013000DFF80CD000F08CFB00480047813E00083F
:10014000D03800200648804706480047FEE7FEE713
:10015000FEE7FEE7FEE7FEE7FEE7FEE7FEE7FEE777
:100160009520000831010008D2B201E000F8012B0F
:10017000491EFBD270470022F6E710B513460A4627
:1001800004461946FFF7F0FF204610BD30B480EA60
:10019000010202F0004530F0004221F0004015D08D
:1001A000A0B1C0F3C753C2F3C754C2F31601C0F3E2
:1001B0001600E41A41F4000140F400027D3491423B
:1001C00001D3641C00E04900002C02DA30BC00209E
:1001D00070474FF400000023914201D3891A034372
:1001E00040084FEA4101F7D151B1914202D14FF09D
:1001F000004105E002D24FF0010101E06FF0010182
:1002000003EBC450284430BC00F060BA2DE9FE4F27
:10021000804681EA0300C00F0C46009021F00041A7
:1002200023F00045B8EB0200A94105D24046214623
:1002300090461C460B46024623F00040104304D172
:100240004046214603B0BDE8F08F270DC7F30A00F2
:10025000C3F30A510290401A0190402866DAC3F3B2
:10026000130040F4801B0098924620B10023D2EB8B
:10027000030A63EB0B0B01985946C0F1400250464C
:1002800000F0F3F906460D4650465946019A00F033
:100290000BFA10EB08006141002487EA115284EA4E
:1002A000E7731A433BD0009A3AB3019A012A4FEA06
:1002B000075210DC001B61EB02014FF0004202EA22
:1002C0000752CDE90042001C41F5801132462B4611
:1002D00000F03FFAB6E7001B61EB0201001C41F59C
:1002E000801300185B412018A2F5001747EB0301AB
:1002F00040EAD570B6196D4111E06D084FEA360637
:1003000045EAC0754FEA0752001B61EB0201001C71
:1003100041F5801149084FEA300000195141324639
:100320002B4603B0BDE8F04F00F006BA009801225A
:1003300040000023D0EB020263EBE07300982146FB
:100340004FEAE074B8EB000061EB0401E9E783F0E9
:1003500000435BE781F0004158E72DE9FE4F81EA59
:10036000030404F0004421F0004100944FF0000B1E
:1003700023F0004350EA010402D052EA030404D1FE
:100380000020014603B0BDE8F08FC3F30A54C1F367
:100390000A552C44A4F2F3340194A0FB0254C1F397
:1003A000130141F48011C3F3130343F4801301FBE1
:1003B000024400FB034E840A970A44EA815447EA48
:1003C0008357A4FB076802958D0A05FB07854FEA52
:1003D000932C04FB0C542705029D4FEA065847EA6C
:1003E0001637B5EB08056EEB070C870E920E47EA41
:1003F000811742EA8312A7FB0201B6EB0B0164EB03
:1004000000042B0D43EA0C335E1844EB1C50DA4613
:100410005146E7FB0201C5F313044FEA0B3343EAED
:1004200014534FEA0432019C43EA0603A4F10C047E
:100430000294009CCDE900B400F08BF9A2E72DE90D
:10044000F04D81EA030404F0004B21F0004514460E
:100450004FF0000A23F0004150EA050220D054EA90
:1004600001021DD0C5F30A570246C5F31303C1F3B9
:100470001300C1F30A5640F4801543F48013A7EB30
:100480000608101BD64608F2FD3873EB050002D3B0
:1004900008F1010801E092185B41B8F1000F03DA9E
:1004A00000200146BDE8F08D00204FF48011064683
:1004B00084460EE0171B73EB050705D3121B63EB95
:1004C000050306434CEA010C49084FEA3000921834
:1004D0005B4150EA0107EDD152EA030012D082EAF3
:1004E000040083EA0501084303D100224FF00043D2
:1004F00008E0101BAB4102D20122002302E06FF0A2
:10050000010253101AEB06004CEB085110EB0A00E5
:1005100041EB0B01BDE8F04D00F00EB9962300222F
:10052000114600F0DCB80EB540F2334102910021D3
:10053000CDE900110A460B4600F00BF903B000BDEF
:1005400070B5C1F30A5201F000450024C1F3130154
:1005500040F2FF3341F480119A4201DA002070BD6D
:1005600040F233439A42A2F2334203DC524200F09B
:100570008BF800E090402C43F1D0404270BD00F079
:10058000004230F000400AD0C10D01F56071C0F3A7
:10059000160042EA0151C20840071143704700208B
:1005A0000146704701F0004330B421F0004150EAA9
:1005B000010206D00A0DA2F56072C1F31301002AF0
:1005C00002DC30BC00207047440F44EAC104C10083
:1005D000E01830BC00EBC25000F078B830B50B46E4
:1005E000014600202022012409E021FA02F59D4263
:1005F00005D303FA02F5491B04FA02F52844151E37
:10060000A2F10102F1DC30BD2DE9F05F05460020CA
:1006100092469B4688460646814640241BE0284673
:1006200041464746224600F02FF853465A46C01A24
:10063000914110D311461846224600F016F82D1AA3
:1006400067EB01084F4622460120002100F00DF81B
:1006500017EB00094E41201EA4F10104DFDC4846DF
:1006600031462A464346BDE8F09F202A04DB203A63
:1006700000FA02F1002070479140C2F1200320FAF5
:1006800003F3194390407047202A04DB203A21FAF3
:1006900002F00021704721FA02F3D040C2F120029B
:1006A0009140084319467047202A06DBCB17203AB1
:1006B00041FA02F043EAE07306E041FA02F3D04067
:1006C000C2F1200291400843194670470029A8BF93
:1006D0007047401C490008BF20F00100704710B46B
:1006E000B0FA80FC00FA0CF050EA010404BF10BC20
:1006F000704749B1CCF1200421FA04F411FA0CF14D
:1007000018BF012121430843A3EB0C01CB1D0106B7
:10071000000A002BBEBF002010BC704700EBC35086
:1007200010440029A4BF10BC7047401C490008BFFA
:1007300020F0010010BC704710B5002B08DA401CF7
:1007400041F1000192185B411A4301D120F00100F0
:1007500010BD2DE9F04D92469B4611B1B1FA81F2E0
:1007600002E0B0FA80F220329046FFF77EFF0446A6
:100770000F4640EA0A0041EA0B0153465A46084335
:1007800003D120463946BDE8F08D114653EA0100F9
:1007900015D0C8F140025046FFF776FF05460E46D9
:1007A000504659464246FFF760FF084301D00120FA
:1007B00000E00020054346EAE0762C4337430A98E0
:1007C0004FEA4453A0EB08004FEAD4240A304FF01C
:1007D000000244EA47544FEAD72502D500200146DB
:1007E000D1E7010510196941DDE9084500196941A2
:1007F000BDE8F04DA0E7C1F30A52C1F3130140F286
:10080000FF3341F480119A4202DA0020014670471A
:1008100040F233439A42A2F2334202DC5242FFF7E3
:1008200033BFFFF722BF000030B5002904DB4FF0D3
:100830000044404264EB0101002B04DB4FF0004414
:10084000524264EB0303994208BF904230BD00005E
:10085000064C074D06E0E06840F0010394E807000D
:1008600098471034AC42F6D3FFF766FCD04100083D
:10087000F041000882B02DE9FF1FEFF3038001B4BF
:10088000684600F1400000E901400C480168C1F8E9
:1008900000D00B48D0F800D001BC80F30388BDE83D
:1008A000FF1F01B000BD0648D0F800D001BC80F3A6
:1008B0000388BDE8FF1F01B000BD00003C00002020
:1008C0003800002070B50C210D4801F099FD044658
:1008D0000C4E30460588A5F57F40FF3807D100F063
:1008E00057FE2146304600F04BFE00F045FE05481D
:1008F0000588A54201D0002070BD0120FCE7000062
:10090000E8F7FF1FEE3E000806E04FF47A7100BFE3
:100910000A00A1F10101FBD10200A0F10100F4D114
:100920007047F0B5034600201C460D46104603E014
:1009300014F8016B05F8016B1600A2F10107BAB2B9
:10094000F6D1F0BD2DE9F04105460E461746144A92
:10095000118CD06900F033FD114A918D906A00F03E
:100960002EFD45F0800001F07DFA002404E0305DAA
:1009700001F078FA601CC4B2BC42F8DB084A118C62
:10098000D06900F01CFD064A1189506800F028FD6E
:10099000034A918D906A00F023FDBDE8F0810000CC
:1009A000F040000800BFFEE702E0002200F8012B43
:1009B0000A00A1F1010399B2F7D170470FB42DE9F4
:1009C000F04186B0002501260027B00200F050FF5C
:1009D000044654480078FF2801D1012000E000209F
:1009E00050490978504A1278914201D1012100E022
:1009F000002108437DD00DA805902046059A0C994A
:100A000002F0C6FD002005900DA8059069460C98DF
:100A100000F002FD06462AE02846691CCDB21DF80A
:100A20000000012804D0022806D003281AD115E0BE
:100A3000059880C8059019E00598C01D20F00700B2
:100A40000590D0E90021DDF814C00CF1080C104627
:100A5000CDF814C0FFF774FD074607E0059880C87D
:100A6000059003E0059880C8059000BF00BF3000E6
:100A7000A6F10106D0D1059880C805900020059008
:100A80002A480078FF2801D1012000E000202749F2
:100A90000978B94201DB012100E00021084338D088
:100AA000214623A001F036FA2248007810F0020F08
:100AB0000DD02149087800F03FFA40B1204600F0FF
:100AC0004BFD8046424621461C4802F049FD19482C
:100AD000007810F0040F0FD01749487800F02CFA76
:100AE00050B1204600F038FD804642462146144869
:100AF00000E00EE002F034FD1248006848B12046E4
:100B000000F02AFD00F0FF08414620460D4A126819
:100B10009047204600F080FE06B0BDE8F0015DF889
:100B200014FB000064000020480000206600002044
:100B30000D0A00006500002014000020003801406C
:100B40000044004068000020014908707047000020
:100B5000650000207047000010B500201A49087099
:100B60004FF4A07000F084FE18490860002406E0ED
:100B7000FF201749085517490855601CC4B2052CB9
:100B8000F6DB00241DE000201049096801EB441148
:100B9000486103200D49096801EB441108720020E7
:100BA0000A49096801EB441108610849096801EB29
:100BB0004411C8600549096801EB44118861601C53
:100BC000C4B20A2CDFDB10BD540000205800002006
:100BD00014000020190000202C4909782C4A1170BB
:100BE0002A490978491C294A117029490978294A52
:100BF0001268274B1B7802EB4312117126A1254A7C
:100C00001268234B1B7802EB431211600021214A2A
:100C100012681F4B1B7802EB4312517102221D49CF
:100C200009681B4B1B7801EB4311CA71012219495A
:100C30000968174B1B7801EB43110A721849154AD2
:100C40001268134B1B7802EB43125161114909687A
:100C50000F4A127801EB4211C86100220D49096860
:100C60000B4B1B7801EB4311CA600021094A126843
:100C7000074B1B7802EB43121161002205490968FA
:100C8000034B1B7801EB43118A617047540000202D
:100C900028000020580000204750494F0000000065
:100CA000251300082DE9F04107460D461646384643
:100CB00002F0F6FA04465F48005DFF2808D15E485E
:100CC00000785C4908555C480078401C5A49087017
:100CD0005AA05849095D5B4A126802EB411108604D
:100CE00000205449095D574A126802EB41114871CE
:100CF00001205049095D534A126802EB4111C87145
:100D000003204C49095D4F4A126802EB41110872F9
:100D10004D484849095D4B4A126802EB4111486150
:100D20004448005D4749096801EB4010C4614749E8
:100D30004048005D434A126802EB4010C1604448DD
:100D40003C49095D3F4A126802EB411108610021EC
:100D50003848005D3B4A126802EB40108161002078
:100D60003C4921F81400284600F082FD3A4941F838
:100D70002400384602F094FA04463848005DFF2803
:100D800008D12D480078354908552B480078401C7B
:100D90002949087032A03149095D2A4A126802EBDC
:100DA0004111086000202D49095D264A126802EBB6
:100DB0004111487101212948005D224A126802EB65
:100DC0004010C17103202549095D1E4A126802EBDB
:100DD000411108721C492148005D1A4A126802EB51
:100DE000401041611D48005D1649096801EB401043
:100DF000C46116481949095D124A126802EB411193
:100E0000C86013481549095D0E4A126802EB41118A
:100E1000086100201149095D0A4A126802EB41117C
:100E20008861304600F024FD0F4941F82400BDE8F8
:100E3000F081000019000020540000205553415259
:100E40005278000058000020413000084135000869
:100E50004934000898000020700000201400002091
:100E600055534152547800008400002010B50446C8
:100E70004FF4967211462046FFF714FF10BD000094
:100E800010B5032124A0FFF799FD002441E0294873
:100E9000006800EB44104069C8B32648006800EBC6
:100EA0004410C079012806D0022817D003280ED09C
:100EB00004282BD11EE01F4A126802EB4412107F57
:100EC0001C4A126802EB4412516988471EE0194916
:100ED000096801EB44114869804717E0154A126818
:100EE00002EB4412D069134A126802EB44125169B2
:100EF00088470BE00F4A126802EB4412D0690D4A92
:100F0000126802EB44125169884700BF00BF601CA1
:100F1000C4B20A2CBBDB10BD546F732044657669E4
:100F2000636520496E69742E2E2E2E2E2E2E2E2EA7
:100F30002E000000580000200146FF2901D10020AA
:100F400070470548006800EB4110406908B900206F
:100F5000F6E70120F4E700005800002008B5012062
:100F600000F01AF86B46012200210248007801F0D7
:100F7000F3FC08BD6C00002008B54FF4807000F051
:100F80000BF86B46012200210248007801F0E4FCD6
:100F900008BD00006C000020014908607047000097
:100FA00014040140002123498279002A3AD00A46DC
:100FB000126803689A430B461A600A1D1268036898
:100FC0009A430B1D1A60027911440A6803681A4398
:100FD0000A60184A0832126803689A43154B0833AE
:100FE0001A601A1D126803689A43124B0C331A6078
:100FF0004279102A0ED11A1F126803681A430D4B4A
:1010000008331A601A1D126803681A43094B0C331F
:101010001A600DE00749427911440A6803681A43CF
:101020000A6005E0027911440A6803689A430A607D
:1010300070470000000401401FB504464FF4807063
:10104000ADF8080048208DF80B0002A9124800F006
:10105000DFF80821012000F0BBF84FF48070009009
:1010600000208DF8040008208DF805008DF806405A
:101070006846FFF797FF4FF4E06000F05BFC172035
:101080008DF80C0000208DF80E008DF80F4003A89D
:1010900000F016FC1FBD0000000C014004200B49AD
:1010A000C96811F0010F01D001200EE00749C9689D
:1010B00011F0040F01D0022007E00449C96811F0C3
:1010C000100F01D0032000E00420704700200240F0
:1010D0000348006940F08000014908617047000042
:1010E000002002400549096821F01001034A1160FF
:1010F000114609680143116070470000002002405A
:1011000070B504460D460426F00200F031F806469C
:10111000042E11D10948006940F001000749086117
:101120002580F00200F024F806460448006941F6E4
:10113000FE71084001490861304670BD0020024040
:1011400001460020034A106800F038000843106090
:1011500070470000002002400248034948600348ED
:10116000486070472301674500200240AB89EFCDFE
:1011700000B502460423FFF791FF034603E0FFF7A3
:101180008DFF0346521E012B01D1002AF7D102B96F
:101190000523184600BD70B504460025107820B11F
:1011A00016782068B0FBF6F085B22068084420600D
:1011B0001078984203DA1078401C107002E0206822
:1011C000401B206016782068B0FBF6F080B270BD3E
:1011D00030B500228B071C0F0F2303FA04F20B4BD0
:1011E0008C1053F824309343084C8D1044F825306C
:1011F00023468C1053F824308C07240F00FA04F493
:101200002343024C8D1044F8253030BD08000140C6
:101210002DE9F0410246002500260020002300248D
:10122000002791F803C00CF00F0591F803C01CF0E3
:10123000100F03D091F802C04CEA050591F800C0E8
:10124000BCF1000F31D0146800202BE04FF0010CEE
:101250000CFA00F3B1F800C00CEA03069E4220D15C
:1012600083004FF00F0C0CFA03F7BC4305FA03FCA4
:101270004CEA040491F803C0BCF1280F06D14FF0EA
:10128000010C0CFA00FCC2F814C00AE091F803C08B
:10129000BCF1480F05D14FF0010C0CFA00FCC2F86C
:1012A00010C0401C0828D1D31460B1F800C0BCF1B4
:1012B000FF0F34DD546800202EE000F1080C4FF0E1
:1012C000010808FA0CF3B1F800C00CEA03069E42CC
:1012D00021D183004FF00F0C0CFA03F7BC4305FA41
:1012E00003FC4CEA040491F803C0BCF1280F05D1BB
:1012F00000F1080C08FA0CF8C2F8148091F803C049
:10130000BCF1480F07D100F1080C4FF0010808FAB2
:101310000CF8C2F81080401C0828CED35460BDE8F9
:10132000F081000038B50446002536E01D4A6068AB
:10133000811A904217D009DC1B4940180DD0B0F536
:10134000806F0CD0B0F5006F13D10AE0B1F5806F5B
:101350000BD0B1F5006F0CD109E0042509E0082598
:1013600007E0102505E0202503E0402501E0802569
:1013700000BF00BF45F00100012100F0F7FA20781E
:101380008DF802002089ADF8000060788DF8030028
:1013900069466068FFF73CFF0C3420780028C5D10F
:1013A00038BD00000014014000F8FEBF02460020D6
:1013B00093680B4201D0012000E00020704741619A
:1013C00070471FB51C462CB1BDF80810019800F0FD
:1013D00007F804E0BDF808100198FFF7F0FF1FBD03
:1013E000016170472DE9F04104460D460848006848
:1013F0000849097800EB4110C66904EB440006EB8C
:1014000080072B4697E80700FFF7DBFFBDE8F08178
:101410005800002028000020F0B504460A460023AA
:1014200000200025214633E00E78252E02D101252B
:10143000461CB0B2012D2AD10E78642E06D1AC46DE
:101440001E465F1CBBB202F806C000250E78662E51
:1014500007D14FF0020C1E465F1CBBB202F806C05B
:1014600000250E78732E07D14FF0030C1E465F1C2B
:10147000BBB202F806C000250E78632E07D14FF0EC
:10148000040C1E465F1CBBB202F806C00025491CB6
:101490000E78002EC8D1F0BD2DE9FE4F82469AF895
:1014A00000B04FF6FF7000EA0B2B9AF80100584489
:1014B0001FFA80FB5846FFF736F80B4A0B4BCDE975
:1014C0000001FEF74AFF06460022094BFEF7B7FF70
:1014D0000446084A084BFEF73AFF8046FFF762F8D9
:1014E00002900298BDE8FE8FD7A3703D0AF76540D1
:1014F0000000F040CDCCCCCCCC6C47402DE9FE4F69
:1015000082469AF800B04FF6FF7000EA0B2B9AF86B
:10151000010058441FFA80FB5846FFF704F80022E8
:101520000A4BCDE90001FEF718FF06460022084BE2
:10153000FEF785FF04460022064BFEF708FF8046B3
:10154000FFF730F802900298BDE8FE8F00405F4040
:101550000000F0400000184010B5014600200A4687
:1015600001E0431C98B212F8014B002CF9D110BDD8
:1015700001E000F03BF9FCE710B5FFF7A9FD10BD55
:1015800070B504460D4629462046FFF7B9FD70BDEB
:1015900010B5FFF7E1FD10BD10B545F2555000F054
:1015A00029F8062000F01AF84FF47F6000F01CF8CC
:1015B00000F00CF800F002F810BD00004CF6CC4032
:1015C0000149086070470000003000404AF6AA2038
:1015D0000149086070470000003000400149486040
:1015E00070470000003000400149886070470000EB
:1015F00000300040014908607047000000300040A2
:1016000010B50024642000F020FC00F0F7FB04F586
:10161000C47000F029FB40F2091000F025FB44F6ED
:10162000193000F021FB40F2891000F01DFB40F260
:10163000846000F019FB40F2EC7000F015FB40F6FE
:10164000590000F011FB44F6875000F00DFB40F606
:101650008F1000F009FB40F6092000F005FB40F672
:101660003B3000F001FB40F6234000F0FDFA41F66C
:10167000745000F0F9FA41F6B76000F0F5FA41F65F
:10168000FF7000F0F1FA4FF4005000F0EDFA42F272
:10169000101000F0E9FA42F21A2000F0E5FA42F2E6
:1016A0001A3000F0E1FA4FF4105000F0DDFA42F287
:1016B000086000F0D9FA41F2F71000F0D5FA41F2D3
:1016C000FF2000F0D1FA44F27F0000F0CDFA44F29E
:1016D000F01000F0C9FA4FF4C47000F0C5FA012010
:1016E00000F054FA0446062000F050FA04460720A1
:1016F00000F04CFA0446082000F048FA044609209D
:1017000000F044FA04460A2000F040FA04460B2098
:1017100000F03CFA04460C2000F038FA0446112090
:1017200000F034FA0446122000F030FA04461D207E
:1017300000F02CFA044610BD70B506460C46002594
:10174000204600F0EBFA2146304600F046FB09E067
:10175000012001F035F82846691C8DB2B0F5FA6F0A
:1017600000DD07E0094AB2F85010D06CFFF71EFE0A
:101770000028EDD000BF00F013FB00F09DFA092D0A
:1017800001DD012070BD0020FCE70000F0400008F2
:1017900070B505460C462146284600F031FE064647
:1017A0002046611C8CB22E5432122046611C8CB231
:1017B0002A54204670BD2DE9F04105460C46A01E76
:1017C00081B2284600F01CFE0746601E2E5C4FF6D4
:1017D000FF7000EA0626A01E285C0643BE4202D126
:1017E0000120BDE8F0810020FBE7000071B600BFDA
:1017F0000648006800F4E06005490843001D0349FD
:101800000860BFF3408F00BF00BFFEE70CED00E0B3
:101810000000FA0500BFFEE702460A4B18680021E7
:1018200006E0A2F10803834200D107E00146006808
:101830000368002BF5D101B10B60704703680B60A2
:1018400000BFFAE75C0000200146A1F108025068E1
:1018500008387047054908600021044A1268116081
:101860000821024A12685160704700005C000020A5
:1018700010B503461048016803F1080083B20FE079
:101880000868401A4C68001B984208D34868421800
:101890005360086810600A6002F1080010BD096812
:1018A00008680028ECD14868421800201060536096
:1018B0000A6002F10800F1E75C00002070470000B8
:1018C00070B5002100230F22C4780CB3164C246895
:1018D00004F4E064C4F5E064210AC1F10403CA40E1
:1018E000447804FA03F184781440214309010F4C31
:1018F0000678A155047804F01F050124AC40057852
:101900006D114FF0E02606EB8505C5F8004109E0B2
:10191000047804F01F050124AC40054D06787611CB
:1019200045F8264070BD00000CED00E000E400E04A
:1019300080E100E002490143024A11607047000063
:101940000000FA050CED00E07047000029B1064ADE
:10195000D2690243044BDA6104E0034AD26982434C
:10196000014BDA61704700000010024029B1064ABD
:1019700092690243044B9A6104E0034A92698243EC
:10198000014B9A6170470000001002400F48006848
:1019900040F001000D490860084640680C490840C5
:1019A0000A494860084600680A4908400749086033
:1019B0000846006820F4802008600846406820F44B
:1019C000FE0048604FF41F0088607047001002401E
:1019D0000000FFF8FFFFF6FE30B5002100220024D2
:1019E00000232D4D6D6805F00C0121B1042905D0AF
:1019F000082923D105E0294D056022E0274D056027
:101A00001FE0254D6D6805F47012234D6D6805F4D7
:101A10008034022505EB92421CB9214D55430560E7
:101A20000BE01D4D6D6815F4003F03D01C4D554370
:101A3000056002E0194D5543056002E0174D056051
:101A400000BF00BF144D6D6805F0F0010909154D88
:101A50006B5C0568DD4045600F4D6D6805F4E06125
:101A6000090A104D6B5C4568DD4085600A4D6D6864
:101A700005F46051C90A0B4D6B5C4568DD40C560DB
:101A8000054D6D6805F44041890B074D6B5CC568D9
:101A9000B5FBF3F5056130BD0010024000127A007D
:101AA00000093D00000000201000002010B5014694
:101AB0000022002300204A11012A02D1094C236888
:101AC00006E0022A02D1074C236A01E0054C636A52
:101AD00001F01F02012494401C4201D0012000E0CB
:101AE000002010BD001002400248406800F00C00C9
:101AF000704700000010024001460020034A506871
:101B000020F0F000084350607047000000100240D1
:101B10000149086070470000000042420146002071
:101B2000034A506820F4E0600843506070470000AA
:101B30000010024001460020034A506820F4605023
:101B400040EAC10050607047001002400149086639
:101B5000704700000000424202460020044B5868D3
:101B600020F47C1042EA01031843014B586070478F
:101B70000010024001460020034A506820F0030094
:101B800008435060704700000010024070B50446E2
:101B9000094A918D906AFFF712FC204600F062F925
:101BA000002000F05FF90546034A918D906AFFF727
:101BB00017FC284670BD0000F04000082DE9F041F8
:101BC00007460D461646144A118CD069FFF7F7FBFD
:101BD000114A918D906AFFF7F2FB384600F042F906
:101BE000002405E0002000F03DF92855601CC4B237
:101BF000B442F7DB084A118CD069FFF7E0FB064AD4
:101C000011895068FFF7ECFB034A918D906AFFF74A
:101C1000E7FBBDE8F0810000F040000870B5044625
:101C2000104A118CD069FFF7CAFB0E4A918D906A59
:101C3000FFF7C5FB204600F015F9002000F012F96F
:101C40000546084A118CD069FFF7B9FB054A11898E
:101C50005068FFF7C5FB034A918D906AFFF7C0FB00
:101C6000284670BDF040000810B50446104A118C9B
:101C7000D069FFF7A4FB0E4A918D906AFFF79FFB96
:101C800044F40044201200F0EDF8E0B200F0EAF86D
:101C9000074A118CD069FFF792FB054A11895068F9
:101CA000FFF79EFB024A918D906AFFF799FB10BDEA
:101CB000F04000087047000010B540F28910FFF7AF
:101CC000D3FF022000F0C1F8032000F0BEF8124A52
:101CD000B2F84410106CFFF772FB0F4AB2F84410D0
:101CE000106CFFF77DFB41F2BF10FFF7BDFF4FF413
:101CF0008040FFF7B9FF4FF48240FFF7B5FF4FF484
:101D00007060FFF7B1FF4FF45060FFF7ADFF40F296
:101D10008D10FFF7A9FF10BDF040000810B5044674
:101D200040F28910FFF7A0FF022000F08EF8032098
:101D300000F08BF8194AB2F84410106CFFF750FB12
:101D4000164AB2F84410106CFFF739FB41F2F71055
:101D5000FFF78AFF4FF41050FFF786FF04F5085194
:101D6000481CFFF781FF4FF46060FFF77DFF4FF4E1
:101D70005060FFF779FF44F24000FFF775FF4FF422
:101D80008240FFF771FF2046FFF748FF40F28B10BB
:101D9000FFF76AFF0A2000F058F810BDF040000875
:101DA00010B541F2FF20FFF75FFF10BD70B504468C
:101DB0001020FFF733FF064606F55060FFF754FF8B
:101DC0001320FFF72BFF05462A4621460020FFF788
:101DD000F5FEFFF7E5FF284670BD70B504460D46D9
:101DE0000A2000F032F82A4621460020FEF7AAFD1C
:101DF00040F20B10FFF738FF70BD000010B50C4A21
:101E0000118F506BFFF7ECFA032000F01EF8084A20
:101E1000118F506BFFF7D3FA032000F016F8044A35
:101E2000118F506BFFF7DCFA032000F00EF810BDA5
:101E3000F040000800EB80014906080E00BF0100D9
:101E4000A0F10102D0B2FAD17047002106E00022D1
:101E500001E0531CDAB2782AFBDB491C8142F6D33D
:101E60007047000070B5044600252FE014F0800F85
:101E700005D0184A11895068FFF7B2FA04E0154AF4
:101E800011895068FFF79BFA6006040E0120FFF7E6
:101E9000D1FF104A118CD069FFF7A2FA0120FFF799
:101EA000C9FF0C4A918A1069FFF780FA10B144F01B
:101EB000010401E024F00104064A118CD069FFF707
:101EC0007EFA0120FFF7B6FF681CC5B2082DCDDBF6
:101ED000204670BDF040000810B50D48FFF722FA0B
:101EE0000B4A918D906AFFF77BFA094A118F506B6C
:101EF000FFF776FA064AB2F84410106CFFF770FA52
:101F0000034AB2F85010D06CFFF76AFA10BD000017
:101F1000F04000082DE9F04106460D462C463746B4
:101F20002846FFF719FB04443046FFF715FB8046AF
:101F300018F1010001D1BDE8F08103E017F8010BB1
:101F400004F8010B5FEA0800A8F10108F6D104F8D3
:101F5000010B00BFEFE72DE9FC4305460E46144692
:101F6000A8463746A446002110E003F00F000DF804
:101F700001001DF8010000B90AE01DF80100401E33
:101F8000C0B20DF801001B09481CC1B20829ECD3EE
:101F900000BF9CFBF1F000F0FF0C0DE0002208E018
:101FA000881A401E1DF8000018F80000B854501C94
:101FB000C2B28A42F4DB0F445FEA0C00ACF10109C3
:101FC00009F0FF0CEAD12046BDE8FC8310B500F013
:101FD00009FB10BD30B51249B1F1807F00D31DE07F
:101FE00021F07F40401E4FF0E022506150170F2239
:101FF000002807DA13071D0E0A4B00F00F04241FF8
:102000001D5503E013071C0E074B1C5400BF002096
:102010004FF0E02290610720106100BF30BD00004A
:102020004019010018ED00E000E400E010B5FFF7F2
:10203000ADFC0120FFF76CFD00BF2120FFF736FD4E
:102040000028FAD00020FFF757FD0020FFF772FDAF
:102050004FF48060FFF762FD0220FFF771F8102057
:10206000FFF740F84FF460110020FFF775FD0120E5
:10207000FFF76CFD00BF3920FFF718FD0028FAD0EC
:102080000220FFF777FD00BFFFF72EFD0828FBD1E8
:1020900010BD000010B51348006840F00100114960
:1020A000086008464068104908400E4948600846E4
:1020B00000680E4908400B4908600846006820F493
:1020C000802008600846406820F4FE0048604FF415
:1020D0001F008860FFF7AAFF4FF000600449086006
:1020E00010BD0000001002400000FFF8FFFFF6FEE8
:1020F00008ED00E00420FEF727FDFF20FEF724FD99
:102100000EE0642000F05CFB01210020FFF76AF97B
:102110004FF47A7000F054FB00210846FFF762F993
:10212000EFE70000BCB04FF003090024A14609E02E
:102130000CA8484428A901EBC901486009F1010035
:1021400000F0FF09B9F10A0FF2DB0A2128A800F01C
:1021500007FB5B4800785B490870FFF7BDFEFFF79F
:102160004FFA09E04220FFF711FD122800D10AE0E2
:10217000052155A0FEF722FC5FEA0900A9F1010143
:1021800001F0FF09EED100BFFFF796FD0120FEF739
:1021900053FF94E0012000F013FB00F0A7FB8346FF
:1021A000BBF1000FF5D00FA8FFF700FE8246AAF1A1
:1021B000010081B20FA8FFF7FEFA00287FD010A817
:1021C000FFF76AF90790FEF7DAF905460E460DF1BA
:1021D0003E00FFF793F90790FEF7D1F907468846CE
:1021E0009DF83D00FEF79AF93A490690FDF7CEFFBB
:1021F0000790FEF7C4F9CDE90A0101F05FFE0690F1
:10220000FEF78CF90790FEF7BAF9CDE90801002036
:10221000CDE90278CDE904560690DDE90A01CDE961
:1022200000019DF83C102CA0DDE90823FEF7C6FB59
:102230009DF83C40142C32DA0021334801554FF60A
:10224000FF7000EA840401F039FE0546FEF766F9E6
:102250002146621C94B22D4A42F821009DF83D00AF
:10226000FEF75CF905461B49FDF790FF2146621C0D
:1022700094B2264A42F8210010A8FFF70DF9214632
:10228000621C94B2214A42F821000DF13E00FFF792
:1022900035F92146621C94B21C4A42F82100002004
:1022A000FEF7CAFE01208DF83D0002210FA8FFF7BE
:1022B00043FA012000F084FA0120FEF7BDFE69E731
:1022C000480000206C000020B3F5CABCBBAFCAA711
:1022D000B0DC000000002041616464723D25642C84
:1022E000727373693D252E31662C6261743D252E13
:1022F00031662C6875693D252E31662C74656D70CC
:102300003D252E3166000000B434002074330020D7
:10231000C2B0FB2103A8FDF72EFF354800680290EC
:1023200065E0012000F04CFA324948683221FEF79E
:102330003BFB0023322219462F4801F0A5F8C6B214
:10234000002E54D02B4948683146FFF734FA002854
:102350004DD028494968881C2123022201A9FFF792
:10236000FAFD24494968081D212302226946FFF726
:10237000F2FD00241F48406802782146641C02A830
:1023800042541C48406842782146641C02A84254CA
:10239000BDF800004006020E2146641C02A842540B
:1023A000002513E0BDF8047007EBD77205EB62025D
:1023B000124B03EB820002AA111944F221330422CA
:1023C000FFF7C9FD2044C4B2681CC5B2BDF80000C7
:1023D00000EBD071B5EB610FE4DB214602A8FFF7FB
:1023E000D7F9C4B2224602A9034801F0B9F898E728
:1023F000A841000870000020004400407433002011
:10240000F0B502460C46FF21FF2500260BE012F82E
:10241000017B87EA0503084FFF5C87EA0105074F48
:10242000F95C771CBEB2A642F1DB08464FF6FF7797
:1024300007EA00202843F0BDF03E0008F03F000806
:1024400010B510480078132804D00F480078401CBD
:102450000D4908700D480078401C0C49087008466A
:10246000007864280DDD002008701423084A06480F
:1024700001780848FEF78FFE0749087000200249DE
:10248000087010BD48000020340000202C000020FF
:102490002D000020300000204000002010B54FF437
:1024A0007070FFF7E5F91E49086002201D49487069
:1024B00000204860002428E0012004EB4401184A71
:1024C000126802EB01110881002004EB4401144A58
:1024D000126802EB01118861002104EB4400104AEC
:1024E000126802EB00100160002004EB44010C4A6A
:1024F000126802EB0111C86104EB4401084A12683A
:1025000002EB01110884601CC4B2142CD4DB13202C
:10251000054908700020054908600549086010BD9C
:102520004C00002040000020480000205000002007
:102530006000002070B50446FFF7B0FF04E094E8A7
:102540000F0000F0DBF8103420680028F7D100F00D
:1025500031F870BD10B50446FEF792FCFFF71CF889
:10256000FEF7B0F900B910BD06E0FFF72FF86420C0
:1025700000F026F900F002F8F7E7000010B50C486B
:10258000046804B910BD0EE02468A07A10F0010FB1
:1025900009D0A07A10F0020F05D0E0688047A07A39
:1025A00020F00200A07220680028EDD100BFE9E70A
:1025B0006000002008B5FFF70DFD4FF4FA6005A399
:1025C000002207490090132000F030F8132000F09B
:1025D000E1FA08BD5461736B526F6F740000000024
:1025E0005525000810B5FFF72BFF00F0F7F9084854
:1025F0004078402805D1032106A0FEF7DFF9FFF758
:10260000F5F80948006808B100F0BEFB10BD0000F5
:1026100040000020544F532054696D654F7574205D
:102620005265736574000000600000202DE9F047DA
:1026300004460D4691461F46DDF820800DB9BDE8E1
:10264000F08704EB44002C49096801EB0010008975
:10265000012800D0F3E704EB44002749096801EBA7
:102660000010008C98B91FFA88F0FFF701F90646B0
:1026700004EB4401204A126802EB0111A1F820800A
:1026800004EB44011C4A126802EB0111CE6104EB19
:102690004402194B1B6803EB0212118C04EB440239
:1026A000154B1B6803EB0212D06900F039FB824620
:1026B000022104EB4400104A126802EB0010018171
:1026C00004EB44000C49096801EB0010456004EB81
:1026D00044000949096801EB0010C7624A462946CF
:1026E000504600F01FFA04EB4401034A126802EB63
:1026F0000111086000BFA2E74C0000202DE9F8435B
:1027000005460E461746984600241AE004EB44009E
:102710001249096801EB0010008900B912E004EBCE
:1027200044000E49096801EB00100089012800D11E
:1027300008E0601C80B20446142802DB0020BDE8DB
:10274000F883E3E700BFE0B23B4632462946CDF8C6
:102750000080FFF76BFF0120F1E700004C00002034
:1027600010B5154A127802EB4202144B1B6803EBBA
:1027700002129062104A127802EB42020F4B1B6861
:1027800003EB021282F8231000220B4B1B7803EBA1
:1027900043030A4C246804EB031383F8242000232A
:1027A000054A127802EB4202044C246804EB021240
:1027B00082F8253010BD0000480000204C000020A9
:1027C00010B504461348407801281FD00020124954
:1027D000097801EB4101114A126802EB011188618D
:1027E0000D48007800EB40000C49096801EB00102F
:1027F000446110210848007800EB4000074A126845
:1028000002EB0010018100F03BFA02E02046FEF7E7
:102810007BF810BD40000020480000204C00002044
:1028200001460D48006800EB4110007A08B900200D
:1028300070470948006800EB41104079074A127858
:10284000904201D00020F3E70120034A126802EB16
:102850004112107200BFEBE7580000204800002032
:1028600070B504460D4600BF1E48006800EB4410DA
:10287000007A30B1012815D0022804D003282FD1C6
:102880001FE0002070BD1748006800EB441040793D
:1028900015490978884201D10120F3E7204600F06C
:1028A0009DFAE1E702200F49096801EB4411087223
:1028B0000D4800780B49096801EB4411487101206B
:1028C000E0E702200749096801EB44110872064855
:1028D00000780449096801EB441148710120D1E7EF
:1028E0000020CFE7580000204800002070B51848AD
:1028F000007800EB40001749096801EB0014A06A5A
:1029000008B9002070BD94F8250018B91048007867
:1029100000F052F994F8250008B90020F2E704F11C
:102920002304D4F80500617800EBC105607800F15C
:102930000100217890FBF1F201FB12006070A07899
:10294000A0F10100A070A4F123042846DAE70000FA
:10295000480000204C0000202DE9F047064688463C
:1029600091469A46142E01DBBDE8F08706EB46003F
:102970001949096801EB0014A06A00B9F4E794F85A
:10298000250094F82310884220DA04F123046078AB
:10299000A1780844217890FBF1F201FB1200C7B244
:1029A00014F82309B84200DCDEE7A06A00EBC70593
:1029B00085F800804A4650466968FDF7B2FF85F801
:1029C000019094F82500401C84F82500304600F062
:1029D00065F800BFC8E700004C000020002056E06A
:1029E00000EB40012B4A126802EB01110989022910
:1029F00002D0102947D11DE000EB4001254A1268A2
:102A000002EB01118969491C00EB4002214B1B6854
:102A100003EB0212916100EB40011E4A126802EBC7
:102A20000111896944F62062914202D940211A4A73
:102A3000517029E0002100EB4002164B1B6803EBAC
:102A40000212916100EB4001124A126802EB01117F
:102A5000496941B9022100EB40020E4B1B6803EBB0
:102A6000021211810EE000EB40010A4A126802EBEB
:102A700001114969491E00EB4002064B1B6803EB3C
:102A80000212516100E000BF00BF411CC8B214280F
:102A9000A6DB70474C00002040000020142800DB1B
:102AA000704700EB4001094A126802EB01110989E5
:102AB000012900D1F4E7102100EB4002034B1B6811
:102AC00003EB0212118100BFEAE700004C00002076
:102AD00010B504460F480078A04200D110BD0D4843
:102AE000007800EB40000C49096801EB00100B492D
:102AF000086008480470007800EB40000649096847
:102B000001EB0010006806490860FDF7B3FE00BF46
:102B1000E4E70000480000204C0000203C000020BA
:102B20003800002030B503461846041F20462160B7
:102B3000041F204623600025041F20462560041F33
:102B400020462560041F20462560041F204625607E
:102B5000041F20462560041F20462560041F2046D0
:102B60002560041F20462560041F20462560041FA1
:102B700020462560041F20462560041F204625604E
:102B8000041F204622604FF08075041F20462560F8
:102B900030BD000010B5044604EB44000449096848
:102BA00001EB0010006803490860FDF77CFE10BDD2
:102BB0004C0000203800002010B50446142C00DB27
:102BC00010BD04EB44000E49096801EB00100089B8
:102BD000012800D1F4E7042004EB4401084A1268FC
:102BE00002EB01110881002104EB4400044A126841
:102BF00002EB0010416100F043F800BFE0E7000085
:102C00004C00002010B50446142C01DB002010BD40
:102C100004EB44001949096801EB00100089012800
:102C200001D10020F3E704EB44001449096801EBEB
:102C300000100089042801D10020E8E704EB4400DB
:102C40000E49096801EB00100089082801D1002015
:102C5000DDE7082004EB4401084A126802EB011189
:102C60000881002004EB4401044A126802EB0111C0
:102C7000486100F005F80120C9E700004C00002081
:102C800010B5022123480068A0F8981300243DE005
:102C900004EB44001F49096801EB00100089022879
:102CA00002D020282ED107E01B480078A04202D095
:102CB0002046FFF70DFF10BD04EB440015490968DD
:102CC00001EB001090F822001449096801EB401054
:102CD000007A012815D1102004EB44010D4A126836
:102CE00002EB01110881032004EB4401094A126838
:102CF00002EB011191F82210084A126802EB41110F
:102D0000087200E000BF00BF601CC4B2142CBFDB1F
:102D100000BFD0E74C0000204800002058000020F1
:102D20000246501820F00303A3F1300020F0070002
:102D30007047000010B5142800DB10BD00EB400206
:102D4000104B1B6803EB02121289042A00D1F4E72E
:102D5000002200EB40030B4C246804EB03139A6140
:102D6000102300EB4002074C246804EB021213818D
:102D700000EB4002034B1B6803EB0212516100BFE2
:102D8000DBE700004C00002010B51348006800B9D4
:102D900010BD11480068E0B10F480068807A10F05B
:102DA000010F16D00C48006800890B490968898812
:102DB000884207DB08490968C8688047002006493F
:102DC00009680881044800680089401C02490968B4
:102DD000088100BFDCE700006000002010B5044659
:102DE0000B48007800EB40000A49096801EB00102D
:102DF00080F8224020200649097801EB4101054A6C
:102E0000126802EB01110881FFF73AFF10BD0000C4
:102E1000480000204C00002010B540F22551114818
:102E200000F013FAC0B10F48001D0088C4B20E486C
:102E3000C0880E49C988884213DA0B48C188C08807
:102E4000401C094AD0800A48C06844540949C878DF
:102E50000A21FFF76FFF04E040F22551014800F01E
:102E6000D4F810BD004C0040A200002098000020C3
:102E7000700000202300002010B540F225511148B9
:102E800000F0E3F9B8B10F488088C4B20E48008959
:102E90000E490989884213DA0B4801890089401CD0
:102EA000094A10810A48006944540A4908790A21EC
:102EB000FFF740FF04E040F22551024800F0A5F87A
:102EC00010BD000000500040A2000020980000202B
:102ED000700000202300002010B540F22551114859
:102EE00000F0B3F9C0B10F48001D0088C4B20E480D
:102EF00000880E490988884213DA0B480188008847
:102F0000401C094A10800A4800684454094908785E
:102F10000A21FFF70FFF04E040F22551014800F0BD
:102F200074F810BD00380140A20000209800002075
:102F3000700000202300002010B540F225511148F8
:102F400000F083F9C0B10F48001D0088C4B20E48DC
:102F500040880E494988884213DA0B4841884088E6
:102F6000401C094A50800A4840684454094948783E
:102F70000A21FFF7DFFE04E040F22551014800F08E
:102F800044F810BD00440040A2000020980000203A
:102F9000700000202300002010B540F22551114898
:102FA00000F053F9C0B10F48001D0088C4B20E48AC
:102FB00080880E498988884213DA0B488188808886
:102FC000401C094A90800A4880684454094988781E
:102FD0000A21FFF7AFFE04E040F22551014800F05E
:102FE00014F810BD00480040A20000209800002006
:102FF000700000202300002001F40072B2F5007F71
:1030000000D100BFCA430280704710B500220023E0
:10301000A1F510646A3C00D100BF0A12012494405B
:10302000A3B2DC43048010BD21B1828942F4005276
:10303000828104E082894DF6FF731A4082817047D5
:1030400070B50446204600F04FF9054600F06EF8D2
:10305000052C27D2DFE804F0030A11181F002522EF
:103060004FF4E131104800F029F81BE026224FF41C
:10307000E1310E4800F022F814E027224FF41651F7
:103080000B4800F01BF80DE034224FF4E131094801
:1030900000F014F806E035224FF4E131064800F064
:1030A0000DF800BF00BF70BD003801400044004073
:1030B00000480040004C00400050004070B586B011
:1030C00006460C46154601940020ADF80800ADF800
:1030D0000A00ADF80C00ADF810000C20ADF80E00A1
:1030E00001A9304600F044F9012240F22551304652
:1030F00000F018F901213046FFF796FF40213046D5
:10310000FFF77AFF4FF48060FEF714FC8DF814503F
:1031100002208DF8150001208DF816008DF817009B
:1031200005A8FEF7CDFB06B070BD000038B504461B
:10313000274884420BD10D202315264A51150090B3
:10314000104600F057F801218803FEF70FFC2248D3
:1031500084420BD1042008231E4A014600901046E9
:1031600000F048F801214804FEF7F0FB1B488442B8
:103170000FD10920E3141A4A11150090104600F0EF
:1031800039F801218804FEF7E1FB01218804FEF7EC
:10319000EDFB144884420BD11120E314124A11159F
:1031A0000090104600F026F80121C804FEF7CEFB7F
:1031B0000E4884420BD1312004230D4A9114009013
:1031C000094800F017F801210805FEF7BFFB38BDDC
:1031D0000038014000080140004400400048004021
:1031E000000C0140004C0040001001400050004025
:1031F000001401402DE9F84307460D4616461C46CB
:10320000DDF8208001214046FEF7B0FBADF800500C
:1032100003208DF8020018208DF803006946384617
:10322000FDF7F6FFADF8004004208DF80300694675
:103230003046FDF7EDFF29463846FEF7D1F8214626
:103240003046FEF7CDF8BDE8F88370B5024600249D
:10325000002300250020A1F510666A3E00D100BFC2
:10326000C1F3421501F01F03012606FA03F3012DF5
:1032700002D19689334006E0022D02D1168A3340EE
:1032800001E0968A33400C12012606FA04F41688EF
:10329000344013B10CB1012000E0002070BD0000EB
:1032A00001460F4A881A914213D006DC0D480818CF
:1032B0000BD0B0F5806F10D109E0B0F5806F0AD067
:1032C000B0F56C4F09D1002070470120FCE70220C7
:1032D000FAE70320F8E70420F6E70020F4E700000F
:1032E000004C004000BCFFBF014605290ED2DFE8BC
:1032F00001F0030507090B00054870470548FCE786
:103300000548FAE70548F8E70548F6E70020F4E73E
:10331000003801400044004000480040004C00409C
:1033200000500040F0B50346002400260025002090
:10333000A1F510676A3F00D100BF1846C1F34214DF
:1033400001F01F06012707FA06F5012C01D10C3008
:1033500004E0022C01D1103000E014301AB10768EB
:103360002F43076002E00768AF430760F0BD00002D
:103370002DE9F04786B005460E460024A24600BF60
:10338000A1460027B08900B100BF2F462C8A4CF619
:10339000FF700440F08804432C82AC894EF6F31091
:1033A0000440B08831890843718908430443AC81E3
:1033B000AC8A4FF6FF400440B0890443AC8201A8B8
:1033C000FEF70AFB1F48874202D1DDF810A001E09A
:1033D000DDF80CA0A88910F4004F08D00AEBCA0051
:1033E00000EB0A1031684900B0FBF1F807E00AEB86
:1033F000CA0000EB0A1031688900B0FBF1F86420C4
:10340000B8FBF0F004012009642101FB1089A889B0
:1034100010F4004F08D0322000EBC900B0FBF1F0EF
:1034200000F00700044308E0322000EB091064219B
:10343000B0FBF1F000F00F0004432C8106B0BDE8B2
:10344000F0870000003801402DE9F05F05460E4688
:1034500014462F46B046A1463846FFF721FF824664
:10346000084951F82A00FEF7EFF91FFA80FB002304
:103470005A464146384600F007F8A9F80000BDE872
:10348000F09F0000700000202DE9F04781460F46B4
:1034900015461E464846FFF703FF04462249085DCD
:1034A0000021FFF7DDF98246204951F82400FEF79C
:1034B000CBF98046BAF1000F27D0012240F2255106
:1034C0004846FFF72FFF1A4800781A490855454526
:1034D00001D31FFA88F5184820F814500020174926
:1034E00021F814001EB13046FFF76AF903E01149D4
:1034F000085DFFF787FB0C49085DFFF791F9002293
:1035000040F225514846FFF70DFF47B10B4931F80E
:103510001420064951F824003946FDF702FA0748FD
:1035200030F81400BDE8F08719000020700000207A
:10353000480000202300002098000020A200002066
:103540002DE9F04304460D4616462746A846B6F830
:1035500000904A464146384600F002F8BDE8F08344
:1035600010B50B46002108E000BF048814F0800F5E
:10357000FBD05C5C84804C1CA1B29142F4DB10BD9A
:1035800010B54FF48020FDF707FD10BD00BFFEE72A
:1035900037B514460846064B6A46214600F0C8F87F
:1035A00004466946002000F066FC20463EBD00004F
:1035B000773E000802E008C8121F08C1002AFAD1AD
:1035C00070477047002001E001C1121F002AFBD1A3
:1035D000704700002DE9FF5FDDE90220010DDDF8F5
:1035E00038B0024310D10F9801244CA2012808D012
:1035F000002100980F9BC0E90021C0E90243BDE80B
:10360000FF9F6FEA0B01F4E7A1F2FF3144F610507F
:1036100041430D140F9801280ED0A5EB0B00401C60
:103620004FF000043E4EDFF8FC90B0F1000AA046D7
:1036300005DACAF1000717E0CBF10000F0E7074612
:1036400012E0F80707D02246334640464946FCF7C9
:1036500084FE804689462246334610461946FCF7CA
:103660007CFE04460E467F10002FEAD1DDE9020100
:10367000BAF1000F42464B4602DAFCF76EFE01E05B
:10368000FCF7DDFE04460E460022274BFDF7CCF882
:1036900003D84FF0FF30014607E00022234B2046BD
:1036A0003146FCF7B3FDFDF7A6F8102409E0002C25
:1036B0000ADB0A220023FCF7A7FF019B30321A55D0
:1036C000641E50EA0102F2D1641C019AC4F1110394
:1036D00014440F9A012A09D00122084301D15B4505
:1036E0000FDD4FF0000205F101050DE0084303D1A5
:1036F000A3EB0B056D1E09E000204FF0110B0F909E
:1037000088E701DA00226D1E002A83D000980F9905
:10371000C0E90231C0E9004571E700003000000057
:10372000000024400000F03F0000F0430000E03FB4
:103730002DE9FF4F95B09B4689460646002512E2CB
:10374000252878D10024761CF94A274601210594C2
:103750003378203B01FA03F0104202D00443761C78
:10376000F6E730782A2811D06FF02F033078A0F1D7
:103770003002092A16D8059A44F0020402EB8202AC
:1037800003EB42021044761C0590EFE759F8042B36
:103790000592002A03DA504244F40054059044F0A4
:1037A0000204761C30782E2816D116F8010F44F04A
:1037B00004042A280DD06FF02F023078A0F13003D6
:1037C000092B09D807EB870302EB4303C718761CC4
:1037D000F3E759F8047B761C30786C280FD006DCB0
:1037E0004C2817D068280DD06A2814D104E074281A
:1037F00010D07A280FD10DE044F400140AE044F40C
:10380000801401E044F440147278824202D1761CA4
:1038100004F58014761C307866280BD013DC582809
:1038200077D009DC002875D04528F6D04628F4D09A
:1038300047281AD19FE118E0632835D0642879D051
:10384000652812D197E1702873D008DC6728F1D081
:1038500069286FD06E280DD06F2806D1B5E0732887
:103860002CD0752875D0782874D05A46179990476F
:103870006D1C76E1C4F30250022809D003280DD054
:10388000D9F8001004280DD00D6009F1040968E191
:10389000D9F80010EA17C1E90052F6E7D9F800108C
:1038A0000D80F2E70D70F0E719F8041B8DF8001099
:1038B00000208DF80100EA46012003E059F804AB2E
:1038C0004FF0FF3061074FF0000102D40DE008F126
:1038D00001018846B9420FDA8045F8DB1AF8081072
:1038E0000029F4D108E008F1010188468142FADBA1
:1038F0001AF808100029F6D105985B46A0EB0807D6
:1039000021463846179A00F09EFA284400EB080535
:1039100007E04DE02BE10DE01AF8010B5A4617992C
:103920009047B8F10108F7D25B4621463846179A0E
:1039300014E142E00A220092C4F302524FF0000A5E
:10394000022A08D059F804CB032A4FEAEC710AD0B6
:103950000DE029E02AE009F1070121F00702F2E871
:1039600002C1914609E00FFA8CFC4FEAEC71042A7F
:1039700003D14FFA8CFC4FEAEC71002907DA0A46B2
:103980000021DCF1000C61EB02012D2202E0220596
:1039900004D52B228DF80420012203E0E20701D098
:1039A0002022F7E7904653E00A2102E010220DE0C2
:1039B00010214FF0000A00910BE010224FF0000A96
:1039C00044F004040827009203E008224FF0000AA4
:1039D0000092C4F30252022A05D059F804CB002108
:1039E000032A08D009E009F1070121F00702F2E8F3
:1039F00002C1914605E01FFA8CFC042A01D10CF0AB
:103A0000FF0C4FF00008220722D5702827D0009B1A
:103A100083F0100353EA0A0309D15CEA010206D0DD
:103A200030228DF804208DF8050002229046009B7C
:103A300083F0080353EA0A030AD15CEA010201D1C8
:103A4000620705D530228DF804204FF001087F1E53
:103A5000582809D037A003900EA8029013E0402206
:103A60008DF804200122E1E737A0F4E753466046D1
:103A7000009AFCF7C9FD84460398825C0298A0F185
:103A80000100029002705CEA0100EFD1029806A9E1
:103A9000A1EB000000F1200A600702D524F4803475
:103AA00000E00127574502DDA7EB0A0000E00020F7
:103AB00000EB0A01009005984144A0EB010005903D
:103AC000E00306D45B462146179A059800F0BBF93F
:103AD0000544002706E001A85A46C05D17999047A3
:103AE0006D1C7F1C4745F6DBE0030CD55B46214689
:103AF000179A059800F0A7F9054404E030205A46CB
:103B0000179990476D1C0099481E00900029F5DC1C
:103B100008E0029802995A460078491C02911799C8
:103B200090476D1CBAF10001AAF1010AF1DC6BE1CA
:103B30000928010030313233343536373839616283
:103B40006364656600000000303132333435363747
:103B500038394142434445460000000000F060F916
:103B6000054406F10106307800287FF4E9AD19B06C
:103B70002846BDE8F08F620700D4062709F1070246
:103B800022F0070CFCE80223E14603F000485FEA5C
:103B9000080C02D00FF27C2C0DE05FEA045C02D529
:103BA0000FF2742C07E05FEAC47C02D00FF26C2C99
:103BB00001E0AFF2700C4FF0FF3823F00043CDF876
:103BC00050C065280CD006DC452809D046281DD0F9
:103BD00047283ED13EE0662818D0672839D139E021
:103BE0000021112F01DB112000E0781CCDE900013C
:103BF00006A90EA8FFF7EEFCDDE90F010E9A03916E
:103C00000021009207F1010A04914EE04FF00040BC
:103C10000097CDE9011006A90EA8FFF7DBFCDDE94E
:103C20000F0203920E9B11990022DDF80CA0009365
:103C3000049219B907F1010100EB010AB7EB0A0080
:103C400004D4C0F1FF3007F1010A0490AAEB070089
:103C5000019046E0012F00DA01270021112F01DD3C
:103C6000112000E03846CDE9000106A90EA8FFF7B3
:103C7000B1FCDDE90F010E9A03910021049100923D
:103C8000BA4621070CD40399514500DA8A46BAF1A5
:103C9000010F05DD009AAAF10101515C302908D01D
:103CA000B84202DA10F1040F06DA0121CDE9011061
:103CB00017E0AAF10101E9E7002805DC04990144B5
:103CC0000491AAEB000102E0411C514500DD8A4647
:103CD0000499A0EB010000F1010001904FF00040B9
:103CE0000290200704D40198504501DBCDF80480F0
:103CF00000208DF84F0002980DF14F07B0F1004FF2
:103D000025D02B200E9002984FF0020800280CDAE4
:103D1000404202902D200E9007E00A210298FCF705
:103D20005DFC3031029007F8011DB8F10001A8F1E7
:103D30000108F2DC02980028EFD1791E0E98087075
:103D4000307800F0200040F0450007F8020D12A87E
:103D5000A0EB070000F107081498007800B10120DB
:103D600000EB0A01019801EBE07105984144A0EBDA
:103D70000100A0F101000590E00306D45B46214656
:103D8000179A059800F05FF805441498007820B160
:103D90005A461799904705F10105E00323D55B4684
:103DA0002146179A059800F04EF805441BE0049848
:103DB000002807DBDDE90301884203DD0098405C51
:103DC000179901E0179930205A46904704986D1CC6
:103DD000401C04900198401E019004D12E205A46A8
:103DE000179990476D1CBAF10001AAF1010ADEDCB7
:103DF00005E017F8010B5A46179990476D1CB8F16A
:103E00000001A8F10108F4DC5B462146179A0598E9
:103E1000A4E600002D0000002B00000020000000A0
:103E20002DE9F041044600251E461746880405D4B6
:103E300006E039462020B04705F10105641EF8D59B
:103E40002846BDE8F0812DE9F041044600251E46D4
:103E50009046C80301D5302700E02027880405D507
:103E600006E041463846B04705F10105641EF8D525
:103E70002846BDE8F0810A68531C0B60107070473B
:103E80000948FDF7E7FCFCF767FE0848FCF7EEFF82
:103E90000748FCF7EBFF0748FCF79EFE0648FEF7D5
:103EA00049FB00BFFEE70000AC00002000380140E5
:103EB00000440040904100085041000810B50A2419
:103EC0001B20FDF7ABFE044600BF204610BD685521
:103ED00051F46662386B2324391F42446184B24432
:103EE0001336198E50C6412529BB9E528748FFFFC5
:103EF00000C1814001C0804101C0804100C18140BA
:103F000001C0804100C1814000C1814001C08041A9
:103F100001C0804100C1814000C1814001C0804199
:103F200000C1814001C0804101C0804100C1814089
:103F300001C0804100C1814000C1814001C0804179
:103F400000C1814001C0804101C0804100C1814069
:103F500000C1814001C0804101C0804100C1814059
:103F600001C0804100C1814000C1814001C0804149
:103F700001C0804100C1814000C1814001C0804139
:103F800000C1814001C0804101C0804100C1814029
:103F900000C1814001C0804101C0804100C1814019
:103FA00001C0804100C1814000C1814001C0804109
:103FB00000C1814001C0804101C0804100C18140F9
:103FC00001C0804100C1814000C1814001C08041E9
:103FD00001C0804100C1814000C1814001C08041D9
:103FE00000C1814001C0804101C0804100C18140C9
:103FF00000C0C101C30302C2C60607C705C5C40489
:10400000CC0C0DCD0FCFCE0E0ACACB0BC90908C8F8
:10401000D81819D91BDBDA1A1EDEDF1FDD1D1CDCE8
:1040200014D4D515D71716D6D21213D311D1D01058
:10403000F03031F133F3F23236F6F737F53534F448
:104040003CFCFD3DFF3F3EFEFA3A3BFB39F9F838B8
:1040500028E8E929EB2B2AEAEE2E2FEF2DEDEC2CA8
:10406000E42425E527E7E62622E2E323E12120E018
:10407000A06061A163A3A26266A6A767A56564A408
:104080006CACAD6DAF6F6EAEAA6A6BAB69A9A86878
:1040900078B8B979BB7B7ABABE7E7FBF7DBDBC7C68
:1040A000B47475B577B7B67672B2B373B17170B0D8
:1040B00050909151935352929656579755959454C8
:1040C0009C5C5D9D5F9F9E5E5A9A9B5B9959589838
:1040D000884849894B8B8A4A4E8E8F4F8D4D4C8C28
:1040E0004484854587474686824243834181804098
:1040F00003100000001001400040000003480000D1
:1041000000100140002000000310000000100140DA
:104110000080000003100000000C0140800000003F
:1041200003100000000C01402000000003480000C4
:10413000000C01404000000003480000000C01405A
:10414000000100000000000000000000000000006E
:10415000F520000800000000C1410008D007000061
:104160002521000800000000C7410008D00700001A
:104170001123000800000000C7410008D00700001C
:10418000000000000000000000000000000000002F
:1041900002100000000C01400010000000000000B0
:1041A0000000000000000000010300000103000106
:1041B00000020000000000000000000000000000FD
:1041C000005461736B30005461736B310000000068
:1041D000F04100080000002070000000B435000825
:1041E000604200087000002060380000C4350008FC
:1041F000000000000102030401020304060708098D
:10420000020406080000000000000000000000009A
:104210000000000000000000FF000000000000009F
:10422000000000000000000000000000000000008E
:10423000000000000000000000000000000000007E
:10424000000000000000000000000000000000006E
:1042500000000000FF00FF0000000000FF00000061
:0400000508000131BD
:00000001FF
