ARM Linker, 5.03 [Build 76] [MDK-ARM Standard]

==============================================================================

Section Cross References

    stm32lib_include.o(i.ADC_DeInit) refers to stm32lib_include.o(i.RCC_APB2PeriphResetCmd) for RCC_APB2PeriphResetCmd
    stm32lib_include.o(i.CAN_DeInit) refers to stm32lib_include.o(i.RCC_APB1PeriphResetCmd) for RCC_APB1PeriphResetCmd
    stm32lib_include.o(i.CAN_GetITStatus) refers to stm32lib_include.o(i.CheckITStatus) for CheckITStatus
    stm32lib_include.o(i.CEC_DeInit) refers to stm32lib_include.o(i.RCC_APB1PeriphResetCmd) for RCC_APB1PeriphResetCmd
    stm32lib_include.o(i.DAC_DeInit) refers to stm32lib_include.o(i.RCC_APB1PeriphResetCmd) for RCC_APB1PeriphResetCmd
    stm32lib_include.o(i.FLASH_EnableWriteProtection) refers to stm32lib_include.o(i.FLASH_WaitForLastOperation) for FLASH_WaitForLastOperation
    stm32lib_include.o(i.FLASH_EraseAllBank1Pages) refers to stm32lib_include.o(i.FLASH_WaitForLastBank1Operation) for FLASH_WaitForLastBank1Operation
    stm32lib_include.o(i.FLASH_EraseAllPages) refers to stm32lib_include.o(i.FLASH_WaitForLastOperation) for FLASH_WaitForLastOperation
    stm32lib_include.o(i.FLASH_EraseOptionBytes) refers to stm32lib_include.o(i.FLASH_GetReadOutProtectionStatus) for FLASH_GetReadOutProtectionStatus
    stm32lib_include.o(i.FLASH_EraseOptionBytes) refers to stm32lib_include.o(i.FLASH_WaitForLastOperation) for FLASH_WaitForLastOperation
    stm32lib_include.o(i.FLASH_ErasePage) refers to stm32lib_include.o(i.FLASH_WaitForLastOperation) for FLASH_WaitForLastOperation
    stm32lib_include.o(i.FLASH_ProgramHalfWord) refers to stm32lib_include.o(i.FLASH_WaitForLastOperation) for FLASH_WaitForLastOperation
    stm32lib_include.o(i.FLASH_ProgramOptionByteData) refers to stm32lib_include.o(i.FLASH_WaitForLastOperation) for FLASH_WaitForLastOperation
    stm32lib_include.o(i.FLASH_ProgramWord) refers to stm32lib_include.o(i.FLASH_WaitForLastOperation) for FLASH_WaitForLastOperation
    stm32lib_include.o(i.FLASH_ReadOutProtection) refers to stm32lib_include.o(i.FLASH_WaitForLastOperation) for FLASH_WaitForLastOperation
    stm32lib_include.o(i.FLASH_UserOptionByteConfig) refers to stm32lib_include.o(i.FLASH_WaitForLastOperation) for FLASH_WaitForLastOperation
    stm32lib_include.o(i.FLASH_WaitForLastBank1Operation) refers to stm32lib_include.o(i.FLASH_GetBank1Status) for FLASH_GetBank1Status
    stm32lib_include.o(i.FLASH_WaitForLastOperation) refers to stm32lib_include.o(i.FLASH_GetBank1Status) for FLASH_GetBank1Status
==============================================================================

Removing Unused input sections from the image.

    Removing stm32lib_include.o(i.ADC_AnalogWatchdogCmd), (16 bytes).
    Removing stm32lib_include.o(i.ADC_AnalogWatchdogSingleChannelConfig), (12 bytes).
    Removing stm32lib_include.o(i.ADC_AnalogWatchdogThresholdsConfig), (6 bytes).
    Removing stm32lib_include.o(i.ADC_AutoInjectedConvCmd), (20 bytes).
    Removing stm32lib_include.o(i.ADC_ClearFlag), (6 bytes).
    Removing stm32lib_include.o(i.ADC_ClearITPendingBit), (8 bytes).
    Removing stm32lib_include.o(i.ADC_Cmd), (20 bytes).
    Removing stm32lib_include.o(i.ADC_DMACmd), (20 bytes).
    Removing stm32lib_include.o(i.ADC_DeInit), (68 bytes).
    Removing stm32lib_include.o(i.ADC_DiscModeChannelCountConfig), (16 bytes).
    Removing stm32lib_include.o(i.ADC_DiscModeCmd), (20 bytes).
    Removing stm32lib_include.o(i.ADC_ExternalTrigConvCmd), (20 bytes).
    Removing stm32lib_include.o(i.ADC_ExternalTrigInjectedConvCmd), (20 bytes).
    Removing stm32lib_include.o(i.ADC_ExternalTrigInjectedConvConfig), (12 bytes).
    Removing stm32lib_include.o(i.ADC_GetCalibrationStatus), (14 bytes).
    Removing stm32lib_include.o(i.ADC_GetConversionValue), (6 bytes).
    Removing stm32lib_include.o(i.ADC_GetDualModeConversionValue), (12 bytes).
    Removing stm32lib_include.o(i.ADC_GetFlagStatus), (14 bytes).
==============================================================================

Image Symbol Table

    Local Symbols

    Symbol Name                              Value     Ov Type        Size  Object(Section)

    ../clib/microlib/division.c              0x00000000   Number         0  uldiv.o ABSOLUTE
    ../clib/microlib/division.c              0x00000000   Number         0  uidiv.o ABSOLUTE
    ../clib/microlib/errno.c                 0x00000000   Number         0  errno.o ABSOLUTE
    ../clib/microlib/init/entry.s            0x00000000   Number         0  entry2.o ABSOLUTE
    ../clib/microlib/init/entry.s            0x00000000   Number         0  entry.o ABSOLUTE
    ../clib/microlib/init/entry.s            0x00000000   Number         0  entry8a.o ABSOLUTE
    ../clib/microlib/init/entry.s            0x00000000   Number         0  entry8b.o ABSOLUTE
    ../clib/microlib/init/entry.s            0x00000000   Number         0  entry7b.o ABSOLUTE
    ../clib/microlib/init/entry.s            0x00000000   Number         0  entry9a.o ABSOLUTE
    ../clib/microlib/init/entry.s            0x00000000   Number         0  entry7a.o ABSOLUTE
    ../clib/microlib/init/entry.s            0x00000000   Number         0  entry9b.o ABSOLUTE
    ../clib/microlib/init/entry.s            0x00000000   Number         0  entry10a.o ABSOLUTE
    ../clib/microlib/init/entry.s            0x00000000   Number         0  entry10b.o ABSOLUTE
    ../clib/microlib/init/entry.s            0x00000000   Number         0  entry11a.o ABSOLUTE
    ../clib/microlib/init/entry.s            0x00000000   Number         0  entry11b.o ABSOLUTE
    ../clib/microlib/init/entry.s            0x00000000   Number         0  entry5.o ABSOLUTE
    ../clib/microlib/longlong.c              0x00000000   Number         0  llsshr.o ABSOLUTE
    ../clib/microlib/longlong.c              0x00000000   Number         0  llshl.o ABSOLUTE
    ../clib/microlib/longlong.c              0x00000000   Number         0  llushr.o ABSOLUTE
    ../clib/microlib/printf/printf.c         0x00000000   Number         0  printfa.o ABSOLUTE
    ../clib/microlib/stdio/fputc.c           0x00000000   Number         0  fputc.o ABSOLUTE
    ../clib/microlib/stdio/semi.s            0x00000000   Number         0  semi.o ABSOLUTE
    ../clib/microlib/stdio/streams.c         0x00000000   Number         0  stdout.o ABSOLUTE
    ../clib/microlib/stubs.s                 0x00000000   Number         0  iusefp.o ABSOLUTE
    ../clib/microlib/stubs.s                 0x00000000   Number         0  iusesemip.o ABSOLUTE
    ../fplib/microlib/d2f.c                  0x00000000   Number         0  d2f.o ABSOLUTE
    ../fplib/microlib/f2d.c                  0x00000000   Number         0  f2d.o ABSOLUTE
    ../fplib/microlib/fpadd.c                0x00000000   Number         0  fadd.o ABSOLUTE
    ../fplib/microlib/fpadd.c                0x00000000   Number         0  dadd.o ABSOLUTE
    ../fplib/microlib/fpdiv.c                0x00000000   Number         0  fdiv.o ABSOLUTE
    ../fplib/microlib/fpdiv.c                0x00000000   Number         0  ddiv.o ABSOLUTE
    ../fplib/microlib/fpepilogue.c           0x00000000   Number         0  depilogue.o ABSOLUTE
    ../fplib/microlib/fpepilogue.c           0x00000000   Number         0  fepilogue.o ABSOLUTE
    ../fplib/microlib/fpfix.c                0x00000000   Number         0  ffixui.o ABSOLUTE
    ../fplib/microlib/fpfix.c                0x00000000   Number         0  ffixi.o ABSOLUTE
    ../fplib/microlib/fpfix.c                0x00000000   Number         0  dfixui.o ABSOLUTE
    ../fplib/microlib/fpfix.c                0x00000000   Number         0  dfixul.o ABSOLUTE
    ../fplib/microlib/fpfix.c                0x00000000   Number         0  dfixi.o ABSOLUTE
    ../fplib/microlib/fpflt.c                0x00000000   Number         0  ffltui.o ABSOLUTE
    ../fplib/microlib/fpflt.c                0x00000000   Number         0  dfltui.o ABSOLUTE
    ../fplib/microlib/fpflt.c                0x00000000   Number         0  dflti.o ABSOLUTE
    ../fplib/microlib/fpflt.c                0x00000000   Number         0  fflti.o ABSOLUTE
    ../fplib/microlib/fpmul.c                0x00000000   Number         0  fmul.o ABSOLUTE
    ../fplib/microlib/fpmul.c                0x00000000   Number         0  dmul.o ABSOLUTE
    ../fplib/microlib/fpscalb.c              0x00000000   Number         0  dscalb.o ABSOLUTE
    ../mathlib/cos_i.c                       0x00000000   Number         0  cos_i.o ABSOLUTE
    ../mathlib/dunder.c                      0x00000000   Number         0  dunder.o ABSOLUTE
    ../mathlib/fpclassify.c                  0x00000000   Number         0  fpclassify.o ABSOLUTE
    ../mathlib/poly.c                        0x00000000   Number         0  poly.o ABSOLUTE
    ../mathlib/rred.c                        0x00000000   Number         0  rred.o ABSOLUTE
    ../mathlib/sin.c                         0x00000000   Number         0  sin.o ABSOLUTE
    ../mathlib/sin.c                         0x00000000   Number         0  sin_x.o ABSOLUTE
    ../mathlib/sin_i.c                       0x00000000   Number         0  sin_i.o ABSOLUTE
    ../mathlib/sin_i.c                       0x00000000   Number         0  sin_i_x.o ABSOLUTE
    ..\Driver\GPIO_Driver.c                  0x00000000   Number         0  gpio_driver.o ABSOLUTE
    ..\Driver\I2C_Driver.c                   0x00000000   Number         0  i2c_driver.o ABSOLUTE
    ..\Driver\SPI_Driver.c                   0x00000000   Number         0  spi_driver.o ABSOLUTE
    ..\Driver\STM32_CPU.c                    0x00000000   Number         0  stm32_cpu.o ABSOLUTE
    ..\Driver\Usart_Driver.c                 0x00000000   Number         0  usart_driver.o ABSOLUTE
    ..\FuncTask\ComKeyBoard.c                0x00000000   Number         0  comkeyboard.o ABSOLUTE
    ..\FuncTask\Func_Face.c                  0x00000000   Number         0  func_face.o ABSOLUTE
    ..\Libraries\CMSIS\CM3\CoreSupport\core_cm3.c 0x00000000   Number         0  core_cm3.o ABSOLUTE
    ..\Libraries\STM32LIB_Include.c          0x00000000   Number         0  stm32lib_include.o ABSOLUTE
    ..\Libraries\Startup\startup_stm32f10x_ld.s 0x00000000   Number         0  startup_stm32f10x_ld.o ABSOLUTE
    ..\Tools\AppConfig.c                     0x00000000   Number         0  appconfig.o ABSOLUTE
    ..\Tools\CheakOut.c                      0x00000000   Number         0  cheakout.o ABSOLUTE
    ..\Tools\DeBug.c                         0x00000000   Number         0  debug.o ABSOLUTE
    ..\Tools\Json.c                          0x00000000   Number         0  json.o ABSOLUTE
    ..\Tools\ModBus.c                        0x00000000   Number         0  modbus.o ABSOLUTE
    ..\Tools\Operation.c                     0x00000000   Number         0  operation.o ABSOLUTE
    ..\Tools\StandardModBus.c                0x00000000   Number         0  standardmodbus.o ABSOLUTE
    ..\Tools\Text.c                          0x00000000   Number         0  text.o ABSOLUTE
    ..\Tos\LockCode.c                        0x00000000   Number         0  lockcode.o ABSOLUTE
    ..\Tos\Tos.c                             0x00000000   Number         0  tos.o ABSOLUTE
    ..\Tos\Tos_Device.c                      0x00000000   Number         0  tos_device.o ABSOLUTE
    ..\Tos\Tos_Mema.c                        0x00000000   Number         0  tos_mema.o ABSOLUTE
    ..\Tos\Tos_timer.c                       0x00000000   Number         0  tos_timer.o ABSOLUTE
    ..\Tos\tos_core_a.asm                    0x00000000   Number         0  tos_core_a.o ABSOLUTE
    ..\USER\Main.c                           0x00000000   Number         0  main.o ABSOLUTE
    ..\\Libraries\\CMSIS\\CM3\\CoreSupport\\core_cm3.c 0x00000000   Number         0  core_cm3.o ABSOLUTE
    cdrcmple.s                               0x00000000   Number         0  cdrcmple.o ABSOLUTE
    cfcmple.s                                0x00000000   Number         0  cfcmple.o ABSOLUTE
    cfrcmple.s                               0x00000000   Number         0  cfrcmple.o ABSOLUTE
    dc.s                                     0x00000000   Number         0  dc.o ABSOLUTE
    handlers.s                               0x00000000   Number         0  handlers.o ABSOLUTE
    init.s                                   0x00000000   Number         0  init.o ABSOLUTE
    RESET                                    0x08000000   Section      236  startup_stm32f10x_ld.o(RESET)
    .ARM.Collect$$$$00000000                 0x080000ec   Section        0  entry.o(.ARM.Collect$$$$00000000)
    .ARM.Collect$$$$00000001                 0x080000ec   Section        4  entry2.o(.ARM.Collect$$$$00000001)
    .ARM.Collect$$$$00000004                 0x080000f0   Section        4  entry5.o(.ARM.Collect$$$$00000004)
    .ARM.Collect$$$$00000008                 0x080000f4   Section        0  entry7b.o(.ARM.Collect$$$$00000008)
    .ARM.Collect$$$$0000000A                 0x080000f4   Section        0  entry8b.o(.ARM.Collect$$$$0000000A)
    .ARM.Collect$$$$0000000B                 0x080000f4   Section        8  entry9a.o(.ARM.Collect$$$$0000000B)
    .ARM.Collect$$$$0000000D                 0x080000fc   Section        0  entry10a.o(.ARM.Collect$$$$0000000D)
    .ARM.Collect$$$$0000000F                 0x080000fc   Section        0  entry11a.o(.ARM.Collect$$$$0000000F)
    .ARM.Collect$$$$00002712                 0x080000fc   Section        4  entry2.o(.ARM.Collect$$$$00002712)
    __lit__00000000                          0x080000fc   Data           4  entry2.o(.ARM.Collect$$$$00002712)
    .text                                    0x08000100   Section       36  startup_stm32f10x_ld.o(.text)
    .text                                    0x08000124   Section        0  dadd.o(.text)
    .text                                    0x08000272   Section        0  dmul.o(.text)
    .text                                    0x08000356   Section        0  ddiv.o(.text)
    .text                                    0x08000434   Section        0  uidiv.o(.text)
    .text                                    0x08000460   Section        0  uldiv.o(.text)
    .text                                    0x080004c2   Section        0  llshl.o(.text)
    .text                                    0x080004e0   Section        0  llushr.o(.text)
    .text                                    0x08000500   Section        0  llsshr.o(.text)
    .text                                    0x08000524   Section        0  iusefp.o(.text)
    .text                                    0x08000524   Section        0  depilogue.o(.text)
    .text                                    0x080005e2   Section        0  dfixul.o(.text)
    .text                                    0x08000614   Section       40  cdrcmple.o(.text)
    .text                                    0x0800063c   Section       36  init.o(.text)
    TOS_CORE_A                               0x08000660   Section       80  tos_core_a.o(TOS_CORE_A)
    i.Application_Run                        0x080006b0   Section        0  main.o(i.Application_Run)
    i.BareDelay                              0x080006d4   Section        0  stm32_cpu.o(i.BareDelay)
    i.BufferCoppy                            0x080006e6   Section        0  text.o(i.BufferCoppy)
    i.BusFault_Handler                       0x08000702   Section        0  stm32lib_include.o(i.BusFault_Handler)
    i.ClearWithBuffer                        0x08000704   Section        0  text.o(i.ClearWithBuffer)
    i.DeBug                                  0x08000718   Section        0  debug.o(i.DeBug)
    i.DebugMon_Handler                       0x08000820   Section        0  stm32lib_include.o(i.DebugMon_Handler)
    i.DeviceList_Init                        0x08000824   Section        0  tos_device.o(i.DeviceList_Init)
    i.DeviceMount_Usart                      0x08000874   Section        0  usart_driver.o(i.DeviceMount_Usart)
    i.Device_Init                            0x080009c4   Section        0  tos_device.o(i.Device_Init)
    i.Device_Ok                              0x08000a28   Section        0  tos_device.o(i.Device_Ok)
    i.DownLoad_Command                       0x08000a48   Section        0  main.o(i.DownLoad_Command)
    i.EXTI0_IRQHandler                       0x08000c68   Section        0  stm32_cpu.o(i.EXTI0_IRQHandler)
    i.EXTI_ClearITPendingBit                 0x08000c74   Section        0  stm32lib_include.o(i.EXTI_ClearITPendingBit)
    i.FLASH_ErasePage                        0x08000c80   Section        0  stm32lib_include.o(i.FLASH_ErasePage)
    i.FLASH_GetBank1Status                   0x08000cbc   Section        0  stm32lib_include.o(i.FLASH_GetBank1Status)
    i.FLASH_Lock                             0x08000ce4   Section        0  stm32lib_include.o(i.FLASH_Lock)
    i.FLASH_ProgramHalfWord                  0x08000cf4   Section        0  stm32lib_include.o(i.FLASH_ProgramHalfWord)
    i.FLASH_ProgramStart                     0x08000d28   Section        0  main.o(i.FLASH_ProgramStart)
    i.FLASH_Unlock                           0x08000d6c   Section        0  stm32lib_include.o(i.FLASH_Unlock)
    i.FLASH_WaitForLastOperation             0x08000d84   Section        0  stm32lib_include.o(i.FLASH_WaitForLastOperation)
    i.FLASH_WriteBank                        0x08000da6   Section        0  main.o(i.FLASH_WriteBank)
    i.Flash_ReadData                         0x08000dd4   Section        0  appconfig.o(i.Flash_ReadData)
    i.Flash_WriteData                        0x08000dea   Section        0  appconfig.o(i.Flash_WriteData)
    i.FlowPoolFilter                         0x08000e3c   Section        0  text.o(i.FlowPoolFilter)
    i.Frist_CheckEnv                         0x08000e6c   Section        0  main.o(i.Frist_CheckEnv)
    i.GPIO_Init                              0x08000e94   Section        0  stm32lib_include.o(i.GPIO_Init)
    i.GPIO_SetBits                           0x08000f2c   Section        0  stm32lib_include.o(i.GPIO_SetBits)
    i.GetChar_List                           0x08000f30   Section        0  debug.o(i.GetChar_List)
    i.GetCodeStr18                           0x08000f98   Section        0  main.o(i.GetCodeStr18)
    i.GetStringByFmt                         0x08000ff8   Section        0  text.o(i.GetStringByFmt)
    i.GetTextLength                          0x08001014   Section        0  text.o(i.GetTextLength)
    i.GetWordFromBytes                       0x08001028   Section        0  text.o(i.GetWordFromBytes)
    i.HardFault_Handler                      0x08001044   Section        0  stm32lib_include.o(i.HardFault_Handler)
    i.IAP_ErasePage                          0x0800104a   Section        0  stm32_cpu.o(i.IAP_ErasePage)
    i.IAP_Lock                               0x0800104e   Section        0  stm32_cpu.o(i.IAP_Lock)
    i.IAP_ProgramHalfWord                    0x08001052   Section        0  stm32_cpu.o(i.IAP_ProgramHalfWord)
    i.IAP_Unlock                             0x08001056   Section        0  stm32_cpu.o(i.IAP_Unlock)
    i.Load_EnvConfig                         0x0800105c   Section        0  main.o(i.Load_EnvConfig)
    i.Load_VoidConfig                        0x08001074   Section        0  appconfig.o(i.Load_VoidConfig)
    i.MCU_Reset                              0x080010c4   Section        0  stm32_cpu.o(i.MCU_Reset)
    i.MemManage_Handler                      0x080010e4   Section        0  stm32lib_include.o(i.MemManage_Handler)
    i.Mema_Free                              0x080010e8   Section        0  tos_mema.o(i.Mema_Free)
    i.Mema_Init                              0x08001114   Section        0  tos_mema.o(i.Mema_Init)
    i.Mema_Malloc                            0x08001128   Section        0  tos_mema.o(i.Mema_Malloc)
    i.ModBus_Create                          0x08001164   Section        0  modbus.o(i.ModBus_Create)
    i.ModBus_CreateMsg                       0x0800117a   Section        0  modbus.o(i.ModBus_CreateMsg)
    i.ModBus_Expend                          0x0800123c   Section        0  modbus.o(i.ModBus_Expend)
    i.NMI_Handler                            0x08001332   Section        0  stm32lib_include.o(i.NMI_Handler)
    i.NVIC_Init                              0x08001334   Section        0  stm32lib_include.o(i.NVIC_Init)
    i.NVIC_PriorityGroupConfig               0x08001398   Section        0  stm32lib_include.o(i.NVIC_PriorityGroupConfig)
    i.NVIC_SetVectorTable                    0x080013ac   Section        0  stm32lib_include.o(i.NVIC_SetVectorTable)
    i.PendSV_Handler                         0x080013c0   Section        0  stm32lib_include.o(i.PendSV_Handler)
    i.RCC_APB1PeriphClockCmd                 0x080013c4   Section        0  stm32lib_include.o(i.RCC_APB1PeriphClockCmd)
    i.RCC_APB2PeriphClockCmd                 0x080013dc   Section        0  stm32lib_include.o(i.RCC_APB2PeriphClockCmd)
    i.RCC_GetClocksFreq                      0x080013f4   Section        0  stm32lib_include.o(i.RCC_GetClocksFreq)
    i.SVC_Handler                            0x08001488   Section        0  stm32lib_include.o(i.SVC_Handler)
    i.Save_EnvConfig                         0x0800148c   Section        0  main.o(i.Save_EnvConfig)
    i.Save_VoidConfig                        0x080014ac   Section        0  appconfig.o(i.Save_VoidConfig)
    i.SetSysClockTo72                        0x080014d8   Section        0  stm32lib_include.o(i.SetSysClockTo72)
    SetSysClockTo72                          0x080014d9   Thumb Code   160  stm32lib_include.o(i.SetSysClockTo72)
    i.StringCoppy                            0x08001580   Section        0  text.o(i.StringCoppy)
    i.StringEndingAppend                     0x0800159c   Section        0  text.o(i.StringEndingAppend)
    i.SysTick_Handler                        0x080015c8   Section        0  stm32lib_include.o(i.SysTick_Handler)
    i.SysTick_Set                            0x080015cc   Section        0  stm32_cpu.o(i.SysTick_Set)
    i.SystemInit                             0x080015ec   Section        0  stm32lib_include.o(i.SystemInit)
    i.Temp                                   0x0800163c   Section        0  main.o(i.Temp)
    i.ToHex64                                0x0800167c   Section        0  text.o(i.ToHex64)
    i.Tools_GetCRC16                         0x08001698   Section        0  cheakout.o(i.Tools_GetCRC16)
    i.Tools_GetXOR8                          0x080016cc   Section        0  cheakout.o(i.Tools_GetXOR8)
    i.Tos_ComputeCPURate                     0x080016e4   Section        0  tos.o(i.Tos_ComputeCPURate)
    i.Tos_Init                               0x08001720   Section        0  tos.o(i.Tos_Init)
    i.Tos_ListCreate                         0x0800176c   Section        0  tos.o(i.Tos_ListCreate)
    i.Tos_RootTask                           0x0800178e   Section        0  tos.o(i.Tos_RootTask)
    i.Tos_ScanTimer                          0x080017a0   Section        0  tos_timer.o(i.Tos_ScanTimer)
    i.Tos_Start                              0x080017d0   Section        0  tos.o(i.Tos_Start)
    i.Tos_SysTick                            0x080017fc   Section        0  tos.o(i.Tos_SysTick)
    i.Tos_TaskCreate                         0x08001850   Section        0  tos.o(i.Tos_TaskCreate)
    i.Tos_TaskCreateFindID                   0x080018bc   Section        0  tos.o(i.Tos_TaskCreateFindID)
    i.Tos_TaskDelay                          0x080018fc   Section        0  tos.o(i.Tos_TaskDelay)
    i.Tos_TaskDropDev                        0x08001944   Section        0  tos_device.o(i.Tos_TaskDropDev)
    i.Tos_TaskGetDev                         0x08001970   Section        0  tos_device.o(i.Tos_TaskGetDev)
    i.Tos_TaskReady                          0x080019c4   Section        0  tos.o(i.Tos_TaskReady)
    i.Tos_TaskRun                            0x08001a18   Section        0  tos.o(i.Tos_TaskRun)
    i.Tos_TaskStackInit                      0x08001a44   Section        0  tos.o(i.Tos_TaskStackInit)
    i.Tos_TaskStart                          0x08001a8c   Section        0  tos.o(i.Tos_TaskStart)
    i.Tos_TaskSuspend                        0x08001aa4   Section        0  tos.o(i.Tos_TaskSuspend)
    i.Tos_TaskSwitch                         0x08001adc   Section        0  tos.o(i.Tos_TaskSwitch)
    i.Tos_TaskTcbInit                        0x08001b40   Section        0  tos.o(i.Tos_TaskTcbInit)
    i.Tos_TaskTimeout                        0x08001b50   Section        0  tos.o(i.Tos_TaskTimeout)
    i.Tos_TimerReady                         0x08001b78   Section        0  tos_timer.o(i.Tos_TimerReady)
    i.Tos_WaitDev                            0x08001ba8   Section        0  tos.o(i.Tos_WaitDev)
    i.USART1_IRQHandler                      0x08001bd0   Section        0  usart_driver.o(i.USART1_IRQHandler)
    i.USART2_IRQHandler                      0x08001c20   Section        0  usart_driver.o(i.USART2_IRQHandler)
    i.USART_ClearFlag                        0x08001c7c   Section        0  stm32lib_include.o(i.USART_ClearFlag)
    i.USART_ClearITPendingBit                0x08001c82   Section        0  stm32lib_include.o(i.USART_ClearITPendingBit)
    i.USART_Cmd                              0x08001c8e   Section        0  stm32lib_include.o(i.USART_Cmd)
    i.USART_Configuration                    0x08001ca4   Section        0  usart_driver.o(i.USART_Configuration)
    i.USART_ConfigurationAll                 0x08001cfc   Section        0  usart_driver.o(i.USART_ConfigurationAll)
    i.USART_GPIO_Init                        0x08001d68   Section        0  usart_driver.o(i.USART_GPIO_Init)
    i.USART_GPIO_InitAll                     0x08001e40   Section        0  usart_driver.o(i.USART_GPIO_InitAll)
    i.USART_GetITStatus                      0x08001e8e   Section        0  stm32lib_include.o(i.USART_GetITStatus)
    i.USART_GetIndex                         0x08001ecc   Section        0  usart_driver.o(i.USART_GetIndex)
    i.USART_GetTypeDef                       0x08001f04   Section        0  usart_driver.o(i.USART_GetTypeDef)
    i.USART_ITConfig                         0x08001f40   Section        0  stm32lib_include.o(i.USART_ITConfig)
    i.USART_Init                             0x08001f70   Section        0  stm32lib_include.o(i.USART_Init)
    i.USART_Read                             0x08002024   Section        0  usart_driver.o(i.USART_Read)
    i.USART_ReadDatas                        0x08002044   Section        0  usart_driver.o(i.USART_ReadDatas)
    i.USART_Write                            0x080020e0   Section        0  usart_driver.o(i.USART_Write)
    i.USART_WriteDatas                       0x080020e6   Section        0  usart_driver.o(i.USART_WriteDatas)
    i.USBWakeUp_IRQHandler                   0x08002100   Section        0  stm32lib_include.o(i.USBWakeUp_IRQHandler)
    i.Uint32FromByte                         0x08002110   Section        0  text.o(i.Uint32FromByte)
    i.UsageFault_Handler                     0x08002114   Section        0  stm32lib_include.o(i.UsageFault_Handler)
    i.__0vsprintf                            0x08002118   Section        0  printfa.o(i.__0vsprintf)
    i.__scatterload_copy                     0x0800213c   Section       14  handlers.o(i.__scatterload_copy)
    i.__scatterload_null                     0x0800214a   Section        2  handlers.o(i.__scatterload_null)
    i.__scatterload_zeroinit                 0x0800214c   Section       14  handlers.o(i.__scatterload_zeroinit)
    i._fp_digits                             0x0800215c   Section        0  printfa.o(i._fp_digits)
    _fp_digits                               0x0800215d   Thumb Code   326  printfa.o(i._fp_digits)
    i._printf_core                           0x080022b8   Section        0  printfa.o(i._printf_core)
    _printf_core                             0x080022b9   Thumb Code  1762  printfa.o(i._printf_core)
    i._printf_post_padding                   0x080029a8   Section        0  printfa.o(i._printf_post_padding)
    _printf_post_padding                     0x080029a9   Thumb Code    38  printfa.o(i._printf_post_padding)
    i._printf_pre_padding                    0x080029ce   Section        0  printfa.o(i._printf_pre_padding)
    _printf_pre_padding                      0x080029cf   Thumb Code    48  printfa.o(i._printf_pre_padding)
    i._sputc                                 0x080029fe   Section        0  printfa.o(i._sputc)
    _sputc                                   0x080029ff   Thumb Code    10  printfa.o(i._sputc)
    i.main                                   0x08002a08   Section        0  main.o(i.main)
    .constdata                               0x08002a2c   Section        9  tos.o(.constdata)
    .constdata                               0x08002a35   Section      512  cheakout.o(.constdata)
    .constdata                               0x08002c38   Section       48  main.o(.constdata)
    .conststring                             0x08002c68   Section        6  main.o(.conststring)
    .data                                    0x20000000   Section       40  stm32lib_include.o(.data)
    ADCPrescTable                            0x20000000   Data           4  stm32lib_include.o(.data)
    APBAHBPrescTable                         0x20000008   Data          16  stm32lib_include.o(.data)
    .data                                    0x20000028   Section       28  usart_driver.o(.data)
    .data                                    0x20000044   Section       32  tos.o(.data)
    Count                                    0x20000044   Data           1  tos.o(.data)
    i                                        0x20000045   Data           1  tos.o(.data)
    Use                                      0x20000046   Data           1  tos.o(.data)
    Pool                                     0x20000048   Data           4  tos.o(.data)
    .data                                    0x20000064   Section        8  tos_device.o(.data)
    .data                                    0x2000006c   Section        4  tos_mema.o(.data)
    .data                                    0x20000070   Section        4  tos_timer.o(.data)
    .data                                    0x20000074   Section        8  debug.o(.data)
    .data                                    0x2000007c   Section       12  main.o(.data)
    .bss                                     0x20000088   Section       32  usart_driver.o(.bss)
    .bss                                     0x200000a8   Section    11000  tos_mema.o(.bss)
    .bss                                     0x20002ba0   Section       24  main.o(.bss)
    STACK                                    0x20002bb8   Section     1024  startup_stm32f10x_ld.o(STACK)

    Global Symbols

    Symbol Name                              Value     Ov Type        Size  Object(Section)

    BuildAttributes$$THM_ISAv4$P$D$K$B$S$PE$A:L22UL41UL21$X:L11$S22US41US21$IEEE1$IW$USESV6$~STKCKD$USESV7$~SHL$OTIME$ROPI$IEEEX$EBA8$MICROLIB$REQ8$PRES8$EABIv2 0x00000000   Number         0  anon$$obj.o ABSOLUTE
    __ARM_use_no_argv                        0x00000000   Number         0  main.o ABSOLUTE
    __cpp_initialize__aeabi_                  - Undefined Weak Reference
    __cxa_finalize                            - Undefined Weak Reference
    __decompress                              - Undefined Weak Reference
    _clock_init                               - Undefined Weak Reference
    _microlib_exit                            - Undefined Weak Reference
    __Vectors_Size                           0x000000ec   Number         0  startup_stm32f10x_ld.o ABSOLUTE
    __Vectors                                0x08000000   Data           4  startup_stm32f10x_ld.o(RESET)
    __Vectors_End                            0x080000ec   Data           0  startup_stm32f10x_ld.o(RESET)
    __main                                   0x080000ed   Thumb Code     0  entry.o(.ARM.Collect$$$$00000000)
    _main_stk                                0x080000ed   Thumb Code     0  entry2.o(.ARM.Collect$$$$00000001)
    _main_scatterload                        0x080000f1   Thumb Code     0  entry5.o(.ARM.Collect$$$$00000004)
    __main_after_scatterload                 0x080000f5   Thumb Code     0  entry5.o(.ARM.Collect$$$$00000004)
    _main_clock                              0x080000f5   Thumb Code     0  entry7b.o(.ARM.Collect$$$$00000008)
    _main_cpp_init                           0x080000f5   Thumb Code     0  entry8b.o(.ARM.Collect$$$$0000000A)
    _main_init                               0x080000f5   Thumb Code     0  entry9a.o(.ARM.Collect$$$$0000000B)
    __rt_final_cpp                           0x080000fd   Thumb Code     0  entry10a.o(.ARM.Collect$$$$0000000D)
    __rt_final_exit                          0x080000fd   Thumb Code     0  entry11a.o(.ARM.Collect$$$$0000000F)
    Reset_Handler                            0x08000101   Thumb Code     8  startup_stm32f10x_ld.o(.text)
    ADC1_2_IRQHandler                        0x0800011b   Thumb Code     0  startup_stm32f10x_ld.o(.text)
    CAN1_RX1_IRQHandler                      0x0800011b   Thumb Code     0  startup_stm32f10x_ld.o(.text)
    CAN1_SCE_IRQHandler                      0x0800011b   Thumb Code     0  startup_stm32f10x_ld.o(.text)
    DMA1_Channel1_IRQHandler                 0x0800011b   Thumb Code     0  startup_stm32f10x_ld.o(.text)
    DMA1_Channel2_IRQHandler                 0x0800011b   Thumb Code     0  startup_stm32f10x_ld.o(.text)
    DMA1_Channel3_IRQHandler                 0x0800011b   Thumb Code     0  startup_stm32f10x_ld.o(.text)
    DMA1_Channel4_IRQHandler                 0x0800011b   Thumb Code     0  startup_stm32f10x_ld.o(.text)
    DMA1_Channel5_IRQHandler                 0x0800011b   Thumb Code     0  startup_stm32f10x_ld.o(.text)
    DMA1_Channel6_IRQHandler                 0x0800011b   Thumb Code     0  startup_stm32f10x_ld.o(.text)
    DMA1_Channel7_IRQHandler                 0x0800011b   Thumb Code     0  startup_stm32f10x_ld.o(.text)
    EXTI15_10_IRQHandler                     0x0800011b   Thumb Code     0  startup_stm32f10x_ld.o(.text)
    EXTI1_IRQHandler                         0x0800011b   Thumb Code     0  startup_stm32f10x_ld.o(.text)
    EXTI2_IRQHandler                         0x0800011b   Thumb Code     0  startup_stm32f10x_ld.o(.text)
    EXTI3_IRQHandler                         0x0800011b   Thumb Code     0  startup_stm32f10x_ld.o(.text)
    EXTI4_IRQHandler                         0x0800011b   Thumb Code     0  startup_stm32f10x_ld.o(.text)
    EXTI9_5_IRQHandler                       0x0800011b   Thumb Code     0  startup_stm32f10x_ld.o(.text)
    FLASH_IRQHandler                         0x0800011b   Thumb Code     0  startup_stm32f10x_ld.o(.text)
    I2C1_ER_IRQHandler                       0x0800011b   Thumb Code     0  startup_stm32f10x_ld.o(.text)
    I2C1_EV_IRQHandler                       0x0800011b   Thumb Code     0  startup_stm32f10x_ld.o(.text)
    PVD_IRQHandler                           0x0800011b   Thumb Code     0  startup_stm32f10x_ld.o(.text)
    RCC_IRQHandler                           0x0800011b   Thumb Code     0  startup_stm32f10x_ld.o(.text)
    RTCAlarm_IRQHandler                      0x0800011b   Thumb Code     0  startup_stm32f10x_ld.o(.text)
    RTC_IRQHandler                           0x0800011b   Thumb Code     0  startup_stm32f10x_ld.o(.text)
    SPI1_IRQHandler                          0x0800011b   Thumb Code     0  startup_stm32f10x_ld.o(.text)
    TAMPER_IRQHandler                        0x0800011b   Thumb Code     0  startup_stm32f10x_ld.o(.text)
    TIM1_BRK_IRQHandler                      0x0800011b   Thumb Code     0  startup_stm32f10x_ld.o(.text)
    TIM1_CC_IRQHandler                       0x0800011b   Thumb Code     0  startup_stm32f10x_ld.o(.text)
    TIM1_TRG_COM_IRQHandler                  0x0800011b   Thumb Code     0  startup_stm32f10x_ld.o(.text)
    TIM1_UP_IRQHandler                       0x0800011b   Thumb Code     0  startup_stm32f10x_ld.o(.text)
    TIM2_IRQHandler                          0x0800011b   Thumb Code     0  startup_stm32f10x_ld.o(.text)
    TIM3_IRQHandler                          0x0800011b   Thumb Code     0  startup_stm32f10x_ld.o(.text)
    USB_HP_CAN1_TX_IRQHandler                0x0800011b   Thumb Code     0  startup_stm32f10x_ld.o(.text)
    USB_LP_CAN1_RX0_IRQHandler               0x0800011b   Thumb Code     0  startup_stm32f10x_ld.o(.text)
    WWDG_IRQHandler                          0x0800011b   Thumb Code     0  startup_stm32f10x_ld.o(.text)
    __aeabi_dadd                             0x08000125   Thumb Code   322  dadd.o(.text)
    __aeabi_dsub                             0x08000267   Thumb Code     6  dadd.o(.text)
    __aeabi_drsub                            0x0800026d   Thumb Code     6  dadd.o(.text)
    __aeabi_dmul                             0x08000273   Thumb Code   228  dmul.o(.text)
    __aeabi_ddiv                             0x08000357   Thumb Code   222  ddiv.o(.text)
    __aeabi_uidiv                            0x08000435   Thumb Code     0  uidiv.o(.text)
    __aeabi_uidivmod                         0x08000435   Thumb Code    44  uidiv.o(.text)
    __aeabi_uldivmod                         0x08000461   Thumb Code    98  uldiv.o(.text)
    __aeabi_llsl                             0x080004c3   Thumb Code    30  llshl.o(.text)
    _ll_shift_l                              0x080004c3   Thumb Code     0  llshl.o(.text)
    __aeabi_llsr                             0x080004e1   Thumb Code    32  llushr.o(.text)
    _ll_ushift_r                             0x080004e1   Thumb Code     0  llushr.o(.text)
    __aeabi_lasr                             0x08000501   Thumb Code    36  llsshr.o(.text)
    _ll_sshift_r                             0x08000501   Thumb Code     0  llsshr.o(.text)
    __I$use$fp                               0x08000525   Thumb Code     0  iusefp.o(.text)
    _double_round                            0x08000525   Thumb Code    26  depilogue.o(.text)
    _double_epilogue                         0x0800053f   Thumb Code   164  depilogue.o(.text)
    __aeabi_d2ulz                            0x080005e3   Thumb Code    48  dfixul.o(.text)
    __aeabi_cdrcmple                         0x08000615   Thumb Code    38  cdrcmple.o(.text)
    __scatterload                            0x0800063d   Thumb Code    28  init.o(.text)
    __scatterload_rt2                        0x0800063d   Thumb Code     0  init.o(.text)
    TOS_ContextSwitch                        0x08000661   Thumb Code     0  tos_core_a.o(TOS_CORE_A)
    TOS_SwitchToTask                         0x08000693   Thumb Code     0  tos_core_a.o(TOS_CORE_A)
    Application_Run                          0x080006b1   Thumb Code    30  main.o(i.Application_Run)
    BareDelay                                0x080006d5   Thumb Code    18  stm32_cpu.o(i.BareDelay)
    BufferCoppy                              0x080006e7   Thumb Code    28  text.o(i.BufferCoppy)
    BusFault_Handler                         0x08000703   Thumb Code     2  stm32lib_include.o(i.BusFault_Handler)
    ClearWithBuffer                          0x08000705   Thumb Code    20  text.o(i.ClearWithBuffer)
    DeBug                                    0x08000719   Thumb Code   238  debug.o(i.DeBug)
    DebugMon_Handler                         0x08000821   Thumb Code     2  stm32lib_include.o(i.DebugMon_Handler)
    DeviceList_Init                          0x08000825   Thumb Code    66  tos_device.o(i.DeviceList_Init)
    DeviceMount_Usart                        0x08000875   Thumb Code   290  usart_driver.o(i.DeviceMount_Usart)
    Device_Init                              0x080009c5   Thumb Code    66  tos_device.o(i.Device_Init)
    Device_Ok                                0x08000a29   Thumb Code    26  tos_device.o(i.Device_Ok)
    DownLoad_Command                         0x08000a49   Thumb Code   408  main.o(i.DownLoad_Command)
    EXTI0_IRQHandler                         0x08000c69   Thumb Code    10  stm32_cpu.o(i.EXTI0_IRQHandler)
    EXTI_ClearITPendingBit                   0x08000c75   Thumb Code     6  stm32lib_include.o(i.EXTI_ClearITPendingBit)
    FLASH_ErasePage                          0x08000c81   Thumb Code    56  stm32lib_include.o(i.FLASH_ErasePage)
    FLASH_GetBank1Status                     0x08000cbd   Thumb Code    34  stm32lib_include.o(i.FLASH_GetBank1Status)
    FLASH_Lock                               0x08000ce5   Thumb Code    12  stm32lib_include.o(i.FLASH_Lock)
    FLASH_ProgramHalfWord                    0x08000cf5   Thumb Code    48  stm32lib_include.o(i.FLASH_ProgramHalfWord)
    FLASH_ProgramStart                       0x08000d29   Thumb Code    62  main.o(i.FLASH_ProgramStart)
    FLASH_Unlock                             0x08000d6d   Thumb Code    12  stm32lib_include.o(i.FLASH_Unlock)
    FLASH_WaitForLastOperation               0x08000d85   Thumb Code    34  stm32lib_include.o(i.FLASH_WaitForLastOperation)
    FLASH_WriteBank                          0x08000da7   Thumb Code    46  main.o(i.FLASH_WriteBank)
    Flash_ReadData                           0x08000dd5   Thumb Code    22  appconfig.o(i.Flash_ReadData)
    Flash_WriteData                          0x08000deb   Thumb Code    82  appconfig.o(i.Flash_WriteData)
    FlowPoolFilter                           0x08000e3d   Thumb Code    48  text.o(i.FlowPoolFilter)
    Frist_CheckEnv                           0x08000e6d   Thumb Code    34  main.o(i.Frist_CheckEnv)
    GPIO_Init                                0x08000e95   Thumb Code   152  stm32lib_include.o(i.GPIO_Init)
    GPIO_SetBits                             0x08000f2d   Thumb Code     4  stm32lib_include.o(i.GPIO_SetBits)
    GetChar_List                             0x08000f31   Thumb Code   102  debug.o(i.GetChar_List)
    GetCodeStr18                             0x08000f99   Thumb Code    92  main.o(i.GetCodeStr18)
    GetStringByFmt                           0x08000ff9   Thumb Code    28  text.o(i.GetStringByFmt)
    GetTextLength                            0x08001015   Thumb Code    20  text.o(i.GetTextLength)
    GetWordFromBytes                         0x08001029   Thumb Code    28  text.o(i.GetWordFromBytes)
    HardFault_Handler                        0x08001045   Thumb Code     6  stm32lib_include.o(i.HardFault_Handler)
    IAP_ErasePage                            0x0800104b   Thumb Code     4  stm32_cpu.o(i.IAP_ErasePage)
    IAP_Lock                                 0x0800104f   Thumb Code     4  stm32_cpu.o(i.IAP_Lock)
    IAP_ProgramHalfWord                      0x08001053   Thumb Code     4  stm32_cpu.o(i.IAP_ProgramHalfWord)
    IAP_Unlock                               0x08001057   Thumb Code     4  stm32_cpu.o(i.IAP_Unlock)
    Load_EnvConfig                           0x0800105d   Thumb Code    12  main.o(i.Load_EnvConfig)
    Load_VoidConfig                          0x08001075   Thumb Code    78  appconfig.o(i.Load_VoidConfig)
    MCU_Reset                                0x080010c5   Thumb Code    22  stm32_cpu.o(i.MCU_Reset)
    MemManage_Handler                        0x080010e5   Thumb Code     2  stm32lib_include.o(i.MemManage_Handler)
    Mema_Free                                0x080010e9   Thumb Code    38  tos_mema.o(i.Mema_Free)
    Mema_Init                                0x08001115   Thumb Code    16  tos_mema.o(i.Mema_Init)
    Mema_Malloc                              0x08001129   Thumb Code    56  tos_mema.o(i.Mema_Malloc)
    ModBus_Create                            0x08001165   Thumb Code    22  modbus.o(i.ModBus_Create)
    ModBus_CreateMsg                         0x0800117b   Thumb Code   194  modbus.o(i.ModBus_CreateMsg)
    ModBus_Expend                            0x0800123d   Thumb Code   246  modbus.o(i.ModBus_Expend)
    NMI_Handler                              0x08001333   Thumb Code     2  stm32lib_include.o(i.NMI_Handler)
    NVIC_Init                                0x08001335   Thumb Code    90  stm32lib_include.o(i.NVIC_Init)
    NVIC_PriorityGroupConfig                 0x08001399   Thumb Code    10  stm32lib_include.o(i.NVIC_PriorityGroupConfig)
    NVIC_SetVectorTable                      0x080013ad   Thumb Code    12  stm32lib_include.o(i.NVIC_SetVectorTable)
    PendSV_Handler                           0x080013c1   Thumb Code     2  stm32lib_include.o(i.PendSV_Handler)
    RCC_APB1PeriphClockCmd                   0x080013c5   Thumb Code    18  stm32lib_include.o(i.RCC_APB1PeriphClockCmd)
    RCC_APB2PeriphClockCmd                   0x080013dd   Thumb Code    18  stm32lib_include.o(i.RCC_APB2PeriphClockCmd)
    RCC_GetClocksFreq                        0x080013f5   Thumb Code   132  stm32lib_include.o(i.RCC_GetClocksFreq)
    SVC_Handler                              0x08001489   Thumb Code     2  stm32lib_include.o(i.SVC_Handler)
    Save_EnvConfig                           0x0800148d   Thumb Code    18  main.o(i.Save_EnvConfig)
    Save_VoidConfig                          0x080014ad   Thumb Code    42  appconfig.o(i.Save_VoidConfig)
    StringCoppy                              0x08001581   Thumb Code    28  text.o(i.StringCoppy)
    StringEndingAppend                       0x0800159d   Thumb Code    44  text.o(i.StringEndingAppend)
    SysTick_Handler                          0x080015c9   Thumb Code     4  stm32lib_include.o(i.SysTick_Handler)
    SysTick_Set                              0x080015cd   Thumb Code    24  stm32_cpu.o(i.SysTick_Set)
    SystemInit                               0x080015ed   Thumb Code    64  stm32lib_include.o(i.SystemInit)
    Temp                                     0x0800163d   Thumb Code    50  main.o(i.Temp)
    ToHex64                                  0x0800167d   Thumb Code    26  text.o(i.ToHex64)
    Tools_GetCRC16                           0x08001699   Thumb Code    48  cheakout.o(i.Tools_GetCRC16)
    Tools_GetXOR8                            0x080016cd   Thumb Code    24  cheakout.o(i.Tools_GetXOR8)
    Tos_ComputeCPURate                       0x080016e5   Thumb Code    56  tos.o(i.Tos_ComputeCPURate)
    Tos_Init                                 0x08001721   Thumb Code    68  tos.o(i.Tos_Init)
    Tos_ListCreate                           0x0800176d   Thumb Code    34  tos.o(i.Tos_ListCreate)
    Tos_RootTask                             0x0800178f   Thumb Code    16  tos.o(i.Tos_RootTask)
    Tos_ScanTimer                            0x080017a1   Thumb Code    42  tos_timer.o(i.Tos_ScanTimer)
    Tos_Start                                0x080017d1   Thumb Code    34  tos.o(i.Tos_Start)
    Tos_SysTick                              0x080017fd   Thumb Code    48  tos.o(i.Tos_SysTick)
    Tos_TaskCreate                           0x08001851   Thumb Code   102  tos.o(i.Tos_TaskCreate)
    Tos_TaskCreateFindID                     0x080018bd   Thumb Code    60  tos.o(i.Tos_TaskCreateFindID)
    Tos_TaskDelay                            0x080018fd   Thumb Code    68  tos.o(i.Tos_TaskDelay)
    Tos_TaskDropDev                          0x08001945   Thumb Code    34  tos_device.o(i.Tos_TaskDropDev)
    Tos_TaskGetDev                           0x08001971   Thumb Code    76  tos_device.o(i.Tos_TaskGetDev)
    Tos_TaskReady                            0x080019c5   Thumb Code    78  tos.o(i.Tos_TaskReady)
    Tos_TaskRun                              0x08001a19   Thumb Code    40  tos.o(i.Tos_TaskRun)
    Tos_TaskStackInit                        0x08001a45   Thumb Code    72  tos.o(i.Tos_TaskStackInit)
    Tos_TaskStart                            0x08001a8d   Thumb Code    20  tos.o(i.Tos_TaskStart)
    Tos_TaskSuspend                          0x08001aa5   Thumb Code    52  tos.o(i.Tos_TaskSuspend)
    Tos_TaskSwitch                           0x08001add   Thumb Code    92  tos.o(i.Tos_TaskSwitch)
    Tos_TaskTcbInit                          0x08001b41   Thumb Code    14  tos.o(i.Tos_TaskTcbInit)
    Tos_TaskTimeout                          0x08001b51   Thumb Code    34  tos.o(i.Tos_TaskTimeout)
    Tos_TimerReady                           0x08001b79   Thumb Code    44  tos_timer.o(i.Tos_TimerReady)
    Tos_WaitDev                              0x08001ba9   Thumb Code    36  tos.o(i.Tos_WaitDev)
    USART1_IRQHandler                        0x08001bd1   Thumb Code    68  usart_driver.o(i.USART1_IRQHandler)
    USART2_IRQHandler                        0x08001c21   Thumb Code    80  usart_driver.o(i.USART2_IRQHandler)
    USART_ClearFlag                          0x08001c7d   Thumb Code     6  stm32lib_include.o(i.USART_ClearFlag)
    USART_ClearITPendingBit                  0x08001c83   Thumb Code    12  stm32lib_include.o(i.USART_ClearITPendingBit)
    USART_Cmd                                0x08001c8f   Thumb Code    20  stm32lib_include.o(i.USART_Cmd)
    USART_Configuration                      0x08001ca5   Thumb Code    68  usart_driver.o(i.USART_Configuration)
    USART_ConfigurationAll                   0x08001cfd   Thumb Code   108  usart_driver.o(i.USART_ConfigurationAll)
    USART_GPIO_Init                          0x08001d69   Thumb Code   178  usart_driver.o(i.USART_GPIO_Init)
    USART_GPIO_InitAll                       0x08001e41   Thumb Code    78  usart_driver.o(i.USART_GPIO_InitAll)
    USART_GetITStatus                        0x08001e8f   Thumb Code    62  stm32lib_include.o(i.USART_GetITStatus)
    USART_GetIndex                           0x08001ecd   Thumb Code    46  usart_driver.o(i.USART_GetIndex)
    USART_GetTypeDef                         0x08001f05   Thumb Code    38  usart_driver.o(i.USART_GetTypeDef)
    USART_ITConfig                           0x08001f41   Thumb Code    48  stm32lib_include.o(i.USART_ITConfig)
    USART_Init                               0x08001f71   Thumb Code   176  stm32lib_include.o(i.USART_Init)
    USART_Read                               0x08002025   Thumb Code    30  usart_driver.o(i.USART_Read)
    USART_ReadDatas                          0x08002045   Thumb Code   144  usart_driver.o(i.USART_ReadDatas)
    USART_Write                              0x080020e1   Thumb Code     6  usart_driver.o(i.USART_Write)
    USART_WriteDatas                         0x080020e7   Thumb Code    26  usart_driver.o(i.USART_WriteDatas)
    USBWakeUp_IRQHandler                     0x08002101   Thumb Code    10  stm32lib_include.o(i.USBWakeUp_IRQHandler)
    Uint32FromByte                           0x08002111   Thumb Code     4  text.o(i.Uint32FromByte)
    UsageFault_Handler                       0x08002115   Thumb Code     2  stm32lib_include.o(i.UsageFault_Handler)
    __0vsprintf                              0x08002119   Thumb Code    30  printfa.o(i.__0vsprintf)
    __1vsprintf                              0x08002119   Thumb Code     0  printfa.o(i.__0vsprintf)
    __2vsprintf                              0x08002119   Thumb Code     0  printfa.o(i.__0vsprintf)
    __c89vsprintf                            0x08002119   Thumb Code     0  printfa.o(i.__0vsprintf)
    vsprintf                                 0x08002119   Thumb Code     0  printfa.o(i.__0vsprintf)
    __scatterload_copy                       0x0800213d   Thumb Code    14  handlers.o(i.__scatterload_copy)
    __scatterload_null                       0x0800214b   Thumb Code     2  handlers.o(i.__scatterload_null)
    __scatterload_zeroinit                   0x0800214d   Thumb Code    14  handlers.o(i.__scatterload_zeroinit)
    main                                     0x08002a09   Thumb Code    24  main.o(i.main)
    Crc16_TableH                             0x08002a35   Data         256  cheakout.o(.constdata)
    Crc16_TableL                             0x08002b35   Data         256  cheakout.o(.constdata)
    TaskList                                 0x08002c38   Data          48  main.o(.constdata)
    Region$$Table$$Base                      0x08002c70   Number         0  anon$$obj.o(Region$$Table)
    Region$$Table$$Limit                     0x08002c90   Number         0  anon$$obj.o(Region$$Table)
    SystemCoreClock                          0x20000004   Data           4  stm32lib_include.o(.data)
    AHBPrescTable                            0x20000018   Data          16  stm32lib_include.o(.data)
    DeviceId_USART_TX                        0x20000028   Data           4  usart_driver.o(.data)
    DeviceId_USART_RX                        0x2000002c   Data           4  usart_driver.o(.data)
    USART_RX_TaskID                          0x20000030   Data           4  usart_driver.o(.data)
    USART_RX_Count                           0x20000034   Data           8  usart_driver.o(.data)
    USART_RX_Index                           0x2000003c   Data           8  usart_driver.o(.data)
    Tos_TaskCurrent                          0x20000047   Data           1  tos.o(.data)
    guiNextTaskSp                            0x2000004c   Data           4  tos.o(.data)
    gpuiCurTaskSpAddr                        0x20000050   Data           4  tos.o(.data)
    Tos_TaskTcb                              0x20000054   Data           4  tos.o(.data)
    Tos_TaskStackIndex                       0x20000058   Data           4  tos.o(.data)
    Tos_CPUInfor                             0x2000005c   Data           8  tos.o(.data)
    DeviceId_Index                           0x20000064   Data           1  tos_device.o(.data)
    Tos_Device_Tab                           0x20000068   Data           4  tos_device.o(.data)
    RootMema                                 0x2000006c   Data           4  tos_mema.o(.data)
    Tos_Timer_P                              0x20000070   Data           4  tos_timer.o(.data)
    DeBug_EN                                 0x20000074   Data           1  debug.o(.data)
    DeBug_Out                                0x20000075   Data           1  debug.o(.data)
    DeBug_Type                               0x20000076   Data           1  debug.o(.data)
    DeBug_CB                                 0x20000078   Data           4  debug.o(.data)
    WaitDownLoadCount                        0x2000007c   Data           1  main.o(.data)
    Jump_To_Application                      0x20000080   Data           4  main.o(.data)
    JumpAddress                              0x20000084   Data           4  main.o(.data)
    USART_RX_Buffer                          0x20000088   Data          16  usart_driver.o(.bss)
    USART_TX_Buffer                          0x20000098   Data          16  usart_driver.o(.bss)
    MemBuf                                   0x200000a8   Data       11000  tos_mema.o(.bss)
    enValue                                  0x20002ba0   Data          24  main.o(.bss)
    __initial_sp                             0x20002fb8   Data           0  startup_stm32f10x_ld.o(STACK)



==============================================================================

Memory Map of the image

  Image Entry point : 0x080000ed

  Load Region LR_IROM1 (Base: 0x08000000, Size: 0x00002d18, Max: 0x00010000, ABSOLUTE)

    Execution Region ER_IROM1 (Base: 0x08000000, Size: 0x00002c90, Max: 0x00010000, ABSOLUTE)

    Base Addr    Size         Type   Attr      Idx    E Section Name        Object

    0x08000000   0x000000ec   Data   RO         3114    RESET               startup_stm32f10x_ld.o
    0x080000ec   0x00000000   Code   RO         5158  * .ARM.Collect$$$$00000000  mc_w.l(entry.o)
    0x080000ec   0x00000004   Code   RO         5239    .ARM.Collect$$$$00000001  mc_w.l(entry2.o)
    0x080000f0   0x00000004   Code   RO         5242    .ARM.Collect$$$$00000004  mc_w.l(entry5.o)
    0x080000f4   0x00000000   Code   RO         5244    .ARM.Collect$$$$00000008  mc_w.l(entry7b.o)
    0x080000f4   0x00000000   Code   RO         5246    .ARM.Collect$$$$0000000A  mc_w.l(entry8b.o)
    0x080000f4   0x00000008   Code   RO         5247    .ARM.Collect$$$$0000000B  mc_w.l(entry9a.o)
    0x080000fc   0x00000000   Code   RO         5249    .ARM.Collect$$$$0000000D  mc_w.l(entry10a.o)
    0x080000fc   0x00000000   Code   RO         5251    .ARM.Collect$$$$0000000F  mc_w.l(entry11a.o)
    0x080000fc   0x00000004   Code   RO         5240    .ARM.Collect$$$$00002712  mc_w.l(entry2.o)
    0x08000100   0x00000024   Code   RO         3115    .text               startup_stm32f10x_ld.o
    0x08000124   0x0000014e   Code   RO         5195    .text               mf_w.l(dadd.o)
    0x08000272   0x000000e4   Code   RO         5197    .text               mf_w.l(dmul.o)
    0x08000356   0x000000de   Code   RO         5199    .text               mf_w.l(ddiv.o)
    0x08000434   0x0000002c   Code   RO         5256    .text               mc_w.l(uidiv.o)
    0x08000460   0x00000062   Code   RO         5258    .text               mc_w.l(uldiv.o)
    0x080004c2   0x0000001e   Code   RO         5260    .text               mc_w.l(llshl.o)
    0x080004e0   0x00000020   Code   RO         5262    .text               mc_w.l(llushr.o)
    0x08000500   0x00000024   Code   RO         5264    .text               mc_w.l(llsshr.o)
    0x08000524   0x00000000   Code   RO         5273    .text               mc_w.l(iusefp.o)
    0x08000524   0x000000be   Code   RO         5276    .text               mf_w.l(depilogue.o)
    0x080005e2   0x00000030   Code   RO         5278    .text               mf_w.l(dfixul.o)
    0x08000612   0x00000002   PAD
    0x08000614   0x00000028   Code   RO         5280    .text               mf_w.l(cdrcmple.o)
    0x0800063c   0x00000024   Code   RO         5288    .text               mc_w.l(init.o)
    0x08000660   0x00000050   Code   RO         4052    TOS_CORE_A          tos_core_a.o
    0x080006b0   0x00000024   Code   RO         5003    i.Application_Run   main.o
    0x080006d4   0x00000012   Code   RO         3383    i.BareDelay         stm32_cpu.o
    0x080006e6   0x0000001c   Code   RO         4158    i.BufferCoppy       text.o
    0x08000702   0x00000002   Code   RO           49    i.BusFault_Handler  stm32lib_include.o
    0x08000704   0x00000014   Code   RO         4162    i.ClearWithBuffer   text.o
    0x08000718   0x00000108   Code   RO         4055    i.DeBug             debug.o
    0x08000820   0x00000002   Code   RO          121    i.DebugMon_Handler  stm32lib_include.o
    0x08000822   0x00000002   PAD
    0x08000824   0x00000050   Code   RO         3893    i.DeviceList_Init   tos_device.o
    0x08000874   0x00000150   Code   RO         3232    i.DeviceMount_Usart  usart_driver.o
    0x080009c4   0x00000064   Code   RO         3897    i.Device_Init       tos_device.o
    0x08000a28   0x00000020   Code   RO         3898    i.Device_Ok         tos_device.o
    0x08000a48   0x00000220   Code   RO         5004    i.DownLoad_Command  main.o
    0x08000c68   0x0000000a   Code   RO         3384    i.EXTI0_IRQHandler  stm32_cpu.o
    0x08000c72   0x00000002   PAD
    0x08000c74   0x0000000c   Code   RO          123    i.EXTI_ClearITPendingBit  stm32lib_include.o
    0x08000c80   0x0000003c   Code   RO          135    i.FLASH_ErasePage   stm32lib_include.o
    0x08000cbc   0x00000028   Code   RO          136    i.FLASH_GetBank1Status  stm32lib_include.o
    0x08000ce4   0x00000010   Code   RO          145    i.FLASH_Lock        stm32lib_include.o
    0x08000cf4   0x00000034   Code   RO          148    i.FLASH_ProgramHalfWord  stm32lib_include.o
    0x08000d28   0x00000044   Code   RO         5006    i.FLASH_ProgramStart  main.o
    0x08000d6c   0x00000018   Code   RO          153    i.FLASH_Unlock      stm32lib_include.o
    0x08000d84   0x00000022   Code   RO          157    i.FLASH_WaitForLastOperation  stm32lib_include.o
    0x08000da6   0x0000002e   Code   RO         5007    i.FLASH_WriteBank   main.o
    0x08000dd4   0x00000016   Code   RO         4729    i.Flash_ReadData    appconfig.o
    0x08000dea   0x00000052   Code   RO         4730    i.Flash_WriteData   appconfig.o
    0x08000e3c   0x00000030   Code   RO         4179    i.FlowPoolFilter    text.o
    0x08000e6c   0x00000028   Code   RO         5008    i.Frist_CheckEnv    main.o
    0x08000e94   0x00000098   Code   RO          183    i.GPIO_Init         stm32lib_include.o
    0x08000f2c   0x00000004   Code   RO          191    i.GPIO_SetBits      stm32lib_include.o
    0x08000f30   0x00000066   Code   RO         4061    i.GetChar_List      debug.o
    0x08000f96   0x00000002   PAD
    0x08000f98   0x00000060   Code   RO         5009    i.GetCodeStr18      main.o
    0x08000ff8   0x0000001c   Code   RO         4187    i.GetStringByFmt    text.o
    0x08001014   0x00000014   Code   RO         4191    i.GetTextLength     text.o
    0x08001028   0x0000001c   Code   RO         4192    i.GetWordFromBytes  text.o
    0x08001044   0x00000006   Code   RO          195    i.HardFault_Handler  stm32lib_include.o
    0x0800104a   0x00000004   Code   RO         3392    i.IAP_ErasePage     stm32_cpu.o
    0x0800104e   0x00000004   Code   RO         3393    i.IAP_Lock          stm32_cpu.o
    0x08001052   0x00000004   Code   RO         3394    i.IAP_ProgramHalfWord  stm32_cpu.o
    0x08001056   0x00000004   Code   RO         3395    i.IAP_Unlock        stm32_cpu.o
    0x0800105a   0x00000002   PAD
    0x0800105c   0x00000018   Code   RO         5011    i.Load_EnvConfig    main.o
    0x08001074   0x0000004e   Code   RO         4732    i.Load_VoidConfig   appconfig.o
    0x080010c2   0x00000002   PAD
    0x080010c4   0x00000020   Code   RO         3398    i.MCU_Reset         stm32_cpu.o
    0x080010e4   0x00000002   Code   RO          238    i.MemManage_Handler  stm32lib_include.o
    0x080010e6   0x00000002   PAD
    0x080010e8   0x0000002c   Code   RO         3969    i.Mema_Free         tos_mema.o
    0x08001114   0x00000014   Code   RO         3970    i.Mema_Init         tos_mema.o
    0x08001128   0x0000003c   Code   RO         3971    i.Mema_Malloc       tos_mema.o
    0x08001164   0x00000016   Code   RO         4107    i.ModBus_Create     modbus.o
    0x0800117a   0x000000c2   Code   RO         4108    i.ModBus_CreateMsg  modbus.o
    0x0800123c   0x000000f6   Code   RO         4109    i.ModBus_Expend     modbus.o
    0x08001332   0x00000002   Code   RO          239    i.NMI_Handler       stm32lib_include.o
    0x08001334   0x00000064   Code   RO          240    i.NVIC_Init         stm32lib_include.o
    0x08001398   0x00000014   Code   RO          241    i.NVIC_PriorityGroupConfig  stm32lib_include.o
    0x080013ac   0x00000014   Code   RO          242    i.NVIC_SetVectorTable  stm32lib_include.o
    0x080013c0   0x00000002   Code   RO          253    i.PendSV_Handler    stm32lib_include.o
    0x080013c2   0x00000002   PAD
    0x080013c4   0x00000018   Code   RO          256    i.RCC_APB1PeriphClockCmd  stm32lib_include.o
    0x080013dc   0x00000018   Code   RO          258    i.RCC_APB2PeriphClockCmd  stm32lib_include.o
    0x080013f4   0x00000094   Code   RO          266    i.RCC_GetClocksFreq  stm32lib_include.o
    0x08001488   0x00000002   Code   RO          350    i.SVC_Handler       stm32lib_include.o
    0x0800148a   0x00000002   PAD
    0x0800148c   0x00000020   Code   RO         5012    i.Save_EnvConfig    main.o
    0x080014ac   0x0000002a   Code   RO         4734    i.Save_VoidConfig   appconfig.o
    0x080014d6   0x00000002   PAD
    0x080014d8   0x000000a8   Code   RO          351    i.SetSysClockTo72   stm32lib_include.o
    0x08001580   0x0000001c   Code   RO         4204    i.StringCoppy       text.o
    0x0800159c   0x0000002c   Code   RO         4205    i.StringEndingAppend  text.o
    0x080015c8   0x00000004   Code   RO          353    i.SysTick_Handler   stm32lib_include.o
    0x080015cc   0x00000020   Code   RO         3410    i.SysTick_Set       stm32_cpu.o
    0x080015ec   0x00000050   Code   RO          355    i.SystemInit        stm32lib_include.o
    0x0800163c   0x00000040   Code   RO         5013    i.Temp              main.o
    0x0800167c   0x0000001a   Code   RO         4214    i.ToHex64           text.o
    0x08001696   0x00000002   PAD
    0x08001698   0x00000034   Code   RO         4570    i.Tools_GetCRC16    cheakout.o
    0x080016cc   0x00000018   Code   RO         4573    i.Tools_GetXOR8     cheakout.o
    0x080016e4   0x0000003c   Code   RO         3681    i.Tos_ComputeCPURate  tos.o
    0x08001720   0x0000004c   Code   RO         3683    i.Tos_Init          tos.o
    0x0800176c   0x00000022   Code   RO         3684    i.Tos_ListCreate    tos.o
    0x0800178e   0x00000010   Code   RO         3685    i.Tos_RootTask      tos.o
    0x0800179e   0x00000002   PAD
    0x080017a0   0x00000030   Code   RO         4013    i.Tos_ScanTimer     tos_timer.o
    0x080017d0   0x0000002c   Code   RO         3687    i.Tos_Start         tos.o
    0x080017fc   0x00000054   Code   RO         3688    i.Tos_SysTick       tos.o
    0x08001850   0x0000006c   Code   RO         3689    i.Tos_TaskCreate    tos.o
    0x080018bc   0x00000040   Code   RO         3690    i.Tos_TaskCreateFindID  tos.o
    0x080018fc   0x00000048   Code   RO         3692    i.Tos_TaskDelay     tos.o
    0x08001944   0x0000002c   Code   RO         3899    i.Tos_TaskDropDev   tos_device.o
    0x08001970   0x00000054   Code   RO         3900    i.Tos_TaskGetDev    tos_device.o
    0x080019c4   0x00000054   Code   RO         3701    i.Tos_TaskReady     tos.o
    0x08001a18   0x0000002c   Code   RO         3704    i.Tos_TaskRun       tos.o
    0x08001a44   0x00000048   Code   RO         3706    i.Tos_TaskStackInit  tos.o
    0x08001a8c   0x00000018   Code   RO         3707    i.Tos_TaskStart     tos.o
    0x08001aa4   0x00000038   Code   RO         3709    i.Tos_TaskSuspend   tos.o
    0x08001adc   0x00000064   Code   RO         3710    i.Tos_TaskSwitch    tos.o
    0x08001b40   0x0000000e   Code   RO         3711    i.Tos_TaskTcbInit   tos.o
    0x08001b4e   0x00000002   PAD
    0x08001b50   0x00000028   Code   RO         3712    i.Tos_TaskTimeout   tos.o
    0x08001b78   0x00000030   Code   RO         4014    i.Tos_TimerReady    tos_timer.o
    0x08001ba8   0x00000028   Code   RO         3713    i.Tos_WaitDev       tos.o
    0x08001bd0   0x00000050   Code   RO         3234    i.USART1_IRQHandler  usart_driver.o
    0x08001c20   0x0000005c   Code   RO         3235    i.USART2_IRQHandler  usart_driver.o
    0x08001c7c   0x00000006   Code   RO          445    i.USART_ClearFlag   stm32lib_include.o
    0x08001c82   0x0000000c   Code   RO          446    i.USART_ClearITPendingBit  stm32lib_include.o
    0x08001c8e   0x00000014   Code   RO          449    i.USART_Cmd         stm32lib_include.o
    0x08001ca2   0x00000002   PAD
    0x08001ca4   0x00000058   Code   RO         3237    i.USART_Configuration  usart_driver.o
    0x08001cfc   0x0000006c   Code   RO         3238    i.USART_ConfigurationAll  usart_driver.o
    0x08001d68   0x000000d8   Code   RO         3239    i.USART_GPIO_Init   usart_driver.o
    0x08001e40   0x0000004e   Code   RO         3240    i.USART_GPIO_InitAll  usart_driver.o
    0x08001e8e   0x0000003e   Code   RO          453    i.USART_GetITStatus  stm32lib_include.o
    0x08001ecc   0x00000038   Code   RO         3241    i.USART_GetIndex    usart_driver.o
    0x08001f04   0x0000003c   Code   RO         3242    i.USART_GetTypeDef  usart_driver.o
    0x08001f40   0x00000030   Code   RO          455    i.USART_ITConfig    stm32lib_include.o
    0x08001f70   0x000000b4   Code   RO          456    i.USART_Init        stm32lib_include.o
    0x08002024   0x0000001e   Code   RO         3243    i.USART_Read        usart_driver.o
    0x08002042   0x00000002   PAD
    0x08002044   0x0000009c   Code   RO         3244    i.USART_ReadDatas   usart_driver.o
    0x080020e0   0x00000006   Code   RO         3245    i.USART_Write       usart_driver.o
    0x080020e6   0x0000001a   Code   RO         3247    i.USART_WriteDatas  usart_driver.o
    0x08002100   0x00000010   Code   RO          474    i.USBWakeUp_IRQHandler  stm32lib_include.o
    0x08002110   0x00000004   Code   RO         4216    i.Uint32FromByte    text.o
    0x08002114   0x00000002   Code   RO          475    i.UsageFault_Handler  stm32lib_include.o
    0x08002116   0x00000002   PAD
    0x08002118   0x00000024   Code   RO         5168    i.__0vsprintf       mc_w.l(printfa.o)
    0x0800213c   0x0000000e   Code   RO         5296    i.__scatterload_copy  mc_w.l(handlers.o)
    0x0800214a   0x00000002   Code   RO         5297    i.__scatterload_null  mc_w.l(handlers.o)
    0x0800214c   0x0000000e   Code   RO         5298    i.__scatterload_zeroinit  mc_w.l(handlers.o)
    0x0800215a   0x00000002   PAD
    0x0800215c   0x0000015c   Code   RO         5169    i._fp_digits        mc_w.l(printfa.o)
    0x080022b8   0x000006f0   Code   RO         5170    i._printf_core      mc_w.l(printfa.o)
    0x080029a8   0x00000026   Code   RO         5171    i._printf_post_padding  mc_w.l(printfa.o)
    0x080029ce   0x00000030   Code   RO         5172    i._printf_pre_padding  mc_w.l(printfa.o)
    0x080029fe   0x0000000a   Code   RO         5174    i._sputc            mc_w.l(printfa.o)
    0x08002a08   0x00000024   Code   RO         5020    i.main              main.o
    0x08002a2c   0x00000009   Data   RO         3714    .constdata          tos.o
    0x08002a35   0x00000200   Data   RO         4574    .constdata          cheakout.o
    0x08002c35   0x00000003   PAD
    0x08002c38   0x00000030   Data   RO         5023    .constdata          main.o
    0x08002c68   0x00000006   Data   RO         5024    .conststring        main.o
    0x08002c6e   0x00000002   PAD
    0x08002c70   0x00000020   Data   RO         5294    Region$$Table       anon$$obj.o


    Execution Region RW_IRAM1 (Base: 0x20000000, Size: 0x00002fb8, Max: 0x00005000, ABSOLUTE)

    Base Addr    Size         Type   Attr      Idx    E Section Name        Object

    0x20000000   0x00000028   Data   RW          484    .data               stm32lib_include.o
    0x20000028   0x0000001c   Data   RW         3250    .data               usart_driver.o
    0x20000044   0x00000020   Data   RW         3715    .data               tos.o
    0x20000064   0x00000008   Data   RW         3901    .data               tos_device.o
    0x2000006c   0x00000004   Data   RW         3973    .data               tos_mema.o
    0x20000070   0x00000004   Data   RW         4015    .data               tos_timer.o
    0x20000074   0x00000008   Data   RW         4062    .data               debug.o
    0x2000007c   0x0000000c   Data   RW         5025    .data               main.o
    0x20000088   0x00000020   Zero   RW         3249    .bss                usart_driver.o
    0x200000a8   0x00002af8   Zero   RW         3972    .bss                tos_mema.o
    0x20002ba0   0x00000018   Zero   RW         5022    .bss                main.o
    0x20002bb8   0x00000400   Zero   RW         3112    STACK               startup_stm32f10x_ld.o


==============================================================================

Image component sizes


      Code (inc. data)   RO Data    RW Data    ZI Data      Debug   Object Name

       224          0          0          0          0       2539   appconfig.o
        76          4        512          0          0       1561   cheakout.o
         0          0          0          0          0         32   core_cm3.o
       366         26          0          8          0       1576   debug.o
       986        210         54         12         24       7417   main.o
       462          0          0          0          0       2425   modbus.o
        36          8        236          0       1024        764   startup_stm32f10x_ld.o
       108         18          0          0          0      19442   stm32_cpu.o
      1346        126          0         40          0     274795   stm32lib_include.o
       274          0          0          0          0       5344   text.o
      1032        108          9         32          0      10160   tos.o
        80         10          0          0          0        228   tos_core_a.o
       340         72          0          8          0       3835   tos_device.o
       124         14          0          4      11000       2164   tos_mema.o
        96         10          0          4          0       1923   tos_timer.o
      1332        184          0         28         32      10890   usart_driver.o

    ----------------------------------------------------------------------
      6912        790        848        136      12080     345095   Object Totals
         0          0         32          0          0          0   (incl. Generated)
        30          0          5          0          0          0   (incl. Padding)

    ----------------------------------------------------------------------

      Code (inc. data)   RO Data    RW Data    ZI Data      Debug   Library Member Name

         0          0          0          0          0          0   entry.o
         0          0          0          0          0          0   entry10a.o
         0          0          0          0          0          0   entry11a.o
         8          4          0          0          0          0   entry2.o
         4          0          0          0          0          0   entry5.o
         0          0          0          0          0          0   entry7b.o
         0          0          0          0          0          0   entry8b.o
         8          4          0          0          0          0   entry9a.o
        30          0          0          0          0          0   handlers.o
        36          8          0          0          0         68   init.o
         0          0          0          0          0          0   iusefp.o
        30          0          0          0          0         68   llshl.o
        36          0          0          0          0         68   llsshr.o
        32          0          0          0          0         68   llushr.o
      2256         86          0          0          0        508   printfa.o
        44          0          0          0          0         80   uidiv.o
        98          0          0          0          0         92   uldiv.o
        40          2          0          0          0         68   cdrcmple.o
       334          0          0          0          0        148   dadd.o
       222          0          0          0          0        100   ddiv.o
       190          0          0          0          0        176   depilogue.o
        48          0          0          0          0         68   dfixul.o
       228          0          0          0          0         96   dmul.o

    ----------------------------------------------------------------------
      3648        104          0          0          0       1608   Library Totals
         4          0          0          0          0          0   (incl. Padding)

    ----------------------------------------------------------------------

      Code (inc. data)   RO Data    RW Data    ZI Data      Debug   Library Name

      2582        102          0          0          0        952   mc_w.l
      1062          2          0          0          0        656   mf_w.l

    ----------------------------------------------------------------------
      3648        104          0          0          0       1608   Library Totals

    ----------------------------------------------------------------------

==============================================================================


      Code (inc. data)   RO Data    RW Data    ZI Data      Debug   

     10560        894        848        136      12080     340203   Grand Totals
     10560        894        848        136      12080     340203   ELF Image Totals
     10560        894        848        136          0          0   ROM Totals

==============================================================================

    Total RO  Size (Code + RO Data)                11408 (  11.14kB)
    Total RW  Size (RW Data + ZI Data)             12216 (  11.93kB)
    Total ROM Size (Code + RO Data + RW Data)      11544 (  11.27kB)

==============================================================================

