:020000040800F2
:10000000A81F002045010008071A0008BF160008B5
:100010006917000831070008A93100080000000036
:10002000000000000000000000000000F91D0008B2
:10003000CB0D000800000000911A0008471F0008BF
:100040005F0100085F0100085F0100085F01000810
:100050005F0100085F0100085F0100085F01000800
:100060005F0100085F0100085F0100085F010008F0
:100070005F0100085F010008110A0008510A00082A
:100080005F0100085F0100085F0100085F010008D0
:10009000693100085F0100085F0100085F01000886
:1000A0005F0100085F0100085F0100085F010008B0
:1000B0005F010008B11F00085F0100085F01000830
:1000C0005F0100085F0100085F0100085F01000890
:1000D0005F010008092D0008A12E00085F0100083B
:1000E0005F0100085F0100085D3100085F01000842
:1000F0005F0100085F0100085F0100085F01000860
:100100005F0100085F0100085F0100085F0100084F
:100110005F0100085F0100085F0100085F0100083F
:100120005F0100085F0100085F0100085F0100082F
:10013000DFF80CD000F0A4FA00480047E13A0008CC
:10014000A81F00200648804706480047FEE7FEE754
:10015000FEE7FEE7FEE7FEE7FEE7FEE7FEE7FEE777
:10016000511F0008310100082DE9FE4F804681EA49
:100170000300C00F0C46009021F0004123F0004521
:10018000B8EB0200A94105D24046214690461C46E4
:100190000B46024623F00040104304D1404621465E
:1001A00003B0BDE8F08F270DC7F30A00C3F30A516F
:1001B0000290401A0190402866DAC3F3130040F41D
:1001C000801B0098924620B10023D2EB030A63EB18
:1001D0000B0B01985946C0F14002504600F093F9CC
:1001E00006460D4650465946019A00F0ABF910EB11
:1001F00008006141002487EA115284EAE7731A4338
:100200003BD0009A3AB3019A012A4FEA075210DC18
:10021000001B61EB02014FF0004202EA0752CDE9F8
:100220000042001C41F5801132462B4600F0A9F92E
:10023000B6E7001B61EB0201001C41F580130018BA
:100240005B412018A2F5001747EB030140EAD57087
:10025000B6196D4111E06D084FEA360645EAC075E2
:100260004FEA0752001B61EB0201001C41F58011AF
:1002700049084FEA30000019514132462B4603B07D
:10028000BDE8F04F00F070B9009801224000002353
:10029000D0EB020263EBE073009821464FEAE07472
:1002A000B8EB000061EB0401E9E783F000435BE792
:1002B00081F0004158E72DE9FE4F81EA030404F084
:1002C000004421F0004100944FF0000B23F0004364
:1002D00050EA010402D052EA030404D1002001468E
:1002E00003B0BDE8F08FC3F30A54C1F30A552C44A0
:1002F000A4F2F3340194A0FB0254C1F3130141F4BE
:100300008011C3F3130343F4801301FB024400FB89
:10031000034E840A970A44EA815447EA8357A4FBB0
:10032000076802958D0A05FB07854FEA932C04FBAD
:100330000C542705029D4FEA065847EA1637B5EBDD
:1003400008056EEB070C870E920E47EA811742EA0A
:100350008312A7FB0201B6EB0B0164EB00042B0D2B
:1003600043EA0C335E1844EB1C50DA465146E7FB77
:100370000201C5F313044FEA0B3343EA14534FEA67
:100380000432019C43EA0603A4F10C040294009C8D
:10039000CDE900B400F0F5F8A2E72DE9F04D81EACF
:1003A000030404F0004B21F0004514464FF0000A0E
:1003B00023F0004150EA050220D054EA01021DD08A
:1003C000C5F30A570246C5F31303C1F31300C1F383
:1003D0000A5640F4801543F48013A7EB0608101B5F
:1003E000D64608F2FD3873EB050002D308F1010888
:1003F00001E092185B41B8F1000F03DA00200146DA
:10040000BDE8F08D00204FF48011064684460EE0D2
:10041000171B73EB050705D3121B63EB050306439C
:100420004CEA010C49084FEA300092185B4150EA4F
:100430000107EDD152EA030012D082EA040083EAF8
:100440000501084303D100224FF0004308E0101BD0
:10045000AB4102D20122002302E06FF001025310EF
:100460001AEB06004CEB085110EB0A0041EB0B01B4
:10047000BDE8F04D00F078B830B50B4601460020DD
:100480002022012409E021FA02F59D4205D303FA56
:1004900002F5491B04FA02F52844151EA2F10102D7
:1004A000F1DC30BD2DE9F05F0546002092469B4609
:1004B00088460646814640241BE02846414647467A
:1004C000224600F02FF853465A46C01A914110D3E5
:1004D00011461846224600F016F82D1A67EB01085F
:1004E0004F4622460120002100F00DF817EB0009CD
:1004F0004E41201EA4F10104DFDC484631462A4665
:100500004346BDE8F09F202A04DB203A00FA02F1BE
:10051000002070479140C2F1200320FA03F31943F1
:1005200090407047202A04DB203A21FA02F0002193
:10053000704721FA02F3D040C2F1200291400843F3
:1005400019467047202A06DBCB17203A41FA02F001
:1005500043EAE07306E041FA02F3D040C2F1200220
:10056000914008431946704710B5002B08DA401C2B
:1005700041F1000192185B411A4301D120F00100C2
:1005800010BD2DE9F04D92469B4611B1B1FA81F2B2
:1005900002E0B0FA80F220329046FFF7B4FF044642
:1005A0000F4640EA0A0041EA0B0153465A46084307
:1005B00003D120463946BDE8F08D114653EA0100CB
:1005C00015D0C8F140025046FFF7ACFF05460E4675
:1005D000504659464246FFF796FF084301D0012096
:1005E00000E00020054346EAE0762C4337430A98B2
:1005F0004FEA4453A0EB08004FEAD4240A304FF0EE
:10060000000244EA47544FEAD72502D500200146AC
:10061000D1E7010510196941DDE908450019694173
:10062000BDE8F04DA0E7C1F30A52C1F3130140F257
:10063000FF3341F480119A4202DA002001467047EC
:1006400040F233439A42A2F2334202DC5242FFF7B5
:1006500069BFFFF758BF000030B5002904DB4FF039
:100660000044404264EB0101002B04DB4FF00044E6
:10067000524264EB0303994208BF904230BD000030
:10068000064C074D06E0E06840F0010394E80700DF
:1006900098471034AC42F6D3FFF74EFD6C3D00088E
:1006A0008C3D000882B02DE9FF1FEFF3038001B4F9
:1006B000684600F1400000E901400C480168C1F8BB
:1006C00000D00B48D0F800D001BC80F30388BDE80F
:1006D000FF1F01B000BD0648D0F800D001BC80F378
:1006E0000388BDE8FF1F01B000BD000058000020D6
:1006F0005400002006E04FF47A7100BF0A00A1F117
:100700000101FBD10200A0F10100F4D17047F0B566
:10071000034600201C460D46104603E014F8016B0A
:1007200005F8016B1600A2F10107BAB2F6D1F0BDCF
:1007300000BFFEE7B1F5007F3AD00FDC202928D0BA
:1007400006DC01291CD004291DD0082940D11DE058
:10075000402921D0B1F5807F3AD126E0B1F5004F94
:1007600031D006DCB1F5806F25D0B1F5006F2FD107
:1007700024E0B1F5803F12D0B1F5003F28D111E05F
:10078000154A826025E00822C26022E01022C26081
:100790001FE0082202611CE01022026119E0082219
:1007A000426016E01022426013E00422426010E032
:1007B000042242600DE0042242600AE000228261CD
:1007C0000422426005E0002282610422426000E0CF
:1007D00000BF00BF704700000101010070B5044672
:1007E0000D4600266069284271D0B5F5807F5CD047
:1007F00010DC082D35D006DC012D20D0022D24D0B0
:10080000042D72D127E0102D31D0202D35D0402D70
:100810006BD138E0B5F5004F60D009DCB5F5007F4D
:1008200049D0B5F5806F4CD0B5F5006F5DD14FE084
:10083000B5F5803F2DD0B5F5003F56D12FE0A0682B
:100840002D4900F0D3F8064651E0E068032100F09E
:10085000CDF806464BE0E068082100F0C7F80646F0
:1008600045E0E068102100F0C1F806463FE020694D
:10087000032100F0BBF8064639E02069082100F0AA
:10088000B5F8064633E02069102100F0AFF80646BF
:100890002DE06068082100F0A9F8064627E06068AE
:1008A000102100F0A3F8064621E0A069012100F024
:1008B0009DF806461BE0A069022100F097F8064665
:1008C00015E0A069042100F091F806460FE00FE062
:1008D000A069702100F08AF8064608E060680421EB
:1008E00000F084F8064602E0FFE7002600BF00E0C3
:1008F0000026304670BD00000101010010B500F572
:10090000D87303EB01131B6803F004031372137A0B
:1009100053B900F5D87303EB01131B6840F2FF7461
:1009200004EA5353136009E000F5D87303EB011395
:100930001B686FF0604404EAD303536000F5D8737A
:1009400003EB01131B6803F00203537200F5D87325
:1009500003EB01135B6803F00F03937200F5D87388
:1009600003EB01135B681B0AD37400F5D87303EB28
:1009700001139B68D37200F5D87303EB01139B68D6
:100980001C0A147300F5D87303EB01139B681C0C4D
:10099000547300F5D87303EB01139B681B0E93731C
:1009A00000F5D87303EB0113DB68D37300F5D8733C
:1009B00003EB0113DB681C0A147400F5D87303EB16
:1009C0000113DB681C0C547400F5D87303EB01139E
:1009D000DB681B0E937421B9C36843F02003C36026
:1009E00003E0036943F02003036110BD02460020C9
:1009F0000A4201D0012000E00020704702E00022FE
:100A000000F8012B0A00A1F1010399B2F7D1704758
:100A100010B54FF4005000F033F80C48007801F0A6
:100A200015FE082800D110BD0848007801F00EFE20
:100A3000042804D10548007801F0EEFE04E00A2104
:100A40000248007802F00EF800BFECE71600002024
:100A500010B54FF4003000F013F80848007801F0AA
:100A6000F5FD042804D10548007801F0D5FE04E026
:100A70000A210248007801F0F5FF10BD280000208F
:100A800010F0805F02D00349086001E0024948602D
:100A900070470000040402400000024021B10268D7
:100AA00042F00102026004E002684FF6FE731A4051
:100AB0000260704701684FF6FE721140016000212C
:100AC000016041608160C1604B49884208D14A4958
:100AD0000839496841F00F01474A083A51608AE0F5
:100AE00045491431884208D143490839496841F0E1
:100AF000F001414A083A51607DE03F49283188427F
:100B000008D13D490839496841F470613A4A083AC8
:100B1000516070E038493C31884208D13649083983
:100B2000496841F47041344A083A516063E03249FF
:100B30005031884208D130490839496841F4702160
:100B40002D4A083A516056E02B496431884208D159
:100B500029490839496841F47001274A083A516027
:100B600049E025497831884208D123490839496844
:100B700041F07061204A083A51603CE01F498842C8
:100B800006D1011F096841F00F01021F116032E018
:100B90001A491431884208D11849091F096841F0DF
:100BA000F001164A121F116025E0144928318842CD
:100BB00008D11249091F096841F470610F4A121FD8
:100BC000116018E00D493C31884208D10B49091FDA
:100BD000096841F47041094A121F11600BE007498E
:100BE0005031884207D10549091F096841F4702135
:100BF000024A121F116070470800024008040240B8
:100C00001AB103680B43036002E003688B4303607F
:100C1000704710B50022026847F6F0739A430C6AD9
:100C20008B6823430C6923434C6923438C6923431A
:100C3000CC6923434C6A23438C6A23431A430260E2
:100C4000CB6843600B6883604B68C36010BD0000D5
:100C50000FB470B58EB00124002550480078FF28ED
:100C600001D1012000E000204C4909784C4A12785B
:100C7000914201D1012100E0002108437ED013A858
:100C80000D9068460D9A129902F0B2FA00200D906C
:100C900013A80D902521129800F0EEFB044602E007
:100CA0000D9820C80D902000A4F10104F8D10D98F2
:100CB00020C80D9000200D903A480078FF2801D1FF
:100CC000012000E0002037490978A94201D1012123
:100CD00000E0002108435CD03348007810F0010F99
:100CE00007D03248007800F0CFFA10B1684600F023
:100CF0006BF869462EA001F005F92B48007810F03A
:100D0000020F0CD02B48007800F0BEFA38B16846CC
:100D100000F0B6FC06463146684601F0A7FF2248BF
:100D2000007810F0020F0DD02248007800F0ACFAE5
:100D300040B1684600F0A4FC0646324669461E48AB
:100D400002F0FCF91848007810F0040F0CD01B4892
:100D5000007800F099FA38B1684600F091FC064638
:100D60003146684602F004F90F48007810F0040F8D
:100D70000FD01349487800F087FA00E009E040B14D
:100D8000684600F07DFC0646324669460D4802F092
:100D9000D5F90EB070BC5DF814FB000069000020AE
:100DA0005C0000206B0000206A0000202C00002066
:100DB0000D0A00001400002000380140240000202B
:100DC00031000020004400407047704710B50020FB
:100DD0001349087000F05EFB00241DE0FF2011495C
:100DE00001EB4411087100200E4901EB44114861E8
:100DF00003200C4901EB441108720020094901EB62
:100E000044110861074901EB4411C860054901EB31
:100E100044118861601CC4B2052CDFDB10BD0000EA
:100E200068000020A01A0020244800782449087097
:100E300022480078401C2149087021480078214947
:100E40001F4A127801EB421108711FA01D491C4A6C
:100E5000127801EB4211086000211A48184A1278F2
:100E600000EB421041710B201649154A127801EB34
:100E70004211C87101201349114A127801EB421145
:100E8000087213490F480E4A127800EB4210416174
:100E900010480C490A4A127801EB4211C8600E4909
:100EA0000848074A127800EB42100161002105480A
:100EB000034A127800EB42108161704768000020FD
:100EC0001C000020A01A0020464C4153480000009E
:100ED00095140008DF140008BD14000824480078A9
:100EE0002449087022480078401C21490870214894
:100EF000007821491F4A127801EB421108711FA0A6
:100F00001D491C4A127801EB4211086000211A4861
:100F1000184A127800EB421041710B201649154A0D
:100F2000127801EB4211C87101201349114A12785D
:100F300001EB4211087212490F480E4A127800EB79
:100F4000421041610F480C490A4A127801EB4211E4
:100F5000C8600D490848074A127800EB4210016149
:100F600000210548034A127800EB42108161704766
:100F7000680000201E000020A01A00204C454400FC
:100F80004D1600082B17000829170008494800785B
:100F90004949087047480078401C4649087046484F
:100FA00000784649444A127801EB4211087144A086
:100FB0004249414A127801EB4211086000203F4942
:100FC0003D4A127801EB421148710B203B493A4AE5
:100FD000127801EB4211C87103203849364A127861
:100FE00001EB4211087238493448334A127800EB59
:100FF00042104161354831492F4A127801EB4211C4
:10100000C86033482D492C4A127801EB421108611F
:1010100000212A48284A127800EB421081612548B5
:1010200000782C49087023480078401C214908703A
:10103000284800782149274A127801EB42110871AB
:1010400025A01E49234A127801EB421108600021B5
:101050001A48204A127800EB421041710B211748C0
:101060001C4A127800EB4210C17103211348194A3F
:10107000127800EB4210017200211048154A1278D4
:1010800000EB4210416111480C49124A127801EB01
:101090004211C8600E4909480E4A127800EB42100E
:1010A0000161002005490B4A127801EB4211886169
:1010B000704700006800002014000020A01A0020E3
:1010C0005553415254310000E12B0008B131000862
:1010D000AD310008150000205553415254315F5284
:1010E0005800000048480078484908704648007891
:1010F000401C45490870454800784549434A1278E4
:1011000001EB4211087143A04149404A127801EBBA
:101110004211086000203E493C4A127801EB42111E
:1011200048710B203A49394A127801EB4211C871D3
:1011300003203749354A127801EB421108723749CA
:101140003348324A127800EB4210416100203049A6
:101150002E4A127801EB4211C8602D492B4A1278B1
:1011600001EB4211086100212948284A127800EB5E
:10117000421081612448007829490870224800788B
:10118000401C21490870264800782149244A1278D9
:1011900001EB4211087123A01D49214A127801EB8D
:1011A0004211086000211A481D4A127800EB4210D3
:1011B00041710B2116481A4A127800EB4210C17196
:1011C00003211348164A127800EB421001720021E5
:1011D0000F48134A127800EB4210416100200C497D
:1011E0000F4A127801EB4211C860002108480C4AEE
:1011F000127800EB4210016100200549084A12787C
:1012000001EB421188617047680000202400002033
:10121000A01A00205553415254320000F52D000809
:10122000250000205553415254325F5258000000AF
:1012300010B5002422E0134800EB44100079FF2889
:101240001AD0104800EB44104069A8B10D4800EBDB
:101250004410C07910F0080F05D00A4901EB441181
:101260004869804708E0074A02EB4412107F054AAC
:1012700002EB441251698847601CC4B2052CDADBCA
:1012800010BD0000A01A00200146FF2901D1002056
:101290007047044800EB4110406908B90020F7E7A7
:1012A0000120F5E7A01A00200149086070470000FE
:1012B000140401400549096821F01001034A116036
:1012C0001146096801431160704700000020024088
:1012D00030B5064C031903E033F8024B21F8024BFA
:1012E0001400A2F10105EAB2F6D130BD00F8000801
:1012F00001460020034A106800F0380008431060DF
:1013000070470000002002404FF47A7100BF064889
:10131000C06810F0010F01D100207047481E80B254
:101320000100F4D1FF20F8E7002002402DE9F0474A
:1013300081460E46174600214A48007801F046F9DA
:10134000494809EB000A17B90120BDE8F087474872
:10135000006910F0800F04D0454844494860454872
:101360004860FFF7D1FF0446002C00DD6DE03F48E8
:10137000006940F002003D4908613B484861084669
:10138000006940F040000861FFF7BEFF0446002CF2
:1013900000DD5AE04FF0000800BF3448C56808F18E
:1013A00001001FFA80F815F0200F00D003E04FF67F
:1013B000FF708045F1DB00BF15F0200F00D144E045
:1013C0002A48C06840F020002849C86008460069E3
:1013D00020F04200086127E0FFF796FF0446002C4A
:1013E00000DD32E02148006940F001001F4908613A
:1013F00036F8020B2AF8020BFFF786FF0446002C92
:1014000000DD22E01948006920F001001749086159
:101410000846C56815F0200F00D116E01348C068D3
:1014200040F020001149C8603800A7F101018FB2D7
:10143000D2D10E48006940F080000C49086109488B
:10144000007801F0A5F800207FE70848006940F027
:101450008000064908610348007801F099F8FF20F0
:1014600073E700001C00002000F800080020024084
:1014700023016745AB89EFCD10B50246002005E09A
:1014800012F8014B8C4201D1431C98B21378002B07
:10149000F6D110BD00200149087070471D000020E2
:1014A0000278FF2A07D1044A12780270024A1278A1
:1014B0000A44014B1A7070471D0000202DE9F043CB
:1014C00004460E4615463746A046A94699F8002020
:1014D000B8F800003946FFF7FBFEBDE8F0832DE9C0
:1014E000F04704460E4615463746A046A946B9F8C9
:1014F0000020B8F800003946FFF718FFBDE8F08774
:1015000070B504460025107820B116782068B0FB2D
:10151000F6F085B22068084420601078984203DA1B
:101520001078401C107002E02068401B2060167884
:101530002068B0FBF6F080B270BD2DE9F0410246A4
:1015400000250026002000230024002791F803C076
:101550000CF00F0591F803C01CF0100F03D091F8A8
:1015600002C04CEA050591F800C0BCF1000F31D073
:10157000146800202BE04FF0010C0CFA00F3B1F8D6
:1015800000C00CEA03069E4220D183004FF00F0CEE
:101590000CFA03F7BC4305FA03FC4CEA040491F887
:1015A00003C0BCF1280F06D14FF0010C0CFA00FC6F
:1015B000C2F814C00AE091F803C0BCF1480F05D18D
:1015C0004FF0010C0CFA00FCC2F810C0401C0828B7
:1015D000D1D31460B1F800C0BCF1FF0F34DD546802
:1015E00000202EE000F1080C4FF0010808FA0CF37F
:1015F000B1F800C00CEA03069E4221D183004FF0EF
:101600000F0C0CFA03F7BC4305FA03FC4CEA040484
:1016100091F803C0BCF1280F05D100F1080C08FABD
:101620000CF8C2F8148091F803C0BCF1480F07D140
:1016300000F1080C4FF0010808FA0CF8C2F810800D
:10164000401C0828CED35460BDE8F08108B50121C4
:10165000082000F03FFA4FF40060ADF800000320CE
:101660008DF8020010208DF8030069460148FFF74D
:1016700064FF08BD000C0140416170470161704783
:1016800010B5014600200A4601E0431C98B212F84A
:10169000014B002CF9D110BD0246002039B9507819
:1016A0004FF6FF7303EA00201378184306E0107822
:1016B0004FF6FF7303EA002053781843704700BFCA
:1016C000FEE710B545F2555000F028F8062000F06E
:1016D00019F84FF47F6000F01BF800F00BF800F0F1
:1016E00001F810BD4CF6CC4001490860704700007D
:1016F000003000404AF6AA20014908607047000007
:101700000030004001494860704700000030004050
:1017100001498860704700000030004001490860BE
:1017200070470000003000407047704710B5044615
:10173000012202492046FFF7CBFD10BD72000020B8
:1017400071B600BF0648006800F4E0600549084330
:10175000001D03490860BFF3408F00BF00BFFEE7D4
:101760000CED00E00000FA0500BFFEE730B5039C79
:101770007E2505707F25057382704170C3734473A5
:1017800030BD2DE9F05F06460C4691469A46DDF8DD
:1017900028B00C9F002584F8039084F804A084F8F6
:1017A00008B0678117B1F81CE08001E00020E080FC
:1017B00022782846691C8DB23254E07B50B9A27859
:1017C0002846691C8DB2325462782846691C8DB255
:1017D00032540CE0E07B012809D162782846691C6C
:1017E0008DB23254A2782846691C8DB23254E27808
:1017F0002846691C8DB2325422792846691C8DB264
:101800003254E08802122846691C8DB23254A27903
:101810002846691C8DB23254BFB1227A2846691C11
:101820008DB23254608902122846691C8DB232543E
:10183000A27A2846691C8DB23254628971190B98BC
:10184000FEF765FF6089284485B2607B012810D1CE
:101850002946304600F0DCFC80464FEA2822284624
:10186000691C8DB232542846691C8DB206F800807E
:101870000BE0607B022808D1681E81B2304600F080
:10188000E7FC29466A1C95B27054227B2846691CE5
:101890008DB232542846BDE8F09F2DE9F05F064630
:1018A0008B4614460025AA460120A07329466D1CCC
:1018B000705C2178884200D099E0E07B50B92846DE
:1018C000691C8DB2305C6178884200D093E0681C5E
:1018D00085B220E0E07B01281DD12846691C8DB22D
:1018E00016F80080A078404501D0012000E00020DB
:1018F000B8F1FF0F01D0012100E00021084200D023
:1019000079E0681C85B2B8F1FF0F02D14FF00109F0
:1019100001E04FF000092846691C8DB2305CE07090
:101920002846691C8DB2305C20712846691C8DB236
:10193000305CE080E0884FF6FF7101EA0020E08033
:10194000E08829466A1C95B2715C0843E080E08813
:1019500000B32846691C8DB2305C20722846691C91
:101960008DB2305C608160894FF6FF7101EA002022
:101970006081608929466A1C95B2715C0843608168
:10198000AA466089284485B2E1886089C01C8142EA
:1019900000D034E0607B022809D12946304600F0AF
:1019A00057FC0746715DB94200D01CE010E0607B37
:1019B00001280CD12946304600F02AFC0746701950
:1019C0000121FFF769FEB84200D00CE000E000BF43
:1019D000B9F1010F02D10620A07301E00020A0732D
:1019E0005046BDE8F09F0220A0730020F9E70520D3
:1019F000A0730020F5E70620A0730020F1E7012086
:101A0000A0730020EDE7704770B5002100230F227E
:101A1000C4780CB3164C246804F4E064C4F5E064A4
:101A2000210AC1F10403CA40447804FA03F184781E
:101A30001440214309010F4C0678A155047804F0A5
:101A40001F050124AC4005786D114FF0E02606EB30
:101A50008505C5F8004109E0047804F01F0501245C
:101A6000AC40054D0678761145F8264070BD000063
:101A70000CED00E000E400E080E100E002490143F9
:101A8000024A1160704700000000FA050CED00E00A
:101A90007047000029B1064A52690243044B5A615B
:101AA00004E0034A52698243014B5A6170470000C7
:101AB0000010024029B1064AD2690243044BDA61A0
:101AC00004E0034AD2698243014BDA6170470000A7
:101AD0000010024029B1064A92690243044B9A6100
:101AE00004E0034A92698243014B9A617047000007
:101AF0000010024010B500F043F84FF4803000F0C1
:101B000001F900F05DF90446012C38D11020FFF7EF
:101B1000D1FB0220FFF7ECFB002000F0E7F80020EB
:101B200000F022F9A00200F013F94FF4E0112004B4
:101B300000F02CF9012000F023F900BF392000F05B
:101B4000AFF80028FAD0022000F02EF900BF00F014
:101B5000C5F80828FBD101213C20FFF7BBFF01217C
:101B60000846FFF7B7FF01218803FFF7B3FF012104
:101B70000846FFF78FFF01214802FFF7ABFF10BDBA
:101B80000F48006840F001000D49086008464068B1
:101B90000C4908400A494860084600680A4908405C
:101BA000074908600846006820F48020086008465D
:101BB000406820F4FE0048604FF41F0088607047C2
:101BC000001002400000FFF8FFFFF6FE30B50021D4
:101BD0000022002400232D4D6D6805F00C0121B179
:101BE000042905D0082923D105E0294D056022E00C
:101BF000274D05601FE0254D6D6805F47012234DDB
:101C00006D6805F48034022505EB92421CB9214D24
:101C1000554305600BE01D4D6D6815F4003F03D082
:101C20001C4D5543056002E0194D5543056002E027
:101C3000174D056000BF00BF144D6D6805F0F00141
:101C40000909154D6B5C0568DD4045600F4D6D68F9
:101C500005F4E061090A104D6B5C4568DD40856064
:101C60000A4D6D6805F46051C90A0B4D6B5C4568FF
:101C7000DD40C560054D6D6805F44041890B074D99
:101C80006B5CC568B5FBF3F5056130BD0010024023
:101C9000808D5B00C0C62D000000002010000020D9
:101CA00010B501460022002300204A11012A02D16A
:101CB000094C236806E0022A02D1074C236A01E09E
:101CC000054C636A01F01F02012494401C4201D0BC
:101CD000012000E0002010BD0010024002484068D2
:101CE00000F00C0070470000001002400146002088
:101CF000034A506820F0F00008435060704700002D
:101D0000001002401149096821F480310F4A116026
:101D10001146096821F480211160B0F5803F03D09D
:101D2000B0F5802F0ED106E00849096841F48031F2
:101D3000064A116007E00549096841F4A021034AF9
:101D4000116000E000BF00BF7047000000100240BB
:101D500001460020034A506820F4E06008435060C8
:101D6000704700000010024001460020034A5068FE
:101D700020F4605040EAC1005060704700100240FB
:101D800001490866704700000000424202460020F8
:101D9000044B586820F47C1042EA01031843014BBD
:101DA000586070470010024001460020034A506806
:101DB00020F003000843506070470000001002400C
:101DC00038B5002000900024002500BF3120FFF727
:101DD00067FF05460098401C00900098B0F5A06F82
:101DE00001D0002DF2D03120FFF75AFF08B10124B5
:101DF00000E00024204638BD704710B500F002F81E
:101E000010BD00000CB50020019000903248006821
:101E100040F480303049086000BF2F48006800F46B
:101E2000003000900198401C0190009818B901986A
:101E3000B0F5A06FF1D12848006810F4003F02D03F
:101E40000120009001E0002000900098012842D17C
:101E50002248006840F010002049086008460068E9
:101E600020F0030008600846006840F002000860A7
:101E70001948406818494860084640684860084664
:101E8000406840F4806048600846406820F47C1058
:101E900048600846406840F4E8104860084600681A
:101EA00040F08070086000BF0B48006810F0007FB1
:101EB000FAD00948406820F0030007494860084606
:101EC000406840F00200486000BF0348406800F0EE
:101ED0000C000828F9D10CBD00100240002002407F
:101EE00030B503460C4600201946224605E011F89D
:101EF000015B02F8015B451CA8B20D78002DF6D1FC
:101F0000157030BD2DE9F04106460D462C4637468A
:101F10002846FFF7B5FB04443046FFF7B1FB804687
:101F200018F1010001D1BDE8F08103E017F8010BC1
:101F300004F8010B5FEA0800A8F10108F6D104F8E3
:101F4000010B00BFEFE710B500F052FA10BD000022
:101F500010B51348006840F00100114908600846B8
:101F60004068104908400E494860084600680E491C
:101F700008400B4908600846006820F4802008608B
:101F80000846406820F4FE0048604FF41F00886057
:101F9000FFF733FF4FF000600449086010BD0000F8
:101FA000001002400000FFF8FFFFF6FE08ED00E021
:101FB00010B50121044800F00CF818B101210248C5
:101FC00000F004F810BD000000040040CA43028283
:101FD000704730B50246002000230024158A05EA28
:101FE0000103958905EA010413B10CB1012000E059
:101FF000002030BD4FF400611F48FFF73DFB4FF458
:102000007A7000F091FA36E04FF400611A48FFF759
:1020100033FB642000F088FA4FF400611648FFF7A4
:102020002DFB4FF4617000F07FFA1448007810B374
:102030000020124908704FF400610F48FFF71CFBA5
:102040000A2000F071FA4FF400610B48FFF716FB0D
:102050000A2000F069FA4FF400610748FFF70CFB13
:102060000A2000F061FA4FF400610348FFF706FB15
:102070000A2000F059FAC7E7000C01407000002068
:102080001CB521A103C9CDE900013CE00821684647
:1020900000F0ECFD4FF47A726421002000F074FE31
:1020A000C6B2142E2BDD1A480078022827D1184812
:1020B0004078032823D11648807864281FDA01204D
:1020C0001449087012488078001D11490C5C4FF6C5
:1020D000FF7000EA042408468078C01C085C0443B2
:1020E00008468078C11C0A4800F092F80546A542CF
:1020F00005D1074882780849C01CFEF708FB4FF459
:102100007A7000F011FAC1E7020300000022C5E076
:102110007400002070000020401B0020A2B0FF20AF
:102120000490002403E036480455601CC4B2642CBB
:10213000F9DB012104A8FFF7B3F99DF81000FFF7C0
:10214000F5FA012003460222FE21009005A8FFF7C0
:102150000DFB54E064212B48FEF750FC642211462D
:10216000002000F0C7FEC4B205AA21462548FFF7AB
:1021700094FBC4B29DF8220000283BD19DF81700C3
:10218000072823D2DFE800F00C0B0D0E0F2104000E
:1021900009A91D480068FFF7A3FEC4B218E017E0C4
:1021A00016E015E014E01748055D0146601C0C5C64
:1021B000642D09DAC5F16400A04205DD1049481913
:1021C000224609A9FEF7A3FA02E001E0002400BFBD
:1021D00000BF09A801210B460A46CDE90104009180
:1021E00005A90A48FFF7CDFAC4B22146074800F016
:1021F000BFFE04E09DF82200062800D000BFA9E73A
:10220000401B00203C0100206C000020A0010020A9
:10221000F0B502460C46FF21FF2500260BE012F820
:10222000017B87EA0503084FFF5C87EA0105074F3A
:10223000F95C771CBEB2A642F1DB08464FF6FF7789
:1022400007EA00202843F0BD643B0008643C000816
:1022500010B50246002002E012F8013B58400B0086
:10226000A1F10104A1B2F7D110BD000010B51048D2
:102270000078042804D00F480078401C0D490870ED
:102280000D480078401C0C49087008460078642806
:102290000DDD002008701423084A0648017808481C
:1022A000FFF72EF90749087000200249087010BD99
:1022B0005C00002050000020480000204900002061
:1022C0004C0000200402002010B502201D49487077
:1022D000002425E0002004EB840101EBC4011A4A2C
:1022E00002EB8101088104EB840101EBC40102EBE4
:1022F0008101886104EB840101EBC40142F82100F3
:1023000004EB840101EBC40102EB8101086204EBE0
:10231000840101EBC40102EB81018884601CC4B21A
:10232000052CD7DB04200949087000200849086003
:1023300008498873084BFF224FF47A71054800F072
:10234000A7FB10BD04020020180200205C00002042
:10235000640000208C1A0020F52A0008FFF7B1F96C
:1023600004E0FFF7C7F9642000F0DEF8F9E70000A9
:1023700038B51849B1F1807F00D31DE021F07F40CE
:10238000401E4FF0E022506150170F22002807DA5C
:1023900013071D0E104B00F00F04241F1D5503E002
:1023A00013071C0E0D4B1C5400BF00204FF0E02201
:1023B00090610720106100BF4FF47A7008A30022DB
:1023C0000A490090042000F045F8042000F0A0FA2B
:1023D00038BD00004019010018ED00E000E400E005
:1023E0005461736B526F6F74000000005D2300082E
:1023F00010B5FFF73BFF00F07BF90D48407810283F
:1024000005D103210BA0FEF723FCFFF799F9104833
:102410008089401C0E498881084680890989884244
:1024200005DD0B490869804700200949888110BDF6
:10243000040200205461736B2054696D654F7574FC
:102440002057696C6C20544F53205265736574009B
:102450008C1A00202DE9F04304460D4690461E4696
:10246000079F0DB9BDE8F08304EB840000EBC400C6
:102470002A4901EB8000808CA8B9294800683844BB
:102480002749086004EB840101EBC401234A02EBF5
:1024900081018F842248006804EB840101EBC401B0
:1024A00002EB8101086204EB840202EBC4021B4BC5
:1024B00003EB8202918C04EB840202EBC40203EB77
:1024C0008202126A174BD01800F0C2FA814602202D
:1024D00004EB840101EBC401104A02EB8101088185
:1024E00004EB840000EBC400114601EB8000456062
:1024F00004EB840000EBC40001EB8000066342465D
:102500002946484600F0CCF904EB840101EBC401F4
:10251000024A42F8210000BFA4E700001802002090
:10252000640000201C03002010B5044615484078C4
:10253000012822D000201449097801EB810202EB26
:10254000C101124A02EB810188610F48007800EB5B
:10255000800101EBC000114601EB800044610820BE
:102560000949097801EB810202EBC101074A02EB3C
:102570008101088100F016FA02E02046FEF7BAF861
:1025800010BD0000040200205C00002018020020A2
:1025900001460C4800EB4110007A08B90020704752
:1025A000084800EB41104079074A1278904201D068
:1025B0000020F4E70120034A02EB4112107200BF31
:1025C000EDE70000A01A00205C00002070B5044672
:1025D0000D4600BF1B4800EB4410007A30B10128C3
:1025E00014D0022804D003282AD11CE0002070BD9A
:1025F000144800EB4410407913490978884201D10E
:102600000120F4E7204600F09DFAE3E702200D499F
:1026100001EB441108720C4800780A4901EB44119F
:1026200048710120E3E70220064901EB44110872DA
:1026300005480078034901EB441148710120D6E7B1
:102640000020D4E7A01A00205C00002001460529E4
:1026500001DB0020704701EB810000EBC100024A62
:1026600002EB80000089F5E7180200202DE9F04711
:102670000646884691469A46052E01DBBDE8F0875E
:1026800006EB860000EBC600184901EB8004E06A07
:1026900000B9F3E794F8290094F82710884220DA6B
:1026A00004F127046078A1780844217890FBF1F2C6
:1026B00001FB1200C7B214F82709B84200DCDDE7BD
:1026C000E06A00EBC70585F800804A465046696815
:1026D000FEF71DF885F8019094F82900401C84F855
:1026E0002900304600F098F800BFC7E71802002024
:1026F000002088E000EB800101EBC001444A02EBBE
:1027000081010989022906D0082924D010294FD037
:10271000202974D172E000EB800101EBC0013C4A3A
:1027200002EB81018969491C00EB800202EBC002C7
:10273000374B03EB8202916100EB800101EBC0019A
:102740001A4602EB81018969B1F5FA5F02D91021BD
:10275000304A517054E0002100EB800202EBC002CD
:102760002B4B03EB8202916100EB800101EBC00176
:102770001A4602EB8101496941B9022100EB80024E
:1027800002EBC00203EB8202118110E000EB80013A
:1027900001EBC0011E4A02EB81014969491E00EBB1
:1027A000800202EBC0021A4B03EB8202516127E068
:1027B00000EB800101EBC001154A02EB8101C96900
:1027C00049B9022100EB800202EBC002104B03EB7F
:1027D0008202118110E000EB800101EBC0010C4A84
:1027E00002EB8101C969491E00EB800202EBC002C5
:1027F000074B03EB8202D16102E000E000E000BF82
:1028000000BF411CC8B20528FFF674AF7047000036
:102810001802002004020020052800DB704700EBAE
:10282000800101EBC001084A02EB810109890829F6
:1028300008D0082100EB800202EBC002024B03EB40
:102840008202118100BFE9E71802002010B504469A
:102850000F480078A04200D110BD0D48007800EB71
:10286000800101EBC0000B4901EB80000A490860C0
:1028700007480470007800EB800101EBC0000549B7
:1028800051F8200005490860FDF70CFF00BFE3E7A1
:102890005C00002018020020580000205400002096
:1028A00030B503461846041F20462160041F204609
:1028B00023600025041F20462560041F2046256054
:1028C000041F20462560041F20462560041F204663
:1028D0002560041F20462560041F20462560041F34
:1028E00020462560041F20462560041F20462560E1
:1028F000041F20462560041F20462560041F204633
:1029000022604FF08075041F2046256030BD000016
:1029100010B5044604EB840000EBC400034951F8F1
:10292000200003490860FDF7D6FE10BD1802002004
:102930005400002010B50446052C00DB10BD04EB4C
:10294000840000EBC400164901EB800000890828D0
:1029500001D1012000E0002004EB840101EBC4015F
:102960000F4A02EB81010989022901D1012100E00E
:102970000021084312D0042004EB840101EBC401C0
:10298000074A02EB81010881002004EB840101EB7E
:10299000C40102EB8101486100F004F800BFCDE7FB
:1029A0001802002010B502212648A0F8D8100024F3
:1029B00044E004EB840000EBC400224901EB8000FA
:1029C0000089022806D008280CD010280BD0202817
:1029D00030D109E01C480078A04202D02046FFF721
:1029E00035FF10BD27E026E004EB840000EBC400B7
:1029F000144901EB800090F82600144901EB4010C7
:102A0000007A012815D1082004EB840101EBC401F0
:102A10000C4A02EB81010881032004EB840101EBE5
:102A2000C40102EB810191F82610084A02EB411122
:102A3000087200E000BF00BF601CC4B2052CB8DB08
:102A400000BFCEE7180200205C000020A01A002082
:102A50000246501820F00303A3F1340020F00700D1
:102A60007047000010B5102200EB800303EBC00399
:102A7000064C04EB83031A8100EB800202EBC002D8
:102A8000234603EB8202D16110BD00001802002032
:102A900070B504460D46164601221449887B00286D
:102AA00016DD0AE04968002A07DD0878904202D066
:102AB0002270002201E0501CC2B248680028F1D107
:102AC000002A00DD22700A480078A0734C6005E0FF
:102AD0000C460020207006480078A073258166818E
:102AE0000020A08123616060207870BD8C1A0020D6
:102AF0005C00002012481EE04068817B11F0400F0E
:102B000019D04189002916DD81890289914203DAB1
:102B10008189491C81810EE04189FF2902DA4189BE
:102B2000491E41814189002901DD00218181817B8C
:102B300041F08001817341680029DDD170470000B8
:102B40008C1A002010B504460C48007800EB800178
:102B500001EBC0000A4901EB800080F826402020EC
:102B60000649097801EB810202EBC101044A02EB3C
:102B700081010881FFF716FF10BD00005C000020F6
:102B8000180200201FB500F09DF801218803FEF710
:102B9000A1FF4FF4165000900020ADF80400ADF8EE
:102BA0000600ADF80800ADF80C000C20ADF80A00E6
:102BB00069460A4800F056FA012240F225510748BA
:102BC00000F02BFA0121054800F0E8F9012000F09F
:102BD000C5F84021014800F0D8F91FBD0038014078
:102BE00000B58DB0FFF7CEFF01210846FEF752FF7A
:102BF0000E208DF8300003208DF8310002208DF872
:102C0000320001208DF833000CA8FEF7FDFE1448B9
:102C1000FDF750FF134801901348029010200390D5
:102C200064200490002005908020069000200790EA
:102C3000089009904FF400500A9000200B9001A9D1
:102C40000748FDF7E6FF012202210548FDF7D8FFFE
:102C5000012280210348001F00F0ACF90DB000BD37
:102C60004400024004380140D800002070B50446FA
:102C70000D4600210F480078FFF7A8FC0646C6B1B4
:102C80000D4800780D4908700D48046585640121E0
:102C90000B484430FDF702FF08480078FFF74AFE72
:102CA000002107484430FDF7F9FE02480078FFF79D
:102CB0006FFC70BD140000205C0000201600002096
:102CC0000000024008B501210520FEF703FF4FF484
:102CD0000070ADF8000003208DF8020018208DF878
:102CE000030069460748FEF728FC4FF48060ADF802
:102CF000000004208DF8030069460248FEF71DFC21
:102D000008BD00000008014010B540F225510E48F2
:102D100000F059F9B0B10C48001D0088C4B20B484E
:102D200000880B49098888420CDA08480188008825
:102D3000401C064A1080074844540A21064800787F
:102D4000FFF790FE10BD0000003801401A0000207F
:102D500018000020740000201700002038B5044639
:102D60004FF48060FEF78AFE25208DF800000220D7
:102D70008DF8010001208DF802008DF803406846AF
:102D8000FEF742FE38BD00002DE9F04107460D4632
:102D90001446002112480078FFF718FC064601206F
:102DA000FFF7DCFFC6B10F4800780F4908700F48E5
:102DB000058000200E4908801CB12046FFF7B4FBB7
:102DC00003E009480078FFF7B5FD05480078FFF7F4
:102DD000DFFB0020FFF7C2FF05480088BDE8F08157
:102DE000150000205C0000201700002018000020C3
:102DF0001A00002000B587B001210420FEF76AFE0A
:102E00000420ADF8140003208DF8160018208DF86A
:102E1000170005A92048FEF790FB0820ADF8140024
:102E200004208DF8170005A91B48FEF786FB012139
:102E30004804FEF73FFE4FF4165001900020ADF815
:102E40000800ADF80A00ADF80C00ADF810000C2039
:102E5000ADF80E0001A9114800F004F9012240F27A
:102E600025510E4800F0D9F801210C4800F096F8E1
:102E70004FF48060FEF702FE26208DF81800022035
:102E80008DF8190001208DF81A008DF81B0006A896
:102E9000FEF7BAFD07B000BD000801400044004045
:102EA00010B540F225510E4800F08DF8B0B10C4835
:102EB000001D0088C4B20B4800880B49098888426D
:102EC0000CDA084801880088401C064A1080074830
:102ED0004454642106480078FFF7C4FD10BD00008B
:102EE000004400402A000020260000203C01002071
:102EF000290000202DE9F04107460D461446002127
:102F00000F480078FFF762FB0646AEB10D48007827
:102F10000D4908700D48058000200D4908801CB13E
:102F20002046FFF701FB03E007480078FFF702FDAA
:102F300003480078FFF72CFB05480088BDE8F081C6
:102F4000250000205C000020290000202600002031
:102F50002A00002000BF0549098811F0800FFAD02F
:102F6000C0F30801014A121D11807047004400405F
:102F700030B504460D46002304E0E05CFFF7EAFFAD
:102F8000581C83B2AB42F8DB30BD01F40072B2F5DD
:102F9000007F00D100BFCA430280704721B18289FF
:102FA00042F40052828104E082894DF6FF731A4098
:102FB000828170471AB1838A0B43838202E0838A3D
:102FC0008B438382704770B502460024002300259E
:102FD0000020A1F510666A3E00D100BFC1F3421582
:102FE00001F01F03012606FA03F3012D02D1968991
:102FF000334006E0022D02D1168A334001E0968A62
:1030000033400C12012606FA04F41688344013B13A
:103010000CB1012000E0002070BDF0B50346002493
:10302000002600250020A1F510676A3F00D100BFEF
:103030001846C1F3421401F01F06012707FA06F5EE
:10304000012C01D10C3004E0022C01D1103000E041
:1030500014301AB107682F43076002E00768AF43D6
:103060000760F0BD2DE9F04786B005460E46002406
:10307000A24600BFA1460027B08900B100BF2F467D
:103080002C8A4CF6FF700440F08804432C82AC89F3
:103090004EF6F3100440B088318908437189084323
:1030A0000443AC81AC8A4FF6FF400440B08904432E
:1030B000AC8201A8FEF78AFD1F48874202D1DDF8E5
:1030C00010A001E0DDF80CA0A88910F4004F08D092
:1030D0000AEBCA0000EB0A1031684900B0FBF1F8B6
:1030E00007E00AEBCA0000EB0A1031688900B0FB68
:1030F000F1F86420B8FBF0F004012009642101FB21
:103100001089A88910F4004F08D0322000EBC900C4
:10311000B0FBF1F000F00700044308E0322000EBC0
:1031200009106421B0FBF1F000F00F0004432C8182
:1031300006B0BDE8F08700000038014010B50B462E
:10314000002108E000BF048814F0800FFBD05C5C15
:1031500084804C1CA1B29142F4DB10BD10B54FF439
:103160008020FEF7A1F810BD00B585B002210C4803
:10317000FDF734FB90B102210948FDF7DBFA6A46FE
:1031800000210748FDF7BAFB9DF8090030B96B46EE
:103190001422002103480078FFF768FA05B000BD4B
:1031A000006400402100002000BFFEE770470000DF
:1031B00070B506460C4615460A4800780A4908705C
:1031C0000A4804658564012108484430FDF766FC1F
:1031D00005480078FFF7AEFB002104484430FDF7B6
:1031E0005DFC70BD5C000020160000200000024065
:1031F00037B514460846064B6A46214600F0C8F823
:1032000004466946002000F066FC20463EBD0000F2
:10321000D73A000802E008C8121F08C1002AFAD1F4
:1032200070477047002001E001C1121F002AFBD146
:10323000704700002DE9FF5FDDE90220010DDDF898
:1032400038B0024310D10F9801244CA2012808D0B5
:10325000002100980F9BC0E90021C0E90243BDE8AE
:10326000FF9F6FEA0B01F4E7A1F2FF3144F6105023
:1032700041430D140F9801280ED0A5EB0B00401C04
:103280004FF000043E4EDFF8FC90B0F1000AA0467B
:1032900005DACAF1000717E0CBF10000F0E70746B6
:1032A00012E0F80707D02246334640464946FDF76C
:1032B00002F8804689462246334610461946FCF7F6
:1032C000FAFF04460E467F10002FEAD1DDE9020125
:1032D000BAF1000F42464B4602DAFCF7ECFF01E080
:1032E000FDF75BF804460E460022274BFDF7B4F9C4
:1032F00003D84FF0FF30014607E00022234B204661
:103300003146FCF731FFFDF78EF9102409E0002C5F
:103310000ADB0A220023FDF7C5F8019B30321A555B
:10332000641E50EA0102F2D1641C019AC4F1110337
:1033300014440F9A012A09D00122084301D15B45A8
:103340000FDD4FF0000205F101050DE0084303D148
:10335000A3EB0B056D1E09E000204FF0110B0F9041
:1033600088E701DA00226D1E002A83D000980F99A9
:10337000C0E90231C0E9004571E7000030000000FB
:10338000000024400000F03F0000F0430000E03F58
:103390002DE9FF4F95B09B4689460646002512E26F
:1033A000252878D10024761CF94A27460121059466
:1033B0003378203B01FA03F0104202D00443761C1C
:1033C000F6E730782A2811D06FF02F033078A0F17B
:1033D0003002092A16D8059A44F0020402EB820250
:1033E00003EB42021044761C0590EFE759F8042BDA
:1033F0000592002A03DA504244F40054059044F048
:103400000204761C30782E2816D116F8010F44F0ED
:1034100004042A280DD06FF02F023078A0F1300379
:10342000092B09D807EB870302EB4303C718761C67
:10343000F3E759F8047B761C30786C280FD006DC53
:103440004C2817D068280DD06A2814D104E07428BD
:1034500010D07A280FD10DE044F400140AE044F4AF
:10346000801401E044F440147278824202D1761C48
:1034700004F58014761C307866280BD013DC5828AD
:1034800077D009DC002875D04528F6D04628F4D03E
:1034900047281AD19FE118E0632835D0642879D0F5
:1034A000652812D197E1702873D008DC6728F1D025
:1034B00069286FD06E280DD06F2806D1B5E073282B
:1034C0002CD0752875D0782874D05A461799904713
:1034D0006D1C76E1C4F30250022809D003280DD0F8
:1034E000D9F8001004280DD00D6009F1040968E135
:1034F000D9F80010EA17C1E90052F6E7D9F8001030
:103500000D80F2E70D70F0E719F8041B8DF800103C
:1035100000208DF80100EA46012003E059F804ABD1
:103520004FF0FF3061074FF0000102D40DE008F1C9
:1035300001018846B9420FDA8045F8DB1AF8081015
:103540000029F4D108E008F1010188468142FADB44
:103550001AF808100029F6D105985B46A0EB080779
:1035600021463846179A00F09EFA284400EB0805D9
:1035700007E04DE02BE10DE01AF8010B5A461799D0
:103580009047B8F10108F7D25B4621463846179AB2
:1035900014E142E00A220092C4F302524FF0000A02
:1035A000022A08D059F804CB032A4FEAEC710AD05A
:1035B0000DE029E02AE009F1070121F00702F2E815
:1035C00002C1914609E00FFA8CFC4FEAEC71042A23
:1035D00003D14FFA8CFC4FEAEC71002907DA0A4656
:1035E0000021DCF1000C61EB02012D2202E022053A
:1035F00004D52B228DF80420012203E0E20701D03C
:103600002022F7E7904653E00A2102E010220DE065
:1036100010214FF0000A00910BE010224FF0000A39
:1036200044F004040827009203E008224FF0000A47
:103630000092C4F30252022A05D059F804CB0021AB
:10364000032A08D009E009F1070121F00702F2E896
:1036500002C1914605E01FFA8CFC042A01D10CF04E
:10366000FF0C4FF00008220722D5702827D0009BBE
:1036700083F0100353EA0A0309D15CEA010206D081
:1036800030228DF804208DF8050002229046009B20
:1036900083F0080353EA0A030AD15CEA010201D16C
:1036A000620705D530228DF804204FF001087F1EF7
:1036B000582809D037A003900EA8029013E04022AA
:1036C0008DF804200122E1E737A0F4E75346604675
:1036D000009AFCF7E7FE84460398825C0298A0F10A
:1036E0000100029002705CEA0100EFD1029806A985
:1036F000A1EB000000F1200A600702D524F4803419
:1037000000E00127574502DDA7EB0A0000E000209A
:1037100000EB0A01009005984144A0EB01000590E0
:10372000E00306D45B462146179A059800F0BBF9E2
:103730000544002706E001A85A46C05D1799904746
:103740006D1C7F1C4745F6DBE0030CD55B4621462C
:10375000179A059800F0A7F9054404E030205A466E
:10376000179990476D1C0099481E00900029F5DCC0
:1037700008E0029802995A460078491C029117996C
:1037800090476D1CBAF10001AAF1010AF1DC6BE16E
:103790000928010030313233343536373839616227
:1037A00063646566000000003031323334353637EB
:1037B00038394142434445460000000000F060F9BA
:1037C000054406F10106307800287FF4E9AD19B010
:1037D0002846BDE8F08F620700D4062709F10702EA
:1037E00022F0070CFCE80223E14603F000485FEA00
:1037F000080C02D00FF27C2C0DE05FEA045C02D5CD
:103800000FF2742C07E05FEAC47C02D00FF26C2C3C
:1038100001E0AFF2700C4FF0FF3823F00043CDF819
:1038200050C065280CD006DC452809D046281DD09C
:1038300047283ED13EE0662818D0672839D139E0C4
:103840000021112F01DB112000E0781CCDE90001DF
:1038500006A90EA8FFF7EEFCDDE90F010E9A039111
:103860000021009207F1010A04914EE04FF0004060
:103870000097CDE9011006A90EA8FFF7DBFCDDE9F2
:103880000F0203920E9B11990022DDF80CA0009309
:10389000049219B907F1010100EB010AB7EB0A0024
:1038A00004D4C0F1FF3007F1010A0490AAEB07002D
:1038B000019046E0012F00DA01270021112F01DDE0
:1038C000112000E03846CDE9000106A90EA8FFF757
:1038D000B1FCDDE90F010E9A0391002104910092E1
:1038E000BA4621070CD40399514500DA8A46BAF149
:1038F000010F05DD009AAAF10101515C302908D0C1
:10390000B84202DA10F1040F06DA0121CDE9011004
:1039100017E0AAF10101E9E7002805DC0499014458
:103920000491AAEB000102E0411C514500DD8A46EA
:103930000499A0EB010000F1010001904FF000405C
:103940000290200704D40198504501DBCDF8048093
:1039500000208DF84F0002980DF14F07B0F1004F95
:1039600025D02B200E9002984FF0020800280CDA88
:10397000404202902D200E9007E00A210298FCF7A9
:103980007BFD3031029007F8011DB8F10001A8F16C
:103990000108F2DC02980028EFD1791E0E98087019
:1039A000307800F0200040F0450007F8020D12A822
:1039B000A0EB070000F107081498007800B101207F
:1039C00000EB0A01019801EBE07105984144A0EB7E
:1039D0000100A0F101000590E00306D45B462146FA
:1039E000179A059800F05FF805441498007820B104
:1039F0005A461799904705F10105E00323D55B4628
:103A00002146179A059800F04EF805441BE00498EB
:103A1000002807DBDDE90301884203DD0098405CF4
:103A2000179901E0179930205A46904704986D1C69
:103A3000401C04900198401E019004D12E205A464B
:103A4000179990476D1CBAF10001AAF1010ADEDC5A
:103A500005E017F8010B5A46179990476D1CB8F10D
:103A60000001A8F10108F4DC5B462146179A05988D
:103A7000A4E600002D0000002B0000002000000044
:103A80002DE9F041044600251E461746880405D45A
:103A900006E039462020B04705F10105641EF8D53F
:103AA0002846BDE8F0812DE9F041044600251E4678
:103AB0009046C80301D5302700E02027880405D5AB
:103AC00006E041463846B04705F10105641EF8D5C9
:103AD0002846BDE8F0810A68531C0B6010707047DF
:103AE00008B5FEF707F8FDF771F9FDF7F7F9FDF7EF
:103AF0009BF9FDF74BFAFDF7F5FAFDF799FBFEF799
:103B0000E3FB4FF4FA700EA300220F490090104619
:103B1000FEF7A0FC40F2DC500CA300220D490090FF
:103B20000120FEF797FC40F2DC500BA300220C4969
:103B300000900220FEF78EFCFEF71AFC00BFFEE7A5
:103B40005461736B31000000F51F00085461736B02
:103B5000320000001D2100085461736B3300000027
:103B60008120000800C1814001C0804101C0804126
:103B700000C1814001C0804100C1814000C181403D
:103B800001C0804101C0804100C1814000C181402D
:103B900001C0804100C1814001C0804101C080411D
:103BA00000C1814001C0804100C1814000C181400D
:103BB00001C0804100C1814001C0804101C08041FD
:103BC00000C1814000C1814001C0804101C08041ED
:103BD00000C1814001C0804100C1814000C18140DD
:103BE00001C0804101C0804100C1814000C18140CD
:103BF00001C0804100C1814001C0804101C08041BD
:103C000000C1814000C1814001C0804101C08041AC
:103C100000C1814001C0804100C1814000C181409C
:103C200001C0804100C1814001C0804101C080418C
:103C300000C1814001C0804100C1814000C181407C
:103C400001C0804101C0804100C1814000C181406C
:103C500001C0804100C1814001C0804101C080415C
:103C600000C1814000C0C101C30302C2C60607C72C
:103C700005C5C404CC0C0DCD0FCFCE0E0ACACB0B9C
:103C8000C90908C8D81819D91BDBDA1A1EDEDF1FCC
:103C9000DD1D1CDC14D4D515D71716D6D21213D3BC
:103CA00011D1D010F03031F133F3F23236F6F7376C
:103CB000F53534F43CFCFD3DFF3F3EFEFA3A3BFB5C
:103CC00039F9F83828E8E929EB2B2AEAEE2E2FEF0C
:103CD0002DEDEC2CE42425E527E7E62622E2E3237C
:103CE000E12120E0A06061A163A3A26266A6A767AC
:103CF000A56564A46CACAD6DAF6F6EAEAA6A6BAB1C
:103D000069A9A86878B8B979BB7B7ABABE7E7FBF4B
:103D10007DBDBC7CB47475B577B7B67672B2B3733B
:103D2000B17170B0509091519353529296565797EB
:103D3000559594549C5C5D9D5F9F9E5E5A9A9B5BDB
:103D400099595898884849894B8B8A4A4E8E8F4F8B
:103D50008D4D4C8C448485458747468682424383FB
:103D60004181804048656C6C6F2100008C3D0008EB
:103D7000000000207400000014320008003E00081B
:103D800074000020341F00002432000800000000EE
:103D900001020304010203040607080902040608DD
:103DA000FFFF050500000000FF00FFFFFFFFFF30E1
:103DB000FFFF000000000000FF0000000000000006
:103DC00000000000000000000000000000000000F3
:103DD00000000000000000000000000000000000E3
:103DE00000000000000000000000000000000000D3
:103DF0000000000000FFFFFF643D0008000000001D
:0400000508000131BD
:00000001FF
