Component: ARM Compiler 5.06 update 1 (build 61) Tool: armlink [4d35a8]

==============================================================================

Section Cross References

    stm32f10x_adc.o(i.ADC_DeInit) refers to stm32f10x_rcc.o(i.RCC_APB2PeriphResetCmd) for RCC_APB2PeriphResetCmd
    stm32f10x_bkp.o(i.BKP_DeInit) refers to stm32f10x_rcc.o(i.RCC_BackupResetCmd) for RCC_BackupResetCmd
    stm32f10x_can.o(i.CAN_DeInit) refers to stm32f10x_rcc.o(i.RCC_APB1PeriphResetCmd) for RCC_APB1PeriphResetCmd
    stm32f10x_can.o(i.CAN_GetITStatus) refers to stm32f10x_can.o(i.CheckITStatus) for CheckITStatus
    stm32f10x_cec.o(i.CEC_DeInit) refers to stm32f10x_rcc.o(i.RCC_APB1PeriphResetCmd) for RCC_APB1PeriphResetCmd
    stm32f10x_dac.o(i.DAC_DeInit) refers to stm32f10x_rcc.o(i.RCC_APB1PeriphResetCmd) for RCC_APB1PeriphResetCmd
    stm32f10x_flash.o(i.FLASH_EnableWriteProtection) refers to stm32f10x_flash.o(i.FLASH_WaitForLastOperation) for FLASH_WaitForLastOperation
    stm32f10x_flash.o(i.FLASH_EraseAllBank1Pages) refers to stm32f10x_flash.o(i.FLASH_WaitForLastBank1Operation) for FLASH_WaitForLastBank1Operation
    stm32f10x_flash.o(i.FLASH_EraseAllPages) refers to stm32f10x_flash.o(i.FLASH_WaitForLastOperation) for FLASH_WaitForLastOperation
    stm32f10x_flash.o(i.FLASH_EraseOptionBytes) refers to stm32f10x_flash.o(i.FLASH_GetReadOutProtectionStatus) for FLASH_GetReadOutProtectionStatus
    stm32f10x_flash.o(i.FLASH_EraseOptionBytes) refers to stm32f10x_flash.o(i.FLASH_WaitForLastOperation) for FLASH_WaitForLastOperation
    stm32f10x_flash.o(i.FLASH_ErasePage) refers to stm32f10x_flash.o(i.FLASH_WaitForLastOperation) for FLASH_WaitForLastOperation
    stm32f10x_flash.o(i.FLASH_ProgramHalfWord) refers to stm32f10x_flash.o(i.FLASH_WaitForLastOperation) for FLASH_WaitForLastOperation
    stm32f10x_flash.o(i.FLASH_ProgramOptionByteData) refers to stm32f10x_flash.o(i.FLASH_WaitForLastOperation) for FLASH_WaitForLastOperation
    stm32f10x_flash.o(i.FLASH_ProgramWord) refers to stm32f10x_flash.o(i.FLASH_WaitForLastOperation) for FLASH_WaitForLastOperation
    stm32f10x_flash.o(i.FLASH_ReadOutProtection) refers to stm32f10x_flash.o(i.FLASH_WaitForLastOperation) for FLASH_WaitForLastOperation
    stm32f10x_flash.o(i.FLASH_UserOptionByteConfig) refers to stm32f10x_flash.o(i.FLASH_WaitForLastOperation) for FLASH_WaitForLastOperation
    stm32f10x_flash.o(i.FLASH_WaitForLastBank1Operation) refers to stm32f10x_flash.o(i.FLASH_GetBank1Status) for FLASH_GetBank1Status
==============================================================================

Removing Unused input sections from the image.

    Removing misc.o(i.NVIC_SystemLPConfig), (32 bytes).
    Removing misc.o(i.SysTick_CLKSourceConfig), (40 bytes).
    Removing stm32f10x_adc.o(i.ADC_AnalogWatchdogCmd), (20 bytes).
    Removing stm32f10x_adc.o(i.ADC_AnalogWatchdogSingleChannelConfig), (16 bytes).
    Removing stm32f10x_adc.o(i.ADC_AnalogWatchdogThresholdsConfig), (6 bytes).
    Removing stm32f10x_adc.o(i.ADC_AutoInjectedConvCmd), (22 bytes).
    Removing stm32f10x_adc.o(i.ADC_ClearFlag), (6 bytes).
    Removing stm32f10x_adc.o(i.ADC_ClearITPendingBit), (10 bytes).
    Removing stm32f10x_adc.o(i.ADC_DeInit), (92 bytes).
    Removing stm32f10x_adc.o(i.ADC_DiscModeChannelCountConfig), (24 bytes).
    Removing stm32f10x_adc.o(i.ADC_DiscModeCmd), (22 bytes).
    Removing stm32f10x_adc.o(i.ADC_ExternalTrigConvCmd), (22 bytes).
    Removing stm32f10x_adc.o(i.ADC_ExternalTrigInjectedConvCmd), (22 bytes).
    Removing stm32f10x_adc.o(i.ADC_ExternalTrigInjectedConvConfig), (16 bytes).
    Removing stm32f10x_adc.o(i.ADC_GetConversionValue), (8 bytes).
    Removing stm32f10x_adc.o(i.ADC_GetDualModeConversionValue), (12 bytes).
    Removing stm32f10x_adc.o(i.ADC_GetFlagStatus), (18 bytes).
    Removing stm32f10x_adc.o(i.ADC_GetITStatus), (36 bytes).
==============================================================================

Image Symbol Table

    Local Symbols

    Symbol Name                              Value     Ov Type        Size  Object(Section)

    ../clib/microlib/division.c              0x00000000   Number         0  uidiv.o ABSOLUTE
    ../clib/microlib/division.c              0x00000000   Number         0  uldiv.o ABSOLUTE
    ../clib/microlib/errno.c                 0x00000000   Number         0  errno.o ABSOLUTE
    ../clib/microlib/init/entry.s            0x00000000   Number         0  entry11b.o ABSOLUTE
    ../clib/microlib/init/entry.s            0x00000000   Number         0  entry5.o ABSOLUTE
    ../clib/microlib/init/entry.s            0x00000000   Number         0  entry2.o ABSOLUTE
    ../clib/microlib/init/entry.s            0x00000000   Number         0  entry7a.o ABSOLUTE
    ../clib/microlib/init/entry.s            0x00000000   Number         0  entry7b.o ABSOLUTE
    ../clib/microlib/init/entry.s            0x00000000   Number         0  entry8a.o ABSOLUTE
    ../clib/microlib/init/entry.s            0x00000000   Number         0  entry8b.o ABSOLUTE
    ../clib/microlib/init/entry.s            0x00000000   Number         0  entry9a.o ABSOLUTE
    ../clib/microlib/init/entry.s            0x00000000   Number         0  entry9b.o ABSOLUTE
    ../clib/microlib/init/entry.s            0x00000000   Number         0  entry10a.o ABSOLUTE
    ../clib/microlib/init/entry.s            0x00000000   Number         0  entry10b.o ABSOLUTE
    ../clib/microlib/init/entry.s            0x00000000   Number         0  entry11a.o ABSOLUTE
    ../clib/microlib/init/entry.s            0x00000000   Number         0  entry.o ABSOLUTE
    ../clib/microlib/longlong.c              0x00000000   Number         0  llshl.o ABSOLUTE
    ../clib/microlib/longlong.c              0x00000000   Number         0  llushr.o ABSOLUTE
    ../clib/microlib/longlong.c              0x00000000   Number         0  llsshr.o ABSOLUTE
    ../clib/microlib/printf/printf.c         0x00000000   Number         0  printfa.o ABSOLUTE
    ../clib/microlib/stdio/fputc.c           0x00000000   Number         0  fputc.o ABSOLUTE
    ../clib/microlib/stdio/semi.s            0x00000000   Number         0  semi.o ABSOLUTE
    ../clib/microlib/stdio/streams.c         0x00000000   Number         0  stdout.o ABSOLUTE
    ../clib/microlib/stdlib/rand.c           0x00000000   Number         0  rand.o ABSOLUTE
    ../clib/microlib/stubs.s                 0x00000000   Number         0  iusesemip.o ABSOLUTE
    ../clib/microlib/stubs.s                 0x00000000   Number         0  iusefp.o ABSOLUTE
    ../fplib/microlib/d2f.c                  0x00000000   Number         0  d2f.o ABSOLUTE
    ../fplib/microlib/f2d.c                  0x00000000   Number         0  f2d.o ABSOLUTE
    ../fplib/microlib/fpadd.c                0x00000000   Number         0  fadd.o ABSOLUTE
    ../fplib/microlib/fpadd.c                0x00000000   Number         0  dadd.o ABSOLUTE
    ../fplib/microlib/fpdiv.c                0x00000000   Number         0  ddiv.o ABSOLUTE
    ../fplib/microlib/fpdiv.c                0x00000000   Number         0  fdiv.o ABSOLUTE
    ../fplib/microlib/fpepilogue.c           0x00000000   Number         0  fepilogue.o ABSOLUTE
    ../fplib/microlib/fpepilogue.c           0x00000000   Number         0  depilogue.o ABSOLUTE
    ../fplib/microlib/fpfix.c                0x00000000   Number         0  dfixi.o ABSOLUTE
    ../fplib/microlib/fpfix.c                0x00000000   Number         0  dfixul.o ABSOLUTE
    ../fplib/microlib/fpfix.c                0x00000000   Number         0  dfixui.o ABSOLUTE
    ../fplib/microlib/fpfix.c                0x00000000   Number         0  ffixui.o ABSOLUTE
    ../fplib/microlib/fpfix.c                0x00000000   Number         0  ffixi.o ABSOLUTE
    ../fplib/microlib/fpflt.c                0x00000000   Number         0  dfltui.o ABSOLUTE
    ../fplib/microlib/fpflt.c                0x00000000   Number         0  dflti.o ABSOLUTE
    ../fplib/microlib/fpflt.c                0x00000000   Number         0  ffltui.o ABSOLUTE
    ../fplib/microlib/fpflt.c                0x00000000   Number         0  fflti.o ABSOLUTE
    ../fplib/microlib/fpmul.c                0x00000000   Number         0  fmul.o ABSOLUTE
    ../fplib/microlib/fpmul.c                0x00000000   Number         0  dmul.o ABSOLUTE
    ../fplib/microlib/fpscalb.c              0x00000000   Number         0  dscalb.o ABSOLUTE
    ../fplib/microlib/fpsqrt.c               0x00000000   Number         0  dsqrt.o ABSOLUTE
    ../mathlib/asin.c                        0x00000000   Number         0  asin_x.o ABSOLUTE
    ../mathlib/asin.c                        0x00000000   Number         0  asin.o ABSOLUTE
    ../mathlib/atan.c                        0x00000000   Number         0  atan_x.o ABSOLUTE
    ../mathlib/atan.c                        0x00000000   Number         0  atan.o ABSOLUTE
    ../mathlib/atan2.c                       0x00000000   Number         0  atan2.o ABSOLUTE
    ../mathlib/atan2.c                       0x00000000   Number         0  atan2_x.o ABSOLUTE
    ../mathlib/cos_i.c                       0x00000000   Number         0  cos_i.o ABSOLUTE
    ../mathlib/dunder.c                      0x00000000   Number         0  dunder.o ABSOLUTE
    ../mathlib/fpclassify.c                  0x00000000   Number         0  fpclassify.o ABSOLUTE
    ../mathlib/poly.c                        0x00000000   Number         0  poly.o ABSOLUTE
    ../mathlib/qnan.c                        0x00000000   Number         0  qnan.o ABSOLUTE
    ../mathlib/rred.c                        0x00000000   Number         0  rred.o ABSOLUTE
    ../mathlib/sin.c                         0x00000000   Number         0  sin.o ABSOLUTE
    ../mathlib/sin.c                         0x00000000   Number         0  sin_x.o ABSOLUTE
    ../mathlib/sin_i.c                       0x00000000   Number         0  sin_i_x.o ABSOLUTE
    ../mathlib/sin_i.c                       0x00000000   Number         0  sin_i.o ABSOLUTE
    ../mathlib/sqrt.c                        0x00000000   Number         0  sqrt.o ABSOLUTE
    ../mathlib/sqrt.c                        0x00000000   Number         0  sqrt_x.o ABSOLUTE
    ..\Driver\GPIO_Driver.c                  0x00000000   Number         0  gpio_driver.o ABSOLUTE
    ..\Driver\I2C_Driver.c                   0x00000000   Number         0  i2c_driver.o ABSOLUTE
    ..\Driver\SPI_Driver.c                   0x00000000   Number         0  spi_driver.o ABSOLUTE
    ..\Driver\STM32_CPU.c                    0x00000000   Number         0  stm32_cpu.o ABSOLUTE
    ..\Driver\Usart_Driver.c                 0x00000000   Number         0  usart_driver.o ABSOLUTE
    ..\FuncTask\ComKeyBoard.c                0x00000000   Number         0  comkeyboard.o ABSOLUTE
    ..\FuncTask\Func_Face.c                  0x00000000   Number         0  func_face.o ABSOLUTE
    ..\Libraries\CMSIS\CM3\CoreSupport\core_cm3.c 0x00000000   Number         0  core_cm3.o ABSOLUTE
    ..\Libraries\CMSIS\CM3\DeviceSupport\ST\STM32F10x\stm32f10x_it.c 0x00000000   Number         0  stm32f10x_it.o ABSOLUTE
    ..\Libraries\CMSIS\CM3\DeviceSupport\ST\STM32F10x\system_stm32f10x.c 0x00000000   Number         0  system_stm32f10x.o ABSOLUTE
    ..\Libraries\STM32F10x_StdPeriph_Driver\src\misc.c 0x00000000   Number         0  misc.o ABSOLUTE
    ..\Libraries\STM32F10x_StdPeriph_Driver\src\stm32f10x_adc.c 0x00000000   Number         0  stm32f10x_adc.o ABSOLUTE
    ..\Libraries\STM32F10x_StdPeriph_Driver\src\stm32f10x_bkp.c 0x00000000   Number         0  stm32f10x_bkp.o ABSOLUTE
    ..\Libraries\STM32F10x_StdPeriph_Driver\src\stm32f10x_can.c 0x00000000   Number         0  stm32f10x_can.o ABSOLUTE
    ..\Libraries\STM32F10x_StdPeriph_Driver\src\stm32f10x_cec.c 0x00000000   Number         0  stm32f10x_cec.o ABSOLUTE
    ..\Libraries\STM32F10x_StdPeriph_Driver\src\stm32f10x_crc.c 0x00000000   Number         0  stm32f10x_crc.o ABSOLUTE
    ..\Libraries\STM32F10x_StdPeriph_Driver\src\stm32f10x_dac.c 0x00000000   Number         0  stm32f10x_dac.o ABSOLUTE
    ..\Libraries\STM32F10x_StdPeriph_Driver\src\stm32f10x_dbgmcu.c 0x00000000   Number         0  stm32f10x_dbgmcu.o ABSOLUTE
    ..\Libraries\STM32F10x_StdPeriph_Driver\src\stm32f10x_dma.c 0x00000000   Number         0  stm32f10x_dma.o ABSOLUTE
    ..\Libraries\STM32F10x_StdPeriph_Driver\src\stm32f10x_exti.c 0x00000000   Number         0  stm32f10x_exti.o ABSOLUTE
    ..\Libraries\STM32F10x_StdPeriph_Driver\src\stm32f10x_flash.c 0x00000000   Number         0  stm32f10x_flash.o ABSOLUTE
    ..\Libraries\STM32F10x_StdPeriph_Driver\src\stm32f10x_fsmc.c 0x00000000   Number         0  stm32f10x_fsmc.o ABSOLUTE
    ..\Libraries\STM32F10x_StdPeriph_Driver\src\stm32f10x_gpio.c 0x00000000   Number         0  stm32f10x_gpio.o ABSOLUTE
    ..\Libraries\STM32F10x_StdPeriph_Driver\src\stm32f10x_i2c.c 0x00000000   Number         0  stm32f10x_i2c.o ABSOLUTE
    ..\Libraries\STM32F10x_StdPeriph_Driver\src\stm32f10x_iwdg.c 0x00000000   Number         0  stm32f10x_iwdg.o ABSOLUTE
    ..\Libraries\STM32F10x_StdPeriph_Driver\src\stm32f10x_pwr.c 0x00000000   Number         0  stm32f10x_pwr.o ABSOLUTE
    ..\Libraries\STM32F10x_StdPeriph_Driver\src\stm32f10x_rcc.c 0x00000000   Number         0  stm32f10x_rcc.o ABSOLUTE
    ..\Libraries\STM32F10x_StdPeriph_Driver\src\stm32f10x_rtc.c 0x00000000   Number         0  stm32f10x_rtc.o ABSOLUTE
    ..\Libraries\STM32F10x_StdPeriph_Driver\src\stm32f10x_sdio.c 0x00000000   Number         0  stm32f10x_sdio.o ABSOLUTE
    ..\Libraries\STM32F10x_StdPeriph_Driver\src\stm32f10x_spi.c 0x00000000   Number         0  stm32f10x_spi.o ABSOLUTE
    ..\Libraries\STM32F10x_StdPeriph_Driver\src\stm32f10x_tim.c 0x00000000   Number         0  stm32f10x_tim.o ABSOLUTE
    ..\Libraries\STM32F10x_StdPeriph_Driver\src\stm32f10x_usart.c 0x00000000   Number         0  stm32f10x_usart.o ABSOLUTE
    ..\Libraries\STM32F10x_StdPeriph_Driver\src\stm32f10x_wwdg.c 0x00000000   Number         0  stm32f10x_wwdg.o ABSOLUTE
    ..\Libraries\Startup\startup_stm32f10x_ld.s 0x00000000   Number         0  startup_stm32f10x_ld.o ABSOLUTE
    ..\Tools\AppConfig.c                     0x00000000   Number         0  appconfig.o ABSOLUTE
    ..\Tools\CheakOut.c                      0x00000000   Number         0  cheakout.o ABSOLUTE
    ..\Tools\DeBug.c                         0x00000000   Number         0  debug.o ABSOLUTE
    ..\Tools\ModBus.c                        0x00000000   Number         0  modbus.o ABSOLUTE
    ..\Tools\Operation.c                     0x00000000   Number         0  operation.o ABSOLUTE
    ..\Tools\StandardModBus.c                0x00000000   Number         0  standardmodbus.o ABSOLUTE
    ..\Tools\Text.c                          0x00000000   Number         0  text.o ABSOLUTE
    ..\Tos\LockCode.c                        0x00000000   Number         0  lockcode.o ABSOLUTE
    ..\Tos\Tos.c                             0x00000000   Number         0  tos.o ABSOLUTE
    ..\Tos\Tos_Device.c                      0x00000000   Number         0  tos_device.o ABSOLUTE
    ..\Tos\Tos_Mema.c                        0x00000000   Number         0  tos_mema.o ABSOLUTE
    ..\Tos\Tos_timer.c                       0x00000000   Number         0  tos_timer.o ABSOLUTE
    ..\Tos\tos_core_a.asm                    0x00000000   Number         0  tos_core_a.o ABSOLUTE
    ..\USER\Main.c                           0x00000000   Number         0  main.o ABSOLUTE
    ..\\Libraries\\CMSIS\\CM3\\CoreSupport\\core_cm3.c 0x00000000   Number         0  core_cm3.o ABSOLUTE
    cdcmple.s                                0x00000000   Number         0  cdcmple.o ABSOLUTE
    cdrcmple.s                               0x00000000   Number         0  cdrcmple.o ABSOLUTE
    cfcmple.s                                0x00000000   Number         0  cfcmple.o ABSOLUTE
    cfrcmple.s                               0x00000000   Number         0  cfrcmple.o ABSOLUTE
    dc.s                                     0x00000000   Number         0  dc.o ABSOLUTE
    handlers.s                               0x00000000   Number         0  handlers.o ABSOLUTE
    init.s                                   0x00000000   Number         0  init.o ABSOLUTE
    RESET                                    0x08005000   Section      236  startup_stm32f10x_ld.o(RESET)
    .ARM.Collect$$$$00000000                 0x080050ec   Section        0  entry.o(.ARM.Collect$$$$00000000)
    .ARM.Collect$$$$00000001                 0x080050ec   Section        4  entry2.o(.ARM.Collect$$$$00000001)
    .ARM.Collect$$$$00000004                 0x080050f0   Section        4  entry5.o(.ARM.Collect$$$$00000004)
    .ARM.Collect$$$$00000008                 0x080050f4   Section        0  entry7b.o(.ARM.Collect$$$$00000008)
    .ARM.Collect$$$$0000000A                 0x080050f4   Section        0  entry8b.o(.ARM.Collect$$$$0000000A)
    .ARM.Collect$$$$0000000B                 0x080050f4   Section        8  entry9a.o(.ARM.Collect$$$$0000000B)
    .ARM.Collect$$$$0000000D                 0x080050fc   Section        0  entry10a.o(.ARM.Collect$$$$0000000D)
    .ARM.Collect$$$$0000000F                 0x080050fc   Section        0  entry11a.o(.ARM.Collect$$$$0000000F)
    .ARM.Collect$$$$00002712                 0x080050fc   Section        4  entry2.o(.ARM.Collect$$$$00002712)
    __lit__00000000                          0x080050fc   Data           4  entry2.o(.ARM.Collect$$$$00002712)
    .text                                    0x08005100   Section       36  startup_stm32f10x_ld.o(.text)
    .text                                    0x08005124   Section        0  rand.o(.text)
    .text                                    0x08005148   Section        0  fadd.o(.text)
    .text                                    0x080051f8   Section        0  fmul.o(.text)
    .text                                    0x0800525c   Section        0  fdiv.o(.text)
    .text                                    0x080052d8   Section        0  dadd.o(.text)
    .text                                    0x08005426   Section        0  dmul.o(.text)
    .text                                    0x0800550a   Section        0  ddiv.o(.text)
    .text                                    0x080055e8   Section        0  fflti.o(.text)
    .text                                    0x080055fa   Section        0  ffltui.o(.text)
    .text                                    0x08005604   Section        0  ffixui.o(.text)
    .text                                    0x0800562c   Section        0  dfixi.o(.text)
    .text                                    0x0800566a   Section        0  f2d.o(.text)
    .text                                    0x08005690   Section        0  d2f.o(.text)
    .text                                    0x080056c8   Section        0  uidiv.o(.text)
    .text                                    0x080056f4   Section        0  uldiv.o(.text)
    .text                                    0x08005756   Section        0  llshl.o(.text)
    .text                                    0x08005774   Section        0  llushr.o(.text)
    .text                                    0x08005794   Section        0  llsshr.o(.text)
    .text                                    0x080057b8   Section        0  fepilogue.o(.text)
    .text                                    0x080057b8   Section        0  iusefp.o(.text)
    .text                                    0x08005826   Section        0  depilogue.o(.text)
    .text                                    0x080058e0   Section        0  dscalb.o(.text)
    .text                                    0x0800590e   Section        0  dsqrt.o(.text)
    .text                                    0x080059b0   Section        0  dfixul.o(.text)
    .text                                    0x080059e0   Section       48  cdrcmple.o(.text)
    .text                                    0x08005a10   Section       36  init.o(.text)
    TOS_CORE_A                               0x08005a34   Section       80  tos_core_a.o(TOS_CORE_A)
    i.ADC1_GPIO_Config                       0x08005a84   Section        0  main.o(i.ADC1_GPIO_Config)
    ADC1_GPIO_Config                         0x08005a85   Thumb Code    42  main.o(i.ADC1_GPIO_Config)
    i.ADC1_Init                              0x08005ab4   Section        0  main.o(i.ADC1_Init)
    i.ADC1_Mode_Config                       0x08005ac4   Section        0  main.o(i.ADC1_Mode_Config)
    ADC1_Mode_Config                         0x08005ac5   Thumb Code   272  main.o(i.ADC1_Mode_Config)
    i.ADC_Cmd                                0x08005bdc   Section        0  stm32f10x_adc.o(i.ADC_Cmd)
    i.ADC_DMACmd                             0x08005bf2   Section        0  stm32f10x_adc.o(i.ADC_DMACmd)
    i.ADC_GetCalibrationStatus               0x08005c08   Section        0  stm32f10x_adc.o(i.ADC_GetCalibrationStatus)
    i.ADC_GetResetCalibrationStatus          0x08005c1c   Section        0  stm32f10x_adc.o(i.ADC_GetResetCalibrationStatus)
    i.ADC_Init                               0x08005c30   Section        0  stm32f10x_adc.o(i.ADC_Init)
    i.ADC_RegularChannelConfig               0x08005c80   Section        0  stm32f10x_adc.o(i.ADC_RegularChannelConfig)
    i.ADC_ResetCalibration                   0x08005d38   Section        0  stm32f10x_adc.o(i.ADC_ResetCalibration)
    i.ADC_SoftwareStartConvCmd               0x08005d42   Section        0  stm32f10x_adc.o(i.ADC_SoftwareStartConvCmd)
    i.ADC_StartCalibration                   0x08005d58   Section        0  stm32f10x_adc.o(i.ADC_StartCalibration)
    i.App_DisCoppy                           0x08005d64   Section        0  lockcode.o(i.App_DisCoppy)
    i.BOOL_LoadConfigs                       0x08005da8   Section        0  main.o(i.BOOL_LoadConfigs)
    i.BRG_RGB                                0x08005de4   Section        0  main.o(i.BRG_RGB)
    i.BareDelay                              0x08005dfa   Section        0  stm32_cpu.o(i.BareDelay)
    i.Beep_A2B                               0x08005e14   Section        0  main.o(i.Beep_A2B)
    i.Beep_DD                                0x08005e38   Section        0  main.o(i.Beep_DD)
    i.Beep_Dot                               0x08005e6c   Section        0  main.o(i.Beep_Dot)
    i.Beep_OFF                               0x08005e70   Section        0  main.o(i.Beep_OFF)
    i.Beep_ON                                0x08005e90   Section        0  main.o(i.Beep_ON)
    i.BufferCoppy                            0x08005ec6   Section        0  text.o(i.BufferCoppy)
    i.BufferFill                             0x08005ee8   Section        0  text.o(i.BufferFill)
    i.BusFault_Handler                       0x08005efe   Section        0  stm32f10x_it.o(i.BusFault_Handler)
    i.CompareWithString                      0x08005f02   Section        0  text.o(i.CompareWithString)
    i.DMA_Cmd                                0x08005f3e   Section        0  stm32f10x_dma.o(i.DMA_Cmd)
    i.DMA_DeInit                             0x08005f58   Section        0  stm32f10x_dma.o(i.DMA_DeInit)
    i.DMA_Init                               0x080060a4   Section        0  stm32f10x_dma.o(i.DMA_Init)
    i.DeBug                                  0x080060e0   Section        0  debug.o(i.DeBug)
    i.DeBug_OutSet                           0x0800626c   Section        0  debug.o(i.DeBug_OutSet)
    i.DebugMon_Handler                       0x08006278   Section        0  stm32f10x_it.o(i.DebugMon_Handler)
    i.DeviceList_Init                        0x0800627c   Section        0  tos_device.o(i.DeviceList_Init)
    i.DeviceList_Printf                      0x080062fc   Section        0  tos_device.o(i.DeviceList_Printf)
    i.DeviceMount_GPIO                       0x080063e4   Section        0  gpio_driver.o(i.DeviceMount_GPIO)
    i.DeviceMount_Moto                       0x080064b0   Section        0  main.o(i.DeviceMount_Moto)
    i.DeviceMount_Uart                       0x0800657c   Section        0  usart_driver.o(i.DeviceMount_Uart)
    i.DeviceMount_Usart                      0x08006744   Section        0  usart_driver.o(i.DeviceMount_Usart)
    i.Device_Init                            0x08006758   Section        0  tos_device.o(i.Device_Init)
    i.Device_Ok                              0x08006810   Section        0  tos_device.o(i.Device_Ok)
    i.EXTI15_10_IRQHandler                   0x08006834   Section        0  main.o(i.EXTI15_10_IRQHandler)
    i.EXTI_ClearITPendingBit                 0x08006950   Section        0  stm32f10x_exti.o(i.EXTI_ClearITPendingBit)
    i.EXTI_Init                              0x0800695c   Section        0  stm32f10x_exti.o(i.EXTI_Init)
    i.Exti_EnableIRQ                         0x080069f0   Section        0  main.o(i.Exti_EnableIRQ)
    i.Exti_IOPort_Init                       0x08006a34   Section        0  main.o(i.Exti_IOPort_Init)
    i.FLASH_ErasePage                        0x08006ab0   Section        0  stm32f10x_flash.o(i.FLASH_ErasePage)
    i.FLASH_GetBank1Status                   0x08006afc   Section        0  stm32f10x_flash.o(i.FLASH_GetBank1Status)
    i.FLASH_Lock                             0x08006b30   Section        0  stm32f10x_flash.o(i.FLASH_Lock)
    i.FLASH_ProgramHalfWord                  0x08006b44   Section        0  stm32f10x_flash.o(i.FLASH_ProgramHalfWord)
    i.FLASH_Unlock                           0x08006b84   Section        0  stm32f10x_flash.o(i.FLASH_Unlock)
    i.FLASH_WaitForLastOperation             0x08006b9c   Section        0  stm32f10x_flash.o(i.FLASH_WaitForLastOperation)
    i.Flash_ReadData                         0x08006bc2   Section        0  appconfig.o(i.Flash_ReadData)
    i.Flash_WriteData                        0x08006bde   Section        0  appconfig.o(i.Flash_WriteData)
    i.FlowPoolFilter                         0x08006c4e   Section        0  text.o(i.FlowPoolFilter)
    i.GPIO_EXTILineConfig                    0x08006c88   Section        0  stm32f10x_gpio.o(i.GPIO_EXTILineConfig)
    i.GPIO_GetIndex                          0x08006cc8   Section        0  gpio_driver.o(i.GPIO_GetIndex)
    i.GPIO_Init                              0x08006d04   Section        0  stm32f10x_gpio.o(i.GPIO_Init)
    i.GPIO_InitList                          0x08006e1c   Section        0  stm32_cpu.o(i.GPIO_InitList)
    i.GPIO_PinRemapConfig                    0x08006ea4   Section        0  stm32f10x_gpio.o(i.GPIO_PinRemapConfig)
    i.GPIO_ReadInputDataBit                  0x08006f34   Section        0  stm32f10x_gpio.o(i.GPIO_ReadInputDataBit)
    i.GPIO_ResetBits                         0x08006f46   Section        0  stm32f10x_gpio.o(i.GPIO_ResetBits)
    i.GPIO_Set                               0x08006f4a   Section        0  gpio_driver.o(i.GPIO_Set)
    i.GPIO_SetBits                           0x08006f68   Section        0  stm32f10x_gpio.o(i.GPIO_SetBits)
    i.GPIO_SetIndex                          0x08006f6c   Section        0  gpio_driver.o(i.GPIO_SetIndex)
    i.GetChar_List                           0x08006fa0   Section        0  debug.o(i.GetChar_List)
    i.GetCodeStr64                           0x08007020   Section        0  stm32_cpu.o(i.GetCodeStr64)
    i.GetData                                0x08007090   Section        0  main.o(i.GetData)
    i.GetKeyBoardValue                       0x080070b8   Section        0  main.o(i.GetKeyBoardValue)
    i.GetTextLength                          0x080070d4   Section        0  text.o(i.GetTextLength)
    i.GetTosTask_Count                       0x080070ec   Section        0  stm32_cpu.o(i.GetTosTask_Count)
    i.HHT21_Read                             0x08007118   Section        0  main.o(i.HHT21_Read)
    i.HardFault_Handler                      0x080071fc   Section        0  stm32f10x_it.o(i.HardFault_Handler)
    i.IAP_ErasePage                          0x08007204   Section        0  stm32_cpu.o(i.IAP_ErasePage)
    i.IAP_Lock                               0x08007210   Section        0  stm32_cpu.o(i.IAP_Lock)
    i.IAP_ProgramHalfWord                    0x08007218   Section        0  stm32_cpu.o(i.IAP_ProgramHalfWord)
    i.IAP_Unlock                             0x08007228   Section        0  stm32_cpu.o(i.IAP_Unlock)
    i.IIC_DelayUs                            0x08007230   Section        0  main.o(i.IIC_DelayUs)
    i.IIC_Pin_In                             0x0800723e   Section        0  main.o(i.IIC_Pin_In)
    IIC_Pin_In                               0x0800723f   Thumb Code    36  main.o(i.IIC_Pin_In)
    i.IIC_Pin_Out                            0x08007262   Section        0  main.o(i.IIC_Pin_Out)
    IIC_Pin_Out                              0x08007263   Thumb Code    36  main.o(i.IIC_Pin_Out)
    i.IIC_ReadAck                            0x08007286   Section        0  main.o(i.IIC_ReadAck)
    i.IIC_RecvByte                           0x080072d2   Section        0  main.o(i.IIC_RecvByte)
    i.IIC_SendAck                            0x08007332   Section        0  main.o(i.IIC_SendAck)
    i.IIC_SendByte                           0x08007372   Section        0  main.o(i.IIC_SendByte)
    i.IIC_Start                              0x080073ca   Section        0  main.o(i.IIC_Start)
    i.IIC_Stop                               0x08007402   Section        0  main.o(i.IIC_Stop)
    i.IMUupdate                              0x0800743c   Section        0  main.o(i.IMUupdate)
    i.IR_Moto                                0x08007a78   Section        0  main.o(i.IR_Moto)
    i.IWDG_Configuration                     0x08007b90   Section        0  stm32_cpu.o(i.IWDG_Configuration)
    i.IWDG_Enable                            0x08007bb4   Section        0  stm32f10x_iwdg.o(i.IWDG_Enable)
    i.IWDG_ReloadCounter                     0x08007bc4   Section        0  stm32f10x_iwdg.o(i.IWDG_ReloadCounter)
    i.IWDG_SetPrescaler                      0x08007bd4   Section        0  stm32f10x_iwdg.o(i.IWDG_SetPrescaler)
    i.IWDG_SetReload                         0x08007be0   Section        0  stm32f10x_iwdg.o(i.IWDG_SetReload)
    i.IWDG_WriteAccessCmd                    0x08007bec   Section        0  stm32f10x_iwdg.o(i.IWDG_WriteAccessCmd)
    i.InitMPU6050                            0x08007bf8   Section        0  main.o(i.InitMPU6050)
    i.Load_AppConfig                         0x08007c30   Section        0  appconfig.o(i.Load_AppConfig)
    i.Load_VoidConfig                        0x08007c4c   Section        0  appconfig.o(i.Load_VoidConfig)
    i.MCU_Reset                              0x08007cb4   Section        0  stm32_cpu.o(i.MCU_Reset)
    i.MUI_GetKey                             0x08007cdc   Section        0  main.o(i.MUI_GetKey)
    i.MemManage_Handler                      0x08007cfe   Section        0  stm32f10x_it.o(i.MemManage_Handler)
    i.Mema_Count                             0x08007d04   Section        0  tos_mema.o(i.Mema_Count)
    i.Mema_Free                              0x08007d20   Section        0  tos_mema.o(i.Mema_Free)
    i.Mema_GetSize                           0x08007d50   Section        0  tos_mema.o(i.Mema_GetSize)
    i.Mema_Init                              0x08007d5c   Section        0  tos_mema.o(i.Mema_Init)
    i.Mema_Malloc                            0x08007d78   Section        0  tos_mema.o(i.Mema_Malloc)
    i.Moto_A                                 0x08007dc4   Section        0  main.o(i.Moto_A)
    i.Moto_AB                                0x08007df2   Section        0  main.o(i.Moto_AB)
    i.Moto_B                                 0x08007e06   Section        0  main.o(i.Moto_B)
    i.Moto_Stop                              0x08007e34   Section        0  main.o(i.Moto_Stop)
    i.NMI_Handler                            0x08007e48   Section        0  stm32f10x_it.o(i.NMI_Handler)
    i.NVIC_Init                              0x08007e4c   Section        0  misc.o(i.NVIC_Init)
    i.NVIC_PriorityGroupConfig               0x08007ebc   Section        0  misc.o(i.NVIC_PriorityGroupConfig)
    i.NVIC_SetVectorTable                    0x08007ed0   Section        0  misc.o(i.NVIC_SetVectorTable)
    i.PWM_Set                                0x08007ee4   Section        0  main.o(i.PWM_Set)
    i.PendSV_Handler                         0x08007f18   Section        0  stm32f10x_it.o(i.PendSV_Handler)
    i.Printf_BoardInfor                      0x08007f1c   Section        0  stm32_cpu.o(i.Printf_BoardInfor)
    i.Printf_LcdType                         0x08007fac   Section        0  stm32_cpu.o(i.Printf_LcdType)
    i.Printf_LockCode                        0x08007fb0   Section        0  stm32_cpu.o(i.Printf_LockCode)
    i.Printf_NandInfor                       0x08007fd4   Section        0  stm32_cpu.o(i.Printf_NandInfor)
    i.Printf_SysInfor                        0x08007fd8   Section        0  stm32_cpu.o(i.Printf_SysInfor)
    i.Printf_TaskInfor                       0x0800801c   Section        0  stm32_cpu.o(i.Printf_TaskInfor)
    i.Printf_TosInfor                        0x0800805c   Section        0  stm32_cpu.o(i.Printf_TosInfor)
    i.PwmTimeInt                             0x080080f0   Section        0  main.o(i.PwmTimeInt)
    i.RCC_AHBPeriphClockCmd                  0x080081e0   Section        0  stm32f10x_rcc.o(i.RCC_AHBPeriphClockCmd)
    i.RCC_APB1PeriphClockCmd                 0x08008200   Section        0  stm32f10x_rcc.o(i.RCC_APB1PeriphClockCmd)
    i.RCC_APB2PeriphClockCmd                 0x08008220   Section        0  stm32f10x_rcc.o(i.RCC_APB2PeriphClockCmd)
    i.RCC_GetClocksFreq                      0x08008240   Section        0  stm32f10x_rcc.o(i.RCC_GetClocksFreq)
    i.RGB_Light                              0x08008314   Section        0  main.o(i.RGB_Light)
    i.RandomADC                              0x0800834c   Section        0  main.o(i.RandomADC)
    i.RandomEYE                              0x08008394   Section        0  main.o(i.RandomEYE)
    i.RandomLight                            0x080083b6   Section        0  main.o(i.RandomLight)
    i.Remap_SWJ_JTAGDisable                  0x080083d8   Section        0  stm32_cpu.o(i.Remap_SWJ_JTAGDisable)
    i.SHT21Init                              0x080083e8   Section        0  main.o(i.SHT21Init)
    i.SHT21_Config                           0x08008400   Section        0  main.o(i.SHT21_Config)
    i.SHT21_Reset                            0x08008430   Section        0  main.o(i.SHT21_Reset)
    i.SVC_Handler                            0x08008460   Section        0  stm32f10x_it.o(i.SVC_Handler)
    i.Save_AppConfig                         0x08008464   Section        0  appconfig.o(i.Save_AppConfig)
    i.Save_VoidConfig                        0x08008480   Section        0  appconfig.o(i.Save_VoidConfig)
    i.SetSysClock                            0x080084ac   Section        0  system_stm32f10x.o(i.SetSysClock)
    SetSysClock                              0x080084ad   Thumb Code     8  system_stm32f10x.o(i.SetSysClock)
    i.SetSysClockTo72                        0x080084b4   Section        0  system_stm32f10x.o(i.SetSysClockTo72)
    SetSysClockTo72                          0x080084b5   Thumb Code   214  system_stm32f10x.o(i.SetSysClockTo72)
    i.Single_ReadI2C                         0x08008594   Section        0  main.o(i.Single_ReadI2C)
    i.Single_WriteI2C                        0x080085e4   Section        0  main.o(i.Single_WriteI2C)
    i.StringEndingAppend                     0x08008620   Section        0  text.o(i.StringEndingAppend)
    i.SysTick_Handler                        0x08008662   Section        0  stm32f10x_it.o(i.SysTick_Handler)
    i.SysTick_Set                            0x0800866c   Section        0  stm32_cpu.o(i.SysTick_Set)
    i.SystemInit                             0x080086c4   Section        0  system_stm32f10x.o(i.SystemInit)
    i.System_Reset                           0x08008724   Section        0  main.o(i.System_Reset)
    i.System_ResetDelay                      0x08008738   Section        0  main.o(i.System_ResetDelay)
    i.System_SaveConfig                      0x08008748   Section        0  main.o(i.System_SaveConfig)
    i.TIM_ARRPreloadConfig                   0x08008760   Section        0  stm32f10x_tim.o(i.TIM_ARRPreloadConfig)
    i.TIM_Cmd                                0x08008778   Section        0  stm32f10x_tim.o(i.TIM_Cmd)
    i.TIM_OC1Init                            0x08008790   Section        0  stm32f10x_tim.o(i.TIM_OC1Init)
    i.TIM_OC1PreloadConfig                   0x08008828   Section        0  stm32f10x_tim.o(i.TIM_OC1PreloadConfig)
    i.TIM_OC2Init                            0x0800883c   Section        0  stm32f10x_tim.o(i.TIM_OC2Init)
    i.TIM_OC2PreloadConfig                   0x080088e0   Section        0  stm32f10x_tim.o(i.TIM_OC2PreloadConfig)
    i.TIM_OC3Init                            0x080088fc   Section        0  stm32f10x_tim.o(i.TIM_OC3Init)
    i.TIM_OC3PreloadConfig                   0x0800899c   Section        0  stm32f10x_tim.o(i.TIM_OC3PreloadConfig)
    i.TIM_OC4Init                            0x080089b0   Section        0  stm32f10x_tim.o(i.TIM_OC4Init)
    i.TIM_OC4PreloadConfig                   0x08008a2c   Section        0  stm32f10x_tim.o(i.TIM_OC4PreloadConfig)
    i.TIM_TimeBaseInit                       0x08008a48   Section        0  stm32f10x_tim.o(i.TIM_TimeBaseInit)
    i.Task0                                  0x08008aec   Section        0  main.o(i.Task0)
    i.Task1                                  0x08008b50   Section        0  main.o(i.Task1)
    i.Task_Arrary                            0x08008bb0   Section        0  func_face.o(i.Task_Arrary)
    i.Task_Gyro                              0x08008c54   Section        0  main.o(i.Task_Gyro)
    i.Task_IR                                0x08008ce0   Section        0  main.o(i.Task_IR)
    i.Task_Join                              0x0800904c   Section        0  func_face.o(i.Task_Join)
    i.Task_KeyBoard                          0x08009070   Section        0  main.o(i.Task_KeyBoard)
    i.Task_LoadConfigs                       0x08009100   Section        0  main.o(i.Task_LoadConfigs)
    i.Task_Moto                              0x08009108   Section        0  main.o(i.Task_Moto)
    i.Task_Power                             0x080091b0   Section        0  main.o(i.Task_Power)
    i.Task_SaveConfigs                       0x08009298   Section        0  main.o(i.Task_SaveConfigs)
    i.TempHmi                                0x080092b8   Section        0  main.o(i.TempHmi)
    i.TestStart                              0x080092e4   Section        0  main.o(i.TestStart)
    i.TestStartt                             0x08009304   Section        0  main.o(i.TestStartt)
    i.ToHex64                                0x080093fc   Section        0  text.o(i.ToHex64)
    i.Tools_GetCRC16                         0x08009428   Section        0  cheakout.o(i.Tools_GetCRC16)
    i.Tos_ComputeCPURate                     0x08009468   Section        0  tos.o(i.Tos_ComputeCPURate)
    i.Tos_GetTaskIDByName                    0x080094c4   Section        0  tos.o(i.Tos_GetTaskIDByName)
    i.Tos_Init                               0x080094fc   Section        0  tos.o(i.Tos_Init)
    i.Tos_ListCreate                         0x08009594   Section        0  tos.o(i.Tos_ListCreate)
    i.Tos_RootTask                           0x080095b4   Section        0  tos.o(i.Tos_RootTask)
    i.Tos_ScanTimer                          0x080095dc   Section        0  tos_timer.o(i.Tos_ScanTimer)
    i.Tos_Start                              0x08009614   Section        0  tos.o(i.Tos_Start)
    i.Tos_SysTick                            0x08009644   Section        0  tos.o(i.Tos_SysTick)
    i.Tos_TaskCreate                         0x0800968c   Section        0  tos.o(i.Tos_TaskCreate)
    i.Tos_TaskCreateFindID                   0x0800975c   Section        0  tos.o(i.Tos_TaskCreateFindID)
    i.Tos_TaskCreateQmsg                     0x080097c0   Section        0  tos.o(i.Tos_TaskCreateQmsg)
    i.Tos_TaskDelay                          0x08009820   Section        0  tos.o(i.Tos_TaskDelay)
    i.Tos_TaskDropDev                        0x08009880   Section        0  tos_device.o(i.Tos_TaskDropDev)
    i.Tos_TaskGetDev                         0x080098c0   Section        0  tos_device.o(i.Tos_TaskGetDev)
    i.Tos_TaskGetHandKey                     0x0800994c   Section        0  main.o(i.Tos_TaskGetHandKey)
    i.Tos_TaskGetQMsg                        0x08009960   Section        0  tos.o(i.Tos_TaskGetQMsg)
    i.Tos_TaskGetQMsgDelay                   0x080099c4   Section        0  tos.o(i.Tos_TaskGetQMsgDelay)
    i.Tos_TaskPutQmsg                        0x08009a28   Section        0  tos.o(i.Tos_TaskPutQmsg)
    i.Tos_TaskReady                          0x08009aa8   Section        0  tos.o(i.Tos_TaskReady)
    i.Tos_TaskRecover                        0x08009b68   Section        0  tos.o(i.Tos_TaskRecover)
    i.Tos_TaskRun                            0x08009b9c   Section        0  tos.o(i.Tos_TaskRun)
    i.Tos_TaskStackInit                      0x08009bf0   Section        0  tos.o(i.Tos_TaskStackInit)
    i.Tos_TaskStart                          0x08009c60   Section        0  tos.o(i.Tos_TaskStart)
    i.Tos_TaskStop                           0x08009c84   Section        0  tos.o(i.Tos_TaskStop)
    i.Tos_TaskSuspend                        0x08009cd0   Section        0  tos.o(i.Tos_TaskSuspend)
    i.Tos_TaskSwitch                         0x08009d4c   Section        0  tos.o(i.Tos_TaskSwitch)
    i.Tos_TaskTcbInit                        0x08009dec   Section        0  tos.o(i.Tos_TaskTcbInit)
    i.Tos_TaskTimeout                        0x08009e00   Section        0  tos.o(i.Tos_TaskTimeout)
    i.Tos_TimerReady                         0x08009e54   Section        0  tos_timer.o(i.Tos_TimerReady)
    i.Tos_WaitDev                            0x08009ea8   Section        0  tos.o(i.Tos_WaitDev)
    i.USART1_IRQHandler                      0x08009ee4   Section        0  usart_driver.o(i.USART1_IRQHandler)
    i.USART2_IRQHandler                      0x08009f44   Section        0  usart_driver.o(i.USART2_IRQHandler)
    i.USART_ClearFlag                        0x08009fa4   Section        0  stm32f10x_usart.o(i.USART_ClearFlag)
    i.USART_ClearITPendingBit                0x08009fb6   Section        0  stm32f10x_usart.o(i.USART_ClearITPendingBit)
    i.USART_Cmd                              0x08009fd4   Section        0  stm32f10x_usart.o(i.USART_Cmd)
    i.USART_Configuration                    0x08009fec   Section        0  usart_driver.o(i.USART_Configuration)
    i.USART_ConfigurationAll                 0x0800a068   Section        0  usart_driver.o(i.USART_ConfigurationAll)
    i.USART_GPIO_Init                        0x0800a0d8   Section        0  usart_driver.o(i.USART_GPIO_Init)
    i.USART_GPIO_InitAll                     0x0800a1a0   Section        0  usart_driver.o(i.USART_GPIO_InitAll)
    i.USART_GetITStatus                      0x0800a1f6   Section        0  stm32f10x_usart.o(i.USART_GetITStatus)
    i.USART_GetIndex                         0x0800a24c   Section        0  usart_driver.o(i.USART_GetIndex)
    i.USART_GetTypeDef                       0x0800a294   Section        0  usart_driver.o(i.USART_GetTypeDef)
    i.USART_ITConfig                         0x0800a2d0   Section        0  stm32f10x_usart.o(i.USART_ITConfig)
    i.USART_Init                             0x0800a31c   Section        0  stm32f10x_usart.o(i.USART_Init)
    i.USART_Read                             0x0800a3f4   Section        0  usart_driver.o(i.USART_Read)
    i.USART_ReadDatas                        0x0800a434   Section        0  usart_driver.o(i.USART_ReadDatas)
    i.USART_Write                            0x0800a4ec   Section        0  usart_driver.o(i.USART_Write)
    i.USART_WriteDatas                       0x0800a50c   Section        0  usart_driver.o(i.USART_WriteDatas)
    i.USBWakeUp_IRQHandler                   0x0800a52e   Section        0  stm32f10x_it.o(i.USBWakeUp_IRQHandler)
    i.UsageFault_Handler                     0x0800a53a   Section        0  stm32f10x_it.o(i.UsageFault_Handler)
    i.WS2812_Close                           0x0800a53e   Section        0  main.o(i.WS2812_Close)
    i.WS2812_Delay                           0x0800a552   Section        0  main.o(i.WS2812_Delay)
    i.WS2812_Open                            0x0800a560   Section        0  main.o(i.WS2812_Open)
    i.WS2812_Write                           0x0800a578   Section        0  main.o(i.WS2812_Write)
    i.WS2812_WriteList                       0x0800a5a0   Section        0  main.o(i.WS2812_WriteList)
    i.WS_Close                               0x0800a60e   Section        0  main.o(i.WS_Close)
    i.WS_Double                              0x0800a61c   Section        0  main.o(i.WS_Double)
    i.__0vsprintf                            0x0800a6a0   Section        0  printfa.o(i.__0vsprintf)
    i.__ARM_fpclassify                       0x0800a6c4   Section        0  fpclassify.o(i.__ARM_fpclassify)
    i.__kernel_poly                          0x0800a6ec   Section        0  poly.o(i.__kernel_poly)
    i.__mathlib_dbl_infnan                   0x0800a796   Section        0  dunder.o(i.__mathlib_dbl_infnan)
    i.__mathlib_dbl_infnan2                  0x0800a79c   Section        0  dunder.o(i.__mathlib_dbl_infnan2)
    i.__mathlib_dbl_invalid                  0x0800a7a0   Section        0  dunder.o(i.__mathlib_dbl_invalid)
    i.__mathlib_dbl_underflow                0x0800a7ac   Section        0  dunder.o(i.__mathlib_dbl_underflow)
    i.__scatterload_copy                     0x0800a7bc   Section       14  handlers.o(i.__scatterload_copy)
    i.__scatterload_null                     0x0800a7ca   Section        2  handlers.o(i.__scatterload_null)
    i.__scatterload_zeroinit                 0x0800a7cc   Section       14  handlers.o(i.__scatterload_zeroinit)
    i.__set_errno                            0x0800a7dc   Section        0  errno.o(i.__set_errno)
    i._fp_digits                             0x0800a7e8   Section        0  printfa.o(i._fp_digits)
    _fp_digits                               0x0800a7e9   Thumb Code   334  printfa.o(i._fp_digits)
    i._printf_core                           0x0800a94c   Section        0  printfa.o(i._printf_core)
    _printf_core                             0x0800a94d   Thumb Code  1744  printfa.o(i._printf_core)
    i._printf_post_padding                   0x0800b028   Section        0  printfa.o(i._printf_post_padding)
    _printf_post_padding                     0x0800b029   Thumb Code    36  printfa.o(i._printf_post_padding)
    i._printf_pre_padding                    0x0800b04c   Section        0  printfa.o(i._printf_pre_padding)
    _printf_pre_padding                      0x0800b04d   Thumb Code    46  printfa.o(i._printf_pre_padding)
    i._sputc                                 0x0800b07a   Section        0  printfa.o(i._sputc)
    _sputc                                   0x0800b07b   Thumb Code    10  printfa.o(i._sputc)
    i.asin                                   0x0800b084   Section        0  asin.o(i.asin)
    i.atan                                   0x0800b2f4   Section        0  atan.o(i.atan)
    i.atan2                                  0x0800b514   Section        0  atan2.o(i.atan2)
    i.main                                   0x0800b694   Section        0  main.o(i.main)
    i.sqrt                                   0x0800b6d4   Section        0  sqrt.o(i.sqrt)
    .constdata                               0x0800b720   Section       34  lockcode.o(.constdata)
    .constdata                               0x0800b742   Section      512  cheakout.o(.constdata)
    .constdata                               0x0800b944   Section      584  main.o(.constdata)
    .constdata                               0x0800bb90   Section       80  asin.o(.constdata)
    pS                                       0x0800bb90   Data          48  asin.o(.constdata)
    qS                                       0x0800bbc0   Data          32  asin.o(.constdata)
    .constdata                               0x0800bbe0   Section      152  atan.o(.constdata)
    atanhi                                   0x0800bbe0   Data          32  atan.o(.constdata)
    atanlo                                   0x0800bc00   Data          32  atan.o(.constdata)
    aTodd                                    0x0800bc20   Data          40  atan.o(.constdata)
    aTeven                                   0x0800bc48   Data          48  atan.o(.constdata)
    .constdata                               0x0800bc78   Section        8  qnan.o(.constdata)
    .conststring                             0x0800bc80   Section       24  func_face.o(.conststring)
    .conststring                             0x0800bc98   Section      213  main.o(.conststring)
    .data                                    0x20000000   Section       20  stm32f10x_rcc.o(.data)
    APBAHBPrescTable                         0x20000000   Data          16  stm32f10x_rcc.o(.data)
    ADCPrescTable                            0x20000010   Data           4  stm32f10x_rcc.o(.data)
    .data                                    0x20000014   Section       24  usart_driver.o(.data)
    .data                                    0x2000002c   Section        1  gpio_driver.o(.data)
    .data                                    0x20000030   Section       37  tos.o(.data)
    Count                                    0x2000004c   Data           1  tos.o(.data)
    i                                        0x2000004d   Data           1  tos.o(.data)
    Pool                                     0x20000050   Data           4  tos.o(.data)
    Use                                      0x20000054   Data           1  tos.o(.data)
    .data                                    0x20000058   Section        8  tos_device.o(.data)
    .data                                    0x20000060   Section        4  tos_mema.o(.data)
    .data                                    0x20000064   Section        4  tos_timer.o(.data)
    .data                                    0x20000068   Section        7  debug.o(.data)
    .data                                    0x20000070   Section        8  func_face.o(.data)
    .data                                    0x20000078   Section       49  main.o(.data)
    L                                        0x200000a8   Data           1  main.o(.data)
    .data                                    0x200000ac   Section        4  rand.o(.data)
    _rand_state                              0x200000ac   Data           4  rand.o(.data)
    .data                                    0x200000b0   Section        4  errno.o(.data)
    _errno                                   0x200000b0   Data           4  errno.o(.data)
    .bss                                     0x200000b4   Section       24  usart_driver.o(.bss)
    .bss                                     0x200000cc   Section    16000  tos_mema.o(.bss)
    .bss                                     0x20003f4c   Section       28  main.o(.bss)
    STACK                                    0x20003f68   Section     1024  startup_stm32f10x_ld.o(STACK)

    Global Symbols

    Symbol Name                              Value     Ov Type        Size  Object(Section)

    BuildAttributes$$THM_ISAv4$P$D$K$B$S$PE$A:L22UL41UL21$X:L11$S22US41US21$IEEE1$IW$USESV6$~STKCKD$USESV7$~SHL$OTIME$ROPI$IEEEX$EBA8$MICROLIB$REQ8$PRES8$EABIv2 0x00000000   Number         0  anon$$obj.o ABSOLUTE
    __ARM_use_no_argv                        0x00000000   Number         0  main.o ABSOLUTE
    __cpp_initialize__aeabi_                  - Undefined Weak Reference
    __cxa_finalize                            - Undefined Weak Reference
    __decompress                              - Undefined Weak Reference
    _clock_init                               - Undefined Weak Reference
    _microlib_exit                            - Undefined Weak Reference
    __Vectors_Size                           0x000000ec   Number         0  startup_stm32f10x_ld.o ABSOLUTE
    __Vectors                                0x08005000   Data           4  startup_stm32f10x_ld.o(RESET)
    __Vectors_End                            0x080050ec   Data           0  startup_stm32f10x_ld.o(RESET)
    __main                                   0x080050ed   Thumb Code     0  entry.o(.ARM.Collect$$$$00000000)
    _main_stk                                0x080050ed   Thumb Code     0  entry2.o(.ARM.Collect$$$$00000001)
    _main_scatterload                        0x080050f1   Thumb Code     0  entry5.o(.ARM.Collect$$$$00000004)
    __main_after_scatterload                 0x080050f5   Thumb Code     0  entry5.o(.ARM.Collect$$$$00000004)
    _main_clock                              0x080050f5   Thumb Code     0  entry7b.o(.ARM.Collect$$$$00000008)
    _main_cpp_init                           0x080050f5   Thumb Code     0  entry8b.o(.ARM.Collect$$$$0000000A)
    _main_init                               0x080050f5   Thumb Code     0  entry9a.o(.ARM.Collect$$$$0000000B)
    __rt_final_cpp                           0x080050fd   Thumb Code     0  entry10a.o(.ARM.Collect$$$$0000000D)
    __rt_final_exit                          0x080050fd   Thumb Code     0  entry11a.o(.ARM.Collect$$$$0000000F)
    Reset_Handler                            0x08005101   Thumb Code     8  startup_stm32f10x_ld.o(.text)
    ADC1_2_IRQHandler                        0x0800511b   Thumb Code     0  startup_stm32f10x_ld.o(.text)
    CAN1_RX1_IRQHandler                      0x0800511b   Thumb Code     0  startup_stm32f10x_ld.o(.text)
    CAN1_SCE_IRQHandler                      0x0800511b   Thumb Code     0  startup_stm32f10x_ld.o(.text)
    DMA1_Channel1_IRQHandler                 0x0800511b   Thumb Code     0  startup_stm32f10x_ld.o(.text)
    DMA1_Channel2_IRQHandler                 0x0800511b   Thumb Code     0  startup_stm32f10x_ld.o(.text)
    DMA1_Channel3_IRQHandler                 0x0800511b   Thumb Code     0  startup_stm32f10x_ld.o(.text)
    DMA1_Channel4_IRQHandler                 0x0800511b   Thumb Code     0  startup_stm32f10x_ld.o(.text)
    DMA1_Channel5_IRQHandler                 0x0800511b   Thumb Code     0  startup_stm32f10x_ld.o(.text)
    DMA1_Channel6_IRQHandler                 0x0800511b   Thumb Code     0  startup_stm32f10x_ld.o(.text)
    DMA1_Channel7_IRQHandler                 0x0800511b   Thumb Code     0  startup_stm32f10x_ld.o(.text)
    EXTI0_IRQHandler                         0x0800511b   Thumb Code     0  startup_stm32f10x_ld.o(.text)
    EXTI1_IRQHandler                         0x0800511b   Thumb Code     0  startup_stm32f10x_ld.o(.text)
    EXTI2_IRQHandler                         0x0800511b   Thumb Code     0  startup_stm32f10x_ld.o(.text)
    EXTI3_IRQHandler                         0x0800511b   Thumb Code     0  startup_stm32f10x_ld.o(.text)
    EXTI4_IRQHandler                         0x0800511b   Thumb Code     0  startup_stm32f10x_ld.o(.text)
    EXTI9_5_IRQHandler                       0x0800511b   Thumb Code     0  startup_stm32f10x_ld.o(.text)
    FLASH_IRQHandler                         0x0800511b   Thumb Code     0  startup_stm32f10x_ld.o(.text)
    I2C1_ER_IRQHandler                       0x0800511b   Thumb Code     0  startup_stm32f10x_ld.o(.text)
    I2C1_EV_IRQHandler                       0x0800511b   Thumb Code     0  startup_stm32f10x_ld.o(.text)
    PVD_IRQHandler                           0x0800511b   Thumb Code     0  startup_stm32f10x_ld.o(.text)
    RCC_IRQHandler                           0x0800511b   Thumb Code     0  startup_stm32f10x_ld.o(.text)
    RTCAlarm_IRQHandler                      0x0800511b   Thumb Code     0  startup_stm32f10x_ld.o(.text)
    RTC_IRQHandler                           0x0800511b   Thumb Code     0  startup_stm32f10x_ld.o(.text)
    SPI1_IRQHandler                          0x0800511b   Thumb Code     0  startup_stm32f10x_ld.o(.text)
    TAMPER_IRQHandler                        0x0800511b   Thumb Code     0  startup_stm32f10x_ld.o(.text)
    TIM1_BRK_IRQHandler                      0x0800511b   Thumb Code     0  startup_stm32f10x_ld.o(.text)
    TIM1_CC_IRQHandler                       0x0800511b   Thumb Code     0  startup_stm32f10x_ld.o(.text)
    TIM1_TRG_COM_IRQHandler                  0x0800511b   Thumb Code     0  startup_stm32f10x_ld.o(.text)
    TIM1_UP_IRQHandler                       0x0800511b   Thumb Code     0  startup_stm32f10x_ld.o(.text)
    TIM2_IRQHandler                          0x0800511b   Thumb Code     0  startup_stm32f10x_ld.o(.text)
    TIM3_IRQHandler                          0x0800511b   Thumb Code     0  startup_stm32f10x_ld.o(.text)
    USB_HP_CAN1_TX_IRQHandler                0x0800511b   Thumb Code     0  startup_stm32f10x_ld.o(.text)
    USB_LP_CAN1_RX0_IRQHandler               0x0800511b   Thumb Code     0  startup_stm32f10x_ld.o(.text)
    WWDG_IRQHandler                          0x0800511b   Thumb Code     0  startup_stm32f10x_ld.o(.text)
    rand                                     0x08005125   Thumb Code    20  rand.o(.text)
    srand                                    0x08005139   Thumb Code     6  rand.o(.text)
    __aeabi_fadd                             0x08005149   Thumb Code   164  fadd.o(.text)
    __aeabi_fsub                             0x080051ed   Thumb Code     6  fadd.o(.text)
    __aeabi_frsub                            0x080051f3   Thumb Code     6  fadd.o(.text)
    __aeabi_fmul                             0x080051f9   Thumb Code   100  fmul.o(.text)
    __aeabi_fdiv                             0x0800525d   Thumb Code   124  fdiv.o(.text)
    __aeabi_dadd                             0x080052d9   Thumb Code   322  dadd.o(.text)
    __aeabi_dsub                             0x0800541b   Thumb Code     6  dadd.o(.text)
    __aeabi_drsub                            0x08005421   Thumb Code     6  dadd.o(.text)
    __aeabi_dmul                             0x08005427   Thumb Code   228  dmul.o(.text)
    __aeabi_ddiv                             0x0800550b   Thumb Code   222  ddiv.o(.text)
    __aeabi_i2f                              0x080055e9   Thumb Code    18  fflti.o(.text)
    __aeabi_ui2f                             0x080055fb   Thumb Code    10  ffltui.o(.text)
    __aeabi_f2uiz                            0x08005605   Thumb Code    40  ffixui.o(.text)
    __aeabi_d2iz                             0x0800562d   Thumb Code    62  dfixi.o(.text)
    __aeabi_f2d                              0x0800566b   Thumb Code    38  f2d.o(.text)
    __aeabi_d2f                              0x08005691   Thumb Code    56  d2f.o(.text)
    __aeabi_uidiv                            0x080056c9   Thumb Code     0  uidiv.o(.text)
    __aeabi_uidivmod                         0x080056c9   Thumb Code    44  uidiv.o(.text)
    __aeabi_uldivmod                         0x080056f5   Thumb Code    98  uldiv.o(.text)
    __aeabi_llsl                             0x08005757   Thumb Code    30  llshl.o(.text)
    _ll_shift_l                              0x08005757   Thumb Code     0  llshl.o(.text)
    __aeabi_llsr                             0x08005775   Thumb Code    32  llushr.o(.text)
    _ll_ushift_r                             0x08005775   Thumb Code     0  llushr.o(.text)
    __aeabi_lasr                             0x08005795   Thumb Code    36  llsshr.o(.text)
    _ll_sshift_r                             0x08005795   Thumb Code     0  llsshr.o(.text)
    __I$use$fp                               0x080057b9   Thumb Code     0  iusefp.o(.text)
    _float_round                             0x080057b9   Thumb Code    18  fepilogue.o(.text)
    _float_epilogue                          0x080057cb   Thumb Code    92  fepilogue.o(.text)
    _double_round                            0x08005827   Thumb Code    30  depilogue.o(.text)
    _double_epilogue                         0x08005845   Thumb Code   156  depilogue.o(.text)
    __ARM_scalbn                             0x080058e1   Thumb Code    46  dscalb.o(.text)
    scalbn                                   0x080058e1   Thumb Code     0  dscalb.o(.text)
    _dsqrt                                   0x0800590f   Thumb Code   162  dsqrt.o(.text)
    __aeabi_d2ulz                            0x080059b1   Thumb Code    48  dfixul.o(.text)
    __aeabi_cdrcmple                         0x080059e1   Thumb Code    48  cdrcmple.o(.text)
    __scatterload                            0x08005a11   Thumb Code    28  init.o(.text)
    __scatterload_rt2                        0x08005a11   Thumb Code     0  init.o(.text)
    TOS_ContextSwitch                        0x08005a35   Thumb Code     0  tos_core_a.o(TOS_CORE_A)
    TOS_SwitchToTask                         0x08005a67   Thumb Code     0  tos_core_a.o(TOS_CORE_A)
    ADC1_Init                                0x08005ab5   Thumb Code    16  main.o(i.ADC1_Init)
    ADC_Cmd                                  0x08005bdd   Thumb Code    22  stm32f10x_adc.o(i.ADC_Cmd)
    ADC_DMACmd                               0x08005bf3   Thumb Code    22  stm32f10x_adc.o(i.ADC_DMACmd)
    ADC_GetCalibrationStatus                 0x08005c09   Thumb Code    20  stm32f10x_adc.o(i.ADC_GetCalibrationStatus)
    ADC_GetResetCalibrationStatus            0x08005c1d   Thumb Code    20  stm32f10x_adc.o(i.ADC_GetResetCalibrationStatus)
    ADC_Init                                 0x08005c31   Thumb Code    70  stm32f10x_adc.o(i.ADC_Init)
    ADC_RegularChannelConfig                 0x08005c81   Thumb Code   184  stm32f10x_adc.o(i.ADC_RegularChannelConfig)
    ADC_ResetCalibration                     0x08005d39   Thumb Code    10  stm32f10x_adc.o(i.ADC_ResetCalibration)
    ADC_SoftwareStartConvCmd                 0x08005d43   Thumb Code    22  stm32f10x_adc.o(i.ADC_SoftwareStartConvCmd)
    ADC_StartCalibration                     0x08005d59   Thumb Code    10  stm32f10x_adc.o(i.ADC_StartCalibration)
    App_DisCoppy                             0x08005d65   Thumb Code    58  lockcode.o(i.App_DisCoppy)
    BOOL_LoadConfigs                         0x08005da9   Thumb Code    36  main.o(i.BOOL_LoadConfigs)
    BRG_RGB                                  0x08005de5   Thumb Code    22  main.o(i.BRG_RGB)
    BareDelay                                0x08005dfb   Thumb Code    26  stm32_cpu.o(i.BareDelay)
    Beep_A2B                                 0x08005e15   Thumb Code    36  main.o(i.Beep_A2B)
    Beep_DD                                  0x08005e39   Thumb Code    52  main.o(i.Beep_DD)
    Beep_Dot                                 0x08005e6d   Thumb Code     4  main.o(i.Beep_Dot)
    Beep_OFF                                 0x08005e71   Thumb Code    32  main.o(i.Beep_OFF)
    Beep_ON                                  0x08005e91   Thumb Code    54  main.o(i.Beep_ON)
    BufferCoppy                              0x08005ec7   Thumb Code    34  text.o(i.BufferCoppy)
    BufferFill                               0x08005ee9   Thumb Code    22  text.o(i.BufferFill)
    BusFault_Handler                         0x08005eff   Thumb Code     4  stm32f10x_it.o(i.BusFault_Handler)
    CompareWithString                        0x08005f03   Thumb Code    60  text.o(i.CompareWithString)
    DMA_Cmd                                  0x08005f3f   Thumb Code    24  stm32f10x_dma.o(i.DMA_Cmd)
    DMA_DeInit                               0x08005f59   Thumb Code   324  stm32f10x_dma.o(i.DMA_DeInit)
    DMA_Init                                 0x080060a5   Thumb Code    60  stm32f10x_dma.o(i.DMA_Init)
    DeBug                                    0x080060e1   Thumb Code   360  debug.o(i.DeBug)
    DeBug_OutSet                             0x0800626d   Thumb Code     6  debug.o(i.DeBug_OutSet)
    DebugMon_Handler                         0x08006279   Thumb Code     2  stm32f10x_it.o(i.DebugMon_Handler)
    DeviceList_Init                          0x0800627d   Thumb Code   112  tos_device.o(i.DeviceList_Init)
    DeviceList_Printf                        0x080062fd   Thumb Code   182  tos_device.o(i.DeviceList_Printf)
    DeviceMount_GPIO                         0x080063e5   Thumb Code   180  gpio_driver.o(i.DeviceMount_GPIO)
    DeviceMount_Moto                         0x080064b1   Thumb Code   180  main.o(i.DeviceMount_Moto)
    DeviceMount_Uart                         0x0800657d   Thumb Code   398  usart_driver.o(i.DeviceMount_Uart)
    DeviceMount_Usart                        0x08006745   Thumb Code    18  usart_driver.o(i.DeviceMount_Usart)
    Device_Init                              0x08006759   Thumb Code   152  tos_device.o(i.Device_Init)
    Device_Ok                                0x08006811   Thumb Code    30  tos_device.o(i.Device_Ok)
    EXTI15_10_IRQHandler                     0x08006835   Thumb Code   250  main.o(i.EXTI15_10_IRQHandler)
    EXTI_ClearITPendingBit                   0x08006951   Thumb Code     6  stm32f10x_exti.o(i.EXTI_ClearITPendingBit)
    EXTI_Init                                0x0800695d   Thumb Code   142  stm32f10x_exti.o(i.EXTI_Init)
    Exti_EnableIRQ                           0x080069f1   Thumb Code    62  main.o(i.Exti_EnableIRQ)
    Exti_IOPort_Init                         0x08006a35   Thumb Code   118  main.o(i.Exti_IOPort_Init)
    FLASH_ErasePage                          0x08006ab1   Thumb Code    72  stm32f10x_flash.o(i.FLASH_ErasePage)
    FLASH_GetBank1Status                     0x08006afd   Thumb Code    48  stm32f10x_flash.o(i.FLASH_GetBank1Status)
    FLASH_Lock                               0x08006b31   Thumb Code    14  stm32f10x_flash.o(i.FLASH_Lock)
    FLASH_ProgramHalfWord                    0x08006b45   Thumb Code    60  stm32f10x_flash.o(i.FLASH_ProgramHalfWord)
    FLASH_Unlock                             0x08006b85   Thumb Code    12  stm32f10x_flash.o(i.FLASH_Unlock)
    FLASH_WaitForLastOperation               0x08006b9d   Thumb Code    38  stm32f10x_flash.o(i.FLASH_WaitForLastOperation)
    Flash_ReadData                           0x08006bc3   Thumb Code    28  appconfig.o(i.Flash_ReadData)
    Flash_WriteData                          0x08006bdf   Thumb Code   112  appconfig.o(i.Flash_WriteData)
    FlowPoolFilter                           0x08006c4f   Thumb Code    58  text.o(i.FlowPoolFilter)
    GPIO_EXTILineConfig                      0x08006c89   Thumb Code    60  stm32f10x_gpio.o(i.GPIO_EXTILineConfig)
    GPIO_GetIndex                            0x08006cc9   Thumb Code    52  gpio_driver.o(i.GPIO_GetIndex)
    GPIO_Init                                0x08006d05   Thumb Code   278  stm32f10x_gpio.o(i.GPIO_Init)
    GPIO_InitList                            0x08006e1d   Thumb Code   126  stm32_cpu.o(i.GPIO_InitList)
    GPIO_PinRemapConfig                      0x08006ea5   Thumb Code   138  stm32f10x_gpio.o(i.GPIO_PinRemapConfig)
    GPIO_ReadInputDataBit                    0x08006f35   Thumb Code    18  stm32f10x_gpio.o(i.GPIO_ReadInputDataBit)
    GPIO_ResetBits                           0x08006f47   Thumb Code     4  stm32f10x_gpio.o(i.GPIO_ResetBits)
    GPIO_Set                                 0x08006f4b   Thumb Code    30  gpio_driver.o(i.GPIO_Set)
    GPIO_SetBits                             0x08006f69   Thumb Code     4  stm32f10x_gpio.o(i.GPIO_SetBits)
    GPIO_SetIndex                            0x08006f6d   Thumb Code    44  gpio_driver.o(i.GPIO_SetIndex)
    GetChar_List                             0x08006fa1   Thumb Code   128  debug.o(i.GetChar_List)
    GetCodeStr64                             0x08007021   Thumb Code   108  stm32_cpu.o(i.GetCodeStr64)
    GetData                                  0x08007091   Thumb Code    40  main.o(i.GetData)
    GetKeyBoardValue                         0x080070b9   Thumb Code    28  main.o(i.GetKeyBoardValue)
    GetTextLength                            0x080070d5   Thumb Code    24  text.o(i.GetTextLength)
    GetTosTask_Count                         0x080070ed   Thumb Code    38  stm32_cpu.o(i.GetTosTask_Count)
    HHT21_Read                               0x08007119   Thumb Code   228  main.o(i.HHT21_Read)
    HardFault_Handler                        0x080071fd   Thumb Code     8  stm32f10x_it.o(i.HardFault_Handler)
    IAP_ErasePage                            0x08007205   Thumb Code    12  stm32_cpu.o(i.IAP_ErasePage)
    IAP_Lock                                 0x08007211   Thumb Code     8  stm32_cpu.o(i.IAP_Lock)
    IAP_ProgramHalfWord                      0x08007219   Thumb Code    16  stm32_cpu.o(i.IAP_ProgramHalfWord)
    IAP_Unlock                               0x08007229   Thumb Code     8  stm32_cpu.o(i.IAP_Unlock)
    IIC_DelayUs                              0x08007231   Thumb Code    14  main.o(i.IIC_DelayUs)
    IIC_ReadAck                              0x08007287   Thumb Code    76  main.o(i.IIC_ReadAck)
    IIC_RecvByte                             0x080072d3   Thumb Code    96  main.o(i.IIC_RecvByte)
    IIC_SendAck                              0x08007333   Thumb Code    64  main.o(i.IIC_SendAck)
    IIC_SendByte                             0x08007373   Thumb Code    88  main.o(i.IIC_SendByte)
    IIC_Start                                0x080073cb   Thumb Code    56  main.o(i.IIC_Start)
    IIC_Stop                                 0x08007403   Thumb Code    56  main.o(i.IIC_Stop)
    IMUupdate                                0x0800743d   Thumb Code  1532  main.o(i.IMUupdate)
    IR_Moto                                  0x08007a79   Thumb Code   274  main.o(i.IR_Moto)
    IWDG_Configuration                       0x08007b91   Thumb Code    34  stm32_cpu.o(i.IWDG_Configuration)
    IWDG_Enable                              0x08007bb5   Thumb Code    10  stm32f10x_iwdg.o(i.IWDG_Enable)
    IWDG_ReloadCounter                       0x08007bc5   Thumb Code    10  stm32f10x_iwdg.o(i.IWDG_ReloadCounter)
    IWDG_SetPrescaler                        0x08007bd5   Thumb Code     6  stm32f10x_iwdg.o(i.IWDG_SetPrescaler)
    IWDG_SetReload                           0x08007be1   Thumb Code     6  stm32f10x_iwdg.o(i.IWDG_SetReload)
    IWDG_WriteAccessCmd                      0x08007bed   Thumb Code     6  stm32f10x_iwdg.o(i.IWDG_WriteAccessCmd)
    InitMPU6050                              0x08007bf9   Thumb Code    56  main.o(i.InitMPU6050)
    Load_AppConfig                           0x08007c31   Thumb Code    20  appconfig.o(i.Load_AppConfig)
    Load_VoidConfig                          0x08007c4d   Thumb Code   102  appconfig.o(i.Load_VoidConfig)
    MCU_Reset                                0x08007cb5   Thumb Code    32  stm32_cpu.o(i.MCU_Reset)
    MUI_GetKey                               0x08007cdd   Thumb Code    34  main.o(i.MUI_GetKey)
    MemManage_Handler                        0x08007cff   Thumb Code     4  stm32f10x_it.o(i.MemManage_Handler)
    Mema_Count                               0x08007d05   Thumb Code    22  tos_mema.o(i.Mema_Count)
    Mema_Free                                0x08007d21   Thumb Code    44  tos_mema.o(i.Mema_Free)
    Mema_GetSize                             0x08007d51   Thumb Code    12  tos_mema.o(i.Mema_GetSize)
    Mema_Init                                0x08007d5d   Thumb Code    22  tos_mema.o(i.Mema_Init)
    Mema_Malloc                              0x08007d79   Thumb Code    72  tos_mema.o(i.Mema_Malloc)
    Moto_A                                   0x08007dc5   Thumb Code    46  main.o(i.Moto_A)
    Moto_AB                                  0x08007df3   Thumb Code    20  main.o(i.Moto_AB)
    Moto_B                                   0x08007e07   Thumb Code    46  main.o(i.Moto_B)
    Moto_Stop                                0x08007e35   Thumb Code    20  main.o(i.Moto_Stop)
    NMI_Handler                              0x08007e49   Thumb Code     2  stm32f10x_it.o(i.NMI_Handler)
    NVIC_Init                                0x08007e4d   Thumb Code   100  misc.o(i.NVIC_Init)
    NVIC_PriorityGroupConfig                 0x08007ebd   Thumb Code    10  misc.o(i.NVIC_PriorityGroupConfig)
    NVIC_SetVectorTable                      0x08007ed1   Thumb Code    12  misc.o(i.NVIC_SetVectorTable)
    PWM_Set                                  0x08007ee5   Thumb Code    46  main.o(i.PWM_Set)
    PendSV_Handler                           0x08007f19   Thumb Code     2  stm32f10x_it.o(i.PendSV_Handler)
    Printf_BoardInfor                        0x08007f1d   Thumb Code    44  stm32_cpu.o(i.Printf_BoardInfor)
    Printf_LcdType                           0x08007fad   Thumb Code     2  stm32_cpu.o(i.Printf_LcdType)
    Printf_LockCode                          0x08007fb1   Thumb Code    24  stm32_cpu.o(i.Printf_LockCode)
    Printf_NandInfor                         0x08007fd5   Thumb Code     2  stm32_cpu.o(i.Printf_NandInfor)
    Printf_SysInfor                          0x08007fd9   Thumb Code    40  stm32_cpu.o(i.Printf_SysInfor)
    Printf_TaskInfor                         0x0800801d   Thumb Code    22  stm32_cpu.o(i.Printf_TaskInfor)
    Printf_TosInfor                          0x0800805d   Thumb Code    96  stm32_cpu.o(i.Printf_TosInfor)
    PwmTimeInt                               0x080080f1   Thumb Code   230  main.o(i.PwmTimeInt)
    RCC_AHBPeriphClockCmd                    0x080081e1   Thumb Code    26  stm32f10x_rcc.o(i.RCC_AHBPeriphClockCmd)
    RCC_APB1PeriphClockCmd                   0x08008201   Thumb Code    26  stm32f10x_rcc.o(i.RCC_APB1PeriphClockCmd)
    RCC_APB2PeriphClockCmd                   0x08008221   Thumb Code    26  stm32f10x_rcc.o(i.RCC_APB2PeriphClockCmd)
    RCC_GetClocksFreq                        0x08008241   Thumb Code   192  stm32f10x_rcc.o(i.RCC_GetClocksFreq)
    RGB_Light                                0x08008315   Thumb Code    54  main.o(i.RGB_Light)
    RandomADC                                0x0800834d   Thumb Code    58  main.o(i.RandomADC)
    RandomEYE                                0x08008395   Thumb Code    34  main.o(i.RandomEYE)
    RandomLight                              0x080083b7   Thumb Code    32  main.o(i.RandomLight)
    Remap_SWJ_JTAGDisable                    0x080083d9   Thumb Code    12  stm32_cpu.o(i.Remap_SWJ_JTAGDisable)
    SHT21Init                                0x080083e9   Thumb Code    24  main.o(i.SHT21Init)
    SHT21_Config                             0x08008401   Thumb Code    48  main.o(i.SHT21_Config)
    SHT21_Reset                              0x08008431   Thumb Code    48  main.o(i.SHT21_Reset)
    SVC_Handler                              0x08008461   Thumb Code     2  stm32f10x_it.o(i.SVC_Handler)
    Save_AppConfig                           0x08008465   Thumb Code    20  appconfig.o(i.Save_AppConfig)
    Save_VoidConfig                          0x08008481   Thumb Code    44  appconfig.o(i.Save_VoidConfig)
    Single_ReadI2C                           0x08008595   Thumb Code    80  main.o(i.Single_ReadI2C)
    Single_WriteI2C                          0x080085e5   Thumb Code    60  main.o(i.Single_WriteI2C)
    StringEndingAppend                       0x08008621   Thumb Code    66  text.o(i.StringEndingAppend)
    SysTick_Handler                          0x08008663   Thumb Code     8  stm32f10x_it.o(i.SysTick_Handler)
    SysTick_Set                              0x0800866d   Thumb Code    74  stm32_cpu.o(i.SysTick_Set)
    SystemInit                               0x080086c5   Thumb Code    78  system_stm32f10x.o(i.SystemInit)
    System_Reset                             0x08008725   Thumb Code    14  main.o(i.System_Reset)
    System_ResetDelay                        0x08008739   Thumb Code    14  main.o(i.System_ResetDelay)
    System_SaveConfig                        0x08008749   Thumb Code    20  main.o(i.System_SaveConfig)
    TIM_ARRPreloadConfig                     0x08008761   Thumb Code    24  stm32f10x_tim.o(i.TIM_ARRPreloadConfig)
    TIM_Cmd                                  0x08008779   Thumb Code    24  stm32f10x_tim.o(i.TIM_Cmd)
    TIM_OC1Init                              0x08008791   Thumb Code   132  stm32f10x_tim.o(i.TIM_OC1Init)
    TIM_OC1PreloadConfig                     0x08008829   Thumb Code    18  stm32f10x_tim.o(i.TIM_OC1PreloadConfig)
    TIM_OC2Init                              0x0800883d   Thumb Code   154  stm32f10x_tim.o(i.TIM_OC2Init)
    TIM_OC2PreloadConfig                     0x080088e1   Thumb Code    26  stm32f10x_tim.o(i.TIM_OC2PreloadConfig)
    TIM_OC3Init                              0x080088fd   Thumb Code   150  stm32f10x_tim.o(i.TIM_OC3Init)
    TIM_OC3PreloadConfig                     0x0800899d   Thumb Code    18  stm32f10x_tim.o(i.TIM_OC3PreloadConfig)
    TIM_OC4Init                              0x080089b1   Thumb Code   114  stm32f10x_tim.o(i.TIM_OC4Init)
    TIM_OC4PreloadConfig                     0x08008a2d   Thumb Code    26  stm32f10x_tim.o(i.TIM_OC4PreloadConfig)
    TIM_TimeBaseInit                         0x08008a49   Thumb Code   122  stm32f10x_tim.o(i.TIM_TimeBaseInit)
    Task0                                    0x08008aed   Thumb Code    96  main.o(i.Task0)
    Task1                                    0x08008b51   Thumb Code    94  main.o(i.Task1)
    Task_Arrary                              0x08008bb1   Thumb Code   156  func_face.o(i.Task_Arrary)
    Task_Gyro                                0x08008c55   Thumb Code   134  main.o(i.Task_Gyro)
    Task_IR                                  0x08008ce1   Thumb Code   808  main.o(i.Task_IR)
    Task_Join                                0x0800904d   Thumb Code    32  func_face.o(i.Task_Join)
    Task_KeyBoard                            0x08009071   Thumb Code   138  main.o(i.Task_KeyBoard)
    Task_LoadConfigs                         0x08009101   Thumb Code     8  main.o(i.Task_LoadConfigs)
    Task_Moto                                0x08009109   Thumb Code   152  main.o(i.Task_Moto)
    Task_Power                               0x080091b1   Thumb Code   218  main.o(i.Task_Power)
    Task_SaveConfigs                         0x08009299   Thumb Code    26  main.o(i.Task_SaveConfigs)
    TempHmi                                  0x080092b9   Thumb Code    38  main.o(i.TempHmi)
    TestStart                                0x080092e5   Thumb Code    26  main.o(i.TestStart)
    TestStartt                               0x08009305   Thumb Code   244  main.o(i.TestStartt)
    ToHex64                                  0x080093fd   Thumb Code    42  text.o(i.ToHex64)
    Tools_GetCRC16                           0x08009429   Thumb Code    56  cheakout.o(i.Tools_GetCRC16)
    Tos_ComputeCPURate                       0x08009469   Thumb Code    68  tos.o(i.Tos_ComputeCPURate)
    Tos_GetTaskIDByName                      0x080094c5   Thumb Code    50  tos.o(i.Tos_GetTaskIDByName)
    Tos_Init                                 0x080094fd   Thumb Code   132  tos.o(i.Tos_Init)
    Tos_ListCreate                           0x08009595   Thumb Code    32  tos.o(i.Tos_ListCreate)
    Tos_RootTask                             0x080095b5   Thumb Code    38  tos.o(i.Tos_RootTask)
    Tos_ScanTimer                            0x080095dd   Thumb Code    52  tos_timer.o(i.Tos_ScanTimer)
    Tos_Start                                0x08009615   Thumb Code    32  tos.o(i.Tos_Start)
    Tos_SysTick                              0x08009645   Thumb Code    42  tos.o(i.Tos_SysTick)
    Tos_TaskCreate                           0x0800968d   Thumb Code   204  tos.o(i.Tos_TaskCreate)
    Tos_TaskCreateFindID                     0x0800975d   Thumb Code    94  tos.o(i.Tos_TaskCreateFindID)
    Tos_TaskCreateQmsg                       0x080097c1   Thumb Code    86  tos.o(i.Tos_TaskCreateQmsg)
    Tos_TaskDelay                            0x08009821   Thumb Code    84  tos.o(i.Tos_TaskDelay)
    Tos_TaskDropDev                          0x08009881   Thumb Code    56  tos_device.o(i.Tos_TaskDropDev)
    Tos_TaskGetDev                           0x080098c1   Thumb Code   132  tos_device.o(i.Tos_TaskGetDev)
    Tos_TaskGetHandKey                       0x0800994d   Thumb Code    10  main.o(i.Tos_TaskGetHandKey)
    Tos_TaskGetQMsg                          0x08009961   Thumb Code    90  tos.o(i.Tos_TaskGetQMsg)
    Tos_TaskGetQMsgDelay                     0x080099c5   Thumb Code    90  tos.o(i.Tos_TaskGetQMsgDelay)
    Tos_TaskPutQmsg                          0x08009a29   Thumb Code   124  tos.o(i.Tos_TaskPutQmsg)
    Tos_TaskReady                            0x08009aa9   Thumb Code   184  tos.o(i.Tos_TaskReady)
    Tos_TaskRecover                          0x08009b69   Thumb Code    46  tos.o(i.Tos_TaskRecover)
    Tos_TaskRun                              0x08009b9d   Thumb Code    66  tos.o(i.Tos_TaskRun)
    Tos_TaskStackInit                        0x08009bf1   Thumb Code   110  tos.o(i.Tos_TaskStackInit)
    Tos_TaskStart                            0x08009c61   Thumb Code    28  tos.o(i.Tos_TaskStart)
    Tos_TaskStop                             0x08009c85   Thumb Code    70  tos.o(i.Tos_TaskStop)
    Tos_TaskSuspend                          0x08009cd1   Thumb Code   118  tos.o(i.Tos_TaskSuspend)
    Tos_TaskSwitch                           0x08009d4d   Thumb Code   148  tos.o(i.Tos_TaskSwitch)
    Tos_TaskTcbInit                          0x08009ded   Thumb Code    18  tos.o(i.Tos_TaskTcbInit)
    Tos_TaskTimeout                          0x08009e01   Thumb Code    78  tos.o(i.Tos_TaskTimeout)
    Tos_TimerReady                           0x08009e55   Thumb Code    78  tos_timer.o(i.Tos_TimerReady)
    Tos_WaitDev                              0x08009ea9   Thumb Code    50  tos.o(i.Tos_WaitDev)
    USART1_IRQHandler                        0x08009ee5   Thumb Code    76  usart_driver.o(i.USART1_IRQHandler)
    USART2_IRQHandler                        0x08009f45   Thumb Code    76  usart_driver.o(i.USART2_IRQHandler)
    USART_ClearFlag                          0x08009fa5   Thumb Code    18  stm32f10x_usart.o(i.USART_ClearFlag)
    USART_ClearITPendingBit                  0x08009fb7   Thumb Code    30  stm32f10x_usart.o(i.USART_ClearITPendingBit)
    USART_Cmd                                0x08009fd5   Thumb Code    24  stm32f10x_usart.o(i.USART_Cmd)
    USART_Configuration                      0x08009fed   Thumb Code   104  usart_driver.o(i.USART_Configuration)
    USART_ConfigurationAll                   0x0800a069   Thumb Code   110  usart_driver.o(i.USART_ConfigurationAll)
    USART_GPIO_Init                          0x0800a0d9   Thumb Code   164  usart_driver.o(i.USART_GPIO_Init)
    USART_GPIO_InitAll                       0x0800a1a1   Thumb Code    86  usart_driver.o(i.USART_GPIO_InitAll)
    USART_GetITStatus                        0x0800a1f7   Thumb Code    84  stm32f10x_usart.o(i.USART_GetITStatus)
    USART_GetIndex                           0x0800a24d   Thumb Code    62  usart_driver.o(i.USART_GetIndex)
    USART_GetTypeDef                         0x0800a295   Thumb Code    40  usart_driver.o(i.USART_GetTypeDef)
    USART_ITConfig                           0x0800a2d1   Thumb Code    74  stm32f10x_usart.o(i.USART_ITConfig)
    USART_Init                               0x0800a31d   Thumb Code   210  stm32f10x_usart.o(i.USART_Init)
    USART_Read                               0x0800a3f5   Thumb Code    58  usart_driver.o(i.USART_Read)
    USART_ReadDatas                          0x0800a435   Thumb Code   160  usart_driver.o(i.USART_ReadDatas)
    USART_Write                              0x0800a4ed   Thumb Code    32  usart_driver.o(i.USART_Write)
    USART_WriteDatas                         0x0800a50d   Thumb Code    34  usart_driver.o(i.USART_WriteDatas)
    USBWakeUp_IRQHandler                     0x0800a52f   Thumb Code    12  stm32f10x_it.o(i.USBWakeUp_IRQHandler)
    UsageFault_Handler                       0x0800a53b   Thumb Code     4  stm32f10x_it.o(i.UsageFault_Handler)
    WS2812_Close                             0x0800a53f   Thumb Code    20  main.o(i.WS2812_Close)
    WS2812_Delay                             0x0800a553   Thumb Code    14  main.o(i.WS2812_Delay)
    WS2812_Open                              0x0800a561   Thumb Code    18  main.o(i.WS2812_Open)
    WS2812_Write                             0x0800a579   Thumb Code    32  main.o(i.WS2812_Write)
    WS2812_WriteList                         0x0800a5a1   Thumb Code   110  main.o(i.WS2812_WriteList)
    WS_Close                                 0x0800a60f   Thumb Code    14  main.o(i.WS_Close)
    WS_Double                                0x0800a61d   Thumb Code   130  main.o(i.WS_Double)
    __0vsprintf                              0x0800a6a1   Thumb Code    30  printfa.o(i.__0vsprintf)
    __1vsprintf                              0x0800a6a1   Thumb Code     0  printfa.o(i.__0vsprintf)
    __2vsprintf                              0x0800a6a1   Thumb Code     0  printfa.o(i.__0vsprintf)
    __c89vsprintf                            0x0800a6a1   Thumb Code     0  printfa.o(i.__0vsprintf)
    vsprintf                                 0x0800a6a1   Thumb Code     0  printfa.o(i.__0vsprintf)
    __ARM_fpclassify                         0x0800a6c5   Thumb Code    40  fpclassify.o(i.__ARM_fpclassify)
    __kernel_poly                            0x0800a6ed   Thumb Code   170  poly.o(i.__kernel_poly)
    __mathlib_dbl_infnan                     0x0800a797   Thumb Code     6  dunder.o(i.__mathlib_dbl_infnan)
    __mathlib_dbl_infnan2                    0x0800a79d   Thumb Code     4  dunder.o(i.__mathlib_dbl_infnan2)
    __mathlib_dbl_invalid                    0x0800a7a1   Thumb Code    12  dunder.o(i.__mathlib_dbl_invalid)
    __mathlib_dbl_underflow                  0x0800a7ad   Thumb Code    10  dunder.o(i.__mathlib_dbl_underflow)
    __scatterload_copy                       0x0800a7bd   Thumb Code    14  handlers.o(i.__scatterload_copy)
    __scatterload_null                       0x0800a7cb   Thumb Code     2  handlers.o(i.__scatterload_null)
    __scatterload_zeroinit                   0x0800a7cd   Thumb Code    14  handlers.o(i.__scatterload_zeroinit)
    __set_errno                              0x0800a7dd   Thumb Code     6  errno.o(i.__set_errno)
    asin                                     0x0800b085   Thumb Code   572  asin.o(i.asin)
    atan                                     0x0800b2f5   Thumb Code   474  atan.o(i.atan)
    atan2                                    0x0800b515   Thumb Code   346  atan2.o(i.atan2)
    main                                     0x0800b695   Thumb Code    48  main.o(i.main)
    sqrt                                     0x0800b6d5   Thumb Code    76  sqrt.o(i.sqrt)
    CodeTab                                  0x0800b720   Data          32  lockcode.o(.constdata)
    DisCode                                  0x0800b740   Data           2  lockcode.o(.constdata)
    Crc16_TableH                             0x0800b742   Data         256  cheakout.o(.constdata)
    Crc16_TableL                             0x0800b842   Data         256  cheakout.o(.constdata)
    IIC_Maps                                 0x0800b944   Data          36  main.o(.constdata)
    MPU_IIC_List                             0x0800b968   Data          36  main.o(.constdata)
    MenuList                                 0x0800b98c   Data         120  main.o(.constdata)
    BoolString                               0x0800ba04   Data          12  main.o(.constdata)
    TaskList                                 0x0800ba10   Data         160  main.o(.constdata)
    IO_Control_List                          0x0800bab0   Data         204  main.o(.constdata)
    __mathlib_zero                           0x0800bc78   Data           8  qnan.o(.constdata)
    Region$$Table$$Base                      0x0800bd70   Number         0  anon$$obj.o(Region$$Table)
    Region$$Table$$Limit                     0x0800bd90   Number         0  anon$$obj.o(Region$$Table)
    DeviceId_USART_TX                        0x20000014   Data           3  usart_driver.o(.data)
    DeviceId_USART_RX                        0x20000017   Data           3  usart_driver.o(.data)
    USART_TX_TaskID                          0x2000001a   Data           3  usart_driver.o(.data)
    USART_RX_TaskID                          0x2000001d   Data           3  usart_driver.o(.data)
    USART_RX_Count                           0x20000020   Data           6  usart_driver.o(.data)
    USART_RX_Index                           0x20000026   Data           6  usart_driver.o(.data)
    DeviceId_GPIO                            0x2000002c   Data           1  gpio_driver.o(.data)
    guiNextTaskSp                            0x20000030   Data           4  tos.o(.data)
    gpuiCurTaskSpAddr                        0x20000034   Data           4  tos.o(.data)
    Tos_CPUInfor                             0x20000038   Data           8  tos.o(.data)
    Tos_TaskCurrent                          0x20000040   Data           1  tos.o(.data)
    Tos_TaskTcb                              0x20000044   Data           4  tos.o(.data)
    Tos_TaskStackIndex                       0x20000048   Data           4  tos.o(.data)
    DeviceId_Index                           0x20000058   Data           1  tos_device.o(.data)
    Tos_Device_Tab                           0x2000005c   Data           4  tos_device.o(.data)
    RootMema                                 0x20000060   Data           4  tos_mema.o(.data)
    Tos_Timer_P                              0x20000064   Data           4  tos_timer.o(.data)
    DeBug_CB                                 0x20000068   Data           4  debug.o(.data)
    DeBug_EN                                 0x2000006c   Data           1  debug.o(.data)
    DeBug_Out                                0x2000006d   Data           1  debug.o(.data)
    DeBug_Type                               0x2000006e   Data           1  debug.o(.data)
    TaskArray_Tos_TaskID                     0x20000070   Data           1  func_face.o(.data)
    SEGCharList                              0x20000074   Data           4  func_face.o(.data)
    KeyCode_Tos_TaskID                       0x20000078   Data           1  main.o(.data)
    DeviceId_MOTO                            0x20000079   Data           1  main.o(.data)
    q0                                       0x2000007c   Data           4  main.o(.data)
    q1                                       0x20000080   Data           4  main.o(.data)
    q2                                       0x20000084   Data           4  main.o(.data)
    q3                                       0x20000088   Data           4  main.o(.data)
    exInt                                    0x2000008c   Data           4  main.o(.data)
    eyInt                                    0x20000090   Data           4  main.o(.data)
    ezInt                                    0x20000094   Data           4  main.o(.data)
    Yaw                                      0x20000098   Data           4  main.o(.data)
    Pitch                                    0x2000009c   Data           4  main.o(.data)
    Roll                                     0x200000a0   Data           4  main.o(.data)
    String_Ok                                0x200000a4   Data           4  main.o(.data)
    USART_RX_Buffer                          0x200000b4   Data          12  usart_driver.o(.bss)
    USART_TX_Buffer                          0x200000c0   Data          12  usart_driver.o(.bss)
    MemBuf                                   0x200000cc   Data       16000  tos_mema.o(.bss)
    UIShowValue                              0x20003f4c   Data          28  main.o(.bss)
    __initial_sp                             0x20004368   Data           0  startup_stm32f10x_ld.o(STACK)



==============================================================================

Memory Map of the image

  Image Entry point : 0x080050ed

  Load Region LR_IROM1 (Base: 0x08005000, Size: 0x00006e44, Max: 0x00010000, ABSOLUTE)

    Execution Region ER_IROM1 (Base: 0x08005000, Size: 0x00006d90, Max: 0x00010000, ABSOLUTE)

    Base Addr    Size         Type   Attr      Idx    E Section Name        Object

    0x08005000   0x000000ec   Data   RO         3218    RESET               startup_stm32f10x_ld.o
    0x080050ec   0x00000000   Code   RO         5653  * .ARM.Collect$$$$00000000  mc_w.l(entry.o)
    0x080050ec   0x00000004   Code   RO         5766    .ARM.Collect$$$$00000001  mc_w.l(entry2.o)
    0x080050f0   0x00000004   Code   RO         5769    .ARM.Collect$$$$00000004  mc_w.l(entry5.o)
    0x080050f4   0x00000000   Code   RO         5771    .ARM.Collect$$$$00000008  mc_w.l(entry7b.o)
    0x080050f4   0x00000000   Code   RO         5773    .ARM.Collect$$$$0000000A  mc_w.l(entry8b.o)
    0x080050f4   0x00000008   Code   RO         5774    .ARM.Collect$$$$0000000B  mc_w.l(entry9a.o)
    0x080050fc   0x00000000   Code   RO         5776    .ARM.Collect$$$$0000000D  mc_w.l(entry10a.o)
    0x080050fc   0x00000000   Code   RO         5778    .ARM.Collect$$$$0000000F  mc_w.l(entry11a.o)
    0x080050fc   0x00000004   Code   RO         5767    .ARM.Collect$$$$00002712  mc_w.l(entry2.o)
    0x08005100   0x00000024   Code   RO         3219    .text               startup_stm32f10x_ld.o
    0x08005124   0x00000024   Code   RO         5656    .text               mc_w.l(rand.o)
    0x08005148   0x000000b0   Code   RO         5687    .text               mf_w.l(fadd.o)
    0x080051f8   0x00000064   Code   RO         5689    .text               mf_w.l(fmul.o)
    0x0800525c   0x0000007c   Code   RO         5691    .text               mf_w.l(fdiv.o)
    0x080052d8   0x0000014e   Code   RO         5693    .text               mf_w.l(dadd.o)
    0x08005426   0x000000e4   Code   RO         5695    .text               mf_w.l(dmul.o)
    0x0800550a   0x000000de   Code   RO         5697    .text               mf_w.l(ddiv.o)
    0x080055e8   0x00000012   Code   RO         5699    .text               mf_w.l(fflti.o)
    0x080055fa   0x0000000a   Code   RO         5701    .text               mf_w.l(ffltui.o)
    0x08005604   0x00000028   Code   RO         5709    .text               mf_w.l(ffixui.o)
    0x0800562c   0x0000003e   Code   RO         5711    .text               mf_w.l(dfixi.o)
    0x0800566a   0x00000026   Code   RO         5715    .text               mf_w.l(f2d.o)
    0x08005690   0x00000038   Code   RO         5717    .text               mf_w.l(d2f.o)
    0x080056c8   0x0000002c   Code   RO         5783    .text               mc_w.l(uidiv.o)
    0x080056f4   0x00000062   Code   RO         5785    .text               mc_w.l(uldiv.o)
    0x08005756   0x0000001e   Code   RO         5787    .text               mc_w.l(llshl.o)
    0x08005774   0x00000020   Code   RO         5789    .text               mc_w.l(llushr.o)
    0x08005794   0x00000024   Code   RO         5791    .text               mc_w.l(llsshr.o)
    0x080057b8   0x00000000   Code   RO         5800    .text               mc_w.l(iusefp.o)
    0x080057b8   0x0000006e   Code   RO         5801    .text               mf_w.l(fepilogue.o)
    0x08005826   0x000000ba   Code   RO         5803    .text               mf_w.l(depilogue.o)
    0x080058e0   0x0000002e   Code   RO         5805    .text               mf_w.l(dscalb.o)
    0x0800590e   0x000000a2   Code   RO         5807    .text               mf_w.l(dsqrt.o)
    0x080059b0   0x00000030   Code   RO         5809    .text               mf_w.l(dfixul.o)
    0x080059e0   0x00000030   Code   RO         5813    .text               mf_w.l(cdrcmple.o)
    0x08005a10   0x00000024   Code   RO         5815    .text               mc_w.l(init.o)
    0x08005a34   0x00000050   Code   RO         4207    TOS_CORE_A          tos_core_a.o
    0x08005a84   0x00000030   Code   RO         4986    i.ADC1_GPIO_Config  main.o
    0x08005ab4   0x00000010   Code   RO         4987    i.ADC1_Init         main.o
    0x08005ac4   0x00000118   Code   RO         4988    i.ADC1_Mode_Config  main.o
    0x08005bdc   0x00000016   Code   RO           80    i.ADC_Cmd           stm32f10x_adc.o
    0x08005bf2   0x00000016   Code   RO           81    i.ADC_DMACmd        stm32f10x_adc.o
    0x08005c08   0x00000014   Code   RO           88    i.ADC_GetCalibrationStatus  stm32f10x_adc.o
    0x08005c1c   0x00000014   Code   RO           94    i.ADC_GetResetCalibrationStatus  stm32f10x_adc.o
    0x08005c30   0x00000050   Code   RO           98    i.ADC_Init          stm32f10x_adc.o
    0x08005c80   0x000000b8   Code   RO          102    i.ADC_RegularChannelConfig  stm32f10x_adc.o
    0x08005d38   0x0000000a   Code   RO          103    i.ADC_ResetCalibration  stm32f10x_adc.o
    0x08005d42   0x00000016   Code   RO          105    i.ADC_SoftwareStartConvCmd  stm32f10x_adc.o
    0x08005d58   0x0000000a   Code   RO          107    i.ADC_StartCalibration  stm32f10x_adc.o
    0x08005d62   0x00000002   PAD
    0x08005d64   0x00000044   Code   RO         3799    i.App_DisCoppy      lockcode.o
    0x08005da8   0x0000003c   Code   RO         4989    i.BOOL_LoadConfigs  main.o
    0x08005de4   0x00000016   Code   RO         4990    i.BRG_RGB           main.o
    0x08005dfa   0x0000001a   Code   RO         3527    i.BareDelay         stm32_cpu.o
    0x08005e14   0x00000024   Code   RO         4991    i.Beep_A2B          main.o
    0x08005e38   0x00000034   Code   RO         4993    i.Beep_DD           main.o
    0x08005e6c   0x00000004   Code   RO         4994    i.Beep_Dot          main.o
    0x08005e70   0x00000020   Code   RO         4995    i.Beep_OFF          main.o
    0x08005e90   0x00000036   Code   RO         4996    i.Beep_ON           main.o
    0x08005ec6   0x00000022   Code   RO         4313    i.BufferCoppy       text.o
    0x08005ee8   0x00000016   Code   RO         4314    i.BufferFill        text.o
    0x08005efe   0x00000004   Code   RO         3076    i.BusFault_Handler  stm32f10x_it.o
    0x08005f02   0x0000003c   Code   RO         4319    i.CompareWithString  text.o
    0x08005f3e   0x00000018   Code   RO          786    i.DMA_Cmd           stm32f10x_dma.o
    0x08005f56   0x00000002   PAD
    0x08005f58   0x0000014c   Code   RO          787    i.DMA_DeInit        stm32f10x_dma.o
    0x080060a4   0x0000003c   Code   RO          792    i.DMA_Init          stm32f10x_dma.o
    0x080060e0   0x0000018c   Code   RO         4210    i.DeBug             debug.o
    0x0800626c   0x0000000c   Code   RO         4213    i.DeBug_OutSet      debug.o
    0x08006278   0x00000002   Code   RO         3077    i.DebugMon_Handler  stm32f10x_it.o
    0x0800627a   0x00000002   PAD
    0x0800627c   0x00000080   Code   RO         4042    i.DeviceList_Init   tos_device.o
    0x080062fc   0x000000e8   Code   RO         4043    i.DeviceList_Printf  tos_device.o
    0x080063e4   0x000000cc   Code   RO         3735    i.DeviceMount_GPIO  gpio_driver.o
    0x080064b0   0x000000cc   Code   RO         5001    i.DeviceMount_Moto  main.o
    0x0800657c   0x000001c8   Code   RO         3365    i.DeviceMount_Uart  usart_driver.o
    0x08006744   0x00000012   Code   RO         3366    i.DeviceMount_Usart  usart_driver.o
    0x08006756   0x00000002   PAD
    0x08006758   0x000000b8   Code   RO         4046    i.Device_Init       tos_device.o
    0x08006810   0x00000024   Code   RO         4047    i.Device_Ok         tos_device.o
    0x08006834   0x0000011c   Code   RO         5003    i.EXTI15_10_IRQHandler  main.o
    0x08006950   0x0000000c   Code   RO          860    i.EXTI_ClearITPendingBit  stm32f10x_exti.o
    0x0800695c   0x00000094   Code   RO          865    i.EXTI_Init         stm32f10x_exti.o
    0x080069f0   0x00000044   Code   RO         5004    i.Exti_EnableIRQ    main.o
    0x08006a34   0x0000007c   Code   RO         5005    i.Exti_IOPort_Init  main.o
    0x08006ab0   0x0000004c   Code   RO          921    i.FLASH_ErasePage   stm32f10x_flash.o
    0x08006afc   0x00000034   Code   RO          922    i.FLASH_GetBank1Status  stm32f10x_flash.o
    0x08006b30   0x00000014   Code   RO          931    i.FLASH_Lock        stm32f10x_flash.o
    0x08006b44   0x00000040   Code   RO          934    i.FLASH_ProgramHalfWord  stm32f10x_flash.o
    0x08006b84   0x00000018   Code   RO          939    i.FLASH_Unlock      stm32f10x_flash.o
    0x08006b9c   0x00000026   Code   RO          943    i.FLASH_WaitForLastOperation  stm32f10x_flash.o
    0x08006bc2   0x0000001c   Code   RO         4848    i.Flash_ReadData    appconfig.o
    0x08006bde   0x00000070   Code   RO         4849    i.Flash_WriteData   appconfig.o
    0x08006c4e   0x0000003a   Code   RO         4335    i.FlowPoolFilter    text.o
    0x08006c88   0x00000040   Code   RO         1219    i.GPIO_EXTILineConfig  stm32f10x_gpio.o
    0x08006cc8   0x0000003c   Code   RO         3739    i.GPIO_GetIndex     gpio_driver.o
    0x08006d04   0x00000116   Code   RO         1222    i.GPIO_Init         stm32f10x_gpio.o
    0x08006e1a   0x00000002   PAD
    0x08006e1c   0x00000088   Code   RO         3529    i.GPIO_InitList     stm32_cpu.o
    0x08006ea4   0x00000090   Code   RO         1224    i.GPIO_PinRemapConfig  stm32f10x_gpio.o
    0x08006f34   0x00000012   Code   RO         1226    i.GPIO_ReadInputDataBit  stm32f10x_gpio.o
    0x08006f46   0x00000004   Code   RO         1229    i.GPIO_ResetBits    stm32f10x_gpio.o
    0x08006f4a   0x0000001e   Code   RO         3740    i.GPIO_Set          gpio_driver.o
    0x08006f68   0x00000004   Code   RO         1230    i.GPIO_SetBits      stm32f10x_gpio.o
    0x08006f6c   0x00000034   Code   RO         3742    i.GPIO_SetIndex     gpio_driver.o
    0x08006fa0   0x00000080   Code   RO         4216    i.GetChar_List      debug.o
    0x08007020   0x00000070   Code   RO         3530    i.GetCodeStr64      stm32_cpu.o
    0x08007090   0x00000028   Code   RO         5006    i.GetData           main.o
    0x080070b8   0x0000001c   Code   RO         5008    i.GetKeyBoardValue  main.o
    0x080070d4   0x00000018   Code   RO         4347    i.GetTextLength     text.o
    0x080070ec   0x0000002c   Code   RO         3533    i.GetTosTask_Count  stm32_cpu.o
    0x08007118   0x000000e4   Code   RO         5010    i.HHT21_Read        main.o
    0x080071fc   0x00000008   Code   RO         3078    i.HardFault_Handler  stm32f10x_it.o
    0x08007204   0x0000000c   Code   RO         3536    i.IAP_ErasePage     stm32_cpu.o
    0x08007210   0x00000008   Code   RO         3537    i.IAP_Lock          stm32_cpu.o
    0x08007218   0x00000010   Code   RO         3538    i.IAP_ProgramHalfWord  stm32_cpu.o
    0x08007228   0x00000008   Code   RO         3539    i.IAP_Unlock        stm32_cpu.o
    0x08007230   0x0000000e   Code   RO         5011    i.IIC_DelayUs       main.o
    0x0800723e   0x00000024   Code   RO         5013    i.IIC_Pin_In        main.o
    0x08007262   0x00000024   Code   RO         5014    i.IIC_Pin_Out       main.o
    0x08007286   0x0000004c   Code   RO         5015    i.IIC_ReadAck       main.o
    0x080072d2   0x00000060   Code   RO         5017    i.IIC_RecvByte      main.o
    0x08007332   0x00000040   Code   RO         5019    i.IIC_SendAck       main.o
    0x08007372   0x00000058   Code   RO         5020    i.IIC_SendByte      main.o
    0x080073ca   0x00000038   Code   RO         5022    i.IIC_Start         main.o
    0x08007402   0x00000038   Code   RO         5023    i.IIC_Stop          main.o
    0x0800743a   0x00000002   PAD
    0x0800743c   0x0000063c   Code   RO         5025    i.IMUupdate         main.o
    0x08007a78   0x00000118   Code   RO         5026    i.IR_Moto           main.o
    0x08007b90   0x00000022   Code   RO         3540    i.IWDG_Configuration  stm32_cpu.o
    0x08007bb2   0x00000002   PAD
    0x08007bb4   0x00000010   Code   RO         1537    i.IWDG_Enable       stm32f10x_iwdg.o
    0x08007bc4   0x00000010   Code   RO         1539    i.IWDG_ReloadCounter  stm32f10x_iwdg.o
    0x08007bd4   0x0000000c   Code   RO         1540    i.IWDG_SetPrescaler  stm32f10x_iwdg.o
    0x08007be0   0x0000000c   Code   RO         1541    i.IWDG_SetReload    stm32f10x_iwdg.o
    0x08007bec   0x0000000c   Code   RO         1542    i.IWDG_WriteAccessCmd  stm32f10x_iwdg.o
    0x08007bf8   0x00000038   Code   RO         5027    i.InitMPU6050       main.o
    0x08007c30   0x0000001c   Code   RO         4850    i.Load_AppConfig    appconfig.o
    0x08007c4c   0x00000066   Code   RO         4851    i.Load_VoidConfig   appconfig.o
    0x08007cb2   0x00000002   PAD
    0x08007cb4   0x00000028   Code   RO         3542    i.MCU_Reset         stm32_cpu.o
    0x08007cdc   0x00000022   Code   RO         5028    i.MUI_GetKey        main.o
    0x08007cfe   0x00000004   Code   RO         3079    i.MemManage_Handler  stm32f10x_it.o
    0x08007d02   0x00000002   PAD
    0x08007d04   0x0000001c   Code   RO         4116    i.Mema_Count        tos_mema.o
    0x08007d20   0x00000030   Code   RO         4118    i.Mema_Free         tos_mema.o
    0x08007d50   0x0000000c   Code   RO         4119    i.Mema_GetSize      tos_mema.o
    0x08007d5c   0x0000001c   Code   RO         4120    i.Mema_Init         tos_mema.o
    0x08007d78   0x0000004c   Code   RO         4121    i.Mema_Malloc       tos_mema.o
    0x08007dc4   0x0000002e   Code   RO         5031    i.Moto_A            main.o
    0x08007df2   0x00000014   Code   RO         5032    i.Moto_AB           main.o
    0x08007e06   0x0000002e   Code   RO         5033    i.Moto_B            main.o
    0x08007e34   0x00000014   Code   RO         5034    i.Moto_Stop         main.o
    0x08007e48   0x00000002   Code   RO         3080    i.NMI_Handler       stm32f10x_it.o
    0x08007e4a   0x00000002   PAD
    0x08007e4c   0x00000070   Code   RO            1    i.NVIC_Init         misc.o
    0x08007ebc   0x00000014   Code   RO            2    i.NVIC_PriorityGroupConfig  misc.o
    0x08007ed0   0x00000014   Code   RO            3    i.NVIC_SetVectorTable  misc.o
    0x08007ee4   0x00000034   Code   RO         5035    i.PWM_Set           main.o
    0x08007f18   0x00000002   Code   RO         3081    i.PendSV_Handler    stm32f10x_it.o
    0x08007f1a   0x00000002   PAD
    0x08007f1c   0x00000090   Code   RO         3543    i.Printf_BoardInfor  stm32_cpu.o
    0x08007fac   0x00000002   Code   RO         3546    i.Printf_LcdType    stm32_cpu.o
    0x08007fae   0x00000002   PAD
    0x08007fb0   0x00000024   Code   RO         3547    i.Printf_LockCode   stm32_cpu.o
    0x08007fd4   0x00000002   Code   RO         3548    i.Printf_NandInfor  stm32_cpu.o
    0x08007fd6   0x00000002   PAD
    0x08007fd8   0x00000044   Code   RO         3549    i.Printf_SysInfor   stm32_cpu.o
    0x0800801c   0x00000040   Code   RO         3550    i.Printf_TaskInfor  stm32_cpu.o
    0x0800805c   0x00000094   Code   RO         3551    i.Printf_TosInfor   stm32_cpu.o
    0x080080f0   0x000000f0   Code   RO         5037    i.PwmTimeInt        main.o
    0x080081e0   0x00000020   Code   RO         1646    i.RCC_AHBPeriphClockCmd  stm32f10x_rcc.o
    0x08008200   0x00000020   Code   RO         1647    i.RCC_APB1PeriphClockCmd  stm32f10x_rcc.o
    0x08008220   0x00000020   Code   RO         1649    i.RCC_APB2PeriphClockCmd  stm32f10x_rcc.o
    0x08008240   0x000000d4   Code   RO         1657    i.RCC_GetClocksFreq  stm32f10x_rcc.o
    0x08008314   0x00000036   Code   RO         5038    i.RGB_Light         main.o
    0x0800834a   0x00000002   PAD
    0x0800834c   0x00000048   Code   RO         5039    i.RandomADC         main.o
    0x08008394   0x00000022   Code   RO         5040    i.RandomEYE         main.o
    0x080083b6   0x00000020   Code   RO         5041    i.RandomLight       main.o
    0x080083d6   0x00000002   PAD
    0x080083d8   0x00000010   Code   RO         3552    i.Remap_SWJ_JTAGDisable  stm32_cpu.o
    0x080083e8   0x00000018   Code   RO         5042    i.SHT21Init         main.o
    0x08008400   0x00000030   Code   RO         5043    i.SHT21_Config      main.o
    0x08008430   0x00000030   Code   RO         5044    i.SHT21_Reset       main.o
    0x08008460   0x00000002   Code   RO         3082    i.SVC_Handler       stm32f10x_it.o
    0x08008462   0x00000002   PAD
    0x08008464   0x0000001c   Code   RO         4852    i.Save_AppConfig    appconfig.o
    0x08008480   0x0000002c   Code   RO         4853    i.Save_VoidConfig   appconfig.o
    0x080084ac   0x00000008   Code   RO         3175    i.SetSysClock       system_stm32f10x.o
    0x080084b4   0x000000e0   Code   RO         3176    i.SetSysClockTo72   system_stm32f10x.o
    0x08008594   0x00000050   Code   RO         5046    i.Single_ReadI2C    main.o
    0x080085e4   0x0000003c   Code   RO         5047    i.Single_WriteI2C   main.o
    0x08008620   0x00000042   Code   RO         4362    i.StringEndingAppend  text.o
    0x08008662   0x00000008   Code   RO         3083    i.SysTick_Handler   stm32f10x_it.o
    0x0800866a   0x00000002   PAD
    0x0800866c   0x00000058   Code   RO         3554    i.SysTick_Set       stm32_cpu.o
    0x080086c4   0x00000060   Code   RO         3178    i.SystemInit        system_stm32f10x.o
    0x08008724   0x00000014   Code   RO         5050    i.System_Reset      main.o
    0x08008738   0x0000000e   Code   RO         5051    i.System_ResetDelay  main.o
    0x08008746   0x00000002   PAD
    0x08008748   0x00000018   Code   RO         5052    i.System_SaveConfig  main.o
    0x08008760   0x00000018   Code   RO         2278    i.TIM_ARRPreloadConfig  stm32f10x_tim.o
    0x08008778   0x00000018   Code   RO         2290    i.TIM_Cmd           stm32f10x_tim.o
    0x08008790   0x00000098   Code   RO         2319    i.TIM_OC1Init       stm32f10x_tim.o
    0x08008828   0x00000012   Code   RO         2322    i.TIM_OC1PreloadConfig  stm32f10x_tim.o
    0x0800883a   0x00000002   PAD
    0x0800883c   0x000000a4   Code   RO         2324    i.TIM_OC2Init       stm32f10x_tim.o
    0x080088e0   0x0000001a   Code   RO         2327    i.TIM_OC2PreloadConfig  stm32f10x_tim.o
    0x080088fa   0x00000002   PAD
    0x080088fc   0x000000a0   Code   RO         2329    i.TIM_OC3Init       stm32f10x_tim.o
    0x0800899c   0x00000012   Code   RO         2332    i.TIM_OC3PreloadConfig  stm32f10x_tim.o
    0x080089ae   0x00000002   PAD
    0x080089b0   0x0000007c   Code   RO         2334    i.TIM_OC4Init       stm32f10x_tim.o
    0x08008a2c   0x0000001a   Code   RO         2336    i.TIM_OC4PreloadConfig  stm32f10x_tim.o
    0x08008a46   0x00000002   PAD
    0x08008a48   0x000000a4   Code   RO         2361    i.TIM_TimeBaseInit  stm32f10x_tim.o
    0x08008aec   0x00000064   Code   RO         5053    i.Task0             main.o
    0x08008b50   0x0000005e   Code   RO         5054    i.Task1             main.o
    0x08008bae   0x00000002   PAD
    0x08008bb0   0x000000a4   Code   RO         4902    i.Task_Arrary       func_face.o
    0x08008c54   0x0000008c   Code   RO         5055    i.Task_Gyro         main.o
    0x08008ce0   0x0000036c   Code   RO         5056    i.Task_IR           main.o
    0x0800904c   0x00000024   Code   RO         4903    i.Task_Join         func_face.o
    0x08009070   0x00000090   Code   RO         5057    i.Task_KeyBoard     main.o
    0x08009100   0x00000008   Code   RO         5058    i.Task_LoadConfigs  main.o
    0x08009108   0x000000a8   Code   RO         5059    i.Task_Moto         main.o
    0x080091b0   0x000000e8   Code   RO         5060    i.Task_Power        main.o
    0x08009298   0x00000020   Code   RO         5063    i.Task_SaveConfigs  main.o
    0x080092b8   0x0000002c   Code   RO         5064    i.TempHmi           main.o
    0x080092e4   0x00000020   Code   RO         5066    i.TestStart         main.o
    0x08009304   0x000000f8   Code   RO         5067    i.TestStartt        main.o
    0x080093fc   0x0000002a   Code   RO         4373    i.ToHex64           text.o
    0x08009426   0x00000002   PAD
    0x08009428   0x00000040   Code   RO         4753    i.Tools_GetCRC16    cheakout.o
    0x08009468   0x0000005c   Code   RO         3828    i.Tos_ComputeCPURate  tos.o
    0x080094c4   0x00000038   Code   RO         3829    i.Tos_GetTaskIDByName  tos.o
    0x080094fc   0x00000098   Code   RO         3830    i.Tos_Init          tos.o
    0x08009594   0x00000020   Code   RO         3831    i.Tos_ListCreate    tos.o
    0x080095b4   0x00000026   Code   RO         3832    i.Tos_RootTask      tos.o
    0x080095da   0x00000002   PAD
    0x080095dc   0x00000038   Code   RO         4168    i.Tos_ScanTimer     tos_timer.o
    0x08009614   0x00000030   Code   RO         3834    i.Tos_Start         tos.o
    0x08009644   0x00000048   Code   RO         3835    i.Tos_SysTick       tos.o
    0x0800968c   0x000000d0   Code   RO         3836    i.Tos_TaskCreate    tos.o
    0x0800975c   0x00000064   Code   RO         3837    i.Tos_TaskCreateFindID  tos.o
    0x080097c0   0x00000060   Code   RO         3838    i.Tos_TaskCreateQmsg  tos.o
    0x08009820   0x00000060   Code   RO         3839    i.Tos_TaskDelay     tos.o
    0x08009880   0x00000040   Code   RO         4048    i.Tos_TaskDropDev   tos_device.o
    0x080098c0   0x0000008c   Code   RO         4049    i.Tos_TaskGetDev    tos_device.o
    0x0800994c   0x00000014   Code   RO         5068    i.Tos_TaskGetHandKey  main.o
    0x08009960   0x00000064   Code   RO         3843    i.Tos_TaskGetQMsg   tos.o
    0x080099c4   0x00000064   Code   RO         3844    i.Tos_TaskGetQMsgDelay  tos.o
    0x08009a28   0x00000080   Code   RO         3846    i.Tos_TaskPutQmsg   tos.o
    0x08009aa8   0x000000c0   Code   RO         3848    i.Tos_TaskReady     tos.o
    0x08009b68   0x00000034   Code   RO         3849    i.Tos_TaskRecover   tos.o
    0x08009b9c   0x00000054   Code   RO         3851    i.Tos_TaskRun       tos.o
    0x08009bf0   0x0000006e   Code   RO         3853    i.Tos_TaskStackInit  tos.o
    0x08009c5e   0x00000002   PAD
    0x08009c60   0x00000024   Code   RO         3854    i.Tos_TaskStart     tos.o
    0x08009c84   0x0000004c   Code   RO         3855    i.Tos_TaskStop      tos.o
    0x08009cd0   0x0000007c   Code   RO         3856    i.Tos_TaskSuspend   tos.o
    0x08009d4c   0x000000a0   Code   RO         3857    i.Tos_TaskSwitch    tos.o
    0x08009dec   0x00000012   Code   RO         3858    i.Tos_TaskTcbInit   tos.o
    0x08009dfe   0x00000002   PAD
    0x08009e00   0x00000054   Code   RO         3859    i.Tos_TaskTimeout   tos.o
    0x08009e54   0x00000054   Code   RO         4169    i.Tos_TimerReady    tos_timer.o
    0x08009ea8   0x0000003c   Code   RO         3860    i.Tos_WaitDev       tos.o
    0x08009ee4   0x00000060   Code   RO         3367    i.USART1_IRQHandler  usart_driver.o
    0x08009f44   0x00000060   Code   RO         3368    i.USART2_IRQHandler  usart_driver.o
    0x08009fa4   0x00000012   Code   RO         2825    i.USART_ClearFlag   stm32f10x_usart.o
    0x08009fb6   0x0000001e   Code   RO         2826    i.USART_ClearITPendingBit  stm32f10x_usart.o
    0x08009fd4   0x00000018   Code   RO         2829    i.USART_Cmd         stm32f10x_usart.o
    0x08009fec   0x0000007c   Code   RO         3370    i.USART_Configuration  usart_driver.o
    0x0800a068   0x0000006e   Code   RO         3371    i.USART_ConfigurationAll  usart_driver.o
    0x0800a0d6   0x00000002   PAD
    0x0800a0d8   0x000000c8   Code   RO         3372    i.USART_GPIO_Init   usart_driver.o
    0x0800a1a0   0x00000056   Code   RO         3373    i.USART_GPIO_InitAll  usart_driver.o
    0x0800a1f6   0x00000054   Code   RO         2833    i.USART_GetITStatus  stm32f10x_usart.o
    0x0800a24a   0x00000002   PAD
    0x0800a24c   0x00000048   Code   RO         3374    i.USART_GetIndex    usart_driver.o
    0x0800a294   0x0000003c   Code   RO         3377    i.USART_GetTypeDef  usart_driver.o
    0x0800a2d0   0x0000004a   Code   RO         2835    i.USART_ITConfig    stm32f10x_usart.o
    0x0800a31a   0x00000002   PAD
    0x0800a31c   0x000000d8   Code   RO         2836    i.USART_Init        stm32f10x_usart.o
    0x0800a3f4   0x00000040   Code   RO         3378    i.USART_Read        usart_driver.o
    0x0800a434   0x000000b8   Code   RO         3379    i.USART_ReadDatas   usart_driver.o
    0x0800a4ec   0x00000020   Code   RO         3380    i.USART_Write       usart_driver.o
    0x0800a50c   0x00000022   Code   RO         3382    i.USART_WriteDatas  usart_driver.o
    0x0800a52e   0x0000000c   Code   RO         3084    i.USBWakeUp_IRQHandler  stm32f10x_it.o
    0x0800a53a   0x00000004   Code   RO         3085    i.UsageFault_Handler  stm32f10x_it.o
    0x0800a53e   0x00000014   Code   RO         5069    i.WS2812_Close      main.o
    0x0800a552   0x0000000e   Code   RO         5070    i.WS2812_Delay      main.o
    0x0800a560   0x00000018   Code   RO         5071    i.WS2812_Open       main.o
    0x0800a578   0x00000028   Code   RO         5072    i.WS2812_Write      main.o
    0x0800a5a0   0x0000006e   Code   RO         5073    i.WS2812_WriteList  main.o
    0x0800a60e   0x0000000e   Code   RO         5074    i.WS_Close          main.o
    0x0800a61c   0x00000082   Code   RO         5075    i.WS_Double         main.o
    0x0800a69e   0x00000002   PAD
    0x0800a6a0   0x00000024   Code   RO         5666    i.__0vsprintf       mc_w.l(printfa.o)
    0x0800a6c4   0x00000028   Code   RO         5750    i.__ARM_fpclassify  m_ws.l(fpclassify.o)
    0x0800a6ec   0x000000aa   Code   RO         5752    i.__kernel_poly     m_ws.l(poly.o)
    0x0800a796   0x00000006   Code   RO         5737    i.__mathlib_dbl_infnan  m_ws.l(dunder.o)
    0x0800a79c   0x00000004   Code   RO         5738    i.__mathlib_dbl_infnan2  m_ws.l(dunder.o)
    0x0800a7a0   0x0000000c   Code   RO         5739    i.__mathlib_dbl_invalid  m_ws.l(dunder.o)
    0x0800a7ac   0x00000010   Code   RO         5742    i.__mathlib_dbl_underflow  m_ws.l(dunder.o)
    0x0800a7bc   0x0000000e   Code   RO         5821    i.__scatterload_copy  mc_w.l(handlers.o)
    0x0800a7ca   0x00000002   Code   RO         5822    i.__scatterload_null  mc_w.l(handlers.o)
    0x0800a7cc   0x0000000e   Code   RO         5823    i.__scatterload_zeroinit  mc_w.l(handlers.o)
    0x0800a7da   0x00000002   PAD
    0x0800a7dc   0x0000000c   Code   RO         5795    i.__set_errno       mc_w.l(errno.o)
    0x0800a7e8   0x00000164   Code   RO         5667    i._fp_digits        mc_w.l(printfa.o)
    0x0800a94c   0x000006dc   Code   RO         5668    i._printf_core      mc_w.l(printfa.o)
    0x0800b028   0x00000024   Code   RO         5669    i._printf_post_padding  mc_w.l(printfa.o)
    0x0800b04c   0x0000002e   Code   RO         5670    i._printf_pre_padding  mc_w.l(printfa.o)
    0x0800b07a   0x0000000a   Code   RO         5672    i._sputc            mc_w.l(printfa.o)
    0x0800b084   0x00000270   Code   RO         5620    i.asin              m_ws.l(asin.o)
    0x0800b2f4   0x00000220   Code   RO         5724    i.atan              m_ws.l(atan.o)
    0x0800b514   0x00000180   Code   RO         5630    i.atan2             m_ws.l(atan2.o)
    0x0800b694   0x00000040   Code   RO         5078    i.main              main.o
    0x0800b6d4   0x0000004c   Code   RO         5646    i.sqrt              m_ws.l(sqrt.o)
    0x0800b720   0x00000022   Data   RO         3801    .constdata          lockcode.o
    0x0800b742   0x00000200   Data   RO         4757    .constdata          cheakout.o
    0x0800b942   0x00000002   PAD
    0x0800b944   0x00000248   Data   RO         5081    .constdata          main.o
    0x0800bb8c   0x00000004   PAD
    0x0800bb90   0x00000050   Data   RO         5621    .constdata          m_ws.l(asin.o)
    0x0800bbe0   0x00000098   Data   RO         5725    .constdata          m_ws.l(atan.o)
    0x0800bc78   0x00000008   Data   RO         5754    .constdata          m_ws.l(qnan.o)
    0x0800bc80   0x00000018   Data   RO         4907    .conststring        func_face.o
    0x0800bc98   0x000000d5   Data   RO         5082    .conststring        main.o
    0x0800bd6d   0x00000003   PAD
    0x0800bd70   0x00000020   Data   RO         5819    Region$$Table       anon$$obj.o


    Execution Region RW_IRAM1 (Base: 0x20000000, Size: 0x00004368, Max: 0x00005000, ABSOLUTE)

    Base Addr    Size         Type   Attr      Idx    E Section Name        Object

    0x20000000   0x00000014   Data   RW         1677    .data               stm32f10x_rcc.o
    0x20000014   0x00000018   Data   RW         3385    .data               usart_driver.o
    0x2000002c   0x00000001   Data   RW         3744    .data               gpio_driver.o
    0x2000002d   0x00000003   PAD
    0x20000030   0x00000025   Data   RW         3861    .data               tos.o
    0x20000055   0x00000003   PAD
    0x20000058   0x00000008   Data   RW         4050    .data               tos_device.o
    0x20000060   0x00000004   Data   RW         4123    .data               tos_mema.o
    0x20000064   0x00000004   Data   RW         4170    .data               tos_timer.o
    0x20000068   0x00000007   Data   RW         4217    .data               debug.o
    0x2000006f   0x00000001   PAD
    0x20000070   0x00000008   Data   RW         4908    .data               func_face.o
    0x20000078   0x00000031   Data   RW         5083    .data               main.o
    0x200000a9   0x00000003   PAD
    0x200000ac   0x00000004   Data   RW         5657    .data               mc_w.l(rand.o)
    0x200000b0   0x00000004   Data   RW         5796    .data               mc_w.l(errno.o)
    0x200000b4   0x00000018   Zero   RW         3384    .bss                usart_driver.o
    0x200000cc   0x00003e80   Zero   RW         4122    .bss                tos_mema.o
    0x20003f4c   0x0000001c   Zero   RW         5080    .bss                main.o
    0x20003f68   0x00000400   Zero   RW         3216    STACK               startup_stm32f10x_ld.o


==============================================================================

Image component sizes


      Code (inc. data)   RO Data    RW Data    ZI Data      Debug   Object Name

       342         16          0          0          0       4265   appconfig.o
        64          8        512          0          0       1269   cheakout.o
         0          0          0          0          0        876   comkeyboard.o
         0          0          0          0          0         32   core_cm3.o
       536         42          0          7          0       2223   debug.o
       200         18         24          8          0       2899   func_face.o
       346         40          0          1          0       2650   gpio_driver.o
        68         10         34          0          0       1177   lockcode.o
      7556        456        797         49         28      46223   main.o
       152         30          0          0          0     235073   misc.o
         0          0          0          0          0        456   spi_driver.o
        36          8        236          0       1024        764   startup_stm32f10x_ld.o
      1004        280          0          0          0      25211   stm32_cpu.o
       390         10          0          0          0      16801   stm32f10x_adc.o
       416          8          0          0          0      13438   stm32f10x_dma.o
       160         12          0          0          0       3845   stm32f10x_exti.o
       274         30          0          0          0      10002   stm32f10x_flash.o
       512         10          0          0          0       5308   stm32f10x_gpio.o
        48          0          0          0          0       5755   stm32f10x_it.o
        68         30          0          0          0       2602   stm32f10x_iwdg.o
       308         38          0         20          0       5146   stm32f10x_rcc.o
       900         92          0          0          0      28264   stm32f10x_tim.o
       446          6          0          0          0      11926   stm32f10x_usart.o
       328         28          0          0          0       3513   system_stm32f10x.o
       306          0          0          0          0       4571   text.o
      2314        232          0         37          0      15777   tos.o
        80         10          0          0          0        228   tos_core_a.o
       784        120          0          8          0       4771   tos_device.o
       192         20          0          4      16000       3508   tos_mema.o
       140         10          0          4          0       2131   tos_timer.o
      1632        226          0         24         24      11797   usart_driver.o

    ----------------------------------------------------------------------
     19664       1790       1644        172      17076     472501   Object Totals
         0          0         32          0          0          0   (incl. Generated)
        62          0          9         10          0          0   (incl. Padding)

    ----------------------------------------------------------------------

      Code (inc. data)   RO Data    RW Data    ZI Data      Debug   Library Member Name

       624         52         80          0          0        168   asin.o
       544         70        152          0          0        124   atan.o
       384         38          0          0          0        144   atan2.o
        38          6          0          0          0        272   dunder.o
        40          0          0          0          0         68   fpclassify.o
       170          0          0          0          0         96   poly.o
         0          0          8          0          0          0   qnan.o
        76          0          0          0          0         84   sqrt.o
         0          0          0          0          0          0   entry.o
         0          0          0          0          0          0   entry10a.o
         0          0          0          0          0          0   entry11a.o
         8          4          0          0          0          0   entry2.o
         4          0          0          0          0          0   entry5.o
         0          0          0          0          0          0   entry7b.o
         0          0          0          0          0          0   entry8b.o
         8          4          0          0          0          0   entry9a.o
        12          6          0          4          0         68   errno.o
        30          0          0          0          0          0   handlers.o
        36          8          0          0          0         68   init.o
         0          0          0          0          0          0   iusefp.o
        30          0          0          0          0         68   llshl.o
        36          0          0          0          0         68   llsshr.o
        32          0          0          0          0         68   llushr.o
      2240         86          0          0          0        508   printfa.o
        36         10          0          4          0        136   rand.o
        44          0          0          0          0         80   uidiv.o
        98          0          0          0          0         92   uldiv.o
        48          0          0          0          0         68   cdrcmple.o
        56          0          0          0          0         88   d2f.o
       334          0          0          0          0        148   dadd.o
       222          0          0          0          0        100   ddiv.o
       186          0          0          0          0        176   depilogue.o
        62          0          0          0          0         80   dfixi.o
        48          0          0          0          0         68   dfixul.o
       228          0          0          0          0         96   dmul.o
        46          0          0          0          0         80   dscalb.o
       162          0          0          0          0        100   dsqrt.o
        38          0          0          0          0         68   f2d.o
       176          0          0          0          0        140   fadd.o
       124          0          0          0          0         88   fdiv.o
       110          0          0          0          0        168   fepilogue.o
        40          0          0          0          0         68   ffixui.o
        18          0          0          0          0         68   fflti.o
        10          0          0          0          0         68   ffltui.o
       100          0          0          0          0         76   fmul.o

    ----------------------------------------------------------------------
      6500        284        240          8          0       3860   Library Totals
         2          0          0          0          0          0   (incl. Padding)

    ----------------------------------------------------------------------

      Code (inc. data)   RO Data    RW Data    ZI Data      Debug   Library Name

      1876        166        240          0          0        956   m_ws.l
      2614        118          0          8          0       1156   mc_w.l
      2008          0          0          0          0       1748   mf_w.l

    ----------------------------------------------------------------------
      6500        284        240          8          0       3860   Library Totals

    ----------------------------------------------------------------------

==============================================================================


      Code (inc. data)   RO Data    RW Data    ZI Data      Debug   

     26164       2074       1884        180      17076     462525   Grand Totals
     26164       2074       1884        180      17076     462525   ELF Image Totals
     26164       2074       1884        180          0          0   ROM Totals

==============================================================================

    Total RO  Size (Code + RO Data)                28048 (  27.39kB)
    Total RW  Size (RW Data + ZI Data)             17256 (  16.85kB)
    Total ROM Size (Code + RO Data + RW Data)      28228 (  27.57kB)

==============================================================================

