:020000040800F2
:1050000098B600204551000805B60008458B0008F9
:1050100091B20008315F0008C139010800000000AA
:10502000000000000000000000000000A9E40008EB
:10503000E96B0008000000008DB700084BED000888
:105040005F5100085F5100085F5100085F51000880
:105050005F5100085F5100085F5100082976000881
:105060005F5100085F5100085F5100085F51000860
:105070005F5100085F5100085F5100085F51000850
:105080005F5100085F5100085F5100085F51000840
:105090005F5100085F5100085F5100085F51000830
:1050A0005F5100085F5100085F5100085F51000820
:1050B0005F5100085F5100085F5100085F51000810
:1050C0005F5100085F5100085F5100085F51000800
:1050D0005F510008BD3201081D3301087D3301080E
:1050E0005F5100085F510008AD3901085F510008A9
:1050F0005F5100085F5100085F5100085F510008D0
:105100005F5100085F5100085F5100085F510008BF
:10511000FD3101085D3201085F5100085F51000850
:105120005F5100085F5100085F5100085F5100089F
:10513000DFF80CD000F0A2FC004800478D430108C6
:1051400098B600200648804706480047FEE7FEE77D
:10515000FEE7FEE7FEE7FEE7FEE7FEE7FEE7FEE727
:10516000EDED00083151000830B505462A460B46E2
:1051700012F8010B13F8014B08B1A042F8D01CB192
:10518000002802D06D1CF1E7284630BDF0B480EA5B
:105190000102D40F4200B2EB410F02D20246084690
:1051A00011464A0042D0C30DDDB2C1F3C752AD1A59
:1051B000202D35DAC1F3160141F4000204B1524248
:1051C000C5F1200602FA06F12A411044B3EBD05F84
:1051D00023D0C4B1012DA0EBC35009DCF0BC4FF0CB
:1051E000004202EAC35200F50000DBB200F0A1BBAE
:1051F000400000F1807000EBC350A0F1807040EAE5
:10520000D170490009E0490841EAC071A0EBC350E0
:1052100000F50000400800EBC350F0BC00F080BB7C
:105220006142012202EB4101001BF6E7F0BC70472E
:1052300081F00041AAE780F00040A7E780EA010280
:1052400010B502F00043400026D04A0023D04FEAB8
:10525000106101EB1261C0F35600C2F3560240F434
:10526000000042F40002A0FB0220A1F17F014FEAFE
:105270000040140401D000F1010050EA124001D4B2
:105280004000491EC2B20C0604EBD010401C40087E
:10529000802A02D003E0002010BD20F00100002988
:1052A00000DA0020184310BD30B480EA010202F099
:1052B000004530F0004221F0004015D0A0B1C0F30D
:1052C000C753C2F3C754C2F31601C0F31600E41A61
:1052D00041F4000140F400027D34914201D3641C8A
:1052E00000E04900002C02DA30BC002070474FF487
:1052F00000000023914201D3891A034340084FEA7A
:105300004101F7D151B1914202D14FF0004105E086
:1053100002D24FF0010101E06FF0010103EBC45034
:10532000284430BC00F0FCBA2DE9FE4F804681EAEB
:105330000300C00F0C46009021F0004123F000450F
:10534000B8EB0200A94105D24046214690461C46D2
:105350000B46024623F00040104304D1404621464C
:1053600003B0BDE8F08F270DC7F30A00C3F30A515D
:105370000290401A0190402866DAC3F3130040F40B
:10538000801B0098924620B10023D2EB030A63EB06
:105390000B0B01985946C0F14002504600F08FFABD
:1053A00006460D4650465946019A00F0A7FA10EB02
:1053B00008006141002487EA115284EAE7731A4326
:1053C0003BD0009A3AB3019A012A4FEA075210DC07
:1053D000001B61EB02014FF0004202EA0752CDE9E7
:1053E0000042001C41F5801132462B4600F0DBFAEA
:1053F000B6E7001B61EB0201001C41F580130018A9
:105400005B412018A2F5001747EB030140EAD57075
:10541000B6196D4111E06D084FEA360645EAC075D0
:105420004FEA0752001B61EB0201001C41F580119D
:1054300049084FEA30000019514132462B4603B06B
:10544000BDE8F04F00F0A2BA00980122400000230E
:10545000D0EB020263EBE073009821464FEAE07460
:10546000B8EB000061EB0401E9E783F000435BE780
:1054700081F0004158E72DE9FE4F81EA030404F072
:10548000004421F0004100944FF0000B23F0004352
:1054900050EA010402D052EA030404D1002001467C
:1054A00003B0BDE8F08FC3F30A54C1F30A552C448E
:1054B000A4F2F3340194A0FB0254C1F3130141F4AC
:1054C0008011C3F3130343F4801301FB024400FB78
:1054D000034E840A970A44EA815447EA8357A4FB9F
:1054E000076802958D0A05FB07854FEA932C04FB9C
:1054F0000C542705029D4FEA065847EA1637B5EBCC
:1055000008056EEB070C870E920E47EA811742EAF8
:105510008312A7FB0201B6EB0B0164EB00042B0D19
:1055200043EA0C335E1844EB1C50DA465146E7FB65
:105530000201C5F313044FEA0B3343EA14534FEA55
:105540000432019C43EA0603A4F10C040294009C7B
:10555000CDE900B400F027FAA2E72DE9F04D81EA89
:10556000030404F0004B21F0004514464FF0000AFC
:1055700023F0004150EA050220D054EA01021DD078
:10558000C5F30A570246C5F31303C1F31300C1F371
:105590000A5640F4801543F48013A7EB0608101B4D
:1055A000D64608F2FD3873EB050002D308F1010876
:1055B00001E092185B41B8F1000F03DA00200146C8
:1055C000BDE8F08D00204FF48011064684460EE0C1
:1055D000171B73EB050705D3121B63EB050306438B
:1055E0004CEA010C49084FEA300092185B4150EA3E
:1055F0000107EDD152EA030012D082EA040083EAE7
:105600000501084303D100224FF0004308E0101BBE
:10561000AB4102D20122002302E06FF001025310DD
:105620001AEB06004CEB085110EB0A0041EB0B01A2
:10563000BDE8F04D00F0AAB9C10F80EAE07008445F
:10564000CA079623002100F074B996230022114660
:1056500000F06FB90EB5C10F80EAE0700844CA07C8
:10566000002140F233438DE80E000A460B4600F05D
:105670009AF903B000BD0EB540F23341029100210A
:10568000CDE900110A460B4600F08DF903B000BDCC
:1056900000F0004220F00040C10DC0F3160040F4BD
:1056A00000007F2901DA00207047962903DCC1F150
:1056B0009601C84001E096398840002AF4D0404263
:1056C000704720F00040C10DC0F3160040F4000008
:1056D0007F2901DA00207047962903DCC1F1960189
:1056E000C840704796398840704770B5C1F30A5278
:1056F00001F000450024C1F3130140F2FF3341F4EF
:1057000080119A4201DA002070BD40F233439A4280
:10571000A2F2334203DC524200F0E0F800E0904095
:105720002C43F1D0404270BDC1F30A5210B5C1F311
:10573000130140F2FF3341F480119A4201DA002054
:1057400010BD40F233439A42A2F2334203DC52428C
:1057500000F0C4F810BD904010BD00F0004230F0E1
:1057600000400AD0C10D01F56071C0F3160042EA95
:105770000151C2084007114370470020014670479D
:1057800030B5002904DB4FF00044404264EB0101D6
:10579000002B04DB4FF00044524264EB03038B42C6
:1057A00008BF824230BD000030B5002904DB4FF055
:1057B0000044404264EB0101002B04DB4FF0004445
:1057C000524264EB0303994208BF904230BD00008F
:1057D00001F0004330B421F0004150EA010206D04C
:1057E0000A0DA2F56072C1F31301002A02DC30BC7D
:1057F00000207047440F44EAC104C100E01830BCE7
:1058000000EBC25000F08CB8002801DBC0F1004072
:10581000002901DBC1F1004181427047002801DB12
:10582000C0F10040002901DBC1F10041884270470E
:1058300030B50B46014600202022012409E021FA60
:1058400002F59D4205D303FA02F5491B04FA02F55D
:105850002844151EA2F10102F1DC30BD2DE9F05FF4
:105860000546002092469B468846064681464024CF
:105870001BE0284641464746224600F02FF8534693
:105880005A46C01A914110D311461846224600F0DC
:1058900016F82D1A67EB01084F4622460120002119
:1058A00000F00DF817EB00094E41201EA4F1010491
:1058B000DFDC484631462A464346BDE8F09F202AB1
:1058C00004DB203A00FA02F1002070479140C2F157
:1058D000200320FA03F3194390407047202A04DB89
:1058E000203A21FA02F00021704721FA02F3D04059
:1058F000C2F120029140084319467047202A06DB76
:10590000CB17203A41FA02F043EAE07306E041FA8D
:1059100002F3D040C2F1200291400843194670477B
:105920000029A8BF7047401C490008BF20F00100B3
:10593000704710B4B0FA80FC00FA0CF050EA010491
:1059400004BF10BC704749B1CCF1200421FA04F423
:1059500011FA0CF118BF012121430843A3EB0C01FC
:10596000CB1D0106000A002BBEBF002010BC7047F3
:1059700000EBC35010440029A4BF10BC7047401C6A
:10598000490008BF20F0010010BC704710B5002B83
:1059900008DA401C41F1000192185B411A4301D121
:1059A00020F0010010BD2DE9F04D92469B4611B14B
:1059B000B1FA81F202E0B0FA80F220329046FFF7AD
:1059C0007EFF04460F4640EA0A0041EA0B015346B7
:1059D0005A46084303D120463946BDE8F08D1146AA
:1059E00053EA010015D0C8F140025046FFF776FF98
:1059F00005460E46504659464246FFF760FF0843AB
:105A000001D0012000E00020054346EAE0762C4367
:105A100037430A984FEA4453A0EB08004FEAD424D6
:105A20000A304FF0000244EA47544FEAD72502D526
:105A300000200146D1E7010510196941DDE908455B
:105A400000196941BDE8F04DA0E7C1F30A52C1F366
:105A5000130140F2FF3341F480119A4202DA002030
:105A60000146704740F233439A42A2F2334202DCCD
:105A70005242FFF733BFFFF722BF0000064C074D2D
:105A800006E0E06840F0010394E80700984710340E
:105A9000AC42F6D3FFF750FBB4BE0108D4BE0108F8
:105AA00082B02DE9FF1FEFF3038001B4684600F1D7
:105AB000400000E901400C480168C1F800D00B48E3
:105AC000D0F800D001BC80F30388BDE8FF1F01B00F
:105AD00000BD0648D0F800D001BC80F30388BDE8C3
:105AE000FF1F01B000BD000038000020340000207E
:105AF00008B50121084607F00DFE01214FF404709E
:105B000007F028FE1020ADF8000000208DF80300FB
:105B10006946024802F054F908BD00000010014037
:105B200010B50446FFF7E4FF204600F001F810BD71
:105B300010B590B00446334800F06EFC3248059032
:105B400006940020079001200890002009900A90F8
:105B50004FF480700B9080000C9020200D9000027C
:105B60000E9000200F9005A9264800F0FBFC0121B3
:105B7000244800F045FC002000908DF8040001202E
:105B80008DF805004FF46020029000200390012062
:105B90008DF8100069461C484C3800F061F84FF44D
:105BA000404007F0ABFD052301220E2116484C387A
:105BB00000F07EF8012114484C3800F032F8012141
:105BC00011484C3800F022F80F484C3800F0CCF85F
:105BD00000BF0D484C3800F039F80028F9D10A48C8
:105BE0004C3800F0D1F800BF07484C3800F024F8DA
:105BF0000028F9D1012104484C3800F0BAF810B05F
:105C000010BD0000080002404C24014021B1826810
:105C100042F00102826003E0826822F001028260A9
:105C2000704721B1826842F48072826003E082682A
:105C300022F4807282607047014600208A6812F068
:105C4000040F01D0012000E0002070470146002031
:105C50008A6812F0080F01D0012000E00020704790
:105C600030B502460020002350680F4C20400D79CB
:105C70000C6844EA05242043506090680B4C204097
:105C8000D1E902542C434D7944EA45042043906005
:105C9000D06A20F470000C7C641EE4B2234340EA16
:105CA0000350D06230BD0000FFFEF0FFFDF7F1FFB2
:105CB000F0B504460D4600200021092D11DDE068F5
:105CC000A5F10A0606EB4607072606FA07F1884300
:105CD000A5F10A0606EB460603FA06F10843E06062
:105CE0000CE0206905EB4507072606FA07F1884313
:105CF00005EB450603FA06F108432061072A0FDA8F
:105D0000606B561E06EB86071F2606FA07F18843CE
:105D1000561E06EB860605FA06F10843606322E08C
:105D20000D2A0FDA206BD61F06EB86071F2606FA10
:105D300007F18843D61F06EB860605FA06F10843ED
:105D4000206310E0E06AA2F10D0606EB86071F262D
:105D500006FA07F18843A2F10D0606EB860605FA5E
:105D600006F10843E062F0BD816841F008018160FE
:105D7000704721B1826842F4A002826003E0826829
:105D800022F4A00282607047816841F004018160C2
:105D900070470000034A12680260024A52680A60B3
:105DA0007047000024B2002010B5044600212046B0
:105DB000FFF734FD01D2204610BD00212046FFF739
:105DC0003AFAF9E710B501210C4802F0D2F80A209E
:105DD0000CF060FE0121094802F0C9F828200CF0FF
:105DE00059FE0121054802F0C4F80A200CF052FEC9
:105DF0000121024802F0BBF810BD0000000C014078
:105E000010B50021074805F0E7F8044644B905211C
:105E100005A000F007FE0121024805F0DDF8044668
:105E2000204610BD08B10020C5E4D6C3B2CECAFDDD
:105E3000C6ACC7F8D2BBB4EDCEF3000070B50446D3
:105E40000121204604F0CEFE1021204604F0CAFEB7
:105E5000B4200CF01FFE204604F0C0FD05460021D2
:105E6000204604F0BFFE284670BD10B5044620460B
:105E700002F030F84FF496700CF00CFE0121204631
:105E800004F0B0FE10BD06E04FF47A7100BF0A00C6
:105E9000A1F10101FBD10200A0F10100F4D1704792
:105EA0000146081100EB4000A1EB4000C0B2704772
:105EB00030B50246002441F66F2316E0E01800EBEF
:105EC000D07569100B4830F82100904204D1094880
:105ED00000EB8100408830BD064830F82100904238
:105EE00001DA4C1C00E04B1E00BF9C42E6DD0020A6
:105EF000F1E7000014490108F0B5034600201C46F4
:105F00000D46104603E014F8016B05F8016B16000E
:105F1000A2F10107BAB2F6D1F0BD30B5034601E0F7
:105F200003F8011B1400A2F10105AAB2F8D130BD9B
:105F300000BFFEE72DE9F04105460E463F4805F05B
:105F400009FAA84202DC0020BDE8F08105EB45001B
:105F50003A4901EB8004207A092833D008DC022872
:105F60000FD0042837D0052823D0062863D116E0A7
:105F70000B280BD018284BD01A2856D01D285AD1E0
:105F80002FE0606808B16068804754E0304602F056
:105F900025FC0746FFF795FB616808704BE030462B
:105FA00002F01CFC0746FFF773FB40B26168087003
:105FB00041E0304602F012FC0746FFF782FB6168C1
:105FC000088038E0304602F009FC0746FFF779FB0D
:105FD000616808602FE0304602F000FC61680860EC
:105FE00029E017A1304608F098FE40B160680068CB
:105FF000627A0121914008436168086007E06068A7
:106000000068627A0121914088436168086012E06B
:106010000BA1304608F081FE18B1012061680870BC
:1060200002E000206168087005E0627A304661682D
:10603000FFF762FF00BF00BF012085E7344701087A
:106040005400000070B504460D460A4805F082F978
:10605000A04201DC002070BD04EB4400054A02EBC5
:106060008001284605F042F8284602F019FCC6B225
:106070003046F0E7344701080246002110E0505C4A
:10608000392801DD012000E00020535C302B01DACB
:10609000012300E00023184301D000207047491C71
:1060A0000B29ECDB0120F9E770B500241FE0114952
:1060B00051F82400FFF751FB05460F4A0F4BFFF73D
:1060C00073FB03D200200B4941F82400094951F821
:1060D0002400FFF742FB0546074A094BFFF750FB38
:1060E00003D20020034941F82400601CC4B2192CDB
:1060F000DDDB70BD30B20020713D0AD7FF69F8408A
:10610000FF69F8C002E0002200F8012B0A00A1F1AB
:10611000010399B2F7D1704770B505460C46284681
:1061200002F0BEFB0646204602F0BAFB864201D0D2
:10613000002070BD07E015F8011B14F8012B9142F7
:1061400001D00020F5E7287810B120780028F2D19E
:106150000120EEE710B5002400F090F804E0601C88
:10616000C4B2012000F038F81148018811480068D5
:1061700001F0F4FE08B1642CF1DB642C01DB01209A
:1061800010BD002404E0601CC4B2012000F024F81B
:10619000074801880748006801F0E0FE08B9642C50
:1061A000F1DB642C01DB0120EAE70020E8E70000D6
:1061B000780000207C000020002107E042F6E0612A
:1061C00000BF0A00A1F1010399B2FAD10200A0F1C7
:1061D000010398B2F2D17047002106E0072100BF09
:1061E0000A00A1F1010399B2FAD10200A0F1010362
:1061F00098B2F3D1704700002DE9F04105460E46F4
:106200002C784FF6FF7000EA04246878044314F4F5
:10621000004F0CD0E143491C41F40040FFF70CFA59
:10622000074613493846FFF73FF8074608E020467F
:10623000FFF70BFA07460E493846FFF735F80746D1
:106240000C493846FFF7EAFA02D24FF0010801E0A4
:106250004FF0000808493846FFF7D6FA01D201206E
:1062600000E0002018EA000F00D03760BDE8F081A0
:106270000000204100007AC40000F04208B5084840
:106280000088ADF8000003208DF8020048208DF84A
:10629000030069460348006801F092FD08BD000054
:1062A000780000207C00002008B508480088ADF880
:1062B000000003208DF8020010208DF803006946CD
:1062C0000348006801F07CFD08BD00007800002054
:1062D0007C0000202DE9FC4105460E4600F076F8D2
:1062E000FFF738FF10B10120BDE8FC8172B6002431
:1062F00005E000F05BF80DF80400601CC4B2052C4A
:10630000F7DB9DF800009DF8011008449DF802108D
:1063100008449DF803100844C7B29DF80400B84231
:1063200002D062B60120DFE71DB131466846FFF7B3
:1063300063FF26B129460DF10200FFF75DFF62B64B
:106340000020D1E710B5002404E0601CC4B2012095
:10635000FFF742FF134801881348006801F0FEFD73
:1063600008B1642CF1DB002404E0601CC4B20120FD
:10637000FFF732FF0B4801880B48006801F0EEFD83
:1063800008B9642CF1DB2320FFF726FF05480188BC
:106390000548006801F0E2FD08B1012010BD0020B1
:1063A000FCE70000780000207C00002070B500248D
:1063B000002506E06006040EFFF7C4FF0443681CD6
:1063C000C5B2082DF6DB204670BD000010B5FFF702
:1063D0006BFF094801880948006801F0C8FD0A20E0
:1063E000FFF7EAFE044801880448006801F0C1FD97
:1063F0005020FFF7F1FE10BD780000207C00002047
:1064000021B1026842F00102026004E002684FF626
:10641000FE731A400260704701684FF6FE72114029
:1064200001600021016041608160C1604B49884288
:1064300008D14A490839496841F00F01474A083AEA
:1064400051608AE045491431884208D143490839EE
:10645000496841F0F001414A083A51607DE03F4906
:106460002831884208D13D490839496841F47061B2
:106470003A4A083A516070E038493C31884208D1C4
:1064800036490839496841F47041344A083A516044
:1064900063E032495031884208D1304908394968AF
:1064A00041F470212D4A083A516056E02B4964317D
:1064B000884208D129490839496841F47001274ABE
:1064C000083A516049E025497831884208D123498A
:1064D0000839496841F07061204A083A51603CE04F
:1064E0001F49884206D1011F096841F00F01021FB0
:1064F000116032E01A491431884208D11849091F45
:10650000096841F0F001164A121F116025E0144994
:106510002831884208D11249091F096841F4706185
:106520000F4A121F116018E00D493C31884208D112
:106530000B49091F096841F47041094A121F116093
:106540000BE007495031884207D10549091F096806
:1065500041F47021024A121F116070470800024086
:106560000804024010B50022026847F6F0739A430F
:106570000C6A8B6823430C6923434C6923438C6961
:106580002343CC6923434C6A23438C6A23431A4335
:106590000260CB6843600B6883604B68C36010BDCA
:1065A00008B50121082007F0D5F80D480088ADF89E
:1065B000000010208DF8030003208DF802006946CA
:1065C0000848006801F0FCFB0548018805480068A0
:1065D00001F0CFFC00F0B2F900F006F808BD0000B1
:1065E000800000208400002010B5002400F0BEF8D8
:1065F00004E0601CC4B2012000F028F811480188B2
:106600001148006801F0AAFC08B1C82CF1DBC82CC5
:1066100001DB012010BD002404E0601CC4B2012095
:1066200000F014F8074801880748006801F096FC5C
:1066300008B9F02CF1DBF02C01DB0120EAE70020A7
:10664000E8E700008000002084000020002106E030
:10665000062100BF0A00A1F1010399B2FAD102009C
:10666000A0F1010398B2F3D1704700002DE9FE4F6D
:10667000824600F089F900F061F9FFF7B5FF0446A2
:1066800014B10120BDE8FE8FCC2000F089F9BE20B6
:1066900000F086F9002405E000F0BEF80DF80400D3
:1066A000601CC4B2092CF7DB082168460BF08CFF94
:1066B00004469DF80800A04205D0052126A000F060
:1066C000B1F90020DEE79DF8010007281EDD9DF8E6
:1066D0000100C043C0B28DF801009DF80000C04326
:1066E000C0B28DF800009DF801904FF6FF7000EAEF
:1066F00009299DF8000040EA09094846FEF7A5FF70
:1067000005460021FEF797FD83460DE09DF80190B8
:106710004FF6FF7000EA09299DF8000040EA0909D8
:106720004846FEF792FF83465846FFF716F807469D
:1067300000220C4BFEF79FFE0546FFF749F8834603
:10674000BAF1000F05D008495846FEF7ADFDCAF86A
:106750000000002096E70000D0A3D1E9B4EDCEF30D
:10676000000000000000E43F0000204108B5084898
:106770000088ADF8000003208DF8020048208DF855
:10678000030069460348006801F01AFB08BD0000D9
:10679000800000208400002008B508480088ADF87B
:1067A000000003208DF8020010208DF803006946D8
:1067B0000348006801F004FB08BD000080000020D1
:1067C0008400002010B5FFF7E7FF11480188114849
:1067D000006801F0CCFB0220FFF738FF0C4801886D
:1067E0000C48006801F0C5FBFFF7C0FF0520FFF76C
:1067F0002DFF074801880748006801F0AFFB08B18A
:10680000012400E000243220FFF720FF204610BDC5
:10681000800000208400002070B50026012508E0DB
:10682000FFF7D0FF0446E00140EA6600C6B2681CEC
:10683000C5B2082DF4DD304670BD000070B50646C7
:106840000C4600253A4890F8B00010F0400F23D0D5
:106850004FF40071374800F0DBF821463046FFF76F
:1068600039FD78B134480078401C33490870084637
:1068700000780A285ADD2E48006920F440702C491F
:10688000086153E000202C4908702948006940F451
:1068900040702749086149E04FF40071254800F035
:1068A00069F83046FFF7E2FE05468DB122480078D0
:1068B000401C21490870084600780A2811DDFFF7BE
:1068C0006FFE1B48006920F480701949086108E0D8
:1068D0000020194908701648006940F48070144976
:1068E00008614FF48071134800F044F82046FFF728
:1068F000BDFE05468DB110484078401C0E494870D9
:10690000084640780A2811DDFFF74AFE084800696A
:1069100020F400700649086108E00020064948702C
:106920000348006940F400700149086170BD00002F
:10693000F4B00020000C01409A00002010B5FFF7D1
:106940002BFF0A4801880A48006801F010FB40F25A
:10695000EE20FFF77BFE054801880548006801F03E
:1069600008FB0F20FFF772FE10BD00008000002022
:1069700084000020024A1060024A11807047000023
:10698000840000208000002010B5FFF7D7FFFFF73C
:106990002BFECC2000F004F8442000F001F810BDDC
:1069A00070B50446FFF7F8FE01252AE004F0010661
:1069B000641096B1144801881448006801F0D7FAB1
:1069C0000220FFF743FE104801881048006801F0DC
:1069D000D0FA3C20FFF73AFE11E00B4801880B4843
:1069E000006801F0C4FA3C20FFF730FE0648018839
:1069F0000648006801F0BDFA0220FFF727FE681C78
:106A0000C5B2082DD2DD70BD8000002084000020BA
:106A1000024A1060024A1180704700007C0000208A
:106A2000780000200FB42DE9F04186B00025012642
:106A30000027B00204F068FC044654480078FF28A0
:106A400001D1012000E0002050490978504A127815
:106A5000914201D1012100E0002108437DD00DA821
:106A600005902046059A0C990DF010F8002005902D
:106A70000DA8059069460C9801F041FD06462AE0F4
:106A80002846691CCDB21DF80000012804D0022858
:106A900006D003281AD115E0059880C8059019E0A2
:106AA0000598C01D20F007000590D0E90021DDF811
:106AB00014C00CF1080C1046CDF814C0FEF715FEFA
:106AC000074607E0059880C8059003E0059880C850
:106AD000059000BF00BF3000A6F10106D0D1059897
:106AE00080C80590002005902A480078FF2801D131
:106AF000012000E0002027490978B94201DB01218B
:106B000000E00021084338D0214623A008F0E4F833
:106B10002248007810F0020F0DD02149087800F0CB
:106B2000FFFB40B1204601F0BBFE804642462146B5
:106B30001C480CF010FF1948007810F0040F0FD01B
:106B40001749487800F0ECFB50B1204601F0A8FE50
:106B5000804642462146144800E00EE00CF0FBFE61
:106B60001248006848B1204601F09AFE00F0FF0884
:106B7000414620460D4A12689047204604F098FB93
:106B800006B0BDE8F0015DF814FB000060000020D5
:106B900044000020620000200D0A00006100002077
:106BA0001400002000380140004400406400002030
:106BB000FF200149087070476000002002480078FB
:106BC0000249087070470000440000206000002067
:106BD00001490870704700006100002001490870F9
:106BE0007047000062000020704701460A2091FBB8
:106BF000F0F000EB400001EB4000C0B27047000035
:106C000010B500201A4908704FF4A07004F07CFB06
:106C100018490860002406E0FF2017490855174965
:106C20000855601CC4B2052CF6DB00241DE00020D2
:106C30001049096801EB4411486103200D490968B6
:106C400001EB4411087200200A49096801EB441164
:106C500008610849096801EB4411C86005490968E1
:106C600001EB44118861601CC4B20A2CDFDB10BD4B
:106C700050000020540000201400002019000020C3
:106C800038B5002454E02C48006800EB441000683C
:106C900000284BD02848006800EB4410C079012838
:106CA00006D0022820D0032813D0042832D126E0B1
:106CB000032000902048006800EB4410C3691E4880
:106CC000006800EB4410214602681CA0FFF7AAFEF2
:106CD0002BE01948006800EB4410032321460268AA
:106CE0001CA0FFF79FFE20E01348006800EB441053
:106CF00003232146026817A0FFF794FE15E00E4813
:106D0000006800EB441003232146026811A0FFF73E
:106D100089FE0AE00848006800EB4410032321467E
:106D200002680CA0FFF77EFE00BF00BF601CC4B26B
:106D30000A2CA8DB38BD00005400002044657669A9
:106D400063655B25645D4E616D653A25735B256403
:106D50005D0000004465766963655B25645D4E6196
:106D60006D653A25730000002C4800782C490870A6
:106D70002A480078401C2949087029480078294988
:106D80000968274A127801EB4211087126A12548AB
:106D90000068234A127800EB42100160002021496C
:106DA00009681F4A127801EB4211487103201D49FE
:106DB00009681B4A127801EB4211C8710121194878
:106DC0000068174A127800EB421001721848154902
:106DD0000968134A127801EB4211486100211148F9
:106DE00000680F4A127800EB4210C1610D4800683C
:106DF0000B4A127800EB4210C16000200949096873
:106E0000074A127801EB4211086100210548006829
:106E1000034A127800EB4210816170475000002055
:106E200073000020540000204854313632310000F5
:106E3000C58A00082C4909782C4A11702A4909781A
:106E4000491C294A117029490978294A1268274B97
:106E50001B7802EB4312117126A1254A1268234BBD
:106E60001B7802EB431211600021214A12681F4B6C
:106E70001B7802EB4312517102221D4909681B4B1A
:106E80001B7801EB4311CA71012219490968174B9C
:106E90001B7801EB43110A721749154A1268134B0C
:106EA0001B7802EB43125161114909680F4A1278AD
:106EB00001EB4211C86100220D4909680B4B1B7898
:106EC00001EB4311CA600021094A1268074B1B7885
:106ED00002EB43121161002205490968034B1B783C
:106EE00001EB43118A6170475000002070000020C0
:106EF00054000020494F0000D57E00082C49097835
:106F00002C4A11702A490978491C294A11702949CB
:106F10000978294A1268274B1B7802EB431211713A
:106F200026A1254A1268234B1B7802EB43121160FD
:106F30000021214A12681F4B1B7802EB431251714A
:106F400004221D4909681B4B1B7801EB4311CA71D0
:106F5000012219490968174B1B7801EB43110A728A
:106F60001849154A1268134B1B7802EB4312516102
:106F7000114909680F4A127801EB4211C8610022D9
:106F80000D4909680B4B1B7801EB4311CA600021C6
:106F9000094A1268074B1B7802EB43121161002269
:106FA00005490968034B1B7801EB43118A6170475F
:106FB00050000020920000205400002049534C3122
:106FC00032303800D9AD00082DE9F04107460D46B2
:106FD000164638460CF056FB04465F48005DFF2815
:106FE00008D15E4800785C4908555C480078401C30
:106FF0005A4908705AA05849095D5B4A126802EB69
:107000004111086000205449095D574A126802EB9B
:107010004111487101205049095D534A126802EB41
:107020004111C87103204C49095D4F4A126802EBB7
:10703000411108724D484849095D4B4A126802EBFC
:10704000411148614448005D4749096801EB40101F
:10705000C46147494048005D434A126802EB401052
:10706000C16044483C49095D3F4A126802EB411146
:10707000086100213848005D3B4A126802EB40106D
:10708000816100203C4921F81400284604F03CF9B5
:107090003A4941F8240038460CF0F4FA04463848DE
:1070A000005DFF2808D12D480078354908552B4848
:1070B0000078401C2949087032A03149095D2A4AEC
:1070C000126802EB4111086000202D49095D264A33
:1070D000126802EB4111487101212948005D224AE2
:1070E000126802EB4010C17103202549095D1E4A58
:1070F000126802EB411108721C492148005D1A4ACE
:10710000126802EB401041611D48005D1649096894
:1071100001EB4010C46116481949095D124A126812
:1071200002EB4111C86013481549095D0E4A126807
:1071300002EB4111086100201149095D0A4A1268F9
:1071400002EB41118861304604F0DEF80F4941F846
:107150002400BDE8F081000019000020500000204C
:107160005553415252780000540000202534010844
:10717000253901082D38010818010020F0000020F1
:10718000140000205553415254780000040100209F
:1071900010B504464FF4967211462046FFF714FFCF
:1071A00010BD00002848007828490870264800785B
:1071B000401C2549087026A027490968234A1278EF
:1071C00001EB421108600020234909681F4A127828
:1071D00001EB4211487103201F4909681B4A1278CC
:1071E00001EB4211C87101211B480068174A12784F
:1071F00000EB42100172194817490968134A1278C6
:1072000001EB421148610021134800680F4A1278CF
:1072100000EB4210C16112490F4800680B4A127816
:1072200000EB4210C1600F490B480068074A127812
:1072300000EB42100161002007490968034A1278F7
:1072400001EB42118861704750000020900000203F
:107250005732355131360000540000206DE20008ED
:10726000793A0108653A010810B5032124A0FFF717
:10727000D9FB002441E02948006800EB4410406934
:10728000C8B32648006800EB4410C079012806D036
:10729000022817D003280ED004282BD11EE01F4A45
:1072A000126802EB4412107F1C4A126802EB44126F
:1072B000516988471EE01949096801EB4411486982
:1072C000804717E0154A126802EB4412D069134A4E
:1072D000126802EB4412516988470BE00F4A1268AA
:1072E00002EB4412D0690D4A126802EB4412516954
:1072F000884700BF00BF601CC4B20A2CBBDB10BDB6
:10730000546F732044657669636520496E69742EF5
:107310002E2E2E2E2E2E2E2E2E000000540000205B
:107320000146FF2901D1002070470548006800EBA5
:107330004110406908B90020F6E70120F4E7000099
:1073400054000020BAB080464FF000090027C24622
:1073500050460CF097F904460120034605220146E9
:10736000009004A804F001F88E4951F8240003F0BD
:107370009FFF40F2DC5003F0C7FF8A4941F8240028
:107380000FE1884951F8240003F0AAFF1FFA80FB9F
:10739000844951F824005946FEF7B4FE814951F85A
:1073A000240003F09DFF1FFA80FB00235A46194674
:1073B00050460CF05BFA05467A4951F8240004AABD
:1073C000294604F069F805462E469DF81E0000285F
:1073D00070D19DF813002C280AD004DC292876D01F
:1073E0002A2869D162E02F283FD05028F9D184E0C3
:1073F0003C206D4908706B4850F82400805DB8420D
:1074000022D1684A52F82430721C9918654A52F801
:107410002420925D920202F100604FF4806200F03D
:107420003AFA6248007D40B13A46791C8FB260A1B9
:1074300008A801F0C1F9054616E03A4660A108A87F
:1074400001F0BAF905460FE05848007D30B13A46E0
:1074500057A108A801F0B0F9054605E03A4658A141
:1074600008A801F0A9F9054663E0002701204F496B
:10747000087507F029F83C204B490870494951F834
:10748000241088190CF098FA834600F0A3F94549B6
:1074900051F8241088190CF08FFAC0F38F294A464E
:1074A0004DA108A801F088F9054642E0781E48453C
:1074B00003D03EE05FE00AE035E000F0A8F90120EB
:1074C0003A49087507F000F803F0C8FD31E03C20A8
:1074D0003549087045A108A801F06EF9054608A9CC
:1074E000481901F08DF8284485B208A9481941A12E
:1074F00001F062F9284485B21BE03C202A4908705B
:107500003AA108A801F058F9054608A9481901F060
:1075100077F8284485B208A9481936A101F04CF93A
:10752000284485B205E008A939A007F0C3FB054649
:1075300000BF00BF012000901A4850F82400817855
:107540000123052204A803F010FF08A80121CDE9BA
:1075500001050091314951F8240001231A4604A97C
:1075600003F00EFF05462D4850F824102A465046D9
:107570000CF0F1F915E09DF81E00062811D09DF8D9
:107580001E00052807D1074850F82410012224A026
:10759000FFF748FA05E09DF81E10032221A0FFF72F
:1075A00041FAEEE6F0000020880000200CB2002036
:1075B000506167655B25645D204F4B0D0A0000003C
:1075C0004E6F742045726173655B25645D20466172
:1075D000696C0D0A0000000045726173655B2564EB
:1075E0005D4B62204F4B0D0A0000000046696E643F
:1075F00020000000204F4B200D0A5452544F5320BE
:107600005265426F6F7420566572322E300D0A003B
:10761000D3A6D3C3B4EDCEF30000000004010020D4
:10762000257300002564000010B503F021FB022043
:1076300000F004F803F012FD10BD000001490860DD
:107640007047000014040140002123498279002A78
:107650003AD00A46126803689A430B461A600A1D1C
:10766000126803689A430B1D1A60027911440A6874
:1076700003681A430A60184A0832126803689A437A
:10768000154B08331A601A1D126803689A43124B8F
:107690000C331A604279102A0ED11A1F126803683F
:1076A0001A430D4B08331A601A1D126803681A43F7
:1076B000094B0C331A600DE00749427911440A68FE
:1076C00003681A430A6005E0027911440A680368F6
:1076D0009A430A6070470000000401401FB5044649
:1076E0000220ADF8080048208DF80B0002A91348CD
:1076F00000F066FB0121022000F042FB0220009016
:1077000000208DF804000C208DF8050001208DF874
:1077100006006846FFF798FF4FF4E06003F0AEFF05
:1077200001208DF80F0007208DF80C0001208DF846
:107730000E0003A803F068FF1FBD00000010014009
:1077400030B5044604254FF4302000F091F805468A
:10775000042D17D10C48006940F002000A49086165
:1077600008464461006940F0400008614FF4302051
:1077700000F07EF805460448006941F6FD710840B6
:1077800001490861284630BD0020024004200B4911
:10779000C96811F0010F01D001200EE00749C96846
:1077A00011F0040F01D0022007E00449C96811F06C
:1077B000100F01D0032000E0042070470020024099
:1077C0000348006940F080000149086170470000EB
:1077D00000200240F8B50446042500260020009051
:1077E00000F03AF8204603F090F8064609E00099C8
:1077F000490201F10060FFF7A3FF05460098401C15
:1078000000900098B04201D2042DF0D0F8BD10B520
:10781000FFF7D6FF10BD000070B504460D460426E4
:10782000F00200F025F80646042E11D1094800693F
:1078300040F00100074908612580F00200F018F8C7
:1078400006460448006941F6FE7108400149086196
:10785000304670BD0020024002480349486003489A
:10786000486070472301674500200240AB89EFCD97
:1078700000B502460423FFF789FF034603E0FFF744
:1078800085FF0346521E012B01D1002AF7D102B910
:107890000523184600BDF8B504460E461746354682
:1078A00000940EE029880098FFF7B6FF2888009919
:1078B0000988884201D00020F8BDAD1C0098801CCA
:1078C0000090E01900998842ECD80120F4E72DE9F6
:1078D000F84F82460D4617464FF0000800200090F2
:1078E0008146504600F0DCFF00F0FF0BBBF1000FBB
:1078F0003BD000202870002635E01AF80640302CD6
:1079000001DB012000E00020392C01DC012100E036
:10791000002108402E2C01D1012100E00021084364
:107920002D2C01D1012100E00021084309D04F4551
:1079300004D14046411C01F0FF082C540120009066
:107940000FE0009868B14F4505D100224046411C28
:1079500001F0FF082A540020009009F1010000F016
:10796000FF09701CC6B25E45C7DB4046BDE8F88F14
:107970002DE9F84F82460D4617464FF000080020CB
:1079800000908146504600F08BFF00F0FF0BBBF1EA
:10799000000F3BD000202870002635E01AF8064082
:1079A000302C01DB012000E00020392C01DC01211A
:1079B00000E0002108420BD1462C01DC012000E050
:1079C0000020412C01DB012100E00021084209D008
:1079D0004F4504D14046411C01F0FF082C540120C2
:1079E00000900FE0009868B14F4505D10022404655
:1079F000411C01F0FF082A540020009009F1010009
:107A000000F0FF09701CC6B25E45C7DB4046BDE80A
:107A1000F88F2DE9F84F82460C4617464FF00008C4
:107A2000002000908146504600F03AFF00F0FF0B26
:107A3000BBF1000F2FD000202070002529E01AF89C
:107A40000560302E01DB012000E00020392E01DC32
:107A5000012100E00021084209D04F4504D14046F1
:107A6000411C01F0FF082654012000900FE000980F
:107A700068B14F4505D100224046411C01F0FF0886
:107A800022540020009009F1010000F0FF09681C59
:107A9000C5B25D45D3DB4046BDE8F88F2DE9F05F08
:107AA00080460C460027BA46BB46404600F0F8FE2A
:107AB00000F0FF09B9F1000F20D000202070002550
:107AC0001AE018F805603A2E01D14FF0010BBBF116
:107AD000000F0FD0222E06D1BAF1000F00D00EE019
:107AE0004FF0010A06E0BAF1000F03D03846791CC6
:107AF000CFB22654681CC5B24D45E2DB00BF002260
:107B00003846791CCFB222543846BDE8F09F70B594
:107B10000B46044603E014F8015B03F8015B150013
:107B2000A2F10106B2B2F6D170BD2DE9F0470646CA
:107B30000F4614464FF00008B94602F0FAFE204600
:107B4000E11704EBD151C1F34F28E11704EBD151F8
:107B50004912B4EB412103D008F101001FFA80F86B
:107B6000002507E04FF4007101FB056002F0C3FE41
:107B7000681C85B24545F5DB002508E039F8021B95
:107B80002A466B1C9DB206EB420002F0CAFE2000A2
:107B9000A4F101018CB2F1D102F0B3FEBDE8F0878F
:107BA00001460A461068704737B50346042401A908
:107BB00012B1012A0CD10AE003E011F8010B03F81D
:107BC000010B2000A4F10105ECB2F6D100E000BFEA
:107BD00000BF04203EBD70B504460025107820B1DA
:107BE00016782068B0FBF6F085B220680844206063
:107BF0001078984203DA1078401C107002E0206878
:107C0000401B206016782068B0FBF6F080B270BD93
:107C10000FB438B5044606A800902046009A05998E
:107C20000BF034FF0020009038BC5DF814FB30B539
:107C300003460C46002514E01878802806DA13F86D
:107C4000010B24F8020B681C85B20AE059781A78F7
:107C500041EA022000F01AF820809B1CA81C85B283
:107C6000A41C18780028E7D1284630BD30B5ADF502
:107C7000017D04460D4601A92046FFF7D8FF29469D
:107C800001A800F02FFE0DF5017D30BD024641F642
:107C90006F210AE0074800EB81004088904203D141
:107CA000044830F821007047491E0029F2D1002015
:107CB000F9E700001449010810B504462948844238
:107CC00008D10121042005F055FD0021042005F014
:107CD00051FD46E02448844208D10121082005F0E6
:107CE00049FD0021082005F045FD3AE01F48844287
:107CF00008D10121102005F03DFD0021102005F0E4
:107D000039FD2EE01A48844208D10121202005F0D7
:107D100031FD0021202005F02DFD22E01548844290
:107D200008D10121402005F025FD0021402005F06B
:107D300021FD16E01048844208D10121802005F081
:107D400019FD0021802005F015FD0AE00B48844252
:107D500007D10121801505F00DFD0021A01505F0CA
:107D600009FD10BD00080140000C01400010014059
:107D70000014014000180140001C01400020014097
:107D800030B500228B071C0F0F2303FA04F20B4BB4
:107D90008C1053F824309343084C8D1044F8253050
:107DA00023468C1053F824308C07240F00FA04F477
:107DB0002343024C8D1044F8253030BD08000140AB
:107DC0002DE9F04102460025002600200023002472
:107DD000002791F803C00CF00F0591F803C01CF0C8
:107DE000100F03D091F802C04CEA050591F800C0CD
:107DF000BCF1000F31D0146800202BE04FF0010CD3
:107E00000CFA00F3B1F800C00CEA03069E4220D140
:107E100083004FF00F0C0CFA03F7BC4305FA03FC88
:107E20004CEA040491F803C0BCF1280F06D14FF0CE
:107E3000010C0CFA00FCC2F814C00AE091F803C06F
:107E4000BCF1480F05D14FF0010C0CFA00FCC2F850
:107E500010C0401C0828D1D31460B1F800C0BCF198
:107E6000FF0F34DD546800202EE000F1080C4FF0C5
:107E7000010808FA0CF3B1F800C00CEA03069E42B0
:107E800021D183004FF00F0C0CFA03F7BC4305FA25
:107E900003FC4CEA040491F803C0BCF1280F05D19F
:107EA00000F1080C08FA0CF8C2F8148091F803C02D
:107EB000BCF1480F07D100F1080C4FF0010808FA97
:107EC0000CF8C2F81080401C0828CED35460BDE8DE
:107ED000F081000038B50446002536E01D4A606890
:107EE000811A904217D009DC1B4940180DD0B0F51B
:107EF000806F0CD0B0F5006F13D10AE0B1F5806F40
:107F00000BD0B1F5006F0CD109E0042509E008257C
:107F100007E0102505E0202503E0402501E080254D
:107F200000BF00BF45F00100012105F013FC2078DF
:107F30008DF802002089ADF8000060788DF803000C
:107F400069466068FFF73CFF0C3420780028C5D1F3
:107F500038BD00000014014000F8FEBF02460020BA
:107F600093680B4201D0012000E00020704741617E
:107F7000704701617047000038B504464FF48070C7
:107F8000ADF800001CB110208DF8030002E01420B1
:107F90008DF8030002208DF8020069460748FFF7BC
:107FA0000FFF2CB14FF480710448FFF7E0FF04E0AD
:107FB0004FF480710148FFF7DCFF38BD001001402D
:107FC00008B54FF40070ADF8000010208DF80300E4
:107FD00002208DF8020069460448FFF7F1FE4FF4D5
:107FE00000710248FFF7C3FF08BD00000010014008
:107FF0002DE9F04104460D4601271DE012494FF4DA
:10800000967248680021FDF788FF2B463222002136
:108010000E480BF02BFCC6B276B10B480522416826
:108020000BA0FEF7FFFC08494868214606F075FEE4
:1080300010B10120BDE8F0813800A7F10101CFB2F5
:10804000DCD100BFF6E70000F00000200044004053
:10805000B7B5BBD83A25730D0A0000002DE9F041F1
:1080600004460D46012725E016494FF496724868EC
:108070000021FDF752FF2B463222002112480BF05F
:10808000F5FBC6B296B10F48052241680FA0FEF776
:10809000C9FC0C4948682146FDF766F810B101207B
:1080A000BDE8F0814FF47A700AF0F4FC4FF47A7076
:1080B0000AF0F0FC3800A7F10101CFB2D4D100BF23
:1080C000EEE70000F000002000440040B7B5BBD848
:1080D0003A25730D0A0000002DE9F04104460F46D1
:1080E00015464FF0010825E017494FF4967248688D
:1080F0000021FDF712FF2B463222002113480BF01E
:10810000B5FBC6B2B6B110480522416810A0FEF713
:1081100089FC0D494868214606F0FFFD10B1012099
:10812000BDE8F08108494868394606F0F6FD08B117
:108130000120F5E75FEA0800A8F1010101F0FF085E
:10814000D2D100BFECE70000F00000200044004066
:10815000B7B5BBD83A25730D0A0000000246114698
:1081600023E008782E281FD111F8010C302801DBFC
:10817000012000E0002011F8013C392B01DC012333
:1081800000E0002318420FD04878302801DB01209E
:1081900000E000204B78392B01DC012300E00023B4
:1081A000184201D001207047491C08780028D8D116
:1081B00000BFF8E770B5022515E014A117480BF0D1
:1081C000DAFB4FF47A700AF065FC002409E04FF402
:1081D000FA6213A114A000F037F800B10AE0601CA5
:1081E000C4B2032CF3DB2800A5F10101CDB2E4D128
:1081F000012070BD052110A0FEF714FC1148006994
:1082000020F010000F4908610020F2E741542B5183
:1082100049434C4F53450D0A000000000044004004
:10822000434C4F534500000041542B514953544196
:1082300054450D0A00000000536F636B6574B6CFA0
:10824000BFAA0000F4B0002070B504460D461646E3
:108250000522214604A0FEF7E5FB0A233246294603
:10826000204600F007F870BDB7A2CBCD25730D0AEC
:10827000000000002DE9F04105460C4616461F4659
:1082800037E029461E480BF076FB1E494FF49672E4
:1082900048680021FDF741FE33463222002118488C
:1082A0000BF0E4FA00F0FF08B8F1000F1DD01548FC
:1082B0000522416814A0FEF7B5FB2078212808D1DB
:1082C00010494868611CFCF74FFF50B90120BDE818
:1082D000F0810C4948682146FCF746FF08B10120AF
:1082E000F5E74FF47A700AF0D5FB4FF47A700AF094
:1082F000D1FB3800A7F10101CFB2C2D100BFE6E740
:1083000000440040F0000020B7B5BBD825730D0A2B
:108310000000000070B50446002500BF2846691C17
:10832000CDB2052801DD032070BD05211EA0FEF79A
:1083300079FB2048006920F010001E4908612046A2
:10834000FFF70CFF40B14FF47A721BA11BA0FFF79F
:108350007BFF50B90120E7E74FF47A7216A11BA00A
:10836000FFF772FF08B90120DEE74FF47A700AF0D8
:1083700091FB214619480BF0FEFA042218A11CA01B
:1083800000F0A6F800B9C9E74FF4FA600AF082FBE2
:1083900005211AA0FEF746FB0648006940F01000D0
:1083A000044908610020BFE7C1ACBDD3B7FECEF1E0
:1083B000C6F70000F4B000204F4B000041542B5191
:1083C00049444E5349503D300D0A000041542B5151
:1083D00049444E5349503D310D0A000000440040CD
:1083E000414C524541445920434F4E4E4543540061
:1083F000434F4E4E454354204F4B0000C1ACBDD3BC
:10840000B3C9B9A60000000070B50546012622E0F8
:1084100014494FF4967248680021FDF77EFD2B4603
:108420003222002110480BF021FAC4B29CB10D4950
:1084300048680EA1FCF798FE28B105210DA0FEF7B3
:10844000F1FA002070BD0748224641680CA003F0F5
:108450008BFA0120F6E73000A6F10101CEB2D7D1A8
:1084600000BFEFE7F000002000440040434C4F53B2
:1084700045440000C1ACBDD3B1BBB9D8B1D50000F3
:10848000BDD3CAD53A00000070B50446012610E0FD
:1084900023464FF49672002109480BF0E7F9C5B264
:1084A0003DB108480522416807A0FEF7BBFA01204C
:1084B00070BD3000A6F10101CEB2E9D100BFF7E7EF
:1084C00000440040F0000020523A257300000000F4
:1084D0002DE9F04106460F46144600250BE04FF407
:1084E0007A7239463046FFF7F7FD10B10120BDE83A
:1084F000F081681CC5B2A542F1DB0020F7E7F0B5BA
:1085000004460A46002300200025214633E00E7869
:10851000252E02D10125461CB0B2012D2AD10E789C
:10852000642E06D1AC461E465F1CBBB202F806C0E4
:1085300000250E78662E07D14FF0020C1E465F1CF8
:10854000BBB202F806C000250E78732E07D14FF09B
:10855000030C1E465F1CBBB202F806C000250E7855
:10856000632E07D14FF0040C1E465F1CBBB202F80D
:1085700006C00025491C0E78002EC8D1F0BD0000B1
:108580002DE9FE4305460F4600261C480068009072
:108590001A48001D006802901848083000680190D1
:1085A00000241BE014E05DF824003E21B0FBF1F252
:1085B00001FB1208404609F0D1FF3146721CD6B2C9
:1085C00068545DF824003E21B0FBF1F04DF8240022
:1085D0005DF824000028E6D1601CC4B2032CE1DB66
:1085E0000F26384609F0BAFF3246761CA8540022FE
:1085F0003146761C6A543046BDE8FE83E8F7FF1F1B
:10860000FEB5054600261648006800901448001D77
:1086100000680290124808300068019000241BE0B6
:1086200014E05DF824003E21B0FBF1F201FB1207DB
:10863000384609F093FF3146721CD6B268545DF893
:1086400024003E21B0FBF1F04DF824005DF8240039
:108650000028E6D1601CC4B2032CE1DB3046FEBD2D
:10866000E8F7FF1FFEB50546002619480068009090
:108670001748001D006802901548083000680190F6
:1086800000241BE014E05DF824003E21B0FBF1F271
:1086900001FB1207384609F061FF3146721CD6B261
:1086A00068545DF824003E21B0FBF1F04DF8240041
:1086B0005DF824000028E6D1601CC4B2032CE1DB85
:1086C00000223046711CCEB22A543046FEBD000056
:1086D000E8F7FF1F014600200A78302A01DB01225B
:1086E00000E000220B78392B01DC012300E000239D
:1086F0001A4203D00A781207100E24E00A78412AA1
:1087000001DB012200E000220B78462B01DC012373
:1087100000E000231A4204D00A78D21F1207100E7C
:1087200011E00A78612A01DB012200E000220B78C7
:10873000662B01DC012300E000231A4203D00A78F3
:10874000D21F1207100E4A78302A01DB012200E006
:1087500000224B78392B01DC012300E000231A4270
:1087600004D04A78303A0244D0B224E04A78412A10
:1087700001DB012200E000224B78462B01DC0123C3
:1087800000E000231A4204D04A78373A0244D0B2BB
:1087900011E04A78612A01DB012200E000224B78D7
:1087A000662B01DC012300E000231A4203D04A7843
:1087B000573A0244D0B270470FB438B5044606A801
:1087C00000902046009A05990BF060F90020009077
:1087D000204600F065F838BC5DF814FB2DE9FC5F1D
:1087E00005460026B346B1464FF07E5A44E015F8E0
:1087F000014B2D2C01D101263EE02E2C02D14FF051
:10880000010B39E0302C2EDB392C2CDCBBF1000FB6
:108810000ED11F494846FCF711FD8146A4F13000F6
:10882000FCF70AFF07464946FCF7B0FC814623E007
:108830005046FCF792FF0746164A174BFCF71BFE03
:10884000CDE90001FCF7C4FF8246A4F13000FCF73B
:10885000F3FE80465146FCF7F1FC07464946FCF71B
:1088600095FC814608E026B10C494846FCF7E6FC39
:1088700081464846BDE8FC9F28780028B7DC26B131
:1088800006494846FCF7DAFC81464846F2E7000014
:10889000000020419A9999999999B93F000080BFA9
:1088A00010B5014600200A4601E0431C98B212F8B8
:1088B000014B002CF9D110BD002000210CE001EB90
:1088C0004102074B1B6803EB02121289012A01D0F7
:1088D000421CD0B24A1CD1B21429F0DB7047000010
:1088E0004800002070B504460E46002507E02288A7
:1088F000701905A1FFF760FF284485B2A41C2088E9
:108900000028F4D1284670BD2530347800000000DE
:108910000246002039B950784FF6FF7303EA002071
:108920001378184306E010784FF6FF7303EA00202F
:10893000537818437047000010B504462AA120461A
:1089400006F0EBF908B1012010BD28A1204606F081
:10895000E4F908B10220F7E725A1204606F0DDF989
:1089600008B10320F0E723A1204606F0D6F908B1AC
:108970000420E9E720A1204606F0CFF908B1052040
:10898000E2E71EA1204606F0C8F908B10620DBE7A1
:108990001BA1204606F0C1F908B10720D4E719A1B0
:1089A000204606F0BAF908B10820CDE716A1204606
:1089B00006F0B3F908B10920C6E714A1204606F075
:1089C000ACF908B10A20BFE711A1204606F0A5F9CD
:1089D00008B10B20B8E70FA1204606F09EF908B1B8
:1089E0000C20B1E70120AFE74A616E0046656200E6
:1089F0004D617200417072004D6179004A756E00E0
:108A00004A756C0041756700536570004F637400D0
:108A10004E6F76004465630070B505460024291941
:108A200001220DA0FEF7F5FF2044C4B20AA0FFF713
:108A300083FF0646281932460AA1FFF7BDFE2044EF
:108A4000C4B22919002204A0FEF7E3FF2044C4B2F7
:108A500000202855204670BD4A756C2032302032E7
:108A6000303138002D253032642D000010B586B02D
:108A7000002414E004EB4401002202EBC1001822A0
:108A800069460AF0E5FF0098401C00D108E0601C30
:108A9000C4B2012009F0FEFFFF2C00DB00E0E9E793
:108AA00000BF0522214603A0FDF7BCFF204606B00B
:108AB00010BD0000B4F2D3A1BCC7C2BCCBF7D2FD3D
:108AC0002564000010B500240F48FFF703FA562074
:108AD00000F03CF8302000F039F8002000F036F8C3
:108AE0000A2000F033F8032000F030F8062000F0F0
:108AF0002DF800BF05E0FF21204601F0ABFD601C12
:108B0000C4B2202CF7DB10BDD846010810B50024F4
:108B100080210A48FFF722FA00B9022440210748C1
:108B2000FFF71CFA00B9012401210548FFF716FAE6
:108B3000012800D10424204610BD0000001001408F
:108B40000008014001E002F089FAFCE710B5044694
:108B50004FF400410B48FFF70AFA032000F044F8F5
:108B60000421802000F010F80821204600F00CF8C5
:108B70004FF400410348FFF7FCF9042000F034F8FB
:108B800010BD00000010014070B504460D460026DF
:108B900024E04FF480411348FFF7E9F9032000F087
:108BA00023F814F0800F05D04FF400510D48FFF763
:108BB000E0F904E04FF400510A48FFF7D8F9032028
:108BC00000F012F84FF480410648FFF7D2F9600632
:108BD000040E012000F008F8701CC6B2AE42D8DBCB
:108BE00070BD00000010014000EB400188B200BFE2
:108BF0000100A0F1010290B2FAD1704710B5002433
:108C000000BF12E00A4A125D02F00F016206100E68
:108C100001F020FD064A125D1111012202EB44020F
:108C2000D0B201F017FD601CC4B2102CEADB10BDFD
:108C3000FCB100203EB50020F94908730A4692F8BD
:108C4000D11092F8D00001F041F8F5490868FCF71E
:108C500084FD044622460B46F2A16846FEF7D8FF83
:108C6000EF48008A10F4807F09D0684601F082FC4A
:108C7000EB48007B40F08000E949087308E0EBA076
:108C800001F078FCE648007B40F08000E44908737E
:108C9000E3494868FCF761FD044622460B46E1A122
:108CA0006846FEF7B5FFDE48008A10F4007F16D054
:108CB000DB4890F8B00010F0400F06D0D848007B99
:108CC00040F00800D649087305E0D548007B40F025
:108CD0001000D3490873684601F0F4FB15E0D04852
:108CE00090F8B00010F0400F06D0CD48007B40F067
:108CF0000800CB49087305E0C948007B40F010002C
:108D0000C7490873C9A001F0DDFBCA48007940F0EB
:108D10000200C84908710846807940F00100887156
:108D2000BF48007BC87301204872BD48008A10F418
:108D3000006F28D0C0480078012804DD0846407A3A
:108D400040F004004872BC480078022805DDB948AC
:108D5000407A40F00600B7494872B74800780328C7
:108D600005DDB448407A40F00E00B2494872B2487E
:108D700001780078401CB04A1070032933DD0120CF
:108D8000114608702FE0A6498868FCF7E6FC044607
:108D90000022AA4BFCF708FD05D2A648407A40F015
:108DA0000400A44948729E498868FCF7D6FC044632
:108DB000A34AA44BFCF7F8FC05D29E48407A40F049
:108DC00002009C49487296498868FCF7C6FC044634
:108DD00000229D4BFCF7E8FC05D29648407A40F013
:108DE0000800944948728E48008A10F4006F05D03C
:108DF0009048407A40F010008E4948728848008AB6
:108E000010F4806F03D010208A49887305E08948E8
:108E1000807B20F0100087498873814890F8D60045
:108E2000632801DA012000E000207D4991F8D61086
:108E3000002901DD012100E00021084206D07D4823
:108E4000007940F010007B49087105E0794800790D
:108E500020F0100077490871714890F8D600632817
:108E600001DA012000E000206D4991F8D6100A29AE
:108E700001DD012100E00021084206D06D480079A3
:108E800040F020006B49087105E06A48007920F045
:108E9000200068490871624890F8D600632801DA1A
:108EA000012000E000205E4991F8D610142901DD70
:108EB000012100E00021084206D05E48007940F020
:108EC00040005C49087105E05A48007920F04000F4
:108ED000584908715248007C10F0100F06D05548D0
:108EE000807B40F040005349887305E05148807B07
:108EF00020F040004F4988734948007C10F0030F70
:108F000006D04C48007940F001004A49087105E05C
:108F10004848007920F00100464908714048007C2B
:108F200010F00C0F06D04348407940F00100414951
:108F3000487105E03F48407920F001003D49487103
:108F40003748007C10F0050F06D03A48807B40F08F
:108F500080003849887305E03648807B20F0800027
:108F6000344988732E48007C10F00A0F06D031482F
:108F7000807B40F020002F49887305E02D48807BDE
:108F800020F020002B4988732548007C10F0800FCA
:108F900006D02848007940F004002649087105E011
:108FA0002448007920F00400224908711C4890F8F8
:108FB000DA00FF2806D11F48407B40F040001D49E1
:108FC000487305E01B48407B20F040001949487376
:108FD0001348007C10F0400F06D01648407B20F06C
:108FE00020001449487305E01248407B40F02000FF
:108FF000104948730A4890F8B00010F0800F06D06E
:109000000C48807B40F00A000A49887305E0094853
:10901000807B20F00A0007498873FFF7EFFD3EBD13
:10902000F4B00020252E3266202000002D2D2D2D9D
:1090300000000000FCB100209500002000000C4062
:109040009A99999999990D40000010403EB50020D9
:10905000DC4908730A4692F8D11092F8D00000F06B
:1090600035FED8490868FCF778FB044622460B46D3
:10907000D5A16846FEF7CCFDD24908680021FCF76F
:10908000CDFB03D2D2A001F075FA02E0D2A001F02C
:1090900071FACC4948680021FCF7C0FB03D2CCA090
:1090A00001F010FA02E0CCA001F00CFACC480079F3
:1090B00040F00200CA4908710846807940F001007A
:1090C0008871C048007BC87301204872BD48008A7F
:1090D00010F4006F28D0C3480078012804DD08464A
:1090E000407A40F004004872BE480078022805DD4E
:1090F000BB48407A40F00600B9494872B948007848
:10910000032805DDB648407A40F00E00B4494872A5
:10911000B44801780078401CB24A1070032933DD4E
:109120000120114608702FE0A6498868FCF715FB5E
:1091300004460022AC4BFCF737FB05D2A848407A26
:1091400040F00400A64948729E498868FCF705FB78
:109150000446A64AA64BFCF727FB05D2A048407A56
:1091600040F002009E49487296498868FCF7F5FA7B
:10917000044600229F4BFCF717FB05D29848407A23
:1091800040F00800964948728E48008A10F4006F3B
:1091900005D09348407A40F01000914948728948C0
:1091A000008A10F4806F03D010208D49887305E089
:1091B0008B48807B20F0100089498873814890F8A3
:1091C000D600632801DA012000E000207D4991F8F3
:1091D000D610002901DD012100E00021084206D05F
:1091E0007F48007940F010007D49087105E07C4817
:1091F000007920F010007A490871724890F8D60082
:10920000632801DA012000E000206E4991F8D610B1
:109210000A2901DD012100E00021084206D0704842
:10922000007940F020006E49087105E06C48007933
:1092300020F020006A490871624890F8D60063283F
:1092400001DA012000E000205E4991F8D6101429CF
:1092500001DD012100E00021084206D060480079CC
:1092600040F040005E49087105E05D48007920F05B
:1092700040005B4908715348007C10F0100F06D085
:109280005748807B40F040005549887305E05448BA
:10929000807B20F04000524988734A48007C10F0DF
:1092A000030F06D04E48007940F001004C49087188
:1092B00005E04B48007920F0010049490871414818
:1092C000007C10F00C0F06D04548407940F00100BA
:1092D0004349487105E04248407920F00100404987
:1092E00048713848007C10F0050F06D03C48807B60
:1092F00040F080003A49887305E03948807B20F0CF
:109300008000374988732F48007C10F00A0F06D080
:109310003348807B40F020003149887305E03048B5
:10932000807B20F020002E4988732648007C10F0B6
:10933000800F06D02A48007940F0040028490871BF
:1093400005E02748007920F00400254908711D48F0
:1093500090F8DA00FF2806D12148407B40F0400019
:109360001F49487305E01E48407B20F040001C491F
:1093700048731448007C10F0400F06D01848407B1A
:1093800020F020001649487305E01548407B40F066
:109390002000134948730B4890F8B00010F0800F7C
:1093A00006D00F48807B40F00A000D49887305E025
:1093B0000B48807B20F00A0009498873FFF71EFCE8
:1093C0003EBD0000F4B00020252E326620200000B3
:1093D0002D304646000000002D304E2D00000000CC
:1093E000FCB100209900002000000C409A99999946
:1093F00099990D40000010402DE9FE430020FC49E2
:1094000008730868FCF744F90546FCF715F90446AB
:10941000F7490868F749FCF701FA12D2F4490868DD
:10942000FCF736F90A2190FBF1F94846FCF712F9EE
:109430000746F14AF14BFBF777FF0546FCF7C8F901
:109440000446EB490868EE49FCF7E8F912D2E8490E
:109450000868FCF71DF9642190FBF1F94846FCF718
:10946000F9F80746E44AE74BFBF75EFF0546FCF7D1
:10947000AFF90446DE490868E349FCF7CFF914D296
:10948000DB490868FCF704F94FF47A7190FBF1F9B5
:109490004846FCF7DFF807464FF03332DB4BFBF76B
:1094A00043FF0546FCF794F90446D14A92F8D110DF
:1094B00092F8D00000F00AFC2046FCF74EF9054671
:1094C0002A460B46D2A16846FEF7A2FBC848008A8E
:1094D00010F4807F03D0684601F04CF802E0CEA083
:1094E00001F048F8C2494868FCF737F905462A46B2
:1094F0000B46C7A16846FEF78BFBBD48008A10F4F7
:10950000007F03D0684600F0DDFF02E0C4A000F059
:1095100081FFC548007940F00200C3490871084640
:10952000807940F001008871B148007BC873012048
:109530004872AF48008A10F4006F28D0BB4800780A
:10954000012804DD0846407A40F004004872B7481C
:109550000078022805DDB448407A40F00600B249A0
:109560004872B2480078032805DDAF48407A40F0E1
:109570000E00AD494872AD4801780078401CAB4AF6
:109580001070032933DD0120114608702FE098493F
:109590008868FCF7E2F805460022A54BFCF704F9C1
:1095A00005D2A148407A40F004009F494872904992
:1095B0008868FCF7D2F805468F4A9E4BFCF7F4F812
:1095C00005D29948407A40F002009749487288498C
:1095D0008868FCF7C2F805460022974BFCF7E4F8D0
:1095E00005D29148407A40F008008F49487280487F
:1095F000008A10F4006F05D08B48407A40F01000CC
:10960000894948727A48008A10F4806F03D010208C
:109610008549887305E08448807B20F010008249EA
:109620008873734890F8D600632801DA012000E0BF
:1096300000206F4991F8D610002901DD012100E0DA
:109640000021084206D07848007940F010007649A1
:10965000087105E07448007920F010007249087123
:10966000634890F8D600632801DA012000E000206A
:109670005F4991F8D6100A2901DD012100E000219F
:10968000084206D06848007940F020006649087119
:1096900005E06548007920F02000634908715448CE
:1096A00090F8D600632801DA012000E0002050493C
:1096B00091F8D610142901DD012100E000210842B3
:1096C00006D05948007940F040005749087105E03C
:1096D0005548007920F04000534908714448007C07
:1096E00010F0100F06D05048807B40F040004E49EB
:1096F000887305E04C48807B20F040004A4988731D
:109700003B48007C10F0030F06D04748007940F03A
:1097100001004549087105E04348007920F0010047
:10972000414908713248007C10F00C0F06D03E48C9
:10973000407940F001003C49487105E03A484079E1
:1097400020F00100384948712948007C10F0050FCD
:1097500006D03548807B40F080003349887305E0AF
:109760003148807B20F080002F4988732048007C9E
:1097700010F00A0F06D02C48807B40F020002A49C8
:10978000887305E02848807B20F0200026498873F4
:109790001748007C10F0800F06D02348007940F075
:1097A00004002149087105E01F48007920F00400F9
:1097B0001D4908710E4890F8DA00FF2806D11A48B2
:1097C000407B40F040001849487305E01648407B54
:1097D00020F04000144948730548007C10F0400F09
:1097E0002CD01148407B20F020000F4948732BE01B
:1097F000F4B0002000007A449A9999999999B93F58
:1098000000401C469999C93F0050C3473333D33FAA
:10981000252E3266202000002D2D2D2D0000000069
:109820002D4C552D00000000FCB1002097000020B9
:1098300000000C4099990D40000010400E48407BFC
:1098400040F020000C4948730C4890F8B00010F02C
:10985000800F06D00848807B40F00A0006498873D4
:1098600005E00548807B20F00A0003498873FFF774
:10987000C5F9BDE8FE830000FCB10020F4B0002073
:1098800070B50546002404E0002016490855601C08
:10989000C4B2102CF8DB14A000F06CFE052D18D219
:1098A000DFE805F003070B0F130011A000F00AFE1C
:1098B00013E011A000F006FE0FE011A000F002FE80
:1098C0000BE011A000F0FEFD07E011A000F0FAFD92
:1098D00003E007A000F0F6FD00BF00BFFFF78EF920
:1098E00070BD0000FCB10020424F4F54000000004A
:1098F00054502D300000000030432D310000000096
:1099000055432D320000000055502D33000000005B
:1099100030502D33000000003EB50020E0490873B0
:109920000A4692F8D11092F8D00000F0CFF9DC4945
:109930000868FBF712FF044622460B46D9A1684689
:10994000FEF766F9D648008A10F4807F03D0684697
:1099500000F010FE02E0D5A000F00CFED0494868EF
:10996000FBF7FBFE044622460B46CEA16846FEF7F7
:109970004FF9CB48008A10F4007F03D0684600F00E
:10998000A1FD02E0C9A000F09DFDCA48007940F0A9
:109990000200C84908710846807940F001008871CA
:1099A000BF48007BC87301204872BD48008A10F48C
:1099B000006F28D0C0480078012804DD0846407AAE
:1099C00040F004004872BC480078022805DDB94820
:1099D000407A40F00600B7494872B748007803283B
:1099E00005DDB448407A40F00E00B2494872B248F2
:1099F00001780078401CB04A1070032933DD012043
:109A0000114608702FE0A6498868FBF7A6FE0446B9
:109A10000022AA4BFBF7C8FE05D2A648407A40F0C8
:109A20000400A44948729E498868FBF796FE0446E4
:109A3000A34AA44BFBF7B8FE05D29E48407A40F0FB
:109A400002009C49487296498868FBF786FE0446E6
:109A500000229D4BFBF7A8FE05D29648407A40F0C5
:109A60000800944948728E48008A10F4006F05D0AF
:109A70009048407A40F010008E4948728848008A29
:109A800010F4806F03D010208A49887305E089485C
:109A9000807B20F0100087498873814890F8D600B9
:109AA000632801DA012000E000207D4991F8D610FA
:109AB000002901DD012100E00021084206D07D4897
:109AC000007940F010007B49087105E07948007981
:109AD00020F0100077490871714890F8D60063288B
:109AE00001DA012000E000206D4991F8D6100A2922
:109AF00001DD012100E00021084206D06D48007917
:109B000040F020006B49087105E06A48007920F0B8
:109B1000200068490871624890F8D600632801DA8D
:109B2000012000E000205E4991F8D610142901DDE3
:109B3000012100E00021084206D05E48007940F093
:109B400040005C49087105E05A48007920F0400067
:109B5000584908715248007C10F0100F06D0554843
:109B6000807B40F040005349887305E05148807B7A
:109B700020F040004F4988734948007C10F0030FE3
:109B800006D04C48007940F001004A49087105E0D0
:109B90004848007920F00100464908714048007C9F
:109BA00010F00C0F06D04348407940F001004149C5
:109BB000487105E03F48407920F001003D49487177
:109BC0003748007C10F0050F06D03A48807B40F003
:109BD00080003849887305E03648807B20F080009B
:109BE000344988732E48007C10F00A0F06D03148A3
:109BF000807B40F020002F49887305E02D48807B52
:109C000020F020002B4988732548007C10F0800F3D
:109C100006D02848007940F004002649087105E084
:109C20002448007920F00400224908711C4890F86B
:109C3000DA00FF2806D11F48407B40F040001D4954
:109C4000487305E01B48407B20F0400019494873E9
:109C50001348007C10F0400F06D01648407B20F0DF
:109C600020001449487305E01248407B40F0200072
:109C7000104948730A4890F8B00010F0800F06D0E1
:109C80000C48807B40F00A000A49887305E00948C7
:109C9000807B20F00A0007498873FEF7AFFF3EBDC6
:109CA000F4B00020252E3266202000002D2D2D2D11
:109CB00000000000FCB100209600002000000C40D5
:109CC0009A99999999990D4000001040F8B5044669
:109CD0000D460A2095FBF0F100FB11502B49085C62
:109CE0008DF800000A2095FBF0F0085C8DF801006B
:109CF0000A2094FBF0F100FB11402449085C8DF828
:109D000002000A2094FBF0F0C6B21EB900208DF8C4
:109D1000030008E0012E03D106208DF8030002E0C5
:109D20000C208DF803001A48007828B19DF8000037
:109D300040F010008DF800001548007808B90120A7
:109D400000E00020124908709DF8030040F08000F8
:109D50008DF803009DF8030040F010008DF803001B
:109D60009DF80010142000F05FFC9DF801101620F3
:109D700000F05AFC9DF80210182000F055FC9DF8E8
:109D800003101A2000F050FCF8BD00001E47010827
:109D900094000020F0B587B00446002504E00020C0
:109DA0006A494855681CC5B2102DF8DB052C2AD22B
:109DB000DFE804F0032A5179A1006549D1F8F000E9
:109DC000FBF7CBFC064632460B4662A104A8FDF722
:109DD0001FFF5F49D1F8F400FBF7BFFC064632468F
:109DE0000B465CA101A8FDF713FF04A800F0C2FB1D
:109DF00001A800F067FB5548007940F00200534984
:109E00000871A020887391E05149D1F8F800FBF760
:109E1000A4FC064632460B464EA104A8FDF7F8FE08
:109E20004B49D1F8FC00FBF798FC064632460B463E
:109E300048A101A8FDF7ECFE04A800F09BFB01A8D7
:109E400000F040FB4148807940F001003F498871B3
:109E5000A02088736AE03E498869FBF77EFC0646CD
:109E600032460B463BA104A8FDF7D2FE3849C8692B
:109E7000FBF773FC064632460B4636A101A8FDF7F8
:109E8000C7FE04A800F076FB01A800F01BFB2F48DA
:109E9000007940F002002D4908710846007940F031
:109EA0000100087142E02A49086AFBF756FC0646A1
:109EB00032460B4629A104A8FDF7AAFE2449486AA8
:109EC000FBF74BFC064632460B4624A101A8FDF7E2
:109ED0009FFE04A800F04EFB01A800F0F3FA1B4817
:109EE000807940F00100194988710846407940F0B6
:109EF000010048711AE01BA104A8FDF789FE14486F
:109F000090F8DA2018A101A8FDF782FE04A800F05D
:109F100031FB01A800F0D6FA00200D4908730B4868
:109F2000807B40F00A000949887300BF00BF002011
:109F30000649C873064A92F8D11092F8D000FFF78C
:109F4000C5FEFEF75BFE07B0F0BD0000FCB10020CF
:109F5000F4B00020252E326620200000252E326627
:109F60002000000020202000253033642020200025
:109F70002DE9FE430020FC4908730868FBF788FBC5
:109F80000546FBF759FB0446F7490868F749FBF714
:109F900045FC12D2F4490868FBF77AFB0A2190FBD2
:109FA000F1F94846FBF756FB0746F14AF14BFBF740
:109FB000BBF90546FBF70CFC0446EB490868EE4983
:109FC000FBF72CFC12D2E8490868FBF761FB64211F
:109FD00090FBF1F94846FBF73DFB0746E44AE74BA7
:109FE000FBF7A2F90546FBF7F3FB0446DE490868D8
:109FF000E349FBF713FC14D2DB490868FBF748FB85
:10A000004FF47A7190FBF1F94846FBF723FB0746C2
:10A010004FF03332DB4BFBF787F90546FBF7D8FBF4
:10A020000446D14A92F8D11092F8D000FFF74EFEC4
:10A030002046FBF792FB05462A460B46D2A168460E
:10A04000FDF7E6FDC848008A10F4807F03D068461B
:10A0500000F090FA02E0CEA000F08CFAC249486805
:10A06000FBF77BFB05462A460B46C7A16846FDF772
:10A07000CFFDBD48008A10F4007F03D0684600F091
:10A0800021FA02E0C4A000F0F1F9C548007940F0DF
:10A090000200C34908710846807940F001008871C8
:10A0A000B148007BC87301204872AF48008A10F4A1
:10A0B000006F28D0BB480078012804DD0846407AAC
:10A0C00040F004004872B7480078022805DDB44823
:10A0D000407A40F00600B2494872B248007803283E
:10A0E00005DDAF48407A40F00E00AD494872AD48FA
:10A0F00001780078401CAB4A1070032933DD012041
:10A10000114608702FE098498868FBF726FB054642
:10A110000022A54BFBF748FB05D2A148407A40F04E
:10A1200004009F49487290498868FBF716FB054672
:10A130008F4A9E4BFBF738FB05D29948407A40F096
:10A1400002009749487288498868FBF706FB054674
:10A150000022974BFBF728FB05D29148407A40F04C
:10A1600008008F4948728048008A10F4006F05D0BB
:10A170008B48407A40F01000894948727A48008A3A
:10A1800010F4806F03D010208549887305E084485F
:10A19000807B20F0100082498873734890F8D600C5
:10A1A000632801DA012000E000206F4991F8D61001
:10A1B000002901DD012100E00021084206D0784895
:10A1C000007940F010007649087105E07448007984
:10A1D00020F0100072490871634890F8D600632897
:10A1E00001DA012000E000205F4991F8D6100A2929
:10A1F00001DD012100E00021084206D06848007915
:10A2000040F020006649087105E06548007920F0BB
:10A21000200063490871544890F8D600632801DA99
:10A22000012000E00020504991F8D610142901DDEA
:10A23000012100E00021084206D05948007940F091
:10A2400040005749087105E05548007920F040006A
:10A25000534908714448007C10F0100F06D0504854
:10A26000807B40F040004E49887305E04C48807B7D
:10A2700020F040004A4988733B48007C10F0030FEF
:10A2800006D04748007940F001004549087105E0D3
:10A290004348007920F00100414908713248007CB0
:10A2A00010F00C0F06D03E48407940F001003C49C8
:10A2B000487105E03A48407920F00100384948717A
:10A2C0002948007C10F0050F06D03548807B40F00F
:10A2D00080003349887305E03148807B20F080009E
:10A2E0002F4988732048007C10F00A0F06D02C48B4
:10A2F000807B40F020002A49887305E02848807B55
:10A3000020F02000264988731748007C10F0800F49
:10A3100006D02348007940F004002149087105E087
:10A320001F48007920F004001D4908710E4890F87C
:10A33000DA00FF2806D11A48407B40F04000184957
:10A34000487305E01648407B20F0400014494873EC
:10A350000548007C10F0400F2CD01148407B20F0C5
:10A3600020000F4948732BE0F4B0002000007A442D
:10A370009A9999999999B93F00401C469999C93F72
:10A380000050C3473333D33F252E326620200000D0
:10A390002D2D2D2D000000002D47322D0000000036
:10A3A000FCB100209800002000000C4099990D405D
:10A3B000000010400E48407B40F020000C494873DC
:10A3C0000C4890F8B00010F0800F06D00848807B51
:10A3D00040F00A000649887305E00548807B20F0BC
:10A3E0000A0003498873FEF709FCBDE8FE830000FC
:10A3F000FCB10020F4B0002070B505460C460448BE
:10A400000168284604F038FB265C304670BD000029
:10A41000740000207CB50646002435460822002141
:10A420006846FBF77AFD08E028780F49FFF7E4FF5C
:10A430000DF80400601CC4B26D1C28780028F3D10C
:10A440006D461A208DF80100002409E015F8011B63
:10A450000A2202EB4402D0B200F0E6F8601CC4B25B
:10A46000042CF3DB7CBD0000074701087CB50646E1
:10A4700000243546082200216846FBF74EFD08E01F
:10A4800028780F49FFF7B8FF0DF80400601CC4B22C
:10A490006D1C28780028F3D16D46BA208DF8010094
:10A4A000002409E015F8011B0A2202EB4402D0B295
:10A4B00000F0BAF8601CC4B2042CF3DB7CBD0000D1
:10A4C000074701087CB506460024354608220021CE
:10A4D0006846FBF722FD1CE028782E280CD028784F
:10A4E0002349FFF789FF1DF8041008430DF8040005
:10A4F000601CC4B26D1C09E06D1C1D492E20FFF7C5
:10A500007BFF1DF8041008430DF80400032C00DD48
:10A5100002E028780028DFD100BF6D4617E014491B
:10A520002E20FFF769FF9DF8011008420ED003248A
:10A5300009E0601E1DF800000DF804000021601EF7
:10A540000DF80010C4B2002C01DDF2E700E0E6E7F0
:10A5500000BF002409E015F8011B0A2202EB4402A7
:10A56000D0B200F061F8601CC4B2042CF3DB7CBDF7
:10A57000074701087CB5064600243546082200211D
:10A580006846FBF7CAFC1CE028782E280CD02878F7
:10A590002449FFF731FF1DF8041008430DF80400AB
:10A5A000601CC4B26D1C09E06D1C1E492E20FFF713
:10A5B00023FF1DF8041008430DF80400032C00DDF0
:10A5C00002E028780028DFD100BF6D46062417E09E
:10A5D00014492E20FFF710FF9DF8011008420ED0FD
:10A5E000032409E0601E1DF800000DF8040000219E
:10A5F000601E0DF80010C4B2002C01DDF2E700E08F
:10A60000E6E700BF002409E015F8011B0622A2EBD3
:10A610004402D0B200F008F8601CC4B2042CF3DB92
:10A620007CBD0000F046010870B504460D4605F0FB
:10A630000F01204600F00EF82911621CD0B200F084
:10A6400009F8204604EBD0714910014A555470BDF9
:10A65000FCB1002070B504460D464FF400410D4892
:10A66000FDF785FC0320FEF7BFFA0321A020FEF7CB
:10A670008BFAA106080E0621FEF786FA2907080EB6
:10A680000421FEF781FA4FF400410248FDF771FC06
:10A6900070BD00000010014010B504460120A04725
:10A6A0000320A04710BD2DE9FF47074616461C466C
:10A6B000DDE90C899DF804004006000E0190002C95
:10A6C00016DD384600F0C0F8012201A9384600F036
:10A6D00076F8054635B93846FFF7DEFF002004B0AE
:10A6E000BDE8F08722463146384600F068F8054656
:10A6F000384600F0A9F89DF8040040F001000190F0
:10A70000012201A9384600F05AF805464A4641465A
:10A71000384600F006F80546384600F0ACF8284602
:10A72000DDE72DE9F04704460E461546A94628E028
:10A730004FF00008002714E07806070E0320A0471A
:10A740000A2009F01BFE0520A04708B147F00107C9
:10A750000420A0470A2009F011FE08F1010000F0D2
:10A76000FF08B8F1080FE7DB06F8017B002D04DDD8
:10A770000021204600F00DF803E00121204600F002
:10A7800008F82800A5F10101CDB2D1D14846BDE8B5
:10A79000F08770B504460D4615B10120A04701E0D1
:10A7A0000220A0470320A0470A2009F0E7FD04206B
:10A7B000A0470A2009F0E2FD0120A04770BD2DE965
:10A7C000F04704460E461546A94639E016F8018BB7
:10A7D000002717E018F0800F02D00120A04701E009
:10A7E0000220A0470320A0470A2009F0C7FD04204B
:10A7F000A0470A2009F0C2FD781CC7B24FEA4860A2
:10A800004FEA1068082FE5DB0120A0470320A0478E
:10A810000A2009F0B3FD0520A04782460A2009F06E
:10A82000ADFD0420A0470A2009F0A8FDBAF1000FF1
:10A8300004D0A9EB0500C0B2BDE8F087681EC5B220
:10A84000002DC3D14846F7E710B504460320A047C2
:10A85000052009F093FD0120A0470A2009F08EFD94
:10A860000220A0470A2009F089FD0420A0470A2001
:10A8700009F084FD10BD10B504460220A047142045
:10A8800009F07CFD0320A0470A2009F077FD012094
:10A89000A0471E2009F072FD10BD2DE9FF470746B5
:10A8A00014461D46DDE90C899DF804004006000EA3
:10A8B00001903846FFF7C8FF012201A93846FFF78B
:10A8C0007EFF064636B93846FFF7E6FE002004B0A4
:10A8D000BDE8F0872A4621463846FFF770FF064656
:10A8E0004A4641463846FFF76AFF06463846FFF7B4
:10A8F000C2FF3046EBE710B504462046FCF720FFC8
:10A9000010BD10B5FCF75CFF10BD01B5002000992B
:10A91000CA05D20D03D0012202EB512000E0480A03
:10A9200008BD70B504460D4629462046FCF774FF65
:10A9300070BD10B5FCF790FF10BD00BF0100A0F185
:10A94000010290B2FAD1704707B582B0BDF810008D
:10A95000ADF8040048208DF8070002208DF80600AD
:10A9600001A90398FDF72CFA05B000BD07B582B028
:10A97000BDF81000ADF8040010208DF8070002208B
:10A980008DF8060001A90398FDF71AFA05B000BD7D
:10A9900070B504460025A18A2069FDF7EAFAD4E9DA
:10A9A0000412E068FFF7D0FF21896068FDF7E1FA43
:10A9B0000A20FFF7C2FFA18A2069FDF7CFFA0543FD
:10A9C0000A20FFF7BAFF21896068FDF7D0FAD4E9C1
:10A9D0000412E068FFF7CAFF284670BD2DE9FC5F4E
:10A9E0008346584600F0C6F84721584600F096F8CE
:10A9F000002411E0584600F041F801A90855032C45
:10AA000004D10121584600F069F803E000215846BE
:10AA100000F064F8601CC4B2032CEBDB584600F075
:10AA2000C5F8052008F036F89DF804909DF805005B
:10AA300000EB09201FFA80F94846FAF706FE00905D
:10AA4000FAF78BFE07464FF033320A4BFAF785FDD3
:10AA50000546FAF769FE82465046FAF70CFE0746AD
:10AA60004FF06632044BFAF706FD0546FAF75CFE36
:10AA7000BDE8FC9F3333F33F6666F63F70B504468E
:10AA80000025D4E90412E068FFF75EFFA18A20697F
:10AA9000FDF76FFA002618E06806050E2189606848
:10AAA000FDF767FA0A20FFF748FFA18A2069FDF742
:10AAB00055FA08B1681CC5B221896068FDF757FADC
:10AAC0000A20FFF73AFF701CC6B2082EE4DBD4E977
:10AAD0000412E068FFF74AFF284670BD70B50446CF
:10AAE0000D4625B1A18A2069FDF743FA03E0A18A4A
:10AAF0002069FDF73CFA21896068FDF73AFA0A20DF
:10AB0000FFF71BFF21896068FDF731FA0A20FFF784
:10AB100014FFA18A2069FDF72CFA70BD70B50446B8
:10AB20000D46002620E015F0800F04D0A18A206990
:10AB3000FDF71FFA03E0A18A2069FDF718FA0A2041
:10AB4000FFF7FBFE21896068FDF713FA0A20FFF783
:10AB5000F4FE21896068FDF70AFA0A20FFF7EDFE8E
:10AB60006806050E701CC6B2082EDCDB2046FFF717
:10AB70000FFF70BD10B50446A18A2069FDF7F9F9F1
:10AB800021896068FDF7F5F90A20FFF7D6FEA18A52
:10AB90002069FDF7ECF90A20FFF7CFFE21896068F4
:10ABA000FDF7E5F90A20FFF7C8FE10BD10B5044611
:10ABB000A18A2069FDF7DBF921896068FDF7D9F9E1
:10ABC0000A20FFF7BAFEA18A2069FDF7D2F91E20FC
:10ABD000FFF7B3FE21896068FDF7C9F91420FFF77C
:10ABE000ACFE10BD70B504460D462046FFF7C2FF0F
:10ABF00046212046FFF792FF29462046FFF78EFFA9
:10AC00002046FFF7D3FF70BD38B504460D46164801
:10AC1000006940F44070144908614FF44070ADF889
:10AC2000000003208DF8020048208DF803006946DB
:10AC30000E48FDF7C5F84FF480710C48FDF78EF90A
:10AC400018B14FF07E50206001E0002020604FF4EA
:10AC500000710648FDF782F918B14FF07E50206070
:10AC600001E00020206038BDF4B00020000C01405D
:10AC700008B50121082002F06DFD4FF40060ADF829
:10AC8000000001208DF8020048208DF8030069467D
:10AC90000848FDF795F84FF48060ADF800000120FA
:10ACA0008DF8020010208DF8030069460148FDF779
:10ACB00087F808BD000C01402DE9F041054609491F
:10ACC0002846FAF7BBFA0746FAF7FBFC86B2A6F568
:10ACD0006170322190FBF1F0C4B284F02004204670
:10ACE000BDE8F081000048437CB504460722694670
:10ACF000002000F0D1F805460DB900207CBD9DF87C
:10AD0000001001F07F00FBF7CBF8A0719DF8011057
:10AD100001F07F00FBF7C4F860719DF8021001F0AC
:10AD20003F00FBF7BDF820719DF8031001F03F00D4
:10AD3000FBF7B6F8A0709DF8041001F01F00FBF7B8
:10AD4000AFF860709DF80500FBF7AAF820709DF839
:10AD50000600FBF7A5F8E0700120CFE770B50446C8
:10AD60000025062C33D2DFE804F032030C151E2731
:10AD7000184A12681189174A12685068FDF7F9F8E5
:10AD800025E0144A12681189124A12685068FDF7CA
:10AD9000EEF81CE00F4A1268918A0E4A1268106998
:10ADA000FDF7E7F813E00B4A1268918A094A126826
:10ADB0001069FDF7DCF80AE0064A12681189054AB5
:10ADC00012685068FDF7CAF800B1012500BF00BF46
:10ADD000284670BDEC00002038B5054600242C48FC
:10ADE00005600068FDF776F801226946122000F040
:10ADF00053F804469DF800005D2847D01021072035
:10AE000000F0DAF804409021082000F0D5F8044062
:10AE10002048FFF751FF00909DF800100A2000F035
:10AE2000CBF8044000210B2000F0C6F804405D215F
:10AE3000122000F0C1F8044000231A4619461846B3
:10AE400000F03AF804400021084600F0B5F804404C
:10AE50000021012000F0B0F804408021022000F021
:10AE6000ABF804400121032000F0A6F804400121C2
:10AE7000042000F0A1F804400021052000F09CF817
:10AE800004400621084600F097F80440204638BDEB
:10AE9000EC0000200000C04037B582B00C461546DB
:10AEA000012302AA6F210348CDE90045FFF7FBFB10
:10AEB00005B030BD5DAD00082DE9F84381460F4671
:10AEC00090461C4601264046FBF78FFE8DF8000099
:10AED0003846FBF78AFE8DF801004846FBF785FEF1
:10AEE0008DF8020014F0010F05D09DF8000040F02D
:10AEF00080008DF8000014F0020F05D09DF80100CD
:10AF000040F080008DF8010014F0040F05D09DF88A
:10AF1000020040F080008DF80200002509E01DF8D5
:10AF2000051005F10C02D0B200F046F80640681C8E
:10AF3000C5B2032DF3DB002C05DDD021082000F085
:10AF40003BF8064004E09021082000F035F8064068
:10AF50003046BDE8F8837CB50446A079FBF745FE92
:10AF60008DF800006079FBF740FE8DF80100207934
:10AF7000FBF73BFE40F080008DF80200A078FBF765
:10AF800034FE8DF803006078FBF72FFE8DF8040087
:10AF90002078FBF72AFE8DF80500002507E01DF854
:10AFA0000510E8B200F008F80640681CC5B2072D8D
:10AFB000F5DB30467CBD000003B583B0012004A959
:10AFC000034603AACDE900106F210248FFF765FC94
:10AFD00005B000BD5DAD000870B504460D462B46BA
:10AFE00022460249024800F005F870BD00F8030847
:10AFF0000F7B00082DE9F0470746884614461D469A
:10B00000A14608EBC52004222146B8474E463088A9
:10B01000B0F5006F01DD012000E000203188042937
:10B0200001DA012100E00021084300D013E032885A
:10B0300008EBC5202146B8473088001F81B209F1CE
:10B04000040007F0A1FA82467188514500D002E061
:10B050000120BDE8F0870020FBE7000071B600BFCB
:10B060000648006800F4E06005490843001D0349F4
:10B070000860BFF3408F00BF00BFFEE70CED00E0AB
:10B080000000FA0510B5052106A0FBF7CBFC08A1CE
:10B090000B4808F070FC4FF47A710AA0FCF7A8FF87
:10B0A00010BD0000C9BEB3FDCFFBCFA20000000061
:10B0B00041542B434D47443D312C340D0A000000D0
:10B0C000004400404F4B000070B5054625B12846AE
:10B0D00007F0FEFD044602E007F0C4FD044614B18B
:10B0E0006668304670BD0020FCE70000F0B59DB0FA
:10B0F00005460C46607A48B1627A04A96068FAF79E
:10B10000FBFE0020617A04AA505403E004A96068A1
:10B1100003F0D0FD207A0D2839D009DC75D2DFE8A4
:10B1200000F0AC10ACAC231C63ACAC42AC152F00EF
:10B1300017380728F2D2DFE800F03D46A0307482CD
:10B140005F0028462168FCF763FD9BE06068027899
:10B1500028462168FCF75CFD94E060680288284678
:10B160002168FCF755FD8DE061680868FAF7F5FA8B
:10B1700006460B46324628462168FCF749FD81E029
:10B180006068027828462168FCF742FD7AE028468C
:10B19000D4E90012FCF73CFD74E004AA28462168BB
:10B1A000FCF736FD6EE06068026828462168FCF70F
:10B1B0002FFD67E0606880470646324628462168D2
:10B1C000FCF726FD5EE060680078002801DD0120C4
:10B1D00000E0002000EB40002C4B03EB400228462F
:10B1E0002168FCF715FD4DE0606890F900202846C5
:10B1F0002168FCF70DFD45E060680068667A012370
:10B20000B340184202D0012001E036E0002000EBFC
:10B2100040001E4B03EB400228462168FCF7F8FC77
:10B2200030E06068007861684978CDE900106068B6
:10B230008378C27828462168FCF7EAFC22E061683E
:10B24000098888B204F008F803906168098888B218
:10B2500004F002F802906168098888B203F0FCFFEC
:10B2600001909DF80E0000909DF809309DF8042093
:10B2700028462168FCF7CCFC04E028462168FCF74E
:10B28000C7FC00BF00BF1DB0F0BD0000284701088B
:10B2900000BFFEE7054A1168486802E009684A688D
:10B2A00010440A68002AF9D17047000058000020B5
:10B2B00002460A4B1868002106E0A2F10803834207
:10B2C00000D107E0014600680368002BF5D101B109
:10B2D0000B60704703680B6000BFFAE7580000205E
:10B2E0000146A1F108025068083870470549086016
:10B2F0000021044A126811600821024A1268516054
:10B30000704700005800002010B50346104801683F
:10B3100003F1080083B20FE00868401A4C68001B74
:10B32000984208D3486842185360086810600A6061
:10B3300002F1080010BD096808680028ECD14868CF
:10B3400042180020106053600A6002F10800F1E723
:10B3500058000020014600200A4602E00C32431C3F
:10B36000D8B2137A002BF9D1704730B5039C7E25F3
:10B3700005707F25057382704170C373447330BDBF
:10B380002DE9F05F06460C4691469A46DDF828B056
:10B390000C9F002584F8039084F804A084F808B07A
:10B3A000678117B1F81CE08001E00020E08022787E
:10B3B0002846691C8DB23254E07B50B9A2782846E9
:10B3C000691C8DB2325462782846691C8DB23254A1
:10B3D0000CE0E07B012809D162782846691C8DB217
:10B3E0003254A2782846691C8DB23254E27828463D
:10B3F000691C8DB2325422792846691C8DB23254B0
:10B40000E08802122846691C8DB23254A27928467F
:10B41000691C8DB23254BFB1227A2846691C8DB2A4
:10B420003254608902122846691C8DB23254A27AC5
:10B430002846691C8DB23254628971190B98FAF74B
:10B440005BFD6089284485B2607B012810D12946C4
:10B45000304607F099F880464FEA28222846691CB2
:10B460008DB232542846691C8DB206F800800BE07C
:10B47000607B022808D1681E81B2304607F0C0F810
:10B4800029466A1C95B27054227B2846691C8DB2ED
:10B4900032542846BDE8F09F2DE9F05F06468B4602
:10B4A00014460025AA460120A07329466D1C705C35
:10B4B0002178884200D099E0E07B50B92846691C89
:10B4C0008DB2305C6178884200D093E0681C85B210
:10B4D00020E0E07B01281DD12846691C8DB216F8BA
:10B4E0000080A078404501D0012000E00020B8F1A4
:10B4F000FF0F01D0012100E00021084200D079E0D7
:10B50000681C85B2B8F1FF0F02D14FF0010901E0CC
:10B510004FF000092846691C8DB2305CE070284667
:10B52000691C8DB2305C20712846691C8DB2305C7C
:10B53000E080E0884FF6FF7101EA0020E080E088BB
:10B5400029466A1C95B2715C0843E080E08800B32C
:10B550002846691C8DB2305C20722846691C8DB269
:10B56000305C608160894FF6FF7101EA00206081E4
:10B57000608929466A1C95B2715C08436081AA46BD
:10B580006089284485B2E1886089C01C814200D06E
:10B5900034E0607B022809D12946304607F030F8B4
:10B5A0000746715DB94200D01CE010E0607B0128C5
:10B5B0000CD12946304606F0E7FF074670190121F5
:10B5C000FDF7A6F9B84200D00CE000E000BFB9F1E9
:10B5D000010F02D10620A07301E00020A0735046A5
:10B5E000BDE8F09F0220A0730020F9E70520A073BA
:10B5F0000020F5E70620A0730020F1E70120A073EA
:10B600000020EDE77047000070B5002100230F22F5
:10B61000C4780CB3164C246804F4E064C4F5E06408
:10B62000210AC1F10403CA40447804FA03F1847882
:10B630001440214309010F4C0678A155047804F009
:10B640001F050124AC4005786D114FF0E02606EB94
:10B650008505C5F8004109E0047804F01F050124C0
:10B66000AC40054D0678761145F8264070BD0000C7
:10B670000CED00E000E400E080E100E0024901435D
:10B68000024A1160704700000000FA050CED00E06E
:10B69000024A0A400243024B1A60704780FFFF1FB4
:10B6A00008ED00E010B588B0002269460BA000F05C
:10B6B0008BFA044674B16846FAF7DEFC50B10522F5
:10B6C000694609A0FBF7AEF90B220C490DF1020007
:10B6D000FAF712FC204608B010BD000041542B437D
:10B6E0005343413F0D0A0000B6CCD0C5D6D0D0C4DC
:10B6F000BAC5C2EB3A5B25735D000000D8B10020EB
:10B70000014908627047000000000E420A480068C4
:10B7100040F00400084908600846006840F0020054
:10B7200008600648006840F004000449086000BF53
:10B7300000BF30BF704700000070004010ED00E017
:10B7400010B5024600200C4B186820F0030010438F
:10B7500018600A4B1B6843F00403084C236001295E
:10B7600001D130BF00E020BF044B1B6823F004036D
:10B77000024C236010BD00000070004010ED00E09E
:10B780000149086070470000A0000E4270470000A9
:10B7900010B5032209A10CA0FBF744F903220EA166
:10B7A00011A0FBF73FF90322134914A0FBF73AF964
:10B7B0000322174917A0FBF735F910BD5450353057
:10B7C0003056322D47000000426F6172645F4E6157
:10B7D0006D653A257300000053544D3332463130C5
:10B7E00033524254360000004350555F4D6F64653C
:10B7F0006C3A25730000000000127A004370755FF8
:10B800004F53435F465245513A2025644D687A00B4
:10B8100000A24A044370755F467265713A20256440
:10B820004D687A007047000000B585B06846FCF7A7
:10B8300019FF0322694602A0FBF7F4F805B000BD2A
:10B840004F6E6C7949443A25730000007047000040
:10B8500010B5032108A0FBF7E5F8FFF799FFFFF704
:10B86000E1FFFFF7E1FFFBF70BFA00F013F8FFF73A
:10B87000EDFF00F02FF810BD0A546F732053797359
:10B8800074656D2053746172742E2E2E2E2E2E2E02
:10B890002E2E2E0010B5FDF70FF804460323224686
:10B8A000142102A0FBF7BEF810BD00005461736BB9
:10B8B000506F6F6C53697A653A2564206275742005
:10B8C000686173202564207461736B206372656105
:10B8D00074652E0038B500241DE004EB44001549C2
:10B8E000096801EB0010C06A98B10320009004EBD6
:10B8F00044001049096801EB0010038C04EB44007C
:10B900000C49096801EB00102146C26A0AA0FBF746
:10B9100089F8601CC4B2142CDFDB601EC4B2FFF7D0
:10B92000B9FC054603232A464AF6C87107A0FBF76F
:10B9300079F838BD480000205461736B5B25645D65
:10B940004E616D653A257328256429004D656D6F3C
:10B95000727953697A653A2564206275742075732B
:10B9600065723A25640000002DE9F04105460E4657
:10B9700017460522294608A0FBF754F8002407E0E3
:10B98000325D0523214605A0FBF74CF8601C84B20C
:10B99000BC42F5DBBDE8F081257300004275665BB3
:10B9A00025645D3D307825780000000010B500F07A
:10B9B0005BFB04462CB10522214606A0FBF732F8BA
:10B9C00003E0052108A0FBF72DF8642007F062F8DA
:10B9D00010BD0000B7A2CBCDC5E4D6C3D6A1CAA77F
:10B9E000B0DC5B25645D0000B7A2CBCDC5E4D6C357
:10B9F000D6A14F4B0000000000B599B00948B0F83F
:10BA0000AA3000F1890208A16846FCF701F9052275
:10BA100069460CA0FBF706F86846FCF77BFC19B0FA
:10BA200000BD0000F4B0002041542B51494F504557
:10BA30004E3D22544350222C222573222C25640D86
:10BA40000A000000C1ACBDD3B5BD3A2573000000AB
:10BA500010B54FF47A7229A129A0FCF7F5FB08B9BB
:10BA6000012010BD00F096F8284981F8D600052184
:10BA700027A0FAF7D7FF052128A0FAF7D3FF4FF444
:10BA80007A7229A129A0FCF7DFFB02234FF47A7216
:10BA900029A126A0FCF7EEFB20B9052127A0FAF783
:10BAA000C1FF03E0052127A0FAF7BCFF02234FF4F2
:10BAB0007A7226A127A0FCF7DDFB40B1052128A062
:10BAC000FAF7B0FF0220114981F8D7000FE00223F6
:10BAD0004FF47A7226A11FA0FCF7CCFB38B10521E8
:10BAE00025A0FAF79FFF0420084981F8D700052117
:10BAF00025A0FAF797FF0020B3E7000021393900AD
:10BB000041542B4353510D0A00000000F4B00020B3
:10BB1000BCECB2E9D0C5BAC500000000D5FDD4DA4E
:10BB2000D7A2B2E1000000003000000041542B43D6
:10BB30005245473F0D0A000035000000B1BEB5D8A0
:10BB4000BFA80000CDE2B5D8BFA800004D4F4249C4
:10BB50004C45000041542B434F50533F0D0A000009
:10BB6000D6D0B9FAD2C6B6AF53494DBFA80000002F
:10BB7000554E49434F4D0000D6D0B9FAC1AACDA8C1
:10BB800053494DBFA8000000D7A2B2E1B3C9B9A67E
:10BB90000000000008B5694605A000F06FF89DF8A8
:10BBA0000010052205A0FAF73DFF9DF8000008BD32
:10BBB00041542B4353510D0A00000000D0C5BAC5B3
:10BBC000C7BFB6C83A2564002DE9F84F82460C4637
:10BBD00017464FF000080020009081465146254846
:10BBE00007F0C9FE24494FF4967248680021FAF71D
:10BBF00094F94FF47A73322200211E4807F036FE82
:10BC000000F0FF0BBBF1000F30D0002020700025AA
:10BC10002AE019484068465D302E01DB012000E033
:10BC20000020392E01DC012100E00021084209D06A
:10BC30004F4504D14046411C01F0FF082654012025
:10BC400000900FE0009868B14F4505D100224046B2
:10BC5000411C01F0FF0822540020009009F101006E
:10BC600000F0FF09681CC5B25D45D2DB4046BDE867
:10BC7000F88F000000440040F00000202DE9F0475C
:10BC800080460C460025AA464146234807F073FE2D
:10BC900022494FF4967248680021FAF73EF94FF4B2
:10BCA0007A73322200211C4807F0E0FD00F0FF0902
:10BCB000B9F1000F2CD000202070002626E0174894
:10BCC0004068875D302F01DB012000E00020392F24
:10BCD00001DC012100E0002108420DD0605D00EB95
:10BCE00080004006000E6055615DA7F130000844F9
:10BCF00060554FF0010A07E0BAF1000F04D0681C4C
:10BD0000C5B2002060558246701CC6B24E45D6DBD7
:10BD10002846BDE8F087000000440040F000002005
:10BD200010B50020FCF728F94848006920F02000F1
:10BD300046490861052146A0FAF774FE4FF4967053
:10BD400006F0A8FE0120FCF717F94FF47A7006F010
:10BD5000A1FE4FF400514148FCF70BF940F24C4072
:10BD600006F098FE05213EA0FAF75CFE4FF4005164
:10BD70003A48FCF7FCF84FF47A7006F08BFE4FF46B
:10BD800080713A48FCF7EAF8012804D1052138A06F
:10BD9000FAF748FE15E0052138A0FAF743FE002027
:10BDA000FCF7EAF8294890F8C80020B1274991F833
:10BDB000C80003F069FA03E040F24C4006F06AFE66
:10BDC000FAE74FF47A6006F065FE4FF47A722FA11D
:10BDD0002FA0FCF739FA08B9022010BD05212EA0CA
:10BDE000FAF720FE4FF47A7006F054FE4FF4FA6230
:10BDF00026A12DA0FCF728FA08B90320EDE70521BC
:10BE00002BA0FAF70FFE4FF47A7220A12BA0FCF7BB
:10BE10001BFA08B90420E0E70C48006940F0200054
:10BE20000A490861052128A0FAF7FCFDFFF710FE7A
:10BE300004462CB10522214627A0FAF7F3FD03E0C2
:10BE4000052129A0FAF7EEFD0020C6E7F4B0002096
:10BE500047505253C9CFB5E700000000000C014025
:10BE600047505253BFAABBFA00000000000801402F
:10BE7000BFAABBFAB3C9B9A600000000C4A3BFE9BA
:10BE8000BFAABBFACAA7B0DC000000004F4B0000FD
:10BE900041540D0A000000004154D6B8C1EED6B49A
:10BEA000D0D0B3C9B9A60000415445300D0A0000F6
:10BEB000C9E8D6C3B2BBBBD8CFD4000041542B4392
:10BEC00050494E3F0D0A0000B2E9BFB4CAC7B7F1EE
:10BED000D3D050494E000000C1ACBDD3CDF8CAA7A5
:10BEE000B0DC5B25645D0000C1ACBDD3CDF8C2E71A
:10BEF000B3C9B9A60000000010B504464FF47A702B
:10BF000006F0C8FD4FF47A7220A122A0FCF79CF93C
:10BF100008B9012010BD8CB94FF47A7224A125A074
:10BF2000FCF792F908B90220F4E74FF47A7220A1E5
:10BF300023A0FCF789F908B90420EBE7012C11D103
:10BF40004FF47A721AA123A0FCF77EF908B90320F6
:10BF5000E0E74FF47A7216A119A0FCF775F908B959
:10BF60000420D7E74FF47A7211A11DA0FCF76CF9F9
:10BF700008B90520CEE74FF47A720DA11EA0FCF798
:10BF800063F908B90620C5E70020C3E743504D53C5
:10BF90000000000041542B43504D533D224D54228C
:10BFA0002C224D54222C224D54220D0A0000000058
:10BFB0004F4B000041542B434D47463D300D0A0086
:10BFC00041542B435343533D2255435332220D0AD0
:10BFD0000000000041542B434D47463D310D0A00FF
:10BFE00041542B43534D503D31372C3136372C3093
:10BFF0002C380D0A0000000041542B434E4D493DA2
:10C00000322C312C302C302C300D0A0070B5044607
:10C010000F494FF4967248680021F9F77EFF2146D8
:10C020000C4807F0A8FC4FF47A734FF49672002185
:10C03000084807F01BFCC5B23DB105480522416820
:10C0400005A0FAF7EFFC284670BD0020FCE70000D1
:10C05000F000002000440040B6C1B6CCD0C5B7B552
:10C06000BBD83A257300000010B5B2B0002439489F
:10C0700090F8B00010F0200F42D0052136A0FAF75A
:10C08000D1FC642006F006FD0DEB040110223148BE
:10C090005130F9F731FF204484B20522214632A005
:10C0A000FAF7C0FC224634A1374807F064FC4FF48D
:10C0B000FA6136A0FBF7D2FF00B10EE04FF4FA614F
:10C0C00032A0FBF7CBFF00B107E04FF4FA612FA0DD
:10C0D000FBF7C4FF00B100E000BF224669462A48D2
:10C0E00007F039FC4FF47A7129A0FBF7B7FF10B9BC
:10C0F000022032B010BD6420FCF786F90020F8E77A
:10C10000052125A0FAF78EFC0DEB04011022114841
:10C110005130F9F7F1FE204484B2224616A11A48A4
:10C1200007F029FC642006F0B5FC052269461EA034
:10C13000FAF778FC22466946134807F00CFC4FF4E6
:10C140007A7113A0FBF78AFF08B90220D1E700201B
:10C15000CFE70000F4B00020C5E4D6C3CEAA4A2D34
:10C16000544350D0ADD2E900B7A2CBCDC5E4D6C37D
:10C170005B25645D0000000041542B514953454E3E
:10C18000443D25640D0A0000004400403E000000CC
:10C1900053454E44204F4B00C5E4D6C3CEAA54436A
:10C1A00050D0ADD2E9000000B7A2CBCDC5E4D6C3D4
:10C1B0003A2573002DE9F047ADF5007D0024824853
:10C1C00090F8B00010F0200F76D003A908197FA1D5
:10C1D000FCF7F2FA204484B27B490868F9F7BDFA0B
:10C1E00005460B4603A908192A467DA1FCF7E4FA87
:10C1F000204484B274494868F9F7AFFA05460B4603
:10C2000003A908192A4676A1FCF7D6FA204484B27D
:10C210006D498868F9F7A1FA05460B4603A9081984
:10C220002A466FA1FCF7C8FA204484B2664991F807
:10C23000D600F9F70AFA0746F9F78FFA05460B46D2
:10C2400003A908192A4666A1FCF7B6FA204484B26D
:10C250005D49D1F8DC00F9F780FA05460E465A49E7
:10C26000D1F8E000F9F779FA07460B4603A9081957
:10C270003A465FA1CDE90056FCF79EFA204484B20D
:10C2800003A9081960A1FCF797FA204484B205229B
:10C2900003A95EA0FAF7C6FB22465FA1624807F039
:10C2A0006AFB4FF4FA6161A0FBF7D8FE28B90120C0
:10C2B0000DF5007DBDE8F08711E0224603A95A483C
:10C2C00007F049FB4FF47A7159A0FBF7C7FE08B994
:10C2D0000220EDE74FF4FA60FCF796F871E03A4976
:10C2E00008680021F9F79AFA02D84FF02B0901E00B
:10C2F0004FF02D09344948680021F9F78FFA02D828
:10C300004FF02B0A01E04FF02D0A2F490868F9F78A
:10C3100024FA4A46CDE9000147A103A8FCF74CFAEC
:10C320000446294A11685068F9F76EFA0BD226497B
:10C330004868F9F712FA5246CDE900013EA103A878
:10C34000FCF73AFA04462048008A10F4807F0CD0AB
:10C350001D490868F9F701FA4A46CDE9000136A1FE
:10C3600003A8FCF729FA044610E01748008A10F4E5
:10C37000007F0BD014494868F9F7EFF95246CDE930
:10C3800000012DA103A8FCF717FA0446224622A1BA
:10C39000254807F0F0FA4FF47A7006F07BFB05228F
:10C3A00003A91AA0FAF73EFB224603A91E4807F08C
:10C3B000D2FA4FF47A711EA0FBF750FE08B90220A2
:10C3C00076E7002074E70000F4B000207B2273655C
:10C3D0006E736F724461746173223A5B00000000F7
:10C3E0007B2276616C7565223A252E32667D2C00A3
:10C3F0007B226C6174223A252E37662C226C6E6784
:10C40000223A252E37667D005D7D0000B7A2CBCD98
:10C41000CAFDBEDD3A25730041542B514953454EA8
:10C42000443D25640D0A0000004400403E00000029
:10C4300053454E44204F4B002354503330302C256D
:10C440006330252E31662C302E30300D0A0000006E
:10C450002DE9F04FFFB083460024814890F8B000EA
:10C4600010F0200F75D002A908197EA1FCF7A4F9DD
:10C47000204484B27A490868F9F76FF905460B46FB
:10C4800002A908192A467CA1FCF796F9204484B237
:10C4900073494868F9F761F905460B4602A908197E
:10C4A0002A4675A1FCF788F9204484B26C49886853
:10C4B000F9F753F905460B4602A908192A466EA159
:10C4C000FCF77AF9204484B2654991F8D600F9F76F
:10C4D000BCF80746F9F741F905460B4602A90819C9
:10C4E0002A4665A1FCF768F9204484B25C49D1F87A
:10C4F000DC00F9F732F905460E465949D1F8E0005B
:10C50000F9F72BF907460B4602A908193A465EA12E
:10C51000CDE90056FCF750F9204484B202A908196D
:10C520005FA1FCF749F9204484B2052202A95DA06D
:10C53000FAF778FA22465EA1614807F01CFA4FF438
:10C54000FA6160A0FBF78AFD20B901207FB0BDE849
:10C55000F08F11E0224602A9594807F0FCF94FF488
:10C560007A7159A0FBF77AFD08B90220EEE74FF483
:10C57000FA60FBF749FF71E0394908680021F9F7D3
:10C580004DF902D84FF02B0901E04FF02D09344945
:10C5900048680021F9F742F902D84FF02B0A01E070
:10C5A0004FF02D0A2E490868F9F7D7F84A46CDE929
:10C5B000000147A102A8FCF7FFF80446284A1168C9
:10C5C0005068F9F721F90BD225494868F9F7C5F801
:10C5D0005246CDE900013EA102A8FCF7EDF8044661
:10C5E0001F48008A10F4807F0CD01D490868F9F7B5
:10C5F000B4F84A46CDE9000135A102A8FCF7DCF801
:10C60000044610E01648008A10F4007F0BD014494D
:10C610004868F9F7A2F85246CDE900012CA102A81A
:10C62000FCF7CAF80446224621A1254807F0A3F9E1
:10C630004FF47A7006F02EFA052202A919A0FAF733
:10C64000F1F9224602A91E4807F085F94FF47A71E4
:10C650001DA0FBF703FD08B9022077E7002075E76E
:10C66000F4B000207B2273656E736F724461746155
:10C6700073223A5B000000007B2276616C756522B4
:10C680003A252E32667D2C007B226C6174223A257D
:10C690002E37662C226C6E67223A252E37667D0077
:10C6A0005D7D0000B7A2CBCDCAFDBEDD3A2573008B
:10C6B00041542B514953454E443D25640D0A000019
:10C6C000004400403E00000053454E44204F4B00C4
:10C6D0002354503330302C256330252E31662C30D6
:10C6E0002E30300D0A0000002DE9F04FFFB08346D8
:10C6F00000248C4890F8B00010F0200F7CD002A9E4
:10C70000081989A1FCF758F8204484B285490868C3
:10C71000F9F723F805460B4602A908192A4687A10E
:10C72000FCF74AF8204484B27E494868F9F715F8C6
:10C7300005460B4602A908192A4680A1FCF73CF8D9
:10C74000204484B277498868F9F707F805460B4614
:10C7500002A908192A4679A1FCF72EF8204484B2D0
:10C76000704991F8D600F8F770FF0746F8F7F5FF23
:10C7700005460B4602A908192A4670A1FCF71CF8C9
:10C78000204484B26748008A10F4806F07D002A961
:10C7900008196EA1FCF710F8204484B206E002A943
:10C7A00008196EA1FCF708F8204484B25D49D1F85D
:10C7B000DC00F8F7D2FF05460E465A49D1F8E000F2
:10C7C000F8F7CBFF07460B4602A908193A4667A1BE
:10C7D000CDE90056FBF7F0FF204484B202A9081906
:10C7E00068A1FBF7E9FF204484B2052202A966A0F4
:10C7F000FAF718F9224600E01FE066A1694807F041
:10C80000BAF84FF4FA6168A0FBF728FC18B90120C8
:10C810007FB0BDE8F08F224602A9624807F09BF87E
:10C820004FF47A7161A0FBF719FC08B90220EFE719
:10C830004FF4FA60FBF7E8FD71E03A49086800211F
:10C84000F8F7ECFF02D84FF02B0901E04FF02D096B
:10C85000344948680021F8F7E1FF02D84FF02B0A6D
:10C8600001E04FF02D0A2F490868F8F776FF4A4695
:10C87000CDE900014FA102A8FBF79EFF0446294A1B
:10C8800011685068F8F7C0FF0BD226494868F8F7DE
:10C8900064FF5246CDE9000146A102A8FBF78CFFD8
:10C8A00004462048008A10F4807F0CD01D49086897
:10C8B000F8F753FF4A46CDE900013EA102A8FBF775
:10C8C0007BFF044610E01748008A10F4007F0BD06D
:10C8D00014494868F8F741FF5246CDE9000135A1F7
:10C8E00002A8FBF769FF044622462AA12D4807F05B
:10C8F00042F84FF47A7006F0CDF8052202A922A082
:10C90000FAF790F8224602A9264807F024F84FF4D7
:10C910007A7126A0FBF7A2FB08B9022078E7002075
:10C9200076E70000F4B000207B2273656E736F72AF
:10C930004461746173223A5B000000007B227661DF
:10C940006C7565223A252E32667D2C007B2273772A
:10C95000697463686572223A317D2C007B2273779B
:10C96000697463686572223A307D2C007B226C61A9
:10C9700074223A252E37662C226C6E67223A252EB9
:10C9800037667D005D7D0000B7A2CBCDCAFDBEDD60
:10C990003A25730041542B514953454E443D25647B
:10C9A0000D0A0000004400403E00000053454E4484
:10C9B000204F4B002354503330302C256330252E2C
:10C9C00031662C302E30300D0A0000002DE9F04F7A
:10C9D000FFB083460024814890F8B00010F0200F8B
:10C9E00075D002A908197EA1FBF7E6FE204484B2A7
:10C9F0007A490868F8F7B1FE05460B4602A90819FE
:10CA00002A467CA1FBF7D8FE204484B273494868CB
:10CA1000F8F7A3FE05460B4602A908192A4675A198
:10CA2000FBF7CAFE204484B26C498868F8F795FE8B
:10CA300005460B4602A908192A4673A1FBF7BCFE5E
:10CA4000204484B2654991F8D600F8F7FEFD074608
:10CA5000F8F783FE05460B4602A908192A466AA183
:10CA6000FBF7AAFE204484B25C49D1F8DC00F8F759
:10CA700074FE05460E465949D1F8E000F8F76DFE00
:10CA800007460B4602A908193A4663A1CDE90056AC
:10CA9000FBF792FE204484B202A9081964A1FBF7B7
:10CAA0008BFE204484B2052202A962A0F9F7BAFFE6
:10CAB000224663A1664806F05EFF4FF4FA6165A066
:10CAC000FBF7CCFA20B901207FB0BDE8F08F11E070
:10CAD000224602A95E4806F03EFF4FF47A715EA03E
:10CAE000FBF7BCFA08B90220EEE74FF4FA60FBF757
:10CAF0008BFC71E0394908680021F8F78FFE02D8F5
:10CB00004FF02B0901E04FF02D093449486800210E
:10CB1000F8F784FE02D84FF02B0A01E04FF02D0AFF
:10CB20002E490868F8F719FE4A46CDE900014CA1E4
:10CB300002A8FBF741FE0446284A11685068F8F73E
:10CB400063FE0BD225494868F8F707FE5246CDE947
:10CB5000000143A102A8FBF72FFE04461F48008AEC
:10CB600010F4807F0CD01D490868F8F7F6FD4A469E
:10CB7000CDE900013AA102A8FBF71EFE044610E031
:10CB80001648008A10F4007F0BD014494868F8F763
:10CB9000E4FD5246CDE9000131A102A8FBF70CFEED
:10CBA0000446224626A12A4806F0E5FE4FF47A7094
:10CBB00005F070FF052202A91EA0F9F733FF2246F7
:10CBC00002A9234806F0C7FE4FF47A7122A0FBF7B2
:10CBD00045FA08B9022077E7002075E7F4B0002095
:10CBE0007B2273656E736F724461746173223A5B6A
:10CBF000000000007B227377697463686572223AD3
:10CC0000252E30667D2C00007B2276616C756522B6
:10CC10003A252E32667D2C007B226C6174223A25E7
:10CC20002E37662C226C6E67223A252E37667D00E1
:10CC30005D7D0000B7A2CBCDCAFDBEDD3A257300F5
:10CC400041542B514953454E443D25640D0A000083
:10CC5000004400403E00000053454E44204F4B002E
:10CC60002354503330302C256330252E31662C3040
:10CC70002E30300D0A0000002DE9F04FEDB0834654
:10CC80004FF0000A574890F8B00010F0200F7DD008
:10CC9000544991F8D600F8F7D8FC0590F8F75DFDF7
:10CCA00004460D46DBF81000F8F757FD06460F4620
:10CCB000DBF80C00F8F751FD80468946DBF80800E8
:10CCC000F8F74BFDCDE90089CDE90267CDE90445D0
:10CCD000CDE9060108A901EB0A0043A1DDE906231D
:10CCE000FBF76AFD50441FFA80FA4FF0000A00215A
:10CCF0003C4880F8601021A901EB0A00394A513202
:10CD00003EA1FBF759FD50441FFA80FA21A901EB1F
:10CD10000A0043A1FBF750FD50441FFA80FA21A9F5
:10CD200001EB0A002F4A89324AA1FBF745FD504426
:10CD30001FFA80FA08A8FBF7B3FD841C21A901EBB8
:10CD40000A00224646A1FBF737FD50441FFA80FA3D
:10CD500021A901EB0A0047A1FBF72EFD50441FFA61
:10CD600080FA21A901EB0A0048A1FBF725FD5044F8
:10CD70001FFA80FA21A901EB0A0008AA4AA1FBF7D1
:10CD80001BFD50441FFA80FA052200E027E021A98C
:10CD900047A0F9F747FE524648A14C4806F0EBFD84
:10CDA0004FF4FA614AA0FBF759F918B901206DB0A8
:10CDB000BDE8F08F524621A9444806F0CCFD4FF45F
:10CDC0007A7144A0FBF74AF908B90220EFE741F273
:10CDD000707142A0FBF742F908B90320E7E7002091
:10CDE000E5E70000F4B00020252E31662C252E3119
:10CDF000662C252E31662C252E306600504F53545C
:10CE0000202F7068702F6170692E7068703F6964A0
:10CE10003D257320485454502F312E310A00000014
:10CE2000436F6E74656E742D547970653A2061702D
:10CE3000706C69636174696F6E2F782D7777772DC9
:10CE4000666F726D2D75726C656E636F6465640AD2
:10CE500000000000486F73743A2025730A00000038
:10CE6000436F6E74656E742D4C656E6774683A20FE
:10CE700025640A004578706563743A203130302D9E
:10CE8000636F6E74696E75650A000000436F6E6EA5
:10CE9000656374696F6E3A204B6565702D416C69EE
:10CEA00076650D0A0D0A000025730D0A00000000CA
:10CEB000B7A2CBCDCAFDBEDD3A25730041542B513C
:10CEC0004953454E443D25640D0A0000004400408E
:10CED0003E00000053454E44204F4B004F4B000096
:10CEE00030B5B3B00025002400BF304890F8B00042
:10CEF00010F0200F54D024B92DA101A802F0F4F8AD
:10CF00000546012C04D12CA101A802F0EDF805463C
:10CF1000022C04D12CA101A802F0E6F80546032C4E
:10CF200004D12CA101A802F0DFF80546042C04D19D
:10CF30002BA101A802F0D8F80546632C04D12BA13F
:10CF400001A802F031F90546052201A92AA0F9F746
:10CF500069FD2A462AA12E4806F00DFD4FF4FA611C
:10CF60002CA0FBF77BF810B9012033B030BD2A4666
:10CF700001A9274806F0EFFC4FF47A7126A0FBF7D1
:10CF80006DF808B90220F0E74FF4FA60FBF77CFA7D
:10CF900008B90020E9E701F077FF04461CB1A4E7D7
:10CFA000FFF708F9E1E70020DFE70000F4B0002018
:10CFB0006564697400000000616C61726D5F6D6F83
:10CFC00062696C6500000000616C61726D5F766182
:10CFD0006C756500757365725F67726F75700000C0
:10CFE000666F727363656E65000000002265646998
:10CFF00074223A2230220000B7A2CBCD3A2573002A
:10D0000041542B514953454E443D25640D0A0000BF
:10D01000004400403E00000053454E44204F4B006A
:10D020002DE9F047ADF5007D05460024CB4890F88A
:10D03000B00010F0200F7CD003A90819C8A1FBF79D
:10D04000BBFB204484B2C54991F8D600F8F7FDFA3D
:10D050008246F8F782FB07460B4603A908193A46B1
:10D06000C4A1FBF7A9FB204484B2A91CC54A52F80D
:10D070002100F8F772FB07460B4603A908193A4648
:10D08000BCA1FBF799FB204484B2E91CBD4A52F8CD
:10D090002100F8F762FB07460B4603A908193A4638
:10D0A000B4A1FBF789FB204484B2291DB54A52F88C
:10D0B0002100F8F752FB07460B4603A908193A4628
:10D0C000ACA1FBF779FB204484B2691DAD4A52F84C
:10D0D0002100F8F742FB07460B4603A908193A4618
:10D0E000A4A1FBF769FB204484B2A91DA54A52F80C
:10D0F0002100F8F732FB07460B4603A908193A4608
:10D100009CA1FBF759FB204484B2E91D9D4A52F8CB
:10D110002100F8F722FB07460B4603A908193A46F7
:10D1200094A1FBF749FB204484B205F10801954A1C
:10D1300000E0A1E052F82100F8F70FFB07460B468C
:10D1400003A908193A468BA1FBF736FB204484B2A9
:10D1500005F109018B4A52F82100F8F7FEFA07465B
:10D160000B4603A908193A4682A1FBF725FB204488
:10D1700084B205F10A01834A52F82100F8F7EDFA6A
:10D1800007460B4603A908193A467AA1FBF714FB98
:10D19000204484B205F10B017A4A52F82100F8F7D5
:10D1A000DCFA07460B4603A908193A4671A1FBF7BA
:10D1B00003FB204484B205F10C01724A52F82100AD
:10D1C000F8F7CBFA07460B4603A908193A4669A1B6
:10D1D000FBF7F2FA204484B205F10D01694A52F8D6
:10D1E0002100F8F7BAFA07460B4603A908193A4690
:10D1F00060A1FBF7E1FA204484B205F10E01614A17
:10D2000052F82100F8F7A9FA07460B4603A90819B6
:10D210003A465DA1FBF7D0FA204484B203A908196D
:10D220005DA1FBF7C9FA204484B2052203A95BA0E3
:10D23000F9F7F8FB22465CA15F4806F09CFB4FF42F
:10D24000FA615EA0FAF70AFF20B901200DF5007D12
:10D25000BDE8F087224603A9574806F07CFB4FF44F
:10D260007A7157A0FAF7FAFE08B90220EEE74FF4F8
:10D27000FA60FBF7C9F86FE0384908680021F8F751
:10D28000CDFA01D82B2600E02D263449486800212C
:10D29000F8F7C4FA02D84FF02B0901E04FF02D093E
:10D2A0002E490868F8F759FA3246CDE9000146A13F
:10D2B00003A8FBF781FA0446284A11685068F8F77A
:10D2C000A3FA0BD225494868F8F747FA4A46CDE950
:10D2D00000013DA103A8FBF76FFA04461F48008A2E
:10D2E00010F4807F0CD01D490868F8F736FA3246F2
:10D2F000CDE9000134A103A8FBF75EFA044610E073
:10D300001648008A10F4007F0BD014494868F8F7DB
:10D3100024FA4A46CDE900012BA103A8FBF74CFAF9
:10D320000446224620A1244806F025FB4FF47A70DB
:10D3300005F0B0FB052203A918A0F9F773FB2246FC
:10D3400003A91D4806F007FB4FF47A711CA0FAF7F9
:10D3500085FE08B9022079E7002077E7F4B00020C5
:10D360007B2273656E736F724461746173223A5BE2
:10D37000000000007B2276616C7565223A252E3212
:10D38000667D2C0030B200207B2276616C756522B0
:10D390003A252E32667D00005D7D0000B7A2CBCD20
:10D3A000CAFDBEDD3A25730041542B514953454E09
:10D3B000443D25640D0A0000004400403E0000008A
:10D3C00053454E44204F4B002354503330302C25CE
:10D3D0006330252E31662C302E30300D0A000000CF
:10D3E00070B5EAB006460024002500BF022C02DD1D
:10D3F00028466AB070BD2146621CD4B201EB4102DE
:10D4000002EBC1021F4950180B2265A9F8F774FD01
:10D4100000208DF89F0165A8F8F72EFE00B9E5E71A
:10D420000120FEF769FD01A965A8FAF71FFC00209D
:10D430008DF8300001AA14A1174806F09CFA0522C5
:10D4400065A916A0F9F7EEFA4FF47A7005F022FB01
:10D4500001A93046FAF70AFC3046FBF721FA01A988
:10D46000002201F820200C4806F085FA1A210A480B
:10D4700006F068FA4FF47A710BA0FAF7EFFD681C1A
:10D48000C5B2B3E724B1002041542B434D47533D6F
:10D49000222573220D0A000000440040B7A2CBCD24
:10D4A000B5BD5B25735D0000434D47530000000090
:10D4B0002DE9F043CDB0012256A102A8FBF77CF97B
:10D4C00002A8FEF7A3FD04465649486856A101F09C
:10D4D00024FC8146002202A94846FAF749FA02A92B
:10D4E00002A801F081FB0F2C06DA05214FA0F9F705
:10D4F00099FA4DB0BDE8F083052202A94EA0F9F7D4
:10D5000091FA02A8FBF7CCF90B2806DAFDF7BAFD71
:10D5100005214BA0F9F786FAEBE74EA1484601F04A
:10D52000FCFB8146002202A94846FAF721FA02A92B
:10D5300002A801F059FB052202A94BA0F9F772FAE3
:10D540004BA102A801F0E9FBC0B1FDF79BFD4949E1
:10D550004868F8F702F905460E4646490868F8F7A4
:10D56000FCF807463A460B4643A102A8CDE900560F
:10D57000FBF722F902A8FFF733FFBAE743A102A89D
:10D5800001F0CBFB18B1FDF77DFDFDF767FD40A174
:10D5900002A801F0C2FB70B1FDF774FD3DA227A106
:10D5A00002A8FBF709F9C4B2002002A9085502A895
:10D5B000FFF716FF9DE73CA102A801F0AEFB70B19A
:10D5C000FDF760FD39A21DA102A8FBF7F5F8C4B272
:10D5D000002002A9085502A8FFF702FF89E738A139
:10D5E00002A801F09AFB70B1FDF74CFD35A213A122
:10D5F00002A8FBF7E1F8C4B2002002A9085502A86E
:10D60000FFF7EEFE75E7FDF73DFD33A0FFF7E8FEFF
:10D6100000BF6EE741542B434D47523D25640D0A30
:10D6200000000000F0000020222C2200DFE3D3D015
:10D63000D0C2CFFBCFA200004E756D3A257300001B
:10D64000B2BBCAC7C8CBB7A2B5C4D6B1BDD3C9BED9
:10D650000000000030303433303034443030343463
:10D6600030303341000000004D73673A25730000ED
:10D6700030310000F4B000204348313D252E3266A1
:10D680002C4348323D252E32660000003032000027
:10D6900030330000D4DDB2BBD6A7B3D65B30335DE8
:10D6A000D6B8C1EE0000000030340000D4DDB2BBBB
:10D6B000D6A7B3D65B30345DD6B8C1EE000000000B
:10D6C00030350000D4DDB2BBD6A7B3D65B30355DB4
:10D6D000D6B8C1EE00000000434D443A303128D2A4
:10D6E000A3B2E2292C434D443A303228D6D8C6F4AE
:10D6F000292CC6E4CBFB3AB0EFD6FA000146002055
:10D70000034A506820F440400843506070470000CE
:10D710000010024029B1064A52690243044B5A6183
:10D7200004E0034A52698243014B5A61704700008A
:10D730000010024029B1064AD2690243044BDA6163
:10D7400004E0034AD2698243014BDA61704700006A
:10D750000010024029B1064A92690243044B9A61C3
:10D7600004E0034A92698243014B9A6170470000CA
:10D770000010024029B1064AD2680243044BDA6025
:10D7800004E0034AD2688243014BDA60704700002C
:10D790000010024030B500210022002400232D4D4E
:10D7A0006D6805F00C0121B1042905D0082923D1A9
:10D7B00005E0294D056022E0274D05601FE0254D5D
:10D7C0006D6805F47012234D6D6805F480340225F0
:10D7D00005EB92421CB9214D554305600BE01D4DF0
:10D7E0006D6815F4003F03D01C4D5543056002E001
:10D7F000194D5543056002E0174D056000BF00BF9D
:10D80000144D6D6805F0F0010909154D6B5C056854
:10D81000DD4045600F4D6D6805F4E061090A104D6B
:10D820006B5C4568DD4085600A4D6D6805F46051AC
:10D83000C90A0B4D6B5C4568DD40C560054D6D68E0
:10D8400005F44041890B074D6B5CC568B5FBF3F5EA
:10D85000056130BD0010024000127A0000093D0051
:10D86000000000201000002000B599B040F2DC5309
:10D8700007A20BA16846FAF7CBF9052269460FA06B
:10D88000F9F7D0F86846FAF745FD19B000BD000079
:10D890006C696E6B2E746C696E6B2E696F00000084
:10D8A00041542B51494F50454E3D22544350222C58
:10D8B000222573222C25640D0A000000C1ACBDD3C3
:10D8C000B5BD3A257300000010B59AB0002401A937
:10D8D000081915A1FAF770FF204484B2052201A9A6
:10D8E00016A0F9F79FF8224617A11B4806F043F847
:10D8F0004FF4FA6119A0FAF7B1FB10B901201AB080
:10D9000010BD224601A9144806F025F84FF47A719B
:10D9100013A0FAF7A3FB08B90220F0E74FF4FA606E
:10D92000FAF772FD0020EAE7313233343536373802
:10D93000393132333435414200000000B7A2CBCD3B
:10D94000CDB73A257300000041542B514953454E41
:10D95000443D25640D0A0000004400403E000000E4
:10D9600053454E44204F4B0030B5D7B0002500BF83
:10D9700000240CA9081973A1FAF71EFF204484B2F1
:10D980000CA9081970A1FAF717FF204484B20CA95A
:10D99000081971A1FAF710FF204484B20CA90819E4
:10D9A00071A1FAF709FF204484B2E9B202A8FAF79C
:10D9B000E7FD0CA9081902AA6FA1FAF7FDFE2044A1
:10D9C00084B20CA9081971A1FAF7F6FE204484B2BA
:10D9D00000200CA9009008190423032271A1FAF772
:10D9E000EBFE204484B20CA9081975A1FAF7E4FEF5
:10D9F000204484B20CA9081977A1FAF7DDFE20446F
:10DA000084B207A8FBF708F80CA9081907AA78A19F
:10DA1000FAF7D2FE204484B20CA908197CA280A196
:10DA2000FAF7CAFE204484B205220CA981A0F8F7B7
:10DA3000F9FF224682A1864805F09DFF4FF4FA6166
:10DA400084A0FAF70BFB10B9012057B030BD224675
:10DA50000CA97F4805F07FFF4FF47A717EA0FAF79A
:10DA6000FDFA08B90220F0E74FF4FA60FAF7CCFCAF
:10DA70007B484068007830281AD17948406840785F
:10DA8000312815D10522294676A0F8F7CBFF681C6E
:10DA900085B20522294678A0F8F7C4FF3C2D06DDA3
:10DAA0000522294679A0F8F7BDFFE8B2CDE75FE788
:10DAB000052229467BA0F8F7B5FF01217E4880F8B2
:10DAC000B41040F2DC51A0F8AA107C4981617C4975
:10DAD000C1617A4901627A4941623C2180F8B510FE
:10DAE000052180F8B610D0F8B00040F4A461724867
:10DAF000C0F8B01000F1890172A001F0DBF86E49A6
:10DB0000613174A001F0D6F80B226B49303173A05B
:10DB1000F8F7F2F96849753173A001F0CBF80021EC
:10DB20006548C0F8BC10C0F8C010102200F15101C7
:10DB300002A8F8F7E1F904F0B1F901F0F7FC0020D0
:10DB400083E700007B000000226D6574686F64222B
:10DB50003A2231222C00000022656E745F6B6579D9
:10DB6000223A223335222C00226465766963655F90
:10DB70006964223A22222C00226465766963655F1B
:10DB80006E6F223A222573222C00000022646576F3
:10DB90006963655F6E616D65223A22CEC2CAAAB61C
:10DBA000C8222C002268775F76657273696F6E22D7
:10DBB0003A2225642E25642E2564222C00000000C4
:10DBC0002273775F76657273696F6E223A22362E02
:10DBD0003330222C00000000226465765F6D6F6494
:10DBE00065223A22545035303056322D47222C00CF
:10DBF000226372656174655F64617465223A2225EF
:10DC0000732032313A32333A3238222C000000008D
:10DC100053544D33324631303352425436000000B3
:10DC2000226D63755F6D6F6465223A222573227DD4
:10DC300000000000B7A2CBCDC4DAC8DD2573000018
:10DC400041542B514953454E443D25640D0A000073
:10DC5000004400403E00000053454E44204F4B001E
:10DC6000F0000020C9E8B1B8D2D1BEADD7A2B2E170
:10DC70005B25645D00000000D4D9B4CEB3A2CAD441
:10DC8000D7A2B2E15B25645D00000000B7FECEF1D3
:10DC9000C6F7CAFDBEDDBFE2B4EDCEF35B25645D21
:10DCA00000000000C9E8B1B8D7A2B2E1B3C9B9A673
:10DCB0005B25645D00000000F4B000200000844299
:10DCC000000080BF6C696E6B2E746C696E6B2E6980
:10DCD0006F000000CDD8C6D5C8F000003133323611
:10DCE0003732313632343700CEC2CAAAB6C8000045
:10DCF00070B5D6B0002500240BA908199CA1FAF72D
:10DD00005BFD204484B20BA908199AA1FAF754FDCF
:10DD1000204484B20BA908199AA1FAF74DFD2044BA
:10DD200084B20BA908199BA1FAF746FD204484B2DE
:10DD3000102201A99B48F8F7DFF800208DF81400A5
:10DD4000102299A19C4805F016FE4FF4FA619BA0A1
:10DD5000FAF784F910B9012056B070BD102201A95C
:10DD6000954805F0F8FD4FF47A7195A0FAF776F929
:10DD700008B90220F0E70BA9081901AA92A1FAF745
:10DD80001BFD204484B20BA9081994A1FAF714FDD5
:10DD9000204484B200200BA9009008190423032218
:10DDA00094A1FAF709FD204484B20BA9081998A19F
:10DDB000FAF702FD204484B20BA908199AA1FAF7D8
:10DDC000FBFC204484B206A8FAF726FE0BA908192A
:10DDD00006AA9BA1FAF7F0FC204484B20BA908190B
:10DDE0009FA2A3A1FAF7E8FC204484B205220BA964
:10DDF000A4A0F8F717FE22466BA16F4805F0BBFD03
:10DE00004FF4FA616DA0FAF729F908B90120A3E7E8
:10DE100022460BA9684805F09EFD4FF47A7168A070
:10DE2000FAF71CF908B9022096E76420FAF7ECFA31
:10DE300098484068007830280BD196484068407870
:10DE4000312806D10522294693A0F8F7EBFDE8B268
:10DE500082E7052195A0F8F7E5FD52485138B0F862
:10DE6000B00010F4807F05D1052194A0F8F7DAFD09
:10DE7000002071E787490122486806A9F9F7C9FD22
:10DE800006A8FAF7ABFC0646F7F71BFC84B2B4F51C
:10DE9000FC6F03DB40F63400844201DD00205BE7C9
:10DEA000A4F5FA603F49513981F8CC007949022242
:10DEB000486806A9F9F7ADFD06A8FAF78FFC0646F3
:10DEC000F7F7FFFBC1B23748513880F8CD107149E0
:10DED0000322486806A9F9F79CFD06A8FAF77EFC1C
:10DEE0000646F7F7EEFBC1B22E48513880F8CE1047
:10DEF00068490422486806A9F9F78BFD06A8FAF7D5
:10DF00006DFC0646F7F7DDFBC1B22648513880F8B4
:10DF1000D01060490522486806A9F9F77AFD06A8DD
:10DF2000FAF75CFC0646F7F7CCFBC1B21D48513846
:10DF300080F8D11057490622486806A9F9F769FD0B
:10DF400006A8FAF74BFC0646F7F7BBFBC1B215482B
:10DF5000513880F8D21090F8D21005225BA0F8F763
:10DF600061FD10487B30FCF7F6FF0020F4E600006E
:10DF70007B000000226D6574686F64223A223122B2
:10DF80002C00000022656E745F6B6579223A2233A3
:10DF900035222C00226465766963655F6964223AE4
:10DFA00022222C0045B1002041542B514953454EAB
:10DFB000443D25640D0A0000004400403E0000007E
:10DFC00053454E44204F4B00226465766963655F7C
:10DFD0006E6F223A222573222C000000226465769F
:10DFE0006963655F6E616D65223A22CEC2CAAAB6C8
:10DFF000C8222C002268775F76657273696F6E2283
:10E000003A2225642E25642E2564222C000000006F
:10E010002273775F76657273696F6E223A22362EAD
:10E020003330222C00000000226465765F6D6F643F
:10E0300065223A22545035303056322D47222C007A
:10E04000226372656174655F64617465223A22259A
:10E05000732032313A32333A3238222C0000000039
:10E0600053544D333246313033524254360000005F
:10E07000226D63755F6D6F6465223A222573227D80
:10E0800000000000B7A2CBCDC9E8B1B8D0C5CFA27F
:10E0900025730000F0000020C9E8B1B8D2D1BEADB0
:10E0A000D7A2B2E15B25645D00000000C9E8B1B809
:10E0B000B5C7BCC7B3C9B9A600000000D1A1D4F14F
:10E0C000B2BBB8FCD0C2CAB1BCE40000CAB1BCE467
:10E0D000B8FCD0C2CDEAB1CF7365633D25640000C2
:10E0E00021B1028842F04002028004E002884FF62B
:10E0F000BF731A400280704770B505460C4616463D
:10E1000010211048F9F733FF032000F05DF9C4F344
:10E11000074000F059F9C4F3072000F055F9E0B2C8
:10E1200000F052F904E0FF2000F04EF928706D1C59
:10E130003000A6F101018EB2F5D110210148F9F7A6
:10E1400018FF70BD000801402DE9F05F07460E463C
:10E1500014464FF00008C146C2460025AB4606F003
:10E16000FF0ACAF10000C5B22046E11704EB1151C5
:10E17000C1F30738E11704EB11510913A4EB013186
:10E1800001F0FF09BAF1000F20D1B8F1000F05D15D
:10E1900022463146384600F0C5F864E009E04FF405
:10E1A00080523146384600F0BDF806F5805607F536
:10E1B00080575FEA0800A8F1010101F0FF08EED1E5
:10E1C0004A463146384600F0ADF84CE0B8F1000F51
:10E1D00018D1A94510DDA9EB050000F0FF0B2A4678
:10E1E0003146384600F09EF82E442F445A463146B8
:10E1F000384600F097F836E022463146384600F0BF
:10E2000091F830E0601B84B22046E11704EB115115
:10E210004FEA2138E11704EB11510913A4EB013146
:10E2200001F0FF092A463146384600F07BF82E44BB
:10E230002F4409E04FF480523146384600F072F81E
:10E2400006F5805607F580575FEA0800A8F101013E
:10E2500001F0FF08EED1B9F1000F04D04A46314673
:10E26000384600F05FF8BDE8F09F000000B587B0C9
:10E2700001212420FFF76EFA01210803FFF76AFA53
:10E280002020ADF8040003208DF8060018208DF83A
:10E29000070001A92148F9F793FD4020ADF80400DB
:10E2A00001A91E48F9F78CFD8020ADF8040001A9F2
:10E2B0001A48F9F785FD1020ADF804008DF8070025
:10E2C00001A91648F9F77CFD10211448F9F751FE11
:10E2D0000020ADF808004FF48270ADF80A0000206D
:10E2E000ADF80C000220ADF80E000120ADF81000D2
:10E2F0004002ADF812003820ADF814000020ADF84F
:10E3000016000720ADF8180002A9054800F0AEF885
:10E3100001210348FFF7E4FE07B000BD00080140FB
:10E320000030014070B505460C46164600F080F8F6
:10E3300010211348F9F71BFE022000F045F8C4F342
:10E34000074000F041F8C4F3072000F03DF8E0B2C8
:10E3500000F03AF8B6F5805F01DD4FF4805603E037
:10E36000287800F031F86D1C3000A6F101018EB262
:10E37000F6D110210248F9F7FCFD00F041F870BD1C
:10E380000008014010B5044600F052F800F038F8DB
:10E3900010210C48F9F7EBFD202000F015F8C4F32C
:10E3A000074000F011F8C4F3072000F00DF8E0B2C8
:10E3B00000F00AF810210348F9F7DBFD00F020F81F
:10E3C00010BD00000008014010B5044600BF022146
:10E3D0000A4800F03DF80028F9D02146074800F02F
:10E3E00043F800BF0121054800F032F80028F9D0B9
:10E3F000024800F036F8C0B210BD00000030014005
:10E4000010B5002410210948F9F7B1FD0520FFF7E8
:10E41000DBFF00BFFF20FFF7D7FF044614F0010F1A
:10E42000F8D110210148F9F7A4FD10BD0008014002
:10E4300010B510210548F9F79AFD0620FFF7C4FF33
:10E4400010210248F9F795FD10BD000000080140B9
:10E450000246002013890B4201D0012000E0002079
:10E4600070470146888970478181704710B5002246
:10E47000028802F441520B884C8823438C88234342
:10E48000CC8823430C8923434C8923438C89234321
:10E49000CC8923431A430280838B4FF2FF742340BD
:10E4A00083830B8A038210BD7047000070B5044659
:10E4B0000D462B4622460249024800F017F870BD6F
:10E4C00000F803082B7B000810B5182004490880C9
:10E4D00000230A460349044800F008F810BD000074
:10E4E0000CB20020004C00082B7B00082DE9F047FF
:10E4F0008046894614461F4625462E463088001F12
:10E5000081B2201D04F040F87080328809EBC720EA
:10E510002946C047BDE8F087BAB0064637463846B8
:10E5200005F0B0F80120034605220146009004A83A
:10E53000FCF71BFF64E2FE4908683221F7F7E2FDB1
:10E54000002332221946384605F090F90546F8496D
:10E5500004AA08682946FCF79FFF0546ECB29DF81F
:10E560001E00002873D19DF81300352870D017DCE9
:10E5700006282FD005DC6CD2DFE800F0634E6C5427
:10E580005D710A2838D006DC072829D008282DD04C
:10E5900009285ED136E029284AD03428F9D193E001
:10E5A0004B287DD00EDC3C285FD006DC362878D0A6
:10E5B000392877D03A28ECD1D7E0472873D04828BB
:10E5C000E7D115E14C380528D5D2DFE800F071FE1F
:10E5D000FDFCFB0008A9D7A000F06CFB054690E10C
:10E5E00008A9D6A000F066FB05468AE108A9D5A0D7
:10E5F00000F060FB054684E108A9D5A000F05AFBB5
:10E6000005467EE1002004230322D7A1009008A83C
:10E61000F9F7FEFA0A2574E108A9D7A000F04AFB31
:10E6200005466EE108A9D6A000F044FB054668E166
:10E6300000F00CFC65E108A9D3A000F03BFB054607
:10E640005FE108A9D1A000F035FB054659E1C2E120
:10E6500065E050E108A8FAF705F8102551E108A98E
:10E66000CCA000F027FB05464BE1CE480022016814
:10E6700008A8F9F799FA0546CA4A516808AA501934
:10E680000022F9F791FA0544C64A916808AA501980
:10E690000022F9F789FA0544C3480278294603E0C5
:10E6A000FFE021E077E095E06D1C08A8425428E1E6
:10E6B0009F490968085DF8F791FA08A9BB48006806
:10E6C00000F0F8FA05461CE1994A1368621C995C4F
:10E6D000974A1268105DFBF7A7FF08A9B3480068C6
:10E6E00000F0E8FA05460CE191480068025DAD488B
:10E6F000183050F83210002208A8F9F755FA0546EC
:10E700008B4A1268135DA74A183202EBC3025168A4
:10E7100008AA50190022F9F747FA0544F1E08449A4
:10E720000A68611C5018F9F73BFA014680480068F6
:10E73000025D9C48183040F832107D490A68611D1E
:10E740005018F9F72DFA014679480068025D95489E
:10E75000183000EBC200416008A99448006800F03E
:10E76000A9FA054603F09AFBCBE071490968095DF7
:10E7700001EB410202EBC1028A49303150180B22F1
:10E7800008A9F7F7B9FB054600222846691C8DB297
:10E7900008A90A54B5E0664A1268125D02EB42030A
:10E7A00003EBC2037F4A30329918614A1368621C36
:10E7B00098180B22F7F7A0FB08A97C48006800F026
:10E7C00079FA03E094E02BE022E02FE0054603F025
:10E7D00065FB96E0102208A972485130F7F78CFBD0
:10E7E000054600222846691C8DB208A90A5488E013
:10E7F0004F490968081910226A495131F7F77CFB23
:10E80000054608A96948006800F054FA054678E012
:10E8100047490968081903F0EBF94FF6FF7570E0F6
:10E8200001F0E0FBFCF71AFC00256AE040480068B4
:10E83000005D5C4981F8CC003D480168601C095CC2
:10E84000584880F8CD103A480168A01C095C55482A
:10E8500080F8CE1036480168E01C095C514880F809
:10E86000D01033480168201D095C4E4880F8D11053
:10E870002F480168601D095C4A4880F8D2102C4876
:10E880000168A01D095C474880F8CF1008A94748D7
:10E89000006800F00FFA05464248CC30FCF75BFBFD
:10E8A0002FE023480068005D012802D002281CD117
:10E8B00012E01F4A1368A21C99181D4A1368621CB3
:10E8C000985CF7F737FB1A490A68611C505C08A985
:10E8D000F7F7B8FB054609E015490A68611C505C6A
:10E8E00008A9F7F7AFFB054600E000BF00BF08E04E
:10E8F0003046F8F727FD08A92DA000F0DBF9054602
:10E9000000BF00BFA5F57F40FF3879D001200090FF
:10E910000748006881780123052204A8FCF725FD3B
:10E9200008A80121CDE9010500912349012345E013
:10E93000F00000205620322E313000005620362EB6
:10E94000313200005452544F5320342E3000000016
:10E950004A756C2032302032303138202D2032314F
:10E960003A32333A32380000562025642E25642E80
:10E970002564206E000000005450353030563200BF
:10E980005254552D545000004E42000048656C6CA6
:10E990006F00000053544D333246313033524254ED
:10E9A00036000000F4B000203C0000208C00002065
:10E9B0004E756C6C00000000040100201A460868C7
:10E9C00004A9FCF7DDFC05460E482A4601680E48FE
:10E9D00004F0C1FF14E09DF81E00062810D09DF839
:10E9E0001E00052806D109480122016808A0F8F791
:10E9F00019F805E09DF81E10032206A0F8F712F89A
:10EA000099E500000401002000380140F0000020DA
:10EA1000257300002564000010B50024144890F808
:10EA2000B00010F0400F0CD04FF400711148F7F710
:10EA3000EFFF00210846F7F74DFCB0B9A01CC4B2A7
:10EA400013E04FF400710B48F7F794FFF7F7A8FDB8
:10EA500008B9601CC4B24FF480710648F7F78AFF0A
:10EA6000F7F79EFD08B9601CC4B2204610BD000037
:10EA7000F4B00020000C01400246002006E00B78B4
:10EA8000934200D17047431CD8B2491C0B78002B2D
:10EA9000F5D100BFF6E710B500F002F810BD000098
:10EAA0000CB50020019000903248006840F480309E
:10EAB0003049086000BF2F48006800F40030009023
:10EAC0000198401C0190009818B90198B0F5A06F0A
:10EAD000F1D12848006810F4003F02D001200090D6
:10EAE00001E0002000900098012842D122480068EF
:10EAF00040F01000204908600846006820F003003C
:10EB000008600846006840F0020008601948406844
:10EB1000184948600846406848600846406840F424
:10EB2000806048600846406820F47C1048600846D1
:10EB3000406840F4E81048600846006840F0807083
:10EB4000086000BF0B48006810F0007FFAD0094849
:10EB5000406820F00300074948600846406840F0DC
:10EB60000200486000BF0348406800F00C0008281D
:10EB7000F9D10CBD00100240002002401FB5044630
:10EB800001210520FEF7E6FD0120ADF80C0028204C
:10EB90008DF80F0003A91348F9F712F90021084670
:10EBA000F9F7EEF80120009000208DF8040008200D
:10EBB0008DF8050001208DF806006846F8F744FD41
:10EBC00006208DF8080002208DF809008DF80A0053
:10EBD00001208DF80B0002A8FCF716FD204600F07E
:10EBE000E5F81FBD000801402DE9F043ADF5017DBA
:10EBF00081460E46002400254846F9F751FE074697
:10EC000000BF20E009EB0500F9F764FD01A921F838
:10EC1000140001A830F814004FF6FF7101EA00203B
:10EC200001A921F81400A91C09EB0100F9F752FD14
:10EC300001A931F81410084301A921F81400601C3F
:10EC400084B2281D85B2BD42DCDB3846F91707EBDC
:10EC50009171C1F38F07002400251FE001A830F84F
:10EC60001500802807DA01A810F815202146601C3D
:10EC700084B2725410E001A931F81500F7F718F9C1
:10EC800080464FEA28222046611C8CB2325420462E
:10EC9000611C8CB206F80080681C85B2BD42DDDBC9
:10ECA00000222046611C8CB2325420460DF5017DB5
:10ECB000BDE8F08330B503460C46002019462246D5
:10ECC00005E011F8015B02F8015B451CA8B20D7864
:10ECD000002DF6D1157030BD2DE9F04106460D46E8
:10ECE0002C4637462846F9F7DBFD04443046F9F751
:10ECF000D7FD804618F1010001D1BDE8F08103E0A5
:10ED000017F8010B04F8010B5FEA0800A8F10108ED
:10ED1000F6D104F8010B00BFEFE710B50246087802
:10ED200088B10CE0002305E0C818407808B9104607
:10ED300010BD5B1CD05CCC5CA042F5D0521C10789E
:10ED40000028EFD1F4E71046F2E710B503F0B4FD68
:10ED500010BD000030B51249B1F1807F00D31DE035
:10ED600021F07F40401E4FF0E022506150170F22EB
:10ED7000002807DA13071D0E0A4B00F00F04241FAA
:10ED80001D5503E013071C0E074B1C5400BF002049
:10ED90004FF0E02290610720106100BF30BD0000FD
:10EDA0004019010018ED00E000E400E010B5044651
:10EDB00000214FF4FE70FEF7DDFC204600F001F864
:10EDC00010BD10B5044601210807FEF7B3FC012071
:10EDD000FCF7D6FC0120FCF793FC14B1FCF796FC81
:10EDE00003E002210120FCF7ABFC10BD10B5134875
:10EDF000006840F001001149086008464068104969
:10EE000008400E494860084600680E4908400B4912
:10EE100008600846006820F48020086008464068C2
:10EE200020F4FE0048604FF41F008860FFF733FEB7
:10EE30004FF000600449086010BD0000001002405F
:10EE40000000FFF8FFFFF6FE08ED00E010B500221D
:10EE50000121024801F0A2FA10BD000061EE000895
:10EE600010B5642003F016FEFCF7F8F810BD0000A2
:10EE700010B50A2003F00EFE00220121014801F026
:10EE80008DFA10BD9D1E0108F0B587B0764948681F
:10EE900076A1FFF742FF044684B1002202A9204672
:10EEA000F8F7B7FD02A8F9F799FC054600212846B6
:10EEB000F6F7B4FC04D2002007B0F0BD0020FBE759
:10EEC000694948686BA1FFF728FF044694B1002206
:10EED00002A92046F8F79DFD02A8F9F77FFC054638
:10EEE0004FF07E512846F6F78FFC01D10120E3E771
:10EEF0000020E1E75C49486860A1FFF70EFF044687
:10EF00001CB3002202A92046F8F783FD0B225F49BB
:10EF100002A8F6F7F1FF012202A92046F8F779FDD1
:10EF20000B225A490B3102A8F6F7E6FF022202A98A
:10EF30002046F8F76EFD0B225449163102A8F6F769
:10EF4000DBFF02F0ABFF0220B6E74749486850A15B
:10EF5000FFF7E3FE0446002C47D0002202A920461A
:10EF6000F8F7B5FC052202A94CA0F7F75BFD02A853
:10EF7000F9F734FC054645483038C561012202A93D
:10EF80002046F8F7A4FC052202A946A0F7F74AFD9F
:10EF900002A8F9F723FC05463C4830388561022277
:10EFA00002A92046F8F793FC052202A93BA0F7F737
:10EFB00039FD02A8F9F712FC05463448303845629D
:10EFC000032202A92046F8F782FC052202A935A0F7
:10EFD000F7F728FD02A8F9F701FC05462B48303861
:10EFE000056202F05BFF032066E71F4948682FA116
:10EFF000FFF793FE04468CB102A92046F8F74EFDB8
:10F00000052202A92CA0F7F70DFD2049313102A8F5
:10F01000FFF750FE02F042FF04204DE71249486816
:10F0200029A1FFF77AFE04468CB102A92046F8F721
:10F0300035FD052202A927A0F7F7F4FC1349453155
:10F0400002A8FFF737FE02F029FF632034E72846C5
:10F05000F6F783FB0646052032460B46009020A0BB
:10F06000F7F7E0FC002027E7F0000020666C6167FE
:10F07000000000006564697400000000616C61724A
:10F080006D5F6D6F62696C650000000024B1002047
:10F09000616C61726D5F76616C7565004D696E259E
:10F0A000730000004D617825730000007573657270
:10F0B0005F67726F75700000757365725F67726F5E
:10F0C00075703A2573000000666F727363656E6534
:10F0D00000000000666F727363656E653A25730009
:10F0E000C5E4D6C32566000070B586B005460E4659
:10F0F0000024281917A1F9F75FFB204484B22819CE
:10F1000015A1F9F759FB204484B2281916A1F9F783
:10F1100053FB204484B2102201A91748F6F7ECFEF5
:10F1200000208DF81400281901AA14A1F9F744FB56
:10F13000204484B22819324615A1F9F73DFB20443A
:10F1400084B2281917A1F9F737FB204484B220466E
:10F1500006B070BD7B000000226D6574686F64228C
:10F160003A2233222C00000022656E745F6B6579B1
:10F17000223A223335222C0045B1002022646576E4
:10F180006963655F6E6F223A222573222C000000AE
:10F190002271756572795F636F6C756D6E223A22AC
:10F1A000257322007D00000070B586B005460E462E
:10F1B0000024281917A1F9F7FFFA204484B228196E
:10F1C00015A1F9F7F9FA204484B2281916A1F9F724
:10F1D000F3FA204484B2102201A91748F6F78CFEF6
:10F1E00000208DF81400281901AA14A1F9F7E4FAF7
:10F1F000204484B22819324615A1F9F7DDFA2044DB
:10F2000084B2281913A1F9F7D7FA204484B2204612
:10F2100006B070BD7B000000226D6574686F6422CB
:10F220003A2234222C00000022656E745F6B6579EF
:10F23000223A223335222C0045B100202264657623
:10F240006963655F6E6F223A222573222C000000ED
:10F25000257300007D00000008B501461F2000EA6C
:10F26000E1208DF800003F2000EA61108DF80100D8
:10F2700001F01F008DF80200BDF8002010469DF837
:10F28000022040EA024008BD3EB504463348FBF781
:10F290002BFD01A8FBF728FD9DF809002044C0B212
:10F2A0008DF809009DF809003B280BDB9DF808004C
:10F2B000401CC0B28DF808009DF809003B38C0B270
:10F2C0008DF809009DF80800182802DB00208DF851
:10F2D00008009DF80A209DF809109DF808000723F2
:10F2E000FBF7EAFD062000901C48CC3890F8D2309D
:10F2F00090F8D12090F8D01019A0F7F793FB0620D2
:10F3000000909DF80A309DF809209DF8081019A07A
:10F31000F7F788FB0120F8F7E1F91B48F8F7CCFC78
:10F320001A48F8F7C9FC1A48F8F7C6FC1948F8F764
:10F33000C3FC1948F8F7C0FC4FF400711448F8F703
:10F3400018FE0648CC38B0F8B00010F4006F01D0B9
:10F35000F8F736FE0020FFF711FC3EBDC0B10020DB
:10F36000BDF8C8EBD0DDC3DF25642025642025640B
:10F3700000000000C4D6D6D3C9E8D6C32564202532
:10F38000642025640000000000080140000C0140DA
:10F3900000100140001401400018014000F088F8FE
:10F3A0000020414981F8D9004FF480513F48F8F7D7
:10F3B000E0FD04213D48F8F7DCFD73E03A4890F8A1
:10F3C000D900032856DC4FF47A7003F063FB042164
:10F3D0003648F8F7CEFD4FF480513448F8F7C9FDB0
:10F3E0003148007C10F0400F40D12F48008A10F4C3
:10F3F000807F17D02C48007C10F0030F12D004211E
:10F400002A48F8F7B4FD01212848F8F7B2FD0A2090
:10F4100003F040FB01212548F8F7A9FD042123480A
:10F42000F8F7A7FD2048008A10F4007F19D01E4885
:10F43000007C10F00C0F14D04FF480511B48F8F7EB
:10F4400096FD01211948F8F794FD0A2003F022FBEC
:10F4500001211648F8F78BFD4FF480511348F8F757
:10F4600088FD4FF47A7003F015FB1BE0642003F075
:10F4700011FB17E0642003F00DFB4FF480510B48A3
:10F48000F8F775FD04210948F8F773FD642003F0CF
:10F4900001FB04210548F8F76AFD4FF48051034849
:10F4A000F8F767FD8AE70000F4B00020000C014087
:10F4B00010B5F6F7A5FC18B9FF21174880F8B4106D
:10F4C0000220F7F785FB144991F8B400F7F786FBA3
:10F4D000FCF7BEF900201049086181F8D90081F8D5
:10F4E000DA000E48C1F8F00001460B48C0F8F810E9
:10F4F0000B49C0F8F410C0F8FC104FF40071094833
:10F50000F8F737FD02210848F8F733FD4FF4807112
:10F510000448F8F72EFD10BDF4B00020000048C3E9
:10F520000000484300100140000C014010B50121CB
:10F530001E48F8F71EFD04211C48F8F718FD4FF48B
:10F5400080511A48F8F713FD642003F0A3FA012153
:10F550001648F8F70CFD04211448F8F70AFD4FF49B
:10F5600080511248F8F705FD642003F093FA012159
:10F570000E48F8F7FEFC04210C48F8F7F8FC4FF4AD
:10F5800080510A48F8F7F3FC642003F083FA012164
:10F590000648F8F7ECFC04210448F8F7EAFC4FF4BD
:10F5A00080510248F8F7E5FC10BD0000000C014056
:10F5B00086B003F04DFB002509E005EB45006946E8
:10F5C000084402A901EBC5014860681CC5B2022DC0
:10F5D000F3DB022102A803F02DFA00257F4890F802
:10F5E000D900FF2819D116E02846FAF749F90A2070
:10F5F00003F050FA0020FBF767FD04465CB1607829
:10F60000012800D108E06078022801D1681CC5B249
:10F61000042D00DD0025E7E700BF704880F8D950D1
:10F62000DAE00A2003F036FA0020FBF74DFD04462D
:10F63000002CF5D0607801281DD1207806281AD139
:10F64000664890F8B00010F0800F02D002F0AEF9DA
:10F6500011E06248007C10F0400F06D05F4800695E
:10F6600020F040005D49086105E05C48006940F019
:10F6700040005A4908616078012825D12078042883
:10F6800022D1564890F8B00010F0800F08D05348AF
:10F69000D0F8B00020F080015048C0F8B01007E06A
:10F6A0004E48D0F8B00040F080014C48C0F8B0108F
:10F6B000F6F788FB0020494981F8DA0041F2E87149
:10F6C00004F080F902F0EAFB6078022814D1207877
:10F6D000062811D14148007C10F0400F06D03F4869
:10F6E000006920F040003D49086105E03B480069A1
:10F6F00040F0400039490861607804281FD1207823
:10F7000004281CD10020F7F7E9FF00231A46194608
:10F710001846FBF7D1FBF6F755FB3148F8F7CCFA62
:10F720003048F8F7C9FA3048F8F7C6FA2F48F8F722
:10F73000C3FA2F48F8F7C0FA0120FFF71FFA6078E4
:10F74000022849D12078042846D1F6F73BFB08204F
:10F75000224981F8D9003DE0204991F8D9100839B3
:10F76000C8B2FAF717FB0A2003F094F90020FBF760
:10F77000ABFC044674B36078022811D120780628C7
:10F780000ED1164890F8D900401C144981F8D900D0
:10F79000084690F8D9000C2802DD082081F8D9002D
:10F7A0006078022809D12078042806D1F6F70AFBF0
:10F7B00000200A4981F8D9000DE06078012809D1BC
:10F7C0002078062806D1F6F7FDFA0020034981F8D3
:10F7D000D90000E0C0E700BF23E70000F4B000203C
:10F7E00000080140000C01400010014000140140DD
:10F7F0000018014086B003F02BFA002509E005EB64
:10F8000045006946084402A901EBC5014860681C2F
:10F81000C5B2022DF3DB022102A803F00BF900258B
:10F82000774890F8D900FF2819D116E02846FAF752
:10F8300027F80A2003F02EF90020FBF745FC0446C8
:10F840005CB16078012800D108E06078022801D11D
:10F85000681CC5B2042D00DD0025E7E700BF68483D
:10F8600080F8D950CAE00A2003F014F90020FBF711
:10F870002BFC0446002CF5D0607801280DD12078AF
:10F8800006280AD15E4890F8B00010F0800F02D030
:10F8900002F08CF801E001F07DFF6078012825D1AD
:10F8A0002078042822D1564890F8B00010F0800F3C
:10F8B00008D05348D0F8B00020F080015048C0F87C
:10F8C000B01007E04E48D0F8B00040F080014C483E
:10F8D000C0F8B010F6F776FA0020494981F8DA004E
:10F8E00041F2E87104F06EF802F0D8FA607802286C
:10F8F00014D12078062811D14148007C10F0400F27
:10F9000006D03F48006920F040003D49086105E00D
:10F910003B48006940F0400039490861607804289C
:10F920001FD1207804281CD10020F7F7D7FE002330
:10F930001A4619461846FBF7BFFAF6F743FA31485C
:10F94000F8F7BAF93048F8F7B7F93048F8F7B4F9EA
:10F950002F48F8F7B1F92F48F8F7AEF90120FFF773
:10F960000DF96078022849D12078042846D1F6F7AD
:10F9700029FA0820224981F8D9003DE0204991F870
:10F98000D9100839C8B2FAF705FA0A2003F082F84C
:10F990000020FBF799FB044674B36078022811D16C
:10F9A000207806280ED1164890F8D900401C14493A
:10F9B00081F8D900084690F8D9000C2802DD08200B
:10F9C00081F8D9006078022809D12078042806D16E
:10F9D000F6F7F8F900200A4981F8D9000DE06078BF
:10F9E000012809D12078062806D1F6F7EBF9002086
:10F9F000034981F8D90000E0C0E700BF33E7000009
:10FA0000F4B0002000080140000C0140001001404B
:10FA100000140140001801403E48F6F781F83E48C6
:10FA20000068FBF7D9F9FEF7F7FF40F6B83003F0AE
:10FA300031F838480838FBF757F93649D039081FEC
:10FA4000F6F7FCFE3349D039081FF6F7F7FEF9F751
:10FA50000DF83049D43981F8DA005AE02D480838D9
:10FA6000FBF742F94FF4FA7003F014F82B49081F22
:10FA7000F6F7E4FE294A121F1168264AD43AD2F852
:10FA8000BC00F5F783FB2349D4390860234A121FD1
:10FA90005168204AD43AD2F8C000F5F777FB1D49E7
:10FAA000D439486001F040FD1A48D43890F8B000CD
:10FAB00010F0800F01D002F055F910211848F8F726
:10FAC0004DFA40B11348D438006940F480601149C0
:10FAD000D439086107E00F48D438006920F4806009
:10FAE0000C49D439086120210D48F8F737FA40B1A4
:10FAF0000848D438006940F400600649D4390861E8
:10FB000007E00448D438006920F400600149D43982
:10FB10000861A3E7C8B10020EC000020CC00002061
:10FB2000000C01403E48F5F7FBFF3E480068FBF73C
:10FB300053F9FEF771FF40F6B83002F0ABFF3848DA
:10FB40000838FBF7D1F83649D039081FF6F776FEAA
:10FB50003349D039081FF6F771FEF8F787FF3049AF
:10FB6000D43981F8DA005AE02D480838FBF7BCF8A0
:10FB70004FF4FA7002F08EFF2B49081FF6F70AF9CE
:10FB8000294A121F1168264AD43AD2F8BC00F5F768
:10FB900055FB2349D4390860234A121F5168204A73
:10FBA000D43AD2F8C000F5F749FB1D49D439486072
:10FBB00001F0BAFC1A48D43890F8B00010F0800F69
:10FBC00001D002F0CFF810211848F8F7C7F940B17A
:10FBD0001348D438006940F480601149D439086171
:10FBE00007E00F48D438006920F480600C49D4390C
:10FBF000086120210D48F8F7B1F940B10848D43820
:10FC0000006940F400600649D439086107E00448FF
:10FC1000D438006920F400600149D4390861A3E7B1
:10FC2000C8B10020EC000020D4000020000C0140EE
:10FC30004248F5F775FF42480068FBF7CDF8FEF73C
:10FC4000EBFE40F6B83002F025FF3C480838FBF7E1
:10FC50004BF83A49D039081FF6F7F0FD3749D0394B
:10FC6000081FF6F7EBFDF8F701FF3449D43981F8A6
:10FC7000DA0062E031480838FBF736F84FF4FA70E2
:10FC800002F008FF2F49081FFAF7BEFF2D49091F90
:10FC900008680021F5F7B8FD01D1012000E000203F
:10FCA0000446F5F7C9FC2549D43908602549091FE0
:10FCB00048680021F5F7A8FD01D1012000E00020EF
:10FCC0000446F5F7B9FC1D49D439486001F02CFC15
:10FCD0001A48D43890F8B00010F0800F01D002F02C
:10FCE00041F810211848F8F739F940B11348D438D1
:10FCF000006940F480601149D439086107E00F4879
:10FD0000D438006920F480600C49D439086120217E
:10FD10000D48F8F723F940B10848D438006940F499
:10FD200000600649D439086107E00448D438006906
:10FD300020F400600149D43908619BE7C8B1002074
:10FD4000EC000020DC000020000C01403048F5F7FA
:10FD5000E7FE30480068FBF73FF8FEF75DFE40F62F
:10FD6000B83002F097FE2A480838FAF7BDFF284954
:10FD7000D039081FF6F762FD2549D039081FF6F77C
:10FD80005DFDF8F773FE2249D43981F8DA003EE0D0
:10FD90001F480838FAF7A8FF4FF4FA7002F07AFE0D
:10FDA00001F0C2FB1A48D43890F8B00010F0800F70
:10FDB00001D001F0D7FF10211748F8F7CFF840B174
:10FDC0001348D438006940F480601149D43908617F
:10FDD00007E00F48D438006920F480600C49D4391A
:10FDE000086120210C48F8F7B9F840B10848D43828
:10FDF000006940F400600649D439086107E004480E
:10FE0000D438006920F400600149D4390861BFE7A3
:10FE1000C8B10020EC000020000C01408046B8F181
:10FE2000000F02D008F0FF0500E00A25E800FBF70C
:10FE30006BFA814605EB45018800FBF765FA8246BF
:10FE4000002608E006EB46000AEB800009EBC6013D
:10FE50004860701CC6B2AE42F4DB2946484602F048
:10FE6000E9FD154800781549087024E00A2002F0E1
:10FE700011FE02F0F7FE0746EFB17C6820790628F4
:10FE800018D2DFE800F01703060A0E122068804738
:10FE900010E0207A216888470CE02168A068884734
:10FEA00008E02168A068884704E0228990B22168B0
:10FEB000884700BF00BFD9E7440000206800002049
:10FEC00000242BE0164890F8D000A84208D014482F
:10FED00090F8D05090F8B700A04201DD601CC4B289
:10FEE0000F4890F8B700A04214DC0D4890F8B0001D
:10FEF00010F0800F0ED00A4890F8DA0050B101F0EF
:10FF000055FD00240020064981F8DA0041F2E8712D
:10FF100003F058FD4FF47A7002F0BCFDD2E7000008
:10FF2000F4B0002070B50546F5F76AFF002822D12D
:10FF3000052111A0F6F776FDFDF796FC044624B1E5
:10FF40000522214610A0F6F76DFD052112A0F6F757
:10FF500069FDFDF7B9FC044624B10522214611A034
:10FF6000F6F760FDFDF700FD044624B105222146A9
:10FF700011A0F6F757FD70BDCBC6BAF5CAC7B8F6E3
:10FF8000D0C2C9E8B1B80000C1ACBDD3B7FECEF154
:10FF9000C6F75B25645D0000C9E8B1B8D7A2B2E13D
:10FFA00000000000BDF8C8EBD7A2B2E1B4EDCEF37B
:10FFB0005B25645D00000000CEB4B3C9B9A6B3F5FB
:10FFC000CABCBBAFC9E8B1B85B25645D00000000E6
:10FFD00010B50446024802F05DFDFBF73FF810BD86
:10FFE00040771B0010B5F6F7E9FD002106A0F6F7F3
:10FFF00019FD0949002003F0FBFC002107A0F6F7DA
:020000040801F1
:1000000011FDF6F7D5FD10BDBFAACABCC7E5BFD527
:10001000BCC7C2BC0D0A0000E8FF1700C7E5B3FD6E
:10002000CDEAB1CF0D0A000001212E48F7F7A1FF5C
:10003000012002F02FFD01212A48F7F798FF4FF425
:1000400000712948F7F793FF642002F023FDF8F7C9
:1000500039FD4FF47A7002F01DFD42E0234890F81C
:10006000D900082823D006DC052835D2DFE800F0C7
:10007000101316191C000B2825D004DC09281AD0EF
:100080000A2829D11BE00C2821D0FF2824D122E006
:10009000F8F7D0FD20E0F9F7AFF91DE0F9F768FFB8
:1000A0001AE0F8F7D3FF17E0F9F736FC14E0002068
:1000B000F9F770FE10E00120F9F76CFE0CE0022069
:1000C000F9F768FE08E00320F9F764FE04E0042075
:1000D000F9F760FE00E000BF00BF4FF47A7002F055
:1000E000D9FCBBE7000C014000100140F4B0002037
:1000F0000EB502215148F7F73AFF9EE04FF47A73AC
:100100004FF4967200214E4803F0B0FB0446002CD9
:100110007ED000204B49896881F8320049498868BF
:1001200049A1F5F721F80028F2D04649886848A18E
:10013000F5F71AF8002876D04249886844A1F5F707
:1001400013F8814609F10200F8F748FB4149C1F86C
:10015000E0003C49886840A1F5F706F8814609F1BE
:100160000200F8F73BFB3B49C1F8DC0035498868E1
:100170003AA1F4F7F9FF40B13648D0F8E01000207A
:10018000F5F756F83349C1F8E0002E49886834A1E4
:10019000F4F7EAFF40B12F48D0F8E0100020F5F75F
:1001A00047F82C49C1F8E0002A48006940F0800077
:1001B00028490861D1F8DC00F5F7CFFA05460E466C
:1001C0002449D1F8E000F5F7C8FA074605203A4679
:1001D0000B46CDE90056029022A0F6F723FC1D49FC
:1001E000D1F8E000F5F7E0FD05462349F5F716FBE9
:1001F0001FD21849D1F8DC00F5F7D6FD05461E4997
:10020000F5F70CFB15D202210C48F7F7B2FE01E01E
:100210000FE008E04EF6602002F03CFC02210748A7
:10022000F7F7A5FE05E00B48006920F080000949BA
:10023000086140F6B83002F02DFC5FE7000C014089
:1002400000480040F0000020244750524D43000079
:1002500041000000F4B000204E00000057000000F4
:1002600053000000BEADCEB3B6C83A252E38662C7A
:10027000252E3766000000000000C84286B000242A
:100280003248B0F8B00010F4806F07D1052130A0DB
:10029000F6F7C8FB3248007802F02CFC25E004EBAE
:1002A0004401304A02EBC1001822694603F0D0FB3A
:1002B0000098401C00D119E0641C4FF6F070844295
:1002C00010D90522214628A0F6F7ACFB052129A06C
:1002D000F6F7A8FB05211EA0F6F7A4FB204800783E
:1002E00002F008FC012002F0D5FBD8E700BF41F284
:1002F000883002F0CFFB052221461BA0F6F792FBC7
:1003000023E0072201A91148CC30F5F7F5FD0C22B6
:1003100003A90E48F5F7F0FD04EB4400114901EB89
:10032000C0001830009004EB44000A4602EBC00104
:1003300018226846FDF708FF641C0522214611A01B
:10034000F6F770FB144802F0A5FBDAE7F4B00020E2
:10035000B9D8B1D5C0FACAB7BCC7C2BC000000004A
:10036000440000204C9D0C00BCC7C2BCCBF7D2FDA2
:1003700025640000C0FACAB7BCC7C2BCD2E7B3F656
:1003800000000000B4CBBFCCCAFDBEDDB1BBBCC712
:10039000C2BC256400000000E0930400FEB50646E0
:1003A0000C46154600968DF8044002956B460C22CB
:1003B00000210248007802F0C1FCFEBD6800002068
:1003C00008B54FF4FA6002F065FB46E00A2002F03F
:1003D00061FBF8F79BFB8DF8010000208DF802000F
:1003E0009DF80100002838D001211C48F7F7C1FD15
:1003F000042002F04FFB01211848F7F7B8FD0DE08B
:100400000A2002F047FB9DF80200401C40B28DF824
:1004100002009DF90200322800DD03E0F8F776FBC8
:100420000028EDD100BF9DF90200322803DD042031
:100430008DF8000002E006208DF800006B460322D4
:1004400001210748007802F079FC02E00A2002F05E
:1004500021FBF8F75BFB0028F8D1B7E7000C01405F
:10046000720000201CB50024EFA0006801904FF43A
:100470008061EE48F7F77BFD0221ED48F7F777FD45
:100480000420EC4981F8D9004FF47A7002F002FBA5
:100490004FF48061E548F7F76CFDC3E19DF8040077
:1004A000062801DD012001909DF8040008B9012013
:1004B0000190012201A9E04803F04DFA9DF80410D3
:1004C00001EB8101480002F0E5FA012201A9DA48B6
:1004D00003F041FA9DF804100522D8A0F6F7A2FA1D
:1004E0009DF80400F5F7B1F8D24948600846006964
:1004F00040F4007008610846006920F480700861CB
:1005000041F288334FF496720021CB4803F0AEF9E4
:10051000C5B2002D7ED0CD48C0680078002801DD2E
:10052000012000E00020C949C9680978062901DADC
:10053000012100E00021084240D0C449C968D1F837
:100540000100F5F70AF906460B4605200090BF4862
:10055000C06801783246BEA0F6F764FABB49C968A4
:10056000D1F80500F5F7F9F806460B46052000908E
:10057000B648C06801783246B9A0F6F753FAB348D6
:10058000C068D0F80100B149C96809784900B84A83
:1005900042F82100AD48C068D0F80510AB48C068EB
:1005A0000078012202EB4000B14A42F82010A7482F
:1005B000C068D0F801009F49086006E1A348C06800
:1005C000007806287ED1A149C968C878F5F768FC8B
:1005D0000746F5F73AF80646A649F4F72FFE9B4979
:1005E000C96809784900A24A42F821009749C968B8
:1005F0008878F5F755FC0746F5F727F8064693483F
:10060000C068007840009A4A52F820103046F4F74B
:10061000BDFD00E0F2E08D49C96809784900944ABF
:1006200042F821008949C9684878F5F739FC8046C5
:10063000F5F70BF807468F49F4F736FE0646834870
:10064000C068007840008A4A52F820103046F4F71B
:100650009DFD7E49C96809784900854A42F8210014
:100660007A49C9688879F5F71BFC0646F4F7EDFF6F
:100670007649C9680978012202EB41017C4A42F8B7
:1006800021007249C9684879F5F70AFC8046F4F7F9
:10069000DCFF07467749F4F707FE06466B48C0685B
:1006A0000078012202EB4000714A52F820103046D7
:1006B000F4F76CFD6549C9680978012202EB410134
:1006C0006B4A00E07DE042F821006049C968087A81
:1006D000F5F7E6FB0646F4F7B8FF5C49C968097808
:1006E000022202EB4101624A42F821005749C968DF
:1006F000C879F5F7D5FB8046F4F7A7FF07465D49B3
:10070000F4F7D2FD06465148C0680078022202EB99
:100710004000574A52F820103046F4F737FD4B4955
:10072000C9680978022202EB4101514A42F82100CE
:100730004649C9680978490052F82100F5F70DF8D3
:1007400006460B46002000904048C06801783246BB
:100750003FA0F6F767F93D49C9680978012202EB25
:100760004101434A52F82100F4F7F7FF06460B46D1
:10077000052000903548C0680178324638A0F6F769
:1007800051F93249C9680978022202EB4101384A1D
:1007900052F82100F4F7E1FF06460B4605200090D1
:1007A0002A48C068017832462DA0F6F73BF9274861
:1007B000C068007840002E4951F820001D490860AB
:1007C00003E005212CA0F6F72DF92049C968087827
:1007D000F4F73BFF1749486000240846006940F4DD
:1007E0008070086140F2DC5002F054F99DF804007A
:1007F000401CC0B20190F5F757FC0FE0601CC4B27A
:10080000052C0BDD9DF80400401CC0B201900024B3
:100810000848006920F48070064908614FF47A7036
:1008200002F038F93AE60000010000000010014033
:10083000000C0140F4B00020004C0040C7EBC7F3AF
:10084000B5D8D6B75B25645D00000000F00000203D
:100850005B25645DC1F7C1BF3A252E3266000000FA
:100860005B25645DCEC2B6C83A252E326600000014
:1008700030B200200000C842B4EDCEF3B5D8D6B7F0
:100880000000000010B5F5F7BBFA10BD96B00027C8
:1008900000260AE006EB860001A901EB800010A902
:1008A00001EBC6014860701CC6B2032EF2DB0321C7
:1008B00010A802F0BFF800BF4FF0000863207D4988
:1008C00081F8D600FBF72CFA0446C4B10522214674
:1008D00079A0F6F7A7F80020F7F74EFB754890F8D7
:1008E000C80030B101F090FA724991F8C800FEF7E3
:1008F000CBFC03E04FF47A7002F0CCF8FAE700206A
:10090000FFF710FB0120FBF7F7FA044624B105229C
:1009100021466EA0F6F786F8FBF76EF8044624B180
:10092000052221466DA0F6F77DF8FAF7BBFEFDF72C
:10093000DFF9FBF73BF85F4991F8B5006B4A4FF6DA
:10094000FF7101F099FE6A4A4FF6FF711C2001F019
:1009500093FE684A4FF6FF711C2001F08DFE664A37
:100960004FF6FF711C2001F087FE01F0B5FD40F647
:10097000B83002F08FF89CE0642002F0A9F9054637
:10098000002D76D0287830B1012839D002284BD0FC
:10099000032877D16EE0052158A0F6F743F84FF40D
:1009A0007A7002F077F8D5F804904846FBF750FDCE
:1009B00004463CB10522214654A0F6F733F8781CD2
:1009C000C7B21CE0052156A0F6F72CF80027B84660
:1009D00056484068007830280DD154484068407827
:1009E000302808D1334890F8C80020B1314991F837
:1009F000C800FEF749FC40F6B83002F04BF841E081
:100A0000FCF76EFA04463CB10522214648A0F6F7F1
:100A100009F8781CC7B206E005214AA0F6F702F8EB
:100A20004FF0000800272DE001F04AFA044654B1C7
:100A30000A2094FBF0F100FB114A052303225146E2
:100A400043A0F5F7EFFF1B48B0F8B00010F4805F4B
:100A50000ED000F03DFE044654B10A2094FBF0F1A4
:100A600000FB114A05230322514639A0F5F7DAFFAE
:100A700008E008E0FBF78EF80E4981F8D600FCF795
:100A800017FD00BF00BF642002F004F8002F0CDD4A
:100A90004FF4FA6001F0FEFFFAF7AEFF0027FAF715
:100AA00085FF08F1010000F0FF08B8F1030F00DD39
:100AB00002E761E7F4B00020D7A2B2E1CDF8C2E7C7
:100AC000CAA7B0DC5B25645D20000000B3F5CABC9A
:100AD000BBAFB6CCD0C55B25645D0000C1ACBDD357
:100AE000B7FECEF1C6F75B25645D0000D92401088E
:100AF000FD2401081D2501083D250108D7BCB1B81A
:100B0000B7A2CBCDCAFDBEDD00000000B7A2CBCDA1
:100B1000CAFDBEDDCAA7B0DC5B25645D0000000035
:100B2000B7A2CBCDCAFDBEDD4F4B0000F0000020C8
:100B3000B7A2CBCDD0C4CCF8CAA7B0DC5B25645D2E
:100B400000000000B7A2CBCDD0C4CCF84F4B0000C2
:100B5000B6CCD0C5B7A2B8F85B25645D2F5B256421
:100B60005DC8CB009AB0002700250AE005EB8500A0
:100B7000694601EB80000FA901EBC5014860681CC4
:100B8000C5B2032DF2DB03210FA801F053FF00BF14
:100B90004FF0000863204E4981F8D600FBF7C0F8FB
:100BA0000446C4B1052221464AA0F5F73BFF0020C8
:100BB000F7F7E2F9464890F8C80030B101F024F99F
:100BC000434991F8C800FEF75FFB03E04FF47A70E9
:100BD00001F060FFFAE70020FFF7A4F90120FBF71E
:100BE0008BF9044624B1052221463FA0F5F71AFFF0
:100BF000FAF758FD364991F8B5003F4A4FF6FF71B4
:100C000001F03AFD01F068FC40F6B83001F042FF17
:100C10005CE0642002F05CF80646002E42D030789A
:100C200000283ED1052135A0F5F7FCFE4FF47A707F
:100C300001F030FF00BFFAF7DFFE044624B10522C1
:100C4000214632A0F5F7EEFE072215A92048CC3048
:100C5000F5F752F90C2217A91D48F5F74DF915A81B
:100C6000FCF70AF804469CB1052221462BA0F5F7B3
:100C7000D9FE15A8FCF700F8044624B10522214648
:100C80002CA0F5F7CFFE022C0ADA781CC7B207E0D9
:100C900005212DA0F5F7C6FEF7F78CFA0027B84618
:100CA00000BF00BF642001F0F5FE002F0ADD4FF405
:100CB000FA6001F0EFFEFAF79FFE002708F101004D
:100CC00000F0FF08B8F1030F00DD61E7A1E70000C5
:100CD000F4B00020D7A2B2E1CDF8C2E7CAA7B0DCD9
:100CE0005B25645D20000000B3F5CABCBBAFB6CC89
:100CF000D0C55B25645D0000D9240108D7BCB1B81C
:100D0000B7A2CBCDCAFDBEDD00000000C1ACBDD393
:100D1000B7FECEF1C6F75B25645D0000B7A2CBCD70
:100D2000CAA7B0DC2CD6D8D0C2B7A2CBCD5B256485
:100D30005D000000B7A2CBCDCAFDBEDDCAA7B0DC06
:100D40005B25645D00000000B7A2CBCDCAFDBEDD0F
:100D50004F4B000088B0002700260AE006EB860013
:100D600001A901EB800006A901EBC6014860701CD7
:100D7000C6B2012EF2DB012106A801F05BFE00BF26
:100D80004FF000086320654981F8D600FAF7C8FFE4
:100D90000446C4B10522214661A0F5F743FE0020B8
:100DA000F7F7EAF85D4890F8C80030B101F02CF888
:100DB0005A4991F8C800FEF767FA03E04FF47A70D9
:100DC00001F068FEFAE70020FFF7ACF80120FBF71E
:100DD00093F8044624B10522214656A0F5F722FED9
:100DE000FAF70AFE044624B10522214655A0F5F77C
:100DF00019FEFAF757FCFCF77BFFFAF7D7FD4749D6
:100E000091F8B500534A4FF6FF7101F035FC524A94
:100E10004FF6FF711C2001F02FFC504A4FF6FF7176
:100E20003C2001F029FC4E4A4FF6FF71052001F0ED
:100E300023FC01F051FB70E0642001F049FF0546FE
:100E4000002D54D0287830B1012823D0022835D085
:100E500003284BD142E0D5F804904846FBF7B6FD95
:100E600004463CB1052221463EA0F5F7DBFD781C87
:100E7000C7B20EE0052140A0F5F7D4FD0027B84623
:100E8000264890F8C80020B1244991F8C800FEF720
:100E9000FBF92BE0FCF724F804463CB1052221467F
:100EA00038A0F5F7BFFD781CC7B206E005213AA0CF
:100EB000F5F7B8FD4FF00008002717E001F000F843
:100EC000044654B10A2094FBF0F100FB114A0523BB
:100ED0000322514633A0F5F7A5FD07E0FAF75AFEC5
:100EE0000E4981F8D600FCF7E3FA00BF00BF64208A
:100EF00001F0D0FD002F0CDD4FF4FA6001F0CAFDC7
:100F0000FAF77AFD0027FAF751FD08F1010000F029
:100F1000FF08B8F1030F00DD32E78DE7F4B00020E1
:100F2000D7A2B2E1CDF8C2E7CAA7B0DC5B25645D09
:100F300020000000B3F5CABCBBAFB6CCD0C55B2562
:100F4000645D0000C1ACBDD3B7FECEF1C6F75B2532
:100F5000645D0000D9240108FD2401081D25010855
:100F60003D250108B7A2CBCDCAFDBEDDCAA7B0DCC6
:100F70005B25645D00000000B7A2CBCDCAFDBEDDDD
:100F80004F4B0000B7A2CBCDD0C4CCF8CAA7B0DC81
:100F90005B25645D00000000B7A2CBCDD0C4CCF8C7
:100FA0004F4B0000B6CCD0C5B7A2B8F85B25645D46
:100FB0002F5B25645DC8CB0096B0002700250AE0B2
:100FC00005EB850001A901EB800010A901EBC5012B
:100FD0004860681CC5B2032DF2DB032110A801F0A4
:100FE00029FD00BF4FF0000863206D4981F8D6004D
:100FF000FAF796FE04464CB10522214669A0F5F7A2
:1010000011FD42F2107001F045FDEBE70020FEF704
:1010100089FF0120FAF770FF044624B1052221461A
:1010200065A0F5F7FFFCFAF73DFBFCF761FE5C49B4
:1010300091F8B500644A4FF6FF7101F01DFB634A59
:101040004FF6FF711C2001F017FB614A4FF6FF714C
:101050001C2001F011FB5F4A4FF6FF711C2001F0CC
:101060000BFB01F039FA40F6B83001F013FD95E0C2
:10107000642001F02DFE0646002E79D0307830B184
:10108000012847D0022859D0032870D167E00521F4
:1010900051A0F5F7C7FCFAF7AFFC044624B10522CE
:1010A000214651A0F5F7BEFCFAF780FC4FF47A70A8
:1010B00001F0F0FC00BF0020FBF7B2FF04466CB16A
:1010C000052221464CA0F5F7ADFC781CC7B242F2D0
:1010D000107001F0DFFCF9F7C1FF1AE005214BA009
:1010E000F5F7A0FC0027B8464B4840680078302848
:1010F0000DD1494840684078302808D1284890F8F8
:10110000C80020B1264991F8C800FEF7BDF8F7F7EE
:1011100051F82CE0FBF7E4FE04463CB105222146E1
:101120003EA0F5F77FFC781CC7B206E0052140A081
:10113000F5F778FC4FF00008002718E000F0C0FE3B
:10114000044654B10A2094FBF0F100FB1149052339
:101150000322494639A0F5F765FC08E008E0FAF7F4
:1011600019FD0F4981F8D600FCF7A2F900BF00BFB6
:10117000642001F08FFC002F0CDD4FF4FA6001F0C9
:1011800089FCFAF739FC0027FAF710FC08F1010096
:1011900000F0FF08B8F1030F00DD23E768E7000067
:1011A000F4B00020D7A2B2E1CDF8C2E7CAA7B0DC04
:1011B0005B25645D20000000B3F5CABCBBAFB6CCB4
:1011C000D0C55B25645D0000D9240108FD24010819
:1011D0001D2501083D250108D7BCB1B8B7A2CBCD6C
:1011E000CAFDBEDD00000000C1ACBDD3B7FECEF12C
:1011F000C6F75B25645D0000B7A2CBCDCAFDBEDD9E
:10120000CAA7B0DC5B25645D00000000B7A2CBCDAF
:10121000CAFDBEDD4F4B0000F0000020B7A2CBCDD1
:10122000D0C4CCF8CAA7B0DC5B25645D0000000028
:10123000B7A2CBCDD0C4CCF84F4B0000B6CCD0C5B4
:10124000B7A2B8F85B25645D2F5B25645DC8CB0051
:1012500096B0002700260AE006EB860001A901EB04
:10126000800010A901EBC6014860701CC6B2032EB5
:10127000F2DB032110A801F0DDFB00BF4FF00008F6
:1012800063207D4981F8D600FAF74AFD0446C4B1CF
:101290000522214679A0F5F7C5FB0020F6F76CFE84
:1012A000754890F8C80030B100F0AEFD724991F871
:1012B000C800FDF7E9FF03E04FF47A7001F0EAFBA4
:1012C000FAE70020FEF72EFE0120FAF715FE04468D
:1012D00024B1052221466EA0F5F7A4FBFAF78CFB9A
:1012E000044624B1052221466DA0F5F79BFBFAF7D1
:1012F000D9F9FCF7FDFCFAF759FB5F4991F8B50005
:101300006B4A4FF6FF7101F0B7F96A4A4FF6FF7169
:101310001C2001F0B1F9684A4FF6FF711C2001F062
:10132000ABF9664A4FF6FF711C2001F0A5F901F0F8
:10133000D3F840F6B83001F0ADFB9CE0642001F03A
:10134000C7FC0546002D76D0287830B1012839D069
:1013500002284BD0032877D16EE0052158A0F5F77D
:1013600061FB4FF47A7001F095FBD5F80490484684
:10137000FBF7BAF904463CB10522214654A0F5F723
:1013800051FB781CC7B21CE0052156A0F5F74AFBBB
:101390000027B84656484068007830280DD1544898
:1013A00040684078302808D1334890F8C80020B110
:1013B000314991F8C800FDF767FF40F6B83001F0F9
:1013C00069FB41E0FBF78CFD04463CB10522214658
:1013D00048A0F5F727FB781CC7B206E005214AA014
:1013E000F5F720FB4FF0000800272DE000F068FD26
:1013F000044654B10A2094FBF0F100FB114A052386
:101400000322514643A0F5F70DFB1B48B0F8B0008E
:1014100010F4805F0ED000F05BF9044654B10A204E
:1014200094FBF0F100FB114A05230322514639A039
:10143000F5F7F8FA08E008E0FAF7ACFB0E4981F896
:10144000D600FCF735F800BF00BF642001F022FB96
:10145000002F0CDD4FF4FA6001F01CFBFAF7CCFA18
:101460000027FAF7A3FA08F1010000F0FF08B8F12D
:10147000030F00DD02E761E7F4B00020D7A2B2E17C
:10148000CDF8C2E7CAA7B0DC5B25645D2000000090
:10149000B3F5CABCBBAFB6CCD0C55B25645D00005C
:1014A000C1ACBDD3B7FECEF1C6F75B25645D0000CD
:1014B000D9240108FD2401081D2501083D25010846
:1014C000D7BCB1B8B7A2CBCDCAFDBEDD00000000CD
:1014D000B7A2CBCDCAFDBEDDCAA7B0DC5B25645D7B
:1014E00000000000B7A2CBCDCAFDBEDD4F4B00000F
:1014F000F0000020B7A2CBCDD0C4CCF8CAA7B0DC96
:101500005B25645D00000000B7A2CBCDD0C4CCF851
:101510004F4B0000B6CCD0C5B7A2B8F85B25645DD0
:101520002F5B25645DC8CB002DE9F0476048B0F81B
:10153000D4100A235F4A6048F6F74DFB82465046B6
:10154000F4F799F8804600225C4BF3F794FF0646C7
:1015500000225B4BF4F701F80446F4F739F95449DB
:10156000886058480078401C564908700846007842
:10157000142830DD08460078401E08704C4AD2F826
:10158000F0101068F4F74AF904D249480068484955
:10159000C1F8F000464AD2F8F8105068F4F73EF966
:1015A00003D243484168C0F8F810414AD2F8F41019
:1015B0001068F4F729F903D23D480168C0F8F41027
:1015C0003B4AD2F8FC105068F4F71EF903D23848B1
:1015D0004168C0F8FC103648008A10F4807F25D09E
:1015E000334A91691068F4F719F906D83048006950
:1015F00040F001002E49086105E02D48006920F007
:1016000001002B4908612A4AD1691068F4F7FCF8F7
:1016100006D82748006940F002002549086105E026
:101620002348006920F00200214908612048008A0F
:1016300010F4007F25D01E4A116A5068F4F7EEF8C6
:1016400006D81B48006940F004001949086105E00C
:101650001748006920F0040015490861144A516ACE
:101660005068F4F7D1F806D81148006940F0080036
:101670000F49086105E00E48006920F008000C4998
:1016800008610B498868F4F768F804464FF0663241
:101690000D4BF4F775F805D20C480078401C0B4947
:1016A000087002E0002009490870BDE8F0870000DA
:1016B000F4B00020AB000020AC000020000004408B
:1016C0000000A040AA00002066660A40A900002091
:1016D00010B5B2B02148007800283CD02048008ADC
:1016E00000F4006105221FA0F5F79CF91C48008A50
:1016F00010F4006F2FD1694619487530FDF7DAFAFA
:10170000C4B20DEB04001AA21CA1F7F755F820444F
:10171000C4B2204604EBD0714910A4EB4101012969
:1017200006D10DEB040016A1F7F746F82044C4B229
:1017300000200DF8040005236A46214611A0F5F7A4
:1017400071F96846FBF74CFE044600200349087017
:10175000204632B010BD0020FBE70000A1000020B1
:10176000F4B00020B5F4B5E75B25645D000000002F
:10177000B5F4B5E7B1A8BEAF0000000025730000C6
:1017800020000000B6CCD0C5C4DAC8DD5B25645D9E
:101790003A257300F0B58DB0012136A0F5F742F976
:1017A00001223D493DA0F5F73DF901223A491431A6
:1017B0003CA0F5F737F901213CA0F5F733F936489D
:1017C000613890F8B00010F0400F04D0002140A024
:1017D000F5F728F903E0002146A0F5F723F90722E1
:1017E00008A92D486B30F4F787FB0C220AA92A4878
:1017F0006138F4F781FB0B98F3F7AFFF04460D4611
:101800000A98F3F7AAFF06460120CDE90261CDE967
:101810000445069007A8407A07A9097ACDE9001087
:1018200007A8837942799DF820103BA0F5F7FAF8D4
:1018300001211EA0F5F7F6F801210EA0F5F7F2F848
:10184000012141A0F5F7EEF801210AA0F5F7EAF829
:10185000012108A0F5F7E6F8012106A0F5F7E2F866
:10186000012142A0F5F7DEF8012149A0F5F7DAF8E9
:101870000DB0F0BD2020202020202020202020207E
:101880002020202020202020202020202020202058
:10189000202020200000000055B10020D3C3BBA7AA
:1018A0003A257300B1EACCE23A2573002A2A2A2AA3
:1018B0002A2A2A2A2A2A2A2A2A2A2A2A2A2A2A2A88
:1018C0002A2A2A2A2A2A2A2A2A2A2A2A0000000020
:1018D000BCC7C2BCCAB1BCE42020202020202020EC
:1018E000202020CEC2B6C820202020CAAAB6C820F8
:1018F00000000000BCC7C2BCCAB1BCE4202020204C
:1019000020202020202020CEC2B6C8202020202049
:1019100020CEC2B6C8000000253032642D253032FA
:10192000642D2530326420253032643A253032640B
:1019300020202020202530322E3266202020253005
:10194000322E326600000000C7A9D7D63A202020E8
:101950002020202020202020202020202020202087
:101960002020CAB1BCE43A2000000000B1B8D7A2E0
:101970003A2020202020202020202020202020204D
:1019800020202020202020202020202000000000D7
:101990000D0A0D0A0D0A20202020202020202020C2
:1019A0002020202020202020202000002DE9F041B0
:1019B0008EB00024012141A0F5F734F801224849F6
:1019C00048A0F5F72FF801224549143147A0F5F753
:1019D00029F8012147A0F5F725F84148613890F82A
:1019E000B00010F0400F04D000214BA0F5F71AF81A
:1019F00003E0002150A0F5F715F839E004EB4401AD
:101A0000002202EBC100182208A902F021F8089870
:101A1000401C00D12DE0601CC4B20C98F3F79DFE71
:101A200005460E460B98F3F798FE07460120CDE9D0
:101A30000271CDE90456069008A8407A08A9097AEF
:101A4000CDE9001008A8837942799DF8241043A0BD
:101A5000F4F7E8FF322094FBF0F100FB114031284D
:101A600003D14FF47A6001F015F8FF2C00DB00E0A1
:101A7000C4E700BF01211FA0F4F7D4FF01210FA08C
:101A8000F4F7D0FF012141A0F4F7CCFF01210BA016
:101A9000F4F7C8FF012109A0F4F7C4FF012107A052
:101AA000F4F7C0FF012142A0F4F7BCFF012149A0D7
:101AB000F4F7B8FF0EB0BDE8F08100002020202030
:101AC0002020202020202020202020202020202016
:101AD0002020202020202020202020200000000086
:101AE00055B10020D3C3BBA73A257300B1EACCE2BD
:101AF0003A2573002A2A2A2A2A2A2A2A2A2A2A2A1C
:101B00002A2A2A2A2A2A2A2A2A2A2A2A2A2A2A2A35
:101B10002A2A2A2A00000000BCC7C2BCCAB1BCE401
:101B200020202020202020202020CEC2B6C8202027
:101B30002020CAAAB6C82000BCC7C2BCCAB1BCE437
:101B400020202020202020202020CEC2B6C8202007
:101B500020202020CEC2B6C800000000253032640C
:101B60002D253032642D2530326420253032643A00
:101B70002530326420202020202530322E3266206D
:101B800020202530322E326600000000C7A9D7D6AB
:101B90003A2020202020202020202020202020202B
:101BA000202020202020CAB1BCE43A200000000000
:101BB000B1B8D7A23A2020202020202020202020A9
:101BC0002020202020202020202020202020202015
:101BD000000000000D0A0D0A0D0A20202020202000
:101BE0002020202020202020202020202020000035
:101BF0002DE9F0478EB004464FF00009F4F7DEFF00
:101C0000404890F8CC0020B900213FA0F4F70AFF2B
:101C100073E03C4890F8B00010F0400F04D0002171
:101C20003DA0F4F7FFFE03E000213FA0F4F7FAFE29
:101C300060782178C1EB011100EB410A18E009EB53
:101C400049013D4A02EBC100182208A901F000FF3A
:101C500008A881794079C0EB001001EB40005045A5
:101C600000D306E00898401C00D102E009F1010908
:101C7000E5E700BFE078A178C1EB011100EB410A74
:101C800038E009EB49012C4A02EBC100182208A9EF
:101C900001F0DEFE08A881794079C0EB001001EB6D
:101CA0004000504500D926E00898401C00D122E0B1
:101CB00009F101090C98F3F750FD05460E460B9803
:101CC000F3F74BFD07460020CDE90271CDE904563C
:101CD000069008A8407A08A9097ACDE9001008A85A
:101CE000837942799DF8241014A0F4F79BFE0A2012
:101CF00000F0D0FEC5E700BF00BFF4F759FF0EB0FB
:101D0000BDE8F087F4B00020CFB5CDB3CAB1BCE4D4
:101D1000CEB4BECDD0F70000C8D5C6DA2CCEC2B640
:101D2000C82CCAAAB6C80000C8D5C6DA2CCEC2B61E
:101D3000C82CCEC2B6C800004C9D0C0032302530F5
:101D400032642D253032642D253032642025303226
:101D5000643A253032642C252E32662C252E3266CC
:101D60000000000010B52348007C10F0030F04D1E0
:101D70002048007C10F00C0F01D0022402E01D4826
:101D800090F8B6401C480078642804DA1A480078B5
:101D9000401C19490870184800780A2800DA10BD5C
:101DA000144890F8C80040B11448007808B100F019
:101DB0002BF8002011490870F1E70E4890F8D10087
:101DC0000F490978884212D00E480078401C0D490E
:101DD0000870084890F8D10009490870094800784F
:101DE000A04204DB00200749087000F00DF800BF96
:101DF000D5E70000F4B00020A4000020A5000020DA
:101E0000A3000020A200002000B587B01D4890F874
:101E1000DA00FF2834DA1B4890F8B00010F0800F89
:101E20002ED0072202A91748CC30F4F765F80C220F
:101E300004A91448F4F760F8124890F8DA0000EBAF
:101E40004000002101EBC000183001900D4890F8CF
:101E5000DA0000EB4000002202EBC001182201A8CA
:101E6000FCF772F9074890F8DA10052206A0F4F79B
:101E7000D9FD044890F8DA00401C024981F8DA00E4
:101E800007B000BDF4B00020B4CBBFCCBCC7C2BC0F
:101E9000B1BBB4E6B4A25B25645D000010B5B82008
:101EA00006498882002105481430FCF7FFFA012119
:101EB00002481430FCF7FAFA10BD0000F4B000201C
:101EC0002DE9F047B8B00024A1469248007C10F0FC
:101ED000400F07D0052190A0F4F7A4FD002038B0F2
:101EE000BDE8F0878B48007C00F00F0A89494868FC
:101EF000F3F733FC05460E4686490868F3F72DFCD8
:101F000007460520CDE90071CDE9025604908648C8
:101F10000278514685A0F4F785FDBAF1000F77DD10
:101F200081480078401C804908707A4890F8B800D1
:101F3000097888426DDA7748B0F8B00010F4007F75
:101F400033D0052183A0F4F76DFD2146621CD4B285
:101F500001EB410202EBC1026E49303150180B22F5
:101F600006A9F3F7C9FF00208DF8230006AA7CA17B
:101F70007E4801F000FD052206A979A0F4F752FD84
:101F80004FF4FA60F6F740FA44F6206000F082FD64
:101F900077A1764801F0EFFC4FF4FA60F6F734FAD7
:101FA000052175A0F4F73EFDA7E006A95948753054
:101FB000FCF780FE00F0FF0956494868F3F7CDFBB7
:101FC00005460E4653490868F3F7C7FB07460B461C
:101FD00006A901EB09003A4669A1CDE90056F6F7DA
:101FE000EBFBC4B24B48007C10F0010F18D04949FC
:101FF0008869F3F7B2FB05460E4646490868F3F7D1
:10200000ACFB07460B4606A901EB09003A4601E086
:102010007BE07DE060A1CDE90056F6F7CDFBC4B2D0
:102020003C48007C10F0020F15D03A49C869F3F71C
:1020300094FB05460E4637490868F3F78EFB0746C2
:102040000B4606A901EB09003A4659A1CDE9005615
:10205000F6F7B2FBC4B22F48007C10F0040F15D085
:102060002C49086AF3F779FB05460E46294948686A
:10207000F3F773FB07460B4606A901EB09003A4646
:1020800051A1CDE90056F6F797FBC4B22148007C78
:1020900010F0080F15D01F49486AF3F75EFB05469C
:1020A0000E461C494868F3F758FB07460B4606A93D
:1020B00001EB09003A464AA1CDE90056F6F77CFB50
:1020C000C4B204EB0900C4B2204604EBD07149103D
:1020D000A4EB4101012906D106A9081946A1F6F78A
:1020E0006BFB2044C4B2052306AA214643A0F4F7A3
:1020F00099FC06A8FBF774F9044641F2883000F019
:10210000C9FC00200849087002E000200649087058
:102110002046E4E6F4B00020CCF8B9FDB1A8BEAF8B
:10212000BCECB2E900000000A00000205468697314
:102130004269743D25642C436F756E743D25642C93
:102140004348313D252E32662C4348323A252E3203
:1021500066000000B2A6B4F2B5E7BBB00000000014
:1021600041544425733B0D0A000000000044004028
:102170004154480D0A000000B9D2BBFA000000002B
:10218000BBD6B8B44348313D252E32662C43483285
:102190003A252E3266000000B4A5B7A24348313D6F
:1021A000252E32662C4D41583A252E32660000000D
:1021B000B4A5B7A24348313D252E32662C4D696E39
:1021C0003A252E3266000000B4A5B7A24348323D3E
:1021D000252E32662C4D41583A252E3266000000DD
:1021E000B4A5B7A24348323D252E32662C4D696E08
:1021F0003A252E326600000020000000B6CCD0C583
:10220000C4DAC8DD5B25645D3A25730086B000251D
:1022100002214348F5F7ABFE27224FF4964141488F
:1022200001F03EF97BE040A13E4801F0A4FB4FF4F1
:102230007A734FF4967200213A4801F017FB044676
:10224000002C59D039480522816839A0F4F7EAFBFF
:1022500000203649896881F83200344900228868B4
:1022600001A9F5F734FB01A8F6F7B8FA324908607E
:102270000868F3F772FA0646052032460B460090CE
:102280002EA0F4F7CFFB29490122886801A9F5F7B0
:102290001EFB01A8F6F7A2FA274948604868F3F741
:1022A0005CFA0646052032460B46009023A0F4F760
:1022B000B9FB1E490222886801A9F5F708FB01A8AD
:1022C000F6F78CFA1C4988608868F3F746FA0646E8
:1022D000052032460B46009018A0F4F7A3FB1948DE
:1022E000006940F48070174908610846006940F4AD
:1022F0000070086100250EE0681CC5B2032D0ADDE0
:102300001048006920F480700E4908610846006991
:1023100020F40070086140F6B83000F0BBFB82E7A3
:10232000000C014000480040720D0A00F00000203F
:10233000523A25730000000024B20020523A25666C
:1023400000000000F4B00020002502211A48F5F733
:102350000EFE0120194981F8D9001948F3F785FDCF
:1023600029E04FF47A7000F095FB1548F3F766FD0D
:1023700006463046F3F769F904460522314611A0B6
:10238000F4F750FB10492046F3F73EFA09D20F4804
:10239000046000250948006940F48070074908611D
:1023A00009E0681CC5B2032D05DD0448006920F46E
:1023B000807002490861D4E7000C0140F4B00020AD
:1023C000D4B201082564000000B8884724B2002078
:1023D0001FB5002530A103C9CDE9020130A103C911
:1023E000CDE9000102213048F5F7C1FD02202F4957
:1023F00081F8D90027224FF416512D4801F050F8EA
:1024000049E0052202A92A4801F0A5FA4FF47A739F
:102410004FF496720021264801F028FAC6B208222D
:102420006946234801F097FA4FF47A734FF4967295
:1024300000211F4801F01AFAC6B2F6B11D49896899
:10244000C978C1EB01211B4A926812798818F3F709
:10245000F3F80446184804602046F3F719F90746D4
:102460000522394615A0F4F7DDFA00250F4800696A
:1024700040F480700D49086109E0681CC5B2032D65
:1024800005DD0A48006920F48070084908614FF4AE
:102490007A7000F0FFFAB4E7001001BDC000000040
:1024A000010300000001840A000C0140F4B0002088
:1024B00000480040F000002024B200202564000005
:1024C0000320044981F8D90003E04FF47A7000F04A
:1024D000E1FAFAE7F4B0002010B586B005A000F0EC
:1024E00035F9C4B201AB14220021204600F026FCCD
:1024F00006B010BD475052530000000010B505A0B3
:1025000000F024F9C4B200231A460121204600F04D
:1025100015FC10BD475052530000000010B505A037
:1025200000F014F9C4B200231A460221204600F03C
:1025300005FC10BD475052530000000010B505A027
:1025400000F004F9C4B200231A460321204600F02B
:10255000F5FB10BD47505253000000000146002912
:1025600005DB092903DC01F13000C0B270470A29FC
:1025700005DB232903DC01F13700C0B2F6E701F1E6
:102580003D00C0B2F2E70000F0B502460C46FF2164
:10259000FF2500260BE012F8017B87EA0503084FB0
:1025A000FF5C87EA0105074FF95C771CBEB2A642C3
:1025B000F1DB08464FF6FF7707EA00202843F0BD1D
:1025C000D8440108D845010830B502460B46002022
:1025D00010E012F8014B6040002109E010F0010FFB
:1025E00003D08C2484EA600000E040104C1CE1B26F
:1025F0000829F3DB1C00A3F10105ABB2E9D130BD22
:1026000010B50246002002E012F8013B58400B00D2
:10261000A1F10104A1B2F7D110BD000010B510481E
:102620000078132804D00F480078401C0D4908702A
:102630000D480078401C0C49087008460078642852
:102640000DDD002008701423084A06480178084868
:10265000F5F7C1FA0749087000200249087010BD5B
:102660004400002030000020280000202900002025
:102670002C0000203C0000202DE9F04105460E46CC
:10268000174618480068A0B91020F8F73DFE154914
:102690000860084604684FF47A70A080002020810A
:1026A0004FF6FF70E0801048E0600120A07200202B
:1026B00020600C48046800E0246820680028FBD1F2
:1026C0001020F8F721FE20602468A58000202081DA
:1026D000E680E7600120A072002020602046BDE86F
:1026E000F08100005C000020ED2601081649086812
:1026F00000B9704722E00068817AC288002A01DDB3
:10270000012200E00022114218D0817A11F0020F5C
:1027100014D10189491C01810189828891420DDB14
:10272000817A41F00201817200210181C188A1F505
:102730007F42FF3A02D0C188491EC180016800294A
:10274000D9D100BFD5E700005C00002070B5054678
:10275000002413E004EB4400094A126802EB001065
:10276000C16A2846F3F7D8FC08B1204670BD601C4A
:1027700080B20446142801DBFF20F7E7EAE70000F7
:102780004800002010B54FF47070F8F7BDFD1E49E9
:10279000086002201D49487000204860002428E09D
:1027A000012004EB4401184A126802EB0111088170
:1027B000002004EB4401144A126802EB0111886105
:1027C000002104EB4400104A126802EB0010016083
:1027D000002004EB44010C4A126802EB0111C861AD
:1027E00004EB4401084A126802EB01110884601CE2
:1027F000C4B2142CD4DB132005490870002005490D
:1028000008600549086010BD480000203C00002019
:10281000440000204C0000205C00002070B50446FD
:10282000FFF7B0FF04E094E80F0000F0D1F8103497
:1028300020680028F7D100F027F870BDF4F714FDE8
:1028400004E0642000F026F900F002F8F9E7000047
:1028500010B50C48046804B910BD0EE02468A07AD5
:1028600010F0010F09D0A07A10F0020F05D0E06837
:102870008047A07A20F00200A07220680028EDD1E5
:1028800000BFE9E75C00002008B5FCF763FA4FF4ED
:10289000FA6005A3002207490090132000F030F8E9
:1028A000132000F069FB08BD5461736B526F6F74A5
:1028B000000000003D28010810B5FFF7AFFE00F052
:1028C0007FFA08484078402805D1032106A0F4F794
:1028D000A9F8F8F7C3FB0948006808B100F046FC06
:1028E00010BD00003C000020544F532054696D651A
:1028F0004F75742052657365740000005C00002001
:102900002DE9F04704460D4691461F46DDF820802C
:102910000DB9BDE8F08704EB44002C49096801EBD0
:1029200000100089012800D0F3E704EB4400274998
:10293000096801EB0010008C98B91FFA88F0F8F7CD
:10294000E3FC064604EB4401204A126802EB011145
:10295000A1F8208004EB44011C4A126802EB01112B
:10296000CE6104EB4402194B1B6803EB0212118C7D
:1029700004EB4402154B1B6803EB0212D06900F014
:10298000C1FB8246022104EB4400104A126802EBAC
:102990000010018104EB44000C49096801EB0010B0
:1029A000456004EB44000949096801EB0010C76267
:1029B0004A462946504600F0A7FA04EB4401034A70
:1029C000126802EB0111086000BFA2E74800002076
:1029D0002DE9F84305460E461746984600241AE0AE
:1029E00004EB44001249096801EB0010008900B9AA
:1029F00012E004EB44000E49096801EB0010008965
:102A0000012800D108E0601C80B20446142802DBD3
:102A10000020BDE8F883E3E700BFE0B23B46324662
:102A20002946CDF80080FFF76BFF0120F1E7000099
:102A30004800002010B5154A127802EB4202144BF0
:102A40001B6803EB02129062104A127802EB4202FA
:102A50000F4B1B6803EB021282F8231000220B4B72
:102A60001B7803EB43030A4C246804EB031383F83D
:102A700024200023054A127802EB4202044C246809
:102A800004EB021282F8253010BD00004400002043
:102A90004800002010B504461348407801281FD094
:102AA00000201249097801EB4101114A126802EB3A
:102AB000011188610D48007800EB40000C4909685D
:102AC00001EB0010446110210848007800EB400041
:102AD000074A126802EB0010018100F0C3FA02E01D
:102AE0002046F3F7D0F910BD3C0000204400002040
:102AF0004800002010B50446142C01DB002010BD56
:102B000004EB44001E49096801EB0010008901280C
:102B100001D10020F3E7002004EB4401184A1268B9
:102B200002EB0111C862002104EB4400144A126850
:102B300002EB00108161002004EB4401104A12688E
:102B400002EB01114861012004EB44010C4A1268B8
:102B500002EB0111088104EB4401094A126802EBFF
:102B60000111C869F8F7A4FB002104EB4400044AF2
:102B7000126802EB0010018400F074FA0120BEE735
:102B80004800002001460D48006800EB4110007A23
:102B900008B9002070470948006800EB41104079EF
:102BA000074A1278904201D00020F3E70120034A3F
:102BB000126802EB4112107200BFEBE754000020D4
:102BC0004400002070B504460D4600BF1E48006852
:102BD00000EB4410007A30B1012815D0022804D04F
:102BE00003282FD11FE0002070BD1748006800EBBC
:102BF0004410407915490978884201D10120F3E752
:102C0000204600F0DDFAE1E702200F49096801EBF8
:102C1000441108720D4800780B49096801EB441112
:102C200048710120E0E702200749096801EB4411DF
:102C30000872064800780449096801EB441148719C
:102C40000120D1E70020CFE75400002044000020FD
:102C500002480078024908707047000044000020D4
:102C60007200002070B51848007800EB400017494A
:102C7000096801EB0014A06A08B9002070BD94F83F
:102C8000250018B91048007800F088F994F825005C
:102C900008B90020F2E704F12304D4F805006178B4
:102CA00000EBC105607800F10100217890FBF1F2A2
:102CB00001FB12006070A078A0F10100A070A4F1E7
:102CC00023042846DAE700004400002048000020E2
:102CD00070B506461748007800EB400016490968B1
:102CE00001EB0014A06A08B9002070BD94F825001B
:102CF00010B93046FFF7CEFE94F8250008B9002041
:102D0000F3E704F12304D4F80500617800EBC10572
:102D1000607800F10100217890FBF1F201FB1200D4
:102D20006070A078A0F10100A070A4F123042846EF
:102D3000DBE7000044000020480000202DE9F047B8
:102D40000646884691469A46142E01DBBDE8F08778
:102D500006EB46001949096801EB0014A06A00B9A6
:102D6000F4E794F8250094F82310884220DA04F15F
:102D700023046078A1780844217890FBF1F201FBEC
:102D80001200C7B214F82309B84200DCDEE7A06ADB
:102D900000EBC70585F800804A4650466968F3F79E
:102DA000ABF885F8019094F82500401C84F82500C4
:102DB000304600F065F800BFC8E70000480000207A
:102DC000002056E000EB40012B4A126802EB011193
:102DD0000989022902D0102947D11DE000EB4001EA
:102DE000254A126802EB01118969491C00EB400277
:102DF000214B1B6803EB0212916100EB40011E4A5C
:102E0000126802EB0111896944F62062914202D9ED
:102E100040211A4A517029E0002100EB4002164B74
:102E20001B6803EB0212916100EB4001124A126829
:102E300002EB0111496941B9022100EB40020E4B3E
:102E40001B6803EB021211810EE000EB40010A4AFD
:102E5000126802EB01114969491E00EB4002064B62
:102E60001B6803EB0212516100E000BF00BF411C70
:102E7000C8B21428A6DB7047480000203C000020A0
:102E8000142800DB704700EB4001094A126802EB8E
:102E900001110989012900D1F4E7102100EB40025A
:102EA000034B1B6803EB0212118100BFEAE700002D
:102EB0004800002010B504460F480078A04200D119
:102EC00010BD0D48007800EB40000C49096801EB8B
:102ED00000100B49086008480470007800EB4000BF
:102EE0000649096801EB0010006806490860F2F71E
:102EF000D7FD00BFE4E700004400002048000020A8
:102F0000380000203400002030B503461846041F66
:102F100020462160041F204623600025041F204610
:102F20002560041F20462560041F20462560041FDD
:102F300020462560041F20462560041F204625608A
:102F4000041F20462560041F20462560041F2046DC
:102F50002560041F20462560041F20462560041FAD
:102F600020462560041F204622604FF08075041F14
:102F70002046256030BD000010B5044604EB440037
:102F80000449096801EB0010006803490860F2F782
:102F9000A0FD10BD480000203400002010B50446FC
:102FA000142C00DB10BD04EB44000E49096801EB52
:102FB00000100089012800D1F4E7042004EB44014B
:102FC000084A126802EB01110881002104EB440059
:102FD000044A126802EB0010416100F043F800BFA0
:102FE000E0E700004800002010B50446142C01DB87
:102FF000002010BD04EB44001949096801EB0010E2
:103000000089012801D10020F3E704EB44001449B2
:10301000096801EB00100089042801D10020E8E7CD
:1030200004EB44000E49096801EB001000890828F0
:1030300001D10020DDE7082004EB4401084A1268B2
:1030400002EB01110881002004EB4401044A1268DC
:1030500002EB0111486100F005F80120C9E700000A
:103060004800002010B5022123480068A0F89813FA
:1030700000243DE004EB44001F49096801EB001007
:103080000089022802D020282ED107E01B480078B2
:10309000A04202D02046FFF70DFF10BD04EB440014
:1030A0001549096801EB001090F8220014490968DD
:1030B00001EB4010007A012815D1102004EB4401E7
:1030C0000D4A126802EB01110881032004EB440150
:1030D000094A126802EB011191F82210084A12689D
:1030E00002EB4111087200E000BF00BF601CC4B2D7
:1030F000142CBFDB00BFD0E74800002044000020B4
:10310000540000200246501820F00303A3F13000C1
:1031100020F007007047000010B5142800DB10BD38
:1031200000EB4002104B1B6803EB02121289042AC9
:1031300000D1F4E7002200EB40030B4C246804EBC1
:1031400003139A61102300EB4002074C246804EB40
:103150000212138100EB4002034B1B6803EB0212C7
:10316000516100BFDBE700004800002010B51348A4
:10317000006800B910BD11480068E0B10F48006850
:10318000807A10F0010F16D00C48006800890B49B6
:1031900009688988884207DB08490968C868804748
:1031A0000020064909680881044800680089401C1D
:1031B00002490968088100BFDCE700005C000020CC
:1031C00010B504460B48007800EB40000A49096836
:1031D00001EB001080F8224020200649097801EB1D
:1031E0004101054A126802EB01110881FFF73AFF1D
:1031F00010BD0000440000204800002010B540F23F
:103200002551114800F013FAC0B10F48001D008885
:10321000C4B20E48C0880E49C988884213DA0B48E8
:10322000C188C088401C094AD0800A48C0684454FC
:103230000949C8780A21FFF76FFF04E040F22551E1
:10324000014800F0D4F810BD004C004022010020DD
:1032500018010020F00000202300002010B540F2EB
:103260002551114800F0E3F9B8B10F488088C4B285
:103270000E4800890E490989884213DA0B480189F2
:103280000089401C094A10810A48006944540A49CF
:1032900008790A21FFF740FF04E040F22551024877
:1032A00000F0A5F810BD00000050004022010020F1
:1032B00018010020F00000202300002010B540F28B
:1032C0002551114800F0B3F9C0B10F48001D008826
:1032D000C4B20E4800880E490988884213DA0B48A8
:1032E00001880088401C094A10800A48006844543C
:1032F000094908780A21FFF70FFF04E040F2255141
:10330000014800F074F810BD00380140220100208F
:1033100018010020F00000202300002010B540F22A
:103320002551114800F083F9C0B10F48001D0088F5
:10333000C4B20E4840880E494988884213DA0B48C7
:1033400041884088401C094A50800A4840684454DB
:10335000094948780A21FFF7DFFE04E040F22551D1
:10336000014800F044F810BD004400402201002054
:1033700018010020F00000202300002010B540F2CA
:103380002551114800F053F9C0B10F48001D0088C5
:10339000C4B20E4880880E498988884213DA0B48E7
:1033A00081888088401C094A90800A48806844547B
:1033B000094988780A21FFF7AFFE04E040F2255161
:1033C000014800F014F810BD004800402201002020
:1033D00018010020F00000202300002001F40072FA
:1033E000B2F5007F00D100BFCA430280704710B51C
:1033F00000220023A1F510646A3C00D100BF0A122C
:1034000001249440A3B2DC43048010BD21B1828921
:1034100042F40052828104E082894DF6FF731A4023
:103420008281704770B50446204600F04FF905468A
:1034300000F06EF8052C27D2DFE804F0030A11181B
:103440001F0025224FF4E131104800F029F81BE05D
:1034500026224FF4E1310E4800F022F814E0272232
:103460004FF416510B4800F01BF80DE034224FF4D6
:103470001651094800F014F806E035224FF4E13106
:10348000064800F00DF800BF00BF70BD00380140D5
:103490000044004000480040004C00400050004004
:1034A00070B586B006460C46154601940020ADF86E
:1034B0000800ADF80A00ADF80C00ADF810000C20C3
:1034C000ADF80E0001A9304600F044F9012240F2A7
:1034D0002551304600F018F901213046FFF796FFDC
:1034E00040213046FFF77AFF4FF48060F8F7C6F8C6
:1034F0008DF8145002208DF8150001208DF816006B
:103500008DF8170005A8F8F77FF806B070BD000029
:1035100038B50446274884420BD10D202315264A8E
:1035200051150090104600F057F801218803FAF772
:1035300011F9224884420BD1042008231E4A014677
:103540000090104600F048F801214804FAF7F2F81C
:103550001B4884420FD10920E3141A4A1115009028
:10356000104600F039F801218804FAF7E3F8012148
:103570008804FAF7EFF8144884420BD11120E314C1
:10358000124A11150090104600F026F80121C804D7
:10359000FAF7D0F80E4884420BD1312004230D4AAB
:1035A00091140090094800F017F801210805FAF776
:1035B000C1F838BD00380140000801400044004017
:1035C00000480040000C0140004C00400010014049
:1035D00000500040001401402DE9F84307460D4615
:1035E00016461C46DDF8208001214046FAF7B2F865
:1035F000ADF8005003208DF8020018208DF803006C
:1036000069463846F4F7DCFBADF8004004208DF83D
:10361000030069463046F4F7D3FB29463846F4F7F1
:10362000A8FC21463046F4F7A4FCBDE8F88370B549
:1036300002460024002300250020A1F510666A3E02
:1036400000D100BFC1F3421501F01F03012606FAA5
:1036500003F3012D02D19689334006E0022D02D1F9
:10366000168A334001E0968A33400C12012606FA8E
:1036700004F41688344013B10CB1012000E000209E
:1036800070BD000001460F4A881A914213D006DC33
:103690000D4808180BD0B0F5806F10D109E0B0F5D7
:1036A000806F0AD0B0F56C4F09D10020704701201F
:1036B000FCE70220FAE70320F8E70420F6E7002001
:1036C000F4E70000004C004000BCFFBF01460529A4
:1036D0000ED2DFE801F0030507090B00054870472B
:1036E0000548FCE70548FAE70548F8E70548F6E726
:1036F0000020F4E70038014000440040004800404A
:10370000004C004000500040F0B503460024002665
:1037100000250020A1F510676A3F00D100BF1846C0
:10372000C1F3421401F01F06012707FA06F5012C28
:1037300001D10C3004E0022C01D1103000E0143033
:103740001AB107682F43076002E00768AF430760BC
:10375000F0BD00002DE9F04786B005460E46002476
:10376000A24600BFA1460027B08900B100BF2F4686
:103770002C8A4CF6FF700440F08804432C82AC89FC
:103780004EF6F3100440B08831890843718908432C
:103790000443AC81AC8A4FF6FF400440B089044337
:1037A000AC8201A8F9F7F6FF1F48874202D1DDF885
:1037B00010A001E0DDF80CA0A88910F4004F08D09B
:1037C0000AEBCA0000EB0A1031684900B0FBF1F8BF
:1037D00007E00AEBCA0000EB0A1031688900B0FB71
:1037E000F1F86420B8FBF0F004012009642101FB2A
:1037F0001089A88910F4004F08D0322000EBC900CE
:10380000B0FBF1F000F00700044308E0322000EBC9
:1038100009106421B0FBF1F000F00F0004432C818B
:1038200006B0BDE8F0870000003801402DE9F05FE8
:1038300005460E4614462F46B046A1463846FFF7C9
:1038400021FF8246084951F82A00F7F749FD1FFA7F
:1038500080FB00235A464146384600F007F8A9F895
:103860000000BDE8F09F0000F00000202DE9F047C7
:1038700081460F4615461E464846FFF703FF04469D
:103880002249085D0021FFF79DF98246204951F841
:103890002400F7F725FD8046BAF1000F27D001225A
:1038A00040F225514846FFF72FFF1A4800781A4981
:1038B0000855454501D31FFA88F5184820F81450DB
:1038C0000020174921F814001EB13046FFF7E2F836
:1038D00003E01149085DFFF787FB0C49085DFFF71E
:1038E00051F9002240F225514846FFF70DFF47B13C
:1038F0000B4931F81420064951F824003946F2F7F3
:10390000FBFA074830F81400BDE8F08719000020E2
:10391000F0000020440000202300002018010020B7
:10392000220100202DE9F04304460D4616462746A5
:10393000A846B6F800904A464146384600F00BF8D3
:10394000BDE8F08300BF028812F0800FFBD0C1F306
:1039500008028280704710B50B46002108E000BFC6
:10396000048814F0800FFBD05C5C84804C1CA1B2F6
:103970009142F4DB10BD0FB430B5B3B0054638A8A2
:1039800032906846329A379900F080F800203290E1
:103990006846F4F785FF0446224669462846FFF745
:1039A000DAFF204633B030BC5DF814FB10B54FF49D
:1039B0008020F3F743FE10BD01460A4610687047A9
:1039C00000BFFEE72DE9F04106460D462F0B280506
:1039D000000D00D07F1C002406E04FF4805101FB55
:1039E0000460FAF7CFFC641CBC42F6D3BDE8F0815A
:1039F0002DE9F04707460D462E0B2805000D00D097
:103A0000761C00241AE04FF4805101FB0470FAF791
:103A1000B9FC0A20FFF73EF82420B4FBF0F100FBCC
:103A2000114050B92420B6FBF0F8B4FBF0F90023A4
:103A30004246494603A0F2F7F5FF641CB442E2D3C4
:103A4000BDE8F087B2C1B3FDD2B325642F25640071
:103A500070B504460D461646324621462846FAF70A
:103A60004BFB70BD70B504460D461646328828469D
:103A70002168FAF741FB70BD70B504460D46164645
:103A8000328828462168FAF75FFB70BD37B51446C7
:103A90000846064B6A46214600F0C8F804466946C7
:103AA000002000F066FC20463EBD00007343010884
:103AB00002E008C8121F08C1002AFAD170477047F7
:103AC000002001E001C1121F002AFBD17047000055
:103AD0002DE9FF5FDDE90220010DDDF838B002437A
:103AE00010D10F9801244CA2012808D00021009881
:103AF0000F9BC0E90021C0E90243BDE8FF9F6FEAC8
:103B00000B01F4E7A1F2FF3144F6105041430D14CC
:103B10000F9801280ED0A5EB0B00401C4FF00004BD
:103B20003E4EDFF8FC90B0F1000AA04605DACAF17B
:103B3000000717E0CBF10000F0E7074612E0F807B6
:103B400007D02246334640464946F1F794FC80466A
:103B500089462246334610461946F1F78CFC044646
:103B60000E467F10002FEAD1DDE90201BAF1000F05
:103B700042464B4602DAF1F77EFC01E0F1F7EDFC3C
:103B800004460E460022274BF1F70EFE03D84FF0F5
:103B9000FF30014607E00022234B20463146F1F773
:103BA000C3FBF1F752FF102409E0002C0ADB0A22C4
:103BB0000023F1F753FE019B30321A55641E50EA80
:103BC0000102F2D1641C019AC4F1110314440F9A4A
:103BD000012A09D00122084301D15B450FDD4FF0D6
:103BE000000205F101050DE0084303D1A3EB0B052D
:103BF0006D1E09E000204FF0110B0F9088E701DAED
:103C000000226D1E002A83D000980F99C0E902316E
:103C1000C0E9004571E700003000000000002440CA
:103C20000000F03F0000F0430000E03F2DE9FF4FAF
:103C300095B09B4689460646002512E2252878D194
:103C40000024761CF94A2746012105943378203B4D
:103C500001FA03F0104202D00443761CF6E73078F4
:103C60002A2811D06FF02F033078A0F13002092AF2
:103C700016D8059A44F0020402EB820203EB4202DA
:103C80001044761C0590EFE759F8042B0592002AA2
:103C900003DA504244F40054059044F00204761CC8
:103CA00030782E2816D116F8010F44F004042A2883
:103CB0000DD06FF02F023078A0F13003092B09D816
:103CC00007EB870302EB4303C718761CF3E759F8A9
:103CD000047B761C30786C280FD006DC4C2817D07B
:103CE00068280DD06A2814D104E0742810D07A28EE
:103CF0000FD10DE044F400140AE044F4801401E014
:103D000044F440147278824202D1761C04F5801487
:103D1000761C307866280BD013DC582877D009DC65
:103D2000002875D04528F6D04628F4D047281AD167
:103D30009FE118E0632835D0642879D0652812D136
:103D400097E1702873D008DC6728F1D069286FD01C
:103D50006E280DD06F2806D1B5E073282CD07528B9
:103D600075D0782874D05A46179990476D1C76E123
:103D7000C4F30250022809D003280DD0D9F800104E
:103D800004280DD00D6009F1040968E1D9F800108C
:103D9000EA17C1E90052F6E7D9F800100D80F2E702
:103DA0000D70F0E719F8041B8DF8001000208DF855
:103DB0000100EA46012003E059F804AB4FF0FF3060
:103DC00061074FF0000102D40DE008F101018846BF
:103DD000B9420FDA8045F8DB1AF808100029F4D14F
:103DE00008E008F1010188468142FADB1AF8081060
:103DF0000029F6D105985B46A0EB08072146384616
:103E0000179A00F09EFA284400EB080507E04DE001
:103E10002BE10DE01AF8010B5A4617999047B8F1BB
:103E20000108F7D25B4621463846179A14E142E072
:103E30000A220092C4F302524FF0000A022A08D06C
:103E400059F804CB032A4FEAEC710AD00DE029E0BF
:103E50002AE009F1070121F00702F2E802C19146C8
:103E600009E00FFA8CFC4FEAEC71042A03D14FFAF7
:103E70008CFC4FEAEC71002907DA0A460021DCF1DC
:103E8000000C61EB02012D2202E0220504D52B2259
:103E90008DF80420012203E0E20701D02022F7E799
:103EA000904653E00A2102E010220DE010214FF06D
:103EB000000A00910BE010224FF0000A44F00404C5
:103EC0000827009203E008224FF0000A0092C4F392
:103ED0000252022A05D059F804CB0021032A08D047
:103EE00009E009F1070121F00702F2E802C1914659
:103EF00005E01FFA8CFC042A01D10CF0FF0C4FF0F6
:103F00000008220722D5702827D0009B83F01003D9
:103F100053EA0A0309D15CEA010206D030228DF887
:103F200004208DF8050002229046009B83F00803D0
:103F300053EA0A030AD15CEA010201D1620705D5FE
:103F400030228DF804204FF001087F1E582809D038
:103F500037A003900EA8029013E040228DF80420B1
:103F60000122E1E737A0F4E753466046009AF1F7F3
:103F700075FC84460398825C0298A0F101000290CF
:103F800002705CEA0100EFD1029806A9A1EB0000E3
:103F900000F1200A600702D524F4803400E00127F4
:103FA000574502DDA7EB0A0000E0002000EB0A0104
:103FB000009005984144A0EB01000590E00306D471
:103FC0005B462146179A059800F0BBF90544002787
:103FD00006E001A85A46C05D179990476D1C7F1CEA
:103FE0004745F6DBE0030CD55B462146179A05985A
:103FF00000F0A7F9054404E030205A46179990478D
:104000006D1C0099481E00900029F5DC08E002981C
:1040100002995A460078491C0291179990476D1CE5
:10402000BAF10001AAF1010AF1DC6BE109280100F3
:10403000303132333435363738396162636465661E
:1040400000000000303132333435363738394142E0
:10405000434445460000000000F060F9054406F1C5
:104060000106307800287FF4E9AD19B02846BDE894
:10407000F08F620700D4062709F1070222F0070C2F
:10408000FCE80223E14603F000485FEA080C02D096
:104090000FF27C2C0DE05FEA045C02D50FF2742C69
:1040A00007E05FEAC47C02D00FF26C2C01E0AFF2B3
:1040B000700C4FF0FF3823F00043CDF850C0652856
:1040C0000CD006DC452809D046281DD047283ED113
:1040D0003EE0662818D0672839D139E00021112F39
:1040E00001DB112000E0781CCDE9000106A90EA833
:1040F000FFF7EEFCDDE90F010E9A0391002100921B
:1041000007F1010A04914EE04FF000400097CDE91D
:10411000011006A90EA8FFF7DBFCDDE90F020392F0
:104120000E9B11990022DDF80CA00093049219B99E
:1041300007F1010100EB010AB7EB0A0004D4C0F15A
:10414000FF3007F1010A0490AAEB0700019046E056
:10415000012F00DA01270021112F01DD112000E0DD
:104160003846CDE9000106A90EA8FFF7B1FCDDE94C
:104170000F010E9A0391002104910092BA46210783
:104180000CD40399514500DA8A46BAF1010F05DDD6
:10419000009AAAF10101515C302908D0B84202DA34
:1041A00010F1040F06DA0121CDE9011017E0AAF1A0
:1041B0000101E9E7002805DC049901440491AAEB18
:1041C000000102E0411C514500DD8A460499A0EB44
:1041D000010000F1010001904FF000400290200723
:1041E00004D40198504501DBCDF8048000208DF8FF
:1041F0004F0002980DF14F07B0F1004F25D02B2052
:104200000E9002984FF0020800280CDA404202900B
:104210002D200E9007E00A210298F1F709FB3031BA
:10422000029007F8011DB8F10001A8F10108F2DCC5
:1042300002980028EFD1791E0E980870307800F0AF
:10424000200040F0450007F8020D12A8A0EB07007F
:1042500000F107081498007800B1012000EB0A0172
:10426000019801EBE07105984144A0EB0100A0F139
:1042700001000590E00306D45B462146179A059895
:1042800000F05FF805441498007820B15A46179959
:10429000904705F10105E00323D55B462146179AB7
:1042A000059800F04EF805441BE00498002807DB51
:1042B000DDE90301884203DD0098405C179901E0C5
:1042C000179930205A46904704986D1C401C049062
:1042D0000198401E019004D12E205A46179990470C
:1042E0006D1CBAF10001AAF1010ADEDC05E017F845
:1042F000010B5A46179990476D1CB8F10001A8F1BF
:104300000108F4DC5B462146179A0598A4E60000F4
:104310002D0000002B000000200000002DE9F041DE
:10432000044600251E461746880405D406E0394693
:104330002020B04705F10105641EF8D52846BDE8E8
:10434000F0812DE9F041044600251E469046C80341
:1043500001D5302700E02027880405D506E0414636
:104360003846B04705F10105641EF8D52846BDE87A
:10437000F0810A68531C0B6010707047801000BFFA
:104380000100A0F1010290B2FAD170474FF4A041B0
:104390004FF00060F7F77CF93D48F6F7A7FFF2F71A
:1043A0002FFC642211463B48F2F70EFE3A48F2F722
:1043B000EFFE3A48F2F7A2FD3948F2F73BFDF2F77B
:1043C000F1FEF2F7D1FC00213648F6F705FE35483C
:1043D000143890F8C9000A284CD2DFE800F0050C28
:1043E000131A21282F363D442F48F2F7D1FE2F48CB
:1043F000FEF714FA45E02C48F2F7CAFE2C48FEF707
:104400000DFA3EE02848F2F7C3FE2A48FEF706FA06
:1044100037E02548F2F7BCFE2748FEF7FFF930E009
:104420002148F2F7B5FE2548FEF7F8F929E01E48C5
:10443000F2F7AEFE2248FEF7F1F922E01A48F2F751
:10444000A7FE2048FEF7EAF91BE01F48F2F7A0FE9E
:104450001E48FEF7E3F914E01B48F2F799FE1C48EA
:10446000FEF7DCF90DE01048F2F792FE1948FEF76E
:10447000D5F906E00C48F2F78BFE0C48FEF7CEF9B2
:1044800000BF00BF0948FEF7C9F900BFFEE7000002
:104490002C0100200038014000440040D8B9010838
:1044A000FCB9010808B1002000480040F8B201083A
:1044B00058B4010818B50108C8B5010868B6010864
:1044C00018B70108B8B70108004C004068B80108E7
:1044D00028B90108A8B3010800C1814001C080418A
:1044E00001C0804100C1814001C0804100C18140C4
:1044F00000C1814001C0804101C0804100C18140B4
:1045000000C1814001C0804100C1814001C08041A3
:1045100001C0804100C1814001C0804100C1814093
:1045200000C1814001C0804100C1814001C0804183
:1045300001C0804100C1814000C1814001C0804173
:1045400001C0804100C1814001C0804100C1814063
:1045500000C1814001C0804101C0804100C1814053
:1045600000C1814001C0804100C1814001C0804143
:1045700001C0804100C1814000C1814001C0804133
:1045800001C0804100C1814001C0804100C1814023
:1045900000C1814001C0804100C1814001C0804113
:1045A00001C0804100C1814001C0804100C1814003
:1045B00000C1814001C0804101C0804100C18140F3
:1045C00000C1814001C0804100C1814001C08041E3
:1045D00001C0804100C1814000C0C101C30302C2CB
:1045E000C60607C705C5C404CC0C0DCD0FCFCE0E33
:1045F0000ACACB0BC90908C8D81819D91BDBDA1AA3
:104600001EDEDF1FDD1D1CDC14D4D515D71716D612
:10461000D21213D311D1D010F03031F133F3F23282
:1046200036F6F737F53534F43CFCFD3DFF3F3EFEF2
:10463000FA3A3BFB39F9F83828E8E929EB2B2AEA62
:10464000EE2E2FEF2DEDEC2CE42425E527E7E626D2
:1046500022E2E323E12120E0A06061A163A3A26242
:1046600066A6A767A56564A46CACAD6DAF6F6EAEB2
:10467000AA6A6BAB69A9A86878B8B979BB7B7ABA22
:10468000BE7E7FBF7DBDBC7CB47475B577B7B67692
:1046900072B2B373B17170B0509091519353529202
:1046A00096565797559594549C5C5D9D5F9F9E5E72
:1046B0005A9A9B5B99595898884849894B8B8A4AE2
:1046C0004E8E8F4F8D4D4C8C448485458747468652
:1046D000824243834181804002100000001001406B
:1046E00000E00000000000000000000000000000EA
:1046F000AF066D4FC6CBEB0EEFCF104000A7ECE836
:10470000E1E36BE6A91AAEFA60D6F46CBCBEE0FE3B
:10471000FC0104007ACE8E1E3EB66E9A1AEAAF06EF
:104720006D4FC6CBEB0EEFCF46616C7365005472D4
:1047300075650000AABE010871EE000802000000C5
:10474000A1BE0108850801080200000098BE01080A
:104750004DEE000802000000FCBD010824B100205D
:104760001A0B000020BE01082FB100201A0B000018
:1047700033BE01083AB100201A0B00000FBE010839
:104780007DB100201A100000DDBC01089EB10020A0
:1047900005020000D8BD010845B100201A10000034
:1047A000EABD010855B100201A140000C6BD010879
:1047B00069B100201A140000D8BB01080CB1002018
:1047C00004000000A4BB010810B100200400000098
:1047D000F2BB010814B1002004000000BEBB0108B8
:1047E00018B100200400000078BC0108A8B1002026
:1047F0000B000000CDBC0108A9B100200B00000097
:104800008DBC0108ACB100200B000000ADBC01085C
:10481000AAB100200B0000009DBC0108ABB1002034
:104820000B00000088BD0108A4B100201D05000098
:10483000B1BD0108A4B100201D0600000CBC010898
:10484000B0B100200400000022BC0108B4B1002077
:104850000400000070BB0108F4B000200400000058
:104860008ABB0108F8B000200400000046BC010823
:10487000FCB00020040000006DBE0108CAB1002099
:104880000B00000046BE010804B100201D05000019
:104890009FBD0108A4B100201D08000064BD0108EF
:1048A000A4B100201D09000076BD0108A4B10020BC
:1048B0001D0A0000BDBC0108BCB100200B000000B7
:1048C00065BC0108BDB100200B00000051BD01080E
:1048D000A4B100201D0B00003EBD0108A4B10020C2
:1048E0001D0C000093BE0108000000000000000045
:1048F00002480000001801406000000002100000A3
:10490000001001403800000000000000000000001E
:1049100000000000004EBBD2014EA1B6034EDFC620
:10492000074EF2CD084EC9D5094EFDC80A4ECFC973
:104930000B4EC2CF0C4EA2D80D4EBBB20E4EEBD3D7
:10494000104EA4D8114EF3B3134EA8D7144ED2C7AD
:10495000154EA7D8164EC0CA184EF0C7194EFBB157
:104960001A4EB5D21B4ED4B41C4EABB61D4EBFCBA7
:104970001E4EA9D8224EAAB6244EBDC1254ECFD177
:10498000274EA5C9284EADD82A4EF6B82B4EBED11B
:104990002C4EDCE32D4ED0D6304EE1B7324EAEB4C5
:1049A000344ED9C1364EBCD8384EE8CD394EA4B5B8
:1049B0003A4EAACE3B4EF7D63D4EF6C03E4ED9BE3D
:1049C0003F4EAFD8434ECBC4454EC3BE474EB1D881
:1049D000484EB4C3494EE5D24B4EAED64C4EDACE1D
:1049E0004D4EA7D54E4EF5BA4F4EA6B7504ED6C037
:1049F000524EB9C6534ED2C5544EC7C7564ED4B9FF
:104A0000584ECBB3594ED2D25C4EBFD85D4EC5BEC8
:104A10005E4EF2C65F4EB2D2604EB0CF614EE7CF6F
:104A2000664EE9CA694EC0D8704EF2C2714ED2C20B
:104A3000734EE9C87E4EACC7864ECBC1884EE8D3D4
:104A4000894EF9D58B4EC2CA8C4EFEB68D4EA1D87A
:104A50008E4EDAD38F4EF7BF914EC6D4924EA5BB81
:104A6000934EC1D8944EE5CE954EAEBE984EA8D882
:104A70009A4EC7D19B4EA9D09F4EBDD8A04EEFD91C
:104A8000A14EF6CDA24EBABFA44EBBBDA54EA5BA4F
:104A9000A64EE0D2A74EFAB2A84EE0BAA94EB6C4CE
:104AA000AB4EEDCFAC4EA9BEAD4EA4CDAE4EC1C106
:104AB000B24ED7C7B34EF1D9B54EF4D9BA4ECBC822
:104AC000BB4EE9D8BF4EDAD2C04EB2CAC14ECAC838
:104AD000C24EECD8C34EEAD8C44EC6D8C54EF6BDB9
:104AE000C64ECDC6C74EF0B3C94EEBD8CA4EF1BDC7
:104AF000CB4EE9BDCD4ED4C8CE4ED3B4D14ED8C2E4
:104B0000D34ED6B2D44ED0D7D54ECBCAD64EFBCB91
:104B1000D74ECCD5D84EB6B8D94EC9CFDD4EDAD99E
:104B2000DE4EF0D8DF4EAAC7E14EEED8E34EFAB41F
:104B3000E44EEEC1E54ED4D2E84EEDD8EA4EC7D2EF
:104B4000EB4EEFD8EC4EC7C3F04EF6D1F24ED9D6AD
:104B5000F34EF2D8F54EF5D8F64EFEBCF74EDBBC60
:104B6000FB4ECEC8FD4EDDB7FF4EC2B7014FF3C6B8
:104B7000094FF8D80A4FC1D20D4FE9CE0E4FBFBC36
:104B80000F4FFCB7104FA5B7114FDDD0174FDAD636
:104B9000184FC5D3194FEFBB1A4FE1BB1B4FF1D8CC
:104BA0001E4FA1C91F4FB0CE204FABB4224FF3D838
:104BB000244FCBC9254FF6D8264FD7C2274FF7D859
:104BC0002A4FB1CE2B4FF9D82F4FAEB2304FC0B9CC
:104BD000324FA3D9344FE9B0364FE6C1384FECC954
:104BE0003A4FC5CB3C4FC6CB3D4FA4D9434FE8B558
:104BF000464FABB54D4FBBCE4E4FCDB54F4FA1D766
:104C0000504FF4D7514FD3D3534FE5CC554FCEBA75
:104C1000574FA2D9584FDCD9594FE0D35A4FFDD83E
:104C20005B4FF0B75C4FF7D75D4FFED85E4FFAD8B9
:104C30005F4FA1D9604FE3C4634FB6D3644FF4D83C
:104C4000654FDDD9674FFBD8694FE5C56C4FD0C0C4
:104C50006F4FF0D1704FDBB0734FD1BC744FA6D9FA
:104C6000764FA5D97B4FACD97C4FAED97E4FABD90F
:104C70007F4FB9CA834FA9D9844FB6D6884FDEB3C8
:104C8000894FA8D98B4FFDC08D4FCCCA8F4FAAD961
:104C9000914FA7D9944FB0D9974FB1B69B4FA9B9AF
:104CA0009D4FC0D2A04FC0CFA34FC2C2A54FC4BD1D
:104CB000A64FECD5A74FE0B2A84FC8C7A94FEBBF8E
:104CC000AA4FADD9AC4FAFD9AE4FEACEAF4FEEBA87
:104CD000B54FD6C7BF4FE3B1C34FD9B4C44FEDB63C
:104CE000C54FB4D9CA4FA1BFCE4FDED9CF4FCEC723
:104CF000D04FFEC0D14FB8D9D74FD7CBD84FFDB783
:104D0000DA4FB5D9DC4FB7D9DD4FA3B1DE4FE1D3D0
:104D1000DF4FB9D9E14FC5D0E34FB6D9E64FB1D98E
:104D2000E84FB2D9E94FA9C1EA4FB3D9ED4FF3BC6F
:104D3000EE4FDED0EF4FA9B8F14FE3BEF34FBDD930
:104D4000F84FBAD9FA4FB3B0FE4FC2D90C50C4D9FC
:104D50000D50B6B10F50BFD91250B9B51450F3BEB3
:104D60001850C8CC1950F2BA1A50D0D21C50C3D91E
:104D70001F50E8BD2150ABB32550C5D92650EBBE1E
:104D80002850C6D92950BBD92A50DFC42C50BED9CF
:104D90002D50C1D92E50C0D93A50AED53C50B5D6C1
:104DA0003E50E3C74350C8D94750D9BC4850CAD930
:104DB0004C50BCD94E50CBD94F50ABC65550C9D929
:104DC0005A50F6D75C50A3CD6550A1BD6C50CCD9DC
:104DD0007650BCC57750B5CD7B50CDD97E50C7D964
:104DE0007F50A5B38050FEBF8550B5B88850FCC039
:104DF0008D50F8B0A350F6B4A550CED9A750CFD956
:104E0000A850A2B4A950D0D9AC50DFB4B250C1B0B0
:104E1000BA50D1D9BB50B5C9CF50F1CFD650D2D9A5
:104E2000DA50C5C1E650D6D9E750AEC9EC50D5D955
:104E3000ED50D4D9EE50D7D9F350DBCBF550A9BD06
:104E4000FB50A7C60651D3D90751D8D90B51D9D990
:104E50001251E5C82151DCC03F51F9B64051A3D8E9
:104E60004151CAD44351AAD44451D6D04551E4B398
:104E70004651D7D54851C8CF4951E2B94B51CBBF64
:104E80004D51E2C35151D2B65451C3CD5551EED913
:104E90005651F0D95A51B3B55C51B5B66251A4BE62
:104EA0006551EBC86851ABC86B51CBB06C51ABB915
:104EB0006D51F9C16E51E2D97051BCC07151B2B996
:104EC0007351D8B97451CBD07551F8B17651E4C64D
:104ED0007751DFBE7851E4B57951C8D77B51F8D10D
:104EE0007C51E6BC7D51DECA8051BDBC8151E6D902
:104EF0008251E7D88551DAC48851D4B88951BDC8E8
:104F00008C51E1B28D51D9D49251B0C39551E1C3C6
:104F10009651A2DA9751DFC89951B4D09B51FCBE8B
:104F20009C51A9C5A051DAB9A251A3DAA451A9D4C0
:104F3000A551A4DAAB51FBD9AC51ACB6AF51EBB72C
:104F4000B051F9B1B151FCD9B251E5B3B351F6BE8C
:104F5000B551F6BFB651B1D2B751E4C0BB51B3B6EB
:104F6000BC51FED9BD51FDD9C051BBBEC451E0C634
:104F7000C651BCD7C751A1DAC951B9C1CB51F2B59D
:104F8000CC51E8C1CF51F5BCD151D5B4DB51DDC115
:104F9000DD51FDC4E051B8BCE151B2B7E451EFB707
:104FA000EB51ECD9ED51BEC6EF51ADBFF051CBBBCB
:104FB000F351CAB5F551C9DBF651D7D0F851B9CD87
:104FC000F951BCB0FA51F6B3FB51F7BBFC51CADB47
:104FD000FD51AFBAFF51E4D40052B6B50152F3B55A
:104FE0000252D6D80352D0C80652D6B70752D0C7FD
:104FF0000852D7D80A52AFBF0D52BBDB0E52D8D8D9
:105000001152CCD01252AEBB1652BEEB1752D0C1C9
:105010001852F5C11952F2D41A52D5B81B52B4B471
:105020001D52F5B32052BEC92452D0C52852D9C54D
:105030002952FBC02B52F0B12D52D9D82E52CEB9E5
:105040003052BDB53352DAD83652C6D63752A2CB1B
:105050003852AFC83952B2C93A52CCB43B52CCBF25
:105060003D52F4B93F52DBD84052DCD84152E7B64A
:105070004252C1BC4352EACC4A52F7CF4C52DDD81F
:105080004D52B0C75052D0B95152A3BD5452DECC8C
:105090005652CAC65C52E0D85E52DED86152DFD8A2
:1050A0006552FEB06752E7BE6952A3CA6A52F4BCA9
:1050B0006F52B1B87252EEB87D52E2D87F52CBBD7A
:1050C0008152E4D88252E3D88852FCC59052E5D888
:1050D0009352E6D89B52A6C19D52B0C89E52ECB0E6
:1050E0009F52A6B9A052D3BCA152F1CEA252BDDBB1
:1050F000A352D3C1A852AFB6A952FAD6AA52ACC590
:10510000AB52D9BDAC52BEDBAD52BFDBB152F8C021
:10511000B252A2BEB352CDC0BE52C0DBBF52C6CA4D
:10512000C352AAB2C752C2D3C952E3C3CB52ABD106
:10513000D052C2DBD252D5C0D652C3DBD852B1BF97
:10514000DF52BCC4E452DAC7F052C4DBF952E8D9EA
:10515000FA52D7C9FE52B4B9FF52F0CE0053C8D4A8
:105160000553FCB00653D2B40853D9D00D53E9D936
:105170000F53CBDE1053EBD91553B0D81653AFBB3A
:105180001753B1B11953D7B31A53CED81D53D1D435
:105190002053B3BD2153EFBF2353BBCF2653D0D8E9
:1051A0002A53CBB72E53D1D83953A5C63A53F8C793
:1051B0003B53BDD23E53D2D83F53E4C44153AECA51
:1051C0004353A7C74553A6D84753FDC94853E7CE15
:1051D0004953DCBB4A53EBB04E53AABB4F53ADD03F
:1051E0005153B0B15253E4D75353BFD75553A5B51C
:1051F0005653F4C25753CFC45A53A9B25C53B7B2F3
:105200005E53E5B15F53B2DF6053BCD56153A8BFB5
:105210006253ACC26353D5D86453B1C26653D4D879
:105220006753D4CE6953E0DA6B53C0CE6E53B4D813
:105230006F53AEC37053A1D37153A3CE7353B4BC99
:105240007453B4C87553D1C27753EDBE7853B6D0FA
:105250007A53E1DA7F53E4C78253A7B38453F2B69B
:105260008553FCCC8653FAC08953F7C08B53B9D110
:105270008C53E1D18D53C7D89553DEB29853E5C016
:105280009A53F1BA9D53C8D89F53ADD4A253E1CFDE
:10529000A353C9D8A553CAD8A653C3CFA853F8B3AC
:1052A000A953C7BEAE53CBD8B653CCDBBB53A5C8AE
:1052B000BF53D8CFC153FEC8C253CEB2C853D6D302
:1052C000C953E6B2CA53B0BCCB53D1D3CC53ABCB4A
:1052D000CD53B4B7D153A2B7D453E5CAD653A1C85E
:1052E000D753DCCAD853E4B1D953F0D0DB53D1C57E
:1052F000DF53C5DBE053FEB5E353DABFE453C5B972
:10530000E553E4BEE653EDC1E853B6DFE953B5DF3C
:10531000EA53BBD6EB53D0BDEC53D9D5ED53C8B04F
:10532000EE53A3B6EF53C9BFF053A8CCF153B3DF8C
:10533000F253B7CAF353D2D3F553CFD8F653B6D2FC
:10534000F753C5BAF853BECBF953BECCFB53B7DF06
:10535000FC53F0B5FD53B4DF0154F5D30354D4B37B
:105360000454F7B80654BADF0854CFBA0954AABC9B
:105370000A54F5B50C54ACCD0D54FBC30E54F3BA1E
:105380000F54F4C01054C2CD1154F2CF1254B8DFF0
:105390001354C5CF1554C0C21654B9DF1754F0C208
:1053A0001B54FDBE1D54DFC11E54CCCD1F54F7D27B
:1053B0002054CDB72154C1DF2354C4DF2654F1B7A4
:1053C0002754C9B02854D6B62954D4B72B54ACBAF4
:1053D0002C54FDCC2D54D4BF2E54B1CB2F54F4C635
:1053E0003154A8D63254C5DF3454E2CE3554B3B369
:1053F0003854FCCE3954B5B43B54C7CE3C54F0BA03
:105400003E54E1CE4054BDD14354C0DF4654F4B4C1
:105410004854CAB34A54E6B84B54BBDF5054C5C4D1
:105420005254BCDF5354BDDF5454BEDF5554BBC58A
:105430005654BFDF5754C2DF5854B1D45954C3DF58
:105440005B54BAC75C54D8CE6254D8C46454CADF23
:105450006654CFDF6854DCD67154C9DF7254DADF8A
:105460007354B6CE7554C7BA7654CEDF7754C8DFBE
:105470007854DEC57B54EBC97C54F4BA7D54FCC32C
:105480008054D7BE8254C6DF8454CDDF8654D8C53D
:105490008B54A6D58C54CDBA8E54CCBE8F54BDD36C
:1054A0009054C0B89254E4D69454C7DF9554BEB912
:1054B0009654A7BF9954FCC19A54CBDF9B54CCDFC0
:1054C0009D54D0DFA354DBDFA454E5DFA654D7DF1F
:1054D000A754D6DFA854C9D7A954E3DFAA54E4DF00
:1054E000AB54EBE5AC54A7D2AD54D2DFAF54A9BF57
:1054F000B154DBD4B354C8BFB454D4DFB854CCCF08
:10550000BB54DDDFBD54CAD1BF54DEDFC054A7B0E9
:10551000C154B7C6C254D3DFC454E5BAC654DFB6CB
:10552000C754DBCDC854FEB9C954D5D4CC54DFDF41
:10553000CD54ECCFCE54A5B0CF54E7DFD054D1DF5B
:10554000D154C6D1D254D5DFD354D8DFD454D9DF07
:10555000D554DCDFD754A9BBD954E0DFDA54E1DFFE
:10556000DC54E2DFDD54E6DFDE54E8DFDF54B4D3A1
:10557000E554E7B8E654B6C5E754EADFE854DAC9BB
:10558000E954A8C1EA54C4C4ED54DEBFEE54F8CFC8
:10559000F254DCD5F354EEDFFA54B8B2FC54DFBA5F
:1055A000FD54ECDFFF54C1DB0155E4D10655F4CBCB
:1055B0000755BDB40955A6B00F55F1DF1055C6CC3F
:1055C0001155F2DF1455EDDF1B55E9DF2055EBDFF8
:1055D0002255EFDF2355F0DF2455BDBB2755F3DF00
:1055E0002A55F4DF2C55A3BB2E55DBCA2F55A8CE68
:1055F0003055A7E03155AAB33355A6E03755A1E0A1
:105600003C55FEDF3E55D9CD3F55FCDF4155FADF15
:105610004355D0BF4455C4D74655CCC94955F8DF8A
:105620004A55A1B05055FDDF5555FBDF5655A2E058
:105630005C55A8E06155C8B76455A1C66555B6C9A3
:105640006655B2C06755F5DF6A55BEC56C55C4D8FE
:105650006D55F9DF6E55F6C47555A3E07655A4E097
:105660007755A5E07855A5D07B55B4E07C55E4CCC2
:105670007E55B1E08055A6BF8155AFE08255B9CEC9
:105680008355ABE08455C6C98755AEC08855AEE09A
:105690008955EDBA8A55B0BA8B55A9E08F55F6DF1A
:1056A0009155B3E09455B8E09855ADB49955B9E02B
:1056B0009C55B2CF9D55C8BA9F55B0E0A755FAD0BA
:1056C000B155ACE0B355FBD4B555F7DFB755E7C5D9
:1056D000B955ADE0BB55F7D3BD55B6E0BE55B7E003
:1056E000C455C4E0C555E1D0C955BCE0CC55C9E0AE
:1056F000CD55CAE0D155BEE0D255AAE0D355A4C9D4
:10570000D455C1E0D655B2E0DC55C8CADD55C3E07A
:10571000DF55B5E0E155CBCEE355C3CBE455CDE045
:10572000E555C6E0E655C2E0E855CBE0EA55BAE0FB
:10573000EB55BFE0EC55C0E0EF55C5E0F255C7E0D2
:10574000F355C8E0F555CCE0F755BBE0FD55D4CB9B
:10575000FE55D5E00056D6E00156D2E00856D0E01E
:105760000956CEBC0C56D1E00E56C2B80F56C5D85D
:105770001856EAD01B56EFC21E56CFE01F56BDE0AA
:105780002356D4E02456D3E02756D7E02C56DCE04D
:105790002D56D8E03156F6D63256B0B33456ECD743
:1057A0003656BBCB3956DAE03B56FBCE3F56D9BA1C
:1057B0004C56E1E04D56DDE04E56ADD25456E2E097
:1057C0005756DBE05856D9E05956DFE05C56E0E02A
:1057D0006256DEE06456E4E06856F7C66956ACD817
:1057E0006A56EBD46B56E6E06C56C9CA7156E5E0D2
:1057F0007656C1B87B56E7E07C56E8E08556E9E08E
:105800008656E3E08E56BFBA8F56E7CC9356EAE051
:10581000A356F9CFAF56EBE0B756C2C8BC56C0BDD1
:10582000CA56D2C4D456ECE0D756EDE0DA56F4C7E7
:10583000DB56C4CBDD56EEE0DE56D8BBDF56B6D81D
:10584000E056F2D2E156EFE0E256C5CDE456DAB6C4
:10585000EB56F1E0ED56B0D4F056A7C0F156D1B4F6
:10586000F456A7CEF556F0E0F956F2E0FA56CCB968
:10587000FD56FAB9FE56BCCDFF56F3E00357D4C629
:105880000457F4E00657B2D40857A6C80957F6E003
:105890000A57F5E01C57F7E01F57C1CD2357A5CA9B
:1058A0002857DAD42957D7DB2A57D9DB2C57D8DB2E
:1058B0002D57E7B92E57DCDB2F57DDDB3057D8B536
:1058C0003357DADB3957DBDB3A57A1B33B57DFDB22
:1058D0003E57F8BB4057B7D64257E0DB4757F9BEB3
:1058E0004A57BBB74C57D0DB4D57AECC4E57B2BF23
:1058F0004F57B5BB5057F8D75157D3BF5757E9BF8C
:105900005A57E1BC5B57B3CC5C57DEDB5D57D3B075
:105910005E57EBCE5F57D8B76057B9D76157C2C64D
:105920006457A4C06657B9CC6857E7DB6957E1DB19
:105930006A57BAC66B57E3DB6D57E8DB6F57F7C59D
:105940007357EADB7657E9DB7757C0BF7B57E6DB57
:105950007C57E5DB8257B9B48357ACC08457A2C2E9
:105960008557E2DB8657E4DB8B57CDD08C57EDDBD8
:105970009257DDC09357F2DB9B57E2B6A057F3DB9B
:10598000A157D2DBA257B8B9A357ABD4A457ECDBCD
:10599000A657D1BFA757F0DBA957D1DBAB57E6B568
:1059A000AD57EBDBAE57E5BFB257EEDBB457F1DBDB
:1059B000B857F9DBC257A1B9C357A3B0CB57F1C24F
:1059C000CE57C7B3CF57EFDBD257F8DBD457D2C689
:1059D000D557F4DBD857F5DBD957F7DBDA57F6DBC9
:1059E000DD57FEDBDF57F2D3E057BAB2E457FDDBF9
:1059F000ED57A4DCEF57FBDBF457FADBF857FCDB81
:105A0000F957E0C5FA57F9BBFD57A3DC0058A5DCF0
:105A10000258C3CC0658D1B60758C0DD0B58A1DCDC
:105A20000D58A2DC1158B5C71558E9B61958A7DCAE
:105A30001E58A6DC2058A9DC2158A4B12458CCB5A6
:105A40002A58B0BF3058DFD13558C2B64458A8DC08
:105A50004C58FACB4D58F3EB5158DCCB5458FECB95
:105A60005858C1CC5E58FBC86558AADC6B58EECCC0
:105A70006C58ABDC7E58D3DB8058AFDC8158ACDC93
:105A80008358B3BE8558FBCA8958ADDC9258CAC941
:105A90009358B9C49958BDC79A58AEDC9E58F6D4ED
:105AA0009F58E6D0A858ABC4A958D5B6BC58D4DB8B
:105AB000C158DAB1C558D5DBD158D6DBD558BEBAF6
:105AC000E458C0C8EB58BFCAEC58C9C8EE58B3D7A1
:105AD000F058F9C9F358C7BFF658F8BAF958BCD20C
:105AE0000259BAE20459A6B40759B8B10D59B4B86D
:105AF0000F59C4CF1459E7D91559A6CF1659E2CD7D
:105B00001959EDD91A59E0B61C59B9D21F59BBB968
:105B10002459B9E22559B7E22759F3B42959ECCCF5
:105B20002A59ABCC2B59F2B72D59B2D82E59EBD1FB
:105B30002F59BBBA3159A7CA3459B7CD3759C4D236
:105B40003859E4BF3959D0BC3A59E1B63C59C5DEA1
:105B50004159C6DE4259BCDB4459D9D14759E6C642
:105B60004859CEC44959EEB74B59DCB74E59FCBF22
:105B70004F59E0D75159F5C65459BCB15559C8DEF3
:105B80005659B1BD5759D7CC5859CADE5A59C9DEF2
:105B90006059ECB56259DDC96559C2B07359AEC5DB
:105BA0007459ABC57659CCC47859E9BC7959FDCB49
:105BB0007D59C3BA8159F9E58259E7C88359FAE595
:105BC0008459FDCD8659B1D78759BEB88859E8C2E6
:105BD0008A59D1C88D59FBE59259CAB69359CBBCA5
:105BE0009659FDD19759A1E69959EEC39E59A4E65D
:105BF000A359FEE5A459A5E6A559D7CDA859C1B723
:105C0000A959FCE5AA59FDE5AB59A3E6AE59DDC497
:105C1000AF59A8E6B259A7E6B959C3C3BB59DEC606
:105C2000BE59AAE6C659B7C4CA59A2E6CB59BCCADE
:105C3000D059E3BDD159C3B9D259A6E6D359D5D06D
:105C4000D459AFCED759A9E6D859B0E6DA59A6D279
:105C5000DC59AABDDD59ADE6E359AFE6E559D1C03F
:105C6000E859CCD2EC59A7BCF959B1E6FB59F6D2A8
:105C7000FF59CBD7015AFECD035ADECD045AA6C236
:105C8000055AABE6065AACE6075ABFBD085AAEE65F
:105C9000095AB3E60C5AB2E6115AB6E6135AB8E6F8
:105CA000185AEFC41C5AC8C41F5AEABE205AEFC97A
:105CB000235AB7E6255AF0B6295AE4C3315AE9D334
:105CC000325AB4E6345AB5E6365AA2C83C5ABDE652
:105CD000405AB9E6465AC5C6495AF1CD4A5ABBE6BA
:105CE000555ABCE65A5AE9BB625ABEE6675ABAE64A
:105CF0006A5AB7C0745AA4D3755ABFE6765AF4C923
:105D0000775AC3E67A5AC4E67F5AF6D0925ABDC390
:105D10009A5AC4C39B5AC2E6AA5AC1E6B25AC7E607
:105D2000B35AB1CFB55AF4EBB85ACAE6BE5AC5E673
:105D3000C15ADEBCC25AA9C9C95AB5BCCC5AD3CFC4
:105D4000D25AC8E6D45AC9E6D65ACEE6D85AD0E6D0
:105D5000DC5AD1E6E05ACBE6E15AD5B5E35ACCE6B7
:105D6000E65ACFE6E95ADBC4EB5AC6E6F15ACDE66D
:105D7000095BD2E6165BD4E6175BD3E6325BD5E669
:105D8000345BF8D9375BD6E6405BD7E6505BD3D7B8
:105D9000515BDDE6535BDEE6545BD7BF555BD0D489
:105DA000575BD6D7585BE6B4595BEFCB5A5BDAE664
:105DB0005B5BC3D85C5BCED75D5BA2D05F5BCFC3C0
:105DC000625BDFE6635BBEBC645BC2B9655BDBE65E
:105DD000665BA7D1695BA2BA6A5BCFC26C5BABD8CA
:105DE000705BEBCA715BEEE5735BDCE6755BF5B788
:105DF0007A5BE6C87D5BF5C4805BB2E5815BFEC47F
:105E0000835BFCCB845BB3E5855BACD5875BEED372
:105E1000885BD8CA895BB2B08B5BCECB8C5BEACD9A
:105E20008F5BEABA935BB5E5955BB4E5975BDAD730
:105E3000985BD9B9995BE6D69A5BA8B69B5BF0CD27
:105E40009C5BCBD29D5BA6B19E5BB5CAA05BE8B361
:105E5000A15BF3C9A25BCDBFA35BFBD0A45BD2CA9D
:105E6000A55BB6E5A65BC2BBAA5BDCCFAB5BACB9FE
:105E7000B05BD7D4B35BA6BAB45BE7D1B55BFCCF5C
:105E8000B65BD2BCB85BB7E5B95BDDC8BD5BEDBF47
:105E9000BE5BF6B1BF5BDECBC25BC5BCC45BC4BC42
:105EA000C55BFAD2C65BDCC3C75BDCBFCC5BBBB8EF
:105EB000D05BC2C3D25BAEBAD35BA2D4DD5BDEC71C
:105EC000DE5BAFC4DF5BECB2E15BD1B9E45BBBE5A9
:105ED000E55BC8C1E85BAFD5EE5BBCE5F05BBEE55A
:105EE000F85BE7B4F95BD4B6FA5BC2CBFB5BB0D12D
:105EF000FC5BBCB5FF5BD9CA015CE2B7045CE4C9DA
:105F0000065CABBD095CBECE0A5CF0D70F5CA1D0CD
:105F1000115CD9C9145CFBB6155CD8E6165CE2BC12
:105F2000185CBEB31A5CD0C91C5CD9E61D5CA2B378
:105F3000225CCCDE245CC8D3255CCDDE275CA2D2FB
:105F40002C5CCEDE315CCDBE345CCFDE385CACCABE
:105F5000395CFCD23A5CDFB33B5CEAE53C5CE1C413
:105F60003D5CA1BE3E5CB2CE3F5CF2C4405CD6BE9E
:105F7000415CA8C6425CE3B2455CD3BE485CFCC74A
:105F8000495CEBCC4A5CECBD4B5CDDCE4E5CBACAE6
:105F90004F5CC1C6505CECE5515CBCD0555CB9D5DA
:105FA000595CEDE55E5CF4CA605CC0CD615CC5C265
:105FB000635CEFE5655CC4C2665CF0E56E5CF8E5C9
:105FC0006F5CCDCD715CBDC9795CD9D27A5CA8E13A
:105FD0007F5CECD3815CEACB825CF1C6885CACE18F
:105FE0008C5CA7E18D5CA9E1905CAAE1915CAFE1DA
:105FF000945CEDB2965CABE1975CDAB8985CADE18D
:10600000995CAEE19A5CB0E19B5CBAB59C5CB1E195
:10601000A25CB3E1A35CB8E1A95CD2D1AB5CB6E110
:10602000AC5CB5E1AD5CEBC1B15CB7E1B35CC0D4D5
:10603000B55CB2E1B75CBAE1B85CB6B0BD5CB4E1E6
:10604000BF5CF9BFC15CB9E1C45CBBE1CB5CBEE144
:10605000D25CBCE1D95CC5D6E15CBFCFE45CBDE1FC
:10606000E55CBFE1E65CCDC2E85CEBB6EA5CF8D388
:10607000ED5CCDC7F05CE5B7FB5CFEBE025DC0E148
:10608000035DC1E1065DC7E1075DE7B30E5DE9C6EB
:10609000145DDEB4165DC2D11B5DC8E11E5DC6E1B4
:1060A000245DC5E1265DC3E1275DC2E1295DC0B184
:1060B0002D5DB8D52E5DC4E1345DCBE13D5DCCE115
:1060C0003E5DCAE1475DFAEF4A5DD3E14B5DD2E147
:1060D0004C5DB6C7585DC9E15B5DCEE15D5DD0E169
:1060E000695DD4E16B5DD1E16C5DCDE16F5DCFE1C8
:1060F000745DD5E1825DD6E1995DD7E19D5DD8E122
:10610000B75DDAE1C55DDBE1CD5DA1CEDB5DDDE74D
:10611000DD5DA8B4DE5DDDD6E15DB2D1E25DB2B396
:10612000E55DA4B9E65DF3D7E75DC9C7E85DDEBE0E
:10613000E95DAEB9EB5DD7CEEE5DEEB2EF5DCFDBE4
:10614000F15DBABCF25DD1D2F35DC8CBF45DCDB0E8
:10615000F75DEFCFFD5DE3D9FE5DEDBD015ED2B130
:10616000025ED0CA035EBCB2055EA7CB065EABB7CB
:10617000085EA6CA0C5EA3CF0F5EF8E0105ECAD51B
:10618000115EFBE0145EFAE0155EC1C5165EFBCC45
:10619000185EB1C1195EF9E01A5EE3D61B5EAFB2BC
:1061A0001C5EC4D61D5EDBB5265EF8B4275EA1D6A4
:1061B0002D5EAFCF2E5EEFB0315EFCE0375EA1E129
:1061C000385EA3B33B5EFDE03C5EFEE03D5EB1C3E6
:1061D000425EDDC3445EA2E1455EF9B74C5ECFBBD3
:1061E000545EA3E1555EBBC45B5EA4E15E5EA5E1C7
:1061F000615EA6E1625EB1B4725EC9B8735EBDC68F
:10620000745EEAC4765EA2B2785ED2D07A5EDBE7D4
:106210007B5EC3BB7C5ED7D37D5EC4D37F5EE3B9B8
:10622000805ECFE2845EAFD7865EECC7875ED3B177
:106230008A5EB2B48B5ED1E28F5EF2D0905EAEC267
:10624000915ED0E2935EE2BF945EA6D3955ED7B531
:10625000965ED2E2975EEAB5995EEDC39A5EFDB8AE
:106260009C5EAEB89E5ED3C59F5ECFB7A05ED4E203
:10627000A55ED3E2A65EC8B6A75EF9D7AD5EA5CD92
:10628000B35ED8E2B55ED6E2B65EFCCAB75EB5BF15
:10629000B85EB9D3B95ED5E2BE5ED7E2C95EAEC123
:1062A000CA5EC8C0D15EDBE2D25EDAE2D35EAAC0CB
:1062B000D65ECEC1DB5EDCE2E85EDDE2EA5EDEE217
:1062C000F45EC8DBF65ED3D1F75EA2CDFA5EA8BD60
:1062D000FE5EC3DEFF5EA5D8005FAABF015FCDDB17
:1062E000025FECD2035FFAC6045FAAC5085FC4DE92
:1062F0000A5FD7B10B5FAEDF0F5FBDCA115FB1DFC1
:10630000135FADB9155FFDD2175FA5B8185FEBBA83
:106310001B5FDAB31F5FDCB5205FC5D5255FD6C331
:10632000265FD2CF275FA1BB295FF3E52A5FF2E5A5
:106330002D5FF4E52F5FE4CD315FF5C8395FAFB570
:106340003A5FBFC73C5FF6E5405FB0EC505FE6E503
:10635000525FE9B9535FB1B5555FBCC2565FE8E51E
:10636000575FE7E5585FE9E55D5FCDD2615FEAE140
:10637000625FCED0645FAECD665FE5D1695FCAB2C1
:106380006A5FEBB16C5FF2B16D5FEDC5705FC3D555
:10639000715FB0D3735FDCE1775FDDE1795FDBD202
:1063A0007B5FB9B37C5FCBB1805FF9CD815FF7D5FF
:1063B000825FDEE1845FB6BE855FFDB4875FDFE1AB
:1063C000885FDCBA895FE0E18A5FB2BB8B5FC9C2DC
:1063D0008C5FE1E1905FECD0925FBDCD955FE2E133
:1063E000975FC3B5985FC7C5995FE3E19C5FE4E140
:1063F000A15FF9D3A85FE5E1AA5FADD1AD5FE6E1AA
:10640000AE5FA2CEB55FE7E1B75FC2B5BC5FE8E1C2
:10641000BD5FD5BBC35FC4D0C45FE0E2C55FD8B188
:10642000C65FE4D2C95FE1E2CC5FC9BCCD5FCCC836
:10643000CF5FE3E2D05FFEECD15FFDECD25FAFDF78
:10644000D65FE2E2D75FBED6D85FFCCDD95FA6C3E8
:10645000DD5FC3E3E05FD2D6E15FE7E2E45FE8E25D
:10646000E75FC7D3EA5FECE2EB5FECBFED5FEDE225
:10647000EE5FE5E2F15FC0B3F55FEEC4F85FEEE218
:10648000FB5FC3D0FD5FF6BAFE5FE9E2FF5FDEB7F8
:106490000060B3BB0160ACCC0260CBCB0360E4E234
:1064A0000460E6E20560EAE20660EBE20A60F7E219
:1064B0000D60F4E20E60F5D40F60F3E21260ADC53A
:1064C0001460FAD51560C2C51660C0B21960EFE25B
:1064D0001B60F2E21C60AFC11D60BCCB2060A1B5A7
:1064E0002160F9E22560B1BC2660F1E22760D4D0DA
:1064F0002860B9D42960F5E22A60D6B92B60F6E2AB
:106500002F60D3C73560F0E23B60DCD73C60A1ED83
:106510003F60F8E24160A5ED4260FEE24360D1CA0F
:106520004B60B5C14D60D0BB5060D6BF5260E3BA7E
:106530005560A1CB5960A6ED5A60A3ED5D60A2ED58
:106540006260D6BB6360A7ED6460F4D06760A4EDC1
:106550006860DEBA6960F7B66A60A1E36B60B2B6E4
:106560006C60F1CC6D60A7B96F60A2CF7060A1C7FD
:106570007360D2BF7660F1B67860FAE27960FBE2D0
:106580007A60FDE27B60FCE27C60D5C47D60A2E3C2
:106590007F60C1D38360A7E38460C4C78960A4CF50
:1065A0008C60A9E38D60B7BA9260A8E39460DABB0F
:1065B0009660A3E39A60A4E39B60AAE39D60A6E3D0
:1065C0009F60F2CEA060C6D3A360BCBBA660C3D45C
:1065D000A860FAC4AB60A8EDAC60FCD0AD60A5E3E8
:1065E000AF60F5C3B160ADE3B260AFB1B460B2E328
:1065F000B860C2BCBB60ACE3BC60BFB5C560E9C7F6
:10660000C660B0E3CA60AABECB60EFCDD160F3BB79
:10661000D560E8CCD860AFE3DA60B1E3DC60A7CF47
:10662000DD60AEE3DF60A9CEE060DDBBE660EBB528
:10663000E760E5BEE860D2B2E960CDB3EB60B9B126
:10664000EC60ABE3ED60D1B2EE60ACB5EF60DFB90A
:10665000F060E8B6F360EBCFF460B7E3F660CCBB74
:10666000F960C7C8FA60CAD00061B8E30161EEB34F
:106670000661A9ED0861FAD30961E4D30D61AAEDC1
:106680000E61B9E30F61E2D21561B5E31A61DED3A1
:106690001F61D0B82061B3E32361B6E32461DFB7A3
:1066A0002661B4E32761A2C02B61BAE33F61B8D48D
:1066B0004861C8B44A61BBE34C61C5BB4E61F7C9D0
:1066C0005161E5C95561BDC45D61ABED6261FDC25B
:1066D0006761DBBB6861AEBF7061BFCE7561BCE353
:1066E0007761B6BF8B61EFB18E61F7D49461BEE381
:1066F0009D61ADEDA761BFE3A861A9BAA961ACED49
:10670000AC61BDE3B761C0E3BE61B6BAC261AEB60B
:10671000C861B8D0CA61C3B0CB61AEEDD161AFED95
:10672000D261C1C0D461C1E3E661B3C5F561C2E322
:10673000FF61B2DC0662B0ED0862EAB80A62ECCE34
:106740000B62A7EA0C62E7D00D62F9CA0E62D6C8E6
:106750000F62B7CF1062C9B31162D2CE1262E4BD2C
:106760001562DEE31662F2BB1762A8EA1862BDD5B5
:106770001A62DDC61B62A9EA1F62AAEA2162ACEABC
:106780002262ABEA2462AEEA2562ADEA2A62D8BD93
:106790002C62AFEA2E62BEC23362C1B43462F7B477
:1067A0003762A7BB3D62E6EC3E62E5EC3F62BFB7F5
:1067B0004062F9CB4162E2B14362E7EC4762C8C98B
:1067C0004862E8EC4962E9EC4B62D6CA4C62D0DE22
:1067D0004D62C5B24E62FAD45162CBC65262C7B0A6
:1067E0005362F2B45462D3C85862D0CD5B62B8BF72
:1067F0006362DBBF6662A4C76762B4D66962A9C080
:106800006A62D1DE6B62A8C96C62EFD16D62A4C509
:106810006E62E7B06F62B6B37062C5C87362E2B011
:106820007662F6B77962FAC57C62F3B67E62D2D53B
:106830007F62D0B38062BCBC8462ADB38962F1BEBA
:106840008A62D1B09162D6D29262E3CA9362A5D72E
:106850009562B6CD9662B6B69762B9BF9862DBD53F
:106860009A62A7B89B62D7C59F62D2DEA062D9BFE9
:10687000A162D5C2A262C0C7A462A4BBA562A8B12E
:10688000A862EAC5AB62FBC5AC62A7CCB162A7B196
:10689000B562D6B5B962A8C4BB62D3DEBC62BAD158
:1068A000BD62E9B3BF62F2C3C262F7B7C462F4D695
:1068B000C562A3B5C662F0B2C762B4C4C862E9C417
:1068C000C962ADC0CA62D4DECC62E8B0CD62C4C5D4
:1068D000CE62E0C1D062D5B9D262DCBED362D8CD7F
:1068E000D462CEB0D662CFCDD762D6DED862D0BE6B
:1068F000D962BED7DA62D5DEDB62D0D5DC62DDB02C
:10690000DF62E2C4E262A3C2E362F0BCE562B5D337
:10691000E662B9C0E762A1C5E862A6B2E962F1D455
:10692000EC62A8C0ED62C3CAEE62D7DEEF62FCD5AE
:10693000F162B0B9F362ADC8F462A9CBF662D9DEF8
:10694000F762BDBFFC62B4C6FD62A7D7FE62B0CAE3
:10695000FF62C3C40163D6B30263D2B90763B8D67A
:106960000863FCEA0963B4B00E63E6BF1163F4CCBC
:106970001663DACD1A63BFD61B63CEC21D63CECEBB
:106980001E63A2CC1F63AED02063D3C42163B2B513
:106990002263D8DE2363F5D52463B7BC2563D3BB5C
:1069A0002863A4B02A63B2C52B63ECB42F63F1D57E
:1069B0003263FDEA3963DADE3A63A6CD3D63ECCD9E
:1069C0004263E6CE4363DCDE4563B1CD4663A6C0D9
:1069D0004963BDD74B63DBDE4C63C6B04D63B4BACD
:1069E0004E63D3C94F63F3C45063E8BE5563B6B278
:1069F0005E63CCC05F63F0CB6163F1BC6263BBBB21
:106A00006363B7B56763F5C56963E6DE6D63E3DEAF
:106A10006E63DDBE7163DFDE7663B7B47763DDBDC1
:106A20007A63E0DE7B63EDC48063C6CF8263E0B54A
:106A30008763DEB68863DACA8963F4B58A63E5DE04
:106A40008C63C6D58E63E1DE8F63CDCC9063FEC6CA
:106A50009263C5C59663B4D29863F2BEA063D3C2F5
:106A6000A263BDCCA363B8B3A563D3BDA763D8BFEE
:106A7000A863C6CDA963DAD1AA63EBB4AC63E4DE44
:106A8000AD63DDDEAE63E7DEB063FEEAB363B0C2E2
:106A9000B463E2DEB763C0D6B863A7B5BA63F4B235
:106AA000BC63E8DEBE63F2DEC463EDDEC663F1DE26
:106AB000C963E0C8CD63E1D7CE63EFDECF63E8C33F
:106AC000D063E1CCD263E5B2D663BED2DE63EEDE44
:106AD000E063EBDEE163D5CEE363A7B4E963ABBF6C
:106AE000EA63BEBEED63D2BDF263E9DEF463AED409
:106AF000F663DEDEF863EADEFD63BFC0FF63ECDE53
:106B00000064F3B20164E9B80264A7C20564C1BDC0
:106B10000B64F5DE0C64F8DE0F64ABB21064A4B451
:106B20001364EAB41464A6C91B64F6DE1C64D1CBFA
:106B30001E64E3B82064F7DE2164FADE2664F9DE21
:106B40002A64C2CC2C64E1B02D64EEB43464BAE59E
:106B50003A64AFD03D64EBB23F64A1EB4164F4DE34
:106B60004464E3C94564F3DE4664DAB04764A1D205
:106B70004864F7B14A64AFCC5264F0DE5464A4CBED
:106B80005864AAD55E64FBDE6764DDB46964A6C49C
:106B90006D64FDDE7864FEC37964A1C47A64A1DF0C
:106BA0008264CCC18464FCDE8564EFBE8764B2C6B7
:106BB0009164C5B39264F6C89564BACB9664FEDE60
:106BC0009964A4DF9E64B2D7A464B7B3A964C3C1B7
:106BD000AC64CBC7AD64A5B2AE64E9B4B064ABD766
:106BE000B564ECC4B764A2DFB864A3DFBA64A5DF00
:106BF000BC64B3BAC064A6DFC264DEC0C564C3C9E6
