:020000040800F2
:10000000C8A3002045010008D91A0008D519000826
:100010006D1A0008C10200087930000800000000D5
:10002000000000000000000000000000F9200008AF
:10003000F110000800000000651B0008E121000825
:100040005F0100085F0100085F0100085F01000810
:100050005F0100085F0100085F0100085F01000800
:100060005F0100085F0100085F0100085F010008F0
:100070005F0100085F010008C90E00085F01000869
:100080005F0100085F0100085F0100085F010008D0
:10009000293000085F0100085F0100085F010008C7
:1000A0005F0100085F0100085F0100085F010008B0
:1000B0005F0100085F0100085F0100085F010008A0
:1000C0005F0100085F0100085F0100085F01000890
:1000D0005F0100086D2D0008ED2D00085F0100088C
:1000E0005F0100085F0100081D3000085F01000883
:1000F0005F0100085F0100085F0100085F01000860
:100100005F0100085F0100085F0100085F0100084F
:10011000952B0008E92B00085F0100085F0100082B
:100120005F0100085F0100085F0100085F0100082F
:10013000DFF80CD000F018F800480047E130000864
:10014000C8A300200648804706480047FEE7FEE7B0
:10015000FEE7FEE7FEE7FEE7FEE7FEE7FEE7FEE777
:10016000E921000831010008064C074D06E0E0686F
:1001700040F0010394E8070098471034AC42F6D3EE
:10018000FFF7DAFF603100088031000882B02DE906
:10019000FF1FEFF3038001B4684600F1400000E95F
:1001A00001400C480168C1F800D00B48D0F800D0DD
:1001B00001BC80F30388BDE8FF1F01B000BD064805
:1001C000D0F800D001BC80F30388BDE8FF1F01B068
:1001D00000BD00004400002040000020032806D09D
:1001E00004280AD005280ED0062818D111E00021D5
:1001F0000C4A51700C21117011E00021094A117054
:100200000C2151700BE00021064AD1700C21917035
:1002100005E00021034A91700C21D17000BF00BF9E
:10022000704700007803002026E0642002F0DAF92D
:1002300000241BE01148005D20B11048005D401E05
:100240000E4908550D48005D38B90D480069012177
:10025000A14088430A49086106E009480069012174
:10026000A140084306490861601CC4B20E2CE1DBC2
:100270000349086900F014FED7E700007803002066
:100280002403002006E04FF47A7100BF0A00A1F1B8
:100290000101FBD10200A0F10100F4D17047F0B5DB
:1002A000034600201C460D46104603E014F8016B7F
:1002B00005F8016B1600A2F10107BAB2F6D1F0BD44
:1002C00000BFFEE708B50121842001F0B5FD4820FC
:1002D0008DF803004FF40060ADF80000694608484F
:1002E00001F02AFA18208DF8030001208DF8020091
:1002F0000003ADF800006946014801F01DFA08BD91
:100300000008014008B514208DF8000000208DF889
:1003100001008DF8020001208DF80300684601F00D
:10032000DDFB08BDB1F5007F3AD00FDC202928D0D5
:1003300006DC01291CD004291DD0082940D11DE06C
:10034000402921D0B1F5807F3AD126E0B1F5004FA8
:1003500031D006DCB1F5806F25D0B1F5006F2FD11B
:1003600024E0B1F5803F12D0B1F5003F28D111E073
:10037000154A826025E00822C26022E01022C26095
:100380001FE0082202611CE01022026119E008222D
:10039000426016E01022426013E00422426010E046
:1003A000042242600DE0042242600AE000228261E1
:1003B0000422426005E0002282610422426000E0E3
:1003C00000BF00BF704700000101010010B50446E6
:1003D0000B48844209D10121480601F01DFD00218E
:1003E0004FF0007001F018FD08E00121880601F0CF
:1003F00013FD00214FF0806001F00EFD10BD0000E4
:100400000064004010B50021837A012202FA03F152
:100410003D4A126842F001023B4B1A603A4A1C32D4
:1004200012688A43384B1C331A60027BCAB9364AB9
:100430000C3212688A43344B0C331A604288C388EA
:1004400042EA0343304A4032847A42F83430028828
:10045000838842EA03432C4A4032847A02EBC40286
:100460005360027B012A19D1274A0C3212680A43D1
:10047000254B0C331A604288038842EA0343224A20
:100480004032847A42F83430C288838842EA034397
:100490001D4A4032847A02EBC4025360C27A3AB9F0
:1004A000194A121D12688A43174B1B1D1A6006E079
:1004B000154A121D12680A43134B1B1D1A6002894C
:1004C00032B9114A143212688A430F4B14331A603E
:1004D0000289012A06D10C4A143212680A430A4BD7
:1004E00014331A60427B012A06D1074A1C32126873
:1004F0000A43054B1C331A60034A126822F00102BA
:10050000014B1A6010BD00000066004070B5044643
:100510000D4600266069284271D0B5F5807F5CD019
:1005200010DC082D35D006DC012D20D0022D24D082
:10053000042D72D127E0102D31D0202D35D0402D43
:100540006BD138E0B5F5004F60D009DCB5F5007F20
:1005500049D0B5F5806F4CD0B5F5006F5DD14FE057
:10056000B5F5803F2DD0B5F5003F56D12FE0A068FE
:100570002D4900F0A1FC064651E0E068032100F09F
:100580009BFC06464BE0E068082100F095FC06461F
:1005900045E0E068102100F08FFC06463FE020694E
:1005A000032100F089FC064639E02069082100F0AB
:1005B00083FC064633E02069102100F07DFC0646EE
:1005C0002DE06068082100F077FC064627E06068AF
:1005D000102100F071FC064621E0A069012100F025
:1005E0006BFC06461BE0A069022100F065FC064694
:1005F00015E0A069042100F05FFC06460FE00FE063
:10060000A069702100F058FC064608E060680421EB
:1006100000F052FC064602E0FFE7002600BF00E0C3
:100620000026304670BD0000010101001AB1436987
:100630000B43436102E043698B434361704730B52C
:10064000024600200023146824F002041460146899
:1006500044F00104146000E05B1C546814F0010FC6
:1006600003D1A3F57F44FF3CF6D1546814F0010F89
:1006700001D100206CE08C79012C04D1146844F085
:100680008004146003E0146824F080041460CC79C2
:10069000012C04D1146844F04004146003E0146891
:1006A00024F0400414600C7A012C04D1146844F046
:1006B0002004146003E0146824F0200414604C7AD1
:1006C000012C04D1146844F01004146003E0146891
:1006D00024F0100414608C7A012C04D1146844F0C6
:1006E0000804146003E0146824F008041460CC7A51
:1006F000012C04D1146844F00404146003E014686D
:1007000024F0040414608C78A407CD7844EA0564CE
:100710000D7944EA05444D7944EA05540D886D1E6F
:100720002C43D461146824F001041460002300E019
:100730005B1C546814F0010F03D0A3F57F44FF3C09
:10074000F6D1546814F0010F01D0002000E0012020
:1007500030BD00B503461868912803D1D87AFFF759
:100760003DFD00E000BF00BF00BD10B500F5D8732F
:1007700003EB01131B6803F004031372137A53B9DC
:1007800000F5D87303EB01131B6840F2FF7404EA11
:100790005353136009E000F5D87303EB01131B6892
:1007A0006FF0604404EAD303536000F5D87303EBA1
:1007B00001131B6803F00203537200F5D87303EBB7
:1007C00001135B6803F00F03937200F5D87303EB1A
:1007D00001135B681B0AD37400F5D87303EB011394
:1007E0009B68D37200F5D87303EB01139B681C0A56
:1007F000147300F5D87303EB01139B681C0C54733E
:1008000000F5D87303EB01139B681B0E937300F57F
:10081000D87303EB0113DB68D37300F5D87303EBD4
:100820000113DB681C0A147400F5D87303EB011381
:10083000DB681C0C547400F5D87303EB0113DB6800
:100840001B0E937421B9C36843F02003C36003E017
:10085000036943F02003036110BD1FB500208DF82C
:100860000A008DF80B0001208DF80C000020ADF877
:100870000000ADF80400ADF80200ADF80600ADF8D8
:10088000080001208DF80D006846FFF7BBFD1FBD75
:100890000EB5FFF737FDFFF715FD0121480601F002
:1008A000ABFA1748FFF792FD684600F05BF80020AE
:1008B0008DF806008DF807008DF8080001208DF8EE
:1008C000090000208DF80A008DF80B008DF8020059
:1008D0008DF8030007208DF8040006208DF8050030
:1008E0000920ADF8000069460548FFF7A8FE01227F
:1008F00002210348FFF79AFEFFF7AFFF0EBD00008D
:1009000000640040F0B585B006460C46002700257F
:1009100000208DF8080000948DF8090008220DF1E0
:100920000B013046FFF7BBFC08208DF80A00694632
:100930000B4800F027F807460AE0681C85B2FF2D37
:1009400003DBFFF7A5FF05B0F0BD012001F04AFE73
:10095000F9B2034800F0AAF80128EED100BFF2E78F
:100960000064004000218171C17101724172817285
:10097000C1728170C1700321017102214171012195
:100980000180704710B502460020936803F0806331
:10099000B3F1806F00D110E0936803F00063B3F10E
:1009A000006F01D1012008E0936803F08053B3F198
:1009B000805F01D1022000E00420042874D002F5F9
:1009C000C07303EB00131B6803F0010402F5C0734E
:1009D00003EB00131C600B7A7BB94B7A0C8843EA5B
:1009E000445302F5C07404EB00142468234302F559
:1009F000C07404EB0014236010E00B7A4C6843EAE7
:100A0000C4034C7A234302F5C07404EB0014246839
:100A1000234302F5C07404EB001423608B7A03F0C7
:100A20000F038B7202F5C07303EB00135B6823F0B6
:100A30000F0402F5C07303EB00135C6002F5C07392
:100A400003EB00135B688C7A234302F5C07404EB5C
:100A5000001463608B7B1C064B7B44EA03440B7BD6
:100A600044EA0323CC7A234302F5C07404EB001458
:100A7000A3608B7C1C064B7C44EA03440B7C44EA59
:100A80000323CC7B234302F5C07404EB0014E36022
:100A900002F5C07303EB00131B6843F0010402F579
:100AA000C07303EB00131C6010BD000010B50246BC
:100AB000002321B1012907D002290FD109E0906854
:100AC0001D4C00EA04030BE090681C4C00EA040390
:100AD00006E090681A4C00EA040301E0002300BF1E
:100AE00000BF184C181BA34216D007DC83B16FF06F
:100AF000806018180ED0022818D111E0B0F5007FE0
:100B000010D0114C001909D0B0F5003F0ED10BE008
:100B100002230DE000230BE0002309E0002307E09F
:100B2000012305E0012303E0012301E0002300BFCE
:100B300000BFD8B210BD000003000004000300088D
:100B400000000310000100080001FFF770B5044623
:100B5000002529466D1C01208840204204D04021F8
:100B6000CB4800F0BDFE03E04021C94800F0B6FECE
:100B70002846691CCDB2012101FA00F0204204D0C0
:100B80008021C34800F0ACFE03E08021C04800F0A3
:100B9000A5FE2846691CCDB2012101FA00F02042D1
:100BA00004D00902BA4800F09BFE04E04FF48071C3
:100BB000B74800F093FE2846691CCDB2012101FA26
:100BC00000F0204204D04902B14800F089FE04E060
:100BD0004FF40071AE4800F081FE2846691CCDB28A
:100BE000012101FA00F0204204D00902A94800F0D6
:100BF00077FE04E04FF48071A64800F06FFE2846AF
:100C0000691CCDB2012101FA00F0204204D0C903D1
:100C1000A04800F065FE04E04FF400419D4800F05C
:100C20005DFE2846691CCDB2012101FA00F0204288
:100C300004D08902964800F053FE04E04FF480612E
:100C4000934800F04BFE2846691CCDB2012101FA01
:100C500000F0204204D0C9028D4800F041FE04E0BB
:100C60004FF400618A4800F039FE2846691CCDB275
:100C7000012101FA00F0204204D00903844800F069
:100C80002FFE04E04FF48051814800F027FE2846F3
:100C9000691CCDB2012101FA00F0204203D07E4848
:100CA00000F01EFE03E001217B4800F017FE2846FD
:100CB000691CCDB2012101FA00F0204204D00221CA
:100CC000754800F00DFE03E00221734800F006FEB7
:100CD0002846691CCDB2012101FA00F0204204D05F
:100CE00004216D4800F0FCFD03E004216A4800F097
:100CF000F5FD2846691CCDB2012101FA00F0204221
:100D000004D00821644800F0EBFD03E008216248AC
:100D100000F0E4FD2846691CCDB2012101FA00F083
:100D2000204204D010215C4800F0DAFD03E01021DD
:100D3000594800F0D3FD2846691CCDB2012101FAC3
:100D400000F0204204D02021534800F0C9FD03E008
:100D50002021514800F0C2FD2846691CCDB2012176
:100D600001FA00F0204204D040214B4800F0B8FDC9
:100D700003E04021484800F0B1FD2846691CCDB28F
:100D8000012101FA00F0204204D08021424800F005
:100D9000A7FD03E08021404800F0A0FD2846691C23
:100DA000CDB2012101FA00F0204204D008213B48D5
:100DB00000F096FD03E00821384800F08FFD28463A
:100DC000691CCDB2012101FA00F0204204D01021AB
:100DD000324800F085FD03E01021304800F07EFD30
:100DE0002846691CCDB2012101FA00F0204204D04E
:100DF00020212A4800F074FD03E02021274800F05C
:100E00006DFD2846691CCDB2012101FA00F0204297
:100E100004D04021214800F063FD03E040211F4839
:100E200000F05CFD2846691CCDB2012101FA00F0FA
:100E3000204204D08021194800F052FD03E08021B7
:100E4000164800F04BFD2846691CCDB2012101FA7D
:100E500000F0204204D00902104800F041FD04E0F7
:100E60004FF480710D4800F039FD2846691CCDB261
:100E7000012101FA00F0204204D04902074800F0A5
:100E80002FFD04E04FF40071044800F027FD70BD11
:100E9000001001400008014000140140000C014016
:100EA00010B504460348046101460869FFF74EFE89
:100EB00010BD000024030020024600200A4201D099
:100EC000012000E00020704710B54FF4005000F002
:100ED0001BF80C48007801F0BBFB082800D110BDBE
:100EE0000848007801F0B4FB042804D105480078D4
:100EF00001F062FC04E00A210248007801F096FD4E
:100F000000BFECE71600002010F0805F02D003491C
:100F1000086001E002494860704700000404024094
:100F20000000024021B1026842F00102026004E0C8
:100F300002684FF6FE731A400260704701684FF670
:100F4000FE72114001600021016041608160C1605A
:100F50004B49884208D14A490839496841F00F0194
:100F6000474A083A51608AE045491431884208D11D
:100F700043490839496841F0F001414A083A516053
:100F80007DE03F492831884208D13D490839496808
:100F900041F470613A4A083A516070E038493C3196
:100FA000884208D136490839496841F47041344AC9
:100FB000083A516063E032495031884208D13049E3
:100FC0000839496841F470212D4A083A516056E0C9
:100FD0002B496431884208D129490839496841F4CC
:100FE0007001274A083A516049E025497831884222
:100FF00008D123490839496841F07061204A083A0C
:1010000051603CE01F49884206D1011F096841F048
:101010000F01021F116032E01A491431884208D1D1
:101020001849091F096841F0F001164A121F1160A2
:1010300025E014492831884208D11249091F09685E
:1010400041F470610F4A121F116018E00D493C31E4
:10105000884208D10B49091F096841F47041094AC7
:10106000121F11600BE007495031884207D1054932
:10107000091F096841F47021024A121F116070476C
:1010800008000240080402401AB103680B430360E1
:1010900002E003688B430360704710B500220268CA
:1010A00047F6F0739A430C6A8B6823430C69234319
:1010B0004C6923438C692343CC6923434C6A234303
:1010C0008C6A23431A430260CB6843600B688360D9
:1010D0004B68C36010BD704701490870704700003D
:1010E0006D00002001490870704700006E0000206C
:1010F0007047000010B50020154908704FF4A0702B
:1011000000F0C4FC1349086000241DE000201149D0
:10111000096801EB4411486103200E49096801EB9D
:101120004411087200200B49096801EB4411086161
:101130000849096801EB4411C8600649096801EBD8
:1011400044118861601CC4B20A2CDFDB10BD0000B2
:10115000600000206400002038B500243CE02048F6
:10116000006800EB44100068002833D01C48006879
:1011700000EB4410C079012804D002281ED00328B7
:1011800027D110E0032000901548006800EB4410C0
:10119000C3691348006800EB44102146026811A09F
:1011A000FFF799FF15E00E48006800EB4410032399
:1011B0002146026811A0FFF78EFF0AE00848006888
:1011C00000EB44100323214602680CA0FFF783FFC5
:1011D00000BF00BF601CC4B20A2CC0DB38BD0000D9
:1011E000640000204465766963655B25645D4E613B
:1011F0006D653A25735B25645D0000004465766982
:1012000063655B25645D4E616D653A257300000082
:10121000244800782449087022480078401C21495D
:10122000087022A0234909681F4A127801EB421175
:10123000086000211F4800681B4A127800EB42102A
:10124000417103201B490968174A127801EB4211CA
:10125000C871012117480068134A127800EB421048
:1012600001721548134909680F4A127801EB4211BF
:10127000486100200F4909680B4A127801EB4211BE
:10128000C86000210B480068074A127800EB421042
:10129000016108480068044A127800EB421081613D
:1012A00070470000600000201D00002043414E31C7
:1012B0000000000064000020910800082848007821
:1012C0002849087026480078401C254908702548A0
:1012D000007825490968234A127801EB4211087108
:1012E00022A0214909681F4A127801EB42110860C7
:1012F00000201D4909681B4A127801EB4211487110
:10130000032019490968174A127801EB4211C87184
:10131000012115480068134A127800EB421001724F
:101320001349114800680F4A127800EB42104161DE
:1013300000200D4909680B4A127801EB4211C86080
:10134000002109480068074A127800EB4210016149
:1013500005480068034A127800EB4210816170472B
:101360006000002070000020640000204354520000
:101370006516000828480078284908702648007833
:10138000401C254908702548007825490968234AEA
:10139000127801EB4211087122A0214909681F4A05
:1013A000127801EB4211086000201D4909681B4AB0
:1013B000127801EB42114871032019490968174A54
:1013C000127801EB4211C871012115480068134AD7
:1013D000127800EB421001721349114800680F4A5D
:1013E000127800EB4210416100200D4909680B4A58
:1013F000127801EB4211C860002109480068074AD1
:10140000127800EB4210016105480068034A127827
:1014100000EB4210816170476000002071000020E5
:101420006400002043545200E51800084848007842
:101430004849087046480078401C4549087046A055
:1014400047490968434A127801EB421108600021BC
:10145000434800683F4A127800EB42104171032074
:101460003F4909683B4A127801EB4211C8710321D8
:101470003B480068374A127800EB42100172394845
:1014800037490968334A127801EB421148613649FD
:10149000334800682F4A127800EB4210C16033488D
:1014A0002F4909682B4A127801EB4211086100218B
:1014B0002B480068274A127800EB421081612448CB
:1014C00000782B49087022480078401C2049087099
:1014D00028A023490968264A127801EB42110860C6
:1014E00000211F480068224A127800EB4210417127
:1014F00003211B4800681E4A127800EB4210C1719C
:10150000174800681A4A127800EB42100172002155
:1015100013480068164A127800EB421041611249E4
:101520000F480068124A127800EB4210C1600F4861
:101530000B4909680E4A127801EB4211086100203C
:10154000074909680A4A127801EB4211886170471D
:101550006000002014000020555341525431000017
:1015600064000020992C0008813000087D300008BC
:10157000150000205553415254315F52580000006D
:1015800010B503211DA0FFF7A6FD002433E022487B
:10159000006800EB4410406958B31F48006800EB36
:1015A0004410C079012804D0022815D003281FD187
:1015B0000BE0194A126802EB4412107F164A1268B7
:1015C00002EB44125169884712E01349096801EBA4
:1015D0004411486980470BE00F4A126802EB44123D
:1015E000D0690D4A126802EB44125169884700BF66
:1015F00000BF601CC4B20A2CC9DB10BD546F73203D
:1016000044657669636520496E69742E2E2E2E2EF0
:101610002E2E2E2E2E0000006400002001490860AE
:10162000704700001404014070B50446002510788E
:1016300020B116782068B0FBF6F085B22068084427
:1016400020601078984203DA1078401C107002E095
:101650002068401B206016782068B0FBF6F080B24E
:1016600070BD000008B50020FFF770FA01210420CA
:1016700000F0E2FB4FF40140ADF8000003208DF8CC
:10168000020010208DF803006946264800F054F847
:101690000121082000F0D0FB4FF47E70ADF800006F
:1016A00003208DF8020010208DF8030069461E48C3
:1016B00000F042F80121102000F0BEFB4FF4FE5074
:1016C000ADF8000003208DF8020010208DF8030013
:1016D0006946164800F030F80121202000F0ACFBEC
:1016E000FF20ADF8000003208DF8020010208DF8D7
:1016F000030069460E4800F01FF80121402000F069
:101700009BFB1C20ADF8000003208DF80200102088
:101710008DF803006946074800F00EF800F006FC5B
:1017200008BD000000080140000C0140001001400D
:1017300000140140001801402DE9F0410246002547
:101740000026002000230024002791F803C00CF09D
:101750000F0591F803C01CF0100F03D091F802C0E0
:101760004CEA050591F800C0BCF1000F31D01468B7
:1017700000202BE04FF0010C0CFA00F3B1F800C090
:101780000CEA03069E4220D183004FF00F0C0CFAA6
:1017900003F7BC4305FA03FC4CEA040491F803C0C8
:1017A000BCF1280F06D14FF0010C0CFA00FCC2F876
:1017B00014C00AE091F803C0BCF1480F05D14FF006
:1017C000010C0CFA00FCC2F810C0401C0828D1D350
:1017D0001460B1F800C0BCF1FF0F34DD5468002084
:1017E0002EE000F1080C4FF0010808FA0CF3B1F8F4
:1017F00000C00CEA03069E4221D183004FF00F0C7B
:101800000CFA03F7BC4305FA03FC4CEA040491F814
:1018100003C0BCF1280F05D100F1080C08FA0CF840
:10182000C2F8148091F803C0BCF1480F07D100F151
:10183000080C4FF0010808FA0CF8C2F81080401CA0
:101840000828CED35460BDE8F0810000F0B50A4608
:10185000002300240021002500F00046B6F1004FCF
:1018600002D11D4EF16901E01B4E7168C0F30345C2
:1018700083B200F44016B6F5401F08D121F0706124
:10188000154E766826F07066134F7E6012E000F405
:101890008016B6F5801F06D1032606FA05F4A1438B
:1018A00041F0706106E0460D360103FA06F6B143D9
:1018B00041F0706122B1460D360103FA06F631435C
:1018C00000F00046B6F1004F02D1034EF16101E095
:1018D000014E7160F0BD00000000014041617047A1
:1018E0000161704708B50121202000F0A5FA4FF4EE
:1018F0007F40ADF8000003208DF8020048208DF8ED
:10190000030069462448FFF717FF0121082000F073
:1019100093FA4FF20700ADF8000003208DF80200A3
:1019200048208DF8030069461C48FFF705FF012198
:10193000402000F081FA4FF68070ADF800000320DF
:101940008DF8020048208DF8030069461448FFF71F
:10195000F3FE0121102000F06FFA3020ADF80000F6
:1019600003208DF8020048208DF8030069460D48D9
:10197000FFF7E2FE0121042000F05EFA3020ADF80E
:10198000000003208DF8020048208DF8030069460E
:101990000448FFF7D1FE08BD00140140000C0140CF
:1019A0000018014000100140002000210DE001EB73
:1019B000810202EBC102064B1B6803EB8202128913
:1019C0000AB1421CD0B24A1CD1B20A29EFDB7047DF
:1019D0005800002001E000F035F8FCE710B545F2B2
:1019E000555000F029F8062000F01AF84FF47F60F7
:1019F00000F01CF800F00CF800F002F810BD000038
:101A00004CF6CC40014908607047000000300040AF
:101A10004AF6AA20014908607047000000300040E3
:101A2000014948607047000000300040014988606B
:101A30007047000000300040014908607047000016
:101A40000030004071B600BF0648006800F4E06056
:101A500005490843001D03490860BFF3408F00BFDC
:101A600000BFFEE70CED00E00000FA0500BFFEE756
:101A7000054908600021044A126811600821024AE1
:101A800012685160704700006800002010B50346DE
:101A90001048016803F1080083B20FE00868401A9B
:101AA0004C68001B984208D3486842185360086885
:101AB00010600A6002F1080010BD0968086800287B
:101AC000ECD1486842180020106053600A6002F1AF
:101AD0000800F1E7680000207047000070B50021A1
:101AE00000230F22C4780CB3164C246804F4E0647D
:101AF000C4F5E064210AC1F10403CA40447804FA41
:101B000003F184781440214309010F4C0678A15554
:101B1000047804F01F050124AC4005786D114FF0E6
:101B2000E02606EB8505C5F8004109E0047804F0DD
:101B30001F050124AC40054D0678761145F8264076
:101B400070BD00000CED00E000E400E080E100E08A
:101B500002490143024A1160704700000000FA0583
:101B60000CED00E07047000010B5032209A10BA0A6
:101B7000FFF7B1FA03220DA110A0FFF7ACFA032280
:101B8000124913A0FFF7A7FA0322164916A0FFF780
:101B9000A2FA10BDB2E2CAD400000000426F617226
:101BA000645F4E616D653A257300000053544D33F8
:101BB0003246313033564554360000004350555FAD
:101BC0004D6F64656C3A25730000000000127A00C6
:101BD0004370755F4F53435F465245513A20256429
:101BE0004D687A0000A24A044370755F46726571C1
:101BF0003A2025644D687A00704700001FB50948F7
:101C0000006801900748001D0068029005480830F0
:101C1000006803900320009003A001A90EC9FFF7FC
:101C20005AFA1FBDE8F7FF1F494320436F64653A26
:101C30002558202558202558000000007047000036
:101C400010B5032108A0FFF746FAFFF78DFFFFF755
:101C5000D5FFFFF781FA00F015F8FFF7CDFFFFF78A
:101C6000EDFF00F031F810BD0A546F732053797303
:101C700074656D2053746172742E2E2E2E2E2E2EAE
:101C80002E2E2E0010B5FFF78FFE044603232246AA
:101C90000A2102A0FFF71FFA10BD0000546F735F06
:101CA0005461736B506F6F6C2049733D2564204203
:101CB000757420486173202564205461736B204340
:101CC00072656174652E00001CB5002001902DE046
:101CD0009DF8040000EB800101EBC0002B4909686E
:101CE00001EB8000006BE0B1032000909DF8040040
:101CF00000EB800101EBC0002449096801EB800082
:101D0000838C9DF8040000EB800101EBC0001F49AB
:101D1000096801EB80009DF80410026B1CA0FFF71E
:101D2000DAF99DF80400401CC0B201909DF804004F
:101D30000A28CDDB9DF80400401EC0B201900322AA
:101D40000A2118A0FFF7C7F99DF8040000EB8002F4
:101D500002EBC0000D4A126802EB8000026A9DF897
:101D6000040000EB800303EBC000084B1B6803EB8F
:101D70008000808C111803220FA0FFF7ACF903221A
:101D800001A912A0FFF7A7F91CBD00005800002010
:101D90005461736B5B25645D4E616D653A257328F4
:101DA000256429005461736B537461636B416C6CDF
:101DB0003A202564000000005461736B5374616322
:101DC0006B5573653A202564000000006941646426
:101DD000723A20307825580029B1064A52690243E8
:101DE000044B5A6104E0034A52698243014B5A6131
:101DF000704700000010024029B1064AD269024330
:101E0000044BDA6104E0034AD2698243014BDA6190
:101E1000704700000010024029B1064A12690243CF
:101E2000044B1A6104E0034A12698243014B1A61B0
:101E3000704700000010024029B1064A926902432F
:101E4000044B9A6104E0034A92698243014B9A6110
:101E5000704700000010024030B50021002200242D
:101E600000232D4D6D6805F00C0121B1042905D02A
:101E7000082923D105E0294D056022E0274D0560A2
:101E80001FE0254D6D6805F47012234D6D6805F453
:101E90008034022505EB92421CB9214D5543056063
:101EA0000BE01D4D6D6815F4003F03D01C4D5543EC
:101EB000056002E0194D5543056002E0174D0560CD
:101EC00000BF00BF144D6D6805F0F0010909154D04
:101ED0006B5C0568DD4045600F4D6D6805F4E061A1
:101EE000090A104D6B5C4568DD4085600A4D6D68E0
:101EF00005F46051C90A0B4D6B5C4568DD40C56057
:101F0000054D6D6805F44041890B074D6B5CC56854
:101F1000B5FBF3F5056130BD0010024000127A00F8
:101F200000093D00000000201000002010B5012134
:101F30000148FFF78BFC10BD00023000002069490A
:101F4000096811F4004F01D040F0010065490968AB
:101F500011F4804F01D040F002006249096811F489
:101F6000005F01D040F004005E49096811F4805F11
:101F700001D040F008005B49096811F4006F01D0FE
:101F800040F010005749096811F4806F01D040F00B
:101F900020005449096811F4007F01D040F040004E
:101FA0005049096811F4807F01D040F080004E490B
:101FB000096811F4004F01D040F480704A49096863
:101FC00011F4804F01D040F400704749096811F4C2
:101FD000005F01D040F480604349096811F4805FDC
:101FE00001D040F400604149096811F4004F01D06C
:101FF00040F480503D49096811F4804F01D040F40D
:1020000000503A49096811F4005F01D040F4804063
:102010003649096811F4805F01D040F4004033492B
:10202000096811F4006F01D040F480302F4909682D
:1020300011F4806F01D040F400302C49096811F48C
:10204000007F01D040F480202849096811F4807F86
:1020500001D040F400202549096811F0800F01D01B
:1020600040F480102049096811F0040F01D040F4B9
:1020700000101D49096811F0020F01D040F48000E2
:102080001949096811F0010F01D040F40000184906
:10209000896811F0200F01D040F0807014498968E0
:1020A00011F0100F01D040F000701249096811F0D2
:1020B000800F01D040F080600E49096811F0400F98
:1020C00001D040F000600B49096811F0200F01D0E9
:1020D00040F080500749096811F0100F01D040F01E
:1020E0000050704708140140080C014008180140D6
:1020F0000010014008080140704710B500F002F8D8
:1021000010BD00000CB5002001900090324800681E
:1021100040F480303049086000BF2F48006800F468
:10212000003000900198401C0190009818B9019867
:10213000B0F5A06FF1D12848006810F4003F02D03C
:102140000120009001E0002000900098012842D179
:102150002248006840F010002049086008460068E6
:1021600020F0030008600846006840F002000860A4
:102170001948406818494860084640684860084661
:10218000406840F4806048600846406820F47C1055
:1021900048600846406840F4E81048600846006817
:1021A00040F08070086000BF0B48006810F0007FAE
:1021B000FAD00948406820F0030007494860084603
:1021C000406840F00200486000BF0348406800F0EB
:1021D0000C000828F9D10CBD00100240002002407C
:1021E00010B500F05DF910BD10B51348006840F05F
:1021F00001001149086008464068104908400E492E
:102200004860084600680E4908400B4908600846C7
:10221000006820F4802008600846406820F4FE0032
:1022200048604FF41F008860FFF767FF4FF00060C1
:102230000449086010BD0000001002400000FFF8D3
:10224000FFFFF6FE08ED00E008211848FFF748FB05
:1022500010211648FFF744FB0220FEF73DFFFF2048
:10226000FEF740FFFFF7ECFCFFF760FE0020FEF7F3
:1022700017FE00200E49086004210C48FFF72EFBD2
:102280004FF4FA6000F0AEF90FE004210748FFF7C1
:1022900025FB4FF4FA7000F0A5F904210348FFF77D
:1022A0001FFB4FF4FA7000F09DF9EEE700180140B3
:1022B000240300200EB518E010210C48FFF70EFB98
:1022C000FFF73CFE04462146684600F0C5FE90211B
:1022D0006846FEF717FB642000F084F910210348DC
:1022E000FFF7FEFA642000F07DF9E5E700180140F1
:1022F00010B510480078092804D00F480078401C19
:102300000D4908700D480078401C0C4908700846BB
:10231000007864280DDD002008701423084A064860
:1023200001780848FFF780F9074908700020024942
:10233000087010BD500000203C0000203400002038
:1023400035000020380000204800002010B54FF470
:102350000270FFF79BFB2549086002202449487062
:102360000020486000242EE0002004EB840101EBF3
:10237000C4011E4A126802EB8101088104EB84014A
:1023800001EBC401194A126802EB8101886104EB78
:10239000840101EBC401154A126842F8210004EBE4
:1023A000840101EBC401114A126802EB8101086249
:1023B00004EB840101EBC4010C4A126802EB8101B9
:1023C0008884601CC4B20A2CCEDB0920094908703D
:1023D00000200949086009498873094BFF224FF41E
:1023E0007A71064800F03AFB10BD0000580000204A
:1023F00048000020500000205C0000201003002056
:10240000452B0008FFF7BCF8FFF7E8FA06E0FFF7F6
:10241000FFFA642000F0E6F800F06AFBF7E700003E
:1024200038B51849B1F1807F00D31DE021F07F401D
:10243000401E4FF0E022506150170F22002807DAAB
:1024400013071D0E104B00F00F04241F1D5503E051
:1024500013071C0E0D4B1C5400BF00204FF0E02250
:1024600090610720106100BF4FF47A7008A300222A
:102470000A490090092000F045F8092000F01CFAF4
:1024800038BD00004019010018ED00E000E400E054
:102490005461736B526F6F740000000005240008D4
:1024A00010B5FFF725FF00F0E5F80D48407810283B
:1024B00005D103210BA0FEF70EFEFFF7C3FA10486B
:1024C0008089401C0E498881084680890989884294
:1024D00005DD0B490869804700200949888110BD46
:1024E000480000205461736B2054696D654F75740A
:1024F0002057696C6C20544F5320526573657400EB
:10250000100300202DE9F04704460D4691461F4672
:10251000DDF820800DB9BDE8F08704EB840000EB06
:10252000C4002F49096801EB8000808CB8B91FFAFC
:1025300088F0FFF7ABFA064604EB840000EBC4001A
:10254000274A126802EB8000A0F8248004EB840183
:1025500001EBC401224A126802EB81010E6204EB16
:10256000840202EBC4021E4B1B6803EB8202918CB7
:1025700004EB840202EBC402194B1B6803EB8202DA
:10258000106A00F049FA8246022004EB840101EB54
:10259000C401134A126802EB8101088104EB840034
:1025A00000EBC4000E49096801EB8000456004EBB4
:1025B000840000EBC4000A49096801EB800007634E
:1025C0004A462946504600F03FF904EB840101EBEE
:1025D000C401034A126842F8210000BF9BE70000D3
:1025E0005800002010B5044616484078012825D030
:1025F00000201549097801EB810202EBC101134A61
:10260000126802EB810188610F48007800EB8001BD
:1026100001EBC0000D49096801EB8000446108210D
:102620000948007800EB800202EBC000074A1268FC
:1026300002EB8000018100F091F902E02046FDF7F5
:1026400021FE10BD4800002050000020580000204E
:1026500001460A2901DB0020704701EB810000EBF5
:10266000C100034A126802EB80000089F4E7000011
:1026700058000020002097E000EB800101EBC00132
:102680004B4A126802EB81010989022906D0082908
:1026900027D0102958D020297ED180E000EB80017E
:1026A00001EBC001424A126802EB81018969491CB1
:1026B00000EB800202EBC0023D4B1B6803EB820281
:1026C000916100EB800101EBC001394A126802EB15
:1026D00081018969B1F5FA6F02D91021354A51702B
:1026E0005FE0002200EB800101EBC001304B1B6872
:1026F00003EB81018A6100EB800101EBC0012C4AF0
:10270000126802EB8101496951B9022100EB800294
:1027100002EBC002264B1B6803EB8202118112E020
:1027200000EB800101EBC001214A126802EB81013C
:102730004969491E00EB800202EBC0021C4B1B687A
:1027400003EB820251612CE000EB800101EBC00140
:10275000174A126802EB8101C96951B9022100EBE5
:10276000800202EBC002124B1B6803EB8202118154
:1027700014E000EB800101EBC0010D4A126802EB8E
:102780008101C969491E00EB800202EBC002084BBF
:102790001B6803EB820200E002E0D16101E000E08F
:1027A00000BF00BF411CC8B20A28FFF665AF7047E2
:1027B00058000020480000200A2800DB704700EB8A
:1027C000800101EBC001094A126802EB810109890D
:1027D000082909D0082100EB800202EBC002034B5C
:1027E0001B6803EB8202118100BFE7E7580000205D
:1027F00010B5044610480078A04200D110BD0E4824
:10280000007800EB800101EBC0000C49096801EB86
:1028100080000B49086008480470007800EB8001D4
:1028200001EBC0000549096851F82000054908601E
:10283000FDF7ACFC00BFE1E750000020580000208D
:10284000440000204000002030B503461846041F15
:1028500020462160041F204623600025041F2046D7
:102860002560041F20462560041F20462560041FA4
:1028700020462560041F20462560041F2046256051
:10288000041F20462560041F20462560041F2046A3
:102890002560041F20462560041F20462560041F74
:1028A00020462560041F204622604FF08075041FDB
:1028B0002046256030BD000010B5044604EB8400BE
:1028C00000EBC4000449096851F82000034908607E
:1028D000FDF775FC10BD00005800002040000020EE
:1028E00010B504460A2C00DB10BD04EB840000EB9D
:1028F000C4001949096801EB80000089082801D14A
:10290000012000E0002004EB840101EBC401124A25
:10291000126802EB81010989022901D1012100E03D
:102920000021084315D0042004EB840101EBC4010D
:10293000094A126802EB81010881002104EB84003E
:1029400000EBC400044A126802EB8000416100F011
:1029500005F800BFC8E700005800002010B50221AC
:102960002A480068A0F8DC1100244BE004EB840046
:1029700000EBC4002549096801EB800000890228AA
:1029800006D008280CD010280BD0202836D109E01A
:102990001F480078A04202D02046FFF729FF10BD53
:1029A0002DE02CE004EB840000EBC400174909681B
:1029B00001EB800090F826001649096801EB4010F1
:1029C000007A012819D1082004EB840101EBC4012D
:1029D0000E4A126802EB81010881032104EB840096
:1029E00000EBC400094A126802EB800090F8260050
:1029F000084A126802EB4010017200E000BF00BFFD
:102A0000601CC4B20A2CB1DB00BFC8E7580000202C
:102A100050000020640000200246501820F00303FC
:102A2000A3F1340020F007007047000010B5102219
:102A300000EB800303EBC003074C246804EB830323
:102A40001A8100EB800202EBC002034B1B6803EB10
:102A50008202D16110BD00005800002070B504460C
:102A60000D46164601221449887B002816DD0AE02F
:102A70004968002A07DD0878904202D022700022BF
:102A800001E0501CC2B248680028F1D1002A00DDE4
:102A900022700A480078A0734C6005E00C460020C4
:102AA000207006480078A073258166810020A081EF
:102AB00023616060207870BD10030020500000206A
:102AC00002460A490CE048680078904207D100208D
:102AD0004B685881486840684860104670474968AC
:102AE00048680028EFD100BFF8E70000100300207D
:102AF00010B5134C1FE06068807B10F0400F19D0B8
:102B00006068807B10F0800F12D061680869804790
:102B10006068807B20F0800061688873606840890D
:102B200020B961680878FFF7CBFF04E0646802E031
:102B3000646800E0646860680028DCD110BD0000B3
:102B40001003002012481EE04068817B11F0400F06
:102B500019D04189002916DD81890289914203DA61
:102B60008189491C81810EE04189FF2902DA41896E
:102B7000491E41814189002901DD00218181817B3C
:102B800041F08001817341680029DDD17047000068
:102B90001003002010B540F225510E4800F083F9D3
:102BA000B8B10C48001D0088C4B20B48C0880B495E
:102BB000C98888420DDA0848C188C088401C064A86
:102BC000D0800748C06844540649C8780A21FFF7F6
:102BD0002DFF10BD004C004006030020FC02002029
:102BE000D40200202D00002010B540F225510E48DF
:102BF00000F059F9B0B10C488088C4B20B48008984
:102C00000B49098988420DDA084801890089401C6E
:102C1000064A1081074800694454074908790A2187
:102C2000FFF704FF10BD0000005000400603002025
:102C3000FC020020D40200202D0000201FB500F06F
:102C400073F801218803FFF7F7F84FF4165000904E
:102C50000020ADF80400ADF80600ADF80800ADF8AE
:102C60000C000C20ADF80A0069460A4800F06AF929
:102C7000012240F22551074800F03FF901210548A3
:102C800000F0FCF8012000F09BF84021014800F022
:102C9000DDF81FBD0038014000B58DB0FFF7CEFF55
:102CA00001210846FFF798F80E208DF83000032028
:102CB0008DF8310002208DF8320001208DF83300AC
:102CC0000CA8FEF70BFF1548FEF738F914480190E1
:102CD00014480290102003904FF496700490002046
:102CE00005908020069000200790089009904FF4EE
:102CF00000500A9000200B9001A90848FEF7CDF97A
:102D0000012202210548FEF7BFF901228021044873
:102D1000001F00F0BFF80DB000BD000044000240ED
:102D200004380140A801002008B501210520FFF763
:102D300083F84FF40070ADF8000003208DF8020016
:102D400018208DF8030069460748FEF7F5FC4FF49C
:102D50008060ADF8000004208DF803006946024849
:102D6000FEF7EAFC08BD00000008014010B540F283
:102D700025510E4800F097F8B0B10C48001D0088AE
:102D8000C4B20B4800880B49098888420CDA08480D
:102D900001880088401C064A1080074844540A21D4
:102DA00006480078FFF742FE10BD000000380140E1
:102DB0001A000020180000207C00002017000020CE
:102DC00038B504464FF48060FEF7C2FE25208DF82A
:102DD000000002208DF8010001208DF802008DF81E
:102DE00003406846FEF77AFE38BD000010B540F299
:102DF0002551114800F057F8C0B10F48001D008858
:102E0000C4B20E4840880E494988884213DA0B48FC
:102E100041884088401C094A50800A484068445410
:102E2000094948780A21FFF701FE04E040F22551E4
:102E3000014800F014F810BD0044004006030020D3
:102E4000FC020020D40200202D00002001F40072BA
:102E5000B2F5007F00D100BFCA430280704710B5B1
:102E600000220023A1F510646A3C00D100BF0A12C1
:102E700001249440A3B2DC43048010BD21B18289B7
:102E800042F40052828104E082894DF6FF731A40B9
:102E9000828170471AB1838A0B43838202E0838A5E
:102EA0008B438382704770B50246002400230025BF
:102EB0000020A1F510666A3E00D100BFC1F34215A3
:102EC00001F01F03012606FA03F3012D02D19689B2
:102ED000334006E0022D02D1168A334001E0968A83
:102EE00033400C12012606FA04F41688344013B15C
:102EF0000CB1012000E0002070BDF0B503460024B5
:102F0000002600250020A1F510676A3F00D100BF10
:102F10001846C1F3421401F01F06012707FA06F50F
:102F2000012C01D10C3004E0022C01D1103000E062
:102F300014301AB107682F43076002E00768AF43F7
:102F40000760F0BD2DE9F04786B005460E46002427
:102F5000A24600BFA1460027B08900B100BF2F469E
:102F60002C8A4CF6FF700440F08804432C82AC8914
:102F70004EF6F3100440B088318908437189084344
:102F80000443AC81AC8A4FF6FF400440B08904434F
:102F9000AC8201A8FEF760FF1F48874202D1DDF82E
:102FA00010A001E0DDF80CA0A88910F4004F08D0B3
:102FB0000AEBCA0000EB0A1031684900B0FBF1F8D7
:102FC00007E00AEBCA0000EB0A1031688900B0FB89
:102FD000F1F86420B8FBF0F004012009642101FB42
:102FE0001089A88910F4004F08D0322000EBC900E6
:102FF000B0FBF1F000F00700044308E0322000EBE2
:1030000009106421B0FBF1F000F00F0004432C81A3
:1030100006B0BDE8F08700000038014010B54FF45D
:103020008020FEF7FBFA10BD00B585B002210948EB
:10303000FDF76CFA58B102210648FDF773F96A46AC
:1030400000210448FDF791FB6846FDF782FB05B0BF
:1030500000BD00000064004013B50246042301A92E
:1030600003E011F8010B02F8010B1800A3F10104B1
:10307000E3B2F6D104201CBD00BFFEE7704700009C
:1030800070B506460C4615460A4800780A4908708D
:103090000A4804658564012108484430FDF742FF71
:1030A00005480078FFF71CFC002104484430FDF778
:1030B00039FF70BD500000201600002000000240C3
:1030C00002E008C8121F08C1002AFAD170477047F1
:1030D000002001E001C1121F002AFBD1704700004F
:1030E00008B51748FEF7C4FCFEF704F8FEF79EF992
:1030F000FEF7E4F8FEF73EF9FEF78AF8FFF726F947
:1031000040F6B8300FA30022104900901046FFF798
:10311000F9F940F6B8300EA300220F4900900220C2
:10312000FFF7F0F940F6B83009A300220B490090F0
:103130000320FFF7E7F9FFF773F900BFFEE7000090
:103140008603002054617374300000004922000897
:10315000546173743200000029020008B52200088F
:1031600080310008000000207C000000C030000812
:10317000FC3100087C0000204CA30000D030000887
:10318000000000000102030401020304060708090D
:1031900002040608FFFF0A0A00000000FFFFFFFF0D
:1031A000000000000000000000000000000000001F
:1031B000000000000000000000000000000000000F
:1031C00000000000000000000000000000000000FF
:1031D00000000000000000000000000000000000EF
:1031E000000000000000000000000000FF00FF00E1
:0C31F000FFFF00000000000000000000D5
:0400000508000131BD
:00000001FF
