:020000040800F2
:1050000048A20020455100089D9B000849830008E4
:1050100035980008815E00083DE9000800000000A6
:10502000000000000000000000000000F1B70008D0
:10503000B56A000800000000ED9C00088BC0000865
:105040005F5100085F5100085F5100085F51000880
:105050005F5100085F510008F97100085F510008B6
:105060005F5100085F5100085F5100085F51000860
:105070005F5100085F5100085F5100085F51000850
:105080005F5100085F5100085F5100085F51000840
:105090005F5100085F5100085F5100085F51000830
:1050A0005F5100085F5100085F5100085F51000820
:1050B0005F5100085F5100085F5100085F51000810
:1050C0005F5100085F5100085F5100085F51000800
:1050D0005F51000851E20008A5E2000805E300085E
:1050E0005F5100085F51000831E900085F51000876
:1050F0005F5100085F5100085F5100085F510008D0
:105100005F5100085F5100085F5100085F510008BF
:10511000A9E10008FDE100085F5100085F510008A7
:105120005F5100085F5100085F5100085F5100089F
:10513000DFF80CD000F078FC00480047F9F20008D6
:1051400048A200200648804706480047FEE7FEE7E1
:10515000FEE7FEE7FEE7FEE7FEE7FEE7FEE7FEE727
:10516000C5C000083151000830B505462A460B4637
:1051700012F8010B13F8014B08B1A042F8D01CB192
:10518000002802D06D1CF1E7284630BDF0B480EA5B
:105190000102D40F4200B2EB410F02D20246084690
:1051A00011464A0042D0C30DDDB2C1F3C752AD1A59
:1051B000202D35DAC1F3160141F4000204B1524248
:1051C000C5F1200602FA06F12A411044B3EBD05F84
:1051D00023D0C4B1012DA0EBC35009DCF0BC4FF0CB
:1051E000004202EAC352DBB200F5000000F079BBD6
:1051F000400000F1807000EBC350A0F1807040EAE5
:10520000D170490009E0490841EAC071A0EBC350E0
:1052100000F50000400800EBC350F0BC00F058BBA4
:105220006142012202EB4101001BF6E7F0BC70472E
:1052300081F00041AAE780F00040A7E780EA010280
:1052400010B502F00043400022D04A001FD0010EEA
:1052500001EB1261C0F35600C2F3560240F40000A5
:1052600042F40002A0FB022000047F39140400D0A5
:10527000401C50EA124001D44000491EC2B20C0644
:1052800004EBD010401C4008802A02D003E000202C
:1052900010BD20F00100002900DA0020184310BDE5
:1052A00030B480EA010202F0004530F0004221F003
:1052B000004013D090B1C30DD40DC2F31601C0F35A
:1052C0001600E41A41F4000140F400027D349142DA
:1052D00001D3641C00E04900002C02DA30BC00203D
:1052E00070474FF400000023914201D3891A034311
:1052F00040084FEA4101F7D151B1914202D14FF03C
:10530000004105E002D24FF0010101E06FF0010120
:1053100003EBC450284430BC00F0DABA2DE9FE4F4C
:10532000804681EA0300C00F0C46009021F0004146
:1053300023F00045B8EB0200A94105D240462146C2
:1053400090461C460B46024623F00040104347D0CF
:10535000270DC7F30A00C3F30A510290401A0190C7
:1053600040286BDAC3F3130040F4801B0098924688
:1053700020B10023D2EB030A63EB0B0B01985946D3
:10538000C0F14002504600F072FA06460D46504603
:105390005946019A00F08AFA10EB08006141002496
:1053A00087EA115284EAE7731A4340D0009A62B345
:1053B000019A012A4FEA075215DC001B61EB02013A
:1053C0004FF0004202EA0752CDE90042001C41F5CD
:1053D000801132462B4600F0C1FA03B0BDE8F08FD1
:1053E00040462146F9E7001B61EB0201001C41F534
:1053F000801300185B412018A2F5001747EB03014A
:1054000040EAD570B6196D4111E06D084FEA3606D5
:1054100045EAC0754FEA0752001B61EB0201001C10
:1054200041F5801149084FEA3000001951413246D8
:105430002B4603B0BDE8F04F00F081BA009801227E
:1054400040000023D0EB020263EBE073009821469A
:105450004FEAE074B8EB000061EB0401E9E783F088
:1054600000435BE781F0004158E72DE9FE4F81EAF8
:10547000030404F0004421F0004100944FF0000BBD
:1054800023F0004350EA01045ED052EA03045BD0EB
:10549000C3F30A54C1F30A552C44A4F2F334019423
:1054A000A0FB0254C1F3130141F48011C3F31303B1
:1054B00043F4801301FB024400FB034E840A970A65
:1054C00044EA815447EA8357A4FB076802958D0A92
:1054D00005FB07854FEA932C04FB0C542705029D1E
:1054E0004FEA065847EA1637B5EB08056EEB070C8E
:1054F000870E920E47EA811742EA8312A7FB020148
:10550000B6EB0B0164EB00042B0D43EA0C335E1881
:1055100044EB1C50DA465146E7FB0201C5F3130485
:105520004FEA0B3343EA14534FEA0432019C43EA37
:105530000603A4F10C040294009CCDE900B400F031
:105540000DFA03B0BDE8F08F00200146F9E72DE920
:10555000F04D81EA030404F0004B21F000451446AD
:105560004FF0000A23F0004150EA050220D054EA2F
:1055700001021DD0C5F30A570246C5F31303C1F358
:105580001300C1F30A5640F4801543F48013A7EBCF
:105590000608101BD64608F2FD3873EB050002D34F
:1055A00008F1010801E092185B41B8F1000F03DA3D
:1055B00000200146BDE8F08D00204FF48011064622
:1055C00084460EE0171B73EB050705D3121B63EB34
:1055D000050306434CEA010C49084FEA30009218D3
:1055E0005B4150EA0107EDD152EA030012D082EA92
:1055F000040083EA0501084305D0101BAB4106D225
:105600000122002306E000224FF0004302E06FF089
:10561000010253101AEB06004CEB085110EB0A0084
:1056200041EB0B01BDE8F04D00F089B9C10F80EAF4
:10563000E0700844CA079623002100F052B996236F
:105640000022114600F04DB90EB540F233410291EF
:105650000021CDE900110A460B4600F07FF903B0A6
:1056600000BD00F0004220F00040C10DC0F3160064
:1056700040F400007F2901DA00207047962903DCFE
:10568000C1F19601C84001E096398840002AF4D063
:105690004042704720F00040C10DC0F3160040F4B6
:1056A00000007F2901DA00207047962903DCC1F150
:1056B0009601C840704796398840704770B5C1F36D
:1056C0000A5201F000450024C1F3130140F2FF33F8
:1056D00041F480119A4201DA002070BD40F2334358
:1056E0009A42A2F2334203DC524200F0CFF800E0CB
:1056F00090402C43F1D0404270BD00F0004230F0A9
:1057000000400AD0C10D01F56071C0F3160042EAF5
:105710000151C208400711437047002001467047FD
:1057200030B5041E71F1000404DB4FF00044404228
:1057300064EB0101141E73F1000405DB1C464FF0FD
:105740000043524263EB04038B4208BF824230BDE8
:1057500030B5041E71F1000404DB4FF000444042F8
:1057600064EB0101141E73F1000405DB1C464FF0CD
:105770000043524263EB0403994208BF904230BD9C
:1057800001F0004330B421F0004150EA010206D09C
:105790000A0DA2F56072C1F31301002A02DC30BCCD
:1057A00000207047440F44EAC104C100E01830BC37
:1057B00000EBC25000F08CB8002801DBC0F10040C3
:1057C000002901DBC1F1004181427047002801DB63
:1057D000C0F10040002901DBC1F10041884270475F
:1057E00030B50B46014600202022012409E021FAB1
:1057F00002F59D4205D303FA02F5491B04FA02F5AE
:105800002844151EA2F10102F1DC30BD2DE9F05F44
:105810000546002092469B4688460646814640241F
:105820001BE0284641464746224600F02FF85346E3
:105830005A46C01A914110D311461846224600F02C
:1058400016F82D1A67EB01084F4622460120002169
:1058500000F00DF817EB00094E41201EA4F10104E1
:10586000DFDC484631462A464346BDE8F09F202A01
:1058700004DB203A00FA02F1002070479140C2F1A7
:10588000200320FA03F3194390407047202A04DBD9
:10589000203A21FA02F00021704721FA02F3D040A9
:1058A000C2F120029140084319467047202A06DBC6
:1058B000CB17203A41FA02F043EAE07306E041FADE
:1058C00002F3D040C2F120029140084319467047CC
:1058D0000029A8BF7047401C490008BF20F0010004
:1058E000704710B4B0FA80FC00FA0CF050EA0104E2
:1058F00004BF10BC704749B1CCF1200421FA04F474
:1059000011FA0CF118BF012121430843A3EB0C014C
:10591000CB1D4FEA00614FEA102042BF002010BCAF
:10592000704700EBC35010440029A4BF10BC70475F
:10593000401C490008BF20F0010010BC704710B5A2
:10594000141E73F1000408DA401C41F100019218A2
:105950005B411A4301D120F0010010BD2DE9F04D4B
:1059600092469B4611B1B1FA81F202E0B0FA80F2A0
:1059700020329046FFF77BFF04460F4640EA0A00BC
:1059800041EA0B0153465A46084313D0114653EAE5
:10599000010019D0C8F140025046FFF777FF0546D5
:1059A0000E46504659464246FFF761FF084305D070
:1059B000012004E020463946BDE8F08D0020054373
:1059C00046EAE0762C4337430A986305E40AA0EBE5
:1059D00008000022FD0A44EA47540A3002D500209C
:1059E0000146E9E7010510196941DDE9084500199B
:1059F0006941BDE8F04DA2E7C1F30A52C1F31301BA
:105A000040F2FF3341F480119A4202DA002001464D
:105A1000704740F233439A42A2F2334202DC5242D0
:105A2000FFF734BFFFF723BF064C074D06E0E068E1
:105A300040F0010394E8070098471034AC42F6D3D5
:105A4000FFF77AFB286501084865010882B02DE957
:105A5000FF1FEFF3038001B4684600F1400000E946
:105A600001400C480168C1F800D00B48D0F800D0C4
:105A700001BC80F30388BDE8FF1F01B000BD0648EC
:105A8000D0F800D001BC80F30388BDE8FF1F01B04F
:105A900000BD0000400000203C00002008B50121AE
:105AA000084605F0E3F901214FF4047005F0FEF912
:105AB0001020ADF8000000208DF803006946024870
:105AC00001F05EFE08BD00000010014010B5044664
:105AD000FFF7E4FF204600F001F810BD10B590B0CC
:105AE0000446334800F0FCFB324805900694002041
:105AF000079001200890002009900A904FF48070D0
:105B00000B9080000C9020200D9000020E90002041
:105B10000F9005A9264800F089FC0121244800F0D7
:105B2000D3FB002000908DF8040001208DF80500C3
:105B30004FF4602002900020039001208DF81000A7
:105B400069461C484C3800F061F84FF4404005F0BD
:105B500081F9052301220E2116484C3800F07EF809
:105B6000012114484C3800F032F8012111484C381A
:105B700000F022F80F484C3800F0CCF800BF0D4878
:105B80004C3800F039F80028F9D10A484C3800F0B8
:105B9000D1F800BF07484C3800F024F80028F9D1AC
:105BA000012104484C3800F0BAF810B010BD0000D4
:105BB000080002404C24014021B1826842F00102F9
:105BC000826003E0826822F001028260704721B1A6
:105BD000826842F48072826003E0826822F48072FC
:105BE00082607047014600208A6802F004020AB110
:105BF000012000E000207047014600208A6802F082
:105C000008020AB1012000E00020704730B50246CA
:105C10000020002350680F4C20400D790C6844EAA6
:105C200005242043506090680B4C2040D1E9025479
:105C30002C434D7944EA450420439060D06A20F417
:105C400070000C7C641EE4B2234340EA0350D0622F
:105C500030BD0000FFFEF0FFFDF7F1FFF0B5044698
:105C60000D4600200021092D11DDE068A5F10A068E
:105C700006EB4607072606FA07F18843A5F10A0650
:105C800006EB460603FA06F10843E0600CE02069E3
:105C900005EB4507072606FA07F1884305EB45069D
:105CA00003FA06F108432061072A0FDA606B561EDB
:105CB00006EB86071F2606FA07F18843561E06EBF9
:105CC000860605FA06F10843606322E00D2A0FDA22
:105CD000206BD61F06EB86071F2606FA07F18843BE
:105CE000D61F06EB860605FA06F10843206310E08E
:105CF000E06AA2F10D0606EB86071F2606FA07F1F9
:105D00008843A2F10D0606EB860605FA06F1084364
:105D1000E062F0BD816841F008018160704721B107
:105D2000826842F4A002826003E0826822F4A0024A
:105D300082607047816841F004018160704710B54E
:105D4000044600212046FFF741FD01D2204610BD48
:105D500000212046FFF76FFAF9E7000010B5012196
:105D60000C4801F0E6FD0A2007F0BCFE01210948BD
:105D700001F0DDFD282007F0B5FE0121054801F006
:105D8000D8FD0A2007F0AEFE0121024801F0CFFD48
:105D900010BD0000000C014010B50021074803F0C1
:105DA000DBFB044644B9052105A000F09FFD01215D
:105DB000024803F0D1FB0446204610BD4C9D002054
:105DC000C5E4D6C3B2CECAFDC6ACC7F8D2BBB4EDEB
:105DD000CEF3000006E04FF47A7100BF0A1EA1F175
:105DE0000101FBD1021EA0F10100F4D17047014670
:105DF000081100EB4000A1EB4000C0B2704700006A
:105E000030B50246002441F66F2316E0E01800EB9F
:105E1000D07569100B4830F82100904204D1094830
:105E200000EB8100408830BD064830F821009042E8
:105E300001DA4C1C00E04B1E00BF9C42E6DD002056
:105E4000F1E7000034F70008F0B5034600201C46D7
:105E50000D46104603E014F8016B05F8016B161EA1
:105E6000A2F10107BAB2F6D1F0BD30B5034601E0A8
:105E700003F8011B141EA2F10105AAB2F8D130BD2E
:105E800000BFFEE72DE9F04105460E46424803F00B
:105E90002DFDA84202DC0020BDE8F08105EB4500A5
:105EA0003D4901EB8004142231463C4808F014FDC2
:105EB000207A092833D008DC02280FD0042837D0F4
:105EC000052823D0062863D116E00B280BD018280C
:105ED0004BD01A2856D01D285AD12FE0606808B13F
:105EE0006068804754E0304602F074F80746FFF7D8
:105EF000D1FB616808704BE0304602F06BF8074652
:105F0000FFF7AFFB40B26168087041E0304602F035
:105F100061F80746FFF7BEFB6168088038E030464D
:105F200002F058F80746FFF7B5FB616808602FE0FC
:105F3000304602F04FF86168086029E018A1304649
:105F400006F08BF840B160680068627A01219140E8
:105F500008436168086007E060680068627A0121B0
:105F6000914088436168086012E00DA1304606F058
:105F700074F818B101206168087002E000206168BF
:105F8000087005E0627A30466168FFF75DFF00BF88
:105F900000BF012080E70000B4F500080044004085
:105FA0005400000070B504460D460A4803F09EFCFC
:105FB000A04201DC002070BD04EB4400054A02EB66
:105FC0008001284603F064FB284602F065F8C6B25B
:105FD0003046F0E7B4F500080246002110E0505CBE
:105FE000392801DD012000E00020535C302B01DA6C
:105FF000012300E00023184308B100207047491C2A
:106000000B29ECDB0120F9E702E0002200F8012B6C
:106010000A1EA1F1010399B2F7D1704710B500240F
:1060200000F092F804E0601CC4B2012000F038F8DF
:10603000114801881148006801F070FC08B1642C17
:10604000F1DB642C01DB012010BD002404E0601CA6
:10605000C4B2012000F024F807480188074800680E
:1060600001F05CFC08B9642CF1DB642C01DB01203D
:10607000EAE70020E8E70000880000208C0000200C
:10608000002107E042F6E06100BF0A1EA1F1010312
:1060900099B2FAD1021EA0F1010398B2F2D1704771
:1060A000002106E0072100BF0A1EA1F1010399B2F9
:1060B000FAD1021EA0F1010398B2F3D1704700009B
:1060C0002DE9F04105460E462C784FF6FF7000EAA8
:1060D00004246878044304F4004060B1E143491C9F
:1060E00041F40040FFF7A2FA074614493846FFF78B
:1060F000D7F8074608E02046FFF7A1FA07460F4900
:106100003846FFF7CDF807460D493846FFF75EFBE6
:1061100002D24FF0010801E04FF00008094938466B
:10612000FFF74AFB01D2012000E0002008EA000846
:10613000B8F1000F00D03760BDE8F08100002041C9
:1061400000007AC40000F04208B508480088ADF8A5
:10615000000003208DF8020048208DF803006946F6
:106160000348006801F00CFB08BD00008800002017
:106170008C00002008B508480088ADF80000032016
:106180008DF8020010208DF803006946034800686E
:1061900001F0F6FA08BD0000880000208C00002005
:1061A0002DE9FC4105460E4600F074F8FFF736FF76
:1061B00010B10120BDE8FC81002405E000F05AF890
:1061C0000DF80400601CC4B2052CF7DB9DF800003C
:1061D0009DF8011008449DF8021008449DF8031032
:1061E0000844C7B29DF80400B84201D00120E1E79D
:1061F0001DB131466846FFF763FF26B129460DF110
:106200000200FFF75DFF0020D4E7000010B5002476
:1062100004E0601CC4B20120FFF742FF134801886C
:106220001348006801F07AFB08B1642CF1DB00240C
:1062300004E0601CC4B20120FFF732FF0B48018864
:106240000B48006801F06AFB08B9642CF1DB2320DD
:10625000FFF726FF054801880548006801F05EFB4E
:1062600008B1012010BD0020FCE7000088000020DC
:106270008C00002070B50024002506E06006040EA6
:10628000FFF7C4FF0443681CC5B2082DF6DB2046A7
:1062900070BD000010B5FFF76DFF0948018809487F
:1062A000006801F044FB0A20FFF7EAFE0448018879
:1062B0000448006801F03DFB5020FFF7F1FE10BDDF
:1062C000880000208C00002021B1026842F0010209
:1062D000026004E002684FF6FE731A4002607047E5
:1062E00001684FF6FE7211400160002101604160BB
:1062F0008160C1604B49884208D14A4908394968E0
:1063000041F00F01474A083A51608AE0454914318B
:10631000884208D143490839496841F0F001414AAF
:10632000083A51607DE03F492831884208D13D4913
:106330000839496841F470613A4A083A516070E09E
:1063400038493C31884208D136490839496841F416
:106350007041344A083A516063E032495031884212
:1063600008D130490839496841F470212D4A083A6A
:10637000516056E02B496431884208D129490839D7
:10638000496841F47001274A083A516049E02549BB
:106390007831884208D123490839496841F0706151
:1063A000204A083A51603CE01F49884206D1011F4B
:1063B000096841F00F01021F116032E01A491431DF
:1063C000884208D11849091F096841F0F001164AAE
:1063D000121F116025E014492831884208D1124962
:1063E000091F096841F470610F4A121F116018E01B
:1063F0000D493C31884208D10B49091F096841F415
:106400007041094A121F11600BE007495031884260
:1064100007D10549091F096841F47021024A121F7A
:1064200011607047080002400804024010B50022C5
:10643000026847F6F0739A430C6A8B6823430C6931
:1064400023434C6923438C692343CC6923434C6A1F
:1064500023438C6A23431A430260CB6843600B6872
:1064600083604B68C36010BD08B50121082004F0AB
:106470001DFD0D480088ADF8000010208DF80300C8
:1064800003208DF8020069460848006801F078F999
:10649000054801880548006801F04BFA00F0B2F9A0
:1064A00000F006F808BD00009000002094000020D5
:1064B00010B5002400F0BEF804E0601CC4B2012056
:1064C00000F028F8114801881148006801F026FA08
:1064D00008B1C82CF1DBC82C01DB012010BD002461
:1064E00004E0601CC4B2012000F014F807480188E1
:1064F0000748006801F012FA08B9F02CF1DBF02C23
:1065000001DB0120EAE70020E8E70000900000201E
:1065100094000020002106E0062100BF0A1EA1F120
:10652000010399B2FAD1021EA0F1010398B2F3D18E
:10653000704700002DE9FE4F824600F089F900F017
:1065400061F9FFF7B5FF044614B10120BDE8FE8FE5
:10655000CC2000F089F9BE2000F086F9002405E087
:1065600000F0BEF80DF80400601CC4B2092CF7DB83
:106570000821684607F0AAF804469DF80800A042E2
:1065800005D0052126A000F0B1F90020DEE79DF836
:10659000010007281EDD9DF80100C043C0B28DF840
:1065A00001009DF80000C043C0B28DF800009DF8C6
:1065B00001904FF6FF7000EA09299DF8000040EABB
:1065C00009094846FFF73BF805460021FEF733FE70
:1065D00083460DE09DF801904FF6FF7000EA09290F
:1065E0009DF8000040EA09094846FFF728F883466D
:1065F0005846FFF782F8074600220C4BFEF735FF9E
:106600000546FFF7BDF88346BAF1000F05D00849EB
:106610005846FEF745FECAF80000002096E7000045
:10662000D0A3D1E9B4EDCEF3000000000000E43FB8
:106630000000204108B508480088ADF8000003209C
:106640008DF8020048208DF8030069460348006871
:1066500001F096F808BD0000900000209400002092
:1066600008B508480088ADF8000003208DF8020046
:1066700010208DF8030069460348006801F080F897
:1066800008BD0000900000209400002010B5FFF726
:10669000E7FF114801881148006801F048F902201D
:1066A000FFF738FF0C4801880C48006801F041F9F9
:1066B000FFF7C0FF0520FFF72DFF074801880748B7
:1066C000006801F02BF908B1012400E00024322019
:1066D000FFF720FF204610BD90000020940000200E
:1066E00070B50026012508E0FFF7D0FF0446E00161
:1066F00040EA6600C6B2681CC5B2082DF4DD30461B
:1067000070BD000070B506460C4600253A4890F86A
:10671000B00000F0400018B34FF40071374800F0AB
:10672000DBF821463046FFF73BFD78B1344800786E
:10673000401C33490870084600780A285ADD2E4864
:10674000006920F440702C49086153E000202C4976
:1067500008702948006940F440702749086149E001
:106760004FF40071254800F069F83046FFF7E2FE6B
:1067700005468DB122480078401C21490870084622
:1067800000780A2811DDFFF76FFE1B48006920F42E
:1067900080701949086108E00020194908701648FE
:1067A000006940F48070144908614FF48071134807
:1067B00000F044F82046FFF7BDFE05468DB11048B5
:1067C0004078401C0E494870084640780A2811DD80
:1067D000FFF74AFE0848006920F400700649086186
:1067E00008E00020064948700348006940F4007042
:1067F0000149086170BD0000389D0020000C014077
:10680000A700002010B5FFF72BFF0A4801880A48AF
:10681000006801F08CF840F2EE20FFF77BFE05489F
:1068200001880548006801F084F80F20FFF772FE28
:1068300010BD00009000002094000020024A10606B
:10684000024A118070470000940000209000002050
:1068500010B5FFF7D7FFFFF72BFECC2000F004F8B0
:10686000442000F001F810BD70B50446FFF7F8FEB3
:1068700001252AE004F00106641096B1144801884D
:106880001448006801F053F80220FFF743FE104857
:1068900001881048006801F04CF83C20FFF73AFEF0
:1068A00011E00B4801880B48006801F040F83C20DB
:1068B000FFF730FE064801880648006801F039F805
:1068C0000220FFF727FE681CC5B2082DD2DD70BD7F
:1068D0009000002094000020024A1060024A1180BB
:1068E000704700008C000020880000200FB42DE9C4
:1068F000F04186B0002501260027B00202F0D0FF4B
:10690000044655480078FF2801D1012000E000200E
:1069100051490978514A1278914201D1012100E090
:106920000021084300287DD00DA805902046059A37
:106930000C9908F069F8002005900DA805906946AB
:106940000C9801F008FA06462AE02846691CCDB2E8
:106950001DF80000012804D0022806D003281AD10F
:1069600015E0059880C8059019E00598C01D20F035
:1069700007000590D0E90021DDF814C00CF1080CE7
:106980001046CDF814C0FEF799FE074607E00598BB
:1069900080C8059003E0059880C8059000BF00BF3F
:1069A000301EA6F10106D0D1059880C805900020C0
:1069B00005902B480078FF2801D1012000E000203D
:1069C00027490978B94201DB012100E00021084391
:1069D00048B3214623A005F01FFB2348007800F0B0
:1069E000020068B12149087800F0F4FB40B120466C
:1069F00001F052FB8046424621461D4807F06CFFDD
:106A00001948007800F0040080B11849487800F077
:106A1000E1FB58B1204601F03FFB8046424621464B
:106A2000144801E012E00EE007F056FF124800683B
:106A300048B1204601F030FB00F0FF0841462046F7
:106A40000D4A12689047204602F004FF06B0BDE8E8
:106A5000F0015DF814FB00007C0000204C000020D9
:106A60007E0000200D0A00007D000020280000208C
:106A7000003801400044004078000020FF20014918
:106A8000087070477C0000200248007802490870B6
:106A9000704700004C0000207C0000200149087075
:106AA000704700007D000020014908707047000019
:106AB0007E000020704701460A2091FBF0F000EBB9
:106AC000400001EB4000C0B27047000010B500204C
:106AD0001A4908704FF4A07002F0E2FE18490860ED
:106AE000002406E0FF201749085517490855601C87
:106AF000C4B2052CF6DB00241DE000201049096813
:106B000001EB4411486103200D49096801EB441170
:106B1000087200200A49096801EB4411086108491C
:106B2000096801EB4411C8600549096801EB44118B
:106B30008861601CC4B20A2CDFDB10BD6C00002031
:106B400070000020280000202D00002038B500240F
:106B500054E02C48006800EB4410006800284BD03B
:106B60002848006800EB4410C079012806D00228AC
:106B700020D0032813D0042832D126E0032000902F
:106B80002048006800EB4410C3691E48006800EB11
:106B90004410214602681CA0FFF7A8FE2BE019480C
:106BA000006800EB44100323214602681CA0FFF795
:106BB0009DFE20E01348006800EB441003232146AB
:106BC000026817A0FFF792FE15E00E48006800EB80
:106BD000441003232146026811A0FFF787FE0AE054
:106BE0000848006800EB44100323214602680CA00B
:106BF000FFF77CFE00BF00BF601CC4B20A2CA8DBFC
:106C000038BD0000700000204465766963655B252F
:106C1000645D4E616D653A25735B25645D0000001F
:106C20004465766963655B25645D4E616D653A25F3
:106C3000730000002C4800782C4908702A4800781E
:106C4000401C294908702948007829490968274AC1
:106C5000127801EB4211087126A125480068234AE9
:106C6000127800EB421001600020214909681F4A98
:106C7000127801EB4211487103201D4909681B4A33
:106C8000127801EB4211C871012119480068174AB6
:106C9000127800EB42100172184815490968134A2E
:106CA000127801EB421148610021114800680F4A37
:106CB000127800EB4210C1610D4800680B4A12784F
:106CC00000EB4210C160002009490968074A1278A8
:106CD00001EB42110861002105480068034A12785F
:106CE00000EB4210816170476C000020830000209F
:106CF000700000204854313632310000C98200084B
:106D00002C4909782C4A11702A490978491C294ACA
:106D1000117029490978294A1268274B1B7802EB20
:106D20004312117126A1254A1268234B1B7802EBEE
:106D3000431211600021214A12681F4B1B7802EB9D
:106D40004312517102221D4909681B4B1B7801EB4C
:106D50004311CA71012219490968174B1B7801EBCD
:106D600043110A721749154A1268134B1B7802EB3C
:106D700043125161114909680F4A127801EB42111F
:106D8000C86100220D4909680B4B1B7801EB4311C8
:106D9000CA600021094A1268074B1B7802EB4312B4
:106DA0001161002205490968034B1B7801EB43116F
:106DB0008A6170476C000020800000207000002075
:106DC000494F0000997800082C4909782C4A117025
:106DD0002A490978491C294A117029490978294A00
:106DE0001268274B1B7802EB4312117126A1254A2A
:106DF0001268234B1B7802EB431211600021214AD9
:106E000012681F4B1B7802EB4312517104221D497B
:106E100009681B4B1B7801EB4311CA710122194908
:106E20000968174B1B7801EB43110A721849154A80
:106E30001268134B1B7802EB431251611149096828
:106E40000F4A127801EB4211C86100220D4909680E
:106E50000B4B1B7801EB4311CA600021094A1268F1
:106E6000074B1B7802EB43121161002205490968A8
:106E7000034B1B7801EB43118A6170476C000020C3
:106E80009F0000207000002049534C313230380000
:106E90005993000870B50546284607F0BFFB044625
:106EA0005F48005DFF2808D15E4800785C490855BE
:106EB0005C480078401C5B4908705BA05849095D3C
:106EC0005B4A126802EB4111086000205449095DD9
:106ED000574A126802EB4111487101205049095D7F
:106EE000534A126802EB4111C87103204C49095DF5
:106EF0004F4A126802EB411108724E484849095D39
:106F00004B4A126802EB411148614548005D48490F
:106F1000096801EB4010C46147494148005D444A9B
:106F2000126802EB4010C16044483D49095D404A87
:106F3000126802EB4111086100213948005D3C4AAA
:106F4000126802EB4010816100203D4921F81400D5
:106F50004FF4967002F0A4FC3A4941F82400284608
:106F600007F05CFB04463848005DFF2808D12D4837
:106F70000078354908552B480078401C294908708D
:106F800032A03149095D2A4A126802EB41110860BA
:106F900000202D49095D264A126802EB4111487113
:106FA00001212948005D224A126802EB4010C1719C
:106FB00003202549095D1E4A126802EB411108723F
:106FC0001C492148005D1A4A126802EB40104161D9
:106FD0001D48005D1649096801EB4010C461164860
:106FE0001949095D124A126802EB4111C860134841
:106FF0001549095D0E4A126802EB41110861002033
:107000001149095D0A4A126802EB411188614FF487
:10701000967002F045FC0F4941F8240070BD000055
:107020002D0000206C000020555341525278000082
:1070300070000020ADE30008A5E80008C5E70008DF
:10704000E4000020BC0000202800002055534152DD
:1070500054780000D00000202848007828490870A3
:1070600026480078401C2549087026A02749096851
:10707000234A127801EB4211086000202349096875
:107080001F4A127801EB4211487103201F49096819
:107090001B4A127801EB4211C87101211B4800689C
:1070A000174A127800EB4210017219481749096813
:1070B000134A127801EB421148610021134800681D
:1070C0000F4A127800EB4210C16112490F48006864
:1070D0000B4A127800EB4210C1600F490B48006860
:1070E000074A127800EB4210016100200749096845
:1070F000034A127801EB4211886170476C0000204E
:107100009D000020573235513136000070000020BC
:10711000ADB50008F5E90008E1E9000810B5032164
:1071200024A0FFF7E3FB002441E02948006800EBBE
:1071300044104069C8B32648006800EB4410C07989
:10714000012806D0022817D003280ED004282BD1FE
:107150001EE01F4A126802EB4412107F1C4A12689C
:1071600002EB4412516988471EE01949096801EB96
:1071700044114869804717E0154A126802EB44122F
:10718000D069134A126802EB4412516988470BE038
:107190000F4A126802EB4412D0690D4A126802EBE2
:1071A00044125169884700BF00BF601CC4B20A2C5A
:1071B000BBDB10BD546F732044657669636520495D
:1071C0006E69742E2E2E2E2E2E2E2E2E2E000000A8
:1071D000700000200146FF2901D1002070470548BA
:1071E000006800EB4110406908B90020F6E7012073
:1071F000F4E7000070000020012000F003F802F026
:10720000EDF90000014908607047000014040140D6
:10721000002123498279002A3AD00A46126803687D
:107220009A430B461A600A1D126803689A430B1DA5
:107230001A60027911440A6803681A430A60184AFE
:107240000832126803689A43154B08331A601A1DF6
:10725000126803689A43124B0C331A604279102A61
:107260000ED11A1F126803681A430D4B08331A60B7
:107270001A1D126803681A43094B0C331A600DE09B
:107280000749427911440A6803681A430A6005E015
:10729000027911440A6803689A430A607047000043
:1072A0000004014030B5044604254FF4302000F0BE
:1072B0006FF80546042D17D10C48006940F0020014
:1072C0000A49086108464461006940F040000861CD
:1072D0004FF4302000F05CF805460448006941F6A0
:1072E000FD71084001490861284630BD0020024078
:1072F00004200B49C96801F0010109B101200EE029
:107300000749C96801F0040109B1022007E00449F6
:10731000C96801F0100109B1032000E004207047A2
:10732000002002400348006940F0800001490861E4
:10733000704700000020024070B504460D46042648
:10734000F00200F025F80646042E11D10948006924
:1073500040F00100074908612580F00200F018F8AC
:1073600006460448006941F6FE710840014908617B
:10737000304670BD0020024002480349486003487F
:10738000486070472301674500200240AB89EFCD7C
:1073900000B502460423FFF7ABFF034603E0FFF707
:1073A000A7FF0346521E012B01D1002AF7D102B9D3
:1073B0000523184600BD2DE9F84F82460D461746B5
:1073C0004FF00008002000908146504600F064FE17
:1073D00000F0FF0BBBF1000F3BD00020287000260F
:1073E00035E01AF80640302C01DB012000E00020D7
:1073F000392C01DC012100E00021084058B9462C5D
:1074000001DC012000E00020412C01DB012100E033
:107410000021084048B14F4504D14046411C01F0CD
:10742000FF082C54012000900FE0009868B14F45F0
:1074300005D100224046411C01F0FF082A540020DB
:10744000009009F1010000F0FF09701CC6B25E4512
:10745000C7DB4046BDE8F88F2DE9F84F82460C4661
:1074600017464FF00008002000908146504600F07B
:1074700013FE00F0FF0BBBF1000F2FD00020207097
:10748000002529E01AF80560302E01DB012000E01C
:107490000020392E01DC012100E00021084048B124
:1074A0004F4504D14046411C01F0FF0826540120FD
:1074B00000900FE0009868B14F4505D1002240468A
:1074C000411C01F0FF0822540020009009F1010046
:1074D00000F0FF09681CC5B25D45D3DB4046BDE83E
:1074E000F88F70B50B46044603E014F8015B03F80F
:1074F000015B151EA2F10106B2B2F6D170BD2DE9F5
:10750000F0470646884614460027C146FFF734FF79
:107510002046E11704EBD151C1F34F27E11704EBEB
:10752000D1514912A4EB412109B1781C87B2002541
:1075300007E04FF4007101FB0760FFF7B3FE681C22
:1075400085B2BD42F5DB002508E039F8021B2A466A
:107550006B1C9DB206EB4200FFF7EEFE201EA4F16D
:1075600001018CB2F1D1FFF7DDFEBDE8F0870146E5
:107570000A461068704713B50246042301A903E0C8
:1075800011F8010B02F8010B181EA3F10104E3B27C
:10759000F6D104201CBD70B504460025107820B13A
:1075A00016782068B0FBF6F085B2206808442060A9
:1075B0001078984203DA1078401C107002E02068BE
:1075C000401B206016782068B0FBF6F080B270BDDA
:1075D0000FB438B5044606A800902046009A0599D5
:1075E00007F012FA0020009038BC5DF814FB30B5AB
:1075F00003460C46002514E01878802806DA13F8B4
:10760000010B24F8020B681C85B20AE059781A783D
:1076100041EA022000F01AF820809B1CA81C85B2C9
:10762000A41C18780028E7D1284630BD30B5ADF548
:10763000017D04460D4601A92046FFF7D8FF2946E3
:1076400001A800F04BFD0DF5017D30BD024641F66D
:107650006F210AE0074800EB81004088904203D187
:10766000044830F821007047491E0029F2D100205B
:10767000F9E7000034F7000810B5044629488442B1
:1076800008D10121042003F021FC0021042003F093
:107690001DFC46E02448844208D10121082003F063
:1076A00015FC0021082003F011FC3AE01F48844239
:1076B00008D10121102003F009FC0021102003F063
:1076C00005FC2EE01A48844208D10121202003F055
:1076D000FDFB0021202003F0F9FB22E01548844245
:1076E00008D10121402003F0F1FB0021402003F0EC
:1076F000EDFB16E01048844208D10121802003F000
:10770000E5FB0021802003F0E1FB0AE00B48844206
:1077100007D10121801503F0D9FB0021A01503F04A
:10772000D5FB10BD00080140000C014000100140D5
:107730000014014000180140001C014000200140DD
:1077400030B500228B071C0F0F2303FA04F20B4BFA
:107750008C1053F824309343084C8D1044F8253096
:1077600023468C1053F824308C07240F00FA04F4BD
:107770002343024C8D1044F8253030BD08000140F1
:107780002DE9F041024600250026002000230024B8
:10779000002791F803C00CF00F0591F803C00CF01E
:1077A000100CBCF1000F03D091F802C04CEA0505A3
:1077B00091F800C0BCF1000F31D0146800202BE01C
:1077C0004FF0010C0CFA00F3B1F800C00CEA03060C
:1077D0009E4220D183004FF00F0C0CFA03F7BC43FC
:1077E00005FA03FC4CEA040491F803C0BCF1280F2D
:1077F00006D14FF0010C0CFA00FCC2F814C00AE0EC
:1078000091F803C0BCF1480F05D14FF0010C0CFA00
:1078100000FCC2F810C0401C0828D1D31460B1F895
:1078200000C0BCF1FF0F34DD546800202EE000F1F1
:10783000080C4FF0010808FA0CF3B1F800C00CEA8C
:1078400003069E4221D183004FF00F0C0CFA03F780
:10785000BC4305FA03FC4CEA040491F803C0BCF1F4
:10786000280F05D100F1080C08FA0CF8C2F81480B2
:1078700091F803C0BCF1480F07D100F1080C4FF09C
:10788000010808FA0CF8C2F81080401C0828CED372
:107890005460BDE8F081000038B5044636E01D4A6A
:1078A0006068811A904217D009DC1B49084468B10E
:1078B000B0F5806F0CD0B0F5006F13D10AE0B1F5D0
:1078C000806F0BD0B1F5006F0CD109E0042509E001
:1078D000082507E0102505E0202503E0402501E00C
:1078E000802500BF00BF45F00100012103F0DEFA52
:1078F00020788DF802002089ADF8000060788DF8BE
:10790000030069466068FFF73BFF0C3420780028CD
:10791000C5D138BD0014014000F8FEBF024600206A
:1079200093680B400BB1012000E0002070474161DB
:1079300070470161704700002DE9F04104460D4693
:1079400001271DE012494FF4967248680021FEF7A6
:107950008CFA2B46322200210E4806F04BFFC6B2AD
:1079600076B10B48052241680BA0FEF7BFFF08491E
:107970004868214604F071FB10B10120BDE8F08198
:10798000381EA7F10101CFB2DCD100BFF6E700003D
:10799000BC00002000440040B7B5BBD83A25730DA9
:1079A0000A0000002DE9F04104460D46012725E0BC
:1079B00016494FF4967248680021FEF756FA2B4696
:1079C00032220021124806F015FFC6B296B10F48C8
:1079D000052241680FA0FEF789FF0C49486821463F
:1079E000FDF7C2FB10B10120BDE8F0814FF47A70C1
:1079F00006F078F84FF47A7006F074F8381EA7F1A4
:107A00000101CFB2D4D100BFEEE70000BC000020DE
:107A100000440040B7B5BBD83A25730D0A000000FA
:107A20002DE9F04104460F4615464FF0010825E0C8
:107A300017494FF4967248680021FEF716FA2B4654
:107A400032220021134806F0D5FEC6B2B6B1104866
:107A50000522416810A0FEF749FF0D4948682146FC
:107A600004F0FBFA10B10120BDE8F0810849486834
:107A7000394604F0F2FA08B10120F5E7B8F1000048
:107A8000A8F1010101F0FF08D2D100BFECE700002E
:107A9000BC00002000440040B7B5BBD83A25730DA8
:107AA0000A0000000246114623E008782E281FD164
:107AB00011F8010C302801DB012000E0002011F852
:107AC000013C392B01DC012300E00023184078B190
:107AD0004878302801DB012000E000204B78392B6A
:107AE00001DC012300E00023184008B101207047A9
:107AF000491C08780028D8D100BFF8E770B50446C3
:107B00000D4616460A2332462946204600F002F862
:107B100070BD00002DE9F04105460C4616461F4693
:107B200037E029461E4806F0E8FE1E494FF49672DB
:107B300048680021FEF799F933463222002118489F
:107B400006F058FE00F0FF08B8F1000F1DD01548F0
:107B50000522416814A0FEF7C9FE2078212808D12B
:107B600010494868611CFDF7FFFA50B90120BDE8D3
:107B7000F0810C4948682146FDF7F6FA08B101206A
:107B8000F5E74FF47A7005F0ADFF4FF47A7005F029
:107B9000A9FF381EA7F10101CFB2C2D100BFE6E7AD
:107BA00000440040BC000020B7B5BBD825730D0AC7
:107BB0000000000070B50446002500BF2846691C7F
:107BC000CDB2052801DD032070BD05211EA0FEF702
:107BD0008DFE2048006920F010001E4908612046F3
:107BE000FFF760FF40B14FF47A721BA11BA0FFF7B3
:107BF00085FF50B90120E7E74FF47A7216A11BA068
:107C0000FFF77CFF08B90120DEE74FF47A7005F03A
:107C100069FF2146194806F070FE042218A11CA035
:107C200000F082F800B9C9E74FF4FA6005F05AFF96
:107C300005211AA0FEF75AFE0648006940F0100020
:107C4000044908610020BFE7C1ACBDD3B7FECEF147
:107C5000C6F70000389D00204F4B000041542B51C7
:107C600049444E5349503D300D0A000041542B51B8
:107C700049444E5349503D310D0A00000044004034
:107C8000414C524541445920434F4E4E45435400C8
:107C9000434F4E4E454354204F4B0000C1ACBDD323
:107CA000B3C9B9A60000000070B50546012622E060
:107CB00014494FF4967248680021FEF7D6F82B4617
:107CC00032220021104806F095FDC4B29CB10D4946
:107CD00048680EA1FDF748FA28B105210DA0FEF76E
:107CE00005FE002070BD0748224641680CA002F046
:107CF000E9F80120F6E7301EA6F10101CEB2D7D196
:107D000000BFEFE7BC00002000440040434C4F534D
:107D100045440000C1ACBDD3B1BBB9D8B1D500005A
:107D2000BDD3CAD53A0000002DE9F04106460F4602
:107D3000144600250BE04FF47A7239463046FFF7BF
:107D40006FFE10B10120BDE8F081681CC5B2A542EC
:107D5000F1DB0020F7E7F0B504460A4600230020D7
:107D60000025214633E00E78252E02D10125461C40
:107D7000B0B2012D2AD10E78642E06D1AC461E4633
:107D80005F1CBBB202F806C000250E78662E07D134
:107D90004FF0020C1E465F1CBBB202F806C0002565
:107DA0000E78732E07D14FF0030C1E465F1CBBB23A
:107DB00002F806C000250E78632E07D14FF0040CA0
:107DC0001E465F1CBBB202F806C00025491C0E7897
:107DD000002EC8D1F0BD00002DE9FE4305460F4638
:107DE00000261C48006800901A48001D0068029098
:107DF000184808300068019000241BE014E05DF88A
:107E000024003E21B0FBF1F201FB1208404605F0D0
:107E100027FC3146721CD6B268545DF824003E211E
:107E2000B0FBF1F04DF824005DF824000028E6D105
:107E3000601CC4B2032CE1DB0F26384605F010FCB1
:107E40003246761CA85400223146761C6A543046CD
:107E5000BDE8FE83E8F7FF1FFEB50546002619487A
:107E6000006800901748001D00680290154808300F
:107E70000068019000241BE014E05DF824003E211E
:107E8000B0FBF1F201FB1207384605F0E9FB314681
:107E9000721CD6B268545DF824003E21B0FBF1F0AC
:107EA0004DF824005DF824000028E6D1601CC4B21F
:107EB000032CE1DB00223046711CCEB22A5430463E
:107EC000FEBD0000E8F7FF1F014600200A78302AB7
:107ED00001DB012200E000220B78392B01DC0123B9
:107EE00000E000231A401AB10A781207100E24E0AD
:107EF0000A78412A01DB012200E000220B78462BA0
:107F000001DC012300E000231A4022B10A78D21FCD
:107F10001207100E11E00A78612A01DB012200E04D
:107F200000220B78662B01DC012300E000231A40BD
:107F30001AB10A78D21F1207100E4A78302A01DBD4
:107F4000012200E000224B78392B01DC012300E004
:107F500000231A4022B14A78303A0244D0B224E0D9
:107F60004A78412A01DB012200E000224B78462BAF
:107F700001DC012300E000231A4022B14A78373A9D
:107F80000244D0B211E04A78612A01DB012200E00C
:107F900000224B78662B01DC012300E000231A400D
:107FA0001AB14A78573A0244D0B270470FB438B584
:107FB000044606A800902046009A059906F024FD84
:107FC00000200090204600F067F8C0B238BC5DF891
:107FD00014FB00002DE9FC5F05460026B346B146C0
:107FE0004FF07E5A44E015F8014B2D2C01D10126AB
:107FF0003EE02E2C02D14FF0010B39E0302C2EDB6D
:10800000392C2CDCBBF1000F0ED11F494846FDF77F
:1080100015F98146A4F13000FDF708FB07464946F3
:10802000FDF7B4F8814623E05046FDF766FB0746AE
:10803000164A174BFDF719FACDE90001FDF7A0FB31
:108040008246A4F13000FDF7F1FA80465146FDF773
:10805000F5F807464946FDF799F8814608E026B14C
:108060000C494846FDF7EAF881464846BDE8FC9FC2
:1080700028780028B7DC26B106494846FDF7DEF827
:1080800081464846F2E70000000020419A999999FC
:108090009999B93F000080BF10B5014600200A46FB
:1080A00001E0431C98B212F8014B002CF9D110BD2D
:1080B000002000210CE001EB4102074B1B6803EBA1
:1080C00002121289012A01D0421CD0B24A1CD1B23C
:1080D0001429F0DB704700005400002070B50446FE
:1080E0000E46002507E02288701905A1FFF75EFF04
:1080F000284485B2A41C20880028F4D1284670BDED
:1081000025303478000000000246002039B950784C
:108110004FF6FF7303EA00201378184306E0107847
:108120004FF6FF7303EA00205378184370470000AE
:108130000149088870470000E0F7FF1F10B50446AA
:108140002AA1204603F089FF08B1012010BD28A113
:10815000204603F082FF08B10220F7E725A1204660
:1081600003F07BFF08B10320F0E723A1204603F0D2
:1081700074FF08B10420E9E720A1204603F06DFF59
:1081800008B10520E2E71EA1204603F066FF08B112
:108190000620DBE71BA1204603F05FFF08B10720A4
:1081A000D4E719A1204603F058FF08B10820CDE715
:1081B00016A1204603F051FF08B10920C6E714A11B
:1081C000204603F04AFF08B10A20BFE711A120466C
:1081D00003F043FF08B10B20B8E70FA1204603F0DE
:1081E0003CFF08B10C20B1E70120AFE74A616E0007
:1081F000466562004D617200417072004D61790008
:108200004A756E004A756C004175670053657000D1
:108210004F6374004E6F76004465630070B5054689
:108220000024291901220DA0FFF716F92044C4B239
:108230000AA0FFF783FF0646281932460AA1FFF776
:10824000B5FE2044C4B22919002204A0FFF704F9A6
:108250002044C4B200202855204670BD4A756C20C9
:1082600031322032303136002D253032642D00007D
:1082700010B586B0002414E004EB4401002202EBA8
:10828000C1001822694606F0A1FB0098401C00B905
:1082900008E0601CC4B2012005F024FCFF2C00DBC8
:1082A00000E0E9E700BF0522214603A0FEF71EFB20
:1082B000204606B010BD0000B4F2D3A1BCC7C2BCBA
:1082C000CBF7D2FD2564000010B500240F48FFF75E
:1082D000E3FA562000F03CF8302000F039F8002096
:1082E00000F036F80A2000F033F8032000F030F8F0
:1082F000062000F02DF800BF05E0FF21204600F029
:1083000049FE601CC4B2202CF7DB10BD5CF50008F0
:1083100010B5002480210A48FFF700FB00B90224B1
:1083200040210748FFF7FAFA00B901240121054866
:10833000FFF7F4FA012800D10424204610BD000004
:10834000001001400008014001E001F047F9FCE79E
:1083500010B504464FF400410B48FFF7E8FA03203C
:1083600000F044F80421802000F010F80821204695
:1083700000F00CF84FF400410348FFF7DAFA04204C
:1083800000F034F810BD00000010014070B5044644
:108390000D46002624E04FF480411348FFF7C7FA4A
:1083A000032000F023F804F0800028B14FF40051BE
:1083B0000D48FFF7BEFA04E04FF400510A48FFF7FA
:1083C000B6FA032000F012F84FF480410648FFF798
:1083D000B0FA6006040E012000F008F8701CC6B266
:1083E000AE42D8DB70BD00000010014000EB400140
:1083F00088B200BF011EA0F1010290B2FAD170470D
:1084000010B5002400BF12E00A4A125D02F00F010D
:108410006206100E00F0BEFD064A125D1111012227
:1084200002EB4402D0B200F0B5FD601CC4B2102CC7
:10843000EADB10BD389E00203EB50020F9490873E4
:108440000A4692F8C91092F8C80000F04DFAF549B2
:108450000868FDF752F9044622460B46F2A1684629
:10846000FFF7B6F8EF48008A00F4807048B168461C
:1084700000F020FDEB48007B40F08000E9490873E4
:1084800008E0EBA000F016FDE648007B40F080001D
:10849000E4490873E3494868FDF72FF9044622468A
:1084A0000B46E1A16846FFF793F8DE48008A00F426
:1084B0000070B0B1DB4890F8B00000F0400030B17F
:1084C000D848007B40F00800D649087305E0D5483D
:1084D000007B40F01000D3490873684600F092FC1E
:1084E00015E0D04890F8B00000F0400030B1CD4821
:1084F000007B40F00800CB49087305E0C948007BC9
:1085000040F01000C7490873C9A000F07BFCCA48BE
:10851000007940F00200C84908710846807940F0AF
:1085200001008871BF48007BC87301204872BD48B4
:10853000008A00F4006040B3C0480078012804DDE0
:108540000846407A40F004004872BC48007802288F
:1085500005DDB948407A40F00600B7494872B7488F
:108560000078032805DDB448407A40F00E00B24997
:108570004872B24801780078401CB04A1070032954
:1085800033DD0120114608702FE0A6498868FDF709
:10859000B4F804460022AA4BFDF7DAF805D2A64843
:1085A000407A40F00400A44948729E498868FDF76B
:1085B000A4F80446A34AA44BFDF7CAF805D29E4886
:1085C000407A40F002009C49487296498868FDF75D
:1085D00094F8044600229D4BFDF7BAF805D2964860
:1085E000407A40F00800944948728E48008A00F4AE
:1085F000006028B19048407A40F010008E494872DF
:108600008848008A00F4806018B110208A49887375
:1086100005E08948807B20F01000874988738148F5
:1086200090F8CE00632801DA012000E000207D49A7
:1086300091F8CE10002901DD012100E00021084061
:1086400030B17D48007940F010007B49087105E0A9
:108650007948007920F0100077490871714890F846
:10866000CE00632801DA012000E000206D4991F876
:10867000CE100A2901DD012100E00021084030B1BF
:108680006D48007940F020006B49087105E06A48A8
:10869000007920F0200068490871624890F8CE0007
:1086A000632801DA012000E000205E4991F8CE1035
:1086B000142901DD012100E00021084030B15E48AD
:1086C000007940F040005C49087105E05A480079A3
:1086D00020F04000584908715248007C00F010001A
:1086E00030B15548807B40F040005349887305E025
:1086F0005148807B20F040004F4988734948007CF6
:1087000000F0030030B14C48007940F001004A49C4
:10871000087105E04848007920F0010046490871D9
:108720004048007C00F00C0030B14348407940F0F4
:1087300001004149487105E03F48407920F00100BF
:108740003D4948713748007C00F0050030B13A4897
:10875000807B40F080003849887305E03648807B94
:1087600020F08000344988732E48007C00F00A0015
:1087700030B13148807B40F020002F49887305E0FC
:108780002D48807B20F020002B4988732548007CF1
:1087900000F0800030B12848007940F004002649FC
:1087A000087105E02448007920F00400224908718E
:1087B0001C4890F8D200FF2806D11F48407B40F0AB
:1087C00040001D49487305E01B48407B20F04000F5
:1087D000194948731348007C00F0400030B1164836
:1087E000407B20F020001449487305E01248407B8C
:1087F00040F02000104948730A4890F8B00000F09B
:10880000800030B10C48807B40F00A000A49887330
:1088100005E00948807B20F00A0007498873FFF7CC
:10882000EFFD3EBD389D0020252E32662020000041
:108830002D2D2D2D00000000389E0020A6000020C8
:1088400000000C409A99999999990D4000001040A8
:1088500070B50446002504E0002016494855681C00
:10886000C5B2102DF8DB14A000F024FB052C18D2A3
:10887000DFE804F003070B0F130011A000F0C2FAA9
:1088800013E011A000F0BEFA0FE011A000F0BAFA58
:108890000BE011A000F0B6FA07E011A000F0B2FA68
:1088A00003E007A000F0AEFA00BF00BFFFF7A8FD8D
:1088B00070BD0000389E0020424F4F540000000061
:1088C00054502D300000000030432D3100000000D6
:1088D00055432D320000000055502D33000000009C
:1088E00030502D3300000000F8B504460D460A2034
:1088F00095FBF0F100FB11502B49085C8DF800004E
:108900000A2095FBF0F0085C8DF801000A2094FB2A
:10891000F0F100FB11402449085C8DF802000A20A8
:1089200094FBF0F0C6B21EB900208DF8030008E0F9
:10893000012E03D106208DF8030002E00C208DF8F3
:1089400003001A48007828B19DF8000040F010009C
:108950008DF800001548007808B9012000E00020DB
:10896000124908709DF8030040F080008DF8030064
:108970009DF8030040F010008DF803009DF80010F2
:10898000142000F0F1FA9DF80110162000F0ECFA26
:108990009DF80210182000F0E7FA9DF803101A2045
:1089A00000F0E2FAF8BD00009EF50008A5000020E6
:1089B000F0B587B00446002504E000206A49485518
:1089C000681CC5B2102DF8DB052C2AD2DFE804F0B4
:1089D000032A5179A1006549D1F8E800FCF78DFE22
:1089E000064632460B4662A104A8FEF7F1FD5F4938
:1089F000D1F8EC00FCF781FE064632460B465CA13E
:108A000001A8FEF7E5FD04A800F054FA01A800F063
:108A1000F9F95548007940F0020053490871A02047
:108A2000887391E05149D1F8F000FCF766FE0646E4
:108A300032460B464EA104A8FEF7CAFD4B49D1F8B9
:108A4000F400FCF75AFE064632460B4648A101A840
:108A5000FEF7BEFD04A800F02DFA01A800F0D2F93F
:108A60004148807940F001003F498871A020887317
:108A70006AE03E498869FCF740FE064632460B46EE
:108A80003BA104A8FEF7A4FD3849C869FCF735FEF0
:108A9000064632460B4636A101A8FEF799FD04A80A
:108AA00000F008FA01A800F0ADF92F48007940F075
:108AB00002002D4908710846007940F00100087154
:108AC00042E02A49086AFCF718FE064632460B4681
:108AD00029A104A8FEF77CFD2449486AFCF70DFE95
:108AE000064632460B4624A101A8FEF771FD04A8F4
:108AF00000F0E0F901A800F085F91B48807940F00A
:108B00000100194988710846407940F00100487118
:108B10001AE01BA104A8FEF75BFD144890F8D220D0
:108B200018A101A8FEF754FD04A800F0C3F901A89C
:108B300000F068F900200D4908730B48807B40F075
:108B40000A000949887300BF00BF00200649C873A6
:108B5000064A92F8C91092F8C800FFF7C5FEFFF761
:108B60004FFC07B0F0BD0000389E0020389D00206B
:108B7000252E326620200000252E326620000000BF
:108B8000202020002530336420202000FEB508205E
:108B90008B4908730A4692F8C91092F8C800FFF78B
:108BA000A3FE88A000F086F9854991F8D000FCF773
:108BB00046FD0646FCF7A1FD044622460B4683A16E
:108BC0006846FEF705FD684600F01CF9814800790B
:108BD00040F002007F4908710846807940F00100AA
:108BE00088717748007BC87301204872744988688F
:108BF000FCF783FD04464FF06632774BFCF7A8FD87
:108C000005D27448407A40F00400724948726C49B9
:108C10008868FCF772FD04464FF033326F4BFCF767
:108C200097FD05D26B48407A40F0020069494872CE
:108C300063498868FCF761FD04460022684BFCF735
:108C400087FD05D26348407A40F0080061494872C8
:108C50005B498868FCF751FD04464FF06632614B72
:108C6000FCF776FD05D25B48407A40F01000594988
:108C70004872534890F8CE00632806DA55480079C8
:108C800040F010005349087105E05248007920F087
:108C90001000504908714A4890F8CE00322806DA90
:108CA0004C48007940F020004A49087105E04948E5
:108CB000007920F0200047490871414890F8CE0023
:108CC000142806DA4348007940F040004149087111
:108CD00005E04048007920F040003E4908713848DE
:108CE000007C00F0100030B13A48807B40F040003A
:108CF0003849887305E03748807B20F040003549CB
:108D000088732F48007C00F0030030B131480079AF
:108D100040F001002F49087105E02E48007920F04D
:108D200001002C4908712648007C00F00C0030B18D
:108D30002848407940F001002649487105E025485F
:108D4000407920F00100234948711D48007C00F063
:108D5000050030B11F48807B40F080001D498873BA
:108D600005E01C48807B20F080001A498873144875
:108D7000007C00F00A0030B11648807B40F02000F3
:108D80001449887305E01348807B20F020001149C6
:108D900088730B4890F8B00000F0800030B10D48A7
:108DA000807B40F00A000B49887305E00948807B0E
:108DB00020F00A0007498873FFF722FBFEBD000080
:108DC000389D00202D55502D00000000252E3266C4
:108DD00020200000389E002066660E4033330F408E
:108DE000000010406666104070B505460C46044809
:108DF0000168284602F0E0FF265C304670BD0000A6
:108E0000840000207CB50646002435460822002157
:108E10006846FDF72AF81CE028782E280CD0287820
:108E20002349FFF7E1FF1DF8041008430DF8040083
:108E3000601CC4B26D1C09E06D1C1D492E20FFF79B
:108E4000D3FF1DF8041008430DF80400032C00DDC7
:108E500002E028780028DFD100BF6D4617E01449F2
:108E60002E20FFF7C1FF9DF80110084070B10324C8
:108E700009E0601E1DF800000DF804000021601ECE
:108E80000DF80010C4B2002C01DDF2E700E0E6E7C7
:108E900000BF002409E015F8011B0A2202EB44027E
:108EA000D0B200F061F8601CC4B2042CF3DB7CBDCE
:108EB00089F500087CB506460024354608220021C5
:108EC0006846FCF7D2FF1CE028782E280CD02878C2
:108ED0002449FFF789FF1DF8041008430DF804002A
:108EE000601CC4B26D1C09E06D1C1E492E20FFF7EA
:108EF0007BFF1DF8041008430DF80400032C00DD6F
:108F000002E028780028DFD100BF6D46062417E074
:108F100014492E20FFF768FF9DF80110084070B13A
:108F2000032409E0601E1DF800000DF80400002174
:108F3000601E0DF80010C4B2002C01DDF2E700E065
:108F4000E6E700BF002409E015F8011B0622A2EBAA
:108F50004402D0B200F008F8601CC4B2042CF3DB69
:108F60007CBD000074F5000870B504460D4605F0A0
:108F70000F01204600F00EF82911621CD0B200F05B
:108F800009F8204604EBD0714910014A555470BDD0
:108F9000389E002070B504460D464FF400410D4840
:108FA000FEF7C5FC0320FFF721FA0321A020FFF7FD
:108FB000EDF9A106080E0621FFF7E8F92907080ECA
:108FC0000421FFF7E3F94FF400410248FEF7B1FC3A
:108FD00070BD00000010014010B504460120A047FC
:108FE0000320A04710BD2DE9FF47074616461C4643
:108FF000DDE90C899DF804004006000E0190002C6C
:1090000016DD384600F0C0F8012201A9384600F00C
:1090100076F8054635B93846FFF7DEFF002004B084
:10902000BDE8F08722463146384600F068F805462C
:10903000384600F0A9F89DF8040040F001000190C6
:10904000012201A9384600F05AF805464A46414631
:10905000384600F006F80546384600F0ACF82846D9
:10906000DDE72DE9F04704460E461546A94628E0FF
:109070004FF00008002714E07806070E0320A047F1
:109080000A2006F031F90520A04708B147F0010792
:109090000420A0470A2006F027F908F1010000F09B
:1090A000FF08B8F1080FE7DB06F8017B002D04DDAF
:1090B0000021204600F00DF803E00121204600F0D9
:1090C00008F8281EA5F10101CDB2D1D14846BDE86E
:1090D000F08770B504460D4615B10120A04701E0A8
:1090E0000220A0470320A0470A2006F0FDF8042034
:1090F000A0470A2006F0F8F80120A04770BD2DE92E
:10910000F04704460E461546A94639E016F8018B8D
:10911000002717E008F0800010B10120A04701E00F
:109120000220A0470320A0470A2006F0DDF8042013
:10913000A0470A2006F0D8F8781CC7B24FEA48606A
:109140004FEA1068082FE5DB0120A0470320A04765
:109150000A2006F0C9F80520A04782460A2006F03A
:10916000C3F80420A0470A2006F0BEF8BAF1000FA9
:1091700004D0A9EB0500C0B2BDE8F087681EC5B2F7
:10918000002DC3D14846F7E710B504460320A04799
:10919000052006F0A9F80120A0470A2006F0A4F84F
:1091A0000220A0470A2006F09FF80420A0470A20CA
:1091B00006F09AF810BD10B504460220A04714200E
:1091C00006F092F80320A0470A2006F08DF801204F
:1091D000A0471E2006F088F810BD2DE9FF4707467E
:1091E00014461D46DDE90C899DF804004006000E7A
:1091F00001903846FFF7C8FF012201A93846FFF762
:109200007EFF064636B93846FFF7E6FE002004B07A
:10921000BDE8F0872A4621463846FFF770FF06462C
:109220004A4641463846FFF76AFF06463846FFF78A
:10923000C2FF3046EBE700002DE9F0410546094941
:109240002846FBF7FBFF0746FCF724FA86B2A6F593
:109250006170322190FBF1F0C4B284F0200420460A
:10926000BDE8F081000048437CB50446072269460A
:10927000002000F0D1F805460DB900207CBD9DF816
:10928000001001F07F00FCF7B2FDA0719DF8011005
:1092900001F07F00FCF7ABFD60719DF8021001F05A
:1092A0003F00FCF7A4FD20719DF8031001F03F0082
:1092B000FCF79DFDA0709DF8041001F01F00FCF765
:1092C00096FD60709DF80500FCF791FD20709DF8FB
:1092D0000600FCF78CFDE0700120CFE770B5044676
:1092E0000025062C33D2DFE804F032030C151E27CC
:1092F000184A12681189174A12685068FEF719FB5C
:1093000025E0144A12681189124A12685068FEF763
:109310000EFB1CE00F4A1268918A0E4A126810690F
:10932000FEF707FB13E00B4A1268918A094A12689C
:109330001069FEF7FCFA0AE0064A12681189054A2C
:1093400012685068FEF7EAFA00B1012500BF00BFBD
:10935000284670BDA000002038B5054600242C48E2
:1093600005600068FEF798FA01226946122000F0B5
:1093700053F804469DF800005D2847D010210720CF
:1093800000F0DAF804409021082000F0D5F80440FD
:109390002048FFF751FF00909DF800100A2000F0D0
:1093A000CBF8044000210B2000F0C6F804405D21FA
:1093B000122000F0C1F8044000231A46194618464E
:1093C00000F03AF804400021084600F0B5F80440E7
:1093D0000021012000F0B0F804408021022000F0BC
:1093E000ABF804400121032000F0A6F8044001215D
:1093F000042000F0A1F804400021052000F09CF8B2
:1094000004400621084600F097F80440204638BD85
:10941000A00000200000C04037B582B00C461546C1
:10942000012302AA6F210348CDE90045FFF7DBFDC8
:1094300005B030BDDD9200082DE9F84381460F46A6
:1094400090461C4601264046FDF735FB8DF800008E
:109450003846FDF730FB8DF801004846FDF72BFB41
:109460008DF8020004F0010028B19DF8000040F0E2
:1094700080008DF8000004F0020028B19DF8010082
:1094800040F080008DF8010004F0040028B19DF840
:10949000020040F080008DF80200002509E01DF870
:1094A000051005F10C02D0B200F046F80640681C29
:1094B000C5B2032DF3DB002C05DDD021082000F020
:1094C0003BF8064004E09021082000F035F8064003
:1094D0003046BDE8F8837CB50446A079FDF7EBFA89
:1094E0008DF800006079FDF7E6FA8DF8010020792B
:1094F000FDF7E1FA40F080008DF80200A078FDF75A
:10950000DAFA8DF803006078FDF7D5FA8DF80400DB
:109510002078FDF7D0FA8DF80500002507E01DF84A
:109520000510E8B200F008F80640681CC5B2072D27
:10953000F5DB30467CBD000003B583B0012004A9F3
:10954000034603AACDE900106F210248FFF745FE4C
:1095500005B000BDDD92000870B504460D462B46EF
:1095600022460249024800F005F870BD00F80308E1
:10957000E37400082DE9F0470746884614461D4667
:10958000A14608EBC52004222146B8474E46308844
:10959000B0F5006F01DD012000E0002031880429D2
:1095A00001DA012100E00021084300B113E0328814
:1095B00008EBC5202146B8473088001F81B209F169
:1095C000040004F063F882467188514500D002E03F
:1095D0000120BDE8F0870020FBE7000071B600BF66
:1095E0000648006800F4E06005490843001D03498F
:1095F0000860BFF34F8F00BF00BFFEE70CED00E037
:109600000000FA0530B50246002000BF02F07F03DB
:10961000D2090AB143F080030446451CE8B20B5559
:10962000002AF3D130BD000010B5052106A0FDF7DA
:109630005DF908A10B4805F060F94FF47A710AA0B2
:10964000FEF77AF910BD0000C9BEB3FDCFFBCFA273
:109650000000000041542B434D47443D312C340D54
:109660000A000000004400404F4B000070B5054662
:1096700025B1284604F008FB044602E004F0D2FAC3
:10968000044614B16668304670BD0020FCE7000057
:10969000F0B59DB005460C46607A48B1627A04A9DF
:1096A0006068FCF7D1FB0020617A04AA505403E003
:1096B00004A9606802F09EFC207A0D2839D009DCEC
:1096C00075D2DFE800F0AC10ACAC231C63ACAC424C
:1096D000AC152F0017380728F2D2DFE800F03D461E
:1096E000A03074825F0028462168FDF771FF9BE07F
:1096F0006068027828462168FDF76AFF94E0606898
:10970000028828462168FDF763FF8DE061680868DC
:10971000FBF7F3FF06460B46324628462168FDF765
:1097200057FF81E06068027828462168FDF750FF06
:109730007AE02846D4E90012FDF74AFF74E004AA53
:1097400028462168FDF744FF6EE0606802682846FD
:109750002168FDF73DFF67E06068804706463246B6
:1097600028462168FDF734FF5EE060680078002835
:1097700001DD012000E0002000EB40002C4B03EB5A
:10978000400228462168FDF723FF4DE0606890F90C
:10979000002028462168FDF71BFF45E0606800684F
:1097A000667A0123B340184010B1012001E036E091
:1097B000002000EB40001E4B03EB400228462168CE
:1097C000FDF706FF30E06068007861684978CDE910
:1097D000001060688378C27828462168FDF7F8FE9B
:1097E00022E06168098888B202F0BAFC03906168DF
:1097F000098888B202F0B4FC02906168098888B2D6
:1098000002F0AEFC01909DF80E0000909DF809302A
:109810009DF8042028462168FDF7DAFE04E028467A
:109820002168FDF7D5FE00BF00BF1DB0F0BD0000F0
:10983000A8F5000800BFFEE7054A1168486802E085
:1098400009684A6810440A68002AF9D17047000084
:109850007400002002460A4B1868002106E0A2F1BD
:109860000803834200D107E0014600680368002B2B
:10987000F5D101B10B60704703680B6000BFFAE7D8
:1098800074000020054908600021044A1268116034
:109890000821024A126851607047000074000020DD
:1098A00010B503461048016803F1080083B20FE0C9
:1098B0000868401A4C68001B984208D34868421850
:1098C0005360086810600A6002F1080010BD096862
:1098D00008680028ECD148684218002010605360E6
:1098E0000A6002F10800F1E7740000200146002040
:1098F0000A4602E00C32431CD8B2137A002BF9D18D
:10990000704730B5039C7E2505707F2505738270F6
:109910004170C373447330BD2DE9F05F06460C46B9
:1099200091469A46DDF828B00C9F002584F80390F4
:1099300084F804A084F808B0678117B1F81CE080AF
:1099400001E00020E08022782846691C8DB2325464
:10995000E07B50B9A2782846691C8DB232546278F7
:109960002846691C8DB232540CE0E07B012809D1F5
:1099700062782846691C8DB23254A2782846691C48
:109980008DB23254E2782846691C8DB23254227965
:109990002846691C8DB23254E08802122846691CA0
:1099A0008DB23254A2792846691C8DB23254BFB1AF
:1099B000227A2846691C8DB23254608902122846E8
:1099C000691C8DB23254A27A2846691C8DB2325479
:1099D000628971190B98FCF737FA6089284485B2BF
:1099E000607B012810D12946304603F04FFE8046A7
:1099F0004FEA28222846691C8DB232542846691C39
:109A00008DB206F800800BE0607B022808D1681E4A
:109A100081B2304603F076FE29466A1C95B2705436
:109A2000227B2846691C8DB232542846BDE8F09F3F
:109A30002DE9F05F06468B4614460025AA46012014
:109A4000A07329466D1C705C2178884200D099E093
:109A5000E07B50B92846691C8DB2305C6178884241
:109A600000D093E0681C85B220E0E07B01281DD186
:109A70002846691C8DB216F80080A078404501D0B8
:109A8000012000E00020B8F1FF0F01D0012100E02B
:109A90000021084000B179E0681C85B2B8F1FF0FE1
:109AA00002D14FF0010901E04FF000092846691C7E
:109AB0008DB2305CE0702846691C8DB2305C20713C
:109AC0002846691C8DB2305CE080E0884FF6FF715B
:109AD00001EA0020E080E08829466A1C95B2715CAA
:109AE0000843E080E08800B32846691C8DB2305CF2
:109AF00020722846691C8DB2305C608160894FF607
:109B0000FF7101EA00206081608929466A1C95B2D4
:109B1000715C08436081AA466089284485B2E18867
:109B20006089C01C814200D034E0607B022809D1EA
:109B30002946304603F0E6FD0746715DB94200D084
:109B40001CE010E0607B01280CD12946304603F070
:109B50009DFD074670190121FEF7D6FAB84200D0E4
:109B60000CE000E000BFB9F1010F02D10620A073A4
:109B700001E00020A0735046BDE8F09F0220A073D2
:109B80000020F9E70520A0730020F5E70620A07368
:109B90000020F1E70120A0730020EDE770470000EE
:109BA00070B5002100230F22C47804B3154C24683B
:109BB00004F4E064C4F5E064210AC1F10403CA407E
:109BC000447804FA03F184781440214309010E4CCF
:109BD0000678A155047804F01F050124AC400578EF
:109BE0006D11AD0005F1E025C5F8004109E00478EC
:109BF00004F01F050124AC40044D0678761145F8A9
:109C0000264070BD0CED00E000E400E080E100E0E3
:109C100002490143024A1160704700000000FA0542
:109C20000CED00E0024A0A400243024B1A60704702
:109C300080FFFF1F08ED00E010B588B000226946E4
:109C40000BA000F0B3FA044674B16846FCF7C4F9FF
:109C500050B10522694609A0FCF748FE0B220C49C9
:109C60000DF10200FCF7F0F8204608B010BD00002E
:109C700041542B435343413F0D0A0000B6CCD0C59D
:109C8000D6D0D0C4BAC5C2EB3A5B25735D000000E4
:109C9000149E002001490862704700000000424203
:109CA00010B5024600200C4B186820F0030010434A
:109CB00018600A4B1B6843F00403084C2360012919
:109CC00001D130BF00E020BF044B1B6823F0040328
:109CD000024C236010BD00000070004010ED00E059
:109CE0000149086070470000A0044242704700002C
:109CF00010B5032209A10BA0FCF7F8FD03220DA16A
:109D000010A0FCF7F3FD0322124913A0FCF7EEFDAF
:109D10000322164916A0FCF7E9FD10BD545035305A
:109D200030000000426F6172645F4E616D653A25DC
:109D30007300000053544D33324C3135315242548C
:109D4000360000004350555F4D6F64656C3A2573D3
:109D50000000000000127A004370755F4F53435FAC
:109D6000465245513A2025644D687A0000A24A04C3
:109D70004370755F467265713A2025644D687A00BC
:109D80007047000000B585B06846FEF765F803220D
:109D9000694602A0FCF7AAFD05B000BD4F6E6C79C4
:109DA00049443A25730000007047000010B50321B4
:109DB00008A0FCF79BFDFFF79BFFFFF7E1FFFFF714
:109DC000E1FFFCF7C3FE00F013F8FFF7EDFF00F032
:109DD0002FF810BD0A546F732053797374656D208A
:109DE00053746172742E2E2E2E2E2E2E2E2E2E0099
:109DF00010B5FEF75DF9044603232246142102A0A4
:109E0000FCF774FD10BD00005461736B506F6F6CF4
:109E100053697A653A2564206275742068617320FD
:109E20002564207461736B206372656174652E0014
:109E300038B500241DE004EB44001549096801EB26
:109E40000010C06A98B10320009004EB4400104950
:109E5000096801EB0010038C04EB44000C4909680D
:109E600001EB00102146C26A0AA0FCF73FFD601C0E
:109E7000C4B2142CDFDB601EC4B2FFF7DDFC054664
:109E800003232A4649F6404107A0FCF72FFD38BDC1
:109E9000540000205461736B5B25645D4E616D65F9
:109EA0003A257328256429004D656D6F72795369D1
:109EB0007A653A25642062757420757365723A2557
:109EC000640000002DE9F04105460E4617460522C4
:109ED000294608A0FCF70AFD002407E0325D0523AF
:109EE000214605A0FCF702FD601C84B2BC42F5DBF4
:109EF000BDE8F081257300004275665B25645D3D19
:109F0000307825780000000010B500F085FB04468D
:109F10002CB10522214604A0FCF7E8FC03E0052152
:109F200006A0FCF7E3FC10BDB7A2CBCDC5E4D6C3B9
:109F3000D6A1CAA7B0DC5B25645D0000B7A2CBCD7B
:109F4000C5E4D6C3D6A14F4B0000000000B599B0C0
:109F50000948B0F8AA3000F1890208A16846FDF767
:109F600037FB052269460CA0FCF7C0FC6846FDF7EC
:109F700021FE19B000BD0000389D002041542B5136
:109F8000494F50454E3D22544350222C22257322E6
:109F90002C25640D0A000000C1ACBDD3B5BD3A2527
:109FA0007300000010B500244FF4FA6228A129A024
:109FB000FDF7A4FD00B9012400F0DEF8284981F87E
:109FC000CE00052127A0FCF791FC052128A0FCF775
:109FD0008DFC4FF47A7229A129A0FDF78FFD022391
:109FE0004FF47A7229A126A0FDF794FD20B905212E
:109FF00027A0FCF77BFC03E0052127A0FCF776FCFB
:10A0000002234FF47A7226A127A0FDF783FD40B109
:10A01000052128A0FCF76AFC0220114981F8CF0035
:10A020000FE002234FF47A7226A11FA0FDF772FD04
:10A0300038B1052125A0FCF759FC0420084981F816
:10A04000CF00052125A0FCF751FC204610BD0000E3
:10A050002139390041542B4353510D0A00000000AF
:10A06000389D0020BCECB2E9D0C5BAC500000000A4
:10A07000D5FDD4DAD7A2B2E1000000003000000024
:10A0800041542B435245473F0D0A00003500000064
:10A09000B1BEB5D8BFA80000CDE2B5D8BFA80000BA
:10A0A0004D4F42494C45000041542B434F50533FC4
:10A0B0000D0A0000D6D0B9FAD2C6B6AF53494DBF8B
:10A0C000A8000000554E49434F4D0000D6D0B9FAC4
:10A0D000C1AACDA853494DBFA8000000D7A2B2E144
:10A0E000B3C9B9A60000000070B5054600241022CF
:10A0F0002146641C6A54FF222146641C6A540022D3
:10A100002146641C6A5404222146641C6A5429199D
:10A1100016A0FBF799FE204484B204222046611C5D
:10A120008CB22A5402222046611C8CB22A5400228E
:10A130002146601C84B26A543C222146601C84B2D1
:10A140006A5400222046611C8CB22A5410222046F8
:10A15000611C8CB22A5429190648FBF775FE20446D
:10A1600084B2A01E6870E0B270BD00004D5154541E
:10A1700000000000899D002008B5694605A000F098
:10A180006FF89DF80010052205A0FCF7AFFB9DF8C5
:10A19000000008BD41542B4353510D0A000000003C
:10A1A000D0C5BAC5C7BFB6C83A2564002DE9F84F77
:10A1B00082460C4617464FF000080020009081466A
:10A1C0005146254804F099FB24494FF4967248689B
:10A1D0000021FBF74AFE4FF47A73322200211E4819
:10A1E00004F008FB00F0FF0BBBF1000F30D00020A3
:10A1F000207000252AE019484068465D302E01DBBA
:10A20000012000E00020392E01DC012100E00021C6
:10A21000084048B14F4504D14046411C01F0FF08B9
:10A220002654012000900FE0009868B14F4505D1F9
:10A2300000224046411C01F0FF08225400200090FB
:10A2400009F1010000F0FF09681CC5B25D45D2DBD1
:10A250004046BDE8F88F000000440040BC000020EC
:10A260002DE9F04780460C460025AA464146234882
:10A2700004F043FB22494FF4967248680021FBF733
:10A28000F4FD4FF47A73322200211C4804F0B2FA34
:10A2900000F0FF09B9F1000F2CD00020207000263B
:10A2A00026E017484068875D302F01DB012000E081
:10A2B0000020392F01DC012100E00021084068B1B5
:10A2C000605D00EB80004006000E6055615DA7F107
:10A2D0003000084460554FF0010A07E0BAF1000F62
:10A2E00004D0681CC5B2002060558246701CC6B2FE
:10A2F0004E45D6DB2846BDE8F0870000004400400C
:10A30000BC00002010B54FF480714148FDF711FBEF
:10A310004048006920F020003E49086140F24C406E
:10A3200003F0E0FB05213CA0FCF7E0FA4FF480715C
:10A330003748FDF7FCFA40F24C4003F0D3FB4FF4F2
:10A3400000513848FDF7F5FA40F24C4003F0CAFBE3
:10A35000052135A0FCF7CAFA4FF400513148FDF74A
:10A36000E6FA4FF47A7003F0BDFB4FF48071314888
:10A37000FDF7D4FA012804D105212FA0FCF7B6FA85
:10A3800001E0012010BD43F2B06003F0ABFB4FF4DD
:10A390007A722CA12CA0FDF7B1FB08B90220F1E7DD
:10A3A00005212BA0FCF7A2FA4FF47A7003F09AFB78
:10A3B0004FF4FA6223A12AA0FDF7A0FB08B90320FD
:10A3C000E0E7052128A0FCF791FA4FF47A721DA16D
:10A3D00028A0FDF793FB08B90420D3E70D480069D6
:10A3E00040F020000B490861052125A0FCF77EFA0A
:10A3F000FFF7D8FD04462CB10522214624A0FCF726
:10A4000075FA03E0052126A0FCF770FA0020B9E7F1
:10A4100000100140389D002047505253C9CFB5E786
:10A4200000000000000C014047505253BFAABBFA85
:10A430000000000000080140BFAABBFAB3C9B9A6DA
:10A44000000000004F4B000041540D0A00000000C6
:10A450004154D6B8C1EED6B4D0D0B3C9B9A6000025
:10A46000415445300D0A0000C9E8D6C3B2BBBBD881
:10A47000CFD4000041542B4350494E3F0D0A0000F9
:10A48000B2E9BFB4CAC7B7F1D3D050494E000000FB
:10A49000C1ACBDD3CDF8CAA7B0DC5B25645D0000BC
:10A4A000C1ACBDD3CDF8C2E7B3C9B9A60000000066
:10A4B00010B504464FF47A7003F014FB4FF47A722F
:10A4C00020A122A0FDF71AFB08B9012010BD8CB90C
:10A4D0004FF47A7224A125A0FDF710FB08B90220E1
:10A4E000F4E74FF47A7220A123A0FDF707FB08B927
:10A4F0000420EBE7012C11D14FF47A721AA123A0AA
:10A50000FDF7FCFA08B90320E0E74FF47A7216A1D0
:10A5100019A0FDF7F3FA08B90420D7E74FF47A72CF
:10A5200011A11DA0FDF7EAFA08B90520CEE74FF406
:10A530007A720DA11EA0FDF7E1FA08B90620C5E761
:10A540000020C3E743504D530000000041542B430B
:10A55000504D533D224D54222C224D54222C224D3D
:10A5600054220D0A000000004F4B000041542B43C1
:10A570004D47463D300D0A0041542B435343533D54
:10A580002255435332220D0A0000000041542B4350
:10A590004D47463D310D0A0041542B43534D503D2C
:10A5A00031372C3136372C302C380D0A00000000A2
:10A5B00041542B434E4D493D322C312C302C302C04
:10A5C000300D0A0070B504460D494FF49672486884
:10A5D0000021FBF74AFC21460A4804F08EF94FF4AB
:10A5E0007A734FF496720021064804F003F9C5B25D
:10A5F0002DB103480522416803A0FCF777F970BD2F
:10A60000BC00002000440040B6C1B6CCD0C5B7B5F0
:10A61000BBD83A257300000010B5B2B0002438480A
:10A6200090F8B00000F0200000283FD0052135A0B0
:10A63000FCF75CF940F6B83003F054FA6846FFF7CF
:10A6400053FD04460522214632A0FCF74FF922466D
:10A6500034A1384804F051F94FF4FA6136A0FDF7FF
:10A66000A1F900B10EE04FF4FA6133A0FDF79AF9B9
:10A6700000B107E04FF4FA612FA0FDF793F900B1A4
:10A6800000E000BF224669462A4804F025F94FF44D
:10A690007A712AA0FDF786F910B9022032B010BDF8
:10A6A0004FF4FA60FDF700FB0020F7E7052125A035
:10A6B000FCF71CF90DEB0401102211485130FBF797
:10A6C000C3FB204484B2224616A11A4804F015F9AF
:10A6D0004FF47A7003F006FA052269461DA0FCF7D4
:10A6E00005F922466946134804F0F6F84FF47A71EA
:10A6F00012A0FDF757F908B90220CFE70020CDE7F7
:10A70000389D0020C5E4D6C3CEAA4D515454D0ADD7
:10A71000D2E90000B7A2CBCDC5E4D6C35B25645D0A
:10A720000000000041542B514953454E443D2564DF
:10A730000D0A0000004400403E00000053454E4416
:10A74000204F4B00C5E4D6C3CEAA544350D0ADD25F
:10A75000E9000000B7A2CBCDC5E4D6C33A2573000B
:10A760002DE9F04FFFB04FF002090024954890F812
:10A77000B00000F0200000287CD032222046611C6E
:10A780008CB202A90A5404EB090084B200222046CC
:10A79000611C8CB202A90A5410222046611C8CB2A2
:10A7A00002A90A5402A8011986485130FBF74CFB54
:10A7B000204484B200222146601C84B202A8425484
:10A7C00001222046611C8CB202A90A5408197EA1FC
:10A7D000FDF7ECFB204484B27A490868FAF78DFF54
:10A7E00007460B4602A908193A467CA1FDF7DEFB95
:10A7F000204484B273494868FAF77FFF07460B4646
:10A8000002A908193A4675A1FDF7D0FB204484B28D
:10A810006C498868FAF771FF07460B4602A90819C8
:10A820003A466EA1FDF7C2FB204484B2654991F817
:10A83000CE00FAF704FF8246FAF75FFF07460B46A1
:10A8400002A908193A4665A1FDF7B0FB204484B27D
:10A850005C49D1F8D400FAF750FF074688465949B9
:10A86000D1F8D800FAF749FF82460B4602A9081929
:10A87000524600E035E05DA1CDE90078FDF796FB9A
:10A88000204484B202A908195EA1FDF78FFB204481
:10A8900084B2A4EB0901481E0DF10901FEF7B2FED6
:10A8A000224659A15C4804F028F84FF4FA615BA0F5
:10A8B000FDF778F818B901207FB0BDE8F08F224687
:10A8C00002A9554804F008F84FF47A7154A0FDF736
:10A8D00069F808B90220EFE74FF4FA60FDF7E4F9F0
:10A8E0006DE0384908680021FAF770FF01D82B2580
:10A8F00000E02D25334948680021FAF767FF01D8A9
:10A900002B2600E02D262F490868FAF7F6FE2A4686
:10A91000CDE9000144A102A8FDF748FB0446294AFD
:10A9200011685068FAF748FF0BD226494868FAF7D1
:10A93000E4FE3246CDE900013BA102A8FDF736FB5B
:10A9400004462048008A00F4807060B11D49086800
:10A95000FAF7D3FE2A46CDE9000133A102A8FDF79C
:10A9600025FB044610E01748008A00F4007058B137
:10A9700014494868FAF7C1FE3246CDE900012AA120
:10A9800002A8FDF713FB044622461FA1224803F04C
:10A99000B4FF4FF47A7003F0A5F8052202A928A0AD
:10A9A000FBF7A4FF224602A91B4803F095FF4FF4D2
:10A9B0007A711BA0FCF7F6FF08B902207CE70020A3
:10A9C0007AE70000389D00207B2273656E736F72FA
:10A9D0004461746173223A5B000000007B2276615F
:10A9E0006C7565223A252E32667D2C007B226C61C7
:10A9F00074223A252E37662C226C6E67223A252E59
:10AA000037667D005D7D000041542B514953454E12
:10AA1000443D25640D0A0000004400403E00000053
:10AA200053454E44204F4B002354503330302C2597
:10AA30006330252E31662C302E30300D0A00000098
:10AA4000B7A2CBCDCAFDBEDD3A25730010B5B2B0BA
:10AA500000242B4890F8B00000F02000002832D0ED
:10AA6000C0222046611C8CB20DF800200022204636
:10AA7000611C8CB20DF80020224622A1254803F06B
:10AA80003CFF4FF4FA6124A0FCF78CFF10B90120C1
:10AA900032B010BD2246694620A0FFF713FA2246C5
:10AAA00069461C4803F018FF4FF47A711DA0FCF7AB
:10AAB00079FF08B90220EBE74FF4FA60FDF7F4F8EC
:10AAC000E0B90020E4E7694618A001F093FA0446D3
:10AAD00022460CA10F4803F010FF4FF47A7003F0E8
:10AAE00001F8224669460B4803F0F6FE4FF47A71EE
:10AAF0000CA0FCF757FF08B90220C9E70020C7E700
:10AB0000389D002041542B514953454E443D256406
:10AB10000D0A0000004400403E000000B7A2CBCD6B
:10AB20003A00000053454E44204F4B003030303047
:10AB30000000000070B5EAB006460024002500BF02
:10AB4000022C02DD28466AB070BD2146621CD4B2D8
:10AB500001EB410202EBC1021F4950180B2265A90B
:10AB6000FBF772F900208DF89F0165A8FBF734FA16
:10AB700000B9E5E70120FFF79BFC01A965A8FCF7F8
:10AB800055FD00208DF8300001AA14A1174803F0EC
:10AB9000B4FE052265A916A0FBF7A8FE4FF47A7053
:10ABA00002F0A0FF01A93046FCF740FD3046FDF75A
:10ABB00073FA01A9002201F820200C4803F09DFE41
:10ABC0001A210A4803F07EFE4FF47A710BA0FCF7BD
:10ABD000E9FE681CC5B2B3E7689D002041542B43D1
:10ABE0004D47533D222573220D0A000000440040CA
:10ABF000B7A2CBCDB5BD5B25735D0000434D475378
:10AC0000000000002DE9F043CDB0012257A102A8B9
:10AC1000FDF7CCF902A8FFF7D5FC5849486858A1C0
:10AC200001F01BFA8146002202A94846FCF7C3FB4B
:10AC300002A902A801F078F902A8FDF72DFA02286E
:10AC400006DA05214FA0FBF751FE4DB0BDE8F083B9
:10AC5000052202A94EA0FBF749FE02A8FDF71CFA47
:10AC60000B2806DAFEF7E0FC05214BA0FBF73EFEC1
:10AC7000EBE74EA1484601F0F0F98146002202A917
:10AC80004846FCF798FB02A902A801F04DF90522FD
:10AC900002A94BA0FBF72AFE4BA102A801F0DDF9A7
:10ACA000C0B1FEF7C1FC49494868FAF726FD0546E0
:10ACB0000E4646490868FAF720FD07463A460B4615
:10ACC00043A102A8CDE90056FDF770F902A8FFF7ED
:10ACD00031FFBAE743A102A801F0BFF918B1FEF7AE
:10ACE000A3FCFEF77BFC40A102A801F0B6F970B10D
:10ACF000FEF79AFC3DA227A102A8FDF757F90446EA
:10AD0000002002A9085502A8FFF714FF9DE73CA107
:10AD100002A801F0A2F970B1FEF786FC39A21DA1CC
:10AD200002A8FDF743F90446002002A9085502A82D
:10AD3000FFF700FF89E738A102A801F08EF970B192
:10AD4000FEF772FC35A213A102A8FDF72FF9044605
:10AD5000002002A9085502A8FFF7ECFE75E7FEF7F0
:10AD600063FC33A0FFF7E6FE00BF6EE741542B43C0
:10AD70004D47523D25640D0A00000000BC00002034
:10AD8000222C2200DFE3D3D0D0C2CFFBCFA2000021
:10AD90004E756D3A25730000B2BBCAC7C8CBB7A2C7
:10ADA000B5C4D6B1BDD3C9BE0000000030303433C5
:10ADB000303034443030343430303341000000001F
:10ADC0004D73673A2573000030310000389D002034
:10ADD0004348313D252E32662C4348323A252E32E7
:10ADE000660000003032000030330000D4DDB2BB1A
:10ADF000D6A7B3D65B30335DD6B8C1EE00000000F5
:10AE000030340000D4DDB2BBD6A7B3D65B30345D9E
:10AE1000D6B8C1EE0000000030350000D4DDB2BB72
:10AE2000D6A7B3D65B30355DD6B8C1EE00000000C2
:10AE3000434D443A303128D2A3B2E2292C434D4449
:10AE40003A303228D6D8C6F4292CC6E4CBFB3AB027
:10AE5000EFD6FA0001460020034A506820F4404033
:10AE600008435060704700000010024029B1064AB4
:10AE700052690243044B5A6104E0034A5269824317
:10AE8000014B5A61704700000010024029B1064A88
:10AE9000D2690243044BDA6104E0034AD269824377
:10AEA000014BDA61704700000010024029B1064AE8
:10AEB00092690243044B9A6104E0034A9269824317
:10AEC000014B9A61704700000010024029B1064A08
:10AED000D2680243044BDA6004E0034AD26882433A
:10AEE000014BDA60704700000010024030B50021CD
:10AEF0000022002400232D4D6D6805F00C0121B1C6
:10AF0000042905D0082923D105E0294D056022E058
:10AF1000274D05601FE0254D6D6805F47012234D27
:10AF20006D6805F48034022505EB92421CB9214D71
:10AF3000554305600BE01D4D6D6805F400351DB1EE
:10AF40001C4D5543056002E0194D5543056002E074
:10AF5000174D056000BF00BF144D6D6805F0F0018E
:10AF60000909154D6B5C0568DD4045600F4D6D6846
:10AF700005F4E061090A104D6B5C4568DD408560B1
:10AF80000A4D6D6805F46051C90A0B4D6B5C45684C
:10AF9000DD40C560054D6D6805F44041890B074DE6
:10AFA0006B5CC568B5FBF3F5056130BD0010024070
:10AFB00000127A0000093D0000000020100000206F
:10AFC00000B599B040F2DC5307A20BA16846FCF72C
:10AFD000FFFA052269460FA0FBF788FC6846FCF7DC
:10AFE000E9FD19B000BD00006C696E6B2E746C69D0
:10AFF0006E6B2E696F00000041542B51494F504534
:10B000004E3D22544350222C222573222C25640DC0
:10B010000A000000C1ACBDD3B5BD3A2573000000E5
:10B0200010B59AB0002401A9081915A1FCF7BEFFBC
:10B030000444052201A917A0FBF758FC224618A1D9
:10B040001B4803F05AFC4FF4FA611AA0FCF7AAFC63
:10B0500010B901201AB010BD224601A9144803F00E
:10B060003BFC4FF47A7114A0FCF79CFC08B9022059
:10B07000F0E74FF4FA60FCF717FE0020EAE7000063
:10B080003132333435363738393132333435414261
:10B0900000000000B7A2CBCDCDB73A257300000069
:10B0A00041542B514953454E443D25640D0A00003F
:10B0B000004400403E00000053454E44204F4B00EA
:10B0C00030B5D7B0002500BF00240CA9081971A124
:10B0D000FCF76CFF04440CA908196FA1FCF766FF8C
:10B0E00004440CA9081970A1FCF760FF04440CA9E2
:10B0F000081971A1FCF75AFF0444E9B202A8FCF751
:10B100006BFE0CA9081902AA6FA1FCF74FFF0444BB
:10B110000CA9081971A1FCF749FF044400200CA9EF
:10B12000009008190423032272A1FCF73FFF044496
:10B130000CA9081976A1FCF739FF044407A8FDF70C
:10B140006DF80CA9081907AA76A1FCF72FFF204477
:10B1500084B20CA908197BA27EA1FCF727FF20442A
:10B1600084B205220CA980A0FBF7C0FB224681A176
:10B17000844803F0C2FB4FF4FA6183A0FCF712FC91
:10B1800010B9012057B030BD22460CA97D4803F00C
:10B19000A3FB4FF47A717DA0FCF704FC08B90220F0
:10B1A000F0E74FF4FA60FCF77FFD7A4840680078DA
:10B1B00030281AD1774840684078312815D10522C7
:10B1C000294675A0FBF792FB681C85B2052229462B
:10B1D00076A0FBF78BFB3C2D06DD0522294678A0E7
:10B1E000FBF784FBE8B2CDE76EE76A484068007879
:10B1F00030284DD1674840684078302848D1052232
:10B20000294675A0FBF772FB0121784880F8B4103D
:10B2100040F25B71A0F8AA10754981617549C1615E
:10B2200073490162734941623C2180F8B5100521E0
:10B2300080F8B610D0F8B00040F020016B48C0F89C
:10B24000B01000F189016CA000F0D4FE67496131B3
:10B250006CA000F0CFFE0B22644930316BA0FAF7EE
:10B26000F3FD624975316CA000F0C4FE00215F4817
:10B27000C0F8B810C0F8BC10102200F1510102A8AB
:10B28000FAF7E2FD02F092F801F048F8002079E7C1
:10B290001AE700007B000000226D6574686F64226D
:10B2A0003A2231222C00000022656E745F6B6579B2
:10B2B000223A223335222C00226465766963655F69
:10B2C0006964223A22222C00226465766963655FF4
:10B2D0006E6F223A222573222C00000022646576CC
:10B2E0006963655F6E616D65223A22CEC2CAAAB6F5
:10B2F000C8222C002268775F76657273696F6E22B0
:10B300003A2225642E25642E2564222C000000009C
:10B31000226465765F6D6F6465223A225450353041
:10B3200030222C00226372656174655F646174650C
:10B33000223A2225732031343A31313A3439222CE1
:10B340000000000053544D33324C313531524254D9
:10B3500036000000226D63755F6D6F6465223A22CE
:10B360002573227D00000000B7A2CBCDC4DAC8DD72
:10B370002573000041542B514953454E443D2564EB
:10B380000D0A0000004400403E00000053454E44BA
:10B39000204F4B00BC000020C9E8B1B8D7A2B2E1F1
:10B3A000CAA7B0DC5B25645D00000000D4D9B4CE30
:10B3B000B3A2CAD4D7A2B2E15B25645D000000004D
:10B3C000B7FECEF1C6F7CAFDBEDDBFE2B4EDCEF3E7
:10B3D0005B25645D00000000C9E8B1B8D7A2B2E106
:10B3E000B3C9B9A65B25645D00000000389D00204C
:10B3F00000008442000080BF746C696E6B2E696F20
:10B4000000000000CDD8C6D5C8F000003133323678
:10B410003732313632343700CEC2CAAAB6C800003D
:10B4200021B1028842F04002028004E002884FF617
:10B43000BF731A400280704770B505460C46164629
:10B4400010211048FCF773FA032000F05DF9C4F3F3
:10B45000074000F059F9C4F3072000F055F9E0B2B5
:10B4600000F052F904E0FF2000F04EF928706D1C46
:10B47000301EA6F101018EB2F5D110210148FCF772
:10B4800058FA70BD000801402DE9F05F07460E46EE
:10B4900014464FF00008C146C2460025AB4606F0F0
:10B4A000FF0ACAF10000C5B22046E11704EB1151B2
:10B4B000C1F30738E11704EB11510913A4EB013173
:10B4C00001F0FF09BAF1000F20D1B8F1000F05D14A
:10B4D00022463146384600F0C5F864E009E04FF4F2
:10B4E00080523146384600F0BDF806F5805607F523
:10B4F0008057B8F10000A8F1010101F0FF08EED17A
:10B500004A463146384600F0ADF84CE0B8F1000F3D
:10B5100018D1A94510DDA9EB050000F0FF0B2A4664
:10B520003146384600F09EF82E442F445A463146A4
:10B53000384600F097F836E022463146384600F0AB
:10B5400091F830E0601B84B22046E11704EB115102
:10B550004FEA2138E11704EB11510913A4EB013133
:10B5600001F0FF092A463146384600F07BF82E44A8
:10B570002F4409E04FF480523146384600F072F80B
:10B5800006F5805607F58057B8F10000A8F10101D3
:10B5900001F0FF08EED1B9F1000F04D04A46314660
:10B5A000384600F05FF8BDE8F09F000000B587B0B6
:10B5B00001212420FFF77AFC01210803FFF776FC24
:10B5C0002020ADF8040003208DF8060018208DF827
:10B5D000070001A92148FCF7D3F84020ADF804008A
:10B5E00001A91E48FCF7CCF88020ADF8040001A9A1
:10B5F0001A48FCF7C5F81020ADF804008DF80700D4
:10B6000001A91648FCF7BCF810211448FCF791F981
:10B610000020ADF808004FF48270ADF80A00002059
:10B62000ADF80C000220ADF80E000120ADF81000BE
:10B630004002ADF812003820ADF814000020ADF83B
:10B6400016000720ADF8180002A9054800F0B0F870
:10B6500001210348FFF7E4FE07B000BD00080140E8
:10B660000030014070B505460C46164600F082F8E1
:10B6700010211348FCF75BF9022000F045F8C4F3F1
:10B68000074000F041F8C4F3072000F03DF8E0B2B5
:10B6900000F03AF8B6F5805F01DD4FF4805603E024
:10B6A000287800F031F86D1C301EA6F101018EB231
:10B6B000F6D110210248FCF73CF900F041F870BDCA
:10B6C0000008014010B5044600F054F800F038F8C6
:10B6D00010210C48FCF72BF9202000F015F8C4F3DA
:10B6E000074000F011F8C4F3072000F00DF8E0B2B5
:10B6F00000F00AF810210348FCF71BF900F020F8CD
:10B7000010BD00000008014010B5044600BF022132
:10B710000A4800F03FF80028F9D02146074800F019
:10B7200045F800BF0121054800F034F80028F9D0A1
:10B73000024800F038F8C0B210BD000000300140EF
:10B7400010B5002410210A48FCF7F1F80520FFF796
:10B75000DBFF00BFFF20FFF7D7FF044604F0010026
:10B760000028F7D110210248FCF7E3F810BD0000D3
:10B770000008014010B510210548FCF7D8F8062054
:10B78000FFF7C2FF10210248FCF7D3F810BD0000FC
:10B79000000801400246002013890B400BB1012034
:10B7A00000E000207047014688897047818170471A
:10B7B00010B5002202880D4B1A400B884C88234399
:10B7C0008C882343CC8823430C8923434C8923430F
:10B7D0008C892343CC8923431A430280838B4FF205
:10B7E000FF74234083830B8A038210BDFFFEF0FFAA
:10B7F0007047000070B504460D462B4622460249AC
:10B80000024800F005F870BD00F80308FF74000856
:10B810002DE9F0478046894614461F4625462E46A8
:10B820003088001F81B2201D01F030FF7080328807
:10B8300009EBC7202946C047BDE8F087BAB00646E5
:10B840003746384602F0EAFE01200346052201464B
:10B85000009004A8FEF755F873E2FE49086832210B
:10B86000FAF7D2FB002332221946384602F0C2FF13
:10B870000546F84904AA08682946FEF7D9F805469E
:10B88000ECB29DF81E00002871D19DF813003428F9
:10B890006ED017DC06282FD005DC6AD2DFE800F076
:10B8A0007058765E6A7C0A2838D006DC072829D0D2
:10B8B00008282DD009285CD136E00B283ED0292855
:10B8C000F9D151E048287DD00EDC3A287BD006DC47
:10B8D000352879D0362878D03928ECD1FBE03C28BF
:10B8E00060D04728E7D110E14B380528D5D2DFE8F2
:10B8F00000F0F17CF0EFEE0008A9D7A000F07AFB91
:10B90000054693E108A9D6A000F074FB05468DE139
:10B9100008A9D5A000F06EFB054687E108A9D5A0CF
:10B9200000F068FB054681E1002004230322D7A133
:10B93000009008A8FBF74CFE0A2577E1FCF7F8FB1E
:10B9400080464246D5A108A8FBF742FE05256DE1D9
:10B9500008A9D4A000F04EFB054667E108A9D5A0D0
:10B9600000F048FB054661E100F0DCFB5EE1D3E15D
:10B9700047E055E108A9D1A000F03CFB054655E1A0
:10B9800008A9CFA000F036FB05464FE108A9CEA0DC
:10B9900000F030FB054649E108A9CEA000F02AFBE3
:10B9A000054643E1CF48016808A8FBF7E4FD0546DA
:10B9B000CC4A516808AA5019FBF7DDFD284485B22E
:10B9C000C84A03E0AFE06CE045E02AE0916808AACD
:10B9D0005019FBF7D0FD284485B2C34802782846A9
:10B9E000691C8DB208A90A5420E19A490968085DCA
:10B9F000FBF75AF808A9BD48006800F0FBFA0546B5
:10BA000014E1944A1368621C995C924A1268105DB2
:10BA1000FDF7AAFA08A9B548006800F0EBFA054658
:10BA200004E18C480068025DAE48183050F83210CE
:10BA300008A8FBF7A0FD0546864A1268135DA94ACF
:10BA4000183202EBC302516808AA5019FBF793FDA4
:10BA5000284485B2EAE07F490A68611C5018FBF768
:10BA600086FD01467B480068025D9E48183040F81C
:10BA7000321078490A68611D5018FBF778FD0146BD
:10BA800074480068025D9748183000EBC2004160BE
:10BA900008A99648006800F0ADFA054601F086FC5A
:10BAA000C4E06C490968095D01EB410202EBC10287
:10BAB0008C49303150180B2208A9FAF7C5F9054610
:10BAC00000222846691C8DB208A90A54AEE03FE066
:10BAD00039E043E07DE05F4A1268125D02EB420309
:10BAE00003EBC2037F4A303299185A4A1368621C2A
:10BAF00098180B22FAF7A8F908A97C48006800F00A
:10BB000079FA054601F052FC90E0102208A9754828
:10BB10005130FAF799F9054600222846691C8DB282
:10BB200008A90A5482E04B490968081910226D4996
:10BB30005131FAF789F9054608A96C48006800F008
:10BB400059FA054672E001F035FA4FF6FF756DE0DF
:10BB500000F058FEFDF742FD002567E03D48006813
:10BB6000005D604981F8C4003A480168601C095CC6
:10BB70005C4880F8C51037480168A01C095C59482A
:10BB800080F8C61033480168E01C095C554880F80D
:10BB9000C81030480168201D095C524880F8C9105F
:10BBA0002C480168601D095C4E4880F8CA1029487D
:10BBB0000168A01D095C4B4880F8C71008A94B48D4
:10BBC000006800F017FA05464648C430FDF783FCCC
:10BBD0002CE020480068005D012802D002281CD11A
:10BBE00012E01C4A1368A21C99181A4A1368621CB6
:10BBF000985CFAF747F917490A68611C505C08A974
:10BC0000FAF7D0F9054609E012490A68611C505C50
:10BC100008A9FAF7C7F9054600E000BF00BF05E034
:10BC200008A933A000F0E6F9054600BF00BF4FF6B3
:10BC3000FF7085426FD0012000900648006881782F
:10BC40000123052204A8FDF75CFE08A80121CDE927
:10BC5000010551E0BC0000205620322E303000009B
:10BC60005620312E303200005452544F5320342E7F
:10BC7000300000004A756C203132203230313620DD
:10BC80002D2031343A31313A3439000056202564C0
:10BC90002E25642E2564206E0000000025644B6272
:10BCA00000000000546F707269652D5450353030BB
:10BCB000000000005254552D545000004E42000028
:10BCC00048656C6C6F000000303030303030303000
:10BCD0000000000053544D33324C31353152425440
:10BCE00036000000389D002044000020980000200D
:10BCF0004E756C6C000000000091124901231A4639
:10BD0000086804A9FDF708FE05460E482A460168A2
:10BD10000D4802F0E1FD14E09DF81E00062810D049
:10BD20009DF81E00052806D108480122016808A0D8
:10BD3000FAF7DCFD05E09DF81E10032205A0FAF7D6
:10BD4000D5FD8AE5D000002000380140BC0000206D
:10BD5000257300002564000010B50024144890F8F5
:10BD6000B00000F0400060B14FF400711148FAF7E4
:10BD7000B3FD00210846FAF713FAB0B9A01CC4B20B
:10BD800013E04FF400710B48FAF758FDFAF76CFB1B
:10BD900008B9601CC4B24FF480710648FAF74EFD32
:10BDA000FAF762FB08B9601CC4B2204610BD00005F
:10BDB000389D0020000C01400246002006E00B7870
:10BDC000934200D17047431CD8B2491C0B78002B1A
:10BDD000F5D100BFF6E710B500F002F810BD000085
:10BDE0000CB50020019000903348006840F480308A
:10BDF0003149086000BF3048006800F4003000900E
:10BE00000198401C0190009818B90198B0F5A06FF6
:10BE1000F1D12948006800F4003010B101200090F1
:10BE200001E0002000900098012843D123480068D9
:10BE300040F01000214908600846006820F0030027
:10BE400008600846006840F0020008601A48406830
:10BE5000194948600846406848600846406840F410
:10BE6000806048600846406820F47C1048600846BE
:10BE7000406840F4E81048600846006840F0807070
:10BE8000086000BF0C48006800F000700028F9D07E
:10BE90000948406820F003000749486008464068A8
:10BEA00040F00200486000BF0348406800F00C000A
:10BEB0000828F9D10CBD000000100240002002400B
:10BEC0001FB501210520FEF7F1FF0120ADF80C00A0
:10BED00028208DF80F0003A91248FBF751FC002120
:10BEE0000846FBF72DFC0120009000208DF804008F
:10BEF00008208DF8050001208DF806006846FBF744
:10BF000087F906208DF8080002208DF809008DF8C9
:10BF10000A0001208DF80B0002A8FDF741FE00F099
:10BF2000B8F81FBD000801402DE9F043ADF5017DD3
:10BF300081460E46002400254846FCF7ADF807462A
:10BF400000BF20E009EB0500FBF7BEFF01A921F8C7
:10BF5000140001A830F814004FF6FF7101EA002028
:10BF600001A921F81400A91C09EB0100FBF7ACFFA3
:10BF700001A931F81410084301A921F81400601C2C
:10BF800084B2281D85B2BD42DCDB3846F91707EBC9
:10BF90009171C1F38F07002400251FE001A830F83C
:10BFA0001500802807DA01A810F815202146601C2A
:10BFB00084B2725410E001A931F81500F9F720FF9E
:10BFC00080464FEA28222046611C8CB2325420461B
:10BFD000611C8CB206F80080681C85B2BD42DDDBB6
:10BFE00000222046611C8CB2325420460DF5017DA2
:10BFF000BDE8F08330B503460C46002019462246C2
:10C0000005E011F8015B02F8015B451CA8B20D7850
:10C01000002DF6D1157030BD2DE9F04106460D46D4
:10C020002C4637462846FCF737F804443046FCF7E0
:10C0300033F8804608F1010008B9BDE8F08103E05B
:10C0400017F8010B04F8010BB8F10000A8F1010882
:10C05000F6D104F8010B00BFEFE710B502460878EF
:10C0600088B10CE0002305E0C818407808B91046F4
:10C0700010BD5B1CD05CCC5CA042F5D0521C10788B
:10C080000028EFD1F4E71046F2E710B501F038FCD4
:10C0900010BD10B500214FF4FE70FEF717FF00F041
:10C0A00001F810BD10B501210807FEF7EFFE0120D1
:10C0B000FDF716FE0120FDF7EDFD02210120FDF741
:10C0C000EFFD10BD10B51348006840F001001149A4
:10C0D000086008464068104908400E494860084614
:10C0E00000680E4908400B4908600846006820F4C3
:10C0F000802008600846406820F4FE0048604FF445
:10C100001F008860FFF767FE4FF000600449086079
:10C1100010BD0000001002400000FFF8FFFFF6FE17
:10C1200008ED00E010B500220121024800F012FDE8
:10C1300010BD000039C1000810B50A2001F0D2FC82
:10C14000FDF74CFA10BD000010B50A2001F0CAFC42
:10C1500000220121014800F0FDFC10BDADD3000814
:10C1600008B501461F2000EAE1208DF800003F20BD
:10C1700000EA61108DF8010001F01F008DF8020047
:10C18000BDF8002010469DF8022040EA024008BD9C
:10C1900000F08AF80020424981F8D1004FF4805124
:10C1A0004048FBF7C6FB04213E48FBF7C2FB76E0A4
:10C1B0003B4890F8D100002857D14FF47A7001F035
:10C1C00091FC04213748FBF7B4FB4FF4805135480C
:10C1D000FBF7AFFB3248007C00F04000002840D164
:10C1E0002F48008A00F48070B8B12D48007C00F020
:10C1F000030090B104212B48FBF799FB012129484A
:10C20000FBF797FB0A2001F06DFC01212548FBF7A5
:10C210008EFB04212348FBF78CFB2148008A00F4A5
:10C220000070C8B11E48007C00F00C00A0B14FF4B3
:10C2300080511C48FBF77BFB01211A48FBF779FB77
:10C240000A2001F04FFC01211648FBF770FB4FF468
:10C2500080511448FBF76DFB4FF47A7001F042FCFB
:10C2600002E0642001F03EFC18E0642001F03AFC9A
:10C270004FF480510B48FBF75AFB04210948FBF7A8
:10C2800058FB642001F02EFC04210648FBF74FFB0D
:10C290004FF480510348FBF74CFB00BF00BF87E71A
:10C2A000389D0020000C014010B5F9F775FD18B954
:10C2B000FF21154880F8B4100220FAF7EFFB12496D
:10C2C00091F8B400FAF7F0FBFDF770FD00200E497D
:10C2D000086181F8D10081F8D2000C48C1F8E8006B
:10C2E00001460948C0F8F0100949C0F8EC10C0F840
:10C2F000F4104FF400710748FBF719FB02210648C0
:10C30000FBF717FB10BD0000389D0020000048C35C
:10C310000000484300100140000C014010B501210D
:10C320001E48FBF706FB04211C48FBF700FB4FF4FB
:10C3300080511A48FBF7FBFA642001F0D3FB01217E
:10C340001648FBF7F4FA04211448FBF7F2FA4FF40D
:10C3500080511248FBF7EDFA642001F0C3FB012184
:10C360000E48FBF7E6FA04210C48FBF7E0FA4FF41D
:10C3700080510A48FBF7DBFA642001F0B3FB01218E
:10C380000648FBF7D4FA04210448FBF7D2FA4FF42D
:10C3900080510248FBF7CDFA10BD0000000C0140AF
:10C3A00086B001F035FC002509E005EB4500694643
:10C3B000084402A901EBC5014860681CC5B2022D02
:10C3C000F3DB022102A801F05DFB00257C4890F818
:10C3D000D100FF2819D116E02846FCF739FA0A20C7
:10C3E00001F080FB0020FDF741F904465CB1607864
:10C3F000012800D108E06078022801D1681CC5B28C
:10C40000042D00DD0025E7E700BF6D4880F8D1501E
:10C41000D4E00A2001F066FB0020FDF727F904466E
:10C42000002CF5D0607801281DD1207806281AD17B
:10C43000634890F8B00000F0800010B100F02EFECC
:10C4400011E05F48007C00F0400030B15C480069BA
:10C4500020F040005A49086105E05948006940F061
:10C460004000574908616078012825D120780428C8
:10C4700022D1534890F8B00000F0800040B15048FD
:10C48000D0F8B00020F080014D48C0F8B01007E0AF
:10C490004B48D0F8B00040F080014948C0F8B010D7
:10C4A000F9F75CFC0020464981F8D20041F2E871BE
:10C4B00002F046FA00F07AFF6078022814D1207862
:10C4C000062811D13E48007C00F0400030B13C48C5
:10C4D000006920F040003A49086105E038480069E9
:10C4E00040F04000364908616078042819D120786E
:10C4F000042816D1F9F732FC3248FBF7BDF8324870
:10C50000FBF7BAF83148FBF7B7F83148FBF7B4F856
:10C510003048FBF7B1F802212B48FBF70AFAFFF786
:10C52000CFFC6078022849D12078042846D1F9F759
:10C5300015FC0820224981F8D1003DE0204991F8FE
:10C54000D1100839C8B2FCF733FA0A2001F0CAFA50
:10C550000020FDF78BF8044674B36078022811D1EF
:10C56000207806280ED1164890F8D100401C1449B6
:10C5700081F8D100084690F8D1000C2802DD08208F
:10C5800081F8D1006078022809D12078042806D1EA
:10C59000F9F7E4FB00200A4981F8D1000DE060784A
:10C5A000012809D12078062806D1F9F7D7FB002009
:10C5B000034981F8D10000E0C0E700BF29E700008F
:10C5C000389D002000080140000C0140001001408F
:10C5D00000140140001801403E48F9F777FA3E4840
:10C5E0000068FCF7B9FEFFF7B7FB40F6B83001F082
:10C5F00079FA38480838FCF737FE3649C839081F39
:10C60000FAF780F83349C839081FFAF77BF8FBF7C7
:10C610002FFE3049CC3981F8D2005AE02D48083835
:10C62000FCF722FE4FF4FA7001F05CFA2B49081F68
:10C63000FAF768F8294A121F1168264ACC3AD2F84C
:10C64000B800F8F7A3FD2349CC390860234A121F2C
:10C650005168204ACC3AD2F8BC00F8F797FD1D4942
:10C66000CC39486000F0B2FB1A48CC3890F8B000E2
:10C6700000F0800008B100F02FFE10211848FBF7F1
:10C680004DF940B11348CC38006940F4806011493D
:10C69000CC39086107E00F48CC38006920F480608D
:10C6A0000C49CC39086120210D48FBF737F940B11E
:10C6B0000848CC38006940F400600649CC3908616C
:10C6C00007E00448CC38006920F400600149CC3907
:10C6D0000861A3E7049E0020A0000020B80000200D
:10C6E000000C0140B2B000250AE005EB45006946A8
:10C6F00001EB80001EA901EBC5014860681CC5B2B2
:10C700000A2DF2DB0A211EA801F0BCF910480078BE
:10C71000104908701BE00A2001F0E4F901F082FAE8
:10C720000646A6B174682079012804D0022805D0F5
:10C7300003280BD106E02068804707E0207A2168B3
:10C74000884703E02168A068884700BF00BFE2E790
:10C750004C0000207F00002070B50546F9F71CFB57
:10C76000002822D1052111A0FAF7C0F8FEF728FC15
:10C77000044624B10522214610A0FAF7B7F8052196
:10C7800012A0FAF7B3F8FEF74BFC044624B10522D9
:10C79000214611A0FAF7AAF8FEF792FC044624B14C
:10C7A0000522214611A0FAF7A1F870BDCBC6BAF553
:10C7B000CAC7B8F6D0C2C9E8B1B80000C1ACBDD391
:10C7C000B7FECEF1C6F75B25645D0000C9E8B1B8DD
:10C7D000D7A2B2E100000000BDF8C8EBD7A2B2E1D9
:10C7E000B4EDCEF35B25645D00000000CEB4B3C9A8
:10C7F000B9A6B3F5CABCBBAFC9E8B1B85B25645DE7
:10C800000000000010B5FAF73FF9002106A0FAF782
:10C810006DF80949002002F0A9F8002107A0FAF7F5
:10C8200065F8FAF72BF910BDBFAACABCC7E5BFD59A
:10C83000BCC7C2BC0D0A0000E8FF1700C7E5B3FD86
:10C84000CDEAB1CF0D0A000001212E48FBF771F8A7
:10C85000012001F047F901212A48FBF768F84FF45D
:10C8600000712948FBF763F8642001F03BF9FBF7FE
:10C870002BFD4FF47A7001F035F942E0234890F82F
:10C88000D100082823D006DC052835D2DFE800F0E7
:10C89000101316191C000B2825D004DC09281AD007
:10C8A0000A2829D11BE00C2821D0FF2824D122E01E
:10C8B000FBF7C2FD20E0FCF769F91DE0FCF766F923
:10C8C0001AE0FCF763F917E0FCF760F914E00020C8
:10C8D000FCF76EF810E00120FCF76AF80CE002208B
:10C8E000FCF766F808E00320FCF762F804E0042097
:10C8F000FCF75EF800E000BF00BF4FF47A7001F073
:10C90000F1F8BBE7000C014000100140389D002009
:10C910000EB502215148FBF70AF89EE04FF47A73F6
:10C920004FF4967200214E4801F064FF0446002C3B
:10C930007ED000204B49896881F8320049498868D7
:10C9400049A1F8F711FC0028F2D04649886848A1AF
:10C95000F8F70AFC002876D04249886844A1F8F725
:10C9600003FC814609F10200FBF734FB4149C1F8A1
:10C97000D8003C49886840A1F8F7F6FB814609F1E8
:10C980000200FBF727FB3B49C1F8D4003549886812
:10C990003AA1F8F7E9FB40B13648D0F8D8100020AA
:10C9A000F8F746FC3349C1F8D8002E49886834A10D
:10C9B000F8F7DAFB40B12F48D0F8D8100020F8F78C
:10C9C00037FC2C49C1F8D8002A48006940F08000A3
:10C9D00028490861D1F8D400F8F78FFE05460E46C5
:10C9E0002449D1F8D800F8F788FE074605203A46D2
:10C9F0000B46CDE90056029022A0F9F777FF1D49BA
:10CA0000D1F8D800F9F79BF905462349F8F7DEFE7F
:10CA10001FD21849D1F8D400F9F791F905461E49FB
:10CA2000F8F7D4FE15D202210C48FAF782FF01E094
:10CA30000FE008E04EF6602001F054F802210748AC
:10CA4000FAF775FF05E00B48006920F080000949FE
:10CA5000086140F6B83001F045F85FE7000C01408E
:10CA600000480040BC000020244750524D430000C5
:10CA700041000000389D00204E00000057000000DB
:10CA800053000000BEADCEB3B6C83A252E38662C92
:10CA9000252E3766000000000000C84286B0002442
:10CAA00010E004EB4401204A02EBC1001822694661
:10CAB00001F08CFF0098401C00B904E0641C0120C8
:10CAC00001F010F8EDE700BF0522214617A0F9F7A5
:10CAD0000DFF41F2883001F005F823E0164801F01F
:10CAE00001F8072201A91548F9F7AEF90C2203A9AC
:10CAF0001248C438F9F7A8F904EB44000A4901EBDD
:10CB0000C0001830009004EB44000A4602EBC0015C
:10CB100018226846FEF7B8FC641C0522214608A0CE
:10CB2000F9F7E4FEDAE700004C9D0C00BCC7C2BC7C
:10CB3000CBF7D2FD25640000E0930400FC9D0020AB
:10CB4000B4CBBFCCCAFDBEDDB1BBBCC7C2BC256483
:10CB500000000000FEB506460C46154600968DF80E
:10CB6000044002956B460C2200210248007801F037
:10CB7000BDF8FEBD7F00002008B54FF4FA6000F05C
:10CB8000B1FF46E00A2000F0ADFFFBF7C1FB8DF8D6
:10CB9000010000208DF802009DF80100002838D027
:10CBA00001211C48FAF7C5FE042000F09BFF01217B
:10CBB0001848FAF7BCFE0DE00A2000F093FF9DF83C
:10CBC0000200401C40B28DF802009DF9020032289C
:10CBD00000DD03E0FBF79CFB0028EDD100BF9DF9D1
:10CBE0000200322803DD04208DF8000002E0062058
:10CBF0008DF800006B46032201210748007801F000
:10CC000075F802E00A2000F06DFFFBF781FB0028B9
:10CC1000F8D1B7E7000C01408200002010B5F9F709
:10CC2000BBF810BD002500BF00276320444981F8F0
:10CC3000CE00FDF767FB044624B10522214641A042
:10CC4000F9F754FE0020FFF787FD0120FDF730FCC7
:10CC5000044624B1052221463FA0F9F747FEFDF71F
:10CC600075F9044624B1052221463FA0F9F73EFE9E
:10CC7000FCF7E2FF4FF47A7000F034FFFDF744F95F
:10CC80005DE0FDF76DFD04463CB1052221463AA06A
:10CC9000F9F72CFE681CC5B209E005213BA0F9F7A5
:10CCA00025FE0025002742F2283000F01BFF002659
:10CCB0003AE000F08DFB044654B10A2094FBF0F1F9
:10CCC00000FB114805230322414633A0F9F70EFE6D
:10CCD0004FF47A7000F006FFFDF74EFA184981F81C
:10CCE000CE00FDF78FFF44F2506000F0FBFEFDF731
:10CCF000ADFE04463CB1052221462CA0F9F7F6FD15
:10CD0000681CC5B205E005212DA0F9F7EFFD00274D
:10CD10000025002D06DDFDF719F90025FDF7F4F8D3
:10CD2000781CC7B2701CC6B2054890F8B500142133
:10CD300090FBF1F0B042BCDC032F00DD74E7A0E70C
:10CD4000389D0020D7A2B2E1CDF8C2E7CAA7B0DC77
:10CD50005B25645D00000000B3F5CABCBBAFB6CC78
:10CD6000D0C55B25645D0000C1ACBDD3B7FECEF17C
:10CD7000C6F75B25645D0000B7A2CBCDCAFDBEDD62
:10CD8000CAA7B0DC5B25645D00000000B7A2CBCD74
:10CD9000CAFDBEDD4F4B0000B6CCD0C5B7A2B8F877
:10CDA0005B25645D2F5B25645DC8CB00B7A2CBCD4E
:10CDB000D0C4CCF8CAA7B0DC5B25645D00000000DD
:10CDC000B7A2CBCDD0C4CCF84F4B00002DE9F04733
:10CDD0006B48B0F8CC100A236A4A6B48FAF7DBFBC1
:10CDE00082465046F8F730FC80460022674BF8F741
:10CDF0003CFB06460022664BF8F7A9FB0446F8F711
:10CE0000BFFC5F49886063480078401C6149087036
:10CE100008460078142830DD08460078401E087067
:10CE2000574AD2F8E8101068F8F7D0FC04D25448FA
:10CE300000685349C1F8E800514AD2F8F010506830
:10CE4000F8F7C4FC03D24E484168C0F8F0104C4AD1
:10CE5000D2F8EC101068F8F7AFFC03D2484801682C
:10CE6000C0F8EC10464AD2F8F4105068F8F7A4FC69
:10CE700003D243484168C0F8F4104148008A00F4E6
:10CE8000807028B33E4A91691068F8F79FFC06D875
:10CE90003B48006940F001003949086105E0384825
:10CEA000006920F0010036490861354AD1691068EF
:10CEB000F8F782FC06D83248006940F00200304999
:10CEC000086105E02E48006920F002002C49086145
:10CED0002B48008A00F4007028B3294A116A506870
:10CEE000F8F774FC06D82648006940F0040024498D
:10CEF000086105E02248006920F00400204908612B
:10CF00001F4A516A5068F8F757FC06D81C48006958
:10CF100040F008001A49086105E01948006920F04E
:10CF200008001749086116498868F8F7E6FB0446C7
:10CF30004FF06632184BF8F7F3FB05D2174800782C
:10CF4000401C1649087002E000201449087013487C
:10CF50000078C82812DDF8F701FF1148FAF78CFBBA
:10CF60001048FAF789FB1048FAF786FB0F48FAF7E2
:10CF700083FB0F48FAF780FBFEF7A2FFBDE8F087BE
:10CF8000389D0020AE000020B000002000000440CA
:10CF90000000A040AD00002066660A40AC00002002
:10CFA00000080140000C0140001001400014014045
:10CFB000001801402DE9F0418EB00024F9F764FD1E
:10CFC000224890F8B00000F0400020B1002120A0DD
:10CFD000F9F78CFC03E0002121A0F9F787FC2DE094
:10CFE00004EB4401224A02EBC100182208A901F017
:10CFF000EDFC0898401C00B921E0641C0C98F8F77F
:10D000007CFB05460E460B98F8F777FB0746002099
:10D01000CDE90271CDE90456069008A8407A08A926
:10D02000097ACDE9001008A8837942799DF8241087
:10D0300010A0F9F75BFC0A2000F054FDD0E700BF18
:10D04000F9F71CFD0EB0BDE8F0810000389D00200E
:10D05000C8D5C6DA2CCEC2B6C82CCAAAB6C800003B
:10D06000C8D5C6DA2CCEC2B6C82CCEC2B6C800000F
:10D070004C9D0C003230253032642D253032642D29
:10D080002530326420253032643A253032642C2534
:10D090002E32662C252E3266000000002DE9F0416C
:10D0A0008EB0002401223F493FA0F9F71FFC012266
:10D0B0003C4914313EA0F9F719FC01213EA0F9F7D3
:10D0C00015FC3848613890F8B00000F0400020B1FD
:10D0D000002142A0F9F70AFC03E0002148A0F9F77B
:10D0E00005FC39E004EB4401002202EBC1001822E8
:10D0F00008A901F06BFC0898401C00B92DE0601CE9
:10D10000C4B20C98F8F7F9FA05460E460B98F8F7F2
:10D11000F4FA07460120CDE90271CDE904560690E4
:10D1200008A8407A08A9097ACDE9001008A88379EF
:10D1300042799DF824103BA0F9F7D8FB322094FBEC
:10D14000F0F100FB1140312803D14FF47A6000F078
:10D15000C9FCFF2C00DB00E0C4E700BF012116A0E2
:10D16000F9F7C4FB01213AA0F9F7C0FB012141A066
:10D17000F9F7BCFB012136A0F9F7B8FB012134A077
:10D18000F9F7B4FB012132A0F9F7B0FB012142A06D
:10D19000F9F7ACFB012149A0F9F7A8FB0EB0BDE8F7
:10D1A000F0810000999D0020D3C3BBA73A257300EE
:10D1B000B1EACCE23A2573002A2A2A2A2A2A2A2A04
:10D1C0002A2A2A2A2A2A2A2A2A2A2A2A2A2A2A2ABF
:10D1D0002A2A2A2A2A2A2A2A00000000BCC7C2BCFE
:10D1E000CAB1BCE42020202020202020202020CEF6
:10D1F000C2B6C8202020CAAAB6C82020000000005D
:10D20000BCC7C2BCCAB1BCE4202020202020202002
:10D21000202020CEC2B6C8202020CEC2B6C82020F2
:10D2200000000000253032642D253032642D253079
:10D23000326420253032643A2530326420202020A8
:10D2400020252E3266202020252E32660000000088
:10D2500020202020202020202020202020202020CE
:10D2600020202020202020202020202020202020BE
:10D2700000000000C7A9D7D63A2020202020202077
:10D280002020202020202020202020202020CAB163
:10D29000BCE43A2000000000B1B8D7A23A20202018
:10D2A000202020202020202020202020202020207E
:10D2B0002020202020202020000000000D0A0D0A40
:10D2C0000D0A202020202020202020202020202087
:10D2D000202020202020000000B587B02C4890F8A6
:10D2E000C91090F8B60091FBF0F200FB121008B9DB
:10D2F000012000E0002027490978FF2901D1012100
:10D3000000E00021084300283FD0214890F8C900E0
:10D3100020490978884233D01D4890F8D200FF2870
:10D320002EDA072202A91A48C430F8F78DFD0C2224
:10D3300004A91748F8F788FD154890F8D20000EBCB
:10D340004000002101EBC00018300190104890F817
:10D35000D20000EB4000002202EBC001182201A81D
:10D36000FEF792F80A4890F8D21005220AA0F9F7C1
:10D37000BDFA074890F8D200401C054981F8D20058
:10D38000034890F8C9000349087007B000BD0000C9
:10D39000389D0020AB000020B4CBBFCCBCC7C2BCC2
:10D3A000B1BBB4E6B4A25B25645D000010B5B0204B
:10D3B00006498882002105481430FEF71BFA012136
:10D3C00002481430FEF716FA10BD0000389D002008
:10D3D0002DE9F047B6B00024A1467448007C00F067
:10D3E0000F0A72494868F8F788F905460E466F49F2
:10D3F0000868F8F782F9074605203A460B46CDE95A
:10D40000005602906A4801786AA0F9F76FFA7048EE
:10D410000078FF2802D16E4880F800A06C480078A0
:10D4200082457DD062480078401C614908705F48A1
:10D4300090F8B7000978884272DA04A95B48753021
:10D44000FEF7D8FD00F0FF0958494868F8F755F98C
:10D4500005460E4655490868F8F74FF907460B464A
:10D4600004A901EB09003A465AA1CDE90056FAF7A2
:10D470009DFD04464D48007C00F00100A8B14B49D9
:10D480008869F8F73AF905460E4648490868F8F7FA
:10D4900034F907460B4604A901EB09003A4653A1AB
:10D4A000CDE90056FAF782FD04464048007C00F0C2
:10D4B0000200A8B13D49C869F8F71FF905460E46B4
:10D4C0003A490868F8F719F907460B4604A901EB31
:10D4D00009003A464BA1CDE90056FAF767FD04462C
:10D4E0003248007C00F00400A8B13049086AF8F71F
:10D4F00004F905460E462D494868F8F7FEF8074638
:10D500000B4604A901EB09003A4644A1CDE90056B7
:10D51000FAF74CFD04462548007C00F0080000E0C6
:10D5200039E0A8B12149486AF8F7E7F805460E4600
:10D530001E494868F8F7E1F807460B4604A901EBD5
:10D5400009003A463BA1CDE90056FAF72FFD044603
:10D5500004EB0900C4B2204604EBD0714910A4EBDF
:10D560004101012906D104A9081938A1FAF71EFDC5
:10D570002044C4B2052304AA214635A0F9F7B6F920
:10D5800004A8FDF7D7FA044641F2883000F0AAFA61
:10D590000F4880F800A00E480078824502D1002094
:10D5A00003490870204636B0BDE8F087389D00205A
:10D5B000AA000020436F756E743D25642C434831EA
:10D5C0003D252E32662C4348323A252E3266000025
:10D5D000A9000020BBD6B8B44348313D252E3266A1
:10D5E0002C4348323A252E3266000000B4A5B7A27B
:10D5F0004348313D252E32662C4D41583A252E3276
:10D6000066000000B4A5B7A24348313D252E32661E
:10D610002C4D696E3A252E3266000000B4A5B7A2E3
:10D620004348323D252E32662C4D41583A252E3244
:10D6300066000000B4A5B7A24348323D252E3266ED
:10D640002C4D696E3A252E32660000002000000045
:10D65000B6CCD0C5C4DAC8DD5B25645D3A2573005D
:10D660000146002905DB092903DC01F13000C0B2C5
:10D6700070470A2905DB232903DC01F13700C0B21A
:10D68000F6E701F13D00C0B2F2E70000F0B5024656
:10D690000C46FF21FF2500260BE012F8017B87EAEC
:10D6A0000503084FFF5C87EA0105074FF95C771C0B
:10D6B000BEB2A642F1DB08464FF6FF7707EA00202C
:10D6C0002843F0BD5CF300085CF4000830B5024666
:10D6D0000B46002010E012F8014B6040002109E0E9
:10D6E00000F001041CB18C2484EA600000E04010CA
:10D6F0004C1CE1B20829F3DB1C1EA3F10105ABB2FF
:10D70000E9D130BD10B50246002002E012F8013B1D
:10D7100058400B1EA1F10104A1B2F7D110BD0000C9
:10D7200010B510480078132804D00F480078401C2A
:10D730000D4908700D480078401C0C4908700846D7
:10D74000007864280DDD002008701423084A06487C
:10D7500001780848F9F71FFF0749087000200249BF
:10D76000087010BD4C000020640000205C00002008
:10D770005D000020600000204400002010B54FF440
:10D780007070FCF78DF81E49086002201D49487032
:10D7900000204860002428E0012004EB4401184ADE
:10D7A000126802EB01110881002004EB4401144AC5
:10D7B000126802EB01118861002104EB4400104A59
:10D7C000126802EB00100160002004EB44010C4AD7
:10D7D000126802EB0111C86104EB4401084A1268A7
:10D7E00002EB01110884601CC4B2142CD4DB13209A
:10D7F000054908700020054908600549086010BD0A
:10D8000054000020440000204C000020580000205C
:10D810006800002070B50446FFF7B0FF04E094E80C
:10D820000F0000F0FDF8103420680028F7D100F058
:10D8300027F870BDF9F772FC04E0642000F052F99B
:10D8400000F002F8F9E7000010B50C48046804B9CC
:10D8500010BD0EE02468A07A00F0010048B1A07A63
:10D8600000F0020028B1E0688047A07A20F00200B2
:10D87000A07220680028EDD100BFE9E76800002011
:10D8800038B51849B1F1807F00D31DE021F07F4009
:10D89000401E4FF0E022506150170F22002807DA97
:10D8A00013071D0E104B00F00F04241F1D5503E03D
:10D8B00013071C0E0D4B1C5400BF00204FF0E0223C
:10D8C00090610720106100BF4FF4FA6008A30022A6
:10D8D0000A490090132000F03BF8132000F022FBCF
:10D8E00038BD00004019010018ED00E000E400E040
:10D8F0005461736B526F6F740000000035D80008DC
:10D9000010B5FFF70DFF00F031FA084840784028C5
:10D9100005D1032106A0F8F7E9FFFBF75FFE0B48EE
:10D92000006808B100F0F8FB10BD000044000020C2
:10D930005461736B2054696D654F75742057696C21
:10D940006C20544F532052657365740068000020AA
:10D950002DE9F04704460D4691461F46DDF820802C
:10D960000DB9BDE8F08704EB44002C49096801EBD0
:10D9700000100089012800D0F3E704EB4400274998
:10D98000096801EB0010008C98B91FFA88F0FBF7CA
:10D9900087FF064604EB4401204A126802EB01119E
:10D9A000A1F8208004EB44011C4A126802EB01112B
:10D9B000CE6104EB4402194B1B6803EB0212118C7D
:10D9C00004EB4402154B1B6803EB0212D06900F014
:10D9D0006FFB8246022104EB4400104A126802EBFE
:10D9E0000010018104EB44000C49096801EB0010B0
:10D9F000456004EB44000949096801EB0010C76267
:10DA00004A462946504600F055FA04EB4401034AC1
:10DA1000126802EB0111086000BFA2E75400002069
:10DA20002DE9F84305460E461746984600241AE0AD
:10DA300004EB44001249096801EB0010008900B9A9
:10DA400012E004EB44000E49096801EB0010008964
:10DA5000012800D108E0601C80B20446142802DBD3
:10DA60000020BDE8F883E3E700BFE0B23B46324662
:10DA70002946CDF80080FFF76BFF0120F1E7000099
:10DA80005400002010B5154A127802EB4202144BE4
:10DA90001B6803EB02129062104A127802EB4202FA
:10DAA0000F4B1B6803EB021282F8231000220B4B72
:10DAB0001B7803EB43030A4C246804EB031383F83D
:10DAC00024200023054A127802EB4202044C246809
:10DAD00004EB021282F8253010BD00004C0000203B
:10DAE0005400002010B504461348407801281FD088
:10DAF00000201249097801EB4101114A126802EB3A
:10DB0000011188610D48007800EB40000C4909685C
:10DB100001EB0010446110210848007800EB400040
:10DB2000074A126802EB0010018100F071FA02E06E
:10DB30002046F8F74FF910BD440000204C000020AB
:10DB40005400002001460D48006800EB4110007AA7
:10DB500008B9002070470948006800EB411040797F
:10DB6000074A1278904201D00020F3E70120034ACF
:10DB7000126802EB4112107200BFEBE77000002048
:10DB80004C00002070B504460D4600BF1E480068DA
:10DB900000EB4410007A30B1012815D0022804D0DF
:10DBA00003282FD11FE0002070BD1748006800EB4C
:10DBB0004410407915490978884201D10120F3E7E2
:10DBC000204600F0D3FAE1E702200F49096801EB93
:10DBD000441108720D4800780B49096801EB4411A3
:10DBE00048710120E0E702200749096801EB441170
:10DBF0000872064800780449096801EB441148712D
:10DC00000120D1E70020CFE7700000204C00002069
:10DC10000248007802490870704700004C0000205C
:10DC20008200002070B51648007800EB40001549CE
:10DC3000096801EB0014A06A08B9002070BD94F8CF
:10DC4000250018B90E48007800F07EF994F82500F8
:10DC500008B90020F2E72334D4F80500617800EB1E
:10DC6000C1056078401C217890FBF1F201FB1200A5
:10DC70006070A078401EA070233C2846DEE70000BC
:10DC80004C0000205400002070B50646154800786E
:10DC900000EB40001449096801EB0014A06A08B9C0
:10DCA000002070BD94F8250010B93046FFF71AFF28
:10DCB00094F8250008B90020F3E72334D4F80500D0
:10DCC000617800EBC1056078401C217890FBF1F28F
:10DCD00001FB12006070A078401EA070233C284613
:10DCE000DFE700004C000020540000202DE9F04741
:10DCF0000646884691469A46142E01DBBDE8F08719
:10DD000006EB46001849096801EB0014A06A00B947
:10DD1000F4E794F8250094F8231088421FDA23349E
:10DD20006078A1780844217890FBF1F201FB1200A1
:10DD3000C7B214F82309B84200DCDFE7A06A00EBA1
:10DD4000C70585F800804A4650466968F8F77CF8B0
:10DD500085F8019094F82500401C84F82500304691
:10DD600000F064F800BFC9E754000020002056E02E
:10DD700000EB40012B4A126802EB011109890229CC
:10DD800002D0102947D11DE000EB4001254A12685E
:10DD900002EB01118969491C00EB4002214B1B6811
:10DDA00003EB0212916100EB40011E4A126802EB84
:10DDB0000111896944F62062914202D940211A4A30
:10DDC000517029E0002100EB4002164B1B6803EB69
:10DDD0000212916100EB4001124A126802EB01113C
:10DDE000496941B9022100EB40020E4B1B6803EB6D
:10DDF000021211810EE000EB40010A4A126802EBA8
:10DE000001114969491E00EB4002064B1B6803EBF8
:10DE10000212516100E000BF00BF411CC8B21428CB
:10DE2000A6DB70475400002044000020142800DBCB
:10DE3000704700EB4001094A126802EB01110989A1
:10DE4000012900D1F4E7102100EB4002034B1B68CD
:10DE500003EB0212118100BFEAE70000540000202A
:10DE600010B504460F480078A04200D110BD0D48FF
:10DE7000007800EB40000C49096801EB00100B49E9
:10DE8000086008480470007800EB40000649096803
:10DE900001EB0010006806490860F7F7D7FD00BFE6
:10DEA000E4E700004C000020540000204000002067
:10DEB0003C00002030B503461846041F2046216070
:10DEC000041F204623600025041F20462560041FF0
:10DED00020462560041F20462560041F204625603B
:10DEE000041F20462560041F20462560041F20468D
:10DEF0002560041F20462560041F20462560041F5E
:10DF000020462560041F20462560041F204625600A
:10DF1000041F204622604FF08075041F20462560B4
:10DF200030BD000010B5044604EB44000449096804
:10DF300001EB0010006803490860F7F7A0FD10BD71
:10DF4000540000203C00002010B50446142C00DBD7
:10DF500010BD04EB44000E49096801EB0010008974
:10DF6000012800D1F4E7042004EB4401084A1268B8
:10DF700002EB01110881002104EB4400044A1268FD
:10DF800002EB0010416100F043F800BFE0E7000041
:10DF90005400002010B50446142C01DB002010BDF5
:10DFA00004EB44001949096801EB001000890128BD
:10DFB00001D10020F3E704EB44001449096801EBA8
:10DFC00000100089042801D10020E8E704EB440098
:10DFD0000E49096801EB00100089082801D10020D2
:10DFE000DDE7082004EB4401084A126802EB011146
:10DFF0000881002004EB4401044A126802EB01117D
:10E00000486100F005F80120C9E700005400002035
:10E0100010B5022123480068A0F8981300243DE0C1
:10E0200004EB44001F49096801EB00100089022835
:10E0300002D020282ED107E01B480078A04202D051
:10E040002046FFF70DFF10BD04EB44001549096899
:10E0500001EB001090F822001449096801EB401010
:10E06000007A012815D1102004EB44010D4A1268F2
:10E0700002EB01110881032004EB4401094A1268F4
:10E0800002EB011191F82210084A126802EB4111CB
:10E09000087200E000BF00BF601CC4B2142CBFDBDC
:10E0A00000BFD0E7540000204C000020700000208A
:10E0B0000246501820F00303A3F1300020F00700BF
:10E0C0007047000010B5142800DB10BD00EB4002C3
:10E0D000104B1B6803EB02121289042A00D1F4E7EB
:10E0E000002200EB40030B4C246804EB03139A61FD
:10E0F000102300EB4002074C246804EB021213814A
:10E1000000EB4002034B1B6803EB0212516100BF9E
:10E11000DBE700005400002010B51348006800B988
:10E1200010BD11480068E0B10F480068807A00F027
:10E130000100B0B10C48006800890B490968898862
:10E14000884207DB08490968C868804700200649FB
:10E1500009680881044800680089401C0249096870
:10E16000088100BFDCE700006800002010B504460D
:10E170000B48007800EB40000A49096801EB0010E9
:10E1800080F8224020200649097801EB4101054A28
:10E19000126802EB01110881FFF73AFF10BD000081
:10E1A0004C0000205400002010B540F225510E48CC
:10E1B00000F009FAB8B10C48001D0088C4B20B4841
:10E1C000C0880B49C98888420DDA0848C188C088D0
:10E1D000401C064AD0800748C06844540649C878A5
:10E1E0000A21FFF76FFF10BD004C0040EE00002039
:10E1F000E4000020BC0000203700002010B540F2F1
:10E2000025510E4800F0DFF9B0B10C488088C4B247
:10E210000B4800890B49098988420DDA08480189B1
:10E220000089401C064A1081074800694454074988
:10E2300008790A21FFF746FF10BD0000005000409A
:10E24000EE000020E4000020BC0000203700002089
:10E2500010B540F225510E4800F0B5F9B8B10C48A0
:10E26000001D0088C4B20B4800880B490988884209
:10E270000DDA084801880088401C064A10800748CB
:10E2800000684454064908780A21FFF71BFF10BDB7
:10E2900000380140EE000020E4000020BC00002017
:10E2A0003700002010B540F22551114800F08BF9DD
:10E2B000C0B10F48001D0088C4B20E4840880E4906
:10E2C0004988884213DA0B4841884088401C094A33
:10E2D00050800A4840684454094948780A21FFF7A9
:10E2E000F1FE04E040F22551014800F044F810BD71
:10E2F00000440040EE000020E4000020BC000020AC
:10E300003700002010B540F22551114800F05BF9AC
:10E31000C0B10F48001D0088C4B20E4880880E4965
:10E320008988884213DA0B4881888088401C094A12
:10E3300090800A4880684454094988780A21FFF788
:10E34000C1FE04E040F22551014800F014F810BD70
:10E3500000480040EE000020E4000020BC00002047
:10E360003700002001F40072B2F5007F00D100BF39
:10E37000CA430280704710B50022002340F66A1499
:10E38000A14200D100BF0A1201249440A3B2DC4391
:10E39000048010BD21B1828942F40052828104E0E0
:10E3A00082894DF6FF731A408281704770B504462A
:10E3B000204600F057F9054600F076F8062C2ED2DC
:10E3C000DFE804F0030A11181F2625224FF4E1317B
:10E3D000144800F031F822E026224FF4E1311248CF
:10E3E00000F02AF81BE027224FF416510F4800F0E6
:10E3F00023F814E027224FF416510C4800F01CF8C3
:10E400000DE034224FF4E131094800F015F806E040
:10E4100035224FF4E131074800F00EF800BF00BF8D
:10E4200070BD00000038014000440040004800403A
:10E43000004C00400050004070B586B006460C46C7
:10E44000154601940020ADF80800ADF80A00ADF8BB
:10E450000C00ADF810000C20ADF80E0001A93046FC
:10E4600000F044F9012240F22551304600F018F93D
:10E4700001213046FFF78EFF40213046FFF772FF43
:10E480004FF48060FBF7C4FB8DF8145002208DF828
:10E49000150001208DF816008DF8170005A8FBF770
:10E4A0007FFB06B070BD000038B5044627488442A3
:10E4B0000BD10D202315264A51150090104600F06F
:10E4C00057F801218803FCF7F1FC224884420BD164
:10E4D000042008231E4A01460090104600F048F828
:10E4E00001214804FCF7D2FC1B4884420FD10920CB
:10E4F000E3141A4A11150090104600F039F8012172
:10E500008804FCF7C3FC01218804FCF7CFFC144805
:10E5100084420BD11120E314124A111500901046C9
:10E5200000F026F80121C804FCF7B0FC0E48844234
:10E530000BD1312004230D4A91140090094800F0BA
:10E5400017F801210805FCF7A1FC38BD003801408F
:10E55000000801400044004000480040000C014019
:10E56000004C0040001001400050004000140140E9
:10E570002DE9F84307460D4616461C46DDF8208077
:10E5800001214046FCF792FCADF8005003208DF8C5
:10E59000020018208DF8030069463846F9F7F0F8B4
:10E5A000ADF8004004208DF8030069463046F9F7C5
:10E5B000E7F829463846F9F7BCF921463046F9F71D
:10E5C000B8F9BDE8F88370B50246002400230025A1
:10E5D000002040F66A16B14200D100BFC1F34215D7
:10E5E00001F01F03012606FA03F3012D02D19689DB
:10E5F000334006E0022D02D1168A334001E0968AAC
:10E6000033400C12012606FA04F41688344013B184
:10E610000CB1012000E0002070BD000001460F4A4F
:10E62000881A914213D006DC0D48084458B1B0F561
:10E63000806F10D109E0B0F5806F0AD0B0F56C4F53
:10E6400009D1002070470120FCE70220FAE70320EF
:10E65000F8E70420F6E70020F4E70000004C004053
:10E6600000BCFFBF014605290ED2DFE801F003051B
:10E6700007090B00054870470548FCE70548FAE71D
:10E680000548F8E70548F6E70020F4E700380140C0
:10E690000044004000480040004C00400050004052
:10E6A000F0B50346002400260025002040F66A1736
:10E6B000B94200D100BF1846C1F3421401F01F0651
:10E6C000012707FA06F5012C01D10C3004E0022CD9
:10E6D00001D1103000E014301AB107682F430760F1
:10E6E00002E00768AF430760F0BD00002DE9F04786
:10E6F00085B005460E460024A24600BFA14600276D
:10E70000B08900B100BF2F462C8A4CF6FF70044040
:10E71000F08804432C82AC8928480440B0883189B1
:10E720000843718908430443AC81AC8A4FF6FF402B
:10E730000440B0890443AC826846FCF7D7FB20480C
:10E74000874202D1DDF80CA001E0DDF808A0A8891D
:10E7500000F4004040B10AEBCA0000EB0A10316837
:10E760004900B0FBF1F807E00AEBCA0000EB0A1021
:10E7700031688900B0FBF1F86420B8FBF0F00401C7
:10E780002009642101FB1089A88900F4004040B1F0
:10E79000322000EBC900B0FBF1F000F007000443A9
:10E7A00008E0322000EB09106421B0FBF1F000F02A
:10E7B0000F0004432C8105B0BDE8F087FFFEF0FF99
:10E7C000003801402DE9F04705460E4614462F4615
:10E7D000B046A1463846FFF721FF824600234FF49A
:10E7E00096724146384600F005F8A9F80000BDE8E9
:10E7F000F08700002DE9F04780460F4615461E467B
:10E800004046FFF70BFF04462049085D0021FFF753
:10E81000B9F98146B9F1000F28D0012240F2255103
:10E820004046FFF73DFF1A4800781A490855B5F5EC
:10E83000967F01DB4FF49675174820F8145000209E
:10E84000164921F814001EB13046FFF74BF903E0DA
:10E850001049085DFFF79EFB0C49085DFFF772F950
:10E86000002240F225514046FFF71AFF47B10B49FD
:10E8700031F814200A4951F824003946F7F7E4FA30
:10E88000064830F81400BDE8F08700002D00002095
:10E890004C00002037000020E4000020EE000020A3
:10E8A000BC0000202DE9F04304460D4616462746DD
:10E8B000A846B6F800904A464146384600F00CF8A3
:10E8C000BDE8F08300BF028802F08002002AFAD07F
:10E8D000C1F308028280704710B50B46002109E0A1
:10E8E00000BF048804F08004002CFAD05C5C8480B3
:10E8F0004C1CA1B29142F3DB10BD0FB430B5B3B0E4
:10E90000054638A832906846329A379900F07CF86C
:10E91000002032906846F9F7BFFB0446224669465C
:10E920002846FFF7D9FF204633B030BC5DF814FB12
:10E9300000B54FF48020F8F765FC00BD00BFFEE78E
:10E940002DE9F04106460D462F0BC5F30B0000B133
:10E950007F1C002406E04FF4805101FB0460FCF7AB
:10E96000B1FE641CBC42F6D3BDE8F0812DE9F0474E
:10E9700007460D462E0BC5F30B0000B1761C002494
:10E980001AE04FF4805101FB0470FCF79BFE01205C
:10E99000FFF7A8F82420B4FBF0F100FB114050B9B8
:10E9A0002420B6FBF0F8B4FBF0F9002342464946B8
:10E9B00003A0F7F79BFF641CB442E2D3BDE8F087E5
:10E9C000B2C1B3FDD2B325642F25640070B50446EF
:10E9D0000D461646324621462846FCF72DFD70BDF1
:10E9E00070B504460D461646328828462168FCF765
:10E9F00023FD70BD70B504460D4616463288284684
:10EA00002168FCF741FD70BD37B514460846064B3A
:10EA10006A46214600F0CCF804466946002000F022
:10EA20005EFC20463EBD0000DFF2000802E008C8A0
:10EA3000121F08C1002AFAD170477047002001E078
:10EA400001C1121F002AFBD1704700002DE9FF5FB2
:10EA5000DDE90220010DDDF838B0024318D044F69C
:10EA60001050A1F2FF3141430D140F98012820D01E
:10EA7000A5EB0B00401C5FEA000A4FF00004474E74
:10EA8000DFF81C91A046504616D5CAF1000728E0D1
:10EA90000F98012443A2012808D0002100980F9B61
:10EAA000C0E90021C0E90243BDE8FF9F6FEA0B0106
:10EAB000F4E7CBF10000DEE7074612E0F80707D0E5
:10EAC0002246334640464946F6F7CFFC8046894603
:10EAD0002246334610461946F6F7C7FC04460E4652
:10EAE0007F10002FEAD1DDE90201BAF1000F4246A2
:10EAF0004B4602DAF6F7B9FC01E0F6F728FD0446CA
:10EB00000E460022284BF6F723FE03D84FF0FF30C5
:10EB1000014607E00022254B20463146F6F7FEFB72
:10EB2000F6F76AFF102409E0002C0ADB0A22002312
:10EB3000F6F76CFE019B30321A55641E50EA010252
:10EB4000F2D1641C019AC4F1110314440F9A012AF2
:10EB500003D0012208430DD10AE0084304D000206D
:10EB60004FF0110B0F9080E7A3EB0B056D1E0DE02E
:10EB70005B4504DD4FF0000205F1010504E003DA16
:10EB80004FF00002A5F10105002AECD000980F9982
:10EB9000C0E90231C0E9004586E7000000002440DA
:10EBA0000000F03F300000000000F0430000E03FB4
:10EBB0002DE9FF4F95B09B468946064600250FE29A
:10EBC000252877D100242746F84A0121059400E042
:10EBD000044316F8013F203B01FA03F01042F7D13D
:10EBE00030782A2811D06FF02F033078A0F130024E
:10EBF000092A16D8059A44F0020402EB820203EBBC
:10EC000042021044761C0590EFE759F8042B059258
:10EC1000002A03DA504244F40054059044F0020400
:10EC2000761C30782E2816D116F8010F44F0040413
:10EC30002A280DD06FF02F023078A0F13003092B75
:10EC400009D807EB870302EB4303C718761CF3E7E9
:10EC500059F8047B761C30786C280FD006DC4C28E1
:10EC600017D068280DD06A2814D104E0742810D079
:10EC70007A280FD10DE044F400140AE044F4801423
:10EC800001E044F440147278824202D104F5801409
:10EC9000761C761C307866280BD013DC582877D089
:10ECA00009DC002875D04528F6D04628F4D047283E
:10ECB0001AD19DE118E0632835D0642879D0652801
:10ECC00012D195E1702873D008DC6728F1D069284B
:10ECD0006FD06E280DD06F2806D1B5E073282CD0E8
:10ECE000752875D0782874D05A46179990476D1CAE
:10ECF00075E1C4F30250022809D003280DD0D9F8D9
:10ED0000001004280DD00D6009F1040967E1D9F85D
:10ED10000010EA17C1E90052F6E7D9F800100D809B
:10ED2000F2E70D70F0E719F8041B8DF800100020D1
:10ED30008DF80100EA46012003E059F804AB4FF0DA
:10ED4000FF3061074FF0000102D40DE008F101012E
:10ED50008846B9420FDA8045F8DB1AF80810002916
:10ED6000F4D108E008F1010188468142FADB1AF883
:10ED700008100029F6D105985B46A0EB080721464C
:10ED80003846179A00F094FA284400EB080507E08B
:10ED90004DE029E10DE01AF8010B5A46179990470A
:10EDA000B8F10108F7D25B4621463846179A13E1BD
:10EDB00042E00A220092C4F302524FF0000A022AF3
:10EDC00008D059F804CB032A4FEAEC710AD00DE0C1
:10EDD00029E02AE009F1070121F00702F2E802C167
:10EDE000914609E00FFA8CFC4FEAEC71042A03D13A
:10EDF0004FFA8CFC4FEAEC71002907DA0A46002131
:10EE0000DCF1000C61EB02012D2202E0220504D5A9
:10EE10002B228DF80420012203E0E20701D02022FA
:10EE2000F7E7904659E00A2102E010220DE0102198
:10EE30004FF0000A00910BE010224FF0000A44F05E
:10EE400004040827009203E008224FF0000A009211
:10EE5000C4F30252022A05D059F804CB0021032A38
:10EE600008D009E009F1070121F00702F2E802C128
:10EE7000914605E01FFA8CFC042A01D10CF0FF0C2E
:10EE80004FF00008220728D5702806D0009B83F099
:10EE9000100353EA0A0305D00EE040228DF8042047
:10EEA000012208E05CEA010206D030228DF804203D
:10EEB0008DF8050002229046009B83F0080353EA78
:10EEC0000A030AD15CEA010201D1620705D53022AA
:10EED0008DF804204FF001087F1E582804D034A07C
:10EEE00003900EA802900DE036A0F9E75346604665
:10EEF000009AF6F78BFC84460398825C0298401EC9
:10EF0000029002705CEA0100F0D1029806A9081A8A
:10EF100000F1200A600702D524F4803400E00127C4
:10EF2000574502DDA7EB0A0000E0002000EB0A01D4
:10EF3000009005984144401A0590E00306D45B46D2
:10EF40002146179A059800F0B3F90544002706E01A
:10EF500001A85A46C05D179990476D1C7F1C474514
:10EF6000F6DBE0030CD55B462146179A059800F0C6
:10EF70009FF9054404E030205A46179990476D1CCC
:10EF80000099481E00900029F5DC08E002980299DB
:10EF90005A460078491C0291179990476D1CBAF1A6
:10EFA0000001AAF1010AF1DC65E100000928010075
:10EFB00030313233343536373839616263646566EF
:10EFC00000000000303132333435363738394142B1
:10EFD000434445460000000000F058F90544761C03
:10EFE000307800287FF4ECAD19B02846BDE8F08FEA
:10EFF000620700D4062709F1070222F0070CFCE89B
:10F000000223E14603F000485FEA080C02D00FF249
:10F01000702C0DE05FEA045C02D50FF2682C07E06B
:10F020005FEAC47C02D00FF2602C01E0AFF2700CFA
:10F030004FF0FF3823F00043CDF850C065280CD0C6
:10F0400006DC452809D046281DD047283DD13DE0A3
:10F05000662818D067287ED138E00021112F01DB07
:10F06000112000E0781CCDE9000106A90EA8FFF7E9
:10F07000EDFCDDE90F010E9A03910021009207F1EA
:10F08000010A04914DE04FF000400097CDE90110D6
:10F0900006A90EA8FFF7DAFCDDE90F0203920E9B2A
:10F0A00011990022DDF80CA00093049211B9791C8B
:10F0B00000EB010AB7EB0A0004D4C0F1FF3007F1FE
:10F0C000010A0490AAEB0700019044E0012F00DA46
:10F0D00001270021112F01DD112000E03846CDE984
:10F0E000000106A90EA8FFF7B1FCDDE90F010E9A99
:10F0F0000391002104910092BA4621070CD4039990
:10F10000514500DA8A46BAF1010F05DD009AAAF1ED
:10F110000101515C302908D0B84202DA10F1040F25
:10F1200006DA0121CDE9011015E0AAF10101E9E7B4
:10F13000002805DC049901440491AAEB000102E0D7
:10F14000411C514500DD8A460499401A401C01903B
:10F150004FF000400290200704D40198504501DB95
:10F16000CDF8048000208DF84F0002980DF14F0774
:10F17000B0F1004F25D02B200E9002984FF00208DE
:10F1800000280CDA404202902D200E9007E00A2160
:10F190000298F6F725FB3031029007F8011DB8F10F
:10F1A0000001A8F10108F2DC02980028EFD1791ED5
:10F1B0000E980870307800F0200040F0450007F805
:10F1C000020D12A8C01B00F107081498007800B1C6
:10F1D000012000EB0A01019801EBE0710598414420
:10F1E000401A401E0590E00306D45B462146179A5C
:10F1F000059800F05DF805441498007818B15A4657
:10F20000179990476D1CE00324D55B462146179A59
:10F21000059800F04DF805441CE00498002807DB31
:10F22000DDE90301884203DD0098405C179901E0A5
:10F23000179930205A469047049805F10105401C63
:10F2400004900198401E019004D12E205A4617992F
:10F2500090476D1CBAF10001AAF1010ADDDC05E05E
:10F2600017F8010B5A46179990476D1CB8F1000129
:10F27000A8F10108F4DC5B462146179A0598ABE635
:10F280002D0000002B000000200000002DE9F041BF
:10F29000044600251E461746880404D405E0394676
:10F2A0002020B0476D1C641EF9D52846BDE8F081CA
:10F2B0002DE9F041044600251E469046C80301D5BD
:10F2C000302700E02027880404D505E04146384671
:10F2D000B0476D1C641EF9D52846BDE8F0810A6868
:10F2E000531C0B6010707047801000BF011EA0F10E
:10F2F000010290B2FAD170474FF4A0414FF0006084
:10F30000FAF790FC0E48FAF7BDFAF7F7DFFB0D4865
:10F31000F7F7C0FD0C48F7F7BDFD0C48F7F7BAFD4D
:10F320000B48F7F751FD0B48F7F7EAFCF7F794FEA7
:10F33000F7F780FC0848FEF76DFA00BFFEE7000013
:10F34000F800002000380140004400400048004020
:10F35000A4610108C8610108F460010800C181408E
:10F3600001C0804101C0804100C1814001C0804195
:10F3700000C1814000C1814001C0804101C0804185
:10F3800000C1814000C1814001C0804100C1814075
:10F3900001C0804101C0804100C1814001C0804165
:10F3A00000C1814000C1814001C0804100C1814055
:10F3B00001C0804101C0804100C1814000C1814045
:10F3C00001C0804101C0804100C1814001C0804135
:10F3D00000C1814000C1814001C0804101C0804125
:10F3E00000C1814000C1814001C0804100C1814015
:10F3F00001C0804101C0804100C1814000C1814005
:10F4000001C0804101C0804100C1814001C08041F4
:10F4100000C1814000C1814001C0804100C18140E4
:10F4200001C0804101C0804100C1814001C08041D4
:10F4300000C1814000C1814001C0804101C08041C4
:10F4400000C1814000C1814001C0804100C18140B4
:10F4500001C0804101C0804100C1814000C0C101A4
:10F46000C30302C2C60607C705C5C404CC0C0DCD34
:10F470000FCFCE0E0ACACB0BC90908C8D81819D9A4
:10F480001BDBDA1A1EDEDF1FDD1D1CDC14D4D515D4
:10F49000D71716D6D21213D311D1D010F03031F1C4
:10F4A00033F3F23236F6F737F53534F43CFCFD3DF4
:10F4B000FF3F3EFEFA3A3BFB39F9F83828E8E929E4
:10F4C000EB2B2AEAEE2E2FEF2DEDEC2CE42425E594
:10F4D00027E7E62622E2E323E12120E0A06061A104
:10F4E00063A3A26266A6A767A56564A46CACAD6DB4
:10F4F000AF6F6EAEAA6A6BAB69A9A86878B8B97924
:10F50000BB7B7ABABE7E7FBF7DBDBC7CB47475B553
:10F5100077B7B67672B2B373B17170B05090915143
:10F520009353529296565797559594549C5C5D9D73
:10F530005F9F9E5E5A9A9B5B995958988848498963
:10F540004B8B8A4A4E8E8F4F8D4D4C8C4484854513
:10F5500087474686824243834181804002100000F3
:10F560000010014000E0000000000000000000006A
:10F5700000000000AF066D4FC6CBEB0EEFCF104082
:10F5800000A7ECE8E1E36BE6A9FA60D6F46CBCBE38
:10F59000E0FEFC0104007ACE8E1E3EB66E9AAF06E7
:10F5A0006D4FC6CBEB0EEFCF46616C7365005472A6
:10F5B000756500001C65010849C1000802000000D3
:10F5C000106501081DCC0008020000000465010858
:10F5D00025C100080200000068640108689D002041
:10F5E0001A0B000090640108739D00201A0B0000A4
:10F5F000A46401087E9D00201A0B00007C640108B1
:10F60000C19D00201A10000090630108E29D0020B7
:10F610000502000040640108899D00201A100000C6
:10F6200054640108999D00201A1400002C640108FC
:10F63000AD9D00201A14000098620108509D002022
:10F640000400000060620108549D002004000000D6
:10F65000B4620108589D0020040000007C6201088B
:10F660005C9D00200400000048630108EC9D002020
:10F670000B00000080630108ED9D00200B000000DE
:10F6800060630108EF9D00200B000000706301081B
:10F69000EE9D00200B000000FC630108E89D0020A7
:10F6A0001D05000014640108E89D00201D060000EF
:10F6B000D0620108F09D002004000000E86201080B
:10F6C000F49D00200400000028620108389D0020FD
:10F6D00004000000446201083C9D0020040000007A
:10F6E0000C630108409D002004000000D464010860
:10F6F000069E00200B000000B8640108489D002011
:10F700001D050000FC64010800000000000000006E
:10F7100002480000001801406000000002100000D4
:10F720000010014038000000000000000000000050
:10F7300000000000004EBBD2014EA1B6034EDFC652
:10F74000074EF2CD084EC9D5094EFDC80A4ECFC9A5
:10F750000B4EC2CF0C4EA2D80D4EBBB20E4EEBD309
:10F76000104EA4D8114EF3B3134EA8D7144ED2C7DF
:10F77000154EA7D8164EC0CA184EF0C7194EFBB189
:10F780001A4EB5D21B4ED4B41C4EABB61D4EBFCBD9
:10F790001E4EA9D8224EAAB6244EBDC1254ECFD1A9
:10F7A000274EA5C9284EADD82A4EF6B82B4EBED14D
:10F7B0002C4EDCE32D4ED0D6304EE1B7324EAEB4F7
:10F7C000344ED9C1364EBCD8384EE8CD394EA4B5EA
:10F7D0003A4EAACE3B4EF7D63D4EF6C03E4ED9BE6F
:10F7E0003F4EAFD8434ECBC4454EC3BE474EB1D8B3
:10F7F000484EB4C3494EE5D24B4EAED64C4EDACE4F
:10F800004D4EA7D54E4EF5BA4F4EA6B7504ED6C068
:10F81000524EB9C6534ED2C5544EC7C7564ED4B930
:10F82000584ECBB3594ED2D25C4EBFD85D4EC5BEFA
:10F830005E4EF2C65F4EB2D2604EB0CF614EE7CFA1
:10F84000664EE9CA694EC0D8704EF2C2714ED2C23D
:10F85000734EE9C87E4EACC7864ECBC1884EE8D306
:10F86000894EF9D58B4EC2CA8C4EFEB68D4EA1D8AC
:10F870008E4EDAD38F4EF7BF914EC6D4924EA5BBB3
:10F88000934EC1D8944EE5CE954EAEBE984EA8D8B4
:10F890009A4EC7D19B4EA9D09F4EBDD8A04EEFD94E
:10F8A000A14EF6CDA24EBABFA44EBBBDA54EA5BA81
:10F8B000A64EE0D2A74EFAB2A84EE0BAA94EB6C400
:10F8C000AB4EEDCFAC4EA9BEAD4EA4CDAE4EC1C138
:10F8D000B24ED7C7B34EF1D9B54EF4D9BA4ECBC854
:10F8E000BB4EE9D8BF4EDAD2C04EB2CAC14ECAC86A
:10F8F000C24EECD8C34EEAD8C44EC6D8C54EF6BDEB
:10F90000C64ECDC6C74EF0B3C94EEBD8CA4EF1BDF8
:10F91000CB4EE9BDCD4ED4C8CE4ED3B4D14ED8C215
:10F92000D34ED6B2D44ED0D7D54ECBCAD64EFBCBC3
:10F93000D74ECCD5D84EB6B8D94EC9CFDD4EDAD9D0
:10F94000DE4EF0D8DF4EAAC7E14EEED8E34EFAB451
:10F95000E44EEEC1E54ED4D2E84EEDD8EA4EC7D221
:10F96000EB4EEFD8EC4EC7C3F04EF6D1F24ED9D6DF
:10F97000F34EF2D8F54EF5D8F64EFEBCF74EDBBC92
:10F98000FB4ECEC8FD4EDDB7FF4EC2B7014FF3C6EA
:10F99000094FF8D80A4FC1D20D4FE9CE0E4FBFBC68
:10F9A0000F4FFCB7104FA5B7114FDDD0174FDAD668
:10F9B000184FC5D3194FEFBB1A4FE1BB1B4FF1D8FE
:10F9C0001E4FA1C91F4FB0CE204FABB4224FF3D86A
:10F9D000244FCBC9254FF6D8264FD7C2274FF7D88B
:10F9E0002A4FB1CE2B4FF9D82F4FAEB2304FC0B9FE
:10F9F000324FA3D9344FE9B0364FE6C1384FECC986
:10FA00003A4FC5CB3C4FC6CB3D4FA4D9434FE8B589
:10FA1000464FABB54D4FBBCE4E4FCDB54F4FA1D797
:10FA2000504FF4D7514FD3D3534FE5CC554FCEBAA7
:10FA3000574FA2D9584FDCD9594FE0D35A4FFDD870
:10FA40005B4FF0B75C4FF7D75D4FFED85E4FFAD8EB
:10FA50005F4FA1D9604FE3C4634FB6D3644FF4D86E
:10FA6000654FDDD9674FFBD8694FE5C56C4FD0C0F6
:10FA70006F4FF0D1704FDBB0734FD1BC744FA6D92C
:10FA8000764FA5D97B4FACD97C4FAED97E4FABD941
:10FA90007F4FB9CA834FA9D9844FB6D6884FDEB3FA
:10FAA000894FA8D98B4FFDC08D4FCCCA8F4FAAD993
:10FAB000914FA7D9944FB0D9974FB1B69B4FA9B9E1
:10FAC0009D4FC0D2A04FC0CFA34FC2C2A54FC4BD4F
:10FAD000A64FECD5A74FE0B2A84FC8C7A94FEBBFC0
:10FAE000AA4FADD9AC4FAFD9AE4FEACEAF4FEEBAB9
:10FAF000B54FD6C7BF4FE3B1C34FD9B4C44FEDB66E
:10FB0000C54FB4D9CA4FA1BFCE4FDED9CF4FCEC754
:10FB1000D04FFEC0D14FB8D9D74FD7CBD84FFDB7B4
:10FB2000DA4FB5D9DC4FB7D9DD4FA3B1DE4FE1D302
:10FB3000DF4FB9D9E14FC5D0E34FB6D9E64FB1D9C0
:10FB4000E84FB2D9E94FA9C1EA4FB3D9ED4FF3BCA1
:10FB5000EE4FDED0EF4FA9B8F14FE3BEF34FBDD962
:10FB6000F84FBAD9FA4FB3B0FE4FC2D90C50C4D92E
:10FB70000D50B6B10F50BFD91250B9B51450F3BEE5
:10FB80001850C8CC1950F2BA1A50D0D21C50C3D950
:10FB90001F50E8BD2150ABB32550C5D92650EBBE50
:10FBA0002850C6D92950BBD92A50DFC42C50BED901
:10FBB0002D50C1D92E50C0D93A50AED53C50B5D6F3
:10FBC0003E50E3C74350C8D94750D9BC4850CAD962
:10FBD0004C50BCD94E50CBD94F50ABC65550C9D95B
:10FBE0005A50F6D75C50A3CD6550A1BD6C50CCD90E
:10FBF0007650BCC57750B5CD7B50CDD97E50C7D996
:10FC00007F50A5B38050FEBF8550B5B88850FCC06A
:10FC10008D50F8B0A350F6B4A550CED9A750CFD987
:10FC2000A850A2B4A950D0D9AC50DFB4B250C1B0E2
:10FC3000BA50D1D9BB50B5C9CF50F1CFD650D2D9D7
:10FC4000DA50C5C1E650D6D9E750AEC9EC50D5D987
:10FC5000ED50D4D9EE50D7D9F350DBCBF550A9BD38
:10FC6000FB50A7C60651D3D90751D8D90B51D9D9C2
:10FC70001251E5C82151DCC03F51F9B64051A3D81B
:10FC80004151CAD44351AAD44451D6D04551E4B3CA
:10FC90004651D7D54851C8CF4951E2B94B51CBBF96
:10FCA0004D51E2C35151D2B65451C3CD5551EED945
:10FCB0005651F0D95A51B3B55C51B5B66251A4BE94
:10FCC0006551EBC86851ABC86B51CBB06C51ABB947
:10FCD0006D51F9C16E51E2D97051BCC07151B2B9C8
:10FCE0007351D8B97451CBD07551F8B17651E4C67F
:10FCF0007751DFBE7851E4B57951C8D77B51F8D13F
:10FD00007C51E6BC7D51DECA8051BDBC8151E6D933
:10FD10008251E7D88551DAC48851D4B88951BDC819
:10FD20008C51E1B28D51D9D49251B0C39551E1C3F8
:10FD30009651A2DA9751DFC89951B4D09B51FCBEBD
:10FD40009C51A9C5A051DAB9A251A3DAA451A9D4F2
:10FD5000A551A4DAAB51FBD9AC51ACB6AF51EBB75E
:10FD6000B051F9B1B151FCD9B251E5B3B351F6BEBE
:10FD7000B551F6BFB651B1D2B751E4C0BB51B3B61D
:10FD8000BC51FED9BD51FDD9C051BBBEC451E0C666
:10FD9000C651BCD7C751A1DAC951B9C1CB51F2B5CF
:10FDA000CC51E8C1CF51F5BCD151D5B4DB51DDC147
:10FDB000DD51FDC4E051B8BCE151B2B7E451EFB739
:10FDC000EB51ECD9ED51BEC6EF51ADBFF051CBBBFD
:10FDD000F351CAB5F551C9DBF651D7D0F851B9CDB9
:10FDE000F951BCB0FA51F6B3FB51F7BBFC51CADB79
:10FDF000FD51AFBAFF51E4D40052B6B50152F3B58C
:10FE00000252D6D80352D0C80652D6B70752D0C72E
:10FE10000852D7D80A52AFBF0D52BBDB0E52D8D80A
:10FE20001152CCD01252AEBB1652BEEB1752D0C1FB
:10FE30001852F5C11952F2D41A52D5B81B52B4B4A3
:10FE40001D52F5B32052BEC92452D0C52852D9C57F
:10FE50002952FBC02B52F0B12D52D9D82E52CEB917
:10FE60003052BDB53352DAD83652C6D63752A2CB4D
:10FE70003852AFC83952B2C93A52CCB43B52CCBF57
:10FE80003D52F4B93F52DBD84052DCD84152E7B67C
:10FE90004252C1BC4352EACC4A52F7CF4C52DDD851
:10FEA0004D52B0C75052D0B95152A3BD5452DECCBE
:10FEB0005652CAC65C52E0D85E52DED86152DFD8D4
:10FEC0006552FEB06752E7BE6952A3CA6A52F4BCDB
:10FED0006F52B1B87252EEB87D52E2D87F52CBBDAC
:10FEE0008152E4D88252E3D88852FCC59052E5D8BA
:10FEF0009352E6D89B52A6C19D52B0C89E52ECB018
:10FF00009F52A6B9A052D3BCA152F1CEA252BDDBE2
:10FF1000A352D3C1A852AFB6A952FAD6AA52ACC5C1
:10FF2000AB52D9BDAC52BEDBAD52BFDBB152F8C053
:10FF3000B252A2BEB352CDC0BE52C0DBBF52C6CA7F
:10FF4000C352AAB2C752C2D3C952E3C3CB52ABD138
:10FF5000D052C2DBD252D5C0D652C3DBD852B1BFC9
:10FF6000DF52BCC4E452DAC7F052C4DBF952E8D91C
:10FF7000FA52D7C9FE52B4B9FF52F0CE0053C8D4DA
:10FF80000553FCB00653D2B40853D9D00D53E9D968
:10FF90000F53CBDE1053EBD91553B0D81653AFBB6C
:10FFA0001753B1B11953D7B31A53CED81D53D1D467
:10FFB0002053B3BD2153EFBF2353BBCF2653D0D81B
:10FFC0002A53CBB72E53D1D83953A5C63A53F8C7C5
:10FFD0003B53BDD23E53D2D83F53E4C44153AECA83
:10FFE0004353A7C74553A6D84753FDC94853E7CE47
:10FFF0004953DCBB4A53EBB04E53AABB4F53ADD071
:020000040801F1
:100000005153B0B15253E4D75353BFD75553A5B54D
:100010005653F4C25753CFC45A53A9B25C53B7B224
:100020005E53E5B15F53B2DF6053BCD56153A8BFE7
:100030006253ACC26353D5D86453B1C26653D4D8AB
:100040006753D4CE6953E0DA6B53C0CE6E53B4D845
:100050006F53AEC37053A1D37153A3CE7353B4BCCB
:100060007453B4C87553D1C27753EDBE7853B6D02C
:100070007A53E1DA7F53E4C78253A7B38453F2B6CD
:100080008553FCCC8653FAC08953F7C08B53B9D142
:100090008C53E1D18D53C7D89553DEB29853E5C048
:1000A0009A53F1BA9D53C8D89F53ADD4A253E1CF10
:1000B000A353C9D8A553CAD8A653C3CFA853F8B3DE
:1000C000A953C7BEAE53CBD8B653CCDBBB53A5C8E0
:1000D000BF53D8CFC153FEC8C253CEB2C853D6D334
:1000E000C953E6B2CA53B0BCCB53D1D3CC53ABCB7C
:1000F000CD53B4B7D153A2B7D453E5CAD653A1C890
:10010000D753DCCAD853E4B1D953F0D0DB53D1C5AF
:10011000DF53C5DBE053FEB5E353DABFE453C5B9A3
:10012000E553E4BEE653EDC1E853B6DFE953B5DF6E
:10013000EA53BBD6EB53D0BDEC53D9D5ED53C8B081
:10014000EE53A3B6EF53C9BFF053A8CCF153B3DFBE
:10015000F253B7CAF353D2D3F553CFD8F653B6D22E
:10016000F753C5BAF853BECBF953BECCFB53B7DF38
:10017000FC53F0B5FD53B4DF0154F5D30354D4B3AD
:100180000454F7B80654BADF0854CFBA0954AABCCD
:100190000A54F5B50C54ACCD0D54FBC30E54F3BA50
:1001A0000F54F4C01054C2CD1154F2CF1254B8DF22
:1001B0001354C5CF1554C0C21654B9DF1754F0C23A
:1001C0001B54FDBE1D54DFC11E54CCCD1F54F7D2AD
:1001D0002054CDB72154C1DF2354C4DF2654F1B7D6
:1001E0002754C9B02854D6B62954D4B72B54ACBA26
:1001F0002C54FDCC2D54D4BF2E54B1CB2F54F4C667
:100200003154A8D63254C5DF3454E2CE3554B3B39A
:100210003854FCCE3954B5B43B54C7CE3C54F0BA34
:100220003E54E1CE4054BDD14354C0DF4654F4B4F3
:100230004854CAB34A54E6B84B54BBDF5054C5C403
:100240005254BCDF5354BDDF5454BEDF5554BBC5BC
:100250005654BFDF5754C2DF5854B1D45954C3DF8A
:100260005B54BAC75C54D8CE6254D8C46454CADF55
:100270006654CFDF6854DCD67154C9DF7254DADFBC
:100280007354B6CE7554C7BA7654CEDF7754C8DFF0
:100290007854DEC57B54EBC97C54F4BA7D54FCC35E
:1002A0008054D7BE8254C6DF8454CDDF8654D8C56F
:1002B0008B54A6D58C54CDBA8E54CCBE8F54BDD39E
:1002C0009054C0B89254E4D69454C7DF9554BEB944
:1002D0009654A7BF9954FCC19A54CBDF9B54CCDFF2
:1002E0009D54D0DFA354DBDFA454E5DFA654D7DF51
:1002F000A754D6DFA854C9D7A954E3DFAA54E4DF32
:10030000AB54EBE5AC54A7D2AD54D2DFAF54A9BF88
:10031000B154DBD4B354C8BFB454D4DFB854CCCF39
:10032000BB54DDDFBD54CAD1BF54DEDFC054A7B01B
:10033000C154B7C6C254D3DFC454E5BAC654DFB6FD
:10034000C754DBCDC854FEB9C954D5D4CC54DFDF73
:10035000CD54ECCFCE54A5B0CF54E7DFD054D1DF8D
:10036000D154C6D1D254D5DFD354D8DFD454D9DF39
:10037000D554DCDFD754A9BBD954E0DFDA54E1DF30
:10038000DC54E2DFDD54E6DFDE54E8DFDF54B4D3D3
:10039000E554E7B8E654B6C5E754EADFE854DAC9ED
:1003A000E954A8C1EA54C4C4ED54DEBFEE54F8CFFA
:1003B000F254DCD5F354EEDFFA54B8B2FC54DFBA91
:1003C000FD54ECDFFF54C1DB0155E4D10655F4CBFD
:1003D0000755BDB40955A6B00F55F1DF1055C6CC71
:1003E0001155F2DF1455EDDF1B55E9DF2055EBDF2A
:1003F0002255EFDF2355F0DF2455BDBB2755F3DF32
:100400002A55F4DF2C55A3BB2E55DBCA2F55A8CE99
:100410003055A7E03155AAB33355A6E03755A1E0D2
:100420003C55FEDF3E55D9CD3F55FCDF4155FADF47
:100430004355D0BF4455C4D74655CCC94955F8DFBC
:100440004A55A1B05055FDDF5555FBDF5655A2E08A
:100450005C55A8E06155C8B76455A1C66555B6C9D5
:100460006655B2C06755F5DF6A55BEC56C55C4D830
:100470006D55F9DF6E55F6C47555A3E07655A4E0C9
:100480007755A5E07855A5D07B55B4E07C55E4CCF4
:100490007E55B1E08055A6BF8155AFE08255B9CEFB
:1004A0008355ABE08455C6C98755AEC08855AEE0CC
:1004B0008955EDBA8A55B0BA8B55A9E08F55F6DF4C
:1004C0009155B3E09455B8E09855ADB49955B9E05D
:1004D0009C55B2CF9D55C8BA9F55B0E0A755FAD0EC
:1004E000B155ACE0B355FBD4B555F7DFB755E7C50B
:1004F000B955ADE0BB55F7D3BD55B6E0BE55B7E035
:10050000C455C4E0C555E1D0C955BCE0CC55C9E0DF
:10051000CD55CAE0D155BEE0D255AAE0D355A4C905
:10052000D455C1E0D655B2E0DC55C8CADD55C3E0AC
:10053000DF55B5E0E155CBCEE355C3CBE455CDE077
:10054000E555C6E0E655C2E0E855CBE0EA55BAE02D
:10055000EB55BFE0EC55C0E0EF55C5E0F255C7E004
:10056000F355C8E0F555CCE0F755BBE0FD55D4CBCD
:10057000FE55D5E00056D6E00156D2E00856D0E050
:100580000956CEBC0C56D1E00E56C2B80F56C5D88F
:100590001856EAD01B56EFC21E56CFE01F56BDE0DC
:1005A0002356D4E02456D3E02756D7E02C56DCE07F
:1005B0002D56D8E03156F6D63256B0B33456ECD775
:1005C0003656BBCB3956DAE03B56FBCE3F56D9BA4E
:1005D0004C56E1E04D56DDE04E56ADD25456E2E0C9
:1005E0005756DBE05856D9E05956DFE05C56E0E05C
:1005F0006256DEE06456E4E06856F7C66956ACD849
:100600006A56EBD46B56E6E06C56C9CA7156E5E003
:100610007656C1B87B56E7E07C56E8E08556E9E0BF
:100620008656E3E08E56BFBA8F56E7CC9356EAE083
:10063000A356F9CFAF56EBE0B756C2C8BC56C0BD03
:10064000CA56D2C4D456ECE0D756EDE0DA56F4C719
:10065000DB56C4CBDD56EEE0DE56D8BBDF56B6D84F
:10066000E056F2D2E156EFE0E256C5CDE456DAB6F6
:10067000EB56F1E0ED56B0D4F056A7C0F156D1B428
:10068000F456A7CEF556F0E0F956F2E0FA56CCB99A
:10069000FD56FAB9FE56BCCDFF56F3E00357D4C65B
:1006A0000457F4E00657B2D40857A6C80957F6E035
:1006B0000A57F5E01C57F7E01F57C1CD2357A5CACD
:1006C0002857DAD42957D7DB2A57D9DB2C57D8DB60
:1006D0002D57E7B92E57DCDB2F57DDDB3057D8B568
:1006E0003357DADB3957DBDB3A57A1B33B57DFDB54
:1006F0003E57F8BB4057B7D64257E0DB4757F9BEE5
:100700004A57BBB74C57D0DB4D57AECC4E57B2BF54
:100710004F57B5BB5057F8D75157D3BF5757E9BFBD
:100720005A57E1BC5B57B3CC5C57DEDB5D57D3B0A7
:100730005E57EBCE5F57D8B76057B9D76157C2C67F
:100740006457A4C06657B9CC6857E7DB6957E1DB4B
:100750006A57BAC66B57E3DB6D57E8DB6F57F7C5CF
:100760007357EADB7657E9DB7757C0BF7B57E6DB89
:100770007C57E5DB8257B9B48357ACC08457A2C21B
:100780008557E2DB8657E4DB8B57CDD08C57EDDB0A
:100790009257DDC09357F2DB9B57E2B6A057F3DBCD
:1007A000A157D2DBA257B8B9A357ABD4A457ECDBFF
:1007B000A657D1BFA757F0DBA957D1DBAB57E6B59A
:1007C000AD57EBDBAE57E5BFB257EEDBB457F1DB0D
:1007D000B857F9DBC257A1B9C357A3B0CB57F1C281
:1007E000CE57C7B3CF57EFDBD257F8DBD457D2C6BB
:1007F000D557F4DBD857F5DBD957F7DBDA57F6DBFB
:10080000DD57FEDBDF57F2D3E057BAB2E457FDDB2A
:10081000ED57A4DCEF57FBDBF457FADBF857FCDBB2
:10082000F957E0C5FA57F9BBFD57A3DC0058A5DC22
:100830000258C3CC0658D1B60758C0DD0B58A1DC0E
:100840000D58A2DC1158B5C71558E9B61958A7DCE0
:100850001E58A6DC2058A9DC2158A4B12458CCB5D8
:100860002A58B0BF3058DFD13558C2B64458A8DC3A
:100870004C58FACB4D58F3EB5158DCCB5458FECBC7
:100880005858C1CC5E58FBC86558AADC6B58EECCF2
:100890006C58ABDC7E58D3DB8058AFDC8158ACDCC5
:1008A0008358B3BE8558FBCA8958ADDC9258CAC973
:1008B0009358B9C49958BDC79A58AEDC9E58F6D41F
:1008C0009F58E6D0A858ABC4A958D5B6BC58D4DBBD
:1008D000C158DAB1C558D5DBD158D6DBD558BEBA28
:1008E000E458C0C8EB58BFCAEC58C9C8EE58B3D7D3
:1008F000F058F9C9F358C7BFF658F8BAF958BCD23E
:100900000259BAE20459A6B40759B8B10D59B4B89E
:100910000F59C4CF1459E7D91559A6CF1659E2CDAE
:100920001959EDD91A59E0B61C59B9D21F59BBB99A
:100930002459B9E22559B7E22759F3B42959ECCC27
:100940002A59ABCC2B59F2B72D59B2D82E59EBD12D
:100950002F59BBBA3159A7CA3459B7CD3759C4D268
:100960003859E4BF3959D0BC3A59E1B63C59C5DED3
:100970004159C6DE4259BCDB4459D9D14759E6C674
:100980004859CEC44959EEB74B59DCB74E59FCBF54
:100990004F59E0D75159F5C65459BCB15559C8DE25
:1009A0005659B1BD5759D7CC5859CADE5A59C9DE24
:1009B0006059ECB56259DDC96559C2B07359AEC50D
:1009C0007459ABC57659CCC47859E9BC7959FDCB7B
:1009D0007D59C3BA8159F9E58259E7C88359FAE5C7
:1009E0008459FDCD8659B1D78759BEB88859E8C218
:1009F0008A59D1C88D59FBE59259CAB69359CBBCD7
:100A00009659FDD19759A1E69959EEC39E59A4E68E
:100A1000A359FEE5A459A5E6A559D7CDA859C1B754
:100A2000A959FCE5AA59FDE5AB59A3E6AE59DDC4C9
:100A3000AF59A8E6B259A7E6B959C3C3BB59DEC638
:100A4000BE59AAE6C659B7C4CA59A2E6CB59BCCA10
:100A5000D059E3BDD159C3B9D259A6E6D359D5D09F
:100A6000D459AFCED759A9E6D859B0E6DA59A6D2AB
:100A7000DC59AABDDD59ADE6E359AFE6E559D1C071
:100A8000E859CCD2EC59A7BCF959B1E6FB59F6D2DA
:100A9000FF59CBD7015AFECD035ADECD045AA6C268
:100AA000055AABE6065AACE6075ABFBD085AAEE691
:100AB000095AB3E60C5AB2E6115AB6E6135AB8E62A
:100AC000185AEFC41C5AC8C41F5AEABE205AEFC9AC
:100AD000235AB7E6255AF0B6295AE4C3315AE9D366
:100AE000325AB4E6345AB5E6365AA2C83C5ABDE684
:100AF000405AB9E6465AC5C6495AF1CD4A5ABBE6EC
:100B0000555ABCE65A5AE9BB625ABEE6675ABAE67B
:100B10006A5AB7C0745AA4D3755ABFE6765AF4C954
:100B2000775AC3E67A5AC4E67F5AF6D0925ABDC3C2
:100B30009A5AC4C39B5AC2E6AA5AC1E6B25AC7E639
:100B4000B35AB1CFB55AF4EBB85ACAE6BE5AC5E6A5
:100B5000C15ADEBCC25AA9C9C95AB5BCCC5AD3CFF6
:100B6000D25AC8E6D45AC9E6D65ACEE6D85AD0E602
:100B7000DC5AD1E6E05ACBE6E15AD5B5E35ACCE6E9
:100B8000E65ACFE6E95ADBC4EB5AC6E6F15ACDE69F
:100B9000095BD2E6165BD4E6175BD3E6325BD5E69B
:100BA000345BF8D9375BD6E6405BD7E6505BD3D7EA
:100BB000515BDDE6535BDEE6545BD7BF555BD0D4BB
:100BC000575BD6D7585BE6B4595BEFCB5A5BDAE696
:100BD0005B5BC3D85C5BCED75D5BA2D05F5BCFC3F2
:100BE000625BDFE6635BBEBC645BC2B9655BDBE690
:100BF000665BA7D1695BA2BA6A5BCFC26C5BABD8FC
:100C0000705BEBCA715BEEE5735BDCE6755BF5B7B9
:100C10007A5BE6C87D5BF5C4805BB2E5815BFEC4B0
:100C2000835BFCCB845BB3E5855BACD5875BEED3A4
:100C3000885BD8CA895BB2B08B5BCECB8C5BEACDCC
:100C40008F5BEABA935BB5E5955BB4E5975BDAD762
:100C5000985BD9B9995BE6D69A5BA8B69B5BF0CD59
:100C60009C5BCBD29D5BA6B19E5BB5CAA05BE8B393
:100C7000A15BF3C9A25BCDBFA35BFBD0A45BD2CACF
:100C8000A55BB6E5A65BC2BBAA5BDCCFAB5BACB930
:100C9000B05BD7D4B35BA6BAB45BE7D1B55BFCCF8E
:100CA000B65BD2BCB85BB7E5B95BDDC8BD5BEDBF79
:100CB000BE5BF6B1BF5BDECBC25BC5BCC45BC4BC74
:100CC000C55BFAD2C65BDCC3C75BDCBFCC5BBBB821
:100CD000D05BC2C3D25BAEBAD35BA2D4DD5BDEC74E
:100CE000DE5BAFC4DF5BECB2E15BD1B9E45BBBE5DB
:100CF000E55BC8C1E85BAFD5EE5BBCE5F05BBEE58C
:100D0000F85BE7B4F95BD4B6FA5BC2CBFB5BB0D15E
:100D1000FC5BBCB5FF5BD9CA015CE2B7045CE4C90B
:100D2000065CABBD095CBECE0A5CF0D70F5CA1D0FF
:100D3000115CD9C9145CFBB6155CD8E6165CE2BC44
:100D4000185CBEB31A5CD0C91C5CD9E61D5CA2B3AA
:100D5000225CCCDE245CC8D3255CCDDE275CA2D22D
:100D60002C5CCEDE315CCDBE345CCFDE385CACCAF0
:100D7000395CFCD23A5CDFB33B5CEAE53C5CE1C445
:100D80003D5CA1BE3E5CB2CE3F5CF2C4405CD6BED0
:100D9000415CA8C6425CE3B2455CD3BE485CFCC77C
:100DA000495CEBCC4A5CECBD4B5CDDCE4E5CBACA18
:100DB0004F5CC1C6505CECE5515CBCD0555CB9D50C
:100DC000595CEDE55E5CF4CA605CC0CD615CC5C297
:100DD000635CEFE5655CC4C2665CF0E56E5CF8E5FB
:100DE0006F5CCDCD715CBDC9795CD9D27A5CA8E16C
:100DF0007F5CECD3815CEACB825CF1C6885CACE1C1
:100E00008C5CA7E18D5CA9E1905CAAE1915CAFE10B
:100E1000945CEDB2965CABE1975CDAB8985CADE1BE
:100E2000995CAEE19A5CB0E19B5CBAB59C5CB1E1C7
:100E3000A25CB3E1A35CB8E1A95CD2D1AB5CB6E142
:100E4000AC5CB5E1AD5CEBC1B15CB7E1B35CC0D407
:100E5000B55CB2E1B75CBAE1B85CB6B0BD5CB4E118
:100E6000BF5CF9BFC15CB9E1C45CBBE1CB5CBEE176
:100E7000D25CBCE1D95CC5D6E15CBFCFE45CBDE12E
:100E8000E55CBFE1E65CCDC2E85CEBB6EA5CF8D3BA
:100E9000ED5CCDC7F05CE5B7FB5CFEBE025DC0E17A
:100EA000035DC1E1065DC7E1075DE7B30E5DE9C61D
:100EB000145DDEB4165DC2D11B5DC8E11E5DC6E1E6
:100EC000245DC5E1265DC3E1275DC2E1295DC0B1B6
:100ED0002D5DB8D52E5DC4E1345DCBE13D5DCCE147
:100EE0003E5DCAE1475DFAEF4A5DD3E14B5DD2E179
:100EF0004C5DB6C7585DC9E15B5DCEE15D5DD0E19B
:100F0000695DD4E16B5DD1E16C5DCDE16F5DCFE1F9
:100F1000745DD5E1825DD6E1995DD7E19D5DD8E153
:100F2000B75DDAE1C55DDBE1CD5DA1CEDB5DDDE77F
:100F3000DD5DA8B4DE5DDDD6E15DB2D1E25DB2B3C8
:100F4000E55DA4B9E65DF3D7E75DC9C7E85DDEBE40
:100F5000E95DAEB9EB5DD7CEEE5DEEB2EF5DCFDB16
:100F6000F15DBABCF25DD1D2F35DC8CBF45DCDB01A
:100F7000F75DEFCFFD5DE3D9FE5DEDBD015ED2B162
:100F8000025ED0CA035EBCB2055EA7CB065EABB7FD
:100F9000085EA6CA0C5EA3CF0F5EF8E0105ECAD54D
:100FA000115EFBE0145EFAE0155EC1C5165EFBCC77
:100FB000185EB1C1195EF9E01A5EE3D61B5EAFB2EE
:100FC0001C5EC4D61D5EDBB5265EF8B4275EA1D6D6
:100FD0002D5EAFCF2E5EEFB0315EFCE0375EA1E15B
:100FE000385EA3B33B5EFDE03C5EFEE03D5EB1C318
:100FF000425EDDC3445EA2E1455EF9B74C5ECFBB05
:10100000545EA3E1555EBBC45B5EA4E15E5EA5E1F8
:10101000615EA6E1625EB1B4725EC9B8735EBDC6C0
:10102000745EEAC4765EA2B2785ED2D07A5EDBE706
:101030007B5EC3BB7C5ED7D37D5EC4D37F5EE3B9EA
:10104000805ECFE2845EAFD7865EECC7875ED3B1A9
:101050008A5EB2B48B5ED1E28F5EF2D0905EAEC299
:10106000915ED0E2935EE2BF945EA6D3955ED7B563
:10107000965ED2E2975EEAB5995EEDC39A5EFDB8E0
:101080009C5EAEB89E5ED3C59F5ECFB7A05ED4E235
:10109000A55ED3E2A65EC8B6A75EF9D7AD5EA5CDC4
:1010A000B35ED8E2B55ED6E2B65EFCCAB75EB5BF47
:1010B000B85EB9D3B95ED5E2BE5ED7E2C95EAEC155
:1010C000CA5EC8C0D15EDBE2D25EDAE2D35EAAC0FD
:1010D000D65ECEC1DB5EDCE2E85EDDE2EA5EDEE249
:1010E000F45EC8DBF65ED3D1F75EA2CDFA5EA8BD92
:1010F000FE5EC3DEFF5EA5D8005FAABF015FCDDB49
:10110000025FECD2035FFAC6045FAAC5085FC4DEC3
:101110000A5FD7B10B5FAEDF0F5FBDCA115FB1DFF2
:10112000135FADB9155FFDD2175FA5B8185FEBBAB5
:101130001B5FDAB31F5FDCB5205FC5D5255FD6C363
:10114000265FD2CF275FA1BB295FF3E52A5FF2E5D7
:101150002D5FF4E52F5FE4CD315FF5C8395FAFB5A2
:101160003A5FBFC73C5FF6E5405FB0EC505FE6E535
:10117000525FE9B9535FB1B5555FBCC2565FE8E550
:10118000575FE7E5585FE9E55D5FCDD2615FEAE172
:10119000625FCED0645FAECD665FE5D1695FCAB2F3
:1011A0006A5FEBB16C5FF2B16D5FEDC5705FC3D587
:1011B000715FB0D3735FDCE1775FDDE1795FDBD234
:1011C0007B5FB9B37C5FCBB1805FF9CD815FF7D531
:1011D000825FDEE1845FB6BE855FFDB4875FDFE1DD
:1011E000885FDCBA895FE0E18A5FB2BB8B5FC9C20E
:1011F0008C5FE1E1905FECD0925FBDCD955FE2E165
:10120000975FC3B5985FC7C5995FE3E19C5FE4E171
:10121000A15FF9D3A85FE5E1AA5FADD1AD5FE6E1DB
:10122000AE5FA2CEB55FE7E1B75FC2B5BC5FE8E1F4
:10123000BD5FD5BBC35FC4D0C45FE0E2C55FD8B1BA
:10124000C65FE4D2C95FE1E2CC5FC9BCCD5FCCC868
:10125000CF5FE3E2D05FFEECD15FFDECD25FAFDFAA
:10126000D65FE2E2D75FBED6D85FFCCDD95FA6C31A
:10127000DD5FC3E3E05FD2D6E15FE7E2E45FE8E28F
:10128000E75FC7D3EA5FECE2EB5FECBFED5FEDE257
:10129000EE5FE5E2F15FC0B3F55FEEC4F85FEEE24A
:1012A000FB5FC3D0FD5FF6BAFE5FE9E2FF5FDEB72A
:1012B0000060B3BB0160ACCC0260CBCB0360E4E266
:1012C0000460E6E20560EAE20660EBE20A60F7E24B
:1012D0000D60F4E20E60F5D40F60F3E21260ADC56C
:1012E0001460FAD51560C2C51660C0B21960EFE28D
:1012F0001B60F2E21C60AFC11D60BCCB2060A1B5D9
:101300002160F9E22560B1BC2660F1E22760D4D00B
:101310002860B9D42960F5E22A60D6B92B60F6E2DC
:101320002F60D3C73560F0E23B60DCD73C60A1EDB5
:101330003F60F8E24160A5ED4260FEE24360D1CA41
:101340004B60B5C14D60D0BB5060D6BF5260E3BAB0
:101350005560A1CB5960A6ED5A60A3ED5D60A2ED8A
:101360006260D6BB6360A7ED6460F4D06760A4EDF3
:101370006860DEBA6960F7B66A60A1E36B60B2B616
:101380006C60F1CC6D60A7B96F60A2CF7060A1C72F
:101390007360D2BF7660F1B67860FAE27960FBE202
:1013A0007A60FDE27B60FCE27C60D5C47D60A2E3F4
:1013B0007F60C1D38360A7E38460C4C78960A4CF82
:1013C0008C60A9E38D60B7BA9260A8E39460DABB41
:1013D0009660A3E39A60A4E39B60AAE39D60A6E302
:1013E0009F60F2CEA060C6D3A360BCBBA660C3D48E
:1013F000A860FAC4AB60A8EDAC60FCD0AD60A5E31A
:10140000AF60F5C3B160ADE3B260AFB1B460B2E359
:10141000B860C2BCBB60ACE3BC60BFB5C560E9C727
:10142000C660B0E3CA60AABECB60EFCDD160F3BBAB
:10143000D560E8CCD860AFE3DA60B1E3DC60A7CF79
:10144000DD60AEE3DF60A9CEE060DDBBE660EBB55A
:10145000E760E5BEE860D2B2E960CDB3EB60B9B158
:10146000EC60ABE3ED60D1B2EE60ACB5EF60DFB93C
:10147000F060E8B6F360EBCFF460B7E3F660CCBBA6
:10148000F960C7C8FA60CAD00061B8E30161EEB381
:101490000661A9ED0861FAD30961E4D30D61AAEDF3
:1014A0000E61B9E30F61E2D21561B5E31A61DED3D3
:1014B0001F61D0B82061B3E32361B6E32461DFB7D5
:1014C0002661B4E32761A2C02B61BAE33F61B8D4BF
:1014D0004861C8B44A61BBE34C61C5BB4E61F7C902
:1014E0005161E5C95561BDC45D61ABED6261FDC28D
:1014F0006761DBBB6861AEBF7061BFCE7561BCE385
:101500007761B6BF8B61EFB18E61F7D49461BEE3B2
:101510009D61ADEDA761BFE3A861A9BAA961ACED7A
:10152000AC61BDE3B761C0E3BE61B6BAC261AEB63D
:10153000C861B8D0CA61C3B0CB61AEEDD161AFEDC7
:10154000D261C1C0D461C1E3E661B3C5F561C2E354
:10155000FF61B2DC0662B0ED0862EAB80A62ECCE66
:101560000B62A7EA0C62E7D00D62F9CA0E62D6C818
:101570000F62B7CF1062C9B31162D2CE1262E4BD5E
:101580001562DEE31662F2BB1762A8EA1862BDD5E7
:101590001A62DDC61B62A9EA1F62AAEA2162ACEAEE
:1015A0002262ABEA2462AEEA2562ADEA2A62D8BDC5
:1015B0002C62AFEA2E62BEC23362C1B43462F7B4A9
:1015C0003762A7BB3D62E6EC3E62E5EC3F62BFB727
:1015D0004062F9CB4162E2B14362E7EC4762C8C9BD
:1015E0004862E8EC4962E9EC4B62D6CA4C62D0DE54
:1015F0004D62C5B24E62FAD45162CBC65262C7B0D8
:101600005362F2B45462D3C85862D0CD5B62B8BFA3
:101610006362DBBF6662A4C76762B4D66962A9C0B1
:101620006A62D1DE6B62A8C96C62EFD16D62A4C53B
:101630006E62E7B06F62B6B37062C5C87362E2B043
:101640007662F6B77962FAC57C62F3B67E62D2D56D
:101650007F62D0B38062BCBC8462ADB38962F1BEEC
:101660008A62D1B09162D6D29262E3CA9362A5D760
:101670009562B6CD9662B6B69762B9BF9862DBD571
:101680009A62A7B89B62D7C59F62D2DEA062D9BF1B
:10169000A162D5C2A262C0C7A462A4BBA562A8B160
:1016A000A862EAC5AB62FBC5AC62A7CCB162A7B1C8
:1016B000B562D6B5B962A8C4BB62D3DEBC62BAD18A
:1016C000BD62E9B3BF62F2C3C262F7B7C462F4D6C7
:1016D000C562A3B5C662F0B2C762B4C4C862E9C449
:1016E000C962ADC0CA62D4DECC62E8B0CD62C4C506
:1016F000CE62E0C1D062D5B9D262DCBED362D8CDB1
:10170000D462CEB0D662CFCDD762D6DED862D0BE9C
:10171000D962BED7DA62D5DEDB62D0D5DC62DDB05D
:10172000DF62E2C4E262A3C2E362F0BCE562B5D369
:10173000E662B9C0E762A1C5E862A6B2E962F1D487
:10174000EC62A8C0ED62C3CAEE62D7DEEF62FCD5E0
:10175000F162B0B9F362ADC8F462A9CBF662D9DE2A
:10176000F762BDBFFC62B4C6FD62A7D7FE62B0CA15
:10177000FF62C3C40163D6B30263D2B90763B8D6AC
:101780000863FCEA0963B4B00E63E6BF1163F4CCEE
:101790001663DACD1A63BFD61B63CEC21D63CECEED
:1017A0001E63A2CC1F63AED02063D3C42163B2B545
:1017B0002263D8DE2363F5D52463B7BC2563D3BB8E
:1017C0002863A4B02A63B2C52B63ECB42F63F1D5B0
:1017D0003263FDEA3963DADE3A63A6CD3D63ECCDD0
:1017E0004263E6CE4363DCDE4563B1CD4663A6C00B
:1017F0004963BDD74B63DBDE4C63C6B04D63B4BAFF
:101800004E63D3C94F63F3C45063E8BE5563B6B2A9
:101810005E63CCC05F63F0CB6163F1BC6263BBBB52
:101820006363B7B56763F5C56963E6DE6D63E3DEE1
:101830006E63DDBE7163DFDE7663B7B47763DDBDF3
:101840007A63E0DE7B63EDC48063C6CF8263E0B57C
:101850008763DEB68863DACA8963F4B58A63E5DE36
:101860008C63C6D58E63E1DE8F63CDCC9063FEC6FC
:101870009263C5C59663B4D29863F2BEA063D3C227
:10188000A263BDCCA363B8B3A563D3BDA763D8BF20
:10189000A863C6CDA963DAD1AA63EBB4AC63E4DE76
:1018A000AD63DDDEAE63E7DEB063FEEAB363B0C214
:1018B000B463E2DEB763C0D6B863A7B5BA63F4B267
:1018C000BC63E8DEBE63F2DEC463EDDEC663F1DE58
:1018D000C963E0C8CD63E1D7CE63EFDECF63E8C371
:1018E000D063E1CCD263E5B2D663BED2DE63EEDE76
:1018F000E063EBDEE163D5CEE363A7B4E963ABBF9E
:10190000EA63BEBEED63D2BDF263E9DEF463AED43A
:10191000F663DEDEF863EADEFD63BFC0FF63ECDE84
:101920000064F3B20164E9B80264A7C20564C1BDF2
:101930000B64F5DE0C64F8DE0F64ABB21064A4B483
:101940001364EAB41464A6C91B64F6DE1C64D1CB2C
:101950001E64E3B82064F7DE2164FADE2664F9DE53
:101960002A64C2CC2C64E1B02D64EEB43464BAE5D0
:101970003A64AFD03D64EBB23F64A1EB4164F4DE66
:101980004464E3C94564F3DE4664DAB04764A1D237
:101990004864F7B14A64AFCC5264F0DE5464A4CB1F
:1019A0005864AAD55E64FBDE6764DDB46964A6C4CE
:1019B0006D64FDDE7864FEC37964A1C47A64A1DF3E
:1019C0008264CCC18464FCDE8564EFBE8764B2C6E9
:1019D0009164C5B39264F6C89564BACB9664FEDE92
:1019E0009964A4DF9E64B2D7A464B7B3A964C3C1E9
:1019F000AC64CBC7AD64A5B2AE64E9B4B064ABD798
:101A0000B564ECC4B764A2DFB864A3DFBA64A5DF31
:101A1000BC64B3BAC064A6DFC264DEC0C564C3C917
:101A2000CD64D9B2CE64E6C7D064A7DFD264DCC788
:101A3000D764A8DFD864A2EBDE64D3CBE264AADF6C
:101A4000E464A9DFE664C1B20065CAC50965ABDF1D
:101A50001265DCD41865C1C82565ACDF2B65F0BE06
:101A60002E65ADDF2F65A7D63465B7EA3565B6EBD1
:101A70003665D5CA3865FCD83965C4B83B65A5B9A3
:101A80003E65C5B73F65FED54565CAB94865A7D06F
:101A90004965CDF44C65D0B54F65F4C35165C8BEFA
:101AA0005565B7EB5665BDB05965CCBD5B65B2C138
:101AB0005D65D6B15E65A8B36265D2B86365A2C93B
:101AC0006665D8B66B65B8EB6C65B4BE7065FDCA6B
:101AD0007265C3C77465FBD57765F3B78765C4CEF8
:101AE0008B65ABD58C65F3B19065B3EC9165DFB0D8
:101AF0009365B5EC9765B7B69965CFC19B65FAF567
:101B00009C65B1D09F65E5D5A165D3CEA465EFBD39
:101B1000A565E2B3A765ABB8A965B6D5AB65BDED64
:101B2000AD65CFB6AF65B9CBB065C2D0B965BDB74D
:101B3000BC65B6ECBD65A9CAC165D4C5C365B9ECC1
:101B4000C465B8ECC565C3C2C665B7ECCB65FDD04E
:101B5000CC65BAECCE65BBECCF65E5D7D265BCEC05
:101B6000D665BDECD765ECC6E065DECEE265C8BCE7
:101B7000E565D5C8E665A9B5E765C9BEE865BCD623
:101B8000E965E7D4EC65AED1ED65F1D0EE65B8EA74
:101B9000EF65B9EAF065BAEAF165B5BAF665B1CABA
:101BA000F765F5BFFA65FACD0066C0EA0266BAB01D
:101BB0000366BEEA0666A5C00A66BBEA0C66FDB20D
:101BC0000E66F7C30F66E8BB1366D7D21466F4CE71
:101BD0001566BFEA1966BCEA1D66C3EA1F66C7D070
:101BE0002066B3D32566BAB42766C1C32866F2D788
:101BF0002D66D1D52F66C7CA3166C5EA3466C4EAF8
:101C00003566C7EA3666C6EA3C66E7D63E66D4CF96
:101C10004166CBEA4366CEBB4B66FABD4C66CEC985
:101C20004F66CCEA5266B9C95366FECF5466CAEA1B
:101C30005566CED45666CDEA5766CFEA5A66EDCDE4
:101C40005F66C9EA6166CEEA6466EECE6666DEBBB2
:101C50006866BFB36E66D5C66F66B0BE7066FACEF4
:101C60007466E7C77666A7BE7766D0EA7A66C7D697
:101C70007E66C0C18266DDD48466D1EA8766BECF47
:101C80008C66D2EA9166EECA9666AFC59766B5B025
:101C90009D66D4EAA766D3EAA866DFF4AE66BAC446
:101CA000B466A9B1B966DFE5BE66D5EAD966EFCA02
:101CB000DB66D6EADC66D7EADD66D8C6E666D8EA31
:101CC000E966D9EAF066BBD4F266FAC7F366B7D222
:101CD000F466FCB8F766C2EAF966DCB2FC66FCC2E0
:101CE000FE66F8D4FF66E6CC0067EED70867C2D47C
:101CF0000967D0D30A67C3EB0B67F3C50D67FEB75F
:101D00001067D4EB1467B7CB1567DEEB1767CAC053
:101D10001B67FBCD1D67AFB31F67DAC62667FCEBF9
:101D20002867BEC42A67B4CE2B67A9C42C67BEB18E
:101D30002D67FDD42F67F5CA3167ECD63467D3C65B
:101D40003567E4B63A67FABB3D67E0D04067B1C992
:101D50004267D3D44367A8C84667CBB84867BEE894
:101D60004967BCC94C67BBE84E67EEC04F67D3D02C
:101D70005067C4B25167E5B45367BCE85667C8D52D
:101D80005C67C5B65E67BDE85F67F8CA6067DCB8C8
:101D90006167F5CC6567B4C06867EED16967BFE875
:101DA0006A67C2E86D67BCBA6F67ADB17067DCBDCA
:101DB0007267BDEA7367C3E87567C6E87767CBE803
:101DC0007C67CCE87E67C9CB7F67E5B08167ABBC39
:101DD0008467B9B98767C1E88967F7CD8B67CAE8B7
:101DE0009067F6CE9567EDD59767D6C19867C4E83A
:101DF0009A67B6C39C67FBB99D67A6D69E67C8E87D
:101E0000A267E0CAA367E6D4A567C0E8A767C5E8EC
:101E1000A867C7E8AA67B9C7AB67E3B7AD67C9E802
:101E2000AF67DDBFB067D2E8B367D7E8B567D5E87D
:101E3000B667DCBCB767CFBCB867DBE8C167DEE874
:101E4000C367DAE8C467FAB1CF67D8B0D067B3C464
:101E5000D167CCB8D267E2C6D367BEC8D467E1C841
:101E6000D867CFE8D967D4E8DA67D6E8DC67F1B994
:101E7000DD67D8E8DE67F5D7E067FBC4E267DCE83A
:101E8000E567E9B2E967D1E8EC67EDBCEF67C2BF8F
:101E9000F067CDE8F167F9D6F367F8C1F467F1B2FE
:101EA000FD67DFE8FF67C1CA0068D9E80568A4D507
:101EB0000768EAB10868BBD50968CEE80A68D0E8C7
:101EC0000B68B0B60C68D3E80E68DDE80F68B8C0E0
:101ED0001168F7CA1368A8CB1668DCC61768F5C086
:101EE0001D68E9E82168A3D02968F2E82A68EAD6E3
:101EF0003268E0E83368E1E83768F9D13868CBBA8E
:101F00003968F9B83C68F1B83D68D4D43E68EFE868
:101F10004068EEE84168ECE84268F0B94368D2CC2A
:101F20004468E6E84568A6CE4668F2BF4868B8B09F
:101F30004968F1E84A68F0E84C68C0D74E68E4E8C0
:101F40005068A9CD5168A3C95368B8BB5468DBBDBC
:101F50005568EAE86068E2E86168E3E86268E5E835
:101F60006368B5B56468E7E86568C5C76668EBE8A7
:101F70006768EDE86868B0BD6968AED76B68F8E877
:101F80007468F5E87668B0CD7768F6E88168BAC11C
:101F90008368E8E88568B7C38668F0B08F68F4E8BE
:101FA0009368F7E89768A3B9A268D2C9A668CEC3B8
:101FB000A768E0CEA868E6C0AD68F3CBAF68DDCC1B
:101FC000B068B5D0B368E1CAB568F3E8C068ECBCE6
:101FD000C268F9E8C968DEC3CB68E5C6CD68F7B961
:101FE000D268F4B0D568D8D7D868ACBCDA68EFC589
:101FF000E068C4CCE368A6E9EE68ADC9F068A2E980
:10200000F168E2C0F568C3BFF968FEE8FA68D7B9BD
:10201000FC68FBE80169A4E90569CED20B69A3E974
:102020000D69B2D60E69B5D71069A7E91269B7BDB7
:102030001F69FCE82069FDE82469A1E92D69D6CD76
:102040003069ACD23469B2E93969A9E93D69AAB409
:102050003F69BBB44269ABE95469A8D05769A5E9A7
:102060005A69FEB35D69ACE95E69E3C06069AAE9DB
:102070006369B9E96669B8E96B69AEE96E69FAE85E
:102080007169A8E97769ACBF7869B1E97969BAE99A
:102090007C69A5C28069AFE98269C5B88469ADE988
:1020A0008669DCD38769B4E98869B5E98969B7E9E4
:1020B0008D69C7E99469C6C09569C5E99869B0E9B1
:1020C0009B69BBE99C69F1B0A769BCE9A869A5D582
:1020D000AB69BEE9AD69BFE9B169C1E9B469F1C1F4
:1020E000B769B6C8BB69BDE9C169C2E9CA69C3E9D4
:1020F000CC69B3E9CE69B6E9D069B1BBD469C0E9AE
:10210000DB69F7BCDF69C4E9E069C6E9ED69CAE9E2
:10211000F269CEE9FD69DBB2FF69C8E90A6AAEB7C8
:10212000176ACBE9186ACCE91F6AC1D5216AA3C432
:10213000286AD8E92A6AE1BA2F6AC9E9316AA3D3C1
:10214000356AD4E93D6AD7E93E6AD0E9446ACFE905
:10215000476AC1C7506AD2E9586AD9E9596AC8B30F
:102160005B6AD3E9616AF0CF656ACDE9716AF7B35A
:10217000796AD6E97C6ADAE9806AB4CC846AADCF40
:102180008E6AD5E9906ADCE9916ADBE9976ADEE953
:10219000A06AD1E9A96ADDE9AB6ADFE9AC6ACAC322
:1021A000206BB7C7216BCEB4226BB6BB236BC0D0FC
:1021B000246BA3EC276BB7C5326BFBD3376BA4EC56
:1021C000396BA5EC3A6BDBC63E6BEEBF436BA6ECFE
:1021D000466BA7EC476BAAD0496BB8C74C6BE8B805
:1021E000596BA8EC626BB9D6636BFDD5646BCBB44D
:1021F000656BBDB2666BE4CE676BE7C66A6BE1CD1B
:10220000796BF5B47B6BC0CB7C6BDFBC816BE2E997
:10221000826BE3E9836BEAD1846BE5E9866BF9B401
:10222000876BE4E9896BB3D18A6BE2CA8B6BD0B25E
:102230008D6BE8E9926BE6E9936BE7E9966BB3D6B1
:102240009A6BE9E99B6BEAE9A16BEBE9AA6BECE914
:10225000B36BAFECB46BB9C5B56BCEB6B76BF3D29D
:10226000BF6BEEB5C16BD9BBC26BB1ECC56BE3D232
:10227000CB6BE3CECD6BB8C4CF6BBFC3D26BBEB656
:10228000D36BB9D8D46BC8B1D56BCFB1D66BD1B144
:10229000D76BFEC5D96BD0B1DB6BABC3E16BB1D5EE
:1022A000EA6BA4EBEB6BC1BAEF6BBACCF36BA5EBAB
:1022B000F56BA7EBF96BA8EBFD6BA6EB056CA9EB37
:1022C000066CABEB076CAAEB0D6CACEB0F6CCFCADA
:1022D000106CB5D8116CF1C3136CA5C3146CF8C69F
:1022E000156CADEB166CCAC4186CAEEB196CAFEB89
:1022F0001A6CB0EB1B6CD5B71F6CFAB7216CB1EB45
:10230000226CE2C7246CB3EB266CA4BA276CF5D11F
:10231000286CB1B0296CB2EB2A6CB4EB2E6CAAB568
:102320002F6CC8C2306CE8C7326CB5EB346CAECBE6
:10233000356CDFE3386CC0D33D6CDBD9406CA1CD8C
:10234000416CADD6426CF3C7466CE0D9476CE3BB39
:10235000496CBABA4A6CE2E3506CABCF546CE0E320
:10236000556CC7C9576CB9BA5B6CB4D15C6CE1E30E
:102370005D6CEAC85E6CAFB95F6CADBD606CD8B324
:10238000616CDBCE646CC0CC686CE8E3696CE9E33B
:102390006A6CF4CD706CADCC726CB3BC746CEAE357
:1023A000766CEBE3796CDAD07D6CFBC67E6CDAB7C9
:1023B000816CDFC7826CCAD2836CD6CE856CE4E3B5
:1023C000866CECE3886CF2C9896CC1B38C6CE7E372
:1023D0008F6CE3C6906CE5E3936CB3ED946CE6E32D
:1023E000996CB3C99B6CE6C59F6CB5B9A16CBBC3B6
:1023F000A36CE3E3A46CBDC5A56CA4C1A66CD9C253
:10240000A76CD7B2A96CEDE3AA6CA6BBAB6CADC44C
:10241000AD6CF0E3AE6CDABEB16CFBE3B26CF5E32D
:10242000B36CD3BAB86CD0B7B96CCDD3BB6CCED6C5
:10243000BC6CD3D5BD6CC1B9BE6CB4D5BF6CD8D1A2
:10244000C46CB9D0C56CF6C7C96CAAC8CA6CB4B2A2
:10245000CC6CDAC3D06CEEE3D36CFCE3D46CEFE36A
:10246000D56CA8B7D66CF7E3D76CF4E3DB6CBAB7DE
:10247000DE6CA2C5E06CF6E3E16CDDC5E26CA8B2EF
:10248000E36CFCC6E56CE0C4E86CA2D7EA6CE1C082
:10249000EB6CF9E3EE6CFAE3EF6CFDE3F06CA9CCC6
:1024A000F16CF3E3F36CBED3F56CC3B1F66CB4ED31
:1024B000F76CF1E3F86CF2E3FA6CF8E3FB6CBAD07A
:1024C000FC6CC3C6FD6CF3D4FE6CFEE3016DE0BD95
:1024D000046DA7E4076DA6E40B6DF3D10C6DA3E4C6
:1024E0000E6DA9E4126DF7C8176DB4CF196DA8E48D
:1024F0001A6DAEE41B6DE5C21E6DB4B6256DF2BD5E
:10250000276DA2E42A6DE9BA2B6DAAE42E6DACE426
:10251000316DFDB6326DDED6336DB2E4356DADE4AE
:10252000396DA1E43B6DEEBB3C6DDDCD3D6DA2C7C9
:102530003E6DC9C5416DF7C1436DA4E4456DB3C798
:10254000466DACBD476DBDBD486DA5E44A6DC7D7AE
:102550004B6DE2B24D6DABE44E6DC3BC4F6DAFE45D
:10256000516DEBBB526DB0E4536DA8C5546DB1E431
:10257000596DE3D55A6DA3BF5C6DBAE45E6DB7E4E7
:10258000606DBBE4636DBDE4666DD6C6696DC6BAA9
:102590006A6DCBC06E6DA1B86F6DB4E4746DA1D4DB
:1025A000776DA3BA786DFEBD7C6DBCE4826DBFCD46
:1025B000856DF9C4886DFBCF896DE6C98C6DBFD37D
:1025C0008E6DD1CF916DB3E4936DB8E4946DB9E4A1
:1025D000956DE9CC9B6DCECC9D6DD4C09E6DB5E460
:1025E0009F6DB0C1A06DB6E4A16DD0CEA36DC1BB8F
:1025F000A46DD3B5A66DF3C8A76DA7BDA86DC7D54B
:10260000A96DACC9AA6DA2B8AB6DCAE4AE6DCCE43D
:10261000AF6DC4D1B26DBAD2B56DADBAB86DD4BA22
:10262000BF6DC3E4C06DEDB5C46DCDD7C56DC0E45D
:10263000C66DFDCFC76DBFE4CB6DDCC1CC6DCACC20
:10264000D16DE7CAD66DD7C4D86DD4CCD96DC8E4E6
:10265000DD6DC7E4DE6DC1E4E06DC4E4E16DADB5F0
:10266000E46DD9D3E66DC6E4EB6DF9D2EC6DE3B45D
:10267000EE6DB4BBF16DEEC9F36DBEB4F76DECBB9E
:10268000F96DCDD1FB6DEDCCFC6DB5ED056EE5C7FB
:102690000A6EA8D40C6ECBE40D6ED5D70E6EC2E4D4
:1026A000106EA5BD116EC5E4146EE6D3166EC9E4B6
:1026B000176EF8C91A6EBEE41D6EE5D3206EFEC714
:1026C000216EC9B6236EFCD4246EB3B2256ED7E456
:1026D000296EC2CE2B6ECDE42D6EBCCE2F6EDBB834
:1026E000326ED6E4346ECABF386ECED33A6EECC3C7
:1026F000436EC8C5446ED8E44D6EC4CD4E6ECFE473
:10270000536ED4E4546ED5E4566EFEBA586EE6CFDE
:102710005B6EBFD55F6ED2E46B6ED0E46E6ECEE4BE
:102720007E6EE5CD7F6EAACA836EA3C0856EA6BD00
:10273000866ED3E4896EC8B88F6EE7E4906EB4D429
:10274000986EDBE49C6EEFC19F6EE9E4A26EE7D267
:10275000A56EDFE4A76EE0E4AA6EAACFAF6EDDCB74
:10276000B16EDAE4B26ED1E4B46EE5E4B66EDCC804
:10277000B76EE3E4BA6EE7C4BB6EE2E4BD6EE1E4BB
:10278000C16EFCB3C26EE8E4C76EE1B5CB6ECCD7C8
:10279000CF6EE6E4D16EACBBD36ED2D7D46ECFCCC5
:1027A000D56EF8EBD76EE4E4DA6EF6B9DE6ECDD610
:1027B000DF6ED9E4E06EDCE4E16EFAC2E26EDEE4E4
:1027C000E46ECBC2E56EC4C0E66ED0C2E86EF5B171
:1027D000E96EB2CCF46ECEB5F96EEFE4026FAFC61F
:1027E000066FE1C6096FF5E40F6FA9C2136FECC065
:1027F000146FDDD1156FEEE4206FAEC4246FEDE4ED
:10280000296FF6E42A6FF4E42B6FFEC22D6FDDE42E
:102810002F6FF0E4316FFECA336FC4D5366FF1E429
:102820003E6FFAD1466FEBE4476FECE44B6FF2E496
:102830004D6FABCE586FCBC55C6FB1C75E6FBAC280
:10284000626FEAE4666FCAC16D6FB6CC6E6FB1B3EA
:10285000726FFBE4746FF3E4786FFAE47A6FFDE46F
:102860007C6FFCE4846FCEB3886FBAB3896FF7E4F2
:102870008C6FF9E48D6FF8E48E6FECC59C6FBDC072
:10288000A16FE8D4A76FA2E5B36FC4B0B66FA4E59B
:10289000B96FA3E5C06FA4BCC26FA5E5C96FA1E580
:1028A000D16FFEE4D26FF4B1DE6FA8E5E06FA9E569
:1028B000E16FA6E5EE6FA7E5EF6FAAE51170D9C647
:1028C0001A70ABE51B70ADE52370ACE53570AFE574
:1028D0003970AEE54C70E0B94F70B0E55E70B1E5AF
:1028E0006B70F0BB6C70E1EC6D70F0C36F70C6B5CF
:1028F0007070D2BB7570E9C17670EED47870C4BECA
:102900007C70C6D77E70D6D47F70D3B28070BEEC98
:102910008570C1EA8970AFC28A70B6B48E70D7D1A3
:102920009270B4B39470B2C89570BBBF9670C0EC8F
:102930009970CBD69C70BFEC9D70C1ECAB70C5ECB0
:10294000AC70E6BEAD70BFCCAE70DAC5AF70BCBEC9
:10295000B170C6ECB370FEB1B770C4ECB870A8D556
:10296000B970E3B5BB70C2ECBC70B6C1BD70E3B367
:10297000C070C3ECC170B8CBC270C3C0C370FECC12
:10298000C870D2C1CA70C8ECD870E6BAD970D3C0CA
:10299000DB70F2D6DF70CCD1E470BEBFE670B3B7A7
:1029A000E770D5C9E870C7ECE970E2BBEB70CCCC3E
:1029B000EC70FDBDED70C8C8EF70A9CFF770E9CD20
:1029C000F970EBC5FD70E9B70971C9D10A71B8BAE0
:1029D0001071C9EC1371CAEC1571C0BB1671CBEC48
:1029E0001871E2EC1971BAB11A71D9B72671B9BD73
:1029F0002F71CCEC3071E6D13171CDEC3671BBC8A2
:102A00004571D1EC4A71D3EC4C71CDBB4E71E5BC34
:102A10005C71CFEC5E71B7C96471BAC36671E3ECE7
:102A20006771D5D56871D0EC6E71F3D67271D2EC46
:102A30007371CEEC7871D4EC7A71D5EC7D71BFC92D
:102A40008471A8CF8A71DCD08F71ACD19471DBC84E
:102A50009871D6EC9971F5CE9F71ECCAA071DAEC41
:102A6000A871D9ECAC71BEB0B371D7ECB571D8EC2C
:102A7000B971E4ECC371BCC8CE71C7C1D471DCECD0
:102A8000D571E0D1E071DBECE571EFD4E771DDECFD
:102A9000EE71C6DBF971DEEC0672ACB11D72DFECD3
:102AA0002872E0EC2A72A6D72C72C0C53072BCEB3B
:102AB0003172AEB03572F4BE3672B8B83772AFD27A
:102AC0003872D6B03972F9B53B72B3D83D72ACCB1F
:102AD0003F72DDE34772ACC64872E6B04C72C6C5C1
:102AE0004D72B9EB5272BAEB5672BBEB5972C0D150
:102AF0005B72A3C55D72F2EA5F72B2C46172B5C463
:102B00006272CEC06672F3EA6772C1C46972EFCEB8
:102B10006E72F0EA6F72F4EA7272FCC97572A3C742
:102B20007972D8CC7A72FECE7E72F5EA7F72F6EABE
:102B30008072ACCF8172E7C08472F7EA8A72BFB646
:102B40008B72F8EA8D72F9EA8F72FAEA9272FBEAF6
:102B50009F72F1EAAC72AEC8AD72EBE1AF72B8B77A
:102B6000B072ECE1B472EDE1B672B4D7B772EEE1D7
:102B7000B872EFE1B972CCD3C172F1E1C272F1BFA8
:102B8000C372F0E1C472D2B5C872B7B1CD72F3E1CD
:102B9000CE72F2E1D072FCBAD272F4E1D772B7B958
:102BA000D972D1BEDE72FCC4E072DDBAE172C6BD7C
:102BB000E872F5E1E972F7E1EC72C0B6ED72C1CFEF
:102BC000EE72A8CAEF72F6E1F072F8D5F172FCD39A
:102BD000F272F8E1F372FCE1F472F9E1F772FAE1F2
:102BE000F872EAC0FA72FEE1FB72A1E2FC72C7C0A1
:102BF0000173FBE10373FDE10A73A5E20E73D4C117
:102C00001373A3E21573A8E21673FEB21773A2E260
:102C10001B73CDC31C73C2B21D73A7E21E73A6E261
:102C20002173A4E22273A9E22573ABE22973C9D010
:102C30002A73EDD62B73A8C32C73ACE22E73D7CFB7
:102C40003173AEE23473EFBA3773E0E93873ADE253
:102C50003973AAE23E73ABBB3F73B3D44D73B0E29A
:102C60005073AFE25273E1E95773B1E26073B2E2BD
:102C70006C73B3E26D73A1CC6F73B4E27E73B5E293
:102C80008473FED08773CAC28973F1D38B73F5CD79
:102C90008E73E0E79173E1E79673C1BE9B73EAC25E
:102CA0009F73E4E7A273E3E7A973E6CDAB73B5C303
:102CB000AE73E2E7AF73B7BBB073D6CFB273E1C107
:102CC000B373E9E7B773E8E7BA73F4E7BB73A3B28A
:102CD000C073EAE7C273E6E7C873ECE7C973EBE7D2
:102CE000CA73BAC9CD73E4D5CF73E5E7D073A9B77A
:102CF000D173E7E7D973EEE7DE73F3E7E073E9D664
:102D0000E573EDE7E773F2E7E973F1E7ED73E0B040
:102D1000F273F5E70374F2C70574C5C00674EDC01D
:102D20000974F0C10A74F0E70F74F6E71074F6CB7B
:102D30001A74A2E81B74A1E82274C1D72574FAE7BB
:102D40002674F9E72874FBE72A74F7E72C74FEE78A
:102D50002E74FDE73074FCE73374D5C13474D9C7E1
:102D60003574FDC53674C3C53C74EDC74174A3E822
:102D70005574A6E85774A5E85974A7E85A74F7BAC9
:102D80005B74F8E75C74A4E85E74F0C85F74AAC969
:102D90006D74A9E87074E5B97674FED17774A8E80B
:102DA0007E74AAE88074ADE88174AEE88374A7C12C
:102DB0008774AFE88B74B0E88E74ACE89074B4E8B4
:102DC0009C74ABE89E74B1E8A774B5E8A874B2E847
:102DD000A974B3E8BA74B7E8D274B6E8DC74CFB9B2
:102DE000DE74ACF0E074ADF0E274B0C6E374EAB047
:102DF000E474BFC8E674DFCDEE74CDCEEF74B1EAF3
:102E0000F474B2EAF674BFC6F774C9B4FF74B3EAD7
:102E10000475E7D50D75F9DD0F75B4EA1175B5EADE
:102E20001375B6EA1875CAB81975B0DF1A75F5C901
:102E30001C75F0CC1F75FAC92575FBC92875C3D35D
:102E40002975A6CB2B75A6B82C75AEF02D75C2B121
:102E50002F75B8E53075EFCC3175C9D33275D7BC55
:102E60003375EAC93575E7B53775D0C43875E9B536
:102E70003A75AEEE3B75ADBB3E75DEE74075AFEE25
:102E80004575A9B34875B2EE4B75B1EE4C75E7BD0B
:102E90004E75B0EE4F75B7CE5475CFC55975F4C1A8
:102EA0005A75CEDB5B75B3EE5C75F3D06575D4C235
:102EB0006675E8C66A75ACB77275B4EE7475EBB337
:102EC0007875FBBB7975B5EE7F75DCE78375B6EE7B
:102ED0008675AEBD8B75E2F18F75E8CA9175C9D262
:102EE0009275DAF09475DBF09675DCF09775C6C1D3
:102EF0009975EDB89A75CEBE9D75DEF09F75B1C51A
:102F0000A075DDF0A175F1D1A375E0F0A475CCB08A
:102F1000A575EABDAB75DFD2AC75DFF0AE75AFB4A9
:102F2000AF75E8B7B075E6F0B175E5F0B275A3C658
:102F3000B375E1F0B475E2F0B575C3B4B875E3F0FC
:102F4000B975EED5BC75DBCCBD75D2BEBE75B2BC55
:102F5000C275E8F0C375E7F0C475E4F0C575A1B2B9
:102F6000C775A2D6C875B8D3C975B7BECA75ACC87F
:102F7000CD75EAF0D275F7D1D475CCD6D575DBBA5C
:102F8000D675E9F0D875BBB6DB75B4CDDE75A6C6CF
:102F9000E275A1C1E375EBF0E475EEF0E675EDF0D6
:102FA000E775F0F0E875ECF0EA75BEBBEB75EFF095
:102FB000F075B5CCF175F2F0F475D5B3F975D4B1FF
:102FC000FC75F3F0FF75F4F00076F6F00176E1B4ED
:102FD0000376F1F00576F7F00A76FAF00C76F8F061
:102FE0001076F5F01576FDF01776F9F01876FCF00E
:102FF0001976FEF01B76A1F11F76C1CE2076A4F1E2
:103000002276A3F12476F6C12576FBF02676DDCA7A
:103010002976F1B42A76F1B12B76B1CC2D76A6F1D2
:103020003076A7F13376ACF13476CED53576A9F18A
:103030003876B3C83C76A2F13E76ABF13F76A8F184
:103040004076A5F14376AAF14C76A9B04D76ADF164
:103050005476AFF15676B1F15C76B0F15E76AEF1B2
:103060006376A2D16B76B2F16F76B3F17876EFB971
:103070007B76C7B57D76D7B07E76D9B08276EDD433
:103080008476C4B58676D4BD8776CABB8876A7F029
:103090008B76DEB88E76A8F09176A8B09376A9F0FC
:1030A0009676EECD9976AAF0A476ABF0AE76A4C66D
:1030B000B176E5D6B276E4F1B476E5F1BF76F3C346
:1030C000C276DBD3C576D1D6C676E8C5C876AFD38F
:1030D000CA76E6D2CD76C1EECE76BBB0CF76B5D588
:1030E000D076CED1D176E0BCD276D0BAD476F8BF45
:1030F000D676C7B8D776C1B5D876CCC5DB76A2CAA6
:10310000DF76CBC3E576C2EEEE76BFC4EF76A2B62D
:10311000F176ECEDF276A4C3F476B1D6F876E0CF92
:10312000F976EFEDFC76CEC5FE76DCB60177A1CA66
:103130000477EDED0777F0ED0877F1ED0977BCC383
:103140000B77B4BF0D77EEED1977F4ED1A77F2ED4A
:103150001F77E6D52077DFC32277F3ED2677F6EDEC
:103160002877A3D52977A3D12D77F5ED2F77D0C375
:103170003577F7ED3677F4BF3777ECBE3877F8ED73
:103180003A77F7CC3C77DBD14077C5D74177F6D596
:103190004377FCED4777FBED5077F9ED5177FAED8A
:1031A0005A77FDED5B77A6BE6177AFCB6277A1EE74
:1031B0006377BDB66577A2EE6677C0C46877FEED2B
:1031C0006B77DEBD6C77C7B27977C3B67D77A5EE36
:1031D0007E77BAD87F77A3EE8077A6EE8477E9C3AF
:1031E0008577F2B38C77A7EE8D77A4EE8E77B9CF83
:1031F0009177A8EE9277F7C29F77A9EEA077AAEE13
:10320000A277ABDEA577B3C6A777C6C7A977F5D6F1
:10321000AA77C9B5AC77B2CBB077ABEEB377ABCD0D
:10322000B577ACEEBB77B0D5BD77ADEEBF77C4F662
:10323000CD77C7DBD777A3B4DB77ACC3DC77E6F118
:10324000E277B8CAE377D3D2E577AAD6E777F2EF89
:10325000E977D8BEEB77C3BDEC77F3EFED77CCB66B
:10326000EE77ABB0F377AFCAF677B6EDF877B7ED98
:10327000FD77F9CEFE77AFB7FF77F3BF0078B8EDF3
:103280000178EBC20278B0C90978B9ED0C78F6C6BE
:103290000D78B3BF1178BCED1278F8C51478D0D191
:1032A0001678A9D71778BAED1878BBED1A78E2D15D
:1032B0001C78BFED1D78C0ED1F78C4ED2378C8EDF4
:1032C0002578C6ED2678CEED2778E8D52978C9EDA2
:1032D0002C78C7ED2D78BEED3078E9C53478C6C6B8
:1032E0003778E9C93878D2D43978C1ED3A78C2ED67
:1032F0003B78C3ED3C78C5ED3E78F9C04078A1B489
:103300004578E8B94778D0ED4C78D1ED4E78CAEDE4
:103310005078CFED5278F8CE5578B6CB5678CCEDC4
:103320005778CDED5D78F5CF6A78D2ED6B78F2C144
:103330006C78B2D36D78CBED6E78B7C87778EFBC88
:103340007C78F0C58778D6ED8978EFB58C78B5C2F2
:103350008D78ADB08E78E9CB9178AEB19378D4ED1D
:103360009778EBCD9878E2B59A78D5ED9B78D3ED48
:103370009C78D7ED9F78FAB5A178D8EDA378D9EDF0
:10338000A578DCEDA778CCB1B078F6C5B178EEBC05
:10339000B278DAEDB378BCCCB478EAB2B978DBEDC8
:1033A000BE78EBC4C178C5B4C578F5B0C978DFED97
:1033B000CA78DAC0CB78E8B4D078CDC5D478DDED62
:1033C000D578C4BFD978DEEDE878A5C4EC78E0ED17
:1033D000F278E1EDF478E3EDF778D7C1FA78C7BB7E
:1033E0000179B8BD0579E2ED1379E4ED1E79E6EDDA
:1033F0002479E5ED3479E7ED3A79BECA3B79EAEC18
:103400003C79F1C03E79E7C94079EBEC4179EEC6F1
:103410004679ECEC4879EDC64979EDEC5379F0EC5E
:103420005679E6D75779F3EC5A79F1EC5B79EEEC03
:103430005C79EFEC5D79A3D75E79F1C95F79EECB6A
:103440006079F4EC6279F2EC6579E9CF6779F6ECB2
:103450006879B1C66D79C0BC6F79F5EC7779BBB589
:103460007879F6BB7A79F7EC8079F7D98179FBBD69
:103470008479BBC28579F8EC8A79F9EC8F79A3B8A5
:103480009A79FAECA779FBECB379FCECB979EDD336
:10349000BA79AED8BB79EBC0BD79DDC7BE79CCBAFD
:1034A000C079E3D0C179BDCBC379BACDC679D1B8E3
:1034B000C979FCB1CB79EFC7CD79D6D6D179C6BF62
:1034C000D279EBC3D579F5EFD879D8C3DF79E2D7D4
:1034D000E379F7EFE479D3B3E679D8C7E779EDD1AB
:1034E000E979C8D6EB79F8EFED79F6EFEF79FDBB26
:1034F000F079C6B3F879D5BDFB79C6D2FD79E0BBCA
:10350000007AA1CF027AFCEF037AFBEF067AF9EF9B
:103510000B7ACCB30D7AD4C90E7AB0CB147AFEEF05
:10352000177ADEB01A7AC9D61E7AFDEF207AEDB38B
:10353000237AD5F6337AC8CE377AA2F0397AA1F059
:103540003B7ABEB53C7ADABC3D7AFCBB3F7AE5B843
:10355000467AC2C4517AA3F0577AEBCB707AA6F0C0
:10356000747AA8D1767ABFBE777AEEC7787AB6F148
:10357000797AB7F17A7AD5BF7F7AA9B4807AB8F12F
:10358000817ABBCD837AD4C7847AADD5867AB9F1F6
:10359000887ABAF18D7ACFC7917AA4D2927ACFD6AF
:1035A000957ABBF1967AD1BD977AB0B4987ABDBEC0
:1035B0009C7ADCB49D7AD1CE9F7ADFBFA07ABDF130
:1035C000A57AFABFA67ABCF1A87ABFF1AC7ABEF1AF
:1035D000AD7AC0F1B37AC1F1BF7AFEC1CB7AA2C194
:1035E000D67AFACAD97ABED5DE7ABABEDF7AB9BE41
:1035F000E07AC2D5E37AA2BFE57AAFCDE67AB5F13B
:10360000ED7ADFBDEF7ACBB6F97AF1D6FA7AC3F369
:10361000FD7AC4F3FF7ACDB8037BC6F3047BC7F30E
:10362000067BCAB0087BC5F30A7BC9F30B7BF1CBE1
:103630000F7BCBF3117BA6D0147BCAB1157BC8F3EB
:10364000197BCFF31B7BD1B51E7BD7F3207BD2F345
:10365000247BD4F3257BD3F3267BFBB7287BBFB138
:103660002A7BCEF32B7BCAF32C7BDAB52E7BD0F3EF
:10367000317BD1F3337BD5F3387BCDF33A7BE3BC9D
:103680003C7BFDC13E7BD6F3457BDAF3477BCCF335
:10369000497BC8B54B7BEEBD4C7BDCF34F7BA4B7BD
:1036A000507BF0BF517BFED6527BB2CD547BF0B441
:1036B000567BDFB2587BD8F35A7BD9F35B7BB8C912
:1036C0005D7BDDF3607BDEF3627BE1F36E7BDFF33A
:1036D000717BE3F3727BE2F3757BDBF3777BEABF0D
:1036E000797BEFB37B7BE0F37E7BA9C7807BF2BC69
:1036F000857BEBF38D7BBFB9907BE4F3947BADB21C
:10370000957BFEBB977BE3CB9C7BEDF39D7BE9F345
:10371000A17BDCB9A27BEEF3A67BE5F3A77BE6F306
:10372000A87BEAF3A97BE1C2AA7BECF3AB7BEFF3C6
:10373000AC7BE8F3AD7BFDBCB17BE4CFB47BF0F3B5
:10374000B87BE7F3C17BF2F3C67BADD7C77BAAC6D4
:10375000CC7BF3F3D17BF1F3D37BA8C2D97BDDB86B
:10376000DA7BF5F3DD7BF4F3E17BDBB4E57BF6F3A9
:10377000E67BF7F3EA7BF8F3EE7BBAC0F17BE9C0B6
:10378000F77BF1C5FC7BFBF3FE7BFAF3077CD8B437
:103790000B7CFEF30C7CF9F30F7CFCF3167CFDF341
:1037A0001F7CA1F4267CA3F4277CC9BB2A7CA2F44D
:1037B000387CA4F43F7CBEB2407CA6F4417CA5F4E6
:1037C0004D7CAEBC737CD7C3747CE1D97B7CE0C0FC
:1037D0007C7CCCF47D7CD1D7897CDBB7917CCEF42A
:1037E000927CA3C1957CC9C6977CD6B4987CB3D58E
:1037F0009C7CD0F49D7CCFF49E7CD1F49F7CDACB72
:10380000A27CD2F4A47CC1D4A57CE0D6AA7CE0B78B
:10381000AE7CB8C1B17CBBC1B27CD3F4B37CACBECE
:10382000B97CE2B4BC7CD4F4BD7CD5F4BE7CABBE28
:10383000C17CD6F4C57CDBF4C77CD7F4C87CDAF451
:10384000CA7CFDBACC7CD8F4CD7CD9F4D57CE2B866
:10385000D67CC7CCD77CDCF4D97CDAB2DC7CD3C391
:10386000DF7CE3D4E07CB7BFE87CDDF4EF7CB4C55B
:10387000F87CE9F4FB7CB5CF0A7DC9CE207DD8CB9E
:10388000227DF7CB277DF4BD2B7DCFD72F7DDBC0ED
:103890006E7DF5D0777DEAF4A67DEBF4AE7DECF499
:1038A0003B7EE3F7417EB1B7477EEDF4827EEBD7F6
:1038B0009B7EEEF49F7EF9E6A07EC0BEA17EFAE676
:1038C000A27EECBAA37EFBE6A47ECBCFA57EFCE66F
:1038D000A67EBCD4A77EB6BCA87EFDE6A97EFEE689
:1038E000AA7ECDBCAB7ED2C8AC7EB3CEAD7EA1E706
:1038F000AF7EBFB4B07EA2E7B17EB4C9B27ED9B804
:10390000B37EC9C4B57EDDD7B67EDAC2B77ED7B77F
:10391000B87EBDD6B97EC6CEBA7EC4B7BD7EA6C5BA
:10392000BE7EA3E7BF7EDFCFC07EA4E7C17EA5E752
:10393000C27EA6E7C37EB7C1C47EE9D7C57EF0C903
:10394000C67EB8CFC77EAFD6C87ED5D6C97EA7E71C
:10395000CA7EEDB0CB7EA8E7CC7EA9E7CD7EDCC9E0
:10396000CE7EEFD2CF7EADBED07EAAE7D17EF3B0C1
:10397000D27EDEC8D37EE1BDD47EABE7D57EC6C89D
:10398000D77EACE7D87EE6BBD97EF8B8DA7EA4D184
:10399000DB7EADE7DC7EE7C2DD7EF8BEDE7ECABD43
:1039A000DF7EB3CDE07EAEE7E17EAFE7E27EEEBE46
:1039B000E37EE5D0E57EE7CBE67ED0CCE77ECCBCEF
:1039C000E87EB0E7E97EA8BCEA7EF7D0EB7EB1E7FF
:1039D000ED7EF8D0EE7EB2E7EF7EB3E7F07EC2B4C4
:1039E000F17EB4E7F27EB5E7F37EFEC9F47EACCE9D
:1039F000F57EE0C3F67EB7E7F77EC1B1F87EF1B39E
:103A0000FA7EB8E7FB7EB9E7FC7EDBD7FD7EC0D54A
:103A1000FE7EBAE7FF7ECCC2007FBAD7017FBBE74C
:103A2000027FBCE7037FBDE7047FEABC057FE5C3F7
:103A3000067FC2C0077FBEE7087FBFE7097FA9BC3A
:103A40000B7FC0E70C7FC1E70D7FB6E70E7FD0B6D6
:103A50000F7FC2E7117FC3E7127FC4E7137FBABBB2
:103A6000147FDEB5157FC6C2167FE0B1177FC5E7AC
:103A7000187FB5D4197FC6E71A7FBFB81B7FC8E788
:103A80001C7FC7E71D7FECB71F7FC9E7207FF8B217
:103A9000217FCAE7227FCBE7237FCCE7247FCDE7D6
:103AA000257FCEE7267FCFE7277FD0E7287FA7D3E4
:103AB000297FF5CB2A7FD1E72B7FD2E72C7FD3E775
:103AC0002D7FD4E72E7FC9C92F7FD5E7307FD6E77A
:103AD000317FD7E7327FD8E7337FD9E7347FC9BD5D
:103AE000357FDAE7367FBEF3387FD7B83A7FB1C883
:103AF000427FBFF3447FC0F3457FC1F3507FDEB9FF
:103B0000517FF8CD547FE8D8557FB1BA577FDEC2D8
:103B1000587FB7EE5A7FA3B75F7FB9EE617FB8EEEB
:103B2000627FD5B0687FBBEE697FD6D56A7FEFD75D
:103B30006E7FC3D6717FBDEE727FF0CA747FBCEE1C
:103B4000797FBEEE7E7FC0EE817FBFEE8A7FF2D1AD
:103B50008C7FBCC78E7FC0C3947FE1B89A7FE7C1DA
:103B60009D7FC6F49E7FDFD09F7FC7F4A17FDBCF10
:103B7000A47FBAC8A77FC8F4AF7FC9F4B07FCAF4E6
:103B8000B27FCBF4B87FFAD9B97FFEB8BC7FF1E53C
:103B9000BD7FF0D3BF7FE0F4C17FCCCEC57FE1B362
:103BA000CA7FB4F1CC7FEED2CE7FE1F4D47FE8CFF0
:103BB000D57FE2F4D87FCCC7DF7FD4B5E07FE4B413
:103BC000E17FE4F4E57FE3F4E67FE5F4E97FE6F402
:103BD000EE7FE7F4F07FB2BAF17FBFB0F37FE8F495
:103BE000FB7FADB7FC7FEDD20080ABD20180CFC0B0
:103BF0000380BCBF0480A3EB0580DFD50680C8EA44
:103C00000B80F3F10C80F8B60D80A3CB1080CDC4EF
:103C10001280E7F11480E8F11580FBB81680E9F115
:103C20001780C4BA1880C5D41980D2B01C80EAF1BC
:103C30002080EBF12280ECF12580EDF12680EEF181
:103C40002780EFF12880F1F12980F0F12A80D5C595
:103C50003180F2F13380FAB63580F4F13680AED29D
:103C60003780C7DE3880CACB3B80DCB33D80A2B54D
:103C70003F80A2B94280F4C44380F5F14680F6F15A
:103C80004A80C4C14B80FBC14C80B0D64D80F7F157
:103C90005280F8F15480AAC15880B8C65A80DBBE61
:103CA0006980F9F16A80CFB47180FAF17F80B2ED5A
:103CB0008080B1ED8380E0CB8480DED28680C1CB72
:103CC0008780D8D58980E2C88B80DFC08C80A1BC7A
:103CD0009380C1EB9680A4D09880E2D69A80C7B634
:103CE0009B80D8B89C80C0EB9D80CEB89F80BFEBF6
:103CF000A080A6B3A180C9B9A280ABD6A480F4B736
:103D0000A580CAB7A980E7BCAA80BEB7AB80C6EBC6
:103D1000AD80C7EBAE80B9B0AF80CFBFB180C5EB8F
:103D2000B280FDD3B480C8EBB780C9EBBA80CEB700
:103D3000BC80C2EBBD80C4EBBE80F6C9BF80D7D6C5
:103D4000C080CDD5C180B2D0C280CFEBC380B8CE09
:103D5000C480D0EBC680A8B5CC80B3B1CD80D2EB07
:103D6000CE80A5CCD680D6C5D780D3EBD980D1EB79
:103D7000DA80DFC5DB80CEEBDC80A4CADD80D5EB4A
:103D8000DE80FBB0E180FABAE480B7D8E580E3F1E9
:103D9000E780CAEBE880CBEBE980CCEBEA80CDEBA7
:103DA000EB80D6EBEC80C0E6ED80D9EBEF80E8BF8E
:103DB000F080C8D2F180D7EBF280DCEBF380ECB876
:103DC000F480D8EBF680BABDF880D8D0FA80B7B0CE
:103DD000FC80DDEBFD80DCC40281ACD60681E0B462
:103DE0000981F6C20A81B9BC0D81DAEB0E81DBEBE9
:103DF0000F81E0D41081EAC61181D4C41281DFEBB7
:103E00001381A7C51481F5D91681B1B21881E4EBED
:103E10001A81C5BD1E81E2EB2C81E3EB2F81ACB88A
:103E20003181D1CD3281E5EB3681E1EB3881B3C10F
:103E30003E81A2C64681F3CC4881E6EB4A81B0C000
:103E40004B81B8D24C81E7EB5081AFB85181ADB80E
:103E50005381E8EB5481BBC75581F3CD5981EAEB1F
:103E60005A81EBEB6081EDEB6581C8D06781F2EBA5
:103E70006981EEEB6D81F1EB6E81F9C87081FCD147
:103E80007181ECEB7481E9EB7981B9B87A81D9CF92
:103E90007B81E5C47C81EFEB7D81F0EB7E81DACC28
:103EA0007F81C8CD8081F2B08281F6EB8881F5EB0D
:103EB0008A81B2B28F81E0B89181F7EB9881ECB141
:103EC0009B81C5CC9C81A4C49D81A5CFA381F9EB26
:103ED000A681A2ECA881F2C5AA81FAEBB381C5C97B
:103EE000BA81DFE2BB81FEEBC081CECDC181A1EC06
:103EF000C281DBB1C381B7D3C681DCD2CA81FDEBFD
:103F0000CC81FBEBE381BCB3E781B0EAEA81D4D793
:103F1000EC81ABF4ED81F4B3F381C1D6F481C2D668
:103F2000FB81E9D5FC81CABEFE81A7F40082A8D23C
:103F30000182A8F40282A9F40482AAF40582CBBE0D
:103F40000682DFD30C82E0C90D82E1C91082C2F380
:103F50001282E6CA1482F2CC1B82B6E21C82B4CB77
:103F60001E82E8CE1F82DBD62182ADF42282AEF41F
:103F70002382AFF42882B2F42A82BDBA2B82B3F432
:103F80002C82E3B02D82B0F42F82B1F43082A2BD36
:103F90003182D5B23382B6F43482B7F43582E6B6D4
:103FA0003682B0B23782CFCF3882B4F43982ACB423
:103FB0003B82B5F43E82B8F44482B9F44782A7CD7F
:103FC0004982BAF44B82BBF44F82BCF45882D2CB04
:103FD0005A82BDF45F82BEF46882BFF46E82DEF462
:103FE0006F82BCC17082E8BC7282ABC97382DED1C1
:103FF0007482F5E57982B3DC7A82D5D27D82B4DC35
:104000007E82ACB07F82B5DC8282DABD8482B9DC8C
:104010008882C2D88A82B7DC8B82F3D38D82D6C9DC
:104020008E82BADC8F82B6DC9182BBDC9282A2C324
:104030009782BCDC9882C5DC9982BDDC9C82DFCE95
:104040009D82A5D69F82CFDCA182CDDCA482D2DC6A
:10405000A582E6BDA682ABC2A882B8DCA982CBDC71
:10406000AA82CEDCAB82BEDCAC82D2B7AD82C5B058
:10407000AE82C7DCAF82BED0B082C1DCB182A8BB49
:10408000B382BCB7B482CCDCB782C6DCB882BFDCFA
:10409000B982DBC7BD82BFD1BE82C0DCC182CADCAF
:1040A000C482D0DCC782ADCEC882C2DCCA82C3DC87
:1040B000CB82C8DCCC82C9DCCD82D4B2CE82D1DC4A
:1040C000CF82D5CBD182B7D4D282DBDCD382DFDC06
:1040D000D482A6CCD582E6DCD782E7C3D882DCDCEA
:1040E000DB82C1BFDC82D9DCDE82FAB0DF82B6B906
:1040F000E082E5DCE182D3DCE382C4DCE482D6DC6E
:10410000E582F4C8E682E0BFEB82BBC9EF82BDB1B5
:10411000F182A2D3F482DADCF782D5DCF982BBC665
:10412000FB82DEDC0183C2D70283AFC30383B6B751
:104130000483D1C70583A9C30683E2DC0783D8DCE7
:104140000883EBDC0983D4DC0C83DDDC0E83A5BEA5
:104150000F83D7DC1183E0DC1483E3DC1583E4DC1C
:104160001783F8DC1A83E1DC1B83A2DD1C83E7DC08
:104170002783EBBC2883C4B42B83A3C32C83E7B26F
:104180002D83FADC2F83F2DC3183EFDC3383FCDC1C
:104190003483EEDC3583F0D23683E8B23883D7C877
:1041A0003983E3C83A83FBDC3C83EDDC4083F7DCF6
:1041B0004383F5DC4683A3BE4783F4DC4983DDB249
:1041C0004F83F3DC5083F6BC5183E8DC5283C4BBDD
:1041D0005483F3C05A83D4BC5B83E9DC5C83EADCA0
:1041E0005E83F1DC5F83F6DC6083F9DC6183B4B568
:1041F0006383D9C86483E7BB6583FEDC6683FDDC2B
:104200006783ABD36883A1DD6983A3DD6A83A5DD02
:104210006B83F1D26C83A4DD6D83A6DD6E83A7DD95
:104220006F83A9D27783C9BA7883A9DD7B83B6DD92
:104230007C83B1DD7D83B4DD8583B0DD8683CEC62E
:104240008983F2C08E83AFC99283ECDC9383AEDDA9
:104250009883B7DD9B83F0DC9C83AFDD9E83B8DD64
:10426000A083ACDDA883B9DDA983B3DDAA83ADDD6E
:10427000AB83AAC4B083A8DDB183B3C0B283ABC1A2
:10428000B383AADDB483ABDDB683B2DDB783F1BB04
:10429000B883B5DDB983A8D3BA83BADDBC83BBDDEF
:1042A000BD83A7C3C083D2DDC183BCDDC583D1DD9F
:1042B000C783BDB9CA83D5BECC83FABECF83CABA81
:1042C000D483CADDD683C5DDD883BFDDDC83CBB222
:1042D000DD83C3DDDF83CBDDE083A4B2E183D5DD05
:1042E000E583BEDDE983D0C6EA83D0DDF083D4DD8B
:1042F000F183E2C1F283C6B7F883CEDDF983CFDD67
:10430000FD83C4DD0184BDDD0384CDDD0484D1CC17
:104310000684C9DD0B84C2DD0C84C8C30D84BCC611
:104320000E84AECE0F84CCDD1184C8DD1884C1DDCF
:104330001C84C6DD1D84DCC22484A9D32584AAD3B1
:104340002684D3DD2784F4CF2884F8C83184E6DDC1
:104350003884C7DD3C84E0DD3D84E4C24684E1DD91
:104360005184D7DD5784F8D65984D9DD5A84D8DDF5
:104370005B84F0B85C84D6DD6184CFC66384ADB65F
:104380006984E2DD6B84F9BA6C84E1D46D84E7DD85
:104390007184D0B47384DADD7584FBBF7684E3DD89
:1043A0007884DFDD7A84DDDD8284D9B58784DBDD46
:1043B0008884DCDD8984DEDD8B84AFBD8C84E4DD24
:1043C0008E84E5DD9784F5DD9984C9C39C84E2CBB6
:1043D000A184F2DDAF84E1D8B284D1C6B484F4DD27
:1043E000B884F4D5B984F3DDBA84F0DDBD84ECDDA6
:1043F000BF84EFDDC184E8DDC484EED0C984D8C8B1
:10440000CA84EEDDCD84E9DDD084EADDD184F2CB4F
:10441000D384EDDDD684CDB1DD84B6C0DF84BBBCF2
:10442000E084F1DDE384F7DDE584F6DDE684EBDDB1
:10443000EC84EEC5F084FBDDFC84A4DEFF84A3DE07
:104440000C85F8DD1185EFC31385FBC21785E1D517
:104450001A85B5CE1F85FDDD2185CCB22B85E8C43C
:104460002C85DFCA3785BEC73885FADD3985FCDD86
:104470003A85FEDD3B85A2DE3C85AAB03D85CEB106
:104480004385ACDE4885A6DE4985B6BD4A85EFC8C2
:104490005685A1DE5985A5DE5E85A9DE6485A8DE88
:1044A0006885A7DE7285ADDE7485CCD47985B3DEF0
:1044B0007A85AADE7B85AEDE7E85D9C08485A1B1F2
:1044C0008585B6DE8785B1DE8F85B2DE9B85A6D178
:1044D0009C85B5DEA485AFDEA885B0DEAA85BDD0FB
:1044E000AE85B4DEAF85EDCAB085B9DEB785B8DE7E
:1044F000B985B7DEC185BBDEC985E5BDCF85D8B23C
:10450000D085EAC3D385BADED585BAC5DC85BCDEE5
:10451000E485D9CCE985AAB7FB85E5D4FF85BDDE66
:104520000586BFDE1186A2C41686C1DE2786BEDEE2
:104530002986C0DE3886BAD53C86C2DE4D86AEF20C
:104540004E86A2BB4F86B2C25086B0C55186C7C246
:104550005486AFF25A86E9D05E86DDD36286BDEB23
:104560006B86E6B36C86B0F26E86B1F27186ADCA28
:104570007986E7BA7A86B3F27B86B5F27C86B4F2A6
:104580007D86E4CB7E86BACF7F86B2F28086B4CABF
:104590008186CFD28286ECC28A86C3CE8B86B8F261
:1045A0008C86F6B08D86B7F29386BEF29586CFB232
:1045B0009C86C1D19D86BAF2A386BCF2A486E9D4BA
:1045C000A786BBF2A886B6F2A986BFF2AA86BDF27C
:1045D000AC86B9F2AF86C7F2B086C4F2B186C6F235
:1045E000B486CAF2B586C2F2B686C0F2BA86C5F201
:1045F000C086FBD6C486C1F2C686F9C7C786DFC9A6
:10460000C986C8F2CA86C6B9CB86B0B5CE86C3F213
:10461000CF86C9F2D086D0F2D186D6F2D486D7BB67
:10462000D886D5F2D986DCCDDB86EBD6DE86D2F213
:10463000DF86D4F2E486F2B8E986CBF2ED86CEF2DC
:10464000EE86F9C2F086DDD5F186CCF2F286CDF2A7
:10465000F386CFF2F486D3F2F886D9F2F986BCD38A
:10466000FE86EAB60087F1CA0287E4B70387D7F26D
:104670000787D8F20887DAF20987DDF20A87DBF2CA
:104680000D87DCF21287D1D11387D1F21587C9CDFE
:104690001787CFCE1887A9D61A87E3F21C87DBC30A
:1046A0001E87E0F22187AFC02287ECF22387DEF27B
:1046B0002587E1F22987E8F22E87E2F23187E7F2D7
:1046C0003487E6F23787E9F23B87DFF23E87E4F290
:1046D0003F87EAF24787ACD34887E5F24987F5B2CE
:1046E0004C87F2F24E87ABD05387F5F25787C8BBA1
:1046F0005987F9F26087F0F26387F6F26487F8F27F
:104700006587FAF26E87F3F27087F1F27487FBBA6D
:104710007687FBB57B87EFF27C87F7F27D87EDF23A
:104720007E87EEF28287EBF28387A6F38587A3F379
:104730008887A2F38B87F4F28D87DAC89387FBF220
:104740009787A5F39F87F8C3A887FDF2AB87A7F3E8
:10475000AC87A9F3AD87A4F3AF87FCF2B387ABF3C3
:10476000B587AAF3BA87DDC2BD87AEF3C087B0F3C1
:10477000C687A1F3CA87B1F3CB87ACF3D187AFF378
:10478000D287FEF2D387ADF3DB87B2F3E087B4F3D1
:10479000E587A8F3EA87B3F3EE87B5F3F987B7D0D7
:1047A000FE87B8F30388F9D90A88B9F31388B7F3F9
:1047B0001588E4C81688B6F31B88BAF32188BBF3C2
:1047C0002288C0B43288C3EE3988BCF33C88BDF37C
:1047D0004088AAD14488ACF44588C6D04C88D0D053
:1047E0004D88DCD15488CECF5788D6BD5988C3D1E7
:1047F0006188E2BA6288E9E16388C2D26488C2F162
:104800006588B9B26888EDB16988C3F16B88C0C9A1
:104810006C88C4B36E88F2D97088A5CB7288C4F155
:104820007788D4D67D88C5F17E88C0F47F88C6F1AC
:104830008188ACD48288C7F18488C0B08588C1F4EF
:104840008888C2F48B88FCB48D88DBC59288BBCC89
:104850009688E4D09C88E0CDA288C8F1A488F3D9DA
:10486000AB88BBB1AD88AECFB188A4B8B788CAF168
:10487000BC88CBF1C188C3B2C288D1C1C588B0D7CA
:10488000C688C9F1C988CCF1CE88CEF1D288F6D9D4
:10489000D488E1D2D588A3D4D888C3F4D988B9C83C
:1048A000DF88C4F4E288CDF1E388CFF1E488E3BF88
:1048B000E588D0F1E888D4F1F088D6F1F188D1F11B
:1048C000F388D1C9F488E1C5F888E3C2F988FCB956
:1048D000FC88D3F1FE88D5F10289D3B90A89DBF1CE
:1048E0001089D6BA1289FDB01389D9F11989D8F186
:1048F0001A89D2F11B89DAF12189D7F12589ECC80F
:104900002A89CACD2B89DDF13089BDE53489DCF1F6
:104910003689DEF14189DFF14489E5CF5E89C5F44E
:104920005F89F3BD6689E0F17B89E1F17F89F7CE8C
:104930008189AAD28389FBF18689B2B8C189FBBC7F
:10494000C289DBB9C489E6B9C589D9C3C689D3CAC6
:10495000C789E8EAC889C0C0C989F5BECA89E9EA39
:10496000CB89EAEACC89EBEACE89ECEACF89EDEA99
:10497000D089EEEAD189EFEAD289C7BDD689FBF5A5
:10498000DA89FDF5DC89FEF5DE89FCF5E389E2BD17
:10499000E589A1F6E689A5B4EB89A2F6EF89A3F62D
:1049A000F389B2EC008AD4D1078AEAD93E8AA4F608
:1049B000488ABAEE798AB2D5898AFED38A8ADCCC53
:1049C000938AC4CA078BC0E5268BA5F6668BAFBE5B
:1049D0006C8BA9C6A08BA5DAA18BC6BCA28BA9B68D
:1049E000A38BBCB8A48BCFC8A58BA5BCA68BA6DA1D
:1049F000A78BA7DAA88BD6CCA98BC3C8AA8BA8DAB9
:104A0000AB8BFDC6AD8BB5D1AE8BE9D2AF8BB6D13A
:104A1000B08BC7BCB28BB2BDB38BE4BBB48BA9DA8D
:104A2000B58BAADAB68BC8D1B78BABDAB88BEDD021
:104A3000B98BEFB6BA8BDBC2BC8BCFCBBD8BEDB7DE
:104A4000BE8BE8C9BF8BC3B7C08BF7BEC18BA4D6E2
:104A5000C28BACDAC38BADDAC48BC0C6C58BE7D7CB
:104A6000C68BB6CAC88BA9D5C98BDFCBCA8BEFD58D
:104A7000CB8BAEDACC8BDFD6CD8BCAB4CE8BB0DA93
:104A8000CF8BAFDAD18BEBD2D28BB1DAD38BB2DA58
:104A9000D48BB3DAD58BD4CAD68BB4DAD78BABCA66
:104AA000D88BB5DAD98BB6DADA8BCFB3DB8BEFD60E
:104AB000DC8BB7DADD8BB0BBDE8BAEB5DF8BB8DA63
:104AC000E08BB9DAE18BEEB9E28BAFD1E38BE8D2C0
:104AD000E48BBADAE58BC3B8E68BEACFE78BEFB2AB
:104AE000E88BBBDAE98BBCDAEB8BEBBDEC8BDCCE75
:104AF000ED8BEFD3EE8BBDDAEF8BF3CEF08BBEDA1E
:104B0000F18BD5D3F28BE5BBF38BBFDAF48BB5CB4E
:104B1000F58BD0CBF68BC0DAF78BEBC7F88BEED6E4
:104B2000F98BC1DAFA8BB5C5FB8BC1B6FC8BC2DA47
:104B3000FD8BCCB7FE8BCEBFFF8BC3DA008CC4DA03
:104B4000018CADCB028CC5DA038CF7B5048CC6DAC8
:104B5000058CC2C1068CBBD7078CC7DA088CB8CCD1
:104B60000A8CEAD20B8CB1C40C8CC8DA0D8CFDB562
:104B70000E8CD1BB0F8CC9DA108CB3D0118CCADA71
:104B8000128CCBDA138CBDCE148CCCDA158CCDDA2A
:104B9000168CCEDA178CF7B2188CD1DA198CCFDAE2
:104BA0001A8CE8D11B8CD0DA1C8CD5C31D8CD2DAC0
:104BB0001F8CD3DA208CD4DA218CD5DA228CBBD0AE
:104BC000238CA5D2248CF9B0258CD6DA268CABC7E1
:104BD000278CD7DA288CF7BD298CA1C32A8CD8DA88
:104BE0002B8CD9DA2C8CFDC32D8CB7CC2E8CDADA39
:104BF0002F8CDBDA308CBEC0318CD7C6328CDCDA3D
:104C0000338CDDDA348CB4C7358CDEDA368CDFDAFF
:104C1000378CC8B9418CEDBB468CB9B6478CF8F4DB
:104C2000498CF9F44C8CE3CD558CB9F55A8CE0EBFA
:104C3000618CF3CF628CBFBB6A8CC0BA6B8CA5D47D
:104C4000738CD9E1788CF4F5798CAAB17A8CF2B2B4
:104C5000828CF5F5858CF7F5898CD1BA8A8CF6F5BE
:104C60008C8CB2C3948CF9F5988CF8F51D8DB4B189
:104C70001E8DEAD51F8DBAB8218DB1B9228DC6B26D
:104C8000238DF0D4248DCDCF258DDCB0268DCBD5D2
:104C9000278DF5BB288DCAD6298DB7B72A8DB0CC04
:104CA0002B8DB6C62C8DE1B12D8DBAB92E8DFCD6CB
:104CB0002F8DE1B9308DA1B7318DFABC328DDAEA92
:104CC000338DDBEA348DF9CC358DF3B9368DDCEAE2
:104CD000378DFBB4388DB3C3398DD1B73A8DD8BA7F
:104CE0003B8DDDEA3C8DF4D43D8DDEEA3E8DD6BCB5
:104CF0003F8DDFBB408DDFEA418DDEC1428DB8C202
:104D0000438DDFD4448DCAD7458DE0EA468DE1EA74
:104D1000478DE4EA488DE2EA498DE3EA4A8DDEC92F
:104D20004B8DB3B84C8DC4B64D8DE5EA4E8DEACAB5
:104D30004F8DCDC9508DCDB4538DD9E2548DE2C580
:104D4000558DE6EA568DB5C0588DB8D7598DE7EA2E
:104D50005A8DACD75B8DFCC85C8DD3D85D8DCDD81A
:104D60005E8DDED4608DF9D4618DC4C9628DAED301
:104D7000638DD3B8648DE0B3668DE2C9678DF6F4B8
:104D80006B8DD5BA6D8DF7F4708DDFD7738DF1F41F
:104D9000748DB0B8758DD4D5768DCFB8778DF0C6BB
:104DA000818DC3B3848DF2F4858DACB38A8DBDD46F
:104DB0008B8DF7C7918DF4F4948DF3F49F8DCBCC4C
:104DC000A38DA4C8B18DF5F4B38DE3D7B48DBFC561
:104DD000B58DC0F5B88DBBF5BA8DC3F5BC8DC2F5E8
:104DE000BE8DBAD6BF8DC1F5C38DBED4C48DC4F5FA
:104DF000C68DCCF5CB8DCFB0CC8DF8B5CE8DC9F5A9
:104E0000CF8DCAF5D18DDCC5D68DC5F5D78DC6F54C
:104E1000DA8DC7F5DB8DCBF5DD8DE0BEDE8DC8F517
:104E2000DF8DFAB8E38DD0F5E48DD3F5E88DE7BFDB
:104E3000EA8DF2B9EB8DBCF5EC8DCDF5EF8DB7C2F7
:104E4000F38DF8CCF58DF9BCF78DCEF5F88DCFF557
:104E5000F98DD1F5FA8DE5B6FB8DD2F5FD8DD5F541
:104E6000058EBDF5098ED4F50A8EBBD30C8EECB33E
:104E70000F8EA4CC148ED6F51D8ED7F51E8EE1BEF6
:104E80001F8ED8F5228EDFCC238EDBF5298EC8B29B
:104E90002A8ED9D72C8ED9F52E8EDAF52F8EDCF509
:104EA000318EE2F5358EE0F5398EDFF53A8EDDF59F
:104EB0003D8EE1F5408EDEF5418EE4F5428EE5F55E
:104EC000448EE3CC478EBFE5488EB8B5498EE3F5F6
:104ED0004A8EE8F54B8EA3CC518EE6F5528EE7F55F
:104EE000598EBEF5668EC4B1698EBFF56C8EC5B5A0
:104EF0006D8EE4B26F8EECF5708EE9F5728ED7B6DA
:104F0000748EEDF5768EEAF57C8EEBF57F8EDAB455
:104F1000818EEAD4858EEEF5878EF9B38F8EEFF50C
:104F2000908EF1F5948EF0F59C8EF2F59E8EF3F551
:104F3000AB8EEDC9AC8EAAB9AF8EFBC7B28EE3B60D
:104F4000BA8EC9CCCE8EA6EA668FB5B3678FFED473
:104F5000688FECB9698FF9D06B8FEDE96C8FAAD7A8
:104F60006D8FEEE96E8FD6C26F8FEDC8708FE4BA89
:104F7000718FEFE9728FF0E9738FF1E9748FE1D6E9
:104F8000758FF2E9768FF3E9778FF5E9788FF4E999
:104F9000798FF6E97A8FF7E97B8FE1C77C8FF8E9A3
:104FA0007D8FD8D47E8FF9E97F8FCEBD818FFAE9CE
:104FB000828FFBE9838FCFBD848FFCE9858FA8B8F2
:104FC000868FBEC1878FFDE9888FB2B1898FD4BB30
:104FD0008A8FF5B98B8FFEE98D8FA1EA8E8FA2EAB9
:104FE0008F8FA3EA908FF8B7918FADBC938FE4CAEF
:104FF000948FCEE0958FAFD4968FBDCF978FB7D5D6
:10500000988FA4EA998FDED59A8FA5EA9B8FC1D09D
:105010009C8FBCB99E8FC7B49F8FD9B1A38FB1C0ED
:10502000A88FE6B1A98FE7B1AB8FE8B1B08FBDB360
:10503000B18FE8C8B68FC1E5B98FDFB1BD8FC9C1E7
:10504000BE8FEFB4C18FA8C7C28FD8D3C48FF9C6A3
:10505000C58FB8D1C78FFDB9C88FF5C2CE8FADD37C
:10506000D08FCBD4D18FFCBDD38FC2E5D48FB5B751
:10507000D58FC3E5D88FB9BBD98FE2D5DB8FF8BD0B
:10508000DC8FB6D4DD8FA5CEDE8FACC1DF8FD9B378
:10509000E28FF6CCE48FC6E5E58FC4E5E68FC8E580
:1050A000E88FCAE5E98FC7E5EA8FCFB5EB8FC8C6B1
:1050B000ED8FFCB5EE8FC5E5F08FF6CAF38FC9E52D
:1050C000F78FD4C3F88FC5B1F98FA3BCFD8FB7D7C5
:1050D0000090CBCD0190CDCB0290CACA0390D3CC27
:1050E0000490CCE50590CBE50690E6C40990A1D1EB
:1050F0000A90B7D10B90CDE50D90D0E50F90B8CDCB
:105100001090F0D61190CFE51290DDB51490BECD81
:105110001690D1E51790BAB61A90A8CD1B90E4B9B5
:105120001D90C5CA1E90D1B31F90D9CB2090ECD44E
:105130002190D2E52290EAB72690CEE52D90D5E5D4
:105140002E90FEB42F90D6E53590D3E53690D4E579
:105150003890DDD23B90DFC23C90C6B13E90E2D3A6
:105160004190DDB64290ECCB4490D7E54790F6D322
:105170004D90E9B14F90F4B65090DAE55190D8E5F2
:105180005290D9E55390C0B55790C5D25890DCE500
:105190005B90DEE56290DDE56390B2C76590A3D2D7
:1051A0006890DBE56D90E2D46E90DAD57490E0E51E
:1051B0007590F1D77D90E1E57F90DCB18090FBD1D7
:1051C0008290E2E58390E4E58890E3E58B90E5E565
:1051D0009190D8D29390CBB59590DFE79790F5DA80
:1051E0009990F8DA9B90F6DA9D90F7DAA190FADAC6
:1051F000A290CFD0A390C7C4A690EEB0AA90B0D092
:10520000AC90F9DAAE90CAD3AF90AABAB090A2DB54
:10521000B190F1C7B390FCDAB490FBDAB590DBC97A
:10522000B690FDDAB890A1DBB990DED7BA90FEDA7D
:10523000BB90DAC1BE90A5DBC190F4D3C490A7DBCC
:10524000C590A4DBC790A8DBCA90BCBDCE90C9C0F6
:10525000CF90A3DBD090A6DBD190A3D6D390A9DBCF
:10526000D790ADDBDB90AEDBDC90ACDBDD90C2BA7F
:10527000E190A4BFE290ABDBE690AADBE790C7D455
:10528000E890BFB2EB90AFDBED90F9B9EF90B0DBF7
:10529000F490BBB3F890A6B5FD90BCB6FE90B1DB20
:1052A0000291F5B60491B2DB1991C9B11E91B4DB3C
:1052B0002291B3DB2391B5DB2F91B7DB3191B6DBC4
:1052C0003991B8DB4391B9DB4691BADB4991CFD331
:1052D0004A91FAF44B91F5C74C91C3D74D91E4C56F
:1052E0004E91FCF44F91FDF45091FBF45291C6BEE7
:1052F0005791EFD05A91D3B75D91CDD45E91AACC9E
:105300006191A2F56291A1F56391A8BA6491FEF44E
:105310006591D6CB6991A4F56A91D2C06C91EAB33C
:105320006E91AACD6F91A5F57091A3F57191B4BD61
:105330007291A8F57491A9F57591CDBD7691B8C318
:105340007791E1BF7891E1CB7991AAF57D91A6F5AE
:105350007E91A7F57F91F0C48591ACF58791BCB49F
:105360008991EDD78B91D7B48C91ABF58D91AEF53A
:105370009091ADF59191AFF59291D1D09A91D1C321
:105380009B91A9C8A291B0F5A391B1F5AA91B2F5EC
:10539000AD91B3F5AE91B4F5AF91B5F5B491B7F564
:1053A000B591B6F5BA91B8F5C791C9B2C991D4D340
:1053B000CA91CDCACC91EFC0CD91D8D6CE91B0D202
:1053C000CF91BFC1D191F0BDDC91AAB87492F8BC65
:1053D0008E92C6F6AE92C7F6C892C8F63E93C9F64C
:1053E0006A93CAF68F93CCF6CA93CBF6D693E9F7B5
:1053F0003E94CDF66B94CEF68594C4EE8694C5EEBD
:105400008794C6EE8894EBD58994A4B68A94C8EEA6
:105410008B94C7EE8C94C9EE8D94CAEE8E94A5C77A
:105420008F94CBEE9094CCEE9294B0B79394F6B563
:105430009494CDEE9594CFEE9794CEEE9994C6B811
:105440009A94D0EE9B94D1EE9C94D2EE9D94DBB6D0
:105450009E94AEB39F94D3D6A094C6C4A194B5B184
:10546000A294D6B8A394D3EEA494D4EEA594BFD4BA
:10547000A694D5C7A794FBBEA894D9CEA994B3B9D6
:10548000AA94D6EEAB94D5EEAC94D8EEAD94D7EE0C
:10549000AE94A5C5AF94D9EEB094DAEEB194AEC790
:1054A000B294DBEEB394AFC7B494DCEEB594A7B27C
:1054B000B694DDEEB794DEEEB894DFEEB994E0EE8C
:1054C000BA94E1EEBB94EAD7BC94E2EEBD94E3EE6D
:1054D000BE94D8BCBF94E4EEC094CBD3C194FACCB4
:1054E000C294ACB2C394E5C1C494E5EEC594A6C71A
:1054F000C694ADC3C894E6EEC994E7EECA94E8EE4C
:10550000CB94E9EECC94EAEECD94EBEECE94ECEEB7
:10551000D094EDEED194EEEED294EFEED594F0EE81
:10552000D694F1EED794F2EED894F4EED994F3EE4B
:10553000DB94F5EEDC94ADCDDD94C1C2DE94F6EEE5
:10554000DF94F7EEE094F8EEE194A1D5E294F9EE61
:10555000E394B3CFE494FAEEE594FBEEE794FCEE2B
:10556000E894FDEEE994A1EFEA94FEEEEB94A2EF4D
:10557000EC94F5B8ED94FAC3EE94A3EFEF94A4EF96
:10558000F094C2BDF194BFD2F294F9B2F394A5EFB6
:10559000F494A6EFF594A7EFF694F8D2F794A8EF59
:1055A000F894FDD6F994A9EFFA94CCC6FC94AAEF2E
:1055B000FD94ABEFFE94B4C1FF94ACEF0095FACF2D
:1055C0000195F8CB0295AEEF0395ADEF0495FAB3D4
:1055D0000595F8B90695AFEF0795B0EF0895E2D0BD
:1055E0000995B1EF0A95B2EF0B95E6B70C95BFD0D0
:1055F0000D95B3EF0E95B4EF0F95B5EF1095F1C87B
:105600001195E0CC1295B6EF1395B7EF1495B8EF5E
:105610001595B9EF1695BAEF1795E0D51895BBEF2C
:105620001995EDB41A95AAC31B95BCEF1D95BDEF56
:105630001E95BEEF1F95BFEF2195FDCE2295C0EFC1
:105640002395E0C22495B8B42595B6D72695F5BD27
:105650002895C7CF2995C3EF2A95C1EF2B95C2EFA7
:105660002C95C4EF2D95A7B62E95FCBC2F95E2BEC8
:105670003095CCC33195C5EF3295C6EF3495C7EF61
:105680003595CFEF3695C8EF3795C9EF3895CAEF06
:105690003995C2C73A95F1EF3B95CDB63C95CBEF26
:1056A0003E95CCEF3F95CDEF4095C6B64195BEC334
:1056B0004295CEEF4495D0EF4595D1EF4695D2EF88
:1056C0004795F2D54995D3EF4A95F7C44C95D4EF59
:1056D0004D95F8C44E95D5EF4F95D6EF5095E4B85B
:1056E0005195F7B05295D7EF5395D8EF5495D9EF20
:1056F0005695DAEF5795DBEF5895DCEF5995DDEFCE
:105700005B95DEEF5C95B5BE5D95E1EF5E95DFEFF5
:105710005F95E0EF6195E2EF6295E3EF6395CDC1B0
:105720006495E4EF6595E5EF6695E6EF6795E7EF3D
:105730006895E8EF6995E9EF6A95EAEF6B95EBEF0D
:105740006C95ECEF6D95D8C06F95EDEF7095ADC190
:105750007195EEEF7295EFEF7395F0EF7695E2CFDE
:105760007F95A4B3E895C5C3E995C5E3EA95C1C99A
:10577000EB95C6E3ED95D5B1EE95CACEEF95B3B4F2
:10578000F095F2C8F195C7E3F295D0CFF395C8E351
:10579000F495E4BCF595C9E3F695CAE3F795C6C35D
:1057A000F895A2D5F995D6C4FA95EBB9FB95C5CE77
:1057B000FC95CBE3FD95F6C3FE95CCE30096A7B729
:1057C0000196F3B80296D2BA0396CDE30496CEE3DF
:1057D0000596C4D40696CFE30896D0E30996CBD1BC
:1057E0000A96D1E30B96D2E30C96D3E30D96D4E35D
:1057F0000E96D6D10F96D5E31096FBB21196BBC08C
:105800001296D6E31496ABC01596D7E31696D8E356
:105810001796D9E31996DAE31A96DBE31C96B7B824
:105820001D96E2DA1F96D3B62196E4DA2296E3DAE1
:105830002A96E6DA2E96EEC83196E5DA3296C0B7A9
:105840003396F4D13496F5D23596F3D53696D7BD46
:105850003B96E8D73C96E8DA3D96E7DA3F96A2B069
:105860004096D3CD4296E9DA4496BDB84596CABC77
:105870004696BDC24796A4C24896C2B34996EADA94
:105880004B96AAC24C96B0C44D96B5BD5096DECF8D
:105890005496EBDA5596C2C95B96DDB15F96ECDAA9
:1058A0006196B8B66296BAD46496FDB36796EDDA9F
:1058B0006896C9D46996D5CF6A96E3C56C96EEDA38
:1058C0007296EFDA7496F0DA7596EAC17696D5CCD0
:1058D0007796DDCF8596E7D38696A1C28896F1DAD2
:1058E0008B96E5CB8D96F2DA8F96E6CB9096FED22C
:1058F0009496F4B89796F3DA9896AFB09996B6CF97
:105900009C96CFD5A796EDCBB096F4DAB396C4E3C8
:10591000B696A5C1B996BFF6BC96C0F6BD96C1F6BF
:10592000BE96D1C4C096B8C8C196E3D1C496DBD0A8
:10593000C596C5D1C696AFBCC796CDB9C996F4EF8A
:10594000CC96C6B4CD96BAD3CE96C2F6CF96FBB35C
:10595000D296C3F6D596F1B5E096C5F6E896EAD3A9
:10596000E996A7F6EA96A9D1EF96A9F6F396A8F6D6
:10597000F696E3C1F796D7C0F996A2B1FE96EDCEA2
:105980000097E8D00197ABF60497F6CF0697AAF6F2
:105990000797F0D50897ACF60997B9C30D97F4BBF4
:1059A0000E97AEF60F97ADF61397DEC41697D8C1D3
:1059B0001C97AACB1E97BCCF2A97AFF62D97B0F6AF
:1059C0003097B1F63297B6C23897D4B03997F9C547
:1059D0003E97B2F65297E0C75397A6F65697B8BED1
:1059E0005997B2BE5B97E5B55E97C7B76097BFBFE3
:1059F0006197D2C36297E6C36597CCD86997EFB831
:105A00007397F9BD7497A5D17697D0B07C97B0F70E
:105A10008597B1F78B97ACD08D97B0B09197B2F7CF
:105A20009297B3F79497B4F79897CAC7A097CFBE49
:105A3000A397B7F7AB97B6F7AD97DEB1AF97B5F7CA
:105A4000B297B8F7B497B9F7E697A4CEE797CDC861
:105A5000E997ABBAEA97B8E8EB97B9E8EC97BAE8F8
:105A6000ED97C2BEF397F4D2F597CFD4F697D8C985
:105A70007598B3D27698A5B67798EAC77898FCF16E
:105A80007998EECF7A98B3CB7B98EBD07C98EFE700
:105A90007D98E7CD7E98CBB97F98D9B68098FDF1F7
:105AA0008198E4B08298CCCB8398FEF18498A4D4FA
:105AB0008598ADC28698ECC18798C4C68898B1BE57
:105AC0008998A1F28A98D5BC8C98A2F28D98A3F2FD
:105AD0008F98A4F29098C3D29198B5C69398C7CDE9
:105AE0009498A5F29698B1D39798C5BF9898E2CCB0
:105AF0009A98A6F29B98A7F29C98D5D19D98EEB65D
:105B00009E98A8F29F98A9F2A098DFB5A198AAF252
:105B1000A298ABF2A498FCB2A598ACF2A698ADF20C
:105B2000A798A7C8CE98E7B7D198A9ECD298AAECC5
:105B3000D398ABECD598ACECD898AEC6D998ADEC70
:105B4000DA98AEECDE98C9B7DF98B3CAE798B8E246
:105B5000E898CFF70D99D0F71099CDB22E99D1F7DB
:105B60005499D3F75599D2F76399BBE26599A2BCD2
:105B70006799BCE26899BDE26999BEE26A99BFE2A1
:105B80006B99C0E26C99C1E26D99B9B76E99FBD27D
:105B90006F99A4BD7099CECA7199A5B17299C7CBFE
:105BA0007499C2E27599FCB67699C4C87799C3E234
:105BB0007A99C8BD7C99FDB17D99C4E27F99F6B60A
:105BC0008099C5E28199D9C48499C6E28599DACFD2
:105BD0008699DDB98799C7E28899A1C08A99C8E2F8
:105BE0008B99F6B28D99C9E28F99F3C19099CAE267
:105BF0009199CBE29299F8C29399CCE29499CDE233
:105C00009599CEE29699D7CA9799B8D89899E5D937
:105C10009999E3CFA599A5F0A899B0DC6C9AEDC24B
:105C20006D9AA6D46E9AD4CD6F9AB1D1709ADBB327
:105C3000719AFDC7739AB5B2749ABFC2759AE0E6BD
:105C4000769ABBCA779AE1E6789AE2E6799AD4BE68
:105C50007A9AE3E67B9AA4D77C9AD5CD7D9AE5E63D
:105C60007E9ADDBC7F9AE4E6809AE6E6819AE7E6D2
:105C7000829AEEC2849ABEBD859AE8E6869AE6C20A
:105C8000879AA7BA889AE9E68A9AEAE68B9AD2B303
:105C90008C9AE9D18F9AA5BF909AEBE6919AEFC6BC
:105CA000929AECE6939AEDE6969AEEE6979AADC64E
:105CB000989AEFE69A9AA7C99B9AF0E69C9AF1E621
:105CC0009D9AF2E69E9AB9E59F9AF3E6A09AF4E6C9
:105CD000A19AE2C2A29AF5E6A39AF6E6A49AE8D6B9
:105CE000A59AF7E6A79AF8E6A89AC7B9B09ABBF7BB
:105CF000B19ABAF7B69ABEF7B79ABCF7B89AA1BAF2
:105D0000BA9ABFF7BC9AC0F7C09AC2F7C19AC1F756
:105D1000C29AC4F7C59AC3F7CB9AC5F7CC9AC6F70F
:105D2000D19AC7F7D39AE8CBD89ADFB8DF9AD4F7DD
:105D3000E19AD5F7E69AD6F7EB9AD8F7ED9ADAF723
:105D4000EF9AD7F7F99ADBF7FB9AD9F7039BD7D7E6
:105D5000089BDCF70F9BDDF7139BDEF71F9BDFF73C
:105D6000239BE0F72F9BCBDB329BAAD83B9BF7E52D
:105D70003C9BEDB9419BFDBF429BEABB439BC9F7EE
:105D8000449BC7C6459BC8F7479BCAF7489BCCF7BF
:105D9000499BCBF74D9BCDF74F9BBACE519BCEF78E
:105DA000549BA7C47C9CE3D37F9CCFF6819CB3C259
:105DB000829CD0F6859CD1F6869CD2F6879CD3F641
:105DC000889CD4F68B9CD6F68D9CABB18E9CD7F676
:105DD000909CD8F6919CD9F6929CDAF6949CDBF6CE
:105DE000959CDCF69A9CDDF69B9CDEF69C9CCACFCB
:105DF0009E9CDFF69F9CE0F6A09CE1F6A19CE2F65B
:105E0000A29CE3F6A39CE4F6A49CF0C0A59CE5F656
:105E1000A69CE6F6A79CE7F6A89CE8F6A99CE9F6FE
:105E2000AB9CEAF6AD9CEBF6AE9CECF6B09CEDF6C6
:105E3000B19CEEF6B29CEFF6B39CF0F6B49CF1F692
:105E4000B59CF2F6B69CF3F6B79CF4F6B89CA8BEE7
:105E5000BA9CF5F6BB9CF6F6BC9CF7F6BD9CF8F632
:105E6000C39CFAC8C49CF9F6C59CFAF6C69CFBF61E
:105E7000C79CFCF6CA9CFDF6CB9CFEF6CC9CA1F719
:105E8000CD9CA2F7CE9CA3F7CF9CA4F7D09CA5F7FE
:105E9000D39CA6F7D49CA7F7D59CA8F7D69CEEB1C7
:105EA000D79CA9F7D89CAAF7D99CABF7DC9CACF798
:105EB000DD9CADF7DE9CDBC1DF9CAEF7E29CAFF76B
:105EC0001F9EF1C4209EAFF0219EA6BC229EB0F082
:105ED000239EF9C3259EB8C5269EBBD1289EB1F04E
:105EE000299EB2F02A9EB3F02B9EB4F02C9EB5F002
:105EF0002D9EBCD12F9EECD1319EB7F0329EB6F0D4
:105F0000339EA7D4359ED2CD369EB8F0379EBAF0D8
:105F1000389EB9F0399EBBF03A9EBCF03D9EEBB87E
:105F20003E9EBDF03F9EE8BA419EBEF0429EBFF04D
:105F3000439EE9BE449EC0F0459EECB6469EC1F02D
:105F4000479EC2F0489EC3F0499EC4F04A9EB5C821
:105F50004B9EC5F04C9EC6F04E9EC7F04F9EF4C5BA
:105F6000519EC8F0559EC9F0579ECAF0589EBDF785
:105F70005A9ECBF05B9ECCF05C9ECDF05E9ECEF048
:105F8000639ECFF0649ED7BA669ED0F0679ED1F034
:105F9000689ED2F0699ED3F06A9ED4F06B9ED5F0D5
:105FA0006C9ED6F06D9ED8F0709EA5D3719ED7F0F2
:105FB000739ED9F07E9EBAF57F9EB9C2829EE4F7A9
:105FC000879EE5F7889EE6F78B9EE7F7929EE8F7B7
:105FD000939EB4C29D9EEAF79F9EEBF7A69EF3C2E6
:105FE000B49EF0F4B89EEFF4BB9EE9C2BD9EE1F70B
:105FF000BE9EE2F7C49EC6BBC99EE4D9CD9EF2CA3E
:10600000CE9EE8C0CF9EA4F0D19EDABAD49EADC792
:10601000D89EACC4DB9EECF7DC9EEDF7DD9EEEF780
:10602000DF9EF0F7E09EEFF7E29EF1F7E59EF4F7D2
:10603000E79EF3F7E99EF2F7EA9EF5F7EF9EF6F793
:10604000F99EE9EDFB9EEAEDFC9EEBEDFE9EBCF6B3
:106050000B9FBDF60D9FBEF60E9FA6B6109FBED835
:10606000139FC4B9179FBBD8199FB1DC209FF3CAF7
:10607000229FF7F72C9FF8F72F9FF9F7379FFBF731
:10608000399FFAF73B9FC7B13D9FFCF73E9FFDF755
:10609000449FFEF7509FEBC6519FB4EC7F9FDDB34A
:1060A000809FB3F6839FB4F6849FE4C1859FB5F6C5
:1060B000869FB6F6879FB7F6889FB8F6899FB9F690
:1060C0008A9FBAF68B9FA3C88C9FBBF6999FFAC193
:1060D0009A9FA8B99B9FE8ED9F9FEAB9A09FDFD93F
:1060E00010E8FAD711E8FBD712E8FCD713E8FDD780
:1060F00014E8FED791C10008000000000063010809
:10610000D0070000A1C30008000000003C630108A4
:10611000D007000049C8000800000000D46301084F
:10612000D007000079CB000800000000B063010830
:10613000D00700003DB8000800380140A063010806
:10614000D0070000D9C5000800000000F063010876
:10615000D007000025CC000800000000E063010823
:10616000A00F0000E5C6000800000000F064010870
:10617000D007000011C9000800000000C864010831
:10618000D00700009DCA000800000000C06301089D
:10619000D007000000000000000000000000000028
:1061A000000000000348000000100140080000004B
:1061B0000310000000100140040000000000000077
:1061C000000000000000000002100000000C014070
:1061D0000730000002100000001001400003000022
:1061E0000348000000100140C00000000328000028
:1061F00000080140010000000348000000080140C1
:1062000000010000034800000010014003000000EE
:1062100003040000000C01403000000000000000FA
:106220000000000000000000CDA8B5C05B315DCAD1
:10623000B5CAB1CAFDBEDD3A252E3266A1E62F25CC
:1062400025000000CDA8B5C05B325DCAB5CAB1CA91
:10625000FDBEDD3A252E3266A1E62F252500000081
:10626000CDA8B5C05B315DB1A8BEAFCFC2CFDE3A1D
:10627000252E3266A1E62F2525000000CDA8B5C049
:106280005B325DB1A8BEAFCFC2CFDE3A252E3266FB
:10629000A1E62F2525000000CDA8B5C05B315DB17A
:1062A000A8BEAFC9CFCFDE3A252E3266A1E62F2594
:1062B00025000000CDA8B5C05B325DB1A8BEAFC956
:1062C000CFCFDE3A252E3266A1E62F25250000002D
:1062D000CDA8B5C05B315DD0DED5FD3A252E326646
:1062E000A1E62F2525000000CDA8B5C05B325DD00A
:1062F000DED5FD3A252E3266A1E62F2525000000C9
:106300005461736B300000004F4B0000CDA8B5C046
:106310005B335DB5E7B3D8B5E7D1B93A252E326620
:1063200056000000303132333435363738392E2DAF
:106330002055504654424F48435800005461736BF7
:1063400046756E6300000000B4F2D3A1B9FDC2CB64
:10635000C6F728C4ACC8CF31293A25640000000034
:10636000B6CCD0C5D1D3B3D928B7D6293A25640045
:10637000BCC7C2BCD6DCC6DA28B7D6293A25640029
:10638000C9CFB4ABD6DCC6DA28C3EB293A25640002
:10639000B7FECEF1B6CBBFDABAC53A25640000002D
:1063A00053656E736F725F436F6D6D616E64000055
:1063B0005461736B5F4B6579426F617264000000DA
:1063C0005461736B5F486973746F72795265636F60
:1063D000726400005461736B5F4661636500000086
:1063E0005461736B5F47505253537769746368000D
:1063F0005461736B506C616E000000004D51545439
:10640000D0ADD2E9D6A7B3D62854727565293A25FE
:10641000730000004454483131B4ABB8D0C6F728FB
:1064200054727565293A257300000000B4F2D3A1B7
:10643000B1EACCE228B1EACDB7293A2573000000D1
:10644000B5C7C2BCB0FC28D0F2C1D0BAC5293A2524
:1064500073000000B4F2D3A1C3FB28D3C3BBA7C30E
:10646000FB293A2573000000B1A8BEAFCDA8D6AA7B
:10647000B5E7BBB05B315D3A25730000B7FECEF1E6
:10648000C6F7B5D8D6B75B315D3A2573000000007A
:10649000B1A8BEAFCDA8D6AAB5E7BBB05B325D3A16
:1064A00025730000B1A8BEAFCDA8D6AAB5E7BBB092
:1064B0005B335D3A25730000BCECB2E2B5BD5349D5
:1064C0004DBFA83A257300005461736B5F4770732A
:1064D00000000000CDA8B5C05B345D47505253D0DA
:1064E000C5BAC5C7BFB6C83A256461737500000058
:1064F0005461736B5F41727261727900B2CBB5A562
:1065000000000000D6D8C6F4C9E8B1B80000000009
:10651000B6C1C8A1C5E4D6C300000000B1A3B4E66B
:10652000C5E4D6C300000000486501080000002053
:10653000BC0000002CEA000804660108BC00002032
:106540008CA100003CEA00080000000001020304E6
:1065500001020304060708090204060800A24A040F
:106560000000000000000000010203040607080903
:10657000000000000000000000000000000000001B
:10658000000000000000000000000000000000000B
:1065900000000000000000000000000000000000FB
:1065A00000000000000000000000000000000000EB
:1065B00000000000000000000000000000000000DB
:1065C00000000000FF00FFFFFFFFFFFF2463010842
:1065D00000020000000C014000020000000C01401D
:1065E0000863010800FF0FFF00000000000000002A
:1065F00000FF00FF0000000000000000000000009D
:046600000000000096
:04000005080051316D
:00000001FF
