:020000040800F2
:10000000B0A10020450100080917000807160008E4
:100010009D16000819020008592D00080000000074
:10002000000000000000000000000000951B000818
:10003000250D000800000000951700087D1C000831
:100040005F0100085F0100085F0100085F01000810
:100050005F0100085F0100085F0100085F01000800
:100060005F0100085F0100085F0100085F010008F0
:100070005F0100085F0100085F0100085F010008E0
:100080005F0100085F0100085F0100085F010008D0
:10009000212D00085F0100085F0100085F010008D2
:1000A0005F0100085F0100085F0100085F010008B0
:1000B0005F0100085F0100085F0100085F010008A0
:1000C0005F0100085F0100085F0100085F01000890
:1000D0005F01000815270008692700085F01000874
:1000E0005F0100085F010008152D00085F0100088E
:1000F0005F0100085F0100085F0100085F01000860
:100100005F0100085F0100085F0100085F0100084F
:100110006D260008C12600085F0100085F01000885
:100120005F0100085F0100085F0100085F0100082F
:10013000DFF80CD000F018F8004800477D2D0008CB
:10014000B0A100200648804706480047FEE7FEE7CA
:10015000FEE7FEE7FEE7FEE7FEE7FEE7FEE7FEE777
:10016000851C000831010008064C074D06E0E068D8
:1001700040F0010394E8070098471034AC42F6D3EE
:10018000FFF7DAFF103000083030000882B02DE9A8
:10019000FF1FEFF3038001B4684600F1400000E95F
:1001A00001400C480168C1F800D00B48D0F800D0DD
:1001B00001BC80F30388BDE8FF1F01B000BD064805
:1001C000D0F800D001BC80F30388BDE8FF1F01B068
:1001D00000BD00003C0000203800002006E04FF485
:1001E0007A7100BF0A00A1F10101FBD10200A0F168
:1001F0000100F4D17047F0B5034600201C460D46BF
:10020000104603E014F8016B05F8016B1600A2F12B
:100210000107BAB2F6D1F0BD00BFFEE708B5012173
:10022000842001F0D9FA48208DF803004FF40060D3
:10023000ADF800006946084801F09AF818208DF8DA
:10024000030001208DF802000003ADF800006946AC
:10025000014801F08DF808BD0008014008B51420E0
:100260008DF8000000208DF801008DF802000120BB
:100270008DF80300684601F049FA08BDB1F5007F2A
:100280003AD00FDC202928D006DC01291CD0042913
:100290001DD0082940D11DE0402921D0B1F5807F33
:1002A0003AD126E0B1F5004F31D006DCB1F5806FD0
:1002B00025D0B1F5006F2FD124E0B1F5803F12D0E9
:1002C000B1F5003F28D111E0154A826025E00822EF
:1002D000C26022E01022C2601FE0082202611CE01E
:1002E0001022026119E00822426016E010224260EA
:1002F00013E00422426010E0042242600DE0042278
:1003000042600AE0002282610422426005E000228D
:1003100082610422426000E000BF00BF704700001D
:100320000101010010B504460B48844209D10121A6
:10033000480601F041FA00214FF0007001F03CFA4C
:1003400008E00121880601F037FA00214FF08060B3
:1003500001F032FA10BD00000064004010B5002129
:10036000837A012202FA03F13D4A126842F0010247
:100370003B4B1A603A4A1C3212688A43384B1C3392
:100380001A60027BCAB9364A0C3212688A43344B6F
:100390000C331A604288C38842EA0343304A403231
:1003A000847A42F834300288838842EA03432C4A34
:1003B0004032847A02EBC4025360027B012A19D1D5
:1003C000274A0C3212680A43254B0C331A604288C4
:1003D000038842EA0343224A4032847A42F83430A6
:1003E000C288838842EA03431D4A4032847A02EB82
:1003F000C4025360C27A3AB9194A121D12688A437C
:10040000174B1B1D1A6006E0154A121D12680A439D
:10041000134B1B1D1A60028932B9114A143212683B
:100420008A430F4B14331A600289012A06D10C4A01
:10043000143212680A430A4B14331A60427B012AB1
:1004400006D1074A1C3212680A43054B1C331A6056
:10045000034A126822F00102014B1A6010BD00002D
:100460000066004070B504460D46002660692842CB
:1004700071D0B5F5807F5CD010DC082D35D006DC5E
:10048000012D20D0022D24D0042D72D127E0102D73
:1004900031D0202D35D0402D6BD138E0B5F5004F4F
:1004A00060D009DCB5F5007F49D0B5F5806F4CD040
:1004B000B5F5006F5DD14FE0B5F5803F2DD0B5F5B6
:1004C000003F56D12FE0A0682D4900F015FC0646EC
:1004D00051E0E068032100F00FFC06464BE0E068C5
:1004E000082100F009FC064645E0E068102100F014
:1004F00003FC06463FE02069032100F0FDFB0646B1
:1005000039E02069082100F0F7FB064633E0206956
:10051000102100F0F1FB06462DE06068082100F094
:10052000EBFB064627E06068102100F0E5FB06467D
:1005300021E0A069012100F0DFFB06461BE0A06975
:10054000022100F0D9FB064615E0A069042100F065
:10055000D3FB06460FE00FE0A069702100F0CCFB52
:10056000064608E06068042100F0C6FB064602E08B
:10057000FFE7002600BF00E00026304670BD000007
:10058000010101001AB143690B43436102E0436971
:100590008B434361704730B5024600200023146846
:1005A00024F002041460146844F00104146000E0B4
:1005B0005B1C546814F0010F03D1A3F57F44FF3C8A
:1005C000F6D1546814F0010F01D100206CE08C7951
:1005D000012C04D1146844F08004146003E0146812
:1005E00024F080041460CC79012C04D1146844F008
:1005F0004004146003E0146824F0400414600C7A92
:10060000012C04D1146844F02004146003E0146841
:1006100024F0200414604C7A012C04D1146844F0B6
:100620001004146003E0146824F0100414608C7A41
:10063000012C04D1146844F00804146003E0146829
:1006400024F008041460CC7A012C04D1146844F01E
:100650000404146003E0146824F0040414608C782B
:10066000A407CD7844EA05640D7944EA05444D7940
:1006700044EA05540D886D1E2C43D461146824F09F
:1006800001041460002300E05B1C546814F0010FA7
:1006900003D0A3F57F44FF3CF6D1546814F0010F5A
:1006A00001D0002000E0012030BD000070B50446FC
:1006B0001021444800F02EFF2068632837D006DC64
:1006C00060280DD0612818D0622878D122E09028C7
:1006D0006DD0B0F5E07F44D0B0F5287F6FD133E026
:1006E000012104F10B0000F07BFF37490883084625
:1006F000006840F00200086062E0012104F10B0094
:1007000000F06EFF304948830846006840F004005E
:10071000086055E0012104F10B0000F061FF2A4957
:1007200088830846006840F00800086048E001211E
:1007300004F10B0000F054FF2349C8830846006809
:1007400040F0100008603BE0012104F10B0000F0D4
:1007500047FF1D49C8800846006840F02000086037
:100760002EE0E07AC043C5B215F0010F06D016485E
:10077000006840F400501449086005E01248006821
:1007800020F400501049086015F0040F06D00E4800
:10079000006840F480400C49086005E00A480068A1
:1007A00020F48040084908600AE008E0FFE704F10F
:1007B0000B0002F0CDFAC0430449486000E000BFDE
:1007C00000BF70BD00180140D8000020C800002004
:1007D00010B500F5D87303EB01131B6803F0040395
:1007E0001372137A53B900F5D87303EB01131B6826
:1007F00040F2FF7404EA5353136009E000F5D87324
:1008000003EB01131B686FF0604404EAD3035360E9
:1008100000F5D87303EB01131B6803F00203537256
:1008200000F5D87303EB01135B6803F00F039372B9
:1008300000F5D87303EB01135B681B0AD37400F552
:10084000D87303EB01139B68D37200F5D87303EBE5
:1008500001139B681C0A147300F5D87303EB011392
:100860009B681C0C547300F5D87303EB01139B6851
:100870001B0E937300F5D87303EB0113DB68D3737E
:1008800000F5D87303EB0113DB681C0A147400F540
:10089000D87303EB0113DB681C0C547400F5D87398
:1008A00003EB0113DB681B0E937421B9C36843F09B
:1008B0002003C36003E0036943F02003036110BD1C
:1008C0001FB500208DF80A008DF80B0001208DF86F
:1008D0000C000020ADF80000ADF80400ADF80200F7
:1008E000ADF80600ADF8080001208DF80D0068464F
:1008F000FFF734FD1FBD00000EB5FFF7AFFCFFF79B
:100900008DFC0121480600F047FF1748FFF70AFD5C
:10091000684600F02BF800208DF806008DF80700DF
:100920008DF8080001208DF8090000208DF80A00DC
:100930008DF80B008DF802008DF8030007208DF86C
:10094000040006208DF805000920ADF80000694676
:100950000548FFF720FE012202210348FFF712FE9F
:10096000FFF7AEFF0EBD0000006400400021817162
:10097000C171017241728172C1728170C1700321B3
:1009800001710221417101210180704770B5044657
:10099000002529466D1C01208840204204D04021BA
:1009A000CB4800F0B9FD03E04021C94800F0B2FD9A
:1009B0002846691CCDB2012101FA00F0204204D082
:1009C0008021C34800F0A8FD03E08021C04800F06A
:1009D000A1FD2846691CCDB2012101FA00F0204298
:1009E00004D00902BA4800F097FD04E04FF480718A
:1009F000B74800F08FFD2846691CCDB2012101FAED
:100A000000F0204204D04902B14800F085FD04E026
:100A10004FF40071AE4800F07DFD2846691CCDB250
:100A2000012101FA00F0204204D00902A94800F097
:100A300073FD04E04FF48071A64800F06BFD28467A
:100A4000691CCDB2012101FA00F0204204D0C90393
:100A5000A04800F061FD04E04FF400419D4800F023
:100A600059FD2846691CCDB2012101FA00F020424F
:100A700004D08902964800F04FFD04E04FF48061F5
:100A8000934800F047FD2846691CCDB2012101FAC8
:100A900000F0204204D0C9028D4800F03DFD04E082
:100AA0004FF400618A4800F035FD2846691CCDB23C
:100AB000012101FA00F0204204D00903844800F02B
:100AC0002BFD04E04FF48051814800F023FD2846BF
:100AD000691CCDB2012101FA00F0204203D07E480A
:100AE00000F01AFD03E001217B4800F013FD2846C9
:100AF000691CCDB2012101FA00F0204204D002218C
:100B0000754800F009FD03E00221734800F002FD82
:100B10002846691CCDB2012101FA00F0204204D020
:100B200004216D4800F0F8FC03E004216A4800F05D
:100B3000F1FC2846691CCDB2012101FA00F02042E7
:100B400004D00821644800F0E7FC03E00821624873
:100B500000F0E0FC2846691CCDB2012101FA00F04A
:100B6000204204D010215C4800F0D6FC03E01021A4
:100B7000594800F0CFFC2846691CCDB2012101FA8A
:100B800000F0204204D02021534800F0C5FC03E0CF
:100B90002021514800F0BEFC2846691CCDB201213D
:100BA00001FA00F0204204D040214B4800F0B4FC90
:100BB00003E04021484800F0ADFC2846691CCDB256
:100BC000012101FA00F0204204D08021424800F0C7
:100BD000A3FC03E08021404800F09CFC2846691CEF
:100BE000CDB2012101FA00F0204204D008213B4897
:100BF00000F092FC03E00821384800F08BFC284606
:100C0000691CCDB2012101FA00F0204204D010216C
:100C1000324800F081FC03E01021304800F07AFCFB
:100C20002846691CCDB2012101FA00F0204204D00F
:100C300020212A4800F070FC03E02021274800F022
:100C400069FC2846691CCDB2012101FA00F020425E
:100C500004D04021214800F05FFC03E040211F4800
:100C600000F058FC2846691CCDB2012101FA00F0C1
:100C7000204204D08021194800F04EFC03E080217E
:100C8000164800F047FC2846691CCDB2012101FA44
:100C900000F0204204D00902104800F03DFC04E0BE
:100CA0004FF480710D4800F035FC2846691CCDB228
:100CB000012101FA00F0204204D04902074800F067
:100CC0002BFC04E04FF40071044800F023FC70BDDD
:100CD000001001400008014000140140000C0140D8
:100CE00010B504460348046101460869FFF74EFE4B
:100CF00010BD0000D8000020024600200A4201D0AA
:100D0000012000E00020704770B504460E462546DD
:100D10002E802888001F81B2201D01F035F86880E0
:100D200070BD70477047000010B500201A49087068
:100D30004FF4A07000F0C2FC18490860002406E0DF
:100D4000FF201749085517490855601CC4B2052CE7
:100D5000F6DB00241DE000201049096801EB441176
:100D6000486103200D49096801EB44110872002015
:100D70000A49096801EB441108610849096801EB57
:100D80004411C8600549096801EB44118861601C81
:100D9000C4B20A2CDFDB10BD580000205C0000202C
:100DA000160000201B000020244800782449087009
:100DB00022480078401C2149087022A02349096874
:100DC0001F4A127801EB4211086000211F48006899
:100DD0001B4A127800EB4210417103201B4909683D
:100DE000174A127801EB4211C871012117480068B7
:100DF000134A127800EB4210017215481349096832
:100E00000F4A127801EB4211486100200F4909682E
:100E10000B4A127801EB4211C86000210B480068B0
:100E2000074A127800EB4210016108480068044A42
:100E3000127800EB421081617047000058000020DA
:100E40001500002043414E31000000005C000020EE
:100E5000F9080008284800782849087026480078D2
:100E6000401C254908702548007825490968234A0F
:100E7000127801EB4211087122A0214909681F4A2A
:100E8000127801EB4211086000201D4909681B4AD5
:100E9000127801EB42114871032019490968174A79
:100EA000127801EB4211C871012115480068134AFC
:100EB000127800EB421001721349114800680F4A82
:100EC000127800EB4210416100200D4909680B4A7D
:100ED000127801EB4211C860002109480068074AF6
:100EE000127800EB4210016105480068034A12784D
:100EF00000EB421081617047580000206400002020
:100F00005C000020435452009D12000828480078DD
:100F10002849087026480078401C25490870254853
:100F2000007825490968234A127801EB42110871BB
:100F300022A0214909681F4A127801EB421108607A
:100F400000201D4909681B4A127801EB42114871C3
:100F5000032019490968174A127801EB4211C87138
:100F6000012115480068134A127800EB4210017203
:100F70001349114800680F4A127800EB4210416192
:100F800000200D4909680B4A127801EB4211C86034
:100F9000002109480068074A127800EB42100161FD
:100FA00005480068034A127800EB421081617047DF
:100FB00058000020650000205C00002043545200CF
:100FC0001D15000870B50546284601F04DFD044684
:100FD0005F48005DFF2808D15E4800785C490855ED
:100FE0005C480078401C5B4908705BA05849095D6B
:100FF0005B4A126802EB4111086000205449095D08
:10100000574A126802EB4111487101205049095DAD
:10101000534A126802EB4111C87103204C49095D23
:101020004F4A126802EB411108724E484849095D67
:101030004B4A126802EB411148614548005D48493E
:10104000096801EB4010C46147494148005D444ACA
:10105000126802EB4010C16044483D49095D404AB6
:10106000126802EB4111086100213948005D3C4AD9
:10107000126802EB4010816100203D4921F8140004
:101080004FF4967000F01AFB3A4941F824002846C4
:1010900001F0EAFC04463848005DFF2808D12D48DD
:1010A0000078354908552B480078401C29490870BC
:1010B00029A03149095D2A4A126802EB41110860F2
:1010C00000202D49095D264A126802EB4111487142
:1010D00001212948005D224A126802EB4010C171CB
:1010E00003202549095D1E4A126802EB411108726E
:1010F0001C492148005D1A4A126802EB4010416108
:101100001D48005D1649096801EB4010C46116488E
:101110001949095D124A126802EB4111C86013486F
:101120001549095D0E4A126802EB41110861002061
:101130001149095D0A4A126802EB411188614FF4B6
:10114000967000F0BBFA0D4941F8240070BD000014
:101150001B000020580000205553415254780000D5
:101160005C00002011280008D52C0008112C000874
:10117000A000002078000020160000208C00002035
:1011800010B503211DA0FFF7CCFD002433E0224859
:10119000006800EB4410406958B31F48006800EB3A
:1011A0004410C079012804D0022815D003281FD18B
:1011B0000BE0194A126802EB4412107F164A1268BB
:1011C00002EB44125169884712E01349096801EBA8
:1011D0004411486980470BE00F4A126802EB441241
:1011E000D0690D4A126802EB44125169884700BF6A
:1011F00000BF601CC4B20A2CC9DB10BD546F732041
:1012000044657669636520496E69742E2E2E2E2EF4
:101210002E2E2E2E2E0000005C00002001490860BA
:1012200070470000140401402DE9F04104460E46C9
:10123000042E02D20020BDE8F08125462888B04265
:1012400001D00020F7E72888001F81B2201D00F0A0
:101250009BFD07466888B84201D00020EBE70120DB
:10126000E9E770B504460025107820B116782068AB
:10127000B0FBF6F085B220680844206010789842F0
:1012800003DA1078401C107002E02068401B2060D8
:1012900016782068B0FBF6F080B270BD08B500206B
:1012A000FFF774FB0121042000F096FA48F20210C7
:1012B000ADF8000003208DF8020010208DF8030027
:1012C0006946264800F054F80121082000F084FA0D
:1012D0004FF47E70ADF8000003208DF8020010205E
:1012E0008DF8030069461E4800F042F801211020E5
:1012F00000F072FA4FF4FE50ADF8000003208DF8B4
:10130000020010208DF803006946164800F030F8FE
:101310000121202000F060FAFF20ADF8000003203A
:101320008DF8020010208DF8030069460E4800F089
:101330001FF80121402000F04FFA1C20ADF80000FA
:1013400003208DF8020010208DF80300694607483D
:1013500000F00EF800F038FB08BD00000008014066
:10136000000C014000100140001401400018014031
:101370002DE9F0410246002500260020002300242C
:10138000002791F803C00CF00F0591F803C01CF082
:10139000100F03D091F802C04CEA050591F800C087
:1013A000BCF1000F31D0146800202BE04FF0010C8D
:1013B0000CFA00F3B1F800C00CEA03069E4220D1FB
:1013C00083004FF00F0C0CFA03F7BC4305FA03FC43
:1013D0004CEA040491F803C0BCF1280F06D14FF089
:1013E000010C0CFA00FCC2F814C00AE091F803C02A
:1013F000BCF1480F05D14FF0010C0CFA00FCC2F80B
:1014000010C0401C0828D1D31460B1F800C0BCF152
:10141000FF0F34DD546800202EE000F1080C4FF07F
:10142000010808FA0CF3B1F800C00CEA03069E426A
:1014300021D183004FF00F0C0CFA03F7BC4305FADF
:1014400003FC4CEA040491F803C0BCF1280F05D159
:1014500000F1080C08FA0CF8C2F8148091F803C0E7
:10146000BCF1480F07D100F1080C4FF0010808FA51
:101470000CF8C2F81080401C0828CED35460BDE898
:10148000F0810000F0B50A46002300240021002569
:1014900000F00046B6F1004F02D11D4EF16901E0A7
:1014A0001B4E7168C0F3034583B200F44016B6F5D5
:1014B000401F08D121F07061154E766826F07066E5
:1014C000134F7E6012E000F48016B6F5801F06D13F
:1014D000032606FA05F4A14341F0706106E0460DCB
:1014E000360103FA06F6B14341F0706122B1460DB0
:1014F000360103FA06F6314300F00046B6F1004F1C
:1015000002D1034EF16101E0014E7160F0BD0000B7
:1015100000000140416170470161704708B5012139
:10152000202000F059F94FF47F40ADF8000003206F
:101530008DF8020048208DF8030069462448FFF723
:1015400017FF0121082000F047F94FF20700ADF81E
:10155000000003208DF8020048208DF80300694642
:101560001C48FFF705FF0121402000F035F94FF638
:101570008070ADF8000003208DF8020048208DF83F
:10158000030069461448FFF7F3FE0121102000F024
:1015900023F93020ADF8000003208DF80200482028
:1015A0008DF8030069460D48FFF7E2FE0121042093
:1015B00000F012F93020ADF8000003208DF8020091
:1015C00048208DF8030069460448FFF7D1FE08BDA6
:1015D00000140140000C01400018014000100140BF
:1015E0000246002039B950784FF6FF7303EA002015
:1015F0001378184306E010784FF6FF7303EA0020D3
:1016000053781843704701E000F034F8FCE710B558
:1016100045F2555000F028F8062000F019F84FF474
:101620007F6000F01BF800F00BF800F001F810BD2F
:101630004CF6CC4001490860704700000030004083
:101640004AF6AA20014908607047000000300040B7
:10165000014948607047000000300040014988603F
:1016600070470000003000400149086070470000EA
:101670000030004071B600BF0648006800F4E0602A
:1016800005490843001D03490860BFF3408F00BFB0
:1016900000BFFEE70CED00E00000FA0500BFFEE72A
:1016A000054908600021044A126811600821024AB5
:1016B00012685160704700006000002010B50346BA
:1016C0001048016803F1080083B20FE00868401A6F
:1016D0004C68001B984208D3486842185360086859
:1016E00010600A6002F1080010BD0968086800284F
:1016F000ECD1486842180020106053600A6002F183
:101700000800F1E7600000207047000070B500217C
:1017100000230F22C4780CB3164C246804F4E06450
:10172000C4F5E064210AC1F10403CA40447804FA14
:1017300003F184781440214309010F4C0678A15528
:10174000047804F01F050124AC4005786D114FF0BA
:10175000E02606EB8505C5F8004109E0047804F0B1
:101760001F050124AC40054D0678761145F826404A
:1017700070BD00000CED00E000E400E080E100E05E
:1017800002490143024A1160704700000000FA0557
:101790000CED00E07047000029B1064AD26902430F
:1017A000044BDA6104E0034AD2698243014BDA61F7
:1017B000704700000010024029B1064A1269024336
:1017C000044B1A6104E0034A12698243014B1A6117
:1017D000704700000010024029B1064A9269024396
:1017E000044B9A6104E0034A92698243014B9A6177
:1017F000704700000010024030B500210022002494
:1018000000232D4D6D6805F00C0121B1042905D090
:10181000082923D105E0294D056022E0274D056008
:101820001FE0254D6D6805F47012234D6D6805F4B9
:101830008034022505EB92421CB9214D55430560C9
:101840000BE01D4D6D6815F4003F03D01C4D554352
:10185000056002E0194D5543056002E0174D056033
:1018600000BF00BF144D6D6805F0F0010909154D6A
:101870006B5C0568DD4045600F4D6D6805F4E06107
:10188000090A104D6B5C4568DD4085600A4D6D6846
:1018900005F46051C90A0B4D6B5C4568DD40C560BD
:1018A000054D6D6805F44041890B074D6B5CC568BB
:1018B000B5FBF3F5056130BD0010024000127A005F
:1018C00000093D0000000020100000202DE9F0413B
:1018D00007460E46384601F0C7F80446274850F838
:1018E000241000231422384601F0A8F900F0FF0864
:1018F000224951F824004146FFF796FC00283AD0CF
:101900001E4850F824502879022802D0FF2830D1F0
:1019100021E0687901281BD1184951F824001422CC
:101920003146FEF768FC0A2000F0BAFB3069FFF789
:10193000D7F902211248FFF7EFFD00F04DF81149E9
:1019400088600B4601221146384600F01DF800BFA2
:1019500000BF00BF0EE06879012807D1074951F8A0
:1019600024000C223146FEF746FC00BF00BF00BF3A
:1019700000E000BF00BFBDE8F08100008C00002047
:1019800000080140440100202DE9F04107460D46C2
:1019900016461C46257166710120A071AA20E071CF
:1019A0000C212046FFF7B0F902210648FFF7B4FDED
:1019B0000C222146384601F09DF9012000F070FB11
:1019C000BDE8F0810008014010B501210148FFF792
:1019D00059FD10BD0002300000206949096811F46A
:1019E000004F01D040F001006549096811F4804FB3
:1019F00001D040F002006249096811F4005F01D093
:101A000040F004005E49096811F4805F01D040F0A5
:101A100008005B49096811F4006F01D040F0100024
:101A20005749096811F4806F01D040F020005449F3
:101A3000096811F4007F01D040F040005049096866
:101A400011F4807F01D040F080004E49096811F404
:101A5000004F01D040F480704A49096811F4804F6A
:101A600001D040F400704749096811F4005F01D0CB
:101A700040F480604349096811F4805F01D040F46C
:101A800000604149096811F4004F01D040F48050D2
:101A90003D49096811F4804F01D040F400503A49A3
:101AA000096811F4005F01D040F4804036490968AC
:101AB00011F4805F01D040F400403349096811F40B
:101AC000006F01D040F480302F49096811F4806F15
:101AD00001D040F400302C49096811F4007F01D096
:101AE00040F480202849096811F4807F01D040F437
:101AF00000202549096811F0800F01D040F48010C2
:101B00002049096811F0040F01D040F400101D496C
:101B1000096811F0020F01D040F4800019490968EA
:101B200011F0010F01D040F400001849896811F04C
:101B3000200F01D040F080701449896811F0100F17
:101B400001D040F000701249096811F0800F01D0F7
:101B500040F080600E49096811F0400F01D040F05C
:101B600000600B49096811F0200F01D040F080504F
:101B70000749096811F0100F01D040F0005070477C
:101B800008140140080C01400818014000100140F1
:101B900008080140704710B500F002F810BD0000C1
:101BA0000CB50020019000903248006840F480306D
:101BB0003049086000BF2F48006800F400300090F2
:101BC0000198401C0190009818B90198B0F5A06FD9
:101BD000F1D12848006810F4003F02D001200090A5
:101BE00001E0002000900098012842D122480068BE
:101BF00040F01000204908600846006820F003000B
:101C000008600846006840F0020008601948406813
:101C1000184948600846406848600846406840F4F3
:101C2000806048600846406820F47C1048600846A0
:101C3000406840F4E81048600846006840F0807052
:101C4000086000BF0B48006810F0007FFAD0094818
:101C5000406820F00300074948600846406840F0AB
:101C60000200486000BF0348406800F00C000828EC
:101C7000F9D10CBD001002400020024010B500F068
:101C800075F910BD10B51348006840F00100114906
:101C9000086008464068104908400E4948600846F8
:101CA00000680E4908400B4908600846006820F4A7
:101CB000802008600846406820F4FE0048604FF429
:101CC0001F008860FFF767FF4FF00060044908605D
:101CD00010BD0000001002400000FFF8FFFFF6FEFC
:101CE00008ED00E008211648FFF716FC1021144803
:101CF000FFF712FCFFF768FE0020FEF7F1FF00205F
:101D00001049086004210E48FFF704FC08210C4824
:101D1000FFF700FC10210A48FFF7FCFB0FE004214D
:101D20000748FFF7F7FB4FF4FA7000F0B9F9042108
:101D30000348FFF7F1FB4FF4FA7000F0B1F9EEE75A
:101D400000180140D8000020044625460AE0012082
:101D500000F0A6F902210448FFF7DCFB03492846FE
:101D6000FFF7B4FDF3E70000000801403001002058
:101D700007E0C82000F094F9FFF72EFEC0430149A8
:101D80004861F6E7D8000020F0B502460C46FF2176
:101D9000FF2500260BE012F8017B87EA0503084FB8
:101DA000FF5C87EA0105074FF95C771CBEB2A642CB
:101DB000F1DB08464FF6FF7707EA00202843F0BD25
:101DC000102E0008102F000810B5104800780928C0
:101DD00004D00F480078401C0D4908700D48007869
:101DE000401C0C4908700846007864280DDD00206E
:101DF00008701423084A064801780848FFF731FAAA
:101E00000749087000200249087010BD48000020F2
:101E1000340000202C0000202D0000203000002085
:101E20004000002010B54FF4F070FFF747FC224946
:101E3000086002202149487000204860002428E002
:101E4000012004EB44011C4A126802EB01110881D5
:101E5000002004EB4401184A126802EB011188616A
:101E6000002104EB4400144A126802EB00100160E8
:101E7000002004EB4401104A126802EB0111C86112
:101E800004EB44010C4A126802EB01110884601C47
:101E9000C4B20A2CD4DB0920094908700020094982
:101EA000086009498873094BFF224FF47A7106488C
:101EB00000F022FB10BD0000500000204000002078
:101EC0004800002054000020B4000020E125000854
:101ED000FFF756F9FFF79BFB06E0FFF7B1FB642025
:101EE00000F0DEF800F052FBF7E7000038B51849C3
:101EF000B1F1807F00D31DE021F07F40401E4FF004
:101F0000E022506150170F22002807DA13071D0E38
:101F1000104B00F00F04241F1D5503E013071C0E87
:101F20000D4B1C5400BF00204FF0E02290610720B1
:101F3000106100BF4FF47A7008A300220A49009094
:101F4000092000F045F8092000F002FA38BD000031
:101F50004019010018ED00E000E400E05461736BEB
:101F6000526F6F7400000000D11E000810B5FFF71B
:101F70002BFF00F02BF90D484078402805D10321B4
:101F80000BA0FEF7CEFEFFF775FB10488089401CC2
:101F90000E498881084680890989884205DD0B49F8
:101FA0000869804700200949888110BD4000002051
:101FB0005461736B2054696D654F75742057696C5B
:101FC0006C20544F5320526573657400B400002098
:101FD0002DE9F04704460D4691461F46DDF8208066
:101FE0000DB9BDE8F08704EB44002C49096801EB0A
:101FF00000100089012800D0F3E704EB44002749D2
:10200000096801EB0010008C98B91FFA88F0FFF7FF
:1020100055FB064604EB4401204A126802EB01110D
:10202000A1F8208004EB44011C4A126802EB011164
:10203000CE6104EB4402194B1B6803EB0212118CB6
:1020400004EB4402154B1B6803EB0212D06900F04D
:102050001FFA8246022104EB4400104A126802EB88
:102060000010018104EB44000C49096801EB0010E9
:10207000456004EB44000949096801EB0010C762A0
:102080004A462946504600F02BF904EB4401034A26
:10209000126802EB0111086000BFA2E750000020A7
:1020A00010B504461348407801281FD0002012497B
:1020B000097801EB4101114A126802EB01118861B4
:1020C0000D48007800EB40000C49096801EB001056
:1020D000446110210848007800EB4000074A12686C
:1020E00002EB0010018100F083F902E02046FEF7C8
:1020F00075F810BD4000002048000020500000206E
:1021000001460D48006800EB4110007A08B9002034
:1021100070470948006800EB41104079074A12787F
:10212000904201D00020F3E70120034A126802EB3D
:102130004112107200BFEBE75C0000204800002055
:1021400070B504460D4600BF1E48006800EB441001
:10215000007A30B1012815D0022804D003282FD1ED
:102160001FE0002070BD1748006800EB4410407964
:1021700015490978884201D10120F3E7204600F093
:1021800057FAE1E702200F49096801EB4411087290
:102190000D4800780B49096801EB44114871012092
:1021A000E0E702200749096801EB4411087206487C
:1021B00000780449096801EB441148710120D1E716
:1021C0000020CFE75C00002048000020002055E000
:1021D00000EB40012B4A126802EB01110989022928
:1021E00002D0102946D11CE000EB4001254A1268BC
:1021F00002EB01118969491C00EB4002214B1B686D
:1022000003EB0212916100EB40011E4A126802EBDF
:1022100001118969B1F5FA6F02D940211A4A51704A
:1022200029E0002100EB4002164B1B6803EB021271
:10223000916100EB4001134A126802EB01114969F8
:1022400041B9022100EB40020E4B1B6803EB021266
:1022500011810EE000EB40010A4A126802EB011105
:102260004969491E00EB4002064B1B6803EB021252
:10227000516100E000BF00BF411CC8B20A28A7DBC3
:1022800070470000500000204000002010B50446B8
:102290000F480078A04200D110BD0D48007800EB37
:1022A00040000C49096801EB00100B490860084820
:1022B0000470007800EB40000649096801EB00104B
:1022C000006806490860FDF761FF00BFE4E7000011
:1022D00048000020500000203C0000203800002072
:1022E00030B503461846041F20462160041F2046CF
:1022F00023600025041F20462560041F204625601A
:10230000041F20462560041F20462560041F204628
:102310002560041F20462560041F20462560041FF9
:1023200020462560041F20462560041F20462560A6
:10233000041F20462560041F20462560041F2046F8
:1023400022604FF08075041F2046256030BD0000DC
:1023500010B5044604EB44000449096801EB001081
:10236000006803490860FDF72AFF10BD50000020F7
:102370003800002010B504460A2C01DB002010BDF7
:1023800004EB44001949096801EB00100089012899
:1023900001D10020F3E704EB44001449096801EB84
:1023A00000100089042801D10020E8E704EB440074
:1023B0000E49096801EB00100089082801D10020AE
:1023C000DDE7082004EB4401084A126802EB011122
:1023D0000881002004EB4401044A126802EB011159
:1023E000486100F005F80120C9E700005000002016
:1023F00010B5022123480068A0F8B81100243DE080
:1024000004EB44001F49096801EB00100089022811
:1024100002D020282ED107E01B480078A04202D02D
:102420002046FFF733FF10BD04EB4400154909684F
:1024300001EB001090F822001449096801EB4010EC
:10244000007A012815D1102004EB44010D4A1268CE
:1024500002EB01110881032004EB4401094A1268D0
:1024600002EB011191F82210084A126802EB4111A7
:10247000087200E000BF00BF601CC4B20A2CBFDBC2
:1024800000BFD0E750000020480000205C00002082
:102490000246501820F00303A3F1300020F007009B
:1024A0007047000010B50A2800DB10BD00EB4002A9
:1024B000104B1B6803EB02121289042A00D1F4E7C7
:1024C000002200EB40030B4C246804EB03139A61D9
:1024D000102300EB4002074C246804EB0212138126
:1024E00000EB4002034B1B6803EB0212516100BF7B
:1024F000DBE700005000002070B504460D4616468C
:1025000001221449887B002816DD0AE04968002A68
:1025100007DD0878904202D02270002201E0501CB2
:10252000C2B248680028F1D1002A00DD22700A48B2
:102530000078A0734C6005E00C460020207006482F
:102540000078A073258166810020A08123616060EE
:10255000207870BDB40000204800002002460A49DF
:102560000CE048680078904207D100204B68588101
:1025700048684068486010467047496848680028C5
:10258000EFD100BFF8E70000B400002010B5134CF5
:102590001FE06068807B10F0400F19D06068807B7E
:1025A00010F0800F12D06168086980476068807BF6
:1025B00020F08000616888736068408920B9616894
:1025C0000878FFF7CBFF04E0646802E0646800E08D
:1025D000646860680028DCD110BD0000B4000020F1
:1025E00012481EE04068817B11F0400F19D04189EC
:1025F000002916DD81890289914203DA8189491C0B
:1026000081810EE04189FF2902DA4189491E418119
:102610004189002901DD00218181817B41F0800118
:10262000817341680029DDD170470000B4000020AB
:1026300010B504460B48007800EB40000A490968D1
:1026400001EB001080F8224020200649097801EBB8
:102650004101054A126802EB01110881FFF7C8FE2B
:1026600010BD0000480000205000002010B540F2CE
:1026700025510E4800F0CDF9B8B10C48001D008876
:10268000C4B20B48C0880B49C98888420DDA084893
:10269000C188C088401C064AD0800748C06844549E
:1026A0000649C8780A21FFF7FDFE10BD004C004026
:1026B000AA000020A00000207800002025000020B3
:1026C00010B540F225510E4800F0A3F9B0B10C4806
:1026D0008088C4B20B4800890B49098988420DDA09
:1026E000084801890089401C064A10810748006992
:1026F0004454074908790A21FFF7D4FE10BD0000B1
:1027000000500040AA000020A00000207800002017
:102710002500002010B540F225510E4800F079F94F
:10272000B8B10C48001D0088C4B20B4800880B49A2
:10273000098888420DDA084801880088401C064A4A
:102740001080074800684454064908780A21FFF7BA
:10275000A9FE10BD00380140AA000020A000002002
:10276000780000202500002010B540F225511148C6
:1027700000F04FF9C0B10F48001D0088C4B20E48E8
:1027800040880E494988884213DA0B4841884088BE
:10279000401C094A50800A48406844540949487816
:1027A0000A21FFF77FFE04E040F22551014800F0C6
:1027B00014F810BD00440040AA000020A000002032
:1027C000780000202500002001F40072B2F5007F9F
:1027D00000D100BFCA430280704710B50022002319
:1027E000A1F510646A3C00D100BF0A120124944094
:1027F000A3B2DC43048010BD21B1828942F40052AF
:10280000828104E082894DF6FF731A40828170470D
:1028100070B50446204600F04BF9054600F06EF80E
:10282000052C27D2DFE804F0030A11181F00252227
:102830004FF41651104800F029F81BE026224FF4FF
:1028400016510E4800F022F814E027224FF4E1312F
:102850000B4800F01BF80DE034224FF4E131094839
:1028600000F014F806E035224FF4E131064800F09C
:102870000DF800BF00BF70BD0038014000440040AB
:1028800000480040004C00400050004070B586B049
:1028900006460C46154601940020ADF80800ADF838
:1028A0000A00ADF80C00ADF810000C20ADF80E00D9
:1028B00001A9304600F040F9012240F2255130468E
:1028C00000F014F901213046FFF796FF4021304611
:1028D000FFF77AFF4FF48060FEF752FF8DF8145037
:1028E00002208DF8150001208DF816008DF81700D4
:1028F00005A8FEF70BFF06B070BD000038B5044612
:10290000254884420BD10D202315244A51150090EF
:10291000234800F053F801218803FEF73DFF2148CA
:1029200084420BD1042008231C4A01460090104623
:1029300000F044F801214804FEF72EFF1A488442B3
:102940000BD10920E314164A11150090104600F02F
:1029500035F801218804FEF71FFF144884420BD18B
:102960001120E314124A11150090104600F026F8C9
:102970000121C804FEF710FF0E4884420BD131201C
:1029800004230D4A91140090094800F017F8012122
:102990000805FEF701FF38BD00380140000801407E
:1029A000000C01400044004000480040004C004042
:1029B0000010014000500040001401402DE9F84390
:1029C00007460D4616461C46DDF82080012140468C
:1029D000FEF702FFADF8005003208DF8020018202A
:1029E0008DF8030069463846FEF7C2FCADF800409A
:1029F00048208DF8030069463046FEF7B9FC2946A9
:102A00003846FEF789FD21463046FEF785FDBDE8D4
:102A1000F88370B502460024002300250020A1F5AC
:102A200010666A3E00D100BFC1F3421501F01F03DA
:102A3000012606FA03F3012D02D19689334006E000
:102A4000022D02D1168A334001E0968A33400C12DF
:102A5000012606FA04F41688344013B10CB10120A3
:102A600000E0002070BD000001460F4A881A914224
:102A700013D006DC0D4808180BD0B0F5806F10D1CC
:102A800009E0B0F5806F0AD0B0F56C4F09D1002095
:102A900070470120FCE70220FAE70320F8E7042052
:102AA000F6E70020F4E70000004C004000BCFFBF48
:102AB000014605290ED2DFE801F0030507090B00E6
:102AC000054870470548FCE70548FAE70548F8E778
:102AD0000548F6E70020F4E70038014000440040D4
:102AE00000480040004C004000500040F0B5034654
:102AF0000024002600250020A1F510676A3F00D1C0
:102B000000BF1846C1F3421401F01F06012707FA5F
:102B100006F5012C01D10C3004E0022C01D110305B
:102B200000E014301AB107682F43076002E007681D
:102B3000AF430760F0BD00002DE9F04786B00546C1
:102B40000E460024A24600BFA1460027B08900B16E
:102B500000BF2F462C8A4CF6FF700440F0880443D7
:102B60002C82AC894EF6F3100440B08831890843BA
:102B7000718908430443AC81AC8A4FF6FF4004409E
:102B8000B0890443AC8201A8FEF736FE1F48874295
:102B900002D1DDF810A001E0DDF80CA0A88910F446
:102BA000004F08D00AEBCA0000EB0A103168490058
:102BB000B0FBF1F807E00AEBCA0000EB0A1031683D
:102BC0008900B0FBF1F86420B8FBF0F004012009A3
:102BD000642101FB1089A88910F4004F08D032202D
:102BE00000EBC900B0FBF1F000F00700044308E07F
:102BF000322000EB09106421B0FBF1F000F00F006F
:102C000004432C8106B0BDE8F08700000038014085
:102C10002DE9F04705460E4614462F46B046A1461C
:102C20003846FFF721FF82460023042241463846FA
:102C300000F004F8A9F80000BDE8F0872DE9F0479E
:102C400080460F4615461E464046FFF70DFF0446D8
:102C50001A49085D0021FFF773FA8146B9F1000FA8
:102C60001CD01748007817490855B5F5967F01DB49
:102C70004FF49675144820F814500020134921F899
:102C800014001EB13046FFF70BFA03E00D49085D52
:102C9000FFF770FB0949085DFFF732FA47B10B49AE
:102CA00031F814200A4951F824003946FDF7A3FAF7
:102CB000064830F81400BDE8F08700001B00002033
:102CC0004800002025000020A0000020AA000020CD
:102CD000780000202DE9F04304460D4616462746AD
:102CE000A846B6F800904A464146384600F002F839
:102CF000BDE8F08310B50B46002108E000BF048852
:102D000014F0800FFBD05C5C84804C1CA1B291421B
:102D1000F4DB10BD10B54FF48020FEF77FFA10BD34
:102D200000B585B002210948FDF79CFB58B102218E
:102D30000648FDF7A3FA6A4600210448FDF748FD5E
:102D40006846FDF7B3FC05B000BD0000006400401C
:102D500001460A461068704700BFFEE702E008C857
:102D6000121F08C1002AFAD170477047002001E005
:102D700001C1121F002AFBD17047000008B5194895
:102D8000FEF78EFCFDF7D0FF1748FEF71BF917483A
:102D9000FEF718F9FEF75EF8FEF7B8F8FEF704F84C
:102DA000FFF740F84FF4FA6011A300221249009097
:102DB0001046FFF70DF94FF4FA6010A300221249F4
:102DC00000900120FFF704F94FF4FA600BA3074AC3
:102DD0000E4900900220FFF7FBF8FFF787F800BFCD
:102DE000FEE700006A010020003801400044004076
:102DF0005461737430000000E51C00084765745688
:102E0000616C756500000000711D0008491D000817
:102E100000C1814001C0804101C0804100C18140AA
:102E200001C0804100C1814000C1814001C080419A
:102E300001C0804100C1814000C1814001C080418A
:102E400000C1814001C0804101C0804100C181407A
:102E500001C0804100C1814000C1814001C080416A
:102E600000C1814001C0804101C0804100C181405A
:102E700000C1814001C0804101C0804100C181404A
:102E800001C0804100C1814000C1814001C080413A
:102E900001C0804100C1814000C1814001C080412A
:102EA00000C1814001C0804101C0804100C181401A
:102EB00000C1814001C0804101C0804100C181400A
:102EC00001C0804100C1814000C1814001C08041FA
:102ED00000C1814001C0804101C0804100C18140EA
:102EE00001C0804100C1814000C1814001C08041DA
:102EF00001C0804100C1814000C1814001C08041CA
:102F000000C1814001C0804101C0804100C18140B9
:102F100000C0C101C30302C2C60607C705C5C40479
:102F2000CC0C0DCD0FCFCE0E0ACACB0BC90908C8E9
:102F3000D81819D91BDBDA1A1EDEDF1FDD1D1CDCD9
:102F400014D4D515D71716D6D21213D311D1D01049
:102F5000F03031F133F3F23236F6F737F53534F439
:102F60003CFCFD3DFF3F3EFEFA3A3BFB39F9F838A9
:102F700028E8E929EB2B2AEAEE2E2FEF2DEDEC2C99
:102F8000E42425E527E7E62622E2E323E12120E009
:102F9000A06061A163A3A26266A6A767A56564A4F9
:102FA0006CACAD6DAF6F6EAEAA6A6BAB69A9A86869
:102FB00078B8B979BB7B7ABABE7E7FBF7DBDBC7C59
:102FC000B47475B577B7B67672B2B373B17170B0C9
:102FD00050909151935352929656579755959454B9
:102FE0009C5C5D9D5F9F9E5E5A9A9B5B9959589829
:102FF000884849894B8B8A4A4E8E8F4F8D4D4C8C19
:103000004484854587474686824243834181804088
:103010003030000800000020780000005C2D00081F
:10302000A83000087800002038A100006C2D0008AE
:10303000000000000102030401020304060708095E
:1030400002040608FFFF000000000000000000006E
:103050000000000000000000000000000000000070
:103060000000000000000000000000000000000060
:103070000000000000000000000000000000000050
:103080000000000000000000000000000000000040
:1030900000000000FFFF0000000000000000000032
:0830A000000000000000000028
:0400000508000131BD
:00000001FF
