:020000040800F2
:10000000D0B4002045010008D92800085520000878
:1000100031280008910D0008BD4B000800000000C9
:10002000000000000000000000000000392B000864
:100030003511000800000000DB290008CF2D000862
:100040005F0100085F0100085F0100085F01000810
:100050005F0100085F0100085F0100085F01000800
:100060005F0100085F0100085F0100085F010008F0
:100070005F0100085F0100085F0100085F010008E0
:100080005F0100085F0100085F0100085F010008D0
:100090005F0100085F0100085F01000835170008D4
:1000A0005F0100085F0100085F0100085F010008B0
:1000B0005F0100085F0100085F0100085F010008A0
:1000C0005F0100085F0100085F0100085F01000890
:1000D0005F010008F144000851450008B1450008DF
:1000E000091600085F010008994B00085F0100082D
:1000F0005F0100085F0100085F0100085F01000860
:100100005F0100085F0100085F0100085F0100084F
:1001100031440008914400085F0100085F010008B5
:100120005F0100085F0100085F0100085F0100082F
:10013000DFF80CD000F0D2FB00480047B1540008B3
:10014000D0B400200648804706480047FEE7FEE797
:10015000FEE7FEE7FEE7FEE7FEE7FEE7FEE7FEE777
:10016000312E000831010008F0B480EA0102D40FFA
:100170004200B2EB410F02D20246084611464A0045
:1001800042D0C30DDDB2C1F3C752AD1A202D35DA0E
:10019000C1F3160141F4000204B15242C5F1200638
:1001A00002FA06F12A411044B3EBD05F23D0C4B168
:1001B000012DA0EBC35009DCF0BC4FF0004202EA75
:1001C000C35200F50000DBB200F0D0BA400000F1ED
:1001D000807000EBC350A0F1807040EAD1704900FC
:1001E00009E0490841EAC071A0EBC35000F50000E6
:1001F000400800EBC350F0BC00F0AFBA61420122EE
:1002000002EB4101001BF6E7F0BC704781F00041B2
:10021000AAE780F00040A7E780EA010210B502F0EB
:100220000043400026D04A0023D04FEA106101EB82
:100230001261C0F35600C2F3560240F4000042F4CB
:100240000002A0FB0220A1F17F014FEA004014044C
:1002500001D000F1010050EA124001D44000491ED3
:10026000C2B20C0604EBD010401C4008802A02D019
:1002700003E0002010BD20F00100002900DA00207A
:10028000184310BD2DE9FE4F804681EA0300C00FE0
:100290000C46009021F0004123F00045B8EB02002D
:1002A000A94105D24046214690461C460B460246CF
:1002B00023F00040104304D14046214603B0BDE87E
:1002C000F08F270DC7F30A00C3F30A510290401ABA
:1002D0000190402866DAC3F3130040F4801B0098B5
:1002E000924620B10023D2EB030A63EB0B0B01987B
:1002F0005946C0F14002504600F0FEF906460D4650
:1003000050465946019A00F016FA10EB0800614178
:10031000002487EA115284EAE7731A433BD0009A1B
:100320003AB3019A012A4FEA075210DC001B61EB35
:1003300002014FF0004202EA0752CDE90042001CE0
:1003400041F5801132462B4600F04AFAB6E7001B11
:1003500061EB0201001C41F5801300185B4120187D
:10036000A2F5001747EB030140EAD570B6196D41BD
:1003700011E06D084FEA360645EAC0754FEA0752AC
:10038000001B61EB0201001C41F5801149084FEA96
:1003900030000019514132462B4603B0BDE8F04F02
:1003A00000F011BA0098012240000023D0EB0202B5
:1003B00063EBE073009821464FEAE074B8EB00006D
:1003C00061EB0401E9E783F000435BE781F0004162
:1003D00058E72DE9FE4F81EA030404F0004421F0C0
:1003E000004100944FF0000B23F0004350EA010459
:1003F00002D052EA030404D10020014603B0BDE854
:10040000F08FC3F30A54C1F30A552C44A4F2F33419
:100410000194A0FB0254C1F3130141F48011C3F312
:10042000130343F4801301FB024400FB034E840AD0
:10043000970A44EA815447EA8357A4FB0768029568
:100440008D0A05FB07854FEA932C04FB0C54270506
:10045000029D4FEA065847EA1637B5EB08056EEBE2
:10046000070C870E920E47EA811742EA8312A7FB18
:100470000201B6EB0B0164EB00042B0D43EA0C33D5
:100480005E1844EB1C50DA465146E7FB0201C5F307
:1004900013044FEA0B3343EA14534FEA0432019C2E
:1004A00043EA0603A4F10C040294009CCDE900B4D5
:1004B00000F096F9A2E72DE9F04D81EA030404F07B
:1004C000004B21F0004514464FF0000A23F0004194
:1004D00050EA050220D054EA01021DD0C5F30A57A4
:1004E0000246C5F31303C1F31300C1F30A5640F4E7
:1004F000801543F48013A7EB0608101BD64608F2BC
:10050000FD3873EB050002D308F1010801E09218F1
:100510005B41B8F1000F03DA00200146BDE8F08D21
:1005200000204FF48011064684460EE0171B73EB43
:10053000050705D3121B63EB050306434CEA010CC8
:1005400049084FEA300092185B4150EA0107EDD1AB
:1005500052EA030012D082EA040083EA050108434C
:1005600003D100224FF0004308E0101BAB4102D240
:100570000122002302E06FF0010253101AEB060083
:100580004CEB085110EB0A0041EB0B01BDE8F04DBC
:1005900000F019B9C10F80EAE0700844CA07962339
:1005A000002100F0E3B820F00040C10DC0F31600B8
:1005B00040F400007F2901DA00207047962903DC0F
:1005C000C1F19601C840704796398840704770B5B0
:1005D000C1F30A5201F000450024C1F3130140F2B7
:1005E000FF3341F480119A4201DA002070BD40F2DD
:1005F00033439A42A2F2334203DC524200F08BF8BA
:1006000000E090402C43F1D0404270BD00F0004229
:1006100030F000400AD0C10D01F56071C0F3160042
:1006200042EA0151C20840071143704700200146C9
:10063000704701F0004330B421F0004150EA01025C
:1006400006D00A0DA2F56072C1F31301002A02DC84
:1006500030BC00207047440F44EAC104C100E018D8
:1006600030BC00EBC25000F078B830B50B46014604
:1006700000202022012409E021FA02F59D4205D341
:1006800003FA02F5491B04FA02F52844151EA2F1EB
:100690000102F1DC30BD2DE9F05F054600209246F5
:1006A0009B4688460646814640241BE02846414634
:1006B0004746224600F02FF853465A46C01A914149
:1006C00010D311461846224600F016F82D1A67EB93
:1006D00001084F4622460120002100F00DF817EBDB
:1006E00000094E41201EA4F10104DFDC48463146DA
:1006F0002A464346BDE8F09F202A04DB203A00FA50
:1007000002F1002070479140C2F1200320FA03F368
:10071000194390407047202A04DB203A21FA02F066
:100720000021704721FA02F3D040C2F1200291402B
:10073000084319467047202A06DBCB17203A41FAB6
:1007400002F043EAE07306E041FA02F3D040C2F15E
:10075000200291400843194670470029A8BF7047FE
:10076000401C490008BF20F00100704710B4B0FAE7
:1007700080FC00FA0CF050EA010404BF10BC704782
:1007800049B1CCF1200421FA04F411FA0CF118BF9C
:10079000012121430843A3EB0C01CB1D0106000AF4
:1007A000002BBEBF002010BC704700EBC3501044AC
:1007B0000029A4BF10BC7047401C490008BF20F0AE
:1007C000010010BC704710B5002B08DA401C41F145
:1007D000000192185B411A4301D120F0010010BDC5
:1007E0002DE9F04D92469B4611B1B1FA81F202E03B
:1007F000B0FA80F220329046FFF77EFF04460F46A3
:1008000040EA0A0041EA0B0153465A46084303D125
:1008100020463946BDE8F08D114653EA010015D057
:10082000C8F140025046FFF776FF05460E46504697
:1008300059464246FFF760FF084301D0012000E01F
:100840000020054346EAE0762C4337430A984FEAF6
:100850004453A0EB08004FEAD4240A304FF00002C2
:1008600044EA47544FEAD72502D500200146D1E794
:10087000010510196941DDE9084500196941BDE824
:10088000F04DA0E7C1F30A52C1F3130140F2FF3368
:1008900041F480119A4202DA00200146704740F28A
:1008A00033439A42A2F2334202DC5242FFF733BF93
:1008B000FFF722BF30B5002904DB4FF0004440426F
:1008C00064EB0101002B04DB4FF00044524264EB67
:1008D0000303994208BF904230BD0000064C074D0B
:1008E00006E0E06840F0010394E807009847103400
:1008F000AC42F6D3FFF720FC3C5900085C590008D5
:1009000082B02DE9FF1FEFF3038001B4684600F1C8
:10091000400000E901400C480168C1F800D00B48D4
:10092000D0F800D001BC80F30388BDE8FF1F01B000
:1009300000BD0648D0F800D001BC80F30388BDE8B4
:10094000FF1F01B000BD00003C0000203800002067
:1009500008B50121084602F04DF801214FF404705A
:1009600002F068F82020ADF8000000208DF80300A8
:100970006946024801F01AF908BD00000010014064
:1009800010B50446FFF7E4FF204600F001F810BD63
:1009900010B590B00446334800F030FA3248059064
:1009A00006940020079001200890002009900A90EA
:1009B0004FF480700B9080000C9020200D9000026E
:1009C0000E9000200F9005A9264800F0BDFA0121E5
:1009D000244800F007FA002000908DF80400012060
:1009E0008DF805004FF46020029000200390012054
:1009F0008DF8100069461C484C3800F065F84FF43B
:100A0000404001F0EBFF052301220F2116484C382E
:100A100000F082F8012114484C3800F032F801212E
:100A200011484C3800F022F80F484C3800F0D0F84C
:100A300000BF0D484C3800F03DF80028F9D10A48B5
:100A40004C3800F0D5F800BF07484C3800F024F8C7
:100A50000028F9D1012104484C3800F0BEF810B04C
:100A600010BD0000080002404C24014021B1826802
:100A700042F00102826003E0826822F0010282609B
:100A8000704721B1826842F48072826003E082681C
:100A900022F4807282607047014600208A6812F05A
:100AA000040F01D0012000E0002070470146C86C0F
:100AB00080B27047014600208A6812F0080F01D00A
:100AC000012000E00020704730B5024600200023DE
:100AD00050680F4C20400D790C6844EA05242043EF
:100AE000506090680B4C2040D1E902542C434D7962
:100AF00044EA450420439060D06A20F470000C7CE6
:100B0000641EE4B2234340EA0350D06230BD0000CB
:100B1000FFFEF0FFFDF7F1FFF0B504460D460020A3
:100B20000021092D11DDE068A5F10A0606EB460754
:100B3000072606FA07F18843A5F10A0606EB4606E2
:100B400003FA06F10843E0600CE0206905EB450775
:100B5000072606FA07F1884305EB450603FA06F176
:100B600008432061072A0FDA606B561E06EB8607E2
:100B70001F2606FA07F18843561E06EB860605FA7D
:100B800006F10843606322E00D2A0FDA206BD61FBE
:100B900006EB86071F2606FA07F18843D61F06EBE9
:100BA000860605FA06F10843206310E0E06AA2F128
:100BB0000D0606EB86071F2606FA07F18843A2F109
:100BC0000D0606EB860605FA06F10843E062F0BD65
:100BD000816841F008018160704721B1826842F468
:100BE000A002826003E0826822F4A0028260704763
:100BF000816841F0040181607047000010B5002158
:100C0000074801F0BFFD044644B9052105A000F0E6
:100C1000B9F90121024801F0B5FD0446204610BD96
:100C20009CB00020C5E4D6C3B2CECAFDC6ACC7F89E
:100C3000D2BBB4EDCEF3000006E04FF47A7100BFF2
:100C40000A00A1F10101FBD10200A0F10100F4D1E1
:100C5000704710B504460DE0642003F087F80121C9
:100C6000042001F0D5F8642003F080F8002104206E
:100C700001F0CEF82000A4F10101CCB2ECD110BDFE
:100C800070B504460D460AE0204600F025F8AC4257
:100C900001DD601E84B2AC4201DA601C84B2AC4259
:100CA000F2D170BD2DE9F04106460C4615460CE028
:100CB000274602E0304600F00FF83800A7F10101A6
:100CC0008FB2F7D11E2003F051F82800A5F10101E1
:100CD000CDB2EDD1BDE8F08170B5044625460121C5
:100CE0000B2001F095F80021042001F091F800BFDD
:100CF0002800A5F101018DB2FAD10121042001F0F3
:100D000087F8254600BF2800A5F101018DB2FAD170
:100D10000021042001F07CF800210B2001F078F87C
:100D200070BD10B54FF4FA710020FFF7A9FF022241
:100D30004FF4C8714FF4FA70FFF7B4FF4FF4167117
:100D40004FF4FA70FFF79CFF01224FF4A5714FF4A6
:100D50007A70FFF7A7FF10BDF0B5034600201C46D0
:100D60000D46104603E014F8016B05F8016B160000
:100D7000A2F10107BAB2F6D1F0BD30B5034601E0E9
:100D800003F8011B1400A2F10105AAB2F8D130BD8D
:100D900000BFFEE702E0002200F8012B0A00A1F1EB
:100DA000010399B2F7D1704770B505460C46284645
:100DB00001F020F90646204601F01CF9864201D0D8
:100DC000002070BD07E015F8011B14F8012B9142BB
:100DD00001D00020F5E7287810B120780028F2D162
:100DE0000120EEE721B1026842F00102026004E056
:100DF00002684FF6FE731A400260704701684FF6B2
:100E0000FE72114001600021016041608160C1609B
:100E10004B49884208D14A490839496841F00F01D5
:100E2000474A083A51608AE045491431884208D15E
:100E300043490839496841F0F001414A083A516094
:100E40007DE03F492831884208D13D490839496849
:100E500041F470613A4A083A516070E038493C31D7
:100E6000884208D136490839496841F47041344A0A
:100E7000083A516063E032495031884208D1304924
:100E80000839496841F470212D4A083A516056E00A
:100E90002B496431884208D129490839496841F40D
:100EA0007001274A083A516049E025497831884263
:100EB00008D123490839496841F07061204A083A4D
:100EC00051603CE01F49884206D1011F096841F08A
:100ED0000F01021F116032E01A491431884208D113
:100EE0001849091F096841F0F001164A121F1160E4
:100EF00025E014492831884208D11249091F0968A0
:100F000041F470610F4A121F116018E00D493C3125
:100F1000884208D10B49091F096841F47041094A08
:100F2000121F11600BE007495031884207D1054973
:100F3000091F096841F47021024A121F11607047AD
:100F4000080002400804024010B50022026847F67B
:100F5000F0739A430C6A8B6823430C6923434C69F2
:100F600023438C692343CC6923434C6A23438C6A13
:100F700023431A430260CB6843600B6883604B686D
:100F8000C36010BD0FB42DE9F04186B000250126E5
:100F90000027B00201F07AFC044654480078FF288C
:100FA00001D1012000E0002050490978504A127810
:100FB000914201D1012100E0002108437DD00DA81C
:100FC00005902046059A0C9903F0FAFD0020059043
:100FD0000DA8059069460C9800F034FF06462AE0FB
:100FE0002846691CCDB21DF80000012804D0022853
:100FF00006D003281AD115E0059880C8059019E09D
:101000000598C01D20F007000590D0E90021DDF80B
:1010100014C00CF1080C1046CDF814C0FFF7D7FA35
:10102000074607E0059880C8059003E0059880C84A
:10103000059000BF00BF3000A6F10106D0D1059891
:1010400080C80590002005902A480078FF2801D12B
:10105000012000E0002027490978B94201DB012185
:1010600000E00021084338D0214623A001F076FE9D
:101070002248007810F0020F0DD02149087800F0C6
:10108000B1FA40B1204600F0B5FF80464246214605
:101090001C4803F071FD1948007810F0040F0FD0C0
:1010A0001749487800F09EFA50B1204600F0A2FFA0
:1010B000804642462146144800E00EE003F05CFD05
:1010C0001248006848B1204600F094FF00F0FF0885
:1010D000414620460D4A12689047204601F0AAFB7F
:1010E00006B0BDE8F0015DF814FB000064000020CC
:1010F00048000020660000200D0A00006500002066
:101100001400002000380140004400406800002026
:10111000014908707047000065000020014908601F
:101120007047000068000020014908707047000007
:10113000660000207047000010B500201A490870B2
:101140004FF4A07001F0A2FB18490860002406E0EB
:10115000FF201749085517490855601CC4B2052CD3
:10116000F6DB00241DE000201049096801EB441162
:10117000486103200D49096801EB44110872002001
:101180000A49096801EB441108610849096801EB43
:101190004411C8600549096801EB44118861601C6D
:1011A000C4B20A2CDFDB10BD540000205800002020
:1011B00014000020190000202C4909782C4A1170D5
:1011C0002A490978491C294A117029490978294A6C
:1011D0001268274B1B7802EB4312117126A1254A96
:1011E0001268234B1B7802EB431211600021214A45
:1011F00012681F4B1B7802EB4312517102221D49EA
:1012000009681B4B1B7801EB4311CA710122194974
:101210000968174B1B7801EB43110A721849154AEC
:101220001268134B1B7802EB431251611149096894
:101230000F4A127801EB4211C86100220D4909687A
:101240000B4B1B7801EB4311CA600021094A12685D
:10125000074B1B7802EB4312116100220549096814
:10126000034B1B7801EB43118A6170475400002047
:1012700028000020580000204750494F000000007F
:10128000C11C00082C4800782C4908702A480078B6
:10129000401C294908702948007829490968274ACB
:1012A000127801EB4211087126A125480068234AF3
:1012B000127800EB421001600020214909681F4AA2
:1012C000127801EB4211487103201D4909681B4A3D
:1012D000127801EB4211C871012119480068174AC0
:1012E000127800EB42100172184815490968134A38
:1012F000127801EB421148610021114800680F4A41
:10130000127800EB4210C1610D4800680B4A127858
:1013100000EB4210C160002009490968074A1278B1
:1013200001EB42110861002105480068034A127868
:1013300000EB4210816170475400002077000020CC
:101340005800002048543136323100000D2000088A
:101350002DE9F04107460D461646384603F0ACFA33
:1013600004465F48005DFF2808D15E4800785C496C
:1013700008555C480078401C5A4908705AA05849E2
:10138000095D5B4A126802EB411108600020544974
:10139000095D574A126802EB41114871012050491A
:1013A000095D534A126802EB4111C87103204C4990
:1013B000095D4F4A126802EB411108724D484849D5
:1013C000095D4B4A126802EB411148614448005DD7
:1013D0004749096801EB4010C46147494048005D36
:1013E000434A126802EB4010C16044483C49095D21
:1013F0003F4A126802EB4111086100213848005D44
:101400003B4A126802EB4010816100203C4921F800
:101410001400284601F03AFA3A4941F824003846C7
:1014200003F04AFA04463848005DFF2808D12D48E9
:101430000078354908552B480078401C2949087028
:1014400032A03149095D2A4A126802EB4111086055
:1014500000202D49095D264A126802EB41114871AE
:1014600001212948005D224A126802EB4010C17137
:1014700003202549095D1E4A126802EB41110872DA
:101480001C492148005D1A4A126802EB4010416174
:101490001D48005D1649096801EB4010C4611648FB
:1014A0001949095D124A126802EB4111C8601348DC
:1014B0001549095D0E4A126802EB411108610020CE
:1014C0001149095D0A4A126802EB411188613046F0
:1014D00001F0DCF90F4941F82400BDE8F08100007B
:1014E000190000205400002055534152527800004A
:1014F0005800002059460008594B0008614A00086E
:10150000B8000020900000201400002055534152E4
:1015100054780000A400002010B504464FF49672E1
:1015200011462046FFF714FF10BD000010B503213F
:1015300024A0FFF727FD002441E02948006800EBC4
:1015400044104069C8B32648006800EB4410C079D5
:10155000012806D0022817D003280ED004282BD14A
:101560001EE01F4A126802EB4412107F1C4A1268E8
:1015700002EB4412516988471EE01949096801EBE2
:1015800044114869804717E0154A126802EB44127B
:10159000D069134A126802EB4412516988470BE084
:1015A0000F4A126802EB4412D0690D4A126802EB2E
:1015B00044125169884700BF00BF601CC4B20A2CA6
:1015C000BBDB10BD546F73204465766963652049A9
:1015D0006E69742E2E2E2E2E2E2E2E2E2E000000F4
:1015E000580000200146FF2901D10020704705481E
:1015F000006800EB4110406908B90020F6E70120BF
:10160000F4E7000058000020F8B500254FF4004131
:101610003F4800F0E1FB20B14FF4004000F00CF92E
:10162000F8BD002000F078F90020009005E0601C73
:1016300084B23848844200DD5DE04FF40041344814
:1016400000F0CAFB0028F2D0B4F57A6F05DA012267
:10165000214631A0FFF796FC4DE0002405E0601C18
:1016600084B22C48844200DD45E04FF40041284814
:1016700000F0B2FB0028F2D1B4F57A6F00DA3BE05B
:1016800002252BE0002406E0601C84B241F2883081
:10169000844200DD2FE04FF400411D4800F09CFB28
:1016A0000028F1D0002406E0601C84B240F6AC5063
:1016B000844200DD1FE04FF40041154800F08CFB30
:1016C0000028F1D1009840000090B4F5FA6F03DDD6
:1016D000009840F001000090681CC5B2222DD1DBBB
:1016E00011A002F09FF9C6B26B46042200213046D9
:1016F00002F03EFC00BF93E70BA002F093F9C6B2E4
:101700006B4604220121304602F032FC00BF87E71D
:10171000000C0140A0860100564B5F4572726F724B
:1017200028256429000000005461736B5F564B65E7
:1017300079000000F8B5002540213B4800F04CFB43
:1017400018B1402000F078F8F8BD002000F0C4F88F
:101750000020009005E0601C84B23448844200DD23
:1017600054E04021304800F037FB0028F3D0B4F5B6
:101770007A6F00DAE8E7002405E0601C84B22B48A9
:10178000844200DD42E04021274800F025FB00288C
:10179000F3D1B4F57A6F00DA39E0022529E00024AC
:1017A00006E0601C84B241F28830844200DD2DE006
:1017B00040211D4800F010FB0028F2D0002406E074
:1017C000601C84B240F6AC50844200DD1EE0402133
:1017D000154800F001FB0028F2D10098400000906D
:1017E000B4F5FA6F03DD009840F001000090681C2A
:1017F000C5B2222DD3DB0EA002F014F9C6B26B469F
:1018000004220021304602F0B3FB00BF9CE708A091
:1018100002F008F9C6B26B4604220121304602F0FC
:10182000A7FB00BF90E70000000C0140A08601006C
:101830005461736B5F4952000149086070470000B2
:1018400014040140002123498279002A3AD00A4633
:10185000126803689A430B461A600A1D12680368EF
:101860009A430B1D1A60027911440A6803681A43EF
:101870000A60184A0832126803689A43154B083305
:101880001A601A1D126803689A43124B0C331A60CF
:101890004279102A0ED11A1F126803681A430D4BA1
:1018A00008331A601A1D126803681A43094B0C3377
:1018B0001A600DE00749427911440A6803681A4327
:1018C0000A6005E0027911440A6803689A430A60D5
:1018D000704700000004014010B504464020FFF7A7
:1018E000ABFF74B10B48006840F040000949086044
:1018F00008481438006840F0400006491439086070
:1019000007E004481438006820F040000149143909
:10191000086010BD1404014010B504464FF40040A7
:10192000FFF78AFF74B10C48006840F400400A4990
:10193000086009481438006840F40040064914392A
:10194000086007E004481438006820F400400249A9
:101950001439086010BD0000140401401FB50020B8
:10196000FFF7BAFF0121092001F064F84020ADF82B
:10197000000048208DF8030003208DF8020069461E
:10198000134800F013F90621012000F0D1F840209F
:10199000029000208DF80C000C208DF80D00012025
:1019A0008DF80E0002A8FFF74DFF17208DF80400F8
:1019B00000208DF805008DF8060001208DF8070045
:1019C00001A800F08BFF0120FFF786FF1FBD00007C
:1019D000000C01401FB50020FFF79EFF01210920E8
:1019E00001F028F84FF40040ADF8000048208DF8D1
:1019F000030003208DF802006946144800F0D6F871
:101A00000F21012000F094F84FF4004002900020D4
:101A10008DF80C000C208DF80D0001208DF80E00C3
:101A200002A8FFF70FFF28208DF8040000208DF892
:101A300005008DF8060001208DF8070001A800F0D0
:101A40004DFF0120FFF768FF1FBD0000000C0140A3
:101A50002DE9F84F82460C4617464FF0000800204B
:101A600000908146504600F0C5FA00F0FF0BBBF134
:101A7000000F2FD000202070002529E01AF8056003
:101A8000302E01DB012000E00020392E01DC012195
:101A900000E00021084209D04F4504D14046411CD6
:101AA00001F0FF082654012000900FE0009868B173
:101AB0004F4505D100224046411C01F0FF08225449
:101AC0000020009009F1010000F0FF09681CC5B278
:101AD0005D45D3DB4046BDE8F88F70B50B46044644
:101AE00003E014F8015B03F8015B1500A2F10106A5
:101AF000B2B2F6D170BD70B504460025107820B1A1
:101B000016782068B0FBF6F085B2206808442060A3
:101B10001078984203DA1078401C107002E02068B8
:101B2000401B206016782068B0FBF6F080B270BDD4
:101B300030B500228B071C0F0F2303FA04F20B4B66
:101B40008C1053F824309343084C8D1044F8253002
:101B500023468C1053F824308C07240F00FA04F429
:101B60002343024C8D1044F8253030BD080001405D
:101B700070B504460B4800680B49097800EB41102A
:101B8000C56904EB440205EB8202118904EB4402AF
:101B900005EB8202506800F01FF908B1012070BD0A
:101BA0000020FCE758000020280000202DE9F0412B
:101BB000024600250026002000230024002791F87B
:101BC00003C00CF00F0591F803C01CF0100F03D0F8
:101BD00091F802C04CEA050591F800C0BCF1000F75
:101BE00031D0146800202BE04FF0010C0CFA00F308
:101BF000B1F800C00CEA03069E4220D183004FF0EA
:101C00000F0C0CFA03F7BC4305FA03FC4CEA04047E
:101C100091F803C0BCF1280F06D14FF0010C0CFA6B
:101C200000FCC2F814C00AE091F803C0BCF1480FF0
:101C300005D14FF0010C0CFA00FCC2F810C0401C9A
:101C40000828D1D31460B1F800C0BCF1FF0F34DD17
:101C5000546800202EE000F1080C4FF0010808FA4B
:101C60000CF3B1F800C00CEA03069E4221D18300B8
:101C70004FF00F0C0CFA03F7BC4305FA03FC4CEAD7
:101C8000040491F803C0BCF1280F05D100F1080C41
:101C900008FA0CF8C2F8148091F803C0BCF1480FA0
:101CA00007D100F1080C4FF0010808FA0CF8C2F84F
:101CB0001080401C0828CED35460BDE8F08100009D
:101CC00038B50446002536E01D4A6068811A904206
:101CD00017D009DC1B4940180DD0B0F5806F0CD02F
:101CE000B0F5006F13D10AE0B1F5806F0BD0B1F5FC
:101CF000006F0CD109E0042509E0082507E0102554
:101D000005E0202503E0402501E0802500BF00BF5D
:101D100045F00100012100F08DFE20788DF80200D1
:101D20002089ADF8000060788DF80300694660688E
:101D3000FFF73CFF0C3420780028C5D138BD0000E7
:101D40000014014000F8FEBFF0B50A46002300244D
:101D50000021002500F00046B6F1004F02D11D4ED3
:101D6000F16901E01B4E7168C0F3034583B200F4D2
:101D70004016B6F5401F08D121F07061154E766807
:101D800026F07066134F7E6012E000F48016B6F500
:101D9000801F06D1032606FA05F4A14341F07061C5
:101DA00006E0460D360103FA06F6B14341F07061D4
:101DB00022B1460D360103FA06F6314300F0004623
:101DC000B6F1004F02D1034EF16101E0014E7160A6
:101DD000F0BD0000000001400246002093680B4265
:101DE00001D0012000E000207047416170471FB51D
:101DF0001C462CB1BDF80810019800F007F804E06B
:101E0000BDF808100198FFF7F0FF1FBD0161704792
:101E10002DE9F04104460D46084800680849097854
:101E200000EB4110C66904EB440006EB80072B462B
:101E300097E80700FFF7DBFFBDE8F08158000020BE
:101E400028000020F0B504460A46002300200025A3
:101E5000214633E00E78252E02D10125461CB0B272
:101E6000012D2AD10E78642E06D1AC461E465F1C89
:101E7000BBB202F806C000250E78662E07D14FF0DF
:101E8000020C1E465F1CBBB202F806C000250E788D
:101E9000732E07D14FF0030C1E465F1CBBB202F835
:101EA00006C000250E78632E07D14FF0040C1E46A5
:101EB0005F1CBBB202F806C00025491C0E78002E3C
:101EC000C8D1F0BD70B5032400F00CF805461E2300
:101ED000024A29460248FFF70EFE70BD8800002026
:101EE0008400002070B500254FF6FF7606E0064816
:101EF000FEF7DCFD0446AC4200DD25463000A6F1CD
:101F00000106F4D1284670BD002401400FB438B555
:101F1000044606A800902046009A059902F050FE5B
:101F200000200090204600F065F838BC5DF814FBF6
:101F30002DE9FC5F05460026B346B1464FF07E5AB8
:101F400044E015F8014B2D2C01D101263EE02E2C4A
:101F500002D14FF0010B39E0302C2EDB392C2CDC78
:101F6000BBF1000F0ED11F494846FEF755F98146D7
:101F7000A4F13000FEF70EFB07464946FEF7F4F8E1
:101F8000814623E05046FEF741FB0746164A174BB1
:101F9000FEF71FFACDE90001FEF74BFB8246A4F1E4
:101FA0003000FEF7F7FA80465146FEF735F907464E
:101FB0004946FEF7D9F8814608E026B10C49484663
:101FC000FEF72AF981464846BDE8FC9F287800289C
:101FD000B7DC26B106494846FEF71EF98146484659
:101FE000F2E70000000020419A9999999999B93F28
:101FF000000080BF10B5014600200A4601E0431CE6
:1020000098B212F8014B002CF9D110BD10B5002484
:102010000F48FFF755FE562000F020F8302000F062
:102020001DF8002000F01AF80A2000F017F803202D
:1020300000F014F8062000F011F800BF05E0FF21C1
:10204000204600F07FFB601CC4B2202CF7DB10BDE3
:102050003057000801E000F0D7FBFCE710B504465C
:1020600080210B48FFF7C1FE032000F03FF8042158
:10207000802000F00FF80821204600F00BF88021A6
:102080000348FFF7C3FE042000F030F810BD000045
:102090000008014070B504460D46002620E02021CE
:1020A0001148FFF7A2FE032000F020F814F0800F83
:1020B00004D010210C48FFF7A9FE03E010210A48C4
:1020C000FFF793FE032000F011F820210648FFF7E8
:1020D0009DFE6006040E012000F008F8701CC6B2D8
:1020E000AE42DCDB70BD00000008014000EB4001A7
:1020F00088B200BF0100A0F1010290B2FAD170478E
:1021000010B5002400BF12E00D4A125D02F00F016D
:102110006206100E00F016FB094A125D1111012231
:1021200002EB4402D0B200F00DFB601CC4B2102CD4
:10213000EADB102200210248FEF71FFE10BD00005E
:10214000C0B0002086B078E2642001F00FFEFB48AA
:10215000C07F10F0010F7AD0F848C07F10F0020F56
:10216000F9D0F648407C052819D2DFE800F00319C1
:102170005088BF00F248007840F02000F049087015
:102180000846407840F0080048700846407840F023
:10219000010048700846007840F0010008701EE118
:1021A000E84801780078401CE64A10700F2902DDEB
:1021B000002011460870E3480078072810DDE04849
:1021C000007840F02000DE4908700846407840F072
:1021D000080048700846407840F0010048700FE061
:1021E000D748007840F04000D5490870084600788C
:1021F00040F0100008700846407840F00200487037
:10220000CF48007840F00200CD490870E7E0CD48A3
:1022100001780078401CCB4A1070072902DD0020AD
:1022200011460870C7480078032811DDC4480078BB
:1022300040F02000C24908700846407840F008008D
:1022400048700846407840F00100487010E0D1E145
:10225000BB48007840F04000B94908700846007853
:1022600040F0100008700846407840F002004870C6
:10227000B348007840F00400B1490870AFE0B148BD
:1022800001780078401CAF4A1070022902DD00205E
:1022900011460870AB480078012810DDA848007886
:1022A00040F02000A64908700846407840F0080039
:1022B00048700846407840F0010048700FE0A048A0
:1022C000007840F040009E4908700846007840F0D1
:1022D000100008700846407840F0020048709848A6
:1022E000007840F008009649087078E0954800783A
:1022F000062868D2DFE800F00314253647589048D6
:10230000007840F040008E4908700846407840F060
:10231000010048708B480078401C8A49087056E0DC
:102320008748007840F040008549087008464078AA
:1023300040F00100487083480078401C81490870D3
:1023400045E07F48007840F010007D49087008465D
:10235000407840F0080048707A480078401C79497D
:10236000087034E07648007840F010007449087036
:102370000846407840F00800487072480078401CD9
:102380007049087023E06E48007840F020006C49E6
:1023900008700846407840F00200487069480078AC
:1023A000401C6849087012E06548007840F0200041
:1023B000634908700846407840F0020048700020E9
:1023C0006049087003E000205E49087000BF00BF4C
:1023D0005B48007840F080005949087000BF00BF9A
:1023E0005748C07840F080005549C8705348007F76
:1023F00008B9012000E000205049497F0F2901D190
:10240000012100E00021084206D04D48007940F04B
:1024100080004B49087105E04948807840F0800011
:10242000474988704548C07C4449897FCDE9001000
:102430004248437F027F44A103A8FFF767FD40485D
:10244000007A40F010003E4908723C49887C00F058
:1024500035FC3A48007810F0010F05D03848007A72
:1024600040F04000364908723448007810F0020FFE
:1024700005D03348007A40F02000314908722F48D7
:10248000817E807E401CC2B22C4882760A2901DD02
:10249000002181762948807E042805DD284840797E
:1024A00040F08000264948712448807E052190FB39
:1024B000F1F201FB120002281DDD204890F82000F7
:1024C000012804D0022808D0032813D10CE00222EE
:1024D000202103A8FEF751FC0CE0022220210DF17F
:1024E0000E00FEF74AFC05E00222202104A8FEF7B8
:1024F00044FC00BF00BF03A800F0B2F80F48428CB4
:1025000015A103A8FFF702FD03A800F0D7F80B48B8
:10251000017E007E401C094A10760A2939DD002020
:10252000114608760846807F002819DD0846807F1E
:10253000401EC1B2104681772BE0000094B000200D
:10254000C0B0002081000020253032642530326484
:10255000253032642564000025303464000000001A
:102560003648407F002808DD3448407F401EC1B215
:10257000324841773B2181770BE03048007F0028CB
:1025800007DD2E48007F401EC1B22C4801773B2159
:1025900041772A48007F98B92848407F80B927486A
:1025A000807F68B92548C07F10F0020F02D0032059
:1025B000FEF74FFB2148C07F20F002001F49C8777B
:1025C0001F48407840F080001D4948700846807AD6
:1025D00040F0800088720846807940F08000887161
:1025E0000846807B40F0010088730846C07940F0BF
:1025F0008000C8711148007810F0040F05D0104811
:10260000407A40F080000E4948720C48007810F083
:10261000080F05D00A48C07A40F080000849C87207
:102620000648007810F0100F05D00548007B40F0F8
:10263000800003490873FFF763FD85E594B000202F
:10264000C0B0002070B505460C4604480168284615
:1026500000F073FA265C304670BD00007800002060
:102660007CB5064600243546082200216846FEF760
:1026700084FB0EE028781049FFF7E4FF1DF80410F2
:1026800008430DF80400601CC4B26D1C072C00DD6B
:1026900002E028780028EDD100BF6D46002407E055
:1026A00015F8011B621CD0B200F038F8601CC4B2EF
:1026B000072CF5DB7CBD00005F5700087CB50646A3
:1026C00000243546082200216846FEF756FB0BE041
:1026D00028781049FFF7B6FF0DF80400601CC4B25B
:1026E0006D1C032C00DD02E028780028F0D100BF2B
:1026F0006D4600240BE015F8010BC4F10C01064AED
:10270000515C0843C4F10C015054601CC4B2042C49
:10271000F1DB7CBD48570008C0B0002010B5084A66
:10272000125C01F0F0031A43054B1A54421C9A5CE8
:1027300001F00F031A43024C431CE25410BD000089
:10274000C0B0002070B504460D4680210C48FFF74C
:102750004CFB0320FFF7CAFC0321A020FFF79AFCE3
:10276000A106080E0621FFF795FC2907080E042193
:10277000FFF790FC80210248FFF748FB70BD000086
:102780000008014070B504460D462B46224602491A
:10279000024800F005F870BD00F80308DB1A0008D5
:1027A0002DE9F0470746884614461D46A14608EB2A
:1027B000C52004222146B8474E463088B0F5006F48
:1027C00001DD012000E000203188042901DA012127
:1027D00000E00021084300D013E0328808EBC52058
:1027E0002146B8473088001F81B209F1040001F08A
:1027F000CBF882467188514500D002E00120BDE847
:10280000F0870020FBE7000071B600BF06480068B3
:1028100000F4E06005490843001D03490860BFF368
:10282000408F00BF00BFFEE70CED00E00000FA059E
:1028300000BFFEE702460A4B1868002106E0A2F13D
:102840000803834200D107E0014600680368002BBB
:10285000F5D101B10B60704703680B6000BFFAE768
:102860005C0000200146A1F108025068083870475A
:10287000054908600021044A126811600821024AD3
:1028800012685160704700005C00002010B50346DC
:102890001048016803F1080083B20FE00868401A8D
:1028A0004C68001B984208D3486842185360086877
:1028B00010600A6002F1080010BD0968086800286D
:1028C000ECD1486842180020106053600A6002F1A1
:1028D0000800F1E75C0000207047000070B500219F
:1028E00000230F22C4780CB3164C246804F4E0646F
:1028F000C4F5E064210AC1F10403CA40447804FA33
:1029000003F184781440214309010F4C0678A15546
:10291000047804F01F050124AC4005786D114FF0D8
:10292000E02606EB8505C5F8004109E0047804F0CF
:102930001F050124AC40054D0678761145F8264068
:1029400070BD00000CED00E000E400E080E100E07C
:1029500002490143024A1160704700000000FA0575
:102960000CED00E0F0B50446DDE905568C420EDAC8
:10297000081B84B2A81A60435F1AB0FBF7F084B258
:10298000101B84B2944200DD00242046F0BD9C421E
:102990000EDDE01A84B2A81A60435F1AB0FBF7F0AC
:1029A00084B2601984B2B44200DD34462046EDE7BB
:1029B0008C4210DB9C420EDC601A84B2A81A604381
:1029C0005F1AB0FBF7F084B2A01884B2B44200DD05
:1029D00034462046DAE70020D8E770470146002059
:1029E000034A506820F4404008435060704700009C
:1029F0000010024029B1064A52690243044B5A6151
:102A000004E0034A52698243014B5A617047000057
:102A10000010024029B1064AD2690243044BDA6130
:102A200004E0034AD2698243014BDA617047000037
:102A30000010024029B1064A92690243044B9A6190
:102A400004E0034A92698243014B9A617047000097
:102A50000010024030B500210022002400232D4D3B
:102A60006D6805F00C0121B1042905D0082923D196
:102A700005E0294D056022E0274D05601FE0254D4A
:102A80006D6805F47012234D6D6805F480340225DD
:102A900005EB92421CB9214D554305600BE01D4DDD
:102AA0006D6815F4003F03D01C4D5543056002E0EE
:102AB000194D5543056002E0174D056000BF00BF8A
:102AC000144D6D6805F0F0010909154D6B5C056842
:102AD000DD4045600F4D6D6805F4E061090A104D59
:102AE0006B5C4568DD4085600A4D6D6805F460519A
:102AF000C90A0B4D6B5C4568DD40C560054D6D68CE
:102B000005F44041890B074D6B5CC568B5FBF3F5D7
:102B1000056130BD0010024000127A0000093D003E
:102B2000000000201000002010B501210148FFF72F
:102B30000BF910BD0002300070470246002006E08D
:102B40000B78934200D17047431CD8B2491C0B78D4
:102B5000002BF5D100BFF6E710B5044634B1012CC7
:102B600011D0022C1CD0032C34D126E000210820E7
:102B7000FFF74EF900210920FFF74AF900210A204A
:102B8000FFF746F926E000210820FFF741F9002170
:102B90000920FFF73DF901210A20FFF739F919E073
:102BA00001210820FFF734F900210920FFF730F94F
:102BB00000210A20FFF72CF90CE000210820FFF784
:102BC00027F901210920FFF723F900210A20FFF747
:102BD0001FF900BF00BF10BD10B500F001F810BD17
:102BE0000CB50020019000903248006840F480301D
:102BF0003049086000BF2F48006800F400300090A2
:102C00000198401C0190009818B90198B0F5A06F88
:102C1000F1D12848006810F4003F02D00120009054
:102C200001E0002000900098012842D1224800686D
:102C300040F01000204908600846006820F00300BA
:102C400008600846006840F00200086019484068C3
:102C5000184948600846406848600846406840F4A3
:102C6000806048600846406820F47C104860084650
:102C7000406840F4E81048600846006840F0807002
:102C8000086000BF0B48006810F0007FFAD00948C8
:102C9000406820F00300074948600846406840F05B
:102CA0000200486000BF0348406800F00C0008289C
:102CB000F9D10CBD00100240002002402649897B5A
:102CC00041F00201244A9173012804DB1146897BFB
:102CD00041F004019173022805DB1F49497B41F053
:102CE00010011D4A5173032805DB1B49497B41F044
:102CF0002001194A5173042805DB1749497B41F02B
:102D00004001154A5173052805DB1349497B41F001
:102D10008001114A5173062805DB0F49497B41F0B8
:102D200008010D4A5173072805DB0B49497B41F027
:102D30000401094A5173082805DB0749497B41F022
:102D40000201054A5173092805DB0349497B41F01B
:102D50000101014A51737047C0B000202DE9F041D4
:102D600006460D462C4637462846FFF743F90444ED
:102D70003046FFF73FF9804618F1010001D1BDE868
:102D8000F08103E017F8010B04F8010B5FEA08007B
:102D9000A8F10108F6D104F8010B00BFEFE710B568
:102DA0000246087888B10CE0002305E0C818407896
:102DB00008B9104610BD5B1CD05CCC5CA042F5D0BD
:102DC000521C10780028EFD1F4E71046F2E710B556
:102DD00000F0DEFE10BD000030B51249B1F1807F79
:102DE00000D31DE021F07F40401E4FF0E0225061F3
:102DF00050170F22002807DA13071D0E0A4B00F0A8
:102E00000F04241F1D5503E013071C0E074B1C5411
:102E100000BF00204FF0E02290610720106100BF4A
:102E200030BD00004019010018ED00E000E400E0B2
:102E300010B51348006840F00100114908600846C9
:102E40004068104908400E494860084600680E492D
:102E500008400B4908600846006820F4802008609C
:102E60000846406820F4FE0048604FF41F00886068
:102E7000FFF7B2FE4FF000600449086010BD00008B
:102E8000001002400000FFF8FFFFF6FE08ED00E032
:102E90001CB54A48FDF774FD00F092F80020474940
:102EA0002839C87700210120FEF7B2FF00214348EE
:102EB0002838017741770A218177C07F40F00100EF
:102EC0003E492839C8770846C07F40F00200C877DD
:102ED000FFF72AFE39482838006840F004003749D7
:102EE00028390860002135482838C174042141740C
:102EF0008174417400203149283981F8260000216D
:102F00000620FEF785FF00210720FEF781FF012143
:102F10000420FEF77DFF142000F028FF002104208C
:102F2000FEF776FF642000F021FF01210420FEF768
:102F30006FFF642000F01AFF00210420FEF768FFF5
:102F400000210846FEF764FF00210220FEF760FF23
:102F500000210320FEF75CFFFDF7E3FE2CE0642078
:102F600000F004FF01210520FEF752FFFEF7AAFF43
:102F7000044642F228304FF4FA514FF480530022B5
:102F8000CDE900104FF42F712046FFF7EBFC0B4901
:102F900028394884092000900190488C4FF4FA5356
:102FA00000221146FFF7DEFCC1B2044828388174C4
:102FB00000210520FEF72CFFD1E70000BCB0002067
:102FC00010B5FDF71BFE10B9FF2106480174002063
:102FD000FEF79EF8FF20FEF7A7F80348FEF79EF8DD
:102FE00010BD000094B00020A54B000806463746EF
:102FF000384601F061FC05461BE00E4951F82500FA
:103000003221FDF7C7FE4FF47A7332220021384691
:1030100001F046FD044664B1064850F825000178E9
:1030200005484174034850F825102246384601F0FF
:10303000A3FDE2E79000002094B0002086B0064691
:103040003746384601F038FC044659E02D4951F81E
:1030500024006421FDF79EFE64231A4600213846B1
:1030600001F01EFD0546002D4AD0264951F82400E6
:103070000521FDF787FF0020224951F8241048550B
:10308000204951F8240020A1FFF789FE00282CD008
:103090001C4951F82400012201A9FEF7D9FC01A81E
:1030A000FEF746FF8046FDF77EFA85B21848858414
:1030B0003C2095FBF0F0C1B2154801773C2095FB10
:1030C000F0F100FB1150C1B211484177427F017FFE
:1030D000052310A0FDF756FF0D48C07F40F0020009
:1030E0000B49C8770220FDF7B4FD064951F82400CA
:1030F0000EA1FFF754FE18B10020054981F8260003
:10310000A4E70000900000207377697463680000F2
:1031100094B0002053657454696D6520486F7572D2
:103120003D2564204D696E3D25640000636F6E6E21
:10313000656374206F6B00008AB0044626463046F3
:1031400001F0BAFB1EE01048417F007FC0EB001089
:1031500001EB80000C49498CCDE900100A48C07F82
:1031600000F001030848828C08A102A8FEF7CEFEF9
:10317000C5B22A4602A9304601F0FEFC42F21070A8
:1031800000F0F4FDDFE7000094B000202325642C5C
:1031900025642C25642C2564230000008046B8F1AA
:1031A000000F02D008F0FF0500E00A25E800FFF755
:1031B0006DFB814605EB45018800FFF767FB824602
:1031C000002608E006EB46000AEB800009EBC6018A
:1031D0004860701CC6B2AE42F4DB2946484600F097
:1031E00095FD154800781549087024E00A2000F084
:1031F000BDFD00F051FE0746EFB17C68207906283E
:1032000018D2DFE800F01703060A0E122068804784
:1032100010E0207A216888470CE02168A068884780
:1032200008E02168A068884704E0228990B22168FC
:10323000884700BF00BFD9E7480000206C0000208D
:103240008EB0002606E004A802A901EBC601486082
:10325000701CC6B2012EF6DB012102A800F056FD5B
:10326000FEF77CFB45E10A2000F04CFE0546A14834
:10327000C07F10F0020F7AD0002DFCD0287848BB18
:103280006078202825D10120FEF772FC50B19948C2
:10329000C07F40F001009749C87700210120FEF768
:1032A000B7FD14E001210846FEF7B2FD9148C07F4A
:1032B00020F001008F49C87702224FF4A5714FF426
:1032C0007A70FDF7EFFC01210320FEF7A1FD00203D
:1032D000607000BF00BF8748C07F10F0010FCAD0E8
:1032E0002878002878D16C6820786178C943C9B201
:1032F00088420DD1A078E178C943C9B2884207D18C
:1033000000200090E27861787BA03B68FDF73AFEF0
:1033100001210620FEF77CFD01224FF416714FF4C7
:103320007A70FDF7BFFC0120FEF7D6FAE07880281E
:1033300078D1607810F00F0F18D100110F2815D236
:10334000DFE800F0CE3092CEBD4B23CEAC583DCE60
:1033500008711600002167484174417C05226DA068
:10336000FDF710FE6349487CFFF7F6FBB8E0BAE0D2
:10337000012160484174417C052266A0FDF702FEF0
:103380005C49487CFFF7E8FBAAE0022159484174F8
:10339000417C05225FA0FDF7F5FD5649487CFFF70B
:1033A000DBFB9DE0032153484174417C052259A079
:1033B000FDF7E8FD4F49487CFFF7CEFB90E0042184
:1033C0004C484174417C052252A0FDF7DBFD494980
:1033D000487CFFF7C1FB83E084E004214548417449
:1033E000417C05224BA0FDF7CDFD4249487CFFF70B
:1033F000B3FB75E03F48C07C401CC1B23D48C1747E
:10340000C07C012802DD00213A48C1743948C17CE2
:10341000052243A0FDF7B6FD3648C17C0320FEF728
:10342000F7FC5DE05DE03348007810F0020F06D055
:103430003048006820F002002E49086005E02D4861
:10344000006840F002002B4908602A48007810F01C
:10345000020F04D001210720FEF7DAFC03E000216F
:103460000720FEF7D5FC3BE00120FEF781FB50B1C1
:103470002048C07F40F001001E49C877002101208C
:10348000FEF7C6FC09E001210846FEF7C1FC194819
:10349000C07F20F001001749C87721E001210020FA
:1034A000FEF7B6FC00210220FEF7B2FC4FF4487094
:1034B00000F05CFC00210846FEF7AAFC10E00021A9
:1034C0000846FEF7A5FC01210220FEF7A1FC4FF4FF
:1034D000487000F04BFC00210220FEF799FC00BF71
:1034E00000BF00BF00BF0120FEF7F6F91E2000F06C
:1034F0003DFCB8E694B000204B65793D25642C4333
:103500006F64653D25782C5246446174613D257891
:1035100000000000C9E8D6C3B7E7C9C825640000A9
:10352000C9E8D6C3B5C6C1C1B6C82564000000004D
:1035300000249CE04FF4FA6000F018FC4C48C07F77
:1035400010F0020F50D04A48C07F10F0010F03D096
:1035500000210120FEF75CFC4548407C04282AD16C
:103560004348408CB0F57A7F03DD0320FFF7F4FA7F
:103570000EE03F48408C642803DD0220FFF7ECFAA0
:1035800006E03B48408C002802DD0120FFF7E4FA0A
:103590003748408CB0F57A7F06DD3548006840F04A
:1035A0000200334908601AE03148006820F0020048
:1035B0002F49086013E02E49487CFFF7CDFA2C48CC
:1035C000407C30B12A48006840F002002849086079
:1035D00005E02748006820F0020025490860002126
:1035E0000620FEF715FC0EE001210846FEF710FC50
:1035F0000020FFF7B1FA01210320FEF709FC0121A9
:103600000620FEF705FC1A48007810F0020F04D0DF
:1036100001210720FEF7FCFB03E000210720FEF755
:10362000F7FB2046611CCCB2642820DD104890F8DE
:10363000261090F82600401C0D4A82F826006429C6
:1036400008DD06220BA10D4801F096FA002008497A
:1036500081F82600064890F826000A2806DD04486E
:1036600090F82610052206A0FDF78CFC002461E7E7
:1036700094B000205245534554202000004800409B
:1036800047505253204661696C20436F756E743DFC
:10369000256400008EB0002606E004A802A901EB14
:1036A000C6014860701CC6B2012EF6DB012102A8DB
:1036B00000F02CFBFEF78EF940E10A2000F022FC1E
:1036C00005469F48C07F10F0020F71D0002DFCD03E
:1036D000287868BB6078022829D10120FEF748FAD3
:1036E00070B19748C07F40F001009549C87700212C
:1036F0000120FEF78DFB00210620FEF789FB14E078
:1037000001210846FEF784FB8D48C07F20F00100B0
:103710008B49C87702224FF4A5714FF47A70FDF7F8
:10372000C1FA01210620FEF773FB0020607000BF84
:1037300000BF8348C07F10F0010FC6D02878002852
:1037400070D16C6820786178C943C9B288420DD1C4
:10375000A078E178C943C9B2884207D1002000901F
:10376000E278617877A03B68FDF70CFC0121062028
:10377000FEF74EFB01224FF416714FF47A70FDF7FD
:1037800091FA0120FEF7C8F8E078E9287ED1607848
:1037900021287CD00DDC082866D004DC012826D046
:1037A00004281AD11AE010282AD02028F9D130E0B4
:1037B000BDE080286CD004DC40283DD05028F0D1FA
:1037C00031E0BA286CD0C028EBD100215C484174AC
:1037D000417C052262A0FDF7D5FBA5E001215848F8
:1037E0004174417C05225EA0FDF7CCFB9CE00221E8
:1037F00053484174417C052259A0FDF7C3FB93E077
:1038000003214F484174417C052255A0FDF7BAFBC6
:103810008AE004214A484174417C052250A0FDF70A
:10382000B1FB81E082E0042145484174417C0522DE
:103830004BA0FDF7A7FB77E04148C07C401CC1B21C
:103840003F48C174C07C012802DD00213C48C1749E
:103850003B48C17C0320FEF7DBFA3948C17C0522D6
:1038600042A0FDF78FFB5FE03548C07C401CC1B231
:103870003348C174C07C012802DD00213048C17486
:103880002F48C17C0320FEF7C3FA02E04DE031E08F
:103890001DE02B48C17C052234A0FDF773FB43E0FB
:1038A000274890F82000401C254981F82000084650
:1038B00090F82000032802DD002081F82000204835
:1038C00090F8201005222DA0FDF75CFB2CE01C4891
:1038D000007810F0020F06D01948006820F00200AE
:1038E0001749086005E01648006840F002001449D6
:1038F000086019E00120FEF73BF950B11048C07F85
:1039000040F001000E49C87700210120FEF780FA3F
:1039100009E001210846FEF77BFA0948C07F20F044
:1039200001000749C87700BF00BF00BF00BF0120EA
:10393000FDF7F2FF4FF4967000F018FABDE60000B4
:1039400094B000204B65793D25642C436F64653D40
:1039500025782C5246446174613D257800000000B2
:10396000C9E8D6C3B7E7C9C825640000C9E8D6C30B
:10397000B5C6C1C1B6C8256400000000D1A1D6D02B
:10398000B5F7D5FB25640000F0B502460C46FF21D3
:10399000FF2500260BE012F8017B87EA0503084F9C
:1039A000FF5C87EA0105074FF95C771CBEB2A642AF
:1039B000F1DB08464FF6FF7707EA00202843F0BD09
:1039C000305500083056000810B51048007813280C
:1039D00004D00F480078401C0D4908700D4800784D
:1039E000401C0C4908700846007864280DDD002052
:1039F00008701423084A064801780848FEF77BF847
:103A00000749087000200249087010BD48000020D6
:103A1000340000202C0000202D0000203000002069
:103A20004000002070B50546002413E004EB44007C
:103A3000094A126802EB0010C16A2846FDF7B4F982
:103A400008B1204670BD601C80B20446142801DB1A
:103A5000FF20F7E7EAE700004C00002010B54FF424
:103A60007070FEF713FF1E49086002201D49487060
:103A700000204860002428E0012004EB4401184A9B
:103A8000126802EB01110881002004EB4401144A82
:103A9000126802EB01118861002104EB4400104A16
:103AA000126802EB00100160002004EB44010C4A94
:103AB000126802EB0111C86104EB4401084A126864
:103AC00002EB01110884601CC4B2142CD4DB132057
:103AD000054908700020054908600549086010BDC7
:103AE0004C00002040000020480000205000002032
:103AF0006000002070B50446FFF7B0FF04E094E8D2
:103B00000F0000F0D1F8103420680028F7D100F041
:103B100027F870BDFDF70AFD04E0642000F026F9E7
:103B200000F002F8F9E7000010B50C48046804B989
:103B300010BD0EE02468A07A10F0010F09D0A07A21
:103B400010F0020F05D0E0688047A07A20F0020054
:103B5000A07220680028EDD100BFE9E760000020D6
:103B600008B5FFF739F94FF4FA6005A300220749B9
:103B70000090132000F030F8132000F017FB08BD70
:103B80005461736B526F6F7400000000153B0008A6
:103B900010B5FFF719FF00F02DFA084840784028CB
:103BA00005D1032106A0FDF7EDF9FEF72DFE09482A
:103BB000006808B100F0F4FB10BD000040000020D8
:103BC000544F532054696D654F7574205265736569
:103BD00074000000600000202DE9F04704460D4607
:103BE00091461F46DDF820800DB9BDE8F08704EB53
:103BF00044002C49096801EB00100089012800D01D
:103C0000F3E704EB44002749096801EB0010008C3E
:103C100098B91FFA88F0FEF739FE064604EB440116
:103C2000204A126802EB0111A1F8208004EB440144
:103C30001C4A126802EB0111CE6104EB4402194BDD
:103C40001B6803EB0212118C04EB4402154B1B683A
:103C500003EB0212D06900F06FFB8246022104EBF5
:103C60004400104A126802EB0010018104EB44008A
:103C70000C49096801EB0010456004EB4400094958
:103C8000096801EB0010C7624A462946504600F019
:103C900055FA04EB4401034A126802EB0111086073
:103CA00000BFA2E74C0000202DE9F84305460E4670
:103CB0001746984600241AE004EB440012490968AC
:103CC00001EB0010008900B912E004EB44000E493A
:103CD000096801EB00100089012800D108E0601C90
:103CE00080B20446142802DB0020BDE8F883E3E735
:103CF00000BFE0B23B4632462946CDF80080FFF7D0
:103D00006BFF0120F1E700004C00002010B5154AC0
:103D1000127802EB4202144B1B6803EB0212906212
:103D2000104A127802EB42020F4B1B6803EB02129F
:103D300082F8231000220B4B1B7803EB43030A4C41
:103D4000246804EB031383F824200023054A127827
:103D500002EB4202044C246804EB021282F8253084
:103D600010BD0000480000204C00002010B50446A3
:103D70001348407801281FD000201249097801EB30
:103D80004101114A126802EB011188610D48007867
:103D900000EB40000C49096801EB00104461102160
:103DA0000848007800EB4000074A126802EB001058
:103DB000018100F071FA02E02046FCF73DFF10BDE2
:103DC00040000020480000204C00002001460D4823
:103DD000006800EB4110007A08B9002070470948DC
:103DE000006800EB41104079074A1278904201D0F8
:103DF0000020F3E70120034A126802EB411210721F
:103E000000BFEBE7580000204800002070B50446D2
:103E10000D4600BF1E48006800EB4410007A30B128
:103E2000012815D0022804D003282FD11FE000203C
:103E300070BD1748006800EB4410407915490978B7
:103E4000884201D10120F3E7204600F0D3FAE1E7F0
:103E500002200F49096801EB441108720D480078EF
:103E60000B49096801EB441148710120E0E7022089
:103E70000749096801EB44110872064800780449B3
:103E8000096801EB441148710120D1E70020CFE718
:103E9000580000204800002070B51848007800EB5A
:103EA00040001749096801EB0014A06A08B9002016
:103EB00070BD94F8250018B91048007800F088F912
:103EC00094F8250008B90020F2E704F12304D4F89F
:103ED0000500617800EBC105607800F101002178F0
:103EE00090FBF1F201FB12006070A078A0F10100DC
:103EF000A070A4F123042846DAE70000480000205F
:103F00004C00002070B506461748007800EB4000D2
:103F10001649096801EB0014A06A08B9002070BDB9
:103F200094F8250010B93046FFF720FF94F82500DB
:103F300008B90020F3E704F12304D4F80500617800
:103F400000EBC105607800F10100217890FBF1F2EF
:103F500001FB12006070A078A0F10100A070A4F134
:103F600023042846DBE70000480000204C00002026
:103F70002DE9F0470646884691469A46142E01DB05
:103F8000BDE8F08706EB46001949096801EB00140B
:103F9000A06A00B9F4E794F8250094F82310884249
:103FA00020DA04F123046078A1780844217890FB9A
:103FB000F1F201FB1200C7B214F82309B84200DC89
:103FC000DEE7A06A00EBC70585F800804A46504648
:103FD0006968FCF7C1FE85F8019094F82500401C43
:103FE00084F82500304600F065F800BFC8E70000FF
:103FF0004C000020002056E000EB40012B4A1268E4
:1040000002EB01110989022902D0102947D11DE0D4
:1040100000EB4001254A126802EB01118969491C35
:1040200000EB4002214B1B6803EB0212916100EB95
:1040300040011E4A126802EB0111896944F62062B0
:10404000914202D940211A4A517029E0002100EB27
:104050004002164B1B6803EB0212916100EB40011A
:10406000124A126802EB0111496941B9022100EBC1
:1040700040020E4B1B6803EB021211810EE000EBB5
:1040800040010A4A126802EB01114969491E00EB1E
:104090004002064B1B6803EB0212516100E000BFB7
:1040A00000BF411CC8B21428A6DB70474C0000209A
:1040B00040000020142800DB704700EB4001094A53
:1040C000126802EB01110989012900D1F4E71021DE
:1040D00000EB4002034B1B6803EB0212118100BF8F
:1040E000EAE700004C00002010B504460F480078B5
:1040F000A04200D110BD0D48007800EB40000C49F3
:10410000096801EB00100B4908600848047000784A
:1041100000EB40000649096801EB00100068064901
:104120000860FCF7EDFB00BFE4E70000480000205A
:104130004C0000203C0000203800002030B5034631
:104140001846041F20462160041F204623600025D6
:10415000041F20462560041F20462560041F2046BA
:104160002560041F20462560041F20462560041F8B
:1041700020462560041F20462560041F2046256038
:10418000041F20462560041F20462560041F20468A
:104190002560041F20462560041F204622604FF042
:1041A0008075041F2046256030BD000010B5044610
:1041B00004EB44000449096801EB0010006803495E
:1041C0000860FCF7B6FB10BD4C0000203800002052
:1041D00010B50446142C00DB10BD04EB44000E495E
:1041E000096801EB00100089012800D1F4E70420E0
:1041F00004EB4401084A126802EB01110881002116
:1042000004EB4400044A126802EB0010416100F024
:1042100043F800BFE0E700004C00002010B5044662
:10422000142C01DB002010BD04EB4400194909687F
:1042300001EB00100089012801D10020F3E704EB15
:1042400044001449096801EB00100089042801D1D9
:104250000020E8E704EB44000E49096801EB001078
:104260000089082801D10020DDE7082004EB440183
:10427000084A126802EB01110881002004EB440196
:10428000044A126802EB0111486100F005F80120B0
:10429000C9E700004C00002010B502212348006847
:1042A000A0F8981300243DE004EB44001F4909687E
:1042B00001EB00100089022802D020282ED107E04F
:1042C0001B480078A04202D02046FFF70DFF10BD2A
:1042D00004EB44001549096801EB001090F8220036
:1042E0001449096801EB4010007A012815D110200B
:1042F00004EB44010D4A126802EB0111088103200E
:1043000004EB4401094A126802EB011191F82210F2
:10431000084A126802EB4111087200E000BF00BFBA
:10432000601CC4B2142CBFDB00BFD0E74C000020DF
:1043300048000020580000200246501820F00303D7
:10434000A3F1300020F007007047000010B51428DA
:1043500000DB10BD00EB4002104B1B6803EB0212A8
:104360001289042A00D1F4E7002200EB40030B4C31
:10437000246804EB03139A61102300EB4002074CFE
:10438000246804EB0212138100EB4002034B1B680C
:1043900003EB0212516100BFDBE700004C0000207C
:1043A00010B51348006800B910BD11480068E0B1AD
:1043B0000F480068807A10F0010F16D00C48006892
:1043C00000890B4909688988884207DB0849096820
:1043D000C8688047002006490968088104480068C9
:1043E0000089401C02490968088100BFDCE7000021
:1043F0006000002010B504460B48007800EB400038
:104400000A49096801EB001080F822402020064983
:10441000097801EB4101054A126802EB011108819C
:10442000FFF73AFF10BD0000480000204C000020BC
:1044300010B540F22551114800F013FAC0B10F48F1
:10444000001D0088C4B20E48C0880E49C988884241
:1044500013DA0B48C188C088401C094AD0800A483A
:10446000C06844540949C8780A21FFF76FFF04E087
:1044700040F22551014800F0D4F810BD004C004036
:10448000C2000020B800002090000020230000207F
:1044900010B540F22551114800F0E3F9B8B10F48CA
:1044A0008088C4B20E4800890E490989884213DA0F
:1044B0000B4801890089401C094A10810A4800699B
:1044C00044540A4908790A21FFF740FF04E040F20A
:1044D0002551024800F0A5F810BD00000050004032
:1044E000C2000020B800002090000020230000201F
:1044F00010B540F22551114800F0B3F9C0B10F4892
:10450000001D0088C4B20E4800880E490988884200
:1045100013DA0B4801880088401C094A10800A48B9
:1045200000684454094908780A21FFF70FFF04E0A6
:1045300040F22551014800F074F810BD00380140E8
:10454000C2000020B80000209000002023000020BE
:1045500010B540F22551114800F083F9C0B10F4861
:10456000001D0088C4B20E4840880E494988884220
:1045700013DA0B4841884088401C094A50800A4899
:1045800040684454094948780A21FFF7DFFE04E0F7
:1045900040F22551014800F044F810BD00440040AD
:1045A000C2000020B800002090000020230000205E
:1045B00010B540F22551114800F053F9C0B10F4831
:1045C000001D0088C4B20E4880880E498988884240
:1045D00013DA0B4881888088401C094A90800A4879
:1045E00080684454094988780A21FFF7AFFE04E047
:1045F00040F22551014800F014F810BD0048004079
:10460000C2000020B80000209000002023000020FD
:1046100001F40072B2F5007F00D100BFCA430280EE
:10462000704710B500220023A1F510646A3C00D148
:1046300000BF0A1201249440A3B2DC43048010BDE1
:1046400021B1828942F40052828104E082894DF6D0
:10465000FF731A408281704770B50446204600F00F
:104660004FF9054600F06EF8052C27D2DFE804F07C
:10467000030A11181F0025224FF4E131104800F001
:1046800029F81BE026224FF4E1310E4800F022F811
:1046900014E027224FF4E1310B4800F01BF80DE045
:1046A00034224FF4E131094800F014F806E03522D5
:1046B0004FF4E131064800F00DF800BF00BF70BDB7
:1046C000003801400044004000480040004C0040D9
:1046D0000050004070B586B006460C461546019461
:1046E0000020ADF80800ADF80A00ADF80C00ADF8F8
:1046F00010000C20ADF80E0001A9304600F044F97E
:10470000012240F22551304600F018F901213046CF
:10471000FFF796FF40213046FFF77AFF4FF48060A5
:10472000FEF716F98DF8145002208DF815000120BF
:104730008DF816008DF8170005A8FEF7CFF806B023
:1047400070BD000038B50446274884420BD10D20C7
:104750002315264A51150090104600F057F8012104
:104760008803FEF767F9224884420BD1042008230E
:104770001E4A01460090104600F048F80121480406
:10478000FEF748F91B4884420FD10920E3141A4A66
:1047900011150090104600F039F801218804FEF749
:1047A00039F901218804FEF745F9144884420BD1F8
:1047B0001120E314124A11150090104600F026F85B
:1047C0000121C804FEF726F90E4884420BD131209E
:1047D00004230D4A91140090094800F017F80121B4
:1047E0000805FEF717F938BD003801400008014000
:1047F0000044004000480040000C0140004C0040D4
:104800000010014000500040001401402DE9F84321
:1048100007460D4616461C46DDF82080012140461D
:10482000FEF708F9ADF8005003208DF802001820BB
:104830008DF8030069463846FDF7B8F9ADF8004039
:1048400004208DF8030069463046FDF7AFF929468C
:104850003846FDF7DBFA21463046FDF7D7FABDE8CA
:10486000F88370B502460024002300250020A1F53E
:1048700010666A3E00D100BFC1F3421501F01F036C
:10488000012606FA03F3012D02D19689334006E092
:10489000022D02D1168A334001E0968A33400C1271
:1048A000012606FA04F41688344013B10CB1012035
:1048B00000E0002070BD000001460F4A881A9142B6
:1048C00013D006DC0D4808180BD0B0F5806F10D15E
:1048D00009E0B0F5806F0AD0B0F56C4F09D1002027
:1048E00070470120FCE70220FAE70320F8E70420E4
:1048F000F6E70020F4E70000004C004000BCFFBFDA
:10490000014605290ED2DFE801F0030507090B0077
:10491000054870470548FCE70548FAE70548F8E709
:104920000548F6E70020F4E7003801400044004065
:1049300000480040004C004000500040F0B50346E5
:104940000024002600250020A1F510676A3F00D151
:1049500000BF1846C1F3421401F01F06012707FAF1
:1049600006F5012C01D10C3004E0022C01D11030ED
:1049700000E014301AB107682F43076002E00768AF
:10498000AF430760F0BD00002DE9F04786B0054653
:104990000E460024A24600BFA1460027B08900B100
:1049A00000BF2F462C8A4CF6FF700440F088044369
:1049B0002C82AC894EF6F3100440B088318908434C
:1049C000718908430443AC81AC8A4FF6FF40044030
:1049D000B0890443AC8201A8FEF73CF81F48874227
:1049E00002D1DDF810A001E0DDF80CA0A88910F4D8
:1049F000004F08D00AEBCA0000EB0A1031684900EA
:104A0000B0FBF1F807E00AEBCA0000EB0A103168CE
:104A10008900B0FBF1F86420B8FBF0F00401200934
:104A2000642101FB1089A88910F4004F08D03220BE
:104A300000EBC900B0FBF1F000F00700044308E010
:104A4000322000EB09106421B0FBF1F000F00F0000
:104A500004432C8106B0BDE8F08700000038014017
:104A60002DE9F05F05460E4614462F46B046A14696
:104A70003846FFF721FF8246084951F82A00FDF722
:104A8000F1FE1FFA80FB00235A464146384600F0EB
:104A900007F8A9F80000BDE8F09F00009000002092
:104AA0002DE9F04781460F4615461E464846FFF75A
:104AB00003FF04462249085D0021FFF7A7F982465B
:104AC000204951F82400FDF7CDFE8046BAF1000FD1
:104AD00027D0012240F225514846FFF72FFF1A4800
:104AE00000781A490855454501D31FFA88F518483A
:104AF00020F814500020174921F814001EB1304648
:104B0000FFF734F903E01149085DFFF787FB0C4913
:104B1000085DFFF75BF9002240F225514846FFF798
:104B20000DFF47B10B4931F81420064951F8240014
:104B30003946FCF711F9074830F81400BDE8F08752
:104B400019000020900000204800002023000020D1
:104B5000B8000020C20000202DE9F04304460D46B5
:104B600016462746A846B6F800904A4641463846BB
:104B700000F002F8BDE8F08310B50B46002108E014
:104B800000BF048814F0800FFBD05C5C84804C1C58
:104B9000A1B29142F4DB10BD10B54FF48020FCF7B8
:104BA0004BFE10BD70B504460D462A46214602480C
:104BB000FFF7E2FF70BD00000044004000BFFEE7C9
:104BC00037B514460846064B6A46214600F0C8F839
:104BD00004466946002000F066FC20463EBD000009
:104BE000A754000802E008C8121F08C1002AFAD121
:104BF00070477047002001E001C1121F002AFBD15D
:104C0000704700002DE9FF5FDDE90220010DDDF8AE
:104C100038B0024310D10F9801244CA2012808D0CB
:104C2000002100980F9BC0E90021C0E90243BDE8C4
:104C3000FF9F6FEA0B01F4E7A1F2FF3144F6105039
:104C400041430D140F9801280ED0A5EB0B00401C1A
:104C50004FF000043E4EDFF8FC90B0F1000AA04691
:104C600005DACAF1000717E0CBF10000F0E70746CC
:104C700012E0F80707D02246334640464946FBF784
:104C8000A8FB804689462246334610461946FBF764
:104C9000A0FB04460E467F10002FEAD1DDE9020199
:104CA000BAF1000F42464B4602DAFBF792FB01E0F5
:104CB000FBF701FC04460E460022274BFBF7FAFDEA
:104CC00003D84FF0FF30014607E00022234B204677
:104CD0003146FBF7D7FAFBF7D5FD102409E0002C8D
:104CE0000ADB0A220023FBF7D6FC019B30321A555F
:104CF000641E50EA0102F2D1641C019AC4F111034E
:104D000014440F9A012A09D00122084301D15B45BE
:104D10000FDD4FF0000205F101050DE0084303D15E
:104D2000A3EB0B056D1E09E000204FF0110B0F9057
:104D300088E701DA00226D1E002A83D000980F99BF
:104D4000C0E90231C0E9004571E700003000000011
:104D5000000024400000F03F0000F0430000E03F6E
:104D60002DE9FF4F95B09B4689460646002512E285
:104D7000252878D10024761CF94A2746012105947C
:104D80003378203B01FA03F0104202D00443761C32
:104D9000F6E730782A2811D06FF02F033078A0F191
:104DA0003002092A16D8059A44F0020402EB820266
:104DB00003EB42021044761C0590EFE759F8042BF0
:104DC0000592002A03DA504244F40054059044F05E
:104DD0000204761C30782E2816D116F8010F44F004
:104DE00004042A280DD06FF02F023078A0F1300390
:104DF000092B09D807EB870302EB4303C718761C7E
:104E0000F3E759F8047B761C30786C280FD006DC69
:104E10004C2817D068280DD06A2814D104E07428D3
:104E200010D07A280FD10DE044F400140AE044F4C5
:104E3000801401E044F440147278824202D1761C5E
:104E400004F58014761C307866280BD013DC5828C3
:104E500077D009DC002875D04528F6D04628F4D054
:104E600047281AD19FE118E0632835D0642879D00B
:104E7000652812D197E1702873D008DC6728F1D03B
:104E800069286FD06E280DD06F2806D1B5E0732841
:104E90002CD0752875D0782874D05A461799904729
:104EA0006D1C76E1C4F30250022809D003280DD00E
:104EB000D9F8001004280DD00D6009F1040968E14B
:104EC000D9F80010EA17C1E90052F6E7D9F8001046
:104ED0000D80F2E70D70F0E719F8041B8DF8001053
:104EE00000208DF80100EA46012003E059F804ABE8
:104EF0004FF0FF3061074FF0000102D40DE008F1E0
:104F000001018846B9420FDA8045F8DB1AF808102B
:104F10000029F4D108E008F1010188468142FADB5A
:104F20001AF808100029F6D105985B46A0EB08078F
:104F300021463846179A00F09EFA284400EB0805EF
:104F400007E04DE02BE10DE01AF8010B5A461799E6
:104F50009047B8F10108F7D25B4621463846179AC8
:104F600014E142E00A220092C4F302524FF0000A18
:104F7000022A08D059F804CB032A4FEAEC710AD070
:104F80000DE029E02AE009F1070121F00702F2E82B
:104F900002C1914609E00FFA8CFC4FEAEC71042A39
:104FA00003D14FFA8CFC4FEAEC71002907DA0A466C
:104FB0000021DCF1000C61EB02012D2202E0220550
:104FC00004D52B228DF80420012203E0E20701D052
:104FD0002022F7E7904653E00A2102E010220DE07C
:104FE00010214FF0000A00910BE010224FF0000A50
:104FF00044F004040827009203E008224FF0000A5E
:105000000092C4F30252022A05D059F804CB0021C1
:10501000032A08D009E009F1070121F00702F2E8AC
:1050200002C1914605E01FFA8CFC042A01D10CF064
:10503000FF0C4FF00008220722D5702827D0009BD4
:1050400083F0100353EA0A0309D15CEA010206D097
:1050500030228DF804208DF8050002229046009B36
:1050600083F0080353EA0A030AD15CEA010201D182
:10507000620705D530228DF804204FF001087F1E0D
:10508000582809D037A003900EA8029013E04022C0
:105090008DF804200122E1E737A0F4E7534660468B
:1050A000009AFBF7F8FA84460398825C0298A0F114
:1050B0000100029002705CEA0100EFD1029806A99B
:1050C000A1EB000000F1200A600702D524F480342F
:1050D00000E00127574502DDA7EB0A0000E00020B1
:1050E00000EB0A01009005984144A0EB01000590F7
:1050F000E00306D45B462146179A059800F0BBF9F9
:105100000544002706E001A85A46C05D179990475C
:105110006D1C7F1C4745F6DBE0030CD55B46214642
:10512000179A059800F0A7F9054404E030205A4684
:10513000179990476D1C0099481E00900029F5DCD6
:1051400008E0029802995A460078491C0291179982
:1051500090476D1CBAF10001AAF1010AF1DC6BE184
:10516000092801003031323334353637383961623D
:105170006364656600000000303132333435363701
:1051800038394142434445460000000000F060F9D0
:10519000054406F10106307800287FF4E9AD19B026
:1051A0002846BDE8F08F620700D4062709F1070200
:1051B00022F0070CFCE80223E14603F000485FEA16
:1051C000080C02D00FF27C2C0DE05FEA045C02D5E3
:1051D0000FF2742C07E05FEAC47C02D00FF26C2C53
:1051E00001E0AFF2700C4FF0FF3823F00043CDF830
:1051F00050C065280CD006DC452809D046281DD0B3
:1052000047283ED13EE0662818D0672839D139E0DA
:105210000021112F01DB112000E0781CCDE90001F5
:1052200006A90EA8FFF7EEFCDDE90F010E9A039127
:105230000021009207F1010A04914EE04FF0004076
:105240000097CDE9011006A90EA8FFF7DBFCDDE908
:105250000F0203920E9B11990022DDF80CA000931F
:10526000049219B907F1010100EB010AB7EB0A003A
:1052700004D4C0F1FF3007F1010A0490AAEB070043
:10528000019046E0012F00DA01270021112F01DDF6
:10529000112000E03846CDE9000106A90EA8FFF76D
:1052A000B1FCDDE90F010E9A0391002104910092F7
:1052B000BA4621070CD40399514500DA8A46BAF15F
:1052C000010F05DD009AAAF10101515C302908D0D7
:1052D000B84202DA10F1040F06DA0121CDE901101B
:1052E00017E0AAF10101E9E7002805DC049901446F
:1052F0000491AAEB000102E0411C514500DD8A4601
:105300000499A0EB010000F1010001904FF0004072
:105310000290200704D40198504501DBCDF80480A9
:1053200000208DF84F0002980DF14F07B0F1004FAB
:1053300025D02B200E9002984FF0020800280CDA9E
:10534000404202902D200E9007E00A210298FBF7C0
:105350008CF93031029007F8011DB8F10001A8F175
:105360000108F2DC02980028EFD1791E0E9808702F
:10537000307800F0200040F0450007F8020D12A838
:10538000A0EB070000F107081498007800B1012095
:1053900000EB0A01019801EBE07105984144A0EB94
:1053A0000100A0F101000590E00306D45B46214610
:1053B000179A059800F05FF805441498007820B11A
:1053C0005A461799904705F10105E00323D55B463E
:1053D0002146179A059800F04EF805441BE0049802
:1053E000002807DBDDE90301884203DD0098405C0B
:1053F000179901E0179930205A46904704986D1C80
:10540000401C04900198401E019004D12E205A4661
:10541000179990476D1CBAF10001AAF1010ADEDC70
:1054200005E017F8010B5A46179990476D1CB8F123
:105430000001A8F10108F4DC5B462146179A0598A3
:10544000A4E600002D0000002B000000200000005A
:105450002DE9F041044600251E461746880405D470
:1054600006E039462020B04705F10105641EF8D555
:105470002846BDE8F0812DE9F041044600251E468E
:105480009046C80301D5302700E02027880405D5C1
:1054900006E041463846B04705F10105641EF8D5DF
:1054A0002846BDE8F0810A68531C0B6010707047F5
:1054B0001748FDF7DDF9FBF73FFE6422114615485A
:1054C000FBF746FF1448FCF727F8FBF7DBFE134811
:1054D000FCF722F81248FCF71FF81248FBF76CFEA5
:1054E00000211148FDF74EF900210F4808380175D9
:1054F000007D18B90D48FEF7FDFA06E00748FCF7F5
:105500000BF80A48FEF7F6FA00BF00BF00BFFEE73F
:10551000CC00002000380140004C00400048004012
:1055200000440040545800089CB00020B4570008C4
:1055300000C1814001C0804101C0804100C1814063
:1055400001C0804100C1814000C1814001C0804153
:1055500001C0804100C1814000C1814001C0804143
:1055600000C1814001C0804101C0804100C1814033
:1055700001C0804100C1814000C1814001C0804123
:1055800000C1814001C0804101C0804100C1814013
:1055900000C1814001C0804101C0804100C1814003
:1055A00001C0804100C1814000C1814001C08041F3
:1055B00001C0804100C1814000C1814001C08041E3
:1055C00000C1814001C0804101C0804100C18140D3
:1055D00000C1814001C0804101C0804100C18140C3
:1055E00001C0804100C1814000C1814001C08041B3
:1055F00000C1814001C0804101C0804100C18140A3
:1056000001C0804100C1814000C1814001C0804192
:1056100001C0804100C1814000C1814001C0804182
:1056200000C1814001C0804101C0804100C1814072
:1056300000C0C101C30302C2C60607C705C5C40432
:10564000CC0C0DCD0FCFCE0E0ACACB0BC90908C8A2
:10565000D81819D91BDBDA1A1EDEDF1FDD1D1CDC92
:1056600014D4D515D71716D6D21213D311D1D01002
:10567000F03031F133F3F23236F6F737F53534F4F2
:105680003CFCFD3DFF3F3EFEFA3A3BFB39F9F83862
:1056900028E8E929EB2B2AEAEE2E2FEF2DEDEC2C52
:1056A000E42425E527E7E62622E2E323E12120E0C2
:1056B000A06061A163A3A26266A6A767A56564A4B2
:1056C0006CACAD6DAF6F6EAEAA6A6BAB69A9A86822
:1056D00078B8B979BB7B7ABABE7E7FBF7DBDBC7C12
:1056E000B47475B577B7B67672B2B373B17170B082
:1056F0005090915193535292965657975595945472
:105700009C5C5D9D5F9F9E5E5A9A9B5B99595898E1
:10571000884849894B8B8A4A4E8E8F4F8D4D4C8CD1
:105720004484854587474686824243834181804041
:105730000210000000080140B0000000000000005E
:1057400000000000000000005F066B2F363D7D0763
:105750007F3F0020005E7371787C6C765958575FEC
:10576000063D2F666B7B0E7F6F002000577C7871A3
:1057700073337659515EAF066D4FC6CBEB0EEFCF4C
:105780000248000000180140600000000210000004
:105790000010014038000000000000000000000080
:1057A00000000000000401010200030704030506D5
:1057B00006020705912E00080000000008590008A5
:1057C000D00700003D300008004800400E59000896
:1057D000D007000039310008004800400E59000889
:1057E000D0070000ED2F0008004400400E590008CB
:1057F000D007000045210008000000000E590008F5
:10580000D0070000413200080000000013590008D2
:10581000D007000031350008000000001B590008C7
:10582000D007000095360008000000002559000848
:10583000D00700009D310008000000002F5900082B
:10584000D007000000000000000000000000000081
:1058500000000000021000000008014000010000EC
:1058600002100000000C01400200000002100000C5
:10587000000801400002000002140000000801407E
:105880000004000002100000000C01408000000035
:1058900002100000000C0140001000000214000083
:1058A000000C01400040000002100000000C01400C
:1058B000200000000210000000080140001000005D
:1058C00002100000000C0140100000000210000057
:1058D000000801400008000002100000000C014018
:1058E00000020000000000000000000000000000B6
:1058F000303132333435363738392E2D2055504635
:1059000054424F48434C4E005461736B3000534334
:105910004F4D005461736B5F4952005461736B5F6C
:10592000506C616E005461736B5F564B6579005427
:1059300061736B5F41727261727900005C5900089B
:105940000000002090000000E44B0008EC59000823
:105950009000002040B40000F44B0008000000005C
:1059600001020304010203040607080902040608F1
:105970000000000000000000000000000000000027
:1059800000000000FF050000000000000000000013
:105990000000000000000000000000000000000007
:1059A00000000000000000000000000000000000F7
:1059B00000000000000000000000000000000000E7
:1059C000FF00FF0000000000FF000000F05800088A
:1059D000FFFFFFFFF0580008FF0FFFFF000000006F
:0C59E000000000000000000000000000BB
:0400000508000131BD
:00000001FF
