:020000040800F2
:100000001883002045010008D5230008BD22000800
:10001000D1230008F5070008E93E000800000000B1
:10002000000000000000000000000000D12C0008CB
:10003000F1180008000000007D240008FB2D0008D6
:10004000313F000861240008652E00085F010008A8
:100050006D1E0008CD2900085F0100085F0100083F
:10006000E11D0008011E0008211E00085F010008B4
:10007000751400089D140008C51400085F010008ED
:100080005F010008051500085F0100085F01000816
:10009000953E00085908000879080008411E00082C
:1000A000852E0008E92E0008C52E0008A52E0008A0
:1000B0005F0100085F010008092F0008E122000825
:1000C000C122000821230008012300087D2C00081C
:1000D000992C0008E13B0008613C00085F01000822
:1000E000BD1D0008912A0008893E00085D2F000808
:1000F000C12F00089D2F00087D2F0008F50600087D
:10010000C11E00085F010008252F0008B52C00085B
:10011000B5390008093A00085F010008412F0008BE
:100120002D150008551500087D1500085F01000811
:10013000DFF80CD000F0A4FA004800473D48000862
:10014000188300200648804706480047FEE7FEE780
:10015000FEE7FEE7FEE7FEE7FEE7FEE7FEE7FEE777
:10016000052E0008310100082DE9FE4F804681EA86
:100170000300C00F0C46009021F0004123F0004521
:10018000B8EB0200A94105D24046214690461C46E4
:100190000B46024623F00040104304D1404621465E
:1001A00003B0BDE8F08F270DC7F30A00C3F30A516F
:1001B0000290401A0190402866DAC3F3130040F41D
:1001C000801B0098924620B10023D2EB030A63EB18
:1001D0000B0B01985946C0F14002504600F093F9CC
:1001E00006460D4650465946019A00F0ABF910EB11
:1001F00008006141002487EA115284EAE7731A4338
:100200003BD0009A3AB3019A012A4FEA075210DC18
:10021000001B61EB02014FF0004202EA0752CDE9F8
:100220000042001C41F5801132462B4600F0A9F92E
:10023000B6E7001B61EB0201001C41F580130018BA
:100240005B412018A2F5001747EB030140EAD57087
:10025000B6196D4111E06D084FEA360645EAC075E2
:100260004FEA0752001B61EB0201001C41F58011AF
:1002700049084FEA30000019514132462B4603B07D
:10028000BDE8F04F00F070B9009801224000002353
:10029000D0EB020263EBE073009821464FEAE07472
:1002A000B8EB000061EB0401E9E783F000435BE792
:1002B00081F0004158E72DE9FE4F81EA030404F084
:1002C000004421F0004100944FF0000B23F0004364
:1002D00050EA010402D052EA030404D1002001468E
:1002E00003B0BDE8F08FC3F30A54C1F30A552C44A0
:1002F000A4F2F3340194A0FB0254C1F3130141F4BE
:100300008011C3F3130343F4801301FB024400FB89
:10031000034E840A970A44EA815447EA8357A4FBB0
:10032000076802958D0A05FB07854FEA932C04FBAD
:100330000C542705029D4FEA065847EA1637B5EBDD
:1003400008056EEB070C870E920E47EA811742EA0A
:100350008312A7FB0201B6EB0B0164EB00042B0D2B
:1003600043EA0C335E1844EB1C50DA465146E7FB77
:100370000201C5F313044FEA0B3343EA14534FEA67
:100380000432019C43EA0603A4F10C040294009C8D
:10039000CDE900B400F0F5F8A2E72DE9F04D81EACF
:1003A000030404F0004B21F0004514464FF0000A0E
:1003B00023F0004150EA050220D054EA01021DD08A
:1003C000C5F30A570246C5F31303C1F31300C1F383
:1003D0000A5640F4801543F48013A7EB0608101B5F
:1003E000D64608F2FD3873EB050002D308F1010888
:1003F00001E092185B41B8F1000F03DA00200146DA
:10040000BDE8F08D00204FF48011064684460EE0D2
:10041000171B73EB050705D3121B63EB050306439C
:100420004CEA010C49084FEA300092185B4150EA4F
:100430000107EDD152EA030012D082EA040083EAF8
:100440000501084303D100224FF0004308E0101BD0
:10045000AB4102D20122002302E06FF001025310EF
:100460001AEB06004CEB085110EB0A0041EB0B01B4
:10047000BDE8F04D00F078B830B50B4601460020DD
:100480002022012409E021FA02F59D4205D303FA56
:1004900002F5491B04FA02F52844151EA2F10102D7
:1004A000F1DC30BD2DE9F05F0546002092469B4609
:1004B00088460646814640241BE02846414647467A
:1004C000224600F02FF853465A46C01A914110D3E5
:1004D00011461846224600F016F82D1A67EB01085F
:1004E0004F4622460120002100F00DF817EB0009CD
:1004F0004E41201EA4F10104DFDC484631462A4665
:100500004346BDE8F09F202A04DB203A00FA02F1BE
:10051000002070479140C2F1200320FA03F31943F1
:1005200090407047202A04DB203A21FA02F0002193
:10053000704721FA02F3D040C2F1200291400843F3
:1005400019467047202A06DBCB17203A41FA02F001
:1005500043EAE07306E041FA02F3D040C2F1200220
:10056000914008431946704710B5002B08DA401C2B
:1005700041F1000192185B411A4301D120F00100C2
:1005800010BD2DE9F04D92469B4611B1B1FA81F2B2
:1005900002E0B0FA80F220329046FFF7B4FF044642
:1005A0000F4640EA0A0041EA0B0153465A46084307
:1005B00003D120463946BDE8F08D114653EA0100CB
:1005C00015D0C8F140025046FFF7ACFF05460E4675
:1005D000504659464246FFF796FF084301D0012096
:1005E00000E00020054346EAE0762C4337430A98B2
:1005F0004FEA4453A0EB08004FEAD4240A304FF0EE
:10060000000244EA47544FEAD72502D500200146AC
:10061000D1E7010510196941DDE908450019694173
:10062000BDE8F04DA0E7C1F30A52C1F3130140F257
:10063000FF3341F480119A4202DA002001467047EC
:1006400040F233439A42A2F2334202DC5242FFF7B5
:1006500069BFFFF758BF000030B5002904DB4FF039
:100660000044404264EB0101002B04DB4FF00044E6
:10067000524264EB0303994208BF904230BD000030
:10068000064C074D06E0E06840F0010394E80700DF
:1006900098471034AC42F6D3FFF74EFDBC48000833
:1006A000DC48000882B02DE9FF1FEFF3038001B49E
:1006B000684600F1400000E901400C480168C1F8BB
:1006C00000D00B48D0F800D001BC80F30388BDE80F
:1006D000FF1F01B000BD0648D0F800D001BC80F378
:1006E0000388BDE8FF1F01B000BD000044000020EA
:1006F0004000002010B5032101A001F03BF810BD1F
:10070000414443335F49525148616E646C657200E5
:10071000032806D004280AD005280ED0062818D1B0
:1007200011E000210C4A51700C21117011E00021E0
:10073000094A11700C2151700BE00021064AD1705A
:100740000C21917005E00021034A91700C21D170B9
:1007500000BF00BF70470000047F002026E0642037
:1007600002F0FAFD00241BE01148005D20B11048A2
:10077000005D401E0E4908550D48005D38B90D4812
:1007800000690121A14088430A49086106E009483F
:1007900000690121A140084306490861601CC4B2F8
:1007A0000E2CE1DB0349086900F050FED7E700009A
:1007B000047F0020B07E002006E04FF47A7100BF75
:1007C0000A00A1F10101FBD10200A0F10100F4D166
:1007D0007047F0B5034600201C460D46104603E066
:1007E00014F8016B05F8016B1600A2F10107BAB20B
:1007F000F6D1F0BD00BFFEE708B50121842001F06D
:10080000A7FF48208DF803004FF40060ADF800000A
:100810006946084801F0F8FB18208DF80300012014
:100820008DF802000003ADF800006946014801F0B0
:10083000EBFB08BD0008014008B514208DF800004E
:1008400000208DF801008DF8020001208DF80300D2
:10085000684601F0C1FD08BD10B5032101A000F0FC
:1008600089FF10BD43414E315F5258315F495251AB
:1008700048616E646C65720010B5032101A000F040
:1008800079FF10BD43414E315F5343455F4952519B
:1008900048616E646C657200B1F5007F3AD00FDC80
:1008A000202928D006DC01291CD004291DD00829C4
:1008B00040D11DE0402921D0B1F5807F3AD126E01A
:1008C000B1F5004F31D006DCB1F5806F25D0B1F520
:1008D000006F2FD124E0B1F5803F12D0B1F5003F79
:1008E00028D111E0154A826025E00822C26022E08A
:1008F0001022C2601FE0082202611CE01022026187
:1009000019E00822426016E01022426013E004223F
:10091000426010E0042242600DE0042242600AE0DE
:10092000002282610422426005E0002282610422EA
:10093000426000E000BF00BF7047000001010100FD
:1009400010B504460B48844209D10121480601F044
:10095000EFFE00214FF0007001F0EAFE08E00121F7
:10096000880601F0E5FE00214FF0806001F0E0FE16
:1009700010BD00000064004010B50021837A012200
:1009800002FA03F13D4A126842F001023B4B1A6041
:100990003A4A1C3212688A43384B1C331A60027B75
:1009A000CAB9364A0C3212688A43344B0C331A6087
:1009B0004288C38842EA0343304A4032847A42F88C
:1009C00034300288838842EA03432C4A4032847AD6
:1009D00002EBC4025360027B012A19D1274A0C3270
:1009E00012680A43254B0C331A604288038842EA96
:1009F0000343224A4032847A42F83430C2888388E2
:100A000042EA03431D4A4032847A02EBC402536037
:100A1000C27A3AB9194A121D12688A43174B1B1D34
:100A20001A6006E0154A121D12680A43134B1B1D7B
:100A30001A60028932B9114A143212688A430F4B84
:100A400014331A600289012A06D10C4A1432126842
:100A50000A430A4B14331A60427B012A06D1074A23
:100A60001C3212680A43054B1C331A60034A126891
:100A700022F00102014B1A6010BD00000066004028
:100A800070B504460D4600266069284271D0B5F560
:100A9000807F5CD010DC082D35D006DC012D20D005
:100AA000022D24D0042D72D127E0102D31D0202D1D
:100AB00035D0402D6BD138E0B5F5004F60D009DC62
:100AC000B5F5007F49D0B5F5806F4CD0B5F5006F16
:100AD0005DD14FE0B5F5803F2DD0B5F5003F56D143
:100AE0002FE0A0682D4900F0BDFC064651E0E0680B
:100AF000032100F0B7FC06464BE0E068082100F057
:100B0000B1FC064645E0E068102100F0ABFC06466B
:100B10003FE02069032100F0A5FC064639E020698A
:100B2000082100F09FFC064633E02069102100F008
:100B300099FC06462DE06068082100F093FC06460B
:100B400027E06068102100F08DFC064621E0A069D6
:100B5000012100F087FC06461BE0A069022100F09D
:100B600081FC064615E0A069042100F07BFC0646E6
:100B70000FE00FE0A069702100F074FC064608E069
:100B80006068042100F06EFC064602E0FFE70026E4
:100B900000BF00E00026304670BD000001010100EA
:100BA0001AB143690B43436102E043698B434361DC
:100BB000704730B5024600200023146824F0020478
:100BC0001460146844F00104146000E05B1C546875
:100BD00014F0010F03D1A3F57F44FF3CF6D1546814
:100BE00014F0010F01D100206CE08C79012C04D1AC
:100BF000146844F08004146003E0146824F0800456
:100C00001460CC79012C04D1146844F040041460C1
:100C100003E0146824F0400414600C7A012C04D121
:100C2000146844F02004146003E0146824F02004E5
:100C300014604C7A012C04D1146844F01004146040
:100C400003E0146824F0100414608C7A012C04D1A1
:100C5000146844F00804146003E0146824F00804E5
:100C60001460CC7A012C04D1146844F0040414609C
:100C700003E0146824F0040414608C78A407CD7891
:100C800044EA05640D7944EA05444D7944EA055483
:100C90000D886D1E2C43D461146824F00104146087
:100CA000002300E05B1C546814F0010F03D0A3F58F
:100CB0007F44FF3CF6D1546814F0010F01D00020AE
:100CC00000E0012030BD00B503461868912803D12B
:100CD000D87AFFF71DFD00BF00BF00BD10B500F5BD
:100CE000D87303EB01131B6803F004031372137A28
:100CF00053B900F5D87303EB01131B6840F2FF747E
:100D000004EA5353136009E000F5D87303EB0113B1
:100D10001B686FF0604404EAD303536000F5D87396
:100D200003EB01131B6803F00203537200F5D87341
:100D300003EB01135B6803F00F03937200F5D873A4
:100D400003EB01135B681B0AD37400F5D87303EB44
:100D500001139B68D37200F5D87303EB01139B68F2
:100D60001C0A147300F5D87303EB01139B681C0C69
:100D7000547300F5D87303EB01139B681B0E937338
:100D800000F5D87303EB0113DB68D37300F5D87358
:100D900003EB0113DB681C0A147400F5D87303EB32
:100DA0000113DB681C0C547400F5D87303EB0113BA
:100DB000DB681B0E937421B9C36843F02003C36042
:100DC00003E0036943F02003036110BD1FB5002059
:100DD0008DF80A008DF80B0001208DF80C00002022
:100DE000ADF80000ADF80400ADF80200ADF8060063
:100DF000ADF8080001208DF80D006846FFF7BCFD36
:100E00001FBD00000EB5FFF717FDFFF7F5FC012130
:100E1000480601F07DFC1748FFF792FD684600F098
:100E200077F800208DF806008DF807008DF808008F
:100E300001208DF8090000208DF80A008DF80B00C4
:100E40008DF802008DF8030007208DF804000620BD
:100E50008DF805000920ADF8000069460548FFF748
:100E6000A8FE012202210348FFF79AFEFFF7AEFF1A
:100E70000EBD000000640040F0B585B006460D468A
:100E80000027002400208DF8080000958DF8090047
:100E900008220DF10B013046FFF79BFC08208DF86E
:100EA0000A0069460F4800F043F8074604E0601C5A
:100EB00084B2012002F050FAF9B20A4800F0CCF8EE
:100EC000012801D0FF2CF2D1FF2C04D1032106A070
:100ED00000F050FC03E0032108A000F04BFC05B03B
:100EE000F0BD00000064004043616E2053656E64F5
:100EF0002054696D654F75743100000043616E20A8
:100F000053656E642053756363656564310000004A
:100F100000218171C171017241728172C17281704F
:100F2000C1700321017102214171012101807047CB
:100F300010B502460020936803F08063B3F1806F20
:100F400000D110E0936803F00063B3F1006F01D1AA
:100F5000012008E0936803F08053B3F1805F01D172
:100F6000022000E00420042874D002F5C07303EBD3
:100F700000131B6803F0010402F5C07303EB0013B8
:100F80001C600B7A7BB94B7A0C8843EA445302F518
:100F9000C07404EB00142468234302F5C07404EB0E
:100FA0000014236010E00B7A4C6843EAC4034C7AC7
:100FB000234302F5C07404EB00142468234302F5B4
:100FC000C07404EB001423608B7A03F00F038B7260
:100FD00002F5C07303EB00135B6823F00F0402F506
:100FE000C07303EB00135C6002F5C07303EB0013E6
:100FF0005B688C7A234302F5C07404EB00146360D1
:101000008B7B1C064B7B44EA03440B7B44EA0323A3
:10101000CC7A234302F5C07404EB0014A3608B7CEC
:101020001C064B7C44EA03440B7C44EA0323CC7B40
:10103000234302F5C07404EB0014E36002F5C073AF
:1010400003EB00131B6843F0010402F5C07303EBCC
:1010500000131C6010BD000010B50246002321B132
:10106000012907D002290FD109E090681D4C00EA40
:1010700004030BE090681C4C00EA040306E090684F
:101080001A4C00EA040301E0002300BF00BF184C23
:10109000181BA34216D007DC83B16FF080601818CC
:1010A0000ED0022818D111E0B0F5007F10D0114CFD
:1010B000001909D0B0F5003F0ED10BE002230DE07E
:1010C00000230BE0002309E0002307E0012305E0F3
:1010D000012303E0012301E0002300BF00BFD8B2D9
:1010E00010BD00000300000400030008000003100E
:1010F000000100080001FFF770B5044600252946ED
:101100006D1C01208840204204D04021CB4801F0D2
:101110004FF803E04021C94801F048F82846691C0F
:10112000CDB2012101FA00F0204204D08021C34851
:1011300001F03EF803E08021C04801F037F828466E
:10114000691CCDB2012101FA00F0204204D009024D
:10115000BA4801F02DF804E04FF48071B74801F06F
:1011600025F82846691CCDB2012101FA00F0204281
:1011700004D04902B14801F01BF804E04FF40071BB
:10118000AE4801F013F82846691CCDB2012101FADE
:1011900000F0204204D00902A94801F009F804E057
:1011A0004FF48071A64801F001F82846691CCDB2C1
:1011B000012101FA00F0204204D0C903A04800F048
:1011C000F7FF04E04FF400419D4800F0EFFF284690
:1011D000691CCDB2012101FA00F0204204D089023D
:1011E000964800F0E5FF04E04FF48061934800F07A
:1011F000DDFF2846691CCDB2012101FA00F0204232
:1012000004D0C9028D4800F0D3FF04E04FF4006120
:101210008A4800F0CBFF2846691CCDB2012101FAB3
:1012200000F0204204D00903844800F0C1FF04E02C
:101230004FF48051814800F0B9FF2846691CCDB2B7
:10124000012101FA00F0204203D07E4800F0B0FFF7
:1012500003E001217B4800F0A9FF2846691CCDB2BC
:10126000012101FA00F0204204D00221754800F06B
:101270009FFF03E00221734800F098FF2846691C95
:10128000CDB2012101FA00F0204204D004216D48C2
:1012900000F08EFF03E004216A4800F087FF284633
:1012A000691CCDB2012101FA00F0204204D00821CE
:1012B000644800F07DFF03E00821624800F076FFFB
:1012C0002846691CCDB2012101FA00F0204204D069
:1012D00010215C4800F06CFF03E01021594800F039
:1012E00065FF2846691CCDB2012101FA00F02042B9
:1012F00004D02021534800F05BFF03E02021514837
:1013000000F054FF2846691CCDB2012101FA00F01B
:10131000204204D040214B4800F04AFF03E0402126
:10132000484800F043FF2846691CCDB2012101FA6C
:1013300000F0204204D08021424800F039FF03E051
:101340008021404800F032FF2846691CCDB20121BF
:1013500001FA00F0204204D008213B4800F028FFA9
:1013600003E00821384800F021FF2846691CCDB26F
:10137000012101FA00F0204204D01021324800F08F
:1013800017FF03E01021304800F010FF2846691CC9
:10139000CDB2012101FA00F0204204D020212A48D8
:1013A00000F006FF03E02021274800F0FFFE28465A
:1013B000691CCDB2012101FA00F0204204D0402185
:1013C000214800F0F5FE03E040211F4800F0EEFE4A
:1013D0002846691CCDB2012101FA00F0204204D058
:1013E0008021194800F0E4FE03E08021164800F057
:1013F000DDFE2846691CCDB2012101FA00F0204231
:1014000004D00902104800F0D3FE04E04FF48071CC
:101410000D4800F0CBFE2846691CCDB2012101FA2F
:1014200000F0204204D04902074800F0C1FE04E069
:101430004FF40071044800F0B9FE70BD0010014087
:101440000008014000140140000C014010B50446A2
:101450000348046101460869FFF74EFE10BD000015
:10146000B07E0020024600200A4201D0012000E0A8
:101470000020704710B5032101A000F07BF910BDDA
:10148000444D41315F4368616E6E656C325F495215
:101490005148616E646C65720000000010B5032154
:1014A00001A000F067F910BD444D41315F43686110
:1014B0006E6E656C335F49525148616E646C657243
:1014C0000000000010B54FF4005000F06BF80C481D
:1014D000007801F0D3FF082800D110BD084800783B
:1014E00001F0CCFF042804D10548007802F06AF826
:1014F00004E00A210248007802F08AF900BFECE714
:101500001600002010B5032101A000F033F910BD32
:10151000444D41315F4368616E6E656C375F49527F
:101520005148616E646C65720000000010B50321C3
:1015300001A000F01FF910BD444D41325F436861C6
:101540006E6E656C315F49525148616E646C6572B4
:101550000000000010B5032101A000F00BF910BD40
:10156000444D41325F4368616E6E656C325F495233
:101570005148616E646C65720000000010B5032173
:1015800001A000F0F7F810BD444D41325F4368619F
:101590006E6E656C335F49525148616E646C657262
:1015A0000000000010F0805F02D00349086001E0F5
:1015B00002494860704700000404024000000240F5
:1015C00021B1026842F00102026004E002684FF6B5
:1015D000FE731A400260704701684FF6FE721140B8
:1015E00001600021016041608160C1604B49884217
:1015F00008D14A490839496841F00F01474A083A79
:1016000051608AE045491431884208D1434908397C
:10161000496841F0F001414A083A51607DE03F4994
:101620002831884208D13D490839496841F4706140
:101630003A4A083A516070E038493C31884208D152
:1016400036490839496841F47041344A083A5160D2
:1016500063E032495031884208D13049083949683D
:1016600041F470212D4A083A516056E02B4964310B
:10167000884208D129490839496841F47001274A4C
:10168000083A516049E025497831884208D1234918
:101690000839496841F07061204A083A51603CE0DD
:1016A0001F49884206D1011F096841F00F01021F3E
:1016B000116032E01A491431884208D11849091FD3
:1016C000096841F0F001164A121F116025E0144923
:1016D0002831884208D11249091F096841F4706114
:1016E0000F4A121F116018E00D493C31884208D1A1
:1016F0000B49091F096841F47041094A121F116022
:101700000BE007495031884207D10549091F096894
:1017100041F47021024A121F116070470800024014
:10172000080402401AB103680B43036002E0036837
:101730008B430360704710B50022026847F6F073D0
:101740009A430C6A8B6823430C6923434C692343F7
:101750008C692343CC6923434C6A23438C6A23431B
:101760001A430260CB6843600B6883604B68C360B8
:1017700010BD00000FB470B58EB00124002546489E
:101780000078FF2801D1012000E0002042490978BB
:10179000424A1278914201D1012100E00021084320
:1017A00075D013A80D9068460D9A129902F0CEFBE1
:1017B00000200D9013A80D902521129800F08EFBAB
:1017C000044602E00D9820C80D902000A4F1010409
:1017D000F8D10D9820C80D9000200D903048007869
:1017E000FF2801D1012000E000202D490978A942FD
:1017F00001D1012100E00021084348D029480078A8
:1018000010F0010F07D02848007800F0C7FA10B197
:10181000684600F065F8694624A001F0CDFA214839
:10182000007810F0020F0CD02148007800F0B6FAD2
:1018300038B1684600F020FD06463146684602F0A1
:1018400081F91848007810F0020F0DD01949087876
:1018500000F0A4FA40B1684600F00EFD064632469C
:101860006946154802F000FB0E48007810F0040F9E
:101870000DD01049487800F091FA40B1684600F068
:10188000FBFC0646324669460C4802F0EDFA0EB003
:1018900070BC5DF814FB00005D00002050000020CB
:1018A0005F0000205E0000201F0000200D0A0000E5
:1018B00014000020200000200038014000440040B7
:1018C00010B502F0C9F8022000F004F8032000F07F
:1018D00009F810BD01490870704700005E00002043
:1018E0007047000001490870704700005F00002049
:1018F000704700000021104A1170002018E00021FC
:101900000E4A02EB4012516103210C4A02EB4012D5
:1019100011720021094A02EB40121161074A02EBE1
:101920004012D160054A02EB40129161411CC8B2DD
:101930000A28E4DB704700005C000020707D002076
:1019400038B5002436E01D4800EB4410006800283C
:101950002ED01A4800EB4410C079012804D0022888
:101960001BD0032823D10EE003200090134800EB86
:101970004410C369114800EB44102146026810A0CE
:10198000FFF7F8FE13E00D4800EB44100323214657
:10199000026811A0FFF7EEFE09E0084800EB4410D2
:1019A0000323214602680CA0FFF7E4FE00BF00BF3E
:1019B000601CC4B20A2CC6DB38BD0000707D00205C
:1019C0004465766963655B25645D4E616D653A25A6
:1019D000735B25645D0000004465766963655B2583
:1019E000645D4E616D653A25730000002048007803
:1019F000204908701E480078401C1D4908701EA030
:101A00001F491C4A127801EB4211086000201C4952
:101A1000184A127801EB4211487103201849154AFF
:101A2000127801EB4211C87101201549114A127850
:101A300001EB42110872134811490E4A127801EB6A
:101A40004211486100210E480A4A127800EB421008
:101A5000C16000200A49074A127801EB421108616F
:101A60000749044A127801EB42118861704700006F
:101A70005C0000201D00002043414E3100000000AA
:101A8000707D0020050E0008244800782449087065
:101A900022480078401C21490870214800782149DB
:101AA0001F4A127801EB421108711FA01D491C4A00
:101AB000127801EB4211086000211A48184A127886
:101AC00000EB4210417103201649154A127801EBD0
:101AD0004211C87101201349114A127801EB4211D9
:101AE000087212490F480E4A127800EB4210416109
:101AF00000200C490A4A127801EB4211C86000210B
:101B00000848074A127800EB421001610548044A70
:101B1000127800EB42108161704700005C000020E9
:101B200060000020707D002043545200351F0008E3
:101B3000244800782449087022480078401C214934
:101B400008702148007821491F4A127801EB4211A0
:101B500008711FA01D491C4A127801EB4211086050
:101B600000211A48184A127800EB421041710320F4
:101B70001649154A127801EB4211C8710120134928
:101B8000114A127801EB4211087212490F480E4AAD
:101B9000127800EB4210416100200C490A4A127889
:101BA00001EB4211C86000210848074A127800EB97
:101BB000421001610548044A127800EB421081612D
:101BC000704700005C00002061000020707D002054
:101BD00043545200B521000840480078404908703D
:101BE0003E480078401C3D4908703EA03F493C4AB1
:101BF000127801EB4211086000203C49384A127803
:101C000001EB4211487103213848354A127800EB44
:101C10004210C17103203549314A127801EB42115B
:101C20000872334931482E4A127800EB4210416164
:101C300030482E492A4A127801EB4211C8602E49D9
:101C40002A48274A127800EB4210016100212748F8
:101C5000234A127800EB421081612048007827491E
:101C600008701E480078401C1C49087024A11F48B9
:101C7000224A127800EB4210016000211B481F4AE3
:101C8000127800EB42104171032018491B4A127868
:101C900001EB4211C8711549184A127801EB421143
:101CA000087200201149154A127801EB421148616F
:101CB00010480E49114A127801EB4211C8600E49D2
:101CC0000A480E4A127800EB4210016100210748D1
:101CD0000A4A127800EB4210816170475C000020D4
:101CE000140000205553415254310000707D0020F3
:101CF000B53A0008F13E0008ED3E0008150000204E
:101D00005553415254315F525800000010B5032121
:101D10001AA0FFF72FFD00242CE01F4800EB441011
:101D2000406928B31C4800EB4410C079012804D056
:101D3000022812D003281AD109E0174A02EB4412F4
:101D4000107F154A02EB4412516988470FE012498F
:101D500001EB44114869804709E00F4A02EB441245
:101D6000D0690D4A02EB44125169884700BF00BF99
:101D7000601CC4B20A2CD0DB10BD0000546F73206D
:101D800044657669636520496E69742E2E2E2E2E69
:101D90002E2E2E2E2E000000707D00200146FF29E1
:101DA00001D100207047044800EB4110406908B998
:101DB0000020F7E70120F5E7707D002010B5032132
:101DC00001A0FFF7D7FC10BD4558544931355F31AC
:101DD000305F49525148616E646C657200000000CA
:101DE00010B5032101A0FFF7C5FC10BD45585449AB
:101DF000325F49525148616E646C657200000000A8
:101E000010B5032101A0FFF7B5FC10BD455854499A
:101E1000335F49525148616E646C65720000000086
:101E200010B5032101A0FFF7A5FC10BD455854498A
:101E3000345F49525148616E646C65720000000065
:101E400010B5032101A0FFF795FC10BD455854497A
:101E5000395F355F49525148616E646C65720000AC
:101E600001490860704700001404014010B50321C7
:101E700001A0FFF77FFC10BD464C4153485F49521B
:101E80005148616E646C6572000000000549096884
:101E900021F01001034A11601146096801431160E5
:101EA000704700000020024001460020034A1068ED
:101EB00000F0380008431060704700000020024026
:101EC00010B5032101A0FFF755FC10BD46534D434B
:101ED0005F49525148616E646C65720010B50246EC
:101EE000002005E012F8014B8C4201D1431C98B24E
:101EF0001378002BF6D110BD70B50446002510787C
:101F000020B116782068B0FBF6F085B2206808444E
:101F100020601078984203DA1078401C107002E0BC
:101F20002068401B206016782068B0FBF6F080B275
:101F300070BD000008B50020FFF7DEF80121042085
:101F400000F006FC4FF40140ADF8000003208DF8CE
:101F5000020010208DF803006946264800F054F86E
:101F60000121082000F0F4FB4FF47E70ADF8000072
:101F700003208DF8020010208DF8030069461E48EA
:101F800000F042F80121102000F0E2FB4FF4FE5077
:101F9000ADF8000003208DF8020010208DF803003A
:101FA0006946164800F030F80121202000F0D0FBEF
:101FB000FF20ADF8000003208DF8020010208DF8FE
:101FC000030069460E4800F01FF80121402000F090
:101FD000BFFB1C20ADF8000003208DF8020010208C
:101FE0008DF803006946074800F00EF800F060FD28
:101FF00008BD000000080140000C01400010014035
:1020000000140140001801402DE9F041024600256E
:102010000026002000230024002791F803C00CF0C4
:102020000F0591F803C01CF0100F03D091F802C007
:102030004CEA050591F800C0BCF1000F31D01468DE
:1020400000202BE04FF0010C0CFA00F3B1F800C0B7
:102050000CEA03069E4220D183004FF00F0C0CFACD
:1020600003F7BC4305FA03FC4CEA040491F803C0EF
:10207000BCF1280F06D14FF0010C0CFA00FCC2F89D
:1020800014C00AE091F803C0BCF1480F05D14FF02D
:10209000010C0CFA00FCC2F810C0401C0828D1D377
:1020A0001460B1F800C0BCF1FF0F34DD54680020AB
:1020B0002EE000F1080C4FF0010808FA0CF3B1F81B
:1020C00000C00CEA03069E4221D183004FF00F0CA2
:1020D0000CFA03F7BC4305FA03FC4CEA040491F83C
:1020E00003C0BCF1280F05D100F1080C08FA0CF868
:1020F000C2F8148091F803C0BCF1480F07D100F179
:10210000080C4FF0010808FA0CF8C2F81080401CC7
:102110000828CED35460BDE8F0810000F0B50A462F
:10212000002300240021002500F00046B6F1004FF6
:1021300002D11D4EF16901E01B4E7168C0F30345E9
:1021400083B200F44016B6F5401F08D121F070614B
:10215000154E766826F07066134F7E6012E000F42C
:102160008016B6F5801F06D1032606FA05F4A143B2
:1021700041F0706106E0460D360103FA06F6B14300
:1021800041F0706122B1460D360103FA06F6314383
:1021900000F00046B6F1004F02D1034EF16101E0BC
:1021A000014E7160F0BD00000000014041617047C8
:1021B0000161704708B50121202000F0C9FA4FF4F1
:1021C0007F40ADF8000003208DF8020048208DF814
:1021D000030069462448FFF717FF0121082000F09B
:1021E000B7FA4FF20700ADF8000003208DF80200A7
:1021F00048208DF8030069461C48FFF705FF0121C0
:10220000402000F0A5FA4FF68070ADF800000320E2
:102210008DF8020048208DF8030069461448FFF746
:10222000F3FE0121102000F093FA3020ADF80000F9
:1022300003208DF8020048208DF8030069460D4800
:10224000FFF7E2FE0121042000F082FA3020ADF811
:10225000000003208DF8020048208DF80300694635
:102260000448FFF7D1FE08BD00140140000C0140F6
:10227000001801400010014010B5014600200A4638
:1022800001E0431C98B212F8014B002CF9D110BDAB
:10229000002000210CE001EB810202EBC102064BA1
:1022A00003EB820212890AB1421CD0B24A1CD1B29D
:1022B0000729F0DB70470000900E002000BFFEE70A
:1022C00010B5032101A0FFF755FA10BD4932433183
:1022D0005F45525F49525148616E646C65720000FF
:1022E00010B5032101A0FFF745FA10BD4932433173
:1022F0005F45565F49525148616E646C65720000DB
:1023000010B5032101A0FFF735FA10BD4932433261
:102310005F45525F49525148616E646C65720000BE
:1023200010B5032101A0FFF725FA10BD4932433251
:102330005F45565F49525148616E646C657200009A
:1023400010B545F2555000F029F8062000F01AF8B3
:102350004FF47F6000F01CF800F00CF800F002F879
:1023600010BD00004CF6CC400149086070470000E9
:10237000003000404AF6AA2001490860704700007A
:1023800000300040014948607047000000300040C4
:102390000149886070470000003000400149086032
:1023A000704700000030004071B600BF064800686A
:1023B00000F4E06005490843001D03490860BFF3CD
:1023C000408F00BF00BFFEE70CED00E00000FA0503
:1023D00000BFFEE77047000070B5002100230F2208
:1023E000C4780CB3164C246804F4E064C4F5E064CB
:1023F000210AC1F10403CA40447804FA03F1847845
:102400001440214309010F4C0678A155047804F0CB
:102410001F050124AC4005786D114FF0E02606EB56
:102420008505C5F8004109E0047804F01F05012482
:10243000AC40054D0678761145F8264070BD000089
:102440000CED00E000E400E080E100E0024901431F
:10245000024A1160704700000000FA050CED00E030
:1024600010B5032101A0FFF785F910BD5056445F58
:1024700049525148616E646C6572000070470000FB
:1024800010B5032209A10DA0FFF774F903220FA1D3
:1024900012A0FFF76FF90322144915A0FFF76AF99C
:1024A0000322184918A0FFF765F910BD424F4152A9
:1024B000445F54414E4B5F48616E6400426F6172ED
:1024C000645F4E616D653A257300000053544D33CF
:1024D0003246313033564554360000004350555F84
:1024E0004D6F64656C3A25730000000000127A009D
:1024F0004370755F4F53435F465245513A20256400
:102500004D687A0000A24A044370755F4672657197
:102510003A2025644D687A00704700001FB50948CD
:10252000006801900748001D0068029005480830C7
:10253000006803900320009003A001A90EC9FFF7D3
:1025400019F91FBDE8F7FF1F494320436F64653A3F
:10255000255820255820255800000000704700000D
:1025600010B5032108A0FFF705F9FFF789FFFFF772
:10257000D5FFFFF7E5F900F015F8FFF7CDFFFFF7FE
:10258000EDFF00F031F810BD0A546F7320537973DA
:1025900074656D2053746172742E2E2E2E2E2E2E85
:1025A0002E2E2E0010B5FFF773FE0446032322469D
:1025B000072102A0FFF7DEF810BD0000546F735F23
:1025C0005461736B506F6F6C2049733D25642042DA
:1025D000757420486173202564205461736B204317
:1025E00072656174652E00001CB5002001902AE020
:1025F0009DF8040000EB800101EBC000294901EBCC
:102600008000006BD0B1032000909DF8040000EB27
:10261000800101EBC000234901EB8000838C9DF811
:10262000040000EB800101EBC0001E4901EB8000BB
:102630009DF80410026B1CA0FFF79CF89DF80400A5
:10264000401CC0B201909DF804000728D0DB9DF823
:102650000400401EC0B20190032246F6605117A04C
:10266000FFF788F89DF8040000EB800202EBC00041
:102670000C4A02EB8000006A9DF8042002EB820302
:1026800003EBC202074B03EB8202928C81180322F8
:102690000FA0FFF76FF8032201A912A0FFF76AF855
:1026A0001CBD0000900E00205461736B5B25645DBF
:1026B0004E616D653A257328256429005461736B5A
:1026C000537461636B416C6C3A2025640000000018
:1026D0005461736B537461636B5573653A20256461
:1026E0000000000069416464723A20307825580087
:1026F00029B1064A52690243044B5A6104E0034A75
:1027000052698243014B5A61704700000010024039
:1027100029B1064AD2690243044BDA6104E0034A54
:10272000D2698243014BDA61704700000010024019
:1027300029B1064A12690243044B1A6104E0034AB4
:1027400012698243014B1A61704700000010024079
:1027500029B1064A92690243044B9A6104E0034A94
:1027600092698243014B9A61704700000010024059
:1027700010B500F043F84FF4803000F001F900F09C
:102780006BF90446012C38D11020FFF77FFB0220A3
:10279000FFF78AFB002000F0E7F8002000F030F996
:1027A000A00200F021F94FF4E011200400F03AF902
:1027B000012000F031F900BF392000F0AFF8002807
:1027C000FAD0022000F03CF900BF00F0C5F808285C
:1027D000FBD101213C20FFF7BBFF01210846FFF799
:1027E000B7FF01218803FFF7B3FF01210846FFF778
:1027F0007FFF01214802FFF7ABFF10BD0F480068C3
:1028000040F001000D490860084640680C49084046
:102810000A494860084600680A49084007490860B4
:102820000846006820F4802008600846406820F4CC
:10283000FE0048604FF41F0088607047001002409F
:102840000000FFF8FFFFF6FE30B500210022002453
:1028500000232D4D6D6805F00C0121B1042905D030
:10286000082923D105E0294D056022E0274D0560A8
:102870001FE0254D6D6805F47012234D6D6805F459
:102880008034022505EB92421CB9214D5543056069
:102890000BE01D4D6D6815F4003F03D01C4D5543F2
:1028A000056002E0194D5543056002E0174D0560D3
:1028B00000BF00BF144D6D6805F0F0010909154D0A
:1028C0006B5C0568DD4045600F4D6D6805F4E061A7
:1028D000090A104D6B5C4568DD4085600A4D6D68E6
:1028E00005F46051C90A0B4D6B5C4568DD40C5605D
:1028F000054D6D6805F44041890B074D6B5CC5685B
:10290000B5FBF3F5056130BD0010024000127A00FE
:1029100000093D00000000201000002010B5014615
:102920000022002300204A11012A02D1094C236809
:1029300006E0022A02D1074C236A01E0054C636AD3
:1029400001F01F02012494401C4201D0012000E04C
:10295000002010BD001002400248406800F00C004A
:10296000704700000010024001460020034A5068F2
:1029700020F0F00008435060704700000010024053
:102980001149096821F480310F4A11601146096824
:1029900021F480211160B0F5803F03D0B0F5802F85
:1029A0000ED106E00849096841F48031064A1160F9
:1029B00007E00549096841F4A021034A116000E0DD
:1029C00000BF00BF704700000010024010B5032197
:1029D00001A0FEF7CFFE10BD5243435F495251485C
:1029E000616E646C6572000001460020034A506805
:1029F00020F4E0600843506070470000001002407F
:102A000001460020034A506820F4605040EAC100AB
:102A1000506070470010024001490866704700008E
:102A20000000424202460020044B586820F47C100B
:102A300042EA01031843014B5860704700100240FE
:102A400001460020034A506820F00300084350600C
:102A5000704700000010024038B5002000900024AC
:102A6000002500BF3120FFF759FF05460098401CA4
:102A700000900098B0F5A06F01D0002DF2D0312069
:102A8000FFF74CFF08B1012400E00024204638BDC8
:102A900010B5032101A0FEF76DFE10BD5254434155
:102AA0006C61726D5F49525148616E646C65720071
:102AB00010B501210148FFF731FB10BD00023000C5
:102AC00000206949096811F4004F01D040F001006D
:102AD0006549096811F4804F01D040F00200624955
:102AE000096811F4005F01D040F004005E490968F4
:102AF00011F4805F01D040F008005B49096811F4CF
:102B0000006F01D040F010005749096811F4806F40
:102B100001D040F020005449096811F4007F01D031
:102B200040F040005049096811F4807F01D040F026
:102B300080004E49096811F4004F01D040F48070C4
:102B40004A49096811F4804F01D040F400704749A8
:102B5000096811F4005F01D040F4806043490968BE
:102B600011F4805F01D040F400604149096811F41C
:102B7000004F01D040F480503D49096811F4804F66
:102B800001D040F400503A49096811F4005F01D0C7
:102B900040F480403649096811F4805F01D040F468
:102BA00000403349096811F4006F01D040F48030CF
:102BB0002F49096811F4806F01D040F400302C498E
:102BC000096811F4007F01D040F480202849096889
:102BD00011F4807F01D040F400202549096811F0EC
:102BE000800F01D040F480102049096811F0040FD3
:102BF00001D040F400101D49096811F0020F01D006
:102C000040F480001949096811F0010F01D040F427
:102C100000001849896811F0200F01D040F0807041
:102C20001449896811F0100F01D040F0007012496A
:102C3000096811F0800F01D040F080600E490968EA
:102C400011F0400F01D040F000600B49096811F00D
:102C5000200F01D040F080500749096811F0100F93
:102C600001D040F00050704708140140080C0140AA
:102C700008180140001001400808014010B5032168
:102C800001A0FEF777FD10BD535049315F49525105
:102C900048616E646C65720010B5032101A0FEF7F7
:102CA00069FD10BD535049325F49525148616E640D
:102CB0006C65720010B5032101A0FEF75BFD10BD2D
:102CC000535049335F49525148616E646C657200DC
:102CD000704710B500F002F810BD00000CB50020E0
:102CE000019000903248006840F48030304908601C
:102CF00000BF2F48006800F4003000900198401C8D
:102D00000190009818B90198B0F5A06FF1D128484A
:102D1000006810F4003F02D00120009001E0002084
:102D200000900098012842D12248006840F010002D
:102D3000204908600846006820F003000860084643
:102D4000006840F00200086019484068184948606F
:102D50000846406848600846406840F48060486023
:102D60000846406820F47C1048600846406840F4FB
:102D7000E81048600846006840F08070086000BFB6
:102D80000B48006810F0007FFAD00948406820F036
:102D90000300074948600846406840F00200486068
:102DA00000BF0348406800F00C000828F9D10CBDB2
:102DB00000100240002002402DE9F04106460D4679
:102DC0002C4637462846FFF757FA04443046FFF7AB
:102DD00053FA804618F1010001D1BDE8F08103E00B
:102DE00017F8010B04F8010B5FEA0800A8F10108CD
:102DF000F6D104F8010B00BFEFE710B500F010FAB0
:102E000010BD000010B51348006840F001001149E2
:102E1000086008464068104908400E494860084666
:102E200000680E4908400B4908600846006820F415
:102E3000802008600846406820F4FE0048604FF497
:102E40001F008860FFF745FF4FF0006004490860ED
:102E500010BD0000001002400000FFF8FFFFF6FE6A
:102E600008ED00E010B5032101A0FEF783FC10BDC2
:102E700054414D5045525F49525148616E646C65F2
:102E80007200000010B5032101A0FEF773FC10BD15
:102E900054494D315F42524B5F49525148616E6413
:102EA0006C65720010B5032101A0FEF763FC10BD34
:102EB00054494D315F43435F49525148616E646CE0
:102EC0006572000010B5032101A0FEF753FC10BD90
:102ED00054494D315F5452475F434F4D5F49525102
:102EE00048616E646C65720010B5032101A0FEF7A5
:102EF00041FC10BD54494D315F55505F4952514816
:102F0000616E646C6572000010B5032101A0FEF7CC
:102F100031FC10BD54494D345F49525148616E64D3
:102F20006C65720010B5032101A0FEF723FC10BDF3
:102F300054494D355F49525148616E646C65720069
:102F400010B5032101A0FEF715FC10BD54494D3703
:102F50005F49525148616E646C65720010B503217F
:102F600001A0FEF707FC10BD54494D385F42524B9B
:102F70005F49525148616E646C65720010B503215F
:102F800001A0FEF7F7FB10BD54494D385F43435F86
:102F900049525148616E646C6572000010B503219E
:102FA00001A0FEF7E7FB10BD54494D385F5452476E
:102FB0005F434F4D5F49525148616E646C657200CA
:102FC00010B5032101A0FEF7D5FB10BD54494D38C3
:102FD0005F55505F49525148616E646C65720000E4
:102FE00008211848FFF7E4F810211648FFF7E0F829
:102FF0000220FEF76FFCFF20FEF774FCFFF7B0FA2B
:10300000FFF756FD0020FEF721FA00200E49086068
:1030100004210C48FFF7CAF84FF4FA6000F09CF95D
:103020000FE004210748FFF7C1F84FF4FA7000F0F1
:1030300093F904210348FFF7BBF84FF4FA7000F04E
:103040008BF9EEE700180140B07E00200EB5FDF7C9
:10305000D9FEFDF7BBFE18E010210C48FFF7A6F8DB
:10306000FFF72EFD04462146684600F02DFF902113
:103070006846FDF701FF642000F06EF91021034857
:10308000FFF796F8642000F067F9E5E700180140C3
:1030900010B510480078062804D00F480078401C6E
:1030A0000D4908700D480078401C0C49087008460E
:1030B000007864280DDD002008701423084A0648B3
:1030C00001780848FEF718FF0749087000200249F8
:1030D000087010BD500000203C000020340000208B
:1030E00035000020380000204800002010B50220E4
:1030F0001E49487000204860002425E0002004EBB1
:10310000840101EBC4011A4A02EB8101088104EB3E
:10311000840101EBC40102EB8101886104EB8401AD
:1031200001EBC40142F8210004EB840101EBC4016E
:1031300002EB8101086204EB840101EBC40102EBA4
:1031400081018884601CC4B2072CD7DB06200949A2
:10315000087000200849086008498873084BFF225E
:103160004FF47A71054800F069FB10BD480000205B
:10317000900E002050000020580000205C7D0020B0
:1031800025390008FEF7C2FDFFF7DAF806E0FFF781
:10319000F1F8642000F0E0F800F09AFBF7E7000097
:1031A00038B51849B1F1807F00D31DE021F07F4090
:1031B000401E4FF0E022506150170F22002807DA1E
:1031C00013071D0E104B00F00F04241F1D5503E0C4
:1031D00013071C0E0D4B1C5400BF00204FF0E022C3
:1031E00090610720106100BF4FF47A7008A300229D
:1031F0000A490090062000F045F8062000F05EFA2B
:1032000038BD00004019010018ED00E000E400E0C6
:103210005461736B526F6F740000000085310008B9
:1032200010B5FFF735FF00F039F90D484078102848
:1032300005D103210BA0FEF79DFAFFF7B5F8104862
:103240008089401C0E498881084680890989884206
:1032500005DD0B490869804700200949888110BDB8
:10326000480000205461736B2054696D654F75747C
:103270002057696C6C20544F53205265736574005D
:103280005C7D00202DE9F04304460D4690461E4625
:10329000079F0DB9BDE8F08304EB840000EBC40088
:1032A0002A4901EB8000808CA8B92948006838447D
:1032B0002749086004EB840101EBC401234A02EBB7
:1032C00081018F842248006804EB840101EBC40172
:1032D00002EB8101086204EB840202EBC4021B4B87
:1032E00003EB8202918C04EB840202EBC40203EB39
:1032F0008202126A174BD01800F080FA8146022031
:1033000004EB840101EBC401104A02EB8101088146
:1033100004EB840000EBC400114601EB8000456023
:1033200004EB840000EBC40001EB8000066342461E
:103330002946484600F08AF904EB840101EBC401F8
:10334000024A42F8210000BFA4E70000900E0020CE
:1033500058000020FC0F002010B5044615484078A6
:10336000012822D000201449097801EB810202EBE8
:10337000C101124A02EB810188610F48007800EB1D
:10338000800101EBC000114601EB80004461082080
:103390000949097801EB810202EBC101074A02EBFE
:1033A0008101088100F0D4F902E02046FDF704FA1B
:1033B00010BD00004800002050000020900E0020AA
:1033C00001460C4800EB4110007A08B90020704714
:1033D000084800EB41104079074A1278904201D02A
:1033E0000020F4E70120034A02EB4112107200BFF3
:1033F000EDE70000707D00205000002070B504460D
:103400000D4600BF1B4800EB4410007A30B1012884
:1034100014D0022804D003282AD11CE0002070BD5B
:10342000144800EB4410407913490978884201D1CF
:103430000120F4E7204600F09DFAE3E702200D4961
:1034400001EB441108720C4800780A4901EB441161
:1034500048710120E3E70220064901EB441108729C
:1034600005480078034901EB441148710120D6E773
:103470000020D4E7707D002050000020014607297D
:1034800001DB0020704701EB810000EBC100024A24
:1034900002EB80000089F5E7900E0020002088E014
:1034A00000EB800101EBC001444A02EB8101098974
:1034B000022906D0082924D010294FD0202974D100
:1034C00072E000EB800101EBC0013C4A02EB81019C
:1034D0008969491C00EB800202EBC002374B03EB09
:1034E0008202916100EB800101EBC0011A4602EB00
:1034F00081018969B1F5FA6F02D91021304A517002
:1035000054E0002100EB800202EBC0022B4B03EBE6
:103510008202916100EB800101EBC0011A4602EBCF
:103520008101496941B9022100EB800202EBC0022E
:1035300003EB8202118110E000EB800101EBC0017E
:103540001E4A02EB81014969491E00EB800202EB31
:10355000C0021A4B03EB8202516127E000EB8001AD
:1035600001EBC001154A02EB8101C96949B9022189
:1035700000EB800202EBC002104B03EB82021181D0
:1035800010E000EB800101EBC0010C4A02EB81016D
:10359000C969491E00EB800202EBC002074B03EB36
:1035A0008202D16102E000E000E000BF00BF411CE8
:1035B000C8B20728FFF674AF70470000900E0020D5
:1035C00048000020072800DB704700EB800101EB7A
:1035D000C001084A02EB81010989082908D00821A5
:1035E00000EB800202EBC002024B03EB820211816E
:1035F00000BFE9E7900E002010B504460F480078A0
:10360000A04200D110BD0D48007800EB800101EB15
:10361000C0000B4901EB80000A49086007480470AC
:10362000007800EB800101EBC000054951F8200053
:1036300005490860FDF736F800BFE3E750000020B9
:10364000900E0020440000204000002030B50346CA
:103650001846041F20462160041F204623600025D1
:10366000041F20462560041F20462560041F2046B5
:103670002560041F20462560041F20462560041F86
:1036800020462560041F20462560041F2046256033
:10369000041F20462560041F20462560041F204685
:1036A0002560041F20462560041F204622604FF03D
:1036B0008075041F2046256030BD000010B504460B
:1036C00004EB840000EBC400034951F820000349D7
:1036D0000860FDF700F810BD900E002040000020AB
:1036E00010B50446072C00DB10BD04EB840000EB92
:1036F000C400164901EB80000089082801D101208F
:1037000000E0002004EB840101EBC4010F4A02EB4E
:1037100081010989022901D1012100E0002108432A
:1037200012D0042004EB840101EBC401074A02EB30
:1037300081010881002004EB840101EBC40102EB4C
:103740008101486100F004F800BFCDE7900E002031
:1037500010B502212648A0F84011002444E004EBF3
:10376000840000EBC400224901EB8000008902289C
:1037700006D008280CD010280BD0202830D109E022
:103780001C480078A04202D02046FFF735FF10BD4C
:1037900027E026E004EB840000EBC400144901EBB1
:1037A000800090F82600144901EB4010007A0128AF
:1037B00015D1082004EB840101EBC4010C4A02EB93
:1037C00081010881032004EB840101EBC40102EBB9
:1037D000810191F82610084A02EB4111087200E0BD
:1037E00000BF00BF601CC4B2072CB8DB00BFCEE72F
:1037F000900E002050000020707D002002465018DE
:1038000020F00303A3F1340020F00700704700000C
:1038100010B5102200EB800303EBC003064C04EB51
:1038200083031A8100EB800202EBC002234603EB04
:103830008202D16110BD0000900E002070B50446D8
:103840000D46164601221449887B002816DD0AE041
:103850004968002A07DD0878904202D022700022D1
:1038600001E0501CC2B248680028F1D1002A00DDF6
:1038700022700A480078A0734C6005E00C460020D6
:10388000207006480078A073258166810020A08101
:1038900023616060207870BD5C7D002050000020B6
:1038A00002460A490CE048680078904207D100209F
:1038B0004B685881486840684860104670474968BE
:1038C00048680028EFD100BFF8E700005C7D0020C9
:1038D00010B5134C1FE06068807B10F0400F19D0CA
:1038E0006068807B10F0800F12D0616808698047A3
:1038F0006068807B20F08000616888736068408920
:1039000020B961680878FFF7CBFF04E0646802E043
:10391000646800E0646860680028DCD110BD0000C5
:103920005C7D002012481EE04068817B11F0400F52
:1039300019D04189002916DD81890289914203DA73
:103940008189491C81810EE04189FF2902DA418980
:10395000491E41814189002901DD00218181817B4E
:1039600041F08001817341680029DDD1704700007A
:103970005C7D002010B504460C48007800EB800107
:1039800001EBC0000A4901EB800080F826402020AE
:103990000649097801EB810202EBC101044A02EBFE
:1039A00081010881FFF7D4FE10BD00005000002007
:1039B000900E002010B540F225510E4800F098F905
:1039C000B0B10C48001D0088C4B20B48C0880B4938
:1039D000C98888420CDA0848C188C088401C064A59
:1039E000D080074844540749C8780A21FFF710FFE0
:1039F00010BD0000004C0040860E00207C0E002010
:103A0000480600202F00002010B540F225510D4837
:103A100000F06EF9A8B10B488088C4B20A4800894A
:103A20000A49098988420CDA074801890089401C43
:103A3000054A108106484454064908790A21FFF7CF
:103A4000E7FE10BD00500040860E00207C0E0020D6
:103A5000740700202F0000201FB500F09FF80121FF
:103A60008803FEF775FE4FF4E13000900020ADF8BA
:103A70000400ADF80600ADF80800ADF80C000C200D
:103A8000ADF80A0069460A4800F082F9012240F2C6
:103A90002551074800F056F90121054800F013F9B7
:103AA000012000F0C7F84021014800F003F91FBDD4
:103AB0000038014000B58DB0FFF7CEFF0121084668
:103AC000FEF716FE0E208DF8300003208DF8310031
:103AD00002208DF8320001208DF833000CA8FEF78B
:103AE0007BFC1548FDF778FD1448019014480290BE
:103AF000102003904FF496700490002005908020D1
:103B0000069000200790089009904FF400500A900A
:103B100000200B9001A90848FDF70DFE01220221AB
:103B20000548FDF7FFFD012280210448001F00F039
:103B3000D6F80DB000BD000044000240043801403A
:103B40009801002070B504460D4600210F4800780A
:103B5000FFF754FC0646C6B10D4800780D490870C1
:103B60000D480465856401210B484430FDF728FDAC
:103B700008480078FFF7B4FD002107484430FDF7FE
:103B80001FFD02480078FFF71BFC70BD14000020E9
:103B900050000020160000200000024008B501215E
:103BA0000520FEF7D5FD4FF40070ADF800000320AE
:103BB0008DF8020018208DF8030069460748FEF7CB
:103BC00023FA4FF48060ADF8000004208DF8030064
:103BD00069460248FEF718FA08BD000000080140D7
:103BE00010B540F225510E4800F082F8B0B10C48F3
:103BF000001D0088C4B20B4800880B490988884220
:103C00000CDA084801880088401C064A10800748E2
:103C100044540A2106480078FFF7FAFD10BD000061
:103C2000003801401A000020180000206C0000201D
:103C30001700002038B504464FF48060FEF706FCFC
:103C400025208DF8000002208DF8010001208DF85C
:103C500002008DF803406846FEF7BEFB38BD000049
:103C600010B540F225510E4800F042F8B0B10C48B2
:103C7000001D0088C4B20B4840880B49498888421F
:103C80000CDA084841884088401C064A50800748A2
:103C90004454074948780A21FFF7BAFD10BD0000D7
:103CA00000440040860E00207C0E0020F00300201F
:103CB0002F00002001F40072B2F5007F00D100BF98
:103CC000CA430280704721B1828942F40052828146
:103CD00004E082894DF6FF731A40828170471AB161
:103CE000838A0B43838202E0838A8B4383827047FB
:103CF00070B502460024002300250020A1F51066BF
:103D00006A3E00D100BFC1F3421501F01F03012636
:103D100006FA03F3012D02D19689334006E0022D05
:103D200002D1168A334001E0968A33400C120126F4
:103D300006FA04F41688344013B10CB1012000E0F7
:103D4000002070BDF0B503460024002600250020A9
:103D5000A1F510676A3F00D100BF1846C1F34214B5
:103D600001F01F06012707FA06F5012C01D10C30DE
:103D700004E0022C01D1103000E014301AB10768C1
:103D80002F43076002E00768AF430760F0BD000003
:103D90002DE9F04786B005460E460024A24600BF36
:103DA000A1460027B08900B100BF2F462C8A4CF6EF
:103DB000FF700440F08804432C82AC894EF6F31067
:103DC0000440B08831890843718908430443AC81B9
:103DD000AC8A4FF6FF400440B0890443AC8201A88E
:103DE000FEF732FD1F48874202D1DDF810A001E046
:103DF000DDF80CA0A88910F4004F08D00AEBCA0027
:103E000000EB0A1031684900B0FBF1F807E00AEB5B
:103E1000CA0000EB0A1031688900B0FBF1F8642099
:103E2000B8FBF0F004012009642101FB1089A88986
:103E300010F4004F08D0322000EBC900B0FBF1F0C5
:103E400000F00700044308E0322000EB0910642171
:103E5000B0FBF1F000F00F0004432C8106B0BDE888
:103E6000F08700000038014010B50B46002108E043
:103E700000BF048814F0800FFBD05C5C84804C1C75
:103E8000A1B29142F4DB10BD10B54FF48020FDF7D4
:103E9000E7FF10BD00B585B002210A48FCF7F0FD30
:103EA00070B102210748FCF7F7FC6A46002105487B
:103EB000FCF714FF9DF8090010B96846FCF703FFF2
:103EC00005B000BD0064004013B50246042301A9FB
:103ED00003E011F8010B02F8010B1800A3F1010433
:103EE000E3B2F6D104201CBD00BFFEE7704700001E
:103EF00070B506460C4615460A4800780A4908700F
:103F00000A4804658564012108484430FDF758FBE0
:103F100005480078FFF7E4FB002104484430FDF732
:103F20004FFB70BD50000020160000200000024032
:103F300010B5032101A0FDF71DFC10BD57574447E4
:103F40005F49525148616E646C65720037B5144622
:103F50000846064B6A46214600F0C8F80446694602
:103F6000002000F066FC20463EBD000033480008FB
:103F700002E008C8121F08C1002AFAD17047704732
:103F8000002001E001C1121F002AFBD17047000090
:103F90002DE9FF5FDDE90220010DDDF838B00243B5
:103FA00010D10F9801244CA2012808D000210098BC
:103FB0000F9BC0E90021C0E90243BDE8FF9F6FEA03
:103FC0000B01F4E7A1F2FF3144F6105041430D1408
:103FD0000F9801280ED0A5EB0B00401C4FF00004F9
:103FE0003E4EDFF8FC90B0F1000AA04605DACAF1B7
:103FF000000717E0CBF10000F0E7074612E0F807F2
:1040000007D02246334640464946FCF754F98046DD
:1040100089462246334610461946FCF74CF90446B9
:104020000E467F10002FEAD1DDE90201BAF1000F40
:1040300042464B4602DAFCF73EF901E0FCF7ADF9E7
:1040400004460E460022274BFCF706FB03D84FF030
:10405000FF30014607E00022234B20463146FCF7A3
:1040600083F8FCF7E0FA102409E0002C0ADB0A22AE
:104070000023FCF717FA019B30321A55641E50EAF0
:104080000102F2D1641C019AC4F1110314440F9A85
:10409000012A09D00122084301D15B450FDD4FF011
:1040A000000205F101050DE0084303D1A3EB0B0568
:1040B0006D1E09E000204FF0110B0F9088E701DA28
:1040C00000226D1E002A83D000980F99C0E90231AA
:1040D000C0E9004571E70000300000000000244006
:1040E0000000F03F0000F0430000E03F2DE9FF4FEB
:1040F00095B09B4689460646002512E2252878D1D0
:104100000024761CF94A2746012105943378203B88
:1041100001FA03F0104202D00443761CF6E730782F
:104120002A2811D06FF02F033078A0F13002092A2D
:1041300016D8059A44F0020402EB820203EB420215
:104140001044761C0590EFE759F8042B0592002ADD
:1041500003DA504244F40054059044F00204761C03
:1041600030782E2816D116F8010F44F004042A28BE
:104170000DD06FF02F023078A0F13003092B09D851
:1041800007EB870302EB4303C718761CF3E759F8E4
:10419000047B761C30786C280FD006DC4C2817D0B6
:1041A00068280DD06A2814D104E0742810D07A2829
:1041B0000FD10DE044F400140AE044F4801401E04F
:1041C00044F440147278824202D1761C04F58014C3
:1041D000761C307866280BD013DC582877D009DCA1
:1041E000002875D04528F6D04628F4D047281AD1A3
:1041F0009FE118E0632835D0642879D0652812D172
:1042000097E1702873D008DC6728F1D069286FD057
:104210006E280DD06F2806D1B5E073282CD07528F4
:1042200075D0782874D05A46179990476D1C76E15E
:10423000C4F30250022809D003280DD0D9F8001089
:1042400004280DD00D6009F1040968E1D9F80010C7
:10425000EA17C1E90052F6E7D9F800100D80F2E73D
:104260000D70F0E719F8041B8DF8001000208DF890
:104270000100EA46012003E059F804AB4FF0FF309B
:1042800061074FF0000102D40DE008F101018846FA
:10429000B9420FDA8045F8DB1AF808100029F4D18A
:1042A00008E008F1010188468142FADB1AF808109B
:1042B0000029F6D105985B46A0EB08072146384651
:1042C000179A00F09EFA284400EB080507E04DE03D
:1042D0002BE10DE01AF8010B5A4617999047B8F1F7
:1042E0000108F7D25B4621463846179A14E142E0AE
:1042F0000A220092C4F302524FF0000A022A08D0A8
:1043000059F804CB032A4FEAEC710AD00DE029E0FA
:104310002AE009F1070121F00702F2E802C1914603
:1043200009E00FFA8CFC4FEAEC71042A03D14FFA32
:104330008CFC4FEAEC71002907DA0A460021DCF117
:10434000000C61EB02012D2202E0220504D52B2294
:104350008DF80420012203E0E20701D02022F7E7D4
:10436000904653E00A2102E010220DE010214FF0A8
:10437000000A00910BE010224FF0000A44F0040400
:104380000827009203E008224FF0000A0092C4F3CD
:104390000252022A05D059F804CB0021032A08D082
:1043A00009E009F1070121F00702F2E802C1914694
:1043B00005E01FFA8CFC042A01D10CF0FF0C4FF031
:1043C0000008220722D5702827D0009B83F0100315
:1043D00053EA0A0309D15CEA010206D030228DF8C3
:1043E00004208DF8050002229046009B83F008030C
:1043F00053EA0A030AD15CEA010201D1620705D53A
:1044000030228DF804204FF001087F1E582809D073
:1044100037A003900EA8029013E040228DF80420EC
:104420000122E1E737A0F4E753466046009AFCF723
:1044300039F884460398825C0298A0F1010002904A
:1044400002705CEA0100EFD1029806A9A1EB00001E
:1044500000F1200A600702D524F4803400E001272F
:10446000574502DDA7EB0A0000E0002000EB0A013F
:10447000009005984144A0EB01000590E00306D4AC
:104480005B462146179A059800F0BBF905440027C2
:1044900006E001A85A46C05D179990476D1C7F1C25
:1044A0004745F6DBE0030CD55B462146179A059895
:1044B00000F0A7F9054404E030205A4617999047C8
:1044C0006D1C0099481E00900029F5DC08E0029858
:1044D00002995A460078491C0291179990476D1C21
:1044E000BAF10001AAF1010AF1DC6BE1092801002F
:1044F000303132333435363738396162636465665A
:10450000000000003031323334353637383941421B
:10451000434445460000000000F060F9054406F100
:104520000106307800287FF4E9AD19B02846BDE8CF
:10453000F08F620700D4062709F1070222F0070C6A
:10454000FCE80223E14603F000485FEA080C02D0D1
:104550000FF27C2C0DE05FEA045C02D50FF2742CA4
:1045600007E05FEAC47C02D00FF26C2C01E0AFF2EE
:10457000700C4FF0FF3823F00043CDF850C0652891
:104580000CD006DC452809D046281DD047283ED14E
:104590003EE0662818D0672839D139E00021112F74
:1045A00001DB112000E0781CCDE9000106A90EA86E
:1045B000FFF7EEFCDDE90F010E9A03910021009256
:1045C00007F1010A04914EE04FF000400097CDE959
:1045D000011006A90EA8FFF7DBFCDDE90F0203922C
:1045E0000E9B11990022DDF80CA00093049219B9DA
:1045F00007F1010100EB010AB7EB0A0004D4C0F196
:10460000FF3007F1010A0490AAEB0700019046E091
:10461000012F00DA01270021112F01DD112000E018
:104620003846CDE9000106A90EA8FFF7B1FCDDE987
:104630000F010E9A0391002104910092BA462107BE
:104640000CD40399514500DA8A46BAF1010F05DD11
:10465000009AAAF10101515C302908D0B84202DA6F
:1046600010F1040F06DA0121CDE9011017E0AAF1DB
:104670000101E9E7002805DC049901440491AAEB53
:10468000000102E0411C514500DD8A460499A0EB7F
:10469000010000F1010001904FF00040029020075E
:1046A00004D40198504501DBCDF8048000208DF83A
:1046B0004F0002980DF14F07B0F1004F25D02B208D
:1046C0000E9002984FF0020800280CDA4042029047
:1046D0002D200E9007E00A210298FBF7CDFE303125
:1046E000029007F8011DB8F10001A8F10108F2DC01
:1046F00002980028EFD1791E0E980870307800F0EB
:10470000200040F0450007F8020D12A8A0EB0700BA
:1047100000F107081498007800B1012000EB0A01AD
:10472000019801EBE07105984144A0EB0100A0F174
:1047300001000590E00306D45B462146179A0598D0
:1047400000F05FF805441498007820B15A46179994
:10475000904705F10105E00323D55B462146179AF2
:10476000059800F04EF805441BE00498002807DB8C
:10477000DDE90301884203DD0098405C179901E000
:10478000179930205A46904704986D1C401C04909D
:104790000198401E019004D12E205A461799904747
:1047A0006D1CBAF10001AAF1010ADEDC05E017F880
:1047B000010B5A46179990476D1CB8F10001A8F1FA
:1047C0000108F4DC5B462146179A0598A4E6000030
:1047D0002D0000002B000000200000002DE9F0411A
:1047E000044600251E461746880405D406E03946CF
:1047F0002020B04705F10105641EF8D52846BDE824
:10480000F0812DE9F041044600251E469046C8037C
:1048100001D5302700E02027880405D506E0414671
:104820003846B04705F10105641EF8D52846BDE8B5
:10483000F0810A68531C0B601070704708B5FDF7D3
:1048400097FFFDF73DF8FDF755F8FDF7C5F9FDF7C2
:104850001BF9FDF76DF9FDF7C9F8FDF757FAFEF7FB
:1048600045FC40F6B8300EA300220F4900901046D8
:10487000FEF708FD40F6B8300CA300220D49009069
:104880000220FEF7FFFC40F6B83008A300220A49D8
:1048900000900320FEF7F6FCFEF782FC00BFFEE767
:1048A0005461737430000000E12F00085461737488
:1048B000320000005D0700084D300008DC480008A9
:1048C000000000206C000000703F0008484900080C
:1048D0006C000020AC820000803F00080000000057
:1048E0000102030401020304060708090204060882
:1048F000FFFF070700000000FFFF30FFFFFF000081
:1049000000000000000000000000000000000000A7
:104910000000000000000000000000000000000097
:104920000000000000000000000000000000000087
:10493000000000000000000000FF00FFFFFF00007B
:0849400000000000000000006F
:0400000508000131BD
:00000001FF
