:020000040800F2
:10000000C852002001010008A3170008A51300082A
:100010006D14000859070008A52C00080000000016
:10002000000000000000000000000000E9190008C6
:10003000B7090008000000005D180008371B000821
:10004000A92C000841180008A11B00081B0100088A
:10005000D90F0008751900089D0E00081B01000843
:10006000CD0E0008ED0E00080D0F00081B01000862
:10007000B1070008D90700081B0100081B01000890
:100080001B010008010800081B0100081B010008F3
:100090001B0100085D0700087D0700082D0F000800
:1000A000C11B0008251C0008011C0008E11B0008FA
:1000B0001B0100081B010008451C0008CD130008A7
:1000C000AD1300080D140008ED130008B119000865
:1000D000CD1900083126000885260008E52600080D
:1000E000A90E000891190008912C0008DFF80CD027
:1000F00000F0C2FA00480047B5350008C852002099
:100100000648804706480047FEE7FEE7FEE7FEE7B1
:10011000FEE7FEE7FEE7FEE7FEE7FEE7411B00081D
:10012000ED0000082DE9FE4F804681EA0300C00F74
:100130000C46009021F0004123F00045B8EB02008E
:10014000A94105D24046214690461C460B46024630
:1001500023F00040104304D14046214603B0BDE8DF
:10016000F08F270DC7F30A00C3F30A510290401A1B
:100170000190402866DAC3F3130040F4801B009816
:10018000924620B10023D2EB030A63EB0B0B0198DC
:100190005946C0F14002504600F0B2F906460D46FD
:1001A00050465946019A00F0CAF910EB0800614127
:1001B000002487EA115284EAE7731A433BD0009A7D
:1001C0003AB3019A012A4FEA075210DC001B61EB97
:1001D00002014FF0004202EA0752CDE90042001C42
:1001E00041F5801132462B4600F0C8F9B6E7001BF6
:1001F00061EB0201001C41F5801300185B412018DF
:10020000A2F5001747EB030140EAD570B6196D411E
:1002100011E06D084FEA360645EAC0754FEA07520D
:10022000001B61EB0201001C41F5801149084FEAF7
:1002300030000019514132462B4603B0BDE8F04F63
:1002400000F08FB90098012240000023D0EB020299
:1002500063EBE073009821464FEAE074B8EB0000CE
:1002600061EB0401E9E783F000435BE781F00041C3
:1002700058E72DE9FE4F81EA030404F0004421F021
:10028000004100944FF0000B23F0004350EA0104BA
:1002900002D052EA030404D10020014603B0BDE8B5
:1002A000F08FC3F30A54C1F30A552C44A4F2F3347B
:1002B0000194A0FB0254C1F3130141F48011C3F374
:1002C000130343F4801301FB024400FB034E840A32
:1002D000970A44EA815447EA8357A4FB07680295CA
:1002E0008D0A05FB07854FEA932C04FB0C54270568
:1002F000029D4FEA065847EA1637B5EB08056EEB44
:10030000070C870E920E47EA811742EA8312A7FB79
:100310000201B6EB0B0164EB00042B0D43EA0C3336
:100320005E1844EB1C50DA465146E7FB0201C5F368
:1003300013044FEA0B3343EA14534FEA0432019C8F
:1003400043EA0603A4F10C040294009CCDE900B436
:1003500000F014F9A2E72DE9F04D81EA030404F05E
:10036000004B21F0004514464FF0000A23F00041F5
:1003700050EA050220D054EA01021DD0C5F30A5705
:100380000246C5F31303C1F31300C1F30A5640F448
:10039000801543F48013A7EB0608101BD64608F21D
:1003A000FD3873EB050002D308F1010801E0921853
:1003B0005B41B8F1000F03DA00200146BDE8F08D83
:1003C00000204FF48011064684460EE0171B73EBA5
:1003D000050705D3121B63EB050306434CEA010C2A
:1003E00049084FEA300092185B4150EA0107EDD10D
:1003F00052EA030012D082EA040083EA05010843AE
:1004000003D100224FF0004308E0101BAB4102D2A1
:100410000122002302E06FF0010253101AEB0600E4
:100420004CEB085110EB0A0041EB0B01BDE8F04D1D
:1004300000F097B870B5C1F30A5201F000450024EE
:10044000C1F3130140F2FF3341F480119A4201DA03
:10045000002070BD40F233439A42A2F2334203DCE3
:10046000524200F05CF800E090402C43F1D0404252
:1004700070BD30B50B46014600202022012409E062
:1004800021FA02F59D4205D303FA02F5491B04FA4D
:1004900002F52844151EA2F10102F1DC30BD2DE960
:1004A000F05F0546002092469B46884606468146F8
:1004B00040241BE0284641464746224600F02FF8DC
:1004C00053465A46C01A914110D311461846224647
:1004D00000F016F82D1A67EB01084F46224601205E
:1004E000002100F00DF817EB00094E41201EA4F189
:1004F0000104DFDC484631462A464346BDE8F09F0A
:10050000202A04DB203A00FA02F1002070479140D3
:10051000C2F1200320FA03F3194390407047202AC8
:1005200004DB203A21FA02F00021704721FA02F39D
:10053000D040C2F120029140084319467047202A5A
:1005400006DBCB17203A41FA02F043EAE07306E0FB
:1005500041FA02F3D040C2F120029140084319460B
:10056000704710B5002B08DA401C41F100019218C9
:100570005B411A4301D120F0010010BD2DE9F04D7F
:1005800092469B4611B1B1FA81F202E0B0FA80F2D4
:1005900020329046FFF7B4FF04460F4640EA0A00B7
:1005A00041EA0B0153465A46084303D120463946D7
:1005B000BDE8F08D114653EA010015D0C8F14002A4
:1005C0005046FFF7ACFF05460E4650465946424698
:1005D000FFF796FF084301D0012000E0002005430B
:1005E00046EAE0762C4337430A984FEA4453A0EB9F
:1005F00008004FEAD4240A304FF0000244EA47547E
:100600004FEAD72502D500200146D1E70105101990
:100610006941DDE9084500196941BDE8F04DA0E7F1
:10062000C1F30A52C1F3130140F2FF3341F48011C8
:100630009A4202DA00200146704740F233439A4260
:10064000A2F2334202DC5242FFF769BFFFF758BF04
:1006500030B5002904DB4FF00044404264EB010157
:10066000002B04DB4FF00044524264EB0303994239
:1006700008BF904230BD0000064C074D06E0E06820
:1006800040F0010394E8070098471034AC42F6D3D9
:10069000FFF730FD2C3800084C38000882B02DE9F7
:1006A000FF1FEFF3038001B4684600F1400000E94A
:1006B00001400C480168C1F800D00B48D0F800D0C8
:1006C00001BC80F30388BDE8FF1F01B000BD0648F0
:1006D000D0F800D001BC80F30388BDE8FF1F01B053
:1006E00000BD00005C0000205800002010B504464A
:1006F00060680849086008460068074908604FF4C8
:10070000A0414FF0006001F091F803480068804775
:1007100010BD0000900000208C00002006E04FF487
:100720007A7100BF0A00A1F10101FBD10200A0F122
:100730000100F4D17047F0B5034600201C460D4679
:10074000104603E014F8016B05F8016B1600A2F1E6
:100750000107BAB2F6D1F0BD00BFFEE710B5032124
:1007600001A000F061F810BD43414E315F52583195
:100770005F49525148616E646C65720010B5032187
:1007800001A000F051F810BD43414E315F53434585
:100790005F49525148616E646C65720002E000224C
:1007A00000F8012B0A00A1F1010399B2F7D17047BB
:1007B00010B5032101A000F037F810BD444D4131C0
:1007C0005F4368616E6E656C325F49525148616E7D
:1007D000646C65720000000010B5032101A000F0F8
:1007E00023F810BD444D41315F4368616E6E656C06
:1007F000335F49525148616E646C657200000000BD
:1008000010B5032101A000F00FF810BD444D413197
:100810005F4368616E6E656C375F49525148616E27
:10082000646C6572000000000FB42DE9F04186B0E1
:1008300000240125002656480078FF2801D1012018
:1008400000E0002052490978524A1278914201D1C1
:10085000012100E0002108437ED04FF4806000F0C9
:100860002DFE07460DA805903846059A0C9902F012
:1008700029FA002005900DA8059069460C9800F013
:10088000ECFC05462AE02046611CCCB21DF80000B5
:10089000012804D0022806D003281AD115E00598B3
:1008A00040C8059019E00598C01D20F0070005908C
:1008B000D0E90021DDF814C00CF1080C1046CDF889
:1008C00014C0FFF7B7FD064607E0059840C805903D
:1008D00003E0059840C8059000BF00BF2800A5F1BF
:1008E0000105D0D1059840C80590002005902A4800
:1008F0000078FF2801D1012000E000202649097876
:10090000B14201DB012100E00021084338D0234837
:10091000007810F0010F07D02148007800F0BCF9F2
:1009200010B1384600F046F839461EA001F0E2F852
:100930001A48007810F0020F0DD01B49087800F01B
:10094000ABF940B1384600F00EFD804642463946CC
:10095000164802F08DF900E015E01048007810F01C
:10096000040F0DD01049487800F096F940B1384690
:1009700000F0F9FC8046424639460D4802F078F90D
:10098000384600F075FD06B0BDE8F0015DF814FBD7
:1009900084000020680000208600002085000020E0
:1009A000280000200D0A00002C0000200038014023
:1009B000004400407047704710B500201A49087085
:1009C0004FF4A07000F07AFD18490860002406E09A
:1009D000FF201749085517490855601CC4B2022C5E
:1009E000F6DB00241DE000201049096801EB4411EA
:1009F000486103200D49096801EB44110872002089
:100A00000A49096801EB441108610849096801EBCA
:100A10004411C8600549096801EB44118861601CF4
:100A2000C4B20A2CDFDB10BD780000207C0000205F
:100A30002C0000202E00002070B50546284601F04D
:100A4000C3FF04465F48005DFF2808D15E48007878
:100A50005C4908555C480078401C5B4908705BA005
:100A60005849095D5B4A126802EB41110860002099
:100A70005449095D574A126802EB4111487101203F
:100A80005049095D534A126802EB4111C8710320B5
:100A90004C49095D4F4A126802EB411108724E48F9
:100AA0004849095D4B4A126802EB411148614548CB
:100AB000005D4849096801EB4010C461474941485D
:100AC000005D444A126802EB4010C16044483D4951
:100AD000095D404A126802EB411108610021394862
:100AE000005D3C4A126802EB4010816100203D49E4
:100AF00021F814004FF4966000F0E0FC3A4941F808
:100B00002400284601F060FF04463848005DFF28B5
:100B100008D12D480078354908552B480078401CED
:100B20002949087032A03149095D2A4A126802EB4E
:100B30004111086000202D49095D264A126802EB28
:100B40004111487101212948005D224A126802EBD7
:100B50004010C17103202549095D1E4A126802EB4D
:100B6000411108721C492148005D1A4A126802EBC3
:100B7000401041611D48005D1649096801EB4010B5
:100B8000C46116481949095D124A126802EB411105
:100B9000C86013481549095D0E4A126802EB4111FD
:100BA000086100201149095D0A4A126802EB4111EF
:100BB00088614FF4967000F081FC0F4941F82400E1
:100BC00070BD00002E0000207800002055534152D7
:100BD000527800007C0000208D270008512C00086E
:100BE000712B000844000020340000202C0000205D
:100BF00055534152547800003C00002010B50321A9
:100C00001DA0FFF711FE002433E02248006800EB2E
:100C10004410406958B31F48006800EB4410C07985
:100C2000012804D0022815D003281FD10BE0194A4F
:100C3000126802EB4412107F164A126802EB44124B
:100C40005169884712E01349096801EB441148696A
:100C500080470BE00F4A126802EB4412D0690D4A3C
:100C6000126802EB44125169884700BF00BF601C44
:100C7000C4B20A2CC9DB10BD546F73204465766979
:100C8000636520496E69742E2E2E2E2E2E2E2E2E4A
:100C90002E0000007C0000200146FF2901D1002029
:100CA00070470548006800EB4110406908B9002012
:100CB000F6E70120F4E700007C000020BAB0074608
:100CC000B846404601F080FE044601200346052256
:100CD0000146009004A800F017FCB6E05B4951F80B
:100CE00024004FF49661FFF759FD00234FF49662FC
:100CF0001946404601F054FF0546544951F8240076
:100D000004AA294600F097FC05462E469DF81E00D1
:100D100000287CD19DF81300292845D02A283DD0F1
:100D20002C2802D02F2850D11DE03C2048490870C3
:100D3000464A52F82430721C9918444A52F824202A
:100D4000925D444B4FF4806C0CFB0230624600F025
:100D5000C0F93E4850F82400825D3FA108A800F089
:100D6000EFFA054637E03C2039490870374951F819
:100D70002410881901F092FF814600F06BF9334985
:100D800051F82410881901F089FF4FEA90294A464A
:100D900035A108A800F0D4FA05461CE000F036F9A9
:100DA0002C48FFF7A3FC16E034A108A800F0C8FA0D
:100DB000054608A9481900F091FA054408A9481900
:100DC00027A100F0BDFA054405E008A92DA000F018
:100DD0007FFE054600BF00BF012000901B4850F871
:100DE000240081780123052204A800F08DFB08A8C7
:100DF0000121CDE901050091254951F82400012385
:100E00001A4604A900F08BFB0546214800E006E0E5
:100E100050F824102A46404601F02AFF15E09DF8BC
:100E20001E00062811D09DF81E00052807D107488E
:100E300050F82410012217A0FFF7F6FC05E09DF8FA
:100E40001E10032214A0FFF7EFFC47E73400002038
:100E50008800002000500008506167655B25645DD4
:100E6000204F4B0D0A00000045726173655B2564DD
:100E70005D4B62204F4B0D0A0000000046696E6416
:100E8000200000004E6F7420466F756E64000000F5
:100E90003C0000202573000025640000012000F0C4
:100EA00055F800F0CFFA000010B5032101A0FFF7BC
:100EB000BBFC10BD4558544931355F31305F495254
:100EC0005148616E646C65720000000010B503212A
:100ED00001A0FFF7A9FC10BD45585449325F4952A3
:100EE0005148616E646C65720000000010B503210A
:100EF00001A0FFF799FC10BD45585449335F495292
:100F00005148616E646C65720000000010B50321E9
:100F100001A0FFF789FC10BD45585449345F495280
:100F20005148616E646C65720000000010B50321C9
:100F300001A0FFF779FC10BD45585449395F355F72
:100F400049525148616E646C657200000149086045
:100F5000704700001404014030B5044604254FF4E6
:100F6000302000F0A3F80546042D17D10C48006985
:100F700040F002000A49086108464461006940F0F7
:100F8000400008614FF4302000F090F80546044816
:100F9000006941F6FD71084001490861284630BDED
:100FA0000020024004200B49C96811F0010F01D054
:100FB00001200EE00749C96811F0040F01D002209A
:100FC00007E00449C96811F0100F01D0032000E0C8
:100FD000042070470020024010B5032101A0FFF754
:100FE00023FC10BD464C4153485F49525148616E45
:100FF000646C6572000000000348006940F08000E6
:1010000001490861704700000020024010B5FFF759
:10101000F3FF10BD70B504460D460426F00200F043
:1010200045F80646042E11D10948006940F0010038
:10103000074908612580F00200F038F806460448A8
:10104000006941F6FE71084001490861304670BDF3
:1010500000200240F8B50446042500260020009038
:1010600000F018F8204600F0E1F906460AE0084AC8
:101070009314009903FB0120FFF76EFF05460098CB
:10108000401C00900098B04201D2042DEFD0F8BD72
:101090000050000802480349486003484860704710
:1010A0002301674500200240AB89EFCD00B5024621
:1010B0000423FFF777FF034603E0FFF773FF0346C0
:1010C000521E012B01D1002AF7D102B9052318467F
:1010D00000BDF8B504460E461746354600940EE0AE
:1010E00029880098FFF796FF288800990988884288
:1010F00001D00020F8BDAD1C0098801C0090E019C4
:1011000000998842ECD80120F4E770B50446002528
:10111000107820B116782068B0FBF6F085B2206810
:10112000084420601078984203DA1078401C107050
:1011300002E02068401B206016782068B0FBF6F0C3
:1011400080B270BD2DE9F041024600250026002046
:1011500000230024002791F803C00CF00F0591F83C
:1011600003C01CF0100F03D091F802C04CEA050533
:1011700091F800C0BCF1000F31D0146800202BE0C2
:101180004FF0010C0CFA00F3B1F800C00CEA0306B2
:101190009E4220D183004FF00F0C0CFA03F7BC43A2
:1011A00005FA03FC4CEA040491F803C0BCF1280FD3
:1011B00006D14FF0010C0CFA00FCC2F814C00AE092
:1011C00091F803C0BCF1480F05D14FF0010C0CFAA7
:1011D00000FCC2F810C0401C0828D1D31460B1F83C
:1011E00000C0BCF1FF0F34DD546800202EE000F198
:1011F000080C4FF0010808FA0CF3B1F800C00CEA33
:1012000003069E4221D183004FF00F0C0CFA03F726
:10121000BC4305FA03FC4CEA040491F803C0BCF19A
:10122000280F05D100F1080C08FA0CF8C2F8148058
:1012300091F803C0BCF1480F07D100F1080C4FF042
:10124000010808FA0CF8C2F81080401C0828CED318
:101250005460BDE8F08101617047F0B504460A466C
:10126000002300200025214633E00E78252E02D1F0
:101270000125461CB0B2012D2AD10E78642E06D16C
:10128000AC461E465F1CBBB202F806C000250E78B5
:10129000662E07D14FF0020C1E465F1CBBB202F84F
:1012A00006C000250E78732E07D14FF0030C1E46A2
:1012B0005F1CBBB202F806C000250E78632E07D172
:1012C0004FF0040C1E465F1CBBB202F806C000259E
:1012D000491C0E78002EC8D1F0BD0000FEB50546B1
:1012E00000261648006800901448001D0068019010
:1012F000124808300068029000241BE014E05DF8FA
:1013000024003E21B0FBF1F201FB1207384600F049
:10131000BBFC3146721CD6B268545DF824003E21F5
:10132000B0FBF1F04DF824005DF824000028E6D170
:10133000601CC4B2032CE1DB3046FEBDE8F7FF1FA2
:101340000FB438B5044606A800902046009A0599C7
:1013500001F0B8FC00200090204600F004F8C0B274
:1013600038BC5DF814FB10B5014600200A4601E0C8
:10137000431C98B212F8014B002CF9D110BD024663
:10138000002039B950784FF6FF7303EA0020137834
:10139000184306E010784FF6FF7303EA00205378F5
:1013A0001843704701E000F04DF8FCE710B5032149
:1013B00001A0FFF739FA10BD493243315F45525F52
:1013C00049525148616E646C6572000010B503218A
:1013D00001A0FFF729FA10BD493243315F45565F3E
:1013E00049525148616E646C6572000010B503216A
:1013F00001A0FFF719FA10BD493243325F45525F31
:1014000049525148616E646C6572000010B5032149
:1014100001A0FFF709FA10BD493243325F45565F1C
:1014200049525148616E646C6572000001B500203C
:101430000099CA05D20D03D0012202EB512000E031
:10144000480A08BD71B600BF0648006800F4E060B5
:1014500005490843001D03490860BFF3408F00BFE2
:1014600000BFFEE70CED00E00000FA0500BFFEE75C
:1014700002460A4B1868002106E0A2F108038342E5
:1014800000D107E0014600680368002BF5D101B1E7
:101490000B60704703680B6000BFFAE78000002014
:1014A000054908600021044A126811600821024AB7
:1014B00012685160704700008000002010B503469C
:1014C0001048016803F1080083B20FE00868401A71
:1014D0004C68001B984208D348684218536008685B
:1014E00010600A6002F1080010BD09680868002851
:1014F000ECD1486842180020106053600A6002F185
:101500000800F1E78000002030B5039C7E250570BF
:101510007F25057382704170C373447330BD2DE91C
:10152000F05F06460C4691469A46DDF828B00C9FBF
:10153000002584F8039084F804A084F808B067813B
:1015400017B1F81CE08001E00020E08022782846F6
:10155000691C8DB23254E07B50B9A2782846691CD0
:101560008DB2325462782846691C8DB232540CE038
:10157000E07B012809D162782846691C8DB232547B
:10158000A2782846691C8DB23254E2782846691C3C
:101590008DB2325422792846691C8DB23254E088CB
:1015A00002122846691C8DB23254A2792846691C61
:1015B0008DB23254BFB1227A2846691C8DB23254A2
:1015C000608902122846691C8DB23254A27A2846DC
:1015D000691C8DB23254628971190B98FFF7ABF810
:1015E0006089284485B2607B012810D129463046A5
:1015F00000F060FB80464FEA28222846691C8DB225
:1016000032542846691C8DB206F800800BE0607BDE
:10161000022808D1681E81B2304600F06BFB2946D3
:101620006A1C95B27054227B2846691C8DB23254D4
:101630002846BDE8F09F2DE9F05F06468B4614462C
:101640000025AA460120A07329466D1C705C2178F4
:10165000884200D099E0E07B50B92846691C8DB2E1
:10166000305C6178884200D093E0681C85B220E04D
:10167000E07B01281DD12846691C8DB216F8008038
:10168000A078404501D0012000E00020B8F1FF0F14
:1016900001D0012100E00021084200D079E0681C5F
:1016A00085B2B8F1FF0F02D14FF0010901E04FF010
:1016B00000092846691C8DB2305CE0702846691C20
:1016C0008DB2305C20712846691C8DB2305CE080A0
:1016D000E0884FF6FF7101EA0020E080E0882946AB
:1016E0006A1C95B2715C0843E080E08800B328462C
:1016F000691C8DB2305C20722846691C8DB2305C4A
:10170000608160894FF6FF7101EA00206081608985
:1017100029466A1C95B2715C08436081AA466089BB
:10172000284485B2E1886089C01C814200D034E041
:10173000607B022809D12946304600F0DBFA0746D3
:10174000715DB94200D01CE010E0607B01280CD133
:101750002946304600F0AEFA074670190121FFF71E
:101760000EFEB84200D00CE000E000BFB9F1010F5E
:1017700002D10620A07301E00020A0735046BDE80E
:10178000F09F0220A0730020F9E70520A07300203D
:10179000F5E70620A0730020F1E70120A0730020E8
:1017A000EDE7704770B5002100230F22C4780CB319
:1017B000164C246804F4E064C4F5E064210AC1F125
:1017C0000403CA40447804FA03F1847814402143A6
:1017D00009010F4C0678A155047804F01F05012477
:1017E000AC4005786D114FF0E02606EB8505C5F895
:1017F000004109E0047804F01F050124AC40054DC8
:101800000678761145F8264070BD00000CED00E02A
:1018100000E400E080E100E002490143024A116077
:10182000704700000000FA050CED00E0024A0A4093
:101830000243024B1A60704780FFFF1F08ED00E073
:1018400010B5032101A0FEF7EFFF10BD5056445F15
:1018500049525148616E646C657200007047000027
:1018600029B1064AD2690243044BDA6104E0034A13
:10187000D2698243014BDA617047000000100240D8
:1018800029B1064A92690243044B9A6104E0034A73
:1018900092698243014B9A61704700000010024038
:1018A00030B500210022002400232D4D6D6805F085
:1018B0000C0121B1042905D0082923D105E0294DC7
:1018C000056022E0274D05601FE0254D6D6805F499
:1018D0007012234D6D6805F48034022505EB9242A9
:1018E0001CB9214D554305600BE01D4D6D6815F485
:1018F000003F03D01C4D5543056002E0194D554390
:10190000056002E0174D056000BF00BF144D6D6813
:1019100005F0F0010909154D6B5C0568DD40456077
:101920000F4D6D6805F4E061090A104D6B5C456868
:10193000DD4085600A4D6D6805F46051C90A0B4DA4
:101940006B5C4568DD40C560054D6D6805F4404140
:10195000890B074D6B5CC568B5FBF3F5056130BDC0
:101960000010024000127A0000093D000000002033
:101970001000002010B5032101A0FEF755FF10BD97
:101980005243435F49525148616E646C6572000076
:1019900010B5032101A0FEF747FF10BD525443418B
:1019A0006C61726D5F49525148616E646C65720082
:1019B00010B5032101A0FEF737FF10BD5350493188
:1019C0005F49525148616E646C65720010B5032125
:1019D00001A0FEF729FF10BD535049325F49525113
:1019E00048616E646C657200704710B500F002F8D3
:1019F00010BD00000CB50020019000903248006836
:101A000040F480303049086000BF2F48006800F47F
:101A1000003000900198401C0190009818B901987E
:101A2000B0F5A06FF1D12848006810F4003F02D053
:101A30000120009001E0002000900098012842D190
:101A40002248006840F010002049086008460068FD
:101A500020F0030008600846006840F002000860BB
:101A60001948406818494860084640684860084678
:101A7000406840F4806048600846406820F47C106C
:101A800048600846406840F4E8104860084600682E
:101A900040F08070086000BF0B48006810F0007FC5
:101AA000FAD00948406820F003000749486008461A
:101AB000406840F00200486000BF0348406800F002
:101AC0000C000828F9D10CBD001002400020024093
:101AD00030B503460C4600201946224605E011F8B1
:101AE000015B02F8015B451CA8B20D78002DF6D110
:101AF000157030BD2DE9F04106460D462C4637469F
:101B00002846FFF730FC04443046FFF72CFC8046A3
:101B100018F1010001D1BDE8F08103E017F8010BD5
:101B200004F8010B5FEA0800A8F10108F6D104F8F7
:101B3000010B00BFEFE710B500F0C8F910BD0000C1
:101B400010B51348006840F00100114908600846CC
:101B50004068104908400E494860084600680E4930
:101B600008400B4908600846006820F4802008609F
:101B70000846406820F4FE0048604FF41F0088606B
:101B8000FFF733FF4FF000600449086010BD00000C
:101B9000001002400000FFF8FFFFF6FE08ED00E035
:101BA00010B5032101A0FEF73FFE10BD54414D507A
:101BB00045525F49525148616E646C657200000085
:101BC00010B5032101A0FEF72FFE10BD54494D3181
:101BD0005F42524B5F49525148616E646C657200BE
:101BE00010B5032101A0FEF71FFE10BD54494D3171
:101BF0005F43435F49525148616E646C65720000F7
:101C000010B5032101A0FEF70FFE10BD54494D3160
:101C10005F5452475F434F4D5F49525148616E6474
:101C20006C65720010B5032101A0FEF7FDFD10BD2B
:101C300054494D315F55505F49525148616E646C53
:101C40006572000010B5032101A0FEF7EDFD10BD87
:101C500054494D345F49525148616E646C6572005D
:101C60000DE0C82000F0FEF905480078401E044948
:101C700008700846007810B90248FEF737FDF0E713
:101C800088000020005000080146002905DB0929D2
:101C900003DC01F13000C0B270470A2905DB2329BB
:101CA00003DC01F13700C0B2F6E701F13D00C0B23C
:101CB000F2E70000F0B502460C46FF21FF250026A2
:101CC0000BE012F8017B87EA0503084FFF5C87EA07
:101CD0000105074FF95C771CBEB2A642F1DB08464E
:101CE0004FF6FF7707EA00202843F0BDE4350008EF
:101CF000E436000810B50246002002E012F8013B6D
:101D000058400B00A1F10104A1B2F7D110BD0000B1
:101D100010B510480078132804D00F480078401CF4
:101D20000D4908700D480078401C0C4908700846A1
:101D3000007864280DDD002008701423084A064846
:101D400001780848FFF7E1F90749087000200249C7
:101D5000087010BD68000020540000204C000020D6
:101D60004D000020500000206000002010B54FF40E
:101D70007070FFF7A3FB22490860022021494870D8
:101D800000204860002428E0012004EB44011C4AA4
:101D9000126802EB01110881002004EB4401184A8B
:101DA000126802EB01118861002104EB4400144A1F
:101DB000126802EB00100160002004EB4401104A9D
:101DC000126802EB0111C86104EB44010C4A12686D
:101DD00002EB01110884601CC4B2142CD4DB132064
:101DE0000949087000200949086009498873094BAE
:101DF000FF224FF47A71064800F060FB10BD00002E
:101E000070000020600000206800002074000020A6
:101E100094000020A525000870B50446FFF7A6FF32
:101E200004E094E80F0000F0EBF81034206800287C
:101E3000F7D100F00BF870BDFEF7E0FE04E064207F
:101E400000F010F900F084FBF9E7000038B51849FC
:101E5000B1F1807F00D31DE021F07F40401E4FF0A4
:101E6000E022506150170F22002807DA13071D0ED9
:101E7000104B00F00F04241F1D5503E013071C0E28
:101E80000D4B1C5400BF00204FF0E0229061072052
:101E9000106100BF4FF4FA6008A300220A490090C5
:101EA000132000F045F8132000F034FA38BD00008C
:101EB0004019010018ED00E000E400E05461736B8C
:101EC000526F6F7400000000391E000810B5FFF754
:101ED0001FFF00F05DF90D484078402805D103212F
:101EE0000BA0FEF7A1FCFFF7ADFA10488089401C5B
:101EF0000E498881084680890989884205DD0B4999
:101F00000869804700200949888110BD60000020D1
:101F10005461736B2054696D654F75742057696CFB
:101F20006C20544F53205265736574009400002058
:101F30002DE9F04704460D4691461F46DDF8208006
:101F40000DB9BDE8F08704EB44002C49096801EBAA
:101F500000100089012800D0F3E704EB4400274972
:101F6000096801EB0010008C98B91FFA88F0FFF7A0
:101F7000A5FA064604EB4401204A126802EB01115F
:101F8000A1F8208004EB44011C4A126802EB011105
:101F9000CE6104EB4402194B1B6803EB0212118C57
:101FA00004EB4402154B1B6803EB0212D06900F0EE
:101FB00051FA8246022104EB4400104A126802EBF7
:101FC0000010018104EB44000C49096801EB00108A
:101FD000456004EB44000949096801EB0010C76241
:101FE0004A462946504600F05DF904EB4401034A95
:101FF000126802EB0111086000BFA2E77000002028
:102000002DE9F84305460E461746984600241AE087
:1020100004EB44001249096801EB0010008900B983
:1020200012E004EB44000E49096801EB001000893E
:10203000012800D108E0601C80B20446142802DBAD
:102040000020BDE8F883E3E700BFE0B23B4632463C
:102050002946CDF80080FFF76BFF0120F1E7000073
:102060007000002010B504461348407801281FD0A6
:1020700000201249097801EB4101114A126802EB74
:10208000011188610D48007800EB40000C49096897
:1020900001EB0010446110210848007800EB40007B
:1020A000074A126802EB0010018100F083F902E098
:1020B0002046FEF733FB10BD6000002068000020C2
:1020C0007000002001460D48006800EB4110007AC6
:1020D00008B9002070470948006800EB41104079BA
:1020E000074A1278904201D00020F3E70120034A0A
:1020F000126802EB4112107200BFEBE77C00002077
:102100006800002070B504460D4600BF1E480068F8
:1021100000EB4410007A30B1012815D0022804D019
:1021200003282FD11FE0002070BD1748006800EB86
:102130004410407915490978884201D10120F3E71C
:10214000204600F057FAE1E702200F49096801EB49
:10215000441108720D4800780B49096801EB4411DD
:1021600048710120E0E702200749096801EB4411AA
:102170000872064800780449096801EB4411487167
:102180000120D1E70020CFE77C000020680000207C
:10219000002056E000EB40012B4A126802EB0111CF
:1021A0000989022902D0102947D11DE000EB400126
:1021B000254A126802EB01118969491C00EB4002B3
:1021C000214B1B6803EB0212916100EB40011E4A98
:1021D000126802EB0111896944F62062914202D92A
:1021E00040211A4A517029E0002100EB4002164BB1
:1021F0001B6803EB0212916100EB4001124A126866
:1022000002EB0111496941B9022100EB40020E4B7A
:102210001B6803EB021211810EE000EB40010A4A39
:10222000126802EB01114969491E00EB4002064B9E
:102230001B6803EB0212516100E000BF00BF411CAC
:10224000C8B21428A6DB7047700000206000002090
:1022500010B504460F480078A04200D110BD0D48CB
:10226000007800EB40000C49096801EB00100B49B5
:10227000086008480470007800EB400006490968CF
:1022800001EB0010006806490860FEF707FA00BF7E
:10229000E4E7000068000020700000205C000020DF
:1022A0005800002030B503461846041F2046216020
:1022B000041F204623600025041F20462560041FBC
:1022C00020462560041F20462560041F2046256007
:1022D000041F20462560041F20462560041F204659
:1022E0002560041F20462560041F20462560041F2A
:1022F00020462560041F20462560041F20462560D7
:10230000041F204622604FF08075041F2046256080
:1023100030BD000010B5044604EB440004490968D0
:1023200001EB0010006803490860FEF7D0F910BD0A
:10233000700000205800002010B50446142C01DB6A
:10234000002010BD04EB44001949096801EB00109E
:102350000089012801D10020F3E704EB440014496F
:10236000096801EB00100089042801D10020E8E78A
:1023700004EB44000E49096801EB001000890828AD
:1023800001D10020DDE7082004EB4401084A12686F
:1023900002EB01110881002004EB4401044A126899
:1023A00002EB0111486100F005F80120C9E70000C7
:1023B0007000002010B5022123480068A0F898138F
:1023C00000243DE004EB44001F49096801EB0010C4
:1023D0000089022802D020282ED107E01B4800786F
:1023E000A04202D02046FFF733FF10BD04EB4400AB
:1023F0001549096801EB001090F82200144909689A
:1024000001EB4010007A012815D1102004EB4401A3
:102410000D4A126802EB01110881032004EB44010C
:10242000094A126802EB011191F82210084A126859
:1024300002EB4111087200E000BF00BF601CC4B293
:10244000142CBFDB00BFD0E7700000206800002024
:102450007C0000200246501820F00303A3F1300056
:1024600020F007007047000010B5142800DB10BDF5
:1024700000EB4002104B1B6803EB02121289042A86
:1024800000D1F4E7002200EB40030B4C246804EB7E
:1024900003139A61102300EB4002074C246804EBFD
:1024A0000212138100EB4002034B1B6803EB021284
:1024B000516100BFDBE700007000002070B50446EA
:1024C0000D46164601221449887B002816DD0AE0D5
:1024D0004968002A07DD0878904202D02270002265
:1024E00001E0501CC2B248680028F1D1002A00DD8A
:1024F00022700A480078A0734C6005E00C4600206A
:10250000207006480078A073258166810020A08194
:1025100023616060207870BD940000206800002076
:1025200002460A490CE048680078904207D1002032
:102530004B68588148684068486010467047496851
:1025400048680028EFD100BFF8E7000094000020A1
:1025500010B5134C1FE06068807B10F0400F19D05D
:102560006068807B10F0800F12D061680869804736
:102570006068807B20F080006168887360684089B3
:1025800020B961680878FFF7CBFF04E0646802E0D7
:10259000646800E0646860680028DCD110BD000059
:1025A0009400002012481EE04068817B11F0400F2B
:1025B00019D04189002916DD81890289914203DA07
:1025C0008189491C81810EE04189FF2902DA418914
:1025D000491E41814189002901DD00218181817BE2
:1025E00041F08001817341680029DDD1704700000E
:1025F0009400002010B504460B48007800EB400022
:102600000A49096801EB001080F8224020200649A1
:10261000097801EB4101054A126802EB01110881BA
:10262000FFF7C8FE10BD0000680000207000002009
:1026300010B540F225510E4800F09BF9B8B10C4896
:10264000001D0088C4B20B4800880B4909888842E5
:102650000DDA084801880088401C064A10800748A7
:1026600000684454064908780A21FFF7FDFE10BDB2
:1026700000380140480000204400002034000020C1
:102680003200002010B540F22551114800F071F9D8
:10269000C0B10F48001D0088C4B20E4840880E49E2
:1026A0004988884213DA0B4841884088401C094A0F
:1026B00050800A4840684454094948780A21FFF785
:1026C000D3FE04E040F22551014800F044F810BD6B
:1026D0000044004048000020440000203400002056
:1026E0003200002010B540F22551114800F041F9A8
:1026F000C0B10F48001D0088C4B20E4880880E4942
:102700008988884213DA0B4881888088401C094AEE
:1027100090800A4880684454094988780A21FFF764
:10272000A3FE04E040F22551014800F014F810BD6A
:1027300000480040480000204400002034000020F1
:102740003200002001F40072B2F5007F00D100BF1A
:10275000CA430280704710B500220023A1F510641F
:102760006A3C00D100BF0A1201249440A3B2DC43AA
:10277000048010BD21B1828942F40052828104E0BC
:1027800082894DF6FF731A408281704770B5044606
:10279000204600F03DF9054600F05CF824B1012C1C
:1027A00009D0022C15D10DE025224FF4E1310A4861
:1027B00000F018F80DE026224FF4E131074800F050
:1027C00011F806E027224FF4E131054800F00AF83D
:1027D00000BF00BF70BD0000003801400044004051
:1027E0000048004070B586B006460C461546019478
:1027F0000020ADF80800ADF80A00ADF80C00ADF807
:1028000010000C20ADF80E0001A9304600F044F98C
:10281000012240F22551304600F018F901213046DE
:10282000FFF7A8FF40213046FFF78CFF4FF4806090
:10283000FEF7F2FF8DF8145002208DF815000120EC
:102840008DF816008DF8170005A8FEF7ABFF06B04F
:1028500070BD000038B50446274884420BD10D20D6
:102860002315264A51150090104600F057F8012113
:102870008803FFF705F8224884420BD1042008237F
:102880001E4A01460090104600F048F80121480415
:10289000FEF7E6FF1B4884420FD10920E3141A4AD1
:1028A00011150090104600F039F801218804FEF758
:1028B000D7FF01218804FEF7E3FF144884420BD1BF
:1028C0001120E314124A11150090104600F026F86A
:1028D0000121C804FEF7C4FF0E4884420BD1312009
:1028E00004230D4A91140090094800F017F80121C3
:1028F0000805FEF7B5FF38BD00380140000801406B
:102900000044004000480040000C0140004C0040E2
:102910000010014000500040001401402DE9F84330
:1029200007460D4616461C46DDF82080012140462C
:10293000FEF7A6FFADF8005003208DF80200182026
:102940008DF8030069463846FEF7FCFBADF8004001
:1029500004208DF8030069463046FEF7F3FB294654
:102960003846FEF778FC21463046FEF774FCBDE899
:10297000F88370B502460024002300250020A1F54D
:1029800010666A3E00D100BFC1F3421501F01F037B
:10299000012606FA03F3012D02D19689334006E0A1
:1029A000022D02D1168A334001E0968A33400C1280
:1029B000012606FA04F41688344013B10CB1012044
:1029C00000E0002070BD000001460F4A881A9142C5
:1029D00013D006DC0D4808180BD0B0F5806F10D16D
:1029E00009E0B0F5806F0AD0B0F56C4F09D1002036
:1029F00070470120FCE70220FAE70320F8E70420F3
:102A0000F6E70020F4E70000004C004000BCFFBFE8
:102A1000014605290ED2DFE801F0030507090B0086
:102A2000054870470548FCE70548FAE70548F8E718
:102A30000548F6E70020F4E7003801400044004074
:102A400000480040004C004000500040F0B50346F4
:102A50000024002600250020A1F510676A3F00D160
:102A600000BF1846C1F3421401F01F06012707FA00
:102A700006F5012C01D10C3004E0022C01D11030FC
:102A800000E014301AB107682F43076002E00768BE
:102A9000AF430760F0BD00002DE9F04785B0054663
:102AA0000E460024A24600BFA1460027B08900B10F
:102AB00000BF2F462C8A4CF6FF700440F088044378
:102AC0002C82AC8928480440B08831890843718938
:102AD00008430443AC81AC8A4FF6FF400440B08900
:102AE0000443AC826846FEF7DBFE2048874202D1F1
:102AF000DDF80CA001E0DDF808A0A88910F4004F73
:102B000008D00AEBCA0000EB0A1031684900B0FB9C
:102B1000F1F807E00AEBCA0000EB0A1031688900FF
:102B2000B0FBF1F86420B8FBF0F004012009642147
:102B300001FB1089A88910F4004F08D0322000EB67
:102B4000C900B0FBF1F000F00700044308E03220B8
:102B500000EB09106421B0FBF1F000F00F0004431A
:102B60002C8105B0BDE8F087FFFEF0FF0038014082
:102B70002DE9F04705460E4614462F46B046A146BD
:102B80003846FFF721FF824600234FF49662414604
:102B9000384600F005F8A9F80000BDE8F08700000D
:102BA0002DE9F04780460F4615461E464046FFF782
:102BB0000BFF04462049085D0021FFF7A3FA814678
:102BC000B9F1000F28D0012240F225514046FFF70D
:102BD0003DFF1A4800781A490855B5F5966F01DB94
:102BE0004FF49665174820F814500020164921F834
:102BF00014001EB13046FFF735FA03E01049085DB6
:102C0000FFF79AFB0C49085DFFF75CFA002240F2DF
:102C100025514046FFF71AFF47B10B4931F8142000
:102C20000A4951F824003946FDF785FD064830F879
:102C30001400BDE8F08700002E000020680000208E
:102C40003200002044000020480000203400002012
:102C50002DE9F04304460D4616462746A846B6F829
:102C600000904A464146384600F002F8BDE8F0833D
:102C700010B50B46002108E000BF048814F0800F57
:102C8000FBD05C5C84804C1CA1B29142F4DB10BD93
:102C900000B54FF48020FEF759F900BD01460A4601
:102CA0001068704700BFFEE710B5032101A0FDF7D3
:102CB000BBFD10BD575744475F49525148616E6490
:102CC0006C65720037B514460846064B6A462146C5
:102CD00000F0C8F804466946002000F066FC204673
:102CE0003EBD0000AB35000802E008C8121F08C155
:102CF000002AFAD170477047002001E001C1121F7D
:102D0000002AFBD1704700002DE9FF5FDDE90220BA
:102D1000010DDDF838B0024310D10F9801244CA208
:102D2000012808D0002100980F9BC0E90021C0E9CC
:102D30000243BDE8FF9F6FEA0B01F4E7A1F2FF3108
:102D400044F6105041430D140F9801280ED0A5EB06
:102D50000B00401C4FF000043E4EDFF8FC90B0F139
:102D6000000AA04605DACAF1000717E0CBF100001F
:102D7000F0E7074612E0F80707D022463346404600
:102D80004946FDF776FA8046894622463346104684
:102D90001946FDF76EFA04460E467F10002FEAD161
:102DA000DDE90201BAF1000F42464B4602DAFDF7B7
:102DB00060FA01E0FDF7CFFA04460E460022274BE9
:102DC000FDF746FC03D84FF0FF30014607E0002234
:102DD000234B20463146FDF7A5F9FDF721FC1024D1
:102DE00009E0002C0ADB0A220023FDF758FB019BB7
:102DF00030321A55641E50EA0102F2D1641C019A65
:102E0000C4F1110314440F9A012A09D00122084386
:102E100001D15B450FDD4FF0000205F101050DE02A
:102E2000084303D1A3EB0B056D1E09E000204FF012
:102E3000110B0F9088E701DA00226D1E002A83D063
:102E400000980F99C0E90231C0E9004571E7000020
:102E500030000000000024400000F03F0000F0437C
:102E60000000E03F2DE9FF4F95B09B46894606469E
:102E7000002512E2252878D10024761CF94A27463D
:102E8000012105943378203B01FA03F0104202D06F
:102E90000443761CF6E730782A2811D06FF02F0310
:102EA0003078A0F13002092A16D8059A44F00204BD
:102EB00002EB820203EB42021044761C0590EFE71E
:102EC00059F8042B0592002A03DA504244F40054C6
:102ED000059044F00204761C30782E2816D116F89E
:102EE000010F44F004042A280DD06FF02F0230782F
:102EF000A0F13003092B09D807EB870302EB43034A
:102F0000C718761CF3E759F8047B761C30786C28D8
:102F10000FD006DC4C2817D068280DD06A2814D1B1
:102F200004E0742810D07A280FD10DE044F4001486
:102F30000AE044F4801401E044F4401472788242C0
:102F400002D1761C04F58014761C307866280BD0EC
:102F500013DC582877D009DC002875D04528F6D036
:102F60004628F4D047281AD19FE118E0632835D0CD
:102F7000642879D0652812D197E1702873D008DCD5
:102F80006728F1D069286FD06E280DD06F2806D140
:102F9000B5E073282CD0752875D0782874D05A469F
:102FA000179990476D1C76E1C4F30250022809D0AE
:102FB00003280DD0D9F8001004280DD00D6009F1B8
:102FC000040968E1D9F80010EA17C1E90052F6E7F0
:102FD000D9F800100D80F2E70D70F0E719F8041B26
:102FE0008DF8001000208DF80100EA46012003E072
:102FF00059F804AB4FF0FF3061074FF0000102D4E5
:103000000DE008F101018846B9420FDA8045F8DB8E
:103010001AF808100029F4D108E008F101018846E7
:103020008142FADB1AF808100029F6D105985B46B0
:10303000A0EB080721463846179A00F09EFA28446C
:1030400000EB080507E04DE02BE10DE01AF8010B5D
:103050005A4617999047B8F10108F7D25B462146C6
:103060003846179A14E142E00A220092C4F3025251
:103070004FF0000A022A08D059F804CB032A4FEA7D
:10308000EC710AD00DE029E02AE009F1070121F0F6
:103090000702F2E802C1914609E00FFA8CFC4FEA00
:1030A000EC71042A03D14FFA8CFC4FEAEC71002931
:1030B00007DA0A460021DCF1000C61EB02012D2247
:1030C00002E0220504D52B228DF80420012203E022
:1030D000E20701D02022F7E7904653E00A2102E000
:1030E00010220DE010214FF0000A00910BE0102299
:1030F0004FF0000A44F004040827009203E008227D
:103100004FF0000A0092C4F30252022A05D059F887
:1031100004CB0021032A08D009E009F1070121F0BE
:103120000702F2E802C1914605E01FFA8CFC042A6E
:1031300001D10CF0FF0C4FF00008220722D57028B7
:1031400027D0009B83F0100353EA0A0309D15CEAFD
:10315000010206D030228DF804208DF805000222ED
:103160009046009B83F0080353EA0A030AD15CEA05
:10317000010201D1620705D530228DF804204FF0FD
:1031800001087F1E582809D037A003900EA802908E
:1031900013E040228DF804200122E1E737A0F4E794
:1031A00053466046009AFDF77AF984460398825C9C
:1031B0000298A0F10100029002705CEA0100EFD1D8
:1031C000029806A9A1EB000000F1200A600702D5D1
:1031D00024F4803400E00127574502DDA7EB0A0004
:1031E00000E0002000EB0A01009005984144A0EBAC
:1031F00001000590E00306D45B462146179A059826
:1032000000F0BBF90544002706E001A85A46C05D5E
:10321000179990476D1C7F1C4745F6DBE0030CD5E2
:103220005B462146179A059800F0A7F9054404E08B
:1032300030205A46179990476D1C0099481E0090FF
:103240000029F5DC08E0029802995A460078491CEA
:103250000291179990476D1CBAF10001AAF1010A79
:10326000F1DC6BE109280100303132333435363777
:1032700038396162636465660000000030313233C2
:103280003435363738394142434445460000000062
:1032900000F060F9054406F10106307800287FF45B
:1032A000E9AD19B02846BDE8F08F620700D40627C3
:1032B00009F1070222F0070CFCE80223E14603F0C3
:1032C00000485FEA080C02D00FF27C2C0DE05FEAA8
:1032D000045C02D50FF2742C07E05FEAC47C02D0D4
:1032E0000FF26C2C01E0AFF2700C4FF0FF3823F0BE
:1032F0000043CDF850C065280CD006DC452809D025
:1033000046281DD047283ED13EE0662818D06728C1
:1033100039D139E00021112F01DB112000E0781CA8
:10332000CDE9000106A90EA8FFF7EEFCDDE90F01CB
:103330000E9A03910021009207F1010A04914EE0D8
:103340004FF000400097CDE9011006A90EA8FFF745
:10335000DBFCDDE90F0203920E9B11990022DDF8E0
:103360000CA00093049219B907F1010100EB010AC6
:10337000B7EB0A0004D4C0F1FF3007F1010A049052
:10338000AAEB0700019046E0012F00DA0127002197
:10339000112F01DD112000E03846CDE9000106A91A
:1033A0000EA8FFF7B1FCDDE90F010E9A0391002191
:1033B00004910092BA4621070CD40399514500DAD2
:1033C0008A46BAF1010F05DD009AAAF10101515CAC
:1033D000302908D0B84202DA10F1040F06DA0121D0
:1033E000CDE9011017E0AAF10101E9E7002805DCA9
:1033F000049901440491AAEB000102E0411C5145EB
:1034000000DD8A460499A0EB010000F10100019063
:103410004FF000400290200704D40198504501DB92
:10342000CDF8048000208DF84F0002980DF14F0771
:10343000B0F1004F25D02B200E9002984FF00208DB
:1034400000280CDA404202902D200E9007E00A215D
:103450000298FDF70EF83031029007F8011DB8F11F
:103460000001A8F10108F2DC02980028EFD1791ED2
:103470000E980870307800F0200040F0450007F802
:10348000020D12A8A0EB070000F1070814980078BD
:1034900000B1012000EB0A01019801EBE0710598F1
:1034A0004144A0EB0100A0F101000590E00306D427
:1034B0005B462146179A059800F05FF8054414987A
:1034C000007820B15A461799904705F10105E003AD
:1034D00023D55B462146179A059800F04EF805441F
:1034E0001BE00498002807DBDDE90301884203DDC7
:1034F0000098405C179901E0179930205A46904790
:1035000004986D1C401C04900198401E019004D149
:103510002E205A46179990476D1CBAF10001AAF166
:10352000010ADEDC05E017F8010B5A4617999047AF
:103530006D1CB8F10001A8F10108F4DC5B462146DE
:10354000179A0598A4E600002D0000002B0000004B
:10355000200000002DE9F041044600251E461746D4
:10356000880405D406E039462020B04705F101055E
:10357000641EF8D52846BDE8F0812DE9F0410446E7
:1035800000251E469046C80301D5302700E02027BD
:10359000880405D506E041463846B04705F10105E7
:1035A000641EF8D52846BDE8F0810A68531C0B60FC
:1035B000107070470748FDF773FFFDF7FDF90648E7
:1035C000FDF73AFA0548FDF737FA0548FEF724FCFF
:1035D00000BFFEE7A8000020003801400044004082
:1035E000E437000800C1814001C0804101C0804132
:1035F00000C1814001C0804100C1814000C18140C3
:1036000001C0804101C0804100C1814000C18140B2
:1036100001C0804100C1814001C0804101C08041A2
:1036200000C1814001C0804100C1814000C1814092
:1036300001C0804100C1814001C0804101C0804182
:1036400000C1814000C1814001C0804101C0804172
:1036500000C1814001C0804100C1814000C1814062
:1036600001C0804101C0804100C1814000C1814052
:1036700001C0804100C1814001C0804101C0804142
:1036800000C1814000C1814001C0804101C0804132
:1036900000C1814001C0804100C1814000C1814022
:1036A00001C0804100C1814001C0804101C0804112
:1036B00000C1814001C0804100C1814000C1814002
:1036C00001C0804101C0804100C1814000C18140F2
:1036D00001C0804100C1814001C0804101C08041E2
:1036E00000C1814000C0C101C30302C2C60607C7B2
:1036F00005C5C404CC0C0DCD0FCFCE0E0ACACB0B22
:10370000C90908C8D81819D91BDBDA1A1EDEDF1F51
:10371000DD1D1CDC14D4D515D71716D6D21213D341
:1037200011D1D010F03031F133F3F23236F6F737F1
:10373000F53534F43CFCFD3DFF3F3EFEFA3A3BFBE1
:1037400039F9F83828E8E929EB2B2AEAEE2E2FEF91
:103750002DEDEC2CE42425E527E7E62622E2E32301
:10376000E12120E0A06061A163A3A26266A6A76731
:10377000A56564A46CACAD6DAF6F6EAEAA6A6BABA1
:1037800069A9A86878B8B979BB7B7ABABE7E7FBFD1
:103790007DBDBC7CB47475B577B7B67672B2B373C1
:1037A000B17170B050909151935352929656579771
:1037B000559594549C5C5D9D5F9F9E5E5A9A9B5B61
:1037C00099595898884849894B8B8A4A4E8E8F4F11
:1037D0008D4D4C8C44848545874746868242438381
:1037E00041818040BD0C00080038014024380008A9
:1037F00010270000BD0C00080044004024380008D9
:1038000010270000611C0008000000002438000898
:10381000D0070000000000000000000000000000D1
:10382000000000005461736B300000004C38000849
:103830000000002094000000E82C0008E038000898
:103840009400002034520000F82C00080000000012
:103850000102030401020304060708090204060822
:1038600000A24A040000000000000000010203045E
:1038700006070809FF00000000000000000000002B
:103880000000000000000000000000000000000038
:103890000000000000000000000000000000000028
:1038A0000000000000000000000000000000000018
:1038B0000000000000000000000000000000000008
:1038C00000000000000000000000000000000000F8
:1038D000FF00FF00010000000000000000000000E9
:04000005080000ED02
:00000001FF
