:020000040800F2
:10000000A08C002045010008E1270008AB2600086D
:10001000DD270008390B0008E94A0008000000004D
:10002000000000000000000000000000C1300008D7
:10003000851C000800000000DD2A000815350008B6
:10004000314B0008C12A00087D3500085F01000817
:1000500039210008BD2D00085F0100085F0100087C
:100060002D2000084D2000086D2000085F010008C9
:10007000F51700081D180008451800085F01000862
:100080005F010008851800085F0100085F01000893
:10009000A14A00089D0B0008BD0B00088D20000838
:1000A0009D35000801360008DD350008BD35000823
:1000B0005F0100085F01000821360008D126000812
:1000C000B126000811270008F12600086D3000084D
:1000D00089300008814700086D4800085F0100086A
:1000E00009200008812E0008954A0008753600088E
:1000F000D9360008B536000895360008A108000872
:10010000212200085F0100083D360008A5300008E4
:1001100055450008A94500085F0100085936000848
:10012000AD180008D5180008FD1800085F01000888
:10013000DFF80CD000F07AFB00480047E5540008D7
:10014000A08C00200648804706480047FEE7FEE7EF
:10015000FEE7FEE7FEE7FEE7FEE7FEE7FEE7FEE777
:100160001D35000831010008F0B480EA0102D40F07
:100170004200B2EB410F02D20246084611464A0045
:1001800042D0C30DDDB2C1F3C752AD1A202D35DA0E
:10019000C1F3160141F4000204B15242C5F1200638
:1001A00002FA06F12A411044B3EBD05F23D0C4B168
:1001B000012DA0EBC35009DCF0BC4FF0004202EA75
:1001C000C35200F50000DBB200F077BA400000F146
:1001D000807000EBC350A0F1807040EAD1704900FC
:1001E00009E0490841EAC071A0EBC35000F50000E6
:1001F000400800EBC350F0BC00F056BA6142012247
:1002000002EB4101001BF6E7F0BC704781F00041B2
:10021000AAE780F00040A7E72DE9FE4F804681EA7B
:100220000300C00F0C46009021F0004123F0004570
:10023000B8EB0200A94105D24046214690461C4633
:100240000B46024623F00040104304D140462146AD
:1002500003B0BDE8F08F270DC7F30A00C3F30A51BE
:100260000290401A0190402866DAC3F3130040F46C
:10027000801B0098924620B10023D2EB030A63EB67
:100280000B0B01985946C0F14002504600F0DBF9D3
:1002900006460D4650465946019A00F0F3F910EB18
:1002A00008006141002487EA115284EAE7731A4387
:1002B0003BD0009A3AB3019A012A4FEA075210DC68
:1002C000001B61EB02014FF0004202EA0752CDE948
:1002D0000042001C41F5801132462B4600F027FAFF
:1002E000B6E7001B61EB0201001C41F5801300180A
:1002F0005B412018A2F5001747EB030140EAD570D7
:10030000B6196D4111E06D084FEA360645EAC07531
:100310004FEA0752001B61EB0201001C41F58011FE
:1003200049084FEA30000019514132462B4603B0CC
:10033000BDE8F04F00F0EEB9009801224000002324
:10034000D0EB020263EBE073009821464FEAE074C1
:10035000B8EB000061EB0401E9E783F000435BE7E1
:1003600081F0004158E72DE9FE4F81EA030404F0D3
:10037000004421F0004100944FF0000B23F00043B3
:1003800050EA010402D052EA030404D100200146DD
:1003900003B0BDE8F08FC3F30A54C1F30A552C44EF
:1003A000A4F2F3340194A0FB0254C1F3130141F40D
:1003B0008011C3F3130343F4801301FB024400FBD9
:1003C000034E840A970A44EA815447EA8357A4FB00
:1003D000076802958D0A05FB07854FEA932C04FBFD
:1003E0000C542705029D4FEA065847EA1637B5EB2D
:1003F00008056EEB070C870E920E47EA811742EA5A
:100400008312A7FB0201B6EB0B0164EB00042B0D7A
:1004100043EA0C335E1844EB1C50DA465146E7FBC6
:100420000201C5F313044FEA0B3343EA14534FEAB6
:100430000432019C43EA0603A4F10C040294009CDC
:10044000CDE900B400F073F9A2E72DE9F04D81EA9F
:10045000030404F0004B21F0004514464FF0000A5D
:1004600023F0004150EA050220D054EA01021DD0D9
:10047000C5F30A570246C5F31303C1F31300C1F3D2
:100480000A5640F4801543F48013A7EB0608101BAE
:10049000D64608F2FD3873EB050002D308F10108D7
:1004A00001E092185B41B8F1000F03DA0020014629
:1004B000BDE8F08D00204FF48011064684460EE022
:1004C000171B73EB050705D3121B63EB05030643EC
:1004D0004CEA010C49084FEA300092185B4150EA9F
:1004E0000107EDD152EA030012D082EA040083EA48
:1004F0000501084303D100224FF0004308E0101B20
:10050000AB4102D20122002302E06FF0010253103E
:100510001AEB06004CEB085110EB0A0041EB0B0103
:10052000BDE8F04D00F0F6B896230022114600F029
:10053000C4B800F0004230F000400AD0C10D01F50F
:100540006071C0F3160042EA0151C208400711432E
:10055000704700200146704701F0004330B421F09D
:10056000004150EA010206D00A0DA2F56072C1F303
:100570001301002A02DC30BC00207047440F44EA1B
:10058000C104C100E01830BC00EBC25000F08CB8D0
:10059000002801DBC0F10040002901DBC1F100416E
:1005A00081427047002801DBC0F10040002901DBD7
:1005B000C1F100418842704730B50B46014600202A
:1005C0002022012409E021FA02F59D4205D303FA15
:1005D00002F5491B04FA02F52844151EA2F1010296
:1005E000F1DC30BD2DE9F05F0546002092469B46C8
:1005F00088460646814640241BE028464146474639
:10060000224600F02FF853465A46C01A914110D3A3
:1006100011461846224600F016F82D1A67EB01081D
:100620004F4622460120002100F00DF817EB00098B
:100630004E41201EA4F10104DFDC484631462A4623
:100640004346BDE8F09F202A04DB203A00FA02F17D
:10065000002070479140C2F1200320FA03F31943B0
:1006600090407047202A04DB203A21FA02F0002152
:10067000704721FA02F3D040C2F1200291400843B2
:1006800019467047202A06DBCB17203A41FA02F0C0
:1006900043EAE07306E041FA02F3D040C2F12002DF
:1006A00091400843194670470029A8BF7047401C75
:1006B000490008BF20F00100704710B4B0FA80FC78
:1006C00000FA0CF050EA010404BF10BC704749B1B5
:1006D000CCF1200421FA04F411FA0CF118BF012125
:1006E00021430843A3EB0C01CB1D0106000A002B9C
:1006F000BEBF002010BC704700EBC350104400295F
:10070000A4BF10BC7047401C490008BF20F0010086
:1007100010BC704710B5002B08DA401C41F10001F5
:1007200092185B411A4301D120F0010010BD2DE960
:10073000F04D92469B4611B1B1FA81F202E0B0FA57
:1007400080F220329046FFF77EFF04460F4640EAD3
:100750000A0041EA0B0153465A46084303D120469A
:100760003946BDE8F08D114653EA010015D0C8F1B5
:1007700040025046FFF776FF05460E465046594662
:100780004246FFF760FF084301D0012000E000204F
:10079000054346EAE0762C4337430A984FEA445330
:1007A000A0EB08004FEAD4240A304FF0000244EADC
:1007B00047544FEAD72502D500200146D1E701056D
:1007C00010196941DDE9084500196941BDE8F04D9E
:1007D000A0E7C1F30A52C1F3130140F2FF3341F421
:1007E00080119A4202DA00200146704740F23343FA
:1007F0009A42A2F2334202DC5242FFF733BFFFF7C4
:1008000022BF000030B5002904DB4FF00044404215
:1008100064EB0101002B04DB4FF00044524264EB17
:100820000303994208BF904230BD0000064C074DBB
:1008300006E0E06840F0010394E8070098471034B0
:10084000AC42F6D3FFF778FCA0570008C057000869
:1008500082B02DE9FF1FEFF3038001B4684600F179
:10086000400000E901400C480168C1F800D00B4885
:10087000D0F800D001BC80F30388BDE8FF1F01B0B1
:1008800000BD0648D0F800D001BC80F30388BDE865
:10089000FF1F01B000BD0000440000204000002008
:1008A00010B5032101A001F025F910BD41444333E7
:1008B0005F49525148616E646C6572003CE064208F
:1008C00003F080FA02F0F4FAC0431C49486108467C
:1008D00040691B490968884206D018484069184990
:1008E000086000201749087100241FE01548005DCA
:1008F0000C2807DC1348005D20B11248005D401E43
:10090000104908550F48005D38B90C4800690121AD
:10091000A14088430949086106E0084800690121AF
:10092000A140084305490861601CC4B20E2CDDDB00
:100930000249086900F040FFC1E700004C88002030
:1009400064000020908800207CB505461A2D13D243
:10095000DFE805F0CC0D13B0B7BEC520379CA1CCA5
:10096000A6ABCC4246CC5A64506E7ACC85910C2012
:100970006049087000204870B8E00C205D4948705C
:100980000020087008715C48006820F480505A49C3
:100990000860ABE05848008810F4005F02D0FF20E8
:1009A0005449C8725448008810F4804F02D0FF2088
:1009B000504908735048006840F001004E490860F3
:1009C00094E000204B49C87208734B48006820F03F
:1009D00001004949086089E00C204649887285E099
:1009E000002404E0002043490855601CC4B20E2CCA
:1009F000F8DB7BE0062404E000203E490855601C3B
:100A0000C4B20A2CF8DB71E00C203A4908713A486C
:100A1000006840F480503849086067E0002035499C
:100A200008713548006820F48050334908605DE063
:100A30003148007810F0010F00D07CBD0C202D490A
:100A400008718871087251E02B48007810F0010F8E
:100A500000D0F2E70C2027490871887146E026484B
:100A6000007810F0010F00D0E7E70C202149087151
:100A7000C87108723AE02048007810F0010F00D0E9
:100A8000DBE70C201B490871C8712FE001F020FF43
:100A900002F056FC2AE001F01BFF02F051FC25E0B9
:100AA00001F0E4FE02F04CFC20E001F0DFFE02F079
:100AB00047FC1BE08DF800509121684600F072FB66
:100AC00014E08DF800509121684600F06BFB0DE0BA
:100AD0008DF800509121684600F064FB06E08DF827
:100AE00000509121684600F05DFB00BF00BF00BFD1
:100AF000A3E70000908800204C88002006E04FF417
:100B00007A7100BF0A00A1F10101FBD10200A0F13E
:100B10000100F4D17047F0B5034600201C460D4695
:100B2000104603E014F8016B05F8016B1600A2F102
:100B30000107BAB2F6D1F0BD00BFFEE708B501214A
:100B4000842001F0FDFF48208DF803004FF4006081
:100B5000ADF800006946084801F050FC18208DF8F7
:100B6000030001208DF802000003ADF80000694683
:100B7000014801F043FC08BD0008014008B51420FD
:100B80008DF8000000208DF801008DF80200012092
:100B90008DF80300684601F025FE08BD10B503215D
:100BA00001A000F0A7FF10BD43414E315F52583104
:100BB0005F49525148616E646C65720010B5032143
:100BC00001A000F097FF10BD43414E315F534345F4
:100BD0005F49525148616E646C657200B1F5007FE7
:100BE0003AD00FDC202928D006DC01291CD00429AA
:100BF0001DD0082940D11DE0402921D0B1F5807FCA
:100C00003AD126E0B1F5004F31D006DCB1F5806F66
:100C100025D0B1F5006F2FD124E0B1F5803F12D07F
:100C2000B1F5003F28D111E0154A826025E0082285
:100C3000C26022E01022C2601FE0082202611CE0B4
:100C40001022026119E00822426016E01022426080
:100C500013E00422426010E0042242600DE004220E
:100C600042600AE0002282610422426005E0002224
:100C700082610422426000E000BF00BF70470000B4
:100C80000101010010B504460B48844209D101213D
:100C9000480601F045FF00214FF0007001F040FFD1
:100CA00008E00121880601F03BFF00214FF0806041
:100CB00001F036FF10BD00000064004010B50021B7
:100CC000837A012202FA03F13D4A126842F00102DE
:100CD0003B4B1A603A4A1C3212688A43384B1C3329
:100CE0001A60027BCAB9364A0C3212688A43344B06
:100CF0000C331A604288C38842EA0343304A4032C8
:100D0000847A42F834300288838842EA03432C4ACA
:100D10004032847A02EBC4025360027B012A19D16B
:100D2000274A0C3212680A43254B0C331A6042885A
:100D3000038842EA0343224A4032847A42F834303C
:100D4000C288838842EA03431D4A4032847A02EB18
:100D5000C4025360C27A3AB9194A121D12688A4312
:100D6000174B1B1D1A6006E0154A121D12680A4334
:100D7000134B1B1D1A60028932B9114A14321268D2
:100D80008A430F4B14331A600289012A06D10C4A98
:100D9000143212680A430A4B14331A60427B012A48
:100DA00006D1074A1C3212680A43054B1C331A60ED
:100DB000034A126822F00102014B1A6010BD0000C4
:100DC0000066004070B504460D4600266069284262
:100DD00071D0B5F5807F5CD010DC082D35D006DCF5
:100DE000012D20D0022D24D0042D72D127E0102D0A
:100DF00031D0202D35D0402D6BD138E0B5F5004FE6
:100E000060D009DCB5F5007F49D0B5F5806F4CD0D6
:100E1000B5F5006F5DD14FE0B5F5803F2DD0B5F54C
:100E2000003F56D12FE0A0682D4900F0D1FC0646C6
:100E300051E0E068032100F0CBFC06464BE0E0689F
:100E4000082100F0C5FC064645E0E068102100F0EE
:100E5000BFFC06463FE02069032100F0B9FC0646CE
:100E600039E02069082100F0B3FC064633E0206930
:100E7000102100F0ADFC06462DE06068082100F06E
:100E8000A7FC064627E06068102100F0A1FC06469A
:100E900021E0A069012100F09BFC06461BE0A0694F
:100EA000022100F095FC064615E0A069042100F03F
:100EB0008FFC06460FE00FE0A069702100F088FC6F
:100EC000064608E06068042100F082FC064602E065
:100ED000FFE7002600BF00E00026304670BD00009E
:100EE000010101001AB143690B43436102E0436908
:100EF0008B434361704730B50246002000231468DD
:100F000024F002041460146844F00104146000E04A
:100F10005B1C546814F0010F03D1A3F57F44FF3C20
:100F2000F6D1546814F0010F01D100206CE08C79E7
:100F3000012C04D1146844F08004146003E01468A8
:100F400024F080041460CC79012C04D1146844F09E
:100F50004004146003E0146824F0400414600C7A28
:100F6000012C04D1146844F02004146003E01468D8
:100F700024F0200414604C7A012C04D1146844F04D
:100F80001004146003E0146824F0100414608C7AD8
:100F9000012C04D1146844F00804146003E01468C0
:100FA00024F008041460CC7A012C04D1146844F0B5
:100FB0000404146003E0146824F0040414608C78C2
:100FC000A407CD7844EA05640D7944EA05444D79D7
:100FD00044EA05540D886D1E2C43D461146824F036
:100FE00001041460002300E05B1C546814F0010F3E
:100FF00003D0A3F57F44FF3CF6D1546814F0010FF1
:1010000001D0002000E0012030BD10B500F5D873FC
:1010100003EB01131B6803F004031372137A53B933
:1010200000F5D87303EB01131B6840F2FF7404EA68
:101030005353136009E000F5D87303EB01131B68E9
:101040006FF0604404EAD303536000F5D87303EBF8
:1010500001131B6803F00203537200F5D87303EB0E
:1010600001135B6803F00F03937200F5D87303EB71
:1010700001135B681B0AD37400F5D87303EB0113EB
:101080009B68D37200F5D87303EB01139B681C0AAD
:10109000147300F5D87303EB01139B681C0C547395
:1010A00000F5D87303EB01139B681B0E937300F5D7
:1010B000D87303EB0113DB68D37300F5D87303EB2C
:1010C0000113DB681C0A147400F5D87303EB0113D9
:1010D000DB681C0C547400F5D87303EB0113DB6858
:1010E0001B0E937421B9C36843F02003C36003E06F
:1010F000036943F02003036110BD1FB500208DF884
:101100000A008DF80B0001208DF80C000020ADF8CE
:101110000000ADF80400ADF80200ADF80600ADF82F
:10112000080001208DF80D006846FFF7C7FD1FBDC0
:101130000EB5FFF723FDFFF701FD0121480601F081
:10114000DFFC1748FFF79EFD684600F077F80020A7
:101150008DF806008DF807008DF8080001208DF845
:10116000090000208DF80A008DF80B008DF80200B0
:101170008DF8030007208DF8040006208DF8050087
:101180000920ADF8000069460548FFF7B4FE0122CA
:1011900002210348FFF7A6FEFFF7AFFF0EBD0000D8
:1011A00000640040F0B585B006460D4600270024D7
:1011B00000208DF8080000958DF8090008220DF137
:1011C0000B013046FFF7A7FC08208DF80A0069469E
:1011D0000F4800F043F8074604E0601C84B2012089
:1011E00002F0F0FDF9B20A4800F0CCF8012801D075
:1011F000FF2CF2D1FF2C04D1032106A000F07AFCD1
:1012000003E0032108A000F075FC05B0F0BD00006C
:101210000064004043616E2053656E642054696D24
:10122000654F75743100000043616E2053656E6434
:10123000205375636365656431000000002181718E
:10124000C171017241728172C1728170C1700321DA
:1012500001710221417101210180704710B50246E0
:101260000020936803F08063B3F1806F00D110E039
:10127000936803F00063B3F1006F01D1012008E02F
:10128000936803F08053B3F1805F01D1022000E046
:101290000420042874D002F5C07303EB00131B680C
:1012A00003F0010402F5C07303EB00131C600B7A1A
:1012B0007BB94B7A0C8843EA445302F5C07404EBC3
:1012C00000142468234302F5C07404EB0014236067
:1012D00010E00B7A4C6843EAC4034C7A234302F5CE
:1012E000C07404EB00142468234302F5C07404EBBB
:1012F000001423608B7A03F00F038B7202F5C07326
:1013000003EB00135B6823F00F0402F5C07303EBDB
:1013100000135C6002F5C07303EB00135B688C7A0A
:10132000234302F5C07404EB001463608B7B1C063E
:101330004B7B44EA03440B7B44EA0323CC7A2343EC
:1013400002F5C07404EB0014A3608B7C1C064B7C7C
:1013500044EA03440B7C44EA0323CC7B234302F599
:10136000C07404EB0014E36002F5C07303EB0013D8
:101370001B6843F0010402F5C07303EB00131C600B
:1013800010BD000010B50246002321B1012907D08D
:1013900002290FD109E090681D4C00EA04030BE01C
:1013A00090681C4C00EA040306E090681A4C00EABE
:1013B000040301E0002300BF00BF184C181BA34228
:1013C00016D007DC83B16FF0806018180ED00228A9
:1013D00018D111E0B0F5007F10D0114C001909D0E0
:1013E000B0F5003F0ED10BE002230DE000230BE02F
:1013F000002309E0002307E0012305E0012303E0C7
:10140000012301E0002300BF00BFD8B210BD0000DF
:10141000030000040003000800000310000100089E
:101420000001FFF710B50446054800690121A140FD
:10143000884303490861086900F014F810BD0000F2
:101440004C88002010B50446054800690121A140E0
:10145000084303490861086900F004F810BD000062
:101460004C88002070B50446002529466D1C0120DB
:101470008840204204D04021CB4801F093F803E09B
:101480004021C94801F08CF82846691CCDB20121E1
:1014900001FA00F0204204D08021C34801F082F814
:1014A00003E08021C04801F07BF82846691CCDB2DA
:1014B000012101FA00F0204204D00902BA4801F0EB
:1014C00071F804E04FF48071B74801F069F82846DC
:1014D000691CCDB2012101FA00F0204204D049027A
:1014E000B14801F05FF804E04FF40071AE4801F03C
:1014F00057F82846691CCDB2012101FA00F02042BC
:1015000004D00902A94801F04DF804E04FF48071BD
:10151000A64801F045F82846691CCDB2012101FA20
:1015200000F0204204D0C903A04801F03BF804E0D9
:101530004FF400419D4801F033F82846691CCDB2B4
:10154000012101FA00F0204204D08902964801F0FE
:1015500029F804E04FF48061934801F021F828460F
:10156000691CCDB2012101FA00F0204204D0C90269
:101570008D4801F017F804E04FF400618A4801F04B
:101580000FF82846691CCDB2012101FA00F0204273
:1015900004D00903844801F005F804E04FF48051B9
:1015A000814800F0FDFF2846691CCDB2012101FAF7
:1015B00000F0204203D07E4800F0F4FF03E0012158
:1015C0007B4800F0EDFF2846691CCDB2012101FAED
:1015D00000F0204204D00221754800F0E3FF03E050
:1015E0000221734800F0DCFF2846691CCDB20121BE
:1015F00001FA00F0204204D004216D4800F0D2FF2F
:1016000003E004216A4800F0CBFF2846691CCDB2F4
:10161000012101FA00F0204204D00821644800F0C2
:10162000C1FF03E00821624800F0BAFF2846691CA8
:10163000CDB2012101FA00F0204204D010215C4813
:1016400000F0B0FF03E01021594800F0A9FF284640
:10165000691CCDB2012101FA00F0204204D0202102
:10166000534800F09FFF03E02021514800F098FF0D
:101670002846691CCDB2012101FA00F0204204D0B5
:1016800040214B4800F08EFF03E04021484800F025
:1016900087FF2846691CCDB2012101FA00F02042E3
:1016A00004D08021424800F07DFF03E080214048C3
:1016B00000F076FF2846691CCDB2012101FA00F046
:1016C000204204D008213B4800F06CFF03E00821D1
:1016D000384800F065FF2846691CCDB2012101FAA7
:1016E00000F0204204D01021324800F05BFF03E0FC
:1016F0001021304800F054FF2846691CCDB201216A
:1017000001FA00F0204204D020212A4800F04AFFCC
:1017100003E02021274800F043FF2846691CCDB292
:10172000012101FA00F0204204D04021214800F0BC
:1017300039FF03E040211F4800F032FF2846691CB2
:10174000CDB2012101FA00F0204204D080211948D5
:1017500000F028FF03E08021164800F021FF284612
:10176000691CCDB2012101FA00F0204204D0090227
:10177000104800F017FF04E04FF480710D4800F0AE
:101780000FFF2846691CCDB2012101FA00F020426A
:1017900004D04902074800F005FF04E04FF400714F
:1017A000044800F0FDFE70BD00100140000801403B
:1017B00000140140000C014010B5044603480461C8
:1017C00001460869FFF74EFE10BD00004C8800205E
:1017D000024600200A4201D0012000E000207047AC
:1017E00002E0002200F8012B0A00A1F1010399B2E6
:1017F000F7D1704710B5032101A000F07BF910BDAF
:10180000444D41315F4368616E6E656C325F495291
:101810005148616E646C65720000000010B50321D0
:1018200001A000F067F910BD444D41315F4368618C
:101830006E6E656C335F49525148616E646C6572BF
:101840000000000010B54FF4005000F06BF80C4899
:10185000007802F0A1FB082800D110BD08480078EC
:1018600002F09AFB042804D10548007802F07AFCC3
:1018700004E00A210248007802F09AFD00BFECE77C
:101880001600002010B5032101A000F033F910BDAF
:10189000444D41315F4368616E6E656C375F4952FC
:1018A0005148616E646C65720000000010B5032140
:1018B00001A000F01FF910BD444D41325F43686143
:1018C0006E6E656C315F49525148616E646C657231
:1018D0000000000010B5032101A000F00BF910BDBD
:1018E000444D41325F4368616E6E656C325F4952B0
:1018F0005148616E646C65720000000010B50321F0
:1019000001A000F0F7F810BD444D41325F4368611B
:101910006E6E656C335F49525148616E646C6572DE
:101920000000000010F0805F02D00349086001E071
:101930000249486070470000040402400000024071
:1019400021B1026842F00102026004E002684FF631
:10195000FE731A400260704701684FF6FE72114034
:1019600001600021016041608160C1604B49884293
:1019700008D14A490839496841F00F01474A083AF5
:1019800051608AE045491431884208D143490839F9
:10199000496841F0F001414A083A51607DE03F4911
:1019A0002831884208D13D490839496841F47061BD
:1019B0003A4A083A516070E038493C31884208D1CF
:1019C00036490839496841F47041344A083A51604F
:1019D00063E032495031884208D1304908394968BA
:1019E00041F470212D4A083A516056E02B49643188
:1019F000884208D129490839496841F47001274AC9
:101A0000083A516049E025497831884208D1234994
:101A10000839496841F07061204A083A51603CE059
:101A20001F49884206D1011F096841F00F01021FBA
:101A3000116032E01A491431884208D11849091F4F
:101A4000096841F0F001164A121F116025E014499F
:101A50002831884208D11249091F096841F4706190
:101A60000F4A121F116018E00D493C31884208D11D
:101A70000B49091F096841F47041094A121F11609E
:101A80000BE007495031884207D10549091F096811
:101A900041F47021024A121F116070470800024091
:101AA000080402401AB103680B43036002E00368B4
:101AB0008B430360704710B50022026847F6F0734D
:101AC0009A430C6A8B6823430C6923434C69234374
:101AD0008C692343CC6923434C6A23438C6A234398
:101AE0001A430260CB6843600B6883604B68C36035
:101AF00010BD00000FB470B58EB00124002546481B
:101B00000078FF2801D1012000E000204249097837
:101B1000424A1278914201D1012100E0002108439C
:101B200075D013A80D9068460D9A129903F062F8CB
:101B300000200D9013A80D902521129800F07EFB37
:101B4000044602E00D9820C80D902000A4F1010485
:101B5000F8D10D9820C80D9000200D9030480078E5
:101B6000FF2801D1012000E000202D490978A94279
:101B700001D1012100E00021084348D02948007824
:101B800010F0010F07D02848007800F02DFA10B1AE
:101B9000684600F06FF8694624A001F09AFC2148DD
:101BA000007810F0020F0CD02148007800F01CFAE9
:101BB00038B1684600F05AFD06463146684602F0E4
:101BC00091FD1848007810F0020F0DD019490878DF
:101BD00000F00AFA40B1684600F048FD0646324679
:101BE0006946154802F046FF0E48007810F0040FD1
:101BF0000DD01049487800F0F7F940B1684600F080
:101C000035FD0646324669460C4802F033FF0EB0F9
:101C100070BC5DF814FB00005D0000205000002047
:101C20005F0000205E0000201F0000200D0A000061
:101C30001400002020000020003801400044004033
:101C400002480078024908707047000050000020E8
:101C50005D00002010B502F0CFFC022000F004F877
:101C6000032000F009F810BD01490870704700001A
:101C70005E000020704700000149087070470000B6
:101C80005F000020704700000021104A1170002002
:101C900018E000210E4A02EB4012516103210C4A68
:101CA00002EB401211720021094A02EB401211614D
:101CB000074A02EB4012D160054A02EB40129161E3
:101CC000411CC8B20A28E4DB704700005C00002019
:101CD000FC860020244800782449087022480078B7
:101CE000401C214908702148007821491F4A127878
:101CF00001EB421108711FA01D491C4A127801EB2B
:101D00004211086000211A48184A127800EB42106C
:101D1000417103201649154A127801EB4211C8712E
:101D200001201349114A127801EB4211087212493D
:101D30000F480E4A127800EB4210416100200C4916
:101D40000A4A127801EB4211C86000210848074A8C
:101D5000127800EB421001610548044A127800EB4A
:101D600042108161704700005C000020600000208C
:101D7000FC860020435452002923000824480078A0
:101D80002449087022480078401C214908702148E5
:101D9000007821491F4A127801EB421108711FA0F7
:101DA0001D491C4A127801EB4211086000211A48B3
:101DB000184A127800EB4210417103201649154A67
:101DC000127801EB4211C87101201349114A1278AF
:101DD00001EB4211087212490F480E4A127800EBCB
:101DE0004210416100200C490A4A127801EB42116D
:101DF000C86000210848074A127800EB42100161D0
:101E00000548044A127800EB4210816170470000D7
:101E10005C00002061000020FC860020435452003A
:101E2000A925000840480078404908703E480078DD
:101E3000401C3D4908703EA03F493C4A127801EBE6
:101E40004211086000203C49384A127801EB4211E7
:101E5000487103213848354A127800EB4210C171AD
:101E600003203549314A127801EB42110872334997
:101E700031482E4A127800EB4210416130482E4919
:101E80002A4A127801EB4211C8602E492A48274A93
:101E9000127800EB4210016100212748234A127892
:101EA00000EB4210816120480078274908701E48E5
:101EB0000078401C1C49087024A11F48224A12784F
:101EC00000EB4210016000211B481F4A127800EB12
:101ED00042104171032018491B4A127801EB42114C
:101EE000C8711549184A127801EB42110872002096
:101EF0001149154A127801EB4211486110480E4908
:101F0000114A127801EB4211C8600E490A480E4A84
:101F1000127800EB42100161002107480A4A12784A
:101F200000EB4210816170475C000020140000202B
:101F30005553415254310000FC860020554600089C
:101F4000F14A0008ED4A000815000020555341529F
:101F500054315F525800000010B503211AA0FFF75A
:101F6000C9FD00242CE01F4800EB4410406928B351
:101F70001C4800EB4410C079012804D0022812D07C
:101F800003281AD109E0174A02EB4412107F154AC0
:101F900002EB4412516988470FE0124901EB4411EA
:101FA0004869804709E00F4A02EB4412D0690D4AA4
:101FB00002EB44125169884700BF00BF601CC4B2E5
:101FC0000A2CD0DB10BD0000546F73204465766985
:101FD000636520496E69742E2E2E2E2E2E2E2E2EE7
:101FE0002E000000FC8600200146FF2901D10020C0
:101FF0007047044800EB4110406908B90020F7E73A
:102000000120F5E7FC86002010B5032101A0FFF7B1
:1020100071FD10BD4558544931355F31305F49522B
:102020005148616E646C65720000000010B50321B8
:1020300001A0FFF75FFD10BD45585449325F49527A
:102040005148616E646C65720000000010B5032198
:1020500001A0FFF74FFD10BD45585449335F495269
:102060005148616E646C65720000000010B5032178
:1020700001A0FFF73FFD10BD45585449345F495258
:102080005148616E646C65720000000010B5032158
:1020900001A0FFF72FFD10BD45585449395F355F4A
:1020A00049525148616E646C6572000001490860D4
:1020B000704700001404014030B5044604254FF475
:1020C000302000F099F80546042D17D10C4800691E
:1020D00040F002000A49086108464461006940F086
:1020E000400008614FF4302000F086F805460448AF
:1020F000006941F6FD71084001490861284630BD7C
:102100000020024004200B49C96811F0010F01D0E2
:1021100001200EE00749C96811F0040F01D0022028
:1021200007E00449C96811F0100F01D0032000E056
:10213000042070470020024010B5032101A0FFF7E2
:10214000D9FC10BD464C4153485F49525148616E1D
:10215000646C6572000000000348006940F0800074
:1021600001490861704700000020024005490968E4
:1021700021F01001034A1160114609680143116002
:10218000704700000020024070B504460D4604264A
:10219000F00200F031F80646042E11D1094800691A
:1021A00040F00100074908612580F00200F024F8A2
:1021B00006460448006941F6FE710840014908617D
:1021C000304670BD0020024001460020034A1068DE
:1021D00000F0380008431060704700000020024003
:1021E0000248034948600348486070472301674537
:1021F00000200240AB89EFCD00B502460423FFF773
:1022000081FF034603E0FFF77DFF0346521E012BCB
:1022100001D1002AF7D102B90523184600BD0000FC
:1022200010B5032101A0FFF765FC10BD46534D43D7
:102230005F49525148616E646C65720010B5024688
:10224000002005E012F8014B8C4201D1431C98B2EA
:102250001378002BF6D110BD70B50B46044603E091
:1022600014F8015B03F8015B1500A2F10106B2B29C
:10227000F6D170BD2DE9F047064688461446002782
:10228000C146FFF7ADFF2046E11704EBD151C1F382
:102290004F27E11704EBD1514912B4EB412101D092
:1022A000781C87B2002507E04FF4007101FB07603E
:1022B000FFF702FF681C85B2BD42F5DB002508E090
:1022C00039F8021B2A466B1C9DB206EB4200FFF751
:1022D0005BFF2000A4F101018CB2F1D1FFF73CFFBC
:1022E000BDE8F08701460A461068704770B504469D
:1022F0000025107820B116782068B0FBF6F085B282
:102300002068084420601078984203DA1078401C56
:10231000107002E02068401B206016782068B0FB37
:10232000F6F080B270BD000008B50020FFF79AF803
:102330000121042000F004FC4FF40140ADF800003E
:1023400003208DF8020010208DF80300694626480E
:1023500000F054F80121082000F0F2FB4FF47E70E9
:10236000ADF8000003208DF8020010208DF8030066
:1023700069461E4800F042F80121102000F0E0FB01
:102380004FF4FE50ADF8000003208DF8020010203D
:102390008DF803006946164800F030F8012120202E
:1023A00000F0CEFBFF20ADF8000003208DF8020006
:1023B00010208DF8030069460E4800F01FF8012137
:1023C000402000F0BDFB1C20ADF8000003208DF87C
:1023D000020010208DF803006946074800F00EF84F
:1023E00000F05EFD08BD000000080140000C014047
:1023F0000010014000140140001801402DE9F04197
:10240000024600250026002000230024002791F822
:1024100003C00CF00F0591F803C01CF0100F03D09F
:1024200091F802C04CEA050591F800C0BCF1000F1C
:1024300031D0146800202BE04FF0010C0CFA00F3AF
:10244000B1F800C00CEA03069E4220D183004FF091
:102450000F0C0CFA03F7BC4305FA03FC4CEA040426
:1024600091F803C0BCF1280F06D14FF0010C0CFA13
:1024700000FCC2F814C00AE091F803C0BCF1480F98
:1024800005D14FF0010C0CFA00FCC2F810C0401C42
:102490000828D1D31460B1F800C0BCF1FF0F34DDBF
:1024A000546800202EE000F1080C4FF0010808FAF3
:1024B0000CF3B1F800C00CEA03069E4221D1830060
:1024C0004FF00F0C0CFA03F7BC4305FA03FC4CEA7F
:1024D000040491F803C0BCF1280F05D100F1080CE9
:1024E00008FA0CF8C2F8148091F803C0BCF1480F48
:1024F00007D100F1080C4FF0010808FA0CF8C2F8F7
:102500001080401C0828CED35460BDE8F081000044
:10251000F0B50A46002300240021002500F0004603
:10252000B6F1004F02D11D4EF16901E01B4E7168FA
:10253000C0F3034583B200F44016B6F5401F08D13E
:1025400021F07061154E766826F07066134F7E603C
:1025500012E000F48016B6F5801F06D1032606FAB5
:1025600005F4A14341F0706106E0460D360103FA1F
:1025700006F6B14341F0706122B1460D360103FA0F
:1025800006F6314300F00046B6F1004F02D1034E8B
:10259000F16101E0014E7160F0BD000000000140FA
:1025A000416170470161704708B50121202000F0AA
:1025B000C7FA4FF47F40ADF8000003208DF8020009
:1025C00048208DF8030069462448FFF717FF0121D2
:1025D000082000F0B5FA4FF20700ADF80000032024
:1025E0008DF8020048208DF8030069461C48FFF76B
:1025F00005FF0121402000F0A3FA4FF68070ADF8EE
:10260000000003208DF8020048208DF80300694681
:102610001448FFF7F3FE0121102000F091FA30205A
:10262000ADF8000003208DF8020048208DF803006B
:1026300069460D48FFF7E2FE0121042000F080FA10
:102640003020ADF8000003208DF8020048208DF8FE
:10265000030069460448FFF7D1FE08BD001401409D
:10266000000C0140001801400010014010B5014667
:1026700000200A4601E0431C98B212F8014B002CDE
:10268000F9D110BD0246002039B950784FF6FF73DA
:1026900003EA00201378184306E010784FF6FF7322
:1026A00003EA002053781843704700BFFEE700009C
:1026B00010B5032101A0FFF71DFA10BD49324331C7
:1026C0005F45525F49525148616E646C657200000B
:1026D00010B5032101A0FFF70DFA10BD49324331B7
:1026E0005F45565F49525148616E646C65720000E7
:1026F00010B5032101A0FFF7FDF910BD49324332A7
:102700005F45525F49525148616E646C65720000CA
:1027100010B5032101A0FFF7EDF910BD4932433296
:102720005F45565F49525148616E646C65720000A6
:1027300010B545F2555000F029F8062000F01AF8BF
:102740004FF47F6000F01CF800F00CF800F002F885
:1027500010BD00004CF6CC400149086070470000F5
:10276000003000404AF6AA20014908607047000086
:1027700000300040014948607047000000300040D0
:10278000014988607047000000300040014908603E
:10279000704700000030004010B504464FF4FF724F
:1027A00002490348FFF758FD10BD00007088002063
:1027B00000F8070871B600BF0648006800F4E06042
:1027C00005490843001D03490860BFF3408F00BF5F
:1027D00000BFFEE70CED00E00000FA0500BFFEE7D9
:1027E0007047000070B5002100230F22C4780CB39D
:1027F000164C246804F4E064C4F5E064210AC1F1D5
:102800000403CA40447804FA03F184781440214355
:1028100009010F4C0678A155047804F01F05012426
:10282000AC4005786D114FF0E02606EB8505C5F844
:10283000004109E0047804F01F050124AC40054D77
:102840000678761145F8264070BD00000CED00E0DA
:1028500000E400E080E100E002490143024A116027
:10286000704700000000FA050CED00E01648007803
:1028700020B1032806D004280CD107E00320124918
:1028800008700BE004201049087007E004200E498E
:10289000087003E000200C49087000BF00BF0A4820
:1028A000007878B10948007D10F0040F02D00320B1
:1028B000054908700548007D10F0080F02D003207C
:1028C0000149087070470000710000204C8800200A
:1028D0001648007820B1012806D002280CD107E064
:1028E0000120124908700BE002201049087007E02F
:1028F00002200E49087003E000200C49087000BF58
:1029000000BF0A48007878B10948007D10F0040F34
:1029100002D00120054908700548007D10F0080F1D
:1029200002D00120014908707047000071000020AA
:102930004C8800202DE9FF4F89B016461C46DDE982
:102940001695DDE90901FDF723FE39D2DDE909011C
:10295000FDF75FFC099020460A99FDF757FC824677
:10296000FDF7E7FDCDE9040131464846FDF74EFC91
:102970000190FDF7DEFD82468B460998FDF7D9FDF3
:1029800052465B46CDE90201FDF7EDFC0746DDE965
:102990000423FDF75AFDCDE90601FDF7DDFD0990A1
:1029A00031460998FDF735FC099031460998FDF745
:1029B000F9FD01D20020099009980DB0BDE8F08F13
:1029C00021460998FDF7EEFD35D221460998FDF71D
:1029D0001DFC099020460A99FDF718FC0746FDF7F3
:1029E000A8FDCDE9040131464846FDF70FFC0190F2
:1029F000FDF79FFDCDE902010998FDF79AFD074615
:102A0000DDE90223FDF7AFFC8246DDE90423FDF793
:102A10001CFDCDE90601FDF79FFD09904946099887
:102A2000FDF7A2FB099029460998FDF7BBFD00D2EE
:102A300009950998C1E7DDE90901FDF7B3FD3CD827
:102A400021460998FDF7A4FD37D8DDE90901FDF716
:102A5000DDFB099020460A99FDF7D8FB8246FDF779
:102A600068FD0746884631464846FDF7CFFB019092
:102A7000FDF75FFD82468B460998FDF75AFD5246E9
:102A80005B46CDE90201FDF76EFC3A464346CDE9CF
:102A90000401FDF7DAFCCDE90601FDF75DFD0990C3
:102AA00031460998FDF760FB099029460998FDF722
:102AB00079FD00D2099509987FE700207DE70000A5
:102AC00010B5032101A0FFF715F810BD5056445F63
:102AD00049525148616E646C657200007047000095
:102AE00029B1064A52690243044B5A6104E0034A81
:102AF00052698243014B5A61704700000010024046
:102B000029B1064AD2690243044BDA6104E0034A60
:102B1000D2698243014BDA61704700000010024025
:102B200029B1064A12690243044B1A6104E0034AC0
:102B300012698243014B1A61704700000010024085
:102B400029B1064A92690243044B9A6104E0034AA0
:102B500092698243014B9A61704700000010024065
:102B600010B500F043F84FF4803000F001F900F0A8
:102B70006BF90446012C38D11020FFF7F7FA022038
:102B8000FFF722FB002000F0E7F8002000F030F90A
:102B9000A00200F021F94FF4E011200400F03AF90E
:102BA000012000F031F900BF392000F0AFF8002813
:102BB000FAD0022000F03CF900BF00F0C5F8082868
:102BC000FBD101213C20FFF7BBFF01210846FFF7A5
:102BD000B7FF01218803FFF7B3FF01210846FFF784
:102BE0007FFF01214802FFF7ABFF10BD0F480068CF
:102BF00040F001000D490860084640680C49084053
:102C00000A494860084600680A49084007490860C0
:102C10000846006820F4802008600846406820F4D8
:102C2000FE0048604FF41F008860704700100240AB
:102C30000000FFF8FFFFF6FE30B50021002200245F
:102C400000232D4D6D6805F00C0121B1042905D03C
:102C5000082923D105E0294D056022E0274D0560B4
:102C60001FE0254D6D6805F47012234D6D6805F465
:102C70008034022505EB92421CB9214D5543056075
:102C80000BE01D4D6D6815F4003F03D01C4D5543FE
:102C9000056002E0194D5543056002E0174D0560DF
:102CA00000BF00BF144D6D6805F0F0010909154D16
:102CB0006B5C0568DD4045600F4D6D6805F4E061B3
:102CC000090A104D6B5C4568DD4085600A4D6D68F2
:102CD00005F46051C90A0B4D6B5C4568DD40C56069
:102CE000054D6D6805F44041890B074D6B5CC56867
:102CF000B5FBF3F5056130BD0010024000127A000B
:102D000000093D00000000201000002010B5014621
:102D10000022002300204A11012A02D1094C236815
:102D200006E0022A02D1074C236A01E0054C636ADF
:102D300001F01F02012494401C4201D0012000E058
:102D4000002010BD001002400248406800F00C0056
:102D5000704700000010024001460020034A5068FE
:102D600020F0F0000843506070470000001002405F
:102D70001149096821F480310F4A11601146096830
:102D800021F480211160B0F5803F03D0B0F5802F91
:102D90000ED106E00849096841F48031064A116005
:102DA00007E00549096841F4A021034A116000E0E9
:102DB00000BF00BF704700000010024010B50321A3
:102DC00001A0FEF797FE10BD5243435F49525148A0
:102DD000616E646C6572000001460020034A506811
:102DE00020F4E0600843506070470000001002408B
:102DF00001460020034A506820F4605040EAC100B8
:102E0000506070470010024001490866704700009A
:102E10000000424202460020044B586820F47C1017
:102E200042EA01031843014B58607047001002400A
:102E300001460020034A506820F003000843506018
:102E4000704700000010024038B5002000900024B8
:102E5000002500BF3120FFF759FF05460098401CB0
:102E600000900098B0F5A06F01D0002DF2D0312075
:102E7000FFF74CFF08B1012400E00024204638BDD4
:102E800010B5032101A0FEF735FE10BD5254434199
:102E90006C61726D5F49525148616E646C6572007D
:102EA00010B501210148FFF733FB10BD00023000CF
:102EB00000206949096811F4004F01D040F0010079
:102EC0006549096811F4804F01D040F00200624961
:102ED000096811F4005F01D040F004005E49096800
:102EE00011F4805F01D040F008005B49096811F4DB
:102EF000006F01D040F010005749096811F4806F4D
:102F000001D040F020005449096811F4007F01D03D
:102F100040F040005049096811F4807F01D040F032
:102F200080004E49096811F4004F01D040F48070D0
:102F30004A49096811F4804F01D040F400704749B4
:102F4000096811F4005F01D040F4806043490968CA
:102F500011F4805F01D040F400604149096811F428
:102F6000004F01D040F480503D49096811F4804F72
:102F700001D040F400503A49096811F4005F01D0D3
:102F800040F480403649096811F4805F01D040F474
:102F900000403349096811F4006F01D040F48030DB
:102FA0002F49096811F4806F01D040F400302C499A
:102FB000096811F4007F01D040F480202849096895
:102FC00011F4807F01D040F400202549096811F0F8
:102FD000800F01D040F480102049096811F0040FDF
:102FE00001D040F400101D49096811F0020F01D012
:102FF00040F480001949096811F0010F01D040F434
:1030000000001849896811F0200F01D040F080704D
:103010001449896811F0100F01D040F00070124976
:10302000096811F0800F01D040F080600E490968F6
:1030300011F0400F01D040F000600B49096811F019
:10304000200F01D040F080500749096811F0100F9F
:1030500001D040F00050704708140140080C0140B6
:1030600008180140001001400808014010B5032174
:1030700001A0FEF73FFD10BD535049315F49525149
:1030800048616E646C65720010B5032101A0FEF703
:1030900031FD10BD535049325F49525148616E6451
:1030A0006C65720010B5032101A0FEF723FD10BD71
:1030B000535049335F49525148616E646C657200E8
:1030C0007047000010B504464FF4FF7202490348F0
:1030D000FFF7D0F810BD00007088002000F8070846
:1030E00008B50020694981F820004FF6FF70684953
:1030F00088810020FFF750FBC7E0012000F062FE4E
:1031000064216448FEF76CFB00226421104601F044
:1031100077FB0446FEF794FD01215E48FFF7B2FA03
:103120005B4988815B4801F023FD0028E4D004243A
:10313000A01E5849085C17285CD00CDC132847D027
:1031400004DC0B2814D00C2872D127E0142844D0BA
:103150001528F9D146E0242851D004DC1A285DD086
:103160002228F1D165E025282ED02F28ECD170E05F
:1031700048490819FFF7B6F80546444991F8203048
:10318000091D31F81320091F91F820002B46012159
:1031900000F088F80020FFF795FF6EE03D49081920
:1031A000FFF7A0F80546394991F82030091D31F89C
:1031B0001320091F91F820002B46002100F072F81F
:1031C0000020FFF77FFF58E00020FFF77BFF54E06F
:1031D0003049085DFEF736F94FE02E49085DFEF7ED
:1031E00021F94AE02B49081901F07AFC0546FEF75F
:1031F000E3FA42E02749085DFDF7A6FB3DE04420E5
:10320000009023488189214B2422234801F0C8FCE7
:1032100004462146204801F065FA2EE01D48005D75
:10322000022804DA1B48005D184981F8200024E0D8
:1032300022E0184D631CEA5C2B461B5D03EB031375
:10324000124D05EB8301134B1819FDF764FC04467E
:1032500013E01048007A19280DD10E48407A8928C9
:1032600009D10C48807A112805D10A48C07A06286D
:1032700001D1FFF79FFA00E000BF00BF0821074817
:10328000FFF78EF902200649087036E74C880020C7
:103290003C88002074000020A0010020001801409C
:1032A0007000002010B5064C04EB001424F8312007
:1032B000034C04EB001404EBC104636010BD000078
:1032C000708800202DE9FC4704460D46184901EBA3
:1032D00004110889FDF728F90746154901EB041187
:1032E0000888FDF721F980462846FDF71DF981463B
:1032F00010490F4800EB0410C068CDE900010C48EC
:1033000000EB04103B46414642684846FFF712FB7B
:10331000064609493046FDF745F900D2074E00211F
:103320003046FDF735F900D2044E3046BDE8FC8743
:103330007088002000007A440000C842000080BF6E
:103340002348007807283AD2DFE800F0040B12196E
:103350002027300000201F4988710872C871087149
:1033600031E0FF201B49887108720020C8712AE0F3
:10337000FF201849887100200872C87123E0FF20DF
:103380001449C8710872002088711CE0FF2011499F
:10339000C87100200872887115E00C200D498871F1
:1033A00008720020C8710C2008710CE00C2009493B
:1033B000C8710872002088710C20087103E0002099
:1033C0000349087000BF00BFFF2002490871704721
:1033D000710000209088002010B500F001F810BDA9
:1033E0000CB50020019000903248006840F4803015
:1033F0003049086000BF2F48006800F4003000909A
:103400000198401C0190009818B90198B0F5A06F80
:10341000F1D12848006810F4003F02D0012000904C
:1034200001E0002000900098012842D12248006865
:1034300040F01000204908600846006820F00300B2
:1034400008600846006840F00200086019484068BB
:10345000184948600846406848600846406840F49B
:10346000806048600846406820F47C104860084648
:10347000406840F4E81048600846006840F08070FA
:10348000086000BF0B48006810F0007FFAD00948C0
:10349000406820F00300074948600846406840F053
:1034A0000200486000BF0348406800F00C00082894
:1034B000F9D10CBD001002400020024003461AB9A9
:1034C00008125870197002E0081218705970022022
:1034D00070472DE9F04106460D462C4637462846F2
:1034E000FFF7C4F804443046FFF7C0F8804618F1EF
:1034F000010001D1BDE8F08103E017F8010B04F8E9
:10350000010B5FEA0800A8F10108F6D104F8010BED
:1035100000BFEFE710B500F087FB10BD10B51348F2
:10352000006840F0010011490860084640681049F1
:1035300008400E494860084600680E4908400B499B
:1035400008600846006820F480200860084640684B
:1035500020F4FE0048604FF41F008860FFF73CFF36
:103560004FF000600449086010BD000000100240E8
:103570000000FFF8FFFFF6FE08ED00E010B50321A4
:1035800001A0FEF7B7FA10BD54414D5045525F49B6
:10359000525148616E646C657200000010B50321E1
:1035A00001A0FEF7A7FA10BD54494D315F42524BBE
:1035B0005F49525148616E646C65720010B5032119
:1035C00001A0FEF797FA10BD54494D315F43435FA8
:1035D00049525148616E646C6572000010B5032158
:1035E00001A0FEF787FA10BD54494D315F54524790
:1035F0005F434F4D5F49525148616E646C65720084
:1036000010B5032101A0FEF775FA10BD54494D31E4
:103610005F55505F49525148616E646C657200009D
:1036200010B5032101A0FEF765FA10BD54494D34D1
:103630005F49525148616E646C65720010B5032198
:1036400001A0FEF757FA10BD54494D355F4952515C
:1036500048616E646C65720010B5032101A0FEF72D
:1036600049FA10BD54494D375F49525148616E6463
:103670006C65720010B5032101A0FEF73BFA10BD86
:1036800054494D385F42524B5F49525148616E6414
:103690006C65720010B5032101A0FEF72BFA10BD76
:1036A00054494D385F43435F49525148616E646CE1
:1036B0006572000010B5032101A0FEF71BFA10BDD2
:1036C00054494D385F5452475F434F4D5F49525103
:1036D00048616E646C65720010B5032101A0FEF7AD
:1036E00009FA10BD54494D385F55505F4952514851
:1036F000616E646C6572000008212048FEF752FF7D
:1037000010211E48FEF74EFF0020FEF7ADFA002004
:10371000FEF7B2FAFFF7C4FB0020FEF74DF80020D9
:103720001749086004211548FEF73AFF082113489D
:10373000FEF736FF10211148FEF732FF4FF4FA6012
:1037400000F040FB18E004210C48FEF729FF4FF47D
:10375000FA7000F037FB04210848FEF723FF4FF40E
:10376000FA7000F02FFB07480078401E05490870EA
:1037700008210248FEF716FFE5E7000000180140A7
:103780004C88002070000020C6B000250AE005EB40
:103790008500694601EB800032A901EBC501486054
:1037A000681CC5B20A2DF2DB0A2132A800F0D8FA53
:1037B00000F05AFBFDF7BCFCFDF79FFC00205649CA
:1037C000888000215448C180A4E0322000F0FAFA39
:1037D00010215248FEF7E6FE322000F0F3FA1021E5
:1037E0004E48FEF7DDFE00F0A1FB0646002EEBD0B2
:1037F00074682068632837D006DC60280DD0612803
:1038000018D0622876D122E090286BD0B0F5E07F06
:1038100044D0B0F5287F6DD133E0012104F10B00D5
:10382000FEF730FF3C4908830846006840F002007C
:10383000086060E0012104F10B00FEF723FF364928
:1038400048830846006840F00400086053E0012106
:1038500004F10B00FEF716FF2F4988830846006825
:1038600040F00800086046E0012104F10B00FEF77B
:1038700009FF2949C8830846006840F01000086025
:1038800039E0012104F10B00FEF7FCFE2249C8805B
:103890000846006840F0200008602CE0E07AC04351
:1038A000C5B215F0010F06D01B48006840F4005067
:1038B0001949086005E01848006820F400501649CE
:1038C000086015F0040F06D01348006840F48040EB
:1038D0001149086005E01048006820F480400E4956
:1038E000086008E004F10B0001F0FAF80C494860A8
:1038F00001E0FFE700BF00BF0748018B408B014498
:103900000548808B01440448C08B0F18C7F38F0013
:103910000149888059E700004C88002000180140C8
:103920003C88002092E0C82000F04CFAFFF7C0FA73
:10393000C04347494861084681880020FFF7C2FC20
:10394000434988600846C1880120FFF7BBFC404915
:10395000C8600846007D10F0010F05D008460068D9
:1039600040F08000086005E03948006820F08000E1
:10397000374908603648007D10F0020F06D0344801
:10398000006840F480703249086005E03048006803
:1039900020F480702E4908602E48007910F0800FC6
:1039A00006D02B48006840F400402949086005E033
:1039B0002848006820F4004026490860254800791E
:1039C00010F0010F06D02248006840F480302049F2
:1039D000086005E01F48006820F480301D49086039
:1039E0001C48007910F0080F06D01948006840F410
:1039F00000701749086005E01648006820F4007060
:103A0000144908601348007910F0100F06D01048D0
:103A1000006840F480600E49086005E00D480068C9
:103A200020F480600B4908600A48007910F0400FCC
:103A300006D00748006840F400600549086005E0CA
:103A40000448006820F40060024908606BE7000049
:103A50004C8800203C880020F0B502460C46FF212F
:103A6000FF2500260BE012F8017B87EA0503084FCB
:103A7000FF5C87EA0105074FF95C771CBEB2A642DE
:103A8000F1DB08464FF6FF7707EA00202843F0BD38
:103A9000A0550008A056000810B510480078092865
:103AA00004D00F480078401C0D4908700D4800787C
:103AB000401C0C4908700846007864280DDD002081
:103AC00008701423084A064801780848FEF70EFCDF
:103AD0000749087000200249087010BD50000020FE
:103AE0003C00002034000020350000203800002079
:103AF0004800002010B502201E4948700020486090
:103B0000002425E0002004EB840101EBC4011A4AE3
:103B100002EB8101088104EB840101EBC40102EB9B
:103B20008101886104EB840101EBC40142F82100AA
:103B300004EB840101EBC40102EB8101086204EB98
:103B4000840101EBC40102EB81018884601CC4B2D2
:103B50000A2CD7DB092009490870002008490860B1
:103B600008498873084BFF224FF47A71054800F02A
:103B700035FC10BD48000020B00F00205000002090
:103B800058000020E8860020C5440008FEF7E4F94C
:103B9000FEF7CEFD06E0FEF7E5FD642000F012F929
:103BA00000F066FCF7E7000038B51849B1F1807FF6
:103BB00000D31DE021F07F40401E4FF0E022506115
:103BC00050170F22002807DA13071D0E104B00F0C4
:103BD0000F04241F1D5503E013071C0E0D4B1C542E
:103BE00000BF00204FF0E02290610720106100BF6D
:103BF0004FF47A7008A300220A490090092000F0CF
:103C000045F8092000F02AFB38BD000040190100EA
:103C100018ED00E000E400E05461736B526F6F74C4
:103C2000000000008D3B000810B5FFF735FF00F0E5
:103C300005FA0D484078102805D103210BA0FDF7A7
:103C400059FFFEF7B7FD10488089401C0E49888156
:103C5000084680890989884205DD0B490869804743
:103C600000200949888110BD480000205461736B11
:103C70002054696D654F75742057696C6C20544FE2
:103C80005320526573657400E88600202DE9F043E7
:103C900004460D4690461E46079F0DB9BDE8F083C9
:103CA00004EB840000EBC4002A4901EB8000808C07
:103CB000A8B92948006838442749086004EB840102
:103CC00001EBC401234A02EB81018F842248006882
:103CD00004EB840101EBC40102EB8101086204EBF7
:103CE000840202EBC4021B4B03EB8202918C04EBB7
:103CF000840202EBC40203EB8202126A174BD01853
:103D000000F04CFB8146022004EB840101EBC4016E
:103D1000104A02EB8101088104EB840000EBC4002F
:103D2000114601EB8000456004EB840000EBC40009
:103D300001EB8000066342462946484600F056FAE9
:103D400004EB840101EBC401024A42F8210000BFE8
:103D5000A4E70000B00F002058000020B811002098
:103D600010B5164A127802EB820303EBC202144B21
:103D700003EB8202D062114A127802EB820303EB5A
:103D8000C2020F4B03EB820282F8271000220B4B7A
:103D90001B7803EB830404EBC303094C04EB83039C
:103DA00083F82820054B1B7803EB830404EBC30343
:103DB000034C04EB830383F8292010BD500000203E
:103DC000B00F002010B5044615484078012822D0D5
:103DD00000201449097801EB810202EBC101124A6B
:103DE00002EB810188610F48007800EB800101EB54
:103DF000C000114601EB80004461082009490978A0
:103E000001EB810202EBC101074A02EB810108814B
:103E100000F06EFA02E02046FCF770FE10BD0000D4
:103E20004800002050000020B00F002001460C4840
:103E300000EB4110007A08B900207047084800EBF9
:103E400041104079074A1278904201D00020F4E7EF
:103E50000120034A02EB4112107200BFEDE700009F
:103E6000FC8600205000002010B50C4800780C495A
:103E7000087000240AE004EB84000A4901EB80008A
:103E8000094901EBC4014860601CC4B20A2CF2DB92
:103E90000A210548FFF764FF10BD00005000002014
:103EA0001C0000201C030020CC02002070B504463A
:103EB0000D4600BF1B4800EB4410007A30B10128CA
:103EC00014D0022804D003282AD11CE0002070BDA1
:103ED000144800EB4410407913490978884201D115
:103EE0000120F4E7204600F015FBE3E702200D492E
:103EF00001EB441108720C4800780A4901EB4411A7
:103F000048710120E3E70220064901EB44110872E1
:103F100005480078034901EB441148710120D6E7B8
:103F20000020D4E7FC8600205000002070B518481F
:103F3000007800EB800101EBC000164901EB800422
:103F4000E06A08B9002070BD94F8290018B910483B
:103F5000007800F095F994F8290008B90020F2E7FC
:103F600004F12704D4F80500617800EBC1056078FE
:103F700000F10100217890FBF1F201FB120060706A
:103F8000A078A0F10100A070A4F127042846DAE788
:103F900050000020B00F002001460A2901DB00205C
:103FA000704701EB810000EBC100024A02EB800088
:103FB0000089F5E7B00F00202DE9F0470646884656
:103FC00091469A460A2E01DBBDE8F08706EB860093
:103FD00000EBC600184901EB8004E06A00B9F3E782
:103FE00094F8290094F82710884220DA04F1270475
:103FF0006078A1780844217890FBF1F201FB12006F
:10400000C7B214F82709B84200DCDDE7E06A00EB2C
:10401000C70585F800804A4650466968FCF77BFD75
:1040200085F8019094F82900401C84F82900304656
:1040300000F098F800BFC7E7B00F0020002088E02C
:1040400000EB800101EBC001444A02EB81010989C8
:10405000022906D0082924D010294FD0202974D154
:1040600072E000EB800101EBC0013C4A02EB8101F0
:104070008969491C00EB800202EBC002374B03EB5D
:104080008202916100EB800101EBC0011A4602EB54
:1040900081018969B1F5FA6F02D91021304A517056
:1040A00054E0002100EB800202EBC0022B4B03EB3B
:1040B0008202916100EB800101EBC0011A4602EB24
:1040C0008101496941B9022100EB800202EBC00283
:1040D00003EB8202118110E000EB800101EBC001D3
:1040E0001E4A02EB81014969491E00EB800202EB86
:1040F000C0021A4B03EB8202516127E000EB800102
:1041000001EBC001154A02EB8101C96949B90221DD
:1041100000EB800202EBC002104B03EB8202118124
:1041200010E000EB800101EBC0010C4A02EB8101C1
:10413000C969491E00EB800202EBC002074B03EB8A
:104140008202D16102E000E000E000BF00BF411C3C
:10415000C8B20A28FFF674AF70470000B00F002005
:10416000480000200A2800DB704700EB800101EBCB
:10417000C001084A02EB81010989082908D00821F9
:1041800000EB800202EBC002024B03EB82021181C2
:1041900000BFE9E7B00F002010B504460F480078D3
:1041A000A04200D110BD0D48007800EB800101EB6A
:1041B000C0000B4901EB80000A4908600748047001
:1041C000007800EB800101EBC000054951F82000A8
:1041D00005490860FCF73CFB00BFE3E75000002006
:1041E000B00F0020440000204000002030B50346FE
:1041F0001846041F20462160041F20462360002526
:10420000041F20462560041F20462560041F204609
:104210002560041F20462560041F20462560041FDA
:1042200020462560041F20462560041F2046256087
:10423000041F20462560041F20462560041F2046D9
:104240002560041F20462560041F204622604FF091
:104250008075041F2046256030BD000010B504465F
:1042600004EB840000EBC400034951F8200003492B
:104270000860FCF706FB10BDB00F002040000020D6
:1042800010B504460A2C00DB10BD04EB840000EBE3
:10429000C400164901EB80000089082801D10120E3
:1042A00000E0002004EB840101EBC4010F4A02EBA3
:1042B00081010989022901D1012100E0002108437F
:1042C00012D0042004EB840101EBC401074A02EB85
:1042D00081010881002004EB840101EBC40102EBA1
:1042E0008101486100F004F800BFCDE7B00F002065
:1042F00010B502212648A0F8DC11002444E004EBAC
:10430000840000EBC400224901EB800000890228F0
:1043100006D008280CD010280BD0202830D109E076
:104320001C480078A04202D02046FFF735FF10BDA0
:1043300027E026E004EB840000EBC400144901EB05
:10434000800090F82600144901EB4010007A012803
:1043500015D1082004EB840101EBC4010C4A02EBE7
:1043600081010881032004EB840101EBC40102EB0D
:10437000810191F82610084A02EB4111087200E011
:1043800000BF00BF601CC4B20A2CB8DB00BFCEE780
:10439000B00F002050000020FC860020024650187C
:1043A00020F00303A3F1340020F007007047000061
:1043B00010B5102200EB800303EBC003064C04EBA6
:1043C00083031A8100EB800202EBC002234603EB59
:1043D0008202D16110BD0000B00F002070B504460C
:1043E0000D46164601221449887B002816DD0AE096
:1043F0004968002A07DD0878904202D02270002226
:1044000001E0501CC2B248680028F1D1002A00DD4A
:1044100022700A480078A0734C6005E00C4600202A
:10442000207006480078A073258166810020A08155
:1044300023616060207870BDE88600205000002075
:1044400002460A490CE048680078904207D10020F3
:104450004B68588148684068486010467047496812
:1044600048680028EFD100BFF8E70000E886002088
:1044700010B5134C1FE06068807B10F0400F19D01E
:104480006068807B10F0800F12D0616808698047F7
:104490006068807B20F08000616888736068408974
:1044A00020B961680878FFF7CBFF04E0646802E098
:1044B000646800E0646860680028DCD110BD00001A
:1044C000E886002012481EE04068817B11F0400F12
:1044D00019D04189002916DD81890289914203DAC8
:1044E0008189491C81810EE04189FF2902DA4189D5
:1044F000491E41814189002901DD00218181817BA3
:1045000041F08001817341680029DDD170470000CE
:10451000E886002010B504460C48007800EB8001C6
:1045200001EBC0000A4901EB800080F82640202002
:104530000649097801EB810202EBC101044A02EB52
:1045400081010881FFF7D4FE10BD0000500000205B
:10455000B00F002010B540F225510E4800F0CEF902
:10456000B0B10C48001D0088C4B20B48C0880B498C
:10457000C98888420CDA0848C188C088401C064AAD
:10458000D080074844540749C8780A21FFF710FF34
:1045900010BD0000004C0040A60F00209C0F002022
:1045A000680700202F00002010B540F225510D486B
:1045B00000F0A4F9A8B10B488088C4B20A48008969
:1045C0000A49098988420CDA074801890089401C98
:1045D000054A108106484454064908790A21FFF724
:1045E000E7FE10BD00500040A60F00209C0F0020E9
:1045F000940800202F0000201FB500F09FF8012133
:104600008803FEF79DFA4FF4E13000900020ADF8EA
:104610000400ADF80600ADF80800ADF80C000C2061
:10462000ADF80A0069460A4800F0B8F9012240F2E4
:104630002551074800F08CF90121054800F049F99F
:10464000012000F0C7F84021014800F039F91FBDF2
:104650000038014000B58DB0FFF7CEFF01210846BC
:10466000FEF73EFA0E208DF8300003208DF8310061
:1046700002208DF8320001208DF833000CA8FEF7DF
:10468000B1F81548FDF768F91448019014480290F4
:10469000102003904FF49670049000200590802025
:1046A000069000200790089009904FF400500A905F
:1046B00000200B9001A90848FDF7FDF90122022115
:1046C0000548FDF7EFF9012280210448001F00F0A2
:1046D0000CF90DB000BD0000440002400438014058
:1046E000A001002070B504460D4600210F48007857
:1046F000FFF7DCFB0646C6B10D4800780D4908708F
:104700000D480465856401210B484430FDF718F914
:1047100008480078FFF7B4FD002107484430FDF752
:104720000FF902480078FFF781FB70BD14000020EC
:1047300050000020160000200000024008B50121B2
:104740000520FEF7FDF94FF40070ADF800000320DE
:104750008DF8020018208DF8030069460748FDF720
:104760004DFE4FF48060ADF8000004208DF803008A
:1047700069460248FDF742FE08BD000000080140FE
:1047800010B540F225510E4800F0B8F8B0B10C4811
:10479000001D0088C4B20B4800880B490988884274
:1047A0000CDA084801880088401C064A1080074837
:1047B00044540A2106480078FFF7FAFD10BD0000B6
:1047C000003801401A00002018000020740000206A
:1047D0001700002038B504464FF48060FEF73CF81F
:1047E00025208DF8000002208DF8010001208DF8B1
:1047F00002008DF803406846FDF7F4FF38BD000065
:104800002DE9F04107460D46144600211248007874
:10481000FFF74CFB06460120FFF7DCFFC6B10F484F
:1048200000780F4908700F48058000200E49088065
:104830001CB12046FFF7C6FA03E009480078FFF7ED
:104840001FFD05480078FFF7F1FA0020FFF7C2FFCF
:1048500005480088BDE8F0811500002050000020C8
:1048600017000020180000201A00002010B540F2A8
:1048700025510E4800F042F8B0B10C48001D0088E8
:10488000C4B20B4840880B49498888420CDA084872
:1048900041884088401C064A5080074844540749D4
:1048A00048780A21FFF784FD10BD00000044004055
:1048B000A60F00209C0F0020100500202F000020D4
:1048C00001F40072B2F5007F00D100BFCA4302803C
:1048D000704721B1828942F40052828104E08289CA
:1048E0004DF6FF731A40828170471AB1838A0B43D9
:1048F000838202E0838A8B438382704770B50246CD
:104900000024002300250020A1F510666A3E00D196
:1049100000BFC1F3421501F01F03012606FA03F39D
:10492000012D02D19689334006E0022D02D1168A6C
:10493000334001E0968A33400C12012606FA04F453
:104940001688344013B10CB1012000E0002070BD86
:10495000F0B503460024002600250020A1F51067CD
:104960006A3F00D100BF1846C1F3421401F01F0690
:10497000012707FA06F5012C01D10C3004E0022CC6
:1049800001D1103000E014301AB107682F430760DE
:1049900002E00768AF430760F0BD00002DE9F04773
:1049A00086B005460E460024A24600BFA146002759
:1049B000B08900B100BF2F462C8A4CF6FF7004402E
:1049C000F08804432C82AC894EF6F3100440B08882
:1049D00031890843718908430443AC81AC8A4FF69E
:1049E000FF400440B0890443AC8201A8FEF724F9DB
:1049F0001F48874202D1DDF810A001E0DDF80CA0CD
:104A0000A88910F4004F08D00AEBCA0000EB0A1086
:104A100031684900B0FBF1F807E00AEBCA0000EB8F
:104A20000A1031688900B0FBF1F86420B8FBF0F09F
:104A300004012009642101FB1089A88910F4004FAA
:104A400008D0322000EBC900B0FBF1F000F0070005
:104A5000044308E0322000EB09106421B0FBF1F0C0
:104A600000F00F0004432C8106B0BDE8F087000081
:104A70000038014010B50B46002108E000BF048853
:104A800014F0800FFBD05C5C84804C1CA1B291427E
:104A9000F4DB10BD10B54FF48020FDF707FB10BD0F
:104AA00000B585B002210C48FCF78CF990B10221C9
:104AB0000948FCF793F86A4600210748FCF7A5FA75
:104AC0009DF8090030B96B46142200210348007894
:104AD000FFF772FA05B000BD006400401C00002022
:104AE00001460A461068704700BFFEE770470000A5
:104AF00070B506460C4615460A4800780A49087003
:104B00000A4804658564012108484430FCF718FF11
:104B100005480078FFF7B4FB002104484430FCF757
:104B20000FFF70BD50000020160000200000024062
:104B300010B5032101A0FCF7DDFF10BD5757444716
:104B40005F49525148616E646C65720070B50546EC
:104B50000C46A01E81B2A81CFEF77EFF064628194F
:104B600000223146FEF7AAFC204484B2204670BDE4
:104B70002DE9F0410446E078851D281F81B2A01C74
:104B8000FEF76AFF0646A91E08190021FDF77AFD07
:104B90000746B74202D10120BDE8F0810020FBE7C3
:104BA0002DE9F0470546894617469846089E002499
:104BB0004C2E02DD0020BDE8F0872819012249466D
:104BC000FEF77CFC204484B22046611C8CB22F543A
:104BD0002046611C8CB22E54291932464046FBF700
:104BE0009AFF204484B221462846FFF7AFFF0446CF
:104BF000E0B2E0E737B514460846064B6A46214660
:104C000000F0C8F804466946002000F066FC204623
:104C10003EBD0000DB54000802E008C8121F08C1B6
:104C2000002AFAD170477047002001E001C1121F2D
:104C3000002AFBD1704700002DE9FF5FDDE902206B
:104C4000010DDDF838B0024310D10F9801244CA2B9
:104C5000012808D0002100980F9BC0E90021C0E97D
:104C60000243BDE8FF9F6FEA0B01F4E7A1F2FF31B9
:104C700044F6105041430D140F9801280ED0A5EBB7
:104C80000B00401C4FF000043E4EDFF8FC90B0F1EA
:104C9000000AA04605DACAF1000717E0CBF10000D0
:104CA000F0E7074612E0F80707D0224633464046B1
:104CB0004946FBF758FB8046894622463346104654
:104CC0001946FBF750FB04460E467F10002FEAD131
:104CD000DDE90201BAF1000F42464B4602DAFBF76A
:104CE00042FB01E0FBF7B1FB04460E460022274BD6
:104CF000FBF788FD03D84FF0FF30014607E00022A4
:104D0000234B20463146FBF787FAFBF762FD102460
:104D100009E0002C0ADB0A220023FBF763FC019B5D
:104D200030321A55641E50EA0102F2D1641C019A15
:104D3000C4F1110314440F9A012A09D00122084337
:104D400001D15B450FDD4FF0000205F101050DE0DB
:104D5000084303D1A3EB0B056D1E09E000204FF0C3
:104D6000110B0F9088E701DA00226D1E002A83D014
:104D700000980F99C0E90231C0E9004571E70000D1
:104D800030000000000024400000F03F0000F0432D
:104D90000000E03F2DE9FF4F95B09B46894606464F
:104DA000002512E2252878D10024761CF94A2746EE
:104DB000012105943378203B01FA03F0104202D020
:104DC0000443761CF6E730782A2811D06FF02F03C1
:104DD0003078A0F13002092A16D8059A44F002046E
:104DE00002EB820203EB42021044761C0590EFE7CF
:104DF00059F8042B0592002A03DA504244F4005477
:104E0000059044F00204761C30782E2816D116F84E
:104E1000010F44F004042A280DD06FF02F023078DF
:104E2000A0F13003092B09D807EB870302EB4303FA
:104E3000C718761CF3E759F8047B761C30786C2889
:104E40000FD006DC4C2817D068280DD06A2814D162
:104E500004E0742810D07A280FD10DE044F4001437
:104E60000AE044F4801401E044F440147278824271
:104E700002D1761C04F58014761C307866280BD09D
:104E800013DC582877D009DC002875D04528F6D0E7
:104E90004628F4D047281AD19FE118E0632835D07E
:104EA000642879D0652812D197E1702873D008DC86
:104EB0006728F1D069286FD06E280DD06F2806D1F1
:104EC000B5E073282CD0752875D0782874D05A4650
:104ED000179990476D1C76E1C4F30250022809D05F
:104EE00003280DD0D9F8001004280DD00D6009F169
:104EF000040968E1D9F80010EA17C1E90052F6E7A1
:104F0000D9F800100D80F2E70D70F0E719F8041BD6
:104F10008DF8001000208DF80100EA46012003E022
:104F200059F804AB4FF0FF3061074FF0000102D495
:104F30000DE008F101018846B9420FDA8045F8DB3F
:104F40001AF808100029F4D108E008F10101884698
:104F50008142FADB1AF808100029F6D105985B4661
:104F6000A0EB080721463846179A00F09EFA28441D
:104F700000EB080507E04DE02BE10DE01AF8010B0E
:104F80005A4617999047B8F10108F7D25B46214677
:104F90003846179A14E142E00A220092C4F3025202
:104FA0004FF0000A022A08D059F804CB032A4FEA2E
:104FB000EC710AD00DE029E02AE009F1070121F0A7
:104FC0000702F2E802C1914609E00FFA8CFC4FEAB1
:104FD000EC71042A03D14FFA8CFC4FEAEC710029E2
:104FE00007DA0A460021DCF1000C61EB02012D22F8
:104FF00002E0220504D52B228DF80420012203E0D3
:10500000E20701D02022F7E7904653E00A2102E0B0
:1050100010220DE010214FF0000A00910BE0102249
:105020004FF0000A44F004040827009203E008222D
:105030004FF0000A0092C4F30252022A05D059F838
:1050400004CB0021032A08D009E009F1070121F06F
:105050000702F2E802C1914605E01FFA8CFC042A1F
:1050600001D10CF0FF0C4FF00008220722D5702868
:1050700027D0009B83F0100353EA0A0309D15CEAAE
:10508000010206D030228DF804208DF8050002229E
:105090009046009B83F0080353EA0A030AD15CEAB6
:1050A000010201D1620705D530228DF804204FF0AE
:1050B00001087F1E582809D037A003900EA802903F
:1050C00013E040228DF804200122E1E737A0F4E745
:1050D00053466046009AFBF785FA84460398825C43
:1050E0000298A0F10100029002705CEA0100EFD189
:1050F000029806A9A1EB000000F1200A600702D582
:1051000024F4803400E00127574502DDA7EB0A00B4
:1051100000E0002000EB0A01009005984144A0EB5C
:1051200001000590E00306D45B462146179A0598D6
:1051300000F0BBF90544002706E001A85A46C05D0F
:10514000179990476D1C7F1C4745F6DBE0030CD593
:105150005B462146179A059800F0A7F9054404E03C
:1051600030205A46179990476D1C0099481E0090B0
:105170000029F5DC08E0029802995A460078491C9B
:105180000291179990476D1CBAF10001AAF1010A2A
:10519000F1DC6BE109280100303132333435363728
:1051A0003839616263646566000000003031323373
:1051B0003435363738394142434445460000000013
:1051C00000F060F9054406F10106307800287FF40C
:1051D000E9AD19B02846BDE8F08F620700D4062774
:1051E00009F1070222F0070CFCE80223E14603F074
:1051F00000485FEA080C02D00FF27C2C0DE05FEA59
:10520000045C02D50FF2742C07E05FEAC47C02D084
:105210000FF26C2C01E0AFF2700C4FF0FF3823F06E
:105220000043CDF850C065280CD006DC452809D0D5
:1052300046281DD047283ED13EE0662818D0672872
:1052400039D139E00021112F01DB112000E0781C59
:10525000CDE9000106A90EA8FFF7EEFCDDE90F017C
:105260000E9A03910021009207F1010A04914EE089
:105270004FF000400097CDE9011006A90EA8FFF7F6
:10528000DBFCDDE90F0203920E9B11990022DDF891
:105290000CA00093049219B907F1010100EB010A77
:1052A000B7EB0A0004D4C0F1FF3007F1010A049003
:1052B000AAEB0700019046E0012F00DA0127002148
:1052C000112F01DD112000E03846CDE9000106A9CB
:1052D0000EA8FFF7B1FCDDE90F010E9A0391002142
:1052E00004910092BA4621070CD40399514500DA83
:1052F0008A46BAF1010F05DD009AAAF10101515C5D
:10530000302908D0B84202DA10F1040F06DA012180
:10531000CDE9011017E0AAF10101E9E7002805DC59
:10532000049901440491AAEB000102E0411C51459B
:1053300000DD8A460499A0EB010000F10100019014
:105340004FF000400290200704D40198504501DB43
:10535000CDF8048000208DF84F0002980DF14F0722
:10536000B0F1004F25D02B200E9002984FF002088C
:1053700000280CDA404202902D200E9007E00A210E
:105380000298FBF719F93031029007F8011DB8F1C6
:105390000001A8F10108F2DC02980028EFD1791E83
:1053A0000E980870307800F0200040F0450007F8B3
:1053B000020D12A8A0EB070000F10708149800786E
:1053C00000B1012000EB0A01019801EBE0710598A2
:1053D0004144A0EB0100A0F101000590E00306D4D8
:1053E0005B462146179A059800F05FF8054414982B
:1053F000007820B15A461799904705F10105E0035E
:1054000023D55B462146179A059800F04EF80544CF
:105410001BE00498002807DBDDE90301884203DD77
:105420000098405C179901E0179930205A46904740
:1054300004986D1C401C04900198401E019004D1FA
:105440002E205A46179990476D1CBAF10001AAF117
:10545000010ADEDC05E017F8010B5A461799904760
:105460006D1CB8F10001A8F10108F4DC5B4621468F
:10547000179A0598A4E600002D0000002B000000FC
:10548000200000002DE9F041044600251E46174685
:10549000880405D406E039462020B04705F101050F
:1054A000641EF8D52846BDE8F0812DE9F041044698
:1054B00000251E469046C80301D5302700E020276E
:1054C000880405D506E041463846B04705F1010598
:1054D000641EF8D52846BDE8F0810A68531C0B60AD
:1054E0001070704708B5FDF73BFBFCF7B3FBFCF70A
:1054F000CBFBFCF797FCFCF7EDFBFCF73FFCFCF764
:105500002BFDFEF7F7FA4FF4FA6017A300221849B3
:1055100000901046FEF7BAFB4FF4FA6015A3002284
:10552000164900900120FEF7B1FB4FF4FA6014A376
:105530000022154900900220FEF7A8FB4FF47A6084
:105540000FA30022114900900320FEF79FFB4FF4A8
:105550007A700FA30022114900900420FEF796FBF9
:10556000FEF722FB00BFFEE75461737430000000B9
:10557000F93600085461737431000000E13000080E
:105580005461737432000000BD08000889370008B8
:1055900047657456616C7565000000002539000888
:1055A00000C1814001C0804101C0804100C18140F3
:1055B00001C0804100C1814000C1814001C08041E3
:1055C00001C0804100C1814000C1814001C08041D3
:1055D00000C1814001C0804101C0804100C18140C3
:1055E00001C0804100C1814000C1814001C08041B3
:1055F00000C1814001C0804101C0804100C18140A3
:1056000000C1814001C0804101C0804100C1814092
:1056100001C0804100C1814000C1814001C0804182
:1056200001C0804100C1814000C1814001C0804172
:1056300000C1814001C0804101C0804100C1814062
:1056400000C1814001C0804101C0804100C1814052
:1056500001C0804100C1814000C1814001C0804142
:1056600000C1814001C0804101C0804100C1814032
:1056700001C0804100C1814000C1814001C0804122
:1056800001C0804100C1814000C1814001C0804112
:1056900000C1814001C0804101C0804100C1814002
:1056A00000C0C101C30302C2C60607C705C5C404C2
:1056B000CC0C0DCD0FCFCE0E0ACACB0BC90908C832
:1056C000D81819D91BDBDA1A1EDEDF1FDD1D1CDC22
:1056D00014D4D515D71716D6D21213D311D1D01092
:1056E000F03031F133F3F23236F6F737F53534F482
:1056F0003CFCFD3DFF3F3EFEFA3A3BFB39F9F838F2
:1057000028E8E929EB2B2AEAEE2E2FEF2DEDEC2CE1
:10571000E42425E527E7E62622E2E323E12120E051
:10572000A06061A163A3A26266A6A767A56564A441
:105730006CACAD6DAF6F6EAEAA6A6BAB69A9A868B1
:1057400078B8B979BB7B7ABABE7E7FBF7DBDBC7CA1
:10575000B47475B577B7B67672B2B373B17170B011
:105760005090915193535292965657975595945401
:105770009C5C5D9D5F9F9E5E5A9A9B5B9959589871
:10578000884849894B8B8A4A4E8E8F4F8D4D4C8C61
:1057900044848545874746868242438341818040D1
:1057A000C05700080000002074000000184C0008DA
:1057B00034580008740000202C8C0000284C00088D
:1057C00000000000010203040102030406070809A7
:1057D00002040608FFFF0A0A00000000FFFF30FF76
:1057E000FFFF0000000000000000000000000000BB
:1057F00000000000000000000000000000000000A9
:105800000000000000000000000000000000000098
:1058100000000000000000000000000000FF00FF8A
:10582000FFFF00000000000000000000000000007A
:045830000000000074
:0400000508000131BD
:00000001FF
