:020000040800F2
:1000000010A2002045010008A5420008352B000879
:100010006D3F0008BB0D00081188000800000000BB
:10002000000000000000000000000000E155000892
:10003000F515000800000000A5430008F75C000863
:100040009988000831430008915D00088951000833
:10005000C11E000819510008F11C00085F010008CA
:10006000211D0008411D0008611D00085F010008F6
:10007000B5110008DD1100085F0100085F010008EC
:100080005F010008051200085F0100085F01000819
:100090005F010008C10D0008E10D0008811D000886
:1000A000E15D0008455E0008215E0008015E000871
:1000B0005F0100085F010008655E00084536000822
:1000C000253600088536000865360008C15100084D
:1000D000DD510008C97F00081D8000087D800008F0
:1000E000FD1C00083551000871860008B95E000843
:1000F0001D5F0008F95E0008D95E0008790B000852
:10010000751F00085F010008815E0008F9510008B2
:100110005F0100085F0100085F0100089D5E0008A4
:100120002D120008551200087D1200085F0100081A
:10013000DFF80CD000F058FC00480047719200082E
:1001400010A200200648804706480047FEE7FEE769
:10015000FEE7FEE7FEE7FEE7FEE7FEE7FEE7FEE777
:10016000315D00083101000830B505462A460B46CE
:1001700012F8010B13F8014B08B1A042F8D01CB1E2
:10018000002802D06D1CF1E7284630BDF0B480EAAB
:100190000102D40F4200B2EB410F02D202460846E0
:1001A00011464A0042D0C30DDDB2C1F3C752AD1AA9
:1001B000202D35DAC1F3160141F4000204B1524298
:1001C000C5F1200602FA06F12A411044B3EBD05FD4
:1001D00023D0C4B1012DA0EBC35009DCF0BC4FF01B
:1001E000004202EAC35200F50000DBB200F057BB48
:1001F000400000F1807000EBC350A0F1807040EA35
:10020000D170490009E0490841EAC071A0EBC35030
:1002100000F50000400800EBC350F0BC00F036BB16
:100220006142012202EB4101001BF6E7F0BC70477E
:1002300081F00041AAE780F00040A7E780EA0102D0
:1002400010B502F00043400026D04A0023D04FEA08
:10025000106101EB1261C0F35600C2F3560240F484
:10026000000042F40002A0FB0220A1F17F014FEA4E
:100270000040140401D000F1010050EA124001D402
:100280004000491EC2B20C0604EBD010401C4008CE
:10029000802A02D003E0002010BD20F001000029D8
:1002A00000DA0020184310BD30B480EA010202F0E9
:1002B000004530F0004221F0004015D0A0B1C0F35D
:1002C000C753C2F3C754C2F31601C0F31600E41AB1
:1002D00041F4000140F400027D34914201D3641CDA
:1002E00000E04900002C02DA30BC002070474FF4D7
:1002F00000000023914201D3891A034340084FEACA
:100300004101F7D151B1914202D14FF0004105E0D6
:1003100002D24FF0010101E06FF0010103EBC45084
:10032000284430BC00F0B2BA2DE9FE4F804681EA85
:100330000300C00F0C46009021F0004123F000455F
:10034000B8EB0200A94105D24046214690461C4622
:100350000B46024623F00040104304D1404621469C
:1003600003B0BDE8F08F270DC7F30A00C3F30A51AD
:100370000290401A0190402866DAC3F3130040F45B
:10038000801B0098924620B10023D2EB030A63EB56
:100390000B0B01985946C0F14002504600F045FA57
:1003A00006460D4650465946019A00F05DFA10EB9C
:1003B00008006141002487EA115284EAE7731A4376
:1003C0003BD0009A3AB3019A012A4FEA075210DC57
:1003D000001B61EB02014FF0004202EA0752CDE937
:1003E0000042001C41F5801132462B4600F091FA84
:1003F000B6E7001B61EB0201001C41F580130018F9
:100400005B412018A2F5001747EB030140EAD570C5
:10041000B6196D4111E06D084FEA360645EAC07520
:100420004FEA0752001B61EB0201001C41F58011ED
:1004300049084FEA30000019514132462B4603B0BB
:10044000BDE8F04F00F058BA0098012240000023A8
:10045000D0EB020263EBE073009821464FEAE074B0
:10046000B8EB000061EB0401E9E783F000435BE7D0
:1004700081F0004158E72DE9FE4F81EA030404F0C2
:10048000004421F0004100944FF0000B23F00043A2
:1004900050EA010402D052EA030404D100200146CC
:1004A00003B0BDE8F08FC3F30A54C1F30A552C44DE
:1004B000A4F2F3340194A0FB0254C1F3130141F4FC
:1004C0008011C3F3130343F4801301FB024400FBC8
:1004D000034E840A970A44EA815447EA8357A4FBEF
:1004E000076802958D0A05FB07854FEA932C04FBEC
:1004F0000C542705029D4FEA065847EA1637B5EB1C
:1005000008056EEB070C870E920E47EA811742EA48
:100510008312A7FB0201B6EB0B0164EB00042B0D69
:1005200043EA0C335E1844EB1C50DA465146E7FBB5
:100530000201C5F313044FEA0B3343EA14534FEAA5
:100540000432019C43EA0603A4F10C040294009CCB
:10055000CDE900B400F0DDF9A2E72DE9F04D81EA24
:10056000030404F0004B21F0004514464FF0000A4C
:1005700023F0004150EA050220D054EA01021DD0C8
:10058000C5F30A570246C5F31303C1F31300C1F3C1
:100590000A5640F4801543F48013A7EB0608101B9D
:1005A000D64608F2FD3873EB050002D308F10108C6
:1005B00001E092185B41B8F1000F03DA0020014618
:1005C000BDE8F08D00204FF48011064684460EE011
:1005D000171B73EB050705D3121B63EB05030643DB
:1005E0004CEA010C49084FEA300092185B4150EA8E
:1005F0000107EDD152EA030012D082EA040083EA37
:100600000501084303D100224FF0004308E0101B0E
:10061000AB4102D20122002302E06FF0010253102D
:100620001AEB06004CEB085110EB0A0041EB0B01F2
:10063000BDE8F04D00F060B9C10F80EAE0700844F9
:10064000CA079623002100F02AB9962300221146FA
:1006500000F025B900F0004220F00040C10DC0F3C9
:10066000160040F400007F2901DA00207047962927
:1006700003DCC1F19601C84001E096398840002AA8
:10068000F4D04042704720F00040C10DC0F3160086
:1006900040F400007F2901DA00207047962903DC2E
:1006A000C1F19601C840704796398840704770B5CF
:1006B000C1F30A5201F000450024C1F3130140F2D6
:1006C000FF3341F480119A4201DA002070BD40F2FC
:1006D00033439A42A2F2334203DC524200F0B4F8B0
:1006E00000E090402C43F1D0404270BD00F0004249
:1006F00030F000400AD0C10D01F56071C0F3160062
:1007000042EA0151C20840071143704700200146E8
:100710007047000030B5002904DB4FF00044404230
:1007200064EB0101002B04DB4FF00044524264EB08
:100730000303994208BF904230BD000001F000431E
:1007400030B421F0004150EA010206D00A0DA2F5B2
:100750006072C1F31301002A02DC30BC0020704734
:10076000440F44EAC104C100E01830BC00EBC250A1
:1007700000F08CB8002801DBC0F10040002901DB4B
:10078000C1F1004181427047002801DBC0F1004007
:10079000002901DBC1F100418842704730B50B46AA
:1007A000014600202022012409E021FA02F59D42A1
:1007B00005D303FA02F5491B04FA02F52844151E75
:1007C000A2F10102F1DC30BD2DE9F05F0546002009
:1007D00092469B4688460646814640241BE02846B2
:1007E00041464746224600F02FF853465A46C01A63
:1007F000914110D311461846224600F016F82D1AE2
:1008000067EB01084F4622460120002100F00DF859
:1008100017EB00094E41201EA4F10104DFDC48461D
:1008200031462A464346BDE8F09F202A04DB203AA1
:1008300000FA02F1002070479140C2F1200320FA33
:1008400003F3194390407047202A04DB203A21FA31
:1008500002F00021704721FA02F3D040C2F12002D9
:100860009140084319467047202A06DBCB17203AEF
:1008700041FA02F043EAE07306E041FA02F3D040A5
:10088000C2F1200291400843194670470029A8BFD1
:100890007047401C490008BF20F00100704710B4A9
:1008A000B0FA80FC00FA0CF050EA010404BF10BC5E
:1008B000704749B1CCF1200421FA04F411FA0CF18B
:1008C00018BF012121430843A3EB0C01CB1D0106F6
:1008D000000A002BBEBF002010BC704700EBC350C5
:1008E00010440029A4BF10BC7047401C490008BF39
:1008F00020F0010010BC704710B5002B08DA401C36
:1009000041F1000192185B411A4301D120F001002E
:1009100010BD2DE9F04D92469B4611B1B1FA81F21E
:1009200002E0B0FA80F220329046FFF77EFF0446E4
:100930000F4640EA0A0041EA0B0153465A46084373
:1009400003D120463946BDE8F08D114653EA010037
:1009500015D0C8F140025046FFF776FF05460E4617
:10096000504659464246FFF760FF084301D0012038
:1009700000E00020054346EAE0762C4337430A981E
:100980004FEA4453A0EB08004FEAD4240A304FF05A
:10099000000244EA47544FEAD72502D50020014619
:1009A000D1E7010510196941DDE9084500196941E0
:1009B000BDE8F04DA0E7C1F30A52C1F3130140F2C4
:1009C000FF3341F480119A4202DA00200146704759
:1009D00040F233439A42A2F2334202DC5242FFF722
:1009E00033BFFFF722BF0000064C074D06E0E0686A
:1009F00040F0010394E8070098471034AC42F6D366
:100A0000FFF79AFB709900089099000882B02DE9D1
:100A1000FF1FEFF3038001B4684600F1400000E9D6
:100A200001400C480168C1F800D00B48D0F800D054
:100A300001BC80F30388BDE8FF1F01B000BD06487C
:100A4000D0F800D001BC80F30388BDE8FF1F01B0DF
:100A500000BD0000500000204C00002008B501211E
:100A6000084604F0AFFA01214FF4047004F0CAFA0A
:100A70001020ADF8000000208DF803006946024800
:100A800001F090FB08BD00000010014010B50446C5
:100A9000FFF7E4FF204600F001F810BD10B590B05C
:100AA0000446334800F00AFC3248059006940020C2
:100AB000079001200890002009900A904FF4807060
:100AC0000B9080000C9020200D9000020E900020D2
:100AD0000F9005A9264800F097FC0121244800F05A
:100AE000E1FB002000908DF8040001208DF8050046
:100AF0004FF4602002900020039001208DF8100038
:100B000069461C484C3800F06FF84FF4404004F040
:100B10004DFA052301220E2116484C3800F08CF8BE
:100B2000012114484C3800F040F8012111484C389C
:100B300000F030F80F484C3800F0DAF800BF0D48EC
:100B40004C3800F047F80028F9D10A484C3800F03A
:100B5000DFF800BF07484C3800F032F80028F9D120
:100B6000012104484C3800F0C8F810B010BD000056
:100B7000080002404C24014010B5032101A000F000
:100B800061FC10BD414443335F49525148616E647A
:100B90006C65720021B1826842F00102826003E05C
:100BA000826822F001028260704721B1826842F4BB
:100BB0008072826003E0826822F4807282607047F3
:100BC000014600208A6812F0040F01D0012000E0E5
:100BD00000207047014600208A6812F0080F01D0FB
:100BE000012000E00020704730B5024600200023BD
:100BF00050680F4C20400D790C6844EA05242043CE
:100C0000506090680B4C2040D1E902542C434D7940
:100C100044EA450420439060D06A20F470000C7CC4
:100C2000641EE4B2234340EA0350D06230BD0000AA
:100C3000FFFEF0FFFDF7F1FFF0B504460D46002082
:100C40000021092D11DDE068A5F10A0606EB460733
:100C5000072606FA07F18843A5F10A0606EB4606C1
:100C600003FA06F10843E0600CE0206905EB450754
:100C7000072606FA07F1884305EB450603FA06F155
:100C800008432061072A0FDA606B561E06EB8607C1
:100C90001F2606FA07F18843561E06EB860605FA5C
:100CA00006F10843606322E00D2A0FDA206BD61F9D
:100CB00006EB86071F2606FA07F18843D61F06EBC8
:100CC000860605FA06F10843206310E0E06AA2F107
:100CD0000D0606EB86071F2606FA07F18843A2F1E8
:100CE0000D0606EB860605FA06F10843E062F0BD44
:100CF000816841F008018160704721B1826842F447
:100D0000A002826003E0826822F4A0028260704741
:100D1000816841F0040181607047000010B5012135
:100D20000C4801F016FB0A2006F070FD012109486D
:100D300001F00DFB282006F069FD0121054801F0B6
:100D400008FB0A2006F062FD0121024801F0FFFACB
:100D500010BD0000000C014006E04FF47A7100BFA6
:100D60000A00A1F10101FBD10200A0F10100F4D1C0
:100D700070470146081100EB4000A1EB4000C0B2F3
:100D80007047F0B5034600201C460D46104603E0B0
:100D900014F8016B05F8016B1600A2F10107BAB255
:100DA000F6D1F0BD30B5034601E003F8011B140095
:100DB000A2F10105AAB2F8D130BD00BFFEE70000E4
:100DC00010B5032101A000F03DFB10BD43414E31A1
:100DD0005F5258315F49525148616E646C657200D0
:100DE00010B5032101A000F02DFB10BD43414E3191
:100DF0005F5343455F49525148616E646C657200B0
:100E00002DE9F04105460E46334803F0F3F8A842B9
:100E100002DC0020BDE8F08105EB45002E4901EB26
:100E20008004142231462D4807F0F7FB207A092868
:100E300031D008DC02280DD0042835D0052821D077
:100E4000062846D114E00B2809D0182832D01A28D9
:100E50003FD138E0606808B16068804739E03046CB
:100E600001F094FD0746FFF70EFC6168087030E062
:100E7000304601F08BFD0746FFF7ECFB40B261689E
:100E8000087026E0304601F081FD0746FFF7FBFBC6
:100E9000616808801DE0304601F078FD0746FFF7E5
:100EA000F2FB6168086014E0304601F06FFD616894
:100EB00008600EE06068007808B9012000E00020BA
:100EC0006168087005E0627A30466168FFF759FF93
:100ED00000BF00BF01209DE7689500080044004066
:100EE00070B504460D460A4803F084F8A04201DCC0
:100EF000002070BD04EB4400054A02EB8001284647
:100F000002F078FF284601F0A3FDC6B23046F0E7B4
:100F10006895000802E0002200F8012B0A00A1F108
:100F2000010399B2F7D1704710B5002400F078F8AA
:100F300004E0601CC4B2012000F034F84FF40071EA
:100F40000F4801F0FBF908B1642CF2DB642C01DBE3
:100F5000012010BD002404E0601CC4B2012000F098
:100F600021F84FF40071064801F0E8F908B9642C43
:100F7000F2DB642C01DB0120EBE70020E9E7000055
:100F8000000C0140002107E042F6E06100BF0A00CA
:100F9000A1F1010399B2FAD10200A0F1010398B2C4
:100FA000F2D17047002106E0072100BF0A00A1F13D
:100FB000010399B2FAD10200A0F1010398B2F3D172
:100FC000704700002DE9F04105460F462C78C4EB30
:100FD000042084B26878204484B214F4004F10D006
:100FE00024F400442046FFF730FB06460B49304608
:100FF000FFF75AF9064631460020FFF719F9064671
:1010000008E02046FFF721FB064604493046FFF77B
:101010004BF906463E60BDE8F0810000000020412B
:1010200008B54FF40070ADF8000003208DF8020001
:1010300048208DF803006946014801F0B3F808BD67
:10104000000C014008B54FF40070ADF8000003201B
:101050008DF8020010208DF803006946014801F068
:10106000A1F808BD000C01402DE9FC4105460F46E2
:1010700000F08AF8FFF758FF30B101211AA000F004
:10108000E1F90020BDE8FC81002405E000F06CF8E7
:101090000DF80400601CC4B2052CF7DB9DF80000BD
:1010A0009DF8011008449DF8021008449DF80310B3
:1010B0000844C6B29DF80400B04204D103210DA03B
:1010C00000F0C0F905E001210DA000F0BBF90020FF
:1010D000D8E739466846FFF775FF29460DF102004B
:1010E000FFF770FF0020CDE7BCECB2E2CAA7B0DC8E
:1010F00000000000D0A3D1E9B3C9B9A600000000E8
:10110000D0A3D1E9CAA7B0DC0000000010B50024CC
:1011100004E0601CC4B20120FFF744FF4FF40071EB
:10112000104801F00BF908B1642CF2DB002404E054
:10113000601CC4B20120FFF735FF4FF4007109486D
:1011400001F0FCF808B9642CF2DB2320FFF72AFF3A
:101150004FF40071034801F0F1F808B1012010BD0F
:101160000020FCE7000C014070B50024002506E0DB
:101170006006040EFFF7CAFF0443681CC5B2082DC1
:10118000F6DB204670BD000010B5FFF75BFF4FF4A3
:101190000071074801F0DBF80A20FFF7F3FE4FF477
:1011A0000071034801F0D5F85020FFF7FBFE10BD99
:1011B000000C014010B5032101A000F043F910BD5F
:1011C000444D41315F4368616E6E656C325F4952D8
:1011D0005148616E646C65720000000010B5032117
:1011E00001A000F02FF910BD444D41315F4368610B
:1011F0006E6E656C335F49525148616E646C657206
:101200000000000010B5032101A000F01BF910BD83
:10121000444D41315F4368616E6E656C375F495282
:101220005148616E646C65720000000010B50321C6
:1012300001A000F007F910BD444D41325F436861E1
:101240006E6E656C315F49525148616E646C6572B7
:101250000000000010B5032101A000F0F3F810BD5C
:10126000444D41325F4368616E6E656C325F495236
:101270005148616E646C65720000000010B5032176
:1012800001A000F0DFF810BD444D41325F436861BA
:101290006E6E656C335F49525148616E646C657265
:1012A0000000000021B1026842F00102026004E087
:1012B00002684FF6FE731A400260704701684FF6ED
:1012C000FE72114001600021016041608160C160D7
:1012D0004B49884208D14A490839496841F00F0111
:1012E000474A083A51608AE045491431884208D19A
:1012F00043490839496841F0F001414A083A5160D0
:101300007DE03F492831884208D13D490839496884
:1013100041F470613A4A083A516070E038493C3112
:10132000884208D136490839496841F47041344A45
:10133000083A516063E032495031884208D130495F
:101340000839496841F470212D4A083A516056E045
:101350002B496431884208D129490839496841F448
:101360007001274A083A516049E02549783188429E
:1013700008D123490839496841F07061204A083A88
:1013800051603CE01F49884206D1011F096841F0C5
:101390000F01021F116032E01A491431884208D14E
:1013A0001849091F096841F0F001164A121F11601F
:1013B00025E014492831884208D11249091F0968DB
:1013C00041F470610F4A121F116018E00D493C3161
:1013D000884208D10B49091F096841F47041094A44
:1013E000121F11600BE007495031884207D10549AF
:1013F000091F096841F47021024A121F11607047E9
:10140000080002400804024010B50022026847F6B6
:10141000F0739A430C6A8B6823430C6923434C692D
:1014200023438C692343CC6923434C6A23438C6A4E
:1014300023431A430260CB6843600B6883604B68A8
:10144000C36010BD0FB4F0B59FB000240125002685
:1014500050480078FF2801D1012000E000204D49CC
:1014600009784D4A1278914201D1012100E0002112
:1014700008437DD025A81E9005A81E9A249907F040
:1014800077FA00201E9025A81E906946249801F046
:101490008AF9054627E02046611CCCB21DF8000001
:1014A000012804D0022806D0032817D112E01E9884
:1014B00040C81E9016E01E98C01D20F007001E9028
:1014C000D0E900211E9F083710461E97FFF7EFF85E
:1014D000064607E01E9840C81E9003E01E9840C8CC
:1014E0001E9000BF00BF2800A5F10105D3D11E98B2
:1014F00040C81E9000201E9028480078FF2801D187
:10150000012000E0002025490978B14201D10121E4
:1015100000E00021084338D02148007810F0010F86
:1015200007D02048007800F0D1FB10B105A800F0EA
:1015300059F805A91CA004F0BDFB1948007810F06B
:10154000020F0DD01949087800F0C0FB40B105A882
:1015500001F07EFA07463A4605A9154807F05DF8FE
:101560000F48007810F0040F0FD01049487800E0C1
:101570000BE000F0ABFB40B105A801F069FA0746AB
:101580003A4605A90B4807F048F81FB0F0BC5DF8D3
:1015900014FB0000780000205C0000207A0000208E
:1015A00079000020280000200D0A000029000020FA
:1015B0000038014000440040FF2001490870704796
:1015C0007800002002480078024908707047000047
:1015D0005C0000207800002001490870704700007E
:1015E0007900002070470000014908707047000032
:1015F0007A000020704701460A2091FBF0F000EBD2
:10160000400001EB4000C0B27047000010B5002060
:101610001A4908704FF4A07002F0C6FC184908601F
:10162000002406E0FF201749085517490855601C9B
:10163000C4B2052CF6DB00241DE000201049096827
:1016400001EB4411486103200D49096801EB441185
:10165000087200200A49096801EB44110861084931
:10166000096801EB4411C8600549096801EB4411A0
:101670008861601CC4B20A2CDFDB10BD6C00002046
:1016800070000020290000202E00002038B5002422
:101690003CE02048006800EB44100068002833D08C
:1016A0001C48006800EB4410C079012804D00228CF
:1016B0001ED0032827D110E00320009015480068B1
:1016C00000EB4410C3691348006800EB4410214646
:1016D000026811A0FFF7B6FE15E00E48006800EBA7
:1016E000441003232146026811A0FFF7ABFE0AE075
:1016F0000848006800EB44100323214602680CA050
:10170000FFF7A0FE00BF00BF601CC4B20A2CC0DB04
:1017100038BD0000700000204465766963655B2574
:10172000645D4E616D653A25735B25645D00000064
:101730004465766963655B25645D4E616D653A2538
:10174000730000002D4800782D4908702B48007860
:10175000401C2A4908702A4800782A490968284A02
:10176000127801EB4211087127A126480068244A2B
:10177000127800EB42100160002022490968204ADB
:10178000127801EB4211487102201E4909681C4A77
:10179000127801EB4211C87101211A480068184AF9
:1017A000127800EB42100172184816490968144A71
:1017B000127801EB42114861154912480068104A3D
:1017C000127800EB4210C16100210E4800680C4AFB
:1017D000127800EB4210C16000200A490968084AEB
:1017E000127801EB42110861002106480068044AA2
:1017F000127800EB42108161704700006C000020FD
:101800007C0000207000002043545200B9220008E0
:10181000BC9400082C4800782C4908702A480078AD
:10182000401C294908702948007829490968274A35
:10183000127801EB4211087126A125480068234A5D
:10184000127800EB421001600020214909681F4A0C
:10185000127801EB4211487103201D4909681B4AA7
:10186000127801EB4211C871012119480068174A2A
:10187000127800EB42100172184815490968134AA2
:10188000127801EB421148610021114800680F4AAB
:10189000127800EB4210C1610D4800680B4A1278C3
:1018A00000EB4210C160002009490968074A12781C
:1018B00001EB42110861002105480068034A1278D3
:1018C00000EB4210816170476C0000207F00002017
:1018D000700000204854313632310000C92A000817
:1018E0002D4800782D4908702B480078401C2A4963
:1018F00008702A4800782A490968284A127801EBBA
:101900004211087127A126480068244A127800EB8A
:1019100042100160002022490968204A127801EB38
:101920004211487102201E4909681C4A127801EBD5
:101930004211C87101211A480068184A127800EB58
:1019400042100172184816490968144A127801EBCE
:1019500042114861154912480068104A127800EB9C
:101960004210C16100210E4800680C4A127800EB59
:101970004210C16000200A490968084A127801EB48
:1019800042110861002106480068044A127800EB01
:1019900042108161704700006C0000207D00002033
:1019A0007000002053494700B92200080495000840
:1019B00070B50546284606F0D3FC04465F48005D36
:1019C000FF2808D15E4800785C4908555C480078DB
:1019D000401C5B4908705BA05849095D5B4A12686E
:1019E00002EB4111086000205449095D574A126812
:1019F00002EB4111487101205049095D534A1268B8
:101A000002EB4111C87103204C49095D4F4A12682D
:101A100002EB411108724E484849095D4B4A126871
:101A200002EB411148614548005D4849096801EBF6
:101A30004010C46147494148005D444A126802EBC6
:101A40004010C16044483D49095D404A126802EBBC
:101A50004111086100213948005D3C4A126802EBDF
:101A60004010816100203D4921F814004FF4967028
:101A700002F09AFA3A4941F82400284606F070FC30
:101A800004463848005DFF2808D12D4800783549C4
:101A900008552B480078401C2949087029A0314975
:101AA000095D2A4A126802EB4111086000202D49A5
:101AB000095D264A126802EB41114871012129484B
:101AC000005D224A126802EB4010C17103202549D3
:101AD000095D1E4A126802EB411108721C49214837
:101AE000005D1A4A126802EB401041611D48005D1A
:101AF0001649096801EB4010C46116481949095D8F
:101B0000124A126802EB4111C86013481549095D79
:101B10000E4A126802EB4111086100201149095D6B
:101B20000A4A126802EB411188614FF4967002F084
:101B30003BFA0D4941F8240070BD00002E00002042
:101B40006C00002055534152547800007000002072
:101B500025810008E985000809850008CC000020DF
:101B6000A400002029000020B800002028480078A8
:101B70002849087026480078401C2549087026A08E
:101B800027490968234A127801EB421108600020B6
:101B9000234909681F4A127801EB4211487103205A
:101BA0001F4909681B4A127801EB4211C8710121D3
:101BB0001B480068174A127800EB4210017219485E
:101BC00017490968134A127801EB42114861002154
:101BD000134800680F4A127800EB4210C1611249A5
:101BE0000F4800680B4A127800EB4210C1600F49A1
:101BF0000B480068074A127800EB42100161002090
:101C000007490968034A127801EB4211886170475D
:101C10006C00002091000020513235513136000017
:101C200070000020A15300086F8800085B8800083E
:101C300010B503211DA0FFF705FC002433E0224866
:101C4000006800EB4410406958B31F48006800EB7F
:101C50004410C079012804D0022815D003281FD1D0
:101C60000BE0194A126802EB4412107F164A126800
:101C700002EB44125169884712E01349096801EBED
:101C80004411486980470BE00F4A126802EB441286
:101C9000D0690D4A126802EB44125169884700BFAF
:101CA00000BF601CC4B20A2CC9DB10BD546F732086
:101CB00044657669636520496E69742E2E2E2E2E3A
:101CC0002E2E2E2E2E000000700000200146FF292F
:101CD00001D1002070470548006800EB41104069C1
:101CE00008B90020F6E70120F4E7000070000020AA
:101CF000012000F055F802F047F8000010B503216C
:101D000001A0FFF79FFB10BD4558544931355F31A5
:101D1000305F49525148616E646C6572000000008A
:101D200010B5032101A0FFF78DFB10BD45585449A4
:101D3000325F49525148616E646C65720000000068
:101D400010B5032101A0FFF77DFB10BD4558544994
:101D5000335F49525148616E646C65720000000047
:101D600010B5032101A0FFF76DFB10BD4558544984
:101D7000345F49525148616E646C65720000000026
:101D800010B5032101A0FFF75DFB10BD4558544974
:101D9000395F355F49525148616E646C657200006D
:101DA00001490860704700001404014000212349E4
:101DB0008279002A3AD00A46126803689A430B4691
:101DC0001A600A1D126803689A430B1D1A60027993
:101DD00011440A6803681A430A60184A08321268F4
:101DE00003689A43154B08331A601A1D126803687A
:101DF0009A43124B0C331A604279102A0ED11A1FE3
:101E0000126803681A430D4B08331A601A1D1268D2
:101E100003681A43094B0C331A600DE007494279F5
:101E200011440A6803681A430A6005E00279114404
:101E30000A6803689A430A60704700000004014082
:101E400030B5044604254FF4302000F07FF80546F5
:101E5000042D17D10C48006940F002000A490861BE
:101E600008464461006940F0400008614FF43020AA
:101E700000F06CF805460448006941F6FD71084021
:101E800001490861284630BD0020024004200B496A
:101E9000C96811F0010F01D001200EE00749C9689F
:101EA00011F0040F01D0022007E00449C96811F0C5
:101EB000100F01D0032000E00420704700200240F2
:101EC00010B5032101A0FFF7BDFA10BD464C4153E8
:101ED000485F49525148616E646C657200000000B1
:101EE0000348006940F08000014908617047000024
:101EF0000020024070B504460D460426F00200F0B2
:101F000025F80646042E11D10948006940F0010069
:101F1000074908612580F00200F018F806460448D9
:101F2000006941F6FE71084001490861304670BD04
:101F30000020024002480349486003484860704757
:101F40002301674500200240AB89EFCD00B5024672
:101F50000423FFF79BFF034603E0FFF797FF0346C9
:101F6000521E012B01D1002AF7D102B905231846D0
:101F700000BD000010B5032101A0FFF763FA10BDFA
:101F800046534D435F49525148616E646C6572001F
:101F900070B50B46044603E014F8015B03F8015BDF
:101FA0001500A2F10106B2B2F6D170BD2DE9F047DD
:101FB0000646884614460027C146FFF7BBFF204669
:101FC000E11704EBD151C1F34F27E11704EBD151D5
:101FD0004912B4EB412101D0781C87B2002507E0FB
:101FE0004FF4007101FB0760FFF72AFF681C85B200
:101FF000BD42F5DB002508E039F8021B2A466B1CC0
:102000009DB206EB4200FFF775FF2000A4F101012D
:102010008CB2F1D1FFF764FFBDE8F08701460A46B4
:102020001068704713B50246042301A903E011F8B4
:10203000010B02F8010B1800A3F10104E3B2F6D181
:1020400004201CBD70B504460025107820B1167818
:102050002068B0FBF6F085B2206808442060107854
:10206000984203DA1078401C107002E02068401B90
:10207000206016782068B0FBF6F080B270BD0FB417
:1020800038B5044606A800902046009A059906F047
:102090006FFC0020009038BC5DF814FB10B50446BE
:1020A0002948844208D10121042002F0BBFF00210D
:1020B000042002F0B7FF46E02448844208D1012101
:1020C000082002F0AFFF0021082002F0ABFF3AE049
:1020D0001F48844208D10121102002F0A3FF0021F3
:1020E000102002F09FFF2EE01A48844208D10121FF
:1020F000202002F097FF0021202002F093FF22E031
:102100001548844208D10121402002F08BFF0021B4
:10211000402002F087FF16E01048844208D10121D8
:10212000802002F07FFF0021802002F07BFF0AE088
:102130000B48844207D10121801502F073FF002172
:10214000A01502F06FFF10BD00080140000C014017
:10215000001001400014014000180140001C014023
:102160000020014030B500228B071C0F0F2303FA1B
:1021700004F20B4B8C1053F824309343084C8D1011
:1021800044F8253023468C1053F824308C07240F54
:1021900000FA04F42343024C8D1044F8253030BD7E
:1021A000080001402DE9F0410246002500260020EC
:1021B00000230024002791F803C00CF00F0591F8CC
:1021C00003C01CF0100F03D091F802C04CEA0505C3
:1021D00091F800C0BCF1000F31D0146800202BE052
:1021E0004FF0010C0CFA00F3B1F800C00CEA030642
:1021F0009E4220D183004FF00F0C0CFA03F7BC4332
:1022000005FA03FC4CEA040491F803C0BCF1280F62
:1022100006D14FF0010C0CFA00FCC2F814C00AE021
:1022200091F803C0BCF1480F05D14FF0010C0CFA36
:1022300000FCC2F810C0401C0828D1D31460B1F8CB
:1022400000C0BCF1FF0F34DD546800202EE000F127
:10225000080C4FF0010808FA0CF3B1F800C00CEAC2
:1022600003069E4221D183004FF00F0C0CFA03F7B6
:10227000BC4305FA03FC4CEA040491F803C0BCF12A
:10228000280F05D100F1080C08FA0CF8C2F81480E8
:1022900091F803C0BCF1480F07D100F1080C4FF0D2
:1022A000010808FA0CF8C2F81080401C0828CED3A8
:1022B0005460BDE8F081000038B5044636E01D4AA0
:1022C0006068811A904217D009DC1B4940180DD074
:1022D000B0F5806F0CD0B0F5006F13D10AE0B1F506
:1022E000806F0BD0B1F5006F0CD109E0042509E037
:1022F000082507E0102505E0202503E0402501E042
:10230000802500BF00BF45F00100012102F07AFEE8
:1023100020788DF802002089ADF8000060788DF8F3
:10232000030069466068FFF73DFF0C342078002801
:10233000C5D138BD0014014000F8FEBF02460020A0
:1023400093680B4201D0012000E0002070474161FA
:1023500070470161704700002DE9F04104460D46C9
:10236000012717E00F494FF4967248680021FEF7E5
:1023700019FD2B46322200210B4806F0DDF8C6B2CB
:1023800046B1084948682146FDF7EEFE10B101202C
:10239000BDE8F0813800A7F10101CFB2E2D100BF62
:1023A000F6E70000A4000020004400402DE9F041C1
:1023B00004460D4601271FE013494FF49672486802
:1023C0000021FEF7EFFC2B46322200210F4806F0D9
:1023D000B3F8C6B266B10C4948682146FDF7C4FEA1
:1023E00010B10120BDE8F0814FF47A7005F00EFACB
:1023F0004FF47A7005F00AFA3800A7F10101CFB264
:10240000DAD100BFEEE70000A40000200044004045
:102410002DE9F04104460F4615464FF001081FE034
:1024200014494FF4967248680021FEF7BBFC2B4616
:1024300032220021104806F07FF8C6B286B10D495D
:1024400048682146FDF790FE10B10120BDE8F081FB
:10245000084948683946FDF787FE08B10120F5E7CD
:102460005FEA0800A8F1010101F0FF08D8D100BF20
:10247000ECE70000A40000200044004002461146A2
:1024800023E008782E281FD111F8010C302801DB39
:10249000012000E0002011F8013C392B01DC012370
:1024A00000E0002318420FD04878302801DB0120DB
:1024B00000E000204B78392B01DC012300E00023F1
:1024C000184201D001207047491C08780028D8D153
:1024D00000BFF8E770B5022515E014A1174806F013
:1024E000ACF84FF47A7005F091F9002409E04FF44C
:1024F000FA6213A114A000F037F800B10AE0601CE2
:10250000C4B2032CF3DB2800A5F10101CDB2E4D164
:10251000012070BD052110A0FEF794FF114800694D
:1025200020F010000F4908610020F2E741542B51C0
:1025300049434C4F53450D0A000000000044004041
:10254000434C4F534500000041542B5149535441D3
:1025500054450D0A00000000536F636B6574B6CFDD
:10256000BFAA0000349D002070B504460D461646F3
:102570000A2332462946204600F002F870BD0000CA
:102580002DE9F04105460C4616461F4631E0294626
:102590001B4806F052F81B494FF496724868002118
:1025A000FEF700FC334632220021154805F0C4FF37
:1025B00000F0FF08B8F1000F17D02078212808D1CB
:1025C00010494868611CFDF7CFFD50B90120BDE8F6
:1025D000F0810C4948682146FDF7C6FD08B101208D
:1025E000F5E74FF47A7005F011F94FF47A7005F0C1
:1025F0000DF93800A7F10101CFB2C8D100BFE6E75D
:1026000000440040A400002010B5044600BF05218E
:102610001EA0FEF717FF2048006920F010001E4999
:1026200008612046FFF72AFF40B14FF47A721BA1E0
:102630001BA0FFF799FF50B9012010BD4FF47A722B
:1026400016A11BA0FFF790FF08B90120F5E74FF492
:102650007A7005F0DBF82146194805F0EEFF0422F8
:1026600018A11CA000F088F800B9D0E74FF4FA6078
:1026700005F0CCF805211AA0FEF7E4FE0648006933
:1026800040F01000044908610020D6E7C1ACBDD37A
:10269000B5BD746370000000349D00204F4B0000F6
:1026A00041542B5149444E5349503D300D0A0000CE
:1026B00041542B5149444E5349503D310D0A0000BD
:1026C00000440040414C524541445920434F4E4E36
:1026D00045435400434F4E4E454354204F4B00005A
:1026E000C6F4B6AF536F636B6574B7FECEF1A3AC9F
:1026F000C1ACBDD3B7FECEF1C6F7000070B505463C
:10270000012622E014494FF4967248680021FEF732
:1027100049FB2B4632220021104805F00DFFC4B2C0
:102720009CB10D4948680EA1FDF71EFD28B1052199
:102730000DA0FEF787FE002070BD074822464168C5
:102740000CA001F029FF0120F6E73000A6F10101FD
:10275000CEB2D7D100BFEFE7A40000200044004074
:10276000434C4F5345440000C1ACBDD3B1BBB9D8B5
:10277000B1D50000523A00002DE9F04106460F465F
:10278000144600250BE04FF47A7239463046FFF7C5
:102790003FFE10B10120BDE8F081681CC5B2A54222
:1027A000F1DB0020F7E7F0B504460A4600230020DD
:1027B0000025214633E00E78252E02D10125461C46
:1027C000B0B2012D2AD10E78642E06D1AC461E4639
:1027D0005F1CBBB202F806C000250E78662E07D13A
:1027E0004FF0020C1E465F1CBBB202F806C000256B
:1027F0000E78732E07D14FF0030C1E465F1CBBB240
:1028000002F806C000250E78632E07D14FF0040CA5
:102810001E465F1CBBB202F806C00025491C0E789C
:10282000002EC8D1F0BD0FB438B5044606A80090FC
:102830002046009A059906F09BF80020009020465B
:1028400000F006F9C0B238BC5DF814FB2DE9FF4F6B
:102850008BB0044691469A4600260025AB46B9F156
:10286000420F09D0B9F1440F0CD0B9F1480F0CD088
:10287000B9F14F0F0CD102E04FF0020B08E04FF01E
:10288000080B05E04FF00A0B02E04FF0100B00BF01
:1028900000BF00210C98FDF76DFF09D22D2004F830
:1028A000010B00200C99FDF7C3FC0C90701CC6B204
:1028B0000C98FDF7CFFE07463846FDF7BDFE0090A9
:1028C0000C99FDF7B8FC0C9000BF97FBFBF00BFBDD
:1028D000107000F0FF08B8F1090F02DD08F13700B1
:1028E00001E008F13000C2B22846691CCDB201A94E
:1028F0000A5497FBFBF7002FE7DC7019C6B203E020
:1029000001A8405D04F8010B2800A5F10101CDB23A
:10291000F6D1BAF1000F01DD012000E00020B9F18D
:10292000440F01D1012100E00021084226D0701C93
:10293000C6B22E2004F8010B19E05846FDF77CFEC4
:1029400000900C99FDF77AFC0C900C98FDF79BFE1B
:10295000C5B205F1300004F8010B2846FDF775FEFD
:1029600000900C99FDF767FC0C90701CC6B25FEAF2
:102970000A00AAF1010101F0FF0ADED10020207057
:10298000701CC0B206460FB0BDE8F08F2DE9FC5FA9
:1029900005460026B346B1464FF07E5A44E015F88E
:1029A000014B2D2C01D101263EE02E2C02D14FF0FF
:1029B000010B39E0302C2EDB392C2CDCBBF1000F65
:1029C0000ED11F494846FDF739FC8146A4F130007D
:1029D000FDF732FE07464946FDF7D8FB814623E066
:1029E0005046FDF783FE0746164A174BFDF743FD99
:1029F000CDE90001FDF7A2FE8246A4F13000FDF70B
:102A00001BFE80465146FDF719FC07464946FDF777
:102A1000BDFB814608E026B10C494846FDF70EFC97
:102A200081464846BDE8FC9F28780028B7DC26B1DF
:102A300006494846FDF702FC81464846F2E7000099
:102A4000000020419A9999999999B93F000080BF57
:102A500010B5014600200A4601E0431C98B212F866
:102A6000014B002CF9D110BD002000210CE001EB3E
:102A70004102074B1B6803EB02121289012A01D0A5
:102A8000421CD0B24A1CD1B21429F0DB70470000BE
:102A9000640000200246002039B950784FF6FF73D9
:102AA00003EA00201378184306E010784FF6FF730E
:102AB00003EA002053781843704700000149088852
:102AC00070470000E0F7FF1F10B50B48FFF7F4FB5D
:102AD000562000F031F8302000F02EF8002000F0F1
:102AE0002BF80A2000F028F8032000F025F8062033
:102AF00000F022F810BD00001C95000810B500245D
:102B000080210A48FFF71AFC00B902244021074837
:102B1000FFF714FC00B9012401210548FFF70EFC62
:102B2000012800D10424204610BD000000100140FF
:102B30000008014000BFFEE710B504464FF4004115
:102B40000B48FFF704FC032000F044F80421802028
:102B500000F010F80821204600F00CF84FF4004176
:102B60000348FFF7F6FB042000F034F810BD000026
:102B70000010014070B504460D46002624E04FF4D5
:102B800080411348FFF7E3FB032000F023F814F023
:102B9000800F05D04FF400510D48FFF7DAFB04E039
:102BA0004FF400510A48FFF7D2FB032000F012F85F
:102BB0004FF480410648FFF7CCFB6006040E01206D
:102BC00000F008F8701CC6B2AE42D8DB70BD000041
:102BD0000010014000EB400188B200BF0100A0F1ED
:102BE000010290B2FAD1704710B5002400BF12E084
:102BF0000A4A125D02F00F016206100E00F0F0FCAE
:102C0000064A125D1111012202EB4402D0B200F01B
:102C1000E7FC601CC4B2102CEADB10BDF09D002064
:102C20003EB58820BC4908730A4692F8A91092F86C
:102C3000A80000F0CDF9B8490868FDF757FD044633
:102C400022460B46B5A16846FFF719FA684600F020
:102C500057FCB1494868FDF749FD044622460B463A
:102C6000AEA16846FFF70BFA684600F0F1FBAD48ED
:102C7000007940F00200AB4908710846807940F0C5
:102C800001008871A448007BC87301204872A249E2
:102C90008868FDF72BFD04464FF06632A24BFDF726
:102CA00039FD05D29F48407A40F004009D494872A2
:102CB00099498868FDF71AFD04464FF033329B4B63
:102CC000FDF728FD05D29748407A40F0020095496B
:102CD000487291498868FDF709FD04460022944B2B
:102CE000FDF718FD05D28F48407A40F008008D4965
:102CF000487289498868FDF7F9FC04464FF066324E
:102D00008C4BFDF707FD05D28648407A40F0100055
:102D100084494872804890F8AE00632801DA0120A7
:102D200000E000207C4991F8AE10002901DD01216E
:102D300000E00021084206D07A48007940F01000F7
:102D40007849087105E07748007920F0100075494E
:102D50000871714890F8AE00632801DA012000E0A4
:102D600000206D4991F8AE100A2901DD012100E033
:102D70000021084206D06B48007940F020006949E4
:102D8000087105E06748007920F020006549087166
:102D9000614890F8AE00632801DA012000E00020CD
:102DA0005D4991F8AE10142901DD012100E00021F8
:102DB000084206D05B48007940F04000594908714C
:102DC00005E05848007920F0400056490871524803
:102DD000007C10F0100F06D05248807B40F040007D
:102DE0005049887305E04F48807B20F040004D49F2
:102DF00088734948007C10F0030F06D049480079D9
:102E000040F001004749087105E04648007920F08C
:102E10000100444908714048007C10F00C0F06D0B6
:102E20004048407940F001003E49487105E03D4886
:102E3000407920F001003B4948713748007C10F090
:102E4000050F06D03748807B40F0800035498873F5
:102E500005E03448807B20F08000324988732E489A
:102E6000007C10F00A0F06D02E48807B40F0200036
:102E70002C49887305E02B48807B20F020002949ED
:102E800088732548007C10F0800F06D02548007913
:102E900040F004002349087105E02248007920F041
:102EA0000400204908711C4890F8B200FF2806D1A0
:102EB0001C48407B40F040001A49487305E019481F
:102EC000407B20F04000174948731348007C10F005
:102ED000400F06D01348407B20F020001149487372
:102EE00005E01048407B40F020000E4948730A4836
:102EF000007C10F0200F06D00A48807B40F00A00CA
:102F00000849887305E00748807B20F00A000549DE
:102F10008873FFF769FE3EBD349D0020252E326682
:102F20000A000000F09D002066660E4033330F401B
:102F3000000010406666104070B50546002404E0AD
:102F4000002016490855601CC4B2102CF8DB14A0F0
:102F500000F0D6FA052D18D2DFE805F003070B0FB5
:102F6000130011A000F074FA13E011A000F070FA41
:102F70000FE011A000F06CFA0BE011A000F068FA6D
:102F800007E011A000F064FA03E007A000F060FA87
:102F900000BF00BFFFF728FE70BD0000F09D0020BD
:102FA000424F4F540000000054502D3000000000EC
:102FB00030432D310000000055432D320000000049
:102FC00055502D330000000030502D33000000001C
:102FD000F8B504460D460A2095FBF0F100FB1150B0
:102FE0002B49085C8DF800000A2095FBF0F0085C86
:102FF0008DF801000A2094FBF0F100FB11402449F8
:10300000085C8DF802000A2094FBF0F0C6B21EB9ED
:1030100000208DF8030008E0012E03D106208DF872
:10302000030002E00C208DF803001A48007828B154
:103030009DF8000040F010008DF800001548007861
:1030400008B9012000E00020124908709DF8030033
:1030500040F080008DF803009DF8030040F0100060
:103060008DF803009DF80010142000F0A3FA9DF8DD
:103070000110162000F09EFA9DF80210182000F0B2
:1030800099FA9DF803101A2000F094FAF8BD000098
:103090005E950008940000202DE9F04186B00546B9
:1030A000002404E0002047490855601CC4B2102CDD
:1030B000F8DB25B1012D2AD0022D73D14FE0424912
:1030C0008869FDF713FB064632460B463FA103A86D
:1030D000FEF7D5FF3C49C869FDF708FB06463246B6
:1030E0000B463AA16846FEF7CAFF03A800F008FAAB
:1030F000684600F0ADF93348007940F002003149EC
:1031000008710846007940F0010008714AE02E4934
:10311000086AFDF7EBFA064632460B462BA103A8D8
:10312000FEF7ADFF2849486AFDF7E0FA0646324649
:103130000B4626A16846FEF7A2FF03A800F0E0F9BF
:10314000684600F085F91F48807940F001001D496C
:1031500088710846407940F00100487122E01DA1C5
:1031600003A8FEF78CFF184991F8B200FDF76DFA3D
:103170008046FDF7BBFA064632460B4613A1684669
:10318000FEF77DFF03A800F0BBF9684600F060F988
:1031900000200D4908730B48807B40F00A00094964
:1031A000887300BF00BF00200649C873064A92F822
:1031B000A91092F8A800FFF70BFFFFF715FD06B066
:1031C000BDE8F081F09D0020349D0020252E326660
:1031D0000A00000020202000FEB508208B4908735B
:1031E0000A4692F8A91092F8A800FFF7F1FE88A00D
:1031F00000F086F9854991F8B000FDF726FA0646F9
:10320000FDF774FA044622460B4683A16846FEF792
:1032100036FF684600F01CF98148007940F0020052
:103220007F4908710846807940F00100887177482D
:10323000007BC8730120487274498868FDF756FA0C
:1032400004464FF06632774BFDF764FA05D27448B6
:10325000407A40F00400724948726C498868FDF772
:1032600045FA04464FF033326F4BFDF753FA05D25F
:103270006B48407A40F002006949487263498868A7
:10328000FDF734FA04460022684BFDF743FA05D2F5
:103290006348407A40F00800614948725B49886899
:1032A000FDF724FA04464FF06632614BFDF732FA1F
:1032B00005D25B48407A40F01000594948725348A3
:1032C00090F8AE00632806DA5548007940F0100007
:1032D0005349087105E05248007920F01000504928
:1032E00008714A4890F8AE00322806DA4C48007956
:1032F00040F020004A49087105E04948007920F073
:10330000200047490871414890F8AE00142806DAB9
:103310004348007940F040004149087105E04048C9
:10332000007920F040003E4908713848007C10F0D8
:10333000100F06D03A48807B40F04000384988732F
:1033400005E03748807B20F04000354988732F48DE
:10335000007C10F0030F06D03148007940F00100E6
:103360002F49087105E02E48007920F001002C4912
:1033700008712648007C10F00C0F06D028484079D0
:1033800040F001002649487105E02548407920F0C9
:103390000100234948711D48007C10F0050F06D03C
:1033A0001F48807B40F080001D49887305E01C4861
:1033B000807B20F080001A4988731448007C10F04C
:1033C0000A0F06D01648807B40F02000144988730D
:1033D00005E01348807B20F02000114988730B48DA
:1033E00090F8A00010F0200F06D00D48807B40F030
:1033F0000A000B49887305E00948807B20F00A0029
:1034000007498873FFF7F0FBFEBD0000349D0020E4
:103410002D55502D00000000252E32660A000000B8
:10342000F09D002066660E4033330F4000001040D0
:103430006666104070B505460C460448016828468B
:1034400002F064FB265C304670BD00008000002066
:103450007CB5064600243546082200216846FDF763
:10346000A1FC1CE028782E280CD028782349FFF7EF
:10347000E1FF1DF8041008430DF80400601CC4B2FD
:103480006D1C09E06D1C1D492E20FFF7D3FF1DF8B0
:10349000041008430DF80400032C00DD02E0287836
:1034A0000028DFD100BF6D4617E014492E20FFF73A
:1034B000C1FF9DF8011008420ED0032409E0601EF0
:1034C0001DF800000DF804000021601E0DF800102A
:1034D000C4B2002C01DDF2E700E0E6E700BF002403
:1034E00009E015F8011B0A2202EB4402D0B200F0F9
:1034F00061F8601CC4B2042CF3DB7CBD4995000864
:103500007CB5064600243546082200216846FDF7B2
:1035100049FC1CE028782E280CD028782449FFF795
:1035200089FF1DF8041008430DF80400601CC4B2A4
:103530006D1C09E06D1C1E492E20FFF77BFF1DF856
:10354000041008430DF80400032C00DD02E0287885
:103550000028DFD100BF6D46062417E014492E2055
:10356000FFF768FF9DF8011008420ED0032409E020
:10357000601E1DF800000DF804000021601E0DF80B
:103580000010C4B2002C01DDF2E700E0E6E700BF66
:10359000002409E015F8011B0622A2EB4402D0B278
:1035A00000F008F8601CC4B2042CF3DB7CBD000002
:1035B0003495000870B504460D4605F00F0120460D
:1035C00000F00EF82911621CD0B200F009F8204674
:1035D00004EBD0714910014A555470BDF09D002094
:1035E00070B504460D464FF400410D48FEF7AFFE9E
:1035F0000320FFF7EFFA0321A020FFF7BBFAA10693
:10360000080E0621FFF7B6FA2907080E0421FFF776
:10361000B1FA4FF400410248FEF79BFE70BD000076
:103620000010014010B5032101A0FDF70BFF10BDF4
:10363000493243315F45525F49525148616E646C73
:103640006572000010B5032101A0FDF7FBFE10BD5F
:10365000493243315F45565F49525148616E646C4F
:103660006572000010B5032101A0FDF7EBFE10BD4F
:10367000493243325F45525F49525148616E646C32
:103680006572000010B5032101A0FDF7DBFE10BD3F
:10369000493243325F45565F49525148616E646C0E
:1036A0006572000010B504460120A0470320A04722
:1036B00010BD2DE9FF47074616461C46DDE90C897B
:1036C0009DF804004006000E0190002C16DD3846DF
:1036D00000F0C0F8012201A9384600F076F805464E
:1036E00035B93846FFF7DEFF002004B0BDE8F087AB
:1036F00022463146384600F068F80546384600F064
:10370000A9F89DF8040040F001000190012201A9F0
:10371000384600F05AF805464A464146384600F019
:1037200006F80546384600F0ACF82846DDE72DE9F6
:10373000F04704460E461546A94628E04FF000081B
:10374000002714E07806070E0320A0470A2005F0A2
:1037500087FD0520A04708B147F001070420A047D6
:103760000A2005F07DFD08F1010000F0FF08B8F126
:10377000080FE7DB06F8017B002D04DD0021204661
:1037800000F00DF803E00121204600F008F82800C1
:10379000A5F10101CDB2D1D14846BDE8F08770B5A1
:1037A00004460D4615B10120A04701E00220A047C4
:1037B0000320A0470A2005F053FD0420A0470A205B
:1037C00005F04EFD0120A04770BD2DE9F0470446ED
:1037D0000E461546A94639E016F8018B002717E07A
:1037E00018F0800F02D00120A04701E00220A0477E
:1037F0000320A0470A2005F033FD0420A0470A203B
:1038000005F02EFD781CC7B24FEA48604FEA1068F9
:10381000082FE5DB0120A0470320A0470A2005F080
:103820001FFD0520A04782460A2005F019FD04204F
:10383000A0470A2005F014FDBAF1000F04D0A9EB4F
:103840000500C0B2BDE8F087681EC5B2002DC3D127
:103850004846F7E710B504460320A047052005F0C9
:10386000FFFC0120A0470A2005F0FAFC0220A04737
:103870000A2005F0F5FC0420A0470A2005F0F0FC22
:1038800010BD10B504460220A047142005F0E8FC46
:103890000320A0470A2005F0E3FC0120A0471E20DA
:1038A00005F0DEFC10BD2DE9FF47074614461D4616
:1038B000DDE90C899DF804004006000E01903846B1
:1038C000FFF7C8FF012201A93846FFF77EFF064631
:1038D00036B93846FFF7E6FE002004B0BDE8F087B1
:1038E0002A4621463846FFF770FF06464A464146BB
:1038F0003846FFF76AFF06463846FFF7C2FF3046F4
:10390000EBE7000008B50121082001F07BFB08204F
:10391000ADF8000001208DF8020048208DF803006A
:1039200069460848FEF73EFC0420ADF8000001207F
:103930008DF8020010208DF8030069460148FEF75B
:1039400031FC08BD001001402DE9F0410546094950
:103950002846FCF773FC0746FCF795FE86B2A6F5F1
:103960006170322190FBF1F0C4B284F02004204653
:10397000BDE8F081000048437CB504460722694653
:10398000002000F0B1F805460DB900207CBD9DF87F
:10399000001001F07F00FDF7ECF9A0719DF8011017
:1039A00001F07F00FDF7E5F960719DF8021001F06C
:1039B0003F00FDF7DEF920719DF8031001F03F0094
:1039C000FDF7D7F9A0709DF8041001F01F00FDF776
:1039D000D0F960709DF80500FDF7CBF920709DF8D7
:1039E0000600FDF7C6F9E0700120CFE70146002090
:1039F00006291BD2DFE801F01A03070B0F13082278
:103A00000B4B1A6112E00822094B5A610EE00422A6
:103A1000074B1A610AE00422054B5A6106E0044A8A
:103A2000926812F0080F00D0012000BF00BF70475D
:103A30000010014038B50024FFF764FF01226946F9
:103A4000122000F051F804469DF800005D2847D090
:103A50001021072000F0D8F804409021082000F041
:103A6000D3F804401F48FFF76FFF00909DF8001047
:103A70000A2000F0C9F8044000210B2000F0C4F82F
:103A800004405D21122000F0BFF8044000231A46D4
:103A90001946184600F038F804400021084600F0A6
:103AA000B3F804400021012000F0AEF8044080216A
:103AB000022000F0A9F804400121032000F0A4F83E
:103AC00004400121042000F09FF80440002105205B
:103AD00000F09AF804400621084600F095F80440EA
:103AE000204638BD0000C04037B582B00C461546B0
:103AF000012302AA6F210348CDE90045FFF7D9FD54
:103B000005B030BDED3900082DE9F84381460F4678
:103B100090461C4601264046FDF76DFD8DF80000DD
:103B20003846FDF768FD8DF801004846FDF763FD56
:103B30008DF8020014F0010F05D09DF8000040F050
:103B400080008DF8000014F0020F05D09DF80100F0
:103B500040F080008DF8010014F0040F05D09DF8AE
:103B6000020040F080008DF80200002509E01DF8F9
:103B7000051005F10C02D0B200F046F80640681CB2
:103B8000C5B2032DF3DB002C05DDD021082000F0A9
:103B90003BF8064004E09021082000F035F806408C
:103BA0003046BDE8F8837CB50446A079FDF723FDD7
:103BB0008DF800006079FDF71EFD8DF80100207979
:103BC000FDF719FD40F080008DF80200A078FDF7A8
:103BD00012FD8DF803006078FDF70DFD8DF80400EF
:103BE0002078FDF708FD8DF80500002507E01DF899
:103BF0000510E8B200F008F80640681CC5B2072DB1
:103C0000F5DB30467CBD000003B583B0012004A97C
:103C1000034603AACDE900106F210248FFF743FED7
:103C200005B000BDED390008F0B5024600240023C0
:103C300000202EE00D78302D01DB012500E000256D
:103C40000E78392E01DC012600E00026354209D02D
:103C500000EB80054FF6FF7606EA45000D78303D13
:103C60000544A8B20D782E2D04D11D465E1CF3B27A
:103C7000505500200D783A2D04D11D465E1CF3B23C
:103C800050550020491C2546661CF4B2142D00DD59
:103C900002E00D78002DCDD100BF9080F0BD2DE960
:103CA000F04780460D460024002618E018F806006C
:103CB000FCF7CBFC81462819002344224946FEF735
:103CC000C5FD0746E019C4B2032E03D13A21601E98
:103CD000295402E02E21601E2954701CC6B2042E05
:103CE000E4DBB8F80400FCF7B0FC81462819002397
:103CF00044224946FEF7AAFD0746E019C4B2204611
:103D0000BDE8F08770B504460D462B4622460249B1
:103D1000024800F005F870BD00F80308911F000884
:103D20002DE9F0470746884614461D46A14608EB94
:103D3000C52004222146B8474E463088B0F5006FB2
:103D400001DD012000E000203188042901DA012191
:103D500000E00021084300D013E0328808EBC520C2
:103D60002146B8473088001F81B209F1040003F0F2
:103D700045FB82467188514500D002E00120BDE834
:103D8000F0870020FBE7000071B600BF064800681E
:103D900000F4E06005490843001D03490860BFF3D3
:103DA000408F00BF00BFFEE70CED00E00000FA0509
:103DB00030B50246002000BF02F07F03D2090AB1ED
:103DC00043F080030446451CE8B20B55002AF3D1AA
:103DD00030BD70B5054625B1284603F0EDFD04461B
:103DE00002E003F0B3FD044614B16668304670BDCE
:103DF0000020FCE7F0B59DB005460C46607A48B15E
:103E0000627A04A96068FCF7BCFF0020617A04AA0A
:103E1000505403E004A9606801F03AFF207A0C28AE
:103E200037D008DC78D2DFE800F096159696282186
:103E300061969647961A1A2838D006DC0D282FD09E
:103E4000172840D0182867D146E01B2856D01C28D8
:103E5000F9D162E028462168FEF711F980E0606838
:103E6000027828462168FEF70AF979E0606802883E
:103E700028462168FEF703F972E061680868FCF7DC
:103E800035FC06460B46324628462168FEF7F7F811
:103E900066E06068027828462168FEF7F0F85FE087
:103EA0002846D4E90012FEF7EAF859E004AA2846A9
:103EB0002168FEF7E4F853E060680268284621684C
:103EC000FEF7DDF84CE0606880470646324628463B
:103ED0002168FEF7D4F843E060680078224B53F87D
:103EE000202028462168FEF7CAF839E0606890F97A
:103EF000002028462168FEF7C2F831E060680078AB
:103F000061684978CDE9001060688378C2782846F6
:103F10002168FEF7B4F823E01DE06168098888B2E3
:103F200001F046FF03906168098888B201F040FF04
:103F300002906168098888B201F03AFF01909DF80B
:103F40000E0000909DF809309DF804202846216855
:103F5000FEF795F804E028462168FEF790F800BFC8
:103F600000BF1DB0F0BD00008800002000BFFEE7CC
:103F7000054A1168486802E009684A6810440A68FE
:103F8000002AF9D17047000074000020054908603C
:103F90000021044A126811600821024A1268516027
:103FA000704700007400002010B5034610480168F7
:103FB00003F1080083B20FE00868401A4C68001B48
:103FC000984208D3486842185360086810600A6035
:103FD00002F1080010BD096808680028ECD14868A3
:103FE00042180020106053600A6002F10800F1E7F7
:103FF00074000020014600200A4602E00C32431CF7
:10400000D8B2137A002BF9D1704730B5039C7E25C6
:1040100005707F25057382704170C373447330BD92
:104020002DE9F05F06460C4691469A46DDF828B029
:104030000C9F002584F8039084F804A084F808B04D
:10404000678117B1F81CE08001E00020E080227851
:104050002846691C8DB23254E07B50B9A2782846BC
:10406000691C8DB2325462782846691C8DB2325474
:104070000CE0E07B012809D162782846691C8DB2EA
:104080003254A2782846691C8DB23254E278284610
:10409000691C8DB2325422792846691C8DB2325483
:1040A000E08802122846691C8DB23254A279284653
:1040B000691C8DB23254BFB1227A2846691C8DB278
:1040C0003254608902122846691C8DB23254A27A99
:1040D0002846691C8DB23254628971190B98FCF71D
:1040E00050FE6089284485B2607B012810D12946A2
:1040F000304603F083F980464FEA28222846691C9F
:104100008DB232542846691C8DB206F800800BE04F
:10411000607B022808D1681E81B2304603F08EF918
:1041200029466A1C95B27054227B2846691C8DB2C0
:1041300032542846BDE8F09F2DE9F05F06468B46D5
:1041400014460025AA460120A07329466D1C705C08
:104150002178884200D099E0E07B50B92846691C5C
:104160008DB2305C6178884200D093E0681C85B2E3
:1041700020E0E07B01281DD12846691C8DB216F88D
:104180000080A078404501D0012000E00020B8F177
:10419000FF0F01D0012100E00021084200D079E0AA
:1041A000681C85B2B8F1FF0F02D14FF0010901E0A0
:1041B0004FF000092846691C8DB2305CE07028463B
:1041C000691C8DB2305C20712846691C8DB2305C50
:1041D000E080E0884FF6FF7101EA0020E080E0888F
:1041E00029466A1C95B2715C0843E080E08800B300
:1041F0002846691C8DB2305C20722846691C8DB23D
:10420000305C608160894FF6FF7101EA00206081B7
:10421000608929466A1C95B2715C08436081AA4690
:104220006089284485B2E1886089C01C814200D041
:1042300034E0607B022809D12946304603F0FEF8BD
:104240000746715DB94200D01CE010E0607B012898
:104250000CD12946304603F0D1F8074670190121E8
:10426000FEF718FCB84200D00CE000E000BFB9F146
:10427000010F02D10620A07301E00020A073504678
:10428000BDE8F09F0220A0730020F9E70520A0738D
:104290000020F5E70620A0730020F1E70120A073BD
:1042A0000020EDE77047000070B5002100230F22C9
:1042B000C4780CB3164C246804F4E064C4F5E064DC
:1042C000210AC1F10403CA40447804FA03F1847856
:1042D0001440214309010F4C0678A155047804F0DD
:1042E0001F050124AC4005786D114FF0E02606EB68
:1042F0008505C5F8004109E0047804F01F05012494
:10430000AC40054D0678761145F8264070BD00009A
:104310000CED00E000E400E080E100E00249014330
:10432000024A1160704700000000FA050CED00E041
:1043300010B5032101A0FDF785F810BD5056445F6C
:1043400049525148616E646C65720000014908620F
:10435000704700000000424210B5024600200C4B9E
:10436000186820F00300104318600A4B1B6843F0E4
:104370000403084C2360012901D130BF00E020BFB5
:10438000044B1B6823F00403024C236010BD0000A3
:104390000070004010ED00E0014908607047000027
:1043A000A00442427047000010B5032209A10BA0EF
:1043B000FDF748F803220DA110A0FDF743F80322F2
:1043C000124913A0FDF73EF80322164916A0FDF787
:1043D00039F810BD5450353030000000426F617222
:1043E000645F4E616D653A257300000053544D3390
:1043F000324C313531524254360000004350555F43
:104400004D6F64656C3A25730000000000127A005D
:104410004370755F4F53435F465245513A202564C0
:104420004D687A0000A24A044370755F4672657158
:104430003A2025644D687A00704700001FB509488E
:10444000006801900748001D006802900548083088
:10445000006803900320009003A001A90EC9FCF797
:10446000F1FF1FBDE8F7FF1F494320436F64653A22
:1044700025582025582025580000000070470000CE
:1044800010B5032108A0FCF7DDFFFFF78DFFFFF754
:10449000D3FFFFF7D3FFFDF7F9F800F013F8FFF7AC
:1044A000EDFF00F02FF810BD0A546F73205379739D
:1044B00074656D2053746172742E2E2E2E2E2E2E46
:1044C0002E2E2E0010B5FEF7CFFA04460323224607
:1044D000142102A0FCF7B6FF10BD00005461736BFD
:1044E000506F6F6C53697A653A2564206275742049
:1044F000686173202564207461736B206372656149
:1045000074652E0038B500241DE004EB4400154905
:10451000096801EB0010C06A98B10320009004EB19
:1045200044001049096801EB0010038C04EB4400BF
:104530000C49096801EB00102146C26A0AA0FCF789
:1045400081FF601CC4B2142CDFDB601EC4B2FFF715
:104550000FFD054603232A4649F6404107A0FCF714
:1045600071FF38BD640000205461736B5B25645D8E
:104570004E616D653A257328256429004D656D6F80
:10458000727953697A653A2564206275742075736F
:1045900065723A25640000002DE9F04105460E469B
:1045A00017460522294608A0FCF74CFF002407E027
:1045B000325D0523214605A0FCF744FF601C84B250
:1045C000BC42F5DBBDE8F081257300004275665BF7
:1045D00025645D3D307825780000000010B500F0BE
:1045E000F9FA04462CB10522214604A0FCF72AFF63
:1045F00003E0052106A0FCF725FF10BDB7A2CBCD37
:10460000C5E4D6C3D6A1CAA7B0DC5B25645D0000B3
:10461000B7A2CBCDC5E4D6C3D6A1B3C9B9A6000015
:1046200000B599B00948B0F89A3000F17A0208A1B3
:104630006846FDF724FD052269460CA0FCF702FF41
:104640006846FDF7E1FF19B000BD0000349D002071
:1046500041542B51494F50454E3D22544350222C3A
:10466000222573222C25640D0A000000C1ACBDD3A5
:10467000B5BD3A257300000010B54FF47A7229A138
:1046800029A0FDF771FF08B9012010BD00F0DEF888
:10469000284981F8AE00052127A0FCF7D3FE0521AB
:1046A00028A0FCF7CFFE4FF47A7229A129A0FDF7CC
:1046B0005BFF02234FF47A7229A126A0FDF760FF69
:1046C00020B9052127A0FCF7BDFE03E0052127A0A6
:1046D000FCF7B8FE02234FF47A7226A127A0FDF75B
:1046E0004FFF40B1052128A0FCF7ACFE0220114984
:1046F00081F8AF000FE002234FF47A7226A11FA0C9
:10470000FDF73EFF38B1052125A0FCF79BFE0420F4
:10471000084981F8AF00052125A0FCF793FE002091
:10472000B3E700002139390041542B4353510D0A9E
:1047300000000000349D0020BCECB2E9D0C5BAC531
:1047400000000000D5FDD4DAD7A2B2E100000000DD
:104750003000000041542B435245473F0D0A0000F2
:1047600035000000B1BEB5D8BFA80000CDE2B5D875
:10477000BFA800004D4F42494C45000041542B4317
:104780004F50533F0D0A0000D6D0B9FAD2C6B6AF8B
:1047900053494DBFA8000000554E49434F4D0000FE
:1047A000D6D0B9FAC1AACDA853494DBFA800000080
:1047B000D7A2B2E1B3C9B9A60000000070B50546A2
:1047C000002410222146641C6A54FF222146641CE6
:1047D0006A5400222146641C6A5404222146641C47
:1047E0006A54291916A0FCF7CCFA204484B204229A
:1047F0002046611C8CB22A5402222046611C8CB2D5
:104800002A5400222146601C84B26A543C2221466C
:10481000601C84B26A5400222046611C8CB22A5467
:1048200010222046611C8CB22A5429190648FCF734
:10483000A8FA204484B2A01E6870E0B270BD0000E7
:104840004D51545400000000869D002008B5694673
:1048500005A000F015F89DF80010052205A0FCF752
:10486000F1FD9DF8000008BD41542B4353510D0A42
:1048700000000000D0C5BAC5C7BFB6C83A2564005D
:104880002DE9F04780460C460025AA4641462348BC
:1048900003F0D3FE22494FF4967248680021FCF7DA
:1048A00081FA4FF47A73322200211C4803F044FE4F
:1048B00000F0FF09B9F1000F2CD000202070002675
:1048C00026E017484068875D302F01DB012000E0BB
:1048D0000020392F01DC012100E0002108420DD029
:1048E000605D00EB80004006000E6055615DA7F141
:1048F0003000084460554FF0010A07E0BAF1000F9C
:1049000004D0681CC5B2002060558246701CC6B237
:104910004E45D6DB2846BDE8F08700000044004045
:10492000A400002010B54FF480713B48FDF711FD45
:1049300040F24C4002F06AFF052138A0FCF782FDEE
:104940004FF480713448FDF702FD40F24C4002F014
:104950005DFF4FF400513448FDF7FBFC40F24C4042
:1049600002F054FF052131A0FCF76CFD4FF400511B
:104970002D48FDF7ECFC4FF47A7002F047FF4FF43E
:1049800080712C48FDF7DAFC012804D105212AA00A
:10499000FCF758FD01E0012010BD43F2B06002F0C9
:1049A00035FF4FF47A7227A127A0FDF7DDFD08B986
:1049B0000220F1E7052126A0FCF744FD4FF47A70B0
:1049C00002F024FF4FF4FA621EA125A0FDF7CCFDF2
:1049D00008B90320E0E7052123A0FCF733FD4FF4DD
:1049E0007A7218A123A0FDF7BFFD08B90420D3E710
:1049F000052123A0FCF726FDFFF73EFE04462CB15F
:104A00000522214622A0FCF71DFD03E0052124A07C
:104A1000FCF718FD0020BFE700100140CFB5CDB373
:104A2000C9CFB5E700000000000C0140BFAABBFAE7
:104A30000000000000080140BFAABBFAB3C9B9A634
:104A4000000000004F4B000041540D0A0000000020
:104A50004154D6B8C1EED6B4D0D0B3C9B9A600007F
:104A6000415445300D0A0000C9E8D6C3B2BBBBD8DB
:104A7000CFD4000041542B4350494E3F0D0A000053
:104A8000B2E9BFB4CAC7B7F1D3D050494E00000055
:104A9000C1ACBDD3CDF8CAA7B0DC5B25645D000016
:104AA000C1ACBDD3CDF8C2E7B3C9B9A600000000C0
:104AB00010B504464FF47A7002F0A8FE4FF47A72F3
:104AC00020A122A0FDF750FD08B9012010BD8CB92E
:104AD0004FF47A7224A125A0FDF746FD08B9022003
:104AE000F4E74FF47A7220A123A0FDF73DFD08B949
:104AF0000420EBE7012C11D14FF47A721AA123A004
:104B0000FDF732FD08B90320E0E74FF47A7216A1F1
:104B100021A0FDF729FD08B90420D7E74FF47A72E8
:104B200011A121A0FDF720FD08B90520CEE74FF423
:104B30007A720DA122A0FDF717FD08B90620C5E77E
:104B40000020C3E743504D530000000041542B4365
:104B5000504D533D224D54222C224D54222C224D97
:104B600054220D0A000000004F4B000041542B431B
:104B70004D47463D300D0A0041542B435343533DAE
:104B80002255435332220D0A0000000041542B43AA
:104B90004D47463D310D0A0041542B435343533D8D
:104BA0002247534D220D0A0041542B43534D503D93
:104BB00031372C3136372C302C300D0A00000000F4
:104BC00041542B434E4D493D322C312C302C302C4E
:104BD000300D0A0010B5B2B0002440F6B83002F033
:104BE00015FE6846FFF7EAFD0446224616A11A485C
:104BF00003F023FD4FF4FA6118A0FDF7D7FB00B1D5
:104C00000EE04FF4FA6115A0FDF7D0FB00B107E00C
:104C10004FF4FA6111A0FDF7C9FB00B100E000BF3D
:104C2000224669460C4803F0F8FC4FF47A710CA058
:104C3000FDF7BCFB10B9022032B010BD4FF4FA6092
:104C4000FDF75CFD0020F7E741542B514953454ED9
:104C5000443D25640D0A0000004400403E00000071
:104C600053454E44204F4B002DE9F041ADF5007DFA
:104C7000002432222146641C03A842540119C82092
:104C8000FFF796F8044400222146641C03A842540E
:104C900010222146641C425401195F48FCF771F848
:104CA000204484B200222046611C8CB203A90A541D
:104CB00001222046611C8CB203A90A54564952397C
:104CC0000868FBF713FD0746544A554BFBF72CFBCE
:104CD0000546FBF733FD50495239086003A908190E
:104CE00050A1FDF7A0FD204484B24B495239086819
:104CF000FBF7FCFC05460B4603A908192A464EA102
:104D0000FDF791FD204484B2434952394868FBF7CE
:104D1000EDFC05460B4603A908192A4646A1FDF7F6
:104D200082FD204484B23C4952398868FBF7DEFC9E
:104D300005460B4603A908192A463FA1FDF773FD56
:104D4000204484B23449523991F8AE00FBF77DFC1F
:104D50000746FBF7CBFC05460B4603A908192A4674
:104D600035A1FDF760FD204484B22B495239D1F8BA
:104D7000B400FBF7BBFC05460E4627495239D1F873
:104D8000B800FBF7B3FC07460B4603A908193A46DF
:104D90002EA1CDE90056FDF746FD204484B21E4900
:104DA00052398868FBF7A2FC05460B4603A908198F
:104DB0002A462CA1FDF737FD204484B2A01E0DF138
:104DC0000D01FEF7F5FF22460AA9274803F025FC4E
:104DD000224626A1294803F030FC4FF4FA6128A0AE
:104DE000FDF7E4FA20B901200DF5007DBDE8F08162
:104DF000224603A9214803F010FC4FF47A7121A048
:104E0000FDF7D4FA08B90220EEE74FF4FA60FDF797
:104E100075FC0020E8E70000869D00209A9999998A
:104E20009999D93F7B2273656E736F724461746187
:104E300073223A5B000000007B2276616C7565226C
:104E40003A2B252E32667D2C000000007B226C61FF
:104E500074223A252E37662C226C6E67223A252E54
:104E600037667D005D7D00000038014041542B51C4
:104E70004953454E443D25640D0A0000004400405E
:104E80003E00000053454E44204F4B0010B5B2B0D9
:104E90000024C0222146641C0DF801200022214676
:104EA000641C0DF80120224611A1154803F0C5FB32
:104EB0004FF4FA6113A0FDF779FA10B9012032B06E
:104EC00010BD224669460E4803F0A7FB4FF47A71E5
:104ED0000DA0FDF76BFA08B90220F0E74FF4FA6075
:104EE000FDF70CFC08B90020E9E70020E7E7000027
:104EF00041542B514953454E443D25640D0A000051
:104F0000004400403E00000053454E44204F4B00FB
:104F100010B586B004460B2201A91948FBF731FFF2
:104F200000208DF80F0001A8FDF792FD0B2802DA92
:104F3000022006B010BD0120FFF7BAFD01AA11A1A1
:104F4000144803F07AFB052201A913A0FCF77AFAB2
:104F50004FF4FA6112A0FDF729FA08B90120E8E739
:104F600021460C4803F069FB1A210A4803F04CFB68
:104F70004FF47A710BA0FDF719FA2846D9E7000023
:104F8000709D002041542B434D47533D22257322F1
:104F90000D0A0000004400404275665B25735D0009
:104FA0003E000000434D4753000000000146002032
:104FB000034A506820F440400843506070470000A6
:104FC0000010024029B1064A52690243044B5A615B
:104FD00004E0034A52698243014B5A617047000062
:104FE0000010024029B1064AD2690243044BDA613B
:104FF00004E0034AD2698243014BDA617047000042
:105000000010024029B1064A92690243044B9A619A
:1050100004E0034A92698243014B9A6170470000A1
:105020000010024029B1064AD2680243044BDA60FC
:1050300004E0034AD2688243014BDA607047000003
:105040000010024030B500210022002400232D4D25
:105050006D6805F00C0121B1042905D0082923D180
:1050600005E0294D056022E0274D05601FE0254D34
:105070006D6805F47012234D6D6805F480340225C7
:1050800005EB92421CB9214D554305600BE01D4DC7
:105090006D6815F4003F03D01C4D5543056002E0D8
:1050A000194D5543056002E0174D056000BF00BF74
:1050B000144D6D6805F0F0010909154D6B5C05682C
:1050C000DD4045600F4D6D6805F4E061090A104D43
:1050D0006B5C4568DD4085600A4D6D6805F4605184
:1050E000C90A0B4D6B5C4568DD40C560054D6D68B8
:1050F00005F44041890B074D6B5CC568B5FBF3F5C2
:10510000056130BD0010024000127A0000093D0028
:10511000000000201000002010B5032101A0FCF7C2
:1051200091F910BD5243435F49525148616E646C1E
:105130006572000010B5032101A0FCF783F910BDD2
:10514000525443416C61726D5F49525148616E64C3
:105150006C657200024909888143014A11807047D9
:105160000428004001460020064A12880A40D0B2B6
:10517000044A121F12880A4202D008B1012000E03E
:10518000002070470428004010B50120FFF7EAFF17
:105190000220FFF7E7FF10B10220FFF7DBFF052039
:1051A000FFF7D8FF00F002F810BD000000BF034871
:1051B000008810F0200FFAD070470000042800404B
:1051C00010B5032101A0FCF73DF910BD5350493142
:1051D0005F49525148616E646C65720010B50321DD
:1051E00001A0FCF72FF910BD535049325F495251CD
:1051F00048616E646C65720010B5032101A0FCF774
:1052000021F910BD535049335F49525148616E64D2
:105210006C65720021B1028842F04002028004E015
:1052200002884FF6BF731A400280704770B505467A
:105230000C46164610211048FDF789F8032000F0AF
:105240005DF9C4F3074000F059F9C4F3072000F0FA
:1052500055F9E0B200F052F904E0FF2000F04EF9F9
:1052600028706D1C3000A6F101018EB2F5D110211D
:105270000148FDF76EF870BD000801402DE9F05FB0
:1052800007460E4614464FF00008C146C2460025A8
:10529000AB4606F0FF0ACAF10000C5B22046E1178E
:1052A00004EB1151C1F30738E11704EB1151091355
:1052B000A4EB013101F0FF09BAF1000F20D1B8F1E0
:1052C000000F05D122463146384600F0C5F864E0AB
:1052D00009E04FF480523146384600F0BDF806F53B
:1052E000805607F580575FEA0800A8F1010101F038
:1052F000FF08EED14A463146384600F0ADF84CE0A2
:10530000B8F1000F18D1A94510DDA9EB050000F098
:10531000FF0B2A463146384600F09EF82E442F44B3
:105320005A463146384600F097F836E02246314674
:10533000384600F091F830E0601B84B22046E11757
:1053400004EB11514FEA2138E11704EB1151091315
:10535000A4EB013101F0FF092A463146384600F03E
:105360007BF82E442F4409E04FF4805231463846F2
:1053700000F072F806F5805607F580575FEA0800DE
:10538000A8F1010101F0FF08EED1B9F1000F04D03E
:105390004A463146384600F05FF8BDE8F09F00000D
:1053A00000B587B001212420FFF72CFE012108035E
:1053B000FFF728FE2020ADF8040003208DF806003A
:1053C00018208DF8070001A92148FCF7EBFE4020CA
:1053D000ADF8040001A91E48FCF7E4FE8020ADF8FA
:1053E000040001A91A48FCF7DDFE1020ADF8040006
:1053F0008DF8070001A91648FCF7D4FE10211448C7
:10540000FCF7A7FF0020ADF808004FF48270ADF85C
:105410000A000020ADF80C000220ADF80E000120BB
:10542000ADF810004002ADF812003820ADF81400BD
:105430000020ADF816000720ADF8180002A90548B5
:1054400000F0AEF801210348FFF7E4FE07B000BD0D
:10545000000801400030014070B505460C46164674
:1054600000F080F810211348FCF771FF022000F0D3
:1054700045F8C4F3074000F041F8C4F3072000F0FA
:105480003DF8E0B200F03AF8B6F5805F01DD4FF488
:10549000805603E0287800F031F86D1C3000A6F14A
:1054A00001018EB2F6D110210248FCF752FF00F044
:1054B00041F870BD0008014010B5044600F052F8F4
:1054C00000F038F810210C48FCF741FF202000F0D4
:1054D00015F8C4F3074000F011F8C4F3072000F0FA
:1054E0000DF8E0B200F00AF810210348FCF731FF94
:1054F00000F020F810BD00000008014010B504467F
:1055000000BF02210A4800F03DF80028F9D02146EA
:10551000074800F043F800BF0121054800F032F8C9
:105520000028F9D0024800F036F8C0B210BD0000E3
:105530000030014010B5002410210948FCF707FF96
:105540000520FFF7DBFF00BFFF20FFF7D7FF044672
:1055500014F0010FF8D110210148FCF7FAFE10BD3C
:105560000008014010B510210548FCF7F0FE0620A8
:10557000FFF7C4FF10210248FCF7EBFE10BD00004E
:10558000000801400246002013890B4201D001208F
:1055900000E000207047014688897047818170478C
:1055A00010B5002202880D4B1A400B884C8823430B
:1055B0008C882343CC8823430C8923434C89234381
:1055C0008C892343CC8923431A430280838B4FF277
:1055D000FF74234083830B8A038210BDFFFEF0FF1C
:1055E0007047000070B504460D462B46224602491E
:1055F000024800F005F870BD00F80308AD1F000870
:105600002DE9F0478046894614461F4625462E461A
:105610003088001F81B2201D01F0F0FE70803288BA
:1056200009EBC7202946C047BDE8F087BAB0064657
:10563000B046404602F094FE012003460522014692
:10564000009004A8FEF7E1FC5CE20FB9FBF7B4FFA1
:10565000FE4908683221FBF75DFC0023322219461F
:10566000404602F069FF0546FBF7ACFFF74904AA84
:1056700008682946FEF760FD0546ECB29DF81E005D
:10568000002870D19DF8130035286DD017DC06284E
:1056900025D005DC69D2DFE800F0604E69545A6F0E
:1056A0000A282ED006DC07281FD0082823D0092876
:1056B0005BD12CE00B2834D03428F9D181E0363886
:1056C0001628E7D2DFE800F08DDBCDF9FA515E5104
:1056D000516D75515151515151F7F6F5F4F308A937
:1056E000DBA000F0D5FA054681E108A9DAA000F0B8
:1056F000CFFA05467BE108A9D9A000F0C9FA054612
:1057000075E108A9D9A000F0C3FA05466FE10020B1
:1057100004230322DBA1009008A8FCF7B0FC0A25B3
:1057200065E1FDF7CBF981464A46DAA108A8FCF706
:10573000A6FC05255BE108A9D8A000F0A9FA05465A
:1057400055E108A9D9A000F0A3FA05464FE108A940
:10575000D8A000F09DFA054649E108A9D6A000F0BE
:1057600097FA054643E161E155E03AE108A9D4A082
:1057700000F08EFA05463AE108A9D4A000F088FAB4
:10578000054634E1D548016808A8FCF74BFC0546FE
:10579000D24A516808AA5019FCF744FC284485B243
:1057A00025E1012708A9CE48006800F071FA0546F6
:1057B0001DE1002708A9CA48006800F069FA0546FB
:1057C00015E1A24A1368621C995CA04A1268105D38
:1057D000FDF7F0FE08A9C248006800F059FA054636
:1057E00005E19A480068025DBC48183050F8321054
:1057F00008A8FCF717FC0546944A1268135DB74ADF
:10580000183202EBC302516808AA5019FCF70AFCCF
:10581000284485B2EBE08D490A68611C5018FCF7FA
:10582000FDFB014689480068025DAC48183040F82D
:10583000321086490A68611D5018FCF7EFFB0146DB
:1058400082480068025DA548183000EBC200416044
:1058500008A9A348006800F01BFA054601F0A2FA67
:10586000C5E07A490968095D01EB41029B49303185
:1058700001EB420008A9FEF712FA0546B7E0734AA9
:105880001368621C9918714A1268125D02EB420398
:10589000924A303202EB4300FEF7C6F908A990485D
:1058A000006800F0F5F9054601F07CFA9FE071E030
:1058B00060E051E040E031E000E015E06349096854
:1058C000095D01EB410202EBC10284493C315018F1
:1058D0000B2208A9FBF755FA054600222846691C49
:1058E0008DB208A90A5482E0584A1268125D02EB90
:1058F000420303EBC203794A3C329918534A1368B6
:10590000621C98180B22FBF73CFA08A9744800683F
:1059100000F0BEF9054601F045FA68E0102208A93A
:105920006E485230FBF72DFA054600222846691CC6
:105930008DB208A90A545AE044490968081910228E
:1059400066495231FBF71DFA054608A9644800680C
:1059500000F09EF905464AE0042208A95F4862303B
:10596000FBF70FFA054600222846691C8DB208A9EC
:105970000A543CE035490968081904225749623144
:10598000FBF7FFF9054608A95548006800F080F9C3
:1059900005462CE02D480068005D012802D0022851
:1059A0001CD112E0294A1368A21C9918274A1368CF
:1059B000621C985CFBF724FA24490A68611C505C5D
:1059C00008A9FBF78DFA054609E020490A68611C21
:1059D000505C08A9FBF784FA054600E000BF00BF51
:1059E00005E008A93FA000F053F9054600BF00BF3D
:1059F000012000901548006881780123052204A841
:105A0000FEF703FB08A80121CDE901050091374904
:105A100001231A46086804A9FEF702FB054633482D
:105A20002A460168324802F0F8FD6BE09DF81E003E
:105A3000062867D09DF81E0005285DD10348012285
:105A400001682CA0FBF7FEFC5CE00000A400002035
:105A50005620322E303000005620312E30320000D9
:105A60005452544F5320342E3000000041707220A5
:105A700032322032303136202D2031303A32323A33
:105A800033340000562025642E25642E2564206EB4
:105A90000000000025644B6200000000546F70722B
:105AA00069652D5450353030000000005254552D9A
:105AB000545000004E42000048656C6C6F000000BE
:105AC00030303030303030300000000053544D332F
:105AD000324C31353152425436000000349D0020A2
:105AE000840000204E756C6C00000000B80000209F
:105AF00000380140257300009DF81E10032202A00B
:105B0000FBF7A0FCA1E50000256400000246002090
:105B100006E00B78934200D17047431CD8B2491C71
:105B20000B78002BF5D100BFF6E710B500F002F8B6
:105B300010BD00000CB500200190009032480068B4
:105B400040F480303049086000BF2F48006800F4FE
:105B5000003000900198401C0190009818B90198FD
:105B6000B0F5A06FF1D12848006810F4003F02D0D2
:105B70000120009001E0002000900098012842D10F
:105B80002248006840F0100020490860084600687C
:105B900020F0030008600846006840F0020008603A
:105BA00019484068184948600846406848600846F7
:105BB000406840F4806048600846406820F47C10EB
:105BC00048600846406840F4E810486008460068AD
:105BD00040F08070086000BF0B48006810F0007F44
:105BE000FAD00948406820F0030007494860084699
:105BF000406840F00200486000BF0348406800F081
:105C00000C000828F9D10CBD001002400020024011
:105C100003461AB908125870197002E00812187079
:105C200059700220704700001FB501210520FFF7C1
:105C3000E9F90120ADF80C0028208DF80F0003A928
:105C40001248FCF7AFFA00210846FCF78BFA012056
:105C5000009000208DF8040008208DF80500012038
:105C60008DF806006846FCF7A1F806208DF80800BC
:105C700002208DF809008DF80A0001208DF80B0034
:105C800002A8FEF711FB00F03AF81FBD0008014022
:105C900030B503460C4600201946224605E011F8AF
:105CA000015B02F8015B451CA8B20D78002DF6D10E
:105CB000157030BD2DE9F04106460D462C4637469D
:105CC0002846FCF7C5FE04443046FCF7C1FE80467A
:105CD00018F1010001D1BDE8F08103E017F8010BD4
:105CE00004F8010B5FEA0800A8F10108F6D104F8F6
:105CF000010B00BFEFE710B501F08CFC10BD10B533
:105D000000214FF4FE70FFF78DF900F001F810BD8F
:105D100010B501210807FFF765F90120FEF73CFBEC
:105D20000120FEF713FB02210120FEF715FB10BD39
:105D300010B51348006840F001001149086008469A
:105D40004068104908400E494860084600680E49FE
:105D500008400B4908600846006820F4802008606D
:105D60000846406820F4FE0048604FF41F00886039
:105D7000FFF7DBFE4FF000600449086010BD000033
:105D8000001002400000FFF8FFFFF6FE08ED00E003
:105D900010B5032101A0FBF755FB10BD54414D5038
:105DA00045525F49525148616E646C657200000053
:105DB00008B501461F2000EAE1208DF800003F20D1
:105DC00000EA61108DF8010001F01F008DF802005B
:105DD000BDF8002010469DF8022040EA024008BDB0
:105DE00010B5032101A0FBF72DFB10BD54494D3127
:105DF0005F42524B5F49525148616E646C6572005C
:105E000010B5032101A0FBF71DFB10BD54494D3116
:105E10005F43435F49525148616E646C6572000094
:105E200010B5032101A0FBF70DFB10BD54494D3106
:105E30005F5452475F434F4D5F49525148616E6412
:105E40006C65720010B5032101A0FBF7FBFA10BDD1
:105E500054494D315F55505F49525148616E646CF1
:105E60006572000010B5032101A0FBF7EBFA10BD2D
:105E700054494D345F49525148616E646C657200FB
:105E800010B5032101A0FBF7DDFA10BD54494D35D3
:105E90005F49525148616E646C65720010B5032110
:105EA00001A0FBF7CFFA10BD54494D375F4952515D
:105EB00048616E646C65720010B5032101A0FBF7A8
:105EC000C1FA10BD54494D385F42524B5F4952519F
:105ED00048616E646C65720010B5032101A0FBF788
:105EE000B1FA10BD54494D385F43435F49525148A0
:105EF000616E646C6572000010B5032101A0FBF7B0
:105F0000A1FA10BD54494D385F5452475F434F4D7D
:105F10005F49525148616E646C65720010B503218F
:105F200001A0FBF78FFA10BD54494D385F55505F03
:105F300049525148616E646C657200000220FBF7A3
:105F40004BFB0520FBF750FBFEF79AFA0020404977
:105F5000086181F8B10081F8B200FCF7CFFD02289A
:105F600003D1FF203A4981F8B1004FF4007139485C
:105F7000FCF7EDF902213848FCF7EBF966E034480C
:105F800090F8B100002847D14FF47A7001F03EFC40
:105F90002F48007C10F0400F2DD12D48007C10F0D0
:105FA000030F0ED004212C48FCF7D1F901212A4817
:105FB000FCF7CFF9012001F029FC01212648FCF76C
:105FC000C6F92348007C10F00C0F0FD04FF480511D
:105FD0002148FCF7BCF901211F48FCF7BAF9012060
:105FE00001F014FC01211C48FCF7B1F94FF47A7060
:105FF00001F00CFC06E004211748FCF7A8F9642026
:1060000001F004FC04211448FCF7A3F94FF480517B
:106010001148FCF79EF918E0642001F0F7FB4FF4FB
:1060200080510D48FCF793F904210B48FCF791F9D6
:10603000642001F0EBFB04210748FCF788F94FF4DA
:1060400080510548FCF785F900BF00BF97E70000C5
:10605000349D002000100140000C014086B001F08A
:106060006BFC002509E005EB45006946084402A9E0
:1060700001EBC5014860681CC5B2022DF3DB0221AB
:1060800002A801F093FB00F0A9FC0025704890F8ED
:10609000B100FF2819D116E02846FCF74DFF0A2071
:1060A00001F0B4FB0020FDF794FE04465CB160787B
:1060B000012800D108E06078022801D1681CC5B22F
:1060C000042D00DD0025E7E700BF614880F8B150EE
:1060D000BDE00A2001F09AFB0020FDF77AFE04469D
:1060E000002CF5D0607801281CD12078062819D121
:1060F0005748007C10F0200F02D000F01DFD11E089
:106100005348007C10F0400F06D05148006920F041
:1061100040004F49086105E04D48006940F04000EB
:106120004B4908616078012820D1207804281DD1CE
:106130004748007C10F0200F06D04548006920F049
:1061400020004349086105E04148006940F0200013
:106150003F490861FAF7E2FD00203D4981F8B200AD
:1061600041F2EC3102F056FB00F01CFE6078022890
:1061700014D12078062811D13548007C10F0400F4A
:1061800006D03348006920F040003149086105E03D
:106190002F48006940F040002D49086160780428CC
:1061A00015D12078042812D1FAF7B8FD2948FBF759
:1061B00075FF2948FBF772FF2848FBF76FFF284857
:1061C000FBF76CFF2748FBF769FFFFF72DFD6078B1
:1061D00002283CD12078042839D1FAF79FFD082005
:1061E0001B4981F8B10030E0194991F8B110083924
:1061F000C8B2FCF751FF0A2001F008FB0020FDF7B0
:10620000E8FD04460CB36078022811D120780628F6
:106210000ED10F4890F8B100401C0D4981F8B10033
:10622000084690F8B1000A2802DD082081F8B10084
:106230006078022809D12078042806D1FAF76EFD8B
:106240000020034981F8B10000E0CDE700BF40E73E
:10625000349D002000080140000C01400010014066
:1062600000140140001801405348FAF70FFCFDF7F5
:10627000E1FB51480838FDF77FFB4FF47A7001F0DD
:10628000C5FA98E04C480838FDF776FB4A4AAC3A24
:1062900091691068FAF778FA08D84748AC3800696D
:1062A00040F001004449AC39086107E04248AC388D
:1062B000006920F001004049AC3908613E4AAC3A1F
:1062C000D1691068FAF756FA08D83B48AC3800692B
:1062D00040F002003849AC39086107E03648AC3874
:1062E000006920F002003449AC390861324AAC3A06
:1062F000116A5068FAF748FA08D82F48AC38006994
:1063000040F004002C49AC39086107E02A48AC3859
:10631000006920F004002849AC390861264AAC3AEB
:10632000516A5068FAF726FA08D82348AC38006951
:1063300040F008002049AC39086107E01E48AC383D
:10634000006920F008001C49AC390861642001F0A4
:106350005DFA1949AC39B1F8AC00FAF776F916498B
:10636000AC3988608868FAF7C1F90646134A144BBD
:10637000FAF781F80446FAF7E1F90F49AC39886079
:106380004FF4C87001F042FA0B49A839081FFAF718
:106390006BFE0948AC38007C10F0200F0BD006488B
:1063A000AC3890F8A900052190FBF1F201FB120036
:1063B00008B900F0BFFC65E7E09D00204254A094BE
:1063C0000CBF593FB2B000250AE005EB4500694615
:1063D00001EB80001EA901EBC5014860681CC5B235
:1063E0000A2DF2DB0A211EA801F0E0F90D48007821
:1063F0000D49087015E00A2001F008FA01F0A6FA2C
:10640000064676B174682079012802D0022807D1A7
:1064100002E02068804703E0207A2168884700BFB7
:1064200000BFE8E75C0000207B00002010B50022E0
:106430000121024800F06EFA10BD00001D0D000899
:106440002DE9F041F2B080460027002459A00068F1
:1064500026906320584981F8AE00002081F8B000F2
:10646000FEF760FA064626B10522314653A0FAF738
:10647000E9FF02F039F9064626B10522314653A05C
:10648000FAF7E0FF052155A0FAF7DCFF91E00020C4
:1064900026AB07220146009027A802F03FF920BB57
:1064A0009DF8A100444981F8A4009DF8A21042483B
:1064B00080F8A5109DF8A31080F8A6109DF8A410F0
:1064C00080F8A8109DF8A51080F8A9109DF8A610D6
:1064D00080F8AA109DF8A71080F8A710A430FDF747
:1064E00062FB052140A0FAF7ADFF022026AB0A228D
:1064F0000121009027A802F011F9002852D10024B0
:106500004FE0002026AB05223946009027A802F074
:1065100005F9002841D1781C87B29DF89F504FF6AD
:10652000FF7000EA05259DF8A0000543601990283A
:1065300007D802A801192A469930FAF722FC20440C
:1065400084B22A460DF1A1012BA0FEF725F86420A4
:1065500060439021B0FBF1F0174981F8B000E5B934
:10656000224602A926A0FEF717F8902C0AD1002196
:1065700002A8FFF737F800F031FA052122A0FAF758
:1065800061FF03E0052124A0FAF75CFFFBF7A2FFFF
:10659000FAF7C4FB72B0BDE8F0814FF47A7001F0F5
:1065A00035F9AEE700208DF89C0044F6206001F03C
:1065B0002DF96CE700640000349D0020B3F5CABCDF
:1065C000BBAFCAA7B0DC5B25645D0000C1ACBDD326
:1065D000B7FECEF1C6F75B25645D0000D7D4B6AF39
:1065E000C5E4D6C300000000CDACB2BDCAB1BCE466
:1065F000CDEAB1CF0000000042696E3A0000000011
:106600004346473A00000000CFC2D4D8C5E4D6C301
:10661000CDEAB3C900000000C5E4D6C3CEC4BCFEB9
:10662000B3A4B6C8B4EDCEF30000000001212748A2
:10663000FBF78FFE012001F0E9F801212348FBF769
:1066400086FE4FF400712248FBF781FE642001F0C2
:10665000DDF8FCF739FA37E01E4890F8B10004285D
:106660001DD007DC78B1012810D0022811D00328F2
:1066700025D111E0082815D0092817D00A2819D0EB
:10668000FF281CD11AE0FCF7CBFA18E0FCF7A4FDB8
:1066900015E0FCF7A1FD12E0FCF79EFD0FE0FCF712
:1066A0009BFD0CE00020FCF7F7FC08E00120FCF764
:1066B000F3FC04E00220FCF7EFFC00E000BF00BFA9
:1066C0004FF47A7001F0A2F8C6E70000000C014018
:1066D00000100140349D002040211F48FBF72EFE92
:1066E00030B901201D4981F8B100002000F0C4FC40
:1066F00030E01A4890F8B10003281ED005DC48B1FC
:1067000001280AD002281FD10FE0042818D0FF2842
:106710001AD118E0002000F069F90020FFF790FE80
:1067200000200E4981F8B1000FE0002000F01EFCAF
:1067300000200A4981F8B10007E0002000F0E2FDE6
:10674000002000F0DFFD00E000BF00BF4FF47A70D2
:1067500001F05CF8CDE7000000100140349D0020FE
:106760000EB502215E48FBF7F2FDB8E000234FF4BE
:10677000967219465B4801F0DFFE0446002C7DD07E
:1067800000205949896881F832005749886857A123
:10679000F9F7EAFC0028F2D05349886855A1F9F7C7
:1067A000E3FC00286BD05049886852A1F9F7DCFC63
:1067B000814609F10200FCF7E9F84F49C1F8B80039
:1067C000D1F8B8004D49F9F76FFD8346F9F75BFF43
:1067D000642100FB01FA5046F9F737FF804646482E
:1067E000D0F8B8104046F9F726FD07464449F9F7B6
:1067F0005BFD05464049D1F8B8004049F9F754FD22
:106800008046F9F740FF0746F9F71FFF064629467D
:10681000F9F7BCFC3849C1F8B8003349886839A198
:10682000F9F7A2FC814609F10200FCF7AFF8324902
:10683000C1F8B400D1F8B4003049F9F735FD83460A
:10684000F9F721FF642100FB01FA5046F9F7FDFE3C
:1068500080462948D0F8B4104046F9F7ECFC0746CA
:106860002749F9F721FD05462349D1F8B40023490A
:10687000F9F71AFD8046F9F706FF01E02BE024E066
:106880000746F9F7E2FE06462946F9F77FFC1A4962
:10689000C1F8B4000846006940F080000861D1F8F2
:1068A000B400F9F723FF05460E461349D1F8B800A6
:1068B000F9F71CFF074605203A460B46CDE900567E
:1068C000029011A0FAF7BEFD05E00B48006920F028
:1068D00080000949086140F6B83000F097FF45E7AD
:1068E000000C014000480040A40000202447505202
:1068F0004D43000041000000349D00200000C842CC
:10690000000070424E000000252E38662C252E37E0
:1069100066000000FEB506460C46154600968DF84A
:10692000044002956B460C2200210248007801F0D9
:1069300079F8FEBD7B00002008B54FF4FA6000F046
:1069400065FF46E00A2000F061FFFCF7D7F88DF8FC
:10695000010000208DF802009DF80100002838D0C9
:1069600001211C48FBF7F5FC042000F04FFF01213A
:106970001848FBF7ECFC0DE00A2000F047FF9DF8FB
:106980000200401C40B28DF802009DF9020032283E
:1069900000DD03E0FCF7B2F80028EDD100BF9DF95F
:1069A0000200322803DD04208DF8000002E00620FA
:1069B0008DF800006B46032201210748007801F0A2
:1069C00031F802E00A2000F021FFFCF797F80028D8
:1069D000F8D1B7E7000C01407E00002010B500217F
:1069E0000148FDF78FF910BD489D0020002500BF2C
:1069F00000276320334981F8AE00FDF793FF04467A
:106A000024B10522214630A0FAF71CFD0120FEF733
:106A10004FF8044624B1052221462FA0FAF712FDB3
:106A2000FDF7FEFD044624B1052221462EA0FAF70B
:106A300009FD4FF47A7000F0E9FEFDF7CFFD40E06C
:106A4000FEF712F904463CB1052221462AA0FAF7C6
:106A5000F9FC681CC5B205E005212CA0FAF7F2FC90
:106A600000250027002627E000F0A8F9FDF7EEFE3C
:106A7000144981F8AE00FEF709FA04463CB105223C
:106A8000214625A0FAF7DEFC681CC5B205E0052109
:106A900026A0FAF7D7FC00270025002D06DDFDF71C
:106AA000BFFD0025FDF79AFD781CC7B244F62060B3
:106AB00000F0ACFE701CC6B2052ED5DB052F00DD44
:106AC00096E7BDE7349D0020B3F5CABCBBAFCAA7AB
:106AD000B0DC5B25645D0000B3F5CABCBBAFB6CCCF
:106AE000D0C55B25645D0000C1ACBDD3B7FECEF15F
:106AF000C6F75B25645D0000B7A2CBCDCAFDBEDD45
:106B0000CAA7B0DC5B25645D00000000B7A2CBCD56
:106B1000CAFDBEDD4F4B0000B7A2CBCDD0C4CCF830
:106B2000CAA7B0DC5B25645D00000000B7A2CBCD36
:106B3000D0C4CCF84F4B00002DE9F0418CB00322BB
:106B4000384939A0FAF77EFC032236490A3138A0C9
:106B5000FAF778FC032138A0FAF774FC03213FA070
:106B6000FAF770FC002433E004EB8401002202EB0E
:106B70008100142207A901F066FE0A98F9F7B6FD14
:106B800005460E460998F9F7B1FD07460320CDE901
:106B90000271CDE9045606909DF821009DF8201061
:106BA000CDE900109DF81E309DF81D209DF81C10A9
:106BB00033A0FAF747FC322094FBF0F100FB1140C0
:106BC000312803D14FF47A6000F020FE601CC4B27B
:106BD0001448663890F8B200A042C5DC032116A024
:106BE000FAF730FC032131A0FAF72CFC032138A07E
:106BF000FAF728FC03212DA0FAF724FC03212BA08F
:106C0000FAF720FC032129A0FAF71CFC032139A084
:106C1000FAF718FC032140A0FAF714FC0CB0BDE809
:106C2000F08100009A9D0020D3C3BBA73A257300D2
:106C3000B1EACCE23A2573002A2A2A2A2A2A2A2AE9
:106C40002A2A2A2A2A2A2A2A2A2A2A2A2A2A2A2AA4
:106C50002A2A2A2A2A2A2A2A00000000BCC7C2BCE3
:106C6000CAB1BCE42020202020202020202020CEDB
:106C7000C2B6C8202020CAAAB6C820200000000042
:106C8000253032642D253032642D253032642025A4
:106C90003032643A253032642020202020252E32E4
:106CA00066202020252E32660000000020202020B3
:106CB00020202020202020202020202020202020D4
:106CC0002020202020202020202020200000000044
:106CD000C7A9D7D63A2020202020202020202020FD
:106CE00020202020202020202020CAB1BCE43A20EF
:106CF00000000000B1B8D7A23A2020202020202098
:106D00002020202020202020202020202020202083
:106D100020202020000000000D0A0D0A0D0A20206E
:106D20002020202020202020202020202020202063
:106D30002020000000B585B0184890F8A900184937
:106D40000978884223D0154890F8B200FF281EDA4F
:106D5000072269461148A430FAF713F80C2202A959
:106D60000E48FAF70EF80D4890F8B20000EB8000DC
:106D7000002202EB800114226846FEF77FFA0748E2
:106D800090F8B200401C054981F8B20000BF0348EA
:106D900090F8A9000249087005B000BD349D00209C
:106DA0009C00002010B590200349888200210248F1
:106DB0001430FEF717FC10BD349D00202DE9F04182
:106DC0009CB04B48007C00F00F044A4800688442A5
:106DD0007CD048480068401CFAD045494868F9F71B
:106DE00085FC05460E4642490868F9F77FFC0746D0
:106DF0003A460B4640A103A8CDE90056FBF713FD28
:106E00003B48007C10F0010F12D039498869F9F72E
:106E10006DFC05460E4636490868F9F767FC0746DB
:106E20003A460B4639A103A8CDE90056FBF7FBFC17
:106E30002F48007C10F0040F12D02D49086AF9F792
:106E400055FC05460E462A494868F9F74FFC0746A7
:106E50003A460B4632A103A8CDE90056FBF7E3FC06
:106E60002348007C10F0020F12D02149C869F9F7BD
:106E70003DFC05460E461E490868F9F737FC0746F3
:106E80003A460B462BA103A8CDE90056FBF7CBFCF5
:106E90001748007C10F0080F12D01549486AF9F71E
:106EA00025FC05460E4612494868F9F71FFC0746BF
:106EB0003A460B4624A103A8CDE90056FBF7B3FCE4
:106EC00003A8FEF725F8052203A900E006E023A0A9
:106ED000FAF7B8FA41F2883000F098FC0448007CD8
:106EE00000F00F00034908601CB0BDE8F08100000D
:106EF000349D0020980000204348313D252E326605
:106F00002C4348323A252E32660000004348313D7A
:106F1000252E32662C4D41583A252E32660000004F
:106F20004348323D252E32662C4D41583A252E32AB
:106F3000660000004348313D252E32662C4D696EB7
:106F40003A252E32660000004348323D252E326637
:106F50002C4D696E3A252E3266000000B7A2CBCDCB
:106F6000B6CCD0C55B25735D00000000F0B5ADF573
:106F7000177D0746002563202C4981F8AE000020CC
:106F800081F8B000FDF7CEFC064626B10522314659
:106F900027A0FAF757FA01F0A7FB064626B105220B
:106FA000314627A0FAF74EFA052129A0FAF74AFA46
:106FB0003AE017208DF83001002522E02A466421AE
:106FC00001A801F05BFB044615E04FF47A7000F075
:106FD0001DFC01AB092202214CA8009401F09EFB8C
:106FE00000B909E064206843104981F8B0004FF40B
:106FF0007A7000F00BFCE8E700BF681C85B204B9AA
:1070000000E0DBE700BF90220849143113A0FDF730
:10701000C3FAFBF75FFAF9F781FE052112A0FAF730
:1070200011FA0DF5177DF0BDC3E70000349D002077
:10703000B3F5CABCBBAFCAA7B0DC5B25645D00007A
:10704000C1ACBDD3B7FECEF1C6F75B25645D0000D1
:10705000C9CFB4ABC5E4D6C3000000005361766568
:10706000446174613A000000C9CFB4ABC5E4D6C333
:10707000CDEAB1CF000000002DE9F043D7B0814642
:107080000026DFF810826320834981F8AE000020DB
:1070900081F8B000FDF746FC054625B105222946DA
:1070A0007EA0FAF7CFF901F01FFB054625B10522B6
:1070B00029467EA0FAF7C6F9052180A0FAF7C2F9A1
:1070C000E6E00026002002AB0722014600900CA853
:1070D00001F024FB20BB9DF835006F4981F8A40026
:1070E0009DF836106C4880F8A5109DF8371080F890
:1070F000A6109DF8381080F8A8109DF8391080F877
:10710000A9109DF83A1080F8AA109DF83B1080F85D
:10711000A710A430FCF747FD05216BA0FAF792F900
:10712000F9F7FCFD00BF00260C2202A96A48F9F716
:1071300028FEC5B2DFF85C814046FCF75BFF0746DE
:1071400007F57F4081B202AB0B220CA8009501F03D
:10715000E5FA38BB22E0414602A8FCF74BFE02A844
:10716000FBF776FCC5B2052202A95CA0FAF76AF922
:1071700002AB0B2231460CA8009501F0CFFA50B9B2
:10718000701C86B26420704390FBF7F0424981F88E
:10719000B00008F10C080A2000F038FB98F808004D
:1071A0000028D8D10026DFF8EC804046FCF722FF0B
:1071B000801EC5B260E0002002AB0D223146009077
:1071C0000CA801F0ABFA002852D19DF833404FF6DD
:1071D000FF7000EA04249DF834000443002C04DD11
:1071E0009DF83500032800D147E0002C04DD9DF810
:1071F0003500022800D196E7002C39DD9DF83500D6
:10720000012835D133E0002002AB0C22314600903A
:107210000CA801F083FA38BB9DF833404FF6FF709D
:1072200000EA04249DF834000443002C0BDD9DF893
:1072300031000DF13501F9F7E3FD05220DF13501BE
:1072400029A0FAF7FFF83046711C8EB2A84204DB81
:10725000F9F764FDFFF7A6FD65E76420704390FB36
:10726000F7F00D4981F8B0000A2000F0CFFACAE724
:1072700041F2883000F0CAFA9DE7FBF72BF9F9F7E5
:107280004DFD05211BA0FAF7DDF857B0BDE8F083EE
:1072900017E7000068950008349D0020B3F5CABCCC
:1072A000BBAFCAA7B0DC5B25645D0000C1ACBDD339
:1072B000B7FECEF1C6F75B25645D0000B8FCD0C216
:1072C000C5E4D6C300000000CDACB2BDCAB1BCE479
:1072D000CDEAB1CF00000000E8F7FF1FC9CFB4AB83
:1072E000B2CBB5A53A257300CFC2D4D8B2CBB5A5E1
:1072F0003A257300B8FCD0C2C5E4D6C3CDEAB1CFFD
:1073000000000000CEB000242BA000680290632093
:107310002A4981F8AE00002081F8B000FDF702FB99
:10732000054625B10522294625A0FAF78BF801F07C
:10733000DBF9054625B10522294625A0FAF782F892
:10734000052127A0FAF77EF835E017208DF80C000C
:10735000022002AB01220146009003A801F0DEF9F1
:1073600010BB20E0002002AB05222146009003A8BC
:1073700001F0D4F998B9601C84B2C4EB041101EB9C
:10738000042040F20F120DF1110101F07AFAC4EB62
:10739000041000EB0421052214A0FAF753F844F678
:1073A000206000F033FADDE700208DF80C0044F691
:1073B000206000F02BFAC8E7010F0000349D002088
:1073C000B3F5CABCBBAFCAA7B0DC5B25645D0000E7
:1073D000C1ACBDD3B7FECEF1C6F75B25645D00003E
:1073E000D3A6D3C3C9FDBCB600000000D0B4C8EB1F
:1073F0006E616E645B25645D00000000F0B50246BE
:107400000C46FF21FF2500260BE012F8017B87EADE
:107410000503084FFF5C87EA0105074FF95C771CFD
:10742000BEB2A642F1DB08464FF6FF7707EA00201E
:107430002843F0BDBC920008BC93000810B502467A
:10744000002002E012F8013B58400B00A1F10104BA
:10745000A1B2F7D110BD000010B510480078132874
:1074600004D00F480078401C0D4908700D48007882
:10747000401C0C4908700846007864280DDD002087
:1074800008701423084A064801780848FAF7DAFD1C
:107490000749087000200249087010BD5C000020F8
:1074A000480000204000002041000020440000204F
:1074B0005400002010B54FF47070FCF775FD2249A0
:1074C000086002202149487000204860002428E01C
:1074D000012004EB44011C4A126802EB01110881EF
:1074E000002004EB4401184A126802EB0111886184
:1074F000002104EB4400144A126802EB0010016002
:10750000002004EB4401104A126802EB0111C8612B
:1075100004EB44010C4A126802EB01110884601C60
:10752000C4B2142CD4DB1320094908700020094987
:10753000086009498873094BFF224FF47A710648A5
:1075400000F088FC10BD0000640000205400002002
:107550005C00002068000020E00000203D7F000863
:1075600070B50446FFF7A6FF04E094E80F0000F0B2
:10757000EBF8103420680028F7D100F00BF870BD4C
:10758000FAF756FB04E0642000F040F900F0ACFC90
:10759000F9E7000038B51849B1F1807F00D31DE04C
:1075A00021F07F40401E4FF0E022506150170F2223
:1075B000002807DA13071D0E104B00F00F04241FDC
:1075C0001D5503E013071C0E0D4B1C5400BF00207B
:1075D0004FF0E02290610720106100BF4FF4FA6085
:1075E00008A300220A490090132000F045F8132058
:1075F00000F036FB38BD00004019010018ED00E036
:1076000000E400E05461736B526F6F74000000007F
:107610008175000810B5FFF71FFF00F045FA0D480F
:107620004078402805D103210BA0F9F70BFFFCF7A8
:10763000ABFB10488089401C0E4988810846808930
:107640000989884205DD0B490869804700200949FE
:10765000888110BD540000205461736B2054696D03
:10766000654F75742057696C6C20544F53205265D8
:1076700073657400E00000202DE9F04704460D46D4
:1076800091461F46DDF820800DB9BDE8F08704EB78
:1076900044002C49096801EB00100089012800D042
:1076A000F3E704EB44002749096801EB0010008C64
:1076B00098B91FFA88F0FCF777FC064604EB440102
:1076C000204A126802EB0111A1F8208004EB44016A
:1076D0001C4A126802EB0111CE6104EB4402194B03
:1076E0001B6803EB0212118C04EB4402154B1B6860
:1076F00003EB0212D06900F079FB8246022104EB11
:107700004400104A126802EB0010018104EB4400AF
:107710000C49096801EB0010456004EB440009497D
:10772000096801EB0010C7624A462946504600F03E
:107730005FFA04EB4401034A126802EB011108608E
:1077400000BFA2E7640000202DE9F84305460E467D
:107750001746984600241AE004EB440012490968D1
:1077600001EB0010008900B912E004EB44000E495F
:10777000096801EB00100089012800D108E0601CB5
:1077800080B20446142802DB0020BDE8F883E3E75A
:1077900000BFE0B23B4632462946CDF80080FFF7F5
:1077A0006BFF0120F1E700006400002010B5154ACE
:1077B000127802EB4202144B1B6803EB0212906238
:1077C000104A127802EB42020F4B1B6803EB0212C5
:1077D00082F8231000220B4B1B7803EB43030A4C67
:1077E000246804EB031383F824200023054A12784D
:1077F00002EB4202044C246804EB021282F82530AA
:1078000010BD00005C0000206400002010B504469C
:107810001348407801281FD000201249097801EB55
:107820004101114A126802EB011188610D4800788C
:1078300000EB40000C49096801EB00104461102185
:107840000848007800EB4000074A126802EB00107D
:10785000018100F07BFA02E02046F9F77DFA10BDC5
:10786000540000205C0000206400002001460D4808
:10787000006800EB4110007A08B900207047094801
:10788000006800EB41104079074A1278904201D01D
:107890000020F3E70120034A126802EB4112107244
:1078A00000BFEBE7700000205C00002070B50446CC
:1078B0000D4600BF1E48006800EB4410007A30B14E
:1078C000012815D0022804D003282FD11FE0002062
:1078D00070BD1748006800EB4410407915490978DD
:1078E000884201D10120F3E7204600F04FFBE1E799
:1078F00002200F49096801EB441108720D48007815
:107900000B49096801EB441148710120E0E70220AE
:107910000749096801EB44110872064800780449D8
:10792000096801EB441148710120D1E70020CFE73D
:10793000700000205C0000200248007802490870B6
:10794000704700005C0000207E00002070B51848E1
:10795000007800EB40001749096801EB0014A06AA9
:1079600008B9002070BD94F8250018B910480078B7
:1079700000F088F994F8250008B90020F2E704F136
:107980002304D4F80500617800EBC105607800F1AC
:107990000100217890FBF1F201FB12006070A078E9
:1079A000A0F10100A070A4F123042846DAE700004A
:1079B0005C0000206400002070B50646174800787F
:1079C00000EB40001649096801EB0014A06A08B9F1
:1079D000002070BD94F8250010B93046FFF716FF5F
:1079E00094F8250008B90020F3E704F12304D4F843
:1079F0000500617800EBC105607800F10100217895
:107A000090FBF1F201FB12006070A078A0F1010080
:107A1000A070A4F123042846DBE700005C000020EE
:107A2000640000202DE9F0470646884691469A46B4
:107A3000142E01DBBDE8F08706EB46001949096802
:107A400001EB0014A06A00B9F4E794F8250094F85B
:107A50002310884220DA04F123046078A1780844D6
:107A6000217890FBF1F201FB1200C7B214F8230950
:107A7000B84200DCDEE7A06A00EBC70585F80080AD
:107A80004A4650466968F9F77CF985F8019094F800
:107A90002500401C84F82500304600F065F800BF42
:107AA000C8E7000064000020002056E000EB400121
:107AB0002B4A126802EB01110989022902D0102910
:107AC00047D11DE000EB4001254A126802EB01118D
:107AD0008969491C00EB4002214B1B6803EB021231
:107AE000916100EB40011E4A126802EB01118969A5
:107AF00044F62062914202D940211A4A517029E08D
:107B0000002100EB4002164B1B6803EB021291614F
:107B100000EB4001124A126802EB0111496941B9B8
:107B2000022100EB40020E4B1B6803EB0212118195
:107B30000EE000EB40010A4A126802EB01114969AC
:107B4000491E00EB4002064B1B6803EB0212516119
:107B500000E000BF00BF411CC8B21428A6DB70477C
:107B60006400002054000020142800DB704700EB64
:107B70004001094A126802EB01110989012900D16B
:107B8000F4E7102100EB4002034B1B6803EB0212E9
:107B9000118100BFEAE700006400002010B5044630
:107BA0000F480078A04200D110BD0D48007800EBCE
:107BB00040000C49096801EB00100B4908600848B7
:107BC0000470007800EB40000649096801EB0010E2
:107BD000006806490860F8F719FF00BFE4E70000F5
:107BE0005C00002064000020500000204C000020B9
:107BF00030B503461846041F20462160041F204666
:107C000023600025041F20462560041F20462560B0
:107C1000041F20462560041F20462560041F2046BF
:107C20002560041F20462560041F20462560041F90
:107C300020462560041F20462560041F204625603D
:107C4000041F20462560041F20462560041F20468F
:107C500022604FF08075041F2046256030BD000073
:107C600010B5044604EB44000449096801EB001018
:107C7000006803490860F8F7E2FE10BD64000020C8
:107C80004C00002010B50446142C00DB10BD04EBA2
:107C900044000E49096801EB00100089012800D159
:107CA000F4E7042004EB4401084A126802EB0111D6
:107CB0000881002104EB4400044A126802EB001022
:107CC000416100F043F800BFE0E7000064000020DD
:107CD00010B50446142C01DB002010BD04EB440059
:107CE0001949096801EB00100089012801D1002021
:107CF000F3E704EB44001449096801EB0010008924
:107D0000042801D10020E8E704EB44000E4909688B
:107D100001EB00100089082801D10020DDE70820D0
:107D200004EB4401084A126802EB011108810020AB
:107D300004EB4401044A126802EB0111486100F0AF
:107D400005F80120C9E700006400002010B50221F9
:107D500023480068A0F8981300243DE004EB440099
:107D60001F49096801EB00100089022802D0202871
:107D70002ED107E01B480078A04202D02046FFF732
:107D80000DFF10BD04EB44001549096801EB00101C
:107D900090F822001449096801EB4010007A01288C
:107DA00015D1102004EB44010D4A126802EB0111B9
:107DB0000881032004EB4401094A126802EB011117
:107DC00091F82210084A126802EB4111087200E093
:107DD00000BF00BF601CC4B2142CBFDB00BFD0E7E3
:107DE000640000205C000020700000200246501853
:107DF00020F00303A3F1300020F0070070470000DB
:107E000010B5142800DB10BD00EB4002104B1B68BE
:107E100003EB02121289042A00D1F4E7002200EBDE
:107E200040030B4C246804EB03139A61102300EB0E
:107E30004002074C246804EB0212138100EB40025D
:107E4000034B1B6803EB0212516100BFDBE700002C
:107E50006400002070B504460D4616460122144900
:107E6000887B002816DD0AE04968002A07DD0878CB
:107E7000904202D02270002201E0501CC2B2486839
:107E80000028F1D1002A00DD22700A480078A07392
:107E90004C6005E00C460020207006480078A07376
:107EA000258166810020A08123616060207870BDFB
:107EB000E00000205C00002002460A490CE048680F
:107EC0000078904207D100204B685881486840688C
:107ED000486010467047496848680028EFD100BFE5
:107EE000F8E70000E000002010B5134C1FE06068C8
:107EF000807B10F0400F19D06068807B10F0800FFD
:107F000012D06168086980476068807B20F080003B
:107F1000616888736068408920B961680878FFF7F4
:107F2000CBFF04E0646802E0646800E064686068B5
:107F30000028DCD110BD0000E000002012481EE047
:107F40004068817B11F0400F19D04189002916DD6E
:107F500081890289914203DA8189491C81810EE07D
:107F60004189FF2902DA4189491E4181418900295D
:107F700001DD00218181817B41F0800181734168B5
:107F80000029DDD170470000E000002010B5044654
:107F90000B48007800EB40000A49096801EB00102B
:107FA00080F8224020200649097801EB4101054A6A
:107FB000126802EB01110881FFF7C8FE10BD000036
:107FC0005C0000206400002010B540F225510E48EE
:107FD00000F09BF9B8B10C48001D0088C4B20B48F2
:107FE00000880B49098888420DDA08480188008812
:107FF000401C064A10800748006844540649087827
:108000000A21FFF7FDFE10BD00380140D600002018
:10801000CC000020A40000203800002010B540F261
:108020002551114800F071F9C0B10F48001D0088BA
:10803000C4B20E4840880E494988884213DA0B487A
:1080400041884088401C094A50800A48406844548E
:10805000094948780A21FFF7D3FE04E040F2255190
:10806000014800F044F810BD00440040D600002054
:10807000CC000020A40000203800002010B540F201
:108080002551114800F041F9C0B10F48001D00888A
:10809000C4B20E4880880E498988884213DA0B489A
:1080A00081888088401C094A90800A48806844542E
:1080B000094988780A21FFF7A3FE04E040F2255120
:1080C000014800F014F810BD00480040D600002020
:1080D000CC000020A40000203800002001F4007231
:1080E000B2F5007F00D100BFCA430280704710B5CF
:1080F00000220023A1F510646A3C00D100BF0A12DF
:1081000001249440A3B2DC43048010BD21B18289D4
:1081100042F40052828104E082894DF6FF731A40D6
:108120008281704770B50446204600F03DF905464F
:1081300000F05CF824B1012C09D0022C15D10DE01F
:1081400025224FF4E1310A4800F018F80DE026220C
:108150004FF4E131074800F011F806E027224FF410
:108160001651054800F00AF800BF00BF70BD0000BE
:1081700000380140004400400048004070B586B01F
:1081800006460C46154601940020ADF80800ADF8EF
:108190000A00ADF80C00ADF810000C20ADF80E0090
:1081A00001A9304600F044F9012240F22551304641
:1081B00000F018F901213046FFF7A8FF40213046B2
:1081C000FFF78CFF4FF48060FCF7A8F88DF814508F
:1081D00002208DF8150001208DF816008DF817008B
:1081E00005A8FCF761F806B070BD000038B504467C
:1081F000274884420BD10D202315264A51150090A3
:10820000104600F057F801218803FCF7FBFE2248D6
:1082100084420BD1042008231E4A014600901046D8
:1082200000F048F801214804FCF7DCFE1B488442BA
:108230000FD10920E3141A4A11150090104600F0DE
:1082400039F801218804FCF7CDFE01218804FCF7F0
:10825000D9FE144884420BD11120E314124A11159F
:108260000090104600F026F80121C804FCF7BAFE81
:108270000E4884420BD1312004230D4A9114009002
:10828000094800F017F801210805FCF7ABFE38BDDE
:108290000038014000080140004400400048004010
:1082A000000C0140004C0040001001400050004014
:1082B000001401402DE9F84307460D4616461C46BA
:1082C000DDF8208001214046FCF79CFEADF800500F
:1082D00003208DF8020018208DF803006946384607
:1082E000F9F760FFADF8004004208DF803006946FF
:1082F0003046F9F757FF29463846FAF72AF821465B
:108300003046FAF726F8BDE8F88370B50246002437
:10831000002300250020A1F510666A3E00D100BFB1
:10832000C1F3421501F01F03012606FA03F3012DE4
:1083300002D19689334006E0022D02D1168A3340DD
:1083400001E0968A33400C12012606FA04F41688DE
:10835000344013B10CB1012000E0002070BD0000DA
:1083600001460F4A881A914213D006DC0D480818BE
:108370000BD0B0F5806F10D109E0B0F5806F0AD056
:10838000B0F56C4F09D1002070470120FCE70220B6
:10839000FAE70320F8E70420F6E70020F4E70000FE
:1083A000004C004000BCFFBF014605290ED2DFE8AB
:1083B00001F0030507090B00054870470548FCE775
:1083C0000548FAE70548F8E70548F6E70020F4E72E
:1083D000003801400044004000480040004C00408C
:1083E00000500040F0B50346002400260025002080
:1083F000A1F510676A3F00D100BF1846C1F34214CF
:1084000001F01F06012707FA06F5012C01D10C30F7
:1084100004E0022C01D1103000E014301AB10768DA
:108420002F43076002E00768AF430760F0BD00001C
:108430002DE9F04785B005460E460024A24600BF50
:10844000A1460027B08900B100BF2F462C8A4CF608
:10845000FF700440F08804432C82AC892848044013
:10846000B08831890843718908430443AC81AC8AE0
:108470004FF6FF400440B0890443AC826846FCF7E5
:10848000E1FD2048874202D1DDF80CA001E0DDF8D3
:1084900008A0A88910F4004F08D00AEBCA0000EB2E
:1084A0000A1031684900B0FBF1F807E00AEBCA0096
:1084B00000EB0A1031688900B0FBF1F86420B8FBCA
:1084C000F0F004012009642101FB1089A88910F44F
:1084D000004F08D0322000EBC900B0FBF1F000F0F3
:1084E0000700044308E0322000EB09106421B0FBD0
:1084F000F1F000F00F0004432C8105B0BDE8F087D7
:10850000FFFEF0FF003801402DE9F04705460E461A
:1085100014462F46B046A1463846FFF721FF824653
:1085200000234FF496724146384600F005F8A9F84A
:108530000000BDE8F08700002DE9F04780460F46B7
:1085400015461E464046FFF70BFF04462049085DCE
:108550000021FFF7ABF98146B9F1000F28D00122C5
:1085600040F225514046FFF73DFF1A4800781A496E
:108570000855B5F5967F01DB4FF49675174820F83E
:1085800014500020164921F814001EB13046FFF7A0
:108590003DF903E01049085DFFF79AFB0C49085DBF
:1085A000FFF764F9002240F225514046FFF71AFF19
:1085B00047B10B4931F814200A4951F824003946D3
:1085C000F8F7DFFB064830F81400BDE8F08700003C
:1085D0002E0000205C00002038000020CC0000208D
:1085E000D6000020A40000202DE9F04304460D46EB
:1085F00016462746A846B6F800904A4641463846F1
:1086000000F00BF8BDE8F08300BF028812F0800F85
:10861000FBD0C1F308028280704710B50B460021E1
:1086200008E000BF048814F0800FFBD05C5C8480FD
:108630004C1CA1B29142F4DB10BD0FB430B5B3B005
:10864000054638A832906846329A379900F090F97A
:10865000002032906846FAF7FBF904462246694644
:108660002846FFF7DAFF204633B030BC5DF814FB34
:1086700000B54FF48020F9F793FB00BD2DE9F047DA
:1086800081460C46154627464FF0900805FB17809B
:1086900090FBF7F086B205FB07F0404501DB0027B1
:1086A00005E01EB905FB178087B200E000BF002679
:1086B00009EB0601074A05FB04203A46F8F761FB7F
:1086C000304486B20522314603A0F8F7BBFEF0B273
:1086D000BDE8F087489D0020CAFDBEDDB3A4B6C842
:1086E0005B25645D0000000010B502A0F9F78CFF67
:1086F00010BD000041542B51494F50454E3D22546E
:108700004350222C223131362E33302E37302E3149
:108710003833222C393131320D0A00002DE9F04175
:10872000CCB005460E4617469846529C28494FF451
:10873000967248680021F8F735FB4FF496720021D5
:108740002846F8F72FFB43463A46314601A80094E5
:1087500000F0CDF8044622461EA12248FFF76DFF27
:108760004FF4FA6120A0F9F7F7FD18B901204CB0D9
:10877000BDE8F081224601A91A48FFF74EFF4FF4E9
:108780007A711AA0F9F7E8FD08B90220EFE74FF473
:10879000FA634FF4967229461248FFF7CDFE04465D
:1087A00084B10B49486800F085F838B10848224682
:1087B000416810A0FBF7F0FE0020D8E705210EA0CD
:1087C000F8F740FE05210FA0F8F73CFE0320CEE7A6
:1087D000A400002041542B514953454E443D25648B
:1087E0000D0A0000004400403E00000053454E4486
:1087F000204F4B00523A0000D0A3D1E9CAA7B0DC09
:1088000000000000B7B5BBD8B3ACCAB1000000008F
:1088100000BFFEE72DE9F04106460D46C5F30F37D0
:108820002805000D01D0781C87B2002407E04FF422
:10883000805101FB0460FCF73FFE601C84B2BC4227
:10884000F5DBBDE8F08170B504460D4616463246AC
:1088500021462846FCF7EAFC70BD70B504460D467B
:108860001646328828462168FCF7E0FC70BD70B5DA
:1088700004460D461646328828462168FCF7FEFC61
:1088800070BD70B504460D46164632462146284650
:10889000FCF7F4FC70BD000010B5032101A0F8F74F
:1088A000D1FD10BD575744475F49525148616E642E
:1088B0006C6572002DE9F0410446E078C0EB0020C1
:1088C00021790844C01D85B2281F81B2A01CFEF783
:1088D00095FD0646A91E08190021FAF7DBF80746A0
:1088E000B74202D10120BDE8F0810020FBE72DE96D
:1088F000F0470546894617469846089E00242819E1
:1089000001224946FDF784F904442146641C6F5452
:10891000FF2096FBF0F02146641C6854FF2096FB74
:10892000F0F100FB11602146641C6854291932469D
:108930004046F8F726FA204484B22146284600F043
:1089400004F80446E0B2BDE8F08770B505460C4671
:10895000A01E81B2A81CFEF751FD06462819002270
:108960003146FDF755F9204484B2204670BD000021
:1089700037B514460846064B6A46214600F0C8F84B
:1089800004466946002000F066FC20463EBD00001B
:108990005792000802E008C8121F08C1002AFAD145
:1089A00070477047002001E001C1121F002AFBD16F
:1089B000704700002DE9FF5FDDE90220010DDDF8C1
:1089C00038B0024310D10F9801244CA2012808D0DE
:1089D000002100980F9BC0E90021C0E90243BDE8D7
:1089E000FF9F6FEA0B01F4E7A1F2FF3144F610504C
:1089F00041430D140F9801280ED0A5EB0B00401C2D
:108A00004FF000043E4EDFF8FC90B0F1000AA046A3
:108A100005DACAF1000717E0CBF10000F0E70746DE
:108A200012E0F80707D02246334640464946F7F79A
:108A300022FD804689462246334610461946F7F7FE
:108A40001AFD04460E467F10002FEAD1DDE902012F
:108A5000BAF1000F42464B4602DAF7F70CFD01E08F
:108A6000F7F77BFD04460E460022274BF7F752FE30
:108A700003D84FF0FF30014607E00022234B204689
:108A80003146F7F751FCF7F796FF102409E0002C68
:108A90000ADB0A220023F7F797FE019B30321A55B2
:108AA000641E50EA0102F2D1641C019AC4F1110360
:108AB00014440F9A012A09D00122084301D15B45D1
:108AC0000FDD4FF0000205F101050DE0084303D171
:108AD000A3EB0B056D1E09E000204FF0110B0F906A
:108AE00088E701DA00226D1E002A83D000980F99D2
:108AF000C0E90231C0E9004571E700003000000024
:108B0000000024400000F03F0000F0430000E03F80
:108B10002DE9FF4F95B09B4689460646002512E297
:108B2000252878D10024761CF94A2746012105948E
:108B30003378203B01FA03F0104202D00443761C44
:108B4000F6E730782A2811D06FF02F033078A0F1A3
:108B50003002092A16D8059A44F0020402EB820278
:108B600003EB42021044761C0590EFE759F8042B02
:108B70000592002A03DA504244F40054059044F070
:108B80000204761C30782E2816D116F8010F44F016
:108B900004042A280DD06FF02F023078A0F13003A2
:108BA000092B09D807EB870302EB4303C718761C90
:108BB000F3E759F8047B761C30786C280FD006DC7C
:108BC0004C2817D068280DD06A2814D104E07428E6
:108BD00010D07A280FD10DE044F400140AE044F4D8
:108BE000801401E044F440147278824202D1761C71
:108BF00004F58014761C307866280BD013DC5828D6
:108C000077D009DC002875D04528F6D04628F4D066
:108C100047281AD19FE118E0632835D0642879D01D
:108C2000652812D197E1702873D008DC6728F1D04D
:108C300069286FD06E280DD06F2806D1B5E0732853
:108C40002CD0752875D0782874D05A46179990473B
:108C50006D1C76E1C4F30250022809D003280DD020
:108C6000D9F8001004280DD00D6009F1040968E15D
:108C7000D9F80010EA17C1E90052F6E7D9F8001058
:108C80000D80F2E70D70F0E719F8041B8DF8001065
:108C900000208DF80100EA46012003E059F804ABFA
:108CA0004FF0FF3061074FF0000102D40DE008F1F2
:108CB00001018846B9420FDA8045F8DB1AF808103E
:108CC0000029F4D108E008F1010188468142FADB6D
:108CD0001AF808100029F6D105985B46A0EB0807A2
:108CE00021463846179A00F09EFA284400EB080502
:108CF00007E04DE02BE10DE01AF8010B5A461799F9
:108D00009047B8F10108F7D25B4621463846179ADA
:108D100014E142E00A220092C4F302524FF0000A2A
:108D2000022A08D059F804CB032A4FEAEC710AD082
:108D30000DE029E02AE009F1070121F00702F2E83D
:108D400002C1914609E00FFA8CFC4FEAEC71042A4B
:108D500003D14FFA8CFC4FEAEC71002907DA0A467E
:108D60000021DCF1000C61EB02012D2202E0220562
:108D700004D52B228DF80420012203E0E20701D064
:108D80002022F7E7904653E00A2102E010220DE08E
:108D900010214FF0000A00910BE010224FF0000A62
:108DA00044F004040827009203E008224FF0000A70
:108DB0000092C4F30252022A05D059F804CB0021D4
:108DC000032A08D009E009F1070121F00702F2E8BF
:108DD00002C1914605E01FFA8CFC042A01D10CF077
:108DE000FF0C4FF00008220722D5702827D0009BE7
:108DF00083F0100353EA0A0309D15CEA010206D0AA
:108E000030228DF804208DF8050002229046009B48
:108E100083F0080353EA0A030AD15CEA010201D194
:108E2000620705D530228DF804204FF001087F1E1F
:108E3000582809D037A003900EA8029013E04022D2
:108E40008DF804200122E1E737A0F4E7534660469D
:108E5000009AF7F7B9FC84460398825C0298A0F167
:108E60000100029002705CEA0100EFD1029806A9AD
:108E7000A1EB000000F1200A600702D524F4803441
:108E800000E00127574502DDA7EB0A0000E00020C3
:108E900000EB0A01009005984144A0EB0100059009
:108EA000E00306D45B462146179A059800F0BBF90B
:108EB0000544002706E001A85A46C05D179990476F
:108EC0006D1C7F1C4745F6DBE0030CD55B46214655
:108ED000179A059800F0A7F9054404E030205A4697
:108EE000179990476D1C0099481E00900029F5DCE9
:108EF00008E0029802995A460078491C0291179995
:108F000090476D1CBAF10001AAF1010AF1DC6BE196
:108F1000092801003031323334353637383961624F
:108F20006364656600000000303132333435363713
:108F300038394142434445460000000000F060F9E2
:108F4000054406F10106307800287FF4E9AD19B038
:108F50002846BDE8F08F620700D4062709F1070212
:108F600022F0070CFCE80223E14603F000485FEA28
:108F7000080C02D00FF27C2C0DE05FEA045C02D5F5
:108F80000FF2742C07E05FEAC47C02D00FF26C2C65
:108F900001E0AFF2700C4FF0FF3823F00043CDF842
:108FA00050C065280CD006DC452809D046281DD0C5
:108FB00047283ED13EE0662818D0672839D139E0ED
:108FC0000021112F01DB112000E0781CCDE9000108
:108FD00006A90EA8FFF7EEFCDDE90F010E9A03913A
:108FE0000021009207F1010A04914EE04FF0004089
:108FF0000097CDE9011006A90EA8FFF7DBFCDDE91B
:109000000F0203920E9B11990022DDF80CA0009331
:10901000049219B907F1010100EB010AB7EB0A004C
:1090200004D4C0F1FF3007F1010A0490AAEB070055
:10903000019046E0012F00DA01270021112F01DD08
:10904000112000E03846CDE9000106A90EA8FFF77F
:10905000B1FCDDE90F010E9A039100210491009209
:10906000BA4621070CD40399514500DA8A46BAF171
:10907000010F05DD009AAAF10101515C302908D0E9
:10908000B84202DA10F1040F06DA0121CDE901102D
:1090900017E0AAF10101E9E7002805DC0499014481
:1090A0000491AAEB000102E0411C514500DD8A4613
:1090B0000499A0EB010000F1010001904FF0004085
:1090C0000290200704D40198504501DBCDF80480BC
:1090D00000208DF84F0002980DF14F07B0F1004FBE
:1090E00025D02B200E9002984FF0020800280CDAB1
:1090F000404202902D200E9007E00A210298F7F7D7
:109100004DFB3031029007F8011DB8F10001A8F1C4
:109110000108F2DC02980028EFD1791E0E98087041
:10912000307800F0200040F0450007F8020D12A84A
:10913000A0EB070000F107081498007800B10120A7
:1091400000EB0A01019801EBE07105984144A0EBA6
:109150000100A0F101000590E00306D45B46214622
:10916000179A059800F05FF805441498007820B12C
:109170005A461799904705F10105E00323D55B4650
:109180002146179A059800F04EF805441BE0049814
:10919000002807DBDDE90301884203DD0098405C1D
:1091A000179901E0179930205A46904704986D1C92
:1091B000401C04900198401E019004D12E205A4674
:1091C000179990476D1CBAF10001AAF1010ADEDC83
:1091D00005E017F8010B5A46179990476D1CB8F136
:1091E0000001A8F10108F4DC5B462146179A0598B6
:1091F000A4E600002D0000002B000000200000006D
:109200002DE9F041044600251E461746880405D482
:1092100006E039462020B04705F10105641EF8D567
:109220002846BDE8F0812DE9F041044600251E46A0
:109230009046C80301D5302700E02027880405D5D3
:1092400006E041463846B04705F10105641EF8D5F1
:109250002846BDE8F0810A68531C0B601070704707
:10926000801000BF0100A0F1010290B2FAD1704756
:109270000D48FAF78BFEF8F7C9F90C48F8F798FB98
:109280000B48F8F795FB0B48F8F792FBF8F75AFAFA
:10929000F8F726FBF8F76AFCF8F7BCFA0648FEF781
:1092A0005FF900BFFEE70000F40000200038014035
:1092B0000044004000480040D497000800C18140AD
:1092C00001C0804101C0804100C1814001C0804196
:1092D00000C1814000C1814001C0804101C0804186
:1092E00000C1814000C1814001C0804100C1814076
:1092F00001C0804101C0804100C1814001C0804166
:1093000000C1814000C1814001C0804100C1814055
:1093100001C0804101C0804100C1814000C1814045
:1093200001C0804101C0804100C1814001C0804135
:1093300000C1814000C1814001C0804101C0804125
:1093400000C1814000C1814001C0804100C1814015
:1093500001C0804101C0804100C1814000C1814005
:1093600001C0804101C0804100C1814001C08041F5
:1093700000C1814000C1814001C0804100C18140E5
:1093800001C0804101C0804100C1814001C08041D5
:1093900000C1814000C1814001C0804101C08041C5
:1093A00000C1814000C1814001C0804100C18140B5
:1093B00001C0804101C0804100C1814000C0C101A5
:1093C000C30302C2C60607C705C5C404CC0C0DCD35
:1093D0000FCFCE0E0ACACB0BC90908C8D81819D9A5
:1093E0001BDBDA1A1EDEDF1FDD1D1CDC14D4D515D5
:1093F000D71716D6D21213D311D1D010F03031F1C5
:1094000033F3F23236F6F737F53534F43CFCFD3DF4
:10941000FF3F3EFEFA3A3BFB39F9F83828E8E929E4
:10942000EB2B2AEAEE2E2FEF2DEDEC2CE42425E594
:1094300027E7E62622E2E323E12120E0A06061A104
:1094400063A3A26266A6A767A56564A46CACAD6DB4
:10945000AF6F6EAEAA6A6BAB69A9A86878B8B97924
:10946000BB7B7ABABE7E7FBF7DBDBC7CB47475B554
:1094700077B7B67672B2B373B17170B05090915144
:109480009353529296565797559594549C5C5D9D74
:109490005F9F9E5E5A9A9B5B995958988848498964
:1094A0004B8B8A4A4E8E8F4F8D4D4C8C4484854514
:1094B00087474686824243834181804002100000F4
:1094C000000C0140073000000210000000100140B5
:1094D000000300000348000000100140C00000002D
:1094E00003280000000801400100000003480000BC
:1094F0000008014000010000000000000000000022
:1095000000000000034800000010014003000000BC
:109510000000000000000000000000000210000039
:109520000010014000E0000000000000000000000A
:1095300000000000AFA06D4FC6CBEB0EEFCF104088
:1095400000A7ECE8E1E36BE6A9FA0AD6F46CBCBE2E
:10955000E0FEFC0104007ACE8E1E3EB66E9AAF0687
:109560006D4FC6CBEB0EEFCF1A990008A56D000822
:109570000200000011990008DD69000802000000E7
:10958000239900082D64000802000000E2980008FA
:10959000709D00201A0B0000E29800087B9D0020BF
:1095A0001A0B0000CB980008AE9D00201A10000096
:1095B000AF980008CE9D002005020000A598000885
:1095C000D49D002009040000F8980008869D002022
:1095D0001A100000EE9800089A9D00201A0A000058
:1095E000D6980008A49D00201A0A000002990008DD
:1095F000969D00201A0400005E9900084C9D0020F2
:10960000040000003E990008509D00200400000066
:109610004E990008549D0020040000002E99000877
:10962000589D0020040000000C9900080000000074
:109630000000000000030306010406020500030504
:109640001F1C1F1E1F1E1F1F1E1F1E1F0248000063
:1096500000180140600000000210000000100140EE
:1096600038000000000000000000000000000000C2
:1096700041540D0A00415445300D0A0041542B431A
:1096800053510D0A0041542B515253543D312C304B
:109690000D0A0041542B51504F57443D300D0A00E4
:1096A000415456310D0A0041542B4950523F0D0A86
:1096B0000041542B4350494E3F0D0A0041542B5159
:1096C000494143543F0D0A0041542646300D0A00DB
:1096D00041542B434D45453D320D0A0041542B5119
:1096E000494745544552524F520D0A0041542B519F
:1096F000494647434E543D300D0A0041542B5149D1
:109700005245474150500D0A0041542B43524547A2
:109710003F0D0A0041542B43475245473F0D0A0075
:1097200041542B51494143540D0A0041542B514996
:10973000434C4F53453D300D0A0041542B51495382
:10974000544154450D0A0041542B5149444541436D
:10975000540D0A00415453303D320D0A0041542B40
:1097600043504D533D2A4D542A2C2A4D542A2C2A1D
:109770004D542A0D0A0041542B434D47463D310DAF
:109780000A0041542B435343533D2A47534D2A0D5E
:109790000A0041542B43534D503D31372C3136375D
:1097A0002C302C300D0A0041542B434E4D493D3294
:1097B0002C312C302C302C300D0A0041542B434DD1
:1097C00047533D2A31333236373231363234372A35
:1097D0000D0A00003D5F0008000000007A980008B4
:1097E000D00700005D6000080000000080980008BD
:1097F000D00700002D66000800000000BB9800089C
:10980000D0070000396900080000000086980008B1
:10981000D00700002D560008003801408698000847
:10982000D007000069620008000000008698000868
:10983000D0070000D96600080000000086980008E4
:10984000D0070000C56300080000000086980008EB
:10985000D00700006167000800000000869800083B
:10986000D007000000000000000000000000000021
:10987000000000005472756520005461736B300065
:109880005461736B32005461736B33003031323387
:109890003435363738392E2D2055504654424F48EE
:1098A00043004F4B00D7B4CCACCEBB3A256400B7D5
:1098B000FECEF1B6CBBFDA3A2564005461736B5F1C
:1098C000466163650046616C736500D6F7BBFA5B61
:1098D000315D3A257300B4F2D3A1B1EACCE23A2566
:1098E0007300B5E7BBB0BAC5C2EB3A257300B4F25A
:1098F000D3A1C3FB3A257300B5C7C2BDB0FC3A255E
:109900007300D0C4CCF8B0FC3A257300B2CBB5A537
:1099100000B6C1C8A1C5E4D6C300B1A3B4E6C5E48E
:10992000D6C300B7E4C3F9C6F7B2E2CAD400CAAAE4
:10993000B6C8CFC2CFDE3A252E3266A1E600CEC22F
:10994000B6C8CFC2CFDE3A252E3266A1E600CAAA3B
:10995000B6C8C9CFCFDE3A252E3266A1E600CEC208
:10996000B6C8C9CFCFDE3A252E3266A1E600000088
:109970009099000800000020A400000094890008CD
:10998000349A0008A40000206CA10000A4890008FB
:109990000000000001020304010203040607080995
:1099A0000204060800A24A040000000000000000B3
:1099B0000102030406070809FF0000000000000080
:1099C0000000000000000000000000000000000097
:1099D0000000000000000000000000000000000087
:1099E0000000000000000000000000000000000077
:1099F0000000000000000000000000000000000067
:109A00000000000000000000FF00FFFFFFFFFFFF5D
:109A10008C980008A2980008C5980008749800085F
:109A2000FFFF0FFF00000000FFFFFFFF000000002E
:049A30000000000032
:0400000508000131BD
:00000001FF
