ARM Linker, 5.03 [Build 76] [MDK-ARM Standard]

==============================================================================

Section Cross References

    stm32f10x_adc.o(i.ADC_DeInit) refers to stm32f10x_rcc.o(i.RCC_APB2PeriphResetCmd) for RCC_APB2PeriphResetCmd
    stm32f10x_bkp.o(i.BKP_DeInit) refers to stm32f10x_rcc.o(i.RCC_BackupResetCmd) for RCC_BackupResetCmd
    stm32f10x_can.o(i.CAN_DeInit) refers to stm32f10x_rcc.o(i.RCC_APB1PeriphResetCmd) for RCC_APB1PeriphResetCmd
    stm32f10x_can.o(i.CAN_GetITStatus) refers to stm32f10x_can.o(i.CheckITStatus) for CheckITStatus
    stm32f10x_cec.o(i.CEC_DeInit) refers to stm32f10x_rcc.o(i.RCC_APB1PeriphResetCmd) for RCC_APB1PeriphResetCmd
    stm32f10x_dac.o(i.DAC_DeInit) refers to stm32f10x_rcc.o(i.RCC_APB1PeriphResetCmd) for RCC_APB1PeriphResetCmd
    stm32f10x_flash.o(i.FLASH_EnableWriteProtection) refers to stm32f10x_flash.o(i.FLASH_WaitForLastOperation) for FLASH_WaitForLastOperation
    stm32f10x_flash.o(i.FLASH_EraseAllBank1Pages) refers to stm32f10x_flash.o(i.FLASH_WaitForLastBank1Operation) for FLASH_WaitForLastBank1Operation
    stm32f10x_flash.o(i.FLASH_EraseAllPages) refers to stm32f10x_flash.o(i.FLASH_WaitForLastOperation) for FLASH_WaitForLastOperation
    stm32f10x_flash.o(i.FLASH_EraseOptionBytes) refers to stm32f10x_flash.o(i.FLASH_GetReadOutProtectionStatus) for FLASH_GetReadOutProtectionStatus
    stm32f10x_flash.o(i.FLASH_EraseOptionBytes) refers to stm32f10x_flash.o(i.FLASH_WaitForLastOperation) for FLASH_WaitForLastOperation
    stm32f10x_flash.o(i.FLASH_ErasePage) refers to stm32f10x_flash.o(i.FLASH_WaitForLastOperation) for FLASH_WaitForLastOperation
    stm32f10x_flash.o(i.FLASH_ProgramHalfWord) refers to stm32f10x_flash.o(i.FLASH_WaitForLastOperation) for FLASH_WaitForLastOperation
    stm32f10x_flash.o(i.FLASH_ProgramOptionByteData) refers to stm32f10x_flash.o(i.FLASH_WaitForLastOperation) for FLASH_WaitForLastOperation
    stm32f10x_flash.o(i.FLASH_ProgramWord) refers to stm32f10x_flash.o(i.FLASH_WaitForLastOperation) for FLASH_WaitForLastOperation
    stm32f10x_flash.o(i.FLASH_ReadOutProtection) refers to stm32f10x_flash.o(i.FLASH_WaitForLastOperation) for FLASH_WaitForLastOperation
    stm32f10x_flash.o(i.FLASH_UserOptionByteConfig) refers to stm32f10x_flash.o(i.FLASH_WaitForLastOperation) for FLASH_WaitForLastOperation
    stm32f10x_flash.o(i.FLASH_WaitForLastBank1Operation) refers to stm32f10x_flash.o(i.FLASH_GetBank1Status) for FLASH_GetBank1Status
==============================================================================

Removing Unused input sections from the image.

    Removing misc.o(i.NVIC_SystemLPConfig), (32 bytes).
    Removing misc.o(i.SysTick_CLKSourceConfig), (40 bytes).
    Removing stm32f10x_adc.o(i.ADC_AnalogWatchdogCmd), (20 bytes).
    Removing stm32f10x_adc.o(i.ADC_AnalogWatchdogSingleChannelConfig), (16 bytes).
    Removing stm32f10x_adc.o(i.ADC_AnalogWatchdogThresholdsConfig), (6 bytes).
    Removing stm32f10x_adc.o(i.ADC_AutoInjectedConvCmd), (22 bytes).
    Removing stm32f10x_adc.o(i.ADC_ClearFlag), (6 bytes).
    Removing stm32f10x_adc.o(i.ADC_ClearITPendingBit), (10 bytes).
    Removing stm32f10x_adc.o(i.ADC_DeInit), (92 bytes).
    Removing stm32f10x_adc.o(i.ADC_DiscModeChannelCountConfig), (24 bytes).
    Removing stm32f10x_adc.o(i.ADC_DiscModeCmd), (22 bytes).
    Removing stm32f10x_adc.o(i.ADC_ExternalTrigConvCmd), (22 bytes).
    Removing stm32f10x_adc.o(i.ADC_ExternalTrigInjectedConvCmd), (22 bytes).
    Removing stm32f10x_adc.o(i.ADC_ExternalTrigInjectedConvConfig), (16 bytes).
    Removing stm32f10x_adc.o(i.ADC_GetConversionValue), (8 bytes).
    Removing stm32f10x_adc.o(i.ADC_GetDualModeConversionValue), (12 bytes).
    Removing stm32f10x_adc.o(i.ADC_GetFlagStatus), (18 bytes).
    Removing stm32f10x_adc.o(i.ADC_GetITStatus), (36 bytes).
==============================================================================

Image Symbol Table

    Local Symbols

    Symbol Name                              Value     Ov Type        Size  Object(Section)

    ../clib/microlib/division.c              0x00000000   Number         0  uldiv.o ABSOLUTE
    ../clib/microlib/division.c              0x00000000   Number         0  uidiv.o ABSOLUTE
    ../clib/microlib/errno.c                 0x00000000   Number         0  errno.o ABSOLUTE
    ../clib/microlib/init/entry.s            0x00000000   Number         0  entry9a.o ABSOLUTE
    ../clib/microlib/init/entry.s            0x00000000   Number         0  entry8a.o ABSOLUTE
    ../clib/microlib/init/entry.s            0x00000000   Number         0  entry5.o ABSOLUTE
    ../clib/microlib/init/entry.s            0x00000000   Number         0  entry7b.o ABSOLUTE
    ../clib/microlib/init/entry.s            0x00000000   Number         0  entry11a.o ABSOLUTE
    ../clib/microlib/init/entry.s            0x00000000   Number         0  entry11b.o ABSOLUTE
    ../clib/microlib/init/entry.s            0x00000000   Number         0  entry.o ABSOLUTE
    ../clib/microlib/init/entry.s            0x00000000   Number         0  entry2.o ABSOLUTE
    ../clib/microlib/init/entry.s            0x00000000   Number         0  entry8b.o ABSOLUTE
    ../clib/microlib/init/entry.s            0x00000000   Number         0  entry9b.o ABSOLUTE
    ../clib/microlib/init/entry.s            0x00000000   Number         0  entry10a.o ABSOLUTE
    ../clib/microlib/init/entry.s            0x00000000   Number         0  entry7a.o ABSOLUTE
    ../clib/microlib/init/entry.s            0x00000000   Number         0  entry10b.o ABSOLUTE
    ../clib/microlib/longlong.c              0x00000000   Number         0  llshl.o ABSOLUTE
    ../clib/microlib/longlong.c              0x00000000   Number         0  llushr.o ABSOLUTE
    ../clib/microlib/longlong.c              0x00000000   Number         0  llsshr.o ABSOLUTE
    ../clib/microlib/printf/printf.c         0x00000000   Number         0  printfa.o ABSOLUTE
    ../clib/microlib/stdio/fputc.c           0x00000000   Number         0  fputc.o ABSOLUTE
    ../clib/microlib/stdio/semi.s            0x00000000   Number         0  semi.o ABSOLUTE
    ../clib/microlib/stdio/streams.c         0x00000000   Number         0  stdout.o ABSOLUTE
    ../clib/microlib/string/strstr.c         0x00000000   Number         0  strstr.o ABSOLUTE
    ../clib/microlib/stubs.s                 0x00000000   Number         0  iusesemip.o ABSOLUTE
    ../clib/microlib/stubs.s                 0x00000000   Number         0  iusefp.o ABSOLUTE
    ../fplib/microlib/d2f.c                  0x00000000   Number         0  d2f.o ABSOLUTE
    ../fplib/microlib/f2d.c                  0x00000000   Number         0  f2d.o ABSOLUTE
    ../fplib/microlib/fpadd.c                0x00000000   Number         0  fadd.o ABSOLUTE
    ../fplib/microlib/fpadd.c                0x00000000   Number         0  dadd.o ABSOLUTE
    ../fplib/microlib/fpdiv.c                0x00000000   Number         0  fdiv.o ABSOLUTE
    ../fplib/microlib/fpdiv.c                0x00000000   Number         0  ddiv.o ABSOLUTE
    ../fplib/microlib/fpepilogue.c           0x00000000   Number         0  depilogue.o ABSOLUTE
    ../fplib/microlib/fpepilogue.c           0x00000000   Number         0  fepilogue.o ABSOLUTE
    ../fplib/microlib/fpfix.c                0x00000000   Number         0  dfixi.o ABSOLUTE
    ../fplib/microlib/fpfix.c                0x00000000   Number         0  dfixul.o ABSOLUTE
    ../fplib/microlib/fpfix.c                0x00000000   Number         0  ffixi.o ABSOLUTE
    ../fplib/microlib/fpfix.c                0x00000000   Number         0  ffixui.o ABSOLUTE
    ../fplib/microlib/fpfix.c                0x00000000   Number         0  dfixui.o ABSOLUTE
    ../fplib/microlib/fpflt.c                0x00000000   Number         0  dfltui.o ABSOLUTE
    ../fplib/microlib/fpflt.c                0x00000000   Number         0  dflti.o ABSOLUTE
    ../fplib/microlib/fpflt.c                0x00000000   Number         0  ffltui.o ABSOLUTE
    ../fplib/microlib/fpflt.c                0x00000000   Number         0  fflti.o ABSOLUTE
    ../fplib/microlib/fpmul.c                0x00000000   Number         0  dmul.o ABSOLUTE
    ../fplib/microlib/fpmul.c                0x00000000   Number         0  fmul.o ABSOLUTE
    ../fplib/microlib/fpscalb.c              0x00000000   Number         0  dscalb.o ABSOLUTE
    ../mathlib/cos_i.c                       0x00000000   Number         0  cos_i.o ABSOLUTE
    ../mathlib/dunder.c                      0x00000000   Number         0  dunder.o ABSOLUTE
    ../mathlib/fpclassify.c                  0x00000000   Number         0  fpclassify.o ABSOLUTE
    ../mathlib/poly.c                        0x00000000   Number         0  poly.o ABSOLUTE
    ../mathlib/rred.c                        0x00000000   Number         0  rred.o ABSOLUTE
    ../mathlib/sin.c                         0x00000000   Number         0  sin.o ABSOLUTE
    ../mathlib/sin.c                         0x00000000   Number         0  sin_x.o ABSOLUTE
    ../mathlib/sin_i.c                       0x00000000   Number         0  sin_i.o ABSOLUTE
    ../mathlib/sin_i.c                       0x00000000   Number         0  sin_i_x.o ABSOLUTE
    ..\Driver\GPIO_Driver.c                  0x00000000   Number         0  gpio_driver.o ABSOLUTE
    ..\Driver\I2C_Driver.c                   0x00000000   Number         0  i2c_driver.o ABSOLUTE
    ..\Driver\SPI_Driver.c                   0x00000000   Number         0  spi_driver.o ABSOLUTE
    ..\Driver\STM32_CPU.c                    0x00000000   Number         0  stm32_cpu.o ABSOLUTE
    ..\Driver\Usart_Driver.c                 0x00000000   Number         0  usart_driver.o ABSOLUTE
    ..\FuncTask\ComKeyBoard.c                0x00000000   Number         0  comkeyboard.o ABSOLUTE
    ..\FuncTask\Func_Face.c                  0x00000000   Number         0  func_face.o ABSOLUTE
    ..\Libraries\CMSIS\CM3\CoreSupport\core_cm3.c 0x00000000   Number         0  core_cm3.o ABSOLUTE
    ..\Libraries\CMSIS\CM3\DeviceSupport\ST\STM32F10x\stm32f10x_it.c 0x00000000   Number         0  stm32f10x_it.o ABSOLUTE
    ..\Libraries\CMSIS\CM3\DeviceSupport\ST\STM32F10x\system_stm32f10x.c 0x00000000   Number         0  system_stm32f10x.o ABSOLUTE
    ..\Libraries\STM32F10x_StdPeriph_Driver\src\misc.c 0x00000000   Number         0  misc.o ABSOLUTE
    ..\Libraries\STM32F10x_StdPeriph_Driver\src\stm32f10x_adc.c 0x00000000   Number         0  stm32f10x_adc.o ABSOLUTE
    ..\Libraries\STM32F10x_StdPeriph_Driver\src\stm32f10x_bkp.c 0x00000000   Number         0  stm32f10x_bkp.o ABSOLUTE
    ..\Libraries\STM32F10x_StdPeriph_Driver\src\stm32f10x_can.c 0x00000000   Number         0  stm32f10x_can.o ABSOLUTE
    ..\Libraries\STM32F10x_StdPeriph_Driver\src\stm32f10x_cec.c 0x00000000   Number         0  stm32f10x_cec.o ABSOLUTE
    ..\Libraries\STM32F10x_StdPeriph_Driver\src\stm32f10x_crc.c 0x00000000   Number         0  stm32f10x_crc.o ABSOLUTE
    ..\Libraries\STM32F10x_StdPeriph_Driver\src\stm32f10x_dac.c 0x00000000   Number         0  stm32f10x_dac.o ABSOLUTE
    ..\Libraries\STM32F10x_StdPeriph_Driver\src\stm32f10x_dbgmcu.c 0x00000000   Number         0  stm32f10x_dbgmcu.o ABSOLUTE
    ..\Libraries\STM32F10x_StdPeriph_Driver\src\stm32f10x_dma.c 0x00000000   Number         0  stm32f10x_dma.o ABSOLUTE
    ..\Libraries\STM32F10x_StdPeriph_Driver\src\stm32f10x_exti.c 0x00000000   Number         0  stm32f10x_exti.o ABSOLUTE
    ..\Libraries\STM32F10x_StdPeriph_Driver\src\stm32f10x_flash.c 0x00000000   Number         0  stm32f10x_flash.o ABSOLUTE
    ..\Libraries\STM32F10x_StdPeriph_Driver\src\stm32f10x_fsmc.c 0x00000000   Number         0  stm32f10x_fsmc.o ABSOLUTE
    ..\Libraries\STM32F10x_StdPeriph_Driver\src\stm32f10x_gpio.c 0x00000000   Number         0  stm32f10x_gpio.o ABSOLUTE
    ..\Libraries\STM32F10x_StdPeriph_Driver\src\stm32f10x_i2c.c 0x00000000   Number         0  stm32f10x_i2c.o ABSOLUTE
    ..\Libraries\STM32F10x_StdPeriph_Driver\src\stm32f10x_iwdg.c 0x00000000   Number         0  stm32f10x_iwdg.o ABSOLUTE
    ..\Libraries\STM32F10x_StdPeriph_Driver\src\stm32f10x_pwr.c 0x00000000   Number         0  stm32f10x_pwr.o ABSOLUTE
    ..\Libraries\STM32F10x_StdPeriph_Driver\src\stm32f10x_rcc.c 0x00000000   Number         0  stm32f10x_rcc.o ABSOLUTE
    ..\Libraries\STM32F10x_StdPeriph_Driver\src\stm32f10x_rtc.c 0x00000000   Number         0  stm32f10x_rtc.o ABSOLUTE
    ..\Libraries\STM32F10x_StdPeriph_Driver\src\stm32f10x_sdio.c 0x00000000   Number         0  stm32f10x_sdio.o ABSOLUTE
    ..\Libraries\STM32F10x_StdPeriph_Driver\src\stm32f10x_spi.c 0x00000000   Number         0  stm32f10x_spi.o ABSOLUTE
    ..\Libraries\STM32F10x_StdPeriph_Driver\src\stm32f10x_tim.c 0x00000000   Number         0  stm32f10x_tim.o ABSOLUTE
    ..\Libraries\STM32F10x_StdPeriph_Driver\src\stm32f10x_usart.c 0x00000000   Number         0  stm32f10x_usart.o ABSOLUTE
    ..\Libraries\STM32F10x_StdPeriph_Driver\src\stm32f10x_wwdg.c 0x00000000   Number         0  stm32f10x_wwdg.o ABSOLUTE
    ..\Libraries\Startup\startup_stm32f10x_hd.s 0x00000000   Number         0  startup_stm32f10x_hd.o ABSOLUTE
    ..\Tools\AppConfig.c                     0x00000000   Number         0  appconfig.o ABSOLUTE
    ..\Tools\CheakOut.c                      0x00000000   Number         0  cheakout.o ABSOLUTE
    ..\Tools\DeBug.c                         0x00000000   Number         0  debug.o ABSOLUTE
    ..\Tools\ModBus.c                        0x00000000   Number         0  modbus.o ABSOLUTE
    ..\Tools\Operation.c                     0x00000000   Number         0  operation.o ABSOLUTE
    ..\Tools\StandardModBus.c                0x00000000   Number         0  standardmodbus.o ABSOLUTE
    ..\Tools\Text.c                          0x00000000   Number         0  text.o ABSOLUTE
    ..\Tos\LockCode.c                        0x00000000   Number         0  lockcode.o ABSOLUTE
    ..\Tos\Tos.c                             0x00000000   Number         0  tos.o ABSOLUTE
    ..\Tos\Tos_Device.c                      0x00000000   Number         0  tos_device.o ABSOLUTE
    ..\Tos\Tos_Mema.c                        0x00000000   Number         0  tos_mema.o ABSOLUTE
    ..\Tos\Tos_timer.c                       0x00000000   Number         0  tos_timer.o ABSOLUTE
    ..\Tos\tos_core_a.asm                    0x00000000   Number         0  tos_core_a.o ABSOLUTE
    ..\USER\Main.c                           0x00000000   Number         0  main.o ABSOLUTE
    ..\\Libraries\\CMSIS\\CM3\\CoreSupport\\core_cm3.c 0x00000000   Number         0  core_cm3.o ABSOLUTE
    cdcmple.s                                0x00000000   Number         0  cdcmple.o ABSOLUTE
    cdrcmple.s                               0x00000000   Number         0  cdrcmple.o ABSOLUTE
    cfcmple.s                                0x00000000   Number         0  cfcmple.o ABSOLUTE
    cfrcmple.s                               0x00000000   Number         0  cfrcmple.o ABSOLUTE
    dc.s                                     0x00000000   Number         0  dc.o ABSOLUTE
    handlers.s                               0x00000000   Number         0  handlers.o ABSOLUTE
    init.s                                   0x00000000   Number         0  init.o ABSOLUTE
    RESET                                    0x08005000   Section      304  startup_stm32f10x_hd.o(RESET)
    .ARM.Collect$$$$00000000                 0x08005130   Section        0  entry.o(.ARM.Collect$$$$00000000)
    .ARM.Collect$$$$00000001                 0x08005130   Section        4  entry2.o(.ARM.Collect$$$$00000001)
    .ARM.Collect$$$$00000004                 0x08005134   Section        4  entry5.o(.ARM.Collect$$$$00000004)
    .ARM.Collect$$$$00000008                 0x08005138   Section        0  entry7b.o(.ARM.Collect$$$$00000008)
    .ARM.Collect$$$$0000000A                 0x08005138   Section        0  entry8b.o(.ARM.Collect$$$$0000000A)
    .ARM.Collect$$$$0000000B                 0x08005138   Section        8  entry9a.o(.ARM.Collect$$$$0000000B)
    .ARM.Collect$$$$0000000D                 0x08005140   Section        0  entry10a.o(.ARM.Collect$$$$0000000D)
    .ARM.Collect$$$$0000000F                 0x08005140   Section        0  entry11a.o(.ARM.Collect$$$$0000000F)
    .ARM.Collect$$$$00002712                 0x08005140   Section        4  entry2.o(.ARM.Collect$$$$00002712)
    __lit__00000000                          0x08005140   Data           4  entry2.o(.ARM.Collect$$$$00002712)
    .text                                    0x08005144   Section       36  startup_stm32f10x_hd.o(.text)
    .text                                    0x08005168   Section        0  strstr.o(.text)
    .text                                    0x0800518c   Section        0  fadd.o(.text)
    .text                                    0x0800523c   Section        0  fmul.o(.text)
    .text                                    0x080052a8   Section        0  fdiv.o(.text)
    .text                                    0x08005328   Section        0  dadd.o(.text)
    .text                                    0x08005476   Section        0  dmul.o(.text)
    .text                                    0x0800555a   Section        0  ddiv.o(.text)
    .text                                    0x08005638   Section        0  fflti.o(.text)
    .text                                    0x0800564a   Section        0  ffltui.o(.text)
    .text                                    0x08005654   Section        0  dflti.o(.text)
    .text                                    0x08005676   Section        0  dfltui.o(.text)
    .text                                    0x08005690   Section        0  ffixi.o(.text)
    .text                                    0x080056c2   Section        0  ffixui.o(.text)
    .text                                    0x080056ea   Section        0  dfixi.o(.text)
    .text                                    0x08005728   Section        0  dfixui.o(.text)
    .text                                    0x0800575a   Section        0  f2d.o(.text)
    .text                                    0x08005780   Section       40  cdcmple.o(.text)
    .text                                    0x080057a8   Section       40  cdrcmple.o(.text)
    .text                                    0x080057d0   Section        0  d2f.o(.text)
    .text                                    0x08005808   Section       20  cfcmple.o(.text)
    .text                                    0x0800581c   Section       20  cfrcmple.o(.text)
    .text                                    0x08005830   Section        0  uidiv.o(.text)
    .text                                    0x0800585c   Section        0  uldiv.o(.text)
    .text                                    0x080058be   Section        0  llshl.o(.text)
    .text                                    0x080058dc   Section        0  llushr.o(.text)
    .text                                    0x080058fc   Section        0  llsshr.o(.text)
    .text                                    0x08005920   Section        0  iusefp.o(.text)
    .text                                    0x08005920   Section        0  fepilogue.o(.text)
    .text                                    0x0800598c   Section        0  depilogue.o(.text)
    .text                                    0x08005a4a   Section        0  dfixul.o(.text)
    .text                                    0x08005a7c   Section       36  init.o(.text)
    TOS_CORE_A                               0x08005aa0   Section       80  tos_core_a.o(TOS_CORE_A)
    i.ADC1_GPIO_Config                       0x08005af0   Section        0  main.o(i.ADC1_GPIO_Config)
    ADC1_GPIO_Config                         0x08005af1   Thumb Code    42  main.o(i.ADC1_GPIO_Config)
    i.ADC1_Init                              0x08005b20   Section        0  main.o(i.ADC1_Init)
    i.ADC1_Mode_Config                       0x08005b30   Section        0  main.o(i.ADC1_Mode_Config)
    ADC1_Mode_Config                         0x08005b31   Thumb Code   210  main.o(i.ADC1_Mode_Config)
    i.ADC_Cmd                                0x08005c0c   Section        0  stm32f10x_adc.o(i.ADC_Cmd)
    i.ADC_DMACmd                             0x08005c22   Section        0  stm32f10x_adc.o(i.ADC_DMACmd)
    i.ADC_GetCalibrationStatus               0x08005c38   Section        0  stm32f10x_adc.o(i.ADC_GetCalibrationStatus)
    i.ADC_GetResetCalibrationStatus          0x08005c4c   Section        0  stm32f10x_adc.o(i.ADC_GetResetCalibrationStatus)
    i.ADC_Init                               0x08005c60   Section        0  stm32f10x_adc.o(i.ADC_Init)
    i.ADC_RegularChannelConfig               0x08005cb0   Section        0  stm32f10x_adc.o(i.ADC_RegularChannelConfig)
    i.ADC_ResetCalibration                   0x08005d68   Section        0  stm32f10x_adc.o(i.ADC_ResetCalibration)
    i.ADC_SoftwareStartConvCmd               0x08005d72   Section        0  stm32f10x_adc.o(i.ADC_SoftwareStartConvCmd)
    i.ADC_StartCalibration                   0x08005d88   Section        0  stm32f10x_adc.o(i.ADC_StartCalibration)
    i.AS_Read_Value                          0x08005d94   Section        0  main.o(i.AS_Read_Value)
    i.Abs                                    0x08005da8   Section        0  text.o(i.Abs)
    i.BEEP_Double                            0x08005dc4   Section        0  main.o(i.BEEP_Double)
    i.BOOL_LoadConfigs                       0x08005e00   Section        0  main.o(i.BOOL_LoadConfigs)
    i.B_LUX_GetLux                           0x08005e3c   Section        0  main.o(i.B_LUX_GetLux)
    i.B_LUX_Init                             0x08005e6a   Section        0  main.o(i.B_LUX_Init)
    i.BareDelay                              0x08005e86   Section        0  stm32_cpu.o(i.BareDelay)
    i.Bcd_Decimal                            0x08005ea0   Section        0  text.o(i.Bcd_Decimal)
    i.BinarySearch                           0x08005eb0   Section        0  main.o(i.BinarySearch)
    i.BufferCoppy                            0x08005ef8   Section        0  text.o(i.BufferCoppy)
    i.BufferFill                             0x08005f1a   Section        0  text.o(i.BufferFill)
    i.BusFault_Handler                       0x08005f30   Section        0  stm32f10x_it.o(i.BusFault_Handler)
    i.COM_Menu_Enter                         0x08005f34   Section        0  main.o(i.COM_Menu_Enter)
    i.COM_Menu_Load                          0x08006044   Section        0  main.o(i.COM_Menu_Load)
    i.CheckCallNumber                        0x08006078   Section        0  main.o(i.CheckCallNumber)
    i.CheckLiuliangBuf                       0x080060a8   Section        0  main.o(i.CheckLiuliangBuf)
    i.ClearWithBuffer                        0x08006104   Section        0  text.o(i.ClearWithBuffer)
    i.CompareWithString                      0x08006118   Section        0  text.o(i.CompareWithString)
    i.DHT11_Check                            0x08006154   Section        0  main.o(i.DHT11_Check)
    i.DHT11_DelayMs                          0x080061b8   Section        0  main.o(i.DHT11_DelayMs)
    i.DHT11_DelayUs                          0x080061d8   Section        0  main.o(i.DHT11_DelayUs)
    i.DHT11_GetFloat                         0x080061f8   Section        0  main.o(i.DHT11_GetFloat)
    i.DHT11_PortIN                           0x0800627c   Section        0  main.o(i.DHT11_PortIN)
    i.DHT11_PortOUT                          0x080062a8   Section        0  main.o(i.DHT11_PortOUT)
    i.DHT11_Read                             0x080062d4   Section        0  main.o(i.DHT11_Read)
    i.DHT11_Read_Bit                         0x08006344   Section        0  main.o(i.DHT11_Read_Bit)
    i.DHT11_Read_Byte                        0x080063ac   Section        0  main.o(i.DHT11_Read_Byte)
    i.DHT11_Rst                              0x080063cc   Section        0  main.o(i.DHT11_Rst)
    i.DMA_Cmd                                0x08006400   Section        0  stm32f10x_dma.o(i.DMA_Cmd)
    i.DMA_DeInit                             0x08006418   Section        0  stm32f10x_dma.o(i.DMA_DeInit)
    i.DMA_Init                               0x08006564   Section        0  stm32f10x_dma.o(i.DMA_Init)
    i.DS18B20_Init                           0x080065a0   Section        0  main.o(i.DS18B20_Init)
    i.DS_Check                               0x080065e8   Section        0  main.o(i.DS_Check)
    i.DS_DelayUs                             0x0800664c   Section        0  main.o(i.DS_DelayUs)
    i.DS_Get_Temp                            0x0800666c   Section        0  main.o(i.DS_Get_Temp)
    i.DS_PortIN                              0x0800676c   Section        0  main.o(i.DS_PortIN)
    i.DS_PortOUT                             0x08006798   Section        0  main.o(i.DS_PortOUT)
    i.DS_Read_Bit                            0x080067c4   Section        0  main.o(i.DS_Read_Bit)
    i.DS_Read_Byte                           0x08006818   Section        0  main.o(i.DS_Read_Byte)
    i.DS_Read_Value                          0x0800683c   Section        0  main.o(i.DS_Read_Value)
    i.DS_Rst                                 0x0800693c   Section        0  main.o(i.DS_Rst)
    i.DS_SetPort                             0x08006974   Section        0  main.o(i.DS_SetPort)
    i.DS_Start                               0x08006988   Section        0  main.o(i.DS_Start)
    i.DS_Write_Byte                          0x080069a0   Section        0  main.o(i.DS_Write_Byte)
    i.DTH11_SetPort                          0x08006a10   Section        0  main.o(i.DTH11_SetPort)
    i.DeBug                                  0x08006a24   Section        0  debug.o(i.DeBug)
    i.DeBug_Drop                             0x08006bb0   Section        0  debug.o(i.DeBug_Drop)
    i.DeBug_Get                              0x08006bbc   Section        0  debug.o(i.DeBug_Get)
    i.DeBug_OutSet                           0x08006bd0   Section        0  debug.o(i.DeBug_OutSet)
    i.DeBug_SetType                          0x08006bdc   Section        0  debug.o(i.DeBug_SetType)
    i.DebugMon_Handler                       0x08006be8   Section        0  stm32f10x_it.o(i.DebugMon_Handler)
    i.Decimal_Bcd                            0x08006bea   Section        0  text.o(i.Decimal_Bcd)
    i.DeviceList_Init                        0x08006c00   Section        0  tos_device.o(i.DeviceList_Init)
    i.DeviceList_Printf                      0x08006c80   Section        0  tos_device.o(i.DeviceList_Printf)
    i.DeviceMount_HT1621                     0x08006d68   Section        0  main.o(i.DeviceMount_HT1621)
    i.DeviceMount_IO                         0x08006e34   Section        0  main.o(i.DeviceMount_IO)
    i.DeviceMount_ISL1208                    0x08006efc   Section        0  main.o(i.DeviceMount_ISL1208)
    i.DeviceMount_Uart                       0x08006fc8   Section        0  usart_driver.o(i.DeviceMount_Uart)
    i.DeviceMount_Usart                      0x08007190   Section        0  usart_driver.o(i.DeviceMount_Usart)
    i.DeviceMount_W25Q16                     0x080071a4   Section        0  main.o(i.DeviceMount_W25Q16)
    i.Device_Init                            0x08007268   Section        0  tos_device.o(i.Device_Init)
    i.Device_Ok                              0x08007320   Section        0  tos_device.o(i.Device_Ok)
    i.DownLoad_BootLoader                    0x08007344   Section        0  main.o(i.DownLoad_BootLoader)
    i.EXTI1_IRQHandler                       0x08007628   Section        0  main.o(i.EXTI1_IRQHandler)
    i.EXTI_ClearITPendingBit                 0x0800763c   Section        0  stm32f10x_exti.o(i.EXTI_ClearITPendingBit)
    i.EXTI_Init                              0x08007648   Section        0  stm32f10x_exti.o(i.EXTI_Init)
    i.Exit_Init                              0x080076dc   Section        0  main.o(i.Exit_Init)
    i.FLASH_ErasePage                        0x08007740   Section        0  stm32f10x_flash.o(i.FLASH_ErasePage)
    i.FLASH_GetBank1Status                   0x0800778c   Section        0  stm32f10x_flash.o(i.FLASH_GetBank1Status)
    i.FLASH_Lock                             0x080077c0   Section        0  stm32f10x_flash.o(i.FLASH_Lock)
    i.FLASH_ProgramBootStart                 0x080077d4   Section        0  main.o(i.FLASH_ProgramBootStart)
    i.FLASH_ProgramDone                      0x0800780e   Section        0  main.o(i.FLASH_ProgramDone)
    i.FLASH_ProgramHalfWord                  0x08007818   Section        0  stm32f10x_flash.o(i.FLASH_ProgramHalfWord)
    i.FLASH_Unlock                           0x08007858   Section        0  stm32f10x_flash.o(i.FLASH_Unlock)
    i.FLASH_WaitForLastOperation             0x08007870   Section        0  stm32f10x_flash.o(i.FLASH_WaitForLastOperation)
    i.FLASH_WriteBank                        0x08007896   Section        0  main.o(i.FLASH_WriteBank)
    i.FindFloatFromString                    0x080078ce   Section        0  text.o(i.FindFloatFromString)
    i.FindHexFromString                      0x08007970   Section        0  text.o(i.FindHexFromString)
    i.FindNumFromString                      0x08007a12   Section        0  text.o(i.FindNumFromString)
    i.FindStringFromString                   0x08007a9c   Section        0  main.o(i.FindStringFromString)
    i.Flash_ReadData                         0x08007b0e   Section        0  appconfig.o(i.Flash_ReadData)
    i.Flash_WriteData                        0x08007b2a   Section        0  appconfig.o(i.Flash_WriteData)
    i.Float32FromByte                        0x08007ba0   Section        0  text.o(i.Float32FromByte)
    i.Float32ToByte                          0x08007ba8   Section        0  text.o(i.Float32ToByte)
    i.FlowPoolFilter                         0x08007bd6   Section        0  text.o(i.FlowPoolFilter)
    i.FmtToBuf                               0x08007c10   Section        0  text.o(i.FmtToBuf)
    i.GBKToString                            0x08007c2e   Section        0  main.o(i.GBKToString)
    i.GBKToUniCode                           0x08007c6c   Section        0  main.o(i.GBKToUniCode)
    i.GBKToUnicode                           0x08007c8c   Section        0  main.o(i.GBKToUnicode)
    i.GPIO_DeInit                            0x08007cb8   Section        0  stm32f10x_gpio.o(i.GPIO_DeInit)
    i.GPIO_EXTILineConfig                    0x08007d80   Section        0  stm32f10x_gpio.o(i.GPIO_EXTILineConfig)
    i.GPIO_Init                              0x08007dc0   Section        0  stm32f10x_gpio.o(i.GPIO_Init)
    i.GPIO_InitList                          0x08007ed4   Section        0  stm32_cpu.o(i.GPIO_InitList)
    i.GPIO_ReadInputDataBit                  0x08007f5c   Section        0  stm32f10x_gpio.o(i.GPIO_ReadInputDataBit)
    i.GPIO_ResetBits                         0x08007f6e   Section        0  stm32f10x_gpio.o(i.GPIO_ResetBits)
    i.GPIO_SetBits                           0x08007f72   Section        0  stm32f10x_gpio.o(i.GPIO_SetBits)
    i.GPIO_Set_PWR                           0x08007f78   Section        0  main.o(i.GPIO_Set_PWR)
    i.GPIO_Set_ShowOnly                      0x08007fc0   Section        0  main.o(i.GPIO_Set_ShowOnly)
    i.GPRS_Ack                               0x08007ff0   Section        0  main.o(i.GPRS_Ack)
    i.GPRS_AckDelay                          0x0800805c   Section        0  main.o(i.GPRS_AckDelay)
    i.GPRS_AckTwo                            0x080080d8   Section        0  main.o(i.GPRS_AckTwo)
    i.GPRS_CheckIpTrue                       0x0800815c   Section        0  text.o(i.GPRS_CheckIpTrue)
    i.GPRS_CloseNet                          0x080081b4   Section        0  main.o(i.GPRS_CloseNet)
    i.GPRS_CommandAck                        0x08008248   Section        0  main.o(i.GPRS_CommandAck)
    i.GPRS_CommandAckCount                   0x08008274   Section        0  main.o(i.GPRS_CommandAckCount)
    i.GPRS_Connect                           0x08008314   Section        0  main.o(i.GPRS_Connect)
    i.GPRS_Printf                            0x08008408   Section        0  main.o(i.GPRS_Printf)
    i.GPRS_PrintfString                      0x08008488   Section        0  main.o(i.GPRS_PrintfString)
    i.GPRS_WhileAck                          0x080084d0   Section        0  main.o(i.GPRS_WhileAck)
    i.GetChar_List                           0x080084fe   Section        0  debug.o(i.GetChar_List)
    i.GetCodeStr16                           0x08008580   Section        0  main.o(i.GetCodeStr16)
    i.GetCodeStr18                           0x08008600   Section        0  main.o(i.GetCodeStr18)
    i.GetCodeStr64                           0x08008664   Section        0  stm32_cpu.o(i.GetCodeStr64)
    i.GetHexFromString                       0x080086d4   Section        0  text.o(i.GetHexFromString)
    i.GetStringByFmt                         0x080087b8   Section        0  text.o(i.GetStringByFmt)
    i.GetStringToNumber                      0x080087dc   Section        0  text.o(i.GetStringToNumber)
    i.GetTextLength                          0x080088a0   Section        0  text.o(i.GetTextLength)
    i.GetTosTask_Count                       0x080088b8   Section        0  stm32_cpu.o(i.GetTosTask_Count)
    i.GetUnicodeString                       0x080088e4   Section        0  main.o(i.GetUnicodeString)
    i.GetWordFromBytes                       0x08008910   Section        0  text.o(i.GetWordFromBytes)
    i.Get_Mon                                0x08008938   Section        0  main.o(i.Get_Mon)
    i.Get_PragmDateTime                      0x08008a18   Section        0  main.o(i.Get_PragmDateTime)
    i.Get_PrintfRecordCount                  0x08008a6c   Section        0  main.o(i.Get_PrintfRecordCount)
    i.HT1621_Init                            0x08008ac4   Section        0  main.o(i.HT1621_Init)
    i.HandKey_GetValue                       0x08008b0c   Section        0  main.o(i.HandKey_GetValue)
    i.HardFault_Handler                      0x08008b44   Section        0  stm32f10x_it.o(i.HardFault_Handler)
    i.Ht1621Wr_Cmd                           0x08008b4c   Section        0  main.o(i.Ht1621Wr_Cmd)
    i.Ht1621Wr_Data                          0x08008b88   Section        0  main.o(i.Ht1621Wr_Data)
    i.Ht1621_Delay                           0x08008be8   Section        0  main.o(i.Ht1621_Delay)
    i.Ht1621_DrawBase                        0x08008bfc   Section        0  main.o(i.Ht1621_DrawBase)
    i.Ht1621_DrawHome                        0x08008c34   Section        0  main.o(i.Ht1621_DrawHome)
    i.Ht1621_DrawIO                          0x0800904c   Section        0  main.o(i.Ht1621_DrawIO)
    i.Ht1621_DrawLUX                         0x080093f8   Section        0  main.o(i.Ht1621_DrawLUX)
    i.Ht1621_DrawMenu                        0x08009880   Section        0  main.o(i.Ht1621_DrawMenu)
    i.Ht1621_DrawSongbo                      0x08009918   Section        0  main.o(i.Ht1621_DrawSongbo)
    i.Ht1621_DrawTime                        0x08009ccc   Section        0  main.o(i.Ht1621_DrawTime)
    i.Ht1621_DrawUpDown                      0x08009d94   Section        0  main.o(i.Ht1621_DrawUpDown)
    i.Ht1621_DrawZFS                         0x08009f70   Section        0  main.o(i.Ht1621_DrawZFS)
    i.Ht1621_GetCode                         0x0800a3f8   Section        0  main.o(i.Ht1621_GetCode)
    i.Ht1621_SHowDownStr                     0x0800a414   Section        0  main.o(i.Ht1621_SHowDownStr)
    i.Ht1621_SHowDownStr1                    0x0800a46c   Section        0  main.o(i.Ht1621_SHowDownStr1)
    i.Ht1621_SHowDownString                  0x0800a4c4   Section        0  main.o(i.Ht1621_SHowDownString)
    i.Ht1621_SHowUpString                    0x0800a574   Section        0  main.o(i.Ht1621_SHowUpString)
    i.Ht1621_ShowASCII                       0x0800a628   Section        0  main.o(i.Ht1621_ShowASCII)
    i.Ht1621_WriteReg                        0x0800a654   Section        0  main.o(i.Ht1621_WriteReg)
    i.I2C_Drop                               0x0800a698   Section        0  i2c_driver.o(i.I2C_Drop)
    i.I2C_ReadDatas                          0x0800a6a6   Section        0  i2c_driver.o(i.I2C_ReadDatas)
    i.I2C_RecvBytes                          0x0800a722   Section        0  i2c_driver.o(i.I2C_RecvBytes)
    i.I2C_SendAck                            0x0800a792   Section        0  i2c_driver.o(i.I2C_SendAck)
    i.I2C_SendBytes                          0x0800a7be   Section        0  i2c_driver.o(i.I2C_SendBytes)
    i.I2C_Start                              0x0800a848   Section        0  i2c_driver.o(i.I2C_Start)
    i.I2C_Stop                               0x0800a876   Section        0  i2c_driver.o(i.I2C_Stop)
    i.I2C_WriteDatas                         0x0800a89a   Section        0  i2c_driver.o(i.I2C_WriteDatas)
    i.IAP_ErasePage                          0x0800a8f6   Section        0  stm32_cpu.o(i.IAP_ErasePage)
    i.IAP_Lock                               0x0800a902   Section        0  stm32_cpu.o(i.IAP_Lock)
    i.IAP_PagesMask                          0x0800a90a   Section        0  main.o(i.IAP_PagesMask)
    IAP_PagesMask                            0x0800a90b   Thumb Code    24  main.o(i.IAP_PagesMask)
    i.IAP_ProgramHalfWord                    0x0800a922   Section        0  stm32_cpu.o(i.IAP_ProgramHalfWord)
    i.IAP_Unlock                             0x0800a932   Section        0  stm32_cpu.o(i.IAP_Unlock)
    i.IIC_DelayUs                            0x0800a93a   Section        0  main.o(i.IIC_DelayUs)
    i.IIC_Pin_In                             0x0800a948   Section        0  main.o(i.IIC_Pin_In)
    IIC_Pin_In                               0x0800a949   Thumb Code    36  main.o(i.IIC_Pin_In)
    i.IIC_Pin_Out                            0x0800a96c   Section        0  main.o(i.IIC_Pin_Out)
    IIC_Pin_Out                              0x0800a96d   Thumb Code    36  main.o(i.IIC_Pin_Out)
    i.IIC_ReadAck                            0x0800a990   Section        0  main.o(i.IIC_ReadAck)
    i.IIC_Reads                              0x0800a9dc   Section        0  main.o(i.IIC_Reads)
    i.IIC_RecvByte                           0x0800aa7c   Section        0  main.o(i.IIC_RecvByte)
    i.IIC_SendAck                            0x0800aadc   Section        0  main.o(i.IIC_SendAck)
    i.IIC_SendByte                           0x0800ab1c   Section        0  main.o(i.IIC_SendByte)
    i.IIC_Start                              0x0800ab74   Section        0  main.o(i.IIC_Start)
    i.IIC_Stop                               0x0800abac   Section        0  main.o(i.IIC_Stop)
    i.IIC_WriteCmd                           0x0800abe4   Section        0  main.o(i.IIC_WriteCmd)
    i.IO_Read_Value                          0x0800ac08   Section        0  main.o(i.IO_Read_Value)
    i.ISL1208_GPIO_Init                      0x0800ac70   Section        0  main.o(i.ISL1208_GPIO_Init)
    i.ISL1208_GetATR                         0x0800acb8   Section        0  main.o(i.ISL1208_GetATR)
    i.ISL1208_GetDateTime                    0x0800ace8   Section        0  main.o(i.ISL1208_GetDateTime)
    i.ISL1208_IOCONTROL                      0x0800ad5c   Section        0  main.o(i.ISL1208_IOCONTROL)
    i.ISL1208_Init                           0x0800add8   Section        0  main.o(i.ISL1208_Init)
    i.ISL1208_ReadReg                        0x0800ae98   Section        0  main.o(i.ISL1208_ReadReg)
    i.ISL1208_SetAlarm                       0x0800aeb8   Section        0  main.o(i.ISL1208_SetAlarm)
    i.ISL1208_SetDateTime                    0x0800af56   Section        0  main.o(i.ISL1208_SetDateTime)
    i.ISL1208_WriteReg                       0x0800afb8   Section        0  main.o(i.ISL1208_WriteReg)
    i.Load_AppConfig                         0x0800afd8   Section        0  appconfig.o(i.Load_AppConfig)
    i.Load_VoidConfig                        0x0800aff4   Section        0  appconfig.o(i.Load_VoidConfig)
    i.MCU_Reset                              0x0800b05c   Section        0  stm32_cpu.o(i.MCU_Reset)
    i.MSG_Delete                             0x0800b084   Section        0  main.o(i.MSG_Delete)
    i.MUI_GetKey                             0x0800b0c8   Section        0  main.o(i.MUI_GetKey)
    i.MUI_GetOptionString                    0x0800b0ec   Section        0  main.o(i.MUI_GetOptionString)
    i.MemManage_Handler                      0x0800b290   Section        0  stm32f10x_it.o(i.MemManage_Handler)
    i.Mema_Count                             0x0800b294   Section        0  tos_mema.o(i.Mema_Count)
    i.Mema_Free                              0x0800b2b0   Section        0  tos_mema.o(i.Mema_Free)
    i.Mema_GetSize                           0x0800b2e0   Section        0  tos_mema.o(i.Mema_GetSize)
    i.Mema_Init                              0x0800b2ec   Section        0  tos_mema.o(i.Mema_Init)
    i.Mema_Malloc                            0x0800b308   Section        0  tos_mema.o(i.Mema_Malloc)
    i.Menu_OptionLength                      0x0800b354   Section        0  main.o(i.Menu_OptionLength)
    i.ModBus_Create                          0x0800b36a   Section        0  modbus.o(i.ModBus_Create)
    i.ModBus_CreateMsg                       0x0800b380   Section        0  modbus.o(i.ModBus_CreateMsg)
    i.ModBus_Expend                          0x0800b498   Section        0  modbus.o(i.ModBus_Expend)
    i.NMI_Handler                            0x0800b604   Section        0  stm32f10x_it.o(i.NMI_Handler)
    i.NVIC_Init                              0x0800b608   Section        0  misc.o(i.NVIC_Init)
    i.NVIC_PriorityGroupConfig               0x0800b67c   Section        0  misc.o(i.NVIC_PriorityGroupConfig)
    i.NVIC_SetVectorTable                    0x0800b690   Section        0  misc.o(i.NVIC_SetVectorTable)
    i.PDU_GetCenterNumber                    0x0800b6a4   Section        0  main.o(i.PDU_GetCenterNumber)
    i.PWR_BackupAccessCmd                    0x0800b700   Section        0  stm32f10x_pwr.o(i.PWR_BackupAccessCmd)
    i.PWR_EnterSTANDBYMode                   0x0800b70c   Section        0  stm32f10x_pwr.o(i.PWR_EnterSTANDBYMode)
    i.PWR_EnterSTOPMode                      0x0800b740   Section        0  stm32f10x_pwr.o(i.PWR_EnterSTOPMode)
    i.PWR_WakeUpPinCmd                       0x0800b780   Section        0  stm32f10x_pwr.o(i.PWR_WakeUpPinCmd)
    i.PendSV_Handler                         0x0800b78c   Section        0  stm32f10x_it.o(i.PendSV_Handler)
    i.Printf_BoardInfor                      0x0800b790   Section        0  stm32_cpu.o(i.Printf_BoardInfor)
    i.Printf_LcdType                         0x0800b824   Section        0  stm32_cpu.o(i.Printf_LcdType)
    i.Printf_LockCode                        0x0800b828   Section        0  stm32_cpu.o(i.Printf_LockCode)
    i.Printf_NandInfor                       0x0800b84c   Section        0  stm32_cpu.o(i.Printf_NandInfor)
    i.Printf_SysInfor                        0x0800b850   Section        0  stm32_cpu.o(i.Printf_SysInfor)
    i.Printf_TaskInfor                       0x0800b894   Section        0  stm32_cpu.o(i.Printf_TaskInfor)
    i.Printf_TosInfor                        0x0800b8d4   Section        0  stm32_cpu.o(i.Printf_TosInfor)
    i.QuectelM26Printf_Bytes                 0x0800b968   Section        0  main.o(i.QuectelM26Printf_Bytes)
    i.QuectelM26_Config                      0x0800b9ac   Section        0  main.o(i.QuectelM26_Config)
    i.QuectelM26_Connect                     0x0800b9f8   Section        0  main.o(i.QuectelM26_Connect)
    i.QuectelM26_ConnectNet                  0x0800ba50   Section        0  main.o(i.QuectelM26_ConnectNet)
    i.QuectelM26_GetCSQ                      0x0800bb94   Section        0  main.o(i.QuectelM26_GetCSQ)
    i.QuectelM26_GetNumString                0x0800bbc8   Section        0  main.o(i.QuectelM26_GetNumString)
    i.QuectelM26_GetValue                    0x0800bc7c   Section        0  main.o(i.QuectelM26_GetValue)
    i.QuectelM26_Init                        0x0800bd20   Section        0  main.o(i.QuectelM26_Init)
    i.QuectelM26_InitSMS                     0x0800bef8   Section        0  main.o(i.QuectelM26_InitSMS)
    i.QuectelM26_ReadShow                    0x0800c00c   Section        0  main.o(i.QuectelM26_ReadShow)
    i.QuectelM26_SendCFG                     0x0800c068   Section        0  main.o(i.QuectelM26_SendCFG)
    i.QuectelM26_SendData                    0x0800c1b4   Section        0  main.o(i.QuectelM26_SendData)
    i.QuectelM26_SendHR                      0x0800c450   Section        0  main.o(i.QuectelM26_SendHR)
    i.QuectelM26_SendHR1                     0x0800c6e8   Section        0  main.o(i.QuectelM26_SendHR1)
    i.QuectelM26_SendHRKGL                   0x0800c9cc   Section        0  main.o(i.QuectelM26_SendHRKGL)
    i.QuectelM26_SendHTTP                    0x0800cc78   Section        0  main.o(i.QuectelM26_SendHTTP)
    i.QuectelM26_SendHeartbeat               0x0800cee0   Section        0  main.o(i.QuectelM26_SendHeartbeat)
    i.QuectelM26_SendLL                      0x0800d020   Section        0  main.o(i.QuectelM26_SendLL)
    i.QuectelM26_SendTextMsg                 0x0800d3e0   Section        0  main.o(i.QuectelM26_SendTextMsg)
    i.QuectelM26_ShowSMS                     0x0800d4b0   Section        0  main.o(i.QuectelM26_ShowSMS)
    i.RCC_ADCCLKConfig                       0x0800d6fc   Section        0  stm32f10x_rcc.o(i.RCC_ADCCLKConfig)
    i.RCC_AHBPeriphClockCmd                  0x0800d714   Section        0  stm32f10x_rcc.o(i.RCC_AHBPeriphClockCmd)
    i.RCC_APB1PeriphClockCmd                 0x0800d734   Section        0  stm32f10x_rcc.o(i.RCC_APB1PeriphClockCmd)
    i.RCC_APB2PeriphClockCmd                 0x0800d754   Section        0  stm32f10x_rcc.o(i.RCC_APB2PeriphClockCmd)
    i.RCC_APB2PeriphResetCmd                 0x0800d774   Section        0  stm32f10x_rcc.o(i.RCC_APB2PeriphResetCmd)
    i.RCC_GetClocksFreq                      0x0800d794   Section        0  stm32f10x_rcc.o(i.RCC_GetClocksFreq)
    i.RegServer_Connect                      0x0800d868   Section        0  main.o(i.RegServer_Connect)
    i.Reg_SendHead                           0x0800d8c8   Section        0  main.o(i.Reg_SendHead)
    i.Reg_SendInfor                          0x0800d968   Section        0  main.o(i.Reg_SendInfor)
    i.Regdit_SendInfor                       0x0800dcf0   Section        0  main.o(i.Regdit_SendInfor)
    i.SPI_Cmd                                0x0800e0e0   Section        0  stm32f10x_spi.o(i.SPI_Cmd)
    i.SPI_FLASH_BufferRead                   0x0800e0f8   Section        0  main.o(i.SPI_FLASH_BufferRead)
    i.SPI_FLASH_BufferWrite                  0x0800e148   Section        0  main.o(i.SPI_FLASH_BufferWrite)
    i.SPI_FLASH_Init                         0x0800e26c   Section        0  main.o(i.SPI_FLASH_Init)
    i.SPI_FLASH_PageWrite                    0x0800e324   Section        0  main.o(i.SPI_FLASH_PageWrite)
    i.SPI_FLASH_SectorErase                  0x0800e384   Section        0  main.o(i.SPI_FLASH_SectorErase)
    i.SPI_FLASH_SendByte                     0x0800e3c8   Section        0  main.o(i.SPI_FLASH_SendByte)
    i.SPI_FLASH_WaitForWriteEnd              0x0800e400   Section        0  main.o(i.SPI_FLASH_WaitForWriteEnd)
    i.SPI_FLASH_WriteEnable                  0x0800e430   Section        0  main.o(i.SPI_FLASH_WriteEnable)
    i.SPI_I2S_GetFlagStatus                  0x0800e450   Section        0  stm32f10x_spi.o(i.SPI_I2S_GetFlagStatus)
    i.SPI_I2S_ReceiveData                    0x0800e462   Section        0  stm32f10x_spi.o(i.SPI_I2S_ReceiveData)
    i.SPI_I2S_SendData                       0x0800e468   Section        0  stm32f10x_spi.o(i.SPI_I2S_SendData)
    i.SPI_Init                               0x0800e46c   Section        0  stm32f10x_spi.o(i.SPI_Init)
    i.SVC_Handler                            0x0800e4a8   Section        0  stm32f10x_it.o(i.SVC_Handler)
    i.Save_AppConfig                         0x0800e4ac   Section        0  appconfig.o(i.Save_AppConfig)
    i.Save_EnvConfig                         0x0800e4c8   Section        0  main.o(i.Save_EnvConfig)
    i.Save_VoidConfig                        0x0800e4ec   Section        0  appconfig.o(i.Save_VoidConfig)
    i.Sensor_Command                         0x0800e518   Section        0  main.o(i.Sensor_Command)
    i.Sensor_Init                            0x0800ea18   Section        0  main.o(i.Sensor_Init)
    i.SerachChear                            0x0800ea78   Section        0  main.o(i.SerachChear)
    i.SetSysClock                            0x0800ea96   Section        0  system_stm32f10x.o(i.SetSysClock)
    i.SetSysClockTo72                        0x0800eaa0   Section        0  system_stm32f10x.o(i.SetSysClockTo72)
    SetSysClockTo72                          0x0800eaa1   Thumb Code   212  system_stm32f10x.o(i.SetSysClockTo72)
    i.Standby_Init                           0x0800eb7c   Section        0  stm32_cpu.o(i.Standby_Init)
    i.StrToGBK                               0x0800ebe8   Section        0  main.o(i.StrToGBK)
    i.StringCoppy                            0x0800ecb4   Section        0  text.o(i.StringCoppy)
    i.StringEndingAppend                     0x0800ecd8   Section        0  text.o(i.StringEndingAppend)
    i.Strstr                                 0x0800ed1a   Section        0  text.o(i.Strstr)
    i.SysTick_Handler                        0x0800ed4a   Section        0  stm32f10x_it.o(i.SysTick_Handler)
    i.SysTick_Set                            0x0800ed54   Section        0  stm32_cpu.o(i.SysTick_Set)
    i.Sys_Enter_Standby                      0x0800edac   Section        0  stm32_cpu.o(i.Sys_Enter_Standby)
    i.Sys_Standby                            0x0800edc2   Section        0  stm32_cpu.o(i.Sys_Standby)
    i.SystemInit                             0x0800edec   Section        0  system_stm32f10x.o(i.SystemInit)
    i.System_Reset                           0x0800ee4c   Section        0  main.o(i.System_Reset)
    i.System_ResetDelay                      0x0800ee60   Section        0  main.o(i.System_ResetDelay)
    i.System_SaveConfig                      0x0800ee70   Section        0  main.o(i.System_SaveConfig)
    i.TCP_JGetConfig                         0x0800ee88   Section        0  main.o(i.TCP_JGetConfig)
    i.TCP_JGetString                         0x0800f0e8   Section        0  main.o(i.TCP_JGetString)
    i.TCP_JGetStringDelete                   0x0800f1a8   Section        0  main.o(i.TCP_JGetStringDelete)
    i.TFT_RGB                                0x0800f258   Section        0  text.o(i.TFT_RGB)
    i.TOS_Sleep                              0x0800f288   Section        0  main.o(i.TOS_Sleep)
    i.Task0                                  0x0800f39c   Section        0  main.o(i.Task0)
    i.Task0_Init                             0x0800f4b0   Section        0  main.o(i.Task0_Init)
    i.TaskBigShow                            0x0800f52c   Section        0  main.o(i.TaskBigShow)
    i.TaskFunc                               0x0800f5b0   Section        0  main.o(i.TaskFunc)
    i.TaskFunc1                              0x0800f7f4   Section        0  main.o(i.TaskFunc1)
    i.TaskPlan                               0x0800fa18   Section        0  main.o(i.TaskPlan)
    i.TaskPlan1                              0x0800fb24   Section        0  main.o(i.TaskPlan1)
    i.TaskPlan2                              0x0800fc30   Section        0  main.o(i.TaskPlan2)
    i.TaskPlan3                              0x0800fd4c   Section        0  main.o(i.TaskPlan3)
    i.Task_Arrary                            0x0800fe1c   Section        0  func_face.o(i.Task_Arrary)
    i.Task_AutoPrintf                        0x0800fec0   Section        0  main.o(i.Task_AutoPrintf)
    i.Task_AutoReg                           0x0800ff24   Section        0  main.o(i.Task_AutoReg)
    i.Task_AutoReset                         0x0800ffd0   Section        0  main.o(i.Task_AutoReset)
    i.Task_CleanHistory                      0x0800ffe4   Section        0  main.o(i.Task_CleanHistory)
    i.Task_Face                              0x08010028   Section        0  main.o(i.Task_Face)
    i.Task_Gps                               0x080100f0   Section        0  main.o(i.Task_Gps)
    i.Task_HistoryRecord                     0x0801027c   Section        0  main.o(i.Task_HistoryRecord)
    i.Task_Join                              0x0801039c   Section        0  func_face.o(i.Task_Join)
    i.Task_KeyBoard                          0x080103c0   Section        0  main.o(i.Task_KeyBoard)
    i.Task_Liuliang                          0x08010464   Section        0  main.o(i.Task_Liuliang)
    i.Task_LoadConfigs                       0x08010884   Section        0  main.o(i.Task_LoadConfigs)
    i.Task_M26                               0x0801088c   Section        0  main.o(i.Task_M26)
    i.Task_M26HTTP                           0x08010b64   Section        0  main.o(i.Task_M26HTTP)
    i.Task_M26KGL                            0x08010d54   Section        0  main.o(i.Task_M26KGL)
    i.Task_M26LL                             0x08010fb8   Section        0  main.o(i.Task_M26LL)
    i.Task_M26diaodian                       0x08011250   Section        0  main.o(i.Task_M26diaodian)
    i.Task_Plan                              0x08011528   Section        0  main.o(i.Task_Plan)
    i.Task_PowerFailMsg                      0x080116d0   Section        0  main.o(i.Task_PowerFailMsg)
    i.Task_PrintfCurOnlyOne                  0x08011794   Section        0  main.o(i.Task_PrintfCurOnlyOne)
    i.Task_PrintfLog                         0x080119ac   Section        0  main.o(i.Task_PrintfLog)
    i.Task_PrintfSelectHistory               0x08011bf0   Section        0  main.o(i.Task_PrintfSelectHistory)
    i.Task_Record                            0x08011d64   Section        0  main.o(i.Task_Record)
    i.Task_RecordNow                         0x08011e08   Section        0  main.o(i.Task_RecordNow)
    i.Task_SaveConfigs                       0x08011e9c   Section        0  main.o(i.Task_SaveConfigs)
    i.Task_SendMsgBT                         0x08011ec0   Section        0  main.o(i.Task_SendMsgBT)
    i.Task_Sensor                            0x0801220c   Section        0  main.o(i.Task_Sensor)
    i.Task_SensorBLX                         0x08012348   Section        0  main.o(i.Task_SensorBLX)
    i.Task_SensorFuShe                       0x080123d0   Section        0  main.o(i.Task_SensorFuShe)
    i.Task_SensorGPIO                        0x080124c0   Section        0  main.o(i.Task_SensorGPIO)
    i.Timer_Broken0                          0x080124d8   Section        0  main.o(i.Timer_Broken0)
    i.Timer_Broken1                          0x080124fc   Section        0  main.o(i.Timer_Broken1)
    i.Timer_Broken2                          0x0801251c   Section        0  main.o(i.Timer_Broken2)
    i.Timer_Broken3                          0x0801253c   Section        0  main.o(i.Timer_Broken3)
    i.ToHex64                                0x0801255c   Section        0  text.o(i.ToHex64)
    i.Tools_GetCRC16                         0x08012588   Section        0  cheakout.o(i.Tools_GetCRC16)
    i.Tools_GetCRC8                          0x080125c8   Section        0  cheakout.o(i.Tools_GetCRC8)
    i.Tools_GetXOR8                          0x08012600   Section        0  cheakout.o(i.Tools_GetXOR8)
    i.Tos_ComputeCPURate                     0x0801261c   Section        0  tos.o(i.Tos_ComputeCPURate)
    i.Tos_CreateTimer                        0x08012678   Section        0  tos_timer.o(i.Tos_CreateTimer)
    i.Tos_ExecuteTimer                       0x080126ec   Section        0  tos_timer.o(i.Tos_ExecuteTimer)
    i.Tos_GetTaskIDByName                    0x0801274c   Section        0  tos.o(i.Tos_GetTaskIDByName)
    i.Tos_Init                               0x08012784   Section        0  tos.o(i.Tos_Init)
    i.Tos_ListCreate                         0x0801281c   Section        0  tos.o(i.Tos_ListCreate)
    i.Tos_RootTask                           0x0801283c   Section        0  tos.o(i.Tos_RootTask)
    i.Tos_ScanTimer                          0x08012850   Section        0  tos_timer.o(i.Tos_ScanTimer)
    i.Tos_Start                              0x08012888   Section        0  tos.o(i.Tos_Start)
    i.Tos_SysTick                            0x080128b8   Section        0  tos.o(i.Tos_SysTick)
    i.Tos_TaskCreate                         0x08012900   Section        0  tos.o(i.Tos_TaskCreate)
    i.Tos_TaskCreateFindID                   0x080129d0   Section        0  tos.o(i.Tos_TaskCreateFindID)
    i.Tos_TaskCreateQmsg                     0x08012a34   Section        0  tos.o(i.Tos_TaskCreateQmsg)
    i.Tos_TaskDelay                          0x08012a94   Section        0  tos.o(i.Tos_TaskDelay)
    i.Tos_TaskDelete                         0x08012af4   Section        0  tos.o(i.Tos_TaskDelete)
    i.Tos_TaskDropDev                        0x08012b84   Section        0  tos_device.o(i.Tos_TaskDropDev)
    i.Tos_TaskGetDev                         0x08012bc4   Section        0  tos_device.o(i.Tos_TaskGetDev)
    i.Tos_TaskGetHandKey                     0x08012c50   Section        0  main.o(i.Tos_TaskGetHandKey)
    i.Tos_TaskGetQMsg                        0x08012c64   Section        0  tos.o(i.Tos_TaskGetQMsg)
    i.Tos_TaskGetQMsgDelay                   0x08012cd0   Section        0  tos.o(i.Tos_TaskGetQMsgDelay)
    i.Tos_TaskPutQmsg                        0x08012d3c   Section        0  tos.o(i.Tos_TaskPutQmsg)
    i.Tos_TaskReady                          0x08012dc0   Section        0  tos.o(i.Tos_TaskReady)
    i.Tos_TaskRecover                        0x08012e80   Section        0  tos.o(i.Tos_TaskRecover)
    i.Tos_TaskRun                            0x08012eb4   Section        0  tos.o(i.Tos_TaskRun)
    i.Tos_TaskStackInit                      0x08012f08   Section        0  tos.o(i.Tos_TaskStackInit)
    i.Tos_TaskStart                          0x08012f78   Section        0  tos.o(i.Tos_TaskStart)
    i.Tos_TaskStop                           0x08012f9c   Section        0  tos.o(i.Tos_TaskStop)
    i.Tos_TaskSuspend                        0x08012fe8   Section        0  tos.o(i.Tos_TaskSuspend)
    i.Tos_TaskSwitch                         0x08013064   Section        0  tos.o(i.Tos_TaskSwitch)
    i.Tos_TaskTcbInit                        0x08013104   Section        0  tos.o(i.Tos_TaskTcbInit)
    i.Tos_TaskTimeout                        0x08013118   Section        0  tos.o(i.Tos_TaskTimeout)
    i.Tos_TimerReady                         0x0801316c   Section        0  tos_timer.o(i.Tos_TimerReady)
    i.Tos_WaitDev                            0x080131c0   Section        0  tos.o(i.Tos_WaitDev)
    i.UART4_IRQHandler                       0x080131fc   Section        0  usart_driver.o(i.UART4_IRQHandler)
    i.UART5_IRQHandler                       0x0801325c   Section        0  usart_driver.o(i.UART5_IRQHandler)
    i.USART1_IRQHandler                      0x080132bc   Section        0  usart_driver.o(i.USART1_IRQHandler)
    i.USART2_IRQHandler                      0x0801331c   Section        0  usart_driver.o(i.USART2_IRQHandler)
    i.USART3_IRQHandler                      0x0801337c   Section        0  usart_driver.o(i.USART3_IRQHandler)
    i.USART_ClearFlag                        0x080133dc   Section        0  stm32f10x_usart.o(i.USART_ClearFlag)
    i.USART_ClearITPendingBit                0x080133ee   Section        0  stm32f10x_usart.o(i.USART_ClearITPendingBit)
    i.USART_Cmd                              0x0801340c   Section        0  stm32f10x_usart.o(i.USART_Cmd)
    i.USART_Configuration                    0x08013424   Section        0  usart_driver.o(i.USART_Configuration)
    i.USART_ConfigurationAll                 0x080134a0   Section        0  usart_driver.o(i.USART_ConfigurationAll)
    i.USART_GPIO_Init                        0x08013510   Section        0  usart_driver.o(i.USART_GPIO_Init)
    i.USART_GPIO_InitAll                     0x080135d8   Section        0  usart_driver.o(i.USART_GPIO_InitAll)
    i.USART_GetITStatus                      0x0801362e   Section        0  stm32f10x_usart.o(i.USART_GetITStatus)
    i.USART_GetIndex                         0x08013684   Section        0  usart_driver.o(i.USART_GetIndex)
    i.USART_GetTypeDef                       0x080136cc   Section        0  usart_driver.o(i.USART_GetTypeDef)
    i.USART_ITConfig                         0x08013708   Section        0  stm32f10x_usart.o(i.USART_ITConfig)
    i.USART_Init                             0x08013754   Section        0  stm32f10x_usart.o(i.USART_Init)
    i.USART_Read                             0x0801382c   Section        0  usart_driver.o(i.USART_Read)
    i.USART_ReadDatas                        0x0801386c   Section        0  usart_driver.o(i.USART_ReadDatas)
    i.USART_Write                            0x08013924   Section        0  usart_driver.o(i.USART_Write)
    i.USART_WriteData                        0x08013944   Section        0  usart_driver.o(i.USART_WriteData)
    i.USART_WriteDatas                       0x08013956   Section        0  usart_driver.o(i.USART_WriteDatas)
    i.USART_WriteLine                        0x08013976   Section        0  usart_driver.o(i.USART_WriteLine)
    i.USBWakeUp_IRQHandler                   0x080139ac   Section        0  stm32f10x_it.o(i.USBWakeUp_IRQHandler)
    i.Uint32FromByte                         0x080139b8   Section        0  text.o(i.Uint32FromByte)
    i.UsageFault_Handler                     0x080139c0   Section        0  stm32f10x_it.o(i.UsageFault_Handler)
    i.W25Q16_Erase                           0x080139c4   Section        0  main.o(i.W25Q16_Erase)
    i.W25Q16_EraseThis                       0x080139f0   Section        0  main.o(i.W25Q16_EraseThis)
    i.W25Q16_Read                            0x08013a50   Section        0  main.o(i.W25Q16_Read)
    i.W25Q16_StdRead                         0x08013a64   Section        0  main.o(i.W25Q16_StdRead)
    i.W25Q16_StdWrite                        0x08013a78   Section        0  main.o(i.W25Q16_StdWrite)
    i.__0vsprintf                            0x08013a8c   Section        0  printfa.o(i.__0vsprintf)
    i.__scatterload_copy                     0x08013ab0   Section       14  handlers.o(i.__scatterload_copy)
    i.__scatterload_null                     0x08013abe   Section        2  handlers.o(i.__scatterload_null)
    i.__scatterload_zeroinit                 0x08013ac0   Section       14  handlers.o(i.__scatterload_zeroinit)
    i._fp_digits                             0x08013ad0   Section        0  printfa.o(i._fp_digits)
    _fp_digits                               0x08013ad1   Thumb Code   326  printfa.o(i._fp_digits)
    i._printf_core                           0x08013c2c   Section        0  printfa.o(i._printf_core)
    _printf_core                             0x08013c2d   Thumb Code  1762  printfa.o(i._printf_core)
    i._printf_post_padding                   0x0801431c   Section        0  printfa.o(i._printf_post_padding)
    _printf_post_padding                     0x0801431d   Thumb Code    38  printfa.o(i._printf_post_padding)
    i._printf_pre_padding                    0x08014342   Section        0  printfa.o(i._printf_pre_padding)
    _printf_pre_padding                      0x08014343   Thumb Code    48  printfa.o(i._printf_pre_padding)
    i._sputc                                 0x08014372   Section        0  printfa.o(i._sputc)
    _sputc                                   0x08014373   Thumb Code    10  printfa.o(i._sputc)
    i.delay_us                               0x0801437c   Section        0  i2c_driver.o(i.delay_us)
    i.main                                   0x0801438c   Section        0  main.o(i.main)
    .constdata                               0x080144d8   Section      512  cheakout.o(.constdata)
    .constdata                               0x080146d8   Section    29824  main.o(.constdata)
    .conststring                             0x0801bb58   Section       24  func_face.o(.conststring)
    .conststring                             0x0801bb70   Section      835  main.o(.conststring)
    .data                                    0x20000000   Section       20  stm32f10x_rcc.o(.data)
    APBAHBPrescTable                         0x20000000   Data          16  stm32f10x_rcc.o(.data)
    ADCPrescTable                            0x20000010   Data           4  stm32f10x_rcc.o(.data)
    .data                                    0x20000014   Section       20  usart_driver.o(.data)
    .data                                    0x20000028   Section       40  tos.o(.data)
    Count                                    0x20000028   Data           1  tos.o(.data)
    i                                        0x20000029   Data           1  tos.o(.data)
    Pool                                     0x2000002c   Data           4  tos.o(.data)
    Use                                      0x20000030   Data           1  tos.o(.data)
    .data                                    0x20000050   Section        8  tos_device.o(.data)
    .data                                    0x20000058   Section        4  tos_mema.o(.data)
    .data                                    0x2000005c   Section        4  tos_timer.o(.data)
    .data                                    0x20000060   Section        8  debug.o(.data)
    .data                                    0x20000068   Section        8  func_face.o(.data)
    .data                                    0x20000070   Section      128  main.o(.data)
    ShowDot                                  0x20000094   Data           1  main.o(.data)
    i                                        0x20000095   Data           1  main.o(.data)
    i                                        0x20000096   Data           1  main.o(.data)
    i                                        0x20000097   Data           1  main.o(.data)
    i                                        0x20000098   Data           1  main.o(.data)
    i                                        0x20000099   Data           1  main.o(.data)
    Buf                                      0x2000009a   Data           2  main.o(.data)
    OLDFlag                                  0x2000009c   Data           1  main.o(.data)
    z                                        0x2000009d   Data           1  main.o(.data)
    z                                        0x2000009e   Data           2  main.o(.data)
    z                                        0x200000a0   Data           1  main.o(.data)
    One                                      0x200000a1   Data           1  main.o(.data)
    TimeCount                                0x200000a2   Data           1  main.o(.data)
    OldTime                                  0x200000a3   Data           1  main.o(.data)
    Tout                                     0x200000a4   Data           1  main.o(.data)
    ko                                       0x200000a5   Data           1  main.o(.data)
    TimeCount                                0x200000a6   Data           1  main.o(.data)
    OldTime                                  0x200000a7   Data           1  main.o(.data)
    Tout                                     0x200000a8   Data           1  main.o(.data)
    i                                        0x200000a9   Data           1  main.o(.data)
    c                                        0x200000aa   Data           1  main.o(.data)
    b                                        0x200000ab   Data           1  main.o(.data)
    Pool                                     0x200000ac   Data           4  main.o(.data)
    Pool1                                    0x200000b0   Data           4  main.o(.data)
    Pool2                                    0x200000b4   Data           4  main.o(.data)
    PoolIndex1                               0x200000b8   Data           1  main.o(.data)
    PoolIndex2                               0x200000b9   Data           1  main.o(.data)
    Pool1                                    0x200000bc   Data           4  main.o(.data)
    Pool2                                    0x200000c0   Data           4  main.o(.data)
    PoolIndex1                               0x200000c4   Data           1  main.o(.data)
    PoolIndex2                               0x200000c5   Data           1  main.o(.data)
    CHValue                                  0x200000c8   Data           8  main.o(.data)
    CHValue                                  0x200000d0   Data           8  main.o(.data)
    CHValue                                  0x200000d8   Data           8  main.o(.data)
    .bss                                     0x200000f0   Section       60  usart_driver.o(.bss)
    .bss                                     0x2000012c   Section    45000  tos_mema.o(.bss)
    .bss                                     0x2000b0f4   Section      416  main.o(.bss)
    STACK                                    0x2000b298   Section     1024  startup_stm32f10x_hd.o(STACK)

    Global Symbols

    Symbol Name                              Value     Ov Type        Size  Object(Section)

    BuildAttributes$$THM_ISAv4$P$D$K$B$S$PE$A:L22UL41UL21$X:L11$S22US41US21$IEEE1$IW$USESV6$~STKCKD$USESV7$~SHL$OTIME$ROPI$IEEEX$EBA8$MICROLIB$REQ8$PRES8$EABIv2 0x00000000   Number         0  anon$$obj.o ABSOLUTE
    __ARM_use_no_argv                        0x00000000   Number         0  main.o ABSOLUTE
    __cpp_initialize__aeabi_                  - Undefined Weak Reference
    __cxa_finalize                            - Undefined Weak Reference
    __decompress                              - Undefined Weak Reference
    _clock_init                               - Undefined Weak Reference
    _microlib_exit                            - Undefined Weak Reference
    __Vectors_Size                           0x00000130   Number         0  startup_stm32f10x_hd.o ABSOLUTE
    __Vectors                                0x08005000   Data           4  startup_stm32f10x_hd.o(RESET)
    __Vectors_End                            0x08005130   Data           0  startup_stm32f10x_hd.o(RESET)
    __main                                   0x08005131   Thumb Code     0  entry.o(.ARM.Collect$$$$00000000)
    _main_stk                                0x08005131   Thumb Code     0  entry2.o(.ARM.Collect$$$$00000001)
    _main_scatterload                        0x08005135   Thumb Code     0  entry5.o(.ARM.Collect$$$$00000004)
    __main_after_scatterload                 0x08005139   Thumb Code     0  entry5.o(.ARM.Collect$$$$00000004)
    _main_clock                              0x08005139   Thumb Code     0  entry7b.o(.ARM.Collect$$$$00000008)
    _main_cpp_init                           0x08005139   Thumb Code     0  entry8b.o(.ARM.Collect$$$$0000000A)
    _main_init                               0x08005139   Thumb Code     0  entry9a.o(.ARM.Collect$$$$0000000B)
    __rt_final_cpp                           0x08005141   Thumb Code     0  entry10a.o(.ARM.Collect$$$$0000000D)
    __rt_final_exit                          0x08005141   Thumb Code     0  entry11a.o(.ARM.Collect$$$$0000000F)
    Reset_Handler                            0x08005145   Thumb Code     8  startup_stm32f10x_hd.o(.text)
    ADC1_2_IRQHandler                        0x0800515f   Thumb Code     0  startup_stm32f10x_hd.o(.text)
    ADC3_IRQHandler                          0x0800515f   Thumb Code     0  startup_stm32f10x_hd.o(.text)
    CAN1_RX1_IRQHandler                      0x0800515f   Thumb Code     0  startup_stm32f10x_hd.o(.text)
    CAN1_SCE_IRQHandler                      0x0800515f   Thumb Code     0  startup_stm32f10x_hd.o(.text)
    DMA1_Channel1_IRQHandler                 0x0800515f   Thumb Code     0  startup_stm32f10x_hd.o(.text)
    DMA1_Channel2_IRQHandler                 0x0800515f   Thumb Code     0  startup_stm32f10x_hd.o(.text)
    DMA1_Channel3_IRQHandler                 0x0800515f   Thumb Code     0  startup_stm32f10x_hd.o(.text)
    DMA1_Channel4_IRQHandler                 0x0800515f   Thumb Code     0  startup_stm32f10x_hd.o(.text)
    DMA1_Channel5_IRQHandler                 0x0800515f   Thumb Code     0  startup_stm32f10x_hd.o(.text)
    DMA1_Channel6_IRQHandler                 0x0800515f   Thumb Code     0  startup_stm32f10x_hd.o(.text)
    DMA1_Channel7_IRQHandler                 0x0800515f   Thumb Code     0  startup_stm32f10x_hd.o(.text)
    DMA2_Channel1_IRQHandler                 0x0800515f   Thumb Code     0  startup_stm32f10x_hd.o(.text)
    DMA2_Channel2_IRQHandler                 0x0800515f   Thumb Code     0  startup_stm32f10x_hd.o(.text)
    DMA2_Channel3_IRQHandler                 0x0800515f   Thumb Code     0  startup_stm32f10x_hd.o(.text)
    DMA2_Channel4_5_IRQHandler               0x0800515f   Thumb Code     0  startup_stm32f10x_hd.o(.text)
    EXTI0_IRQHandler                         0x0800515f   Thumb Code     0  startup_stm32f10x_hd.o(.text)
    EXTI15_10_IRQHandler                     0x0800515f   Thumb Code     0  startup_stm32f10x_hd.o(.text)
    EXTI2_IRQHandler                         0x0800515f   Thumb Code     0  startup_stm32f10x_hd.o(.text)
    EXTI3_IRQHandler                         0x0800515f   Thumb Code     0  startup_stm32f10x_hd.o(.text)
    EXTI4_IRQHandler                         0x0800515f   Thumb Code     0  startup_stm32f10x_hd.o(.text)
    EXTI9_5_IRQHandler                       0x0800515f   Thumb Code     0  startup_stm32f10x_hd.o(.text)
    FLASH_IRQHandler                         0x0800515f   Thumb Code     0  startup_stm32f10x_hd.o(.text)
    FSMC_IRQHandler                          0x0800515f   Thumb Code     0  startup_stm32f10x_hd.o(.text)
    I2C1_ER_IRQHandler                       0x0800515f   Thumb Code     0  startup_stm32f10x_hd.o(.text)
    I2C1_EV_IRQHandler                       0x0800515f   Thumb Code     0  startup_stm32f10x_hd.o(.text)
    I2C2_ER_IRQHandler                       0x0800515f   Thumb Code     0  startup_stm32f10x_hd.o(.text)
    I2C2_EV_IRQHandler                       0x0800515f   Thumb Code     0  startup_stm32f10x_hd.o(.text)
    PVD_IRQHandler                           0x0800515f   Thumb Code     0  startup_stm32f10x_hd.o(.text)
    RCC_IRQHandler                           0x0800515f   Thumb Code     0  startup_stm32f10x_hd.o(.text)
    RTCAlarm_IRQHandler                      0x0800515f   Thumb Code     0  startup_stm32f10x_hd.o(.text)
    RTC_IRQHandler                           0x0800515f   Thumb Code     0  startup_stm32f10x_hd.o(.text)
    SDIO_IRQHandler                          0x0800515f   Thumb Code     0  startup_stm32f10x_hd.o(.text)
    SPI1_IRQHandler                          0x0800515f   Thumb Code     0  startup_stm32f10x_hd.o(.text)
    SPI2_IRQHandler                          0x0800515f   Thumb Code     0  startup_stm32f10x_hd.o(.text)
    SPI3_IRQHandler                          0x0800515f   Thumb Code     0  startup_stm32f10x_hd.o(.text)
    TAMPER_IRQHandler                        0x0800515f   Thumb Code     0  startup_stm32f10x_hd.o(.text)
    TIM1_BRK_IRQHandler                      0x0800515f   Thumb Code     0  startup_stm32f10x_hd.o(.text)
    TIM1_CC_IRQHandler                       0x0800515f   Thumb Code     0  startup_stm32f10x_hd.o(.text)
    TIM1_TRG_COM_IRQHandler                  0x0800515f   Thumb Code     0  startup_stm32f10x_hd.o(.text)
    TIM1_UP_IRQHandler                       0x0800515f   Thumb Code     0  startup_stm32f10x_hd.o(.text)
    TIM2_IRQHandler                          0x0800515f   Thumb Code     0  startup_stm32f10x_hd.o(.text)
    TIM3_IRQHandler                          0x0800515f   Thumb Code     0  startup_stm32f10x_hd.o(.text)
    TIM4_IRQHandler                          0x0800515f   Thumb Code     0  startup_stm32f10x_hd.o(.text)
    TIM5_IRQHandler                          0x0800515f   Thumb Code     0  startup_stm32f10x_hd.o(.text)
    TIM6_IRQHandler                          0x0800515f   Thumb Code     0  startup_stm32f10x_hd.o(.text)
    TIM7_IRQHandler                          0x0800515f   Thumb Code     0  startup_stm32f10x_hd.o(.text)
    TIM8_BRK_IRQHandler                      0x0800515f   Thumb Code     0  startup_stm32f10x_hd.o(.text)
    TIM8_CC_IRQHandler                       0x0800515f   Thumb Code     0  startup_stm32f10x_hd.o(.text)
    TIM8_TRG_COM_IRQHandler                  0x0800515f   Thumb Code     0  startup_stm32f10x_hd.o(.text)
    TIM8_UP_IRQHandler                       0x0800515f   Thumb Code     0  startup_stm32f10x_hd.o(.text)
    USB_HP_CAN1_TX_IRQHandler                0x0800515f   Thumb Code     0  startup_stm32f10x_hd.o(.text)
    USB_LP_CAN1_RX0_IRQHandler               0x0800515f   Thumb Code     0  startup_stm32f10x_hd.o(.text)
    WWDG_IRQHandler                          0x0800515f   Thumb Code     0  startup_stm32f10x_hd.o(.text)
    strstr                                   0x08005169   Thumb Code    36  strstr.o(.text)
    __aeabi_fadd                             0x0800518d   Thumb Code   164  fadd.o(.text)
    __aeabi_fsub                             0x08005231   Thumb Code     6  fadd.o(.text)
    __aeabi_frsub                            0x08005237   Thumb Code     6  fadd.o(.text)
    __aeabi_fmul                             0x0800523d   Thumb Code   108  fmul.o(.text)
    __aeabi_fdiv                             0x080052a9   Thumb Code   128  fdiv.o(.text)
    __aeabi_dadd                             0x08005329   Thumb Code   322  dadd.o(.text)
    __aeabi_dsub                             0x0800546b   Thumb Code     6  dadd.o(.text)
    __aeabi_drsub                            0x08005471   Thumb Code     6  dadd.o(.text)
    __aeabi_dmul                             0x08005477   Thumb Code   228  dmul.o(.text)
    __aeabi_ddiv                             0x0800555b   Thumb Code   222  ddiv.o(.text)
    __aeabi_i2f                              0x08005639   Thumb Code    18  fflti.o(.text)
    __aeabi_ui2f                             0x0800564b   Thumb Code    10  ffltui.o(.text)
    __aeabi_i2d                              0x08005655   Thumb Code    34  dflti.o(.text)
    __aeabi_ui2d                             0x08005677   Thumb Code    26  dfltui.o(.text)
    __aeabi_f2iz                             0x08005691   Thumb Code    50  ffixi.o(.text)
    __aeabi_f2uiz                            0x080056c3   Thumb Code    40  ffixui.o(.text)
    __aeabi_d2iz                             0x080056eb   Thumb Code    62  dfixi.o(.text)
    __aeabi_d2uiz                            0x08005729   Thumb Code    50  dfixui.o(.text)
    __aeabi_f2d                              0x0800575b   Thumb Code    38  f2d.o(.text)
    __aeabi_cdcmpeq                          0x08005781   Thumb Code     0  cdcmple.o(.text)
    __aeabi_cdcmple                          0x08005781   Thumb Code    38  cdcmple.o(.text)
    __aeabi_cdrcmple                         0x080057a9   Thumb Code    38  cdrcmple.o(.text)
    __aeabi_d2f                              0x080057d1   Thumb Code    56  d2f.o(.text)
    __aeabi_cfcmpeq                          0x08005809   Thumb Code     0  cfcmple.o(.text)
    __aeabi_cfcmple                          0x08005809   Thumb Code    20  cfcmple.o(.text)
    __aeabi_cfrcmple                         0x0800581d   Thumb Code    20  cfrcmple.o(.text)
    __aeabi_uidiv                            0x08005831   Thumb Code     0  uidiv.o(.text)
    __aeabi_uidivmod                         0x08005831   Thumb Code    44  uidiv.o(.text)
    __aeabi_uldivmod                         0x0800585d   Thumb Code    98  uldiv.o(.text)
    __aeabi_llsl                             0x080058bf   Thumb Code    30  llshl.o(.text)
    _ll_shift_l                              0x080058bf   Thumb Code     0  llshl.o(.text)
    __aeabi_llsr                             0x080058dd   Thumb Code    32  llushr.o(.text)
    _ll_ushift_r                             0x080058dd   Thumb Code     0  llushr.o(.text)
    __aeabi_lasr                             0x080058fd   Thumb Code    36  llsshr.o(.text)
    _ll_sshift_r                             0x080058fd   Thumb Code     0  llsshr.o(.text)
    __I$use$fp                               0x08005921   Thumb Code     0  iusefp.o(.text)
    _float_round                             0x08005921   Thumb Code    18  fepilogue.o(.text)
    _float_epilogue                          0x08005933   Thumb Code    90  fepilogue.o(.text)
    _double_round                            0x0800598d   Thumb Code    26  depilogue.o(.text)
    _double_epilogue                         0x080059a7   Thumb Code   164  depilogue.o(.text)
    __aeabi_d2ulz                            0x08005a4b   Thumb Code    48  dfixul.o(.text)
    __scatterload                            0x08005a7d   Thumb Code    28  init.o(.text)
    __scatterload_rt2                        0x08005a7d   Thumb Code     0  init.o(.text)
    TOS_ContextSwitch                        0x08005aa1   Thumb Code     0  tos_core_a.o(TOS_CORE_A)
    TOS_SwitchToTask                         0x08005ad3   Thumb Code     0  tos_core_a.o(TOS_CORE_A)
    ADC1_Init                                0x08005b21   Thumb Code    16  main.o(i.ADC1_Init)
    ADC_Cmd                                  0x08005c0d   Thumb Code    22  stm32f10x_adc.o(i.ADC_Cmd)
    ADC_DMACmd                               0x08005c23   Thumb Code    22  stm32f10x_adc.o(i.ADC_DMACmd)
    ADC_GetCalibrationStatus                 0x08005c39   Thumb Code    20  stm32f10x_adc.o(i.ADC_GetCalibrationStatus)
    ADC_GetResetCalibrationStatus            0x08005c4d   Thumb Code    20  stm32f10x_adc.o(i.ADC_GetResetCalibrationStatus)
    ADC_Init                                 0x08005c61   Thumb Code    70  stm32f10x_adc.o(i.ADC_Init)
    ADC_RegularChannelConfig                 0x08005cb1   Thumb Code   184  stm32f10x_adc.o(i.ADC_RegularChannelConfig)
    ADC_ResetCalibration                     0x08005d69   Thumb Code    10  stm32f10x_adc.o(i.ADC_ResetCalibration)
    ADC_SoftwareStartConvCmd                 0x08005d73   Thumb Code    22  stm32f10x_adc.o(i.ADC_SoftwareStartConvCmd)
    ADC_StartCalibration                     0x08005d89   Thumb Code    10  stm32f10x_adc.o(i.ADC_StartCalibration)
    AS_Read_Value                            0x08005d95   Thumb Code    14  main.o(i.AS_Read_Value)
    Abs                                      0x08005da9   Thumb Code    28  text.o(i.Abs)
    BEEP_Double                              0x08005dc5   Thumb Code    54  main.o(i.BEEP_Double)
    BOOL_LoadConfigs                         0x08005e01   Thumb Code    36  main.o(i.BOOL_LoadConfigs)
    B_LUX_GetLux                             0x08005e3d   Thumb Code    46  main.o(i.B_LUX_GetLux)
    B_LUX_Init                               0x08005e6b   Thumb Code    28  main.o(i.B_LUX_Init)
    BareDelay                                0x08005e87   Thumb Code    26  stm32_cpu.o(i.BareDelay)
    Bcd_Decimal                              0x08005ea1   Thumb Code    16  text.o(i.Bcd_Decimal)
    BinarySearch                             0x08005eb1   Thumb Code    66  main.o(i.BinarySearch)
    BufferCoppy                              0x08005ef9   Thumb Code    34  text.o(i.BufferCoppy)
    BufferFill                               0x08005f1b   Thumb Code    22  text.o(i.BufferFill)
    BusFault_Handler                         0x08005f31   Thumb Code     4  stm32f10x_it.o(i.BusFault_Handler)
    COM_Menu_Enter                           0x08005f35   Thumb Code   264  main.o(i.COM_Menu_Enter)
    COM_Menu_Load                            0x08006045   Thumb Code    48  main.o(i.COM_Menu_Load)
    CheckCallNumber                          0x08006079   Thumb Code    48  main.o(i.CheckCallNumber)
    CheckLiuliangBuf                         0x080060a9   Thumb Code    76  main.o(i.CheckLiuliangBuf)
    ClearWithBuffer                          0x08006105   Thumb Code    20  text.o(i.ClearWithBuffer)
    CompareWithString                        0x08006119   Thumb Code    60  text.o(i.CompareWithString)
    DHT11_Check                              0x08006155   Thumb Code    90  main.o(i.DHT11_Check)
    DHT11_DelayMs                            0x080061b9   Thumb Code    32  main.o(i.DHT11_DelayMs)
    DHT11_DelayUs                            0x080061d9   Thumb Code    30  main.o(i.DHT11_DelayUs)
    DHT11_GetFloat                           0x080061f9   Thumb Code   120  main.o(i.DHT11_GetFloat)
    DHT11_PortIN                             0x0800627d   Thumb Code    34  main.o(i.DHT11_PortIN)
    DHT11_PortOUT                            0x080062a9   Thumb Code    34  main.o(i.DHT11_PortOUT)
    DHT11_Read                               0x080062d5   Thumb Code   112  main.o(i.DHT11_Read)
    DHT11_Read_Bit                           0x08006345   Thumb Code    94  main.o(i.DHT11_Read_Bit)
    DHT11_Read_Byte                          0x080063ad   Thumb Code    30  main.o(i.DHT11_Read_Byte)
    DHT11_Rst                                0x080063cd   Thumb Code    44  main.o(i.DHT11_Rst)
    DMA_Cmd                                  0x08006401   Thumb Code    24  stm32f10x_dma.o(i.DMA_Cmd)
    DMA_DeInit                               0x08006419   Thumb Code   324  stm32f10x_dma.o(i.DMA_DeInit)
    DMA_Init                                 0x08006565   Thumb Code    60  stm32f10x_dma.o(i.DMA_Init)
    DS18B20_Init                             0x080065a1   Thumb Code    62  main.o(i.DS18B20_Init)
    DS_Check                                 0x080065e9   Thumb Code    90  main.o(i.DS_Check)
    DS_DelayUs                               0x0800664d   Thumb Code    30  main.o(i.DS_DelayUs)
    DS_Get_Temp                              0x0800666d   Thumb Code   234  main.o(i.DS_Get_Temp)
    DS_PortIN                                0x0800676d   Thumb Code    34  main.o(i.DS_PortIN)
    DS_PortOUT                               0x08006799   Thumb Code    34  main.o(i.DS_PortOUT)
    DS_Read_Bit                              0x080067c5   Thumb Code    76  main.o(i.DS_Read_Bit)
    DS_Read_Byte                             0x08006819   Thumb Code    34  main.o(i.DS_Read_Byte)
    DS_Read_Value                            0x0800683d   Thumb Code   242  main.o(i.DS_Read_Value)
    DS_Rst                                   0x0800693d   Thumb Code    46  main.o(i.DS_Rst)
    DS_SetPort                               0x08006975   Thumb Code    10  main.o(i.DS_SetPort)
    DS_Start                                 0x08006989   Thumb Code    24  main.o(i.DS_Start)
    DS_Write_Byte                            0x080069a1   Thumb Code   104  main.o(i.DS_Write_Byte)
    DTH11_SetPort                            0x08006a11   Thumb Code    10  main.o(i.DTH11_SetPort)
    DeBug                                    0x08006a25   Thumb Code   358  debug.o(i.DeBug)
    DeBug_Drop                               0x08006bb1   Thumb Code     8  debug.o(i.DeBug_Drop)
    DeBug_Get                                0x08006bbd   Thumb Code    10  debug.o(i.DeBug_Get)
    DeBug_OutSet                             0x08006bd1   Thumb Code     6  debug.o(i.DeBug_OutSet)
    DeBug_SetType                            0x08006bdd   Thumb Code     6  debug.o(i.DeBug_SetType)
    DebugMon_Handler                         0x08006be9   Thumb Code     2  stm32f10x_it.o(i.DebugMon_Handler)
    Decimal_Bcd                              0x08006beb   Thumb Code    20  text.o(i.Decimal_Bcd)
    DeviceList_Init                          0x08006c01   Thumb Code   112  tos_device.o(i.DeviceList_Init)
    DeviceList_Printf                        0x08006c81   Thumb Code   182  tos_device.o(i.DeviceList_Printf)
    DeviceMount_HT1621                       0x08006d69   Thumb Code   180  main.o(i.DeviceMount_HT1621)
    DeviceMount_IO                           0x08006e35   Thumb Code   180  main.o(i.DeviceMount_IO)
    DeviceMount_ISL1208                      0x08006efd   Thumb Code   180  main.o(i.DeviceMount_ISL1208)
    DeviceMount_Uart                         0x08006fc9   Thumb Code   398  usart_driver.o(i.DeviceMount_Uart)
    DeviceMount_Usart                        0x08007191   Thumb Code    18  usart_driver.o(i.DeviceMount_Usart)
    DeviceMount_W25Q16                       0x080071a5   Thumb Code   164  main.o(i.DeviceMount_W25Q16)
    Device_Init                              0x08007269   Thumb Code   152  tos_device.o(i.Device_Init)
    Device_Ok                                0x08007321   Thumb Code    30  tos_device.o(i.Device_Ok)
    DownLoad_BootLoader                      0x08007345   Thumb Code   608  main.o(i.DownLoad_BootLoader)
    EXTI1_IRQHandler                         0x08007629   Thumb Code    18  main.o(i.EXTI1_IRQHandler)
    EXTI_ClearITPendingBit                   0x0800763d   Thumb Code     6  stm32f10x_exti.o(i.EXTI_ClearITPendingBit)
    EXTI_Init                                0x08007649   Thumb Code   142  stm32f10x_exti.o(i.EXTI_Init)
    Exit_Init                                0x080076dd   Thumb Code    94  main.o(i.Exit_Init)
    FLASH_ErasePage                          0x08007741   Thumb Code    72  stm32f10x_flash.o(i.FLASH_ErasePage)
    FLASH_GetBank1Status                     0x0800778d   Thumb Code    48  stm32f10x_flash.o(i.FLASH_GetBank1Status)
    FLASH_Lock                               0x080077c1   Thumb Code    14  stm32f10x_flash.o(i.FLASH_Lock)
    FLASH_ProgramBootStart                   0x080077d5   Thumb Code    58  main.o(i.FLASH_ProgramBootStart)
    FLASH_ProgramDone                        0x0800780f   Thumb Code     8  main.o(i.FLASH_ProgramDone)
    FLASH_ProgramHalfWord                    0x08007819   Thumb Code    60  stm32f10x_flash.o(i.FLASH_ProgramHalfWord)
    FLASH_Unlock                             0x08007859   Thumb Code    12  stm32f10x_flash.o(i.FLASH_Unlock)
    FLASH_WaitForLastOperation               0x08007871   Thumb Code    38  stm32f10x_flash.o(i.FLASH_WaitForLastOperation)
    FLASH_WriteBank                          0x08007897   Thumb Code    56  main.o(i.FLASH_WriteBank)
    FindFloatFromString                      0x080078cf   Thumb Code   162  text.o(i.FindFloatFromString)
    FindHexFromString                        0x08007971   Thumb Code   162  text.o(i.FindHexFromString)
    FindNumFromString                        0x08007a13   Thumb Code   138  text.o(i.FindNumFromString)
    FindStringFromString                     0x08007a9d   Thumb Code   114  main.o(i.FindStringFromString)
    Flash_ReadData                           0x08007b0f   Thumb Code    28  appconfig.o(i.Flash_ReadData)
    Flash_WriteData                          0x08007b2b   Thumb Code   118  appconfig.o(i.Flash_WriteData)
    Float32FromByte                          0x08007ba1   Thumb Code     8  text.o(i.Float32FromByte)
    Float32ToByte                            0x08007ba9   Thumb Code    46  text.o(i.Float32ToByte)
    FlowPoolFilter                           0x08007bd7   Thumb Code    58  text.o(i.FlowPoolFilter)
    FmtToBuf                                 0x08007c11   Thumb Code    30  text.o(i.FmtToBuf)
    GBKToString                              0x08007c2f   Thumb Code    62  main.o(i.GBKToString)
    GBKToUniCode                             0x08007c6d   Thumb Code    32  main.o(i.GBKToUniCode)
    GBKToUnicode                             0x08007c8d   Thumb Code    38  main.o(i.GBKToUnicode)
    GPIO_DeInit                              0x08007cb9   Thumb Code   172  stm32f10x_gpio.o(i.GPIO_DeInit)
    GPIO_EXTILineConfig                      0x08007d81   Thumb Code    60  stm32f10x_gpio.o(i.GPIO_EXTILineConfig)
    GPIO_Init                                0x08007dc1   Thumb Code   274  stm32f10x_gpio.o(i.GPIO_Init)
    GPIO_InitList                            0x08007ed5   Thumb Code   126  stm32_cpu.o(i.GPIO_InitList)
    GPIO_ReadInputDataBit                    0x08007f5d   Thumb Code    18  stm32f10x_gpio.o(i.GPIO_ReadInputDataBit)
    GPIO_ResetBits                           0x08007f6f   Thumb Code     4  stm32f10x_gpio.o(i.GPIO_ResetBits)
    GPIO_SetBits                             0x08007f73   Thumb Code     4  stm32f10x_gpio.o(i.GPIO_SetBits)
    GPIO_Set_PWR                             0x08007f79   Thumb Code    68  main.o(i.GPIO_Set_PWR)
    GPIO_Set_ShowOnly                        0x08007fc1   Thumb Code    42  main.o(i.GPIO_Set_ShowOnly)
    GPRS_Ack                                 0x08007ff1   Thumb Code    86  main.o(i.GPRS_Ack)
    GPRS_AckDelay                            0x0800805d   Thumb Code   102  main.o(i.GPRS_AckDelay)
    GPRS_AckTwo                              0x080080d9   Thumb Code   110  main.o(i.GPRS_AckTwo)
    GPRS_CheckIpTrue                         0x0800815d   Thumb Code    88  text.o(i.GPRS_CheckIpTrue)
    GPRS_CloseNet                            0x080081b5   Thumb Code    88  main.o(i.GPRS_CloseNet)
    GPRS_CommandAck                          0x08008249   Thumb Code    32  main.o(i.GPRS_CommandAck)
    GPRS_CommandAckCount                     0x08008275   Thumb Code   140  main.o(i.GPRS_CommandAckCount)
    GPRS_Connect                             0x08008315   Thumb Code   148  main.o(i.GPRS_Connect)
    GPRS_Printf                              0x08008409   Thumb Code    92  main.o(i.GPRS_Printf)
    GPRS_PrintfString                        0x08008489   Thumb Code    56  main.o(i.GPRS_PrintfString)
    GPRS_WhileAck                            0x080084d1   Thumb Code    46  main.o(i.GPRS_WhileAck)
    GetChar_List                             0x080084ff   Thumb Code   128  debug.o(i.GetChar_List)
    GetCodeStr16                             0x08008581   Thumb Code   124  main.o(i.GetCodeStr16)
    GetCodeStr18                             0x08008601   Thumb Code    96  main.o(i.GetCodeStr18)
    GetCodeStr64                             0x08008665   Thumb Code   106  stm32_cpu.o(i.GetCodeStr64)
    GetHexFromString                         0x080086d5   Thumb Code   228  text.o(i.GetHexFromString)
    GetStringByFmt                           0x080087b9   Thumb Code    36  text.o(i.GetStringByFmt)
    GetStringToNumber                        0x080087dd   Thumb Code   178  text.o(i.GetStringToNumber)
    GetTextLength                            0x080088a1   Thumb Code    24  text.o(i.GetTextLength)
    GetTosTask_Count                         0x080088b9   Thumb Code    38  stm32_cpu.o(i.GetTosTask_Count)
    GetUnicodeString                         0x080088e5   Thumb Code    36  main.o(i.GetUnicodeString)
    GetWordFromBytes                         0x08008911   Thumb Code    38  text.o(i.GetWordFromBytes)
    Get_Mon                                  0x08008939   Thumb Code   176  main.o(i.Get_Mon)
    Get_PragmDateTime                        0x08008a19   Thumb Code    64  main.o(i.Get_PragmDateTime)
    Get_PrintfRecordCount                    0x08008a6d   Thumb Code    70  main.o(i.Get_PrintfRecordCount)
    HT1621_Init                              0x08008ac5   Thumb Code    68  main.o(i.HT1621_Init)
    HandKey_GetValue                         0x08008b0d   Thumb Code    46  main.o(i.HandKey_GetValue)
    HardFault_Handler                        0x08008b45   Thumb Code     8  stm32f10x_it.o(i.HardFault_Handler)
    Ht1621Wr_Cmd                             0x08008b4d   Thumb Code    54  main.o(i.Ht1621Wr_Cmd)
    Ht1621Wr_Data                            0x08008b89   Thumb Code    90  main.o(i.Ht1621Wr_Data)
    Ht1621_Delay                             0x08008be9   Thumb Code    20  main.o(i.Ht1621_Delay)
    Ht1621_DrawBase                          0x08008bfd   Thumb Code    52  main.o(i.Ht1621_DrawBase)
    Ht1621_DrawHome                          0x08008c35   Thumb Code  1048  main.o(i.Ht1621_DrawHome)
    Ht1621_DrawIO                            0x0800904d   Thumb Code   886  main.o(i.Ht1621_DrawIO)
    Ht1621_DrawLUX                           0x080093f9   Thumb Code  1150  main.o(i.Ht1621_DrawLUX)
    Ht1621_DrawMenu                          0x08009881   Thumb Code    98  main.o(i.Ht1621_DrawMenu)
    Ht1621_DrawSongbo                        0x08009919   Thumb Code   904  main.o(i.Ht1621_DrawSongbo)
    Ht1621_DrawTime                          0x08009ccd   Thumb Code   190  main.o(i.Ht1621_DrawTime)
    Ht1621_DrawUpDown                        0x08009d95   Thumb Code   438  main.o(i.Ht1621_DrawUpDown)
    Ht1621_DrawZFS                           0x08009f71   Thumb Code  1150  main.o(i.Ht1621_DrawZFS)
    Ht1621_GetCode                           0x0800a3f9   Thumb Code    22  main.o(i.Ht1621_GetCode)
    Ht1621_SHowDownStr                       0x0800a415   Thumb Code    82  main.o(i.Ht1621_SHowDownStr)
    Ht1621_SHowDownStr1                      0x0800a46d   Thumb Code    82  main.o(i.Ht1621_SHowDownStr1)
    Ht1621_SHowDownString                    0x0800a4c5   Thumb Code   172  main.o(i.Ht1621_SHowDownString)
    Ht1621_SHowUpString                      0x0800a575   Thumb Code   174  main.o(i.Ht1621_SHowUpString)
    Ht1621_ShowASCII                         0x0800a629   Thumb Code    40  main.o(i.Ht1621_ShowASCII)
    Ht1621_WriteReg                          0x0800a655   Thumb Code    62  main.o(i.Ht1621_WriteReg)
    I2C_Drop                                 0x0800a699   Thumb Code    14  i2c_driver.o(i.I2C_Drop)
    I2C_ReadDatas                            0x0800a6a7   Thumb Code   124  i2c_driver.o(i.I2C_ReadDatas)
    I2C_RecvBytes                            0x0800a723   Thumb Code   112  i2c_driver.o(i.I2C_RecvBytes)
    I2C_SendAck                              0x0800a793   Thumb Code    44  i2c_driver.o(i.I2C_SendAck)
    I2C_SendBytes                            0x0800a7bf   Thumb Code   138  i2c_driver.o(i.I2C_SendBytes)
    I2C_Start                                0x0800a849   Thumb Code    46  i2c_driver.o(i.I2C_Start)
    I2C_Stop                                 0x0800a877   Thumb Code    36  i2c_driver.o(i.I2C_Stop)
    I2C_WriteDatas                           0x0800a89b   Thumb Code    92  i2c_driver.o(i.I2C_WriteDatas)
    IAP_ErasePage                            0x0800a8f7   Thumb Code    12  stm32_cpu.o(i.IAP_ErasePage)
    IAP_Lock                                 0x0800a903   Thumb Code     8  stm32_cpu.o(i.IAP_Lock)
    IAP_ProgramHalfWord                      0x0800a923   Thumb Code    16  stm32_cpu.o(i.IAP_ProgramHalfWord)
    IAP_Unlock                               0x0800a933   Thumb Code     8  stm32_cpu.o(i.IAP_Unlock)
    IIC_DelayUs                              0x0800a93b   Thumb Code    14  main.o(i.IIC_DelayUs)
    IIC_ReadAck                              0x0800a991   Thumb Code    76  main.o(i.IIC_ReadAck)
    IIC_Reads                                0x0800a9dd   Thumb Code   152  main.o(i.IIC_Reads)
    IIC_RecvByte                             0x0800aa7d   Thumb Code    96  main.o(i.IIC_RecvByte)
    IIC_SendAck                              0x0800aadd   Thumb Code    64  main.o(i.IIC_SendAck)
    IIC_SendByte                             0x0800ab1d   Thumb Code    88  main.o(i.IIC_SendByte)
    IIC_Start                                0x0800ab75   Thumb Code    56  main.o(i.IIC_Start)
    IIC_Stop                                 0x0800abad   Thumb Code    56  main.o(i.IIC_Stop)
    IIC_WriteCmd                             0x0800abe5   Thumb Code    36  main.o(i.IIC_WriteCmd)
    IO_Read_Value                            0x0800ac09   Thumb Code    96  main.o(i.IO_Read_Value)
    ISL1208_GPIO_Init                        0x0800ac71   Thumb Code    68  main.o(i.ISL1208_GPIO_Init)
    ISL1208_GetATR                           0x0800acb9   Thumb Code    44  main.o(i.ISL1208_GetATR)
    ISL1208_GetDateTime                      0x0800ace9   Thumb Code   116  main.o(i.ISL1208_GetDateTime)
    ISL1208_IOCONTROL                        0x0800ad5d   Thumb Code   120  main.o(i.ISL1208_IOCONTROL)
    ISL1208_Init                             0x0800add9   Thumb Code   184  main.o(i.ISL1208_Init)
    ISL1208_ReadReg                          0x0800ae99   Thumb Code    28  main.o(i.ISL1208_ReadReg)
    ISL1208_SetAlarm                         0x0800aeb9   Thumb Code   158  main.o(i.ISL1208_SetAlarm)
    ISL1208_SetDateTime                      0x0800af57   Thumb Code    96  main.o(i.ISL1208_SetDateTime)
    ISL1208_WriteReg                         0x0800afb9   Thumb Code    28  main.o(i.ISL1208_WriteReg)
    Load_AppConfig                           0x0800afd9   Thumb Code    20  appconfig.o(i.Load_AppConfig)
    Load_VoidConfig                          0x0800aff5   Thumb Code   102  appconfig.o(i.Load_VoidConfig)
    MCU_Reset                                0x0800b05d   Thumb Code    32  stm32_cpu.o(i.MCU_Reset)
    MSG_Delete                               0x0800b085   Thumb Code    30  main.o(i.MSG_Delete)
    MUI_GetKey                               0x0800b0c9   Thumb Code    34  main.o(i.MUI_GetKey)
    MUI_GetOptionString                      0x0800b0ed   Thumb Code   414  main.o(i.MUI_GetOptionString)
    MemManage_Handler                        0x0800b291   Thumb Code     4  stm32f10x_it.o(i.MemManage_Handler)
    Mema_Count                               0x0800b295   Thumb Code    22  tos_mema.o(i.Mema_Count)
    Mema_Free                                0x0800b2b1   Thumb Code    44  tos_mema.o(i.Mema_Free)
    Mema_GetSize                             0x0800b2e1   Thumb Code    12  tos_mema.o(i.Mema_GetSize)
    Mema_Init                                0x0800b2ed   Thumb Code    22  tos_mema.o(i.Mema_Init)
    Mema_Malloc                              0x0800b309   Thumb Code    72  tos_mema.o(i.Mema_Malloc)
    Menu_OptionLength                        0x0800b355   Thumb Code    22  main.o(i.Menu_OptionLength)
    ModBus_Create                            0x0800b36b   Thumb Code    22  modbus.o(i.ModBus_Create)
    ModBus_CreateMsg                         0x0800b381   Thumb Code   280  modbus.o(i.ModBus_CreateMsg)
    ModBus_Expend                            0x0800b499   Thumb Code   364  modbus.o(i.ModBus_Expend)
    NMI_Handler                              0x0800b605   Thumb Code     2  stm32f10x_it.o(i.NMI_Handler)
    NVIC_Init                                0x0800b609   Thumb Code   102  misc.o(i.NVIC_Init)
    NVIC_PriorityGroupConfig                 0x0800b67d   Thumb Code    10  misc.o(i.NVIC_PriorityGroupConfig)
    NVIC_SetVectorTable                      0x0800b691   Thumb Code    12  misc.o(i.NVIC_SetVectorTable)
    PDU_GetCenterNumber                      0x0800b6a5   Thumb Code    54  main.o(i.PDU_GetCenterNumber)
    PWR_BackupAccessCmd                      0x0800b701   Thumb Code     6  stm32f10x_pwr.o(i.PWR_BackupAccessCmd)
    PWR_EnterSTANDBYMode                     0x0800b70d   Thumb Code    42  stm32f10x_pwr.o(i.PWR_EnterSTANDBYMode)
    PWR_EnterSTOPMode                        0x0800b741   Thumb Code    54  stm32f10x_pwr.o(i.PWR_EnterSTOPMode)
    PWR_WakeUpPinCmd                         0x0800b781   Thumb Code     6  stm32f10x_pwr.o(i.PWR_WakeUpPinCmd)
    PendSV_Handler                           0x0800b78d   Thumb Code     2  stm32f10x_it.o(i.PendSV_Handler)
    Printf_BoardInfor                        0x0800b791   Thumb Code    44  stm32_cpu.o(i.Printf_BoardInfor)
    Printf_LcdType                           0x0800b825   Thumb Code     2  stm32_cpu.o(i.Printf_LcdType)
    Printf_LockCode                          0x0800b829   Thumb Code    24  stm32_cpu.o(i.Printf_LockCode)
    Printf_NandInfor                         0x0800b84d   Thumb Code     2  stm32_cpu.o(i.Printf_NandInfor)
    Printf_SysInfor                          0x0800b851   Thumb Code    40  stm32_cpu.o(i.Printf_SysInfor)
    Printf_TaskInfor                         0x0800b895   Thumb Code    22  stm32_cpu.o(i.Printf_TaskInfor)
    Printf_TosInfor                          0x0800b8d5   Thumb Code    96  stm32_cpu.o(i.Printf_TosInfor)
    QuectelM26Printf_Bytes                   0x0800b969   Thumb Code    48  main.o(i.QuectelM26Printf_Bytes)
    QuectelM26_Config                        0x0800b9ad   Thumb Code    38  main.o(i.QuectelM26_Config)
    QuectelM26_Connect                       0x0800b9f9   Thumb Code    42  main.o(i.QuectelM26_Connect)
    QuectelM26_ConnectNet                    0x0800ba51   Thumb Code   170  main.o(i.QuectelM26_ConnectNet)
    QuectelM26_GetCSQ                        0x0800bb95   Thumb Code    28  main.o(i.QuectelM26_GetCSQ)
    QuectelM26_GetNumString                  0x0800bbc9   Thumb Code   170  main.o(i.QuectelM26_GetNumString)
    QuectelM26_GetValue                      0x0800bc7d   Thumb Code   154  main.o(i.QuectelM26_GetValue)
    QuectelM26_Init                          0x0800bd21   Thumb Code   300  main.o(i.QuectelM26_Init)
    QuectelM26_InitSMS                       0x0800bef9   Thumb Code   148  main.o(i.QuectelM26_InitSMS)
    QuectelM26_ReadShow                      0x0800c00d   Thumb Code    66  main.o(i.QuectelM26_ReadShow)
    QuectelM26_SendCFG                       0x0800c069   Thumb Code   234  main.o(i.QuectelM26_SendCFG)
    QuectelM26_SendData                      0x0800c1b5   Thumb Code   530  main.o(i.QuectelM26_SendData)
    QuectelM26_SendHR                        0x0800c451   Thumb Code   528  main.o(i.QuectelM26_SendHR)
    QuectelM26_SendHR1                       0x0800c6e9   Thumb Code   570  main.o(i.QuectelM26_SendHR1)
    QuectelM26_SendHRKGL                     0x0800c9cd   Thumb Code   528  main.o(i.QuectelM26_SendHRKGL)
    QuectelM26_SendHTTP                      0x0800cc79   Thumb Code   362  main.o(i.QuectelM26_SendHTTP)
    QuectelM26_SendHeartbeat                 0x0800cee1   Thumb Code   202  main.o(i.QuectelM26_SendHeartbeat)
    QuectelM26_SendLL                        0x0800d021   Thumb Code   828  main.o(i.QuectelM26_SendLL)
    QuectelM26_SendTextMsg                   0x0800d3e1   Thumb Code   164  main.o(i.QuectelM26_SendTextMsg)
    QuectelM26_ShowSMS                       0x0800d4b1   Thumb Code   356  main.o(i.QuectelM26_ShowSMS)
    RCC_ADCCLKConfig                         0x0800d6fd   Thumb Code    18  stm32f10x_rcc.o(i.RCC_ADCCLKConfig)
    RCC_AHBPeriphClockCmd                    0x0800d715   Thumb Code    26  stm32f10x_rcc.o(i.RCC_AHBPeriphClockCmd)
    RCC_APB1PeriphClockCmd                   0x0800d735   Thumb Code    26  stm32f10x_rcc.o(i.RCC_APB1PeriphClockCmd)
    RCC_APB2PeriphClockCmd                   0x0800d755   Thumb Code    26  stm32f10x_rcc.o(i.RCC_APB2PeriphClockCmd)
    RCC_APB2PeriphResetCmd                   0x0800d775   Thumb Code    26  stm32f10x_rcc.o(i.RCC_APB2PeriphResetCmd)
    RCC_GetClocksFreq                        0x0800d795   Thumb Code   192  stm32f10x_rcc.o(i.RCC_GetClocksFreq)
    RegServer_Connect                        0x0800d869   Thumb Code    38  main.o(i.RegServer_Connect)
    Reg_SendHead                             0x0800d8c9   Thumb Code    96  main.o(i.Reg_SendHead)
    Reg_SendInfor                            0x0800d969   Thumb Code   474  main.o(i.Reg_SendInfor)
    Regdit_SendInfor                         0x0800dcf1   Thumb Code   638  main.o(i.Regdit_SendInfor)
    SPI_Cmd                                  0x0800e0e1   Thumb Code    24  stm32f10x_spi.o(i.SPI_Cmd)
    SPI_FLASH_BufferRead                     0x0800e0f9   Thumb Code    76  main.o(i.SPI_FLASH_BufferRead)
    SPI_FLASH_BufferWrite                    0x0800e149   Thumb Code   290  main.o(i.SPI_FLASH_BufferWrite)
    SPI_FLASH_Init                           0x0800e26d   Thumb Code   176  main.o(i.SPI_FLASH_Init)
    SPI_FLASH_PageWrite                      0x0800e325   Thumb Code    92  main.o(i.SPI_FLASH_PageWrite)
    SPI_FLASH_SectorErase                    0x0800e385   Thumb Code    62  main.o(i.SPI_FLASH_SectorErase)
    SPI_FLASH_SendByte                       0x0800e3c9   Thumb Code    50  main.o(i.SPI_FLASH_SendByte)
    SPI_FLASH_WaitForWriteEnd                0x0800e401   Thumb Code    44  main.o(i.SPI_FLASH_WaitForWriteEnd)
    SPI_FLASH_WriteEnable                    0x0800e431   Thumb Code    26  main.o(i.SPI_FLASH_WriteEnable)
    SPI_I2S_GetFlagStatus                    0x0800e451   Thumb Code    18  stm32f10x_spi.o(i.SPI_I2S_GetFlagStatus)
    SPI_I2S_ReceiveData                      0x0800e463   Thumb Code     6  stm32f10x_spi.o(i.SPI_I2S_ReceiveData)
    SPI_I2S_SendData                         0x0800e469   Thumb Code     4  stm32f10x_spi.o(i.SPI_I2S_SendData)
    SPI_Init                                 0x0800e46d   Thumb Code    60  stm32f10x_spi.o(i.SPI_Init)
    SVC_Handler                              0x0800e4a9   Thumb Code     2  stm32f10x_it.o(i.SVC_Handler)
    Save_AppConfig                           0x0800e4ad   Thumb Code    20  appconfig.o(i.Save_AppConfig)
    Save_EnvConfig                           0x0800e4c9   Thumb Code    22  main.o(i.Save_EnvConfig)
    Save_VoidConfig                          0x0800e4ed   Thumb Code    44  appconfig.o(i.Save_VoidConfig)
    Sensor_Command                           0x0800e519   Thumb Code  1258  main.o(i.Sensor_Command)
    Sensor_Init                              0x0800ea19   Thumb Code    86  main.o(i.Sensor_Init)
    SerachChear                              0x0800ea79   Thumb Code    30  main.o(i.SerachChear)
    SetSysClock                              0x0800ea97   Thumb Code     8  system_stm32f10x.o(i.SetSysClock)
    Standby_Init                             0x0800eb7d   Thumb Code   104  stm32_cpu.o(i.Standby_Init)
    StrToGBK                                 0x0800ebe9   Thumb Code   204  main.o(i.StrToGBK)
    StringCoppy                              0x0800ecb5   Thumb Code    36  text.o(i.StringCoppy)
    StringEndingAppend                       0x0800ecd9   Thumb Code    66  text.o(i.StringEndingAppend)
    Strstr                                   0x0800ed1b   Thumb Code    48  text.o(i.Strstr)
    SysTick_Handler                          0x0800ed4b   Thumb Code     8  stm32f10x_it.o(i.SysTick_Handler)
    SysTick_Set                              0x0800ed55   Thumb Code    74  stm32_cpu.o(i.SysTick_Set)
    Sys_Enter_Standby                        0x0800edad   Thumb Code    22  stm32_cpu.o(i.Sys_Enter_Standby)
    Sys_Standby                              0x0800edc3   Thumb Code    42  stm32_cpu.o(i.Sys_Standby)
    SystemInit                               0x0800eded   Thumb Code    78  system_stm32f10x.o(i.SystemInit)
    System_Reset                             0x0800ee4d   Thumb Code    14  main.o(i.System_Reset)
    System_ResetDelay                        0x0800ee61   Thumb Code    14  main.o(i.System_ResetDelay)
    System_SaveConfig                        0x0800ee71   Thumb Code    20  main.o(i.System_SaveConfig)
    TCP_JGetConfig                           0x0800ee89   Thumb Code   480  main.o(i.TCP_JGetConfig)
    TCP_JGetString                           0x0800f0e9   Thumb Code   108  main.o(i.TCP_JGetString)
    TCP_JGetStringDelete                     0x0800f1a9   Thumb Code   108  main.o(i.TCP_JGetStringDelete)
    TFT_RGB                                  0x0800f259   Thumb Code    48  text.o(i.TFT_RGB)
    TOS_Sleep                                0x0800f289   Thumb Code   212  main.o(i.TOS_Sleep)
    Task0                                    0x0800f39d   Thumb Code   266  main.o(i.Task0)
    Task0_Init                               0x0800f4b1   Thumb Code   104  main.o(i.Task0_Init)
    TaskBigShow                              0x0800f52d   Thumb Code   126  main.o(i.TaskBigShow)
    TaskFunc                                 0x0800f5b1   Thumb Code   554  main.o(i.TaskFunc)
    TaskFunc1                                0x0800f7f5   Thumb Code   522  main.o(i.TaskFunc1)
    TaskPlan                                 0x0800fa19   Thumb Code   252  main.o(i.TaskPlan)
    TaskPlan1                                0x0800fb25   Thumb Code   252  main.o(i.TaskPlan1)
    TaskPlan2                                0x0800fc31   Thumb Code   268  main.o(i.TaskPlan2)
    TaskPlan3                                0x0800fd4d   Thumb Code   196  main.o(i.TaskPlan3)
    Task_Arrary                              0x0800fe1d   Thumb Code   156  func_face.o(i.Task_Arrary)
    Task_AutoPrintf                          0x0800fec1   Thumb Code    94  main.o(i.Task_AutoPrintf)
    Task_AutoReg                             0x0800ff25   Thumb Code    84  main.o(i.Task_AutoReg)
    Task_AutoReset                           0x0800ffd1   Thumb Code    16  main.o(i.Task_AutoReset)
    Task_CleanHistory                        0x0800ffe5   Thumb Code    36  main.o(i.Task_CleanHistory)
    Task_Face                                0x08010029   Thumb Code   188  main.o(i.Task_Face)
    Task_Gps                                 0x080100f1   Thumb Code   332  main.o(i.Task_Gps)
    Task_HistoryRecord                       0x0801027d   Thumb Code   208  main.o(i.Task_HistoryRecord)
    Task_Join                                0x0801039d   Thumb Code    32  func_face.o(i.Task_Join)
    Task_KeyBoard                            0x080103c1   Thumb Code   156  main.o(i.Task_KeyBoard)
    Task_Liuliang                            0x08010465   Thumb Code   962  main.o(i.Task_Liuliang)
    Task_LoadConfigs                         0x08010885   Thumb Code     8  main.o(i.Task_LoadConfigs)
    Task_M26                                 0x0801088d   Thumb Code   552  main.o(i.Task_M26)
    Task_M26HTTP                             0x08010b65   Thumb Code   362  main.o(i.Task_M26HTTP)
    Task_M26KGL                              0x08010d55   Thumb Code   456  main.o(i.Task_M26KGL)
    Task_M26LL                               0x08010fb9   Thumb Code   486  main.o(i.Task_M26LL)
    Task_M26diaodian                         0x08011251   Thumb Code   552  main.o(i.Task_M26diaodian)
    Task_Plan                                0x08011529   Thumb Code   390  main.o(i.Task_Plan)
    Task_PowerFailMsg                        0x080116d1   Thumb Code   138  main.o(i.Task_PowerFailMsg)
    Task_PrintfCurOnlyOne                    0x08011795   Thumb Code   224  main.o(i.Task_PrintfCurOnlyOne)
    Task_PrintfLog                           0x080119ad   Thumb Code   270  main.o(i.Task_PrintfLog)
    Task_PrintfSelectHistory                 0x08011bf1   Thumb Code   276  main.o(i.Task_PrintfSelectHistory)
    Task_Record                              0x08011d65   Thumb Code   142  main.o(i.Task_Record)
    Task_RecordNow                           0x08011e09   Thumb Code   124  main.o(i.Task_RecordNow)
    Task_SaveConfigs                         0x08011e9d   Thumb Code    30  main.o(i.Task_SaveConfigs)
    Task_SendMsgBT                           0x08011ec1   Thumb Code   596  main.o(i.Task_SendMsgBT)
    Task_Sensor                              0x0801220d   Thumb Code   276  main.o(i.Task_Sensor)
    Task_SensorBLX                           0x08012349   Thumb Code   112  main.o(i.Task_SensorBLX)
    Task_SensorFuShe                         0x080123d1   Thumb Code   200  main.o(i.Task_SensorFuShe)
    Task_SensorGPIO                          0x080124c1   Thumb Code    20  main.o(i.Task_SensorGPIO)
    Timer_Broken0                            0x080124d9   Thumb Code    28  main.o(i.Timer_Broken0)
    Timer_Broken1                            0x080124fd   Thumb Code    24  main.o(i.Timer_Broken1)
    Timer_Broken2                            0x0801251d   Thumb Code    24  main.o(i.Timer_Broken2)
    Timer_Broken3                            0x0801253d   Thumb Code    24  main.o(i.Timer_Broken3)
    ToHex64                                  0x0801255d   Thumb Code    42  text.o(i.ToHex64)
    Tools_GetCRC16                           0x08012589   Thumb Code    56  cheakout.o(i.Tools_GetCRC16)
    Tools_GetCRC8                            0x080125c9   Thumb Code    56  cheakout.o(i.Tools_GetCRC8)
    Tools_GetXOR8                            0x08012601   Thumb Code    26  cheakout.o(i.Tools_GetXOR8)
    Tos_ComputeCPURate                       0x0801261d   Thumb Code    68  tos.o(i.Tos_ComputeCPURate)
    Tos_CreateTimer                          0x08012679   Thumb Code   106  tos_timer.o(i.Tos_CreateTimer)
    Tos_ExecuteTimer                         0x080126ed   Thumb Code    90  tos_timer.o(i.Tos_ExecuteTimer)
    Tos_GetTaskIDByName                      0x0801274d   Thumb Code    50  tos.o(i.Tos_GetTaskIDByName)
    Tos_Init                                 0x08012785   Thumb Code   132  tos.o(i.Tos_Init)
    Tos_ListCreate                           0x0801281d   Thumb Code    32  tos.o(i.Tos_ListCreate)
    Tos_RootTask                             0x0801283d   Thumb Code    18  tos.o(i.Tos_RootTask)
    Tos_ScanTimer                            0x08012851   Thumb Code    52  tos_timer.o(i.Tos_ScanTimer)
    Tos_Start                                0x08012889   Thumb Code    32  tos.o(i.Tos_Start)
    Tos_SysTick                              0x080128b9   Thumb Code    42  tos.o(i.Tos_SysTick)
    Tos_TaskCreate                           0x08012901   Thumb Code   204  tos.o(i.Tos_TaskCreate)
    Tos_TaskCreateFindID                     0x080129d1   Thumb Code    94  tos.o(i.Tos_TaskCreateFindID)
    Tos_TaskCreateQmsg                       0x08012a35   Thumb Code    86  tos.o(i.Tos_TaskCreateQmsg)
    Tos_TaskDelay                            0x08012a95   Thumb Code    84  tos.o(i.Tos_TaskDelay)
    Tos_TaskDelete                           0x08012af5   Thumb Code   140  tos.o(i.Tos_TaskDelete)
    Tos_TaskDropDev                          0x08012b85   Thumb Code    56  tos_device.o(i.Tos_TaskDropDev)
    Tos_TaskGetDev                           0x08012bc5   Thumb Code   132  tos_device.o(i.Tos_TaskGetDev)
    Tos_TaskGetHandKey                       0x08012c51   Thumb Code    10  main.o(i.Tos_TaskGetHandKey)
    Tos_TaskGetQMsg                          0x08012c65   Thumb Code    98  tos.o(i.Tos_TaskGetQMsg)
    Tos_TaskGetQMsgDelay                     0x08012cd1   Thumb Code    98  tos.o(i.Tos_TaskGetQMsgDelay)
    Tos_TaskPutQmsg                          0x08012d3d   Thumb Code   126  tos.o(i.Tos_TaskPutQmsg)
    Tos_TaskReady                            0x08012dc1   Thumb Code   184  tos.o(i.Tos_TaskReady)
    Tos_TaskRecover                          0x08012e81   Thumb Code    46  tos.o(i.Tos_TaskRecover)
    Tos_TaskRun                              0x08012eb5   Thumb Code    66  tos.o(i.Tos_TaskRun)
    Tos_TaskStackInit                        0x08012f09   Thumb Code   110  tos.o(i.Tos_TaskStackInit)
    Tos_TaskStart                            0x08012f79   Thumb Code    28  tos.o(i.Tos_TaskStart)
    Tos_TaskStop                             0x08012f9d   Thumb Code    70  tos.o(i.Tos_TaskStop)
    Tos_TaskSuspend                          0x08012fe9   Thumb Code   118  tos.o(i.Tos_TaskSuspend)
    Tos_TaskSwitch                           0x08013065   Thumb Code   148  tos.o(i.Tos_TaskSwitch)
    Tos_TaskTcbInit                          0x08013105   Thumb Code    18  tos.o(i.Tos_TaskTcbInit)
    Tos_TaskTimeout                          0x08013119   Thumb Code    78  tos.o(i.Tos_TaskTimeout)
    Tos_TimerReady                           0x0801316d   Thumb Code    78  tos_timer.o(i.Tos_TimerReady)
    Tos_WaitDev                              0x080131c1   Thumb Code    50  tos.o(i.Tos_WaitDev)
    UART4_IRQHandler                         0x080131fd   Thumb Code    76  usart_driver.o(i.UART4_IRQHandler)
    UART5_IRQHandler                         0x0801325d   Thumb Code    74  usart_driver.o(i.UART5_IRQHandler)
    USART1_IRQHandler                        0x080132bd   Thumb Code    76  usart_driver.o(i.USART1_IRQHandler)
    USART2_IRQHandler                        0x0801331d   Thumb Code    76  usart_driver.o(i.USART2_IRQHandler)
    USART3_IRQHandler                        0x0801337d   Thumb Code    76  usart_driver.o(i.USART3_IRQHandler)
    USART_ClearFlag                          0x080133dd   Thumb Code    18  stm32f10x_usart.o(i.USART_ClearFlag)
    USART_ClearITPendingBit                  0x080133ef   Thumb Code    30  stm32f10x_usart.o(i.USART_ClearITPendingBit)
    USART_Cmd                                0x0801340d   Thumb Code    24  stm32f10x_usart.o(i.USART_Cmd)
    USART_Configuration                      0x08013425   Thumb Code   104  usart_driver.o(i.USART_Configuration)
    USART_ConfigurationAll                   0x080134a1   Thumb Code   110  usart_driver.o(i.USART_ConfigurationAll)
    USART_GPIO_Init                          0x08013511   Thumb Code   164  usart_driver.o(i.USART_GPIO_Init)
    USART_GPIO_InitAll                       0x080135d9   Thumb Code    86  usart_driver.o(i.USART_GPIO_InitAll)
    USART_GetITStatus                        0x0801362f   Thumb Code    84  stm32f10x_usart.o(i.USART_GetITStatus)
    USART_GetIndex                           0x08013685   Thumb Code    62  usart_driver.o(i.USART_GetIndex)
    USART_GetTypeDef                         0x080136cd   Thumb Code    40  usart_driver.o(i.USART_GetTypeDef)
    USART_ITConfig                           0x08013709   Thumb Code    74  stm32f10x_usart.o(i.USART_ITConfig)
    USART_Init                               0x08013755   Thumb Code   210  stm32f10x_usart.o(i.USART_Init)
    USART_Read                               0x0801382d   Thumb Code    58  usart_driver.o(i.USART_Read)
    USART_ReadDatas                          0x0801386d   Thumb Code   160  usart_driver.o(i.USART_ReadDatas)
    USART_Write                              0x08013925   Thumb Code    32  usart_driver.o(i.USART_Write)
    USART_WriteData                          0x08013945   Thumb Code    18  usart_driver.o(i.USART_WriteData)
    USART_WriteDatas                         0x08013957   Thumb Code    32  usart_driver.o(i.USART_WriteDatas)
    USART_WriteLine                          0x08013977   Thumb Code    54  usart_driver.o(i.USART_WriteLine)
    USBWakeUp_IRQHandler                     0x080139ad   Thumb Code    12  stm32f10x_it.o(i.USBWakeUp_IRQHandler)
    Uint32FromByte                           0x080139b9   Thumb Code     8  text.o(i.Uint32FromByte)
    UsageFault_Handler                       0x080139c1   Thumb Code     4  stm32f10x_it.o(i.UsageFault_Handler)
    W25Q16_Erase                             0x080139c5   Thumb Code    44  main.o(i.W25Q16_Erase)
    W25Q16_EraseThis                         0x080139f1   Thumb Code    84  main.o(i.W25Q16_EraseThis)
    W25Q16_Read                              0x08013a51   Thumb Code    20  main.o(i.W25Q16_Read)
    W25Q16_StdRead                           0x08013a65   Thumb Code    20  main.o(i.W25Q16_StdRead)
    W25Q16_StdWrite                          0x08013a79   Thumb Code    20  main.o(i.W25Q16_StdWrite)
    __0vsprintf                              0x08013a8d   Thumb Code    30  printfa.o(i.__0vsprintf)
    __1vsprintf                              0x08013a8d   Thumb Code     0  printfa.o(i.__0vsprintf)
    __2vsprintf                              0x08013a8d   Thumb Code     0  printfa.o(i.__0vsprintf)
    __c89vsprintf                            0x08013a8d   Thumb Code     0  printfa.o(i.__0vsprintf)
    vsprintf                                 0x08013a8d   Thumb Code     0  printfa.o(i.__0vsprintf)
    __scatterload_copy                       0x08013ab1   Thumb Code    14  handlers.o(i.__scatterload_copy)
    __scatterload_null                       0x08013abf   Thumb Code     2  handlers.o(i.__scatterload_null)
    __scatterload_zeroinit                   0x08013ac1   Thumb Code    14  handlers.o(i.__scatterload_zeroinit)
    delay_us                                 0x0801437d   Thumb Code    16  i2c_driver.o(i.delay_us)
    main                                     0x0801438d   Thumb Code   258  main.o(i.main)
    Crc16_TableH                             0x080144d8   Data         256  cheakout.o(.constdata)
    Crc16_TableL                             0x080145d8   Data         256  cheakout.o(.constdata)
    IO_LCD_List                              0x080146d8   Data          24  main.o(.constdata)
    Ht1621CodeUpList                         0x080146f0   Data          23  main.o(.constdata)
    Ht1621CodeDownList                       0x08014707   Data          23  main.o(.constdata)
    Ht1621CodeTime                           0x0801471e   Data          10  main.o(.constdata)
    BoolString                               0x08014728   Data          12  main.o(.constdata)
    MenuList                                 0x08014734   Data         444  main.o(.constdata)
    W25Q16_GPIO_List                         0x080148f0   Data          36  main.o(.constdata)
    uni_table                                0x08014914   Data       27072  main.o(.constdata)
    IO_LUX_List                              0x0801b2d4   Data          36  main.o(.constdata)
    TaskList_putong                          0x0801b2f8   Data         176  main.o(.constdata)
    TaskList_adddiaodianbutton               0x0801b3a8   Data         176  main.o(.constdata)
    TaskList_zidongdayin                     0x0801b458   Data         192  main.o(.constdata)
    TaskList_dancidayin                      0x0801b518   Data         176  main.o(.constdata)
    TaskList_yuezongwenshidu                 0x0801b5c8   Data         160  main.o(.constdata)
    TaskList_yuezongguangzhao                0x0801b668   Data         176  main.o(.constdata)
    TaskList_zongfushe                       0x0801b718   Data         160  main.o(.constdata)
    TaskList_kaiguanliang                    0x0801b7b8   Data         176  main.o(.constdata)
    TaskList_liuliang                        0x0801b868   Data         192  main.o(.constdata)
    TaskList_http                            0x0801b928   Data         176  main.o(.constdata)
    IO_ISL1208_List                          0x0801b9d8   Data          36  main.o(.constdata)
    IO_Control_List                          0x0801b9fc   Data          96  main.o(.constdata)
    Region$$Table$$Base                      0x0801beb4   Number         0  anon$$obj.o(Region$$Table)
    Region$$Table$$Limit                     0x0801bed4   Number         0  anon$$obj.o(Region$$Table)
    DeviceId_USART_TX                        0x20000014   Data           5  usart_driver.o(.data)
    DeviceId_USART_RX                        0x20000019   Data           5  usart_driver.o(.data)
    USART_TX_TaskID                          0x2000001e   Data           5  usart_driver.o(.data)
    USART_RX_TaskID                          0x20000023   Data           5  usart_driver.o(.data)
    guiNextTaskSp                            0x20000034   Data           4  tos.o(.data)
    gpuiCurTaskSpAddr                        0x20000038   Data           4  tos.o(.data)
    Tos_CPUInfor                             0x2000003c   Data           8  tos.o(.data)
    Tos_TaskCurrent                          0x20000044   Data           1  tos.o(.data)
    Tos_TaskTcb                              0x20000048   Data           4  tos.o(.data)
    Tos_TaskStackIndex                       0x2000004c   Data           4  tos.o(.data)
    DeviceId_Index                           0x20000050   Data           1  tos_device.o(.data)
    Tos_Device_Tab                           0x20000054   Data           4  tos_device.o(.data)
    RootMema                                 0x20000058   Data           4  tos_mema.o(.data)
    Tos_Timer_P                              0x2000005c   Data           4  tos_timer.o(.data)
    DeBug_EN                                 0x20000060   Data           1  debug.o(.data)
    DeBug_Out                                0x20000061   Data           1  debug.o(.data)
    DeBug_Type                               0x20000062   Data           1  debug.o(.data)
    DeBug_CB                                 0x20000064   Data           4  debug.o(.data)
    TaskArray_Tos_TaskID                     0x20000068   Data           1  func_face.o(.data)
    SEGCharList                              0x2000006c   Data           4  func_face.o(.data)
    DeviceId_IO                              0x20000070   Data           1  main.o(.data)
    DeviceId_SIGNAL                          0x20000071   Data           1  main.o(.data)
    KeyCode_Tos_TaskID                       0x20000072   Data           1  main.o(.data)
    DeviceId_HT1621                          0x20000073   Data           1  main.o(.data)
    Ht1621CharList                           0x20000074   Data           4  main.o(.data)
    DHT11_PIN                                0x20000078   Data           2  main.o(.data)
    DHT11_GROUP                              0x2000007c   Data           4  main.o(.data)
    DS1_PIN                                  0x20000080   Data           2  main.o(.data)
    DS1_GROUP                                0x20000084   Data           4  main.o(.data)
    WaitDownLoadCount                        0x20000088   Data           1  main.o(.data)
    String_Ok                                0x2000008c   Data           4  main.o(.data)
    DeviceId_W25Q16                          0x20000090   Data           1  main.o(.data)
    aaaa                                     0x20000091   Data           1  main.o(.data)
    DeviceId_ISL1208                         0x20000092   Data           1  main.o(.data)
    TaskLora_Tos_TaskID                      0x20000093   Data           1  main.o(.data)
    Jump_To_Application                      0x200000e0   Data           4  main.o(.data)
    JumpAddress                              0x200000e4   Data           4  main.o(.data)
    tem                                      0x200000e8   Data           1  main.o(.data)
    IO_ISL1208_P                             0x200000ec   Data           4  main.o(.data)
    USART_RX_Buffer                          0x200000f0   Data          20  usart_driver.o(.bss)
    USART_TX_Buffer                          0x20000104   Data          20  usart_driver.o(.bss)
    USART_RX_Count                           0x20000118   Data          10  usart_driver.o(.bss)
    USART_RX_Index                           0x20000122   Data          10  usart_driver.o(.bss)
    MemBuf                                   0x2000012c   Data       45000  tos_mema.o(.bss)
    UIShowValue                              0x2000b0f4   Data         264  main.o(.bss)
    LCD_BUF                                  0x2000b1fc   Data          16  main.o(.bss)
    enValue                                  0x2000b20c   Data          24  main.o(.bss)
    TempFloatA                               0x2000b224   Data          12  main.o(.bss)
    LiuliangBuf                              0x2000b230   Data         100  main.o(.bss)
    __initial_sp                             0x2000b698   Data           0  startup_stm32f10x_hd.o(STACK)



==============================================================================

Memory Map of the image

  Image Entry point : 0x08005131

  Load Region LR_IROM1 (Base: 0x08005000, Size: 0x00016fc4, Max: 0x00040000, ABSOLUTE)

    Execution Region ER_IROM1 (Base: 0x08005000, Size: 0x00016ed4, Max: 0x00040000, ABSOLUTE)

    Base Addr    Size         Type   Attr      Idx    E Section Name        Object

    0x08005000   0x00000130   Data   RO         3219    RESET               startup_stm32f10x_hd.o
    0x08005130   0x00000000   Code   RO         6839  * .ARM.Collect$$$$00000000  mc_w.l(entry.o)
    0x08005130   0x00000004   Code   RO         6926    .ARM.Collect$$$$00000001  mc_w.l(entry2.o)
    0x08005134   0x00000004   Code   RO         6929    .ARM.Collect$$$$00000004  mc_w.l(entry5.o)
    0x08005138   0x00000000   Code   RO         6931    .ARM.Collect$$$$00000008  mc_w.l(entry7b.o)
    0x08005138   0x00000000   Code   RO         6933    .ARM.Collect$$$$0000000A  mc_w.l(entry8b.o)
    0x08005138   0x00000008   Code   RO         6934    .ARM.Collect$$$$0000000B  mc_w.l(entry9a.o)
    0x08005140   0x00000000   Code   RO         6936    .ARM.Collect$$$$0000000D  mc_w.l(entry10a.o)
    0x08005140   0x00000000   Code   RO         6938    .ARM.Collect$$$$0000000F  mc_w.l(entry11a.o)
    0x08005140   0x00000004   Code   RO         6927    .ARM.Collect$$$$00002712  mc_w.l(entry2.o)
    0x08005144   0x00000024   Code   RO         3220    .text               startup_stm32f10x_hd.o
    0x08005168   0x00000024   Code   RO         6842    .text               mc_w.l(strstr.o)
    0x0800518c   0x000000b0   Code   RO         6872    .text               mf_w.l(fadd.o)
    0x0800523c   0x0000006c   Code   RO         6874    .text               mf_w.l(fmul.o)
    0x080052a8   0x00000080   Code   RO         6876    .text               mf_w.l(fdiv.o)
    0x08005328   0x0000014e   Code   RO         6878    .text               mf_w.l(dadd.o)
    0x08005476   0x000000e4   Code   RO         6880    .text               mf_w.l(dmul.o)
    0x0800555a   0x000000de   Code   RO         6882    .text               mf_w.l(ddiv.o)
    0x08005638   0x00000012   Code   RO         6884    .text               mf_w.l(fflti.o)
    0x0800564a   0x0000000a   Code   RO         6886    .text               mf_w.l(ffltui.o)
    0x08005654   0x00000022   Code   RO         6888    .text               mf_w.l(dflti.o)
    0x08005676   0x0000001a   Code   RO         6890    .text               mf_w.l(dfltui.o)
    0x08005690   0x00000032   Code   RO         6892    .text               mf_w.l(ffixi.o)
    0x080056c2   0x00000028   Code   RO         6894    .text               mf_w.l(ffixui.o)
    0x080056ea   0x0000003e   Code   RO         6896    .text               mf_w.l(dfixi.o)
    0x08005728   0x00000032   Code   RO         6898    .text               mf_w.l(dfixui.o)
    0x0800575a   0x00000026   Code   RO         6900    .text               mf_w.l(f2d.o)
    0x08005780   0x00000028   Code   RO         6902    .text               mf_w.l(cdcmple.o)
    0x080057a8   0x00000028   Code   RO         6904    .text               mf_w.l(cdrcmple.o)
    0x080057d0   0x00000038   Code   RO         6906    .text               mf_w.l(d2f.o)
    0x08005808   0x00000014   Code   RO         6908    .text               mf_w.l(cfcmple.o)
    0x0800581c   0x00000014   Code   RO         6910    .text               mf_w.l(cfrcmple.o)
    0x08005830   0x0000002c   Code   RO         6943    .text               mc_w.l(uidiv.o)
    0x0800585c   0x00000062   Code   RO         6945    .text               mc_w.l(uldiv.o)
    0x080058be   0x0000001e   Code   RO         6947    .text               mc_w.l(llshl.o)
    0x080058dc   0x00000020   Code   RO         6949    .text               mc_w.l(llushr.o)
    0x080058fc   0x00000024   Code   RO         6951    .text               mc_w.l(llsshr.o)
    0x08005920   0x00000000   Code   RO         6960    .text               mc_w.l(iusefp.o)
    0x08005920   0x0000006c   Code   RO         6961    .text               mf_w.l(fepilogue.o)
    0x0800598c   0x000000be   Code   RO         6963    .text               mf_w.l(depilogue.o)
    0x08005a4a   0x00000030   Code   RO         6967    .text               mf_w.l(dfixul.o)
    0x08005a7a   0x00000002   PAD
    0x08005a7c   0x00000024   Code   RO         6975    .text               mc_w.l(init.o)
    0x08005aa0   0x00000050   Code   RO         4238    TOS_CORE_A          tos_core_a.o
    0x08005af0   0x00000030   Code   RO         5029    i.ADC1_GPIO_Config  main.o
    0x08005b20   0x00000010   Code   RO         5030    i.ADC1_Init         main.o
    0x08005b30   0x000000dc   Code   RO         5031    i.ADC1_Mode_Config  main.o
    0x08005c0c   0x00000016   Code   RO           80    i.ADC_Cmd           stm32f10x_adc.o
    0x08005c22   0x00000016   Code   RO           81    i.ADC_DMACmd        stm32f10x_adc.o
    0x08005c38   0x00000014   Code   RO           88    i.ADC_GetCalibrationStatus  stm32f10x_adc.o
    0x08005c4c   0x00000014   Code   RO           94    i.ADC_GetResetCalibrationStatus  stm32f10x_adc.o
    0x08005c60   0x00000050   Code   RO           98    i.ADC_Init          stm32f10x_adc.o
    0x08005cb0   0x000000b8   Code   RO          102    i.ADC_RegularChannelConfig  stm32f10x_adc.o
    0x08005d68   0x0000000a   Code   RO          103    i.ADC_ResetCalibration  stm32f10x_adc.o
    0x08005d72   0x00000016   Code   RO          105    i.ADC_SoftwareStartConvCmd  stm32f10x_adc.o
    0x08005d88   0x0000000a   Code   RO          107    i.ADC_StartCalibration  stm32f10x_adc.o
    0x08005d92   0x00000002   PAD
    0x08005d94   0x00000014   Code   RO         5032    i.AS_Read_Value     main.o
    0x08005da8   0x0000001c   Code   RO         4341    i.Abs               text.o
    0x08005dc4   0x0000003c   Code   RO         5034    i.BEEP_Double       main.o
    0x08005e00   0x0000003c   Code   RO         5035    i.BOOL_LoadConfigs  main.o
    0x08005e3c   0x0000002e   Code   RO         5036    i.B_LUX_GetLux      main.o
    0x08005e6a   0x0000001c   Code   RO         5037    i.B_LUX_Init        main.o
    0x08005e86   0x0000001a   Code   RO         3552    i.BareDelay         stm32_cpu.o
    0x08005ea0   0x00000010   Code   RO         4343    i.Bcd_Decimal       text.o
    0x08005eb0   0x00000048   Code   RO         5038    i.BinarySearch      main.o
    0x08005ef8   0x00000022   Code   RO         4344    i.BufferCoppy       text.o
    0x08005f1a   0x00000016   Code   RO         4345    i.BufferFill        text.o
    0x08005f30   0x00000004   Code   RO         3076    i.BusFault_Handler  stm32f10x_it.o
    0x08005f34   0x00000110   Code   RO         5039    i.COM_Menu_Enter    main.o
    0x08006044   0x00000034   Code   RO         5040    i.COM_Menu_Load     main.o
    0x08006078   0x00000030   Code   RO         5041    i.CheckCallNumber   main.o
    0x080060a8   0x0000005c   Code   RO         5043    i.CheckLiuliangBuf  main.o
    0x08006104   0x00000014   Code   RO         4348    i.ClearWithBuffer   text.o
    0x08006118   0x0000003c   Code   RO         4350    i.CompareWithString  text.o
    0x08006154   0x00000064   Code   RO         5044    i.DHT11_Check       main.o
    0x080061b8   0x00000020   Code   RO         5045    i.DHT11_DelayMs     main.o
    0x080061d8   0x0000001e   Code   RO         5046    i.DHT11_DelayUs     main.o
    0x080061f6   0x00000002   PAD
    0x080061f8   0x00000084   Code   RO         5047    i.DHT11_GetFloat    main.o
    0x0800627c   0x0000002c   Code   RO         5048    i.DHT11_PortIN      main.o
    0x080062a8   0x0000002c   Code   RO         5049    i.DHT11_PortOUT     main.o
    0x080062d4   0x00000070   Code   RO         5050    i.DHT11_Read        main.o
    0x08006344   0x00000068   Code   RO         5051    i.DHT11_Read_Bit    main.o
    0x080063ac   0x0000001e   Code   RO         5052    i.DHT11_Read_Byte   main.o
    0x080063ca   0x00000002   PAD
    0x080063cc   0x00000034   Code   RO         5053    i.DHT11_Rst         main.o
    0x08006400   0x00000018   Code   RO          786    i.DMA_Cmd           stm32f10x_dma.o
    0x08006418   0x0000014c   Code   RO          787    i.DMA_DeInit        stm32f10x_dma.o
    0x08006564   0x0000003c   Code   RO          792    i.DMA_Init          stm32f10x_dma.o
    0x080065a0   0x00000048   Code   RO         5054    i.DS18B20_Init      main.o
    0x080065e8   0x00000064   Code   RO         5055    i.DS_Check          main.o
    0x0800664c   0x0000001e   Code   RO         5057    i.DS_DelayUs        main.o
    0x0800666a   0x00000002   PAD
    0x0800666c   0x00000100   Code   RO         5058    i.DS_Get_Temp       main.o
    0x0800676c   0x0000002c   Code   RO         5059    i.DS_PortIN         main.o
    0x08006798   0x0000002c   Code   RO         5060    i.DS_PortOUT        main.o
    0x080067c4   0x00000054   Code   RO         5061    i.DS_Read_Bit       main.o
    0x08006818   0x00000022   Code   RO         5062    i.DS_Read_Byte      main.o
    0x0800683a   0x00000002   PAD
    0x0800683c   0x00000100   Code   RO         5063    i.DS_Read_Value     main.o
    0x0800693c   0x00000038   Code   RO         5064    i.DS_Rst            main.o
    0x08006974   0x00000014   Code   RO         5065    i.DS_SetPort        main.o
    0x08006988   0x00000018   Code   RO         5066    i.DS_Start          main.o
    0x080069a0   0x00000070   Code   RO         5067    i.DS_Write_Byte     main.o
    0x08006a10   0x00000014   Code   RO         5068    i.DTH11_SetPort     main.o
    0x08006a24   0x0000018c   Code   RO         4241    i.DeBug             debug.o
    0x08006bb0   0x0000000c   Code   RO         4242    i.DeBug_Drop        debug.o
    0x08006bbc   0x00000014   Code   RO         4243    i.DeBug_Get         debug.o
    0x08006bd0   0x0000000c   Code   RO         4244    i.DeBug_OutSet      debug.o
    0x08006bdc   0x0000000c   Code   RO         4246    i.DeBug_SetType     debug.o
    0x08006be8   0x00000002   Code   RO         3077    i.DebugMon_Handler  stm32f10x_it.o
    0x08006bea   0x00000014   Code   RO         4357    i.Decimal_Bcd       text.o
    0x08006bfe   0x00000002   PAD
    0x08006c00   0x00000080   Code   RO         4073    i.DeviceList_Init   tos_device.o
    0x08006c80   0x000000e8   Code   RO         4074    i.DeviceList_Printf  tos_device.o
    0x08006d68   0x000000cc   Code   RO         5069    i.DeviceMount_HT1621  main.o
    0x08006e34   0x000000c8   Code   RO         5070    i.DeviceMount_IO    main.o
    0x08006efc   0x000000cc   Code   RO         5071    i.DeviceMount_ISL1208  main.o
    0x08006fc8   0x000001c8   Code   RO         3378    i.DeviceMount_Uart  usart_driver.o
    0x08007190   0x00000012   Code   RO         3379    i.DeviceMount_Usart  usart_driver.o
    0x080071a2   0x00000002   PAD
    0x080071a4   0x000000c4   Code   RO         5072    i.DeviceMount_W25Q16  main.o
    0x08007268   0x000000b8   Code   RO         4077    i.Device_Init       tos_device.o
    0x08007320   0x00000024   Code   RO         4078    i.Device_Ok         tos_device.o
    0x08007344   0x000002e4   Code   RO         5073    i.DownLoad_BootLoader  main.o
    0x08007628   0x00000012   Code   RO         5075    i.EXTI1_IRQHandler  main.o
    0x0800763a   0x00000002   PAD
    0x0800763c   0x0000000c   Code   RO          860    i.EXTI_ClearITPendingBit  stm32f10x_exti.o
    0x08007648   0x00000094   Code   RO          865    i.EXTI_Init         stm32f10x_exti.o
    0x080076dc   0x00000064   Code   RO         5076    i.Exit_Init         main.o
    0x08007740   0x0000004c   Code   RO          921    i.FLASH_ErasePage   stm32f10x_flash.o
    0x0800778c   0x00000034   Code   RO          922    i.FLASH_GetBank1Status  stm32f10x_flash.o
    0x080077c0   0x00000014   Code   RO          931    i.FLASH_Lock        stm32f10x_flash.o
    0x080077d4   0x0000003a   Code   RO         5077    i.FLASH_ProgramBootStart  main.o
    0x0800780e   0x00000008   Code   RO         5078    i.FLASH_ProgramDone  main.o
    0x08007816   0x00000002   PAD
    0x08007818   0x00000040   Code   RO          934    i.FLASH_ProgramHalfWord  stm32f10x_flash.o
    0x08007858   0x00000018   Code   RO          939    i.FLASH_Unlock      stm32f10x_flash.o
    0x08007870   0x00000026   Code   RO          943    i.FLASH_WaitForLastOperation  stm32f10x_flash.o
    0x08007896   0x00000038   Code   RO         5080    i.FLASH_WriteBank   main.o
    0x080078ce   0x000000a2   Code   RO         4361    i.FindFloatFromString  text.o
    0x08007970   0x000000a2   Code   RO         4362    i.FindHexFromString  text.o
    0x08007a12   0x0000008a   Code   RO         4364    i.FindNumFromString  text.o
    0x08007a9c   0x00000072   Code   RO         5081    i.FindStringFromString  main.o
    0x08007b0e   0x0000001c   Code   RO         4891    i.Flash_ReadData    appconfig.o
    0x08007b2a   0x00000076   Code   RO         4892    i.Flash_WriteData   appconfig.o
    0x08007ba0   0x00000008   Code   RO         4366    i.Float32FromByte   text.o
    0x08007ba8   0x0000002e   Code   RO         4367    i.Float32ToByte     text.o
    0x08007bd6   0x0000003a   Code   RO         4368    i.FlowPoolFilter    text.o
    0x08007c10   0x0000001e   Code   RO         4369    i.FmtToBuf          text.o
    0x08007c2e   0x0000003e   Code   RO         5084    i.GBKToString       main.o
    0x08007c6c   0x00000020   Code   RO         5085    i.GBKToUniCode      main.o
    0x08007c8c   0x0000002c   Code   RO         5086    i.GBKToUnicode      main.o
    0x08007cb8   0x000000c8   Code   RO         1217    i.GPIO_DeInit       stm32f10x_gpio.o
    0x08007d80   0x00000040   Code   RO         1219    i.GPIO_EXTILineConfig  stm32f10x_gpio.o
    0x08007dc0   0x00000112   Code   RO         1222    i.GPIO_Init         stm32f10x_gpio.o
    0x08007ed2   0x00000002   PAD
    0x08007ed4   0x00000088   Code   RO         3554    i.GPIO_InitList     stm32_cpu.o
    0x08007f5c   0x00000012   Code   RO         1226    i.GPIO_ReadInputDataBit  stm32f10x_gpio.o
    0x08007f6e   0x00000004   Code   RO         1229    i.GPIO_ResetBits    stm32f10x_gpio.o
    0x08007f72   0x00000004   Code   RO         1230    i.GPIO_SetBits      stm32f10x_gpio.o
    0x08007f76   0x00000002   PAD
    0x08007f78   0x00000048   Code   RO         5087    i.GPIO_Set_PWR      main.o
    0x08007fc0   0x00000030   Code   RO         5088    i.GPIO_Set_ShowOnly  main.o
    0x08007ff0   0x0000006c   Code   RO         5089    i.GPRS_Ack          main.o
    0x0800805c   0x0000007c   Code   RO         5090    i.GPRS_AckDelay     main.o
    0x080080d8   0x00000084   Code   RO         5091    i.GPRS_AckTwo       main.o
    0x0800815c   0x00000058   Code   RO         4371    i.GPRS_CheckIpTrue  text.o
    0x080081b4   0x00000094   Code   RO         5092    i.GPRS_CloseNet     main.o
    0x08008248   0x0000002c   Code   RO         5093    i.GPRS_CommandAck   main.o
    0x08008274   0x000000a0   Code   RO         5094    i.GPRS_CommandAckCount  main.o
    0x08008314   0x000000f4   Code   RO         5095    i.GPRS_Connect      main.o
    0x08008408   0x00000080   Code   RO         5097    i.GPRS_Printf       main.o
    0x08008488   0x00000048   Code   RO         5098    i.GPRS_PrintfString  main.o
    0x080084d0   0x0000002e   Code   RO         5100    i.GPRS_WhileAck     main.o
    0x080084fe   0x00000080   Code   RO         4247    i.GetChar_List      debug.o
    0x0800857e   0x00000002   PAD
    0x08008580   0x00000080   Code   RO         5101    i.GetCodeStr16      main.o
    0x08008600   0x00000064   Code   RO         5102    i.GetCodeStr18      main.o
    0x08008664   0x00000070   Code   RO         3555    i.GetCodeStr64      stm32_cpu.o
    0x080086d4   0x000000e4   Code   RO         4375    i.GetHexFromString  text.o
    0x080087b8   0x00000024   Code   RO         4376    i.GetStringByFmt    text.o
    0x080087dc   0x000000c4   Code   RO         4379    i.GetStringToNumber  text.o
    0x080088a0   0x00000018   Code   RO         4380    i.GetTextLength     text.o
    0x080088b8   0x0000002c   Code   RO         3558    i.GetTosTask_Count  stm32_cpu.o
    0x080088e4   0x0000002c   Code   RO         5103    i.GetUnicodeString  main.o
    0x08008910   0x00000026   Code   RO         4382    i.GetWordFromBytes  text.o
    0x08008936   0x00000002   PAD
    0x08008938   0x000000e0   Code   RO         5104    i.Get_Mon           main.o
    0x08008a18   0x00000054   Code   RO         5105    i.Get_PragmDateTime  main.o
    0x08008a6c   0x00000058   Code   RO         5106    i.Get_PrintfRecordCount  main.o
    0x08008ac4   0x00000048   Code   RO         5107    i.HT1621_Init       main.o
    0x08008b0c   0x00000038   Code   RO         5108    i.HandKey_GetValue  main.o
    0x08008b44   0x00000008   Code   RO         3078    i.HardFault_Handler  stm32f10x_it.o
    0x08008b4c   0x0000003c   Code   RO         5109    i.Ht1621Wr_Cmd      main.o
    0x08008b88   0x00000060   Code   RO         5110    i.Ht1621Wr_Data     main.o
    0x08008be8   0x00000014   Code   RO         5111    i.Ht1621_Delay      main.o
    0x08008bfc   0x00000038   Code   RO         5112    i.Ht1621_DrawBase   main.o
    0x08008c34   0x00000418   Code   RO         5113    i.Ht1621_DrawHome   main.o
    0x0800904c   0x000003ac   Code   RO         5114    i.Ht1621_DrawIO     main.o
    0x080093f8   0x00000488   Code   RO         5115    i.Ht1621_DrawLUX    main.o
    0x08009880   0x00000098   Code   RO         5116    i.Ht1621_DrawMenu   main.o
    0x08009918   0x000003b4   Code   RO         5117    i.Ht1621_DrawSongbo  main.o
    0x08009ccc   0x000000c8   Code   RO         5118    i.Ht1621_DrawTime   main.o
    0x08009d94   0x000001dc   Code   RO         5119    i.Ht1621_DrawUpDown  main.o
    0x08009f70   0x00000488   Code   RO         5121    i.Ht1621_DrawZFS    main.o
    0x0800a3f8   0x0000001c   Code   RO         5122    i.Ht1621_GetCode    main.o
    0x0800a414   0x00000058   Code   RO         5123    i.Ht1621_SHowDownStr  main.o
    0x0800a46c   0x00000058   Code   RO         5124    i.Ht1621_SHowDownStr1  main.o
    0x0800a4c4   0x000000b0   Code   RO         5125    i.Ht1621_SHowDownString  main.o
    0x0800a574   0x000000b4   Code   RO         5127    i.Ht1621_SHowUpString  main.o
    0x0800a628   0x0000002c   Code   RO         5128    i.Ht1621_ShowASCII  main.o
    0x0800a654   0x00000044   Code   RO         5129    i.Ht1621_WriteReg   main.o
    0x0800a698   0x0000000e   Code   RO         3315    i.I2C_Drop          i2c_driver.o
    0x0800a6a6   0x0000007c   Code   RO         3316    i.I2C_ReadDatas     i2c_driver.o
    0x0800a722   0x00000070   Code   RO         3317    i.I2C_RecvBytes     i2c_driver.o
    0x0800a792   0x0000002c   Code   RO         3318    i.I2C_SendAck       i2c_driver.o
    0x0800a7be   0x0000008a   Code   RO         3319    i.I2C_SendBytes     i2c_driver.o
    0x0800a848   0x0000002e   Code   RO         3320    i.I2C_Start         i2c_driver.o
    0x0800a876   0x00000024   Code   RO         3321    i.I2C_Stop          i2c_driver.o
    0x0800a89a   0x0000005c   Code   RO         3322    i.I2C_WriteDatas    i2c_driver.o
    0x0800a8f6   0x0000000c   Code   RO         3561    i.IAP_ErasePage     stm32_cpu.o
    0x0800a902   0x00000008   Code   RO         3562    i.IAP_Lock          stm32_cpu.o
    0x0800a90a   0x00000018   Code   RO         5131    i.IAP_PagesMask     main.o
    0x0800a922   0x00000010   Code   RO         3563    i.IAP_ProgramHalfWord  stm32_cpu.o
    0x0800a932   0x00000008   Code   RO         3564    i.IAP_Unlock        stm32_cpu.o
    0x0800a93a   0x0000000e   Code   RO         5133    i.IIC_DelayUs       main.o
    0x0800a948   0x00000024   Code   RO         5135    i.IIC_Pin_In        main.o
    0x0800a96c   0x00000024   Code   RO         5136    i.IIC_Pin_Out       main.o
    0x0800a990   0x0000004c   Code   RO         5137    i.IIC_ReadAck       main.o
    0x0800a9dc   0x000000a0   Code   RO         5139    i.IIC_Reads         main.o
    0x0800aa7c   0x00000060   Code   RO         5140    i.IIC_RecvByte      main.o
    0x0800aadc   0x00000040   Code   RO         5142    i.IIC_SendAck       main.o
    0x0800ab1c   0x00000058   Code   RO         5143    i.IIC_SendByte      main.o
    0x0800ab74   0x00000038   Code   RO         5145    i.IIC_Start         main.o
    0x0800abac   0x00000038   Code   RO         5146    i.IIC_Stop          main.o
    0x0800abe4   0x00000024   Code   RO         5147    i.IIC_WriteCmd      main.o
    0x0800ac08   0x00000068   Code   RO         5149    i.IO_Read_Value     main.o
    0x0800ac70   0x00000048   Code   RO         5150    i.ISL1208_GPIO_Init  main.o
    0x0800acb8   0x00000030   Code   RO         5151    i.ISL1208_GetATR    main.o
    0x0800ace8   0x00000074   Code   RO         5152    i.ISL1208_GetDateTime  main.o
    0x0800ad5c   0x0000007c   Code   RO         5153    i.ISL1208_IOCONTROL  main.o
    0x0800add8   0x000000c0   Code   RO         5154    i.ISL1208_Init      main.o
    0x0800ae98   0x00000020   Code   RO         5155    i.ISL1208_ReadReg   main.o
    0x0800aeb8   0x0000009e   Code   RO         5156    i.ISL1208_SetAlarm  main.o
    0x0800af56   0x00000060   Code   RO         5157    i.ISL1208_SetDateTime  main.o
    0x0800afb6   0x00000002   PAD
    0x0800afb8   0x00000020   Code   RO         5158    i.ISL1208_WriteReg  main.o
    0x0800afd8   0x0000001c   Code   RO         4893    i.Load_AppConfig    appconfig.o
    0x0800aff4   0x00000066   Code   RO         4894    i.Load_VoidConfig   appconfig.o
    0x0800b05a   0x00000002   PAD
    0x0800b05c   0x00000028   Code   RO         3567    i.MCU_Reset         stm32_cpu.o
    0x0800b084   0x00000044   Code   RO         5160    i.MSG_Delete        main.o
    0x0800b0c8   0x00000022   Code   RO         5161    i.MUI_GetKey        main.o
    0x0800b0ea   0x00000002   PAD
    0x0800b0ec   0x000001a4   Code   RO         5162    i.MUI_GetOptionString  main.o
    0x0800b290   0x00000004   Code   RO         3079    i.MemManage_Handler  stm32f10x_it.o
    0x0800b294   0x0000001c   Code   RO         4147    i.Mema_Count        tos_mema.o
    0x0800b2b0   0x00000030   Code   RO         4149    i.Mema_Free         tos_mema.o
    0x0800b2e0   0x0000000c   Code   RO         4150    i.Mema_GetSize      tos_mema.o
    0x0800b2ec   0x0000001c   Code   RO         4151    i.Mema_Init         tos_mema.o
    0x0800b308   0x0000004c   Code   RO         4152    i.Mema_Malloc       tos_mema.o
    0x0800b354   0x00000016   Code   RO         5163    i.Menu_OptionLength  main.o
    0x0800b36a   0x00000016   Code   RO         4293    i.ModBus_Create     modbus.o
    0x0800b380   0x00000118   Code   RO         4294    i.ModBus_CreateMsg  modbus.o
    0x0800b498   0x0000016c   Code   RO         4295    i.ModBus_Expend     modbus.o
    0x0800b604   0x00000002   Code   RO         3080    i.NMI_Handler       stm32f10x_it.o
    0x0800b606   0x00000002   PAD
    0x0800b608   0x00000074   Code   RO            1    i.NVIC_Init         misc.o
    0x0800b67c   0x00000014   Code   RO            2    i.NVIC_PriorityGroupConfig  misc.o
    0x0800b690   0x00000014   Code   RO            3    i.NVIC_SetVectorTable  misc.o
    0x0800b6a4   0x0000005c   Code   RO         5165    i.PDU_GetCenterNumber  main.o
    0x0800b700   0x0000000c   Code   RO         1582    i.PWR_BackupAccessCmd  stm32f10x_pwr.o
    0x0800b70c   0x00000034   Code   RO         1585    i.PWR_EnterSTANDBYMode  stm32f10x_pwr.o
    0x0800b740   0x00000040   Code   RO         1586    i.PWR_EnterSTOPMode  stm32f10x_pwr.o
    0x0800b780   0x0000000c   Code   RO         1590    i.PWR_WakeUpPinCmd  stm32f10x_pwr.o
    0x0800b78c   0x00000002   Code   RO         3081    i.PendSV_Handler    stm32f10x_it.o
    0x0800b78e   0x00000002   PAD
    0x0800b790   0x00000094   Code   RO         3568    i.Printf_BoardInfor  stm32_cpu.o
    0x0800b824   0x00000002   Code   RO         3571    i.Printf_LcdType    stm32_cpu.o
    0x0800b826   0x00000002   PAD
    0x0800b828   0x00000024   Code   RO         3572    i.Printf_LockCode   stm32_cpu.o
    0x0800b84c   0x00000002   Code   RO         3573    i.Printf_NandInfor  stm32_cpu.o
    0x0800b84e   0x00000002   PAD
    0x0800b850   0x00000044   Code   RO         3574    i.Printf_SysInfor   stm32_cpu.o
    0x0800b894   0x00000040   Code   RO         3575    i.Printf_TaskInfor  stm32_cpu.o
    0x0800b8d4   0x00000094   Code   RO         3576    i.Printf_TosInfor   stm32_cpu.o
    0x0800b968   0x00000044   Code   RO         5167    i.QuectelM26Printf_Bytes  main.o
    0x0800b9ac   0x0000004c   Code   RO         5168    i.QuectelM26_Config  main.o
    0x0800b9f8   0x00000058   Code   RO         5169    i.QuectelM26_Connect  main.o
    0x0800ba50   0x00000144   Code   RO         5170    i.QuectelM26_ConnectNet  main.o
    0x0800bb94   0x00000034   Code   RO         5172    i.QuectelM26_GetCSQ  main.o
    0x0800bbc8   0x000000b4   Code   RO         5173    i.QuectelM26_GetNumString  main.o
    0x0800bc7c   0x000000a4   Code   RO         5174    i.QuectelM26_GetValue  main.o
    0x0800bd20   0x000001d8   Code   RO         5176    i.QuectelM26_Init   main.o
    0x0800bef8   0x00000114   Code   RO         5177    i.QuectelM26_InitSMS  main.o
    0x0800c00c   0x0000005c   Code   RO         5178    i.QuectelM26_ReadShow  main.o
    0x0800c068   0x0000014c   Code   RO         5179    i.QuectelM26_SendCFG  main.o
    0x0800c1b4   0x0000029c   Code   RO         5180    i.QuectelM26_SendData  main.o
    0x0800c450   0x00000298   Code   RO         5181    i.QuectelM26_SendHR  main.o
    0x0800c6e8   0x000002e4   Code   RO         5182    i.QuectelM26_SendHR1  main.o
    0x0800c9cc   0x000002ac   Code   RO         5183    i.QuectelM26_SendHRKGL  main.o
    0x0800cc78   0x00000268   Code   RO         5185    i.QuectelM26_SendHTTP  main.o
    0x0800cee0   0x00000140   Code   RO         5187    i.QuectelM26_SendHeartbeat  main.o
    0x0800d020   0x000003c0   Code   RO         5188    i.QuectelM26_SendLL  main.o
    0x0800d3e0   0x000000d0   Code   RO         5191    i.QuectelM26_SendTextMsg  main.o
    0x0800d4b0   0x0000024c   Code   RO         5192    i.QuectelM26_ShowSMS  main.o
    0x0800d6fc   0x00000018   Code   RO         1645    i.RCC_ADCCLKConfig  stm32f10x_rcc.o
    0x0800d714   0x00000020   Code   RO         1646    i.RCC_AHBPeriphClockCmd  stm32f10x_rcc.o
    0x0800d734   0x00000020   Code   RO         1647    i.RCC_APB1PeriphClockCmd  stm32f10x_rcc.o
    0x0800d754   0x00000020   Code   RO         1649    i.RCC_APB2PeriphClockCmd  stm32f10x_rcc.o
    0x0800d774   0x00000020   Code   RO         1650    i.RCC_APB2PeriphResetCmd  stm32f10x_rcc.o
    0x0800d794   0x000000d4   Code   RO         1657    i.RCC_GetClocksFreq  stm32f10x_rcc.o
    0x0800d868   0x00000060   Code   RO         5194    i.RegServer_Connect  main.o
    0x0800d8c8   0x000000a0   Code   RO         5195    i.Reg_SendHead      main.o
    0x0800d968   0x00000388   Code   RO         5196    i.Reg_SendInfor     main.o
    0x0800dcf0   0x000003f0   Code   RO         5197    i.Regdit_SendInfor  main.o
    0x0800e0e0   0x00000018   Code   RO         2132    i.SPI_Cmd           stm32f10x_spi.o
    0x0800e0f8   0x00000050   Code   RO         5198    i.SPI_FLASH_BufferRead  main.o
    0x0800e148   0x00000122   Code   RO         5199    i.SPI_FLASH_BufferWrite  main.o
    0x0800e26a   0x00000002   PAD
    0x0800e26c   0x000000b8   Code   RO         5201    i.SPI_FLASH_Init    main.o
    0x0800e324   0x00000060   Code   RO         5202    i.SPI_FLASH_PageWrite  main.o
    0x0800e384   0x00000044   Code   RO         5206    i.SPI_FLASH_SectorErase  main.o
    0x0800e3c8   0x00000038   Code   RO         5207    i.SPI_FLASH_SendByte  main.o
    0x0800e400   0x00000030   Code   RO         5210    i.SPI_FLASH_WaitForWriteEnd  main.o
    0x0800e430   0x00000020   Code   RO         5211    i.SPI_FLASH_WriteEnable  main.o
    0x0800e450   0x00000012   Code   RO         2140    i.SPI_I2S_GetFlagStatus  stm32f10x_spi.o
    0x0800e462   0x00000006   Code   RO         2143    i.SPI_I2S_ReceiveData  stm32f10x_spi.o
    0x0800e468   0x00000004   Code   RO         2144    i.SPI_I2S_SendData  stm32f10x_spi.o
    0x0800e46c   0x0000003c   Code   RO         2145    i.SPI_Init          stm32f10x_spi.o
    0x0800e4a8   0x00000002   Code   RO         3082    i.SVC_Handler       stm32f10x_it.o
    0x0800e4aa   0x00000002   PAD
    0x0800e4ac   0x0000001c   Code   RO         4895    i.Save_AppConfig    appconfig.o
    0x0800e4c8   0x00000024   Code   RO         5214    i.Save_EnvConfig    main.o
    0x0800e4ec   0x0000002c   Code   RO         4896    i.Save_VoidConfig   appconfig.o
    0x0800e518   0x00000500   Code   RO         5215    i.Sensor_Command    main.o
    0x0800ea18   0x00000060   Code   RO         5216    i.Sensor_Init       main.o
    0x0800ea78   0x0000001e   Code   RO         5217    i.SerachChear       main.o
    0x0800ea96   0x00000008   Code   RO         3175    i.SetSysClock       system_stm32f10x.o
    0x0800ea9e   0x00000002   PAD
    0x0800eaa0   0x000000dc   Code   RO         3176    i.SetSysClockTo72   system_stm32f10x.o
    0x0800eb7c   0x0000006c   Code   RO         3578    i.Standby_Init      stm32_cpu.o
    0x0800ebe8   0x000000cc   Code   RO         5218    i.StrToGBK          main.o
    0x0800ecb4   0x00000024   Code   RO         4394    i.StringCoppy       text.o
    0x0800ecd8   0x00000042   Code   RO         4395    i.StringEndingAppend  text.o
    0x0800ed1a   0x00000030   Code   RO         4403    i.Strstr            text.o
    0x0800ed4a   0x00000008   Code   RO         3083    i.SysTick_Handler   stm32f10x_it.o
    0x0800ed52   0x00000002   PAD
    0x0800ed54   0x00000058   Code   RO         3579    i.SysTick_Set       stm32_cpu.o
    0x0800edac   0x00000016   Code   RO         3580    i.Sys_Enter_Standby  stm32_cpu.o
    0x0800edc2   0x0000002a   Code   RO         3581    i.Sys_Standby       stm32_cpu.o
    0x0800edec   0x00000060   Code   RO         3178    i.SystemInit        system_stm32f10x.o
    0x0800ee4c   0x00000014   Code   RO         5219    i.System_Reset      main.o
    0x0800ee60   0x0000000e   Code   RO         5220    i.System_ResetDelay  main.o
    0x0800ee6e   0x00000002   PAD
    0x0800ee70   0x00000018   Code   RO         5221    i.System_SaveConfig  main.o
    0x0800ee88   0x00000260   Code   RO         5222    i.TCP_JGetConfig    main.o
    0x0800f0e8   0x000000c0   Code   RO         5223    i.TCP_JGetString    main.o
    0x0800f1a8   0x000000b0   Code   RO         5224    i.TCP_JGetStringDelete  main.o
    0x0800f258   0x00000030   Code   RO         4405    i.TFT_RGB           text.o
    0x0800f288   0x00000114   Code   RO         5225    i.TOS_Sleep         main.o
    0x0800f39c   0x00000114   Code   RO         5226    i.Task0             main.o
    0x0800f4b0   0x0000007c   Code   RO         5227    i.Task0_Init        main.o
    0x0800f52c   0x00000084   Code   RO         5228    i.TaskBigShow       main.o
    0x0800f5b0   0x00000244   Code   RO         5229    i.TaskFunc          main.o
    0x0800f7f4   0x00000224   Code   RO         5230    i.TaskFunc1         main.o
    0x0800fa18   0x0000010c   Code   RO         5231    i.TaskPlan          main.o
    0x0800fb24   0x0000010c   Code   RO         5232    i.TaskPlan1         main.o
    0x0800fc30   0x0000011c   Code   RO         5233    i.TaskPlan2         main.o
    0x0800fd4c   0x000000d0   Code   RO         5234    i.TaskPlan3         main.o
    0x0800fe1c   0x000000a4   Code   RO         4945    i.Task_Arrary       func_face.o
    0x0800fec0   0x00000064   Code   RO         5235    i.Task_AutoPrintf   main.o
    0x0800ff24   0x000000ac   Code   RO         5236    i.Task_AutoReg      main.o
    0x0800ffd0   0x00000014   Code   RO         5237    i.Task_AutoReset    main.o
    0x0800ffe4   0x00000044   Code   RO         5240    i.Task_CleanHistory  main.o
    0x08010028   0x000000c8   Code   RO         5241    i.Task_Face         main.o
    0x080100f0   0x0000018c   Code   RO         5243    i.Task_Gps          main.o
    0x0801027c   0x00000120   Code   RO         5244    i.Task_HistoryRecord  main.o
    0x0801039c   0x00000024   Code   RO         4946    i.Task_Join         func_face.o
    0x080103c0   0x000000a4   Code   RO         5246    i.Task_KeyBoard     main.o
    0x08010464   0x00000420   Code   RO         5247    i.Task_Liuliang     main.o
    0x08010884   0x00000008   Code   RO         5248    i.Task_LoadConfigs  main.o
    0x0801088c   0x000002d8   Code   RO         5250    i.Task_M26          main.o
    0x08010b64   0x000001f0   Code   RO         5251    i.Task_M26HTTP      main.o
    0x08010d54   0x00000264   Code   RO         5252    i.Task_M26KGL       main.o
    0x08010fb8   0x00000298   Code   RO         5254    i.Task_M26LL        main.o
    0x08011250   0x000002d8   Code   RO         5255    i.Task_M26diaodian  main.o
    0x08011528   0x000001a8   Code   RO         5256    i.Task_Plan         main.o
    0x080116d0   0x000000c4   Code   RO         5257    i.Task_PowerFailMsg  main.o
    0x08011794   0x00000218   Code   RO         5258    i.Task_PrintfCurOnlyOne  main.o
    0x080119ac   0x00000244   Code   RO         5260    i.Task_PrintfLog    main.o
    0x08011bf0   0x00000174   Code   RO         5261    i.Task_PrintfSelectHistory  main.o
    0x08011d64   0x000000a4   Code   RO         5263    i.Task_Record       main.o
    0x08011e08   0x00000094   Code   RO         5265    i.Task_RecordNow    main.o
    0x08011e9c   0x00000024   Code   RO         5266    i.Task_SaveConfigs  main.o
    0x08011ec0   0x0000034c   Code   RO         5270    i.Task_SendMsgBT    main.o
    0x0801220c   0x0000013c   Code   RO         5272    i.Task_Sensor       main.o
    0x08012348   0x00000088   Code   RO         5273    i.Task_SensorBLX    main.o
    0x080123d0   0x000000f0   Code   RO         5274    i.Task_SensorFuShe  main.o
    0x080124c0   0x00000018   Code   RO         5275    i.Task_SensorGPIO   main.o
    0x080124d8   0x00000024   Code   RO         5276    i.Timer_Broken0     main.o
    0x080124fc   0x00000020   Code   RO         5277    i.Timer_Broken1     main.o
    0x0801251c   0x00000020   Code   RO         5278    i.Timer_Broken2     main.o
    0x0801253c   0x00000020   Code   RO         5279    i.Timer_Broken3     main.o
    0x0801255c   0x0000002a   Code   RO         4406    i.ToHex64           text.o
    0x08012586   0x00000002   PAD
    0x08012588   0x00000040   Code   RO         4796    i.Tools_GetCRC16    cheakout.o
    0x080125c8   0x00000038   Code   RO         4797    i.Tools_GetCRC8     cheakout.o
    0x08012600   0x0000001a   Code   RO         4799    i.Tools_GetXOR8     cheakout.o
    0x0801261a   0x00000002   PAD
    0x0801261c   0x0000005c   Code   RO         3859    i.Tos_ComputeCPURate  tos.o
    0x08012678   0x00000074   Code   RO         4196    i.Tos_CreateTimer   tos_timer.o
    0x080126ec   0x00000060   Code   RO         4198    i.Tos_ExecuteTimer  tos_timer.o
    0x0801274c   0x00000038   Code   RO         3860    i.Tos_GetTaskIDByName  tos.o
    0x08012784   0x00000098   Code   RO         3861    i.Tos_Init          tos.o
    0x0801281c   0x00000020   Code   RO         3862    i.Tos_ListCreate    tos.o
    0x0801283c   0x00000012   Code   RO         3863    i.Tos_RootTask      tos.o
    0x0801284e   0x00000002   PAD
    0x08012850   0x00000038   Code   RO         4199    i.Tos_ScanTimer     tos_timer.o
    0x08012888   0x00000030   Code   RO         3865    i.Tos_Start         tos.o
    0x080128b8   0x00000048   Code   RO         3866    i.Tos_SysTick       tos.o
    0x08012900   0x000000d0   Code   RO         3867    i.Tos_TaskCreate    tos.o
    0x080129d0   0x00000064   Code   RO         3868    i.Tos_TaskCreateFindID  tos.o
    0x08012a34   0x00000060   Code   RO         3869    i.Tos_TaskCreateQmsg  tos.o
    0x08012a94   0x00000060   Code   RO         3870    i.Tos_TaskDelay     tos.o
    0x08012af4   0x00000090   Code   RO         3872    i.Tos_TaskDelete    tos.o
    0x08012b84   0x00000040   Code   RO         4079    i.Tos_TaskDropDev   tos_device.o
    0x08012bc4   0x0000008c   Code   RO         4080    i.Tos_TaskGetDev    tos_device.o
    0x08012c50   0x00000014   Code   RO         5282    i.Tos_TaskGetHandKey  main.o
    0x08012c64   0x0000006c   Code   RO         3874    i.Tos_TaskGetQMsg   tos.o
    0x08012cd0   0x0000006c   Code   RO         3875    i.Tos_TaskGetQMsgDelay  tos.o
    0x08012d3c   0x00000084   Code   RO         3877    i.Tos_TaskPutQmsg   tos.o
    0x08012dc0   0x000000c0   Code   RO         3879    i.Tos_TaskReady     tos.o
    0x08012e80   0x00000034   Code   RO         3880    i.Tos_TaskRecover   tos.o
    0x08012eb4   0x00000054   Code   RO         3882    i.Tos_TaskRun       tos.o
    0x08012f08   0x0000006e   Code   RO         3884    i.Tos_TaskStackInit  tos.o
    0x08012f76   0x00000002   PAD
    0x08012f78   0x00000024   Code   RO         3885    i.Tos_TaskStart     tos.o
    0x08012f9c   0x0000004c   Code   RO         3886    i.Tos_TaskStop      tos.o
    0x08012fe8   0x0000007c   Code   RO         3887    i.Tos_TaskSuspend   tos.o
    0x08013064   0x000000a0   Code   RO         3888    i.Tos_TaskSwitch    tos.o
    0x08013104   0x00000012   Code   RO         3889    i.Tos_TaskTcbInit   tos.o
    0x08013116   0x00000002   PAD
    0x08013118   0x00000054   Code   RO         3890    i.Tos_TaskTimeout   tos.o
    0x0801316c   0x00000054   Code   RO         4200    i.Tos_TimerReady    tos_timer.o
    0x080131c0   0x0000003c   Code   RO         3891    i.Tos_WaitDev       tos.o
    0x080131fc   0x00000060   Code   RO         3380    i.UART4_IRQHandler  usart_driver.o
    0x0801325c   0x00000060   Code   RO         3381    i.UART5_IRQHandler  usart_driver.o
    0x080132bc   0x00000060   Code   RO         3382    i.USART1_IRQHandler  usart_driver.o
    0x0801331c   0x00000060   Code   RO         3383    i.USART2_IRQHandler  usart_driver.o
    0x0801337c   0x00000060   Code   RO         3384    i.USART3_IRQHandler  usart_driver.o
    0x080133dc   0x00000012   Code   RO         2825    i.USART_ClearFlag   stm32f10x_usart.o
    0x080133ee   0x0000001e   Code   RO         2826    i.USART_ClearITPendingBit  stm32f10x_usart.o
    0x0801340c   0x00000018   Code   RO         2829    i.USART_Cmd         stm32f10x_usart.o
    0x08013424   0x0000007c   Code   RO         3385    i.USART_Configuration  usart_driver.o
    0x080134a0   0x0000006e   Code   RO         3386    i.USART_ConfigurationAll  usart_driver.o
    0x0801350e   0x00000002   PAD
    0x08013510   0x000000c8   Code   RO         3387    i.USART_GPIO_Init   usart_driver.o
    0x080135d8   0x00000056   Code   RO         3388    i.USART_GPIO_InitAll  usart_driver.o
    0x0801362e   0x00000054   Code   RO         2833    i.USART_GetITStatus  stm32f10x_usart.o
    0x08013682   0x00000002   PAD
    0x08013684   0x00000048   Code   RO         3389    i.USART_GetIndex    usart_driver.o
    0x080136cc   0x0000003c   Code   RO         3392    i.USART_GetTypeDef  usart_driver.o
    0x08013708   0x0000004a   Code   RO         2835    i.USART_ITConfig    stm32f10x_usart.o
    0x08013752   0x00000002   PAD
    0x08013754   0x000000d8   Code   RO         2836    i.USART_Init        stm32f10x_usart.o
    0x0801382c   0x00000040   Code   RO         3393    i.USART_Read        usart_driver.o
    0x0801386c   0x000000b8   Code   RO         3394    i.USART_ReadDatas   usart_driver.o
    0x08013924   0x00000020   Code   RO         3395    i.USART_Write       usart_driver.o
    0x08013944   0x00000012   Code   RO         3396    i.USART_WriteData   usart_driver.o
    0x08013956   0x00000020   Code   RO         3397    i.USART_WriteDatas  usart_driver.o
    0x08013976   0x00000036   Code   RO         3398    i.USART_WriteLine   usart_driver.o
    0x080139ac   0x0000000c   Code   RO         3084    i.USBWakeUp_IRQHandler  stm32f10x_it.o
    0x080139b8   0x00000008   Code   RO         4408    i.Uint32FromByte    text.o
    0x080139c0   0x00000004   Code   RO         3085    i.UsageFault_Handler  stm32f10x_it.o
    0x080139c4   0x0000002c   Code   RO         5284    i.W25Q16_Erase      main.o
    0x080139f0   0x00000060   Code   RO         5285    i.W25Q16_EraseThis  main.o
    0x08013a50   0x00000014   Code   RO         5288    i.W25Q16_Read       main.o
    0x08013a64   0x00000014   Code   RO         5290    i.W25Q16_StdRead    main.o
    0x08013a78   0x00000014   Code   RO         5291    i.W25Q16_StdWrite   main.o
    0x08013a8c   0x00000024   Code   RO         6851    i.__0vsprintf       mc_w.l(printfa.o)
    0x08013ab0   0x0000000e   Code   RO         6981    i.__scatterload_copy  mc_w.l(handlers.o)
    0x08013abe   0x00000002   Code   RO         6982    i.__scatterload_null  mc_w.l(handlers.o)
    0x08013ac0   0x0000000e   Code   RO         6983    i.__scatterload_zeroinit  mc_w.l(handlers.o)
    0x08013ace   0x00000002   PAD
    0x08013ad0   0x0000015c   Code   RO         6852    i._fp_digits        mc_w.l(printfa.o)
    0x08013c2c   0x000006f0   Code   RO         6853    i._printf_core      mc_w.l(printfa.o)
    0x0801431c   0x00000026   Code   RO         6854    i._printf_post_padding  mc_w.l(printfa.o)
    0x08014342   0x00000030   Code   RO         6855    i._printf_pre_padding  mc_w.l(printfa.o)
    0x08014372   0x0000000a   Code   RO         6857    i._sputc            mc_w.l(printfa.o)
    0x0801437c   0x00000010   Code   RO         3323    i.delay_us          i2c_driver.o
    0x0801438c   0x0000014c   Code   RO         5302    i.main              main.o
    0x080144d8   0x00000200   Data   RO         4800    .constdata          cheakout.o
    0x080146d8   0x00007480   Data   RO         5305    .constdata          main.o
    0x0801bb58   0x00000018   Data   RO         4950    .conststring        func_face.o
    0x0801bb70   0x00000343   Data   RO         5306    .conststring        main.o
    0x0801beb3   0x00000001   PAD
    0x0801beb4   0x00000020   Data   RO         6979    Region$$Table       anon$$obj.o


    Execution Region RW_IRAM1 (Base: 0x20000000, Size: 0x0000b698, Max: 0x0000c000, ABSOLUTE)

    Base Addr    Size         Type   Attr      Idx    E Section Name        Object

    0x20000000   0x00000014   Data   RW         1677    .data               stm32f10x_rcc.o
    0x20000014   0x00000014   Data   RW         3400    .data               usart_driver.o
    0x20000028   0x00000028   Data   RW         3892    .data               tos.o
    0x20000050   0x00000008   Data   RW         4081    .data               tos_device.o
    0x20000058   0x00000004   Data   RW         4154    .data               tos_mema.o
    0x2000005c   0x00000004   Data   RW         4201    .data               tos_timer.o
    0x20000060   0x00000008   Data   RW         4248    .data               debug.o
    0x20000068   0x00000008   Data   RW         4951    .data               func_face.o
    0x20000070   0x00000080   Data   RW         5307    .data               main.o
    0x200000f0   0x0000003c   Zero   RW         3399    .bss                usart_driver.o
    0x2000012c   0x0000afc8   Zero   RW         4153    .bss                tos_mema.o
    0x2000b0f4   0x000001a0   Zero   RW         5304    .bss                main.o
    0x2000b294   0x00000004   PAD
    0x2000b298   0x00000400   Zero   RW         3217    STACK               startup_stm32f10x_hd.o


==============================================================================

Image component sizes


      Code (inc. data)   RO Data    RW Data    ZI Data      Debug   Object Name

       348         16          0          0          0       3769   appconfig.o
       146          8        512          0          0       2177   cheakout.o
         0          0          0          0          0        828   comkeyboard.o
         0          0          0          0          0         32   core_cm3.o
       580         64          0          8          0       3092   debug.o
       200         18         24          8          0       2627   func_face.o
       622          0          0          0          0       5684   i2c_driver.o
     43002       7916      30659        128        416     136649   main.o
       156         32          0          0          0     234385   misc.o
       666          0          0          0          0       2731   modbus.o
        36          8        304          0       1024        752   startup_stm32f10x_hd.o
      1130        286          0          0          0      24763   stm32_cpu.o
       390         10          0          0          0      16233   stm32f10x_adc.o
       416          8          0          0          0      13210   stm32f10x_dma.o
       160         12          0          0          0       3657   stm32f10x_exti.o
       274         30          0          0          0       9634   stm32f10x_flash.o
       564         32          0          0          0       4740   stm32f10x_gpio.o
        48          0          0          0          0       5231   stm32f10x_it.o
       140         32          0          0          0       2056   stm32f10x_pwr.o
       364         50          0         20          0       5938   stm32f10x_rcc.o
       112          0          0          0          0      10646   stm32f10x_spi.o
       446          6          0          0          0      11506   stm32f10x_usart.o
       324         26          0          0          0       3303   system_stm32f10x.o
      1662         18          0          0          0      14186   text.o
      2458        238          0         40          0      14614   tos.o
        80         10          0          0          0        212   tos_core_a.o
       784        120          0          8          0       4299   tos_device.o
       192         20          0          4      45000       3084   tos_mema.o
       352         26          0          4          0       2980   tos_timer.o
      1990        288          0         20         60      13847   usart_driver.o

    ----------------------------------------------------------------------
     57708       9274      31532        240      46504     556865   Object Totals
         0          0         32          0          0          0   (incl. Generated)
        66          0          1          0          4          0   (incl. Padding)

    ----------------------------------------------------------------------

      Code (inc. data)   RO Data    RW Data    ZI Data      Debug   Library Member Name

         0          0          0          0          0          0   entry.o
         0          0          0          0          0          0   entry10a.o
         0          0          0          0          0          0   entry11a.o
         8          4          0          0          0          0   entry2.o
         4          0          0          0          0          0   entry5.o
         0          0          0          0          0          0   entry7b.o
         0          0          0          0          0          0   entry8b.o
         8          4          0          0          0          0   entry9a.o
        30          0          0          0          0          0   handlers.o
        36          8          0          0          0         68   init.o
         0          0          0          0          0          0   iusefp.o
        30          0          0          0          0         68   llshl.o
        36          0          0          0          0         68   llsshr.o
        32          0          0          0          0         68   llushr.o
      2256         86          0          0          0        508   printfa.o
        36          0          0          0          0         80   strstr.o
        44          0          0          0          0         80   uidiv.o
        98          0          0          0          0         92   uldiv.o
        40          2          0          0          0         68   cdcmple.o
        40          2          0          0          0         68   cdrcmple.o
        20          0          0          0          0         68   cfcmple.o
        20          0          0          0          0         68   cfrcmple.o
        56          0          0          0          0         88   d2f.o
       334          0          0          0          0        148   dadd.o
       222          0          0          0          0        100   ddiv.o
       190          0          0          0          0        176   depilogue.o
        62          0          0          0          0         80   dfixi.o
        50          0          0          0          0         76   dfixui.o
        48          0          0          0          0         68   dfixul.o
        34          0          0          0          0         76   dflti.o
        26          0          0          0          0         76   dfltui.o
       228          0          0          0          0         96   dmul.o
        38          0          0          0          0         68   f2d.o
       176          0          0          0          0        140   fadd.o
       128          0          0          0          0         88   fdiv.o
       108          0          0          0          0        168   fepilogue.o
        50          0          0          0          0         68   ffixi.o
        40          0          0          0          0         68   ffixui.o
        18          0          0          0          0         68   fflti.o
        10          0          0          0          0         68   ffltui.o
       108          0          0          0          0         76   fmul.o

    ----------------------------------------------------------------------
      4668        106          0          0          0       3100   Library Totals
         4          0          0          0          0          0   (incl. Padding)

    ----------------------------------------------------------------------

      Code (inc. data)   RO Data    RW Data    ZI Data      Debug   Library Name

      2618        102          0          0          0       1032   mc_w.l
      2046          4          0          0          0       2068   mf_w.l

    ----------------------------------------------------------------------
      4668        106          0          0          0       3100   Library Totals

    ----------------------------------------------------------------------

==============================================================================


      Code (inc. data)   RO Data    RW Data    ZI Data      Debug   

     62376       9380      31532        240      46504     537241   Grand Totals
     62376       9380      31532        240      46504     537241   ELF Image Totals
     62376       9380      31532        240          0          0   ROM Totals

==============================================================================

    Total RO  Size (Code + RO Data)                93908 (  91.71kB)
    Total RW  Size (RW Data + ZI Data)             46744 (  45.65kB)
    Total ROM Size (Code + RO Data + RW Data)      94148 (  91.94kB)

==============================================================================

