:020000040800F2
:10000000A8B6002045010008C14A000833300008A6
:100010004D4700083B0E0008238D0008000000003B
:10002000000000000000000000000000F95200087D
:10003000691A000800000000D94B00083F5B000867
:100040005F0100085F0100085F0100085F01000810
:100050005F0100085F0100085F010008AD2400088F
:100060005F0100085F0100085F0100085F010008F0
:100070005F0100085F0100085F0100085F010008E0
:100080005F0100085F0100085F0100085F010008D0
:100090005F0100085F0100085F0100085F010008C0
:1000A0005F0100085F0100085F0100085F010008B0
:1000B0005F0100085F0100085F0100085F010008A0
:1000C0005F0100085F0100085F0100085F01000890
:1000D0005F0100083186000891860008F18600085B
:1000E0005F0100085F0100080F8D00085F01000834
:1000F0005F0100085F0100085F0100085F01000860
:100100005F0100085F0100085F0100085F0100084F
:1001100071850008D18500085F0100085F010008B3
:100120005F0100085F0100085F0100085F0100082F
:10013000DFF80CD000F078FC00480047C5960008B6
:10014000A8B600200648804706480047FEE7FEE7BD
:10015000FEE7FEE7FEE7FEE7FEE7FEE7FEE7FEE777
:10016000E15B000831010008D2B201E000F8012B88
:10017000491EFBD270470022F6E710B513460A4627
:1001800004461946FFF7F0FF204610BDF0B480EAA0
:100190000102D40F4200B2EB410F02D202460846E0
:1001A00011464A0042D0C30DDDB2C1F3C752AD1AA9
:1001B000202D35DAC1F3160141F4000204B1524298
:1001C000C5F1200602FA06F12A411044B3EBD05FD4
:1001D00023D0C4B1012DA0EBC35009DCF0BC4FF01B
:1001E000004202EAC35200F50000DBB200F077BB28
:1001F000400000F1807000EBC350A0F1807040EA35
:10020000D170490009E0490841EAC071A0EBC35030
:1002100000F50000400800EBC350F0BC00F056BBF6
:100220006142012202EB4101001BF6E7F0BC70477E
:1002300081F00041AAE780F00040A7E780EA0102D0
:1002400010B502F00043400026D04A0023D04FEA08
:10025000106101EB1261C0F35600C2F3560240F484
:10026000000042F40002A0FB0220A1F17F014FEA4E
:100270000040140401D000F1010050EA124001D402
:100280004000491EC2B20C0604EBD010401C4008CE
:10029000802A02D003E0002010BD20F001000029D8
:1002A00000DA0020184310BD30B480EA010202F0E9
:1002B000004530F0004221F0004015D0A0B1C0F35D
:1002C000C753C2F3C754C2F31601C0F31600E41AB1
:1002D00041F4000140F400027D34914201D3641CDA
:1002E00000E04900002C02DA30BC002070474FF4D7
:1002F00000000023914201D3891A034340084FEACA
:100300004101F7D151B1914202D14FF0004105E0D6
:1003100002D24FF0010101E06FF0010103EBC45084
:10032000284430BC00F0D2BA2DE9FE4F804681EA65
:100330000300C00F0C46009021F0004123F000455F
:10034000B8EB0200A94105D24046214690461C4622
:100350000B46024623F00040104304D1404621469C
:1003600003B0BDE8F08F270DC7F30A00C3F30A51AD
:100370000290401A0190402866DAC3F3130040F45B
:10038000801B0098924620B10023D2EB030A63EB56
:100390000B0B01985946C0F14002504600F065FA37
:1003A00006460D4650465946019A00F07DFA10EB7C
:1003B00008006141002487EA115284EAE7731A4376
:1003C0003BD0009A3AB3019A012A4FEA075210DC57
:1003D000001B61EB02014FF0004202EA0752CDE937
:1003E0000042001C41F5801132462B4600F0B1FA64
:1003F000B6E7001B61EB0201001C41F580130018F9
:100400005B412018A2F5001747EB030140EAD570C5
:10041000B6196D4111E06D084FEA360645EAC07520
:100420004FEA0752001B61EB0201001C41F58011ED
:1004300049084FEA30000019514132462B4603B0BB
:10044000BDE8F04F00F078BA009801224000002388
:10045000D0EB020263EBE073009821464FEAE074B0
:10046000B8EB000061EB0401E9E783F000435BE7D0
:1004700081F0004158E72DE9FE4F81EA030404F0C2
:10048000004421F0004100944FF0000B23F00043A2
:1004900050EA010402D052EA030404D100200146CC
:1004A00003B0BDE8F08FC3F30A54C1F30A552C44DE
:1004B000A4F2F3340194A0FB0254C1F3130141F4FC
:1004C0008011C3F3130343F4801301FB024400FBC8
:1004D000034E840A970A44EA815447EA8357A4FBEF
:1004E000076802958D0A05FB07854FEA932C04FBEC
:1004F0000C542705029D4FEA065847EA1637B5EB1C
:1005000008056EEB070C870E920E47EA811742EA48
:100510008312A7FB0201B6EB0B0164EB00042B0D69
:1005200043EA0C335E1844EB1C50DA465146E7FBB5
:100530000201C5F313044FEA0B3343EA14534FEAA5
:100540000432019C43EA0603A4F10C040294009CCB
:10055000CDE900B400F0FDF9A2E72DE9F04D81EA04
:10056000030404F0004B21F0004514464FF0000A4C
:1005700023F0004150EA050220D054EA01021DD0C8
:10058000C5F30A570246C5F31303C1F31300C1F3C1
:100590000A5640F4801543F48013A7EB0608101B9D
:1005A000D64608F2FD3873EB050002D308F10108C6
:1005B00001E092185B41B8F1000F03DA0020014618
:1005C000BDE8F08D00204FF48011064684460EE011
:1005D000171B73EB050705D3121B63EB05030643DB
:1005E0004CEA010C49084FEA300092185B4150EA8E
:1005F0000107EDD152EA030012D082EA040083EA37
:100600000501084303D100224FF0004308E0101B0E
:10061000AB4102D20122002302E06FF0010253102D
:100620001AEB06004CEB085110EB0A0041EB0B01F2
:10063000BDE8F04D00F080B9C10F80EAE0700844D9
:10064000CA079623002100F04AB9962300221146DA
:1006500000F045B90EB540F2334102910021CDE9D9
:1006600000110A460B4600F074F903B000BD00F01B
:10067000004220F00040C10DC0F3160040F400001D
:100680007F2901DA00207047962903DCC1F1960129
:10069000C84001E096398840002AF4D040427047B3
:1006A00020F00040C10DC0F3160040F400007F2987
:1006B00001DA00207047962903DCC1F19601C84099
:1006C000704796398840704770B5C1F30A5201F0FF
:1006D00000450024C1F3130140F2FF3341F48011BF
:1006E0009A4201DA002070BD40F233439A42A2F2EE
:1006F000334203DC524200F0C7F800E090402C4344
:10070000F1D0404270BD00F0004230F000400AD00D
:10071000C10D01F56071C0F3160042EA0151C20833
:1007200040071143704700200146704730B500294B
:1007300004DB4FF00044404264EB0101002B04DB7A
:100740004FF00044524264EB03038B4208BF8242E5
:1007500030BD000030B5002904DB4FF000444042BA
:1007600064EB0101002B04DB4FF00044524264EBC8
:100770000303994208BF904230BD000001F00043DE
:1007800030B421F0004150EA010206D00A0DA2F572
:100790006072C1F31301002A02DC30BC00207047F4
:1007A000440F44EAC104C100E01830BC00EBC25061
:1007B00000F08CB8002801DBC0F10040002901DB0B
:1007C000C1F1004181427047002801DBC0F10040C7
:1007D000002901DBC1F100418842704730B50B466A
:1007E000014600202022012409E021FA02F59D4261
:1007F00005D303FA02F5491B04FA02F52844151E35
:10080000A2F10102F1DC30BD2DE9F05F05460020C8
:1008100092469B4688460646814640241BE0284671
:1008200041464746224600F02FF853465A46C01A22
:10083000914110D311461846224600F016F82D1AA1
:1008400067EB01084F4622460120002100F00DF819
:1008500017EB00094E41201EA4F10104DFDC4846DD
:1008600031462A464346BDE8F09F202A04DB203A61
:1008700000FA02F1002070479140C2F1200320FAF3
:1008800003F3194390407047202A04DB203A21FAF1
:1008900002F00021704721FA02F3D040C2F1200299
:1008A0009140084319467047202A06DBCB17203AAF
:1008B00041FA02F043EAE07306E041FA02F3D04065
:1008C000C2F1200291400843194670470029A8BF91
:1008D0007047401C490008BF20F00100704710B469
:1008E000B0FA80FC00FA0CF050EA010404BF10BC1E
:1008F000704749B1CCF1200421FA04F411FA0CF14B
:1009000018BF012121430843A3EB0C01CB1D0106B5
:10091000000A002BBEBF002010BC704700EBC35084
:1009200010440029A4BF10BC7047401C490008BFF8
:1009300020F0010010BC704710B5002B08DA401CF5
:1009400041F1000192185B411A4301D120F00100EE
:1009500010BD2DE9F04D92469B4611B1B1FA81F2DE
:1009600002E0B0FA80F220329046FFF77EFF0446A4
:100970000F4640EA0A0041EA0B0153465A46084333
:1009800003D120463946BDE8F08D114653EA0100F7
:1009900015D0C8F140025046FFF776FF05460E46D7
:1009A000504659464246FFF760FF084301D00120F8
:1009B00000E00020054346EAE0762C4337430A98DE
:1009C0004FEA4453A0EB08004FEAD4240A304FF01A
:1009D000000244EA47544FEAD72502D500200146D9
:1009E000D1E7010510196941DDE9084500196941A0
:1009F000BDE8F04DA0E7C1F30A52C1F3130140F284
:100A0000FF3341F480119A4202DA00200146704718
:100A100040F233439A42A2F2334202DC5242FFF7E1
:100A200033BFFFF722BF0000064C074D06E0E06829
:100A300040F0010394E8070098471034AC42F6D325
:100A4000FFF77AFBDCA20008FCA2000882B02DE9C7
:100A5000FF1FEFF3038001B4684600F1400000E996
:100A600001400C480168C1F800D00B48D0F800D014
:100A700001BC80F30388BDE8FF1F01B000BD06483C
:100A8000D0F800D001BC80F30388BDE8FF1F01B09F
:100A900000BD00003C0000203800002008B5012106
:100AA000084604F093F901214FF4047004F0AEF904
:100AB0001020ADF8000000208DF8030069460248C0
:100AC00001F0ACFF08BD00000010014010B5044665
:100AD000FFF7E4FF204600F001F810BD10B590B01C
:100AE0000446334800F0EEFB32480590069400209F
:100AF000079001200890002009900A904FF4807020
:100B00000B9080000C9020200D9000020E90002091
:100B10000F9005A9264800F07BFC0121244800F035
:100B2000C5FB002000908DF8040001208DF8050021
:100B30004FF4602002900020039001208DF81000F7
:100B400069461C484C3800F061F84FF4404004F00E
:100B500031F9052301220E2116484C3800F07EF8A9
:100B6000012114484C3800F032F8012111484C386A
:100B700000F022F80F484C3800F0CCF800BF0D48C8
:100B80004C3800F039F80028F9D10A484C3800F008
:100B9000D1F800BF07484C3800F024F80028F9D1FC
:100BA000012104484C3800F0BAF810B010BD000024
:100BB000080002404C24014021B1826842F0010249
:100BC000826003E0826822F001028260704721B1F6
:100BD000826842F48072826003E0826822F480724C
:100BE00082607047014600208A6812F0040F01D02D
:100BF000012000E000207047014600208A6812F0C2
:100C0000080F01D0012000E00020704730B50246F7
:100C10000020002350680F4C20400D790C6844EAF6
:100C200005242043506090680B4C2040D1E90254C9
:100C30002C434D7944EA450420439060D06A20F467
:100C400070000C7C641EE4B2234340EA0350D0627F
:100C500030BD0000FFFEF0FFFDF7F1FFF0B50446E8
:100C60000D4600200021092D11DDE068A5F10A06DE
:100C700006EB4607072606FA07F18843A5F10A06A0
:100C800006EB460603FA06F10843E0600CE0206933
:100C900005EB4507072606FA07F1884305EB4506ED
:100CA00003FA06F108432061072A0FDA606B561E2B
:100CB00006EB86071F2606FA07F18843561E06EB49
:100CC000860605FA06F10843606322E00D2A0FDA72
:100CD000206BD61F06EB86071F2606FA07F188430E
:100CE000D61F06EB860605FA06F10843206310E0DE
:100CF000E06AA2F10D0606EB86071F2606FA07F149
:100D00008843A2F10D0606EB860605FA06F10843B4
:100D1000E062F0BD816841F008018160704721B157
:100D2000826842F4A002826003E0826822F4A0029A
:100D300082607047816841F0040181607047000063
:100D400010B50121054801F099FF032007F05CF878
:100D50000121024801F081FF10BD0000000C01409C
:100D600010B501210C4801F089FF0A2007F04CF86A
:100D70000121094801F071FF282007F045F8012101
:100D8000054801F07BFF0A2007F03EF801210248E8
:100D900001F063FF10BD0000000C014010B5002100
:100DA000074803F087FB044644B9052105A000F07D
:100DB00079FD0121024803F07DFB0446204610BD69
:100DC000F0B00020C5E4D6C3B2CECAFDC6ACC7F8A9
:100DD000D2BBB4EDCEF3000006E04FF47A7100BF51
:100DE0000A00A1F10101FBD10200A0F10100F4D140
:100DF00070470146081100EB4000A1EB4000C0B273
:100E00007047F0B5034600201C460D46104603E02F
:100E100014F8016B05F8016B1600A2F10107BAB2D4
:100E2000F6D1F0BD30B5034601E003F8011B140014
:100E3000A2F10105AAB2F8D130BD00BFFEE7000063
:100E40002DE9F04105460E463F4803F0E1FCA8427B
:100E500002DC0020BDE8F08105EB45003A4901EBDA
:100E60008004207A092833D008DC02280FD0042817
:100E700037D0052823D0062863D116E00B280BD0E5
:100E800018284BD01A2856D01D285AD12FE0606858
:100E900008B16068804754E0304601F0C7FF07465C
:100EA000FFF7FEFB616808704BE0304601F0BEFFC3
:100EB0000746FFF7DCFB40B26168087041E030464E
:100EC00001F0B4FF0746FFF7EBFB6168088038E0EC
:100ED000304601F0ABFF0746FFF7E2FB61680860B0
:100EE0002FE0304601F0A2FF6168086029E017A1F9
:100EF000304604F0D1FD40B160680068627A01219B
:100F0000914008436168086007E060680068627AA1
:100F10000121914088436168086012E00BA13046CE
:100F200004F0BAFD18B101206168087002E00020E9
:100F30006168087005E0627A30466168FFF761FF1A
:100F400000BF00BF012085E7C899000854000000D9
:100F500070B504460D460A4803F05AFCA04201DC75
:100F6000002070BD04EB4400054A02EB80012846D6
:100F700003F01AFB284601F0BBFFC6B23046F0E78B
:100F8000C899000802E0002200F8012B0A00A1F134
:100F9000010399B2F7D1704730B502460B461146AE
:100FA00093B1012B02D0022B28D11CE011F8010BC8
:100FB000000211F8014B2043000211F8014B2043BD
:100FC00000020C78204319E0C91C11F80109000245
:100FD00011F801492043000211F8014920430002A1
:100FE0000C7820430AE088780002CC782043000285
:100FF0000C78204300024C78204300BF00BF30BD76
:1010000010B5002400F090F804E0601CC4B2012088
:1010100000F038F8114801881148006801F014FE0A
:1010200008B1642CF1DB642C01DB012010BD00242D
:1010300004E0601CC4B2012000F024F807480188D5
:101040000748006801F000FE08B9642CF1DB642C4D
:1010500001DB0120EAE70020E8E700007C00002037
:1010600080000020002107E042F6E06100BF0A0096
:10107000A1F1010399B2FAD10200A0F1010398B2E3
:10108000F2D17047002106E0072100BF0A00A1F15C
:10109000010399B2FAD10200A0F1010398B2F3D191
:1010A000704700002DE9F04105460E462C784FF6BA
:1010B000FF7000EA04246878044314F4004F0CD055
:1010C000E143491C41F40040FFF7B6FA07461349D3
:1010D0003846FFF7E9F8074608E02046FFF7B5FA7B
:1010E00007460E493846FFF7DFF807460C493846F1
:1010F000FFF76AFB02D24FF0010801E04FF0000851
:1011000008493846FFF756FB01D2012000E00020D5
:1011100018EA000F00D03760BDE8F08100002041E0
:1011200000007AC40000F04208B508480088ADF815
:10113000000003208DF8020048208DF80300694666
:101140000348006801F06AFC08BD00007C00002034
:101150008000002008B508480088ADF80000032092
:101160008DF8020010208DF80300694603480068DE
:1011700001F054FC08BD00007C000020800000202D
:101180002DE9FC4105460E4600F076F8FFF738FFE2
:1011900010B10120BDE8FC8172B6002405E000F02A
:1011A0005BF80DF80400601CC4B2052CF7DB9DF859
:1011B00000009DF8011008449DF8021008449DF8B5
:1011C00003100844C7B29DF80400B84202D062B6CA
:1011D0000120DFE71DB131466846FFF763FF26B106
:1011E00029460DF10200FFF75DFF62B60020D1E74E
:1011F00010B5002404E0601CC4B20120FFF742FFD8
:10120000134801881348006801F01EFD08B1642CE2
:10121000F1DB002404E0601CC4B20120FFF732FFC0
:101220000B4801880B48006801F00EFD08B9642CDA
:10123000F1DB2320FFF726FF0548018805480068F9
:1012400001F002FD08B1012010BD0020FCE7000004
:101250007C0000208000002070B50024002506E0FE
:101260006006040EFFF7C4FF0443681CC5B2082DD6
:10127000F6DB204670BD000010B5FFF76BFF094894
:1012800001880948006801F0E8FC0A20FFF7EAFE3F
:10129000044801880448006801F0F0FC5020FFF782
:1012A000F1FE10BD7C0000208000002021B102680A
:1012B00042F00102026004E002684FF6FE731A4039
:1012C0000260704701684FF6FE7211400160002114
:1012D000016041608160C1604B49884208D14A4940
:1012E0000839496841F00F01474A083A51608AE0DD
:1012F00045491431884208D143490839496841F0C9
:10130000F001414A083A51607DE03F492831884266
:1013100008D13D490839496841F470613A4A083AB0
:10132000516070E038493C31884208D1364908396B
:10133000496841F47041344A083A516063E03249E7
:101340005031884208D130490839496841F4702148
:101350002D4A083A516056E02B496431884208D141
:1013600029490839496841F47001274A083A51600F
:1013700049E025497831884208D12349083949682C
:1013800041F07061204A083A51603CE01F498842B0
:1013900006D1011F096841F00F01021F116032E000
:1013A0001A491431884208D11849091F096841F0C7
:1013B000F001164A121F116025E0144928318842B5
:1013C00008D11249091F096841F470610F4A121FC0
:1013D000116018E00D493C31884208D10B49091FC2
:1013E000096841F47041094A121F11600BE0074976
:1013F0005031884207D10549091F096841F470211D
:10140000024A121F1160704708000240080402409F
:1014100010B50022026847F6F0739A430C6A8B6895
:1014200023430C6923434C6923438C692343CC69D0
:1014300023434C6A23438C6A23431A430260CB68DC
:1014400043600B6883604B68C36010BD70B5044691
:101450000D46164624B1012C18D0022C42D12BE0A7
:1014600001212C4800F014FA2B48005D0A2806DD03
:101470002A48006A20F480702849086205E027485D
:10148000006A40F480702549086230E0202121483C
:1014900000F0FEF92048005D0A2806DD1F48006ABA
:1014A00020F400701D49086205E01C48006A40F401
:1014B00000701A4908621AE04021164800F0E8F965
:1014C0001548005D0A2806DD1448006A20F48050A3
:1014D0001249086205E01148006A40F480500F4943
:1014E000086204E000200D4981F8870000BF00BFBA
:1014F00031462846FFF744FE28B10748005D401CEE
:101500000549085502E00020034908550248005DDE
:1015100070BD000000100140B0000020CCB00020E1
:1015200008B50121082003F071FC0D480088ADF8D2
:10153000000010208DF8030003208DF8020069469A
:101540000848006801F06AFA054801880548006803
:1015500001F094FB00F032F900F006F808BD00003D
:10156000840000208800002010B5002400F0BEF8A0
:1015700004E0601CC4B2012000F028F81148018882
:101580001148006801F060FB08B1C82CF1DBC82CE1
:1015900001DB012010BD002404E0601CC4B2012066
:1015A00000F014F8074801880748006801F04CFB78
:1015B00008B9F02CF1DBF02C01DB0120EAE7002078
:1015C000E8E700008400002088000020002106E0F9
:1015D000062100BF0A00A1F1010399B2FAD102006D
:1015E000A0F1010398B2F3D1704700002DE9FE4F3E
:1015F000824600F009F900F0E1F8FFF7B5FF044674
:1016000014B10120BDE8FE8FCC2000F009F9BE2006
:1016100000F006F9002405E000F0BEF80DF8040023
:10162000601CC4B2092CF7DB0821684606F0A2F959
:1016300004469DF80800A04205D0052126A000F030
:1016400031F90020DEE79DF8010007281EDD9DF836
:101650000100C043C0B28DF801009DF80000C043F6
:10166000C0B28DF800009DF801904FF6FF7000EABF
:1016700009299DF8000040EA09094846FEF7E5FF00
:1016800005460021FEF7D7FD83460DE09DF8019049
:101690004FF6FF7000EA09299DF8000040EA0909A9
:1016A0004846FEF7D2FF83465846FFF72CF8074618
:1016B00000220C4BFEF7DFFE0546FFF75FF883467E
:1016C000BAF1000F05D008495846FEF7EDFDCAF8FB
:1016D0000000002096E70000D0A3D1E9B4EDCEF3DE
:1016E000000000000000E43F0000204108B5084869
:1016F0000088ADF8000003208DF8020048208DF826
:10170000030069460348006801F088F908BD00003D
:10171000840000208800002008B508480088ADF843
:10172000000003208DF8020010208DF803006946A8
:101730000348006801F072F908BD00008400002031
:101740008800002010B5FFF7E7FF11480188114815
:10175000006801F082FA0220FFF738FF0C48018888
:101760000C48006801F08AFAFFF7C0FF0520FFF778
:101770002DFF074801880748006801F065FA08B1A5
:10178000012400E000243220FFF720FF204610BD96
:10179000840000208800002070B50026012508E0A4
:1017A000FFF7D0FF0446E00140EA6600C6B2681CBD
:1017B000C5B2082DF4DD304670BD000010B5FFF74E
:1017C000ABFF0A4801880A48006801F046FA40F277
:1017D000EE20FFF7FBFE054801880548006801F090
:1017E0004DFA0F20FFF7F2FE10BD0000840000202C
:1017F00088000020024A1060024A118070470000F1
:10180000880000208400002010B5FFF7D7FFFFF705
:10181000ABFECC2000F004F8442000F001F810BD2D
:1018200070B50446FFF778FF01252AE004F00106B1
:10183000641096B1144801881448006801F00DFA4C
:101840000220FFF7C3FE104801881048006801F02D
:1018500015FA3C20FFF7BAFE11E00B4801880B484F
:10186000006801F0FAF93C20FFF7B0FE0648018855
:101870000648006801F002FA0220FFF7A7FE681C84
:10188000C5B2082DD2DD70BD840000208800002084
:10189000024A1060024A1180704700008000002058
:1018A0007C0000200FB42DE9F04186B00025012610
:1018B0000027B00202F086FF044654480078FF2853
:1018C00001D1012000E0002050490978504A1278E7
:1018D000914201D1012100E0002108437DD00DA8F3
:1018E00005902046059A0C9907F06CFA00200590A7
:1018F0000DA8059069460C9801F0DCF906462AE02F
:101900002846691CCDB21DF80000012804D0022829
:1019100006D003281AD115E0059880C8059019E073
:101920000598C01D20F007000590D0E90021DDF8E2
:1019300014C00CF1080C1046CDF814C0FEF7C4FE1C
:10194000074607E0059880C8059003E0059880C821
:10195000059000BF00BF3000A6F10106D0D1059868
:1019600080C80590002005902A480078FF2801D102
:10197000012000E0002027490978B94201DB01215C
:1019800000E00021084338D0214623A004F04CF8A1
:101990002248007810F0020F0DD02149087800F09D
:1019A00001FC40B1204601F0A3FA804642462146A0
:1019B0001C4807F081F91948007810F0040F0FD087
:1019C0001749487800F0EEFB50B1204601F090FA3C
:1019D000804642462146144800E00EE007F06CF9CC
:1019E0001248006848B1204601F082FA00F0FF0872
:1019F000414620460D4A12689047204602F0B6FE46
:101A000006B0BDE8F0015DF814FB000064000020A2
:101A100048000020660000200D0A0000650000203C
:101A200014000020003801400044004068000020FD
:101A3000FF200149087070476400002002480078C8
:101A40000249087070470000480000206400002030
:101A500001490870704700006500002001490870C6
:101A60007047000066000020704701460A2091FB85
:101A7000F0F000EB400001EB4000C0B27047000006
:101A800010B500201A4908704FF4A07002F09AFEB9
:101A900018490860002406E0FF2017490855174937
:101AA0000855601CC4B2052CF6DB00241DE00020A4
:101AB0001049096801EB4411486103200D49096888
:101AC00001EB4411087200200A49096801EB441136
:101AD00008610849096801EB4411C86005490968B3
:101AE00001EB44118861601CC4B20A2CDFDB10BD1D
:101AF000540000205800002014000020190000208D
:101B000038B5002454E02C48006800EB441000680D
:101B100000284BD02848006800EB4410C079012809
:101B200006D0022820D0032813D0042832D126E082
:101B3000032000902048006800EB4410C3691E4851
:101B4000006800EB4410214602681CA0FFF7AAFEC3
:101B50002BE01948006800EB44100323214602687B
:101B60001CA0FFF79FFE20E01348006800EB441024
:101B700003232146026817A0FFF794FE15E00E48E4
:101B8000006800EB441003232146026811A0FFF710
:101B900089FE0AE00848006800EB44100323214650
:101BA00002680CA0FFF77EFE00BF00BF601CC4B23D
:101BB0000A2CA8DB38BD0000580000204465766977
:101BC00063655B25645D4E616D653A25735B2564D5
:101BD0005D0000004465766963655B25645D4E6168
:101BE0006D653A25730000002C4909782C4A117064
:101BF0002A490978491C294A117029490978294A32
:101C00001268274B1B7802EB4312117126A1254A5B
:101C10001268234B1B7802EB431211600021214A0A
:101C200012681F4B1B7802EB4312517102221D49AF
:101C300009681B4B1B7801EB4311CA71012219493A
:101C40000968174B1B7801EB43110A721849154AB2
:101C50001268134B1B7802EB43125161114909685A
:101C60000F4A127801EB4211C86100220D49096840
:101C70000B4B1B7801EB4311CA600021094A126823
:101C8000074B1B7802EB43121161002205490968DA
:101C9000034B1B7801EB43118A617047540000200D
:101CA00028000020580000204750494F0000000045
:101CB000312B00082C4800782C4908702A480078FD
:101CC000401C294908702948007829490968274A91
:101CD000127801EB4211087126A125480068234AB9
:101CE000127800EB421001600020214909681F4A68
:101CF000127801EB4211487103201D4909681B4A03
:101D0000127801EB4211C871012119480068174A85
:101D1000127800EB42100172184815490968134AFD
:101D2000127801EB421148610021114800680F4A06
:101D3000127800EB4210C1610D4800680B4A12781E
:101D400000EB4210C160002009490968074A127877
:101D500001EB42110861002105480068034A12782E
:101D600000EB421081617047540000207500002094
:101D7000580000204854313632310000B52F000899
:101D80002C4909782C4A11702A490978491C294A9A
:101D9000117029490978294A1268274B1B7802EBF0
:101DA0004312117126A1254A1268234B1B7802EBBE
:101DB000431211600021214A12681F4B1B7802EB6D
:101DC0004312517104221D4909681B4B1B7801EB1A
:101DD0004311CA71012219490968174B1B7801EB9D
:101DE00043110A721849154A1268134B1B7802EB0B
:101DF00043125161114909680F4A127801EB4211EF
:101E0000C86100220D4909680B4B1B7801EB431197
:101E1000CA600021094A1268074B1B7802EB431283
:101E20001161002205490968034B1B7801EB43113E
:101E30008A6170475400002096000020580000205E
:101E400049534C3132303800B54200082DE9F04199
:101E500007460D461646384606F0CEFD04465F4856
:101E6000005DFF2808D15E4800785C4908555C4851
:101E70000078401C5A4908705AA05849095D5B4ACD
:101E8000126802EB4111086000205449095D574A6D
:101E9000126802EB4111487101205049095D534A13
:101EA000126802EB4111C87103204C49095D4F4A89
:101EB000126802EB411108724D484849095D4B4ACE
:101EC000126802EB411148614448005D47490968C6
:101ED00001EB4010C46147494048005D434A126825
:101EE00002EB4010C16044483C49095D3F4A12681A
:101EF00002EB4111086100213848005D3B4A12683D
:101F000002EB4010816100203C4921F81400284672
:101F100002F058FC3A4941F82400384606F06CFDBE
:101F200004463848005DFF2808D12D48007835491F
:101F300008552B480078401C2949087032A03149C7
:101F4000095D2A4A126802EB4111086000202D4900
:101F5000095D264A126802EB4111487101212948A6
:101F6000005D224A126802EB4010C171032025492E
:101F7000095D1E4A126802EB411108721C49214892
:101F8000005D1A4A126802EB401041611D48005D75
:101F90001649096801EB4010C46116481949095DEA
:101FA000124A126802EB4111C86013481549095DD5
:101FB0000E4A126802EB4111086100201149095DC7
:101FC0000A4A126802EB41118861304602F0FAFBBE
:101FD0000F4941F82400BDE8F081000019000020FD
:101FE0005400002055534152527800005800002000
:101FF00099870008998C0008A18B0008F000002048
:10200000C8000020140000205553415254780000AD
:10201000DC00002010B504464FF4967211462046AD
:10202000FFF714FF10BD0000284800782849087009
:1020300026480078401C2549087026A027490968D1
:10204000234A127801EB42110860002023490968F5
:102050001F4A127801EB4211487103201F49096899
:102060001B4A127801EB4211C87101211B4800681C
:10207000174A127800EB4210017219481749096893
:10208000134A127801EB421148610021134800689D
:102090000F4A127800EB4210C16112490F480068E4
:1020A0000B4A127800EB4210C1600F490B480068E0
:1020B000074A127800EB42100161002007490968C5
:1020C000034A127801EB42118861704754000020E6
:1020D000940000205732355131360000580000205E
:1020E000BD500008B18D00089D8D000810B503217A
:1020F00024A0FFF7D7FB002441E02948006800EB4B
:1021000044104069C8B32648006800EB4410C07909
:10211000012806D0022817D003280ED004282BD17E
:102120001EE01F4A126802EB4412107F1C4A12681C
:1021300002EB4412516988471EE01949096801EB16
:1021400044114869804717E0154A126802EB4412AF
:10215000D069134A126802EB4412516988470BE0B8
:102160000F4A126802EB4412D0690D4A126802EB62
:1021700044125169884700BF00BF601CC4B20A2CDA
:10218000BBDB10BD546F73204465766963652049DD
:102190006E69742E2E2E2E2E2E2E2E2E2E00000028
:1021A000580000200146FF2901D100207047054852
:1021B000006800EB4110406908B90020F6E70120F3
:1021C000F4E7000058000020BAB080464FF0000944
:1021D0000027C246504606F00FFC04460120034685
:1021E00005220146009004A802F01DFB8E4951F81B
:1021F000240002F0BBFA40F2DC5002F0E3FA8A4914
:1022000041F824000FE1884951F8240002F0C6FA91
:102210001FFA80FB844951F824005946FEF7B2FEAC
:10222000814951F8240002F0B9FA1FFA80FB00231B
:102230005A461946504606F0D3FC05467A4951F8ED
:10224000240004AA294602F085FB05462E469DF887
:102250001E00002870D19DF813002C280AD004DC41
:10226000292876D02A2869D162E02F283FD050282B
:10227000F9D184E03C206D4908706B4850F8240087
:10228000805DB84222D1684A52F82430721C9918F5
:10229000654A52F82420925D920202F100604FF4E8
:1022A000806200F008FA6248007D40B13A46791C2D
:1022B0008FB260A108A800F0A7FD054616E03A46D7
:1022C00060A108A800F0A0FD05460FE05848007D79
:1022D00030B13A4657A108A800F096FD054605E042
:1022E0003A4658A108A800F08FFD054663E0002794
:1022F00001204F49087503F00FF83C204B49087046
:10230000494951F82410881906F007FD834600F06A
:1023100071F9454951F82410881906F0FEFCC0F304
:102320008F294A464DA108A800F06EFD054642E0FF
:10233000781E484503D03EE05FE00AE035E000F05B
:1023400076F901203A49087502F0E6FF02F006F935
:1023500031E03C203549087045A108A800F054FD43
:10236000054608A9481900F0E5FC284485B208A9EB
:10237000481941A100F048FD284485B21BE03C20EB
:102380002A4908703AA108A800F03EFD054608A9B0
:10239000481900F0CFFC284485B208A9481936A195
:1023A00000F032FD284485B205E008A939A003F009
:1023B00029FB054600BF00BF012000901A4850F8D5
:1023C000240081780123052204A802F02CFA08A831
:1023D0000121CDE901050091314951F82400012383
:1023E0001A4604A902F02AFA05462D4850F824108E
:1023F0002A46504606F060FC15E09DF81E000628AF
:1024000011D09DF81E00052807D1074850F8241068
:10241000012224A0FFF746FA05E09DF81E100322D2
:1024200021A0FFF73FFAEEE6C80000208C00002054
:10243000B0B10020506167655B25645D204F4B0D96
:102440000A0000004E6F742045726173655B25645D
:102450005D204661696C0D0A0000000045726173E1
:10246000655B25645D4B62204F4B0D0A0000000048
:1024700046696E6420000000204F4B200D0A545224
:10248000544F53205265426F6F7420566572322E3E
:10249000300D0A00D3A6D3C3B4EDCEF30000000084
:1024A000DC000020257300002564000010B501F059
:1024B0004DFE022000F004F802F050F810BD0000BC
:1024C00001490860704700001404014000212349BD
:1024D0008279002A3AD00A46126803689A430B466A
:1024E0001A600A1D126803689A430B1D1A6002796C
:1024F00011440A6803681A430A60184A08321268CD
:1025000003689A43154B08331A601A1D1268036852
:102510009A43124B0C331A604279102A0ED11A1FBB
:10252000126803681A430D4B08331A601A1D1268AB
:1025300003681A43094B0C331A600DE007494279CE
:1025400011440A6803681A430A6005E002791144DD
:102550000A6803689A430A6070470000000401405B
:1025600030B5044604254FF4302000F091F80546BC
:10257000042D17D10C48006940F002000A49086197
:1025800008464461006940F0400008614FF4302083
:1025900000F07EF805460448006941F6FD710840E8
:1025A00001490861284630BD0020024004200B4943
:1025B000C96811F0010F01D001200EE00749C96878
:1025C00011F0040F01D0022007E00449C96811F09E
:1025D000100F01D0032000E00420704700200240CB
:1025E0000348006940F0800001490861704700001D
:1025F00000200240F8B50446042500260020009083
:1026000000F03AF8204601F088FD064609E00099FE
:10261000490201F10060FFF7A3FF05460098401C46
:1026200000900098B04201D2042DF0D0F8BD10B552
:10263000FFF7D6FF10BD000070B504460D46042616
:10264000F00200F025F80646042E11D10948006971
:1026500040F00100074908612580F00200F018F8F9
:1026600006460448006941F6FE71084001490861C8
:10267000304670BD002002400248034948600348CC
:10268000486070472301674500200240AB89EFCDC9
:1026900000B502460423FFF789FF034603E0FFF776
:1026A00085FF0346521E012B01D1002AF7D102B942
:1026B0000523184600BDF8B504460E4617463546B4
:1026C00000940EE029880098FFF7B6FF288800994B
:1026D0000988884201D00020F8BDAD1C0098801CFC
:1026E0000090E01900998842ECD80120F4E72DE928
:1026F000F84F82460D4617464FF000080020009024
:102700008146504600F0F4FB00F0FF0BBBF1000FD8
:102710003DD000202870002637E01AF80640302C03
:1027200001DB012000E00020392C01DC012100E068
:10273000002108402E2C01D1012100E00021084396
:102740002D2C01D1012100E0002108430BD04F4581
:1027500006D12E2C04D04046411C01F0FF082C5419
:10276000012000900FE0009868B14F4505D100228C
:102770004046411C01F0FF082A540020009009F156
:10278000010000F0FF09701CC6B25E45C5DB404683
:10279000BDE8F88F70B50B46044603E014F8015B02
:1027A00003F8015B1500A2F10106B2B2F6D170BDCB
:1027B0002DE9F04706460F4614464FF00008B9468B
:1027C00001F0BFFC2046E11704EBD151C1F34F28C3
:1027D000E11704EBD1514912B4EB412103D008F1C8
:1027E00001001FFA80F8002507E04FF4007101FB9B
:1027F000056001F088FC681C85B24545F5DB0025C5
:1028000008E039F8021B2A466B1C9DB206EB420019
:1028100001F08FFC2000A4F101018CB2F1D101F094
:1028200078FCBDE8F08701460A461068704737B566
:102830000346042401A912B1012A0CD10AE003E0E5
:1028400011F8010B03F8010B2000A4F10105ECB213
:10285000F6D100E000BF00BF04203EBD70B50446C5
:102860000025107820B116782068B0FBF6F085B20C
:102870002068084420601078984203DA1078401CE1
:10288000107002E02068401B206016782068B0FBC2
:10289000F6F080B270BD0FB438B5044606A80090BB
:1028A0002046009A059906F08DFA0020009038BC69
:1028B0005DF814FB10B504462948844208D1012173
:1028C000042002F0B3FA0021042002F0AFFA46E03F
:1028D0002448844208D10121082002F0A7FA0021EF
:1028E000082002F0A3FA3AE01F48844208D10121EF
:1028F000102002F09BFA0021102002F097FA2EE03F
:102900001A48844208D10121202002F08FFA0021C8
:10291000202002F08BFA22E01548844208D10121E0
:10292000402002F083FA0021402002F07FFA16E0F6
:102930001048844208D10121802002F077FA00215A
:10294000802002F073FA0AE00B48844207D101218B
:10295000801502F06BFA0021A01502F067FA10BD95
:1029600000080140000C014000100140001401402B
:1029700000180140001C01400020014030B5002239
:102980008B071C0F0F2303FA04F20B4B8C1053F828
:1029900024309343084C8D1044F8253023468C1086
:1029A00053F824308C07240F00FA04F42343024C1C
:1029B0008D1044F8253030BD0800014070B5002569
:1029C000144800681449097800EB4110C6690024D6
:1029D0001BE004EB440016F8200000B917E004EBFC
:1029E000440206EB8202118904EB440206EB8202E8
:1029F000506800F029F918B10120A040054302E019
:102A00000120A0408543601CC4B2FF2CE1DB00BF65
:102A1000284670BD58000020280000202DE9F04114
:102A2000024600250026002000230024002791F8FC
:102A300003C00CF00F0591F803C01CF0100F03D079
:102A400091F802C04CEA050591F800C0BCF1000FF6
:102A500031D0146800202BE04FF0010C0CFA00F389
:102A6000B1F800C00CEA03069E4220D183004FF06B
:102A70000F0C0CFA03F7BC4305FA03FC4CEA040400
:102A800091F803C0BCF1280F06D14FF0010C0CFAED
:102A900000FCC2F814C00AE091F803C0BCF1480F72
:102AA00005D14FF0010C0CFA00FCC2F810C0401C1C
:102AB0000828D1D31460B1F800C0BCF1FF0F34DD99
:102AC000546800202EE000F1080C4FF0010808FACD
:102AD0000CF3B1F800C00CEA03069E4221D183003A
:102AE0004FF00F0C0CFA03F7BC4305FA03FC4CEA59
:102AF000040491F803C0BCF1280F05D100F1080CC3
:102B000008FA0CF8C2F8148091F803C0BCF1480F21
:102B100007D100F1080C4FF0010808FA0CF8C2F8D0
:102B20001080401C0828CED35460BDE8F08100001E
:102B300038B50446002536E01D4A6068811A904287
:102B400017D009DC1B4940180DD0B0F5806F0CD0B0
:102B5000B0F5006F13D10AE0B1F5806F0BD0B1F57D
:102B6000006F0CD109E0042509E0082507E01025D5
:102B700005E0202503E0402501E0802500BF00BFDF
:102B800045F00100012102F041F920788DF80200A2
:102B90002089ADF8000060788DF803006946606810
:102BA000FFF73CFF0C3420780028C5D138BD000069
:102BB0000014014000F8FEBFF0B50A4600230024CF
:102BC0000021002500F00046B6F1004F02D11D4E55
:102BD000F16901E01B4E7168C0F3034583B200F454
:102BE0004016B6F5401F08D121F07061154E766889
:102BF00026F07066134F7E6012E000F48016B6F582
:102C0000801F06D1032606FA05F4A14341F0706146
:102C100006E0460D360103FA06F6B14341F0706155
:102C200022B1460D360103FA06F6314300F00046A4
:102C3000B6F1004F02D1034EF16101E0014E716027
:102C4000F0BD0000000001400246002093680B42E6
:102C500001D0012000E000207047416170471FB59E
:102C60001C462CB1BDF80810019800F007F804E0EC
:102C7000BDF808100198FFF7F0FF1FBD0161704714
:102C80002DE9F04104460D460848006808490978D6
:102C900000EB4110C66904EB440006EB80072B46AD
:102CA00097E80700FFF7DBFFBDE8F0815800002040
:102CB00028000020F0B504460A4600230020002525
:102CC000214633E00E78252E02D10125461CB0B2F4
:102CD000012D2AD10E78642E06D1AC461E465F1C0B
:102CE000BBB202F806C000250E78662E07D14FF061
:102CF000020C1E465F1CBBB202F806C000250E780F
:102D0000732E07D14FF0030C1E465F1CBBB202F8B6
:102D100006C000250E78632E07D14FF0040C1E4626
:102D20005F1CBBB202F806C00025491C0E78002EBD
:102D3000C8D1F0BDFEB505460026164800680090D3
:102D40001448001D00680290124808300068019085
:102D500000241BE014E05DF824003E21B0FBF1F2FA
:102D600001FB1207384604F0CFFD3146721CD6B283
:102D700068545DF824003E21B0FBF1F04DF82400CA
:102D80005DF824000028E6D1601CC4B2032CE1DB0E
:102D90003046FEBDE8F7FF1FFEB505460026194880
:102DA000006800901748001D006802901548083020
:102DB0000068019000241BE014E05DF824003E212F
:102DC000B0FBF1F201FB1207384604F09DFD3146DD
:102DD000721CD6B268545DF824003E21B0FBF1F0BD
:102DE0004DF824005DF824000028E6D1601CC4B230
:102DF000032CE1DB00223046711CCEB22A5430464F
:102E0000FEBD0000E8F7FF1F0FB438B5044606A862
:102E100000902046009A059905F0D4FF002000900C
:102E2000204600F065F838BC5DF814FB2DE9FC5F26
:102E300005460026B346B1464FF07E5A44E015F8E9
:102E4000014B2D2C01D101263EE02E2C02D14FF05A
:102E5000010B39E0302C2EDB392C2CDCBBF1000FC0
:102E60000ED11F494846FDF7E9F98146A4F130002B
:102E7000FDF7E2FB07464946FDF788F9814623E066
:102E80005046FDF740FC0746164A174BFDF7F3FA8C
:102E9000CDE90001FDF772FC8246A4F13000FDF798
:102EA000CBFB80465146FDF7C9F907464946FDF779
:102EB0006DF9814608E026B10C494846FDF7BEF998
:102EC00081464846BDE8FC9F28780028B7DC26B13B
:102ED00006494846FDF7B2F981464846F2E7000048
:102EE000000020419A9999999999B93F000080BFB3
:102EF00010B5014600200A4601E0431C98B212F8C2
:102F0000014B002CF9D110BD002000210CE001EB99
:102F10004102074B1B6803EB02121289012A01D000
:102F2000421CD0B24A1CD1B21429F0DB7047000019
:102F30004C0000200246002039B950784FF6FF734C
:102F400003EA00201378184306E010784FF6FF7369
:102F500003EA0020537818437047000010B58AB088
:102F6000002414E004EBC401002202EB81002422BF
:102F700001A905F009FF0198401C00D108E0601C80
:102F8000C4B2012004F040FFFF2C00DB00E0E9E7C1
:102F900000BF0522214603A0FEF784FC20460AB0AC
:102FA00010BD0000B4F2D3A1BCC7C2BCCBF7D2FDA8
:102FB0002564000010B500240F48FFF7B9FD562026
:102FC00000F07EF8302000F07BF8002000F078F868
:102FD0000A2000F075F8032000F072F8062000F0D7
:102FE0006FF800BF05E0FF21204600F03BFF601CAA
:102FF000C4B2202CF7DB10BD6C99000870B5002519
:10300000FFF7DCFC84B214F0100F00D1262514F079
:10301000200F00D1282514F0400F00D1272514F0EF
:10302000800F00D10D2514F4807F00D004252846A0
:1030300070BD01E001F092FAFCE7000030B50546F2
:1030400000240BE0C4F10201685C064900F0F8FDC1
:1030500004F10B01044A5054601CC4B2032CF1DB90
:1030600030BD00009B99000894B10020124890F8F0
:10307000870020B1012809D0022815D10DE00F48A2
:10308000C07A40F008000D49C87212E00B48007B7E
:1030900040F00800094908730BE00848407B40F005
:1030A00008000649487304E00020034981F88700BE
:1030B00000BF00BF70470000CCB0002094B10020DA
:1030C00010B504464FF400410B48FFF7C6FD03203E
:1030D00000F044F80421802000F010F80821204678
:1030E00000F00CF84FF400410348FFF7C7FD04203F
:1030F00000F034F810BD00000010014070B5044627
:103100000D46002624E04FF480411348FFF7A5FD4B
:10311000032000F023F814F0800F05D04FF4005185
:103120000D48FFF7ABFD04E04FF400510A48FFF7EC
:1031300094FD032000F012F84FF480410648FFF799
:103140009DFD6006040E012000F008F8701CC6B258
:10315000AE42D8DB70BD00000010014000EB400122
:1031600088B200BF0100A0F1010290B2FAD170470D
:1031700010B5002400BF12E00A4A125D02F00F01F0
:103180006206100E00F06EFE064A125D1111012259
:1031900002EB4402D0B200F065FE601CC4B21B2CEE
:1031A000EADB10BD94B1002003B59DF800000A21B0
:1031B00090FBF1F04949085C494988739DF800008B
:1031C0000A2190FBF1F201FB12004449085C4449DA
:1031D000C8730846C07B40F00800C8739DF8010022
:1031E0000A2190FBF1F03D49085C3D4908749DF8C7
:1031F00001000A2190FBF1F201FB12003749085C43
:10320000374948740846407C40F0080048749DF8EF
:1032100002000A2190FBF1F03049085C30498874C3
:103220009DF802000A2190FBF1F201FB12002B49EC
:10323000085C2B49C8749DF804000A2190FBF1F04A
:103240002649085C264908759DF804000A2190FB70
:10325000F1F201FB12002149085C2149487508463A
:10326000407D40F0080048759DF805000A2190FB5C
:10327000F1F01A49085C1A4988759DF805000A2181
:1032800090FBF1F201FB12001449085C1449C87567
:103290001448007820B10846C07D40F00800C87589
:1032A0001048007808B9012000E000200D4908709E
:1032B0009DF806000A2190FBF1F00849085C0849D6
:1032C00008769DF806000A2190FBF1F201FB12003E
:1032D0000249085C024948760CBD00008499000848
:1032E00094B1002098000020FEB504461B22002166
:1032F0004F48FDF797FD012C02D0022C48D148E041
:103300004C4991F88710002202EB4102494998315B
:1033100051F83200FDF7F7F905462A460B4646A15B
:103320006846FFF7B8FA684602F09FFB684600F06F
:1033300009FD3F48007940F008003D490871084602
:10334000007A40F0080008723A4991F8871001228B
:1033500002EB41023749983151F83200FDF7D3F9B9
:1033600005462A460B4634A16846FFF794FA68469C
:1033700002F07BFB684600F071FC2D48C07840F0FD
:1033800008002B49C8700846407840F00800487093
:103390004AE0284991F88710002202EB41022549B2
:1033A000983101EBC2014868FDF7ADF905462A46A0
:1033B0000B4621A16846FFF76EFA684602F055FBFE
:1033C000684600F0BFFC1A48007940F00800184930
:1033D00008710846C07940F00800C871154991F895
:1033E0008710012202EB41021249983101EBC20120
:1033F0004868FDF788F905462A460B460EA168463F
:10340000FFF749FA684602F030FB684600F026FCF8
:103410000748C07840F008000549C87008460078A1
:1034200040F00800087000BF00BFFFF7A1FEFEBD1E
:1034300094B10020CCB00020252E31662020000061
:103440003EB51B220021FE48FDF7ECFCFD4803C8F9
:10345000FFF7AAFEFB48803890F8870020B10128CA
:1034600044D0022841D183E0F6488038008C10F423
:10347000807F34D0F349803991F88710002202EB25
:103480004101F04A803A52F82100FDF73CF9044628
:1034900022460B46ECA16846FFF7FDF9684602F0AC
:1034A000E4FA684600F04EFCE649803991F887104E
:1034B000012202EB4101E34A803A52F82100FDF774
:1034C00022F9044622460B46DFA16846FFF7E3F9DE
:1034D000684602F0CAFA684600F0C0FB05E0DCA0CE
:1034E00000F030FCDAA000F0B9FB83E0D54880386A
:1034F000008C10F4007F34D0D249803991F88710C5
:10350000002202EB4101CF4A803A52F82100FDF738
:10351000FAF8044622460B46CBA16846FFF7BBF9F2
:10352000684602F0A2FA684600F00CFCC5498039F2
:1035300091F88710012202EB4101C24A803A52F809
:103540002100FDF7E0F8044622460B46BEA168467E
:10355000FFF7A1F9684602F088FA684600F07EFBA2
:1035600005E0BBA000F0EEFBB9A000F077FB41E066
:10357000B4488038008C10F4805F34D0B149803971
:1035800091F88710002202EB4101AE4A803A52F8CE
:103590002100FDF7B8F8044622460B46AAA168466A
:1035A000FFF779F9684602F060FA684600F0CAFB56
:1035B000A449803991F88710012202EB4101A14A08
:1035C000803A52F82100FDF79EF8044622460B4649
:1035D0009DA16846FFF75FF9684602F046FA684623
:1035E00000F03CFB05E09AA000F0ACFB98A000F0D6
:1035F00035FB00BF00BF9248007940F008009049B9
:1036000008710846C07840F00800C8708D488038BE
:10361000B0F8582090A16846FFF73DF96846FFF7DB
:103620000DFD01208649487286488038008C10F4D0
:10363000006F28D08A480078012804DD0846407AC7
:1036400040F00800487286480078022805DD7C4872
:10365000407A40F00C007A4948728148007803288B
:1036600005DD7748407A40F00E00754948727C4885
:1036700001780078401C7A4A1070032936DD012059
:103680001146087032E06F4980398868FDF73BF8D1
:1036900004460022734BFDF75DF805D26848407A76
:1036A00040F0040066494872664980398868FDF731
:1036B0002AF804466C4A6D4BFDF74CF805D2604879
:1036C000407A40F002005E4948725E49803988685D
:1036D000FDF719F804460022654BFDF73BF805D2CB
:1036E0005748407A40F0080055494872554880389C
:1036F00090F89000632801DA012000E00020514991
:10370000803991F89010002901DD012100E00021AD
:10371000084205D04A48407A40F0100048494872B3
:103720004848803890F89000632801DA012000E0D2
:1037300000204449803991F890100A2901DD0121C7
:1037400000E00021084205D03D48407A40F02000CA
:103750003B4948723B48803890F89000632801DA72
:10376000012000E000203749803991F89010142999
:1037700001DD012100E00021084205D03048407AF7
:1037800040F040002E4948722E48803890F8900052
:10379000632801DA012000E000202A49803991F8ED
:1037A00090101E2901DD012100E00021084205D012
:1037B0002348407A40F080002149487221488038EF
:1037C00090F8200010F0100F05D01D48807B40F0CD
:1037D00040001B4988731B48803890F8200010F087
:1037E000010F05D01648007A40F00800144908720D
:1037F0001448803890F8200010F0020F05D01048CF
:10380000C07940F008000E49C8710E48803890F821
:10381000200010F0040F05D00948407840F008005F
:10382000074948700748803890F8200010F0080FCA
:1038300005D00348007840F008000149087019E0FD
:1038400094B100204CB10020252E316620200000CC
:103850002D2D2D2D2D00000025303364202000005B
:103860009900002000000C409A99999999990D406F
:1038700000001040084890F8200010F0400F05D0DC
:103880000648807A40F0100004498872FFF7EEFB8A
:10389000FFF76EFC3EBD0000CCB0002094B10020CC
:1038A000FEB504461B2200215748FDF7BBFA062C43
:1038B00028D2DFE804F0A403284E7399534991F805
:1038C0008710002202EB41025049283151F83200A2
:1038D000FCF719FF05462A460B464DA16846FEF740
:1038E000DAFF684602F0C1F8684600F02BFA464855
:1038F000007940F00800444908710846007A40F019
:10390000080008727BE0414991F88710002202EB21
:1039100041023E49283101EBC2014868FCF7F3FE41
:1039200005462A460B463AA16846FEF7B4FF6846AC
:1039300002F09BF8684600F005FA3348007940F041
:103940000800314908710846C07940F00800C87184
:1039500055E02E4991F88710012202EB41022B49D4
:10396000283151F83200FCF7CEFE05462A460B46B8
:1039700027A16846FEF78FFF684602F076F8684692
:1039800000F06CF92048C07840F008001E49C8706B
:103990000846407840F00800487030E01B4991F834
:1039A0008710012202EB41021849283101EBC201C4
:1039B0004868FCF7A8FE05462A460B4614A168464F
:1039C000FEF769FF684602F050F8684600F046F9D5
:1039D0000D48C07840F008000B49C87008460078D0
:1039E00040F0080008700AE00848B0F858200AA122
:1039F0006846FEF750FF6846FFF720FB00BF00BF98
:103A0000FFF7B6FBFEBD000094B10020CCB0002053
:103A1000252E316620200000253033642020000050
:103A200010B510220C4B83F880201A4692F88020A3
:103A30000A2392FBF3F2094B9A5C094B9A73064AEC
:103A400092F880200A2392FBF3F403FB1422034B29
:103A50009A5C034BDA7310BDCCB000208499000847
:103A600094B10020F0B587B00446002504E00020A2
:103A70006A494855681CC5B2102DF8DB052C2AD2BE
:103A8000DFE804F0032A5179A1006549D1F89800D4
:103A9000FCF739FE064632460B4662A104A8FEF743
:103AA000FAFE5F49D1F89C00FCF72DFE064632462F
:103AB0000B465CA101A8FEF7EEFE04A800F042F957
:103AC00001A800F0CBF85548007940F002005349B6
:103AD0000871A020887391E05149D1F8A000FCF74B
:103AE00012FE064632460B464EA104A8FEF7D3FE50
:103AF0004B49D1F8A400FCF706FE064632460B46B9
:103B000048A101A8FEF7C7FE04A800F01BF901A810
:103B100000F0A4F84148807940F001003F498871E5
:103B2000A02088736AE03E49886AFCF7ECFD0646EF
:103B300032460B463BA104A8FEF7ADFE3849C86AE1
:103B4000FCF7E1FD064632460B4636A101A8FEF71A
:103B5000A2FE04A800F0F6F801A800F07FF82F48B4
:103B6000007940F002002D4908710846007940F0C4
:103B70000100087142E02A49086BFCF7C4FD0646C3
:103B800032460B4629A104A8FEF785FE2449486B5E
:103B9000FCF7B9FD064632460B4624A101A8FEF704
:103BA0007AFE04A800F0CEF801A800F057F81B48F0
:103BB000807940F00100194988710846407940F049
:103BC000010048711AE01BA104A8FEF764FE144826
:103BD00090F8942018A101A8FEF75DFE04A800F05B
:103BE000B1F801A800F03AF800200D4908770B4819
:103BF000807B40F00A000949887300BF00BF0020A5
:103C00000649C873064A92F8851092F88400FFF7B7
:103C100007FFFFF7ADFA07B0F0BD000094B1002038
:103C2000CCB00020252E326620200000252E3266E2
:103C300020000000202020002530336420202000B8
:103C400070B505460C4604480168284601F016FE8A
:103C5000265C304670BD0000780000202DE9F04160
:103C600006460025A8463746042200213348FDF7C2
:103C7000D9F806E038782E2800D105E07F1C681CB2
:103C8000C5B238780028F5D100BF07E038782E2873
:103C900003D008F1010000F0FF087F1C38780028ED
:103CA000F4D13746B8F1000F01D1012000E0002027
:103CB000032D01DD012100E0002108431ED0032D6A
:103CC0000CDD002407E0305D1D49FFF7B9FF1B49FB
:103CD0000855601CC4B2042CF5DB2DE000240AE07A
:103CE000291B705C1649FFF7ABFFC4F10401134AAE
:103CF0005054601CC4B2AC42F2DB1DE005EB08017D
:103D0000705C0F49FFF79CFF0C49C87000240BE062
:103D1000291B491E705C0A49FFF792FFC4F102019A
:103D2000064A5054601CC4B2AC42F1DB03488078B0
:103D300040F0080001498870BDE8F08194B100208E
:103D40009B9900082DE9F04106460025A846374614
:103D5000042200213648FDF765F806E038782E2861
:103D600000D105E07F1C681CC5B238780028F5D169
:103D700000BF07E038782E2803D008F1010000F0DA
:103D8000FF087F1C38780028F4D13746B8F1000FBF
:103D900001D1012000E00020042D01DD012100E01F
:103DA0000021084321D0042D0FDD00240AE0305DFE
:103DB0002049FFF745FFC4F108011D4A121F505466
:103DC000601CC4B2052CF2DB30E000240AE0291BA1
:103DD000705C1849FFF734FF211D154A121F50541B
:103DE000601CC4B2AC42F2DB20E005EB0801705C61
:103DF0001049FFF725FF0E49091F087100240BE049
:103E0000291B491E705C0B49FFF71AFF611D084A08
:103E1000121F5054601CC4B2AC42F1DB0448001FB6
:103E2000407940F008000249091F4871BDE8F0815F
:103E300098B100208499000870B504460D4605F03D
:103E40000F01204600F00EF82911621CD0B200F0DC
:103E500009F8204604EBD0714910014A555470BD51
:103E600094B1002070B504460D464FF400410D4852
:103E7000FEF7F3FE0320FFF771F90321A020FFF7FF
:103E80003DF9A106080E0621FFF738F92907080EAB
:103E90000421FFF733F94FF400410248FEF7EEFE2C
:103EA00070BD00000010014010B504460120A0477D
:103EB0000320A04710BD2DE9FF47074616461C46C4
:103EC000DDE90C899DF804004006000E0190002CED
:103ED00016DD384600F0C0F8012201A9384600F08E
:103EE00076F8054635B93846FFF7DEFF002004B006
:103EF000BDE8F08722463146384600F068F80546AE
:103F0000384600F0A9F89DF8040040F00100019047
:103F1000012201A9384600F05AF805464A464146B2
:103F2000384600F006F80546384600F0ACF828465A
:103F3000DDE72DE9F04704460E461546A94628E080
:103F40004FF00008002714E07806070E0320A04772
:103F50000A2005F0AFFB0520A04708B147F0010794
:103F60000420A0470A2005F0A5FB08F1010000F09D
:103F7000FF08B8F1080FE7DB06F8017B002D04DD30
:103F80000021204600F00DF803E00121204600F05A
:103F900008F82800A5F10101CDB2D1D14846BDE80D
:103FA000F08770B504460D4615B10120A04701E029
:103FB0000220A0470320A0470A2005F07BFB042035
:103FC000A0470A2005F076FB0120A04770BD2DE92F
:103FD000F04704460E461546A94639E016F8018B0F
:103FE000002717E018F0800F02D00120A04701E061
:103FF0000220A0470320A0470A2005F05BFB042015
:10400000A0470A2005F056FB781CC7B24FEA48606B
:104010004FEA1068082FE5DB0120A0470320A047E6
:104020000A2005F047FB0520A04782460A2005F03C
:1040300041FB0420A0470A2005F03CFBBAF1000F29
:1040400004D0A9EB0500C0B2BDE8F087681EC5B278
:10405000002DC3D14846F7E710B504460320A0471A
:10406000052005F027FB0120A0470A2005F022FBD0
:104070000220A0470A2005F01DFB0420A0470A20CB
:1040800005F018FB10BD10B504460220A04714200F
:1040900005F010FB0320A0470A2005F00BFB0120D0
:1040A000A0471E2005F006FB10BD2DE9FF4707467F
:1040B00014461D46DDE90C899DF804004006000EFB
:1040C00001903846FFF7C8FF012201A93846FFF7E3
:1040D0007EFF064636B93846FFF7E6FE002004B0FC
:1040E000BDE8F0872A4621463846FFF770FF0646AE
:1040F0004A4641463846FFF76AFF06463846FFF70C
:10410000C2FF3046EBE710B504462046FEF728FA1A
:1041100010BD10B5FEF764FA10BD01B5002000997E
:10412000CA05D20D03D0012202EB512000E0480A5B
:1041300008BD70B504460D4629462046FEF77CFAB8
:1041400070BD10B5FEF798FA10BD000008B501214A
:10415000082000F05BFE4FF40060ADF80000012085
:104160008DF8020048208DF8030069460848FEF7E4
:1041700055FC4FF48060ADF8000001208DF802007E
:1041800010208DF8030069460148FEF747FC08BD82
:10419000000C01402DE9F041054609492846FCF78D
:1041A0004DF80746FCF77CFA86B2A6F5617032211D
:1041B00090FBF1F0C4B284F020042046BDE8F08109
:1041C000000048437CB5044607226946002000F001
:1041D000D1F805460DB900207CBD9DF8001001F016
:1041E0007F00FCF706FEA0719DF8011001F07F0032
:1041F000FCF7FFFD60719DF8021001F03F00FCF735
:10420000F8FD20719DF8031001F03F00FCF7F1FD6F
:10421000A0709DF8041001F01F00FCF7EAFD60702B
:104220009DF80500FCF7E5FD20709DF80600FCF701
:10423000E0FDE0700120CFE770B504460025062CB4
:1042400033D2DFE804F032030C151E27184A126837
:104250001189174A12685068FEF710FD25E0144ACC
:1042600012681189124A12685068FEF7F6FC1CE0C9
:104270000F4A1268918A0E4A12681069FEF7FEFC16
:1042800013E00B4A1268918A094A12681069FEF716
:10429000E4FC0AE0064A12681189054A126850686F
:1042A000FEF7D2FC00B1012500BF00BF284670BD5B
:1042B000C400002038B5054600242C48056000687D
:1042C000FEF736FC01226946122000F053F804463E
:1042D0009DF800005D2847D01021072000F0DAF893
:1042E00004409021082000F0D5F804402048FFF752
:1042F00051FF00909DF800100A2000F0CBF8044018
:1043000000210B2000F0C6F804405D21122000F0CF
:10431000C1F8044000231A461946184600F03AF83E
:1043200004400021084600F0B5F8044000210120B7
:1043300000F0B0F804408021022000F0ABF8044007
:104340000121032000F0A6F804400121042000F020
:10435000A1F804400021052000F09CF8044006214B
:10436000084600F097F80440204638BDC4000020FD
:104370000000C04037B582B00C461546012302AAA2
:104380006F210348CDE90045FFF795FD05B030BD2D
:10439000394200082DE9F84381460F4690461C46F5
:1043A00001264046FDF761FB8DF800003846FDF719
:1043B0005CFB8DF801004846FDF757FB8DF80200C5
:1043C00014F0010F05D09DF8000040F080008DF83A
:1043D000000014F0020F05D09DF8010040F08000AD
:1043E0008DF8010014F0040F05D09DF8020040F094
:1043F00080008DF80200002509E01DF8051005F188
:104400000C02D0B200F046F80640681CC5B2032D7D
:10441000F3DB002C05DDD021082000F03BF806403E
:1044200004E09021082000F035F806403046BDE851
:10443000F8837CB50446A079FDF717FB8DF80000E2
:104440006079FDF712FB8DF801002079FDF70DFB77
:1044500040F080008DF80200A078FDF706FB8DF893
:1044600003006078FDF701FB8DF804002078FDF76C
:10447000FCFA8DF80500002507E01DF80510E8B2EC
:1044800000F008F80640681CC5B2072DF5DB304681
:104490007CBD000003B583B0012004A9034603AA34
:1044A000CDE900106F210248FFF7FFFD05B000BD08
:1044B0003942000870B504460D462B462246024993
:1044C000024800F005F870BD00F8030895270008C1
:1044D0002DE9F0470746884614461D46A14608EBDD
:1044E000C52004222146B8474E463088B0F5006FFB
:1044F00001DD012000E000203188042901DA0121DA
:1045000000E00021084300D013E0328808EBC5200A
:104510002146B8473088001F81B209F1040003F03A
:1045200009FA82467188514500D002E00120BDE8B9
:10453000F0870020FBE770B505460C46214628466B
:1045400003F0F8F906462046611C8CB22E54321254
:104550002046611C8CB22A54204670BD71B600BF43
:104560000648006800F4E06005490843001D03495F
:104570000860BFF3408F00BF00BFFEE70CED00E016
:104580000000FA0570B5054625B1284603F05AFD2E
:10459000044602E003F020FD044614B1666830468C
:1045A00070BD0020FCE70000F0B59DB005460C464C
:1045B000607A48B1627A04A96068FCF722FC0020A6
:1045C000617A04AA505403E004A9606801F01AFA61
:1045D000207A0D2839D009DC75D2DFE800F0AC1064
:1045E000ACAC231C63ACAC42AC152F0017380728C9
:1045F000F2D2DFE800F03D46A03074825F0028462A
:104600002168FEF748F99BE0606802782846216837
:10461000FEF741F994E06068028828462168FEF7B9
:104620003AF98DE061680868FCF76DF806460B46BC
:10463000324628462168FEF72EF981E0606802784C
:1046400028462168FEF727F97AE02846D4E90012C7
:10465000FEF721F974E004AA28462168FEF71BF949
:104660006EE06068026828462168FEF714F967E08A
:10467000606880470646324628462168FEF70BF9F7
:104680005EE060680078002801DD012000E0002085
:1046900000EB40002C4B03EB400228462168FEF75C
:1046A000FAF84DE0606890F9002028462168FEF78E
:1046B000F2F845E060680068667A0123B34018426A
:1046C00002D0012001E036E0002000EB40001E4B4C
:1046D00003EB400228462168FEF7DDF830E0606811
:1046E000007861684978CDE9001060688378C27805
:1046F00028462168FEF7CFF822E06168098888B271
:1047000001F0BCFA03906168098888B201F0B6FA3A
:1047100002906168098888B201F0B0FA01909DF8B2
:104720000E0000909DF809309DF80420284621686D
:10473000FEF7B1F804E028462168FEF7ACF800BFA8
:1047400000BF1DB0F0BD0000BC99000800BFFEE72F
:10475000054A1168486802E009684A6810440A6816
:10476000002AF9D1704700005C00002002460A4B85
:104770001868002106E0A2F10803834200D107E097
:10478000014600680368002BF5D101B10B6070474A
:1047900003680B6000BFFAE75C0000200146A1F14E
:1047A0000802506808387047054908600021044A2B
:1047B000126811600821024A1268516070470000B7
:1047C0005C00002010B503461048016803F10800A2
:1047D00083B20FE00868401A4C68001B984208D367
:1047E000486842185360086810600A6002F10800C7
:1047F00010BD096808680028ECD1486842180020FC
:10480000106053600A6002F10800F1E75C000020CC
:10481000014600200A4602E00C32431CD8B2137A4B
:10482000002BF9D1704730B5039C7E2505707F259C
:10483000057382704170C373447330BD2DE9F05F1E
:1048400006460C4691469A46DDF828B00C9F002596
:1048500084F8039084F804A084F808B0678117B145
:10486000F81CE08001E00020E08022782846691CE6
:104870008DB23254E07B50B9A2782846691C8DB2C3
:10488000325462782846691C8DB232540CE0E07BC9
:10489000012809D162782846691C8DB23254A27869
:1048A0002846691C8DB23254E2782846691C8DB2C4
:1048B000325422792846691C8DB23254E0880212A3
:1048C0002846691C8DB23254A2792846691C8DB2E3
:1048D0003254BFB1227A2846691C8DB232546089A5
:1048E00002122846691C8DB23254A27A2846691CED
:1048F0008DB23254628971190B98FCF782FA608983
:10490000284485B2607B012810D12946304603F047
:1049100011F880464FEA28222846691C8DB232548D
:104920002846691C8DB206F800800BE0607B0228E7
:1049300008D1681E81B2304603F038F829466A1C57
:1049400095B27054227B2846691C8DB23254284699
:10495000BDE8F09F2DE9F05F06468B461446002522
:10496000AA460120A07329466D1C705C21788842FC
:1049700000D099E0E07B50B92846691C8DB2305CCC
:104980006178884200D093E0681C85B220E0E07B2B
:1049900001281DD12846691C8DB216F80080A07828
:1049A000404501D0012000E00020B8F1FF0F01D008
:1049B000012100E00021084200D079E0681C85B2A6
:1049C000B8F1FF0F02D14FF0010901E04FF00009EB
:1049D0002846691C8DB2305CE0702846691C8DB297
:1049E000305C20712846691C8DB2305CE080E08824
:1049F0004FF6FF7101EA0020E080E08829466A1C3A
:104A000095B2715C0843E080E08800B32846691CD9
:104A10008DB2305C20722846691C8DB2305C60819A
:104A200060894FF6FF7101EA0020608160892946A4
:104A30006A1C95B2715C08436081AA46608928446B
:104A400085B2E1886089C01C814200D034E0607B7F
:104A5000022809D12946304602F0A8FF0746715DB9
:104A6000B94200D01CE010E0607B01280CD129463F
:104A7000304602F05FFF074670190121FEF75AFA2F
:104A8000B84200D00CE000E000BFB9F1010F02D144
:104A90000620A07301E00020A0735046BDE8F09FFF
:104AA0000220A0730020F9E70520A0730020F5E79D
:104AB0000620A0730020F1E70120A0730020EDE79D
:104AC0007047000070B5002100230F22C4780CB39A
:104AD000164C246804F4E064C4F5E064210AC1F1D2
:104AE0000403CA40447804FA03F184781440214353
:104AF00009010F4C0678A155047804F01F05012424
:104B0000AC4005786D114FF0E02606EB8505C5F841
:104B1000004109E0047804F01F050124AC40054D74
:104B20000678761145F8264070BD00000CED00E0D7
:104B300000E400E080E100E002490143024A116024
:104B4000704700000000FA050CED00E00149086222
:104B50007047000000000E420A48006840F0040060
:104B6000084908600846006840F0020008600648EE
:104B7000006840F004000449086000BF00BF30BF77
:104B8000704700000070004010ED00E010B50246D4
:104B900000200C4B186820F00300104318600A4BEB
:104BA0001B6843F00403084C2360012901D130BF86
:104BB00000E020BF044B1B6823F00403024C236079
:104BC00010BD00000070004010ED00E001490860D9
:104BD00070470000A0000E427047000010B503228D
:104BE00009A10CA0FCF75EFE03220EA111A0FCF7A8
:104BF00059FE0322134914A0FCF754FE032217495F
:104C000017A0FCF74FFE10BD545035303056322DF2
:104C100047000000426F6172645F4E616D653A2526
:104C20007300000053544D333246313033524254F6
:104C3000360000004350555F4D6F64656C3A257334
:104C40000000000000127A004370755F4F53435F0D
:104C5000465245513A2025644D687A0000A24A0424
:104C60004370755F467265713A2025644D687A001D
:104C70007047000000B585B06846FEF78DF8032246
:104C8000694602A0FCF70EFE05B000BD4F6E6C79C0
:104C900049443A25730000007047000010B5032115
:104CA00008A0FCF7FFFDFFF799FFFFF7E1FFFFF713
:104CB000E1FFFCF725FF00F013F8FFF7EDFF00F030
:104CC0002FF810BD0A546F732053797374656D20EB
:104CD00053746172742E2E2E2E2E2E2E2E2E2E00FA
:104CE00010B5FEF711F9044603232246142102A051
:104CF000FCF7D8FD10BD00005461736B506F6F6CF2
:104D000053697A653A25642062757420686173205E
:104D10002564207461736B206372656174652E0075
:104D200038B500241DE004EB44001549096801EB87
:104D30000010C06A98B10320009004EB44001049B1
:104D4000096801EB0010038C04EB44000C4909686E
:104D500001EB00102146C26A0AA0FCF7A3FD601C0B
:104D6000C4B2142CDFDB601EC4B2FFF7F1FC0546B1
:104D700003232A464AF6C87107A0FCF793FD38BD05
:104D80004C0000205461736B5B25645D4E616D6562
:104D90003A257328256429004D656D6F7279536932
:104DA0007A653A25642062757420757365723A25B8
:104DB0006400000001460020034A506820F440408F
:104DC00008435060704700000010024029B1064AB5
:104DD00052690243044B5A6104E0034A5269824318
:104DE000014B5A61704700000010024029B1064A89
:104DF000D2690243044BDA6104E0034AD269824378
:104E0000014BDA61704700000010024029B1064AE8
:104E100092690243044B9A6104E0034A9269824317
:104E2000014B9A61704700000010024029B1064A08
:104E3000D2680243044BDA6004E0034AD26882433A
:104E4000014BDA60704700000010024030B50021CD
:104E50000022002400232D4D6D6805F00C0121B1C6
:104E6000042905D0082923D105E0294D056022E059
:104E7000274D05601FE0254D6D6805F47012234D28
:104E80006D6805F48034022505EB92421CB9214D72
:104E9000554305600BE01D4D6D6815F4003F03D0D0
:104EA0001C4D5543056002E0194D5543056002E075
:104EB000174D056000BF00BF144D6D6805F0F0018F
:104EC0000909154D6B5C0568DD4045600F4D6D6847
:104ED00005F4E061090A104D6B5C4568DD408560B2
:104EE0000A4D6D6805F46051C90A0B4D6B5C45684D
:104EF000DD40C560054D6D6805F44041890B074DE7
:104F00006B5CC568B5FBF3F5056130BD0010024070
:104F100000127A0000093D0000000020100000206F
:104F200010B501210148FDF747FE10BD0002300019
:104F300021B1028842F04002028004E002884FF66C
:104F4000BF731A400280704770B505460C4616467E
:104F500010211048FDF781FE032000F05DF9C4F335
:104F6000074000F059F9C4F3072000F055F9E0B20A
:104F700000F052F904E0FF2000F04EF928706D1C9B
:104F80003000A6F101018EB2F5D110210148FDF7E4
:104F900075FE70BD000801402DE9F05F07460E4622
:104FA00014464FF00008C146C2460025AB4606F045
:104FB000FF0ACAF10000C5B22046E11704EB115107
:104FC000C1F30738E11704EB11510913A4EB0131C8
:104FD00001F0FF09BAF1000F20D1B8F1000F05D19F
:104FE00022463146384600F0C5F864E009E04FF447
:104FF00080523146384600F0BDF806F5805607F578
:1050000080575FEA0800A8F1010101F0FF08EED126
:105010004A463146384600F0ADF84CE0B8F1000F92
:1050200018D1A94510DDA9EB050000F0FF0B2A46B9
:105030003146384600F09EF82E442F445A463146F9
:10504000384600F097F836E022463146384600F000
:1050500091F830E0601B84B22046E11704EB115157
:105060004FEA2138E11704EB11510913A4EB013188
:1050700001F0FF092A463146384600F07BF82E44FD
:105080002F4409E04FF480523146384600F072F860
:1050900006F5805607F580575FEA0800A8F1010180
:1050A00001F0FF08EED1B9F1000F04D04A463146B5
:1050B000384600F05FF8BDE8F09F000000B587B00B
:1050C00001212420FFF7A2FE01210803FFF79EFE25
:1050D0002020ADF8040003208DF8060018208DF87C
:1050E000070001A92148FDF799FC4020ADF8040014
:1050F00001A91E48FDF792FC8020ADF8040001A92B
:105100001A48FDF78BFC1020ADF804008DF807005D
:1051100001A91648FDF782FC10211448FDF7AEFDE9
:105120000020ADF808004FF48270ADF80A000020AE
:10513000ADF80C000220ADF80E000120ADF8100013
:105140004002ADF812003820ADF814000020ADF890
:1051500016000720ADF8180002A9054800F0AEF8C7
:1051600001210348FFF7E4FE07B000BD000801403D
:105170000030014070B505460C46164600F080F838
:1051800010211348FDF769FD022000F045F8C4F333
:10519000074000F041F8C4F3072000F03DF8E0B20A
:1051A00000F03AF8B6F5805F01DD4FF4805603E079
:1051B000287800F031F86D1C3000A6F101018EB2A4
:1051C000F6D110210248FDF759FD00F041F870BDFD
:1051D0000008014010B5044600F052F800F038F81D
:1051E00010210C48FDF739FD202000F015F8C4F31C
:1051F000074000F011F8C4F3072000F00DF8E0B20A
:1052000000F00AF810210348FDF738FD00F020F8FF
:1052100010BD00000008014010B5044600BF022187
:105220000A4800F03DF80028F9D02146074800F070
:1052300043F800BF0121054800F032F80028F9D0FA
:10524000024800F036F8C0B210BD00000030014046
:1052500010B5002410210948FDF7FFFC0520FFF7D9
:10526000DBFF00BFFF20FFF7D7FF044614F0010F5C
:10527000F8D110210148FDF701FD10BD00080140E3
:1052800010B510210548FDF7E8FC0620FFF7C4FF24
:1052900010210248FDF7F2FC10BD0000000801409B
:1052A0000246002013890B4201D0012000E00020BB
:1052B00070470146888970478181704710B5002288
:1052C000028802F441520B884C8823438C88234384
:1052D000CC8823430C8923434C8923438C89234363
:1052E000CC8923431A430280838B4FF2FF742340FF
:1052F00083830B8A038210BD7047000070B504469B
:105300000D462B4622460249024800F017F870BDB0
:1053100000F80308B127000810B5182004490880D8
:1053200000230A460349044800F008F810BD0000B5
:10533000B0B10020004C0008B12700082DE9F0476B
:105340008046894614461F4625462E463088001F53
:1053500081B2201D02F0EEFA7080328809EBC7207E
:105360002946C047BDE8F087BAB0064637463846FA
:1053700003F042FB0120034605220146009004A8E9
:10538000FFF751FABCE1DF4908683221FBF7FAFD6B
:10539000002332221946384603F022FC0546D9493B
:1053A00004AA08682946FFF7D5FA0546ECB29DF82D
:1053B0001E0000286FD19DF81300292851D009DC68
:1053C0000B2869D2DFE800F056415C4750611F2589
:1053D0002B3731004C287DD00CDC36287BD004DC08
:1053E000342879D0352857D1B3E03C2855D04B2804
:1053F000F9D11DE14D2870D04E286FD04F286ED0C6
:105400005028F0D13BE108A9BFA000F0FBFA054607
:105410003EE108A9BEA000F0F5FA054638E108A96A
:10542000BDA000F0EFFA054632E108A9BDA000F0EA
:10543000E9FA05462CE1002004230322BFA10090D5
:1054400008A8FDF728FA0A2522E108A9BFA000F064
:10545000D9FA05461CE108A9BEA000F0D3FA05461A
:1054600016E100F0EDFB13E108A9BCA000F0CAFAB8
:1054700005460DE108A9BAA000F0C4FA054607E107
:1054800008A8FDF789FC102502E108A9B6A000F0E4
:10549000B9FA0546FCE01EE1F4E0B74800220168D5
:1054A00008A8FDF7C4F90546B34A516808AA50197F
:1054B0000022FDF7BCF90544AF4A916808AA5019CB
:1054C0000022FDF7B4F90544AC48027829466D1C6A
:1054D00008A805E006E021E010E06EE05FE066E08D
:1054E0004254D5E087490968085DFCF7B7FA08A976
:1054F000A348006800F086FA0546C9E0814A1368AF
:10550000621C995C7F4A1268105DFEF795FC08A941
:105510009B48006800F076FA0546B9E079480068D3
:10552000025D9548283050F83210002208A8FDF797
:105530007EF90546734A1268135D8F4A283202EBE2
:10554000C302516808AA50190022FDF770F90544FA
:105550009EE06C490A68611C5018FDF764F9014629
:1055600068480068025D8448283040F83210654978
:105570000A68611D5018FDF756F901466148006838
:10558000025D7D48283000EBC200416008A97C48DC
:10559000006800F037FA054601F0A4FE78E05949AA
:1055A0000968081901F002FD4FF6FF7570E001F07F
:1055B000DDF8FEF7D3FF00256AE052480068005D81
:1055C0006D4981F880004F480168601C095C6A4899
:1055D00080F881104B480168A01C095C664880F87F
:1055E000821048480168E01C095C634880F8841018
:1055F00044480168201D095C5F4880F885104148D7
:105600000168601D095C5C4880F886103D480168AF
:10561000A01D095C584880F8831008A95848006804
:1056200000F0F0F9054654488030FEF702FF2FE005
:1056300034480068005D012802D002281CD112E025
:10564000304A1368A21C99182E4A1368621C985C91
:10565000FBF7F6FB2B490A68611C505C08A9FBF7B5
:1056600077FC054609E027490A68611C505C08A9D7
:10567000FBF76EFC054600E000BF00BF08E03046C7
:10568000FCF7A2FD08A93FA000F0BCF9054600BF49
:1056900000BFA5F57F40FF3832D0012000901948A7
:1056A000006881780123052204A8FFF7BCF808A848
:1056B0000121CDE901050091344901231A4608680A
:1056C00004A9FFF7BBF8054630482A460168304870
:1056D00003F0F2FA14E09DF81E00062810D09DF8A1
:1056E0001E00052806D107480122016829A0FCF701
:1056F000D9F805E09DF81E10032227A0FCF7D2F888
:1057000041E60000C80000205620322E3130000053
:105710005620362E313200005452544F5320342E2E
:10572000300000004A756E2020352032303137209D
:105730002D2031313A34303A35330000562025647B
:105740002E25642E2564206E000000005450353054
:10575000305632005254552D545000004E42000035
:1057600048656C6C6F00000053544D333246313045
:105770003352425436000000CCB0002040000020DC
:10578000900000204E756C6C00000000DC000020D2
:1057900000380140257300002564000008B5002092
:1057A000304981F88800084690F85C0010F0400FFE
:1057B00037D001212C48FCF76BF869466846FBF7A7
:1057C000DFFC30B9274890F88800401C254981F853
:1057D000880020212448FCF75BF869466846FBF7FF
:1057E000CFFC30B91F4890F88800401C1D4981F853
:1057F000880040211C48FCF74BF869466846FBF7D7
:10580000BFFC30B9174890F88800401C154981F852
:105810008800144890F88810032214A0FCF742F87E
:105820001BE001211048FBF7E5FFFBF779FE30B9DB
:105830000C4890F88800401C0A4981F88800202113
:105840000948FBF7D7FFFBF76BFE30B9054890F826
:105850008800401C034981F88800024890F88800BD
:1058600008BD0000CCB0002000100140B4ABB8D09F
:10587000C6F7CDB3BCC62564000000000246002078
:1058800006E00B78934200D17047431CD8B2491C04
:105890000B78002BF5D100BFF6E710B500F002F849
:1058A00010BD00000CB50020019000903248006847
:1058B00040F480303049086000BF2F48006800F491
:1058C000003000900198401C0190009818B9019890
:1058D000B0F5A06FF1D12848006810F4003F02D065
:1058E0000120009001E0002000900098012842D1A2
:1058F0002248006840F0100020490860084600680F
:1059000020F0030008600846006840F002000860CC
:105910001948406818494860084640684860084689
:10592000406840F4806048600846406820F47C107D
:1059300048600846406840F4E8104860084600683F
:1059400040F08070086000BF0B48006810F0007FD6
:10595000FAD00948406820F003000749486008462B
:10596000406840F00200486000BF0348406800F013
:105970000C000828F9D10CBD0010024000200240A4
:1059800003461AB908125870197002E0081218700C
:1059900059700220704700001FB504460121052000
:1059A000FFF734FA0120ADF80C0028208DF80F0025
:1059B00003A91348FDF732F800210846FCF7DEFF83
:1059C0000120009000208DF8040008208DF80500CB
:1059D00001208DF806006846FCF778FD06208DF85A
:1059E000080002208DF809008DF80A0001208DF8CA
:1059F0000B0002A8FFF766F8204600F0D1F81FBDA3
:105A00000008014030B503460C46002019462246E6
:105A100005E011F8015B02F8015B451CA8B20D78A6
:105A2000002DF6D1157030BD2DE9F04106460D462A
:105A30002C4637462846FDF75BFA04443046FDF70E
:105A400057FA804618F1010001D1BDE8F08103E06A
:105A500017F8010B04F8010B5FEA0800A8F1010830
:105A6000F6D104F8010B00BFEFE730B501460A4656
:105A7000002008E01378202B04D015780346441C3E
:105A8000E0B2CD54521C1378002BF3D1002503460D
:105A9000441CE0B2CD5430BD10B50246087888B140
:105AA0000CE0002305E0C818407808B9104610BD86
:105AB0005B1CD05CCC5CA042F5D0521C1078002856
:105AC000EFD1F4E71046F2E72DE9FC4305460E4618
:105AD0001446A8463746A446002110E003F00F0004
:105AE0000DF801001DF8010000B90AE01DF80100E1
:105AF000401EC0B20DF801001B09481CC1B20829A4
:105B0000ECD300BF9CFBF1F000F0FF0C0DE0002295
:105B100008E0881A401E1DF8000018F80000B8546C
:105B2000501CC2B28A42F4DB0F445FEA0C00ACF1B5
:105B3000010909F0FF0CEAD12046BDE8FC8310B54D
:105B400002F074F810BD000030B51249B1F1807F49
:105B500000D31DE021F07F40401E4FF0E022506155
:105B600050170F22002807DA13071D0E0A4B00F00A
:105B70000F04241F1D5503E013071C0E074B1C5474
:105B800000BF00204FF0E02290610720106100BFAD
:105B900030BD00004019010018ED00E000E400E015
:105BA00010B5044600214FF4FE70FFF73FF9204680
:105BB00000F001F810BD10B5044601210807FFF7F9
:105BC00015F90120FFF702F80120FEF7BFFF14B11D
:105BD000FEF7C2FF03E002210120FEF7D7FF10BD50
:105BE00010B51348006840F00100114908600846EC
:105BF0004068104908400E494860084600680E4950
:105C000008400B4908600846006820F480200860BE
:105C10000846406820F4FE0048604FF41F0088608A
:105C2000FFF73BFE4FF000600449086010BD000024
:105C3000001002400000FFF8FFFFF6FE08ED00E054
:105C400010B500220121024801F00AF810BD000041
:105C5000555C000810B5642002F0D6F8FEF77EFC13
:105C600010BD000010B50A2002F0CEF8002201217C
:105C7000014800F0F5FF10BDE572000808B50146C7
:105C80001F2000EAE1208DF800003F2000EA6110AB
:105C90008DF8010001F01F008DF80200BDF8002012
:105CA00010469DF8022040EA024008BDFFF738F98F
:105CB00000F05CF800202C4981F893000121FCF7EA
:105CC000DFFF042002F0A0F800210846FCF7D8FF0F
:105CD00001210320FCF7D4FF45E0234890F8200081
:105CE00000F00100204991F8201001F00201084362
:105CF0001D4991F8201001F0040108431A4991F858
:105D0000201001F00801084316D0C82002F07CF8EA
:105D100001210846FCF7B4FF01210220FCF7B0FF87
:105D2000C82002F071F800210120FCF7A9FF002132
:105D30000220FCF7A5FF16E0012002F065F8012122
:105D40000846FCF79DFF01210220FCF799FF40F275
:105D5000DC5002F059F800210120FCF791FF0021EE
:105D60000220FCF78DFFB8E7CCB0002010B5FBF7A0
:105D700015F818B9FF21134880F860100220FBF7CE
:105D800067FE104991F86000FBF768FEFEF786FF9A
:105D900000200C49086281F8930081F894000A48B9
:105DA000C1F8980001460748C0F8A0100749C0F89C
:105DB0009C10C0F8A4104FF400710548FCF75EFF7A
:105DC00010BD0000CCB00020000048C300004843D4
:105DD000001001401CB55948FAF778FE5848006891
:105DE000FEF768FA40F6B83002F00EF8FFF7D6FC7E
:105DF00052480A38FEF7E6F9504A863A111F002049
:105E0000FBF724FB4D4A7A3A111F0120FBF71EFBDA
:105E10004A4A723A111F0220FBF718FBFDF79EF861
:105E200046498A3981F8940086E044480A38FEF7EA
:105E3000C9F94FF4FA7001F0E7FF01AA69460020A2
:105E4000FBF704FB88B93D4A8A3A0099506EFAF78D
:105E50009DF93A498A390860384A8A3A0199906E20
:105E6000FAF794F935498A39486001AA6946012050
:105E7000FBF7ECFA88B9314A8A3A0099D06EFAF702
:105E800085F92E498A3988602C4A8A3A0199106F1F
:105E9000FAF77CF929498A39C86001AA69460220C3
:105EA000FBF7D4FA88B9254A8A3A0099506FFAF775
:105EB0006DF922498A390861204A8A3A0199906F1E
:105EC000FAF764F91D498A39486100F09DFF1B48C3
:105ED0008A3890F85C0010F0800F01D001F064F96E
:105EE00010211848FCF7B0FE40B114488A38006A07
:105EF00040F4806011498A39086207E00F488A3807
:105F0000006A20F480600D498A39086220210D481A
:105F1000FCF79AFE40B109488A38006A40F40060F4
:105F200006498A39086207E004488A38006A20F482
:105F3000006002498A39086277E7000056B1002004
:105F4000C4000020000C014086B000210B20FCF7AB
:105F500097FE00210A20FCF793FE4AE0022001F0A0
:105F600053FF002364221946224802F039FEC6B2CC
:105F7000002E3ED020490022886801A9FCF7B7FB1B
:105F8000064601A8FCF752FF8046FAF789FBC5B226
:105F90000A2D2EDA00242AE0611CCAB2164988684C
:105FA00001A9FCF7A4FB064601A8FCF73FFF074642
:105FB0003846FAF75CFB01B205EB450000EBC50083
:105FC0000E4A02EB4000801C20F8141005EB45003F
:105FD00000EBC500114601EB4000801C30F9142095
:105FE0000623214606A0FBF75DFC601CC4B2082C0A
:105FF000D2DBB3E700480040C8000020C8B1002051
:1060000025642025640000000EB54FF0000AD1463B
:106010000BE009EB49006946084401A901EBC901FD
:10602000486009F1010000F0FF09B9F1010FF0DB50
:10603000012101A801F0B8FE01F0C4FF3DE30320F7
:1060400001F0E2FE0020FEF79DFA0446002CF5D098
:10605000627821780223FCA0FBF724FCFAF770FE9B
:1060600060780D2808D14FF0010AF94890F89300A4
:10607000401CF74981F893006078272803D14FF03E
:10608000000A00F0BDFE6078042806D120780628BA
:1060900003D14FF0000AFFF7E5FD607804281CD11A
:1060A0002078042819D100231A4619461846FEF70D
:1060B00071F9FAF755FEE748FCF7FCFBE648FCF7F8
:1060C000F9FBE648FCF7F6FBE548FCF7F3FBE5488F
:1060D000FCF7F0FB0120FFF75FFCBAF1000F7DD069
:1060E000DB4890F89300062879D2DFE800F07803C7
:1060F0008FFDFCFB6078262821D1207806281ED150
:10610000D34991F88710002202EB4102D04928318F
:1061100051F83200FAF7F7FA0746D34AD34BFAF7A9
:1061200003F90546FAF72AFB0146C94890F88700AB
:10613000002202EB4002C648283040F83210607856
:1061400026281BD12078042818D1C14991F887103E
:10615000002202EB4102BE49283151F832004FF0D3
:106160007E51FAF713F80146B94890F887000022EB
:1061700002EB4002B648283040F8321060782828F8
:1061800021D1207806281ED1B14991F8871000222C
:1061900002EB4102AE49283151F83200FAF7B3FA66
:1061A0000746B14AB14BFAF760F90546FAF7E6FA45
:1061B0000146A74890F88700002202EB4002A4485D
:1061C000283040F83210607828281ED12078042822
:1061D0001BD19F4991F88710002201E01EE211E2D5
:1061E00002EB41029A49283151F832004FF07E51BA
:1061F000FAF71EF80146964890F88700002202EB55
:1062000040029348283040F8321000E26078262897
:1062100023D12078062820D18D4991F887100022BB
:1062200002EB41028A49283101EBC2014868FAF7C2
:106230006AFA07468C4A8D4BFAF776F80546FAF764
:106240009DFA0146824890F88700002202EB400246
:106250007F48283000EBC2004160607826281DD1BD
:10626000207804281AD17A4991F88710002202EB8D
:1062700041027749283101EBC20148684FF07E5155
:10628000F9F784FF0146724890F88700002202EB7C
:1062900040026F48283000EBC20041606078282837
:1062A00027D12078062824D1694991F88710002247
:1062B00002EB41026649283101EBC2014868FAF756
:1062C00022FA0746684A694BFAF7CFF80546FAF70B
:1062D00055FA01465E4890F88700002202EB400222
:1062E0005B4802E055E1C3E025E0283000EBC20046
:1062F0004160607828281DD1207804281AD154499B
:1063000091F88710002202EB41025149283101EB3C
:10631000C20148684FF07E51F9F78AFF01464C48A8
:1063200090F88700002202EB40024948283000EB39
:10633000C20041606BE16078262821D120780628D0
:106340001ED1434991F88710012202EB41024049D6
:10635000283151F83200FAF7D6F90746424A434B42
:10636000F9F7E2FF0546FAF709FA0146384890F8CE
:106370008700012202EB40023548283040F83210F5
:10638000607826281BD12078042818D1304991F84C
:106390008710012202EB41022D49283151F83200C9
:1063A0004FF07E51F9F7F2FE0146294890F8870038
:1063B000012202EB40022648283040F83210607873
:1063C000282821D1207806281ED1214991F887104C
:1063D000012202EB41021E49283151F83200FAF73E
:1063E00092F90746204A214BFAF73FF80546FAF79B
:1063F000C5F90146164890F88700012202EB4002D9
:106400001348283040F83210607828281BD12078B3
:10641000042818D10E4991F88710012202EB41029D
:106420000B49283151F832004FF07E51F9F700FF47
:106430000146074890F88700012202EB4002044819
:10644000283040F83210E2E025642C25640000007A
:10645000CCB0002000080140000C014000100140B9
:1064600000140140001801409A9999999999B93FEF
:106470006078262823D12078062820D18F4991F8EA
:106480008710012202EB41028C49283101EBC20145
:106490004868FAF738F90546894A8A4BF9F744FF04
:1064A0000746FAF76BF90146844890F88700012205
:1064B00002EB40028148283000EBC2004160607866
:1064C00026281DD1207804281AD17C4991F88710FC
:1064D000012202EB41027949283101EBC2014868EF
:1064E0004FF07E51F9F752FE0146744890F887004C
:1064F000012202EB40027148283000EBC2004160EB
:106500006078282823D12078062820D16B4991F87B
:106510008710012202EB41026849283101EBC201D8
:106520004868FAF7F0F80546654A664BF9F79DFFAB
:106530000746FAF723F90146604890F887000122E0
:1065400002EB40025D48283000EBC20041606078F9
:1065500028281DD1207804281AD1584991F887108D
:10656000012202EB41025549283101EBC201486882
:106570004FF07E51F9F75CFE0146504890F88700D5
:10658000012202EB40024D48283000EBC20041607E
:106590003DE0607826280AD12078062807D14748B0
:1065A000B0F85800401C81B24448A0F858106078F8
:1065B00026280AD12078042807D14048B0F858008E
:1065C0000A3081B23D48A0F85810607828280AD1D6
:1065D0002078062807D13948B0F85800401E81B20B
:1065E0003648A0F85810607828280AD12078042866
:1065F00007D13248B0F858000A3881B22F48A0F8C5
:10660000581004E001202D4981F8930000BF00BF1D
:106610002A4991F89300FDF743F94EE06078262867
:106620000DD1207804280AD1FF20244981F8930055
:106630000120FCF759FE4FF47A7001F0E5FB607819
:1066400028280DD1207804280AD1FF201B4981F881
:1066500093000220FCF748FE4FF47A7001F0D4FB5F
:106660006078282806D1154890F88700401E134905
:1066700081F88700114890F88700022803DD022086
:106680000E4981F887006078262806D10B4890F8DB
:106690008700401C094981F88700084890F8870066
:1066A000064991F88810884203DB0020034981F8ED
:1066B00087000020014981F89300C0E4CCB000209D
:1066C0009A9999999999B93F8046B8F1000F02D0EB
:1066D00008F0FF0500E00A25E800FEF773F88146A0
:1066E00005EB45018800FEF76DF88246002608E0BC
:1066F00006EB46000AEB800009EBC6014860701CFF
:10670000C6B2AE42F4DB2946484601F04DFB1548BF
:1067100000781549087024E00A2001F075FB01F0AB
:106720005BFC0746EFB17C682079062818D2DFE8C9
:1067300000F01703060A0E122068804710E0207A46
:10674000216888470CE02168A068884708E0216834
:10675000A068884704E0228990B22168884700BF7A
:1067600000BFD9E7480000206C00002010B5FBF7FF
:1067700065F9002106A0FBF795F80949002002F011
:10678000D3FA002107A0FBF78DF8FBF751F910BDF4
:10679000BFAACABCC7E5BFD5BCC7C2BC0D0A0000B2
:1067A000DCFF2300C7E5B3FDCDEAB1CF0D0A000041
:1067B00001210020FCF764FA012001F025FB0021F3
:1067C0000846FCF75DFA00210B20FCF759FA64201B
:1067D00001F01AFBFCF7EEFB002405E0FF21204648
:1067E000FDF740FB601CC4B2362CF7DB4FF47A7027
:1067F00001F00AFB002405E000212046FDF732FBF2
:10680000601CC4B2362CF7DB00BF1B2200212648D7
:10681000FAF708FB46E0254890F89300082827D0AF
:1068200006DC052839D2DFE800F01013171B1F0023
:106830000B2829D004DC09281ED00A282DD11FE0FE
:106840000C2825D0FF2828D126E0FCF7F9FD24E00C
:106850000120FDF725F820E00220FDF721F81CE0DB
:106860000320FDF71DF818E00420FDF719F814E0E7
:106870000020FDF7F7F810E00120FDF7F3F80CE039
:106880000220FDF7EFF808E00320FDF7EBF804E045
:106890000420FDF7E7F800E000BF00BF4FF47A7076
:1068A00001F0B2FAB7E7000094B10020CCB00020AC
:1068B00016E0022001F0A8FA4FF49673642200213A
:1068C000084802F08DF9C4B254B1042206490548C3
:1068D00002F0F2F904220449091D024802F0ECF921
:1068E000E7E7000000480040CCB000201FB538A109
:1068F00003C9CDE90201062102A8FDF71CFE002113
:106900000B20FCF7BDF940213348FAF773FFFAF783
:1069100007FE5CE031494868F9F7F5FE05460E468A
:106920002E490868F9F7EFFE07463A460B462CA1B8
:106930003148CDE9005602F0CFF92848001D00F09B
:106940009DFE4FF47A7001F05FFA01210A20FCF7F6
:1069500097F9062102A8FDF7EEFD082202A92748B3
:1069600002F0AAF9022001F04FFA00210A20FCF7F8
:1069700087F94FF4967364220021204802F030F921
:10698000C4B224B30D2C1ED11448006A40F48070A8
:10699000124908621A494968C81D0221FAF7FCFA2F
:1069A000814617494968C81C0221FAF7F5FA0546DD
:1069B000F9F74BFE09490860084601684846F9F7AF
:1069C000E5FB0649086000210220FCF759F9A1E720
:1069D00001030018000495CE00100140CCB0002047
:1069E000234141412C252E31662C252E31662C2346
:1069F000454E440D0A0000000038014000440040AC
:106A0000C80000208AB000243248B0F85C0010F4BE
:106A1000806F07D1052130A0FAF744FF3248007893
:106A200001F022FA25E004EBC401304A02EB8100B8
:106A3000242201A902F0A8F90198401C00D119E014
:106A4000641C4FF6F070844210D90522214628A01C
:106A5000FAF728FF052129A0FAF724FF05211EA037
:106A6000FAF720FF2048007801F0FEF9012001F03C
:106A7000CBF9D8E700BF41F2883001F0C5F9052213
:106A800021461BA0FAF70EFF23E0072202A91148B6
:106A90008030FAF7B6F91C2204A90E48FAF7B1F9CA
:106AA00004EBC400114901EB80002430019004EB99
:106AB000C4000A4602EB8001242201A8FEF76CFA0A
:106AC000641C0522214611A0FAF7ECFE144801F0DF
:106AD0009BF9DAE7CCB00020B9D8B1D5C0FACAB773
:106AE000BCC7C2BC00000000480000204C9D0C0048
:106AF000BCC7C2BCCBF7D2FD25640000C0FACAB740
:106B0000BCC7C2BCD2E7B3F600000000B4CBBFCC18
:106B1000CAFDBEDDB1BBBCC7C2BC2564000000001D
:106B2000E09304008AB000243A48B0F85C0010F406
:106B3000806F07D1052138A0FAF7B4FE3A480078F3
:106B400001F092F925E004EBC401384A02EB810020
:106B5000242201A902F018F90198401C00D119E083
:106B6000641C4FF6F070844210D90522214630A0F3
:106B7000FAF798FE052131A0FAF794FE052126A028
:106B8000FAF790FE2848007801F06EF9012001F034
:106B90003BF9D8E700BF41F2883001F035F9052212
:106BA000214623A0FAF77EFE32E01A4890F86200F0
:106BB00008B3072202A917488030FAF722F91C22ED
:106BC00004A91448FAF71DF904EBC400174901EBB6
:106BD00080002430019004EBC4000A4602EB8001DF
:106BE000242201A8FEF7D8F9641C0522214617A02B
:106BF000FAF758FE03E04FF47A7001F005F9054901
:106C000091F862104EF6602201FB02F001F0FCF8F0
:106C1000CBE70000CCB00020B9D8B1D5C0FACAB7D4
:106C2000BCC7C2BC00000000480000204C9D0C0006
:106C3000BCC7C2BCCBF7D2FD25640000C0FACAB7FE
:106C4000BCC7C2BCD2E7B3F600000000B4CBBFCCD7
:106C5000CAFDBEDDB1BBBCC7C2BC256400000000DC
:106C6000FEB506460C46154600968DF80440029582
:106C70006B460C2200210248007801F019FAFEBD93
:106C80006C00002008B5044625464FF4FA6001F078
:106C9000BBF83BE00A2001F0B7F8A8478DF80100E7
:106CA00000208DF802009DF8010078B31DE00A2055
:106CB00001F0AAF89DF90200322805DA9DF80200D9
:106CC000401C40B28DF802009DF9020032280CDB16
:106CD000642001F099F804208DF800006B4603222F
:106CE00000210B48007801F0E3F9A8470028DED125
:106CF0009DF90200322809DA06208DF800006B4663
:106D0000032200210248007801F0D2F9C2E7000016
:106D10007400002070E04FF47A7001F075F8374885
:106D2000007840F00800354908700846407840F087
:106D3000080048700846C07840F00800C87008464F
:106D4000007940F0080008710846007A40F0080019
:106D500008720846C07940F00800C8710846407AB9
:106D600040F0010048720846407A40F00200487244
:106D70000846407A40F0040048720846407A40F0E5
:106D8000080048720846407A40F0100048720846F1
:106D9000407A40F0200048720846407A40F04000B7
:106DA00048720846407A40F0800048720846807A6F
:106DB00040F0010088720846807A40F00200887234
:106DC0000846807A40F0040088720846807A40F0D5
:106DD000100088720846807A40F0200088720846C9
:106DE000807A40F0400088720846807A40F0800047
:106DF0008872FF20C87208738DE7000094B10020EC
:106E000010B5F9F7CBFF10BD2DE9F05F5F48B0F882
:106E10008A100A235E4A5F48FBF720FD83465846E6
:106E2000F9F718FC804600225B4BF9F724FB064675
:106E300000225A4BF9F791FB0446F9F79FFC53499E
:106E4000886157480078401C55490870084600780A
:106E500014282FDD08460078401E08704FF0000A05
:106E600025E04A4A983252F83A10983A52F82A00E5
:106E7000F9F7AAFC05D2454850F82A10983040F896
:106E80003A10424A983202EBCA0251683F4A52F81D
:106E90002A00F9F78FFC06D23C4850F82A109830A7
:106EA00000EBCA0041600AF1010000F0FF0ABAF1EC
:106EB000060FD6DB3548008C10F4807F25D0334A8E
:106EC000916A1068F9F780FC06D83048006A40F0F3
:106ED00001002E49086205E02C48006A20F00100FC
:106EE0002A490862294AD16A1068F9F763FC06D872
:106EF0002648006A40F002002449086205E0234861
:106F0000006A20F00200214908622048008C10F439
:106F1000007F25D01D4A116B5068F9F755FC06D843
:106F20001A48006A40F004001849086205E0174852
:106F3000006A20F0040015490862144A516B506839
:106F4000F9F738FC06D81148006A40F008000F49EC
:106F5000086205E00D48006A20F008000B4908624D
:106F60000A498868F9F7CFFB04464FF066320D4BAB
:106F7000F9F7DCFB05D20C480078401C0A49087080
:106F800002E0002008490870BDE8F09FCCB0002066
:106F9000A8000020AC000020000004400000A04039
:106FA000A700002066660A40A60000202DE9F047F1
:106FB000A2B004464FF00009FAF740FD534890F89C
:106FC000800020B9002152A0FAF76CFC99E04F48EC
:106FD00090F85C0010F0400F04D0002150A0FAF7A8
:106FE00061FC03E000215CA0FAF75CFC607821788A
:106FF000C1EB011100EB410A18E009EBC9015A4A43
:1070000002EB8100242218A901F0BEFE18A88179A4
:107010004079C0EB001001EB4000504500D306E082
:107020001898401C00D102E009F10109E5E700BF12
:10703000E078A178C1EB011100EB410A5EE009EBB9
:10704000C901494A02EB8100242218A901F09CFEE3
:1070500018A881794079C0EB001001EB4000504541
:1070600000D94CE01898401C00D148E009F1010912
:1070700018A9086AF9F747FB05460E461F98F9F765
:1070800042FB074688461E98F9F73DFBCDE91601FD
:107090001D98F9F738FBCDE914011C98F9F733FB7B
:1070A000CDE912011B98F9F72EFBCDE91001002064
:1070B000CDE90A78CDE90C560E90DDE91601CDE94F
:1070C0000801DDE91401CDE90601DDE91201CDE990
:1070D0000401DDE91001CDE9020118A8407A18A9E0
:1070E000097ACDE9001018A8837942799DF86410D7
:1070F0001EA0FAF7D7FB0A2000F086FE9FE700BF2C
:1071000000BFFAF795FC22B0BDE8F087CCB00020B4
:10711000CFB5CDB3CAB1BCE4CEB4BECDD0F700007C
:10712000C8D5C6DA2CCEC2B6C85B315D2CCAAAB6A9
:10713000C85B315D2CCEC2B6C85B325D2CCAAAB624
:10714000C85B325D2CCEC2B6C85B335D2CCAAAB612
:10715000C85B335D00000000C8D5C6DA2CCEC2B6CD
:10716000C82CCEC2B6C800004C9D0C003230253071
:1071700032642D253032642D2530326420253032A2
:10718000643A253032642C252E32662C252E326648
:107190002C252E32662C252E32662C252E32662C7E
:1071A000252E32660000000010B5244890F820001B
:1071B00010F0030F05D1214890F8200010F00C0FBB
:1071C00001D0022402E01D4890F862401C4800787B
:1071D000642804DA1A480078401C194908701848D5
:1071E00000780A2800DA10BD144890F87C0040B1FD
:1071F0001448007808B100F02BF8002011490870FD
:10720000F1E70E4890F885000F490978884212D0BE
:107210000E480078401C0D490870084890F8850019
:107220000949087009480078A04204DB002007499A
:10723000087000F00DF800BFD5E70000CCB00020CA
:10724000A1000020A2000020A00000209F0000203C
:1072500000B589B01D4890F89400FF2834DA1B4827
:1072600090F85C0010F0800F2ED0072201A917487B
:107270008030F9F7C6FD1C2203A91448F9F7C1FDB7
:10728000124890F8940000EBC000002101EB800050
:10729000243000900D4890F8940000EBC0000022CC
:1072A00002EB800124226846FDF776FE074890F83D
:1072B0009410052206A0FAF7F5FA044890F8940015
:1072C000401C024981F8940009B000BDCCB00020F8
:1072D000B4CBBFCCBCC7C2BCB1BBB4E6B4A25B25C7
:1072E000645D000010B55C200649888400210548D3
:1072F0002430FEF703F8012102482430FDF7FEFF99
:1073000010BD0000CCB0002088B04FF00308A449A5
:1073100091F86100A34A4FF6FF7100F083FB3EE154
:1073200000210A20FBF7ACFC032000F06DFD0023D8
:10733000642219469C4801F053FCC7B2002FEED0DE
:107340009748B0F85800994949680978884201D1AE
:10735000012000E00020954949680978FF2901D102
:10736000012100E000210843D9D000248C4890F886
:1073700058202146641C0DF8012003222146641C7C
:107380000DF801208948406840794006020E2146E8
:10739000641C0DF801200025CBE025B1012D43D060
:1073A000022D40D181E07E48008C10F4807F28D0EF
:1073B00069007B4A52F821007D49F8F73FFF81467A
:1073C000F9F755F906B2B1B20DEB04000122FEF750
:1073D000D7FA2044C4B2012101EB4501704A52F8AA
:1073E00021007349F8F72AFF8146F9F740F906B200
:1073F000B1B20DEB04000122FEF7C2FA2044C4B280
:1074000011E00DEB0400012244F61F61FEF7B8FA0B
:107410002044C4B20DEB0400012244F61F61FEF7C4
:10742000AFFA2044C4B281E05D48008C10F4007FC4
:1074300028D069005A4A52F821005D49F8F7FEFE4B
:107440008146F9F714F906B2B1B20DEB040001223E
:10745000FEF796FA2044C4B2012101EB4501504ADF
:1074600052F821005249F8F7E9FE8146F9F7FFF892
:1074700006B2B1B20DEB04000122FEF781FA2044FE
:10748000C4B211E00DEB0400012244F61F61FEF7C7
:1074900077FA2044C4B20DEB0400012244F61F61C8
:1074A000FEF76EFA2044C4B240E03D48008C10F470
:1074B000805F28D069003A4A52F821003C49F8F729
:1074C000BDFE8146F9F7D3F806B2B1B20DEB040068
:1074D0000122FEF755FA2044C4B2012101EB450117
:1074E0002F4A52F821003249F8F7A8FE8146F9F7F1
:1074F000BEF806B2B1B20DEB04000122FEF740FA6D
:107500002044C4B211E00DEB0400012244F61F61D7
:10751000FEF736FA2044C4B20DEB0400012244F613
:107520001F61FEF72DFA2044C4B200BF00BF681CE3
:10753000C5B24545FFF631AF194890F89020204676
:10754000611CCCB20DF80020154988691849F8F77C
:1075500075FE8146F9F7A4F8C2B22046611CCCB290
:107560000DF800200E4890F858202046611CCCB23F
:107570000DF800209DF80200C01CC4B221466846E8
:10758000FCF7D9FFC4B201210A20FBF779FB2246A0
:107590006946054801F090FB022000F035FCBFE68B
:1075A000CCB00020C976000800440040C80000208C
:1075B000000020419AB080460024C346584601F09E
:1075C0001BFA824654E0022000F01EFC00210A2033
:1075D000FBF756FB002364221946584601F000FBD6
:1075E00000F0FF09B9F1000F42D00024214850F803
:1075F0002A0005781F4850F82A0046792146641C65
:1076000001A845541B48406842782146641C01A8E3
:1076100042547006020E2146641C01A84254002701
:1076200013E005EB450202EBC502134B03EB4202EC
:10763000921C02EB470001AA111921230222FEF736
:1076400043FA2044C4B2781CC7B2B742E9DB2146F2
:1076500001A8FCF770FFC4B201210A20FBF710FB60
:10766000224601A9584601F027FB022000F0CCFB7E
:10767000A9E70000C8000020C8B1002070B504468A
:1076800000252046F9F7B2FF05467DB10C48007889
:10769000401C0B490870084600780A280FDD09488D
:1076A000006A20F400700749086208E000200449DD
:1076B00008700448006A40F400700249086270BD16
:1076C000B3000020CCB000202DE9F04188B00524A3
:1076D0000327122103A8F8F74EFD874A07CA8DE851
:1076E00007000DEB0400FBF757FB641D1522214634
:1076F000641C0DF801202146641C0DF80170002562
:10770000CBE025B1012D43D0022D40D181E07B4853
:10771000008C10F4807F28D06900784A52F821004C
:107720007749F8F78BFD8046F8F7A1FF06B2B1B2B2
:107730000DEB04000122FEF723F92044C4B201211D
:1077400001EB45016D4A52F821006D49F8F776FDCD
:107750008046F8F78CFF06B2B1B20DEB04000122AF
:10776000FEF70EF92044C4B211E00DEB0400012233
:1077700044F61F61FEF704F92044C4B20DEB040087
:10778000012244F61F61FEF7FBF82044C4B281E0F9
:107790005A48008C10F4007F28D06900574A52F8EC
:1077A00021005749F8F74AFD8046F8F760FF06B216
:1077B000B1B20DEB04000122FEF7E2F82044C4B29E
:1077C000012101EB45014D4A52F821004C49F8F7DF
:1077D00035FD8046F8F74BFF06B2B1B20DEB040061
:1077E0000122FEF7CDF82044C4B211E00DEB0400F5
:1077F000012244F61F61FEF7C3F82044C4B20DEB2A
:107800000400012244F61F61FEF7BAF82044C4B216
:1078100040E03A48008C10F4805F28D06900374A75
:1078200052F821003649F8F709FD8046F8F71FFFA6
:1078300006B2B1B20DEB04000122FEF7A1F820441C
:10784000C4B2012101EB45012C4A52F821002C4918
:10785000F8F7F4FC8046F8F70AFF06B2B1B20DEB78
:1078600004000122FEF78CF82044C4B211E00DEBB5
:107870000400012244F61F61FEF782F82044C4B2DE
:107880000DEB0400012244F61F61FEF779F8204455
:10789000C4B200BF00BF681CC5B2BD42FFF631AF25
:1078A000164890F890202146601CC4B20DF80120C3
:1078B000124988691249F8F7C1FC8046F8F7F0FED2
:1078C000C2B22046611CCCB20DF800200B4890F8E3
:1078D00058202046611CCCB20DF800202146684695
:1078E000FCF729FEC4B222466946064801F0E4F9D5
:1078F00008B0BDE8F0810000EC9E0008CCB000208C
:1079000000002041004800400146002905DB09290C
:1079100003DC01F13000C0B270470A2905DB2329DE
:1079200003DC01F13700C0B2F6E701F13D00C0B25F
:10793000F2E70000F0B502460C46FF21FF250026C5
:107940000BE012F8017B87EA0503084FFF5C87EA2A
:107950000105074FF95C771CBEB2A642F1DB084671
:107960004FF6FF7707EA00202843F0BD6C97000828
:107970006C98000830B502460B46002010E012F863
:10798000014B6040002109E010F0010F03D08C246E
:1079900084EA600000E040104C1CE1B20829F3DBEF
:1079A0001C00A3F10105ABB2E9D130BD10B5024610
:1079B000002002E012F8013B58400B00A1F1010445
:1079C000A1B2F7D110BD000010B5104800781328FF
:1079D00004D00F480078401C0D4908700D4800780D
:1079E000401C0C4908700846007864280DDD002012
:1079F00008701423084A064801780848FAF72EFF51
:107A00000749087000200249087010BD4800002096
:107A1000340000202C0000202D0000203000002029
:107A2000400000202DE9F04105460E461746184853
:107A30000068A0B91020FCF7C5FE1549086008468B
:107A400004684FF47A70A080002020814FF6FF7008
:107A5000E0801048E0600120A072002020600C4807
:107A6000046800E0246820680028FBD11020FCF79F
:107A7000A9FE20602468A58000202081E680E760C0
:107A80000120A072002020602046BDE8F0810000A7
:107A900060000020997A00081649086800B970470C
:107AA00022E00068817AC288002A01DD012200E01C
:107AB0000022114218D0817A11F0020F14D10189ED
:107AC000491C01810189828891420DDB817A41F054
:107AD0000201817200210181C188A1F57F42FF3A34
:107AE00002D0C188491EC18001680029D9D100BFD8
:107AF000D5E700006000002010B54FF47070FCF76F
:107B000061FE1E49086002201D494870002048603F
:107B1000002428E0012004EB4401184A126802EB1B
:107B200001110881002004EB4401144A126802EBA1
:107B300001118861002104EB4400104A126802EB35
:107B400000100160002004EB44010C4A126802EBB3
:107B50000111C86104EB4401084A126802EB0111EB
:107B60000884601CC4B2142CD4DB132005490870AF
:107B70000020054908600549086010BD4C00002040
:107B8000400000204800002050000020600000203D
:107B900070B50446FFF7B0FF04E094E80F0000F072
:107BA000D1F8103420680028F7D100F027F870BD14
:107BB000FAF79CFA04E0642000F026F900F002F8DD
:107BC000F9E7000010B50C48046804B910BD0EE0D8
:107BD0002468A07A10F0010F09D0A07A10F0020FEB
:107BE00005D0E0688047A07A20F00200A0722068EB
:107BF0000028EDD100BFE9E76000002008B5FDF7DF
:107C0000A3FF4FF4FA6005A3002207490090132058
:107C100000F030F8132000F069FB08BD5461736B6D
:107C2000526F6F7400000000B17B000810B5FFF7C1
:107C3000CBFE00F07FFA08484078402805D10321A8
:107C400006A0F9F72FFEFCF789FC0948006808B187
:107C500000F046FC10BD000040000020544F5320AF
:107C600054696D654F75742052657365740000002A
:107C7000600000202DE9F04704460D4691461F465E
:107C8000DDF820800DB9BDE8F08704EB44002C49F5
:107C9000096801EB00100089012800D0F3E704EB2C
:107CA00044002749096801EB0010008C98B91FFABD
:107CB00088F0FCF787FD064604EB4401204A126871
:107CC00002EB0111A1F8208004EB44011C4A126868
:107CD00002EB0111CE6104EB4402194B1B6803EB6C
:107CE0000212118C04EB4402154B1B6803EB0212C9
:107CF000D06900F0C1FB8246022104EB4400104A27
:107D0000126802EB0010018104EB44000C49096881
:107D100001EB0010456004EB44000949096801EBE0
:107D20000010C7624A462946504600F0A7FA04EB05
:107D30004401034A126802EB0111086000BFA2E788
:107D40004C0000202DE9F84305460E46174698469C
:107D500000241AE004EB44001249096801EB00100A
:107D6000008900B912E004EB44000E49096801EBF8
:107D700000100089012800D108E0601C80B2044690
:107D8000142802DB0020BDE8F883E3E700BFE0B27F
:107D90003B4632462946CDF80080FFF76BFF0120B5
:107DA000F1E700004C00002010B5154A127802EBF4
:107DB0004202144B1B6803EB02129062104A1278C5
:107DC00002EB42020F4B1B6803EB021282F82310F6
:107DD00000220B4B1B7803EB43030A4C246804EB93
:107DE000031383F824200023054A127802EB420291
:107DF000044C246804EB021282F8253010BD000008
:107E0000480000204C00002010B50446134840787C
:107E100001281FD000201249097801EB4101114AC5
:107E2000126802EB011188610D48007800EB4000F8
:107E30000C49096801EB00104461102108480078E2
:107E400000EB4000074A126802EB0010018100F0CD
:107E5000C3FA02E02046F8F7BFFF10BD4000002043
:107E6000480000204C00002010B50446142C01DB13
:107E7000002010BD04EB44001E49096801EB00100E
:107E80000089012801D10020F3E7002004EB440120
:107E9000184A126802EB0111C862002104EB440089
:107EA000144A126802EB00108161002004EB4401C7
:107EB000104A126802EB01114861012004EB4401F1
:107EC0000C4A126802EB0111088104EB4401094AD3
:107ED000126802EB0111C869FCF748FC002104EBB1
:107EE0004400044A126802EB0010018400F074FAA6
:107EF0000120BEE74C00002001460D48006800EB61
:107F00004110007A08B9002070470948006800EB6A
:107F100041104079074A1278904201D00020F3E7DF
:107F20000120034A126802EB4112107200BFEBE716
:107F3000580000204800002070B504460D4600BFE0
:107F40001E48006800EB4410007A30B1012815D0BB
:107F5000022804D003282FD11FE0002070BD17484D
:107F6000006800EB4410407915490978884201D136
:107F70000120F3E7204600F0DDFAE1E702200F4997
:107F8000096801EB441108720D4800780B49096833
:107F900001EB441148710120E0E70220074909681C
:107FA00001EB44110872064800780449096801EBA6
:107FB000441148710120D1E70020CFE7580000208C
:107FC000480000200248007802490870704700000D
:107FD000480000207400002070B51848007800EBBD
:107FE00040001749096801EB0014A06A08B9002095
:107FF00070BD94F8250018B91048007800F088F991
:1080000094F8250008B90020F2E704F12304D4F81D
:108010000500617800EBC105607800F1010021786E
:1080200090FBF1F201FB12006070A078A0F101005A
:10803000A070A4F123042846DAE7000048000020DD
:108040004C00002070B506461748007800EB400051
:108050001649096801EB0014A06A08B9002070BD38
:1080600094F8250010B93046FFF7CEFE94F82500AD
:1080700008B90020F3E704F12304D4F8050061787F
:1080800000EBC105607800F10100217890FBF1F26E
:1080900001FB12006070A078A0F10100A070A4F1B3
:1080A00023042846DBE70000480000204C000020A5
:1080B0002DE9F0470646884691469A46142E01DB84
:1080C000BDE8F08706EB46001949096801EB00148A
:1080D000A06A00B9F4E794F8250094F823108842C8
:1080E00020DA04F123046078A1780844217890FB19
:1080F000F1F201FB1200C7B214F82309B84200DC08
:10810000DEE7A06A00EBC70585F800804A465046C6
:108110006968F8F776FE85F8019094F82500401C10
:1081200084F82500304600F065F800BFC8E700007D
:108130004C000020002056E000EB40012B4A126862
:1081400002EB01110989022902D0102947D11DE053
:1081500000EB4001254A126802EB01118969491CB4
:1081600000EB4002214B1B6803EB0212916100EB14
:1081700040011E4A126802EB0111896944F620622F
:10818000914202D940211A4A517029E0002100EBA6
:108190004002164B1B6803EB0212916100EB400199
:1081A000124A126802EB0111496941B9022100EB40
:1081B00040020E4B1B6803EB021211810EE000EB34
:1081C00040010A4A126802EB01114969491E00EB9D
:1081D0004002064B1B6803EB0212516100E000BF36
:1081E00000BF411CC8B21428A6DB70474C00002019
:1081F00040000020142800DB704700EB4001094AD2
:10820000126802EB01110989012900D1F4E710215C
:1082100000EB4002034B1B6803EB0212118100BF0D
:10822000EAE700004C00002010B504460F48007833
:10823000A04200D110BD0D48007800EB40000C4971
:10824000096801EB00100B490860084804700078C9
:1082500000EB40000649096801EB00100068064980
:108260000860F8F7F3FB00BFE4E7000048000020D7
:108270004C0000203C0000203800002030B50346B0
:108280001846041F20462160041F20462360002555
:10829000041F20462560041F20462560041F204639
:1082A0002560041F20462560041F20462560041F0A
:1082B00020462560041F20462560041F20462560B7
:1082C000041F20462560041F20462560041F204609
:1082D0002560041F20462560041F204622604FF0C1
:1082E0008075041F2046256030BD000010B504468F
:1082F00004EB44000449096801EB001000680349DD
:108300000860F8F7BCFB10BD4C00002038000020CE
:1083100010B50446142C00DB10BD04EB44000E49DC
:10832000096801EB00100089012800D1F4E704205E
:1083300004EB4401084A126802EB01110881002194
:1083400004EB4400044A126802EB0010416100F0A3
:1083500043F800BFE0E700004C00002010B50446E1
:10836000142C01DB002010BD04EB440019490968FE
:1083700001EB00100089012801D10020F3E704EB94
:1083800044001449096801EB00100089042801D158
:108390000020E8E704EB44000E49096801EB0010F7
:1083A0000089082801D10020DDE7082004EB440102
:1083B000084A126802EB01110881002004EB440115
:1083C000044A126802EB0111486100F005F801202F
:1083D000C9E700004C00002010B5022123480068C6
:1083E000A0F8981300243DE004EB44001F490968FD
:1083F00001EB00100089022802D020282ED107E0CE
:108400001B480078A04202D02046FFF70DFF10BDA8
:1084100004EB44001549096801EB001090F82200B4
:108420001449096801EB4010007A012815D1102089
:1084300004EB44010D4A126802EB0111088103208C
:1084400004EB4401094A126802EB011191F8221071
:10845000084A126802EB4111087200E000BF00BF39
:10846000601CC4B2142CBFDB00BFD0E74C0000205E
:1084700048000020580000200246501820F0030356
:10848000A3F1300020F007007047000010B5142859
:1084900000DB10BD00EB4002104B1B6803EB021227
:1084A0001289042A00D1F4E7002200EB40030B4CB0
:1084B000246804EB03139A61102300EB4002074C7D
:1084C000246804EB0212138100EB4002034B1B688B
:1084D00003EB0212516100BFDBE700004C000020FB
:1084E00010B51348006800B910BD11480068E0B12C
:1084F0000F480068807A10F0010F16D00C48006811
:1085000000890B4909688988884207DB084909689E
:10851000C868804700200649096808810448006847
:108520000089401C02490968088100BFDCE700009F
:108530006000002010B504460B48007800EB4000B6
:108540000A49096801EB001080F822402020064902
:10855000097801EB4101054A126802EB011108811B
:10856000FFF73AFF10BD0000480000204C0000203B
:1085700010B540F22551114800F013FAC0B10F4870
:10858000001D0088C4B20E48C0880E49C9888842C0
:1085900013DA0B48C188C088401C094AD0800A48B9
:1085A000C06844540949C8780A21FFF76FFF04E006
:1085B00040F22551014800F0D4F810BD004C0040B5
:1085C000FA000020F0000020C80000202300002056
:1085D00010B540F22551114800F0E3F9B8B10F4849
:1085E0008088C4B20E4800890E490989884213DA8E
:1085F0000B4801890089401C094A10810A4800691A
:1086000044540A4908790A21FFF740FF04E040F288
:108610002551024800F0A5F810BD000000500040B0
:10862000FA000020F0000020C800002023000020F5
:1086300010B540F22551114800F0B3F9C0B10F4810
:10864000001D0088C4B20E4800880E49098888427F
:1086500013DA0B4801880088401C094A10800A4838
:1086600000684454094908780A21FFF70FFF04E025
:1086700040F22551014800F074F810BD0038014067
:10868000FA000020F0000020C80000202300002095
:1086900010B540F22551114800F083F9C0B10F48E0
:1086A000001D0088C4B20E4840880E49498888429F
:1086B00013DA0B4841884088401C094A50800A4818
:1086C00040684454094948780A21FFF7DFFE04E076
:1086D00040F22551014800F044F810BD004400402C
:1086E000FA000020F0000020C80000202300002035
:1086F00010B540F22551114800F053F9C0B10F48B0
:10870000001D0088C4B20E4880880E4989888842BE
:1087100013DA0B4881888088401C094A90800A48F7
:1087200080684454094988780A21FFF7AFFE04E0C5
:1087300040F22551014800F014F810BD00480040F7
:10874000FA000020F0000020C800002023000020D4
:1087500001F40072B2F5007F00D100BFCA4302806D
:10876000704710B500220023A1F510646A3C00D1C7
:1087700000BF0A1201249440A3B2DC43048010BD60
:1087800021B1828942F40052828104E082894DF64F
:10879000FF731A408281704770B50446204600F08E
:1087A0004FF9054600F06EF8052C27D2DFE804F0FB
:1087B000030A11181F0025224FF4E131104800F080
:1087C00029F81BE026224FF416510E4800F022F83B
:1087D00014E027224FF416510B4800F01BF80DE06F
:1087E00034224FF4E131094800F014F806E0352254
:1087F0004FF4E131064800F00DF800BF00BF70BD36
:10880000003801400044004000480040004C004057
:108810000050004070B586B006460C4615460194DF
:108820000020ADF80800ADF80A00ADF80C00ADF876
:1088300010000C20ADF80E0001A9304600F044F9FC
:10884000012240F22551304600F018F9012130464E
:10885000FFF796FF40213046FFF77AFF4FF4806024
:10886000FCF76AF98DF8145002208DF815000120EC
:108870008DF816008DF8170005A8FCF723F906B04F
:1088800070BD000038B50446274884420BD10D2046
:108890002315264A51150090104600F057F8012183
:1088A0008803FCF7B3FA224884420BD10420082342
:1088B0001E4A01460090104600F048F80121480485
:1088C000FCF794FA1B4884420FD10920E3141A4A9A
:1088D00011150090104600F039F801218804FCF7CA
:1088E00085FA01218804FCF791FA144884420BD1DF
:1088F0001120E314124A11150090104600F026F8DA
:108900000121C804FCF772FA0E4884420BD13120D1
:1089100004230D4A91140090094800F017F8012132
:108920000805FCF763FA38BD003801400008014033
:108930000044004000480040000C0140004C004052
:108940000010014000500040001401402DE9F843A0
:1089500007460D4616461C46DDF82080012140469C
:10896000FCF754FAADF8005003208DF802001820EF
:108970008DF8030069463846FAF750F8ADF8004024
:1089800004208DF8030069463046FAF747F8294677
:108990003846FAF773F921463046FAF76FF9BDE821
:1089A000F88370B502460024002300250020A1F5BD
:1089B00010666A3E00D100BFC1F3421501F01F03EB
:1089C000012606FA03F3012D02D19689334006E011
:1089D000022D02D1168A334001E0968A33400C12F0
:1089E000012606FA04F41688344013B10CB10120B4
:1089F00000E0002070BD000001460F4A881A914235
:108A000013D006DC0D4808180BD0B0F5806F10D1DC
:108A100009E0B0F5806F0AD0B0F56C4F09D10020A5
:108A200070470120FCE70220FAE70320F8E7042062
:108A3000F6E70020F4E70000004C004000BCFFBF58
:108A4000014605290ED2DFE801F0030507090B00F6
:108A5000054870470548FCE70548FAE70548F8E788
:108A60000548F6E70020F4E70038014000440040E4
:108A700000480040004C004000500040F0B5034664
:108A80000024002600250020A1F510676A3F00D1D0
:108A900000BF1846C1F3421401F01F06012707FA70
:108AA00006F5012C01D10C3004E0022C01D110306C
:108AB00000E014301AB107682F43076002E007682E
:108AC000AF430760F0BD00002DE9F04786B00546D2
:108AD0000E460024A24600BFA1460027B08900B17F
:108AE00000BF2F462C8A4CF6FF700440F0880443E8
:108AF0002C82AC894EF6F3100440B08831890843CB
:108B0000718908430443AC81AC8A4FF6FF400440AE
:108B1000B0890443AC8201A8FCF798F91F4887424A
:108B200002D1DDF810A001E0DDF80CA0A88910F456
:108B3000004F08D00AEBCA0000EB0A103168490068
:108B4000B0FBF1F807E00AEBCA0000EB0A1031684D
:108B50008900B0FBF1F86420B8FBF0F004012009B3
:108B6000642101FB1089A88910F4004F08D032203D
:108B700000EBC900B0FBF1F000F00700044308E08F
:108B8000322000EB09106421B0FBF1F000F00F007F
:108B900004432C8106B0BDE8F08700000038014096
:108BA0002DE9F05F05460E4614462F46B046A14615
:108BB0003846FFF721FF8246084951F82A00FBF7A3
:108BC000EDFD1FFA80FB00235A464146384600F06F
:108BD00007F8A9F80000BDE8F09F0000C8000020D9
:108BE0002DE9F04781460F4615461E464846FFF7D9
:108BF00003FF04462249085D0021FFF79DF98246E4
:108C0000204951F82400FBF7C9FD8046BAF1000F56
:108C100027D0012240F225514846FFF72FFF1A487E
:108C200000781A490855454501D31FFA88F51848B8
:108C300020F814500020174921F814001EB13046C6
:108C4000FFF7E2F803E01149085DFFF787FB0C49E5
:108C5000085DFFF751F9002240F225514846FFF721
:108C60000DFF47B10B4931F81420064951F8240093
:108C70003946F8F7C6F8074830F81400BDE8F08721
:108C800019000020C8000020480000202300002018
:108C9000F0000020FA0000202DE9F04304460D46C4
:108CA00016462746A846B6F800904A46414638463A
:108CB00000F002F8BDE8F08310B50B46002108E093
:108CC00000BF048814F0800FFBD05C5C84804C1CD7
:108CD000A1B29142F4DB10BD0FB430B5B3B005467C
:108CE00038A832906846329A379900F06BF8002025
:108CF00032906846FAF7FCF8044622466946284650
:108D0000FFF7DAFF204633B030BC5DF814FB10B536
:108D10004FF48020F9F7D4FB10BD01460A461068D5
:108D2000704700BFFEE700002DE9F04707460D46FB
:108D30002E0B2805000D00D0761C00241AE04FF4FD
:108D4000805101FB0470FCF745FA0A20FFF75CF83C
:108D50002420B4FBF0F100FB114050B92420B6FBF5
:108D6000F0F8B4FBF0F900234246494603A0F8F7B7
:108D700099FD641CB442E2D3BDE8F087B2C1B3FDF3
:108D8000D2B325642F25640070B504460D461646FF
:108D9000324621462846FCF7D7F870BD70B5044628
:108DA0000D461646328828462168FCF7CDF870BD7E
:108DB00070B504460D461646328828462168FCF7F1
:108DC000EBF870BD37B514460846064B6A46214697
:108DD00000F0C8F804466946002000F066FC204612
:108DE0003EBD0000AB96000802E008C8121F08C193
:108DF000002AFAD170477047002001E001C1121F1C
:108E0000002AFBD1704700002DE9FF5FDDE9022059
:108E1000010DDDF838B0024310D10F9801244CA2A7
:108E2000012808D0002100980F9BC0E90021C0E96B
:108E30000243BDE8FF9F6FEA0B01F4E7A1F2FF31A7
:108E400044F6105041430D140F9801280ED0A5EBA5
:108E50000B00401C4FF000043E4EDFF8FC90B0F1D8
:108E6000000AA04605DACAF1000717E0CBF10000BE
:108E7000F0E7074612E0F80707D02246334640469F
:108E80004946F7F7F8FA80468946224633461046A7
:108E90001946F7F7F0FA04460E467F10002FEAD184
:108EA000DDE90201BAF1000F42464B4602DAF7F75C
:108EB000E2FA01E0F7F751FB04460E460022274B89
:108EC000F7F748FC03D84FF0FF30014607E00022D7
:108ED000234B20463146F7F727FAF7F78CFD10248D
:108EE00009E0002C0ADB0A220023F7F78DFC019B26
:108EF00030321A55641E50EA0102F2D1641C019A04
:108F0000C4F1110314440F9A012A09D00122084325
:108F100001D15B450FDD4FF0000205F101050DE0C9
:108F2000084303D1A3EB0B056D1E09E000204FF0B1
:108F3000110B0F9088E701DA00226D1E002A83D002
:108F400000980F99C0E90231C0E9004571E70000BF
:108F500030000000000024400000F03F0000F0431B
:108F60000000E03F2DE9FF4F95B09B46894606463D
:108F7000002512E2252878D10024761CF94A2746DC
:108F8000012105943378203B01FA03F0104202D00E
:108F90000443761CF6E730782A2811D06FF02F03AF
:108FA0003078A0F13002092A16D8059A44F002045C
:108FB00002EB820203EB42021044761C0590EFE7BD
:108FC00059F8042B0592002A03DA504244F4005465
:108FD000059044F00204761C30782E2816D116F83D
:108FE000010F44F004042A280DD06FF02F023078CE
:108FF000A0F13003092B09D807EB870302EB4303E9
:10900000C718761CF3E759F8047B761C30786C2877
:109010000FD006DC4C2817D068280DD06A2814D150
:1090200004E0742810D07A280FD10DE044F4001425
:109030000AE044F4801401E044F44014727882425F
:1090400002D1761C04F58014761C307866280BD08B
:1090500013DC582877D009DC002875D04528F6D0D5
:109060004628F4D047281AD19FE118E0632835D06C
:10907000642879D0652812D197E1702873D008DC74
:109080006728F1D069286FD06E280DD06F2806D1DF
:10909000B5E073282CD0752875D0782874D05A463E
:1090A000179990476D1C76E1C4F30250022809D04D
:1090B00003280DD0D9F8001004280DD00D6009F157
:1090C000040968E1D9F80010EA17C1E90052F6E78F
:1090D000D9F800100D80F2E70D70F0E719F8041BC5
:1090E0008DF8001000208DF80100EA46012003E011
:1090F00059F804AB4FF0FF3061074FF0000102D484
:109100000DE008F101018846B9420FDA8045F8DB2D
:109110001AF808100029F4D108E008F10101884686
:109120008142FADB1AF808100029F6D105985B464F
:10913000A0EB080721463846179A00F09EFA28440B
:1091400000EB080507E04DE02BE10DE01AF8010BFC
:109150005A4617999047B8F10108F7D25B46214665
:109160003846179A14E142E00A220092C4F30252F0
:109170004FF0000A022A08D059F804CB032A4FEA1C
:10918000EC710AD00DE029E02AE009F1070121F095
:109190000702F2E802C1914609E00FFA8CFC4FEA9F
:1091A000EC71042A03D14FFA8CFC4FEAEC710029D0
:1091B00007DA0A460021DCF1000C61EB02012D22E6
:1091C00002E0220504D52B228DF80420012203E0C1
:1091D000E20701D02022F7E7904653E00A2102E09F
:1091E00010220DE010214FF0000A00910BE0102238
:1091F0004FF0000A44F004040827009203E008221C
:109200004FF0000A0092C4F30252022A05D059F826
:1092100004CB0021032A08D009E009F1070121F05D
:109220000702F2E802C1914605E01FFA8CFC042A0D
:1092300001D10CF0FF0C4FF00008220722D5702856
:1092400027D0009B83F0100353EA0A0309D15CEA9C
:10925000010206D030228DF804208DF8050002228C
:109260009046009B83F0080353EA0A030AD15CEAA4
:10927000010201D1620705D530228DF804204FF09C
:1092800001087F1E582809D037A003900EA802902D
:1092900013E040228DF804200122E1E737A0F4E733
:1092A00053466046009AF7F7AFFA84460398825C0B
:1092B0000298A0F10100029002705CEA0100EFD177
:1092C000029806A9A1EB000000F1200A600702D570
:1092D00024F4803400E00127574502DDA7EB0A00A3
:1092E00000E0002000EB0A01009005984144A0EB4B
:1092F00001000590E00306D45B462146179A0598C5
:1093000000F0BBF90544002706E001A85A46C05DFD
:10931000179990476D1C7F1C4745F6DBE0030CD581
:109320005B462146179A059800F0A7F9054404E02A
:1093300030205A46179990476D1C0099481E00909E
:109340000029F5DC08E0029802995A460078491C89
:109350000291179990476D1CBAF10001AAF1010A18
:10936000F1DC6BE109280100303132333435363716
:109370003839616263646566000000003031323361
:109380003435363738394142434445460000000001
:1093900000F060F9054406F10106307800287FF4FA
:1093A000E9AD19B02846BDE8F08F620700D4062762
:1093B00009F1070222F0070CFCE80223E14603F062
:1093C00000485FEA080C02D00FF27C2C0DE05FEA47
:1093D000045C02D50FF2742C07E05FEAC47C02D073
:1093E0000FF26C2C01E0AFF2700C4FF0FF3823F05D
:1093F0000043CDF850C065280CD006DC452809D0C4
:1094000046281DD047283ED13EE0662818D0672860
:1094100039D139E00021112F01DB112000E0781C47
:10942000CDE9000106A90EA8FFF7EEFCDDE90F016A
:109430000E9A03910021009207F1010A04914EE077
:109440004FF000400097CDE9011006A90EA8FFF7E4
:10945000DBFCDDE90F0203920E9B11990022DDF87F
:109460000CA00093049219B907F1010100EB010A65
:10947000B7EB0A0004D4C0F1FF3007F1010A0490F1
:10948000AAEB0700019046E0012F00DA0127002136
:10949000112F01DD112000E03846CDE9000106A9B9
:1094A0000EA8FFF7B1FCDDE90F010E9A0391002130
:1094B00004910092BA4621070CD40399514500DA71
:1094C0008A46BAF1010F05DD009AAAF10101515C4B
:1094D000302908D0B84202DA10F1040F06DA01216F
:1094E000CDE9011017E0AAF10101E9E7002805DC48
:1094F000049901440491AAEB000102E0411C51458A
:1095000000DD8A460499A0EB010000F10100019002
:109510004FF000400290200704D40198504501DB31
:10952000CDF8048000208DF84F0002980DF14F0710
:10953000B0F1004F25D02B200E9002984FF002087A
:1095400000280CDA404202902D200E9007E00A21FC
:109550000298F7F743F93031029007F8011DB8F18E
:109560000001A8F10108F2DC02980028EFD1791E71
:109570000E980870307800F0200040F0450007F8A1
:10958000020D12A8A0EB070000F10708149800785C
:1095900000B1012000EB0A01019801EBE071059890
:1095A0004144A0EB0100A0F101000590E00306D4C6
:1095B0005B462146179A059800F05FF80544149819
:1095C000007820B15A461799904705F10105E0034C
:1095D00023D55B462146179A059800F04EF80544BE
:1095E0001BE00498002807DBDDE90301884203DD66
:1095F0000098405C179901E0179930205A4690472F
:1096000004986D1C401C04900198401E019004D1E8
:109610002E205A46179990476D1CBAF10001AAF105
:10962000010ADEDC05E017F8010B5A46179990474E
:109630006D1CB8F10001A8F10108F4DC5B4621467D
:10964000179A0598A4E600002D0000002B000000EA
:10965000200000002DE9F041044600251E46174673
:10966000880405D406E039462020B04705F10105FD
:10967000641EF8D52846BDE8F0812DE9F041044686
:1096800000251E469046C80301D5302700E020275C
:10969000880405D506E041463846B04705F1010586
:1096A000641EF8D52846BDE8F0810A68531C0B609B
:1096B00010707047801000BF0100A0F1010290B24D
:1096C000FAD170471E48FBF76FF8F8F7D9F91D4833
:1096D000F8F7A0FC1C48F8F79DFC1C48F8F79AFC2A
:1096E0001B48F8F74DFBF8F79FFCF8F7E3FA194829
:1096F000F8F77AFA00211848FAF7DCFE1648243801
:1097000090F87D0030B1012808D002280AD0032843
:1097100010D10BE01148FEF73BFA0BE01048FEF7C2
:1097200037FA07E00F48FEF733FA03E00E48FEF77A
:109730002FFA00BF00BF0948FEF72AFA00BFFEE774
:10974000040100200038014000440040004800406F
:10975000CC9D0008509E0008F0B00020CC9B000873
:109760005C9D00086C9C0008EC9C000800C18140D6
:1097700001C0804101C0804100C1814001C08041E1
:1097800000C1814000C1814001C0804101C08041D1
:1097900000C1814000C1814001C0804100C18140C1
:1097A00001C0804101C0804100C1814001C08041B1
:1097B00000C1814000C1814001C0804100C18140A1
:1097C00001C0804101C0804100C1814000C1814091
:1097D00001C0804101C0804100C1814001C0804181
:1097E00000C1814000C1814001C0804101C0804171
:1097F00000C1814000C1814001C0804100C1814061
:1098000001C0804101C0804100C1814000C1814050
:1098100001C0804101C0804100C1814001C0804140
:1098200000C1814000C1814001C0804100C1814030
:1098300001C0804101C0804100C1814001C0804120
:1098400000C1814000C1814001C0804101C0804110
:1098500000C1814000C1814001C0804100C1814000
:1098600001C0804101C0804100C1814000C0C101F0
:10987000C30302C2C60607C705C5C404CC0C0DCD80
:109880000FCFCE0E0ACACB0BC90908C8D81819D9F0
:109890001BDBDA1A1EDEDF1FDD1D1CDC14D4D51520
:1098A000D71716D6D21213D311D1D010F03031F110
:1098B00033F3F23236F6F737F53534F43CFCFD3D40
:1098C000FF3F3EFEFA3A3BFB39F9F83828E8E92930
:1098D000EB2B2AEAEE2E2FEF2DEDEC2CE42425E5E0
:1098E00027E7E62622E2E323E12120E0A06061A150
:1098F00063A3A26266A6A767A56564A46CACAD6D00
:10990000AF6F6EAEAA6A6BAB69A9A86878B8B9796F
:10991000BB7B7ABABE7E7FBF7DBDBC7CB47475B59F
:1099200077B7B67672B2B373B17170B0509091518F
:109930009353529296565797559594549C5C5D9DBF
:109940005F9F9E5E5A9A9B5B9959589888484989AF
:109950004B8B8A4A4E8E8F4F8D4D4C8C448485455F
:10996000874746868242438341818040021000003F
:109970000010014000E000000000000000000000B6
:10998000000000007721B6B5E1D5D731F7F50080AA
:109990000067F2D2C6C787E35646737742B6D6C38E
:1099A000D5F546F7D700800073A7A5B1F1F0E335F0
:1099B0003167AF066D4FC6CBEB0EEFCF46616C73D0
:1099C0006500547275650000D0A20008655C00084F
:1099D00002000000C7A20008016E0008020000009B
:1099E000BEA20008415C00080200000004A20008BA
:1099F00024B100200502000010A2000854B100208C
:109A00000B00000054A00008F4B000200400000087
:109A1000B29F0008F8B0002004000000A5A00008D4
:109A2000FCB000200400000003A0000800B10020EA
:109A3000040000006FA0000804B100200400000032
:109A4000CD9F000808B1002004000000C0A000085D
:109A50000CB10020040000001EA0000810B100207E
:109A6000040000008AA0000814B1002004000000D7
:109A7000E89F000818B1002004000000DBA00008E7
:109A80001CB100200400000039A0000820B1002013
:109A900004000000F6A0000830B10020040000001F
:109AA0003BA1000834B10020040000000DA1000813
:109AB00038B100200400000052A100083CB1002091
:109AC0000400000024A1000840B1002004000000B0
:109AD00069A1000844B1002004000000109F0008A4
:109AE000CCB0002004000000619F0008D0B000202E
:109AF000040000002B9F0008D4B0002004000000E8
:109B00007C9F0008D8B0002004000000469F000899
:109B1000DCB0002004000000979F0008E0B00020A7
:109B20000400000089A10008E4B000200400000047
:109B3000BFA100082CB100200B000000F4A1000818
:109B40002DB100200B000000D4A100082EB1002090
:109B50000B00000089A2000828B100201D060000AB
:109B60009EA200085CB100200B00000077A2000854
:109B700028B100201D0A0000E4A1000848B100201F
:109B80000B000000ACA1000849B100200B00000050
:109B900064A2000828B100201D0B0000B9A2000833
:109BA0000000000000000000024800000018014012
:109BB00060000000021000000010014038000000AA
:109BC000000000000000000000000000AD5C000884
:109BD0000000000080A10008D007000069530008C1
:109BE000003801401EA20008D0070000B16700083D
:109BF000000000004EA20008D00700000960000825
:109C00000000000058A20008D007000009730008F7
:109C10000000000058A20008D0070000856C000872
:109C2000FD2F00082DA20008D0070000D55D000818
:109C3000000000004EA20008D0070000C96600081E
:109C400002000000ADA20008D0070000256B00084C
:109C5000000000003BA20008D00700000000000048
:109C6000000000000000000000000000AD5C0008E3
:109C70000000000080A10008D0070000156D00085A
:109C80000000000080A10008D00700006953000810
:109C9000003801401EA20008D0070000B16700088C
:109CA000000000004EA20008D0070000B1680008C4
:109CB000000000009FA10008D0070000ED68000828
:109CC00000000000ADA20008D0070000C96600082F
:109CD00002000000ADA20008D00700000000000054
:109CE000000000000000000000000000AD5C000863
:109CF0000000000080A10008D0070000156D0008DA
:109D00000000000080A10008D0070000B575000821
:109D1000003801409FA10008D0070000B575000879
:109D2000004400409FA10008D0070000495F0008E0
:109D300000000000ADA20008D0070000C9660008BE
:109D400002000000ADA20008D007000000000000E3
:109D5000000000000000000000000000AD5C0008F2
:109D60000000000080A10008D0070000B1670008D3
:109D7000000000004EA20008D0070000856C00081B
:109D8000000000002DA20008D00700006953000861
:109D9000003801401EA20008D0070000C966000874
:109DA00000000000ADA20008D0070000056A00080E
:109DB000000000003BA20008D007000000000000E7
:109DC0000000000000000000000000000348000048
:109DD00000100140080000000310000000100140C6
:109DE000040000000000000000000000000000006F
:109DF00002100000000C01400730000002100000BB
:109E00000010014000030000034800000010014062
:109E1000C00000000328000000080140010000000D
:109E20000348000000080140000100000348000052
:109E3000001001400300000003040000000C01407A
:109E400030000000000000000000000000000000E2
:109E500002100000000C0140010000000210000090
:109E6000000801400008000002100000000C014042
:109E70000010000002100000000801400200000075
:109E8000024800000010014080000000024800006D
:109E9000001001400001000002480000000C0140D9
:109EA0000040000002480000000C0140008000005B
:109EB000022800000008014001000000021000001C
:109EC000000C01408000000002100000000C014066
:109ED00000200000021000000010014000020000FD
:109EE00000000000000000000000000055000B0210
:109EF000801A2B3C4D5E1503303132333435363702
:109F000038392E2D2055504654424F48434C4E0070
:109F1000CDA8B5C05B31315DCAB5CAB1CAFDBEDDE1
:109F20003A252E3266A1E62F252500CDA8B5C05BC7
:109F300032315DCAB5CAB1CAFDBEDD3A252E3266E0
:109F4000A1E62F252500CDA8B5C05B33315DCAB58C
:109F5000CAB1CAFDBEDD3A252E3266A1E62F2525FF
:109F600000CDA8B5C05B31325DCAB5CAB1CAFDBE6D
:109F7000DD3A252E3266A1E62F252500CDA8B5C0F5
:109F80005B32325DCAB5CAB1CAFDBEDD3A252E329A
:109F900066A1E62F252500CDA8B5C05B33325DCA8A
:109FA000B5CAB1CAFDBEDD3A252E3266A1E62F251F
:109FB0002500CDA8B5C05B31315DB1A8BEAFCFC221
:109FC000CFDE3A252E3266A1E62F252500CDA8B595
:109FD000C05B32315DB1A8BEAFCFC2CFDE3A252E15
:109FE0003266A1E62F252500CDA8B5C05B33315DD3
:109FF000B1A8BEAFCFC2CFDE3A252E3266A1E62F82
:10A00000252500CDA8B5C05B31325DB1A8BEAFCF6C
:10A01000C2CFDE3A252E3266A1E62F252500CDA837
:10A02000B5C05B32325DB1A8BEAFCFC2CFDE3A253C
:10A030002E3266A1E62F252500CDA8B5C05B3332B0
:10A040005DB1A8BEAFCFC2CFDE3A252E3266A1E603
:10A050002F252500CDA8B5C05B31315DB1A8BEAFBD
:10A06000C9CFCFDE3A252E3266A1E62F252500CDB9
:10A07000A8B5C05B32315DB1A8BEAFC9CFCFDE3A63
:10A08000252E3266A1E62F252500CDA8B5C05B336D
:10A09000315DB1A8BEAFC9CFCFDE3A252E3266A161
:10A0A000E62F252500CDA8B5C05B31325DB1A8BE35
:10A0B000AFC9CFCFDE3A252E3266A1E62F25250087
:10A0C000CDA8B5C05B32325DB1A8BEAFC9CFCFDE7F
:10A0D0003A252E3266A1E62F252500CDA8B5C05B16
:10A0E00033325DB1A8BEAFC9CFCFDE3A252E32667E
:10A0F000A1E62F252500CDA8B5C05B31315DD0DEAE
:10A10000D5FD3A252E3266A1E62F252500CDA8B52E
:10A11000C05B32315DD0DED5FD3A252E3266A1E638
:10A120002F252500CDA8B5C05B33315DD0DED5FD30
:10A130003A252E3266A1E62F252500CDA8B5C05BB5
:10A1400031325DD0DED5FD3A252E3266A1E62F25CF
:10A150002500CDA8B5C05B32325DD0DED5FD3A25F5
:10A160002E3266A1E62F252500CDA8B5C05B33327F
:10A170005DD0DED5FD3A252E3266A1E62F252500DD
:10A180005461736B30004F4B00CDA8B5C05B345D9C
:10A19000B5E7B3D8B5E7D1B93A252E3266560054A3
:10A1A00061736B5F4765744C6F726100C9E8B1B849
:10A1B000C0E0D0CD28C4ACC8CF30293A256400B562
:10A1C000F7CAD4B9FDC2CBC6F728C4ACC8CF312971
:10A1D0003A256400BCC7C2BCD6DCC6DA28B7D6298B
:10A1E0003A256400D0DDC3DFD6DCC6DA28B7D6292D
:10A1F0003A256400C9CFB4ABD6DCC6DA28C3EB2954
:10A200003A256400C9E8B1B8B5D8D6B73A25640094
:10A21000B4ABB8D0C6F7BCC6CAFD3A2564005365D6
:10A220006E736F725F436F6D6D616E640054617326
:10A230006B5F4B6579426F617264005461736B5F51
:10A24000486973746F72795265636F726400546108
:10A25000736B5F46616365005461736B5F41637448
:10A26000696F6E00D0DDC3DFCFD4CABE2846616CF3
:10A270007365293A257300C0FACAB7BCC7C2BC28A7
:10A2800054727565293A2573004454483131B4AB92
:10A29000B8D0C6F72854727565293A257300D0C521
:10A2A000BAC5C7BFB6C83A256461737500546173F7
:10A2B0006B5F41727261727900B2CBB5A500D6D8DE
:10A2C000C6F4C9E8B1B800B6C1C8A1C5E4D6C30098
:10A2D000B1A3B4E6C5E4D6C300000000FCA20008A8
:10A2E00000000020C8000000E88D0008C4A300089A
:10A2F000C8000020E0B50000F88D00080000000054
:10A300000102030401020304060708090204060807
:10A31000000000000000000000000000000000003D
:10A3200000000000FF050000000000000000000029
:10A33000000000000000000000000000000000001D
:10A34000000000000000000000000000000000000D
:10A3500000000000000000000000000000000000FD
:10A36000FF00FF0000000000FF000000F89E000852
:10A37000FFFF0000F89E000800020000000C0140F2
:10A3800000020000000C01400100000086A100084E
:10A39000FF0FFFFF000000000000000000000100B0
:10A3A00000000000000000000000000000000000AD
:10A3B000000000000000000000000000000000009D
:04A3C0000000000099
:0400000508000131BD
:00000001FF
