:020000040800F2
:1050000000A30020455100083D980008418A00088F
:10501000C9940008295E00089900010800000000FA
:105020000000000000000000000000009DC5000816
:10503000856A000800000000C59900081FCE00081E
:105040005F5100085F5100085F5100085F51000880
:105050005F5100085F5100085F5100085F51000870
:10506000017400085F5100085F5100085F5100089B
:105070005F5100085F5100085F5100085F51000850
:105080005F5100085F5100085F5100085F51000840
:105090005F5100085F5100085F5100080F7400085D
:1050A0005F5100085F5100085F5100085F51000820
:1050B0005F5100085F5100085F5100085F51000810
:1050C0005F5100085F5100085F5100085F51000800
:1050D0005F51000895F90008F5F9000855FA000835
:1050E0005F5100085F510008850001085F5100080A
:1050F0005F5100085F5100085F5100085F510008D0
:105100005F5100085F5100085F5100085F510008BF
:10511000D5F8000835F900085F5100085F51000814
:105120005F5100085F5100085F5100085F5100089F
:10513000DFF80CD000F078FC00480047390A01087D
:1051400000A300200648804706480047FEE7FEE728
:10515000FEE7FEE7FEE7FEE7FEE7FEE7FEE7FEE727
:10516000C1CE00083151000830B505462A460B462D
:1051700012F8010B13F8014B08B1A042F8D01CB192
:10518000002802D06D1CF1E7284630BDF0B480EA5B
:105190000102D40F4200B2EB410F02D20246084690
:1051A00011464A0042D0C30DDDB2C1F3C752AD1A59
:1051B000202D35DAC1F3160141F4000204B1524248
:1051C000C5F1200602FA06F12A411044B3EBD05F84
:1051D00023D0C4B1012DA0EBC35009DCF0BC4FF0CB
:1051E000004202EAC35200F50000DBB200F077BBD8
:1051F000400000F1807000EBC350A0F1807040EAE5
:10520000D170490009E0490841EAC071A0EBC350E0
:1052100000F50000400800EBC350F0BC00F056BBA6
:105220006142012202EB4101001BF6E7F0BC70472E
:1052300081F00041AAE780F00040A7E780EA010280
:1052400010B502F00043400026D04A0023D04FEAB8
:10525000106101EB1261C0F35600C2F3560240F434
:10526000000042F40002A0FB0220A1F17F014FEAFE
:105270000040140401D000F1010050EA124001D4B2
:105280004000491EC2B20C0604EBD010401C40087E
:10529000802A02D003E0002010BD20F00100002988
:1052A00000DA0020184310BD30B480EA010202F099
:1052B000004530F0004221F0004015D0A0B1C0F30D
:1052C000C753C2F3C754C2F31601C0F31600E41A61
:1052D00041F4000140F400027D34914201D3641C8A
:1052E00000E04900002C02DA30BC002070474FF487
:1052F00000000023914201D3891A034340084FEA7A
:105300004101F7D151B1914202D14FF0004105E086
:1053100002D24FF0010101E06FF0010103EBC45034
:10532000284430BC00F0D2BA2DE9FE4F804681EA15
:105330000300C00F0C46009021F0004123F000450F
:10534000B8EB0200A94105D24046214690461C46D2
:105350000B46024623F00040104304D1404621464C
:1053600003B0BDE8F08F270DC7F30A00C3F30A515D
:105370000290401A0190402866DAC3F3130040F40B
:10538000801B0098924620B10023D2EB030A63EB06
:105390000B0B01985946C0F14002504600F065FAE7
:1053A00006460D4650465946019A00F07DFA10EB2C
:1053B00008006141002487EA115284EAE7731A4326
:1053C0003BD0009A3AB3019A012A4FEA075210DC07
:1053D000001B61EB02014FF0004202EA0752CDE9E7
:1053E0000042001C41F5801132462B4600F0B1FA14
:1053F000B6E7001B61EB0201001C41F580130018A9
:105400005B412018A2F5001747EB030140EAD57075
:10541000B6196D4111E06D084FEA360645EAC075D0
:105420004FEA0752001B61EB0201001C41F580119D
:1054300049084FEA30000019514132462B4603B06B
:10544000BDE8F04F00F078BA009801224000002338
:10545000D0EB020263EBE073009821464FEAE07460
:10546000B8EB000061EB0401E9E783F000435BE780
:1054700081F0004158E72DE9FE4F81EA030404F072
:10548000004421F0004100944FF0000B23F0004352
:1054900050EA010402D052EA030404D1002001467C
:1054A00003B0BDE8F08FC3F30A54C1F30A552C448E
:1054B000A4F2F3340194A0FB0254C1F3130141F4AC
:1054C0008011C3F3130343F4801301FB024400FB78
:1054D000034E840A970A44EA815447EA8357A4FB9F
:1054E000076802958D0A05FB07854FEA932C04FB9C
:1054F0000C542705029D4FEA065847EA1637B5EBCC
:1055000008056EEB070C870E920E47EA811742EAF8
:105510008312A7FB0201B6EB0B0164EB00042B0D19
:1055200043EA0C335E1844EB1C50DA465146E7FB65
:105530000201C5F313044FEA0B3343EA14534FEA55
:105540000432019C43EA0603A4F10C040294009C7B
:10555000CDE900B400F0FDF9A2E72DE9F04D81EAB4
:10556000030404F0004B21F0004514464FF0000AFC
:1055700023F0004150EA050220D054EA01021DD078
:10558000C5F30A570246C5F31303C1F31300C1F371
:105590000A5640F4801543F48013A7EB0608101B4D
:1055A000D64608F2FD3873EB050002D308F1010876
:1055B00001E092185B41B8F1000F03DA00200146C8
:1055C000BDE8F08D00204FF48011064684460EE0C1
:1055D000171B73EB050705D3121B63EB050306438B
:1055E0004CEA010C49084FEA300092185B4150EA3E
:1055F0000107EDD152EA030012D082EA040083EAE7
:105600000501084303D100224FF0004308E0101BBE
:10561000AB4102D20122002302E06FF001025310DD
:105620001AEB06004CEB085110EB0A0041EB0B01A2
:10563000BDE8F04D00F080B9C10F80EAE070084489
:10564000CA079623002100F04AB99623002211468A
:1056500000F045B90EB540F2334102910021CDE989
:1056600000110A460B4600F074F903B000BD00F0CB
:10567000004220F00040C10DC0F3160040F40000CD
:105680007F2901DA00207047962903DCC1F19601D9
:10569000C84001E096398840002AF4D04042704763
:1056A00020F00040C10DC0F3160040F400007F2937
:1056B00001DA00207047962903DCC1F19601C84049
:1056C000704796398840704770B5C1F30A5201F0AF
:1056D00000450024C1F3130140F2FF3341F480116F
:1056E0009A4201DA002070BD40F233439A42A2F29E
:1056F000334203DC524200F0C7F800E090402C43F4
:10570000F1D0404270BD00F0004230F000400AD0BD
:10571000C10D01F56071C0F3160042EA0151C208E3
:1057200040071143704700200146704730B50029FB
:1057300004DB4FF00044404264EB0101002B04DB2A
:105740004FF00044524264EB03038B4208BF824295
:1057500030BD000030B5002904DB4FF0004440426A
:1057600064EB0101002B04DB4FF00044524264EB78
:105770000303994208BF904230BD000001F000438E
:1057800030B421F0004150EA010206D00A0DA2F522
:105790006072C1F31301002A02DC30BC00207047A4
:1057A000440F44EAC104C100E01830BC00EBC25011
:1057B00000F08CB8002801DBC0F10040002901DBBB
:1057C000C1F1004181427047002801DBC0F1004077
:1057D000002901DBC1F100418842704730B50B461A
:1057E000014600202022012409E021FA02F59D4211
:1057F00005D303FA02F5491B04FA02F52844151EE5
:10580000A2F10102F1DC30BD2DE9F05F0546002078
:1058100092469B4688460646814640241BE0284621
:1058200041464746224600F02FF853465A46C01AD2
:10583000914110D311461846224600F016F82D1A51
:1058400067EB01084F4622460120002100F00DF8C9
:1058500017EB00094E41201EA4F10104DFDC48468D
:1058600031462A464346BDE8F09F202A04DB203A11
:1058700000FA02F1002070479140C2F1200320FAA3
:1058800003F3194390407047202A04DB203A21FAA1
:1058900002F00021704721FA02F3D040C2F1200249
:1058A0009140084319467047202A06DBCB17203A5F
:1058B00041FA02F043EAE07306E041FA02F3D04015
:1058C000C2F1200291400843194670470029A8BF41
:1058D0007047401C490008BF20F00100704710B419
:1058E000B0FA80FC00FA0CF050EA010404BF10BCCE
:1058F000704749B1CCF1200421FA04F411FA0CF1FB
:1059000018BF012121430843A3EB0C01CB1D010665
:10591000000A002BBEBF002010BC704700EBC35034
:1059200010440029A4BF10BC7047401C490008BFA8
:1059300020F0010010BC704710B5002B08DA401CA5
:1059400041F1000192185B411A4301D120F001009E
:1059500010BD2DE9F04D92469B4611B1B1FA81F28E
:1059600002E0B0FA80F220329046FFF77EFF044654
:105970000F4640EA0A0041EA0B0153465A460843E3
:1059800003D120463946BDE8F08D114653EA0100A7
:1059900015D0C8F140025046FFF776FF05460E4687
:1059A000504659464246FFF760FF084301D00120A8
:1059B00000E00020054346EAE0762C4337430A988E
:1059C0004FEA4453A0EB08004FEAD4240A304FF0CA
:1059D000000244EA47544FEAD72502D50020014689
:1059E000D1E7010510196941DDE908450019694150
:1059F000BDE8F04DA0E7C1F30A52C1F3130140F234
:105A0000FF3341F480119A4202DA002001467047C8
:105A100040F233439A42A2F2334202DC5242FFF791
:105A200033BFFFF722BF0000064C074D06E0E068D9
:105A300040F0010394E8070098471034AC42F6D3D5
:105A4000FFF77AFB588001087880010882B02DE9C1
:105A5000FF1FEFF3038001B4684600F1400000E946
:105A600001400C480168C1F800D00B48D0F800D0C4
:105A700001BC80F30388BDE8FF1F01B000BD0648EC
:105A8000D0F800D001BC80F30388BDE8FF1F01B04F
:105A900000BD0000380000203400002008B50121BE
:105AA000084605F06BFE01214FF4047005F086FEF8
:105AB0001020ADF8000000208DF803006946024870
:105AC00002F0ACF808BD00000010014010B504461B
:105AD000FFF7E4FF204600F001F810BD10B590B0CC
:105AE0000446334800F0E6FB324805900694002057
:105AF000079001200890002009900A904FF48070D0
:105B00000B9080000C9020200D9000020E90002041
:105B10000F9005A9264800F073FC0121244800F0ED
:105B2000BDFB002000908DF8040001208DF80500D9
:105B30004FF4602002900020039001208DF81000A7
:105B400069461C484C3800F061F84FF4404005F0BD
:105B500009FE052301220E2116484C3800F07EF87C
:105B6000012114484C3800F032F8012111484C381A
:105B700000F022F80F484C3800F0CCF800BF0D4878
:105B80004C3800F039F80028F9D10A484C3800F0B8
:105B9000D1F800BF07484C3800F024F80028F9D1AC
:105BA000012104484C3800F0BAF810B010BD0000D4
:105BB000080002404C24014021B1826842F00102F9
:105BC000826003E0826822F001028260704721B1A6
:105BD000826842F48072826003E0826822F48072FC
:105BE00082607047014600208A6812F0040F01D0DD
:105BF000012000E000207047014600208A6812F072
:105C0000080F01D0012000E00020704730B50246A7
:105C10000020002350680F4C20400D790C6844EAA6
:105C200005242043506090680B4C2040D1E9025479
:105C30002C434D7944EA450420439060D06A20F417
:105C400070000C7C641EE4B2234340EA0350D0622F
:105C500030BD0000FFFEF0FFFDF7F1FFF0B5044698
:105C60000D4600200021092D11DDE068A5F10A068E
:105C700006EB4607072606FA07F18843A5F10A0650
:105C800006EB460603FA06F10843E0600CE02069E3
:105C900005EB4507072606FA07F1884305EB45069D
:105CA00003FA06F108432061072A0FDA606B561EDB
:105CB00006EB86071F2606FA07F18843561E06EBF9
:105CC000860605FA06F10843606322E00D2A0FDA22
:105CD000206BD61F06EB86071F2606FA07F18843BE
:105CE000D61F06EB860605FA06F10843206310E08E
:105CF000E06AA2F10D0606EB86071F2606FA07F1F9
:105D00008843A2F10D0606EB860605FA06F1084364
:105D1000E062F0BD816841F008018160704721B107
:105D2000826842F4A002826003E0826822F4A0024A
:105D300082607047816841F0040181607047000013
:105D400010B50021074803F075FA044644B905214F
:105D500005A000F0B5FD0121024803F06BFA0446EE
:105D6000204610BD709D0020C5E4D6C3B2CECAFD4A
:105D7000C6ACC7F8D2BBB4EDCEF3000006E04FF4DA
:105D80007A7100BF0A00A1F10101FBD10200A0F16C
:105D90000100F4D170470146081100EB4000A1EB6F
:105DA0004000C0B27047000030B50246002441F602
:105DB0006F2316E0E01800EBD07569100B4830F83F
:105DC0002100904204D1094800EB8100408830BD99
:105DD000064830F82100904201DA4C1C00E04B1ECE
:105DE00000BF9C42E6DD0020F1E70000540F0108EF
:105DF000F0B5034600201C460D46104603E014F89B
:105E0000016B05F8016B1600A2F10107BAB2F6D1D9
:105E1000F0BD30B5034601E003F8011B1400A2F108
:105E20000105AAB2F8D130BD00BFFEE72DE9F0416F
:105E300005460E463F4803F0A9FBA84202DC0020BD
:105E4000BDE8F08105EB45003A4901EB8004207A7A
:105E5000092833D008DC02280FD0042837D00528C1
:105E600023D0062863D116E00B280BD018284BD07E
:105E70001A2856D01D285AD12FE0606808B16068F2
:105E8000804754E0304602F033FC0746FFF708FC39
:105E9000616808704BE0304602F02AFC0746FFF7C5
:105EA000E6FB40B26168087041E0304602F020FC39
:105EB0000746FFF7F5FB6168088038E0304602F0DE
:105EC00017FC0746FFF7ECFB616808602FE03046DF
:105ED00002F00EFC6168086029E017A1304606F068
:105EE00086FF40B160680068627A012191400843F2
:105EF0006168086007E060680068627A012191408B
:105F000088436168086012E00BA1304606F06FFF1D
:105F100018B101206168087002E000206168087013
:105F200005E0627A30466168FFF762FF00BF00BF9C
:105F3000012085E7500D01085400000070B50446AB
:105F40000D460A4803F022FBA04201DC002070BD90
:105F500004EB4400054A02EB8001284603F0E2F915
:105F6000284602F05BFCC6B23046F0E7500D01084F
:105F70000246002110E0505C392801DD012000E0DC
:105F80000020535C302B01DA012300E0002318438A
:105F900001D000207047491C0B29ECDB0120F9E7F8
:105FA00002E0002200F8012B0A00A1F1010399B2DE
:105FB000F7D1704770B505460C46284602F02EFC16
:105FC0000646204602F02AFC864201D0002070BD21
:105FD00007E015F8011B14F8012B914201D00020B5
:105FE000F5E7287810B120780028F2D10120EEE7FB
:105FF00010B5002400F090F804E0601CC4B2012049
:1060000000F038F8114801881148006801F0D4FE0A
:1060100008B1642CF1DB642C01DB012010BD0024ED
:1060200004E0601CC4B2012000F024F80748018895
:106030000748006801F0C0FE08B9642CF1DB642C4D
:1060400001DB0120EAE70020E8E7000078000020FB
:106050007C000020002107E042F6E06100BF0A005A
:10606000A1F1010399B2FAD10200A0F1010398B2A3
:10607000F2D17047002106E0072100BF0A00A1F11C
:10608000010399B2FAD10200A0F1010398B2F3D151
:10609000704700002DE9F04105460E462C784FF67A
:1060A000FF7000EA04246878044314F4004F0CD015
:1060B000E143491C41F40040FFF7BEFA074613498B
:1060C0003846FFF7F1F8074608E02046FFF7BDFA2B
:1060D00007460E493846FFF7E7F807460C493846A9
:1060E000FFF772FB02D24FF0010801E04FF0000809
:1060F00008493846FFF75EFB01D2012000E000208E
:1061000018EA000F00D03760BDE8F08100002041A0
:1061100000007AC40000F04208B508480088ADF8D5
:10612000000003208DF8020048208DF80300694626
:106130000348006801F072FD08BD000078000020EF
:106140007C00002008B508480088ADF80000032056
:106150008DF8020010208DF803006946034800689E
:1061600001F05CFD08BD0000780000207C000020EC
:106170002DE9FC4105460E4600F076F8FFF738FFA2
:1061800010B10120BDE8FC8172B6002405E000F0EA
:106190005BF80DF80400601CC4B2052CF7DB9DF819
:1061A00000009DF8011008449DF8021008449DF875
:1061B00003100844C7B29DF80400B84202D062B68A
:1061C0000120DFE71DB131466846FFF763FF26B1C6
:1061D00029460DF10200FFF75DFF62B60020D1E70E
:1061E00010B5002404E0601CC4B20120FFF742FF98
:1061F000134801881348006801F0DEFD08B1642CE3
:10620000F1DB002404E0601CC4B20120FFF732FF80
:106210000B4801880B48006801F0CEFD08B9642CDA
:10622000F1DB2320FFF726FF0548018805480068B9
:1062300001F0C2FD08B1012010BD0020FCE7000004
:10624000780000207C00002070B50024002506E0C6
:106250006006040EFFF7C4FF0443681CC5B2082D96
:10626000F6DB204670BD000010B5FFF76BFF094854
:1062700001880948006801F0A8FD0A20FFF7EAFE3E
:10628000044801880448006801F0A1FD5020FFF790
:10629000F1FE10BD780000207C00002021B10268D2
:1062A00042F00102026004E002684FF6FE731A40F9
:1062B0000260704701684FF6FE72114001600021D4
:1062C000016041608160C1604B49884208D14A4900
:1062D0000839496841F00F01474A083A51608AE09D
:1062E00045491431884208D143490839496841F089
:1062F000F001414A083A51607DE03F492831884227
:1063000008D13D490839496841F470613A4A083A70
:10631000516070E038493C31884208D1364908392B
:10632000496841F47041344A083A516063E03249A7
:106330005031884208D130490839496841F4702108
:106340002D4A083A516056E02B496431884208D101
:1063500029490839496841F47001274A083A5160CF
:1063600049E025497831884208D1234908394968EC
:1063700041F07061204A083A51603CE01F49884270
:1063800006D1011F096841F00F01021F116032E0C0
:106390001A491431884208D11849091F096841F087
:1063A000F001164A121F116025E014492831884275
:1063B00008D11249091F096841F470610F4A121F80
:1063C000116018E00D493C31884208D10B49091F82
:1063D000096841F47041094A121F11600BE0074936
:1063E0005031884207D10549091F096841F47021DD
:1063F000024A121F11607047080002400804024060
:1064000010B50022026847F6F0739A430C6A8B6855
:1064100023430C6923434C6923438C692343CC6990
:1064200023434C6A23438C6A23431A430260CB689C
:1064300043600B6883604B68C36010BD08B50121E1
:10644000082005F0BBF90D480088ADF800001020C9
:106450008DF8030003208DF80200694608480068A3
:1064600001F0DCFB054801880548006801F0AFFC3D
:1064700000F0B2F900F006F808BD0000800000202E
:106480008400002010B5002400F0BEF804E0601C79
:10649000C4B2012000F028F81148018811480068B2
:1064A00001F08AFC08B1C82CF1DBC82C01DB01200B
:1064B00010BD002404E0601CC4B2012000F014F8F8
:1064C000074801880748006801F076FC08B9F02CFD
:1064D000F1DBF02C01DB0120EAE70020E8E7000017
:1064E0008000002084000020002106E0062100BF7B
:1064F0000A00A1F1010399B2FAD10200A0F101034F
:1065000098B2F3D1704700002DE9FE4F824600F0AB
:1065100089F900F061F9FFF7B5FF044614B10120D5
:10652000BDE8FE8FCC2000F089F9BE2000F086F98E
:10653000002405E000F0BEF80DF80400601CC4B2B1
:10654000092CF7DB0821684608F0B0FB04469DF8EB
:106550000800A04205D0052126A000F0B1F90020D6
:10656000DEE79DF8010007281EDD9DF80100C0430D
:10657000C0B28DF801009DF80000C043C0B28DF894
:1065800000009DF801904FF6FF7000EA09299DF880
:10659000000040EA09094846FFF757F80546002180
:1065A000FEF749FE83460DE09DF801904FF6FF701F
:1065B00000EA09299DF8000040EA09094846FFF76A
:1065C00044F883465846FFF79EF8074600220C4BD6
:1065D000FEF751FF0546FFF7D1F88346BAF1000FE9
:1065E00005D008495846FEF75FFECAF800000020B3
:1065F00096E70000D0A3D1E9B4EDCEF3000000008F
:106600000000E43F0000204108B508480088ADF8CC
:10661000000003208DF8020048208DF80300694631
:106620000348006801F0FAFA08BD0000800000206D
:106630008400002008B508480088ADF80000032059
:106640008DF8020010208DF80300694603480068A9
:1066500001F0E4FA08BD0000800000208400002062
:1066600010B5FFF7E7FF114801881148006801F0F5
:10667000ACFB0220FFF738FF0C4801880C4800688B
:1066800001F0A5FBFFF7C0FF0520FFF72DFF07482E
:1066900001880748006801F08FFB08B1012400E081
:1066A00000243220FFF720FF204610BD800000208C
:1066B0008400002070B50026012508E0FFF7D0FF18
:1066C0000446E00140EA6600C6B2681CC5B2082D67
:1066D000F4DD304670BD000070B506460C4600255E
:1066E0003A4890F8B00010F0400F23D04FF40071FA
:1066F000374800F0DBF821463046FFF739FD78B126
:1067000034480078401C33490870084600780A284D
:106710005ADD2E48006920F440702C49086153E08E
:1067200000202C4908702948006940F4407027492E
:10673000086149E04FF40071254800F069F83046DF
:10674000FFF7E2FE05468DB122480078401C214942
:106750000870084600780A2811DDFFF76FFE1B4815
:10676000006920F480701949086108E00020194987
:1067700008701648006940F48070144908614FF4AD
:106780008071134800F044F82046FFF7BDFE05462F
:106790008DB110484078401C0E494870084640783A
:1067A0000A2811DDFFF74AFE0848006920F400704E
:1067B0000649086108E0002006494870034800695E
:1067C00040F400700149086170BD00005C9D00202C
:1067D000000C01409900002010B5FFF72BFF0A487C
:1067E00001880A48006801F0F0FA40F2EE20FFF755
:1067F0007BFE054801880548006801F0E8FA0F2093
:10680000FFF772FE10BD0000800000208400002011
:10681000024A1060024A1180704700008400002084
:106820008000002010B5FFF7D7FFFFF72BFECC202C
:1068300000F004F8442000F001F810BD70B50446E3
:10684000FFF7F8FE01252AE004F00106641096B176
:10685000144801881448006801F0B7FA0220FFF7D5
:1068600043FE104801881048006801F0B0FA3C204F
:10687000FFF73AFE11E00B4801880B48006801F071
:10688000A4FA3C20FFF730FE06480188064800685D
:1068900001F09DFA0220FFF727FE681CC5B2082D03
:1068A000D2DD70BD8000002084000020024A10600C
:1068B000024A1180704700007C0000207800002010
:1068C0000FB42DE9F04186B0002501260027B00263
:1068D00002F036FE044654480078FF2801D101201A
:1068E00000E0002050490978504A1278914201D1C5
:1068F000012100E0002108437DD00DA8059020462D
:10690000059A0C9909F018FC002005900DA8059037
:1069100069460C9801F04DFD06462AE02846691CA0
:10692000CDB21DF80000012804D0022806D00328AB
:106930001AD115E0059880C8059019E00598C01D8A
:1069400020F007000590D0E90021DDF814C00CF11B
:10695000080C1046CDF814C0FEF7B6FE074607E057
:10696000059880C8059003E0059880C8059000BF91
:1069700000BF3000A6F10106D0D1059880C805906F
:10698000002005902A480078FF2801D1012000E06E
:10699000002027490978B94201DB012100E00021EC
:1069A000084338D0214623A006F000FA2248007898
:1069B00010F0020F0DD02149087800F09DFB40B186
:1069C000204601F02BFF8046424621461C4809F034
:1069D0002EFB1948007810F0040F0FD017494878A3
:1069E00000F08AFB50B1204601F018FF8046424675
:1069F0002146144800E00EE009F019FB1248006837
:106A000048B1204601F00AFF00F0FF084146204649
:106A10000D4A12689047204602F066FD06B0BDE8B8
:106A2000F0015DF814FB000060000020440000202D
:106A3000620000200D0A0000610000201400002008
:106A4000003801400044004064000020FF2001495C
:106A50000870704760000020024800780249087002
:106A600070470000440000206000002001490870C9
:106A70007047000061000020014908707047000065
:106A800062000020704701460A2091FBF0F000EB05
:106A9000400001EB4000C0B27047000010B500207C
:106AA0001A4908704FF4A07002F04AFD18490860B6
:106AB000002406E0FF201749085517490855601CB7
:106AC000C4B2052CF6DB00241DE000201049096843
:106AD00001EB4411486103200D49096801EB4411A1
:106AE000087200200A49096801EB4411086108494D
:106AF000096801EB4411C8600549096801EB4411BC
:106B00008861601CC4B20A2CDFDB10BD500000207D
:106B100054000020140000201900002038B5002483
:106B200054E02C48006800EB4410006800284BD06B
:106B30002848006800EB4410C079012806D00228DC
:106B400020D0032813D0042832D126E0032000905F
:106B50002048006800EB4410C3691E48006800EB41
:106B60004410214602681CA0FFF7AAFE2BE019483A
:106B7000006800EB44100323214602681CA0FFF7C5
:106B80009FFE20E01348006800EB441003232146D9
:106B9000026817A0FFF794FE15E00E48006800EBAE
:106BA000441003232146026811A0FFF789FE0AE082
:106BB0000848006800EB44100323214602680CA03B
:106BC000FFF77EFE00BF00BF601CC4B20A2CA8DB2A
:106BD00038BD0000540000204465766963655B257C
:106BE000645D4E616D653A25735B25645D00000050
:106BF0004465766963655B25645D4E616D653A2524
:106C0000730000002D4908602D4909782D4A117044
:106C10002B490978491C2A4A11702A4909782A4ABD
:106C20001268284B1B7802EB4312117127A1264AE8
:106C30001268244B1B7802EB431211600021224A98
:106C40001268204B1B7802EB4312517102211E4A3D
:106C500012681C4B1B7802EB4312D17101211A4AB6
:106C60001268184B1B7802EB43121172184A16492E
:106C70000968144B1B7801EB43114A6112490968FA
:106C8000104A127801EB4211C86100220E490968CE
:106C90000C4B1B7801EB4311CA6000210A4A1268B1
:106CA000084B1B7802EB43121161074A1268054B2F
:106CB0001B7802EB4312916170470000C80000206E
:106CC000500000207000002054000020494F0000B8
:106CD000317D00082C4909782C4A11702A4909781D
:106CE000491C294A117029490978294A1268274BF9
:106CF0001B7802EB4312117126A1254A1268234B1F
:106D00001B7802EB431211600021214A12681F4BCD
:106D10001B7802EB4312517104221D4909681B4B79
:106D20001B7801EB4311CA71012219490968174BFD
:106D30001B7801EB43110A721849154A1268134B6C
:106D40001B7802EB43125161114909680F4A12780E
:106D500001EB4211C86100220D4909680B4B1B78F9
:106D600001EB4311CA600021094A1268074B1B78E6
:106D700002EB43121161002205490968034B1B789D
:106D800001EB43118A6170475000002092000020FF
:106D90005400002049534C3132303800CD8F000868
:106DA0002DE9F04107460D461646384608F0D6FF55
:106DB00004465F48005DFF2808D15E4800785C49C2
:106DC00008555C480078401C5A4908705AA0584938
:106DD000095D5B4A126802EB4111086000205449CA
:106DE000095D574A126802EB411148710120504970
:106DF000095D534A126802EB4111C87103204C49E6
:106E0000095D4F4A126802EB411108724D4848492A
:106E1000095D4B4A126802EB411148614448005D2C
:106E20004749096801EB4010C46147494048005D8B
:106E3000434A126802EB4010C16044483C49095D76
:106E40003F4A126802EB4111086100213848005D99
:106E50003B4A126802EB4010816100203C4921F856
:106E60001400284602F06CFB3A4941F824003846E9
:106E700008F074FF04463848005DFF2808D12D480B
:106E80000078354908552B480078401C294908707E
:106E900032A03149095D2A4A126802EB41110860AB
:106EA00000202D49095D264A126802EB4111487104
:106EB00001212948005D224A126802EB4010C1718D
:106EC00003202549095D1E4A126802EB4111087230
:106ED0001C492148005D1A4A126802EB40104161CA
:106EE0001D48005D1649096801EB4010C461164851
:106EF0001949095D124A126802EB4111C860134832
:106F00001549095D0E4A126802EB41110861002023
:106F10001149095D0A4A126802EB41118861304645
:106F200002F00EFB0F4941F82400BDE8F08100009B
:106F300019000020500000205553415252780000A3
:106F400054000020FDFA0008FDFF000805FF0008BE
:106F500008010020E0000020140000205553415299
:106F600054780000F400002010B504464FF49672E7
:106F700011462046FFF714FF10BD00002848007896
:106F80002849087026480078401C2549087026A02A
:106F900027490968234A127801EB42110860002052
:106FA000234909681F4A127801EB421148710320F6
:106FB0001F4909681B4A127801EB4211C87101216F
:106FC0001B480068174A127800EB421001721948FA
:106FD00017490968134A127801EB421148610021F0
:106FE000134800680F4A127800EB4210C161124941
:106FF0000F4800680B4A127800EB4210C1600F493D
:107000000B480068074A127800EB4210016100202B
:1070100007490968034A127801EB421188617047F9
:1070200050000020900000205732355131360000CA
:107030005400002061C30008250101081101010866
:1070400010B5032124A0FFF73BFC002441E02948B0
:10705000006800EB44104069C8B32648006800EBA4
:107060004410C079012806D0022817D003280ED07A
:1070700004282BD11EE01F4A126802EB4412107F35
:107080001C4A126802EB4412516988471EE01949F4
:10709000096801EB44114869804717E0154A1268F6
:1070A00002EB4412D069134A126802EB4412516990
:1070B00088470BE00F4A126802EB4412D0690D4A70
:1070C000126802EB44125169884700BF00BF601C80
:1070D000C4B20A2CBBDB10BD546F732044657669C3
:1070E000636520496E69742E2E2E2E2E2E2E2E2E86
:1070F0002E000000540000200146FF2901D100208D
:1071000070470548006800EB4110406908B900204D
:10711000F6E70120F4E7000054000020BAB08046F2
:107120004FF000090027C246504608F017FE0446FB
:107130000120034605220146009004A802F031FA1E
:107140008E4951F8240002F0CFF940F2DC5002F0F1
:10715000F7F98A4941F824000FE1884951F82400E1
:1071600002F0DAF91FFA80FB844951F824005946ED
:10717000FEF716FF814951F8240002F0CDF91FFAFD
:1071800080FB00235A461946504608F0DBFE0546B0
:107190007A4951F8240004AA294602F099FA0546D2
:1071A0002E469DF81E00002870D19DF813002C2853
:1071B0000AD004DC292876D02A2869D162E02F2859
:1071C0003FD05028F9D184E03C206D4908706B48CD
:1071D00050F82400805DB84222D1684A52F8243029
:1071E000721C9918654A52F82420925D920202F1AD
:1071F00000604FF4806200F07CFA6248007D40B18C
:107200003A46791C8FB260A108A801F05FFA0546E2
:1072100016E03A4660A108A801F058FA05460FE0CA
:107220005848007D30B13A4657A108A801F04EFAFF
:10723000054605E03A4658A108A801F047FA054678
:1072400063E0002701204F49087505F0B7F93C209D
:107250004B490870494951F82410881908F018FF63
:10726000834600F0E5F9454951F82410881908F0E3
:107270000FFFC0F38F294A464DA108A801F026FA56
:10728000054642E0781E484503D03EE05FE00AE054
:1072900035E000F0EAF901203A49087505F08EF969
:1072A00002F00AF831E03C203549087045A108A8F1
:1072B00001F00CFA054608A9481901F0FBF828442A
:1072C00085B208A9481941A101F000FA284485B205
:1072D0001BE03C202A4908703AA108A801F0F6F901
:1072E000054608A9481901F0E5F8284485B208A91F
:1072F000481936A101F0EAF9284485B205E008A949
:1073000039A005F041FD054600BF00BF01200090F7
:107310001A4850F8240081780123052204A802F0BD
:1073200040F908A80121CDE901050091314951F842
:10733000240001231A4604A902F03EF905462D480F
:1073400050F824102A46504608F071FE15E09DF8CA
:107350001E00062811D09DF81E00052807D10748F9
:1073600050F82410012224A0FFF7AAFA05E09DF8A6
:107370001E10032221A0FFF7A3FAEEE6E000002092
:1073800088000020749E0020506167655B25645D65
:10739000204F4B0D0A0000004E6F74204572617340
:1073A000655B25645D204661696C0D0A0000000084
:1073B00045726173655B25645D4B62204F4B0D0A1E
:1073C0000000000046696E6420000000204F4B2042
:1073D0000D0A5452544F53205265426F6F74205619
:1073E0006572322E300D0A00D3A6D3C3B4EDCEF3AE
:1073F00000000000F4000020257300002564000058
:1074000010B5042000F016F801F056FF10BD10B5BD
:107410004FF4807000F00EF84FF4807000F004F824
:1074200001F04AFF10BD00000149086070470000EC
:107430001404014001490860704700001404014031
:10744000002123498279002A3AD00A46126803684B
:107450009A430B461A600A1D126803689A430B1D73
:107460001A60027911440A6803681A430A60184ACC
:107470000832126803689A43154B08331A601A1DC4
:10748000126803689A43124B0C331A604279102A2F
:107490000ED11A1F126803681A430D4B08331A6085
:1074A0001A1D126803681A43094B0C331A600DE069
:1074B0000749427911440A6803681A430A6005E0E3
:1074C000027911440A6803689A430A607047000011
:1074D000000401401FB504460420ADF80800482010
:1074E0008DF80B0002A9134800F098FB022101203F
:1074F00000F074FB0420009000208DF804000C20A4
:107500008DF8050001208DF806006846FFF798FF0A
:107510004FF4E06002F0CEF901208DF80F00082052
:107520008DF80C0001208DF80E0003A802F088F9F8
:107530001FBD0000000C01401FB54FF48070ADF876
:10754000000048208DF803006946134800F066FBF0
:107550000821012000F042FB4FF4807002900020CF
:107560008DF80C0010208DF80D0001208DF80E0014
:1075700002A8FFF765FF17208DF8040003208DF89F
:10758000050002208DF8060001208DF8070001A8F3
:1075900002F056F91FBD0000000C014030B5044652
:1075A00004254FF4302000F091F80546042D17D142
:1075B0000C48006940F002000A490861084644612D
:1075C000006940F0400008614FF4302000F07EF880
:1075D00005460448006941F6FD710840014908610B
:1075E000284630BD0020024004200B49C96811F034
:1075F000010F01D001200EE00749C96811F0040F06
:1076000001D0022007E00449C96811F0100F01D031
:10761000032000E004207047002002400348006976
:1076200040F08000014908617047000000200240DE
:10763000F8B50446042500260020009000F03AF832
:10764000204601F0A6FB064609E00099490201F137
:107650000060FFF7A3FF05460098401C00900098CB
:10766000B04201D2042DF0D0F8BD10B5FFF7D6FF1F
:1076700010BD000070B504460D460426F00200F06F
:1076800025F80646042E11D10948006940F0010092
:10769000074908612580F00200F018F80646044802
:1076A000006941F6FE71084001490861304670BD2D
:1076B0000020024002480349486003484860704780
:1076C0002301674500200240AB89EFCD00B502469B
:1076D0000423FFF789FF034603E0FFF785FF034616
:1076E000521E012B01D1002AF7D102B905231846F9
:1076F00000BDF8B504460E461746354600940EE028
:1077000029880098FFF7B6FF2888009909888842E1
:1077100001D00020F8BDAD1C0098801C0090E0193D
:1077200000998842ECD80120F4E72DE9F84F824611
:107730000D4617464FF00008002000908146504645
:1077400001F06CF800F0FF0BBBF1000F3BD0002004
:107750002870002635E01AF80640302C01DB0120A5
:1077600000E00020392C01DC012100E0002108406C
:107770002E2C01D1012100E0002108432D2C01D144
:10778000012100E00021084309D04F4504D14046C3
:10779000411C01F0FF082C54012000900FE00098DC
:1077A00068B14F4505D100224046411C01F0FF0859
:1077B0002A540020009009F1010000F0FF09701C1C
:1077C000C6B25E45C7DB4046BDE8F88F2DE9F84FED
:1077D00082460D4617464FF0000800200090814673
:1077E000504601F01BF800F0FF0BBBF1000F3BD03F
:1077F00000202870002635E01AF80640302C01DB06
:10780000012000E00020392C01DC012100E00021F2
:1078100008420BD1462C01DC012000E00020412C65
:1078200001DB012100E00021084209D04F4504D1CD
:107830004046411C01F0FF082C54012000900FE04D
:10784000009868B14F4505D100224046411C01F027
:10785000FF082A540020009009F1010000F0FF0900
:10786000701CC6B25E45C7DB4046BDE8F88F2DE907
:10787000F84F82460C4617464FF000080020009053
:107880008146504600F0CAFF00F0FF0BBBF1000F2D
:107890002FD000202070002529E01AF80560302E36
:1078A00001DB012000E00020392E01DC012100E095
:1078B0000021084209D04F4504D14046411C01F047
:1078C000FF082654012000900FE0009868B14F4552
:1078D00005D100224046411C01F0FF08225400203F
:1078E000009009F1010000F0FF09681CC5B25D4578
:1078F000D3DB4046BDE8F88F2DE9F05F80460C46AB
:107900000027BA46BB46404600F088FF00F0FF095A
:10791000B9F1000F20D00020207000251AE018F8DF
:1079200005603A2E01D14FF0010BBBF1000F0FD0D3
:10793000222E06D1BAF1000F00D00EE04FF0010A5E
:1079400006E0BAF1000F03D03846791CCFB22654B6
:10795000681CC5B24D45E2DB00BF00223846791CE9
:10796000CFB222543846BDE8F09F70B50B460446AE
:1079700003E014F8015B03F8015B1500A2F10106B6
:10798000B2B2F6D170BD2DE9F04706460F46144657
:107990004FF00008B94601F010FA2046E11704EB59
:1079A000D151C1F34F28E11704EBD1514912B4EB87
:1079B000412103D008F101001FFA80F8002507E0FB
:1079C0004FF4007101FB056001F0D9F9681C85B224
:1079D0004545F5DB002508E039F8021B2A466B1CFB
:1079E0009DB206EB420001F0E0F92000A4F1010194
:1079F0008CB2F1D101F0C9F9BDE8F08701460A4621
:107A00001068704737B50346042401A912B1012A52
:107A10000CD10AE003E011F8010B03F8010B200080
:107A2000A4F10105ECB2F6D100E000BF00BF0420D4
:107A30003EBD70B504460025107820B11678206848
:107A4000B0FBF6F085B220680844206010789842B8
:107A500003DA1078401C107002E02068401B2060A0
:107A600016782068B0FBF6F080B270BD0FB438B560
:107A7000044606A800902046009A059908F05CFB91
:107A80000020009038BC5DF814FB30B503460C466E
:107A9000002514E01878802806DA13F8010B24F882
:107AA000020B681C85B20AE059781A7841EA022074
:107AB00000F01AF820809B1CA81C85B2A41C187822
:107AC0000028E7D1284630BD30B5ADF5017D04462C
:107AD0000D4601A92046FFF7D8FF294601A800F06E
:107AE000BFFE0DF5017D30BD024641F66F210AE073
:107AF000074800EB81004088904203D1044830F8E9
:107B000021007047491E0029F2D10020F9E700004A
:107B1000540F010810B504462948844208D10121B8
:107B2000042003F05BFE0021042003F057FE46E032
:107B30002448844208D10121082003F04FFE00218F
:107B4000082003F04BFE3AE01F48844208D101218F
:107B5000102003F043FE0021102003F03FFE2EE032
:107B60001A48844208D10121202003F037FE002169
:107B7000202003F033FE22E01548844208D1012181
:107B8000402003F02BFE0021402003F027FE16E0EA
:107B90001048844208D10121802003F01FFE0021FB
:107BA000802003F01BFE0AE00B48844207D101212C
:107BB000801503F013FE0021A01503F00FFE10BD89
:107BC00000080140000C0140001001400014014079
:107BD00000180140001C01400020014030B5002287
:107BE0008B071C0F0F2303FA04F20B4B8C1053F876
:107BF00024309343084C8D1044F8253023468C10D4
:107C000053F824308C07240F00FA04F42343024C69
:107C10008D1044F8253030BD080001402DE9F041B9
:107C2000024600250026002000230024002791F8AA
:107C300003C00CF00F0591F803C01CF0100F03D027
:107C400091F802C04CEA050591F800C0BCF1000FA4
:107C500031D0146800202BE04FF0010C0CFA00F337
:107C6000B1F800C00CEA03069E4220D183004FF019
:107C70000F0C0CFA03F7BC4305FA03FC4CEA0404AE
:107C800091F803C0BCF1280F06D14FF0010C0CFA9B
:107C900000FCC2F814C00AE091F803C0BCF1480F20
:107CA00005D14FF0010C0CFA00FCC2F810C0401CCA
:107CB0000828D1D31460B1F800C0BCF1FF0F34DD47
:107CC000546800202EE000F1080C4FF0010808FA7B
:107CD0000CF3B1F800C00CEA03069E4221D18300E8
:107CE0004FF00F0C0CFA03F7BC4305FA03FC4CEA07
:107CF000040491F803C0BCF1280F05D100F1080C71
:107D000008FA0CF8C2F8148091F803C0BCF1480FCF
:107D100007D100F1080C4FF0010808FA0CF8C2F87E
:107D20001080401C0828CED35460BDE8F0810000CC
:107D300038B50446002536E01D4A6068811A904235
:107D400017D009DC1B4940180DD0B0F5806F0CD05E
:107D5000B0F5006F13D10AE0B1F5806F0BD0B1F52B
:107D6000006F0CD109E0042509E0082507E0102583
:107D700005E0202503E0402501E0802500BF00BF8D
:107D800045F00100012103F019FD20788DF8020073
:107D90002089ADF8000060788DF8030069466068BE
:107DA000FFF73CFF0C3420780028C5D138BD000017
:107DB0000014014000F8FEBF0246002093680B4209
:107DC00001D0012000E0002070474161704701614F
:107DD0007047000008B54FF48070ADF8000028200F
:107DE0008DF8030002208DF8020069460148FFF774
:107DF00015FF08BD000C014038B504464FF48070F3
:107E0000ADF800001CB110208DF8030002E0142032
:107E10008DF8030002208DF8020069460648FFF73E
:107E2000FDFE24B108210448FFF7CFFF03E008213D
:107E30000148FFF7CCFF38BD001001402DE9F041AB
:107E400004460D4601271DE012494FF4967248681A
:107E50000021FDF7DEFF2B46322200210E4808F0FC
:107E600071F8C6B276B10B48052241680BA0FEF747
:107E700027FD08494868214604F0B9FF10B10120E8
:107E8000BDE8F0813800A7F10101CFB2DCD100BF1D
:107E9000F6E70000E000002000440040B7B5BBD882
:107EA0003A25730D0A0000002DE9F04104460D4605
:107EB000012725E016494FF4967248680021FDF726
:107EC000A8FF2B4632220021124808F03BF8C6B228
:107ED00096B10F48052241680FA0FEF7F1FC0C494E
:107EE00048682146FDF740F910B10120BDE8F08156
:107EF0004FF47A7007F044F94FF47A7007F040F9C4
:107F00003800A7F10101CFB2D4D100BFEEE70000E5
:107F1000E000002000440040B7B5BBD83A25730DFF
:107F20000A0000002DE9F04104460F4615464FF0C7
:107F3000010825E017494FF4967248680021FDF7C3
:107F400068FF2B4632220021134807F0FBFFC6B220
:107F5000B6B110480522416810A0FEF7B1FC0D49EA
:107F60004868214604F043FF10B10120BDE8F081CC
:107F700008494868394604F03AFF08B10120F5E79E
:107F80005FEA0800A8F1010101F0FF08D2D100BFAB
:107F9000ECE70000E000002000440040B7B5BBD88B
:107FA0003A25730D0A0000000246114623E00878C6
:107FB0002E281FD111F8010C302801DB012000E030
:107FC000002011F8013C392B01DC012300E00023E3
:107FD00018420FD04878302801DB012000E0002053
:107FE0004B78392B01DC012300E00023184201D03B
:107FF00001207047491C08780028D8D100BFF8E755
:1080000070B5022515E014A1174808F020F84FF4C8
:108010007A7007F0B5F8002409E04FF4FA6213A172
:1080200014A000F037F800B10AE0601CC4B2032CC1
:10803000F3DB2800A5F10101CDB2E4D1012070BD30
:10804000052110A0FEF73CFC1148006920F010004B
:108050000F4908610020F2E741542B5149434C4F2E
:1080600053450D0A0000000000440040434C4F53AC
:108070004500000041542B514953544154450D0AC9
:1080800000000000536F636B6574B6CFBFAA000099
:108090005C9D002070B504460D461646052221461B
:1080A00004A0FEF70DFC0A2332462946204600F0C4
:1080B00007F870BDB7A2CBCD25730D0A00000000F4
:1080C0002DE9F04105460C4616461F4637E0294685
:1080D0001E4807F0BCFF1E494FF496724868002105
:1080E000FDF797FE334632220021184807F02AFF99
:1080F00000F0FF08B8F1000F1DD0154805224168B7
:1081000014A0FEF7DDFB2078212808D1104948682B
:10811000611CFDF729F850B90120BDE8F0810C4938
:1081200048682146FDF720F808B10120F5E74FF433
:108130007A7007F025F84FF47A7007F021F83800CC
:10814000A7F10101CFB2C2D100BFE6E70044004071
:10815000E0000020B7B5BBD825730D0A0000000071
:1081600070B50446002500BF2846691CCDB205281D
:1081700001DD032070BD05211EA0FEF7A1FB2048F4
:10818000006920F010001E4908612046FFF70CFF2F
:1081900040B14FF47A721BA11BA0FFF77BFF50B9CF
:1081A0000120E7E74FF47A7216A11BA0FFF772FFD8
:1081B00008B90120DEE74FF47A7006F0E1FF2146AE
:1081C000194807F044FF042218A11CA000F0DAF8B7
:1081D00000B9C9E74FF4FA6006F0D2FF05211AA0F2
:1081E000FEF76EFB0648006940F010000449086184
:1081F0000020BFE7C1ACBDD3B7FECEF1C6F700008B
:108200005C9D00204F4B000041542B5149444E537C
:1082100049503D300D0A000041542B5149444E5302
:1082200049503D310D0A000000440040414C524588
:1082300041445920434F4E4E45435400434F4E4E08
:10824000454354204F4B0000C1ACBDD3B3C9B9A6C0
:108250000000000070B50546012622E014494FF4E5
:10826000967248680021FDF7D4FD2B46322200218A
:10827000104807F067FEC4B29CB10D4948680EA1D2
:10828000FCF772FF28B105210DA0FEF719FB0020B5
:1082900070BD0748224641680CA001F097FC012000
:1082A000F6E73000A6F10101CEB2D7D100BFEFE76B
:1082B000E000002000440040434C4F534544000080
:1082C000C1ACBDD3B1BBB9D8B1D50000BDD3CAD5FF
:1082D0003A00000070B50446012610E023464FF432
:1082E00096720021094807F02DFEC5B23DB108483D
:1082F0000522416807A0FEF7E3FA012070BD3000B7
:10830000A6F10101CEB2E9D100BFF7E70044004079
:10831000E0000020523A25730000000070B50225ED
:1083200011E04FF47A7006F02BFF002409E04FF4BF
:10833000FA620BA10BA0FFF7ADFE00B10AE0601CD2
:10834000C4B2032CF3DB2800A5F10101CDB2E8D1C2
:10835000012070BD052107A0FEF7B2FA0020F8E762
:108360004F4B000041542B5153434C4B3D310D0AB0
:1083700000000000BDF8C8EBCBAFC3DFCAB9C4DC56
:10838000000000002DE9F04106460F461446002586
:108390000BE04FF47A7239463046FFF7C3FD10B157
:1083A0000120BDE8F081681CC5B2A542F1DB0020C8
:1083B000F7E7F0B504460A460023002000252146D1
:1083C00033E00E78252E02D10125461CB0B2012DD6
:1083D0002AD10E78642E06D1AC461E465F1CBBB275
:1083E00002F806C000250E78662E07D14FF0020C69
:1083F0001E465F1CBBB202F806C000250E78732E25
:1084000007D14FF0030C1E465F1CBBB202F806C03A
:1084100000250E78632E07D14FF0040C1E465F1C1A
:10842000BBB202F806C00025491C0E78002EC8D148
:10843000F0BD00002DE9FE4305460F4600261C480E
:10844000006800901A48001D006802901848083023
:108450000068019000241BE014E05DF824003E2138
:10846000B0FBF1F201FB1208404606F0E9FB314691
:10847000721CD6B268545DF824003E21B0FBF1F0C6
:108480004DF824005DF824000028E6D1601CC4B239
:10849000032CE1DB0F26384606F0D2FB3246761C71
:1084A000A85400223146761C6A543046BDE8FE834B
:1084B000E8F7FF1FFEB50546002616480068009045
:1084C0001448001D006802901248083000680190AE
:1084D00000241BE014E05DF824003E21B0FBF1F223
:1084E00001FB1207384606F0ABFB3146721CD6B2D0
:1084F00068545DF824003E21B0FBF1F04DF82400F3
:108500005DF824000028E6D1601CC4B2032CE1DB36
:108510003046FEBDE8F7FF1FFEB5054600261948A8
:10852000006800901748001D006802901548083048
:108530000068019000241BE014E05DF824003E2157
:10854000B0FBF1F201FB1207384606F079FB314629
:10855000721CD6B268545DF824003E21B0FBF1F0E5
:108560004DF824005DF824000028E6D1601CC4B258
:10857000032CE1DB00223046711CCEB22A54304677
:10858000FEBD0000E8F7FF1F014600200A78302AF0
:1085900001DB012200E000220B78392B01DC0123F2
:1085A00000E000231A4203D00A781207100E24E0DC
:1085B0000A78412A01DB012200E000220B78462BD9
:1085C00001DC012300E000231A4204D00A78D21F04
:1085D0001207100E11E00A78612A01DB012200E087
:1085E00000220B78662B01DC012300E000231A42F5
:1085F00003D00A78D21F1207100E4A78302A01DB06
:10860000012200E000224B78392B01DC012300E03D
:1086100000231A4204D04A78303A0244D0B224E00F
:108620004A78412A01DB012200E000224B78462BE8
:1086300001DC012300E000231A4204D04A78373AD3
:108640000244D0B211E04A78612A01DB012200E045
:1086500000224B78662B01DC012300E000231A4244
:1086600003D04A78573A0244D0B270472DE9FC5FF4
:108670000446207820B9607810B90020BDE8FC9F3E
:1086800094F80090C9EB09201FFA80F9607840EA5D
:10869000090929F003094846FCF7D7FF8346FDF78F
:1086A00032F80022074BCDE90001FCF7E4FE074653
:1086B0000022054BFCF738FE0546FDF75FF88246C1
:1086C0005046DBE700405F3F000018C00FB438B5EC
:1086D000044606A800902046009A059907F02CFD54
:1086E00000200090204600F099F838BC5DF814FB9B
:1086F0002DE9FC5F05460026B346B1464FF07E5A91
:1087000044E015F8014B2D2C01D101263EE02E2C22
:1087100002D14FF0010B39E0302C2EDB392C2CDC50
:10872000BBF1000F0ED11F494846FCF787FD81467B
:10873000A4F13000FCF780FF07464946FCF726FD10
:10874000814623E05046FCF7DEFF0746164A174BEA
:10875000FCF791FECDE90001FDF710F88246A4F187
:108760003000FCF769FF80465146FCF767FD07467D
:108770004946FCF70BFD814608E026B10C49484606
:10878000FCF75CFD81464846BDE8FC9F2878002840
:10879000B7DC26B106494846FCF750FD81464846FD
:1087A000F2E70000000020419A9999999999B93F00
:1087B000000080BF2DE9FC5F0446207820B9607876
:1087C00010B90020BDE8FC9F94F80090C9EB092087
:1087D0001FFA80F9607840EA090929F00309484640
:1087E000FCF733FF8346FCF78EFF084A084BCDE9C0
:1087F0000001FCF740FE0746064A074BFCF794FDD4
:108800000546FCF7BBFF82465046DBE7D7A3703D29
:108810000AF7653FCDCCCCCCCC6C47C010B5014637
:1088200000200A4601E0431C98B212F8014B002CCC
:10883000F9D110BD002000210CE001EB4102074BF3
:108840001B6803EB02121289012A01D0421CD0B22C
:108850004A1CD1B21429F0DB704700004800002008
:1088600070B504460E46002507E02288701905A160
:10887000FFF72CFF284485B2A41C20880028F4D1DF
:10888000284670BD253034780000000002460020E4
:1088900039B950784FF6FF7303EA00201378184374
:1088A00006E010784FF6FF7303EA00205378184370
:1088B0007047000010B504462AA1204604F097FA3C
:1088C00008B1012010BD28A1204604F090FA08B19B
:1088D0000220F7E725A1204604F089FA08B1032019
:1088E000F0E723A1204604F082FA08B10420E9E76A
:1088F00020A1204604F07BFA08B10520E2E71EA182
:10890000204604F074FA08B10620DBE71BA12046DC
:1089100004F06DFA08B10720D4E719A1204604F04D
:1089200066FA08B10820CDE716A1204604F05FFAE8
:1089300008B10920C6E714A1204604F058FA08B18E
:108940000A20BFE711A1204604F051FA08B10B201C
:10895000B8E70FA1204604F04AFA08B10C20B1E7AD
:108960000120AFE74A616E00466562004D6172000A
:10897000417072004D6179004A756E004A756C0055
:1089800041756700536570004F6374004E6F760049
:108990004465630070B505460024291901220DA025
:1089A000FEF765FF2044C4B20AA0FFF783FF064626
:1089B000281932460AA1FFF789FE2044C4B22919BA
:1089C000002204A0FEF753FF2044C4B20020285523
:1089D000204670BD4A756E20203620323031370077
:1089E0002D253032642D000010B586B0002414E02F
:1089F00004EB4401002202EBC1001822694607F093
:108A00007DFB0098401C00D108E0601CC4B201202E
:108A100006F0B6FBFF2C00DB00E0E9E700BF052213
:108A2000214603A0FDF74CFF204606B010BD000014
:108A3000B4F2D3A1BCC7C2BCCBF7D2FD2564000001
:108A400001E000F039FCFCE770B504460D46002655
:108A500020E040211148FFF7B8F9032000F020F88A
:108A600014F0800F04D020210C48FFF7B0F903E088
:108A700020210A48FFF7A9F9032000F011F840214E
:108A80000648FFF7A4F96006040E012000F008F87C
:108A9000701CC6B2AE42DCDB70BD000000100140AD
:108AA00000EB400188B200BF0100A0F1010290B2CA
:108AB000FAD1704770B504460D4605F00F01204607
:108AC00000F00EF82911621CD0B200F009F820461F
:108AD00004EBD0714910014A555470BD649E0020CA
:108AE00070B504460D4680210C48FFF76EF903204F
:108AF000FFF7D6FF0321A020FFF7A6FFA106080E6F
:108B00000621FFF7A1FF2907080E0421FFF79CFFAC
:108B100080210248FFF75BF970BD000000100140A2
:108B200010B504460120A0470320A04710BD2DE941
:108B3000FF47074616461C46DDE90C899DF80400F0
:108B40004006000E0190002C16DD384600F0C0F8FB
:108B5000012201A9384600F076F8054635B93846B5
:108B6000FFF7DEFF002004B0BDE8F0872246314663
:108B7000384600F068F80546384600F0A9F89DF838
:108B8000040040F001000190012201A9384600F0E4
:108B90005AF805464A464146384600F006F805466A
:108BA000384600F0ACF82846DDE72DE9F0470446EA
:108BB0000E461546A94628E04FF00008002714E0AD
:108BC0007806070E0320A0470A2007F02DFF052096
:108BD000A04708B147F001070420A0470A2007F08A
:108BE00023FF08F1010000F0FF08B8F1080FE7DBF0
:108BF00006F8017B002D04DD0021204600F00DF871
:108C000003E00121204600F008F82800A5F1010149
:108C1000CDB2D1D14846BDE8F08770B504460D46C7
:108C200015B10120A04701E00220A0470320A04782
:108C30000A2007F0F9FE0420A0470A2007F0F4FEFE
:108C40000120A04770BD2DE9F04704460E461546A9
:108C5000A94639E016F8018B002717E018F0800FBD
:108C600002D00120A04701E00220A0470320A04736
:108C70000A2007F0D9FE0420A0470A2007F0D4FEFE
:108C8000781CC7B24FEA48604FEA1068082FE5DB4E
:108C90000120A0470320A0470A2007F0C5FE0520B9
:108CA000A04782460A2007F0BFFE0420A0470A2002
:108CB00007F0BAFEBAF1000F04D0A9EB0500C0B26C
:108CC000BDE8F087681EC5B2002DC3D14846F7E75E
:108CD00010B504460320A047052007F0A5FE01209B
:108CE000A0470A2007F0A0FE0220A0470A2007F0B4
:108CF0009BFE0420A0470A2007F096FE10BD10B589
:108D000004460220A047142007F08EFE0320A0474F
:108D10000A2007F089FE0120A0471E2007F084FEEC
:108D200010BD2DE9FF47074614461D46DDE90C89B5
:108D30009DF804004006000E01903846FFF7C8FF7A
:108D4000012201A93846FFF77EFF064636B93846AC
:108D5000FFF7E6FE002004B0BDE8F0872A46214672
:108D60003846FFF770FF06464A4641463846FFF749
:108D70006AFF06463846FFF7C2FF3046EBE710B5FC
:108D800004462046FEF70AFC10BD10B5FEF746FC6F
:108D900010BD01B500200099CA05D20D03D00122F3
:108DA00002EB512000E0480A08BD70B504460D46AC
:108DB00029462046FEF75EFC70BD10B5FEF77AFC32
:108DC00010BD000070B5044604EB4402084B1B685C
:108DD00003EB8202118904EB4402054B1B6803EB91
:108DE00082025068FEF7E8FF0546284670BD000085
:108DF000C800002038B504460D461648006940F406
:108E00004070144908614FF44070ADF80000032031
:108E10008DF8020048208DF8030069460E48FEF7E1
:108E2000FDFE4FF480710C48FEF7C6FF18B14FF0FD
:108E30007E50206001E0002020604FF40071064861
:108E4000FEF7BAFF18B14FF07E50206001E000201D
:108E5000206038BD5C9D0020000C014070B50446C8
:108E60000D4685B104EB44020F4B1B6803EB8202F5
:108E7000118904EB44020C4B1B6803EB820250681F
:108E8000FEF7A5FF0FE004EB4402074B1B6803EB62
:108E90008202118904EB4402034B1B6803EB82023C
:108EA0005068FEF792FF70BDC80000202DE9F04128
:108EB000054609492846FCF7C1F90746FCF7F0FBCF
:108EC00086B2A6F56170322190FBF1F0C4B284F055
:108ED00020042046BDE8F081000048437CB50446EC
:108EE00007226946002000F0D1F805460DB90020A0
:108EF0007CBD9DF8001001F07F00FCF74CFFA071D5
:108F00009DF8011001F07F00FCF745FF60719DF8AE
:108F1000021001F03F00FCF73EFF20719DF80310A6
:108F200001F03F00FCF737FFA0709DF8041001F03E
:108F30001F00FCF730FF60709DF80500FCF72BFF69
:108F400020709DF80600FCF726FFE0700120CFE7B7
:108F500070B504460025062C33D2DFE804F0320356
:108F60000C151E27184A12681189174A1268506892
:108F7000FEF72DFF25E0144A12681189124A126883
:108F80005068FEF722FF1CE00F4A1268918A0E4AD1
:108F900012681069FEF71BFF13E00B4A1268918AF2
:108FA000094A12681069FEF710FF0AE0064A1268C3
:108FB0001189054A12685068FEF7FEFE00B10125CE
:108FC00000BF00BF284670BDD800002038B5054658
:108FD00000242C4805600068FEF7AAFE01226946BD
:108FE000122000F053F804469DF800005D2847D099
:108FF0001021072000F0DAF804409021082000F04A
:10900000D5F804402048FFF751FF00909DF800106C
:109010000A2000F0CBF8044000210B2000F0C6F835
:1090200004405D21122000F0C1F8044000231A46DC
:109030001946184600F03AF804400021084600F0AE
:10904000B5F804400021012000F0B0F80440802170
:10905000022000F0ABF804400121032000F0A6F844
:1090600004400121042000F0A1F804400021052063
:1090700000F09CF804400621084600F097F80440F0
:10908000204638BDD80000200000C04037B582B06F
:109090000C461546012302AA6F210348CDE900457D
:1090A000FFF745FD05B030BD518F00082DE9F843AD
:1090B00081460F4690461C4601264046FDF7E3FCDC
:1090C0008DF800003846FDF7DEFC8DF801004846BB
:1090D000FDF7D9FC8DF8020014F0010F05D09DF8C2
:1090E000000040F080008DF8000014F0020F05D061
:1090F0009DF8010040F080008DF8010014F0040F8D
:1091000005D09DF8020040F080008DF80200002597
:1091100009E01DF8051005F10C02D0B200F046F888
:109120000640681CC5B2032DF3DB002C05DDD02101
:10913000082000F03BF8064004E09021082000F0F1
:1091400035F806403046BDE8F8837CB50446A07982
:10915000FDF799FC8DF800006079FDF794FC8DF81F
:1091600001002079FDF78FFC40F080008DF80200AF
:10917000A078FDF788FC8DF803006078FDF783FC8C
:109180008DF804002078FDF77EFC8DF805000025A1
:1091900007E01DF80510E8B200F008F80640681C6A
:1091A000C5B2072DF5DB30467CBD000003B583B0AA
:1091B000012004A9034603AACDE900106F2102484B
:1091C000FFF7AFFD05B000BD518F000810B545F2A7
:1091D000555000F029F8062000F01AF84FF47F608F
:1091E00000F01CF800F00CF800F002F810BD0000D0
:1091F0004CF6CC4001490860704700000030004048
:109200004AF6AA200149086070470000003000407B
:109210000149486070470000003000400149886003
:1092200070470000003000400149086070470000AE
:109230000030004070B504460D462B4622460249D8
:10924000024800F005F870BD00F803086B790008CB
:109250002DE9F0470746884614461D46A14608EB0F
:10926000C52004222146B8474E463088B0F5006F2D
:1092700001DD012000E000203188042901DA01210C
:1092800000E00021084300D013E0328808EBC5203D
:109290002146B8473088001F81B209F1040005F06B
:1092A000E5FC82467188514500D002E00120BDE80E
:1092B000F0870020FBE7000071B600BF0648006899
:1092C00000F4E06005490843001D03490860BFF34E
:1092D000408F00BF00BFFEE70CED00E00000FA0584
:1092E00010B5052106A0FDF7EBFA08A10B4806F022
:1092F000AEFE4FF47A710AA0FEF7A0FD10BD00008B
:10930000C9BEB3FDCFFBCFA20000000041542B43E8
:109310004D47443D312C340D0A000000004400400C
:109320004F4B0000F0B59DB005460C46607A48B141
:10933000627A04A96068FCF75BFD0020617A04AAE8
:10934000505403E004A9606803F01EFD207A0D2844
:1093500039D009DC75D2DFE800F0AC10ACAC231CCE
:1093600063ACAC42AC152F0017380728F2D2DFE807
:1093700000F03D46A03074825F0028462168FEF769
:1093800075FB9BE06068027828462168FEF76EFB5B
:1093900094E06068028828462168FEF767FB8DE04C
:1093A00061680868FCF7AFF906460B463246284666
:1093B0002168FEF75BFB81E060680278284621683F
:1093C000FEF754FB7AE02846D4E90012FEF74EFB84
:1093D00074E004AA28462168FEF748FB6EE0606846
:1093E000026828462168FEF741FB67E06068804715
:1093F0000646324628462168FEF738FB5EE0606884
:109400000078002801DD012000E0002000EB400092
:109410002C4B03EB400228462168FEF727FB4DE06A
:10942000606890F9002028462168FEF71FFB45E0A0
:1094300060680068667A0123B340184202D00120B8
:1094400001E036E0002000EB40001E4B03EB400241
:1094500028462168FEF70AFB30E060680078616802
:109460004978CDE9001060688378C2782846216881
:10947000FEF7FCFA22E06168098888B203F056FF23
:1094800003906168098888B203F050FF0290616818
:10949000098888B203F04AFF01909DF80E00009001
:1094A0009DF809309DF8042028462168FEF7DEFA71
:1094B00004E028462168FEF7D9FA00BF00BF1DB0BE
:1094C000F0BD0000440D010800BFFEE7054A116829
:1094D000486802E009684A6810440A68002AF9D11D
:1094E000704700005800002002460A4B186800210F
:1094F00006E0A2F10803834200D107E001460068BC
:109500000368002BF5D101B10B60704703680B6055
:1095100000BFFAE7580000200146A1F10802506898
:1095200008387047054908600021044A1268116034
:109530000821024A1268516070470000580000205C
:1095400010B503461048016803F1080083B20FE02C
:109550000868401A4C68001B984208D348684218B3
:109560005360086810600A6002F1080010BD0968C5
:1095700008680028ECD14868421800201060536049
:109580000A6002F10800F1E75800002001460020BF
:109590000A4602E00C32431CD8B2137A002BF9D1F0
:1095A000704730B5039C7E2505707F25057382705A
:1095B0004170C373447330BD2DE9F05F06460C461D
:1095C00091469A46DDF828B00C9F002584F8039058
:1095D00084F804A084F808B0678117B1F81CE08013
:1095E00001E00020E08022782846691C8DB23254C8
:1095F000E07B50B9A2782846691C8DB2325462785B
:109600002846691C8DB232540CE0E07B012809D158
:1096100062782846691C8DB23254A2782846691CAB
:109620008DB23254E2782846691C8DB232542279C8
:109630002846691C8DB23254E08802122846691C03
:109640008DB23254A2792846691C8DB23254BFB112
:10965000227A2846691C8DB232546089021228464B
:10966000691C8DB23254A27A2846691C8DB23254DC
:10967000628971190B98FCF7BBFB6089284485B29D
:10968000607B012810D12946304605F0EFFA80466C
:109690004FEA28222846691C8DB232542846691C9C
:1096A0008DB206F800800BE0607B022808D1681EAE
:1096B00081B2304605F016FB29466A1C95B27054FB
:1096C000227B2846691C8DB232542846BDE8F09FA3
:1096D0002DE9F05F06468B4614460025AA46012078
:1096E000A07329466D1C705C2178884200D099E0F7
:1096F000E07B50B92846691C8DB2305C61788842A5
:1097000000D093E0681C85B220E0E07B01281DD1E9
:109710002846691C8DB216F80080A078404501D01B
:10972000012000E00020B8F1FF0F01D0012100E08E
:109730000021084200D079E0681C85B2B8F1FF0F23
:1097400002D14FF0010901E04FF000092846691CE1
:109750008DB2305CE0702846691C8DB2305C20719F
:109760002846691C8DB2305CE080E0884FF6FF71BE
:1097700001EA0020E080E08829466A1C95B2715C0D
:109780000843E080E08800B32846691C8DB2305C55
:1097900020722846691C8DB2305C608160894FF66A
:1097A000FF7101EA00206081608929466A1C95B238
:1097B000715C08436081AA466089284485B2E188CB
:1097C0006089C01C814200D034E0607B022809D14E
:1097D0002946304605F086FA0746715DB94200D049
:1097E0001CE010E0607B01280CD12946304605F0D2
:1097F0003DFA074670190121FFF748F8B84200D03A
:109800000CE000E000BFB9F1010F02D10620A07307
:1098100001E00020A0735046BDE8F09F0220A07335
:109820000020F9E70520A0730020F5E70620A073CB
:109830000020F1E70120A0730020EDE77047000051
:1098400070B5002100230F22C4780CB3164C246895
:1098500004F4E064C4F5E064210AC1F10403CA40E1
:10986000447804FA03F184781440214309010F4C31
:109870000678A155047804F01F050124AC40057852
:109880006D114FF0E02606EB8505C5F8004109E0B3
:10989000047804F01F050124AC40054D06787611CC
:1098A00045F8264070BD00000CED00E000E400E04B
:1098B00080E100E002490143024A11607047000064
:1098C0000000FA050CED00E0024A0A400243024B98
:1098D0001A60704780FFFF1F08ED00E010B588B0E8
:1098E000002269460BA000F0A1FA044674B1684654
:1098F000FCF73EFB50B10522694609A0FCF7E0FFEA
:109900000B220C490DF10200FCF772FA204608B058
:1099100010BD000041542B435343413F0D0A00004A
:10992000B6CCD0C5D6D0D0C4BAC5C2EB3A5B25738D
:109930005D000000409E0020014908627047000061
:1099400000000E420A48006840F004000849086020
:109950000846006840F0020008600648006840F0D1
:1099600004000449086000BF00BF30BF704700001A
:109970000070004010ED00E010B5024600200C4BD6
:10998000186820F00300104318600A4B1B6843F06E
:109990000403084C2360012901D130BF00E020BF3F
:1099A000044B1B6823F00403024C236010BD00002D
:1099B0000070004010ED00E00149086070470000B1
:1099C000A0000E427047000010B5032209A10BA0B1
:1099D000FCF776FF03220DA110A0FCF771FF032214
:1099E000124913A0FCF76CFF0322164916A0FCF7DE
:1099F00067FF10BD54503530322D5400426F6172F4
:109A0000645F4E616D653A257300000053544D3319
:109A1000324C313531524254360000004350555FCC
:109A20004D6F64656C3A25730000000000127A00E7
:109A30004370755F4F53435F465245513A2025644A
:109A40004D687A0000A24A044370755F46726571E2
:109A50003A2025644D687A0070B505460E4600240C
:109A600007E02A5D0323214603A0FCF729FF601CC1
:109A7000C4B2B442F5DB70BD4275665B25645D3DE2
:109A800030782578000000007047000000B585B0F0
:109A90006846FEF741FD0322694602A0FCF710FF6D
:109AA00005B000BD4F6E6C7949443A257300000043
:109AB0007047000010B5032108A0FCF701FFFFF775
:109AC00083FFFFF7E1FFFFF7E1FFFDF727F800F065
:109AD00013F8FFF7EDFF00F02FF810BD0A546F7375
:109AE0002053797374656D2053746172742E2E2E19
:109AF0002E2E2E2E2E2E2E0010B5FEF79BFE044687
:109B000003232246142102A0FCF7DAFE10BD000058
:109B10005461736B506F6F6C53697A653A2564209A
:109B200062757420686173202564207461736B20F2
:109B30006372656174652E0038B500241DE004EB86
:109B400044001549096801EB0010C06A98B1032070
:109B5000009004EB44001049096801EB0010038CED
:109B600004EB44000C49096801EB00102146C26A6D
:109B70000AA0FCF7A5FE601CC4B2142CDFDB601E3B
:109B8000C4B2FFF7A3FC054603232A4649F6404129
:109B900007A0FCF795FE38BD480000205461736BA8
:109BA0005B25645D4E616D653A2573282564290047
:109BB0004D656D6F727953697A653A2564206275D7
:109BC0007420757365723A25640000002DE9F04138
:109BD00005460E4617460522294608A0FCF770FEEA
:109BE000002407E0325D0523214605A0FCF768FE4E
:109BF000601C84B2BC42F5DBBDE8F0812573000037
:109C00004275665B25645D3D307825780000000074
:109C100010B500F043FC04462CB10522214606A0F5
:109C2000FCF74EFE03E0052108A0FCF749FE642086
:109C300005F0A6FA10BD0000B7A2CBCDC5E4D6C38F
:109C4000D6A1CAA7B0DC5B25645D0000B7A2CBCD6E
:109C5000C5E4D6C3D6A14F4B0000000000B599B0B3
:109C60000948B0F8AA3000F1890208A16846FDF75A
:109C7000FDFE052269460CA0FCF722FE6846FEF7B1
:109C80006FFA19B000BD00005C9D002041542B51BB
:109C9000494F50454E3D22544350222C22257322D9
:109CA0002C25640D0A000000C1ACBDD3B5BD3A251A
:109CB0007300000010B54FF47A7229A129A0FEF7B5
:109CC000E9F908B9012010BD00F096F8284981F89B
:109CD000D600052127A0FCF7F3FD052128A0FCF7FD
:109CE000EFFD4FF47A7229A129A0FEF7D3F90223E0
:109CF0004FF47A7229A126A0FEF7E2F920B90521D6
:109D000027A0FCF7DDFD03E0052127A0FCF7D8FD27
:109D100002234FF47A7226A127A0FEF7D1F940B1B1
:109D2000052128A0FCF7CCFD0220114981F8D700BD
:109D30000FE002234FF47A7226A11FA0FEF7C0F9AC
:109D400038B1052125A0FCF7BBFD0420084981F8A6
:109D5000D700052125A0FCF7B3FD0020B3E70000E4
:109D60002139390041542B4353510D0A00000000A2
:109D70005C9D0020BCECB2E9D0C5BAC50000000073
:109D8000D5FDD4DAD7A2B2E1000000003000000017
:109D900041542B435245473F0D0A00003500000057
:109DA000B1BEB5D8BFA80000CDE2B5D8BFA80000AD
:109DB0004D4F42494C45000041542B434F50533FB7
:109DC0000D0A0000D6D0B9FAD2C6B6AF53494DBF7E
:109DD000A8000000554E49434F4D0000D6D0B9FAB7
:109DE000C1AACDA853494DBFA8000000D7A2B2E137
:109DF000B3C9B9A60000000008B5694605A000F087
:109E00006FF89DF80010052205A0FCF759FD9DF89C
:109E1000000008BD41542B4353510D0A00000000BF
:109E2000D0C5BAC5C7BFB6C83A2564002DE9F84FFA
:109E300082460C4617464FF00008002000908146ED
:109E40005146254806F003F924494FF496724868B4
:109E50000021FBF7DEFF4FF47A73322200211E4807
:109E600006F070F800F0FF0BBBF1000F30D00020BF
:109E7000207000252AE019484068465D302E01DB3D
:109E8000012000E00020392E01DC012100E000214A
:109E9000084209D04F4504D14046411C01F0FF085B
:109EA0002654012000900FE0009868B14F4505D17D
:109EB00000224046411C01F0FF082254002000907F
:109EC00009F1010000F0FF09681CC5B25D45D2DB55
:109ED0004046BDE8F88F000000440040E00000204C
:109EE0002DE9F04780460C460025AA464146234806
:109EF00006F0ADF822494FF4967248680021FBF74E
:109F000088FF4FF47A73322200211C4806F01AF8B9
:109F100000F0FF09B9F1000F2CD0002020700026BE
:109F200026E017484068875D302F01DB012000E004
:109F30000020392F01DC012100E0002108420DD072
:109F4000605D00EB80004006000E6055615DA7F18A
:109F50003000084460554FF0010A07E0BAF1000FE5
:109F600004D0681CC5B2002060558246701CC6B281
:109F70004E45D6DB2846BDE8F0870000004400408F
:109F8000E000002010B500BF08214848FDF71FFF82
:109F90004748006920F0200045490861052145A097
:109FA000FCF78EFC4FF4967005F0EAF808213F4864
:109FB000FDF70BFF4FF47A7005F0E2F804213B48FF
:109FC000FDF705FF40F24C4005F0DAF805213CA012
:109FD000FCF776FC04213548FDF7F7FE4FF47A7064
:109FE00005F0CEF80820FEF7EDFE20B1052137A0E0
:109FF000FCF766FC14E0052137A0FCF761FC0020AB
:10A00000FDF7FAFE2A4890F8C80020B1284991F8D7
:10A01000C80003F0A3F942F6F82005F0B1F8B3E761
:10A020004FF47A6005F0ACF84FF47A722EA12FA0AD
:10A03000FEF730F808B9022010BD05212DA0FCF76D
:10A040003FFC4FF47A7005F09BF84FF4FA6226A1BA
:10A050002CA0FEF71FF808B90320EDE705212BA07F
:10A06000FCF72EFC4FF47A721FA12BA0FEF712F81A
:10A0700008B90420E0E70E48006940F020000C49D0
:10A080000861052127A0FCF71BFCFFF713FE04461F
:10A090002CB10522214627A0FCF712FC03E0052184
:10A0A00028A0FCF70DFC0020C6E7000000100140CE
:10A0B0005C9D002047505253C9CFB5E70000000017
:10A0C00047505253BFAABBFA00000000BFAABBFA18
:10A0D000B3C9B9A600000000C4A3BFE9BFAABBFA78
:10A0E000CAA7B0DC000000004F4B000041540D0A2D
:10A0F000000000004154D6B8C1EED6B4D0D0B3C9E8
:10A10000B9A60000415445300D0A0000C9E8D6C385
:10A11000B2BBBBD8CFD4000041542B4350494E3F73
:10A120000D0A0000B2E9BFB4CAC7B7F1D3D0504995
:10A130004E000000C1ACBDD3CDF8CAA7B0DC5B2592
:10A14000645D0000C1ACBDD3CDF8C2E7B3C9B9A608
:10A150000000000010B508214748FDF738FE4748C9
:10A16000006920F0200045490861052144A0FCF762
:10A17000A7FB0820FEF726FE28B1052143A0FCF727
:10A180009FFB002010BD04213B48FDF720FE40F25C
:10A190004C4004F0F5FF05213FA0FCF791FB0421A2
:10A1A0003548FDF712FE4FF47A7004F0E9FF0820FD
:10A1B000FEF708FE20B105213AA0FCF781FB15E06F
:10A1C00005213BA0FCF77CFB0020FDF715FE2B488A
:10A1D00090F8C80020B1294991F8C80003F0BEF8F2
:10A1E00003E040F24C4004F0CBFFFAE74FF47A6012
:10A1F00004F0C6FF4FF47A7231A132A0FDF74AFF96
:10A2000008B90220BEE7052130A0FCF759FB4FF446
:10A210007A7004F0B5FF4FF4FA6229A12FA0FDF780
:10A2200039FF08B90320ADE705212EA0FCF748FB54
:10A230004FF47A7222A12EA0FDF72CFF08B904205A
:10A24000A0E70E48006940F020000C490861052194
:10A250002AA0FCF735FBFFF72DFD04462CB10522A3
:10A2600021462AA0FCF72CFB03E005212BA0FCF7DC
:10A2700027FB002086E70000001001405C9D0020C5
:10A2800047505253C9CFB5E700000000D2D1BEAD50
:10A29000BFAABBFA0000000047505253BFAABBFA46
:10A2A00000000000BFAABBFAB3C9B9A600000000B5
:10A2B000C4A3BFE9BFAABBFACAA7B0DC0000000074
:10A2C0004F4B000041540D0A000000004154D6B825
:10A2D000C1EED6B4D0D0B3C9B9A6000041544530C0
:10A2E0000D0A0000C9E8D6C3B2BBBBD8CFD400006A
:10A2F00041542B4350494E3F0D0A0000B2E9BFB410
:10A30000CAC7B7F1D3D050494E000000C1ACBDD38D
:10A31000CDF8CAA7B0DC5B25645D0000C1ACBDD33D
:10A32000CDF8C2E7B3C9B9A60000000010B50446D5
:10A330004FF47A7004F024FF4FF47A7220A122A027
:10A34000FDF7A8FE08B9012010BD8CB94FF47A7250
:10A3500024A125A0FDF79EFE08B90220F4E74FF4E2
:10A360007A7220A123A0FDF795FE08B90420EBE73F
:10A37000012C11D14FF47A721AA123A0FDF78AFEA5
:10A3800008B90320E0E74FF47A7216A119A0FDF78F
:10A3900081FE08B90420D7E74FF47A7211A11DA0FD
:10A3A000FDF778FE08B90520CEE74FF47A720DA1CB
:10A3B0001EA0FDF76FFE08B90620C5E70020C3E721
:10A3C00043504D530000000041542B43504D533D2A
:10A3D000224D54222C224D54222C224D54220D0A5F
:10A3E000000000004F4B000041542B434D47463DB9
:10A3F000300D0A0041542B435343533D22554353E0
:10A4000032220D0A0000000041542B434D47463DC7
:10A41000310D0A0041542B43534D503D31372C31FF
:10A4200036372C302C380D0A0000000041542B43E5
:10A430004E4D493D322C312C302C302C300D0A0041
:10A4400070B504460F494FF4967248680021FBF737
:10A45000E0FC21460C4805F0FAFD4FF47A734FF406
:10A4600096720021084805F06DFDC5B23DB1054862
:10A470000522416805A0FCF723FA284670BD00209C
:10A48000FCE70000E000002000440040B6C1B6CC6C
:10A49000D0C5B7B5BBD83A257300000010B5B2B02F
:10A4A0000024394890F8B00010F0200F42D0052168
:10A4B00036A0FCF705FA642004F062FE0DEB0401FF
:10A4C000102231485130FBF793FC204484B205221E
:10A4D000214632A0FCF7F4F9224634A1374805F0B2
:10A4E000B6FD4FF4FA6136A0FDF7DEFC00B10EE0D8
:10A4F0004FF4FA6132A0FDF7D7FC00B107E04FF44A
:10A50000FA612FA0FDF7D0FC00B100E000BF2246A9
:10A5100069462A4805F08BFD4FF47A7129A0FDF7B2
:10A52000C3FC10B9022032B010BD6420FDF792FECA
:10A530000020F8E7052125A0FCF7C2F90DEB040186
:10A54000102211485130FBF753FC204484B22246BC
:10A5500016A11A4805F07BFD642004F011FE0522C7
:10A5600069461EA0FCF7ACF922466946134805F07F
:10A570005EFD4FF47A7113A0FDF796FC08B9022036
:10A58000D1E70020CFE700005C9D0020C5E4D6C3E2
:10A59000CEAA4A2D544350D0ADD2E900B7A2CBCDBC
:10A5A000C5E4D6C35B25645D0000000041542B5117
:10A5B0004953454E443D25640D0A000000440040C7
:10A5C0003E00000053454E44204F4B00C5E4D6C327
:10A5D000CEAA544350D0ADD2E9000000B7A2CBCDF3
:10A5E000C5E4D6C33A2573002DE9F047ADF5007DEB
:10A5F000814600248E4890F8B00010F0200F7DD0E6
:10A6000003A908198BA1FEF761F8204484B2884998
:10A610000868FBF778F807460B4603A908193A467D
:10A6200089A1FEF753F8204484B281494868FBF7BA
:10A630006AF807460B4603A908193A4682A1FEF7B5
:10A6400045F8204484B27A4890F8B00010F0400FEA
:10A650000FD0FDF7BFFB4FF480717F48FDF7ACFBD7
:10A66000074603A908193A467CA1FEF72FF82044B3
:10A6700084B26F49D1F8DC00FBF745F807460B467A
:10A6800003A908193A4670A1FEF720F8204484B2C5
:10A690006749D1F8E000FBF736F807460B4603A9F7
:10A6A00008193A4668A1FEF711F8204484B26049BF
:10A6B0008868FBF728F807460B4603A908193A46AD
:10A6C00061A1FEF703F8204484B2594991F8D600FD
:10A6D000FAF7BBFF8246FBF716F807460B4603A9BD
:10A6E00008193A4662A1FDF7F1FF204484B203A99C
:10A6F000081963A1FDF7EAFF204400E027E084B2D7
:10A70000052203A95FA0FCF7DBF8224660A164489C
:10A7100005F09DFC4FF4FA6162A0FDF7C5FB20B97E
:10A7200001200DF5007DBDE8F087224603A95C48B5
:10A7300005F07DFC4FF47A715BA0FDF7B5FB08B91D
:10A740000220EEE74FF4FA60FDF784FD6DE0384932
:10A7500008680021FBF738F801D82B2500E02D25EB
:10A76000334948680021FBF72FF801D82B2600E079
:10A770002D262F490868FAF7C6FF2A46CDE90001C1
:10A780004BA103A8FDF7A2FF0446294A11685068AF
:10A79000FBF710F80BD226494868FAF7B4FF3246A7
:10A7A000CDE9000142A103A8FDF790FF044620482F
:10A7B000008A10F4807F0CD01D490868FAF7A3FFC7
:10A7C0002A46CDE900013AA103A8FDF77FFF044620
:10A7D00010E01748008A10F4007F0BD01449486835
:10A7E000FAF791FF3246CDE9000131A103A8FDF748
:10A7F0006DFF0446224626A1294805F028FC4FF4A7
:10A800007A7004F0BDFC052203A91EA0FCF758F8DD
:10A81000224603A9224805F00AFC4FF47A7122A0CF
:10A82000FDF742FB08B902207BE7002079E7000032
:10A830005C9D00207B2273656E736F72446174614E
:10A8400073223A5B000000007B2276616C75652202
:10A850003A252E32667D2C00000C01407B22737756
:10A86000697463686572223A25647D2C00000000DB
:10A870007B2276616C7565223A252E32667D00005A
:10A880005D7D0000B7A2CBCDCAFDBEDD3A257300C9
:10A8900041542B514953454E443D25640D0A000057
:10A8A000004400403E00000053454E44204F4B0002
:10A8B0002354503330302C256330252E31662C3014
:10A8C0002E30300D0A0000002DE9F047ADF5007D77
:10A8D0000024824890F8B00010F0200F76D003A931
:10A8E00008197FA1FDF7F2FE204484B27B49086875
:10A8F000FAF709FF05460B4603A908192A467DA168
:10A90000FDF7E4FE204484B274494868FAF7FBFE80
:10A9100005460B4603A908192A4676A1FDF7D6FE7F
:10A92000204484B26D498868FAF7EDFE05460B466F
:10A9300003A908192A466FA1FDF7C8FE204484B276
:10A94000664991F8D600FAF780FE0746FAF7DBFE73
:10A9500005460B4603A908192A4666A1FDF7B6FE6F
:10A96000204484B25D49D1F8DC00FAF7CCFE0546FC
:10A970000E465A49D1F8E000FAF7C5FE07460B46E5
:10A9800003A908193A465FA1CDE90056FDF79EFEDE
:10A99000204484B203A9081960A1FDF797FE204462
:10A9A00084B2052203A95EA0FBF78AFF22465FA1BD
:10A9B000624805F04CFB4FF4FA6161A0FDF774FAB0
:10A9C00028B901200DF5007DBDE8F08711E0224691
:10A9D00003A95A4805F02BFB4FF47A7159A0FDF7F3
:10A9E00063FA08B90220EDE74FF4FA60FDF732FC94
:10A9F00071E03A4908680021FAF7E6FE02D84FF004
:10AA00002B0901E04FF02D09344948680021FAF77D
:10AA1000DBFE02D84FF02B0A01E04FF02D0A2F4940
:10AA20000868FAF770FE4A46CDE9000147A103A87D
:10AA3000FDF74CFE0446294A11685068FAF7BAFE41
:10AA40000BD226494868FAF75EFE5246CDE900016E
:10AA50003EA103A8FDF73AFE04462048008A10F400
:10AA6000807F0CD01D490868FAF74DFE4A46CDE9B3
:10AA7000000136A103A8FDF729FE044610E017489F
:10AA8000008A10F4007F0BD014494868FAF73BFEA7
:10AA90005246CDE900012DA103A8FDF717FE04469B
:10AAA000224622A1254805F0D2FA4FF47A7004F02C
:10AAB00067FB052203A91AA0FBF702FF224603A9A0
:10AAC0001E4805F0B4FA4FF47A711EA0FDF7ECF9B8
:10AAD00008B9022076E7002074E700005C9D0020A2
:10AAE0007B2273656E736F724461746173223A5B8B
:10AAF000000000007B2276616C7565223A252E32BB
:10AB0000667D2C007B226C6174223A252E37662CE0
:10AB1000226C6E67223A252E37667D005D7D00002F
:10AB2000B7A2CBCDCAFDBEDD3A25730041542B51EF
:10AB30004953454E443D25640D0A00000044004041
:10AB40003E00000053454E44204F4B0023545033E9
:10AB500030302C256330252E31662C302E30300DD0
:10AB60000A0000002DE9F04FFFB083460024814821
:10AB700090F8B00010F0200F75D002A908197EA13E
:10AB8000FDF7A4FD204484B27A490868FAF7BBFDBA
:10AB900005460B4602A908192A467CA1FDF796FD39
:10ABA000204484B273494868FAF7ADFD05460B4668
:10ABB00002A908192A4675A1FDF788FD204484B230
:10ABC0006C498868FAF79FFD05460B4602A90819EB
:10ABD0002A466EA1FDF77AFD204484B2654991F8BA
:10ABE000D600FAF732FD0746FAF78DFD05460B460B
:10ABF00002A908192A4665A1FDF768FD204484B220
:10AC00005C49D1F8DC00FAF77EFD05460E4659494D
:10AC1000D1F8E000FAF777FD07460B4602A90819BC
:10AC20003A465EA1CDE90056FDF750FD204484B2BE
:10AC300002A908195FA1FDF749FD204484B205224D
:10AC400002A95DA0FBF73CFE22465EA1614805F02B
:10AC5000FEF94FF4FA6160A0FDF726F920B9012052
:10AC60007FB0BDE8F08F11E0224602A9594805F0F7
:10AC7000DEF94FF47A7159A0FDF716F908B90220F0
:10AC8000EEE74FF4FA60FDF7E5FA71E0394908683C
:10AC90000021FAF799FD02D84FF02B0901E04FF09F
:10ACA0002D09344948680021FAF78EFD02D84FF08B
:10ACB0002B0A01E04FF02D0A2E490868FAF723FD10
:10ACC0004A46CDE9000147A102A8FDF7FFFC044672
:10ACD000284A11685068FAF76DFD0BD2254948687B
:10ACE000FAF711FD5246CDE900013EA102A8FDF799
:10ACF000EDFC04461F48008A10F4807F0CD01D49EB
:10AD00000868FAF700FD4A46CDE9000135A102A81E
:10AD1000FDF7DCFC044610E01648008A10F4007FC2
:10AD20000BD014494868FAF7EEFC5246CDE9000111
:10AD30002CA102A8FDF7CAFC0446224621A1254801
:10AD400005F085F94FF47A7004F01AFA052202A989
:10AD500019A0FBF7B5FD224602A91E4805F067F9C8
:10AD60004FF47A711DA0FDF79FF808B9022077E72C
:10AD7000002075E75C9D00207B2273656E736F7207
:10AD80004461746173223A5B000000007B227661AB
:10AD90006C7565223A252E32667D2C007B226C6113
:10ADA00074223A252E37662C226C6E67223A252EA5
:10ADB00037667D005D7D0000B7A2CBCDCAFDBEDD4C
:10ADC0003A25730041542B514953454E443D256467
:10ADD0000D0A0000004400403E00000053454E4470
:10ADE000204F4B002354503330302C256330252E18
:10ADF00031662C302E30300D0A0000002DE9F04F66
:10AE0000FFB083460024814890F8B00010F0200F76
:10AE100075D002A908197EA1FDF758FC204484B220
:10AE20007A490868FAF76FFC05460B4602A908192B
:10AE30002A467CA1FDF74AFC204484B27349486845
:10AE4000FAF761FC05460B4602A908192A4675A1C6
:10AE5000FDF73CFC204484B26C498868FAF753FC47
:10AE600005460B4602A908192A4673A1FDF72EFCD8
:10AE7000204484B2654991F8D600FAF7E6FB07460C
:10AE8000FAF741FC05460B4602A908192A466AA1B1
:10AE9000FDF71CFC204484B25C49D1F8DC00FAF7D1
:10AEA00032FC05460E465949D1F8E000FAF72BFC72
:10AEB00007460B4602A908193A4663A1CDE9005698
:10AEC000FDF704FC204484B202A9081964A1FDF72F
:10AED000FDFB204484B2052202A962A0FBF7F0FC2E
:10AEE000224663A1664805F0B2F84FF4FA6165A006
:10AEF000FCF7DAFF20B901207FB0BDE8F08F11E048
:10AF0000224602A95E4805F092F84FF47A715EA0DD
:10AF1000FCF7CAFF08B90220EEE74FF4FA60FDF72C
:10AF200099F971E0394908680021FAF74DFC02D817
:10AF30004FF02B0901E04FF02D09344948680021FA
:10AF4000FAF742FC02D84FF02B0A01E04FF02D0A2D
:10AF50002E490868FAF7D7FB4A46CDE900014CA113
:10AF600002A8FDF7B3FB0446284A11685068FAF7B7
:10AF700021FC0BD225494868FAF7C5FB5246CDE9BA
:10AF8000000143A102A8FDF7A1FB04461F48008A67
:10AF900010F4807F0CD01D490868FAF7B4FB4A46CC
:10AFA000CDE900013AA102A8FDF790FB044610E0AC
:10AFB0001648008A10F4007F0BD014494868FAF74D
:10AFC000A2FB5246CDE9000131A102A8FDF77EFBAC
:10AFD0000446224626A12A4805F039F84FF47A7033
:10AFE00004F0CEF8052202A91EA0FBF769FC224658
:10AFF00002A9234805F01BF84FF47A7122A0FCF750
:10B0000053FF08B9022077E7002075E75C9D002018
:10B010007B2273656E736F724461746173223A5B55
:10B02000000000007B227377697463686572223ABE
:10B03000252E30667D2C00007B2276616C756522A2
:10B040003A252E32667D2C007B226C6174223A25D3
:10B050002E37662C226C6E67223A252E37667D00CD
:10B060005D7D0000B7A2CBCDCAFDBEDD3A257300E1
:10B0700041542B514953454E443D25640D0A00006F
:10B08000004400403E00000053454E44204F4B001A
:10B090002354503330302C256330252E31662C302C
:10B0A0002E30300D0A0000002DE9F047ADF5007D8F
:10B0B000054600246F4890F8B00010F0200F66D0CD
:10B0C00003A908196CA1FDF701FB204484B205F027
:10B0D000010203A908196DA1FDF7F8FA204484B212
:10B0E00005F0020203A9081968A1FDF7EFFA204450
:10B0F00084B260498868FAF706FB07460B4603A945
:10B1000008193A4666A1FDF7E1FA204484B259498C
:10B1100091F8D600FAF799FA8246FAF7F4FA074658
:10B120000B4603A908193A4661A1FDF7CFFA20445E
:10B1300084B203A9081962A1FDF7C8FA204484B2B9
:10B14000052203A95FA0FBF7BBFB224660A1644870
:10B1500004F07DFF4FF4FA6162A0FCF7A5FE20B970
:10B1600001200DF5007DBDE8F087224603A95C486B
:10B1700004F05DFF4FF47A715BA0FCF795FE08B90F
:10B180000220EEE74FF4FA60FDF764F86FE039490A
:10B1900008680021FAF718FB01D82B2600E02D26BD
:10B1A000344948680021FAF70FFB02D84FF02B0909
:10B1B00001E04FF02D092F490868FAF7A4FA32464A
:10B1C000CDE900014AA103A8FDF780FA0446294A07
:10B1D00011685068FAF7EEFA0BD226494868FAF778
:10B1E00092FA4A46CDE9000141A103A8FDF76EFAA3
:10B1F00004462048008A10F4807F0CD01D4908685E
:10B20000FAF781FA3246CDE9000139A103A8FDF72A
:10B210005DFA044610E01748008A10F4007F0BD056
:10B2200014494868FAF76FFA4A46CDE9000130A19F
:10B2300003A8FDF74BFA0446224625A1284804F04E
:10B2400006FF4FF47A7003F09BFF052203A91DA0AF
:10B25000FBF736FB224603A9214804F0E8FE4FF431
:10B260007A7121A0FCF720FE08B9022079E70020BE
:10B2700077E700005C9D00207B2273656E736F7220
:10B280004461746173223A5B000000007B22737793
:10B29000697463686572223A25647D2C00000000A1
:10B2A0007B2276616C7565223A252E32667D2C00F4
:10B2B0007B2276616C7565223A252E32667D000010
:10B2C0005D7D0000B7A2CBCDCAFDBEDD3A2573007F
:10B2D00041542B514953454E443D25640D0A00000D
:10B2E000004400403E00000053454E44204F4B00B8
:10B2F0002354503330302C256330252E31662C30CA
:10B300002E30300D0A00000030B5B3B00025002407
:10B3100000BF304890F8B00010F0200F54D024B98E
:10B320002DA101A801F04AFF0546012C04D12CA152
:10B3300001A801F043FF0546022C04D12CA101A86D
:10B3400001F03CFF0546032C04D12CA101A801F01B
:10B3500035FF0546042C04D12BA101A801F02EFFD6
:10B360000546632C04D12BA101A801F087FF0546F7
:10B37000052201A92AA0FBF7A3FA2A462AA12E48F2
:10B3800004F065FE4FF4FA612CA0FCF78DFD10B9B6
:10B39000012033B030BD2A4601A9274804F047FEFA
:10B3A0004FF47A7126A0FCF77FFD08B90220F0E780
:10B3B0004FF4FA60FCF78EFF08B90020E9E701F0CE
:10B3C000CDFD04461CB1A4E7FFF77EFAE1E70020BB
:10B3D000DFE700005C9D00206564697400000000E8
:10B3E000616C61726D5F6D6F62696C650000000079
:10B3F000616C61726D5F76616C7565007573657205
:10B400005F67726F75700000666F727363656E655B
:10B41000000000002265646974223A223022000094
:10B42000B7A2CBCD3A25730041542B514953454E19
:10B43000443D25640D0A0000004400403E00000029
:10B4400053454E44204F4B0070B5EAB006460024E9
:10B45000002500BF022C02DD28466AB070BD2146DF
:10B46000621CD4B201EB410202EBC1021F49501829
:10B470000B2265A9FAF7BCFC00208DF89F0165A896
:10B48000FAF776FD00B9E5E70120FEF74FFF01A9C5
:10B4900065A8FCF719FB00208DF8300001AA14A163
:10B4A000174804F0D4FD052265A916A0FBF708FA99
:10B4B0004FF47A7003F064FE01A93046FCF704FBF8
:10B4C0003046FDF7ABF901A9002201F820200C4815
:10B4D00004F0BDFD1A210A4804F0A0FD4FF47A7172
:10B4E0000BA0FCF7E1FC681CC5B2B3E78C9D002003
:10B4F00041542B434D47533D222573220D0A000032
:10B5000000440040B7A2CBCDB5BD5B25735D000004
:10B51000434D4753000000002DE9F043CDB0012218
:10B5200056A102A8FDF7D2F802A8FEF789FF04464B
:10B530005649486856A101F05AFC8146002202A9EA
:10B540004846FCF743F902A902A801F0B7FB0F2C0B
:10B5500006DA05214FA0FBF7B3F94DB0BDE8F08343
:10B56000052202A94EA0FBF7ABF902A8FDF756F998
:10B570000B2806DAFDF7B4FE05214BA0FBF7A0F976
:10B58000EBE74EA1484601F032FC8146002202A9B9
:10B590004846FCF71BF902A902A801F08FFB05221F
:10B5A00002A94BA0FBF78CF94BA102A801F01FFCEC
:10B5B000C0B1FDF795FE49494868FAF7A4F8054679
:10B5C0000E4646490868FAF79EF807463A460B4683
:10B5D00043A102A8CDE90056FDF778F802A8FFF7CD
:10B5E00033FFBAE743A102A801F001FC18B1FDF74F
:10B5F00077FEFDF761FE40A102A801F0F8FB70B1F3
:10B60000FDF76EFE3DA227A102A8FDF75FF8C4B2C8
:10B61000002002A9085502A8FFF716FF9DE73CA1EC
:10B6200002A801F0E4FB70B1FDF75AFE39A21DA19A
:10B6300002A8FDF74BF8C4B2002002A9085502A8E1
:10B64000FFF702FF89E738A102A801F0D0FB70B133
:10B65000FDF746FE35A213A102A8FDF737F8C4B2E4
:10B66000002002A9085502A8FFF7EEFE75E7FDF7D6
:10B6700037FE33A0FFF7E8FE00BF6EE741542B43CF
:10B680004D47523D25640D0A00000000E0000020F7
:10B69000222C2200DFE3D3D0D0C2CFFBCFA2000008
:10B6A0004E756D3A25730000B2BBCAC7C8CBB7A2AE
:10B6B000B5C4D6B1BDD3C9BE0000000030303433AC
:10B6C0003030344430303434303033410000000006
:10B6D0004D73673A25730000303100005C9D0020F7
:10B6E0004348313D252E32662C4348323D252E32CB
:10B6F000660000003032000030330000D4DDB2BB01
:10B70000D6A7B3D65B30335DD6B8C1EE00000000DB
:10B7100030340000D4DDB2BBD6A7B3D65B30345D85
:10B72000D6B8C1EE0000000030350000D4DDB2BB59
:10B73000D6A7B3D65B30355DD6B8C1EE00000000A9
:10B74000434D443A303128D2A3B2E2292C434D4430
:10B750003A303228D6D8C6F4292CC6E4CBFB3AB00E
:10B76000EFD6FA0001460020034A506820F440401A
:10B7700008435060704700000010024029B1064A9B
:10B7800052690243044B5A6104E0034A52698243FE
:10B79000014B5A61704700000010024029B1064A6F
:10B7A000D2690243044BDA6104E0034AD26982435E
:10B7B000014BDA61704700000010024029B1064ACF
:10B7C00092690243044B9A6104E0034A92698243FE
:10B7D000014B9A61704700000010024029B1064AEF
:10B7E000D2680243044BDA6004E0034AD268824321
:10B7F000014BDA60704700000010024030B50021B4
:10B800000022002400232D4D6D6805F00C0121B1AC
:10B81000042905D0082923D105E0294D056022E03F
:10B82000274D05601FE0254D6D6805F47012234D0E
:10B830006D6805F48034022505EB92421CB9214D58
:10B84000554305600BE01D4D6D6815F4003F03D0B6
:10B850001C4D5543056002E0194D5543056002E05B
:10B86000174D056000BF00BF144D6D6805F0F00175
:10B870000909154D6B5C0568DD4045600F4D6D682D
:10B8800005F4E061090A104D6B5C4568DD40856098
:10B890000A4D6D6805F46051C90A0B4D6B5C456833
:10B8A000DD40C560054D6D6805F44041890B074DCD
:10B8B0006B5CC568B5FBF3F5056130BD0010024057
:10B8C00000127A0000093D00000000201000002056
:10B8D00010B50C49081FFDF78DFA00240949091F0E
:10B8E00008680021F9F770FF01D244F0010405490E
:10B8F000091F48680021F9F767FF01D244F00204EC
:10B90000204610BD609D002070B504460D461646C9
:10B910001148C0684078A0420BD10F49C968881C03
:10B92000FCF748FF28600C49C968081DFCF79EFE1B
:10B9300030600948C0684078A0420BD10649C96808
:10B94000881CFCF737FF28600349C968081DFCF70D
:10B950008DFE306070BD0000E000002000B599B0A1
:10B9600040F2DC5307A20BA16846FCF77FF80522E2
:10B9700069460FA0FAF7A4FF6846FCF7F1FB19B07F
:10B9800000BD00006C696E6B2E746C696E6B2E6965
:10B990006F00000041542B51494F50454E3D2254F9
:10B9A0004350222C222573222C25640D0A0000000E
:10B9B000C1ACBDD3B5BD3A257300000010B59AB037
:10B9C000002401A9081915A1FCF780FE204484B2C7
:10B9D000052201A916A0FAF773FF224617A11B48FA
:10B9E00004F035FB4FF4FA6119A0FCF75DFA10B9C9
:10B9F00001201AB010BD224601A9144804F017FB1B
:10BA00004FF47A7113A0FCF74FFA08B90220F0E75F
:10BA10004FF4FA60FCF71EFC0020EAE731323334C1
:10BA20003536373839313233343541420000000081
:10BA3000B7A2CBCDCDB73A257300000041542B51AE
:10BA40004953454E443D25640D0A00000044004022
:10BA50003E00000053454E44204F4B0030B5D7B058
:10BA6000002500BF00240CA9081973A1FCF72EFEC5
:10BA7000204484B20CA9081970A1FCF727FE2044C9
:10BA800084B20CA9081971A1FCF720FE204484B2ED
:10BA90000CA9081971A1FCF719FE204484B2E9B27F
:10BAA00002A8FCF7C7FC0CA9081902AA6FA1FCF7B1
:10BAB0000DFE204484B20CA9081971A1FCF706FE02
:10BAC000204484B200200CA900900819042303220A
:10BAD00071A1FCF7FBFD204484B20CA9081975A1E3
:10BAE000FCF7F4FD204484B20CA9081977A1FCF7F7
:10BAF000EDFD204484B207A8FCF74CFF0CA90819FF
:10BB000007AA78A1FCF7E2FD204484B20CA9081929
:10BB10007CA280A1FCF7DAFD204484B205220CA9A6
:10BB200081A0FAF7CDFE224682A1864804F08FFA62
:10BB30004FF4FA6184A0FCF7B7F910B9012057B0AF
:10BB400030BD22460CA97F4804F071FA4FF47A7197
:10BB50007EA0FCF7A9F908B90220F0E74FF4FA60DB
:10BB6000FCF778FB7B484068007830281AD1794888
:10BB700040684078312815D10522294676A0FAF789
:10BB80009FFE681C85B20522294678A0FAF798FE28
:10BB90003C2D06DD0522294679A0FAF791FEE8B290
:10BBA000CDE75FE7052229467BA0FAF789FE012150
:10BBB0007E4880F8B41040F2DC51A0F8AA107C490D
:10BBC00081617C49C1617A4901627A4941623C21C3
:10BBD00080F8B510052180F8B610D0F8B00040F418
:10BBE000A4617248C0F8B01000F1890172A001F0A0
:10BBF000CBF86E49613174A001F0C6F80B226B4995
:10BC0000303173A0FAF7F4F86849753173A001F088
:10BC1000BBF800216548C0F8BC10C0F8C010102265
:10BC200000F1510102A8FAF7E3F802F0FFFD01F07C
:10BC30006DFC002083E700007B000000226D65742E
:10BC4000686F64223A2231222C00000022656E7453
:10BC50005F6B6579223A223335222C0022646576A7
:10BC60006963655F6964223A22222C00226465764A
:10BC70006963655F6E6F223A222573222C000000F3
:10BC8000226465766963655F6E616D65223A22CED6
:10BC9000C2CAAAB6C8222C002268775F7665727382
:10BCA000696F6E223A2225642E25642E2564222C8B
:10BCB000000000002273775F76657273696F6E22F1
:10BCC0003A22362E3330222C0000000022646576A2
:10BCD0005F6D6F6465223A2254503530322D542204
:10BCE0002C000000226372656174655F6461746595
:10BCF000223A2225732031363A35313A3136222C18
:10BD00000000000053544D33324C3135315242540F
:10BD100036000000226D63755F6D6F6465223A2204
:10BD20002573227D00000000B7A2CBCDC4DAC8DDA8
:10BD30002573000041542B514953454E443D256421
:10BD40000D0A0000004400403E00000053454E44F0
:10BD5000204F4B00E0000020C9E8B1B8D2D1BEAD01
:10BD6000D7A2B2E15B25645D00000000D4D9B4CE57
:10BD7000B3A2CAD4D7A2B2E15B25645D0000000083
:10BD8000B7FECEF1C6F7CAFDBEDDBFE2B4EDCEF31D
:10BD90005B25645D00000000C9E8B1B8D7A2B2E13C
:10BDA000B3C9B9A65B25645D000000005C9D00205E
:10BDB00000008442000080BF6C696E6B2E746C6959
:10BDC0006E6B2E696F000000CDD8C6D5C8F000009C
:10BDD000313332363732313632343700CBABCEC224
:10BDE0000000000070B5D6B0002500240BA908198A
:10BDF0009CA1FCF76BFC204484B20BA908199AA102
:10BE0000FCF764FC204484B20BA908199AA1FCF742
:10BE10005DFC204484B20BA908199BA1FCF756FCD9
:10BE2000204484B2102201A99B48F9F7E1FF0020C9
:10BE30008DF81400102299A19C4804F008F94FF4E1
:10BE4000FA619BA0FCF730F810B9012056B070BD24
:10BE5000102201A9954804F0EAF84FF47A7195A0F0
:10BE6000FCF722F808B90220F0E70BA9081901AA8B
:10BE700092A1FCF72BFC204484B20BA9081994A1D1
:10BE8000FCF724FC204484B200200BA90090081980
:10BE90000423032294A1FCF719FC204484B20BA9CB
:10BEA000081998A1FCF712FC204484B20BA90819C8
:10BEB0009AA1FCF70BFC204484B206A8FCF76AFDAB
:10BEC0000BA9081906AA9BA1FCF700FC204484B228
:10BED0000BA908199FA2A3A1FCF7F8FB204484B288
:10BEE00005220BA9A4A0FAF7EBFC22466BA16F4830
:10BEF00004F0ADF84FF4FA616DA0FBF7D5FF08B977
:10BF00000120A3E722460BA9684804F090F84FF4FB
:10BF10007A7168A0FBF7C8FF08B9022096E7642091
:10BF2000FCF798F998484068007830280BD196487B
:10BF300040684078312806D10522294693A0FAF7B7
:10BF4000BFFCE8B282E7052195A0FAF7B9FC524898
:10BF50005138B0F8B00010F4807F05D1052194A0CD
:10BF6000FAF7AEFC002071E787490122486806A96C
:10BF7000FBF77DFC06A8FCF7BBFB0646F9F790FB38
:10BF800084B2B4F5FC6F03DB40F63400844201DD7B
:10BF900000205BE7A4F5FA603F49513981F8CC00F5
:10BFA00079490222486806A9FBF761FC06A8FCF75C
:10BFB0009FFB0646F9F774FBC1B23748513880F849
:10BFC000CD1071490322486806A9FBF750FC06A86A
:10BFD000FCF78EFB0646F9F763FBC1B22E485138D9
:10BFE00080F8CE1068490422486806A9FBF73FFC98
:10BFF00006A8FCF77DFB0646F9F752FBC1B22648BE
:10C00000513880F8D01060490522486806A9FBF72E
:10C010002EFC06A8FCF76CFB0646F9F741FBC1B203
:10C020001D48513880F8D11057490622486806A9A2
:10C03000FBF71DFC06A8FCF75BFB0646F9F730FB97
:10C04000C1B21548513880F8D21090F8D2100522AC
:10C050005BA0FAF735FC10487B30FDF776F800203E
:10C06000F4E600007B000000226D6574686F6422B6
:10C070003A2231222C00000022656E745F6B6579D4
:10C08000223A223335222C00226465766963655F8B
:10C090006964223A22222C00AD9D002041542B518C
:10C0A0004953454E443D25640D0A000000440040BC
:10C0B0003E00000053454E44204F4B0022646576FD
:10C0C0006963655F6E6F223A222573222C0000009F
:10C0D000226465766963655F6E616D65223A22CE82
:10C0E000C2CAAAB6C8222C002268775F766572732E
:10C0F000696F6E223A2225642E25642E2564222C37
:10C10000000000002273775F76657273696F6E229C
:10C110003A22362E3330222C00000000226465764D
:10C120005F6D6F6465223A2254503530322D5422AF
:10C130002C000000226372656174655F6461746540
:10C14000223A2225732031363A35313A3136222CC3
:10C150000000000053544D33324C313531524254BB
:10C1600036000000226D63755F6D6F6465223A22B0
:10C170002573227D00000000B7A2CBCDC9E8B1B87D
:10C18000D0C5CFA225730000E0000020C9E8B1B8F7
:10C19000D2D1BEADD7A2B2E15B25645D0000000044
:10C1A000C9E8B1B8B5C7BCC7B3C9B9A6000000009B
:10C1B000D1A1D4F1B2BBB8FCD0C2CAB1BCE400007A
:10C1C000CAB1BCE4B8FCD0C2CDEAB1CF7365633D5F
:10C1D0002564000021B1028842F04002028004E0A0
:10C1E00002884FF6BF731A400280704770B505464B
:10C1F0000C46164610211048FBF7E7FD032000F01F
:10C200005DF9C4F3074000F059F9C4F3072000F0CA
:10C2100055F9E0B200F052F904E0FF2000F04EF9C9
:10C2200028706D1C3000A6F101018EB2F5D11021ED
:10C230000148FBF7CCFD70BD000801402DE9F05F1F
:10C2400007460E4614464FF00008C146C246002578
:10C25000AB4606F0FF0ACAF10000C5B22046E1175E
:10C2600004EB1151C1F30738E11704EB1151091325
:10C27000A4EB013101F0FF09BAF1000F20D1B8F1B0
:10C28000000F05D122463146384600F0C5F864E07B
:10C2900009E04FF480523146384600F0BDF806F50B
:10C2A000805607F580575FEA0800A8F1010101F008
:10C2B000FF08EED14A463146384600F0ADF84CE072
:10C2C000B8F1000F18D1A94510DDA9EB050000F069
:10C2D000FF0B2A463146384600F09EF82E442F4484
:10C2E0005A463146384600F097F836E02246314645
:10C2F000384600F091F830E0601B84B22046E11728
:10C3000004EB11514FEA2138E11704EB11510913E5
:10C31000A4EB013101F0FF092A463146384600F00E
:10C320007BF82E442F4409E04FF4805231463846C2
:10C3300000F072F806F5805607F580575FEA0800AE
:10C34000A8F1010101F0FF08EED1B9F1000F04D00E
:10C350004A463146384600F05FF8BDE8F09F0000DD
:10C3600000B587B001212420FFF728FA0121080336
:10C37000FFF724FA2020ADF8040003208DF8060012
:10C3800018208DF8070001A92148FBF747FC402041
:10C39000ADF8040001A91E48FBF740FC8020ADF871
:10C3A000040001A91A48FBF739FC1020ADF804007D
:10C3B0008DF8070001A91648FBF730FC102114483E
:10C3C000FBF705FD0020ADF808004FF48270ADF8D2
:10C3D0000A000020ADF80C000220ADF80E0001208C
:10C3E000ADF810004002ADF812003820ADF814008E
:10C3F0000020ADF816000720ADF8180002A9054886
:10C4000000F0AEF801210348FFF7E4FE07B000BDDD
:10C41000000801400030014070B505460C46164644
:10C4200000F080F810211348FBF7CFFC022000F049
:10C4300045F8C4F3074000F041F8C4F3072000F0CA
:10C440003DF8E0B200F03AF8B6F5805F01DD4FF458
:10C45000805603E0287800F031F86D1C3000A6F11A
:10C4600001018EB2F6D110210248FBF7B0FC00F0BA
:10C4700041F870BD0008014010B5044600F052F8C4
:10C4800000F038F810210C48FBF79FFC202000F04A
:10C4900015F8C4F3074000F011F8C4F3072000F0CA
:10C4A0000DF8E0B200F00AF810210348FBF78FFC0A
:10C4B00000F020F810BD00000008014010B504464F
:10C4C00000BF02210A4800F03DF80028F9D02146BB
:10C4D000074800F043F800BF0121054800F032F89A
:10C4E0000028F9D0024800F036F8C0B210BD0000B4
:10C4F0000030014010B5002410210948FBF765FC0D
:10C500000520FFF7DBFF00BFFF20FFF7D7FF044642
:10C5100014F0010FF8D110210148FBF758FC10BDB1
:10C520000008014010B510210548FBF74EFC06201D
:10C53000FFF7C4FF10210248FBF749FC10BD0000C3
:10C54000000801400246002013890B4201D001205F
:10C5500000E000207047014688897047818170475C
:10C5600010B50022028802F441520B884C88234304
:10C570008C882343CC8823430C8923434C89234351
:10C580008C892343CC8923431A430280838B4FF247
:10C59000FF74234083830B8A038210BD7047000021
:10C5A00070B504460D462B4622460249024800F06B
:10C5B00017F870BD00F803088779000810B5182037
:10C5C0000449088000230A460349044800F008F89B
:10C5D00010BD0000749E0020004C00088779000800
:10C5E0002DE9F0478046894614461F4625462E46CB
:10C5F0003088001F81B2201D02F038FB7080328825
:10C6000009EBC7202946C047BDE8F087BAB0064607
:10C610003746384603F0A2FB0120034605220146B7
:10C62000009004A8FCF7BDFF64E2FE4908683221CF
:10C63000F9F7B6FC002332221946384603F082FC93
:10C640000546F84904AA08682946FDF741F8054659
:10C65000ECB29DF81E00002873D19DF81300352818
:10C6600070D017DC06282FD005DC6CD2DFE800F094
:10C67000634E6C545D710A2838D006DC072829D037
:10C6800008282DD009285ED136E029284AD0342840
:10C69000F9D193E04B287DD00EDC3C285FD006DC3E
:10C6A000362878D0392877D03A28ECD1D7E04728F7
:10C6B00073D04828E7D115E14C380528D5D2DFE8FA
:10C6C00000F071FEFDFCFB0008A9D7A000F05CFBA8
:10C6D000054690E108A9D6A000F056FB05468AE180
:10C6E00008A9D5A000F050FB054684E108A9D5A013
:10C6F00000F04AFB05467EE1002004230322D7A177
:10C70000009008A8FBF7B2F90A2574E108A9D7A0A0
:10C7100000F03AFB05466EE108A9D6A000F034FB14
:10C72000054668E100F0FCFB65E108A9D3A000F034
:10C730002BFB05465FE108A9D1A000F025FB0546CB
:10C7400059E1C2E165E050E108A8FBF7E5FE1025DC
:10C7500051E108A9CCA000F017FB05464BE1CE48FB
:10C760000022016808A8FBF74DF90546CA4A51683E
:10C7700008AA50190022FBF745F90544C64A9168FA
:10C7800008AA50190022FBF73DF90544C348027876
:10C79000294603E0FFE021E077E095E06D1C08A862
:10C7A000425428E19F490968085DFAF765F908A92C
:10C7B000BB48006800F0E8FA05461CE1994A136896
:10C7C000621C995C974A1268105DFCF773F908A91E
:10C7D000B348006800F0D8FA05460CE191480068BB
:10C7E000025DAD48183050F83210002208A8FBF75F
:10C7F00009F905468B4A1268135DA74A183202EB05
:10C80000C302516808AA50190022FBF7FBF805443F
:10C81000F1E084490A68611C5018FBF7EFF8014603
:10C8200080480068025D9C48183040F832107D490D
:10C830000A68611D5018FBF7E1F801467948006865
:10C84000025D9548183000EBC200416008A9944889
:10C85000006800F099FA054601F0E8FFCBE0714965
:10C860000968095D01EB410202EBC1028A493031DE
:10C8700050180B2208A9F9F7BBFA054600222846F2
:10C88000691C8DB208A90A54B5E0664A1268125DA7
:10C8900002EB420303EBC2037F4A30329918614A2C
:10C8A0001368621C98180B22F9F7A2FA08A97C48B1
:10C8B000006800F069FA03E094E02BE022E02FE04A
:10C8C000054601F0B3FF96E0102208A972485130E6
:10C8D000F9F78EFA054600222846691C8DB208A990
:10C8E0000A5488E04F490968081910226A495131F1
:10C8F000F9F77EFA054608A96948006800F044FA8D
:10C90000054678E047490968081901F039FE4FF6F5
:10C91000FF7570E001F002F8FCF7CEFC00256AE03C
:10C9200040480068005D5C4981F8CC003D480168E2
:10C93000601C095C584880F8CD103A480168A01C7A
:10C94000095C554880F8CE1036480168E01C095C47
:10C95000514880F8D01033480168201D095C4E48CA
:10C9600080F8D1102F480168601D095C4A4880F8A2
:10C97000D2102C480168A01D095C474880F8CF10F0
:10C9800008A94748006800F0FFF905464248CC3046
:10C99000FCF7DBFB2FE023480068005D012802D094
:10C9A00002281CD112E01F4A1368A21C99181D4AC4
:10C9B0001368621C985CF9F739FA1A490A68611C15
:10C9C000505C08A9F9F7BAFA054609E015490A6862
:10C9D000611C505C08A9F9F7B1FA054600E000BFF8
:10C9E00000BF08E03046FAF799FB08A92DA000F037
:10C9F000CBF9054600BF00BFA5F57F40FF3879D0D1
:10CA0000012000900748006881780123052204A8CE
:10CA1000FCF7C7FD08A80121CDE9010500912349D4
:10CA2000012345E0E00000205620322E3130000086
:10CA30005620362E313200005452544F5320342E9B
:10CA4000300000004A756E20203620323031372009
:10CA50002D2031363A35313A3136000056202564E2
:10CA60002E25642E2564206E0000000054503530C1
:10CA7000305632005254552D545000004E420000A2
:10CA800048656C6C6F00000053544D33324C3135A7
:10CA900031524254360000005C9D00203C000020D2
:10CAA0008C0000204E756C6C00000000F40000202B
:10CAB0001A46086804A9FCF77FFD05460E482A4679
:10CAC00001680E4803F0B3FA14E09DF81E00062832
:10CAD00010D09DF81E00052806D1094801220168E2
:10CAE00008A0F9F7EDFE05E09DF81E10032206A050
:10CAF000F9F7E6FE99E50000F40000200038014057
:10CB0000E0000020257300002564000010B500241B
:10CB1000144890F8B00010F0400F0CD04FF40071A2
:10CB20001148F9F7C3FE00210846F9F721FBB0B917
:10CB3000A01CC4B213E04FF400710B48F9F768FE73
:10CB4000F9F77CFC08B9601CC4B24FF48071064848
:10CB5000F9F75EFEF9F772FC08B9601CC4B2204612
:10CB600010BD00005C9D0020000C014010B500F0DD
:10CB700001F810BD0CB5002001900090324800680B
:10CB800040F480303049086000BF2F48006800F44E
:10CB9000003000900198401C0190009818B901984D
:10CBA000B0F5A06FF1D12848006810F4003F02D022
:10CBB0000120009001E0002000900098012842D15F
:10CBC0002248006840F010002049086008460068CC
:10CBD00020F0030008600846006840F0020008608A
:10CBE0001948406818494860084640684860084647
:10CBF000406840F4806048600846406820F47C103B
:10CC000048600846406840F4E810486008460068FC
:10CC100040F08070086000BF0B48006810F0007F93
:10CC2000FAD00948406820F00300074948600846E8
:10CC3000406840F00200486000BF0348406800F0D0
:10CC40000C000828F9D10CBD001002400020024061
:10CC50001FB5044601210520FEF7B0FD0120ADF807
:10CC60000C0028208DF80F0003A91348FAF7D6FF0F
:10CC700000210846FAF7B2FF0120009000208DF84D
:10CC8000040008208DF8050001208DF80600684694
:10CC9000FAF7D6FB06208DF8080002208DF809006F
:10CCA0008DF80A0001208DF80B0002A8FCF7C8FDE2
:10CCB000204600F0E5F81FBD000801402DE9F043D3
:10CCC000ADF5017D81460E46002400254846FBF760
:10CCD000A5FD074600BF20E009EB0500FBF754FC6B
:10CCE00001A921F8140001A830F814004FF6FF71D3
:10CCF00001EA002001A921F81400A91C09EB010098
:10CD0000FBF742FC01A931F81410084301A921F8EE
:10CD10001400601C84B2281D85B2BD42DCDB38469D
:10CD2000F91707EB9171C1F38F07002400251FE06D
:10CD300001A830F81500802807DA01A810F815209E
:10CD40002146601C84B2725410E001A931F815002C
:10CD5000F9F72AF880464FEA28222046611C8CB257
:10CD600032542046611C8CB206F80080681C85B2E3
:10CD7000BD42DDDB00222046611C8CB232542046CD
:10CD80000DF5017DBDE8F08330B503460C4600206B
:10CD90001946224605E011F8015B02F8015B451CCB
:10CDA000A8B20D78002DF6D1157030BD2DE9F041F7
:10CDB00006460D462C4637462846FBF72FFD044411
:10CDC0003046FBF72BFD804618F1010001D1BDE88C
:10CDD000F08103E017F8010B04F8010B5FEA08008B
:10CDE000A8F10108F6D104F8010B00BFEFE710B578
:10CDF0000246087888B10CE0002305E0C8184078A6
:10CE000008B9104610BD5B1CD05CCC5CA042F5D0CC
:10CE1000521C10780028EFD1F4E71046F2E710B565
:10CE200002F0C0F810BD000030B51249B1F1807FAA
:10CE300000D31DE021F07F40401E4FF0E022506102
:10CE400050170F22002807DA13071D0E0A4B00F0B7
:10CE50000F04241F1D5503E013071C0E074B1C5421
:10CE600000BF00204FF0E02290610720106100BF5A
:10CE700030BD00004019010018ED00E000E400E0C2
:10CE800010B5044600214FF4FE70FEF7A7FC2046C3
:10CE900000F001F810BD10B5044601210807FEF7A7
:10CEA0007DFC0120FCF788FD0120FCF745FD14B155
:10CEB000FCF748FD03E002210120FCF75DFD10BDF9
:10CEC00010B51348006840F0010011490860084699
:10CED0004068104908400E494860084600680E49FD
:10CEE00008400B4908600846006820F4802008606C
:10CEF0000846406820F4FE0048604FF41F00886038
:10CF0000FFF734FE4FF000600449086010BD0000D8
:10CF1000001002400000FFF8FFFFF6FE08ED00E001
:10CF200010B500220121024800F0AAFD10BD00004A
:10CF300035CF000810B5642002F022F9FCF7BCF9E7
:10CF400010BD000010B50A2002F01AF900220121DC
:10CF5000014800F095FD10BD2DE80008F0B587B040
:10CF60007649486876A1FFF742FF044684B1002263
:10CF700002A92046FAF77BFC02A8FBF7B9FB05469D
:10CF800000212846F8F720FC04D2002007B0F0BDAD
:10CF90000020FBE7694948686BA1FFF728FF0446BA
:10CFA00094B1002202A92046FAF761FC02A8FBF71F
:10CFB0009FFB05464FF07E512846F8F7FBFB01D159
:10CFC0000120E3E70020E1E75C49486860A1FFF742
:10CFD0000EFF04461CB3002202A92046FAF747FCC4
:10CFE0000B225F4902A8F8F703FF012202A920469D
:10CFF000FAF73DFC0B225A490B3102A8F8F7F8FE6C
:10D00000022202A92046FAF732FC0B2254491631BB
:10D0100002A8F8F7EDFE01F009FC0220B6E7474947
:10D02000486850A1FFF7E3FE0446002C47D00022D9
:10D0300002A92046FAF779FB052202A94CA0F9F7CC
:10D040003FFC02A8FBF754FB054645483038C56154
:10D05000012202A92046FAF768FB052202A946A090
:10D06000F9F72EFC02A8FBF743FB05463C48303895
:10D070008561022202A92046FAF757FB052202A980
:10D080003BA0F9F71DFC02A8FBF732FB054634482C
:10D0900030384562032202A92046FAF746FB0522F2
:10D0A00002A935A0F9F70CFC02A8FBF721FB054605
:10D0B0002B483038056201F0B9FB032066E71F49B1
:10D0C00048682FA1FFF793FE04468CB102A92046C1
:10D0D000FAF712FC052202A92CA0F9F7F1FB20496E
:10D0E000313102A8FFF750FE01F0A0FB04204DE70C
:10D0F0001249486829A1FFF77AFE04468CB102A9BB
:10D100002046FAF7F9FB052202A927A0F9F7D8FB78
:10D110001349453102A8FFF737FE01F087FB632072
:10D1200034E72846F8F7EFFA0646052032460B4664
:10D13000009020A0F9F7C4FB002027E7E0000020C2
:10D14000666C61670000000065646974000000009F
:10D15000616C61726D5F6D6F62696C6500000000EB
:10D160008C9D0020616C61726D5F76616C756500ED
:10D170004D696E25730000004D6178257300000035
:10D18000757365725F67726F757000007573657295
:10D190005F67726F75703A2573000000666F727377
:10D1A00063656E6500000000666F727363656E658F
:10D1B0003A257300C5E4D6C32566000070B586B075
:10D1C00005460E460024281917A1FBF77FFA2044D4
:10D1D00084B2281915A1FBF779FA204484B22819E2
:10D1E00016A1FBF773FA204484B2102201A9174854
:10D1F000F8F7FEFD00208DF81400281901AA14A1EB
:10D20000FBF764FA204484B22819324615A1FBF7D3
:10D210005DFA204484B2281917A1FBF757FA20447D
:10D2200084B2204606B070BD7B000000226D65749C
:10D23000686F64223A2233222C00000022656E744B
:10D240005F6B6579223A223335222C00AD9D002098
:10D25000226465766963655F6E6F223A22257322C8
:10D260002C0000002271756572795F636F6C756DBB
:10D270006E223A22257322007D00000070B586B030
:10D2800005460E460024281917A1FBF71FFA204473
:10D2900084B2281915A1FBF719FA204484B2281981
:10D2A00016A1FBF713FA204484B2102201A91748F3
:10D2B000F8F79EFD00208DF81400281901AA14A18A
:10D2C000FBF704FA204484B22819324615A1FBF773
:10D2D000FDF9204484B2281913A1FBF7F7F9204483
:10D2E00084B2204606B070BD7B000000226D6574DC
:10D2F000686F64223A2234222C00000022656E748A
:10D300005F6B6579223A223335222C00AD9D0020D7
:10D31000226465766963655F6E6F223A2225732207
:10D320002C000000257300007D00000008B50146B8
:10D330001F2000EAE1208DF800003F2000EA611084
:10D340008DF8010001F01F008DF80200BDF80020EB
:10D3500010469DF8022040EA024008BD3EB5044652
:10D360002E48FBF7BBFD01A8FBF7B8FDFF2C1CD036
:10D370009DF809002044C0B28DF809009DF809000D
:10D380003B280BDB9DF80800401CC0B28DF808005C
:10D390009DF809003B38C0B28DF809009DF80800DF
:10D3A000182802DB00208DF808009DF80A209DF85F
:10D3B00009109DF808000723FBF778FE062000906F
:10D3C0001648CC3890F8D23090F8D12090F8D01090
:10D3D00013A0F9F775FA062000909DF80A309DF821
:10D3E00009209DF8081013A0F9F76AFA0120FAF74E
:10D3F00071F81548FAF78EFB1448FAF78BFB1448BE
:10D40000FAF788FB1348FAF785FB1348FAF782FB13
:10D41000FAF792F80020FFF71BFC3EBD289E002083
:10D42000BDF8C8EBD0DDC3DF25642025642025646A
:10D4300000000000C4D6D6D3C9E8D6C32564202591
:10D44000642025640000000000080140000C014039
:10D4500000100140001401400018014000F018F8CD
:10D460004FF400510948FAF7B0FC0EE0012100200A
:10D47000FBF7F4FC4FF47A7001F082FE00210846BD
:10D48000FBF7ECFC642001F07BFEEFE700100140AD
:10D4900010B5F8F755FC18B9FF21174880F8B410FB
:10D4A0000220F9F7E3FA144991F8B400F9F7E4FA25
:10D4B000FCF700FB00201049086181F8D90081F8D1
:10D4C000DA000E48C1F8F00001460B48C0F8F81029
:10D4D0000B49C0F8F410C0F8FC104FF40051094893
:10D4E000FAF775FC02210848FAF771FC0821054893
:10D4F000FAF76DFC10BD00005C9D0020000048C3E1
:10D500000000484300100140000C014010B51E24EB
:10D5100015E000210120FBF7A1FC00210846FBF7E4
:10D520009DFC642001F02CFE01210846FBF796FCCF
:10D5300001210020FBF792FC642001F021FE200075
:10D54000A4F10101CCB2E4D110BD00002648F8F7E7
:10D55000BDFAFFF7DBFA25480068FBF737FD2249E3
:10D56000D039081FF9F7B8F84FF47A7001F008FEC7
:10D570001D49D039081FF9F7AFF8FBF735FA1A49FA
:10D58000D43981F8DA002DE017480838FBF7A6FCFB
:10D590004FF4FA7001F0F4FD1549081FF9F79CF8F3
:10D5A000134A121F1168104AD43AD2F8BC00F7F798
:10D5B000EDFD0D49D43908600D4A121F51680A4A21
:10D5C000D43AD2F8C000F7F7E1FD0749D4394860F2
:10D5D000084690F8B00010F0800F01D001F08AF8F2
:10D5E00000F098FED0E70000309E0020D800002018
:10D5F000BC0000201848F8F769FAFFF787FA1748C7
:10D600000068FBF7E3FC1449D039081FF9F764F808
:10D610004FF47A7001F0B4FD0F49D039081FF9F7C3
:10D620005BF8FBF7E1F90C49D43981F8DA0012E034
:10D6300009480838FBF752FC4FF4FA7001F0A0FDDE
:10D640000548D43890F8B00010F0800F01D001F0F8
:10D6500051F800F05FFEEBE7309E0020D80000207C
:10D660002948F8F733FAFFF751FA28480068FBF722
:10D67000ADFC2549D039081FF9F72EF84FF47A7020
:10D6800001F07EFD2049D039081FF9F725F8FBF796
:10D69000ABF91D49D43981F8DA0034E01A4808386A
:10D6A000FBF71CFC4FF4FA7001F06AFD184A111FD9
:10D6B0000120FEF729F9144A0C32111F0220FEF74F
:10D6C00023F9134A121F11680F4AD43AD2F8BC004A
:10D6D000F7F75CFD0C49D43908600D4A121F5168F8
:10D6E000094AD43AD2F8C000F7F750FD0649D439B8
:10D6F0004860084690F8B00010F0800F01D000F0AC
:10D70000F9FF00F007FEC9E7309E0020D800002096
:10D71000C400002013491422C8680021F8F779FBDF
:10D720001FE0022001F02CFD0023642219460E4860
:10D7300002F008FCC4B2A4B10A49C8682146FCF74B
:10D740008BF90849C968C879F7F77FFF064607498A
:10D75000F7F7AAFD05464FF08041F7F717FD04499A
:10D760008860DEE7E0000020004C00400000C84276
:10D770005C9D00208046B8F1000F02D008F0FF0544
:10D7800000E00A25E800FBF7DBFE814605EB4501DA
:10D790008800FBF7D5FE8246002608E006EB46002F
:10D7A0000AEB800009EBC6014860701CC6B2AE42AD
:10D7B000F4DB2946484601F0B3FC154800781549CA
:10D7C000087024E00A2001F0DBFC01F0B7FD0746F9
:10D7D000EFB17C682079062818D2DFE800F0170343
:10D7E000060A0E122068804710E0207A21688847D8
:10D7F0000CE02168A068884708E02168A068884795
:10D8000004E0228990B22168884700BF00BFD9E7B1
:10D81000440000206800002070B50546F8F790FA33
:10D82000002822D1052111A0F9F74AF8FEF796F851
:10D83000044624B10522214610A0F9F741F805213C
:10D8400012A0F9F73DF8FEF7B9F8044624B1052215
:10D85000214611A0F9F734F8FEF700F9044624B187
:10D860000522214611A0F9F72BF870BDCBC6BAF5F9
:10D87000CAC7B8F6D0C2C9E8B1B80000C1ACBDD3C0
:10D88000B7FECEF1C6F75B25645D0000C9E8B1B80C
:10D89000D7A2B2E100000000BDF8C8EBD7A2B2E108
:10D8A000B4EDCEF35B25645D00000000CEB4B3C9D7
:10D8B000B9A6B3F5CABCBBAFC9E8B1B85B25645D16
:10D8C0000000000010B50446024801F059FCFBF7C7
:10D8D000F3FC10BD005C26050024FF2518E0FDF7D1
:10D8E000F7FF04464FF4967001F04AFCFDF7F0FF95
:10D8F000A04209D1AC4207D02546204601F090F95C
:10D90000052104A0F8F7DCFF4FF4967001F038FC15
:10D91000E5E70000C3C5B6AFD7F7000010B5F9F7CB
:10D920009BF8002106A0F8F7CBFF0949002002F080
:10D93000B5FB002107A0F8F7C3FFF9F787F810BD82
:10D94000BFAACABCC7E5BFD5BCC7C2BC0D0A000090
:10D95000E8FF1700C7E5B3FDCDEAB1CF0D0A00001F
:10D9600086B000243248B0F8B00010F4806F07D1C0
:10D97000052130A0F8F7A4FF3248007801F030FC10
:10D9800025E004EB4401304A02EBC100182269464D
:10D9900002F0B4FB0098401C00D119E0641C4FF663
:10D9A000F070844210D90522214628A0F8F788FF9C
:10D9B000052129A0F8F784FF05211EA0F8F780FFB4
:10D9C0002048007801F00CFC012001F0D9FBD8E7D9
:10D9D00000BF41F2883001F0D3FB052221461BA095
:10D9E000F8F76EFF23E0072201A91148CC30F8F7C1
:10D9F000FFF90C2203A90E48F8F7FAF904EB4400EA
:10DA0000114901EBC0001830009004EB44000A46B5
:10DA100002EBC00118226846FEF710FC641C0522C8
:10DA2000214611A0F8F74CFF144801F0A9FBDAE7F2
:10DA30005C9D0020B9D8B1D5C0FACAB7BCC7C2BC7A
:10DA400000000000440000204C9D0C00BCC7C2BC7C
:10DA5000CBF7D2FD25640000C0FACAB7BCC7C2BC70
:10DA6000D2E7B3F600000000B4CBBFCCCAFDBEDDE8
:10DA7000B1BBBCC7C2BC256400000000E093040039
:10DA8000FEB506460C46154600968DF804400295F4
:10DA90006B460C2200210248007801F0BBFCFEBD61
:10DAA0006800002010B5F8F74BF910BD96B00027BC
:10DAB00000260AE006EB860001A901EB800010A910
:10DAC00001EBC6014860701CC6B2032EF2DB0321D5
:10DAD00010A801F025FB00BF00BF6320674981F853
:10DAE000D600FCF74FFA044684B10522214664A013
:10DAF000F8F7E6FE614890F8C80030B100F04CFE3F
:10DB00005E4991F8C800FFF729FCE5E70020FFF720
:10DB100083FE0120FCF70AFC044624B105222146BD
:10DB20005CA0F8F7CDFEFBF7D9FEFEF75BF9534991
:10DB300091F8B5005B4A4FF6FF7101F00FF95A4AB0
:10DB40004FF6FF711C2001F009F9584A4FF6FF719A
:10DB50001C2001F003F901F021F840F6B83001F083
:10DB60000FFB89E0642001F01FFC0546002DF8D072
:10DB7000287820B1022845D0032870D167E005211C
:10DB80004BA0F8F79DFE4FF47A7001F0F9FAD5F842
:10DB9000048000210720FBF761F900210846FBF70C
:10DBA0005DF9FCF75BF80446FCF732F84046FCF7F9
:10DBB000D9FF04468CB14046FCF7D4FF044614B1AB
:10DBC000781CC7B204E005213DA0F8F779FE0027D4
:10DBD00000210846FBF742F913E000210846FBF755
:10DBE0003DF90027052136A0F8F76AFE234890F892
:10DBF000C80020B1214991F8C800FFF7AFFBFAF740
:10DC0000FFF92CE000F024FE044654B10A2094FBF6
:10DC1000F0F100FB11490523032249462BA0F8F738
:10DC20004FFE1648B0F8B00010F4805F0ED000F040
:10DC300045FC044654B10A2094FBF0F100FB114965
:10DC400005230322494621A0F8F73AFE07E0FCF736
:10DC5000D3F80A4981F8D600FDF75EFC00BF00BF8B
:10DC60003C2F09DD01210020FBF7F8F842F210708B
:10DC700001F086FAFBF720FB74E700005C9D0020B2
:10DC8000D7A2B2E1CDF8C2E7CAA7B0DC5B25645DDC
:10DC900020000000B3F5CABCBBAFB6CCD0C55B2535
:10DCA000645D00009DEB0008E1EB000801EC00085A
:10DCB000D7BCB1B8B7A2CBCDCAFDBEDD0000000015
:10DCC000B7A2CBCDCAFDBEDD4F4B0000B6CCD0C550
:10DCD000B7A2B8F85B25645D2F5B25645DC8CB00F7
:10DCE00096B0002700260AE006EB860001A901EBAA
:10DCF000800010A901EBC6014860701CC6B2032E5B
:10DD0000F2DB032110A801F00BFA00BF00BF632073
:10DD1000674981F8D600FCF735F9044684B105223D
:10DD2000214664A0F8F7CCFD614890F8C80030B1F6
:10DD300000F032FD5E4991F8C800FFF70FFBE5E700
:10DD40000020FFF769FD0120FCF7F0FA044624B13A
:10DD5000052221465CA0F8F7B3FDFBF7BFFDFEF7F7
:10DD600041F8534991F8B5005B4A4FF6FF7100F056
:10DD7000F5FF5A4A4FF6FF711C2000F0EFFF584A9A
:10DD80004FF6FF711C2000F0E9FF00F007FF40F69E
:10DD9000B83001F0F5F989E0642001F005FB054693
:10DDA000002DF8D0287820B1022845D0032870D162
:10DDB00067E005214BA0F8F783FD4FF47A7001F07E
:10DDC000DFF9D5F8048000210720FBF747F8002190
:10DDD0000846FBF743F8FBF741FF0446FBF718FF43
:10DDE0004046FCF701FC04468CB14046FCF7FCFBC6
:10DDF000044614B1781CC7B204E005213DA0F8F731
:10DE00005FFD002700210846FBF728F813E00021FA
:10DE10000846FBF723F80027052136A0F8F750FD48
:10DE2000234890F8C80020B1214991F8C800FFF7B5
:10DE300095FAFAF7E5F82CE000F00AFD044654B133
:10DE40000A2094FBF0F100FB114905230322494607
:10DE50002BA0F8F735FD1648B0F8B00010F4805F3D
:10DE60000ED000F02BFB044654B10A2094FBF0F1D5
:10DE700000FB114905230322494621A0F8F720FDA4
:10DE800007E0FBF7B9FF0A4981F8D600FDF744FB2C
:10DE900000BF00BF3C2F09DD01210020FAF7DEFFA3
:10DEA00042F2107001F06CF9FBF706FA74E700001B
:10DEB0005C9D0020D7A2B2E1CDF8C2E7CAA7B0DCD2
:10DEC0005B25645D20000000B3F5CABCBBAFB6CCD7
:10DED000D0C55B25645D00009DEB0008E1EB000808
:10DEE00001EC0008D7BCB1B8B7A2CBCDCAFDBEDDEE
:10DEF00000000000B7A2CBCDCAFDBEDD4F4B000035
:10DF0000B6CCD0C5B7A2B8F85B25645D2F5B25649D
:10DF10005DC8CB0088B0002700260AE006EB86002B
:10DF200001A901EB800006A901EBC6014860701C45
:10DF3000C6B2012EF2DB012106A801F0F1F800BF04
:10DF40004FF000086320654981F8D600FCF71AF805
:10DF50000446C4B10522214661A0F8F7B1FC0020B7
:10DF6000F9F74AFF5D4890F8C80030B100F014FCA2
:10DF70005A4991F8C800FFF7F1F903E04FF47A70BD
:10DF800001F0FEF8FAE70020FFF746FC0120FCF75D
:10DF9000CDF9044624B10522214656A0F8F790FC9D
:10DFA000FBF75CFE044624B10522214655A0F8F794
:10DFB00087FCFBF793FCFDF715FFFBF729FE4749AC
:10DFC00091F8B500534A4FF6FF7100F0C7FE524A70
:10DFD0004FF6FF711C2000F0C1FE504A4FF6FF7152
:10DFE0003C2000F0BBFE4E4A4FF6FF71052000F0CA
:10DFF000B5FE00F0D3FD70E0642001F0D5F90546D0
:10E00000002D54D0287830B1012823D0022835D0F3
:10E0100003284BD142E0D5F804904846FCF7EEFEC9
:10E0200004463CB1052221463EA0F8F749FC781C85
:10E03000C7B20EE0052140A0F8F742FC0027B84621
:10E04000264890F8C80020B1244991F8C800FFF78D
:10E0500085F92BE0FDF758F904463CB1052221462D
:10E0600038A0F8F72DFC781CC7B206E005213AA0CD
:10E07000F8F726FC4FF00008002717E000F0E8FB57
:10E08000044654B10A2094FBF0F100FB114A052329
:10E090000322514633A0F8F713FC07E0FBF7ACFE70
:10E0A0000E4981F8D600FDF737FA00BF00BF6420A3
:10E0B00001F066F8002F0CDD4FF4FA6001F060F813
:10E0C000FBF7CCFD0027FBF7A3FD08F1010000F0F2
:10E0D000FF08B8F1030F00DD32E78DE75C9D0020FB
:10E0E000D7A2B2E1CDF8C2E7CAA7B0DC5B25645D78
:10E0F00020000000B3F5CABCBBAFB6CCD0C55B25D1
:10E10000645D0000C1ACBDD3B7FECEF1C6F75B25A0
:10E11000645D00009DEB0008C1EB0008E1EB000826
:10E1200001EC0008B7A2CBCDCAFDBEDDCAA7B0DCAA
:10E130005B25645D00000000B7A2CBCDCAFDBEDD4B
:10E140004F4B0000B7A2CBCDD0C4CCF8CAA7B0DCEF
:10E150005B25645D00000000B7A2CBCDD0C4CCF835
:10E160004F4B0000B6CCD0C5B7A2B8F85B25645DB4
:10E170002F5B25645DC8CB008CB04FF000080026F3
:10E1800007E00DEB060002A901EBC6014860701C18
:10E19000C6B2052EF5DB052102A800F0C1FF00BFC5
:10E1A0004FF000096320464981F8D600FBF7D2FF03
:10E1B00004464CB10522214642A0F8F781FB42F209
:10E1C000107000F0DDFFEBE70020FFF725FBFDF707
:10E1D00009FE00210720FAF741FE00210846FAF760
:10E1E0003DFEFBF73BFD0446FBF712FD66E0012018
:10E1F00001F0DAF80546002D38D02878002834D10F
:10E200006F683978052234A0F8F75AFB00210846D8
:10E21000FAF724FE24B10522214632A0F8F750FB7C
:10E220003878FCF741FF0446BCB101210020FAF721
:10E2300015FEFBF713FD0446FBF7EAFC3878FCF704
:10E2400033FF044624B1052221462AA0F8F738FB03
:10E2500008F1010000F0FF0806E005212AA0F8F708
:10E260002FFB4FF00008C14600BF0AE0FAF756F84E
:10E27000F9F7C6FE01210720FAF7F0FDFF20FFF7AE
:10E280006DF84FF47A7000F07BFFB8F1000F0DDDF0
:10E290004FF4FA6000F074FFFBF7E0FC4FF0000869
:10E2A000FBF7B6FC09F1010000F0FF09B9F1030F1B
:10E2B00004DD42F6F82000F063FF71E797E7000005
:10E2C0005C9D0020D7A2B2E1CDF8C2E7CAA7B0DCBE
:10E2D0005B25645D20000000446174615B25645D22
:10E2E00000000000C1ACBDD3B7FECEF1C6F75B2580
:10E2F000645D0000B7A2CBCDCAFDBEDDCAA7B0DC0D
:10E300005B25645D00000000B7A2CBCDCAFDBEDD79
:10E310004F4B00002DE9F0476048B0F8D4100A23B5
:10E320005F4A6048F9F785FB82465046F7F792F955
:10E33000804600225C4BF7F79EF8064600225B4BB6
:10E34000F7F70BF90446F7F719FA5449886058486B
:10E350000078401C5649087008460078142830DDC3
:10E3600008460078401E08704C4AD2F8F010106839
:10E37000F7F72AFA04D2494800684849C1F8F00082
:10E38000464AD2F8F8105068F7F71EFA03D243480D
:10E390004168C0F8F810414AD2F8F4101068F7F755
:10E3A00009FA03D23D480168C0F8F4103B4AD2F89C
:10E3B000FC105068F7F7FEF903D238484168C0F8FE
:10E3C000FC103648008A10F4807F25D0334A9169CA
:10E3D0001068F7F7F9F906D83048006940F00100F5
:10E3E0002E49086105E02D48006920F001002B4905
:10E3F00008612A4AD1691068F7F7DCF906D827487E
:10E40000006940F002002549086105E023480069E1
:10E4100020F00200214908612048008A10F4007FA2
:10E4200025D01E4A116A5068F7F7CEF906D81B4866
:10E43000006940F004001949086105E017480069C7
:10E4400020F0040015490861144A516A5068F7F732
:10E45000B1F906D81148006940F008000F49086179
:10E4600005E00E48006920F008000C4908610B49DE
:10E470008868F7F748F904464FF066320D4BF7F716
:10E4800055F905D20C480078401C0B49087002E091
:10E49000002009490870BDE8F08700005C9D00205D
:10E4A000AB000020AC000020000004400000A040B1
:10E4B000AA00002066660A40A900002010B5B2B08C
:10E4C0002148007800283CD02048008A00F40061F0
:10E4D00005221FA0F8F7F4F91C48008A10F4006F19
:10E4E0002FD1694619487530FEF74EFCC4B20DEBCA
:10E4F00004001AA21CA1FAF7E9F82044C4B220468D
:10E5000004EBD0714910A4EB4101012906D10DEBB8
:10E51000040016A1FAF7DAF82044C4B200200DF87E
:10E52000040005236A46214611A0F8F7C9F9684698
:10E53000FCF78AFF0446002003490870204632B0E9
:10E5400010BD0020FBE70000A10000205C9D002022
:10E55000B5F4B5E75B25645D00000000B5F4B5E7F0
:10E56000B1A8BEAF0000000025730000200000002D
:10E57000B6CCD0C5C4DAC8DD5B25645D3A2573002E
:10E580002DE9F0478EB004464FF00009F8F764FA21
:10E59000404890F8CC0020B900213FA0F8F790F94E
:10E5A00073E03C4890F8B00010F0400F04D0002118
:10E5B0003DA0F8F785F903E000213FA0F8F780F9C6
:10E5C00060782178C1EB011100EB410A18E009EBFA
:10E5D00049013D4A02EBC100182208A901F08EFD55
:10E5E00008A881794079C0EB001001EB400050454C
:10E5F00000D306E00898401C00D102E009F10109AF
:10E60000E5E700BFE078A178C1EB011100EB410A1A
:10E6100038E009EB49012C4A02EBC100182208A995
:10E6200001F06CFD08A881794079C0EB001001EB86
:10E630004000504500D926E00898401C00D122E057
:10E6400009F101090C98F7F75EF805460E460B989C
:10E65000F7F759F807460020CDE90271CDE90456D5
:10E66000069008A8407A08A9097ACDE9001008A800
:10E67000837942799DF8241014A0F8F721F90A2033
:10E6800000F07EFDC5E700BF00BFF8F7DFF90EB070
:10E69000BDE8F0875C9D0020CFB5CDB3CAB1BCE426
:10E6A000CEB4BECDD0F70000C8D5C6DA2CCEC2B6E7
:10E6B000C82CCAAAB6C80000C8D5C6DA2CCEC2B6C5
:10E6C000C82CCEC2B6C800004C9D0C00323025309C
:10E6D00032642D253032642D2530326420253032CD
:10E6E000643A253032642C252E32662C252E326673
:10E6F0000000000010B52348007C10F0030F04D187
:10E700002048007C10F00C0F01D0022402E01D48CC
:10E7100090F8B6401C480078642804DA1A4800785B
:10E72000401C19490870184800780A2800DA10BD02
:10E73000144890F8C80040B11448007808B100F0BF
:10E740002BF8002011490870F1E70E4890F8D1002D
:10E750000F490978884212D00E480078401C0D49B4
:10E760000870084890F8D1000949087009480078F5
:10E77000A04204DB00200749087000F00DF800BF3C
:10E78000D5E700005C9D0020A4000020A50000202B
:10E79000A3000020A200002000B587B01D4890F81B
:10E7A000DA00FF2834DA1B4890F8B00010F0800F30
:10E7B0002ED0072202A91748CC30F7F719FB0C22FC
:10E7C00004A91448F7F714FB124890F8DA0000EB9C
:10E7D0004000002101EBC000183001900D4890F876
:10E7E000DA0000EB4000002202EBC001182201A871
:10E7F000FDF724FD074890F8DA10052206A0F8F787
:10E800005FF8044890F8DA00401C024981F8DA0009
:10E8100007B000BD5C9D0020B4CBBFCCBCC7C2BC60
:10E82000B1BBB4E6B4A25B25645D000010B5B820AE
:10E8300006498882002105481430FDF7B1FE012108
:10E8400002481430FDF7ACFE10BD00005C9D0020B6
:10E850002DE9F047B8B00024A1469248007C10F0A2
:10E86000400F07D0052190A0F8F72AF8002038B013
:10E87000BDE8F0878B48007C00F00F0A89494868A2
:10E88000F6F741FF05460E4686490868F6F73BFF56
:10E8900007460520CDE90071CDE90256049086486F
:10E8A0000278514685A0F8F70BF8BAF1000F77DD32
:10E8B00081480078401C804908707A4890F8B80078
:10E8C000097888426DDA7748B0F8B00010F4007F1C
:10E8D00033D0052183A0F7F7F3FF2146621CD4B2A1
:10E8E00001EB410202EBC1026E49303150180B229C
:10E8F00006A9F7F77DFA00208DF8230006AA7CA16F
:10E900007E4801F0A4FB052206A979A0F7F7D8FFFD
:10E910004FF4FA60F9F79EFC44F6206000F030FCFA
:10E9200077A1764801F093FB4FF4FA60F9F792FC77
:10E93000052175A0F7F7C4FFA7E006A9594875306F
:10E94000FEF722FA00F0FF0956494868F6F7DBFEA9
:10E9500005460E4653490868F6F7D5FE07460B46AE
:10E9600006A901EB09003A4669A1CDE90056F9F77D
:10E97000ADFEC4B24B48007C10F0010F18D04949DD
:10E980008869F6F7C0FE05460E4646490868F6F760
:10E99000BAFE07460B4606A901EB09003A4601E01C
:10E9A0007BE07DE060A1CDE90056F9F78FFEC4B2AF
:10E9B0003C48007C10F0020F15D03A49C869F6F7C0
:10E9C000A2FE05460E4637490868F6F79CFE074644
:10E9D0000B4606A901EB09003A4659A1CDE90056BC
:10E9E000F9F774FEC4B22F48007C10F0040F15D064
:10E9F0002C49086AF6F787FE05460E4629494868FD
:10EA0000F6F781FE07460B4606A901EB09003A46D8
:10EA100051A1CDE90056F9F759FEC4B22148007C56
:10EA200010F0080F15D01F49486AF6F76CFE05462E
:10EA30000E461C494868F6F766FE07460B4606A9CF
:10EA400001EB09003A464AA1CDE90056F9F73EFE2E
:10EA5000C4B204EB0900C4B2204604EBD0714910E3
:10EA6000A4EB4101012906D106A9081946A1F9F72D
:10EA70002DFE2044C4B2052306AA214643A0F7F781
:10EA80001FFF06A8FCF7E0FC044641F2883000F0C6
:10EA900077FB00200849087002E000200649087052
:10EAA0002046E4E65C9D0020CCF8B9FDB1A8BEAFDD
:10EAB000BCECB2E900000000A000002054686973BB
:10EAC0004269743D25642C436F756E743D25642C3A
:10EAD0004348313D252E32662C4348323A252E32AA
:10EAE00066000000B2A6B4F2B5E7BBB000000000BB
:10EAF00041544425733B0D0A0000000000440040CF
:10EB00004154480D0A000000B9D2BBFA00000000D1
:10EB1000BBD6B8B44348313D252E32662C4348322B
:10EB20003A252E3266000000B4A5B7A24348313D15
:10EB3000252E32662C4D41583A252E3266000000B3
:10EB4000B4A5B7A24348313D252E32662C4D696EDF
:10EB50003A252E3266000000B4A5B7A24348323DE4
:10EB6000252E32662C4D41583A252E326600000083
:10EB7000B4A5B7A24348323D252E32662C4D696EAE
:10EB80003A252E326600000020000000B6CCD0C529
:10EB9000C4DAC8DD5B25645D3A25730010B586B024
:10EBA00005A000F045F9C4B201AB142200212046B3
:10EBB00000F030FC06B010BD47505253000000007A
:10EBC00010B505A000F034F9C4B200231A460121A3
:10EBD000204600F01FFC10BD4750525300000000BB
:10EBE00010B505A000F024F9C4B200231A46022192
:10EBF000204600F00FFC10BD4750525300000000AB
:10EC000010B505A000F014F9C4B200231A46032180
:10EC1000204600F0FFFB10BD47505253000000009B
:10EC200031B505A000F004F9C4B26B460122002101
:10EC3000204600F0EFFB38BD475052530000000063
:10EC40000146002905DB092903DC01F13000C0B2CF
:10EC500070470A2905DB232903DC01F13700C0B224
:10EC6000F6E701F13D00C0B2F2E70000F0B5024660
:10EC70000C46FF21FF2500260BE012F8017B87EAF6
:10EC80000503084FFF5C87EA0105074FF95C771C15
:10EC9000BEB2A642F1DB08464FF6FF7707EA002036
:10ECA0002843F0BDF40A0108F40B010830B5024610
:10ECB0000B46002010E012F8014B6040002109E0F3
:10ECC00010F0010F03D08C2484EA600000E04010B3
:10ECD0004C1CE1B20829F3DB1C00A3F10105ABB227
:10ECE000E9D130BD10B50246002002E012F8013B28
:10ECF00058400B00A1F10104A1B2F7D110BD0000F2
:10ED000010B510480078132804D00F480078401C34
:10ED10000D4908700D480078401C0C4908700846E1
:10ED2000007864280DDD002008701423084A064886
:10ED300001780848F8F77DFE07490870002002496D
:10ED4000087010BD44000020300000202800002082
:10ED5000290000202C0000203C0000202DE9F0417B
:10ED600005460E46174618480068A0B91020FAF765
:10ED7000E7FB15490860084604684FF47A70A080E4
:10ED8000002020814FF6FF70E0801048E0600120F5
:10ED9000A072002020600C48046800E0246820680D
:10EDA0000028FBD11020FAF7CBFB20602468A58057
:10EDB00000202081E680E7600120A0720020206012
:10EDC0002046BDE8F08100005C000020D1ED000885
:10EDD0001649086800B9704722E00068817AC28845
:10EDE000002A01DD012200E00022114218D0817AC0
:10EDF00011F0020F14D10189491C01810189828817
:10EE000091420DDB817A41F0020181720021018182
:10EE1000C188A1F57F42FF3A02D0C188491EC18056
:10EE200001680029D9D100BFD5E700005C000020AF
:10EE300070B50546002413E004EB4400094A12684B
:10EE400002EB0010C16A2846F7F7B4F808B1204673
:10EE500070BD601C80B20446142801DBFF20F7E778
:10EE6000EAE700004800002010B54FF47070FAF790
:10EE700067FB1E49086002201D4948700020486059
:10EE8000002428E0012004EB4401184A126802EB38
:10EE900001110881002004EB4401144A126802EBBE
:10EEA00001118861002104EB4400104A126802EB52
:10EEB00000100160002004EB44010C4A126802EBD0
:10EEC0000111C86104EB4401084A126802EB011108
:10EED0000884601CC4B2142CD4DB132005490870CC
:10EEE0000020054908600549086010BD4800002061
:10EEF0003C000020440000204C0000205C0000206A
:10EF000070B50446FFF7B0FF04E094E80F0000F08E
:10EF1000D5F8103420680028F7D100F02BF870BD28
:10EF2000F8F78EF8FAF752F906E0FAF769F9642073
:10EF300000F026F900F002F8F7E7000010B50C48E1
:10EF4000046804B910BD0EE02468A07A10F0010F27
:10EF500009D0A07A10F0020F05D0E0688047A07AAF
:10EF600020F00200A07220680028EDD100BFE9E780
:10EF70005C00002008B5FDF757FF4FF4FA6005A3C9
:10EF8000002207490090132000F030F8132000F011
:10EF90005FFB08BD5461736B526F6F74000000001B
:10EFA00021EF000810B5FFF7ABFE00F075FA084836
:10EFB0004078402805D1032106A0F7F781FCFAF735
:10EFC0007BF90948006808B100F03CFC10BD000066
:10EFD0003C000020544F532054696D654F757420D8
:10EFE00052657365740000005C0000202DE9F04755
:10EFF00004460D4691461F46DDF820800DB9BDE858
:10F00000F08704EB44002C49096801EB00100089EB
:10F01000012800D0F3E704EB44002749096801EB1D
:10F020000010008C98B91FFA88F0FAF789FA0646A2
:10F0300004EB4401204A126802EB0111A1F8208080
:10F0400004EB44011C4A126802EB0111CE6104EB8F
:10F050004402194B1B6803EB0212118C04EB4402AF
:10F06000154B1B6803EB0212D06900F0B7FB824618
:10F07000022104EB4400104A126802EB00100181E7
:10F0800004EB44000C49096801EB0010456004EBF7
:10F0900044000949096801EB0010C7624A46294645
:10F0A000504600F09DFA04EB4401034A126802EB5B
:10F0B0000111086000BFA2E7480000202DE9F843D5
:10F0C00005460E461746984600241AE004EB440015
:10F0D0001249096801EB0010008900B912E004EB45
:10F0E00044000E49096801EB00100089012800D195
:10F0F00008E0601C80B20446142802DB0020BDE852
:10F10000F883E3E700BFE0B23B4632462946CDF83C
:10F110000080FFF76BFF0120F1E7000048000020AE
:10F1200010B5154A127802EB4202144B1B6803EB30
:10F1300002129062104A127802EB42020F4B1B68D7
:10F1400003EB021282F8231000220B4B1B7803EB17
:10F1500043030A4C246804EB031383F824200023A0
:10F16000054A127802EB4202044C246804EB0212B6
:10F1700082F8253010BD0000440000204800002027
:10F1800010B504461348407801281FD000201249CA
:10F19000097801EB4101114A126802EB0111886103
:10F1A0000D48007800EB40000C49096801EB0010A5
:10F1B000446110210848007800EB4000074A1268BB
:10F1C00002EB0010018100F0B9FA02E02046F6F7E8
:10F1D000D5FD10BD3C000020440000204800002068
:10F1E00010B50446142C01DB002010BD04EB4400D4
:10F1F0001E49096801EB00100089012801D1002097
:10F20000F3E7002004EB4401184A126802EB0111F5
:10F21000C862002104EB4400144A126802EB00109B
:10F220008161002004EB4401104A126802EB0111D5
:10F230004861012004EB44010C4A126802EB011101
:10F24000088104EB4401094A126802EB0111C86904
:10F25000FAF74AF9002104EB4400044A126802EB71
:10F260000010018400F06AFA0120BEE74800002087
:10F2700001460D48006800EB4110007A08B90020F3
:10F2800070470948006800EB41104079074A12783E
:10F29000904201D00020F3E70120034A126802EBFC
:10F2A0004112107200BFEBE7540000204400002020
:10F2B00070B504460D4600BF1E48006800EB4410C0
:10F2C000007A30B1012815D0022804D003282FD1AC
:10F2D0001FE0002070BD1748006800EB4410407923
:10F2E00015490978884201D10120F3E7204600F052
:10F2F000D3FAE1E702200F49096801EB44110872D3
:10F300000D4800780B49096801EB44114871012050
:10F31000E0E702200749096801EB4411087206483A
:10F3200000780449096801EB441148710120D1E7D4
:10F330000020CFE7540000204400002070B518489A
:10F34000007800EB40001749096801EB0014A06A3F
:10F3500008B9002070BD94F8250018B9104800784D
:10F3600000F088F994F8250008B90020F2E704F1CC
:10F370002304D4F80500617800EBC105607800F142
:10F380000100217890FBF1F201FB12006070A0787F
:10F39000A0F10100A070A4F123042846DAE70000E0
:10F3A000440000204800002070B506461748007849
:10F3B00000EB40001649096801EB0014A06A08B987
:10F3C000002070BD94F8250010B93046FFF7D8FE34
:10F3D00094F8250008B90020F3E704F12304D4F8D9
:10F3E0000500617800EBC105607800F1010021782B
:10F3F00090FBF1F201FB12006070A078A0F1010017
:10F40000A070A4F123042846DBE70000440000209C
:10F41000480000202DE9F0470646884691469A4666
:10F42000142E01DBBDE8F08706EB46001949096898
:10F4300001EB0014A06A00B9F4E794F8250094F8F1
:10F440002310884220DA04F123046078A17808446C
:10F45000217890FBF1F201FB1200C7B214F82309E6
:10F46000B84200DCDEE7A06A00EBC70585F8008043
:10F470004A4650466968F6F7BBFC85F8019094F857
:10F480002500401C84F82500304600F065F800BFD8
:10F49000C8E7000048000020002056E000EB4001D3
:10F4A0002B4A126802EB01110989022902D01029A6
:10F4B00047D11DE000EB4001254A126802EB011123
:10F4C0008969491C00EB4002214B1B6803EB0212C7
:10F4D000916100EB40011E4A126802EB011189693B
:10F4E00044F62062914202D940211A4A517029E023
:10F4F000002100EB4002164B1B6803EB02129161E6
:10F5000000EB4001124A126802EB0111496941B94E
:10F51000022100EB40020E4B1B6803EB021211812B
:10F520000EE000EB40010A4A126802EB0111496942
:10F53000491E00EB4002064B1B6803EB02125161AF
:10F5400000E000BF00BF411CC8B21428A6DB704712
:10F55000480000203C000020142800DB704700EB2E
:10F560004001094A126802EB01110989012900D101
:10F57000F4E7102100EB4002034B1B6803EB02127F
:10F58000118100BFEAE700004800002010B50446E2
:10F590000F480078A04200D110BD0D48007800EB64
:10F5A00040000C49096801EB00100B49086008484D
:10F5B0000470007800EB40000649096801EB001078
:10F5C000006806490860F6F741FA00BFE4E700006A
:10F5D00044000020480000203800002034000020B3
:10F5E00030B503461846041F20462160041F2046FC
:10F5F00023600025041F20462560041F2046256047
:10F60000041F20462560041F20462560041F204655
:10F610002560041F20462560041F20462560041F26
:10F6200020462560041F20462560041F20462560D3
:10F63000041F20462560041F20462560041F204625
:10F6400022604FF08075041F2046256030BD000009
:10F6500010B5044604EB44000449096801EB0010AE
:10F66000006803490860F6F70AFA10BD4800002058
:10F670003400002010B50446142C00DB10BD04EB50
:10F6800044000E49096801EB00100089012800D1EF
:10F69000F4E7042004EB4401084A126802EB01116C
:10F6A0000881002104EB4400044A126802EB0010B8
:10F6B000416100F043F800BFE0E70000480000208F
:10F6C00010B50446142C01DB002010BD04EB4400EF
:10F6D0001949096801EB00100089012801D10020B7
:10F6E000F3E704EB44001449096801EB00100089BA
:10F6F000042801D10020E8E704EB44000E49096822
:10F7000001EB00100089082801D10020DDE7082066
:10F7100004EB4401084A126802EB01110881002041
:10F7200004EB4401044A126802EB0111486100F045
:10F7300005F80120C9E700004800002010B50221AB
:10F7400023480068A0F8981300243DE004EB44002F
:10F750001F49096801EB00100089022802D0202807
:10F760002ED107E01B480078A04202D02046FFF7C8
:10F770000DFF10BD04EB44001549096801EB0010B2
:10F7800090F822001449096801EB4010007A012822
:10F7900015D1102004EB44010D4A126802EB01114F
:10F7A0000881032004EB4401094A126802EB0111AD
:10F7B00091F82210084A126802EB4111087200E029
:10F7C00000BF00BF601CC4B2142CBFDB00BFD0E779
:10F7D0004800002044000020540000200246501839
:10F7E00020F00303A3F1300020F007007047000071
:10F7F00010B5142800DB10BD00EB4002104B1B6855
:10F8000003EB02121289042A00D1F4E7002200EB74
:10F8100040030B4C246804EB03139A61102300EBA4
:10F820004002074C246804EB0212138100EB4002F3
:10F83000034B1B6803EB0212516100BFDBE70000C2
:10F840004800002010B51348006800B910BD1148E9
:10F850000068E0B10F480068807A10F0010F16D000
:10F860000C48006800890B4909688988884207DBD1
:10F8700008490968C8688047002006490968088166
:10F88000044800680089401C02490968088100BFDB
:10F89000DCE700005C00002010B504460B4800784F
:10F8A00000EB40000A49096801EB001080F8224093
:10F8B00020200649097801EB4101054A126802EB54
:10F8C00001110881FFF73AFF10BD0000440000203D
:10F8D0004800002010B540F22551114800F013FAFD
:10F8E000C0B10F48001D0088C4B20E48C0880E4940
:10F8F000C988884213DA0B48C188C088401C094A6D
:10F90000D0800A48C06844540949C8780A21FFF7E2
:10F910006FFF04E040F22551014800F0D4F810BD1B
:10F92000004C00401201002008010020E0000020EF
:10F930002300002010B540F22551114800F0E3F9F2
:10F94000B8B10F488088C4B20E4800890E490989B1
:10F95000884213DA0B4801890089401C094A10814A
:10F960000A48006944540A4908790A21FFF740FF10
:10F9700004E040F22551024800F0A5F810BD000057
:10F98000005000401201002008010020E00000208B
:10F990002300002010B540F22551114800F0B3F9C2
:10F9A000C0B10F48001D0088C4B20E4800880E493F
:10F9B0000988884213DA0B4801880088401C094AEC
:10F9C00010800A4800684454094908780A21FFF762
:10F9D0000FFF04E040F22551014800F074F810BD1B
:10F9E000003801401201002008010020E000002042
:10F9F0002300002010B540F22551114800F083F992
:10FA0000C0B10F48001D0088C4B20E4840880E499E
:10FA10004988884213DA0B4841884088401C094ACB
:10FA200050800A4840684454094948780A21FFF741
:10FA3000DFFE04E040F22551014800F044F810BD1B
:10FA4000004400401201002008010020E0000020D6
:10FA50002300002010B540F22551114800F053F961
:10FA6000C0B10F48001D0088C4B20E4880880E49FE
:10FA70008988884213DA0B4881888088401C094AAB
:10FA800090800A4880684454094988780A21FFF721
:10FA9000AFFE04E040F22551014800F014F810BD1B
:10FAA000004800401201002008010020E000002072
:10FAB0002300002001F40072B2F5007F00D100BFE6
:10FAC000CA430280704710B500220023A1F51064DC
:10FAD0006A3C00D100BF0A1201249440A3B2DC4367
:10FAE000048010BD21B1828942F40052828104E079
:10FAF00082894DF6FF731A408281704770B50446C3
:10FB0000204600F04FF9054600F06EF8052C27D28C
:10FB1000DFE804F0030A11181F0025224FF4E13139
:10FB2000104800F029F81BE026224FF4E1310E487E
:10FB300000F022F814E027224FF416510B4800F091
:10FB40001BF80DE034224FF4E131094800F014F8BD
:10FB500006E035224FF4E131064800F00DF800BF11
:10FB600000BF70BD00380140004400400048004024
:10FB7000004C00400050004070B586B006460C4670
:10FB8000154601940020ADF80800ADF80A00ADF864
:10FB90000C00ADF810000C20ADF80E0001A93046A5
:10FBA00000F044F9012240F22551304600F018F9E6
:10FBB00001213046FFF796FF40213046FFF77AFFDC
:10FBC0004FF48060F9F776FE8DF8145002208DF81E
:10FBD000150001208DF816008DF8170005A8F9F71B
:10FBE0002FFE06B070BD000038B504462748844299
:10FBF0000BD10D202315264A51150090104600F018
:10FC000057F801218803FBF7D9FD224884420BD124
:10FC1000042008231E4A01460090104600F048F8D0
:10FC200001214804FBF7BAFD1B4884420FD109208B
:10FC3000E3141A4A11150090104600F039F801211A
:10FC40008804FBF7ABFD01218804FBF7B7FD1448DE
:10FC500084420BD11120E314124A11150090104672
:10FC600000F026F80121C804FBF798FD0E488442F5
:10FC70000BD1312004230D4A91140090094800F063
:10FC800017F801210805FBF789FD38BD0038014050
:10FC9000000801400044004000480040000C0140C2
:10FCA000004C004000100140005000400014014092
:10FCB0002DE9F84307460D4616461C46DDF8208020
:10FCC00001214046FBF77AFDADF8005003208DF886
:10FCD000020018208DF8030069463846F7F79EFFAA
:10FCE000ADF8004004208DF8030069463046F7F770
:10FCF00095FF29463846F8F76AF821463046F8F766
:10FD000066F8BDE8F88370B502460024002300259C
:10FD10000020A1F510666A3E00D100BFC1F3421574
:10FD200001F01F03012606FA03F3012D02D1968983
:10FD3000334006E0022D02D1168A334001E0968A54
:10FD400033400C12012606FA04F41688344013B12D
:10FD50000CB1012000E0002070BD000001460F4AF8
:10FD6000881A914213D006DC0D4808180BD0B0F564
:10FD7000806F10D109E0B0F5806F0AD0B0F56C4FFC
:10FD800009D1002070470120FCE70220FAE7032098
:10FD9000F8E70420F6E70020F4E70000004C0040FC
:10FDA00000BCFFBF014605290ED2DFE801F00305C4
:10FDB00007090B00054870470548FCE70548FAE7C6
:10FDC0000548F8E70548F6E70020F4E70038014069
:10FDD0000044004000480040004C004000500040FB
:10FDE000F0B503460024002600250020A1F5106789
:10FDF0006A3F00D100BF1846C1F3421401F01F064C
:10FE0000012707FA06F5012C01D10C3004E0022C81
:10FE100001D1103000E014301AB107682F43076099
:10FE200002E00768AF430760F0BD00002DE9F0472E
:10FE300086B005460E460024A24600BFA146002714
:10FE4000B08900B100BF2F462C8A4CF6FF700440E9
:10FE5000F08804432C82AC894EF6F3100440B0883D
:10FE600031890843718908430443AC81AC8A4FF659
:10FE7000FF400440B0890443AC8201A8FBF7BEFCFC
:10FE80001F48874202D1DDF810A001E0DDF80CA088
:10FE9000A88910F4004F08D00AEBCA0000EB0A1042
:10FEA00031684900B0FBF1F807E00AEBCA0000EB4B
:10FEB0000A1031688900B0FBF1F86420B8FBF0F05B
:10FEC00004012009642101FB1089A88910F4004F66
:10FED00008D0322000EBC900B0FBF1F000F00700C1
:10FEE000044308E0322000EB09106421B0FBF1F07C
:10FEF00000F00F0004432C8106B0BDE8F08700003D
:10FF0000003801402DE9F05F05460E4614462F46A5
:10FF1000B046A1463846FFF721FF8246084951F80E
:10FF20002A00F9F7F9FA1FFA80FB00235A464146E6
:10FF3000384600F007F8A9F80000BDE8F09F00007F
:10FF4000E00000202DE9F04781460F4615461E4689
:10FF50004846FFF703FF04462249085D0021FFF7EA
:10FF6000A7F98246204951F82400F9F7D5FA8046CE
:10FF7000BAF1000F27D0012240F225514846FFF781
:10FF80002FFF1A4800781A490855454501D31FFA32
:10FF900088F5184820F814500020174921F814005B
:10FFA0001EB13046FFF7ECF803E01149085DFFF79A
:10FFB00087FB0C49085DFFF75BF9002240F22551F1
:10FFC0004846FFF70DFF47B10B4931F814200649A9
:10FFD00051F824003946F5F70BFF074830F81400B4
:10FFE000BDE8F08719000020E00000204400002058
:10FFF0002300002008010020120100202DE9F04319
:020000040801F1
:1000000004460D4616462746A846B6F800904A46CE
:100010004146384600F00BF8BDE8F08300BF028887
:1000200012F0800FFBD0C1F308028280704710B538
:100030000B46002108E000BF048814F0800FFBD0BD
:100040005C5C84804C1CA1B29142F4DB10BD0FB407
:1000500030B5B3B0054638A832906846329A379921
:1000600000F06AF8002032906846F8F7D7FB0446A3
:10007000224669462846FFF7DAFF204633B030BCF7
:100080005DF814FB10B54FF48020F7F7D3F910BDDD
:1000900001460A461068704700BFFEE72DE9F047A9
:1000A00007460D462E0B2805000D00D0761C0024B7
:1000B0001AE04FF4805101FB0470FCF7DDF90A20CF
:1000C000FFF75EF82420B4FBF0F100FB114050B9BB
:1000D0002420B6FBF0F8B4FBF0F900234246494671
:1000E00003A0F6F7EDFB641CB442E2D3BDE8F08751
:1000F000B2C1B3FDD2B325642F25640070B50446A8
:100100000D461646324621462846FCF76FF870BD6C
:1001100070B504460D461646328828462168FCF71D
:1001200065F870BD70B504460D46164632882846FF
:100130002168FCF783F870BD37B514460846064BB6
:100140006A46214600F0C8F804466946002000F0DF
:1001500066FC20463EBD00001F0A010802E008C8F8
:10016000121F08C1002AFAD170477047002001E031
:1001700001C1121F002AFBD1704700002DE9FF5F6B
:10018000DDE90220010DDDF838B0024310D10F98EF
:1001900001244CA2012808D0002100980F9BC0E93F
:1001A0000021C0E90243BDE8FF9F6FEA0B01F4E7BD
:1001B000A1F2FF3144F6105041430D140F9801286D
:1001C0000ED0A5EB0B00401C4FF000043E4EDFF8B4
:1001D000FC90B0F1000AA04605DACAF1000717E06A
:1001E000CBF10000F0E7074612E0F80707D02246FF
:1001F000334640464946F5F73EF980468946224651
:10020000334610461946F5F736F904460E467F1078
:10021000002FEAD1DDE90201BAF1000F42464B4658
:1002200002DAF5F728F901E0F5F797F904460E46EA
:100230000022274BF5F78EFA03D84FF0FF30014626
:1002400007E00022234B20463146F5F76DF8F5F71D
:10025000D2FB102409E0002C0ADB0A220023F5F768
:10026000D3FA019B30321A55641E50EA0102F2D1D2
:10027000641C019AC4F1110314440F9A012A09D095
:100280000122084301D15B450FDD4FF0000205F16B
:1002900001050DE0084303D1A3EB0B056D1E09E03A
:1002A00000204FF0110B0F9088E701DA00226D1E3D
:1002B000002A83D000980F99C0E90231C0E90045B7
:1002C00071E7000030000000000024400000F03F13
:1002D0000000F0430000E03F2DE9FF4F95B09B4642
:1002E00089460646002512E2252878D10024761C8E
:1002F000F94A2746012105943378203B01FA03F09F
:10030000104202D00443761CF6E730782A2811D038
:100310006FF02F033078A0F13002092A16D8059A21
:1003200044F0020402EB820203EB42021044761C0A
:100330000590EFE759F8042B0592002A03DA5042A2
:1003400044F40054059044F00204761C30782E28C2
:1003500016D116F8010F44F004042A280DD06FF0CE
:100360002F023078A0F13003092B09D807EB87035F
:1003700002EB4303C718761CF3E759F8047B761C9D
:1003800030786C280FD006DC4C2817D068280DD0A8
:100390006A2814D104E0742810D07A280FD10DE017
:1003A00044F400140AE044F4801401E044F44014DE
:1003B0007278824202D1761C04F58014761C307863
:1003C00066280BD013DC582877D009DC002875D0BC
:1003D0004528F6D04628F4D047281AD19FE118E0E6
:1003E000632835D0642879D0652812D197E1702828
:1003F00073D008DC6728F1D069286FD06E280DD043
:100400006F2806D1B5E073282CD0752875D07828D0
:1004100074D05A46179990476D1C76E1C4F3025088
:10042000022809D003280DD0D9F8001004280DD0D7
:100430000D6009F1040968E1D9F80010EA17C1E973
:100440000052F6E7D9F800100D80F2E70D70F0E7E2
:1004500019F8041B8DF8001000208DF80100EA4601
:10046000012003E059F804AB4FF0FF3061074FF073
:10047000000102D40DE008F101018846B9420FDA0B
:100480008045F8DB1AF808100029F4D108E008F1DB
:10049000010188468142FADB1AF808100029F6D1DA
:1004A00005985B46A0EB080721463846179A00F0EE
:1004B0009EFA284400EB080507E04DE02BE10DE033
:1004C0001AF8010B5A4617999047B8F10108F7D26C
:1004D0005B4621463846179A14E142E00A22009210
:1004E000C4F302524FF0000A022A08D059F804CB94
:1004F000032A4FEAEC710AD00DE029E02AE009F165
:10050000070121F00702F2E802C1914609E00FFA63
:100510008CFC4FEAEC71042A03D14FFA8CFC4FEAB1
:10052000EC71002907DA0A460021DCF1000C61EBCE
:1005300002012D2202E0220504D52B228DF8042091
:10054000012203E0E20701D02022F7E7904653E0C2
:100550000A2102E010220DE010214FF0000A009164
:100560000BE010224FF0000A44F004040827009228
:1005700003E008224FF0000A0092C4F30252022A5C
:1005800005D059F804CB0021032A08D009E009F16D
:10059000070121F00702F2E802C1914605E01FFAC7
:1005A0008CFC042A01D10CF0FF0C4FF0000822074C
:1005B00022D5702827D0009B83F0100353EA0A034A
:1005C00009D15CEA010206D030228DF804208DF8B2
:1005D000050002229046009B83F0080353EA0A03B9
:1005E0000AD15CEA010201D1620705D530228DF8FB
:1005F00004204FF001087F1E582809D037A003902F
:100600000EA8029013E040228DF804200122E1E7B9
:1006100037A0F4E753466046009AF5F7F5F88446AC
:100620000398825C0298A0F10100029002705CEADB
:100630000100EFD1029806A9A1EB000000F1200A09
:10064000600702D524F4803400E00127574502DD1D
:10065000A7EB0A0000E0002000EB0A0100900598DB
:100660004144A0EB01000590E00306D45B4621461F
:10067000179A059800F0BBF90544002706E001A889
:100680005A46C05D179990476D1C7F1C4745F6DBA5
:10069000E0030CD55B462146179A059800F0A7F9B0
:1006A000054404E030205A46179990476D1C009984
:1006B000481E00900029F5DC08E0029802995A468D
:1006C0000078491C0291179990476D1CBAF10001FE
:1006D000AAF1010AF1DC6BE1092801003031323363
:1006E000343536373839616263646566000000006E
:1006F0003031323334353637383941424344454658
:100700000000000000F060F9054406F101063078B1
:1007100000287FF4E9AD19B02846BDE8F08F6207E4
:1007200000D4062709F1070222F0070CFCE8022397
:10073000E14603F000485FEA080C02D00FF27C2C7F
:100740000DE05FEA045C02D50FF2742C07E05FEA6B
:10075000C47C02D00FF26C2C01E0AFF2700C4FF0B1
:10076000FF3823F00043CDF850C065280CD006DCDC
:10077000452809D046281DD047283ED13EE06628AE
:1007800018D0672839D139E00021112F01DB112061
:1007900000E0781CCDE9000106A90EA8FFF7EEFCE9
:1007A000DDE90F010E9A03910021009207F1010A81
:1007B00004914EE04FF000400097CDE9011006A9EA
:1007C0000EA8FFF7DBFCDDE90F0203920E9B1199E7
:1007D0000022DDF80CA00093049219B907F1010181
:1007E00000EB010AB7EB0A0004D4C0F1FF3007F1B7
:1007F000010A0490AAEB0700019046E0012F00DAFD
:1008000001270021112F01DD112000E03846CDE93C
:10081000000106A90EA8FFF7B1FCDDE90F010E9A51
:100820000391002104910092BA4621070CD4039948
:10083000514500DA8A46BAF1010F05DD009AAAF1A6
:100840000101515C302908D0B84202DA10F1040FDE
:1008500006DA0121CDE9011017E0AAF10101E9E76B
:10086000002805DC049901440491AAEB000102E090
:10087000411C514500DD8A460499A0EB010000F1BE
:10088000010001904FF000400290200704D401982D
:10089000504501DBCDF8048000208DF84F00029810
:1008A0000DF14F07B0F1004F25D02B200E9002988C
:1008B0004FF0020800280CDA404202902D200E90E2
:1008C00007E00A210298F4F789FF3031029007F817
:1008D000011DB8F10001A8F10108F2DC029800281E
:1008E000EFD1791E0E980870307800F0200040F0AB
:1008F000450007F8020D12A8A0EB070000F1070859
:100900001498007800B1012000EB0A01019801EB76
:10091000E07105984144A0EB0100A0F101000590B1
:10092000E00306D45B462146179A059800F05FF86D
:1009300005441498007820B15A461799904705F15C
:100940000105E00323D55B462146179A059800F080
:100950004EF805441BE00498002807DBDDE903019D
:10096000884203DD0098405C179901E01799302018
:100970005A46904704986D1C401C04900198401EF4
:10098000019004D12E205A46179990476D1CBAF158
:100990000001AAF1010ADEDC05E017F8010B5A4656
:1009A000179990476D1CB8F10001A8F10108F4DC1B
:1009B0005B462146179A0598A4E600002D0000002A
:1009C0002B000000200000002DE9F0410446002526
:1009D0001E461746880405D406E039462020B04755
:1009E00005F10105641EF8D52846BDE8F0812DE922
:1009F000F041044600251E469046C80301D5302725
:100A000000E02027880405D506E041463846B04777
:100A100005F10105641EF8D52846BDE8F0810A6895
:100A2000531C0B6010707047801000BF0100A0F1D4
:100A3000010290B2FAD170474FF4A0414FF000602C
:100A4000F8F742FF1F48F8F76DFDF6F727F81E4844
:100A5000F6F78AFA1D48F6F787FA1D48F6F784FA82
:100A60001C48F6F737F91C48F6F7CCF8F6F786FA83
:100A700000211A48F8F7DEFB1848143890F8C9002E
:100A8000052818D2DFE800F003070B0F1300144805
:100A9000FEF736FA0FE01348FEF732FA0BE0124881
:100AA000FEF72EFA07E01148FEF72AFA03E0104895
:100AB000FEF726FA00BF00BF0948FEF721FA00BF83
:100AC000FEE700001C010020003801400044004007
:100AD000004C00401479010838790108709D00200D
:100AE000B0790108307A0108A07A0108207B01085A
:100AF000B07B010800C1814001C0804101C080413C
:100B000000C1814001C0804100C1814000C18140DD
:100B100001C0804101C0804100C1814000C18140CD
:100B200001C0804100C1814001C0804101C08041BD
:100B300000C1814001C0804100C1814000C18140AD
:100B400001C0804100C1814001C0804101C080419D
:100B500000C1814000C1814001C0804101C080418D
:100B600000C1814001C0804100C1814000C181407D
:100B700001C0804101C0804100C1814000C181406D
:100B800001C0804100C1814001C0804101C080415D
:100B900000C1814000C1814001C0804101C080414D
:100BA00000C1814001C0804100C1814000C181403D
:100BB00001C0804100C1814001C0804101C080412D
:100BC00000C1814001C0804100C1814000C181401D
:100BD00001C0804101C0804100C1814000C181400D
:100BE00001C0804100C1814001C0804101C08041FD
:100BF00000C1814000C0C101C30302C2C60607C7CD
:100C000005C5C404CC0C0DCD0FCFCE0E0ACACB0B3C
:100C1000C90908C8D81819D91BDBDA1A1EDEDF1F6C
:100C2000DD1D1CDC14D4D515D71716D6D21213D35C
:100C300011D1D010F03031F133F3F23236F6F7370C
:100C4000F53534F43CFCFD3DFF3F3EFEFA3A3BFBFC
:100C500039F9F83828E8E929EB2B2AEAEE2E2FEFAC
:100C60002DEDEC2CE42425E527E7E62622E2E3231C
:100C7000E12120E0A06061A163A3A26266A6A7674C
:100C8000A56564A46CACAD6DAF6F6EAEAA6A6BABBC
:100C900069A9A86878B8B979BB7B7ABABE7E7FBFEC
:100CA0007DBDBC7CB47475B577B7B67672B2B373DC
:100CB000B17170B05090915193535292965657978C
:100CC000559594549C5C5D9D5F9F9E5E5A9A9B5B7C
:100CD00099595898884849894B8B8A4A4E8E8F4F2C
:100CE0008D4D4C8C4484854587474686824243839C
:100CF000418180400210000000100140E00000002F
:100D0000000000000000000000000000AF066D4F72
:100D1000C6CBEB0EEFCF104000A7ECE8E1E36BE6AB
:100D2000A91AAEFA60D6F46CBCBEE0FEFC01040069
:100D30007ACE8E1E3EB66E9A1AEAAF066D4FC6CBBD
:100D4000EB0EEFCF46616C73650054727565000061
:100D50004E80010845CF00080200000045800108D0
:100D6000A5DA0008020000003C80010821CF00083D
:100D700002000000A97F01088C9D00201A0B0000D2
:100D8000CD7F0108979D00201A0B0000E07F01082D
:100D9000A29D00201A0B0000BC7F0108E59D0020E9
:100DA0001A100000A87E0108069E0020050200001F
:100DB000857F0108AD9D00201A100000977F010873
:100DC000BD9D00201A140000737F0108D19D0020F2
:100DD0001A140000AC7D0108749D0020040000007E
:100DE000787D0108789D002004000000C67D010880
:100DF0007C9D002004000000927D0108809D002061
:100E000004000000437E0108109E00200B0000003B
:100E1000987E0108119E00200B000000587E0108FA
:100E2000149E00200B000000787E0108129E002016
:100E30000B000000687E0108139E00200B000000DC
:100E4000357F01080C9E00201D0500005E7F010813
:100E50000C9E00201D060000E07D0108189E002069
:100E600004000000F67D01081C9E00200400000024
:100E7000447D01085C9D0020040000005E7D0108A7
:100E8000609D0020040000001A7E0108649D00207F
:100E90000400000011800108329E00200B000000B9
:100EA000F37F01086C9D00201D0500004C7F0108A8
:100EB0000C9E00201D080000117F01080C9E0020E0
:100EC0001D090000237F01080C9E00201D0A000060
:100ED000887E0108249E00200B000000307E01085F
:100EE000259E00200B000000FE7E01080C9E0020C5
:100EF0001D0B0000EB7E01080C9E00201D0C000065
:100F000037800108000000000000000002480000D7
:100F100000180140600000000210000000100140B5
:100F20003800000000000000000000000000000089
:100F300002100000000C0140000800000210000038
:100F4000000C014000040000000000000000000050
:100F500000000000004EBBD2014EA1B6034EDFC61A
:100F6000074EF2CD084EC9D5094EFDC80A4ECFC96D
:100F70000B4EC2CF0C4EA2D80D4EBBB20E4EEBD3D1
:100F8000104EA4D8114EF3B3134EA8D7144ED2C7A7
:100F9000154EA7D8164EC0CA184EF0C7194EFBB151
:100FA0001A4EB5D21B4ED4B41C4EABB61D4EBFCBA1
:100FB0001E4EA9D8224EAAB6244EBDC1254ECFD171
:100FC000274EA5C9284EADD82A4EF6B82B4EBED115
:100FD0002C4EDCE32D4ED0D6304EE1B7324EAEB4BF
:100FE000344ED9C1364EBCD8384EE8CD394EA4B5B2
:100FF0003A4EAACE3B4EF7D63D4EF6C03E4ED9BE37
:101000003F4EAFD8434ECBC4454EC3BE474EB1D87A
:10101000484EB4C3494EE5D24B4EAED64C4EDACE16
:101020004D4EA7D54E4EF5BA4F4EA6B7504ED6C030
:10103000524EB9C6534ED2C5544EC7C7564ED4B9F8
:10104000584ECBB3594ED2D25C4EBFD85D4EC5BEC2
:101050005E4EF2C65F4EB2D2604EB0CF614EE7CF69
:10106000664EE9CA694EC0D8704EF2C2714ED2C205
:10107000734EE9C87E4EACC7864ECBC1884EE8D3CE
:10108000894EF9D58B4EC2CA8C4EFEB68D4EA1D874
:101090008E4EDAD38F4EF7BF914EC6D4924EA5BB7B
:1010A000934EC1D8944EE5CE954EAEBE984EA8D87C
:1010B0009A4EC7D19B4EA9D09F4EBDD8A04EEFD916
:1010C000A14EF6CDA24EBABFA44EBBBDA54EA5BA49
:1010D000A64EE0D2A74EFAB2A84EE0BAA94EB6C4C8
:1010E000AB4EEDCFAC4EA9BEAD4EA4CDAE4EC1C100
:1010F000B24ED7C7B34EF1D9B54EF4D9BA4ECBC81C
:10110000BB4EE9D8BF4EDAD2C04EB2CAC14ECAC831
:10111000C24EECD8C34EEAD8C44EC6D8C54EF6BDB2
:10112000C64ECDC6C74EF0B3C94EEBD8CA4EF1BDC0
:10113000CB4EE9BDCD4ED4C8CE4ED3B4D14ED8C2DD
:10114000D34ED6B2D44ED0D7D54ECBCAD64EFBCB8B
:10115000D74ECCD5D84EB6B8D94EC9CFDD4EDAD998
:10116000DE4EF0D8DF4EAAC7E14EEED8E34EFAB419
:10117000E44EEEC1E54ED4D2E84EEDD8EA4EC7D2E9
:10118000EB4EEFD8EC4EC7C3F04EF6D1F24ED9D6A7
:10119000F34EF2D8F54EF5D8F64EFEBCF74EDBBC5A
:1011A000FB4ECEC8FD4EDDB7FF4EC2B7014FF3C6B2
:1011B000094FF8D80A4FC1D20D4FE9CE0E4FBFBC30
:1011C0000F4FFCB7104FA5B7114FDDD0174FDAD630
:1011D000184FC5D3194FEFBB1A4FE1BB1B4FF1D8C6
:1011E0001E4FA1C91F4FB0CE204FABB4224FF3D832
:1011F000244FCBC9254FF6D8264FD7C2274FF7D853
:101200002A4FB1CE2B4FF9D82F4FAEB2304FC0B9C5
:10121000324FA3D9344FE9B0364FE6C1384FECC94D
:101220003A4FC5CB3C4FC6CB3D4FA4D9434FE8B551
:10123000464FABB54D4FBBCE4E4FCDB54F4FA1D75F
:10124000504FF4D7514FD3D3534FE5CC554FCEBA6F
:10125000574FA2D9584FDCD9594FE0D35A4FFDD838
:101260005B4FF0B75C4FF7D75D4FFED85E4FFAD8B3
:101270005F4FA1D9604FE3C4634FB6D3644FF4D836
:10128000654FDDD9674FFBD8694FE5C56C4FD0C0BE
:101290006F4FF0D1704FDBB0734FD1BC744FA6D9F4
:1012A000764FA5D97B4FACD97C4FAED97E4FABD909
:1012B0007F4FB9CA834FA9D9844FB6D6884FDEB3C2
:1012C000894FA8D98B4FFDC08D4FCCCA8F4FAAD95B
:1012D000914FA7D9944FB0D9974FB1B69B4FA9B9A9
:1012E0009D4FC0D2A04FC0CFA34FC2C2A54FC4BD17
:1012F000A64FECD5A74FE0B2A84FC8C7A94FEBBF88
:10130000AA4FADD9AC4FAFD9AE4FEACEAF4FEEBA80
:10131000B54FD6C7BF4FE3B1C34FD9B4C44FEDB635
:10132000C54FB4D9CA4FA1BFCE4FDED9CF4FCEC71C
:10133000D04FFEC0D14FB8D9D74FD7CBD84FFDB77C
:10134000DA4FB5D9DC4FB7D9DD4FA3B1DE4FE1D3CA
:10135000DF4FB9D9E14FC5D0E34FB6D9E64FB1D988
:10136000E84FB2D9E94FA9C1EA4FB3D9ED4FF3BC69
:10137000EE4FDED0EF4FA9B8F14FE3BEF34FBDD92A
:10138000F84FBAD9FA4FB3B0FE4FC2D90C50C4D9F6
:101390000D50B6B10F50BFD91250B9B51450F3BEAD
:1013A0001850C8CC1950F2BA1A50D0D21C50C3D918
:1013B0001F50E8BD2150ABB32550C5D92650EBBE18
:1013C0002850C6D92950BBD92A50DFC42C50BED9C9
:1013D0002D50C1D92E50C0D93A50AED53C50B5D6BB
:1013E0003E50E3C74350C8D94750D9BC4850CAD92A
:1013F0004C50BCD94E50CBD94F50ABC65550C9D923
:101400005A50F6D75C50A3CD6550A1BD6C50CCD9D5
:101410007650BCC57750B5CD7B50CDD97E50C7D95D
:101420007F50A5B38050FEBF8550B5B88850FCC032
:101430008D50F8B0A350F6B4A550CED9A750CFD94F
:10144000A850A2B4A950D0D9AC50DFB4B250C1B0AA
:10145000BA50D1D9BB50B5C9CF50F1CFD650D2D99F
:10146000DA50C5C1E650D6D9E750AEC9EC50D5D94F
:10147000ED50D4D9EE50D7D9F350DBCBF550A9BD00
:10148000FB50A7C60651D3D90751D8D90B51D9D98A
:101490001251E5C82151DCC03F51F9B64051A3D8E3
:1014A0004151CAD44351AAD44451D6D04551E4B392
:1014B0004651D7D54851C8CF4951E2B94B51CBBF5E
:1014C0004D51E2C35151D2B65451C3CD5551EED90D
:1014D0005651F0D95A51B3B55C51B5B66251A4BE5C
:1014E0006551EBC86851ABC86B51CBB06C51ABB90F
:1014F0006D51F9C16E51E2D97051BCC07151B2B990
:101500007351D8B97451CBD07551F8B17651E4C646
:101510007751DFBE7851E4B57951C8D77B51F8D106
:101520007C51E6BC7D51DECA8051BDBC8151E6D9FB
:101530008251E7D88551DAC48851D4B88951BDC8E1
:101540008C51E1B28D51D9D49251B0C39551E1C3C0
:101550009651A2DA9751DFC89951B4D09B51FCBE85
:101560009C51A9C5A051DAB9A251A3DAA451A9D4BA
:10157000A551A4DAAB51FBD9AC51ACB6AF51EBB726
:10158000B051F9B1B151FCD9B251E5B3B351F6BE86
:10159000B551F6BFB651B1D2B751E4C0BB51B3B6E5
:1015A000BC51FED9BD51FDD9C051BBBEC451E0C62E
:1015B000C651BCD7C751A1DAC951B9C1CB51F2B597
:1015C000CC51E8C1CF51F5BCD151D5B4DB51DDC10F
:1015D000DD51FDC4E051B8BCE151B2B7E451EFB701
:1015E000EB51ECD9ED51BEC6EF51ADBFF051CBBBC5
:1015F000F351CAB5F551C9DBF651D7D0F851B9CD81
:10160000F951BCB0FA51F6B3FB51F7BBFC51CADB40
:10161000FD51AFBAFF51E4D40052B6B50152F3B553
:101620000252D6D80352D0C80652D6B70752D0C7F6
:101630000852D7D80A52AFBF0D52BBDB0E52D8D8D2
:101640001152CCD01252AEBB1652BEEB1752D0C1C3
:101650001852F5C11952F2D41A52D5B81B52B4B46B
:101660001D52F5B32052BEC92452D0C52852D9C547
:101670002952FBC02B52F0B12D52D9D82E52CEB9DF
:101680003052BDB53352DAD83652C6D63752A2CB15
:101690003852AFC83952B2C93A52CCB43B52CCBF1F
:1016A0003D52F4B93F52DBD84052DCD84152E7B644
:1016B0004252C1BC4352EACC4A52F7CF4C52DDD819
:1016C0004D52B0C75052D0B95152A3BD5452DECC86
:1016D0005652CAC65C52E0D85E52DED86152DFD89C
:1016E0006552FEB06752E7BE6952A3CA6A52F4BCA3
:1016F0006F52B1B87252EEB87D52E2D87F52CBBD74
:101700008152E4D88252E3D88852FCC59052E5D881
:101710009352E6D89B52A6C19D52B0C89E52ECB0DF
:101720009F52A6B9A052D3BCA152F1CEA252BDDBAA
:10173000A352D3C1A852AFB6A952FAD6AA52ACC589
:10174000AB52D9BDAC52BEDBAD52BFDBB152F8C01B
:10175000B252A2BEB352CDC0BE52C0DBBF52C6CA47
:10176000C352AAB2C752C2D3C952E3C3CB52ABD100
:10177000D052C2DBD252D5C0D652C3DBD852B1BF91
:10178000DF52BCC4E452DAC7F052C4DBF952E8D9E4
:10179000FA52D7C9FE52B4B9FF52F0CE0053C8D4A2
:1017A0000553FCB00653D2B40853D9D00D53E9D930
:1017B0000F53CBDE1053EBD91553B0D81653AFBB34
:1017C0001753B1B11953D7B31A53CED81D53D1D42F
:1017D0002053B3BD2153EFBF2353BBCF2653D0D8E3
:1017E0002A53CBB72E53D1D83953A5C63A53F8C78D
:1017F0003B53BDD23E53D2D83F53E4C44153AECA4B
:101800004353A7C74553A6D84753FDC94853E7CE0E
:101810004953DCBB4A53EBB04E53AABB4F53ADD038
:101820005153B0B15253E4D75353BFD75553A5B515
:101830005653F4C25753CFC45A53A9B25C53B7B2EC
:101840005E53E5B15F53B2DF6053BCD56153A8BFAF
:101850006253ACC26353D5D86453B1C26653D4D873
:101860006753D4CE6953E0DA6B53C0CE6E53B4D80D
:101870006F53AEC37053A1D37153A3CE7353B4BC93
:101880007453B4C87553D1C27753EDBE7853B6D0F4
:101890007A53E1DA7F53E4C78253A7B38453F2B695
:1018A0008553FCCC8653FAC08953F7C08B53B9D10A
:1018B0008C53E1D18D53C7D89553DEB29853E5C010
:1018C0009A53F1BA9D53C8D89F53ADD4A253E1CFD8
:1018D000A353C9D8A553CAD8A653C3CFA853F8B3A6
:1018E000A953C7BEAE53CBD8B653CCDBBB53A5C8A8
:1018F000BF53D8CFC153FEC8C253CEB2C853D6D3FC
:10190000C953E6B2CA53B0BCCB53D1D3CC53ABCB43
:10191000CD53B4B7D153A2B7D453E5CAD653A1C857
:10192000D753DCCAD853E4B1D953F0D0DB53D1C577
:10193000DF53C5DBE053FEB5E353DABFE453C5B96B
:10194000E553E4BEE653EDC1E853B6DFE953B5DF36
:10195000EA53BBD6EB53D0BDEC53D9D5ED53C8B049
:10196000EE53A3B6EF53C9BFF053A8CCF153B3DF86
:10197000F253B7CAF353D2D3F553CFD8F653B6D2F6
:10198000F753C5BAF853BECBF953BECCFB53B7DF00
:10199000FC53F0B5FD53B4DF0154F5D30354D4B375
:1019A0000454F7B80654BADF0854CFBA0954AABC95
:1019B0000A54F5B50C54ACCD0D54FBC30E54F3BA18
:1019C0000F54F4C01054C2CD1154F2CF1254B8DFEA
:1019D0001354C5CF1554C0C21654B9DF1754F0C202
:1019E0001B54FDBE1D54DFC11E54CCCD1F54F7D275
:1019F0002054CDB72154C1DF2354C4DF2654F1B79E
:101A00002754C9B02854D6B62954D4B72B54ACBAED
:101A10002C54FDCC2D54D4BF2E54B1CB2F54F4C62E
:101A20003154A8D63254C5DF3454E2CE3554B3B362
:101A30003854FCCE3954B5B43B54C7CE3C54F0BAFC
:101A40003E54E1CE4054BDD14354C0DF4654F4B4BB
:101A50004854CAB34A54E6B84B54BBDF5054C5C4CB
:101A60005254BCDF5354BDDF5454BEDF5554BBC584
:101A70005654BFDF5754C2DF5854B1D45954C3DF52
:101A80005B54BAC75C54D8CE6254D8C46454CADF1D
:101A90006654CFDF6854DCD67154C9DF7254DADF84
:101AA0007354B6CE7554C7BA7654CEDF7754C8DFB8
:101AB0007854DEC57B54EBC97C54F4BA7D54FCC326
:101AC0008054D7BE8254C6DF8454CDDF8654D8C537
:101AD0008B54A6D58C54CDBA8E54CCBE8F54BDD366
:101AE0009054C0B89254E4D69454C7DF9554BEB90C
:101AF0009654A7BF9954FCC19A54CBDF9B54CCDFBA
:101B00009D54D0DFA354DBDFA454E5DFA654D7DF18
:101B1000A754D6DFA854C9D7A954E3DFAA54E4DFF9
:101B2000AB54EBE5AC54A7D2AD54D2DFAF54A9BF50
:101B3000B154DBD4B354C8BFB454D4DFB854CCCF01
:101B4000BB54DDDFBD54CAD1BF54DEDFC054A7B0E3
:101B5000C154B7C6C254D3DFC454E5BAC654DFB6C5
:101B6000C754DBCDC854FEB9C954D5D4CC54DFDF3B
:101B7000CD54ECCFCE54A5B0CF54E7DFD054D1DF55
:101B8000D154C6D1D254D5DFD354D8DFD454D9DF01
:101B9000D554DCDFD754A9BBD954E0DFDA54E1DFF8
:101BA000DC54E2DFDD54E6DFDE54E8DFDF54B4D39B
:101BB000E554E7B8E654B6C5E754EADFE854DAC9B5
:101BC000E954A8C1EA54C4C4ED54DEBFEE54F8CFC2
:101BD000F254DCD5F354EEDFFA54B8B2FC54DFBA59
:101BE000FD54ECDFFF54C1DB0155E4D10655F4CBC5
:101BF0000755BDB40955A6B00F55F1DF1055C6CC39
:101C00001155F2DF1455EDDF1B55E9DF2055EBDFF1
:101C10002255EFDF2355F0DF2455BDBB2755F3DFF9
:101C20002A55F4DF2C55A3BB2E55DBCA2F55A8CE61
:101C30003055A7E03155AAB33355A6E03755A1E09A
:101C40003C55FEDF3E55D9CD3F55FCDF4155FADF0F
:101C50004355D0BF4455C4D74655CCC94955F8DF84
:101C60004A55A1B05055FDDF5555FBDF5655A2E052
:101C70005C55A8E06155C8B76455A1C66555B6C99D
:101C80006655B2C06755F5DF6A55BEC56C55C4D8F8
:101C90006D55F9DF6E55F6C47555A3E07655A4E091
:101CA0007755A5E07855A5D07B55B4E07C55E4CCBC
:101CB0007E55B1E08055A6BF8155AFE08255B9CEC3
:101CC0008355ABE08455C6C98755AEC08855AEE094
:101CD0008955EDBA8A55B0BA8B55A9E08F55F6DF14
:101CE0009155B3E09455B8E09855ADB49955B9E025
:101CF0009C55B2CF9D55C8BA9F55B0E0A755FAD0B4
:101D0000B155ACE0B355FBD4B555F7DFB755E7C5D2
:101D1000B955ADE0BB55F7D3BD55B6E0BE55B7E0FC
:101D2000C455C4E0C555E1D0C955BCE0CC55C9E0A7
:101D3000CD55CAE0D155BEE0D255AAE0D355A4C9CD
:101D4000D455C1E0D655B2E0DC55C8CADD55C3E074
:101D5000DF55B5E0E155CBCEE355C3CBE455CDE03F
:101D6000E555C6E0E655C2E0E855CBE0EA55BAE0F5
:101D7000EB55BFE0EC55C0E0EF55C5E0F255C7E0CC
:101D8000F355C8E0F555CCE0F755BBE0FD55D4CB95
:101D9000FE55D5E00056D6E00156D2E00856D0E018
:101DA0000956CEBC0C56D1E00E56C2B80F56C5D857
:101DB0001856EAD01B56EFC21E56CFE01F56BDE0A4
:101DC0002356D4E02456D3E02756D7E02C56DCE047
:101DD0002D56D8E03156F6D63256B0B33456ECD73D
:101DE0003656BBCB3956DAE03B56FBCE3F56D9BA16
:101DF0004C56E1E04D56DDE04E56ADD25456E2E091
:101E00005756DBE05856D9E05956DFE05C56E0E023
:101E10006256DEE06456E4E06856F7C66956ACD810
:101E20006A56EBD46B56E6E06C56C9CA7156E5E0CB
:101E30007656C1B87B56E7E07C56E8E08556E9E087
:101E40008656E3E08E56BFBA8F56E7CC9356EAE04B
:101E5000A356F9CFAF56EBE0B756C2C8BC56C0BDCB
:101E6000CA56D2C4D456ECE0D756EDE0DA56F4C7E1
:101E7000DB56C4CBDD56EEE0DE56D8BBDF56B6D817
:101E8000E056F2D2E156EFE0E256C5CDE456DAB6BE
:101E9000EB56F1E0ED56B0D4F056A7C0F156D1B4F0
:101EA000F456A7CEF556F0E0F956F2E0FA56CCB962
:101EB000FD56FAB9FE56BCCDFF56F3E00357D4C623
:101EC0000457F4E00657B2D40857A6C80957F6E0FD
:101ED0000A57F5E01C57F7E01F57C1CD2357A5CA95
:101EE0002857DAD42957D7DB2A57D9DB2C57D8DB28
:101EF0002D57E7B92E57DCDB2F57DDDB3057D8B530
:101F00003357DADB3957DBDB3A57A1B33B57DFDB1B
:101F10003E57F8BB4057B7D64257E0DB4757F9BEAC
:101F20004A57BBB74C57D0DB4D57AECC4E57B2BF1C
:101F30004F57B5BB5057F8D75157D3BF5757E9BF85
:101F40005A57E1BC5B57B3CC5C57DEDB5D57D3B06F
:101F50005E57EBCE5F57D8B76057B9D76157C2C647
:101F60006457A4C06657B9CC6857E7DB6957E1DB13
:101F70006A57BAC66B57E3DB6D57E8DB6F57F7C597
:101F80007357EADB7657E9DB7757C0BF7B57E6DB51
:101F90007C57E5DB8257B9B48357ACC08457A2C2E3
:101FA0008557E2DB8657E4DB8B57CDD08C57EDDBD2
:101FB0009257DDC09357F2DB9B57E2B6A057F3DB95
:101FC000A157D2DBA257B8B9A357ABD4A457ECDBC7
:101FD000A657D1BFA757F0DBA957D1DBAB57E6B562
:101FE000AD57EBDBAE57E5BFB257EEDBB457F1DBD5
:101FF000B857F9DBC257A1B9C357A3B0CB57F1C249
:10200000CE57C7B3CF57EFDBD257F8DBD457D2C682
:10201000D557F4DBD857F5DBD957F7DBDA57F6DBC2
:10202000DD57FEDBDF57F2D3E057BAB2E457FDDBF2
:10203000ED57A4DCEF57FBDBF457FADBF857FCDB7A
:10204000F957E0C5FA57F9BBFD57A3DC0058A5DCEA
:102050000258C3CC0658D1B60758C0DD0B58A1DCD6
:102060000D58A2DC1158B5C71558E9B61958A7DCA8
:102070001E58A6DC2058A9DC2158A4B12458CCB5A0
:102080002A58B0BF3058DFD13558C2B64458A8DC02
:102090004C58FACB4D58F3EB5158DCCB5458FECB8F
:1020A0005858C1CC5E58FBC86558AADC6B58EECCBA
:1020B0006C58ABDC7E58D3DB8058AFDC8158ACDC8D
:1020C0008358B3BE8558FBCA8958ADDC9258CAC93B
:1020D0009358B9C49958BDC79A58AEDC9E58F6D4E7
:1020E0009F58E6D0A858ABC4A958D5B6BC58D4DB85
:1020F000C158DAB1C558D5DBD158D6DBD558BEBAF0
:10210000E458C0C8EB58BFCAEC58C9C8EE58B3D79A
:10211000F058F9C9F358C7BFF658F8BAF958BCD205
:102120000259BAE20459A6B40759B8B10D59B4B866
:102130000F59C4CF1459E7D91559A6CF1659E2CD76
:102140001959EDD91A59E0B61C59B9D21F59BBB962
:102150002459B9E22559B7E22759F3B42959ECCCEF
:102160002A59ABCC2B59F2B72D59B2D82E59EBD1F5
:102170002F59BBBA3159A7CA3459B7CD3759C4D230
:102180003859E4BF3959D0BC3A59E1B63C59C5DE9B
:102190004159C6DE4259BCDB4459D9D14759E6C63C
:1021A0004859CEC44959EEB74B59DCB74E59FCBF1C
:1021B0004F59E0D75159F5C65459BCB15559C8DEED
:1021C0005659B1BD5759D7CC5859CADE5A59C9DEEC
:1021D0006059ECB56259DDC96559C2B07359AEC5D5
:1021E0007459ABC57659CCC47859E9BC7959FDCB43
:1021F0007D59C3BA8159F9E58259E7C88359FAE58F
:102200008459FDCD8659B1D78759BEB88859E8C2DF
:102210008A59D1C88D59FBE59259CAB69359CBBC9E
:102220009659FDD19759A1E69959EEC39E59A4E656
:10223000A359FEE5A459A5E6A559D7CDA859C1B71C
:10224000A959FCE5AA59FDE5AB59A3E6AE59DDC491
:10225000AF59A8E6B259A7E6B959C3C3BB59DEC600
:10226000BE59AAE6C659B7C4CA59A2E6CB59BCCAD8
:10227000D059E3BDD159C3B9D259A6E6D359D5D067
:10228000D459AFCED759A9E6D859B0E6DA59A6D273
:10229000DC59AABDDD59ADE6E359AFE6E559D1C039
:1022A000E859CCD2EC59A7BCF959B1E6FB59F6D2A2
:1022B000FF59CBD7015AFECD035ADECD045AA6C230
:1022C000055AABE6065AACE6075ABFBD085AAEE659
:1022D000095AB3E60C5AB2E6115AB6E6135AB8E6F2
:1022E000185AEFC41C5AC8C41F5AEABE205AEFC974
:1022F000235AB7E6255AF0B6295AE4C3315AE9D32E
:10230000325AB4E6345AB5E6365AA2C83C5ABDE64B
:10231000405AB9E6465AC5C6495AF1CD4A5ABBE6B3
:10232000555ABCE65A5AE9BB625ABEE6675ABAE643
:102330006A5AB7C0745AA4D3755ABFE6765AF4C91C
:10234000775AC3E67A5AC4E67F5AF6D0925ABDC38A
:102350009A5AC4C39B5AC2E6AA5AC1E6B25AC7E601
:10236000B35AB1CFB55AF4EBB85ACAE6BE5AC5E66D
:10237000C15ADEBCC25AA9C9C95AB5BCCC5AD3CFBE
:10238000D25AC8E6D45AC9E6D65ACEE6D85AD0E6CA
:10239000DC5AD1E6E05ACBE6E15AD5B5E35ACCE6B1
:1023A000E65ACFE6E95ADBC4EB5AC6E6F15ACDE667
:1023B000095BD2E6165BD4E6175BD3E6325BD5E663
:1023C000345BF8D9375BD6E6405BD7E6505BD3D7B2
:1023D000515BDDE6535BDEE6545BD7BF555BD0D483
:1023E000575BD6D7585BE6B4595BEFCB5A5BDAE65E
:1023F0005B5BC3D85C5BCED75D5BA2D05F5BCFC3BA
:10240000625BDFE6635BBEBC645BC2B9655BDBE657
:10241000665BA7D1695BA2BA6A5BCFC26C5BABD8C3
:10242000705BEBCA715BEEE5735BDCE6755BF5B781
:102430007A5BE6C87D5BF5C4805BB2E5815BFEC478
:10244000835BFCCB845BB3E5855BACD5875BEED36C
:10245000885BD8CA895BB2B08B5BCECB8C5BEACD94
:102460008F5BEABA935BB5E5955BB4E5975BDAD72A
:10247000985BD9B9995BE6D69A5BA8B69B5BF0CD21
:102480009C5BCBD29D5BA6B19E5BB5CAA05BE8B35B
:10249000A15BF3C9A25BCDBFA35BFBD0A45BD2CA97
:1024A000A55BB6E5A65BC2BBAA5BDCCFAB5BACB9F8
:1024B000B05BD7D4B35BA6BAB45BE7D1B55BFCCF56
:1024C000B65BD2BCB85BB7E5B95BDDC8BD5BEDBF41
:1024D000BE5BF6B1BF5BDECBC25BC5BCC45BC4BC3C
:1024E000C55BFAD2C65BDCC3C75BDCBFCC5BBBB8E9
:1024F000D05BC2C3D25BAEBAD35BA2D4DD5BDEC716
:10250000DE5BAFC4DF5BECB2E15BD1B9E45BBBE5A2
:10251000E55BC8C1E85BAFD5EE5BBCE5F05BBEE553
:10252000F85BE7B4F95BD4B6FA5BC2CBFB5BB0D126
:10253000FC5BBCB5FF5BD9CA015CE2B7045CE4C9D3
:10254000065CABBD095CBECE0A5CF0D70F5CA1D0C7
:10255000115CD9C9145CFBB6155CD8E6165CE2BC0C
:10256000185CBEB31A5CD0C91C5CD9E61D5CA2B372
:10257000225CCCDE245CC8D3255CCDDE275CA2D2F5
:102580002C5CCEDE315CCDBE345CCFDE385CACCAB8
:10259000395CFCD23A5CDFB33B5CEAE53C5CE1C40D
:1025A0003D5CA1BE3E5CB2CE3F5CF2C4405CD6BE98
:1025B000415CA8C6425CE3B2455CD3BE485CFCC744
:1025C000495CEBCC4A5CECBD4B5CDDCE4E5CBACAE0
:1025D0004F5CC1C6505CECE5515CBCD0555CB9D5D4
:1025E000595CEDE55E5CF4CA605CC0CD615CC5C25F
:1025F000635CEFE5655CC4C2665CF0E56E5CF8E5C3
:102600006F5CCDCD715CBDC9795CD9D27A5CA8E133
:102610007F5CECD3815CEACB825CF1C6885CACE188
:102620008C5CA7E18D5CA9E1905CAAE1915CAFE1D3
:10263000945CEDB2965CABE1975CDAB8985CADE186
:10264000995CAEE19A5CB0E19B5CBAB59C5CB1E18F
:10265000A25CB3E1A35CB8E1A95CD2D1AB5CB6E10A
:10266000AC5CB5E1AD5CEBC1B15CB7E1B35CC0D4CF
:10267000B55CB2E1B75CBAE1B85CB6B0BD5CB4E1E0
:10268000BF5CF9BFC15CB9E1C45CBBE1CB5CBEE13E
:10269000D25CBCE1D95CC5D6E15CBFCFE45CBDE1F6
:1026A000E55CBFE1E65CCDC2E85CEBB6EA5CF8D382
:1026B000ED5CCDC7F05CE5B7FB5CFEBE025DC0E142
:1026C000035DC1E1065DC7E1075DE7B30E5DE9C6E5
:1026D000145DDEB4165DC2D11B5DC8E11E5DC6E1AE
:1026E000245DC5E1265DC3E1275DC2E1295DC0B17E
:1026F0002D5DB8D52E5DC4E1345DCBE13D5DCCE10F
:102700003E5DCAE1475DFAEF4A5DD3E14B5DD2E140
:102710004C5DB6C7585DC9E15B5DCEE15D5DD0E162
:10272000695DD4E16B5DD1E16C5DCDE16F5DCFE1C1
:10273000745DD5E1825DD6E1995DD7E19D5DD8E11B
:10274000B75DDAE1C55DDBE1CD5DA1CEDB5DDDE747
:10275000DD5DA8B4DE5DDDD6E15DB2D1E25DB2B390
:10276000E55DA4B9E65DF3D7E75DC9C7E85DDEBE08
:10277000E95DAEB9EB5DD7CEEE5DEEB2EF5DCFDBDE
:10278000F15DBABCF25DD1D2F35DC8CBF45DCDB0E2
:10279000F75DEFCFFD5DE3D9FE5DEDBD015ED2B12A
:1027A000025ED0CA035EBCB2055EA7CB065EABB7C5
:1027B000085EA6CA0C5EA3CF0F5EF8E0105ECAD515
:1027C000115EFBE0145EFAE0155EC1C5165EFBCC3F
:1027D000185EB1C1195EF9E01A5EE3D61B5EAFB2B6
:1027E0001C5EC4D61D5EDBB5265EF8B4275EA1D69E
:1027F0002D5EAFCF2E5EEFB0315EFCE0375EA1E123
:10280000385EA3B33B5EFDE03C5EFEE03D5EB1C3DF
:10281000425EDDC3445EA2E1455EF9B74C5ECFBBCC
:10282000545EA3E1555EBBC45B5EA4E15E5EA5E1C0
:10283000615EA6E1625EB1B4725EC9B8735EBDC688
:10284000745EEAC4765EA2B2785ED2D07A5EDBE7CE
:102850007B5EC3BB7C5ED7D37D5EC4D37F5EE3B9B2
:10286000805ECFE2845EAFD7865EECC7875ED3B171
:102870008A5EB2B48B5ED1E28F5EF2D0905EAEC261
:10288000915ED0E2935EE2BF945EA6D3955ED7B52B
:10289000965ED2E2975EEAB5995EEDC39A5EFDB8A8
:1028A0009C5EAEB89E5ED3C59F5ECFB7A05ED4E2FD
:1028B000A55ED3E2A65EC8B6A75EF9D7AD5EA5CD8C
:1028C000B35ED8E2B55ED6E2B65EFCCAB75EB5BF0F
:1028D000B85EB9D3B95ED5E2BE5ED7E2C95EAEC11D
:1028E000CA5EC8C0D15EDBE2D25EDAE2D35EAAC0C5
:1028F000D65ECEC1DB5EDCE2E85EDDE2EA5EDEE211
:10290000F45EC8DBF65ED3D1F75EA2CDFA5EA8BD59
:10291000FE5EC3DEFF5EA5D8005FAABF015FCDDB10
:10292000025FECD2035FFAC6045FAAC5085FC4DE8B
:102930000A5FD7B10B5FAEDF0F5FBDCA115FB1DFBA
:10294000135FADB9155FFDD2175FA5B8185FEBBA7D
:102950001B5FDAB31F5FDCB5205FC5D5255FD6C32B
:10296000265FD2CF275FA1BB295FF3E52A5FF2E59F
:102970002D5FF4E52F5FE4CD315FF5C8395FAFB56A
:102980003A5FBFC73C5FF6E5405FB0EC505FE6E5FD
:10299000525FE9B9535FB1B5555FBCC2565FE8E518
:1029A000575FE7E5585FE9E55D5FCDD2615FEAE13A
:1029B000625FCED0645FAECD665FE5D1695FCAB2BB
:1029C0006A5FEBB16C5FF2B16D5FEDC5705FC3D54F
:1029D000715FB0D3735FDCE1775FDDE1795FDBD2FC
:1029E0007B5FB9B37C5FCBB1805FF9CD815FF7D5F9
:1029F000825FDEE1845FB6BE855FFDB4875FDFE1A5
:102A0000885FDCBA895FE0E18A5FB2BB8B5FC9C2D5
:102A10008C5FE1E1905FECD0925FBDCD955FE2E12C
:102A2000975FC3B5985FC7C5995FE3E19C5FE4E139
:102A3000A15FF9D3A85FE5E1AA5FADD1AD5FE6E1A3
:102A4000AE5FA2CEB55FE7E1B75FC2B5BC5FE8E1BC
:102A5000BD5FD5BBC35FC4D0C45FE0E2C55FD8B182
:102A6000C65FE4D2C95FE1E2CC5FC9BCCD5FCCC830
:102A7000CF5FE3E2D05FFEECD15FFDECD25FAFDF72
:102A8000D65FE2E2D75FBED6D85FFCCDD95FA6C3E2
:102A9000DD5FC3E3E05FD2D6E15FE7E2E45FE8E257
:102AA000E75FC7D3EA5FECE2EB5FECBFED5FEDE21F
:102AB000EE5FE5E2F15FC0B3F55FEEC4F85FEEE212
:102AC000FB5FC3D0FD5FF6BAFE5FE9E2FF5FDEB7F2
:102AD0000060B3BB0160ACCC0260CBCB0360E4E22E
:102AE0000460E6E20560EAE20660EBE20A60F7E213
:102AF0000D60F4E20E60F5D40F60F3E21260ADC534
:102B00001460FAD51560C2C51660C0B21960EFE254
:102B10001B60F2E21C60AFC11D60BCCB2060A1B5A0
:102B20002160F9E22560B1BC2660F1E22760D4D0D3
:102B30002860B9D42960F5E22A60D6B92B60F6E2A4
:102B40002F60D3C73560F0E23B60DCD73C60A1ED7D
:102B50003F60F8E24160A5ED4260FEE24360D1CA09
:102B60004B60B5C14D60D0BB5060D6BF5260E3BA78
:102B70005560A1CB5960A6ED5A60A3ED5D60A2ED52
:102B80006260D6BB6360A7ED6460F4D06760A4EDBB
:102B90006860DEBA6960F7B66A60A1E36B60B2B6DE
:102BA0006C60F1CC6D60A7B96F60A2CF7060A1C7F7
:102BB0007360D2BF7660F1B67860FAE27960FBE2CA
:102BC0007A60FDE27B60FCE27C60D5C47D60A2E3BC
:102BD0007F60C1D38360A7E38460C4C78960A4CF4A
:102BE0008C60A9E38D60B7BA9260A8E39460DABB09
:102BF0009660A3E39A60A4E39B60AAE39D60A6E3CA
:102C00009F60F2CEA060C6D3A360BCBBA660C3D455
:102C1000A860FAC4AB60A8EDAC60FCD0AD60A5E3E1
:102C2000AF60F5C3B160ADE3B260AFB1B460B2E321
:102C3000B860C2BCBB60ACE3BC60BFB5C560E9C7EF
:102C4000C660B0E3CA60AABECB60EFCDD160F3BB73
:102C5000D560E8CCD860AFE3DA60B1E3DC60A7CF41
:102C6000DD60AEE3DF60A9CEE060DDBBE660EBB522
:102C7000E760E5BEE860D2B2E960CDB3EB60B9B120
:102C8000EC60ABE3ED60D1B2EE60ACB5EF60DFB904
:102C9000F060E8B6F360EBCFF460B7E3F660CCBB6E
:102CA000F960C7C8FA60CAD00061B8E30161EEB349
:102CB0000661A9ED0861FAD30961E4D30D61AAEDBB
:102CC0000E61B9E30F61E2D21561B5E31A61DED39B
:102CD0001F61D0B82061B3E32361B6E32461DFB79D
:102CE0002661B4E32761A2C02B61BAE33F61B8D487
:102CF0004861C8B44A61BBE34C61C5BB4E61F7C9CA
:102D00005161E5C95561BDC45D61ABED6261FDC254
:102D10006761DBBB6861AEBF7061BFCE7561BCE34C
:102D20007761B6BF8B61EFB18E61F7D49461BEE37A
:102D30009D61ADEDA761BFE3A861A9BAA961ACED42
:102D4000AC61BDE3B761C0E3BE61B6BAC261AEB605
:102D5000C861B8D0CA61C3B0CB61AEEDD161AFED8F
:102D6000D261C1C0D461C1E3E661B3C5F561C2E31C
:102D7000FF61B2DC0662B0ED0862EAB80A62ECCE2E
:102D80000B62A7EA0C62E7D00D62F9CA0E62D6C8E0
:102D90000F62B7CF1062C9B31162D2CE1262E4BD26
:102DA0001562DEE31662F2BB1762A8EA1862BDD5AF
:102DB0001A62DDC61B62A9EA1F62AAEA2162ACEAB6
:102DC0002262ABEA2462AEEA2562ADEA2A62D8BD8D
:102DD0002C62AFEA2E62BEC23362C1B43462F7B471
:102DE0003762A7BB3D62E6EC3E62E5EC3F62BFB7EF
:102DF0004062F9CB4162E2B14362E7EC4762C8C985
:102E00004862E8EC4962E9EC4B62D6CA4C62D0DE1B
:102E10004D62C5B24E62FAD45162CBC65262C7B09F
:102E20005362F2B45462D3C85862D0CD5B62B8BF6B
:102E30006362DBBF6662A4C76762B4D66962A9C079
:102E40006A62D1DE6B62A8C96C62EFD16D62A4C503
:102E50006E62E7B06F62B6B37062C5C87362E2B00B
:102E60007662F6B77962FAC57C62F3B67E62D2D535
:102E70007F62D0B38062BCBC8462ADB38962F1BEB4
:102E80008A62D1B09162D6D29262E3CA9362A5D728
:102E90009562B6CD9662B6B69762B9BF9862DBD539
:102EA0009A62A7B89B62D7C59F62D2DEA062D9BFE3
:102EB000A162D5C2A262C0C7A462A4BBA562A8B128
:102EC000A862EAC5AB62FBC5AC62A7CCB162A7B190
:102ED000B562D6B5B962A8C4BB62D3DEBC62BAD152
:102EE000BD62E9B3BF62F2C3C262F7B7C462F4D68F
:102EF000C562A3B5C662F0B2C762B4C4C862E9C411
:102F0000C962ADC0CA62D4DECC62E8B0CD62C4C5CD
:102F1000CE62E0C1D062D5B9D262DCBED362D8CD78
:102F2000D462CEB0D662CFCDD762D6DED862D0BE64
:102F3000D962BED7DA62D5DEDB62D0D5DC62DDB025
:102F4000DF62E2C4E262A3C2E362F0BCE562B5D331
:102F5000E662B9C0E762A1C5E862A6B2E962F1D44F
:102F6000EC62A8C0ED62C3CAEE62D7DEEF62FCD5A8
:102F7000F162B0B9F362ADC8F462A9CBF662D9DEF2
:102F8000F762BDBFFC62B4C6FD62A7D7FE62B0CADD
:102F9000FF62C3C40163D6B30263D2B90763B8D674
:102FA0000863FCEA0963B4B00E63E6BF1163F4CCB6
:102FB0001663DACD1A63BFD61B63CEC21D63CECEB5
:102FC0001E63A2CC1F63AED02063D3C42163B2B50D
:102FD0002263D8DE2363F5D52463B7BC2563D3BB56
:102FE0002863A4B02A63B2C52B63ECB42F63F1D578
:102FF0003263FDEA3963DADE3A63A6CD3D63ECCD98
:103000004263E6CE4363DCDE4563B1CD4663A6C0D2
:103010004963BDD74B63DBDE4C63C6B04D63B4BAC6
:103020004E63D3C94F63F3C45063E8BE5563B6B271
:103030005E63CCC05F63F0CB6163F1BC6263BBBB1A
:103040006363B7B56763F5C56963E6DE6D63E3DEA9
:103050006E63DDBE7163DFDE7663B7B47763DDBDBB
:103060007A63E0DE7B63EDC48063C6CF8263E0B544
:103070008763DEB68863DACA8963F4B58A63E5DEFE
:103080008C63C6D58E63E1DE8F63CDCC9063FEC6C4
:103090009263C5C59663B4D29863F2BEA063D3C2EF
:1030A000A263BDCCA363B8B3A563D3BDA763D8BFE8
:1030B000A863C6CDA963DAD1AA63EBB4AC63E4DE3E
:1030C000AD63DDDEAE63E7DEB063FEEAB363B0C2DC
:1030D000B463E2DEB763C0D6B863A7B5BA63F4B22F
:1030E000BC63E8DEBE63F2DEC463EDDEC663F1DE20
:1030F000C963E0C8CD63E1D7CE63EFDECF63E8C339
:10310000D063E1CCD263E5B2D663BED2DE63EEDE3D
:10311000E063EBDEE163D5CEE363A7B4E963ABBF65
:10312000EA63BEBEED63D2BDF263E9DEF463AED402
:10313000F663DEDEF863EADEFD63BFC0FF63ECDE4C
:103140000064F3B20164E9B80264A7C20564C1BDBA
:103150000B64F5DE0C64F8DE0F64ABB21064A4B44B
:103160001364EAB41464A6C91B64F6DE1C64D1CBF4
:103170001E64E3B82064F7DE2164FADE2664F9DE1B
:103180002A64C2CC2C64E1B02D64EEB43464BAE598
:103190003A64AFD03D64EBB23F64A1EB4164F4DE2E
:1031A0004464E3C94564F3DE4664DAB04764A1D2FF
:1031B0004864F7B14A64AFCC5264F0DE5464A4CBE7
:1031C0005864AAD55E64FBDE6764DDB46964A6C496
:1031D0006D64FDDE7864FEC37964A1C47A64A1DF06
:1031E0008264CCC18464FCDE8564EFBE8764B2C6B1
:1031F0009164C5B39264F6C89564BACB9664FEDE5A
:103200009964A4DF9E64B2D7A464B7B3A964C3C1B0
:10321000AC64CBC7AD64A5B2AE64E9B4B064ABD75F
:10322000B564ECC4B764A2DFB864A3DFBA64A5DFF9
:10323000BC64B3BAC064A6DFC264DEC0C564C3C9DF
:10324000CD64D9B2CE64E6C7D064A7DFD264DCC750
:10325000D764A8DFD864A2EBDE64D3CBE264AADF34
:10326000E464A9DFE664C1B20065CAC50965ABDFE5
:103270001265DCD41865C1C82565ACDF2B65F0BECE
:103280002E65ADDF2F65A7D63465B7EA3565B6EB99
:103290003665D5CA3865FCD83965C4B83B65A5B96B
:1032A0003E65C5B73F65FED54565CAB94865A7D037
:1032B0004965CDF44C65D0B54F65F4C35165C8BEC2
:1032C0005565B7EB5665BDB05965CCBD5B65B2C100
:1032D0005D65D6B15E65A8B36265D2B86365A2C903
:1032E0006665D8B66B65B8EB6C65B4BE7065FDCA33
:1032F0007265C3C77465FBD57765F3B78765C4CEC0
:103300008B65ABD58C65F3B19065B3EC9165DFB09F
:103310009365B5EC9765B7B69965CFC19B65FAF52E
:103320009C65B1D09F65E5D5A165D3CEA465EFBD01
:10333000A565E2B3A765ABB8A965B6D5AB65BDED2C
:10334000AD65CFB6AF65B9CBB065C2D0B965BDB715
:10335000BC65B6ECBD65A9CAC165D4C5C365B9EC89
:10336000C465B8ECC565C3C2C665B7ECCB65FDD016
:10337000CC65BAECCE65BBECCF65E5D7D265BCECCD
:10338000D665BDECD765ECC6E065DECEE265C8BCAF
:10339000E565D5C8E665A9B5E765C9BEE865BCD6EB
:1033A000E965E7D4EC65AED1ED65F1D0EE65B8EA3C
:1033B000EF65B9EAF065BAEAF165B5BAF665B1CA82
:1033C000F765F5BFFA65FACD0066C0EA0266BAB0E5
:1033D0000366BEEA0666A5C00A66BBEA0C66FDB2D5
:1033E0000E66F7C30F66E8BB1366D7D21466F4CE39
:1033F0001566BFEA1966BCEA1D66C3EA1F66C7D038
:103400002066B3D32566BAB42766C1C32866F2D74F
:103410002D66D1D52F66C7CA3166C5EA3466C4EABF
:103420003566C7EA3666C6EA3C66E7D63E66D4CF5E
:103430004166CBEA4366CEBB4B66FABD4C66CEC94D
:103440004F66CCEA5266B9C95366FECF5466CAEAE3
:103450005566CED45666CDEA5766CFEA5A66EDCDAC
:103460005F66C9EA6166CEEA6466EECE6666DEBB7A
:103470006866BFB36E66D5C66F66B0BE7066FACEBC
:103480007466E7C77666A7BE7766D0EA7A66C7D65F
:103490007E66C0C18266DDD48466D1EA8766BECF0F
:1034A0008C66D2EA9166EECA9666AFC59766B5B0ED
:1034B0009D66D4EAA766D3EAA866DFF4AE66BAC40E
:1034C000B466A9B1B966DFE5BE66D5EAD966EFCACA
:1034D000DB66D6EADC66D7EADD66D8C6E666D8EAF9
:1034E000E966D9EAF066BBD4F266FAC7F366B7D2EA
:1034F000F466FCB8F766C2EAF966DCB2FC66FCC2A8
:10350000FE66F8D4FF66E6CC0067EED70867C2D443
:103510000967D0D30A67C3EB0B67F3C50D67FEB726
:103520001067D4EB1467B7CB1567DEEB1767CAC01B
:103530001B67FBCD1D67AFB31F67DAC62667FCEBC1
:103540002867BEC42A67B4CE2B67A9C42C67BEB156
:103550002D67FDD42F67F5CA3167ECD63467D3C623
:103560003567E4B63A67FABB3D67E0D04067B1C95A
:103570004267D3D44367A8C84667CBB84867BEE85C
:103580004967BCC94C67BBE84E67EEC04F67D3D0F4
:103590005067C4B25167E5B45367BCE85667C8D5F5
:1035A0005C67C5B65E67BDE85F67F8CA6067DCB890
:1035B0006167F5CC6567B4C06867EED16967BFE83D
:1035C0006A67C2E86D67BCBA6F67ADB17067DCBD92
:1035D0007267BDEA7367C3E87567C6E87767CBE8CB
:1035E0007C67CCE87E67C9CB7F67E5B08167ABBC01
:1035F0008467B9B98767C1E88967F7CD8B67CAE87F
:103600009067F6CE9567EDD59767D6C19867C4E801
:103610009A67B6C39C67FBB99D67A6D69E67C8E844
:10362000A267E0CAA367E6D4A567C0E8A767C5E8B4
:10363000A867C7E8AA67B9C7AB67E3B7AD67C9E8CA
:10364000AF67DDBFB067D2E8B367D7E8B567D5E845
:10365000B667DCBCB767CFBCB867DBE8C167DEE83C
:10366000C367DAE8C467FAB1CF67D8B0D067B3C42C
:10367000D167CCB8D267E2C6D367BEC8D467E1C809
:10368000D867CFE8D967D4E8DA67D6E8DC67F1B95C
:10369000DD67D8E8DE67F5D7E067FBC4E267DCE802
:1036A000E567E9B2E967D1E8EC67EDBCEF67C2BF57
:1036B000F067CDE8F167F9D6F367F8C1F467F1B2C6
:1036C000FD67DFE8FF67C1CA0068D9E80568A4D5CF
:1036D0000768EAB10868BBD50968CEE80A68D0E88F
:1036E0000B68B0B60C68D3E80E68DDE80F68B8C0A8
:1036F0001168F7CA1368A8CB1668DCC61768F5C04E
:103700001D68E9E82168A3D02968F2E82A68EAD6AA
:103710003268E0E83368E1E83768F9D13868CBBA55
:103720003968F9B83C68F1B83D68D4D43E68EFE830
:103730004068EEE84168ECE84268F0B94368D2CCF2
:103740004468E6E84568A6CE4668F2BF4868B8B067
:103750004968F1E84A68F0E84C68C0D74E68E4E888
:103760005068A9CD5168A3C95368B8BB5468DBBD84
:103770005568EAE86068E2E86168E3E86268E5E8FD
:103780006368B5B56468E7E86568C5C76668EBE86F
:103790006768EDE86868B0BD6968AED76B68F8E83F
:1037A0007468F5E87668B0CD7768F6E88168BAC1E4
:1037B0008368E8E88568B7C38668F0B08F68F4E886
:1037C0009368F7E89768A3B9A268D2C9A668CEC380
:1037D000A768E0CEA868E6C0AD68F3CBAF68DDCCE3
:1037E000B068B5D0B368E1CAB568F3E8C068ECBCAE
:1037F000C268F9E8C968DEC3CB68E5C6CD68F7B929
:10380000D268F4B0D568D8D7D868ACBCDA68EFC550
:10381000E068C4CCE368A6E9EE68ADC9F068A2E947
:10382000F168E2C0F568C3BFF968FEE8FA68D7B985
:10383000FC68FBE80169A4E90569CED20B69A3E93C
:103840000D69B2D60E69B5D71069A7E91269B7BD7F
:103850001F69FCE82069FDE82469A1E92D69D6CD3E
:103860003069ACD23469B2E93969A9E93D69AAB4D1
:103870003F69BBB44269ABE95469A8D05769A5E96F
:103880005A69FEB35D69ACE95E69E3C06069AAE9A3
:103890006369B9E96669B8E96B69AEE96E69FAE826
:1038A0007169A8E97769ACBF7869B1E97969BAE962
:1038B0007C69A5C28069AFE98269C5B88469ADE950
:1038C0008669DCD38769B4E98869B5E98969B7E9AC
:1038D0008D69C7E99469C6C09569C5E99869B0E979
:1038E0009B69BBE99C69F1B0A769BCE9A869A5D54A
:1038F000AB69BEE9AD69BFE9B169C1E9B469F1C1BC
:10390000B769B6C8BB69BDE9C169C2E9CA69C3E99B
:10391000CC69B3E9CE69B6E9D069B1BBD469C0E975
:10392000DB69F7BCDF69C4E9E069C6E9ED69CAE9AA
:10393000F269CEE9FD69DBB2FF69C8E90A6AAEB790
:10394000176ACBE9186ACCE91F6AC1D5216AA3C4FA
:10395000286AD8E92A6AE1BA2F6AC9E9316AA3D389
:10396000356AD4E93D6AD7E93E6AD0E9446ACFE9CD
:10397000476AC1C7506AD2E9586AD9E9596AC8B3D7
:103980005B6AD3E9616AF0CF656ACDE9716AF7B322
:10399000796AD6E97C6ADAE9806AB4CC846AADCF08
:1039A0008E6AD5E9906ADCE9916ADBE9976ADEE91B
:1039B000A06AD1E9A96ADDE9AB6ADFE9AC6ACAC3EA
:1039C000206BB7C7216BCEB4226BB6BB236BC0D0C4
:1039D000246BA3EC276BB7C5326BFBD3376BA4EC1E
:1039E000396BA5EC3A6BDBC63E6BEEBF436BA6ECC6
:1039F000466BA7EC476BAAD0496BB8C74C6BE8B8CD
:103A0000596BA8EC626BB9D6636BFDD5646BCBB414
:103A1000656BBDB2666BE4CE676BE7C66A6BE1CDE2
:103A2000796BF5B47B6BC0CB7C6BDFBC816BE2E95F
:103A3000826BE3E9836BEAD1846BE5E9866BF9B4C9
:103A4000876BE4E9896BB3D18A6BE2CA8B6BD0B226
:103A50008D6BE8E9926BE6E9936BE7E9966BB3D679
:103A60009A6BE9E99B6BEAE9A16BEBE9AA6BECE9DC
:103A7000B36BAFECB46BB9C5B56BCEB6B76BF3D265
:103A8000BF6BEEB5C16BD9BBC26BB1ECC56BE3D2FA
:103A9000CB6BE3CECD6BB8C4CF6BBFC3D26BBEB61E
:103AA000D36BB9D8D46BC8B1D56BCFB1D66BD1B10C
:103AB000D76BFEC5D96BD0B1DB6BABC3E16BB1D5B6
:103AC000EA6BA4EBEB6BC1BAEF6BBACCF36BA5EB73
:103AD000F56BA7EBF96BA8EBFD6BA6EB056CA9EBFF
:103AE000066CABEB076CAAEB0D6CACEB0F6CCFCAA2
:103AF000106CB5D8116CF1C3136CA5C3146CF8C667
:103B0000156CADEB166CCAC4186CAEEB196CAFEB50
:103B10001A6CB0EB1B6CD5B71F6CFAB7216CB1EB0C
:103B2000226CE2C7246CB3EB266CA4BA276CF5D1E7
:103B3000286CB1B0296CB2EB2A6CB4EB2E6CAAB530
:103B40002F6CC8C2306CE8C7326CB5EB346CAECBAE
:103B5000356CDFE3386CC0D33D6CDBD9406CA1CD54
:103B6000416CADD6426CF3C7466CE0D9476CE3BB01
:103B7000496CBABA4A6CE2E3506CABCF546CE0E3E8
:103B8000556CC7C9576CB9BA5B6CB4D15C6CE1E3D6
:103B90005D6CEAC85E6CAFB95F6CADBD606CD8B3EC
:103BA000616CDBCE646CC0CC686CE8E3696CE9E303
:103BB0006A6CF4CD706CADCC726CB3BC746CEAE31F
:103BC000766CEBE3796CDAD07D6CFBC67E6CDAB791
:103BD000816CDFC7826CCAD2836CD6CE856CE4E37D
:103BE000866CECE3886CF2C9896CC1B38C6CE7E33A
:103BF0008F6CE3C6906CE5E3936CB3ED946CE6E3F5
:103C0000996CB3C99B6CE6C59F6CB5B9A16CBBC37D
:103C1000A36CE3E3A46CBDC5A56CA4C1A66CD9C21A
:103C2000A76CD7B2A96CEDE3AA6CA6BBAB6CADC414
:103C3000AD6CF0E3AE6CDABEB16CFBE3B26CF5E3F5
:103C4000B36CD3BAB86CD0B7B96CCDD3BB6CCED68D
:103C5000BC6CD3D5BD6CC1B9BE6CB4D5BF6CD8D16A
:103C6000C46CB9D0C56CF6C7C96CAAC8CA6CB4B26A
:103C7000CC6CDAC3D06CEEE3D36CFCE3D46CEFE332
:103C8000D56CA8B7D66CF7E3D76CF4E3DB6CBAB7A6
:103C9000DE6CA2C5E06CF6E3E16CDDC5E26CA8B2B7
:103CA000E36CFCC6E56CE0C4E86CA2D7EA6CE1C04A
:103CB000EB6CF9E3EE6CFAE3EF6CFDE3F06CA9CC8E
:103CC000F16CF3E3F36CBED3F56CC3B1F66CB4EDF9
:103CD000F76CF1E3F86CF2E3FA6CF8E3FB6CBAD042
:103CE000FC6CC3C6FD6CF3D4FE6CFEE3016DE0BD5D
:103CF000046DA7E4076DA6E40B6DF3D10C6DA3E48E
:103D00000E6DA9E4126DF7C8176DB4CF196DA8E454
:103D10001A6DAEE41B6DE5C21E6DB4B6256DF2BD25
:103D2000276DA2E42A6DE9BA2B6DAAE42E6DACE4EE
:103D3000316DFDB6326DDED6336DB2E4356DADE476
:103D4000396DA1E43B6DEEBB3C6DDDCD3D6DA2C791
:103D50003E6DC9C5416DF7C1436DA4E4456DB3C760
:103D6000466DACBD476DBDBD486DA5E44A6DC7D776
:103D70004B6DE2B24D6DABE44E6DC3BC4F6DAFE425
:103D8000516DEBBB526DB0E4536DA8C5546DB1E4F9
:103D9000596DE3D55A6DA3BF5C6DBAE45E6DB7E4AF
:103DA000606DBBE4636DBDE4666DD6C6696DC6BA71
:103DB0006A6DCBC06E6DA1B86F6DB4E4746DA1D4A3
:103DC000776DA3BA786DFEBD7C6DBCE4826DBFCD0E
:103DD000856DF9C4886DFBCF896DE6C98C6DBFD345
:103DE0008E6DD1CF916DB3E4936DB8E4946DB9E469
:103DF000956DE9CC9B6DCECC9D6DD4C09E6DB5E428
:103E00009F6DB0C1A06DB6E4A16DD0CEA36DC1BB56
:103E1000A46DD3B5A66DF3C8A76DA7BDA86DC7D512
:103E2000A96DACC9AA6DA2B8AB6DCAE4AE6DCCE405
:103E3000AF6DC4D1B26DBAD2B56DADBAB86DD4BAEA
:103E4000BF6DC3E4C06DEDB5C46DCDD7C56DC0E425
:103E5000C66DFDCFC76DBFE4CB6DDCC1CC6DCACCE8
:103E6000D16DE7CAD66DD7C4D86DD4CCD96DC8E4AE
:103E7000DD6DC7E4DE6DC1E4E06DC4E4E16DADB5B8
:103E8000E46DD9D3E66DC6E4EB6DF9D2EC6DE3B425
:103E9000EE6DB4BBF16DEEC9F36DBEB4F76DECBB66
:103EA000F96DCDD1FB6DEDCCFC6DB5ED056EE5C7C3
:103EB0000A6EA8D40C6ECBE40D6ED5D70E6EC2E49C
:103EC000106EA5BD116EC5E4146EE6D3166EC9E47E
:103ED000176EF8C91A6EBEE41D6EE5D3206EFEC7DC
:103EE000216EC9B6236EFCD4246EB3B2256ED7E41E
:103EF000296EC2CE2B6ECDE42D6EBCCE2F6EDBB8FC
:103F0000326ED6E4346ECABF386ECED33A6EECC38E
:103F1000436EC8C5446ED8E44D6EC4CD4E6ECFE43A
:103F2000536ED4E4546ED5E4566EFEBA586EE6CFA6
:103F30005B6EBFD55F6ED2E46B6ED0E46E6ECEE486
:103F40007E6EE5CD7F6EAACA836EA3C0856EA6BDC8
:103F5000866ED3E4896EC8B88F6EE7E4906EB4D4F1
:103F6000986EDBE49C6EEFC19F6EE9E4A26EE7D22F
:103F7000A56EDFE4A76EE0E4AA6EAACFAF6EDDCB3C
:103F8000B16EDAE4B26ED1E4B46EE5E4B66EDCC8CC
:103F9000B76EE3E4BA6EE7C4BB6EE2E4BD6EE1E483
:103FA000C16EFCB3C26EE8E4C76EE1B5CB6ECCD790
:103FB000CF6EE6E4D16EACBBD36ED2D7D46ECFCC8D
:103FC000D56EF8EBD76EE4E4DA6EF6B9DE6ECDD6D8
:103FD000DF6ED9E4E06EDCE4E16EFAC2E26EDEE4AC
:103FE000E46ECBC2E56EC4C0E66ED0C2E86EF5B139
:103FF000E96EB2CCF46ECEB5F96EEFE4026FAFC6E7
:10400000066FE1C6096FF5E40F6FA9C2136FECC02C
:10401000146FDDD1156FEEE4206FAEC4246FEDE4B4
:10402000296FF6E42A6FF4E42B6FFEC22D6FDDE4F6
:104030002F6FF0E4316FFECA336FC4D5366FF1E4F1
:104040003E6FFAD1466FEBE4476FECE44B6FF2E45E
:104050004D6FABCE586FCBC55C6FB1C75E6FBAC248
:10406000626FEAE4666FCAC16D6FB6CC6E6FB1B3B2
:10407000726FFBE4746FF3E4786FFAE47A6FFDE437
:104080007C6FFCE4846FCEB3886FBAB3896FF7E4BA
:104090008C6FF9E48D6FF8E48E6FECC59C6FBDC03A
:1040A000A16FE8D4A76FA2E5B36FC4B0B66FA4E563
:1040B000B96FA3E5C06FA4BCC26FA5E5C96FA1E548
:1040C000D16FFEE4D26FF4B1DE6FA8E5E06FA9E531
:1040D000E16FA6E5EE6FA7E5EF6FAAE51170D9C60F
:1040E0001A70ABE51B70ADE52370ACE53570AFE53C
:1040F0003970AEE54C70E0B94F70B0E55E70B1E577
:104100006B70F0BB6C70E1EC6D70F0C36F70C6B596
:104110007070D2BB7570E9C17670EED47870C4BE91
:104120007C70C6D77E70D6D47F70D3B28070BEEC60
:104130008570C1EA8970AFC28A70B6B48E70D7D16B
:104140009270B4B39470B2C89570BBBF9670C0EC57
:104150009970CBD69C70BFEC9D70C1ECAB70C5EC78
:10416000AC70E6BEAD70BFCCAE70DAC5AF70BCBE91
:10417000B170C6ECB370FEB1B770C4ECB870A8D51E
:10418000B970E3B5BB70C2ECBC70B6C1BD70E3B32F
:10419000C070C3ECC170B8CBC270C3C0C370FECCDA
:1041A000C870D2C1CA70C8ECD870E6BAD970D3C092
:1041B000DB70F2D6DF70CCD1E470BEBFE670B3B76F
:1041C000E770D5C9E870C7ECE970E2BBEB70CCCC06
:1041D000EC70FDBDED70C8C8EF70A9CFF770E9CDE8
:1041E000F970EBC5FD70E9B70971C9D10A71B8BAA8
:1041F0001071C9EC1371CAEC1571C0BB1671CBEC10
:104200001871E2EC1971BAB11A71D9B72671B9BD3A
:104210002F71CCEC3071E6D13171CDEC3671BBC869
:104220004571D1EC4A71D3EC4C71CDBB4E71E5BCFC
:104230005C71CFEC5E71B7C96471BAC36671E3ECAF
:104240006771D5D56871D0EC6E71F3D67271D2EC0E
:104250007371CEEC7871D4EC7A71D5EC7D71BFC9F5
:104260008471A8CF8A71DCD08F71ACD19471DBC816
:104270009871D6EC9971F5CE9F71ECCAA071DAEC09
:10428000A871D9ECAC71BEB0B371D7ECB571D8ECF4
:10429000B971E4ECC371BCC8CE71C7C1D471DCEC98
:1042A000D571E0D1E071DBECE571EFD4E771DDECC5
:1042B000EE71C6DBF971DEEC0672ACB11D72DFEC9B
:1042C0002872E0EC2A72A6D72C72C0C53072BCEB03
:1042D0003172AEB03572F4BE3672B8B83772AFD242
:1042E0003872D6B03972F9B53B72B3D83D72ACCBE7
:1042F0003F72DDE34772ACC64872E6B04C72C6C589
:104300004D72B9EB5272BAEB5672BBEB5972C0D117
:104310005B72A3C55D72F2EA5F72B2C46172B5C42A
:104320006272CEC06672F3EA6772C1C46972EFCE80
:104330006E72F0EA6F72F4EA7272FCC97572A3C70A
:104340007972D8CC7A72FECE7E72F5EA7F72F6EA86
:104350008072ACCF8172E7C08472F7EA8A72BFB60E
:104360008B72F8EA8D72F9EA8F72FAEA9272FBEABE
:104370009F72F1EAAC72AEC8AD72EBE1AF72B8B742
:10438000B072ECE1B472EDE1B672B4D7B772EEE19F
:10439000B872EFE1B972CCD3C172F1E1C272F1BF70
:1043A000C372F0E1C472D2B5C872B7B1CD72F3E195
:1043B000CE72F2E1D072FCBAD272F4E1D772B7B920
:1043C000D972D1BEDE72FCC4E072DDBAE172C6BD44
:1043D000E872F5E1E972F7E1EC72C0B6ED72C1CFB7
:1043E000EE72A8CAEF72F6E1F072F8D5F172FCD362
:1043F000F272F8E1F372FCE1F472F9E1F772FAE1BA
:10440000F872EAC0FA72FEE1FB72A1E2FC72C7C068
:104410000173FBE10373FDE10A73A5E20E73D4C1DE
:104420001373A3E21573A8E21673FEB21773A2E228
:104430001B73CDC31C73C2B21D73A7E21E73A6E229
:104440002173A4E22273A9E22573ABE22973C9D0D8
:104450002A73EDD62B73A8C32C73ACE22E73D7CF7F
:104460003173AEE23473EFBA3773E0E93873ADE21B
:104470003973AAE23E73ABBB3F73B3D44D73B0E262
:104480005073AFE25273E1E95773B1E26073B2E285
:104490006C73B3E26D73A1CC6F73B4E27E73B5E25B
:1044A0008473FED08773CAC28973F1D38B73F5CD41
:1044B0008E73E0E79173E1E79673C1BE9B73EAC226
:1044C0009F73E4E7A273E3E7A973E6CDAB73B5C3CB
:1044D000AE73E2E7AF73B7BBB073D6CFB273E1C1CF
:1044E000B373E9E7B773E8E7BA73F4E7BB73A3B252
:1044F000C073EAE7C273E6E7C873ECE7C973EBE79A
:10450000CA73BAC9CD73E4D5CF73E5E7D073A9B741
:10451000D173E7E7D973EEE7DE73F3E7E073E9D62B
:10452000E573EDE7E773F2E7E973F1E7ED73E0B008
:10453000F273F5E70374F2C70574C5C00674EDC0E5
:104540000974F0C10A74F0E70F74F6E71074F6CB43
:104550001A74A2E81B74A1E82274C1D72574FAE783
:104560002674F9E72874FBE72A74F7E72C74FEE752
:104570002E74FDE73074FCE73374D5C13474D9C7A9
:104580003574FDC53674C3C53C74EDC74174A3E8EA
:104590005574A6E85774A5E85974A7E85A74F7BA91
:1045A0005B74F8E75C74A4E85E74F0C85F74AAC931
:1045B0006D74A9E87074E5B97674FED17774A8E8D3
:1045C0007E74AAE88074ADE88174AEE88374A7C1F4
:1045D0008774AFE88B74B0E88E74ACE89074B4E87C
:1045E0009C74ABE89E74B1E8A774B5E8A874B2E80F
:1045F000A974B3E8BA74B7E8D274B6E8DC74CFB97A
:10460000DE74ACF0E074ADF0E274B0C6E374EAB00E
:10461000E474BFC8E674DFCDEE74CDCEEF74B1EABA
:10462000F474B2EAF674BFC6F774C9B4FF74B3EA9F
:104630000475E7D50D75F9DD0F75B4EA1175B5EAA6
:104640001375B6EA1875CAB81975B0DF1A75F5C9C9
:104650001C75F0CC1F75FAC92575FBC92875C3D325
:104660002975A6CB2B75A6B82C75AEF02D75C2B1E9
:104670002F75B8E53075EFCC3175C9D33275D7BC1D
:104680003375EAC93575E7B53775D0C43875E9B5FE
:104690003A75AEEE3B75ADBB3E75DEE74075AFEEED
:1046A0004575A9B34875B2EE4B75B1EE4C75E7BDD3
:1046B0004E75B0EE4F75B7CE5475CFC55975F4C170
:1046C0005A75CEDB5B75B3EE5C75F3D06575D4C2FD
:1046D0006675E8C66A75ACB77275B4EE7475EBB3FF
:1046E0007875FBBB7975B5EE7F75DCE78375B6EE43
:1046F0008675AEBD8B75E2F18F75E8CA9175C9D22A
:104700009275DAF09475DBF09675DCF09775C6C19A
:104710009975EDB89A75CEBE9D75DEF09F75B1C5E1
:10472000A075DDF0A175F1D1A375E0F0A475CCB052
:10473000A575EABDAB75DFD2AC75DFF0AE75AFB471
:10474000AF75E8B7B075E6F0B175E5F0B275A3C620
:10475000B375E1F0B475E2F0B575C3B4B875E3F0C4
:10476000B975EED5BC75DBCCBD75D2BEBE75B2BC1D
:10477000C275E8F0C375E7F0C475E4F0C575A1B281
:10478000C775A2D6C875B8D3C975B7BECA75ACC847
:10479000CD75EAF0D275F7D1D475CCD6D575DBBA24
:1047A000D675E9F0D875BBB6DB75B4CDDE75A6C697
:1047B000E275A1C1E375EBF0E475EEF0E675EDF09E
:1047C000E775F0F0E875ECF0EA75BEBBEB75EFF05D
:1047D000F075B5CCF175F2F0F475D5B3F975D4B1C7
:1047E000FC75F3F0FF75F4F00076F6F00176E1B4B5
:1047F0000376F1F00576F7F00A76FAF00C76F8F029
:104800001076F5F01576FDF01776F9F01876FCF0D5
:104810001976FEF01B76A1F11F76C1CE2076A4F1A9
:104820002276A3F12476F6C12576FBF02676DDCA42
:104830002976F1B42A76F1B12B76B1CC2D76A6F19A
:104840003076A7F13376ACF13476CED53576A9F152
:104850003876B3C83C76A2F13E76ABF13F76A8F14C
:104860004076A5F14376AAF14C76A9B04D76ADF12C
:104870005476AFF15676B1F15C76B0F15E76AEF17A
:104880006376A2D16B76B2F16F76B3F17876EFB939
:104890007B76C7B57D76D7B07E76D9B08276EDD4FB
:1048A0008476C4B58676D4BD8776CABB8876A7F0F1
:1048B0008B76DEB88E76A8F09176A8B09376A9F0C4
:1048C0009676EECD9976AAF0A476ABF0AE76A4C635
:1048D000B176E5D6B276E4F1B476E5F1BF76F3C30E
:1048E000C276DBD3C576D1D6C676E8C5C876AFD357
:1048F000CA76E6D2CD76C1EECE76BBB0CF76B5D550
:10490000D076CED1D176E0BCD276D0BAD476F8BF0C
:10491000D676C7B8D776C1B5D876CCC5DB76A2CA6D
:10492000DF76CBC3E576C2EEEE76BFC4EF76A2B6F5
:10493000F176ECEDF276A4C3F476B1D6F876E0CF5A
:10494000F976EFEDFC76CEC5FE76DCB60177A1CA2E
:104950000477EDED0777F0ED0877F1ED0977BCC34B
:104960000B77B4BF0D77EEED1977F4ED1A77F2ED12
:104970001F77E6D52077DFC32277F3ED2677F6EDB4
:104980002877A3D52977A3D12D77F5ED2F77D0C33D
:104990003577F7ED3677F4BF3777ECBE3877F8ED3B
:1049A0003A77F7CC3C77DBD14077C5D74177F6D55E
:1049B0004377FCED4777FBED5077F9ED5177FAED52
:1049C0005A77FDED5B77A6BE6177AFCB6277A1EE3C
:1049D0006377BDB66577A2EE6677C0C46877FEEDF3
:1049E0006B77DEBD6C77C7B27977C3B67D77A5EEFE
:1049F0007E77BAD87F77A3EE8077A6EE8477E9C377
:104A00008577F2B38C77A7EE8D77A4EE8E77B9CF4A
:104A10009177A8EE9277F7C29F77A9EEA077AAEEDA
:104A2000A277ABDEA577B3C6A777C6C7A977F5D6B9
:104A3000AA77C9B5AC77B2CBB077ABEEB377ABCDD5
:104A4000B577ACEEBB77B0D5BD77ADEEBF77C4F62A
:104A5000CD77C7DBD777A3B4DB77ACC3DC77E6F1E0
:104A6000E277B8CAE377D3D2E577AAD6E777F2EF51
:104A7000E977D8BEEB77C3BDEC77F3EFED77CCB633
:104A8000EE77ABB0F377AFCAF677B6EDF877B7ED60
:104A9000FD77F9CEFE77AFB7FF77F3BF0078B8EDBB
:104AA0000178EBC20278B0C90978B9ED0C78F6C686
:104AB0000D78B3BF1178BCED1278F8C51478D0D159
:104AC0001678A9D71778BAED1878BBED1A78E2D125
:104AD0001C78BFED1D78C0ED1F78C4ED2378C8EDBC
:104AE0002578C6ED2678CEED2778E8D52978C9ED6A
:104AF0002C78C7ED2D78BEED3078E9C53478C6C680
:104B00003778E9C93878D2D43978C1ED3A78C2ED2E
:104B10003B78C3ED3C78C5ED3E78F9C04078A1B450
:104B20004578E8B94778D0ED4C78D1ED4E78CAEDAC
:104B30005078CFED5278F8CE5578B6CB5678CCED8C
:104B40005778CDED5D78F5CF6A78D2ED6B78F2C10C
:104B50006C78B2D36D78CBED6E78B7C87778EFBC50
:104B60007C78F0C58778D6ED8978EFB58C78B5C2BA
:104B70008D78ADB08E78E9CB9178AEB19378D4EDE5
:104B80009778EBCD9878E2B59A78D5ED9B78D3ED10
:104B90009C78D7ED9F78FAB5A178D8EDA378D9EDB8
:104BA000A578DCEDA778CCB1B078F6C5B178EEBCCD
:104BB000B278DAEDB378BCCCB478EAB2B978DBED90
:104BC000BE78EBC4C178C5B4C578F5B0C978DFED5F
:104BD000CA78DAC0CB78E8B4D078CDC5D478DDED2A
:104BE000D578C4BFD978DEEDE878A5C4EC78E0EDDF
:104BF000F278E1EDF478E3EDF778D7C1FA78C7BB46
:104C00000179B8BD0579E2ED1379E4ED1E79E6EDA1
:104C10002479E5ED3479E7ED3A79BECA3B79EAECDF
:104C20003C79F1C03E79E7C94079EBEC4179EEC6B9
:104C30004679ECEC4879EDC64979EDEC5379F0EC26
:104C40005679E6D75779F3EC5A79F1EC5B79EEECCB
:104C50005C79EFEC5D79A3D75E79F1C95F79EECB32
:104C60006079F4EC6279F2EC6579E9CF6779F6EC7A
:104C70006879B1C66D79C0BC6F79F5EC7779BBB551
:104C80007879F6BB7A79F7EC8079F7D98179FBBD31
:104C90008479BBC28579F8EC8A79F9EC8F79A3B86D
:104CA0009A79FAECA779FBECB379FCECB979EDD3FE
:104CB000BA79AED8BB79EBC0BD79DDC7BE79CCBAC5
:104CC000C079E3D0C179BDCBC379BACDC679D1B8AB
:104CD000C979FCB1CB79EFC7CD79D6D6D179C6BF2A
:104CE000D279EBC3D579F5EFD879D8C3DF79E2D79C
:104CF000E379F7EFE479D3B3E679D8C7E779EDD173
:104D0000E979C8D6EB79F8EFED79F6EFEF79FDBBED
:104D1000F079C6B3F879D5BDFB79C6D2FD79E0BB91
:104D2000007AA1CF027AFCEF037AFBEF067AF9EF63
:104D30000B7ACCB30D7AD4C90E7AB0CB147AFEEFCD
:104D4000177ADEB01A7AC9D61E7AFDEF207AEDB353
:104D5000237AD5F6337AC8CE377AA2F0397AA1F021
:104D60003B7ABEB53C7ADABC3D7AFCBB3F7AE5B80B
:104D7000467AC2C4517AA3F0577AEBCB707AA6F088
:104D8000747AA8D1767ABFBE777AEEC7787AB6F110
:104D9000797AB7F17A7AD5BF7F7AA9B4807AB8F1F7
:104DA000817ABBCD837AD4C7847AADD5867AB9F1BE
:104DB000887ABAF18D7ACFC7917AA4D2927ACFD677
:104DC000957ABBF1967AD1BD977AB0B4987ABDBE88
:104DD0009C7ADCB49D7AD1CE9F7ADFBFA07ABDF1F8
:104DE000A57AFABFA67ABCF1A87ABFF1AC7ABEF177
:104DF000AD7AC0F1B37AC1F1BF7AFEC1CB7AA2C15C
:104E0000D67AFACAD97ABED5DE7ABABEDF7AB9BE08
:104E1000E07AC2D5E37AA2BFE57AAFCDE67AB5F102
:104E2000ED7ADFBDEF7ACBB6F97AF1D6FA7AC3F331
:104E3000FD7AC4F3FF7ACDB8037BC6F3047BC7F3D6
:104E4000067BCAB0087BC5F30A7BC9F30B7BF1CBA9
:104E50000F7BCBF3117BA6D0147BCAB1157BC8F3B3
:104E6000197BCFF31B7BD1B51E7BD7F3207BD2F30D
:104E7000247BD4F3257BD3F3267BFBB7287BBFB100
:104E80002A7BCEF32B7BCAF32C7BDAB52E7BD0F3B7
:104E9000317BD1F3337BD5F3387BCDF33A7BE3BC65
:104EA0003C7BFDC13E7BD6F3457BDAF3477BCCF3FD
:104EB000497BC8B54B7BEEBD4C7BDCF34F7BA4B785
:104EC000507BF0BF517BFED6527BB2CD547BF0B409
:104ED000567BDFB2587BD8F35A7BD9F35B7BB8C9DA
:104EE0005D7BDDF3607BDEF3627BE1F36E7BDFF302
:104EF000717BE3F3727BE2F3757BDBF3777BEABFD5
:104F0000797BEFB37B7BE0F37E7BA9C7807BF2BC30
:104F1000857BEBF38D7BBFB9907BE4F3947BADB2E3
:104F2000957BFEBB977BE3CB9C7BEDF39D7BE9F30D
:104F3000A17BDCB9A27BEEF3A67BE5F3A77BE6F3CE
:104F4000A87BEAF3A97BE1C2AA7BECF3AB7BEFF38E
:104F5000AC7BE8F3AD7BFDBCB17BE4CFB47BF0F37D
:104F6000B87BE7F3C17BF2F3C67BADD7C77BAAC69C
:104F7000CC7BF3F3D17BF1F3D37BA8C2D97BDDB833
:104F8000DA7BF5F3DD7BF4F3E17BDBB4E57BF6F371
:104F9000E67BF7F3EA7BF8F3EE7BBAC0F17BE9C07E
:104FA000F77BF1C5FC7BFBF3FE7BFAF3077CD8B4FF
:104FB0000B7CFEF30C7CF9F30F7CFCF3167CFDF309
:104FC0001F7CA1F4267CA3F4277CC9BB2A7CA2F415
:104FD000387CA4F43F7CBEB2407CA6F4417CA5F4AE
:104FE0004D7CAEBC737CD7C3747CE1D97B7CE0C0C4
:104FF0007C7CCCF47D7CD1D7897CDBB7917CCEF4F2
:10500000927CA3C1957CC9C6977CD6B4987CB3D555
:105010009C7CD0F49D7CCFF49E7CD1F49F7CDACB39
:10502000A27CD2F4A47CC1D4A57CE0D6AA7CE0B753
:10503000AE7CB8C1B17CBBC1B27CD3F4B37CACBE96
:10504000B97CE2B4BC7CD4F4BD7CD5F4BE7CABBEF0
:10505000C17CD6F4C57CDBF4C77CD7F4C87CDAF419
:10506000CA7CFDBACC7CD8F4CD7CD9F4D57CE2B82E
:10507000D67CC7CCD77CDCF4D97CDAB2DC7CD3C359
:10508000DF7CE3D4E07CB7BFE87CDDF4EF7CB4C523
:10509000F87CE9F4FB7CB5CF0A7DC9CE207DD8CB66
:1050A000227DF7CB277DF4BD2B7DCFD72F7DDBC0B5
:1050B0006E7DF5D0777DEAF4A67DEBF4AE7DECF461
:1050C0003B7EE3F7417EB1B7477EEDF4827EEBD7BE
:1050D0009B7EEEF49F7EF9E6A07EC0BEA17EFAE63E
:1050E000A27EECBAA37EFBE6A47ECBCFA57EFCE637
:1050F000A67EBCD4A77EB6BCA87EFDE6A97EFEE651
:10510000AA7ECDBCAB7ED2C8AC7EB3CEAD7EA1E7CD
:10511000AF7EBFB4B07EA2E7B17EB4C9B27ED9B8CB
:10512000B37EC9C4B57EDDD7B67EDAC2B77ED7B747
:10513000B87EBDD6B97EC6CEBA7EC4B7BD7EA6C582
:10514000BE7EA3E7BF7EDFCFC07EA4E7C17EA5E71A
:10515000C27EA6E7C37EB7C1C47EE9D7C57EF0C9CB
:10516000C67EB8CFC77EAFD6C87ED5D6C97EA7E7E4
:10517000CA7EEDB0CB7EA8E7CC7EA9E7CD7EDCC9A8
:10518000CE7EEFD2CF7EADBED07EAAE7D17EF3B089
:10519000D27EDEC8D37EE1BDD47EABE7D57EC6C865
:1051A000D77EACE7D87EE6BBD97EF8B8DA7EA4D14C
:1051B000DB7EADE7DC7EE7C2DD7EF8BEDE7ECABD0B
:1051C000DF7EB3CDE07EAEE7E17EAFE7E27EEEBE0E
:1051D000E37EE5D0E57EE7CBE67ED0CCE77ECCBCB7
:1051E000E87EB0E7E97EA8BCEA7EF7D0EB7EB1E7C7
:1051F000ED7EF8D0EE7EB2E7EF7EB3E7F07EC2B48C
:10520000F17EB4E7F27EB5E7F37EFEC9F47EACCE64
:10521000F57EE0C3F67EB7E7F77EC1B1F87EF1B365
:10522000FA7EB8E7FB7EB9E7FC7EDBD7FD7EC0D512
:10523000FE7EBAE7FF7ECCC2007FBAD7017FBBE714
:10524000027FBCE7037FBDE7047FEABC057FE5C3BF
:10525000067FC2C0077FBEE7087FBFE7097FA9BC02
:105260000B7FC0E70C7FC1E70D7FB6E70E7FD0B69E
:105270000F7FC2E7117FC3E7127FC4E7137FBABB7A
:10528000147FDEB5157FC6C2167FE0B1177FC5E774
:10529000187FB5D4197FC6E71A7FBFB81B7FC8E750
:1052A0001C7FC7E71D7FECB71F7FC9E7207FF8B2DF
:1052B000217FCAE7227FCBE7237FCCE7247FCDE79E
:1052C000257FCEE7267FCFE7277FD0E7287FA7D3AC
:1052D000297FF5CB2A7FD1E72B7FD2E72C7FD3E73D
:1052E0002D7FD4E72E7FC9C92F7FD5E7307FD6E742
:1052F000317FD7E7327FD8E7337FD9E7347FC9BD25
:10530000357FDAE7367FBEF3387FD7B83A7FB1C84A
:10531000427FBFF3447FC0F3457FC1F3507FDEB9C6
:10532000517FF8CD547FE8D8557FB1BA577FDEC2A0
:10533000587FB7EE5A7FA3B75F7FB9EE617FB8EEB3
:10534000627FD5B0687FBBEE697FD6D56A7FEFD725
:105350006E7FC3D6717FBDEE727FF0CA747FBCEEE4
:10536000797FBEEE7E7FC0EE817FBFEE8A7FF2D175
:105370008C7FBCC78E7FC0C3947FE1B89A7FE7C1A2
:105380009D7FC6F49E7FDFD09F7FC7F4A17FDBCFD8
:10539000A47FBAC8A77FC8F4AF7FC9F4B07FCAF4AE
:1053A000B27FCBF4B87FFAD9B97FFEB8BC7FF1E504
:1053B000BD7FF0D3BF7FE0F4C17FCCCEC57FE1B32A
:1053C000CA7FB4F1CC7FEED2CE7FE1F4D47FE8CFB8
:1053D000D57FE2F4D87FCCC7DF7FD4B5E07FE4B4DB
:1053E000E17FE4F4E57FE3F4E67FE5F4E97FE6F4CA
:1053F000EE7FE7F4F07FB2BAF17FBFB0F37FE8F45D
:10540000FB7FADB7FC7FEDD20080ABD20180CFC077
:105410000380BCBF0480A3EB0580DFD50680C8EA0B
:105420000B80F3F10C80F8B60D80A3CB1080CDC4B7
:105430001280E7F11480E8F11580FBB81680E9F1DD
:105440001780C4BA1880C5D41980D2B01C80EAF184
:105450002080EBF12280ECF12580EDF12680EEF149
:105460002780EFF12880F1F12980F0F12A80D5C55D
:105470003180F2F13380FAB63580F4F13680AED265
:105480003780C7DE3880CACB3B80DCB33D80A2B515
:105490003F80A2B94280F4C44380F5F14680F6F122
:1054A0004A80C4C14B80FBC14C80B0D64D80F7F11F
:1054B0005280F8F15480AAC15880B8C65A80DBBE29
:1054C0006980F9F16A80CFB47180FAF17F80B2ED22
:1054D0008080B1ED8380E0CB8480DED28680C1CB3A
:1054E0008780D8D58980E2C88B80DFC08C80A1BC42
:1054F0009380C1EB9680A4D09880E2D69A80C7B6FC
:105500009B80D8B89C80C0EB9D80CEB89F80BFEBBD
:10551000A080A6B3A180C9B9A280ABD6A480F4B7FD
:10552000A580CAB7A980E7BCAA80BEB7AB80C6EB8E
:10553000AD80C7EBAE80B9B0AF80CFBFB180C5EB57
:10554000B280FDD3B480C8EBB780C9EBBA80CEB7C8
:10555000BC80C2EBBD80C4EBBE80F6C9BF80D7D68D
:10556000C080CDD5C180B2D0C280CFEBC380B8CED1
:10557000C480D0EBC680A8B5CC80B3B1CD80D2EBCF
:10558000CE80A5CCD680D6C5D780D3EBD980D1EB41
:10559000DA80DFC5DB80CEEBDC80A4CADD80D5EB12
:1055A000DE80FBB0E180FABAE480B7D8E580E3F1B1
:1055B000E780CAEBE880CBEBE980CCEBEA80CDEB6F
:1055C000EB80D6EBEC80C0E6ED80D9EBEF80E8BF56
:1055D000F080C8D2F180D7EBF280DCEBF380ECB83E
:1055E000F480D8EBF680BABDF880D8D0FA80B7B096
:1055F000FC80DDEBFD80DCC40281ACD60681E0B42A
:105600000981F6C20A81B9BC0D81DAEB0E81DBEBB0
:105610000F81E0D41081EAC61181D4C41281DFEB7E
:105620001381A7C51481F5D91681B1B21881E4EBB5
:105630001A81C5BD1E81E2EB2C81E3EB2F81ACB852
:105640003181D1CD3281E5EB3681E1EB3881B3C1D7
:105650003E81A2C64681F3CC4881E6EB4A81B0C0C8
:105660004B81B8D24C81E7EB5081AFB85181ADB8D6
:105670005381E8EB5481BBC75581F3CD5981EAEBE7
:105680005A81EBEB6081EDEB6581C8D06781F2EB6D
:105690006981EEEB6D81F1EB6E81F9C87081FCD10F
:1056A0007181ECEB7481E9EB7981B9B87A81D9CF5A
:1056B0007B81E5C47C81EFEB7D81F0EB7E81DACCF0
:1056C0007F81C8CD8081F2B08281F6EB8881F5EBD5
:1056D0008A81B2B28F81E0B89181F7EB9881ECB109
:1056E0009B81C5CC9C81A4C49D81A5CFA381F9EBEE
:1056F000A681A2ECA881F2C5AA81FAEBB381C5C943
:10570000BA81DFE2BB81FEEBC081CECDC181A1ECCD
:10571000C281DBB1C381B7D3C681DCD2CA81FDEBC4
:10572000CC81FBEBE381BCB3E781B0EAEA81D4D75B
:10573000EC81ABF4ED81F4B3F381C1D6F481C2D630
:10574000FB81E9D5FC81CABEFE81A7F40082A8D204
:105750000182A8F40282A9F40482AAF40582CBBED5
:105760000682DFD30C82E0C90D82E1C91082C2F348
:105770001282E6CA1482F2CC1B82B6E21C82B4CB3F
:105780001E82E8CE1F82DBD62182ADF42282AEF4E7
:105790002382AFF42882B2F42A82BDBA2B82B3F4FA
:1057A0002C82E3B02D82B0F42F82B1F43082A2BDFE
:1057B0003182D5B23382B6F43482B7F43582E6B69C
:1057C0003682B0B23782CFCF3882B4F43982ACB4EB
:1057D0003B82B5F43E82B8F44482B9F44782A7CD47
:1057E0004982BAF44B82BBF44F82BCF45882D2CBCC
:1057F0005A82BDF45F82BEF46882BFF46E82DEF42A
:105800006F82BCC17082E8BC7282ABC97382DED188
:105810007482F5E57982B3DC7A82D5D27D82B4DCFC
:105820007E82ACB07F82B5DC8282DABD8482B9DC54
:105830008882C2D88A82B7DC8B82F3D38D82D6C9A4
:105840008E82BADC8F82B6DC9182BBDC9282A2C3EC
:105850009782BCDC9882C5DC9982BDDC9C82DFCE5D
:105860009D82A5D69F82CFDCA182CDDCA482D2DC32
:10587000A582E6BDA682ABC2A882B8DCA982CBDC39
:10588000AA82CEDCAB82BEDCAC82D2B7AD82C5B020
:10589000AE82C7DCAF82BED0B082C1DCB182A8BB11
:1058A000B382BCB7B482CCDCB782C6DCB882BFDCC2
:1058B000B982DBC7BD82BFD1BE82C0DCC182CADC77
:1058C000C482D0DCC782ADCEC882C2DCCA82C3DC4F
:1058D000CB82C8DCCC82C9DCCD82D4B2CE82D1DC12
:1058E000CF82D5CBD182B7D4D282DBDCD382DFDCCE
:1058F000D482A6CCD582E6DCD782E7C3D882DCDCB2
:10590000DB82C1BFDC82D9DCDE82FAB0DF82B6B9CD
:10591000E082E5DCE182D3DCE382C4DCE482D6DC35
:10592000E582F4C8E682E0BFEB82BBC9EF82BDB17D
:10593000F182A2D3F482DADCF782D5DCF982BBC62D
:10594000FB82DEDC0183C2D70283AFC30383B6B719
:105950000483D1C70583A9C30683E2DC0783D8DCAF
:105960000883EBDC0983D4DC0C83DDDC0E83A5BE6D
:105970000F83D7DC1183E0DC1483E3DC1583E4DCE4
:105980001783F8DC1A83E1DC1B83A2DD1C83E7DCD0
:105990002783EBBC2883C4B42B83A3C32C83E7B237
:1059A0002D83FADC2F83F2DC3183EFDC3383FCDCE4
:1059B0003483EEDC3583F0D23683E8B23883D7C83F
:1059C0003983E3C83A83FBDC3C83EDDC4083F7DCBE
:1059D0004383F5DC4683A3BE4783F4DC4983DDB211
:1059E0004F83F3DC5083F6BC5183E8DC5283C4BBA5
:1059F0005483F3C05A83D4BC5B83E9DC5C83EADC68
:105A00005E83F1DC5F83F6DC6083F9DC6183B4B52F
:105A10006383D9C86483E7BB6583FEDC6683FDDCF2
:105A20006783ABD36883A1DD6983A3DD6A83A5DDCA
:105A30006B83F1D26C83A4DD6D83A6DD6E83A7DD5D
:105A40006F83A9D27783C9BA7883A9DD7B83B6DD5A
:105A50007C83B1DD7D83B4DD8583B0DD8683CEC6F6
:105A60008983F2C08E83AFC99283ECDC9383AEDD71
:105A70009883B7DD9B83F0DC9C83AFDD9E83B8DD2C
:105A8000A083ACDDA883B9DDA983B3DDAA83ADDD36
:105A9000AB83AAC4B083A8DDB183B3C0B283ABC16A
:105AA000B383AADDB483ABDDB683B2DDB783F1BBCC
:105AB000B883B5DDB983A8D3BA83BADDBC83BBDDB7
:105AC000BD83A7C3C083D2DDC183BCDDC583D1DD67
:105AD000C783BDB9CA83D5BECC83FABECF83CABA49
:105AE000D483CADDD683C5DDD883BFDDDC83CBB2EA
:105AF000DD83C3DDDF83CBDDE083A4B2E183D5DDCD
:105B0000E583BEDDE983D0C6EA83D0DDF083D4DD52
:105B1000F183E2C1F283C6B7F883CEDDF983CFDD2E
:105B2000FD83C4DD0184BDDD0384CDDD0484D1CCDF
:105B30000684C9DD0B84C2DD0C84C8C30D84BCC6D9
:105B40000E84AECE0F84CCDD1184C8DD1884C1DD97
:105B50001C84C6DD1D84DCC22484A9D32584AAD379
:105B60002684D3DD2784F4CF2884F8C83184E6DD89
:105B70003884C7DD3C84E0DD3D84E4C24684E1DD59
:105B80005184D7DD5784F8D65984D9DD5A84D8DDBD
:105B90005B84F0B85C84D6DD6184CFC66384ADB627
:105BA0006984E2DD6B84F9BA6C84E1D46D84E7DD4D
:105BB0007184D0B47384DADD7584FBBF7684E3DD51
:105BC0007884DFDD7A84DDDD8284D9B58784DBDD0E
:105BD0008884DCDD8984DEDD8B84AFBD8C84E4DDEC
:105BE0008E84E5DD9784F5DD9984C9C39C84E2CB7E
:105BF000A184F2DDAF84E1D8B284D1C6B484F4DDEF
:105C0000B884F4D5B984F3DDBA84F0DDBD84ECDD6D
:105C1000BF84EFDDC184E8DDC484EED0C984D8C878
:105C2000CA84EEDDCD84E9DDD084EADDD184F2CB17
:105C3000D384EDDDD684CDB1DD84B6C0DF84BBBCBA
:105C4000E084F1DDE384F7DDE584F6DDE684EBDD79
:105C5000EC84EEC5F084FBDDFC84A4DEFF84A3DECF
:105C60000C85F8DD1185EFC31385FBC21785E1D5DF
:105C70001A85B5CE1F85FDDD2185CCB22B85E8C404
:105C80002C85DFCA3785BEC73885FADD3985FCDD4E
:105C90003A85FEDD3B85A2DE3C85AAB03D85CEB1CE
:105CA0004385ACDE4885A6DE4985B6BD4A85EFC88A
:105CB0005685A1DE5985A5DE5E85A9DE6485A8DE50
:105CC0006885A7DE7285ADDE7485CCD47985B3DEB8
:105CD0007A85AADE7B85AEDE7E85D9C08485A1B1BA
:105CE0008585B6DE8785B1DE8F85B2DE9B85A6D140
:105CF0009C85B5DEA485AFDEA885B0DEAA85BDD0C3
:105D0000AE85B4DEAF85EDCAB085B9DEB785B8DE45
:105D1000B985B7DEC185BBDEC985E5BDCF85D8B203
:105D2000D085EAC3D385BADED585BAC5DC85BCDEAD
:105D3000E485D9CCE985AAB7FB85E5D4FF85BDDE2E
:105D40000586BFDE1186A2C41686C1DE2786BEDEAA
:105D50002986C0DE3886BAD53C86C2DE4D86AEF2D4
:105D60004E86A2BB4F86B2C25086B0C55186C7C20E
:105D70005486AFF25A86E9D05E86DDD36286BDEBEB
:105D80006B86E6B36C86B0F26E86B1F27186ADCAF0
:105D90007986E7BA7A86B3F27B86B5F27C86B4F26E
:105DA0007D86E4CB7E86BACF7F86B2F28086B4CA87
:105DB0008186CFD28286ECC28A86C3CE8B86B8F229
:105DC0008C86F6B08D86B7F29386BEF29586CFB2FA
:105DD0009C86C1D19D86BAF2A386BCF2A486E9D482
:105DE000A786BBF2A886B6F2A986BFF2AA86BDF244
:105DF000AC86B9F2AF86C7F2B086C4F2B186C6F2FD
:105E0000B486CAF2B586C2F2B686C0F2BA86C5F2C8
:105E1000C086FBD6C486C1F2C686F9C7C786DFC96D
:105E2000C986C8F2CA86C6B9CB86B0B5CE86C3F2DB
:105E3000CF86C9F2D086D0F2D186D6F2D486D7BB2F
:105E4000D886D5F2D986DCCDDB86EBD6DE86D2F2DB
:105E5000DF86D4F2E486F2B8E986CBF2ED86CEF2A4
:105E6000EE86F9C2F086DDD5F186CCF2F286CDF26F
:105E7000F386CFF2F486D3F2F886D9F2F986BCD352
:105E8000FE86EAB60087F1CA0287E4B70387D7F235
:105E90000787D8F20887DAF20987DDF20A87DBF292
:105EA0000D87DCF21287D1D11387D1F21587C9CDC6
:105EB0001787CFCE1887A9D61A87E3F21C87DBC3D2
:105EC0001E87E0F22187AFC02287ECF22387DEF243
:105ED0002587E1F22987E8F22E87E2F23187E7F29F
:105EE0003487E6F23787E9F23B87DFF23E87E4F258
:105EF0003F87EAF24787ACD34887E5F24987F5B296
:105F00004C87F2F24E87ABD05387F5F25787C8BB68
:105F10005987F9F26087F0F26387F6F26487F8F246
:105F20006587FAF26E87F3F27087F1F27487FBBA35
:105F30007687FBB57B87EFF27C87F7F27D87EDF202
:105F40007E87EEF28287EBF28387A6F38587A3F341
:105F50008887A2F38B87F4F28D87DAC89387FBF2E8
:105F60009787A5F39F87F8C3A887FDF2AB87A7F3B0
:105F7000AC87A9F3AD87A4F3AF87FCF2B387ABF38B
:105F8000B587AAF3BA87DDC2BD87AEF3C087B0F389
:105F9000C687A1F3CA87B1F3CB87ACF3D187AFF340
:105FA000D287FEF2D387ADF3DB87B2F3E087B4F399
:105FB000E587A8F3EA87B3F3EE87B5F3F987B7D09F
:105FC000FE87B8F30388F9D90A88B9F31388B7F3C1
:105FD0001588E4C81688B6F31B88BAF32188BBF38A
:105FE0002288C0B43288C3EE3988BCF33C88BDF344
:105FF0004088AAD14488ACF44588C6D04C88D0D01B
:106000004D88DCD15488CECF5788D6BD5988C3D1AE
:106010006188E2BA6288E9E16388C2D26488C2F129
:106020006588B9B26888EDB16988C3F16B88C0C969
:106030006C88C4B36E88F2D97088A5CB7288C4F11D
:106040007788D4D67D88C5F17E88C0F47F88C6F174
:106050008188ACD48288C7F18488C0B08588C1F4B7
:106060008888C2F48B88FCB48D88DBC59288BBCC51
:106070009688E4D09C88E0CDA288C8F1A488F3D9A2
:10608000AB88BBB1AD88AECFB188A4B8B788CAF130
:10609000BC88CBF1C188C3B2C288D1C1C588B0D792
:1060A000C688C9F1C988CCF1CE88CEF1D288F6D99C
:1060B000D488E1D2D588A3D4D888C3F4D988B9C804
:1060C000DF88C4F4E288CDF1E388CFF1E488E3BF50
:1060D000E588D0F1E888D4F1F088D6F1F188D1F1E3
:1060E000F388D1C9F488E1C5F888E3C2F988FCB91E
:1060F000FC88D3F1FE88D5F10289D3B90A89DBF196
:106100001089D6BA1289FDB01389D9F11989D8F14D
:106110001A89D2F11B89DAF12189D7F12589ECC8D6
:106120002A89CACD2B89DDF13089BDE53489DCF1BE
:106130003689DEF14189DFF14489E5CF5E89C5F416
:106140005F89F3BD6689E0F17B89E1F17F89F7CE54
:106150008189AAD28389FBF18689B2B8C189FBBC47
:10616000C289DBB9C489E6B9C589D9C3C689D3CA8E
:10617000C789E8EAC889C0C0C989F5BECA89E9EA01
:10618000CB89EAEACC89EBEACE89ECEACF89EDEA61
:10619000D089EEEAD189EFEAD289C7BDD689FBF56D
:1061A000DA89FDF5DC89FEF5DE89FCF5E389E2BDDF
:1061B000E589A1F6E689A5B4EB89A2F6EF89A3F6F5
:1061C000F389B2EC008AD4D1078AEAD93E8AA4F6D0
:1061D000488ABAEE798AB2D5898AFED38A8ADCCC1B
:1061E000938AC4CA078BC0E5268BA5F6668BAFBE23
:1061F0006C8BA9C6A08BA5DAA18BC6BCA28BA9B655
:10620000A38BBCB8A48BCFC8A58BA5BCA68BA6DAE4
:10621000A78BA7DAA88BD6CCA98BC3C8AA8BA8DA80
:10622000AB8BFDC6AD8BB5D1AE8BE9D2AF8BB6D102
:10623000B08BC7BCB28BB2BDB38BE4BBB48BA9DA55
:10624000B58BAADAB68BC8D1B78BABDAB88BEDD0E9
:10625000B98BEFB6BA8BDBC2BC8BCFCBBD8BEDB7A6
:10626000BE8BE8C9BF8BC3B7C08BF7BEC18BA4D6AA
:10627000C28BACDAC38BADDAC48BC0C6C58BE7D793
:10628000C68BB6CAC88BA9D5C98BDFCBCA8BEFD555
:10629000CB8BAEDACC8BDFD6CD8BCAB4CE8BB0DA5B
:1062A000CF8BAFDAD18BEBD2D28BB1DAD38BB2DA20
:1062B000D48BB3DAD58BD4CAD68BB4DAD78BABCA2E
:1062C000D88BB5DAD98BB6DADA8BCFB3DB8BEFD6D6
:1062D000DC8BB7DADD8BB0BBDE8BAEB5DF8BB8DA2B
:1062E000E08BB9DAE18BEEB9E28BAFD1E38BE8D288
:1062F000E48BBADAE58BC3B8E68BEACFE78BEFB273
:10630000E88BBBDAE98BBCDAEB8BEBBDEC8BDCCE3C
:10631000ED8BEFD3EE8BBDDAEF8BF3CEF08BBEDAE5
:10632000F18BD5D3F28BE5BBF38BBFDAF48BB5CB16
:10633000F58BD0CBF68BC0DAF78BEBC7F88BEED6AC
:10634000F98BC1DAFA8BB5C5FB8BC1B6FC8BC2DA0F
:10635000FD8BCCB7FE8BCEBFFF8BC3DA008CC4DACB
:10636000018CADCB028CC5DA038CF7B5048CC6DA90
:10637000058CC2C1068CBBD7078CC7DA088CB8CC99
:106380000A8CEAD20B8CB1C40C8CC8DA0D8CFDB52A
:106390000E8CD1BB0F8CC9DA108CB3D0118CCADA39
:1063A000128CCBDA138CBDCE148CCCDA158CCDDAF2
:1063B000168CCEDA178CF7B2188CD1DA198CCFDAAA
:1063C0001A8CE8D11B8CD0DA1C8CD5C31D8CD2DA88
:1063D0001F8CD3DA208CD4DA218CD5DA228CBBD076
:1063E000238CA5D2248CF9B0258CD6DA268CABC7A9
:1063F000278CD7DA288CF7BD298CA1C32A8CD8DA50
:106400002B8CD9DA2C8CFDC32D8CB7CC2E8CDADA00
:106410002F8CDBDA308CBEC0318CD7C6328CDCDA04
:10642000338CDDDA348CB4C7358CDEDA368CDFDAC7
:10643000378CC8B9418CEDBB468CB9B6478CF8F4A3
:10644000498CF9F44C8CE3CD558CB9F55A8CE0EBC2
:10645000618CF3CF628CBFBB6A8CC0BA6B8CA5D445
:10646000738CD9E1788CF4F5798CAAB17A8CF2B27C
:10647000828CF5F5858CF7F5898CD1BA8A8CF6F586
:106480008C8CB2C3948CF9F5988CF8F51D8DB4B151
:106490001E8DEAD51F8DBAB8218DB1B9228DC6B235
:1064A000238DF0D4248DCDCF258DDCB0268DCBD59A
:1064B000278DF5BB288DCAD6298DB7B72A8DB0CCCC
:1064C0002B8DB6C62C8DE1B12D8DBAB92E8DFCD693
:1064D0002F8DE1B9308DA1B7318DFABC328DDAEA5A
:1064E000338DDBEA348DF9CC358DF3B9368DDCEAAA
:1064F000378DFBB4388DB3C3398DD1B73A8DD8BA47
:106500003B8DDDEA3C8DF4D43D8DDEEA3E8DD6BC7C
:106510003F8DDFBB408DDFEA418DDEC1428DB8C2C9
:10652000438DDFD4448DCAD7458DE0EA468DE1EA3C
:10653000478DE4EA488DE2EA498DE3EA4A8DDEC9F7
:106540004B8DB3B84C8DC4B64D8DE5EA4E8DEACA7D
:106550004F8DCDC9508DCDB4538DD9E2548DE2C548
:10656000558DE6EA568DB5C0588DB8D7598DE7EAF6
:106570005A8DACD75B8DFCC85C8DD3D85D8DCDD8E2
:106580005E8DDED4608DF9D4618DC4C9628DAED3C9
:10659000638DD3B8648DE0B3668DE2C9678DF6F480
:1065A0006B8DD5BA6D8DF7F4708DDFD7738DF1F4E7
:1065B000748DB0B8758DD4D5768DCFB8778DF0C683
:1065C000818DC3B3848DF2F4858DACB38A8DBDD437
:1065D0008B8DF7C7918DF4F4948DF3F49F8DCBCC14
:1065E000A38DA4C8B18DF5F4B38DE3D7B48DBFC529
:1065F000B58DC0F5B88DBBF5BA8DC3F5BC8DC2F5B0
:10660000BE8DBAD6BF8DC1F5C38DBED4C48DC4F5C1
:10661000C68DCCF5CB8DCFB0CC8DF8B5CE8DC9F570
:10662000CF8DCAF5D18DDCC5D68DC5F5D78DC6F514
:10663000DA8DC7F5DB8DCBF5DD8DE0BEDE8DC8F5DF
:10664000DF8DFAB8E38DD0F5E48DD3F5E88DE7BFA3
:10665000EA8DF2B9EB8DBCF5EC8DCDF5EF8DB7C2BF
:10666000F38DF8CCF58DF9BCF78DCEF5F88DCFF51F
:10667000F98DD1F5FA8DE5B6FB8DD2F5FD8DD5F509
:10668000058EBDF5098ED4F50A8EBBD30C8EECB306
:106690000F8EA4CC148ED6F51D8ED7F51E8EE1BEBE
:1066A0001F8ED8F5228EDFCC238EDBF5298EC8B263
:1066B0002A8ED9D72C8ED9F52E8EDAF52F8EDCF5D1
:1066C000318EE2F5358EE0F5398EDFF53A8EDDF567
:1066D0003D8EE1F5408EDEF5418EE4F5428EE5F526
:1066E000448EE3CC478EBFE5488EB8B5498EE3F5BE
:1066F0004A8EE8F54B8EA3CC518EE6F5528EE7F527
:10670000598EBEF5668EC4B1698EBFF56C8EC5B567
:106710006D8EE4B26F8EECF5708EE9F5728ED7B6A1
:10672000748EEDF5768EEAF57C8EEBF57F8EDAB41D
:10673000818EEAD4858EEEF5878EF9B38F8EEFF5D4
:10674000908EF1F5948EF0F59C8EF2F59E8EF3F519
:10675000AB8EEDC9AC8EAAB9AF8EFBC7B28EE3B6D5
:10676000BA8EC9CCCE8EA6EA668FB5B3678FFED43B
:10677000688FECB9698FF9D06B8FEDE96C8FAAD770
:106780006D8FEEE96E8FD6C26F8FEDC8708FE4BA51
:10679000718FEFE9728FF0E9738FF1E9748FE1D6B1
:1067A000758FF2E9768FF3E9778FF5E9788FF4E961
:1067B000798FF6E97A8FF7E97B8FE1C77C8FF8E96B
:1067C0007D8FD8D47E8FF9E97F8FCEBD818FFAE996
:1067D000828FFBE9838FCFBD848FFCE9858FA8B8BA
:1067E000868FBEC1878FFDE9888FB2B1898FD4BBF8
:1067F0008A8FF5B98B8FFEE98D8FA1EA8E8FA2EA81
:106800008F8FA3EA908FF8B7918FADBC938FE4CAB6
:10681000948FCEE0958FAFD4968FBDCF978FB7D59D
:10682000988FA4EA998FDED59A8FA5EA9B8FC1D065
:106830009C8FBCB99E8FC7B49F8FD9B1A38FB1C0B5
:10684000A88FE6B1A98FE7B1AB8FE8B1B08FBDB328
:10685000B18FE8C8B68FC1E5B98FDFB1BD8FC9C1AF
:10686000BE8FEFB4C18FA8C7C28FD8D3C48FF9C66B
:10687000C58FB8D1C78FFDB9C88FF5C2CE8FADD344
:10688000D08FCBD4D18FFCBDD38FC2E5D48FB5B719
:10689000D58FC3E5D88FB9BBD98FE2D5DB8FF8BDD3
:1068A000DC8FB6D4DD8FA5CEDE8FACC1DF8FD9B340
:1068B000E28FF6CCE48FC6E5E58FC4E5E68FC8E548
:1068C000E88FCAE5E98FC7E5EA8FCFB5EB8FC8C679
:1068D000ED8FFCB5EE8FC5E5F08FF6CAF38FC9E5F5
:1068E000F78FD4C3F88FC5B1F98FA3BCFD8FB7D78D
:1068F0000090CBCD0190CDCB0290CACA0390D3CCEF
:106900000490CCE50590CBE50690E6C40990A1D1B2
:106910000A90B7D10B90CDE50D90D0E50F90B8CD92
:106920001090F0D61190CFE51290DDB51490BECD49
:106930001690D1E51790BAB61A90A8CD1B90E4B97D
:106940001D90C5CA1E90D1B31F90D9CB2090ECD416
:106950002190D2E52290EAB72690CEE52D90D5E59C
:106960002E90FEB42F90D6E53590D3E53690D4E541
:106970003890DDD23B90DFC23C90C6B13E90E2D36E
:106980004190DDB64290ECCB4490D7E54790F6D3EA
:106990004D90E9B14F90F4B65090DAE55190D8E5BA
:1069A0005290D9E55390C0B55790C5D25890DCE5C8
:1069B0005B90DEE56290DDE56390B2C76590A3D29F
:1069C0006890DBE56D90E2D46E90DAD57490E0E5E6
:1069D0007590F1D77D90E1E57F90DCB18090FBD19F
:1069E0008290E2E58390E4E58890E3E58B90E5E52D
:1069F0009190D8D29390CBB59590DFE79790F5DA48
:106A00009990F8DA9B90F6DA9D90F7DAA190FADA8D
:106A1000A290CFD0A390C7C4A690EEB0AA90B0D059
:106A2000AC90F9DAAE90CAD3AF90AABAB090A2DB1C
:106A3000B190F1C7B390FCDAB490FBDAB590DBC942
:106A4000B690FDDAB890A1DBB990DED7BA90FEDA45
:106A5000BB90DAC1BE90A5DBC190F4D3C490A7DB94
:106A6000C590A4DBC790A8DBCA90BCBDCE90C9C0BE
:106A7000CF90A3DBD090A6DBD190A3D6D390A9DB97
:106A8000D790ADDBDB90AEDBDC90ACDBDD90C2BA47
:106A9000E190A4BFE290ABDBE690AADBE790C7D41D
:106AA000E890BFB2EB90AFDBED90F9B9EF90B0DBBF
:106AB000F490BBB3F890A6B5FD90BCB6FE90B1DBE8
:106AC0000291F5B60491B2DB1991C9B11E91B4DB04
:106AD0002291B3DB2391B5DB2F91B7DB3191B6DB8C
:106AE0003991B8DB4391B9DB4691BADB4991CFD3F9
:106AF0004A91FAF44B91F5C74C91C3D74D91E4C537
:106B00004E91FCF44F91FDF45091FBF45291C6BEAE
:106B10005791EFD05A91D3B75D91CDD45E91AACC65
:106B20006191A2F56291A1F56391A8BA6491FEF416
:106B30006591D6CB6991A4F56A91D2C06C91EAB304
:106B40006E91AACD6F91A5F57091A3F57191B4BD29
:106B50007291A8F57491A9F57591CDBD7691B8C3E0
:106B60007791E1BF7891E1CB7991AAF57D91A6F576
:106B70007E91A7F57F91F0C48591ACF58791BCB467
:106B80008991EDD78B91D7B48C91ABF58D91AEF502
:106B90009091ADF59191AFF59291D1D09A91D1C3E9
:106BA0009B91A9C8A291B0F5A391B1F5AA91B2F5B4
:106BB000AD91B3F5AE91B4F5AF91B5F5B491B7F52C
:106BC000B591B6F5BA91B8F5C791C9B2C991D4D308
:106BD000CA91CDCACC91EFC0CD91D8D6CE91B0D2CA
:106BE000CF91BFC1D191F0BDDC91AAB87492F8BC2D
:106BF0008E92C6F6AE92C7F6C892C8F63E93C9F614
