Component: ARM Compiler 5.06 update 1 (build 61) Tool: armlink [4d35a8]

==============================================================================

Section Cross References

    stm32f10x_adc.o(i.ADC_DeInit) refers to stm32f10x_rcc.o(i.RCC_APB2PeriphResetCmd) for RCC_APB2PeriphResetCmd
    stm32f10x_bkp.o(i.BKP_DeInit) refers to stm32f10x_rcc.o(i.RCC_BackupResetCmd) for RCC_BackupResetCmd
    stm32f10x_can.o(i.CAN_DeInit) refers to stm32f10x_rcc.o(i.RCC_APB1PeriphResetCmd) for RCC_APB1PeriphResetCmd
    stm32f10x_can.o(i.CAN_GetITStatus) refers to stm32f10x_can.o(i.CheckITStatus) for CheckITStatus
    stm32f10x_cec.o(i.CEC_DeInit) refers to stm32f10x_rcc.o(i.RCC_APB1PeriphResetCmd) for RCC_APB1PeriphResetCmd
    stm32f10x_dac.o(i.DAC_DeInit) refers to stm32f10x_rcc.o(i.RCC_APB1PeriphResetCmd) for RCC_APB1PeriphResetCmd
    stm32f10x_flash.o(i.FLASH_EnableWriteProtection) refers to stm32f10x_flash.o(i.FLASH_WaitForLastOperation) for FLASH_WaitForLastOperation
    stm32f10x_flash.o(i.FLASH_EraseAllBank1Pages) refers to stm32f10x_flash.o(i.FLASH_WaitForLastBank1Operation) for FLASH_WaitForLastBank1Operation
    stm32f10x_flash.o(i.FLASH_EraseAllPages) refers to stm32f10x_flash.o(i.FLASH_WaitForLastOperation) for FLASH_WaitForLastOperation
    stm32f10x_flash.o(i.FLASH_EraseOptionBytes) refers to stm32f10x_flash.o(i.FLASH_GetReadOutProtectionStatus) for FLASH_GetReadOutProtectionStatus
    stm32f10x_flash.o(i.FLASH_EraseOptionBytes) refers to stm32f10x_flash.o(i.FLASH_WaitForLastOperation) for FLASH_WaitForLastOperation
    stm32f10x_flash.o(i.FLASH_ErasePage) refers to stm32f10x_flash.o(i.FLASH_WaitForLastOperation) for FLASH_WaitForLastOperation
    stm32f10x_flash.o(i.FLASH_ProgramHalfWord) refers to stm32f10x_flash.o(i.FLASH_WaitForLastOperation) for FLASH_WaitForLastOperation
    stm32f10x_flash.o(i.FLASH_ProgramOptionByteData) refers to stm32f10x_flash.o(i.FLASH_WaitForLastOperation) for FLASH_WaitForLastOperation
    stm32f10x_flash.o(i.FLASH_ProgramWord) refers to stm32f10x_flash.o(i.FLASH_WaitForLastOperation) for FLASH_WaitForLastOperation
    stm32f10x_flash.o(i.FLASH_ReadOutProtection) refers to stm32f10x_flash.o(i.FLASH_WaitForLastOperation) for FLASH_WaitForLastOperation
    stm32f10x_flash.o(i.FLASH_UserOptionByteConfig) refers to stm32f10x_flash.o(i.FLASH_WaitForLastOperation) for FLASH_WaitForLastOperation
    stm32f10x_flash.o(i.FLASH_WaitForLastBank1Operation) refers to stm32f10x_flash.o(i.FLASH_GetBank1Status) for FLASH_GetBank1Status
==============================================================================

Removing Unused input sections from the image.

    Removing misc.o(i.NVIC_Init), (112 bytes).
    Removing misc.o(i.NVIC_PriorityGroupConfig), (20 bytes).
    Removing misc.o(i.NVIC_SetVectorTable), (20 bytes).
    Removing misc.o(i.NVIC_SystemLPConfig), (32 bytes).
    Removing misc.o(i.SysTick_CLKSourceConfig), (40 bytes).
    Removing stm32f10x_adc.o(i.ADC_AnalogWatchdogCmd), (20 bytes).
    Removing stm32f10x_adc.o(i.ADC_AnalogWatchdogSingleChannelConfig), (16 bytes).
    Removing stm32f10x_adc.o(i.ADC_AnalogWatchdogThresholdsConfig), (6 bytes).
    Removing stm32f10x_adc.o(i.ADC_AutoInjectedConvCmd), (22 bytes).
    Removing stm32f10x_adc.o(i.ADC_ClearFlag), (6 bytes).
    Removing stm32f10x_adc.o(i.ADC_ClearITPendingBit), (10 bytes).
    Removing stm32f10x_adc.o(i.ADC_Cmd), (22 bytes).
    Removing stm32f10x_adc.o(i.ADC_DMACmd), (22 bytes).
    Removing stm32f10x_adc.o(i.ADC_DeInit), (92 bytes).
    Removing stm32f10x_adc.o(i.ADC_DiscModeChannelCountConfig), (24 bytes).
    Removing stm32f10x_adc.o(i.ADC_DiscModeCmd), (22 bytes).
    Removing stm32f10x_adc.o(i.ADC_ExternalTrigConvCmd), (22 bytes).
    Removing stm32f10x_adc.o(i.ADC_ExternalTrigInjectedConvCmd), (22 bytes).
==============================================================================

Image Symbol Table

    Local Symbols

    Symbol Name                              Value     Ov Type        Size  Object(Section)

    ../clib/microlib/division.c              0x00000000   Number         0  uldiv.o ABSOLUTE
    ../clib/microlib/division.c              0x00000000   Number         0  uidiv.o ABSOLUTE
    ../clib/microlib/errno.c                 0x00000000   Number         0  errno.o ABSOLUTE
    ../clib/microlib/init/entry.s            0x00000000   Number         0  entry10a.o ABSOLUTE
    ../clib/microlib/init/entry.s            0x00000000   Number         0  entry8b.o ABSOLUTE
    ../clib/microlib/init/entry.s            0x00000000   Number         0  entry2.o ABSOLUTE
    ../clib/microlib/init/entry.s            0x00000000   Number         0  entry11b.o ABSOLUTE
    ../clib/microlib/init/entry.s            0x00000000   Number         0  entry9a.o ABSOLUTE
    ../clib/microlib/init/entry.s            0x00000000   Number         0  entry9b.o ABSOLUTE
    ../clib/microlib/init/entry.s            0x00000000   Number         0  entry8a.o ABSOLUTE
    ../clib/microlib/init/entry.s            0x00000000   Number         0  entry11a.o ABSOLUTE
    ../clib/microlib/init/entry.s            0x00000000   Number         0  entry10b.o ABSOLUTE
    ../clib/microlib/init/entry.s            0x00000000   Number         0  entry.o ABSOLUTE
    ../clib/microlib/init/entry.s            0x00000000   Number         0  entry5.o ABSOLUTE
    ../clib/microlib/init/entry.s            0x00000000   Number         0  entry7a.o ABSOLUTE
    ../clib/microlib/init/entry.s            0x00000000   Number         0  entry7b.o ABSOLUTE
    ../clib/microlib/longlong.c              0x00000000   Number         0  llsshr.o ABSOLUTE
    ../clib/microlib/longlong.c              0x00000000   Number         0  llushr.o ABSOLUTE
    ../clib/microlib/longlong.c              0x00000000   Number         0  llshl.o ABSOLUTE
    ../clib/microlib/printf/printf.c         0x00000000   Number         0  printfa.o ABSOLUTE
    ../clib/microlib/stdio/fflush.c          0x00000000   Number         0  fflush.o ABSOLUTE
    ../clib/microlib/stdio/fputc.c           0x00000000   Number         0  fputc.o ABSOLUTE
    ../clib/microlib/stdio/semi.s            0x00000000   Number         0  semi.o ABSOLUTE
    ../clib/microlib/stdio/streams.c         0x00000000   Number         0  stdout.o ABSOLUTE
    ../clib/microlib/string/memcpy.c         0x00000000   Number         0  memcpyb.o ABSOLUTE
    ../clib/microlib/string/memcpy.c         0x00000000   Number         0  memcpya.o ABSOLUTE
    ../clib/microlib/string/strcmp.c         0x00000000   Number         0  strcmp.o ABSOLUTE
    ../clib/microlib/string/strcpy.c         0x00000000   Number         0  strcpy.o ABSOLUTE
    ../clib/microlib/string/strlen.c         0x00000000   Number         0  strlen.o ABSOLUTE
    ../clib/microlib/stubs.s                 0x00000000   Number         0  useno.o ABSOLUTE
    ../clib/microlib/stubs.s                 0x00000000   Number         0  iusesemip.o ABSOLUTE
    ../clib/microlib/stubs.s                 0x00000000   Number         0  iusefp.o ABSOLUTE
    ../fplib/microlib/d2f.c                  0x00000000   Number         0  d2f.o ABSOLUTE
    ../fplib/microlib/f2d.c                  0x00000000   Number         0  f2d.o ABSOLUTE
    ../fplib/microlib/fpadd.c                0x00000000   Number         0  fadd.o ABSOLUTE
    ../fplib/microlib/fpadd.c                0x00000000   Number         0  dadd.o ABSOLUTE
    ../fplib/microlib/fpdiv.c                0x00000000   Number         0  fdiv.o ABSOLUTE
    ../fplib/microlib/fpdiv.c                0x00000000   Number         0  ddiv.o ABSOLUTE
    ../fplib/microlib/fpepilogue.c           0x00000000   Number         0  fepilogue.o ABSOLUTE
    ../fplib/microlib/fpepilogue.c           0x00000000   Number         0  depilogue.o ABSOLUTE
    ../fplib/microlib/fpfix.c                0x00000000   Number         0  ffixui.o ABSOLUTE
    ../fplib/microlib/fpfix.c                0x00000000   Number         0  ffixi.o ABSOLUTE
    ../fplib/microlib/fpfix.c                0x00000000   Number         0  dfixi.o ABSOLUTE
    ../fplib/microlib/fpfix.c                0x00000000   Number         0  dfixui.o ABSOLUTE
    ../fplib/microlib/fpfix.c                0x00000000   Number         0  dfixul.o ABSOLUTE
    ../fplib/microlib/fpflt.c                0x00000000   Number         0  dfltui.o ABSOLUTE
    ../fplib/microlib/fpflt.c                0x00000000   Number         0  fflti.o ABSOLUTE
    ../fplib/microlib/fpflt.c                0x00000000   Number         0  ffltui.o ABSOLUTE
    ../fplib/microlib/fpflt.c                0x00000000   Number         0  dflti.o ABSOLUTE
    ../fplib/microlib/fpmul.c                0x00000000   Number         0  fmul.o ABSOLUTE
    ../fplib/microlib/fpmul.c                0x00000000   Number         0  dmul.o ABSOLUTE
    ../fplib/microlib/fpscalb.c              0x00000000   Number         0  dscalb.o ABSOLUTE
    ../mathlib/cos_i.c                       0x00000000   Number         0  cos_i.o ABSOLUTE
    ../mathlib/dunder.c                      0x00000000   Number         0  dunder.o ABSOLUTE
    ../mathlib/fpclassify.c                  0x00000000   Number         0  fpclassify.o ABSOLUTE
    ../mathlib/poly.c                        0x00000000   Number         0  poly.o ABSOLUTE
    ../mathlib/rred.c                        0x00000000   Number         0  rred.o ABSOLUTE
    ../mathlib/sin.c                         0x00000000   Number         0  sin_x.o ABSOLUTE
    ../mathlib/sin.c                         0x00000000   Number         0  sin.o ABSOLUTE
    ../mathlib/sin_i.c                       0x00000000   Number         0  sin_i.o ABSOLUTE
    ../mathlib/sin_i.c                       0x00000000   Number         0  sin_i_x.o ABSOLUTE
    ..\Driver\GPIO_Driver.c                  0x00000000   Number         0  gpio_driver.o ABSOLUTE
    ..\Driver\I2C_Driver.c                   0x00000000   Number         0  i2c_driver.o ABSOLUTE
    ..\Driver\SPI_Driver.c                   0x00000000   Number         0  spi_driver.o ABSOLUTE
    ..\Driver\STM32_CPU.c                    0x00000000   Number         0  stm32_cpu.o ABSOLUTE
    ..\Driver\Usart_Driver.c                 0x00000000   Number         0  usart_driver.o ABSOLUTE
    ..\FuncTask\ComKeyBoard.c                0x00000000   Number         0  comkeyboard.o ABSOLUTE
    ..\FuncTask\Func_Face.c                  0x00000000   Number         0  func_face.o ABSOLUTE
    ..\Libraries\CMSIS\CM3\CoreSupport\core_cm3.c 0x00000000   Number         0  core_cm3.o ABSOLUTE
    ..\Libraries\CMSIS\CM3\DeviceSupport\ST\STM32F10x\stm32f10x_it.c 0x00000000   Number         0  stm32f10x_it.o ABSOLUTE
    ..\Libraries\CMSIS\CM3\DeviceSupport\ST\STM32F10x\system_stm32f10x.c 0x00000000   Number         0  system_stm32f10x.o ABSOLUTE
    ..\Libraries\STM32F10x_StdPeriph_Driver\src\misc.c 0x00000000   Number         0  misc.o ABSOLUTE
    ..\Libraries\STM32F10x_StdPeriph_Driver\src\stm32f10x_adc.c 0x00000000   Number         0  stm32f10x_adc.o ABSOLUTE
    ..\Libraries\STM32F10x_StdPeriph_Driver\src\stm32f10x_bkp.c 0x00000000   Number         0  stm32f10x_bkp.o ABSOLUTE
    ..\Libraries\STM32F10x_StdPeriph_Driver\src\stm32f10x_can.c 0x00000000   Number         0  stm32f10x_can.o ABSOLUTE
    ..\Libraries\STM32F10x_StdPeriph_Driver\src\stm32f10x_cec.c 0x00000000   Number         0  stm32f10x_cec.o ABSOLUTE
    ..\Libraries\STM32F10x_StdPeriph_Driver\src\stm32f10x_crc.c 0x00000000   Number         0  stm32f10x_crc.o ABSOLUTE
    ..\Libraries\STM32F10x_StdPeriph_Driver\src\stm32f10x_dac.c 0x00000000   Number         0  stm32f10x_dac.o ABSOLUTE
    ..\Libraries\STM32F10x_StdPeriph_Driver\src\stm32f10x_dbgmcu.c 0x00000000   Number         0  stm32f10x_dbgmcu.o ABSOLUTE
    ..\Libraries\STM32F10x_StdPeriph_Driver\src\stm32f10x_dma.c 0x00000000   Number         0  stm32f10x_dma.o ABSOLUTE
    ..\Libraries\STM32F10x_StdPeriph_Driver\src\stm32f10x_exti.c 0x00000000   Number         0  stm32f10x_exti.o ABSOLUTE
    ..\Libraries\STM32F10x_StdPeriph_Driver\src\stm32f10x_flash.c 0x00000000   Number         0  stm32f10x_flash.o ABSOLUTE
    ..\Libraries\STM32F10x_StdPeriph_Driver\src\stm32f10x_fsmc.c 0x00000000   Number         0  stm32f10x_fsmc.o ABSOLUTE
    ..\Libraries\STM32F10x_StdPeriph_Driver\src\stm32f10x_gpio.c 0x00000000   Number         0  stm32f10x_gpio.o ABSOLUTE
    ..\Libraries\STM32F10x_StdPeriph_Driver\src\stm32f10x_i2c.c 0x00000000   Number         0  stm32f10x_i2c.o ABSOLUTE
    ..\Libraries\STM32F10x_StdPeriph_Driver\src\stm32f10x_iwdg.c 0x00000000   Number         0  stm32f10x_iwdg.o ABSOLUTE
    ..\Libraries\STM32F10x_StdPeriph_Driver\src\stm32f10x_pwr.c 0x00000000   Number         0  stm32f10x_pwr.o ABSOLUTE
    ..\Libraries\STM32F10x_StdPeriph_Driver\src\stm32f10x_rcc.c 0x00000000   Number         0  stm32f10x_rcc.o ABSOLUTE
    ..\Libraries\STM32F10x_StdPeriph_Driver\src\stm32f10x_rtc.c 0x00000000   Number         0  stm32f10x_rtc.o ABSOLUTE
    ..\Libraries\STM32F10x_StdPeriph_Driver\src\stm32f10x_sdio.c 0x00000000   Number         0  stm32f10x_sdio.o ABSOLUTE
    ..\Libraries\STM32F10x_StdPeriph_Driver\src\stm32f10x_spi.c 0x00000000   Number         0  stm32f10x_spi.o ABSOLUTE
    ..\Libraries\STM32F10x_StdPeriph_Driver\src\stm32f10x_tim.c 0x00000000   Number         0  stm32f10x_tim.o ABSOLUTE
    ..\Libraries\STM32F10x_StdPeriph_Driver\src\stm32f10x_usart.c 0x00000000   Number         0  stm32f10x_usart.o ABSOLUTE
    ..\Libraries\STM32F10x_StdPeriph_Driver\src\stm32f10x_wwdg.c 0x00000000   Number         0  stm32f10x_wwdg.o ABSOLUTE
    ..\Libraries\Startup\startup_stm32f10x_hd.s 0x00000000   Number         0  startup_stm32f10x_hd.o ABSOLUTE
    ..\RTT\RTT\SEGGER_RTT.c                  0x00000000   Number         0  segger_rtt.o ABSOLUTE
    ..\RTT\RTT\SEGGER_RTT_printf.c           0x00000000   Number         0  segger_rtt_printf.o ABSOLUTE
    ..\RTT\Syscalls\SEGGER_RTT_Syscalls_KEIL.c 0x00000000   Number         0  segger_rtt_syscalls_keil.o ABSOLUTE
    ..\Tools\AppConfig.c                     0x00000000   Number         0  appconfig.o ABSOLUTE
    ..\Tools\CheakOut.c                      0x00000000   Number         0  cheakout.o ABSOLUTE
    ..\Tools\DeBug.c                         0x00000000   Number         0  debug.o ABSOLUTE
    ..\Tools\ModBus.c                        0x00000000   Number         0  modbus.o ABSOLUTE
    ..\Tools\Operation.c                     0x00000000   Number         0  operation.o ABSOLUTE
    ..\Tools\StandardModBus.c                0x00000000   Number         0  standardmodbus.o ABSOLUTE
    ..\Tools\Text.c                          0x00000000   Number         0  text.o ABSOLUTE
    ..\Tos\LockCode.c                        0x00000000   Number         0  lockcode.o ABSOLUTE
    ..\Tos\Tos.c                             0x00000000   Number         0  tos.o ABSOLUTE
    ..\Tos\Tos_Device.c                      0x00000000   Number         0  tos_device.o ABSOLUTE
    ..\Tos\Tos_Mema.c                        0x00000000   Number         0  tos_mema.o ABSOLUTE
    ..\Tos\Tos_timer.c                       0x00000000   Number         0  tos_timer.o ABSOLUTE
    ..\Tos\tos_core_a.asm                    0x00000000   Number         0  tos_core_a.o ABSOLUTE
    ..\USER\Main.c                           0x00000000   Number         0  main.o ABSOLUTE
    ..\\Libraries\\CMSIS\\CM3\\CoreSupport\\core_cm3.c 0x00000000   Number         0  core_cm3.o ABSOLUTE
    cdrcmple.s                               0x00000000   Number         0  cdrcmple.o ABSOLUTE
    cfcmple.s                                0x00000000   Number         0  cfcmple.o ABSOLUTE
    cfrcmple.s                               0x00000000   Number         0  cfrcmple.o ABSOLUTE
    dc.s                                     0x00000000   Number         0  dc.o ABSOLUTE
    handlers.s                               0x00000000   Number         0  handlers.o ABSOLUTE
    init.s                                   0x00000000   Number         0  init.o ABSOLUTE
    RESET                                    0x08000000   Section      304  startup_stm32f10x_hd.o(RESET)
    .ARM.Collect$$$$00000000                 0x08000130   Section        0  entry.o(.ARM.Collect$$$$00000000)
    .ARM.Collect$$$$00000001                 0x08000130   Section        4  entry2.o(.ARM.Collect$$$$00000001)
    .ARM.Collect$$$$00000004                 0x08000134   Section        4  entry5.o(.ARM.Collect$$$$00000004)
    .ARM.Collect$$$$00000008                 0x08000138   Section        0  entry7b.o(.ARM.Collect$$$$00000008)
    .ARM.Collect$$$$0000000A                 0x08000138   Section        0  entry8b.o(.ARM.Collect$$$$0000000A)
    .ARM.Collect$$$$0000000B                 0x08000138   Section        8  entry9a.o(.ARM.Collect$$$$0000000B)
    .ARM.Collect$$$$0000000D                 0x08000140   Section        0  entry10a.o(.ARM.Collect$$$$0000000D)
    .ARM.Collect$$$$0000000F                 0x08000140   Section        0  entry11a.o(.ARM.Collect$$$$0000000F)
    .ARM.Collect$$$$00002712                 0x08000140   Section        4  entry2.o(.ARM.Collect$$$$00002712)
    __lit__00000000                          0x08000140   Data           4  entry2.o(.ARM.Collect$$$$00002712)
    .text                                    0x08000144   Section       36  startup_stm32f10x_hd.o(.text)
    .text                                    0x08000168   Section        0  memcpya.o(.text)
    .text                                    0x0800018c   Section        0  strcpy.o(.text)
    .text                                    0x0800019e   Section        0  dadd.o(.text)
    .text                                    0x080002ec   Section        0  dmul.o(.text)
    .text                                    0x080003d0   Section        0  ddiv.o(.text)
    .text                                    0x080004ae   Section        0  dfixi.o(.text)
    .text                                    0x080004ec   Section        0  uidiv.o(.text)
    .text                                    0x08000518   Section        0  uldiv.o(.text)
    .text                                    0x0800057a   Section        0  llshl.o(.text)
    .text                                    0x08000598   Section        0  llushr.o(.text)
    .text                                    0x080005b8   Section        0  llsshr.o(.text)
    .text                                    0x080005dc   Section        0  iusefp.o(.text)
    .text                                    0x080005dc   Section        0  depilogue.o(.text)
    .text                                    0x08000696   Section        0  dfixul.o(.text)
    .text                                    0x080006c8   Section       48  cdrcmple.o(.text)
    .text                                    0x080006f8   Section       36  init.o(.text)
    TOS_CORE_A                               0x0800071c   Section       80  tos_core_a.o(TOS_CORE_A)
    i.App_DisCoppy                           0x0800076c   Section        0  lockcode.o(i.App_DisCoppy)
    i.BOOL_LoadConfigs                       0x080007b0   Section        0  main.o(i.BOOL_LoadConfigs)
    i.BareDelay                              0x080007d0   Section        0  stm32_cpu.o(i.BareDelay)
    i.BusFault_Handler                       0x080007ea   Section        0  stm32f10x_it.o(i.BusFault_Handler)
    i.DeBug                                  0x080007f0   Section        0  debug.o(i.DeBug)
    i.DeBug_SetCallBack                      0x0800097c   Section        0  debug.o(i.DeBug_SetCallBack)
    i.DebugMon_Handler                       0x08000988   Section        0  stm32f10x_it.o(i.DebugMon_Handler)
    i.DeviceList_Init                        0x0800098c   Section        0  tos_device.o(i.DeviceList_Init)
    i.DeviceList_Printf                      0x08000a0c   Section        0  tos_device.o(i.DeviceList_Printf)
    i.DeviceMount_GPIO                       0x08000af4   Section        0  gpio_driver.o(i.DeviceMount_GPIO)
    i.Device_Init                            0x08000bc0   Section        0  tos_device.o(i.Device_Init)
    i.Device_Ok                              0x08000c78   Section        0  tos_device.o(i.Device_Ok)
    i.EXTI_ClearITPendingBit                 0x08000c9c   Section        0  stm32f10x_exti.o(i.EXTI_ClearITPendingBit)
    i.FLASH_ErasePage                        0x08000ca8   Section        0  stm32f10x_flash.o(i.FLASH_ErasePage)
    i.FLASH_GetBank1Status                   0x08000cf4   Section        0  stm32f10x_flash.o(i.FLASH_GetBank1Status)
    i.FLASH_Lock                             0x08000d28   Section        0  stm32f10x_flash.o(i.FLASH_Lock)
    i.FLASH_ProgramHalfWord                  0x08000d3c   Section        0  stm32f10x_flash.o(i.FLASH_ProgramHalfWord)
    i.FLASH_Unlock                           0x08000d7c   Section        0  stm32f10x_flash.o(i.FLASH_Unlock)
    i.FLASH_WaitForLastOperation             0x08000d94   Section        0  stm32f10x_flash.o(i.FLASH_WaitForLastOperation)
    i.Flash_ReadData                         0x08000dba   Section        0  appconfig.o(i.Flash_ReadData)
    i.Flash_WriteData                        0x08000dd6   Section        0  appconfig.o(i.Flash_WriteData)
    i.FlowPoolFilter                         0x08000e4c   Section        0  text.o(i.FlowPoolFilter)
    i.GPIO_GetIndex                          0x08000e88   Section        0  gpio_driver.o(i.GPIO_GetIndex)
    i.GPIO_Init                              0x08000ec4   Section        0  stm32f10x_gpio.o(i.GPIO_Init)
    i.GPIO_InitList                          0x08000fdc   Section        0  stm32_cpu.o(i.GPIO_InitList)
    i.GPIO_PinRemapConfig                    0x08001064   Section        0  stm32f10x_gpio.o(i.GPIO_PinRemapConfig)
    i.GPIO_ReadInputDataBit                  0x080010f4   Section        0  stm32f10x_gpio.o(i.GPIO_ReadInputDataBit)
    i.GPIO_ResetBits                         0x08001106   Section        0  stm32f10x_gpio.o(i.GPIO_ResetBits)
    i.GPIO_Set                               0x0800110a   Section        0  gpio_driver.o(i.GPIO_Set)
    i.GPIO_SetBits                           0x08001128   Section        0  stm32f10x_gpio.o(i.GPIO_SetBits)
    i.GPIO_SetIndex                          0x0800112c   Section        0  gpio_driver.o(i.GPIO_SetIndex)
    i.GPIO_Weigh_Init                        0x08001160   Section        0  main.o(i.GPIO_Weigh_Init)
    i.GetChar_List                           0x0800119c   Section        0  debug.o(i.GetChar_List)
    i.GetCodeStr64                           0x0800121c   Section        0  stm32_cpu.o(i.GetCodeStr64)
    i.GetTextLength                          0x0800128c   Section        0  text.o(i.GetTextLength)
    i.GetTosTask_Count                       0x080012a4   Section        0  stm32_cpu.o(i.GetTosTask_Count)
    i.HardFault_Handler                      0x080012d0   Section        0  stm32f10x_it.o(i.HardFault_Handler)
    i.IAP_ErasePage                          0x080012d8   Section        0  stm32_cpu.o(i.IAP_ErasePage)
    i.IAP_Lock                               0x080012e4   Section        0  stm32_cpu.o(i.IAP_Lock)
    i.IAP_ProgramHalfWord                    0x080012ec   Section        0  stm32_cpu.o(i.IAP_ProgramHalfWord)
    i.IAP_Unlock                             0x080012fc   Section        0  stm32_cpu.o(i.IAP_Unlock)
    i.IWDG_Configuration                     0x08001304   Section        0  stm32_cpu.o(i.IWDG_Configuration)
    i.IWDG_Enable                            0x08001328   Section        0  stm32f10x_iwdg.o(i.IWDG_Enable)
    i.IWDG_ReloadCounter                     0x08001338   Section        0  stm32f10x_iwdg.o(i.IWDG_ReloadCounter)
    i.IWDG_SetPrescaler                      0x08001348   Section        0  stm32f10x_iwdg.o(i.IWDG_SetPrescaler)
    i.IWDG_SetReload                         0x08001354   Section        0  stm32f10x_iwdg.o(i.IWDG_SetReload)
    i.IWDG_WriteAccessCmd                    0x08001360   Section        0  stm32f10x_iwdg.o(i.IWDG_WriteAccessCmd)
    i.Load_AppConfig                         0x0800136c   Section        0  appconfig.o(i.Load_AppConfig)
    i.Load_VoidConfig                        0x08001388   Section        0  appconfig.o(i.Load_VoidConfig)
    i.MCU_Reset                              0x080013f0   Section        0  stm32_cpu.o(i.MCU_Reset)
    i.MemManage_Handler                      0x08001418   Section        0  stm32f10x_it.o(i.MemManage_Handler)
    i.Mema_Count                             0x0800141c   Section        0  tos_mema.o(i.Mema_Count)
    i.Mema_Free                              0x08001438   Section        0  tos_mema.o(i.Mema_Free)
    i.Mema_Init                              0x08001468   Section        0  tos_mema.o(i.Mema_Init)
    i.Mema_Malloc                            0x08001484   Section        0  tos_mema.o(i.Mema_Malloc)
    i.NMI_Handler                            0x080014d0   Section        0  stm32f10x_it.o(i.NMI_Handler)
    i.Opera_WhithADC                         0x080014d2   Section        0  operation.o(i.Opera_WhithADC)
    i.PendSV_Handler                         0x08001548   Section        0  stm32f10x_it.o(i.PendSV_Handler)
    i.Printf_BoardInfor                      0x0800154c   Section        0  stm32_cpu.o(i.Printf_BoardInfor)
    i.Printf_LcdType                         0x080015dc   Section        0  stm32_cpu.o(i.Printf_LcdType)
    i.Printf_LockCode                        0x080015e0   Section        0  stm32_cpu.o(i.Printf_LockCode)
    i.Printf_NandInfor                       0x08001604   Section        0  stm32_cpu.o(i.Printf_NandInfor)
    i.Printf_SysInfor                        0x08001608   Section        0  stm32_cpu.o(i.Printf_SysInfor)
    i.Printf_TaskInfor                       0x0800164c   Section        0  stm32_cpu.o(i.Printf_TaskInfor)
    i.Printf_TosInfor                        0x0800168c   Section        0  stm32_cpu.o(i.Printf_TosInfor)
    i.RCC_APB2PeriphClockCmd                 0x08001720   Section        0  stm32f10x_rcc.o(i.RCC_APB2PeriphClockCmd)
    i.RTT_LOG                                0x08001740   Section        0  main.o(i.RTT_LOG)
    i.Read_Weigh                             0x08001750   Section        0  main.o(i.Read_Weigh)
    i.Remap_SWJ_JTAGDisable                  0x080017e8   Section        0  stm32_cpu.o(i.Remap_SWJ_JTAGDisable)
    i.SEGGER_RTT_Init                        0x080017f8   Section        0  segger_rtt.o(i.SEGGER_RTT_Init)
    i.SEGGER_RTT_Write                       0x08001800   Section        0  segger_rtt.o(i.SEGGER_RTT_Write)
    i.SEGGER_RTT_WriteNoLock                 0x08001848   Section        0  segger_rtt.o(i.SEGGER_RTT_WriteNoLock)
    i.SEGGER_RTT_printf                      0x080018cc   Section        0  segger_rtt_printf.o(i.SEGGER_RTT_printf)
    i.SEGGER_RTT_vprintf                     0x080018ee   Section        0  segger_rtt_printf.o(i.SEGGER_RTT_vprintf)
    i.SVC_Handler                            0x08001af8   Section        0  stm32f10x_it.o(i.SVC_Handler)
    i.Save_AppConfig                         0x08001afc   Section        0  appconfig.o(i.Save_AppConfig)
    i.Save_VoidConfig                        0x08001b18   Section        0  appconfig.o(i.Save_VoidConfig)
    i.SetSysClock                            0x08001b44   Section        0  system_stm32f10x.o(i.SetSysClock)
    i.SetSysClockTo72                        0x08001b4c   Section        0  system_stm32f10x.o(i.SetSysClockTo72)
    SetSysClockTo72                          0x08001b4d   Thumb Code   214  system_stm32f10x.o(i.SetSysClockTo72)
    i.StringEndingAppend                     0x08001c2c   Section        0  text.o(i.StringEndingAppend)
    i.SysTick_Handler                        0x08001c6e   Section        0  stm32f10x_it.o(i.SysTick_Handler)
    i.SysTick_Set                            0x08001c78   Section        0  stm32_cpu.o(i.SysTick_Set)
    i.SystemInit                             0x08001cd0   Section        0  system_stm32f10x.o(i.SystemInit)
    i.Task0                                  0x08001d30   Section        0  main.o(i.Task0)
    i.Task1                                  0x08001d70   Section        0  main.o(i.Task1)
    i.Task_SaveConfigs                       0x08001ee8   Section        0  main.o(i.Task_SaveConfigs)
    i.ToHex64                                0x08001f08   Section        0  text.o(i.ToHex64)
    i.Tools_GetCRC16                         0x08001f34   Section        0  cheakout.o(i.Tools_GetCRC16)
    i.Tos_ComputeCPURate                     0x08001f74   Section        0  tos.o(i.Tos_ComputeCPURate)
    i.Tos_Init                               0x08001fd0   Section        0  tos.o(i.Tos_Init)
    i.Tos_ListCreate                         0x08002068   Section        0  tos.o(i.Tos_ListCreate)
    i.Tos_RootTask                           0x08002088   Section        0  tos.o(i.Tos_RootTask)
    i.Tos_ScanTimer                          0x080020b0   Section        0  tos_timer.o(i.Tos_ScanTimer)
    i.Tos_Start                              0x080020e8   Section        0  tos.o(i.Tos_Start)
    i.Tos_SysTick                            0x08002118   Section        0  tos.o(i.Tos_SysTick)
    i.Tos_TaskCreate                         0x08002160   Section        0  tos.o(i.Tos_TaskCreate)
    i.Tos_TaskCreateFindID                   0x08002230   Section        0  tos.o(i.Tos_TaskCreateFindID)
    i.Tos_TaskDelay                          0x08002294   Section        0  tos.o(i.Tos_TaskDelay)
    i.Tos_TaskReady                          0x080022f4   Section        0  tos.o(i.Tos_TaskReady)
    i.Tos_TaskResume                         0x080023b4   Section        0  tos.o(i.Tos_TaskResume)
    i.Tos_TaskRun                            0x08002420   Section        0  tos.o(i.Tos_TaskRun)
    i.Tos_TaskStackInit                      0x08002474   Section        0  tos.o(i.Tos_TaskStackInit)
    i.Tos_TaskStart                          0x080024e4   Section        0  tos.o(i.Tos_TaskStart)
    i.Tos_TaskStop                           0x08002508   Section        0  tos.o(i.Tos_TaskStop)
    i.Tos_TaskSwitch                         0x08002554   Section        0  tos.o(i.Tos_TaskSwitch)
    i.Tos_TaskTcbInit                        0x080025f4   Section        0  tos.o(i.Tos_TaskTcbInit)
    i.Tos_TaskTimeout                        0x08002608   Section        0  tos.o(i.Tos_TaskTimeout)
    i.Tos_TimerReady                         0x0800265c   Section        0  tos_timer.o(i.Tos_TimerReady)
    i.UART4_IRQHandler                       0x080026b0   Section        0  usart_driver.o(i.UART4_IRQHandler)
    i.UART5_IRQHandler                       0x08002710   Section        0  usart_driver.o(i.UART5_IRQHandler)
    i.USART1_IRQHandler                      0x08002770   Section        0  usart_driver.o(i.USART1_IRQHandler)
    i.USART2_IRQHandler                      0x080027d0   Section        0  usart_driver.o(i.USART2_IRQHandler)
    i.USART3_IRQHandler                      0x08002830   Section        0  usart_driver.o(i.USART3_IRQHandler)
    i.USART_ClearITPendingBit                0x08002890   Section        0  stm32f10x_usart.o(i.USART_ClearITPendingBit)
    i.USART_GetITStatus                      0x080028ae   Section        0  stm32f10x_usart.o(i.USART_GetITStatus)
    i.USART_WriteDatas                       0x08002902   Section        0  usart_driver.o(i.USART_WriteDatas)
    i.USBWakeUp_IRQHandler                   0x08002924   Section        0  stm32f10x_it.o(i.USBWakeUp_IRQHandler)
    i.UsageFault_Handler                     0x08002930   Section        0  stm32f10x_it.o(i.UsageFault_Handler)
    i._DoInit                                0x08002934   Section        0  segger_rtt.o(i._DoInit)
    _DoInit                                  0x08002935   Thumb Code    74  segger_rtt.o(i._DoInit)
    i._GetAvailWriteSpace                    0x080029a4   Section        0  segger_rtt.o(i._GetAvailWriteSpace)
    _GetAvailWriteSpace                      0x080029a5   Thumb Code    28  segger_rtt.o(i._GetAvailWriteSpace)
    i._PrintInt                              0x080029c0   Section        0  segger_rtt_printf.o(i._PrintInt)
    _PrintInt                                0x080029c1   Thumb Code   236  segger_rtt_printf.o(i._PrintInt)
    i._PrintUnsigned                         0x08002aac   Section        0  segger_rtt_printf.o(i._PrintUnsigned)
    _PrintUnsigned                           0x08002aad   Thumb Code   230  segger_rtt_printf.o(i._PrintUnsigned)
    i._StoreChar                             0x08002b98   Section        0  segger_rtt_printf.o(i._StoreChar)
    _StoreChar                               0x08002b99   Thumb Code    68  segger_rtt_printf.o(i._StoreChar)
    i._WriteBlocking                         0x08002bdc   Section        0  segger_rtt.o(i._WriteBlocking)
    _WriteBlocking                           0x08002bdd   Thumb Code   114  segger_rtt.o(i._WriteBlocking)
    i._WriteNoCheck                          0x08002c4e   Section        0  segger_rtt.o(i._WriteNoCheck)
    _WriteNoCheck                            0x08002c4f   Thumb Code    76  segger_rtt.o(i._WriteNoCheck)
    i.__0vsprintf                            0x08002c9c   Section        0  printfa.o(i.__0vsprintf)
    i.__scatterload_copy                     0x08002cc0   Section       14  handlers.o(i.__scatterload_copy)
    i.__scatterload_null                     0x08002cce   Section        2  handlers.o(i.__scatterload_null)
    i.__scatterload_zeroinit                 0x08002cd0   Section       14  handlers.o(i.__scatterload_zeroinit)
    i._fp_digits                             0x08002ce0   Section        0  printfa.o(i._fp_digits)
    _fp_digits                               0x08002ce1   Thumb Code   334  printfa.o(i._fp_digits)
    i._printf_core                           0x08002e44   Section        0  printfa.o(i._printf_core)
    _printf_core                             0x08002e45   Thumb Code  1744  printfa.o(i._printf_core)
    i._printf_post_padding                   0x08003520   Section        0  printfa.o(i._printf_post_padding)
    _printf_post_padding                     0x08003521   Thumb Code    36  printfa.o(i._printf_post_padding)
    i._printf_pre_padding                    0x08003544   Section        0  printfa.o(i._printf_pre_padding)
    _printf_pre_padding                      0x08003545   Thumb Code    46  printfa.o(i._printf_pre_padding)
    i._sputc                                 0x08003572   Section        0  printfa.o(i._sputc)
    _sputc                                   0x08003573   Thumb Code    10  printfa.o(i._sputc)
    i.delay_us                               0x0800357c   Section        0  i2c_driver.o(i.delay_us)
    i.main                                   0x0800358c   Section        0  main.o(i.main)
    i.ok_blink                               0x080035b4   Section        0  main.o(i.ok_blink)
    .constdata                               0x080035ea   Section       34  lockcode.o(.constdata)
    .constdata                               0x0800360c   Section      512  cheakout.o(.constdata)
    .constdata                               0x0800380c   Section      216  main.o(.constdata)
    .constdata                               0x080038e4   Section       16  segger_rtt_printf.o(.constdata)
    _aV2C                                    0x080038e4   Data          16  segger_rtt_printf.o(.constdata)
    .conststring                             0x080038f4   Section       14  main.o(.conststring)
    .data                                    0x20000000   Section       20  usart_driver.o(.data)
    .data                                    0x20000014   Section        2  gpio_driver.o(.data)
    .data                                    0x20000018   Section       37  tos.o(.data)
    Count                                    0x20000034   Data           1  tos.o(.data)
    i                                        0x20000035   Data           1  tos.o(.data)
    Pool                                     0x20000038   Data           4  tos.o(.data)
    Use                                      0x2000003c   Data           1  tos.o(.data)
    .data                                    0x20000040   Section        8  tos_device.o(.data)
    .data                                    0x20000048   Section        4  tos_mema.o(.data)
    .data                                    0x2000004c   Section        4  tos_timer.o(.data)
    .data                                    0x20000050   Section        7  debug.o(.data)
    .bss                                     0x20000058   Section       60  usart_driver.o(.bss)
    .bss                                     0x20000094   Section    12000  tos_mema.o(.bss)
    .bss                                     0x20002f74   Section       32  main.o(.bss)
    .bss                                     0x20002f94   Section     1160  segger_rtt.o(.bss)
    _acUpBuffer                              0x2000300c   Data        1024  segger_rtt.o(.bss)
    _acDownBuffer                            0x2000340c   Data          16  segger_rtt.o(.bss)
    STACK                                    0x20003420   Section     1024  startup_stm32f10x_hd.o(STACK)

    Global Symbols

    Symbol Name                              Value     Ov Type        Size  Object(Section)

    BuildAttributes$$THM_ISAv4$P$D$K$B$S$PE$A:L22UL41UL21$X:L11$S22US41US21$IEEE1$IW$USESV6$~STKCKD$USESV7$~SHL$OTIME$ROPI$IEEEX$EBA8$MICROLIB$REQ8$PRES8$EABIv2 0x00000000   Number         0  anon$$obj.o ABSOLUTE
    __ARM_use_no_argv                        0x00000000   Number         0  main.o ABSOLUTE
    __use_no_errno                           0x00000000   Number         0  useno.o ABSOLUTE
    __use_no_exception_handling              0x00000000   Number         0  useno.o ABSOLUTE
    __use_no_fp                              0x00000000   Number         0  useno.o ABSOLUTE
    __use_no_heap                            0x00000000   Number         0  useno.o ABSOLUTE
    __use_no_heap_region                     0x00000000   Number         0  useno.o ABSOLUTE
    __use_no_semihosting                     0x00000000   Number         0  useno.o ABSOLUTE
    __use_no_semihosting_swi                 0x00000000   Number         0  useno.o ABSOLUTE
    __use_no_signal_handling                 0x00000000   Number         0  useno.o ABSOLUTE
    __cpp_initialize__aeabi_                  - Undefined Weak Reference
    __cxa_finalize                            - Undefined Weak Reference
    __decompress                              - Undefined Weak Reference
    _clock_init                               - Undefined Weak Reference
    _microlib_exit                            - Undefined Weak Reference
    __Vectors_Size                           0x00000130   Number         0  startup_stm32f10x_hd.o ABSOLUTE
    __Vectors                                0x08000000   Data           4  startup_stm32f10x_hd.o(RESET)
    __Vectors_End                            0x08000130   Data           0  startup_stm32f10x_hd.o(RESET)
    __main                                   0x08000131   Thumb Code     0  entry.o(.ARM.Collect$$$$00000000)
    _main_stk                                0x08000131   Thumb Code     0  entry2.o(.ARM.Collect$$$$00000001)
    _main_scatterload                        0x08000135   Thumb Code     0  entry5.o(.ARM.Collect$$$$00000004)
    __main_after_scatterload                 0x08000139   Thumb Code     0  entry5.o(.ARM.Collect$$$$00000004)
    _main_clock                              0x08000139   Thumb Code     0  entry7b.o(.ARM.Collect$$$$00000008)
    _main_cpp_init                           0x08000139   Thumb Code     0  entry8b.o(.ARM.Collect$$$$0000000A)
    _main_init                               0x08000139   Thumb Code     0  entry9a.o(.ARM.Collect$$$$0000000B)
    __rt_final_cpp                           0x08000141   Thumb Code     0  entry10a.o(.ARM.Collect$$$$0000000D)
    __rt_final_exit                          0x08000141   Thumb Code     0  entry11a.o(.ARM.Collect$$$$0000000F)
    Reset_Handler                            0x08000145   Thumb Code     8  startup_stm32f10x_hd.o(.text)
    ADC1_2_IRQHandler                        0x0800015f   Thumb Code     0  startup_stm32f10x_hd.o(.text)
    ADC3_IRQHandler                          0x0800015f   Thumb Code     0  startup_stm32f10x_hd.o(.text)
    CAN1_RX1_IRQHandler                      0x0800015f   Thumb Code     0  startup_stm32f10x_hd.o(.text)
    CAN1_SCE_IRQHandler                      0x0800015f   Thumb Code     0  startup_stm32f10x_hd.o(.text)
    DMA1_Channel1_IRQHandler                 0x0800015f   Thumb Code     0  startup_stm32f10x_hd.o(.text)
    DMA1_Channel2_IRQHandler                 0x0800015f   Thumb Code     0  startup_stm32f10x_hd.o(.text)
    DMA1_Channel3_IRQHandler                 0x0800015f   Thumb Code     0  startup_stm32f10x_hd.o(.text)
    DMA1_Channel4_IRQHandler                 0x0800015f   Thumb Code     0  startup_stm32f10x_hd.o(.text)
    DMA1_Channel5_IRQHandler                 0x0800015f   Thumb Code     0  startup_stm32f10x_hd.o(.text)
    DMA1_Channel6_IRQHandler                 0x0800015f   Thumb Code     0  startup_stm32f10x_hd.o(.text)
    DMA1_Channel7_IRQHandler                 0x0800015f   Thumb Code     0  startup_stm32f10x_hd.o(.text)
    DMA2_Channel1_IRQHandler                 0x0800015f   Thumb Code     0  startup_stm32f10x_hd.o(.text)
    DMA2_Channel2_IRQHandler                 0x0800015f   Thumb Code     0  startup_stm32f10x_hd.o(.text)
    DMA2_Channel3_IRQHandler                 0x0800015f   Thumb Code     0  startup_stm32f10x_hd.o(.text)
    DMA2_Channel4_5_IRQHandler               0x0800015f   Thumb Code     0  startup_stm32f10x_hd.o(.text)
    EXTI0_IRQHandler                         0x0800015f   Thumb Code     0  startup_stm32f10x_hd.o(.text)
    EXTI15_10_IRQHandler                     0x0800015f   Thumb Code     0  startup_stm32f10x_hd.o(.text)
    EXTI1_IRQHandler                         0x0800015f   Thumb Code     0  startup_stm32f10x_hd.o(.text)
    EXTI2_IRQHandler                         0x0800015f   Thumb Code     0  startup_stm32f10x_hd.o(.text)
    EXTI3_IRQHandler                         0x0800015f   Thumb Code     0  startup_stm32f10x_hd.o(.text)
    EXTI4_IRQHandler                         0x0800015f   Thumb Code     0  startup_stm32f10x_hd.o(.text)
    EXTI9_5_IRQHandler                       0x0800015f   Thumb Code     0  startup_stm32f10x_hd.o(.text)
    FLASH_IRQHandler                         0x0800015f   Thumb Code     0  startup_stm32f10x_hd.o(.text)
    FSMC_IRQHandler                          0x0800015f   Thumb Code     0  startup_stm32f10x_hd.o(.text)
    I2C1_ER_IRQHandler                       0x0800015f   Thumb Code     0  startup_stm32f10x_hd.o(.text)
    I2C1_EV_IRQHandler                       0x0800015f   Thumb Code     0  startup_stm32f10x_hd.o(.text)
    I2C2_ER_IRQHandler                       0x0800015f   Thumb Code     0  startup_stm32f10x_hd.o(.text)
    I2C2_EV_IRQHandler                       0x0800015f   Thumb Code     0  startup_stm32f10x_hd.o(.text)
    PVD_IRQHandler                           0x0800015f   Thumb Code     0  startup_stm32f10x_hd.o(.text)
    RCC_IRQHandler                           0x0800015f   Thumb Code     0  startup_stm32f10x_hd.o(.text)
    RTCAlarm_IRQHandler                      0x0800015f   Thumb Code     0  startup_stm32f10x_hd.o(.text)
    RTC_IRQHandler                           0x0800015f   Thumb Code     0  startup_stm32f10x_hd.o(.text)
    SDIO_IRQHandler                          0x0800015f   Thumb Code     0  startup_stm32f10x_hd.o(.text)
    SPI1_IRQHandler                          0x0800015f   Thumb Code     0  startup_stm32f10x_hd.o(.text)
    SPI2_IRQHandler                          0x0800015f   Thumb Code     0  startup_stm32f10x_hd.o(.text)
    SPI3_IRQHandler                          0x0800015f   Thumb Code     0  startup_stm32f10x_hd.o(.text)
    TAMPER_IRQHandler                        0x0800015f   Thumb Code     0  startup_stm32f10x_hd.o(.text)
    TIM1_BRK_IRQHandler                      0x0800015f   Thumb Code     0  startup_stm32f10x_hd.o(.text)
    TIM1_CC_IRQHandler                       0x0800015f   Thumb Code     0  startup_stm32f10x_hd.o(.text)
    TIM1_TRG_COM_IRQHandler                  0x0800015f   Thumb Code     0  startup_stm32f10x_hd.o(.text)
    TIM1_UP_IRQHandler                       0x0800015f   Thumb Code     0  startup_stm32f10x_hd.o(.text)
    TIM2_IRQHandler                          0x0800015f   Thumb Code     0  startup_stm32f10x_hd.o(.text)
    TIM3_IRQHandler                          0x0800015f   Thumb Code     0  startup_stm32f10x_hd.o(.text)
    TIM4_IRQHandler                          0x0800015f   Thumb Code     0  startup_stm32f10x_hd.o(.text)
    TIM5_IRQHandler                          0x0800015f   Thumb Code     0  startup_stm32f10x_hd.o(.text)
    TIM6_IRQHandler                          0x0800015f   Thumb Code     0  startup_stm32f10x_hd.o(.text)
    TIM7_IRQHandler                          0x0800015f   Thumb Code     0  startup_stm32f10x_hd.o(.text)
    TIM8_BRK_IRQHandler                      0x0800015f   Thumb Code     0  startup_stm32f10x_hd.o(.text)
    TIM8_CC_IRQHandler                       0x0800015f   Thumb Code     0  startup_stm32f10x_hd.o(.text)
    TIM8_TRG_COM_IRQHandler                  0x0800015f   Thumb Code     0  startup_stm32f10x_hd.o(.text)
    TIM8_UP_IRQHandler                       0x0800015f   Thumb Code     0  startup_stm32f10x_hd.o(.text)
    USB_HP_CAN1_TX_IRQHandler                0x0800015f   Thumb Code     0  startup_stm32f10x_hd.o(.text)
    USB_LP_CAN1_RX0_IRQHandler               0x0800015f   Thumb Code     0  startup_stm32f10x_hd.o(.text)
    WWDG_IRQHandler                          0x0800015f   Thumb Code     0  startup_stm32f10x_hd.o(.text)
    __aeabi_memcpy                           0x08000169   Thumb Code    36  memcpya.o(.text)
    __aeabi_memcpy4                          0x08000169   Thumb Code     0  memcpya.o(.text)
    __aeabi_memcpy8                          0x08000169   Thumb Code     0  memcpya.o(.text)
    strcpy                                   0x0800018d   Thumb Code    18  strcpy.o(.text)
    __aeabi_dadd                             0x0800019f   Thumb Code   322  dadd.o(.text)
    __aeabi_dsub                             0x080002e1   Thumb Code     6  dadd.o(.text)
    __aeabi_drsub                            0x080002e7   Thumb Code     6  dadd.o(.text)
    __aeabi_dmul                             0x080002ed   Thumb Code   228  dmul.o(.text)
    __aeabi_ddiv                             0x080003d1   Thumb Code   222  ddiv.o(.text)
    __aeabi_d2iz                             0x080004af   Thumb Code    62  dfixi.o(.text)
    __aeabi_uidiv                            0x080004ed   Thumb Code     0  uidiv.o(.text)
    __aeabi_uidivmod                         0x080004ed   Thumb Code    44  uidiv.o(.text)
    __aeabi_uldivmod                         0x08000519   Thumb Code    98  uldiv.o(.text)
    __aeabi_llsl                             0x0800057b   Thumb Code    30  llshl.o(.text)
    _ll_shift_l                              0x0800057b   Thumb Code     0  llshl.o(.text)
    __aeabi_llsr                             0x08000599   Thumb Code    32  llushr.o(.text)
    _ll_ushift_r                             0x08000599   Thumb Code     0  llushr.o(.text)
    __aeabi_lasr                             0x080005b9   Thumb Code    36  llsshr.o(.text)
    _ll_sshift_r                             0x080005b9   Thumb Code     0  llsshr.o(.text)
    __I$use$fp                               0x080005dd   Thumb Code     0  iusefp.o(.text)
    _double_round                            0x080005dd   Thumb Code    30  depilogue.o(.text)
    _double_epilogue                         0x080005fb   Thumb Code   156  depilogue.o(.text)
    __aeabi_d2ulz                            0x08000697   Thumb Code    48  dfixul.o(.text)
    __aeabi_cdrcmple                         0x080006c9   Thumb Code    48  cdrcmple.o(.text)
    __scatterload                            0x080006f9   Thumb Code    28  init.o(.text)
    __scatterload_rt2                        0x080006f9   Thumb Code     0  init.o(.text)
    TOS_ContextSwitch                        0x0800071d   Thumb Code     0  tos_core_a.o(TOS_CORE_A)
    TOS_SwitchToTask                         0x0800074f   Thumb Code     0  tos_core_a.o(TOS_CORE_A)
    App_DisCoppy                             0x0800076d   Thumb Code    58  lockcode.o(i.App_DisCoppy)
    BOOL_LoadConfigs                         0x080007b1   Thumb Code    28  main.o(i.BOOL_LoadConfigs)
    BareDelay                                0x080007d1   Thumb Code    26  stm32_cpu.o(i.BareDelay)
    BusFault_Handler                         0x080007eb   Thumb Code     4  stm32f10x_it.o(i.BusFault_Handler)
    DeBug                                    0x080007f1   Thumb Code   360  debug.o(i.DeBug)
    DeBug_SetCallBack                        0x0800097d   Thumb Code     6  debug.o(i.DeBug_SetCallBack)
    DebugMon_Handler                         0x08000989   Thumb Code     2  stm32f10x_it.o(i.DebugMon_Handler)
    DeviceList_Init                          0x0800098d   Thumb Code   112  tos_device.o(i.DeviceList_Init)
    DeviceList_Printf                        0x08000a0d   Thumb Code   182  tos_device.o(i.DeviceList_Printf)
    DeviceMount_GPIO                         0x08000af5   Thumb Code   180  gpio_driver.o(i.DeviceMount_GPIO)
    Device_Init                              0x08000bc1   Thumb Code   152  tos_device.o(i.Device_Init)
    Device_Ok                                0x08000c79   Thumb Code    30  tos_device.o(i.Device_Ok)
    EXTI_ClearITPendingBit                   0x08000c9d   Thumb Code     6  stm32f10x_exti.o(i.EXTI_ClearITPendingBit)
    FLASH_ErasePage                          0x08000ca9   Thumb Code    72  stm32f10x_flash.o(i.FLASH_ErasePage)
    FLASH_GetBank1Status                     0x08000cf5   Thumb Code    48  stm32f10x_flash.o(i.FLASH_GetBank1Status)
    FLASH_Lock                               0x08000d29   Thumb Code    14  stm32f10x_flash.o(i.FLASH_Lock)
    FLASH_ProgramHalfWord                    0x08000d3d   Thumb Code    60  stm32f10x_flash.o(i.FLASH_ProgramHalfWord)
    FLASH_Unlock                             0x08000d7d   Thumb Code    12  stm32f10x_flash.o(i.FLASH_Unlock)
    FLASH_WaitForLastOperation               0x08000d95   Thumb Code    38  stm32f10x_flash.o(i.FLASH_WaitForLastOperation)
    Flash_ReadData                           0x08000dbb   Thumb Code    28  appconfig.o(i.Flash_ReadData)
    Flash_WriteData                          0x08000dd7   Thumb Code   118  appconfig.o(i.Flash_WriteData)
    FlowPoolFilter                           0x08000e4d   Thumb Code    58  text.o(i.FlowPoolFilter)
    GPIO_GetIndex                            0x08000e89   Thumb Code    52  gpio_driver.o(i.GPIO_GetIndex)
    GPIO_Init                                0x08000ec5   Thumb Code   278  stm32f10x_gpio.o(i.GPIO_Init)
    GPIO_InitList                            0x08000fdd   Thumb Code   126  stm32_cpu.o(i.GPIO_InitList)
    GPIO_PinRemapConfig                      0x08001065   Thumb Code   138  stm32f10x_gpio.o(i.GPIO_PinRemapConfig)
    GPIO_ReadInputDataBit                    0x080010f5   Thumb Code    18  stm32f10x_gpio.o(i.GPIO_ReadInputDataBit)
    GPIO_ResetBits                           0x08001107   Thumb Code     4  stm32f10x_gpio.o(i.GPIO_ResetBits)
    GPIO_Set                                 0x0800110b   Thumb Code    30  gpio_driver.o(i.GPIO_Set)
    GPIO_SetBits                             0x08001129   Thumb Code     4  stm32f10x_gpio.o(i.GPIO_SetBits)
    GPIO_SetIndex                            0x0800112d   Thumb Code    44  gpio_driver.o(i.GPIO_SetIndex)
    GPIO_Weigh_Init                          0x08001161   Thumb Code    56  main.o(i.GPIO_Weigh_Init)
    GetChar_List                             0x0800119d   Thumb Code   128  debug.o(i.GetChar_List)
    GetCodeStr64                             0x0800121d   Thumb Code   106  stm32_cpu.o(i.GetCodeStr64)
    GetTextLength                            0x0800128d   Thumb Code    24  text.o(i.GetTextLength)
    GetTosTask_Count                         0x080012a5   Thumb Code    38  stm32_cpu.o(i.GetTosTask_Count)
    HardFault_Handler                        0x080012d1   Thumb Code     8  stm32f10x_it.o(i.HardFault_Handler)
    IAP_ErasePage                            0x080012d9   Thumb Code    12  stm32_cpu.o(i.IAP_ErasePage)
    IAP_Lock                                 0x080012e5   Thumb Code     8  stm32_cpu.o(i.IAP_Lock)
    IAP_ProgramHalfWord                      0x080012ed   Thumb Code    16  stm32_cpu.o(i.IAP_ProgramHalfWord)
    IAP_Unlock                               0x080012fd   Thumb Code     8  stm32_cpu.o(i.IAP_Unlock)
    IWDG_Configuration                       0x08001305   Thumb Code    34  stm32_cpu.o(i.IWDG_Configuration)
    IWDG_Enable                              0x08001329   Thumb Code    10  stm32f10x_iwdg.o(i.IWDG_Enable)
    IWDG_ReloadCounter                       0x08001339   Thumb Code    10  stm32f10x_iwdg.o(i.IWDG_ReloadCounter)
    IWDG_SetPrescaler                        0x08001349   Thumb Code     6  stm32f10x_iwdg.o(i.IWDG_SetPrescaler)
    IWDG_SetReload                           0x08001355   Thumb Code     6  stm32f10x_iwdg.o(i.IWDG_SetReload)
    IWDG_WriteAccessCmd                      0x08001361   Thumb Code     6  stm32f10x_iwdg.o(i.IWDG_WriteAccessCmd)
    Load_AppConfig                           0x0800136d   Thumb Code    20  appconfig.o(i.Load_AppConfig)
    Load_VoidConfig                          0x08001389   Thumb Code   102  appconfig.o(i.Load_VoidConfig)
    MCU_Reset                                0x080013f1   Thumb Code    32  stm32_cpu.o(i.MCU_Reset)
    MemManage_Handler                        0x08001419   Thumb Code     4  stm32f10x_it.o(i.MemManage_Handler)
    Mema_Count                               0x0800141d   Thumb Code    22  tos_mema.o(i.Mema_Count)
    Mema_Free                                0x08001439   Thumb Code    44  tos_mema.o(i.Mema_Free)
    Mema_Init                                0x08001469   Thumb Code    22  tos_mema.o(i.Mema_Init)
    Mema_Malloc                              0x08001485   Thumb Code    72  tos_mema.o(i.Mema_Malloc)
    NMI_Handler                              0x080014d1   Thumb Code     2  stm32f10x_it.o(i.NMI_Handler)
    Opera_WhithADC                           0x080014d3   Thumb Code   118  operation.o(i.Opera_WhithADC)
    PendSV_Handler                           0x08001549   Thumb Code     2  stm32f10x_it.o(i.PendSV_Handler)
    Printf_BoardInfor                        0x0800154d   Thumb Code    44  stm32_cpu.o(i.Printf_BoardInfor)
    Printf_LcdType                           0x080015dd   Thumb Code     2  stm32_cpu.o(i.Printf_LcdType)
    Printf_LockCode                          0x080015e1   Thumb Code    24  stm32_cpu.o(i.Printf_LockCode)
    Printf_NandInfor                         0x08001605   Thumb Code     2  stm32_cpu.o(i.Printf_NandInfor)
    Printf_SysInfor                          0x08001609   Thumb Code    40  stm32_cpu.o(i.Printf_SysInfor)
    Printf_TaskInfor                         0x0800164d   Thumb Code    22  stm32_cpu.o(i.Printf_TaskInfor)
    Printf_TosInfor                          0x0800168d   Thumb Code    96  stm32_cpu.o(i.Printf_TosInfor)
    RCC_APB2PeriphClockCmd                   0x08001721   Thumb Code    26  stm32f10x_rcc.o(i.RCC_APB2PeriphClockCmd)
    RTT_LOG                                  0x08001741   Thumb Code    16  main.o(i.RTT_LOG)
    Read_Weigh                               0x08001751   Thumb Code   148  main.o(i.Read_Weigh)
    Remap_SWJ_JTAGDisable                    0x080017e9   Thumb Code    12  stm32_cpu.o(i.Remap_SWJ_JTAGDisable)
    SEGGER_RTT_Init                          0x080017f9   Thumb Code     8  segger_rtt.o(i.SEGGER_RTT_Init)
    SEGGER_RTT_Write                         0x08001801   Thumb Code    68  segger_rtt.o(i.SEGGER_RTT_Write)
    SEGGER_RTT_WriteNoLock                   0x08001849   Thumb Code   126  segger_rtt.o(i.SEGGER_RTT_WriteNoLock)
    SEGGER_RTT_printf                        0x080018cd   Thumb Code    34  segger_rtt_printf.o(i.SEGGER_RTT_printf)
    SEGGER_RTT_vprintf                       0x080018ef   Thumb Code   522  segger_rtt_printf.o(i.SEGGER_RTT_vprintf)
    SVC_Handler                              0x08001af9   Thumb Code     2  stm32f10x_it.o(i.SVC_Handler)
    Save_AppConfig                           0x08001afd   Thumb Code    20  appconfig.o(i.Save_AppConfig)
    Save_VoidConfig                          0x08001b19   Thumb Code    44  appconfig.o(i.Save_VoidConfig)
    SetSysClock                              0x08001b45   Thumb Code     8  system_stm32f10x.o(i.SetSysClock)
    StringEndingAppend                       0x08001c2d   Thumb Code    66  text.o(i.StringEndingAppend)
    SysTick_Handler                          0x08001c6f   Thumb Code     8  stm32f10x_it.o(i.SysTick_Handler)
    SysTick_Set                              0x08001c79   Thumb Code    74  stm32_cpu.o(i.SysTick_Set)
    SystemInit                               0x08001cd1   Thumb Code    78  system_stm32f10x.o(i.SystemInit)
    Task0                                    0x08001d31   Thumb Code    58  main.o(i.Task0)
    Task1                                    0x08001d71   Thumb Code   286  main.o(i.Task1)
    Task_SaveConfigs                         0x08001ee9   Thumb Code    26  main.o(i.Task_SaveConfigs)
    ToHex64                                  0x08001f09   Thumb Code    42  text.o(i.ToHex64)
    Tools_GetCRC16                           0x08001f35   Thumb Code    56  cheakout.o(i.Tools_GetCRC16)
    Tos_ComputeCPURate                       0x08001f75   Thumb Code    68  tos.o(i.Tos_ComputeCPURate)
    Tos_Init                                 0x08001fd1   Thumb Code   132  tos.o(i.Tos_Init)
    Tos_ListCreate                           0x08002069   Thumb Code    32  tos.o(i.Tos_ListCreate)
    Tos_RootTask                             0x08002089   Thumb Code    38  tos.o(i.Tos_RootTask)
    Tos_ScanTimer                            0x080020b1   Thumb Code    52  tos_timer.o(i.Tos_ScanTimer)
    Tos_Start                                0x080020e9   Thumb Code    32  tos.o(i.Tos_Start)
    Tos_SysTick                              0x08002119   Thumb Code    42  tos.o(i.Tos_SysTick)
    Tos_TaskCreate                           0x08002161   Thumb Code   204  tos.o(i.Tos_TaskCreate)
    Tos_TaskCreateFindID                     0x08002231   Thumb Code    94  tos.o(i.Tos_TaskCreateFindID)
    Tos_TaskDelay                            0x08002295   Thumb Code    84  tos.o(i.Tos_TaskDelay)
    Tos_TaskReady                            0x080022f5   Thumb Code   184  tos.o(i.Tos_TaskReady)
    Tos_TaskResume                           0x080023b5   Thumb Code   102  tos.o(i.Tos_TaskResume)
    Tos_TaskRun                              0x08002421   Thumb Code    66  tos.o(i.Tos_TaskRun)
    Tos_TaskStackInit                        0x08002475   Thumb Code   110  tos.o(i.Tos_TaskStackInit)
    Tos_TaskStart                            0x080024e5   Thumb Code    28  tos.o(i.Tos_TaskStart)
    Tos_TaskStop                             0x08002509   Thumb Code    70  tos.o(i.Tos_TaskStop)
    Tos_TaskSwitch                           0x08002555   Thumb Code   148  tos.o(i.Tos_TaskSwitch)
    Tos_TaskTcbInit                          0x080025f5   Thumb Code    18  tos.o(i.Tos_TaskTcbInit)
    Tos_TaskTimeout                          0x08002609   Thumb Code    78  tos.o(i.Tos_TaskTimeout)
    Tos_TimerReady                           0x0800265d   Thumb Code    78  tos_timer.o(i.Tos_TimerReady)
    UART4_IRQHandler                         0x080026b1   Thumb Code    76  usart_driver.o(i.UART4_IRQHandler)
    UART5_IRQHandler                         0x08002711   Thumb Code    74  usart_driver.o(i.UART5_IRQHandler)
    USART1_IRQHandler                        0x08002771   Thumb Code    76  usart_driver.o(i.USART1_IRQHandler)
    USART2_IRQHandler                        0x080027d1   Thumb Code    76  usart_driver.o(i.USART2_IRQHandler)
    USART3_IRQHandler                        0x08002831   Thumb Code    76  usart_driver.o(i.USART3_IRQHandler)
    USART_ClearITPendingBit                  0x08002891   Thumb Code    30  stm32f10x_usart.o(i.USART_ClearITPendingBit)
    USART_GetITStatus                        0x080028af   Thumb Code    84  stm32f10x_usart.o(i.USART_GetITStatus)
    USART_WriteDatas                         0x08002903   Thumb Code    34  usart_driver.o(i.USART_WriteDatas)
    USBWakeUp_IRQHandler                     0x08002925   Thumb Code    12  stm32f10x_it.o(i.USBWakeUp_IRQHandler)
    UsageFault_Handler                       0x08002931   Thumb Code     4  stm32f10x_it.o(i.UsageFault_Handler)
    __0vsprintf                              0x08002c9d   Thumb Code    30  printfa.o(i.__0vsprintf)
    __1vsprintf                              0x08002c9d   Thumb Code     0  printfa.o(i.__0vsprintf)
    __2vsprintf                              0x08002c9d   Thumb Code     0  printfa.o(i.__0vsprintf)
    __c89vsprintf                            0x08002c9d   Thumb Code     0  printfa.o(i.__0vsprintf)
    vsprintf                                 0x08002c9d   Thumb Code     0  printfa.o(i.__0vsprintf)
    __scatterload_copy                       0x08002cc1   Thumb Code    14  handlers.o(i.__scatterload_copy)
    __scatterload_null                       0x08002ccf   Thumb Code     2  handlers.o(i.__scatterload_null)
    __scatterload_zeroinit                   0x08002cd1   Thumb Code    14  handlers.o(i.__scatterload_zeroinit)
    delay_us                                 0x0800357d   Thumb Code    16  i2c_driver.o(i.delay_us)
    main                                     0x0800358d   Thumb Code    26  main.o(i.main)
    ok_blink                                 0x080035b5   Thumb Code    54  main.o(i.ok_blink)
    CodeTab                                  0x080035ea   Data          32  lockcode.o(.constdata)
    DisCode                                  0x0800360a   Data           2  lockcode.o(.constdata)
    Crc16_TableH                             0x0800360c   Data         256  cheakout.o(.constdata)
    Crc16_TableL                             0x0800370c   Data         256  cheakout.o(.constdata)
    TaskList1                                0x0800380c   Data          48  main.o(.constdata)
    IO_Control_List                          0x0800383c   Data         168  main.o(.constdata)
    Region$$Table$$Base                      0x08003904   Number         0  anon$$obj.o(Region$$Table)
    Region$$Table$$Limit                     0x08003924   Number         0  anon$$obj.o(Region$$Table)
    DeviceId_USART_TX                        0x20000000   Data           5  usart_driver.o(.data)
    DeviceId_USART_RX                        0x20000005   Data           5  usart_driver.o(.data)
    USART_TX_TaskID                          0x2000000a   Data           5  usart_driver.o(.data)
    USART_RX_TaskID                          0x2000000f   Data           5  usart_driver.o(.data)
    DeviceId_GPIO                            0x20000014   Data           1  gpio_driver.o(.data)
    SelectPin                                0x20000015   Data           1  gpio_driver.o(.data)
    guiNextTaskSp                            0x20000018   Data           4  tos.o(.data)
    gpuiCurTaskSpAddr                        0x2000001c   Data           4  tos.o(.data)
    Tos_CPUInfor                             0x20000020   Data           8  tos.o(.data)
    Tos_TaskCurrent                          0x20000028   Data           1  tos.o(.data)
    Tos_TaskTcb                              0x2000002c   Data           4  tos.o(.data)
    Tos_TaskStackIndex                       0x20000030   Data           4  tos.o(.data)
    DeviceId_Index                           0x20000040   Data           1  tos_device.o(.data)
    Tos_Device_Tab                           0x20000044   Data           4  tos_device.o(.data)
    RootMema                                 0x20000048   Data           4  tos_mema.o(.data)
    Tos_Timer_P                              0x2000004c   Data           4  tos_timer.o(.data)
    DeBug_CB                                 0x20000050   Data           4  debug.o(.data)
    DeBug_EN                                 0x20000054   Data           1  debug.o(.data)
    DeBug_Out                                0x20000055   Data           1  debug.o(.data)
    DeBug_Type                               0x20000056   Data           1  debug.o(.data)
    USART_RX_Buffer                          0x20000058   Data          20  usart_driver.o(.bss)
    USART_TX_Buffer                          0x2000006c   Data          20  usart_driver.o(.bss)
    USART_RX_Count                           0x20000080   Data          10  usart_driver.o(.bss)
    USART_RX_Index                           0x2000008a   Data          10  usart_driver.o(.bss)
    MemBuf                                   0x20000094   Data       12000  tos_mema.o(.bss)
    UIShowValue                              0x20002f74   Data          32  main.o(.bss)
    _SEGGER_RTT                              0x20002f94   Data         120  segger_rtt.o(.bss)
    __initial_sp                             0x20003820   Data           0  startup_stm32f10x_hd.o(STACK)



==============================================================================

Memory Map of the image

  Image Entry point : 0x08000131

  Load Region LR_IROM1 (Base: 0x08000000, Size: 0x0000397c, Max: 0x00010000, ABSOLUTE)

    Execution Region ER_IROM1 (Base: 0x08000000, Size: 0x00003924, Max: 0x00010000, ABSOLUTE)

    Base Addr    Size         Type   Attr      Idx    E Section Name        Object

    0x08000000   0x00000130   Data   RO         3219    RESET               startup_stm32f10x_hd.o
    0x08000130   0x00000000   Code   RO         5557  * .ARM.Collect$$$$00000000  mc_w.l(entry.o)
    0x08000130   0x00000004   Code   RO         5667    .ARM.Collect$$$$00000001  mc_w.l(entry2.o)
    0x08000134   0x00000004   Code   RO         5670    .ARM.Collect$$$$00000004  mc_w.l(entry5.o)
    0x08000138   0x00000000   Code   RO         5672    .ARM.Collect$$$$00000008  mc_w.l(entry7b.o)
    0x08000138   0x00000000   Code   RO         5674    .ARM.Collect$$$$0000000A  mc_w.l(entry8b.o)
    0x08000138   0x00000008   Code   RO         5675    .ARM.Collect$$$$0000000B  mc_w.l(entry9a.o)
    0x08000140   0x00000000   Code   RO         5677    .ARM.Collect$$$$0000000D  mc_w.l(entry10a.o)
    0x08000140   0x00000000   Code   RO         5679    .ARM.Collect$$$$0000000F  mc_w.l(entry11a.o)
    0x08000140   0x00000004   Code   RO         5668    .ARM.Collect$$$$00002712  mc_w.l(entry2.o)
    0x08000144   0x00000024   Code   RO         3220    .text               startup_stm32f10x_hd.o
    0x08000168   0x00000024   Code   RO         5565    .text               mc_w.l(memcpya.o)
    0x0800018c   0x00000012   Code   RO         5571    .text               mc_w.l(strcpy.o)
    0x0800019e   0x0000014e   Code   RO         5609    .text               mf_w.l(dadd.o)
    0x080002ec   0x000000e4   Code   RO         5611    .text               mf_w.l(dmul.o)
    0x080003d0   0x000000de   Code   RO         5613    .text               mf_w.l(ddiv.o)
    0x080004ae   0x0000003e   Code   RO         5627    .text               mf_w.l(dfixi.o)
    0x080004ec   0x0000002c   Code   RO         5682    .text               mc_w.l(uidiv.o)
    0x08000518   0x00000062   Code   RO         5684    .text               mc_w.l(uldiv.o)
    0x0800057a   0x0000001e   Code   RO         5686    .text               mc_w.l(llshl.o)
    0x08000598   0x00000020   Code   RO         5688    .text               mc_w.l(llushr.o)
    0x080005b8   0x00000024   Code   RO         5690    .text               mc_w.l(llsshr.o)
    0x080005dc   0x00000000   Code   RO         5699    .text               mc_w.l(iusefp.o)
    0x080005dc   0x000000ba   Code   RO         5703    .text               mf_w.l(depilogue.o)
    0x08000696   0x00000030   Code   RO         5705    .text               mf_w.l(dfixul.o)
    0x080006c6   0x00000002   PAD
    0x080006c8   0x00000030   Code   RO         5707    .text               mf_w.l(cdrcmple.o)
    0x080006f8   0x00000024   Code   RO         5713    .text               mc_w.l(init.o)
    0x0800071c   0x00000050   Code   RO         4238    TOS_CORE_A          tos_core_a.o
    0x0800076c   0x00000044   Code   RO         3830    i.App_DisCoppy      lockcode.o
    0x080007b0   0x00000020   Code   RO         5029    i.BOOL_LoadConfigs  main.o
    0x080007d0   0x0000001a   Code   RO         3552    i.BareDelay         stm32_cpu.o
    0x080007ea   0x00000004   Code   RO         3076    i.BusFault_Handler  stm32f10x_it.o
    0x080007ee   0x00000002   PAD
    0x080007f0   0x0000018c   Code   RO         4241    i.DeBug             debug.o
    0x0800097c   0x0000000c   Code   RO         4245    i.DeBug_SetCallBack  debug.o
    0x08000988   0x00000002   Code   RO         3077    i.DebugMon_Handler  stm32f10x_it.o
    0x0800098a   0x00000002   PAD
    0x0800098c   0x00000080   Code   RO         4073    i.DeviceList_Init   tos_device.o
    0x08000a0c   0x000000e8   Code   RO         4074    i.DeviceList_Printf  tos_device.o
    0x08000af4   0x000000cc   Code   RO         3760    i.DeviceMount_GPIO  gpio_driver.o
    0x08000bc0   0x000000b8   Code   RO         4077    i.Device_Init       tos_device.o
    0x08000c78   0x00000024   Code   RO         4078    i.Device_Ok         tos_device.o
    0x08000c9c   0x0000000c   Code   RO          860    i.EXTI_ClearITPendingBit  stm32f10x_exti.o
    0x08000ca8   0x0000004c   Code   RO          921    i.FLASH_ErasePage   stm32f10x_flash.o
    0x08000cf4   0x00000034   Code   RO          922    i.FLASH_GetBank1Status  stm32f10x_flash.o
    0x08000d28   0x00000014   Code   RO          931    i.FLASH_Lock        stm32f10x_flash.o
    0x08000d3c   0x00000040   Code   RO          934    i.FLASH_ProgramHalfWord  stm32f10x_flash.o
    0x08000d7c   0x00000018   Code   RO          939    i.FLASH_Unlock      stm32f10x_flash.o
    0x08000d94   0x00000026   Code   RO          943    i.FLASH_WaitForLastOperation  stm32f10x_flash.o
    0x08000dba   0x0000001c   Code   RO         4891    i.Flash_ReadData    appconfig.o
    0x08000dd6   0x00000076   Code   RO         4892    i.Flash_WriteData   appconfig.o
    0x08000e4c   0x0000003a   Code   RO         4368    i.FlowPoolFilter    text.o
    0x08000e86   0x00000002   PAD
    0x08000e88   0x0000003c   Code   RO         3764    i.GPIO_GetIndex     gpio_driver.o
    0x08000ec4   0x00000116   Code   RO         1222    i.GPIO_Init         stm32f10x_gpio.o
    0x08000fda   0x00000002   PAD
    0x08000fdc   0x00000088   Code   RO         3554    i.GPIO_InitList     stm32_cpu.o
    0x08001064   0x00000090   Code   RO         1224    i.GPIO_PinRemapConfig  stm32f10x_gpio.o
    0x080010f4   0x00000012   Code   RO         1226    i.GPIO_ReadInputDataBit  stm32f10x_gpio.o
    0x08001106   0x00000004   Code   RO         1229    i.GPIO_ResetBits    stm32f10x_gpio.o
    0x0800110a   0x0000001e   Code   RO         3765    i.GPIO_Set          gpio_driver.o
    0x08001128   0x00000004   Code   RO         1230    i.GPIO_SetBits      stm32f10x_gpio.o
    0x0800112c   0x00000034   Code   RO         3767    i.GPIO_SetIndex     gpio_driver.o
    0x08001160   0x0000003c   Code   RO         5030    i.GPIO_Weigh_Init   main.o
    0x0800119c   0x00000080   Code   RO         4247    i.GetChar_List      debug.o
    0x0800121c   0x00000070   Code   RO         3555    i.GetCodeStr64      stm32_cpu.o
    0x0800128c   0x00000018   Code   RO         4380    i.GetTextLength     text.o
    0x080012a4   0x0000002c   Code   RO         3558    i.GetTosTask_Count  stm32_cpu.o
    0x080012d0   0x00000008   Code   RO         3078    i.HardFault_Handler  stm32f10x_it.o
    0x080012d8   0x0000000c   Code   RO         3561    i.IAP_ErasePage     stm32_cpu.o
    0x080012e4   0x00000008   Code   RO         3562    i.IAP_Lock          stm32_cpu.o
    0x080012ec   0x00000010   Code   RO         3563    i.IAP_ProgramHalfWord  stm32_cpu.o
    0x080012fc   0x00000008   Code   RO         3564    i.IAP_Unlock        stm32_cpu.o
    0x08001304   0x00000022   Code   RO         3565    i.IWDG_Configuration  stm32_cpu.o
    0x08001326   0x00000002   PAD
    0x08001328   0x00000010   Code   RO         1537    i.IWDG_Enable       stm32f10x_iwdg.o
    0x08001338   0x00000010   Code   RO         1539    i.IWDG_ReloadCounter  stm32f10x_iwdg.o
    0x08001348   0x0000000c   Code   RO         1540    i.IWDG_SetPrescaler  stm32f10x_iwdg.o
    0x08001354   0x0000000c   Code   RO         1541    i.IWDG_SetReload    stm32f10x_iwdg.o
    0x08001360   0x0000000c   Code   RO         1542    i.IWDG_WriteAccessCmd  stm32f10x_iwdg.o
    0x0800136c   0x0000001c   Code   RO         4893    i.Load_AppConfig    appconfig.o
    0x08001388   0x00000066   Code   RO         4894    i.Load_VoidConfig   appconfig.o
    0x080013ee   0x00000002   PAD
    0x080013f0   0x00000028   Code   RO         3567    i.MCU_Reset         stm32_cpu.o
    0x08001418   0x00000004   Code   RO         3079    i.MemManage_Handler  stm32f10x_it.o
    0x0800141c   0x0000001c   Code   RO         4147    i.Mema_Count        tos_mema.o
    0x08001438   0x00000030   Code   RO         4149    i.Mema_Free         tos_mema.o
    0x08001468   0x0000001c   Code   RO         4151    i.Mema_Init         tos_mema.o
    0x08001484   0x0000004c   Code   RO         4152    i.Mema_Malloc       tos_mema.o
    0x080014d0   0x00000002   Code   RO         3080    i.NMI_Handler       stm32f10x_it.o
    0x080014d2   0x00000076   Code   RO         4831    i.Opera_WhithADC    operation.o
    0x08001548   0x00000002   Code   RO         3081    i.PendSV_Handler    stm32f10x_it.o
    0x0800154a   0x00000002   PAD
    0x0800154c   0x00000090   Code   RO         3568    i.Printf_BoardInfor  stm32_cpu.o
    0x080015dc   0x00000002   Code   RO         3571    i.Printf_LcdType    stm32_cpu.o
    0x080015de   0x00000002   PAD
    0x080015e0   0x00000024   Code   RO         3572    i.Printf_LockCode   stm32_cpu.o
    0x08001604   0x00000002   Code   RO         3573    i.Printf_NandInfor  stm32_cpu.o
    0x08001606   0x00000002   PAD
    0x08001608   0x00000044   Code   RO         3574    i.Printf_SysInfor   stm32_cpu.o
    0x0800164c   0x00000040   Code   RO         3575    i.Printf_TaskInfor  stm32_cpu.o
    0x0800168c   0x00000094   Code   RO         3576    i.Printf_TosInfor   stm32_cpu.o
    0x08001720   0x00000020   Code   RO         1649    i.RCC_APB2PeriphClockCmd  stm32f10x_rcc.o
    0x08001740   0x00000010   Code   RO         5046    i.RTT_LOG           main.o
    0x08001750   0x00000098   Code   RO         5047    i.Read_Weigh        main.o
    0x080017e8   0x00000010   Code   RO         3577    i.Remap_SWJ_JTAGDisable  stm32_cpu.o
    0x080017f8   0x00000008   Code   RO         5263    i.SEGGER_RTT_Init   segger_rtt.o
    0x08001800   0x00000048   Code   RO         5271    i.SEGGER_RTT_Write  segger_rtt.o
    0x08001848   0x00000084   Code   RO         5272    i.SEGGER_RTT_WriteNoLock  segger_rtt.o
    0x080018cc   0x00000022   Code   RO         5417    i.SEGGER_RTT_printf  segger_rtt_printf.o
    0x080018ee   0x0000020a   Code   RO         5418    i.SEGGER_RTT_vprintf  segger_rtt_printf.o
    0x08001af8   0x00000002   Code   RO         3082    i.SVC_Handler       stm32f10x_it.o
    0x08001afa   0x00000002   PAD
    0x08001afc   0x0000001c   Code   RO         4895    i.Save_AppConfig    appconfig.o
    0x08001b18   0x0000002c   Code   RO         4896    i.Save_VoidConfig   appconfig.o
    0x08001b44   0x00000008   Code   RO         3175    i.SetSysClock       system_stm32f10x.o
    0x08001b4c   0x000000e0   Code   RO         3176    i.SetSysClockTo72   system_stm32f10x.o
    0x08001c2c   0x00000042   Code   RO         4395    i.StringEndingAppend  text.o
    0x08001c6e   0x00000008   Code   RO         3083    i.SysTick_Handler   stm32f10x_it.o
    0x08001c76   0x00000002   PAD
    0x08001c78   0x00000058   Code   RO         3579    i.SysTick_Set       stm32_cpu.o
    0x08001cd0   0x00000060   Code   RO         3178    i.SystemInit        system_stm32f10x.o
    0x08001d30   0x00000040   Code   RO         5048    i.Task0             main.o
    0x08001d70   0x00000178   Code   RO         5049    i.Task1             main.o
    0x08001ee8   0x00000020   Code   RO         5054    i.Task_SaveConfigs  main.o
    0x08001f08   0x0000002a   Code   RO         4406    i.ToHex64           text.o
    0x08001f32   0x00000002   PAD
    0x08001f34   0x00000040   Code   RO         4796    i.Tools_GetCRC16    cheakout.o
    0x08001f74   0x0000005c   Code   RO         3859    i.Tos_ComputeCPURate  tos.o
    0x08001fd0   0x00000098   Code   RO         3861    i.Tos_Init          tos.o
    0x08002068   0x00000020   Code   RO         3862    i.Tos_ListCreate    tos.o
    0x08002088   0x00000026   Code   RO         3863    i.Tos_RootTask      tos.o
    0x080020ae   0x00000002   PAD
    0x080020b0   0x00000038   Code   RO         4199    i.Tos_ScanTimer     tos_timer.o
    0x080020e8   0x00000030   Code   RO         3865    i.Tos_Start         tos.o
    0x08002118   0x00000048   Code   RO         3866    i.Tos_SysTick       tos.o
    0x08002160   0x000000d0   Code   RO         3867    i.Tos_TaskCreate    tos.o
    0x08002230   0x00000064   Code   RO         3868    i.Tos_TaskCreateFindID  tos.o
    0x08002294   0x00000060   Code   RO         3870    i.Tos_TaskDelay     tos.o
    0x080022f4   0x000000c0   Code   RO         3879    i.Tos_TaskReady     tos.o
    0x080023b4   0x0000006c   Code   RO         3881    i.Tos_TaskResume    tos.o
    0x08002420   0x00000054   Code   RO         3882    i.Tos_TaskRun       tos.o
    0x08002474   0x0000006e   Code   RO         3884    i.Tos_TaskStackInit  tos.o
    0x080024e2   0x00000002   PAD
    0x080024e4   0x00000024   Code   RO         3885    i.Tos_TaskStart     tos.o
    0x08002508   0x0000004c   Code   RO         3886    i.Tos_TaskStop      tos.o
    0x08002554   0x000000a0   Code   RO         3888    i.Tos_TaskSwitch    tos.o
    0x080025f4   0x00000012   Code   RO         3889    i.Tos_TaskTcbInit   tos.o
    0x08002606   0x00000002   PAD
    0x08002608   0x00000054   Code   RO         3890    i.Tos_TaskTimeout   tos.o
    0x0800265c   0x00000054   Code   RO         4200    i.Tos_TimerReady    tos_timer.o
    0x080026b0   0x00000060   Code   RO         3380    i.UART4_IRQHandler  usart_driver.o
    0x08002710   0x00000060   Code   RO         3381    i.UART5_IRQHandler  usart_driver.o
    0x08002770   0x00000060   Code   RO         3382    i.USART1_IRQHandler  usart_driver.o
    0x080027d0   0x00000060   Code   RO         3383    i.USART2_IRQHandler  usart_driver.o
    0x08002830   0x00000060   Code   RO         3384    i.USART3_IRQHandler  usart_driver.o
    0x08002890   0x0000001e   Code   RO         2826    i.USART_ClearITPendingBit  stm32f10x_usart.o
    0x080028ae   0x00000054   Code   RO         2833    i.USART_GetITStatus  stm32f10x_usart.o
    0x08002902   0x00000022   Code   RO         3397    i.USART_WriteDatas  usart_driver.o
    0x08002924   0x0000000c   Code   RO         3084    i.USBWakeUp_IRQHandler  stm32f10x_it.o
    0x08002930   0x00000004   Code   RO         3085    i.UsageFault_Handler  stm32f10x_it.o
    0x08002934   0x00000070   Code   RO         5276    i._DoInit           segger_rtt.o
    0x080029a4   0x0000001c   Code   RO         5277    i._GetAvailWriteSpace  segger_rtt.o
    0x080029c0   0x000000ec   Code   RO         5419    i._PrintInt         segger_rtt_printf.o
    0x08002aac   0x000000ec   Code   RO         5420    i._PrintUnsigned    segger_rtt_printf.o
    0x08002b98   0x00000044   Code   RO         5421    i._StoreChar        segger_rtt_printf.o
    0x08002bdc   0x00000072   Code   RO         5279    i._WriteBlocking    segger_rtt.o
    0x08002c4e   0x0000004c   Code   RO         5280    i._WriteNoCheck     segger_rtt.o
    0x08002c9a   0x00000002   PAD
    0x08002c9c   0x00000024   Code   RO         5582    i.__0vsprintf       mc_w.l(printfa.o)
    0x08002cc0   0x0000000e   Code   RO         5719    i.__scatterload_copy  mc_w.l(handlers.o)
    0x08002cce   0x00000002   Code   RO         5720    i.__scatterload_null  mc_w.l(handlers.o)
    0x08002cd0   0x0000000e   Code   RO         5721    i.__scatterload_zeroinit  mc_w.l(handlers.o)
    0x08002cde   0x00000002   PAD
    0x08002ce0   0x00000164   Code   RO         5583    i._fp_digits        mc_w.l(printfa.o)
    0x08002e44   0x000006dc   Code   RO         5584    i._printf_core      mc_w.l(printfa.o)
    0x08003520   0x00000024   Code   RO         5585    i._printf_post_padding  mc_w.l(printfa.o)
    0x08003544   0x0000002e   Code   RO         5586    i._printf_pre_padding  mc_w.l(printfa.o)
    0x08003572   0x0000000a   Code   RO         5588    i._sputc            mc_w.l(printfa.o)
    0x0800357c   0x00000010   Code   RO         3323    i.delay_us          i2c_driver.o
    0x0800358c   0x00000028   Code   RO         5056    i.main              main.o
    0x080035b4   0x00000036   Code   RO         5057    i.ok_blink          main.o
    0x080035ea   0x00000022   Data   RO         3832    .constdata          lockcode.o
    0x0800360c   0x00000200   Data   RO         4800    .constdata          cheakout.o
    0x0800380c   0x000000d8   Data   RO         5060    .constdata          main.o
    0x080038e4   0x00000010   Data   RO         5422    .constdata          segger_rtt_printf.o
    0x080038f4   0x0000000e   Data   RO         5061    .conststring        main.o
    0x08003902   0x00000002   PAD
    0x08003904   0x00000020   Data   RO         5717    Region$$Table       anon$$obj.o


    Execution Region RW_IRAM1 (Base: 0x20000000, Size: 0x00003820, Max: 0x00005000, ABSOLUTE)

    Base Addr    Size         Type   Attr      Idx    E Section Name        Object

    0x20000000   0x00000014   Data   RW         3400    .data               usart_driver.o
    0x20000014   0x00000002   Data   RW         3770    .data               gpio_driver.o
    0x20000016   0x00000002   PAD
    0x20000018   0x00000025   Data   RW         3892    .data               tos.o
    0x2000003d   0x00000003   PAD
    0x20000040   0x00000008   Data   RW         4081    .data               tos_device.o
    0x20000048   0x00000004   Data   RW         4154    .data               tos_mema.o
    0x2000004c   0x00000004   Data   RW         4201    .data               tos_timer.o
    0x20000050   0x00000007   Data   RW         4248    .data               debug.o
    0x20000057   0x00000001   PAD
    0x20000058   0x0000003c   Zero   RW         3399    .bss                usart_driver.o
    0x20000094   0x00002ee0   Zero   RW         4153    .bss                tos_mema.o
    0x20002f74   0x00000020   Zero   RW         5059    .bss                main.o
    0x20002f94   0x00000488   Zero   RW         5281    .bss                segger_rtt.o
    0x2000341c   0x00000004   PAD
    0x20003420   0x00000400   Zero   RW         3217    STACK               startup_stm32f10x_hd.o


==============================================================================

Image component sizes


      Code (inc. data)   RO Data    RW Data    ZI Data      Debug   Object Name

       348         16          0          0          0       4209   appconfig.o
        64          8        512          0          0       1245   cheakout.o
         0          0          0          0          0         32   core_cm3.o
       536         42          0          7          0       2196   debug.o
       346         40          0          2          0       2640   gpio_driver.o
        16          0          0          0          0        427   i2c_driver.o
        68         10         34          0          0       1149   lockcode.o
       826        128        230          0         32       6168   main.o
         0          0          0          0          0     222336   misc.o
       118          0          0          0          0        809   operation.o
       542         48          0          0       1160       7656   segger_rtt.o
      1096          6         16          0          0       5417   segger_rtt_printf.o
         0          0          0          0          0        448   spi_driver.o
        36          8        304          0       1024        796   startup_stm32f10x_hd.o
      1004        282          0          0          0      25031   stm32_cpu.o
        12          6          0          0          0        537   stm32f10x_exti.o
       274         30          0          0          0       9942   stm32f10x_flash.o
       448          6          0          0          0       4614   stm32f10x_gpio.o
        48          0          0          0          0       5655   stm32f10x_it.o
        68         30          0          0          0       2558   stm32f10x_iwdg.o
        32          6          0          0          0        585   stm32f10x_rcc.o
       114          0          0          0          0       8970   stm32f10x_usart.o
       328         28          0          0          0       3499   system_stm32f10x.o
       190          0          0          0          0       2736   text.o
      1706        176          0         37          0      11506   tos.o
        80         10          0          0          0        256   tos_core_a.o
       580        104          0          8          0       3544   tos_device.o
       180         20          0          4      12000       2941   tos_mema.o
       140         10          0          4          0       2083   tos_timer.o
       514        102          0         20         60       6145   usart_driver.o

    ----------------------------------------------------------------------
      9746       1116       1130         88      14280     346130   Object Totals
         0          0         32          0          0          0   (incl. Generated)
        32          0          2          6          4          0   (incl. Padding)

    ----------------------------------------------------------------------

      Code (inc. data)   RO Data    RW Data    ZI Data      Debug   Library Member Name

         0          0          0          0          0          0   entry.o
         0          0          0          0          0          0   entry10a.o
         0          0          0          0          0          0   entry11a.o
         8          4          0          0          0          0   entry2.o
         4          0          0          0          0          0   entry5.o
         0          0          0          0          0          0   entry7b.o
         0          0          0          0          0          0   entry8b.o
         8          4          0          0          0          0   entry9a.o
        30          0          0          0          0          0   handlers.o
        36          8          0          0          0         68   init.o
         0          0          0          0          0          0   iusefp.o
        30          0          0          0          0         68   llshl.o
        36          0          0          0          0         68   llsshr.o
        32          0          0          0          0         68   llushr.o
        36          0          0          0          0         68   memcpya.o
      2240         86          0          0          0        508   printfa.o
        18          0          0          0          0         68   strcpy.o
        44          0          0          0          0         80   uidiv.o
        98          0          0          0          0         92   uldiv.o
        48          0          0          0          0         68   cdrcmple.o
       334          0          0          0          0        148   dadd.o
       222          0          0          0          0        100   ddiv.o
       186          0          0          0          0        176   depilogue.o
        62          0          0          0          0         80   dfixi.o
        48          0          0          0          0         68   dfixul.o
       228          0          0          0          0         96   dmul.o

    ----------------------------------------------------------------------
      3752        102          0          0          0       1824   Library Totals
         4          0          0          0          0          0   (incl. Padding)

    ----------------------------------------------------------------------

      Code (inc. data)   RO Data    RW Data    ZI Data      Debug   Library Name

      2620        102          0          0          0       1088   mc_w.l
      1128          0          0          0          0        736   mf_w.l

    ----------------------------------------------------------------------
      3752        102          0          0          0       1824   Library Totals

    ----------------------------------------------------------------------

==============================================================================


      Code (inc. data)   RO Data    RW Data    ZI Data      Debug   

     13498       1218       1130         88      14280     340618   Grand Totals
     13498       1218       1130         88      14280     340618   ELF Image Totals
     13498       1218       1130         88          0          0   ROM Totals

==============================================================================

    Total RO  Size (Code + RO Data)                14628 (  14.29kB)
    Total RW  Size (RW Data + ZI Data)             14368 (  14.03kB)
    Total ROM Size (Code + RO Data + RW Data)      14716 (  14.37kB)

==============================================================================

