:020000040800F2
:1000000050A600204501000839310008B12A000837
:10001000333000087B0E0008096100080000000072
:10002000000000000000000000000000073C000885
:10003000D515000800000000853400082D3F000899
:100040005F0100085F0100085F0100085F01000810
:100050005F0100085F0100084B2000085F010008F5
:100060005F0100085F0100085F0100085F010008F0
:100070005F0100085F0100085F0100085F010008E0
:100080005F0100085F0100085F0100085F010008D0
:100090005F0100085F0100085F0100085F010008C0
:1000A0005F0100085F0100085F0100085F010008B0
:1000B0005F0100085F0100085F0100085F010008A0
:1000C0005F0100085F0100085F0100085F01000890
:1000D0005F010008FD5A0008515B00085F0100083D
:1000E0005F0100085F010008FD6000085F01000873
:1000F0005F0100085F0100085F0100085F01000860
:100100005F0100085F0100085F0100085F0100084F
:10011000555A0008A95A00085F0100085F0100084D
:100120005F0100085F0100085F0100085F0100082F
:10013000DFF80CD000F04CFC00480047A56A00082E
:1001400050A600200648804706480047FEE7FEE725
:10015000FEE7FEE7FEE7FEE7FEE7FEE7FEE7FEE777
:100160005D3F0008310100080649074A086850430E
:1001700043F23902104408604008704701490860A2
:1001800070470000B40000206D4EC641F0B480EA14
:100190000102D40F4200B2EB410F02D202460846E0
:1001A00011464A0042D0C30DDDB2C1F3C752AD1AA9
:1001B000202D35DAC1F3160141F4000204B1524298
:1001C000C5F1200602FA06F12A411044B3EBD05FD4
:1001D00023D0C4B1012DA0EBC35009DCF0BC4FF01B
:1001E000004202EAC35200F50000DBB200F037BB68
:1001F000400000F1807000EBC350A0F1807040EA35
:10020000D170490009E0490841EAC071A0EBC35030
:1002100000F50000400800EBC350F0BC00F016BB36
:100220006142012202EB4101001BF6E7F0BC70477E
:1002300081F00041AAE780F00040A7E780EA0102D0
:1002400010B502F00043400026D04A0023D04FEA08
:10025000106101EB1261C0F35600C2F3560240F484
:10026000000042F40002A0FB0220A1F17F014FEA4E
:100270000040140401D000F1010050EA124001D402
:100280004000491EC2B20C0604EBD010401C4008CE
:10029000802A02D003E0002010BD20F001000029D8
:1002A00000DA0020184310BD30B480EA010202F0E9
:1002B000004530F0004221F0004015D0A0B1C0F35D
:1002C000C753C2F3C754C2F31601C0F31600E41AB1
:1002D00041F4000140F400027D34914201D3641CDA
:1002E00000E04900002C02DA30BC002070474FF4D7
:1002F00000000023914201D3891A034340084FEACA
:100300004101F7D151B1914202D14FF0004105E0D6
:1003100002D24FF0010101E06FF0010103EBC45084
:10032000284430BC00F092BA2DE9FE4F804681EAA5
:100330000300C00F0C46009021F0004123F000455F
:10034000B8EB0200A94105D24046214690461C4622
:100350000B46024623F00040104304D1404621469C
:1003600003B0BDE8F08F270DC7F30A00C3F30A51AD
:100370000290401A0190402866DAC3F3130040F45B
:10038000801B0098924620B10023D2EB030A63EB56
:100390000B0B01985946C0F14002504600F025FA77
:1003A00006460D4650465946019A00F03DFA10EBBC
:1003B00008006141002487EA115284EAE7731A4376
:1003C0003BD0009A3AB3019A012A4FEA075210DC57
:1003D000001B61EB02014FF0004202EA0752CDE937
:1003E0000042001C41F5801132462B4600F071FAA4
:1003F000B6E7001B61EB0201001C41F580130018F9
:100400005B412018A2F5001747EB030140EAD570C5
:10041000B6196D4111E06D084FEA360645EAC07520
:100420004FEA0752001B61EB0201001C41F58011ED
:1004300049084FEA30000019514132462B4603B0BB
:10044000BDE8F04F00F038BA0098012240000023C8
:10045000D0EB020263EBE073009821464FEAE074B0
:10046000B8EB000061EB0401E9E783F000435BE7D0
:1004700081F0004158E72DE9FE4F81EA030404F0C2
:10048000004421F0004100944FF0000B23F00043A2
:1004900050EA010402D052EA030404D100200146CC
:1004A00003B0BDE8F08FC3F30A54C1F30A552C44DE
:1004B000A4F2F3340194A0FB0254C1F3130141F4FC
:1004C0008011C3F3130343F4801301FB024400FBC8
:1004D000034E840A970A44EA815447EA8357A4FBEF
:1004E000076802958D0A05FB07854FEA932C04FBEC
:1004F0000C542705029D4FEA065847EA1637B5EB1C
:1005000008056EEB070C870E920E47EA811742EA48
:100510008312A7FB0201B6EB0B0164EB00042B0D69
:1005200043EA0C335E1844EB1C50DA465146E7FBB5
:100530000201C5F313044FEA0B3343EA14534FEAA5
:100540000432019C43EA0603A4F10C040294009CCB
:10055000CDE900B400F0BDF9A2E72DE9F04D81EA44
:10056000030404F0004B21F0004514464FF0000A4C
:1005700023F0004150EA050220D054EA01021DD0C8
:10058000C5F30A570246C5F31303C1F31300C1F3C1
:100590000A5640F4801543F48013A7EB0608101B9D
:1005A000D64608F2FD3873EB050002D308F10108C6
:1005B00001E092185B41B8F1000F03DA0020014618
:1005C000BDE8F08D00204FF48011064684460EE011
:1005D000171B73EB050705D3121B63EB05030643DB
:1005E0004CEA010C49084FEA300092185B4150EA8E
:1005F0000107EDD152EA030012D082EA040083EA37
:100600000501084303D100224FF0004308E0101B0E
:10061000AB4102D20122002302E06FF0010253102D
:100620001AEB06004CEB085110EB0A0041EB0B01F2
:10063000BDE8F04D00F040B9C10F80EAE070084419
:10064000CA079623002100F00AB99623002211461A
:1006500000F005B900F0004220F00040C10DC0F3E9
:10066000160040F400007F2901DA00207047962927
:1006700003DCC1F19601C84001E096398840002AA8
:10068000F4D04042704720F00040C10DC0F3160086
:1006900040F400007F2901DA00207047962903DC2E
:1006A000C1F19601C840704796398840704700F004
:1006B000004230F000400AD0C10D01F56071C0F376
:1006C000160042EA0151C20840071143704700205A
:1006D0000146704730B5002904DB4FF0004440422A
:1006E00064EB0101002B04DB4FF00044524264EB49
:1006F00003038B4208BF824230BD000001F000437B
:1007000030B421F0004150EA010206D00A0DA2F5F2
:100710006072C1F31301002A02DC30BC0020704774
:10072000440F44EAC104C100E01830BC00EBC250E1
:1007300000F08CB8002801DBC0F10040002901DB8B
:10074000C1F1004181427047002801DBC0F1004047
:10075000002901DBC1F100418842704730B50B46EA
:10076000014600202022012409E021FA02F59D42E1
:1007700005D303FA02F5491B04FA02F52844151EB5
:10078000A2F10102F1DC30BD2DE9F05F0546002049
:1007900092469B4688460646814640241BE02846F2
:1007A00041464746224600F02FF853465A46C01AA3
:1007B000914110D311461846224600F016F82D1A22
:1007C00067EB01084F4622460120002100F00DF89A
:1007D00017EB00094E41201EA4F10104DFDC48465E
:1007E00031462A464346BDE8F09F202A04DB203AE2
:1007F00000FA02F1002070479140C2F1200320FA74
:1008000003F3194390407047202A04DB203A21FA71
:1008100002F00021704721FA02F3D040C2F1200219
:100820009140084319467047202A06DBCB17203A2F
:1008300041FA02F043EAE07306E041FA02F3D040E5
:10084000C2F1200291400843194670470029A8BF11
:100850007047401C490008BF20F00100704710B4E9
:10086000B0FA80FC00FA0CF050EA010404BF10BC9E
:10087000704749B1CCF1200421FA04F411FA0CF1CB
:1008800018BF012121430843A3EB0C01CB1D010636
:10089000000A002BBEBF002010BC704700EBC35005
:1008A00010440029A4BF10BC7047401C490008BF79
:1008B00020F0010010BC704710B5002B08DA401C76
:1008C00041F1000192185B411A4301D120F001006F
:1008D00010BD2DE9F04D92469B4611B1B1FA81F25F
:1008E00002E0B0FA80F220329046FFF77EFF044625
:1008F0000F4640EA0A0041EA0B0153465A460843B4
:1009000003D120463946BDE8F08D114653EA010077
:1009100015D0C8F140025046FFF776FF05460E4657
:10092000504659464246FFF760FF084301D0012078
:1009300000E00020054346EAE0762C4337430A985E
:100940004FEA4453A0EB08004FEAD4240A304FF09A
:10095000000244EA47544FEAD72502D50020014659
:10096000D1E7010510196941DDE908450019694120
:10097000BDE8F04DA0E7C1F30A52C1F3130140F204
:10098000FF3341F480119A4202DA00200146704799
:1009900040F233439A42A2F2334202DC5242FFF762
:1009A00033BFFFF722BF000030B5002904DB4FF052
:1009B0000044404264EB0101002B04DB4FF0004493
:1009C000524264EB0303994208BF904230BD0000DD
:1009D000064C074D06E0E06840F0010394E807008C
:1009E00098471034AC42F6D3FFF7A6FBD8FE0008B8
:1009F000F8FE000882B02DE9FF1FEFF3038001B479
:100A0000684600F1400000E901400C480168C1F867
:100A100000D00B48D0F800D001BC80F30388BDE8BB
:100A2000FF1F01B000BD0648D0F800D001BC80F324
:100A30000388BDE8FF1F01B000BD0000400000209A
:100A40003C00002008B50121084602F083FE012188
:100A50004FF4047002F09EFE0320ADF80000002069
:100A60008DF803006946094801F0D4FC01214FF4D8
:100A7000017002F08FFE1020ADF8000000208DF80C
:100A800003006946024801F0C5FC08BD00100140A2
:100A90000008014000B591B0374800F0A7F80020E9
:100AA0000C9001208DF834008DF835004FF4602053
:100AB0000E9000200F9003208DF840000CA92E48C6
:100AC00000F0D6F8072301220A212B4800F0F8F89D
:100AD000072302220B21284800F0F2F80523032205
:100AE0000421254800F0ECF80121234800F068F8C3
:100AF000214800F041F900BF1F4800F0AFF800287E
:100B0000FAD11D4800F048F900BF1B4800F09CF8DE
:100B10000028FAD1194800F085FC17484C300190A4
:100B200017480290002003901E200490002005909A
:100B300080200690400007908000089020200990B7
:100B400000020A9000200B9001A90C4800F019FD4A
:100B50000121094800F015F90121084800F056FC70
:100B600001220221054800F003FD0121024800F0A6
:100B700032F811B000BD000000240140080002401E
:100B80003C05002010B5FFF75DFFFFF783FF10BDA8
:100B900010B502460023002109E001EB4100074C9B
:100BA00004EB400030F812000344481CC1B20A298B
:100BB000F3DB0A20B3FBF0F080B210BD3C0500204F
:100BC00021B1826842F00102826003E0826822F073
:100BD00001028260704721B1826842F480728260B3
:100BE00003E0826822F480728260704710B5044688
:100BF0001248844208D10121401502F0DBFD00219A
:100C0000601502F0D7FD17E00D48844208D101219C
:100C1000001502F0CFFD0021201502F0CBFD0BE006
:100C20000848844208D10121C80302F0C3FD002115
:100C30004FF4004002F0BEFD10BD00000024014052
:100C400000280140003C0140014600208A6812F063
:100C5000040F01D0012000E0002070470146002071
:100C60008A6812F0080F01D0012000E000207047D0
:100C700030B502460020002350680F4C20400D790B
:100C80000C6844EA05242043506090680B4C2040D7
:100C9000D1E902542C434D7944EA45042043906045
:100CA000D06A20F470000C7C641EE4B2234340EA56
:100CB0000350D06230BD0000FFFEF0FFFDF7F1FFF2
:100CC000F0B504460D4600200021092D11DDE06835
:100CD000A5F10A0606EB4607072606FA07F1884340
:100CE000A5F10A0606EB460603FA06F10843E060A2
:100CF0000CE0206905EB4507072606FA07F1884353
:100D000005EB450603FA06F108432061072A0FDACE
:100D1000606B561E06EB86071F2606FA07F188430E
:100D2000561E06EB860605FA06F10843606322E0CC
:100D30000D2A0FDA206BD61F06EB86071F2606FA50
:100D400007F18843D61F06EB860605FA06F108432D
:100D5000206310E0E06AA2F10D0606EB86071F266D
:100D600006FA07F18843A2F10D0606EB860605FA9E
:100D700006F10843E062F0BD816841F0080181603E
:100D8000704721B1826842F4A002826003E0826869
:100D900022F4A00282607047816841F00401816002
:100DA0007047000038B54FF47A710BA002F060FC78
:100DB0006946002002F09AFA04469DF8000008B93E
:100DC000002038BD074881692046FFF7B3FC01D1F8
:100DD0000120F6E70020F4E7CAE4C8EBC3DCC2EB6D
:100DE000000000009005002000B50020FFF7D0FEB5
:100DF000034908800120FFF7CBFE0249088000BDAF
:100E00009E0000209C00002006E04FF47A7100BF95
:100E10000A00A1F10101FBD10200A0F10100F4D10F
:100E20007047000010B540210A4801F0CEFB4FF496
:100E30008071084801F0C9FB022004F03BFA402110
:100E4000044801F0C4FB4FF48071024801F0BFFB7D
:100E500010BD000000140140F0B5034600201C4600
:100E60000D46104603E014F8016B05F8016B1600FF
:100E7000A2F10107BAB2F6D1F0BD00BFFEE7000053
:100E80001148006AB0F57A7F03DD4FF47A710E489D
:100E900001620D48006A10F1020F0BD0B0F1FF3F64
:100EA00004D058B909A0084908630BE009A0064915
:100EB000086307E009A00449086303E009A00249A8
:100EC000086300BF00BF704790050020D2D1B9FD74
:100ED000C6DA0000CEB4D7A2B2E10000D2D1D7A2C8
:100EE000B2E10000D2D1BCA4BBEE000070B5044654
:100EF0002046FFF7DCFB05460022214BFFF7EAFB0B
:100F000001D2012500E000254FF082412046FFF785
:100F10001BFC01D2012000E00020054229D0194825
:100F20000078401C174908704021174801F04DFB1C
:100F3000052004F0BFF94021134801F048FB134895
:100F4000407C10490978884201DC012070BD0D49C0
:100F5000087800EBD0714910B0EB410104D10421B5
:100F60000B4801F034FB08E00421094801F02DFB97
:100F700003E00421064801F02AFB0020E6E7000018
:100F80000000234080000020001401409005002054
:100F90000010014002E0002200F8012B0A00A1F13C
:100FA000010399B2F7D1704738B54FF47A7120A098
:100FB00002F05EFB6946002002F098F904469DF8B5
:100FC000000000B938BD1D4881692046FFF7B2FB1B
:100FD00002D002F041FBF5E74FF47A7118A002F05D
:100FE00047FB16498869694602F080F904469DF876
:100FF000000000B9E6E74FF47A7114A002F038FB64
:101000000E498869694602F071F905469DF80000AD
:1010100000B9D7E729462046FFF78CFB04D10748E3
:10102000846102F0F1FD01E002F016FB00BFC9E7A8
:10103000CAE4C8EBD4ADC3DCC2EB000090050020CD
:10104000CAE4C8EBD0C2C3DCC2EB0000D4D9CAE406
:10105000C8EBD0C2C3DCC2EB000000007FB50025A6
:101060000F49886B03A902F041F905469DF80C0071
:1010700000B97FBD2946684601F02BF9C4B222466B
:1010800069461E2002F0E0FD0A210648006802F0D1
:101090001FFB0348C18804A002F020FA00BFE8E764
:1010A000CC050020780000204144433D2564000029
:1010B0003EB50021684601F00CF9C4B222466946EB
:1010C0001C2002F0C1FD0A210448006802F000FB68
:1010D0000348818803A002F001FA3EBD7800002099
:1010E000CC0500204144433D256400007FB5002429
:1010F00001208DF804000F4991F82000FFF7A5FAB0
:101100000646694602F0F2F80546FFF7BCFAC4B29B
:101110009DF8000000B97FBD8DF80440012201A9AF
:10112000332002F091FD0A210348006802F0D0FA52
:1011300000BFF0E7CC050020780000207FB5002537
:1011400001208DF804001049086C694602F0CEF8C1
:1011500005469DF8000000B97FBD294601A801F0B1
:10116000B8F8C4B2224601A91D2002F06DFD0A2183
:101170000648006802F0ACFA0348C18804A002F0F7
:10118000ADF900BFE8E70000CC05002078000020A2
:101190004144433D256400007FB5002403251049E8
:1011A000086B03A902F0A2F804469DF80C0000B9F0
:1011B0007FBD2146684601F08CF8C5B22A466946D3
:1011C0001B2002F041FD0A210648006802F080FA67
:1011D0000348818804A002F081F900BFE8E700001D
:1011E000CC05002078000020414443202564000005
:1011F00010B500221146322002F026FD0A210248D5
:10120000006802F065FA10BD780000202DE9FE4369
:101210000020019002902CA73B49087FFEF7AEFF0B
:1012200000240BE0FEF7A0FF3A2190FBF1F201FB56
:101230001200385C01A90855601CC4B2052CF1DB12
:101240004FF4FA6101A802F013FA052101A803F096
:1012500069FE42F20F7190FBF1F201FB120086B2BF
:101260006946002002F042F88046FFF70CFA85B28A
:101270009DF8000008B9BDE8FE83B5420AD14FF4DD
:101280007A7121480162007F401CC1B21E4801777B
:1012900002F0BAFC042101A803F044FE42F20F71EF
:1012A00090FBF1F201FB120086B2AE420AD16FF060
:1012B000010115480162007F401CC1B2124801774C
:1012C00002F0A2FC00BFD6E7303132333435363776
:1012D00038394142434445464748494A4B4C4D4EB4
:1012E0004F505152535455565758595A616263647E
:1012F00065666768696A6B6C6D6E6F707172737426
:1013000075767778797A00009005002010B50F2067
:1013100002F08EFC20B10A210248006802F0D8F9E0
:1013200010BD00007800002010B5FFF73BFD50B164
:1013300000221146252002F087FC0A21034800689C
:1013400002F0C6F901E002F087F910BD7800002034
:1013500038B54FF47A7120A002F08AF9694600206E
:1013600001F0C4FF04469DF8000000B938BD1E49D5
:101370002046FFF7DFF902D002F06EF9F6E74FF4EE
:101380007A711AA002F074F91B498869694601F064
:10139000ADFF04469DF8000000B9E7E74FF47A710D
:1013A00016A002F065F914498869694601F09EFFAC
:1013B00005469DF8000000B9D8E729462046FFF70A
:1013C000B9F904D10C48846102F01EFC01E002F07E
:1013D00043F900BFCAE70000CAE4C8EBB9DCC0EDBE
:1013E000D4B1C3DCC2EB00000000EC44CAE4C8EB9B
:1013F000D0C2C3DCC2EB000090050020D4D9CAE4FF
:10140000C8EBD0C2C3DCC2EB0000000021B102680F
:1014100042F00102026004E002684FF6FE731A40D7
:101420000260704701684FF6FE72114001600021B2
:10143000016041608160C1604B49884208D14A49DE
:101440000839496841F00F01474A083A51608AE07B
:1014500045491431884208D143490839496841F067
:10146000F001414A083A51607DE03F492831884205
:1014700008D13D490839496841F470613A4A083A4F
:10148000516070E038493C31884208D1364908390A
:10149000496841F47041344A083A516063E0324986
:1014A0005031884208D130490839496841F47021E7
:1014B0002D4A083A516056E02B496431884208D1E0
:1014C00029490839496841F47001274A083A5160AE
:1014D00049E025497831884208D1234908394968CB
:1014E00041F07061204A083A51603CE01F4988424F
:1014F00006D1011F096841F00F01021F116032E09F
:101500001A491431884208D11849091F096841F065
:10151000F001164A121F116025E014492831884253
:1015200008D11249091F096841F470610F4A121F5E
:10153000116018E00D493C31884208D10B49091F60
:10154000096841F47041094A121F11600BE0074914
:101550005031884207D10549091F096841F47021BB
:10156000024A121F1160704708000240080402403E
:101570001AB103680B43036002E003688B43036006
:10158000704710B50022026847F6F0739A430C6A60
:101590008B6823430C6923434C6923438C692343A1
:1015A000CC6923434C6A23438C6A23431A43026069
:1015B000CB6843600B6883604B68C36010BD7047A5
:1015C0000248007802490870704700004C00002073
:1015D000680000207047000010B500201549087011
:1015E0004FF4A07001F036FD1349086000241DE09F
:1015F00000201149096801EB4411486103200E499C
:10160000096801EB4411087200200B49096801EBDD
:10161000441108610849096801EB4411C860064992
:10162000096801EB44118861601CC4B20A2CDFDB3D
:1016300010BD00005C0000206000002028480078F9
:101640002849087026480078401C2549087025481C
:10165000007825490968234A127801EB4211087184
:1016600022A0214909681F4A127801EB4211086043
:1016700000201D4909681B4A127801EB421148718C
:10168000032019490968174A127801EB4211C87101
:10169000012115480068134A127800EB42100172CC
:1016A0001349114800680F4A127800EB421041615B
:1016B00000200D4909680B4A127801EB4211C860FD
:1016C000002109480068074A127800EB42100161C6
:1016D00005480068034A127800EB421081617047A8
:1016E0005C0000206C000020600000204354520089
:1016F0002D230008244800782449087022480078E7
:10170000401C2149087022A0224909681F4A12780A
:1017100001EB4211086000211E4800681B4A127844
:1017200000EB4210417103201A490968174A1278E8
:1017300001EB4211C871012116480068134A127862
:1017400000EB421001721448124909680F4A1278DE
:1017500001EB4211486111480E4909680B4A1278A1
:1017600001EB4211C8600E490A480068074A127826
:1017700000EB42100161002106480068034A12781C
:1017800000EB4210816170475C00002014000020D3
:101790004C43440060000020F9380008053C000874
:1017A000653B000870B50546284604F051FB044629
:1017B0005B4800785B49085559480078401C5849F7
:1017C000087059A05749095D594A126802EB411146
:1017D000086000205349095D554A126802EB411127
:1017E000487101204F49095D514A126802EB4111CD
:1017F000C87103204B49095D4D4A126802EB411143
:1018000008724C484749095D494A126802EB411188
:1018100048614448005D4649096801EB4010C461D5
:1018200045484049095D424A126802EB4111C860CF
:1018300042493C48005D3E4A126802EB401001619B
:1018400000213848005D3A4A126802EB401081617D
:1018500000203B4921F814004FF4967001F0FAFB88
:10186000384941F82400284604F0F2FA04462C488E
:101870000078354908552A480078401C28490870E6
:1018800029A13148005D2A4A126802EB401001602C
:1018900000202D49095D264A126802EB411148716A
:1018A00001202949095D224A126802EB4111C871E1
:1018B00003212548005D1E4A126802EB40100172A8
:1018C0001C482149095D1A4A126802EB411148611E
:1018D0001D48005D1649096801EB4010C4611648B7
:1018E0001949095D124A126802EB4111C860134997
:1018F0001548005D0E4A126802EB4010016100219C
:101900001148005D0A4A126802EB401081614FF4F1
:10191000967001F09FFB0D4941F8240070BD000056
:101920005C0000201E0000205553415254780000F6
:1019300060000020F95B0008BD600008F95F000846
:10194000E0040020B804002019000020CC0400208E
:1019500010B503211DA0FFF732FE002433E022481A
:10196000006800EB4410406958B31F48006800EB62
:101970004410C079012804D0022815D003281FD1B3
:101980000BE0194A126802EB4412107F164A1268E3
:1019900002EB44125169884712E01349096801EBD0
:1019A0004411486980470BE00F4A126802EB441269
:1019B000D0690D4A126802EB44125169884700BF92
:1019C00000BF601CC4B20A2CC9DB10BD546F732069
:1019D00044657669636520496E69742E2E2E2E2E1D
:1019E0002E2E2E2E2E00000060000020F8B504469A
:1019F0000D46174601200090E81D83B204F10C004B
:101A000082B22946204602F03FFC012005F1050C78
:101A10001FFA8CF304F10D0C1FFA8CF205F1020C85
:101A20001FFA8CF104F10D0C00901FFA8CF002F0FB
:101A30000BFE002619E0012005F1050C1FFA8CF3BE
:101A400004F1020C0CEB460C1FFA8CF205F1020CAF
:101A50001FFA8CF104F1020C0CEB460C00901FFAFB
:101A60008CF002F0F1FD701CC6B2BE42E3DBF8BDA3
:101A70002DE9FC5F05460E4617461C46DDE90DAB19
:101A8000A9464FF000080EE0CDE900AB19F8010BB4
:101A9000224639460C9B00F0B5FA601C84B208F16E
:101AA00001001FFA80F8B045EEDBBDE8FC9F0000A6
:101AB0007CB500F043F8012032237F2219460090C4
:101AC000002002F0C1FD012002F0F2F8FFF7D8F982
:101AD00015490868FEF7D7FD85B2052000900C2354
:101AE000002209210190284601F09CFBC4B2224645
:101AF00037213A20FFF77AFF062034237F22002186
:101B00000090084602F08CFD08A001F0BDFC082002
:101B100034237F2200210090084602F081FD05A0B9
:101B200001F0B2FC7CBD000090050020C6F4B6AF09
:101B300000000000C9E8D6C3000000002DE9FC5FEA
:101B4000002001909448006890F800909248006846
:101B5000467892480468012002F07EF900F048FDC2
:101B60008D4909688968C8718B4800688068401C85
:101B70008949096889688979415C874800684079A2
:101B8000854A12681279504391FBF0F000F0FF088B
:101B9000814800684079804909680979484300FB19
:101BA00008F004EB00140025EEE07B480068807824
:101BB000794909680978401A77490968497990FB99
:101BC000F1F0684300F0FF0900260027D4E0206808
:101BD00008B9BDE8FC9F70480068C0786E49096884
:101BE0000978401A6C490968097990FBF1F0304492
:101BF0001FFA80FA684800688078674909680978A0
:101C0000401A65490968497990FBF1F048441FFA88
:101C100080FB002053465A4631460090484602F069
:101C2000FFFC5D4800688068401C5B490968896862
:101C30008979435C584800684179574800680079C1
:101C400041430198421CD2B208FB01000192834239
:101C500001D1012000E000204F490968897908423C
:101C600007D0032002F024F84B48006880688460A5
:101C700002E0012002F01CF8207A001F0E2865D235
:101C8000DFE800F0071218641F2A303C42484E3645
:101C9000645561680868FEF70AFD824652460B46A5
:101CA000206801F0F1FB55E062681188206801F0BE
:101CB000EBFB4FE0626892F90010206801F0E4FB52
:101CC00048E061680868FEF7F2FC824652460B461F
:101CD000206801F0D9FB3DE062681168206801F0DE
:101CE000D3FB37E062681188206801F0CDFB31E05A
:101CF00062681168206801F0C7FB2BE06268117808
:101D0000206801F0C1FB25E062681178206801F0CD
:101D1000BBFB1FE062681168206801F0B5FB19E0A9
:101D2000626892F90010206801F0AEFB12E0626870
:101D30001268E3681A4201D0012200E00022184B29
:101D400053F82210206801F09FFB03E0206801F0A7
:101D50009BFB00BF00BF10340F480068C0780E49DD
:101D600009680978401A0C490968097990FBF1F073
:101D70003044C6B2781CC7B2074800680079B84240
:101D80003FF725AF681CC5B2034800684079A842F8
:101D90003FF70BAF00BF1CE7A4000020A800002005
:101DA00070000020F8B504460D4616461F46012077
:101DB000211D8AB2211F009088B22B46294602F0CD
:101DC00043FC0120A91E8BB2211F8AB2009088B269
:101DD000294602F039FC0120A91E8BB2211D8AB2CE
:101DE000009088B2294602F02FFC0120691C8BB2BA
:101DF000E11C8AB2009088B2294602F025FC01203D
:101E0000691C8BB2E11E8AB2009088B2294602F0AA
:101E10001BFC002E7AD00120A5F1030C1FFA8CF3D5
:101E200004F1050C1FFA8CF2A5F1030C1FFA8CF1DA
:101E3000A4F1050C00901FFA8CF002F005FC0120C3
:101E4000A5F1060C1FFA8CF3A4F1050C1FFA8CF215
:101E5000A5F1030C1FFA8CF1A4F1050C00901FFAF8
:101E60008CF002F0F1FB0120A5F1060C1FFA8CF3B7
:101E700004F1050C1FFA8CF2A5F1030C1FFA8CF18A
:101E800004F1050C00901FFA8CF002F0DDFB01203C
:101E9000A5F1020C1FFA8CF304F1020C1FFA8CF26C
:101EA000A5F1030C1FFA8CF104F1020C00901FFA4B
:101EB0008CF002F0C9FB0120A5F1020C1FFA8CF393
:101EC000A4F1020C1FFA8CF2A5F1030C1FFA8CF19D
:101ED000A4F1020C00901FFA8CF002F0B5FBAFB138
:101EE0000120A31C9AB26B1E99B2A31C009098B259
:101EF0002B4602F0A9FB0120A31E9AB26B1E99B2D9
:101F0000A31E009098B22B4602F09EFBF8BD000085
:101F10007CB50320324909680871022030490968FC
:101F2000487100202E4909688871FFF707FEFEF707
:101F3000A7FF012032237F2219460090002002F0E3
:101F400083FB28490868FEF79EFB85B205200090B8
:101F50000C23002209210190284601F063F9C4B244
:101F6000224637213A20FFF741FD1F48007800F054
:101F700001031D48008800F400523E212820FFF78D
:101F800011FF1948007800F001031748008800F499
:101F900080423E215820FFF705FF012001F088FE16
:101FA000062034237F2200210090084602F038FBEF
:101FB0000EA001F069FA082034237F22002100904E
:101FC000084602F02DFB0848008810F4807F03D0FB
:101FD00008A001F059FA02E008A001F055FA7CBD12
:101FE000A400002090050020CC050020CDA3D6B988
:101FF00000000000B9CAD5CF00000000B9A4D7F78F
:10200000000000002DE9F04706460C4617469846AA
:10201000DDE9089A002514E00120A840304205D0EF
:1020200042463946204601F0AFFD06E0D14504D0D6
:102030004A463946204601F0A7FD601C84B2681C60
:10204000C5B2082DE8DBBDE8F08710B5012000F02F
:1020500003F800F0C9FF10BD014908607047000097
:10206000140401402DE9F0412C4800688068846820
:10207000207A0C284FD2DFE800F04E063B4E174E78
:102080001E453A4E4E2D26496068086025498979DB
:10209000E068884204D900212248401CE26881544B
:1020A000207B2049887136E06168086801F016F9E4
:1020B000616808602FE0616891F90000FEF7BCFAE2
:1020C000804601F00BF90746FEF7C4FA40B261689A
:1020D000087020E061680878FEF7B7FA804601F0E2
:1020E000FDF80746FEF7CFFA6168087013E012E0CA
:1020F00065682DB94FF47A710BA001F07DFA00E00C
:10210000A84708E066687168086801F0E7F80746C4
:102110003168884700BF00BFBDE8F081A4000020FF
:10212000A8000020780500204E6F74204275696C6D
:102130006400000030B5044604254FF4302000F060
:102140006FF80546042D17D10C48006940F00200D5
:102150000A49086108464461006940F0400008618E
:102160004FF4302000F05CF805460448006941F661
:10217000FD71084001490861284630BD0020024039
:1021800004200B49C96811F0010F01D001200EE0B5
:102190000749C96811F0040F01D0022007E0044983
:1021A000C96811F0100F01D0032000E0042070472F
:1021B000002002400348006940F0800001490861A6
:1021C000704700000020024070B504460D4604260A
:1021D000F00200F025F80646042E11D109480069E6
:1021E00040F00100074908612580F00200F018F86E
:1021F00006460448006941F6FE710840014908613D
:10220000304670BD00200240024803494860034840
:10221000486070472301674500200240AB89EFCD3D
:1022200000B502460423FFF7ABFF034603E0FFF7C8
:10223000A7FF0346521E012B01D1002AF7D102B994
:102240000523184600BD70B50B46044603E014F89C
:10225000015B03F8015B1500A2F10106B2B2F6D1F1
:1022600070BD2DE9F0470646884614460027C14652
:10227000FFF7CAFF2046E11704EBD151C1F34F2706
:10228000E11704EBD1514912B4EB412101D0781C84
:1022900087B2002507E04FF4007101FB0760FFF7EC
:1022A00049FF681C85B2BD42F5DB002508E039F81E
:1022B000021B2A466B1C9DB206EB4200FFF784FF0F
:1022C0002000A4F101018CB2F1D1FFF773FFBDE84A
:1022D000F08713B50246042301A903E011F8010BAE
:1022E00002F8010B1800A3F10104E3B2F6D10420B7
:1022F0001CBD70B504460025107820B11678206802
:10230000B0FBF6F085B2206808442060107898424F
:1023100003DA1078401C107002E02068401B206037
:1023200016782068B0FBF6F080B270BD08B50121C8
:10233000082001F02FFA03208DF8020010208DF8FC
:1023400003000420ADF8000069462E4800F062F852
:102350000121202001F01EFA4FF47F40ADF800006B
:1023600003208DF8020010208DF8030069462648EE
:1023700000F050F80121102001F00CFA4EF2CC00D0
:10238000ADF8000003208DF8020010208DF8030046
:1023900069461E4800F03EF80121082001F0FAF9D4
:1023A0004FF40040ADF8000003208DF8020010202B
:1023B0008DF803006946134800F02CF801214020F5
:1023C00001F0E8F94020ADF8000003208DF802008C
:1023D00010208DF8030069460D4800F01BF801211C
:1023E000202001F0D7F903208DF8020014208DF889
:1023F00003004020ADF800006946034800F00AF8E9
:1024000008BD0000000C0140001401400010014014
:10241000001801402DE9F041024600250026002069
:1024200000230024002791F803C00CF00F0591F859
:1024300003C01CF0100F03D091F802C04CEA050550
:1024400091F800C0BCF1000F31D0146800202BE0DF
:102450004FF0010C0CFA00F3B1F800C00CEA0306CF
:102460009E4220D183004FF00F0C0CFA03F7BC43BF
:1024700005FA03FC4CEA040491F803C0BCF1280FF0
:1024800006D14FF0010C0CFA00FCC2F814C00AE0AF
:1024900091F803C0BCF1480F05D14FF0010C0CFAC4
:1024A00000FCC2F810C0401C0828D1D31460B1F859
:1024B00000C0BCF1FF0F34DD546800202EE000F1B5
:1024C000080C4FF0010808FA0CF3B1F800C00CEA50
:1024D00003069E4221D183004FF00F0C0CFA03F744
:1024E000BC4305FA03FC4CEA040491F803C0BCF1B8
:1024F000280F05D100F1080C08FA0CF8C2F8148076
:1025000091F803C0BCF1480F07D100F1080C4FF05F
:10251000010808FA0CF8C2F81080401C0828CED335
:102520005460BDE8F0810000F0B50A4600230024A5
:102530000021002500F00046B6F1004F02D11D4EEB
:10254000F16901E01B4E7168C0F3034583B200F4EA
:102550004016B6F5401F08D121F07061154E76681F
:1025600026F07066134F7E6012E000F48016B6F518
:10257000801F06D1032606FA05F4A14341F07061DD
:1025800006E0460D360103FA06F6B14341F07061EC
:1025900022B1460D360103FA06F6314300F000463B
:1025A000B6F1004F02D1034EF16101E0014E7160BE
:1025B000F0BD0000000001400246002093680B427D
:1025C00001D0012000E000207047416170470161A7
:1025D00070470246002105E0505C08B90846704784
:1025E000481C81B24FF6FF708142F5DB00BFF6E771
:1025F00000210648026802E01032481CC1B210688F
:102600000028F9D1481EC0B270470000A800002081
:102610002DE9FF4F8BB0044691469A4600260025CF
:10262000AB46B9F1420F09D0B9F1440F0CD0B9F162
:10263000480F0CD0B9F14F0F0CD102E04FF0020B54
:1026400008E04FF0080B05E04FF00A0B02E04FF0F6
:10265000100B00BF00BF00210C98FEF76BF809D2E9
:102660002D2004F8010B00200C99FDF7E1FD0C90E2
:10267000701CC6B20C98FDF7EDFF07463846FDF713
:10268000DBFF00900C99FDF7D6FD0C9000BF97FB87
:10269000FBF00BFB107000F0FF08B8F1090F02DD32
:1026A00008F1370001E008F13000C2B22846691C89
:1026B000CDB201A90A5497FBFBF7002FE7DC701994
:1026C000C6B203E001A8405D04F8010B2800A5F1A3
:1026D0000101CDB2F6D1BAF1000F01DD012000E019
:1026E0000020B9F1440F01D1012100E0002108428E
:1026F00026D0701CC6B22E2004F8010B19E05846F3
:10270000FDF79AFF00900C99FDF798FD0C900C983E
:10271000FDF7B9FFC5B205F1300004F8010B2846FA
:10272000FDF793FF00900C99FDF785FD0C90701C50
:10273000C6B25FEA0A00AAF1010101F0FF0ADED188
:1027400000202070701CC0B206460FB0BDE8F08FAC
:102750002DE9FC5F814600200190009082464FF0F9
:102760007E5B3DE019F8014B2D2C02D10120019038
:1027700036E02E2C02D10120009031E0302C2CDBF1
:10278000392C2ADC009870B91C495046FDF756FDDB
:102790008246A4F13000FDF74FFF05465146FDF794
:1027A000F5FC82461CE05846FDF781FF0746144AB7
:1027B000144BFDF760FE0546FDF7A0FF8346A4F12C
:1027C0003000FDF739FF06465946FDF737FD05464F
:1027D0005146FDF7DBFC824602E00020BDE8FC9F8D
:1027E00099F800000028BDDC019820B10649504648
:1027F000FDF724FD82465046F0E70000000020412E
:102800009A9999999999B93F000080BF10B50146EE
:1028100000200A4601E0431C98B212F8014B002C3C
:10282000F9D110BD0246002039B950784FF6FF7338
:1028300003EA00201378184306E010784FF6FF7380
:1028400003EA002053781843704700002DE9F04355
:1028500006464FF000094FF49678582E05D1012016
:10286000FEF796F9054613480788592E05D1002032
:10287000FEF78EF9054610480788002408E004FB9F
:102880000870A84202DA60424FFA80F9601CC4B2B4
:10289000052CF4DB002407E004FB1870A84201DDDE
:1028A0004FFA84F9601CC4B2052CF5DB4846BDE83C
:1028B000F08300009C0000209E0000202DE9F047DE
:1028C0000220FEF765F905461423154A29461548E6
:1028D000FFF70FFD04462046FDF7B7FE8146484648
:1028E000FDF7E5FE0746104A104BFDF7C4FD05460F
:1028F000FDF704FF81464FF08B414846FDF7D4FCBD
:1029000081464846FDF7D3FE0746094A094BFDF7C5
:102910000BFD0546FDF7F2FE81464846BDE8F0870F
:102920008100002084000020CDCCCCCCCCCC324027
:10293000B81E85EB51B8EE3F10B54FF40051124868
:10294000FFF73AFE01281CD1022001F071F920B1F5
:102950000A210EA000F0BCFE00E010BD0A210EA06E
:1029600000F04AFE02E0642002F0A4FC4FF40051A3
:102970000548FFF721FE0128F5D00A2108A000F044
:10298000A7FE00BFE9E70000000C014053746F7020
:10299000696E672E2E2E2E0053544F5000000000FB
:1029A0005374617274696E672E2E2E2E0000000023
:1029B00070B50446002508210D48FFF7FDFD10B94C
:1029C00058206070012510210948FFF7F5FD10B966
:1029D0005920607001250020A07035B1642002F0FC
:1029E00069FC6078FFF732FFA070284670BD0000D8
:1029F0000018014010B5002440212A48FFF7DCFDF3
:102A000000B9252420212748FFF7D6FD00B9272447
:102A100010212448FFF7D0FD00B926248021224848
:102A2000FFF7CAFD00B9282420211F48FFF7C4FD85
:102A300000B9412410211C48FFF7BEFD00B9422413
:102A400008211948FFF7B8FD00B9432402211648B0
:102A5000FFF7B2FD00B9442401211348FFF7ACFD94
:102A600000B945244FF480411048FFF7A5FD00B997
:102A700031244FF400410D48FFF79EFD00B9322488
:102A80004FF480510748FFF797FD00B933244FF406
:102A900000510448FFF790FD012800D1342420465E
:102AA00010BD0000000C014000140140001801405E
:102AB00001E000F099FAFCE710B545F2555000F03E
:102AC00029F8062000F01AF84FF47F6000F01CF897
:102AD00000F00CF800F002F810BD00004CF6CC40FD
:102AE0000149086070470000003000404AF6AA2003
:102AF000014908607047000000300040014948600B
:102B000070470000003000400149886070470000B5
:102B1000003000400149086070470000003000406C
:102B200002460B4600210AE0505C984201D108465B
:102B30007047505C08B90020FAE7481CC1B2F3E7BF
:102B400008B50121092000F025FE47F27800ADF814
:102B5000000001208DF8020048208DF8030069462E
:102B60001748FFF757FC0121202000F013FEBB207F
:102B7000ADF8000048208DF8030069461148FFF7C2
:102B800049FC0121402000F005FE4CF21800ADF890
:102B9000000048208DF8030069460B48FFF73AFC17
:102BA0002020ADF8000010208DF80300694606488B
:102BB000FFF730FC20210448FFF707FD08BD0000A7
:102BC000000C0140001401400018014070B5064699
:102BD0000D467078582810D196F9020000280CDABA
:102BE00029781F48FFF79CFF0446601CC4B20D2CD7
:102BF00000D300241A48005D2870707858280FD13F
:102C000096F9020000280BDD29781548FFF788FFA8
:102C1000044604B90D24601EC4B21148005D28703A
:102C2000707841280CD129780D48FFF779FF0446C8
:102C3000601CC4B20D2C00D300240948005D28702C
:102C4000707842280BD129780548FFF769FF0446C0
:102C500004B90D24601EC4B20148005D287070BD27
:102C6000E3F50008F0B504460F4615461E4606E09B
:102C70002046621C94B23246394600F085FF280097
:102C8000A5F101018DB2F3D1F0BDF0B507460C46B8
:102C900015461E4606E02146621C94B2324638466E
:102CA00000F072FF2800A5F101018DB2F3D1F0BD53
:102CB00010B53A48007810F0010F05D04FF480614C
:102CC0003748FFF784FC04E04FF480613448FFF795
:102CD0007CFC3248007810F0800F05D04FF4006182
:102CE0002F48FFF774FC04E04FF400612C48FFF715
:102CF0006CFC2A48007810F0010F09D027480068C2
:102D000010F4803F04D040212648FFF760FC03E028
:102D100040212448FFF759FC2048008810F4805FC8
:102D200005D04FF400511E48FFF751FC04E04FF46A
:102D300000511B48FFF749FC1848008810F4007F39
:102D400005D04FF400511848FFF741FC04E04FF460
:102D500000511548FFF739FC1048008810F4806FC7
:102D600005D04FF480411048FFF731FC04E04FF4E8
:102D700080410D48FFF729FC0848008810F4006FD7
:102D800005D04FF400410848FFF721FC04E04FF460
:102D900000410548FFF719FC10BD0000CC050020DC
:102DA00000140140001801400010014010B56F48A8
:102DB00090F82C0010F0010F05D04FF480616C48A2
:102DC000FFF703FC04E04FF480616948FFF7FFFB65
:102DD000664890F82C0010F0020F05D04FF4006107
:102DE0006348FFF7F2FB04E04FF400616048FFF72F
:102DF000EEFB5E4890F82C0010F0040F05D04FF465
:102E000080515B48FFF7E1FB04E04FF480515848E4
:102E1000FFF7DDFB554890F82C0010F0080F05D0A7
:102E20004FF400515248FFF7D0FB04E04FF400513B
:102E30004F48FFF7CCFB4D4890F82C0010F0100FD6
:102E400005D04FF480414A48FFF7BFFB04E04FF440
:102E500080414748FFF7BBFB444890F82C0010F036
:102E6000200F05D04FF400414148FFF7AEFB04E0CE
:102E70004FF400413E48FFF7AAFB3C4890F82C0075
:102E800010F0400F04D040213A48FFF79EFB03E0CA
:102E900040213848FFF79BFB344890F82C0010F095
:102EA000800F04D080213348FFF78FFB03E080219F
:102EB0003048FFF78CFB2D48808D10F4807F04D0C4
:102EC00040212D48FFF781FB03E040212A48FFF70E
:102ED0007EFB2648808D10F4007F05D04FF4005112
:102EE0002448FFF772FB04E04FF400512148FFF73C
:102EF0006EFB1E48808D10F4806F05D04FF480412A
:102F00001C48FFF762FB04E04FF480411948FFF7CB
:102F10005EFB1648808D10F4006F05D04FF4004121
:102F20001448FFF752FB04E04FF400411148FFF74B
:102F30004EFB0E48808D10F4805F04D008210D48B0
:102F4000FFF743FB03E008210A48FFF740FB07486F
:102F5000808D10F4005F04D004210648FFF735FB94
:102F600003E004210348FFF732FB10BD9005002069
:102F700000140140001001400018014010B5044643
:102F80000248C462FFF712FF10BD00009005002048
:102F900010B504460EE00020FFF7F0FF4FF4FA7082
:102FA00002F088F94FF0FF30FFF7E8FF4FF4FA70B6
:102FB00002F080F92000A4F10101CCB2EBD110BDE8
:102FC00010B5182206490748FFF73DF904481038A4
:102FD000007C322803DA322001491039087410BD10
:102FE000A005002000F8070871B600BF0648006879
:102FF00000F4E06005490843001D03490860BFF381
:10300000408F00BF00BFFEE70CED00E00000FA05B6
:1030100070B5054625B1284602F022FA044602E0C2
:1030200002F0E8F9044614B16668304670BD00202D
:10303000FCE700BFFEE70000054908600021044AE4
:10304000126811600821024A12685160704700003E
:103050006400002010B503461048016803F1080021
:1030600083B20FE00868401A4C68001B984208D3EE
:10307000486842185360086810600A6002F108004E
:1030800010BD096808680028ECD148684218002083
:10309000106053600A6002F10800F1E7640000204C
:1030A00010B5044600F08AFF1F48046003201F4942
:1030B00008700520887104E000211C488279401CBA
:1030C00081541A4881798079401E184A90710029EC
:1030D000F2D1002011468871154816490860002079
:1030E000096808701349096848707F201149096808
:1030F000887032200F490968C87001200D4909689D
:10310000887103200B490968087101200949096881
:103110004871104607490968886000F04FFF012098
:1031200000F09AFE10BD0000A800002078050020E5
:1031300084050020A40000207047000070B5002125
:1031400000230F22C4780CB3164C246804F4E06406
:10315000C4F5E064210AC1F10403CA40447804FACA
:1031600003F184781440214309010F4C0678A155DE
:10317000047804F01F050124AC4005786D114FF070
:10318000E02606EB8505C5F8004109E0047804F067
:103190001F050124AC40054D0678761145F8264000
:1031A00070BD00000CED00E000E400E080E100E014
:1031B00002490143024A1160704700000000FA050D
:1031C0000CED00E070B504460E4626B1022114480D
:1031D000FFF7FDF903E002211148FFF7F6F900259A
:1031E00017E004210E48FFF7F0F914F0800F04D027
:1031F00008210B48FFF7EBF903E008210848FFF727
:10320000E4F904210648FFF7E2F96006040E681CA1
:10321000C5B2082DE5DB02210148FFF7D8F970BDE2
:1032200000080140F0B50446DDE905568C420EDA8F
:10323000081B84B2A81A60435F1AB0FBF7F084B28F
:10324000101B84B2944200DD00242046F0BD9C4255
:103250000EDDE01A84B2A81A60435F1AB0FBF7F0E3
:1032600084B2601984B2B44200DD34462046EDE7F2
:103270008C4210DB9C420EDC601A84B2A81A6043B8
:103280005F1AB0FBF7F084B2A01884B2B44200DD3C
:1032900034462046DAE70020D8E700000A480068F4
:1032A00040F00400084908600846006840F0020049
:1032B00008600648006840F004000449086000BF48
:1032C00000BF30BF704700000070004010ED00E00C
:1032D0000149086070470000A0000E4238B504465E
:1032E0006946204600F002F838BD00002DE9FF4194
:1032F00007460E460024012000F0DAFC0320504966
:10330000087003234422394601A8FFF781F985E0BC
:103310004CA000F09BF801202C2360221321009088
:10332000212000F0B1FF2246062101A800F0ECF8B0
:1033300000F0CAFB0020FFF76BFE054668785928AD
:1033400006D195F90200002802DA0CB1601EC4B261
:103350006878592807D195F90200002803DD052C6B
:1033600001DA601CC4B26878312802D10CB1601E49
:10337000C4B26878332803D1052C01DA601CC4B2CA
:10338000002C01DD012000E00020052C01DA0121E4
:1033900000E00021084205D0601E01AA81182846DD
:1033A000FFF714FC3CB96878582804D195F902005D
:1033B000002800DD40E0052C07D16878582804D1AA
:1033C00095F90200002800DD29E03CB9687858280A
:1033D00004D195F90200002800DA2DE0052C07D170
:1033E0006878582804D195F90200002800DA16E020
:1033F0001CB96878412800D11EE0052C03D16878FB
:10340000412800D10BE01CB96878422800D113E0B4
:10341000052C03D16878422800D100E078E700202D
:103420008DF8080001A8FFF793F98046012030705D
:10343000404604B0BDE8F081002030703846F8E71F
:1034400078050020C7EBCAE4C8EB000038B5044695
:10345000012000F001FD012000F02AFC01200E23D4
:103460007F2219460090002001F0EEF80120402351
:10347000802200210090084601F0D2F8204600F09A
:1034800003F838BD704700000FB410B5C4B047A8AA
:10349000439003A8439A469902F08CFE0E480068B8
:1034A00080780D490968097D03AA0B4CCDE90021FC
:1034B000029024686389084C24682289064C246899
:1034C000E188054C2468A08800F0D2FD00204390DC
:1034D00044B010BC5DF814FB880000200FB400B5A8
:1034E0008FB011A80E9001A80E9A109902F062FEFA
:1034F0004FF47A7101A800F07FF800200E900120AF
:103500000FB05DF814FB00002DE9FC4707460E469E
:103510001546042000F0A0FC01F052FD40787043F5
:10352000C0F1800101EBD170C0F34F082F48007843
:1035300010F0020F30D001242BE001F041FD417862
:10354000601C00FB01801FFA80F901F039FD407812
:1035500004FB00801FFA80FA032040234A46002122
:103560000090504601F05CF8601E385C8DF8040055
:1035700000208DF80500AC4203D1032000F098FB39
:1035800002E0012000F094FB01A8FFF77DFF601C22
:10359000C4B2701EA042D0DC032040237F22002151
:1035A0000090084601F03CF81DB9032000F080FBB4
:1035B00002E0012000F07CFB0DA0FFF765FF052075
:1035C00040237F2200210090084601F029F8052DB4
:1035D00003D1032000F06CFB02E0012000F068FB47
:1035E00004A0FFF751FFBDE8FC870000780500202C
:1035F0004E6F00004F6B000038B505460C460020AA
:1036000000F05AF9012000F027FC10A0FFF71EFF80
:10361000042000F021FC012000F04AFB042040239C
:10362000802200210090084600F0FAFF2846FFF7AC
:103630002BFF00F049FA204601F03CFE032005492B
:103640000870012000F008FC012038BDD0C5CFA2D1
:10365000000000007805002010B54FF47A7102A038
:1036600000F006F810BD0000B4EDCEF3A3A10000F9
:1036700038B505460C46002000F01EF9012000F088
:10368000EBFB10A0FFF7E2FE012000F0E5FB0120BC
:1036900000F00EFB04204023802200210090084609
:1036A00000F0BEFF2846FFF7EFFE00F00DFA2046BF
:1036B00001F000FE032005490870012000F0CCFB5A
:1036C000012038BDD0C5CFA2000000007805002041
:1036D0007CB506460C462546002000F0EDF801209A
:1036E00000F0BAFB012000F0E3FA01204023802221
:1036F00000210090084600F093FF21E00A2001F02D
:10370000D9FD01204023802200210090084600F0CE
:1037100087FF3046FFF7B8FE0120392373222C21A2
:1037200000900C2000F0B0FD281B80B238236922E5
:103730002D21CDE900500D2000F026FE00F0C4F947
:103740002000A4F101018CB2D8D1012000F084FB4B
:103750007CBD000029B1064A52690243044B5A61FC
:1037600004E0034A52698243014B5A6170470000EA
:103770000010024029B1064AD2690243044BDA61C3
:1037800004E0034AD2698243014BDA6170470000CA
:103790000010024029B1064A92690243044B9A6123
:1037A00004E0034A92698243014B9A61704700002A
:1037B0000010024029B1064AD2680243044BDA6085
:1037C00004E0034AD2688243014BDA60704700008C
:1037D0000010024030B500210022002400232D4DAE
:1037E0006D6805F00C0121B1042905D0082923D109
:1037F00005E0294D056022E0274D05601FE0254DBD
:103800006D6805F47012234D6D6805F4803402254F
:1038100005EB92421CB9214D554305600BE01D4D4F
:103820006D6815F4003F03D01C4D5543056002E060
:10383000194D5543056002E0174D056000BF00BFFC
:10384000144D6D6805F0F0010909154D6B5C0568B4
:10385000DD4045600F4D6D6805F4E061090A104DCB
:103860006B5C4568DD4085600A4D6D6805F460510C
:10387000C90A0B4D6B5C4568DD40C560054D6D6840
:1038800005F44041890B074D6B5CC568B5FBF3F54A
:10389000056130BD0010024000127A0000093D00B1
:1038A000000000201000002010B501210148FEF7A3
:1038B0003BFE10BD0002300070B504464FF4806539
:1038C00001E005494C552800A5F101018DB2F8D160
:1038D00000F0FAF870BD0000B800002006E041F2E8
:1038E000883001E0411E88B20028FBDC0100A0F115
:1038F000010290B2F3D1704708B501214020FFF7D3
:1039000049FF01210420FFF745FF4FF40060ADF8A7
:10391000000010208DF8030003208DF80200694696
:103920006748FEF777FD4FF400616548FEF74FFEEC
:103930000E20ADF8000069466248FEF76BFD0E21CF
:103940006048FEF744FE4FF400615D48FEF73FFE1D
:103950006420FFF7C3FF4FF400615948FEF735FEBE
:103960006420FFF7BBFF4FF400615548FEF72FFEC0
:103970000021AE20FFF726FC0021B320FFF722FC38
:1039800000219020FFF71EFC0021A820FFF71AFC61
:1039900000213F20FFF716FC0021A220FFF712FCB8
:1039A00000214C20FFF70EFC0021A120FFF70AFCAC
:1039B00000210846FFF706FC0021AE20FFF702FCBD
:1039C00000210220FFF7FEFB0021A020FFF7FAFBF9
:1039D00000215020FFF7F6FB00218620FFF7F2FBC5
:1039E0000021B820FFF7EEFB00210120FFF7EAFBE2
:1039F00000211120FFF7E6FB00212220FFF7E2FB68
:103A000000213220FFF7DEFB00214320FFF7DAFB25
:103A100000215420FFF7D6FB00216520FFF7D2FBE1
:103A200000217620FFF7CEFB00218120FFF7CAFBA3
:103A30000021FF20FFF7C6FB0021B220FFF7C2FBE9
:103A400000215120FFF7BEFB0021B120FFF7BAFB98
:103A500000215520FFF7B6FB0021BC20FFF7B2FB89
:103A600000211020FFF7AEFB0021B420FFF7AAFBD6
:103A700000210220FFF7A6FB0021B020FFF7A2FBE8
:103A800000212820FFF79EFB0021BE20FFF79AFBB4
:103A900000211C20FFF796FB0021BF20FFF792FBBF
:103AA00000210F20FFF78EFB0020FFF705FF00210C
:103AB000A420FFF787FB0021AF20FFF783FB08BDA1
:103AC00000180140000801402DE9F0470021A02026
:103AD000FFF778FB00215220FFF774FB3F21002005
:103AE00000F0AAF94021002000F0D2F900261EE0E3
:103AF0003701002418E0E5194FF0000810E01748DE
:103B0000405D00F003091548405D80101349485599
:103B1000134911F809000121FFF754FB08F10108CE
:103B2000B8F1040FEBD3641C102CE4D3761C402EA8
:103B3000DED30021A020FFF745FB00215020FFF736
:103B400041FB4FF4806402E0002004490855200046
:103B5000A4F10104F8D1BDE8F0870000B80000200E
:103B6000150000207047000000110021054A117067
:103B7000114688700107090E517040EA0011D1709A
:103B80007047000015000020F0B51446DCB1C517E1
:103B900000EB5575ED1005EB0115194E755D0346EB
:103BA000C61700EB5676F610A0EBC6070126BE40FE
:103BB00035430246C61700EB5676F61006EB0116A3
:103BC0000F4FBD551AE0C51700EB5575ED1005EB0D
:103BD00001150B4E755D0346C61700EB5676F610C1
:103BE000A0EBC6070126BE40B5430246C61700EB50
:103BF0005676F61006EB0116014FBD55F0BD0000DC
:103C0000B80000207047704710B50A2105480068C9
:103C1000FFF75EFD182204490448FEF722FB00F07E
:103C200003F910BD78000020A005002000F8070867
:103C300038B504468DF8004001226946172000F08F
:103C400003F8012038BD000070B504460D46164645
:103C50000349C87C33462A46214600F003F870BD6C
:103C600090050020F8B505460E4617461C46FDF7A0
:103C7000A7FC094900943B4632460868294602F0F1
:103C80006FFA0446A01E82B203480068811C0348F4
:103C900002F024FAF8BD0000CC04002000380140F6
:103CA00038B50446002269462046FFF7CDFF38BDEF
:103CB00010B50446DCB1012C0ED0022C22D0032C0E
:103CC0002BD101F083F90121417000230122194613
:103CD000104600F0D3FB21E00123002211461846D4
:103CE00000F0CCFB01F072F90021417016E00023D6
:103CF0001A461946012000F0C1FB01F067F90121C5
:103D000041700BE0002301221146104600F0B6FB83
:103D100001F05CF90021417000E000BF00BF10BD60
:103D20000149087070470000A000002010B500F0A5
:103D300001F810BD0CB500200190009032480068D9
:103D400040F480303049086000BF2F48006800F41C
:103D5000003000900198401C0190009818B901981B
:103D6000B0F5A06FF1D12848006810F4003F02D0F0
:103D70000120009001E0002000900098012842D12D
:103D80002248006840F0100020490860084600689A
:103D900020F0030008600846006840F00200086058
:103DA0001948406818494860084640684860084615
:103DB000406840F4806048600846406820F47C1009
:103DC00048600846406840F4E810486008460068CB
:103DD00040F08070086000BF0B48006810F0007F62
:103DE000FAD00948406820F00300074948600846B7
:103DF000406840F00200486000BF0348406800F09F
:103E00000C000828F9D10CBD00100240002002402F
:103E100003461AB908125870197002E00812187097
:103E2000597002207047000010B50249087CFFF766
:103E30009BFE10BD9005002070B505460C46002184
:103E40001520FFF7BFF900212846FFF7BBF9002135
:103E50002046FFF7B7F970BD70B50446204600F064
:103E60001DFB01F0ADF80849C16001F0A9F8074950
:103E7000016101F0A5F805692846FEF7AAFB014695
:103E800001F09EF8818270BD73EA00087EE90008A7
:103E900070B505460C4600217520FFF793F9002107
:103EA0002846FFF78FF900212046FFF78BF970BDF8
:103EB00010B50D48006A801C01D1012010BD0A48D0
:103EC000006A002808DD0848006A401E06490862AA
:103ED000FFF79AFE0120F1E74FF47A7103A0FFF794
:103EE000C7FB0020EAE7000090050020C9E8B1B850
:103EF000D0E8D2AABCA4BBEE000000000A480068CB
:103F000020F48030084908600846006820F40070FA
:103F100008600846006820F4806008600846006871
:103F200020F4006008607047CC05002010B501F057
:103F3000F7F810BD10B500214FF4FE70FFF73AFC02
:103F400000F001F810BD10B501210807FFF712FCC1
:103F50000120FFF7BDF9FFF7A1F910BD10B5134817
:103F6000006840F0010011490860084640681049A7
:103F700008400E494860084600680E4908400B4951
:103F800008600846006820F4802008600846406801
:103F900020F4FE0048604FF41F008860FFF7C6FE63
:103FA0004FF000600449086010BD0000001002409E
:103FB0000000FFF8FFFFF6FE08ED00E003480449AB
:103FC00008600448044908607047000008050020A4
:103FD00088000020200500208C0000202DE9FE4FE5
:103FE00004460F469046A8F120051F480068007956
:103FF00045431D480068806805441B4909684978A5
:10400000081DC11700EB51714FEAE10A002627E0B5
:10401000164800684078012804D114480068B0F8B8
:10402000109003E011480068B0F80E900F48006847
:10403000418A0E48006880890B4ACDE900900291C0
:1040400012681178084A1268127806FB02503B4643
:104050002246FDF70DFD04F1080084B2701CC6B2C3
:104060005645D5DBBDE8FE8F8C000020880000207F
:104070002DE9FE4F05460E4617469846DDF830A05E
:1040800001200090A81C85B2B81E87B200200290C3
:104090008346504600F0ACF9044614F4004F06D0B5
:1040A000C4F30E047648006890F8029003E0744868
:1040B000006890F800900D98092872D2DFE800F0AF
:1040C000050C18202E4150596700681C80B20290E0
:1040D000701C1FFA80FB64E0791B081B00EBD07199
:1040E00005EB610189B20291701C1FFA80FB58E058
:1040F000381B401E80B20290701C1FFA80FB50E0FB
:10410000681C80B20290A8EB0601A1EB090000EB4D
:10411000D07106EB61011FFA81FB42E0791B081B9D
:1041200000EBD07105EB610189B20291A8EB0601A9
:10413000A1EB090000EBD07106EB61011FFA81FBD6
:104140002FE0381B401E80B20290A8EB0601A1EBC5
:10415000090000EBD07106EB61011FFA81FB20E042
:10416000681C80B20290A8EB0B00401E1FFA80FB77
:1041700017E0791B081B00EBD07105EB610189B2D8
:104180000291A8EB0B00401E1FFA80FB09E0381BD0
:10419000401E80B20290A8EB0B00401E1FFA80FB6D
:1041A00000BF00BF65E01AF8014B802C17DD4FF609
:1041B000FF7000EA04249AF8000004430AF1010A9F
:1041C0002F480068C078019022465946029800F0B6
:1041D00081F8DDE90110084480B2029021E00A2C48
:1041E0000FD102950BEB09001FFA80FB25480068F0
:1041F000858024480068C088484422490968C880EE
:104200000FE00D2C0DD01E4800684078019022462A
:1042100059460298FFF7E2FEDDE90110084480B23A
:1042200002909AF80040802C07DD15480068C1789C
:104230000298084480B2019006E011480068417875
:104240000298084480B201900198B84211DD0295AD
:104250000BEB09001FFA80FBC34501DDBDE8FE8FB3
:104260000098401CC0B200900E990098884200DD72
:10427000F4E79AF80000002895DC00BFEEE70000A4
:104280008C000020880000202DE9F04106460F46F2
:1042900014461D46DDF81880A01B82B243463946FD
:1042A0003046FEF7DFFCA01B82B24346294630466B
:1042B000FEF7D8FCE81B82B2434639463046FEF78B
:1042C000E4FCE81B82B2434639462046FEF7DDFC9B
:1042D000BDE8F0812DE9FE4F05460F469046404669
:1042E00000F0A2F8064626480068C08846432448E5
:1042F0000068C0680644224A1268D178CA1701EBE8
:104300005272D2101E4B1B68D878C31700EB537340
:10431000DB10B0EBC30301D0012300E000231A44FB
:104320001FFA82F9002427E0164800684078012827
:1043300004D114480068B0F810A003E011480068E8
:10434000B0F80EA00F480068418A0E4800688089C6
:104350000B4ACDE900A0029112689178084A1268D0
:10436000927804FB02603B462A46FDF781FB05F18B
:10437000080085B2601C84B24C45D5DBBDE8FE8FD9
:104380008C000020880000202DE9FE4F04460E46D8
:1043900015461F46DDE90C9A01200290002001908D
:1043A000281B1FFA80F8B81B1FFA80FBD8451CDDBC
:1043B00019E008FB0AF090FBF9F20198411CC9B220
:1043C0000191824201DA0020029002983B46224687
:1043D00031460090204600F037F92046611C8CB22F
:1043E000A84200DB00E0E4E700BFBDE8FE8F00006C
:1043F0000146002011E011F8013B802B08DD491C2B
:10440000084A1268D278024490B240F4004004E0B6
:10441000044A12685278024490B20A78002AEADC10
:10442000704700008C00002010B50346002100BF3B
:104430001AE0114800680069425C4FF6FF7000EA1C
:1044400002220D4800680469481C205C104482B2B6
:10445000934205D10C4601EBD470C0F34F0010BD60
:10446000481C81B2481C81B203480068808A884297
:10447000DFDC0020F3E700008C00002010B5064CC4
:104480002468E081044C2468A281034C24682182C2
:10449000014C2468638210BD8800002010B50446DA
:1044A000124800680470072C1DD2DFE804F01C04D9
:1044B000080C101418000E4800F026F813E00D4800
:1044C00000F022F80FE00C4800F01EF80BE00B485B
:1044D00000F01AF807E00A4800F016F803E009486F
:1044E00000F012F800BF00BF10BD000088000020DF
:1044F000446D0008586D00086C6D0008806D000860
:10450000946D0008A86D000810B504464348006883
:1045100084614248006880694078404909680870B1
:104520003E480068806900783C49096848703B480B
:1045300000688069407839490968887037480068A0
:10454000806900784006000E34490968C870334A13
:1045500012685178CA1701EB5272D2102F4B1B68A8
:104560005878C31700EB5373DB10B0EBC30301D0D3
:10457000012300E000231A44284B1B689B695B78E9
:104580005A43264B1B681A71244A1268D178CA17FD
:1045900001EB5272D210214B1B68D878C31700EB85
:1045A0005373DB10B0EBC30301D0012300E0002301
:1045B0001A441A4B1B689B695B785A43174B1B685C
:1045C000DA80164800688069406814490968886084
:1045D000124800688069C06810490968C8600F48BF
:1045E0000068806900690D49096808610B4909681C
:1045F0000869FDF7EEFF09490968888207480068E5
:104600008069806840B10549096889698868FEF752
:10461000FDF802490968C88210BD00008C00002026
:1046200030B5039C074D2D68A880064D2D68E980A4
:10463000044D2D682A81034D2D686B81014D2D6835
:10464000AC8230BD880000202DE9F04F0746884637
:1046500091469A46DDF824B0A9EB0706AAEB0805B7
:10466000002E66DB002D31DBAE4217DB304606EB59
:10467000D071A5EB61040EE05A4641463846FFF77B
:1046800083FA002C04DD08F101001FFA80F8A41B56
:10469000781C87B22C444F45EEDDB1E0284605EB8F
:1046A000D071A6EB61040EE05A4641463846FFF74A
:1046B0006BFA002C02DD781C87B2641B08F1010044
:1046C0001FFA80F83444D045EEDD99E06D42AE42E9
:1046D00017DB304606EBD071A5EB61040EE05A46BD
:1046E00041463846FFF750FA002C04DDA8F10100DE
:1046F0001FFA80F8A41B781C87B22C444F45EEDDCE
:104700007EE0284605EBD071A6EB61040EE05A4628
:1047100041463846FFF738FA002C02DD781C87B294
:10472000641BA8F101001FFA80F83444D045EEDA8A
:1047300066E07642002D31DBAE4217DB304606EBF9
:10474000D071A5EB61040EE05A4641463846FFF7AA
:104750001BFA002C04DD08F101001FFA80F8A41BED
:10476000781E87B22C444F45EEDA49E0284605EB27
:10477000D071A6EB61040EE05A4641463846FFF779
:1047800003FA002C02DD781E87B2641B08F10100D9
:104790001FFA80F83444D045EEDD31E06D42AE4280
:1047A00017DB304606EBD071A5EB61040EE05A46EC
:1047B00041463846FFF7E8F9002C04DDA8F1010076
:1047C0001FFA80F8A41B781E87B22C444F45EEDAFE
:1047D00016E0284605EBD071A6EB61040EE05A46C0
:1047E00041463846FFF7D0F9002C02DD781E87B22B
:1047F000641BA8F101001FFA80F83444D045EEDABA
:10480000BDE8F08F70B5052407250126164800780D
:1048100010F0010F01D0002608251DE02846FFF703
:1048200007FA642104FB01F000F044FD0E48007813
:1048300000F00100B0420FD1082D01D1FFF75EFB5F
:104840000A48006A002806DD0848006A401E074939
:104850000862FFF7D9F970BD2000A4F10101CCB2C4
:10486000DCD100BFF7E70000CC0500209005002058
:1048700070B50A26122401250D48008810F4805FC7
:1048800001D0002513240CE02046FFF7D1F9642065
:1048900000F010FD0648008800F48050A84200D1C6
:1048A00070BD3000A6F10101CEB2EDD100BFF7E737
:1048B000CC05002040212948FDF787FE4FF4807188
:1048C0002648FDF784FE4FF400412548FDF77FFEA2
:1048D00020212448FDF779FEFCF754F9142000F05C
:1048E000E9FC40211D48FDF772FEFEF7DDFF0220C6
:1048F000FEF74EFB2420FFF7D3F92EE0FEF7D8F9A0
:10490000FDF7DCFF184908604FF400711348FDF70C
:104910005CFE642000F0CEFC4FF400710F48FDF700
:1049200056FE4FF4C87000F0C5FC0F4890F83510E3
:1049300090F83500401C0C4A82F83500012903DD4F
:1049400008210A48FDF741FE07490868FCF7CEFA3E
:1049500018B1FFF7F8FAFFF7EDFACFE700140140BE
:10496000000C01400018014090050020001001409B
:1049700008B538E0012000F09DFC1B4908684FF4A1
:104980009671FCF707FB00234FF4967219461748FF
:1049900001F048FB04461449086801F0C9FB10B354
:1049A000042411480168A01E085C242819D10E496E
:1049B0000968081944220E49FCF74EFA08210D48EF
:1049C000FDF705FE00200C4981F8350004208DF824
:1049D00000006B46032201210848007800F076FDB4
:1049E00000E000BF00BFC5E7B80400200038014068
:1049F000CC05002000100140900500209A00002006
:104A000086B000260421F848FDF7E1FD4021F74873
:104A1000FDF7DBFD4FF40051F548FDF7D6FD4FF4EF
:104A20008041F348FDF7D1FD4FF40041F048FDF718
:104A3000CCFD0821EE48FDF7C8FD0421EC48FDF748
:104A4000C6FD4FF40061EB48FDF7BFFD4FF4805108
:104A5000E848FDF7BAFDFEF7B3FAE748FEF720FB9A
:104A6000FEF76EF800F0BCFC0020FFF759F9FFF7E5
:104A7000DBF9002509E005EB45006946084402A979
:104A800001EBC5014860681C85B2022DF3DB0221F1
:104A900002A800F0DFFBD9A0D9498863A2E100BFDA
:104AA0006078342801D1FDF747FF012E01D1FDF7D1
:104AB0002FFA0EB9FCF7FCFFFFF706F8012000F013
:104AC000F9FB0020FEF7A4FA0446002CE6D020787B
:104AD000042800D1E4E7012E7ED12078012852D1AC
:104AE000FCF7A0F90020C64981F83600607841281B
:104AF00004D1C4A088630320FFF79AF860784228A5
:104B000005D1C2A0BE4988630420FFF791F8607800
:104B1000312805D1BBA0BA4988630520FFF788F882
:104B20006078332805D1B9A0B54988630620FFF71E
:104B30007FF86078352801D1FFF79AFE6078432826
:104B400001D1FFF75FFE607844280AD1B1A0AC49DB
:104B500088630120FFF76CF80A21B0480068FEF76F
:104B6000B7FD607845280ED1ADA0A5498863022025
:104B7000FFF75EF80026A048FEF792FA0A21A74840
:104B80000068FEF7A5FD207803287DD1FCF74AF9DF
:104B900000209B4981F836006078582812D194F99A
:104BA000020010F1030F01DD012000E0002094F964
:104BB000021010EAD17F05D09BA09149886309209B
:104BC000FFF736F86078582818D194F9020010F1F0
:104BD000020F02DA012001E05FE0002094F90210E8
:104BE00011F1050F01DD012100E00021084205D08F
:104BF0008DA0834988630A20FFF71AF86078582847
:104C000015D194F90200002801DD012000E0002008
:104C100094F90210032901DA012100E00021084281
:104C200005D083A0764988630C20FFF701F86078EF
:104C3000582815D194F90200022801DD012000E076
:104C4000002094F90210052901DA012100E0002179
:104C5000084205D076A06A4988630D20FEF7E8FF78
:104C60006078592809D194F90200002805DA72A069
:104C7000634988631C20FEF7DBFF607859280BD15D
:104C800094F90200002800E006E005DD6AA05C4916
:104C900088631B20FEF7CCFF00BF002E7ED120785A
:104CA000012849D1FCF7BEF8607831280ED164485C
:104CB0008179401C405C48B161488179401C405C6E
:104CC000401EC1B25E488279401C8154607833280E
:104CD00010D15B48C1798279401C805C814209DD3A
:104CE00057488179401C405C401CC1B254488279CD
:104CF000401C81546078412804D1002150488279B9
:104D0000401C81546078422801D1FDF7ABF96078EE
:104D100044280BD13FA03A49886301264948FEF751
:104D2000BFF90120FEF784FFFFF7C2F8607845283D
:104D300002D10220FEF77CFF2078032852D1FCF735
:104D400071F86078582802D1A0782D4908736078EE
:104D5000592802D1A0782A4948736078582812D17E
:104D600094F9020000280EDA35488179401C405C35
:104D700048B133488179401C405C401EC1B2304884
:104D80008279401C81546078582816D194F9020029
:104D9000002812DD2A48C179827900E022E0401C17
:104DA000805C814209DD26488179401C405C401CC2
:104DB000C1B223488279401C81546078592808D1B7
:104DC00094F90200002804DA00211D488279401C71
:104DD00081546078592805D194F90200002801DD3A
:104DE000FDF740F95BE60000000C014000180140AF
:104DF000001001400014014094FA00080000000077
:104E000090050020BFAAB7A700000000B9D8B7A737
:104E100000000000C6F4B6AF0000000078000020DB
:104E2000CDA3D6B900000000C7B0BDF80000000057
:104E3000BAF3CDCB00000000B5E3B6AF0000000030
:104E40007805002014FB000808B50027FDF778FE60
:104E5000FBF798FEC82000F02DFAFBF7C5FF5CE0D9
:104E60000A2000F027FAFDF7C5FD8DF801009DF836
:104E70000100F8B1781C87B2642000F01BFA012011
:104E80008DF800009DF80100A84209D09DF80100AE
:104E900030B16B46032201212048007800F016FB58
:104EA000052F08DD6B46032201211C48007800F025
:104EB0000DFB00E0002700208DF802006846FDF79A
:104EC00077FD10B3601C84B203208DF800009DF9BB
:104ED0000200B0420AD09DF80200B8B16B4603222E
:104EE00001210E48007800F0F1FA0FE00C4800783C
:104EF00010F0010F0AD1052C08DD6B4603220121B9
:104F00000648007800F0E2FA00E000249DF9026013
:104F10009DF8015002208DF80000A1E79A000020C2
:104F2000A0000020F0B502460C46FF21FF25002618
:104F30000BE012F8017B87EA0503084FFF5C87EA64
:104F40000105074FF95C771CBEB2A642F1DB0846AB
:104F50004FF6FF7707EA00202843F0BD446B0008B6
:104F6000446C000810B510480078092804D00F4898
:104F70000078401C0D4908700D480078401C0C4911
:104F800008700846007864280DDD0020087014239E
:104F9000084A064801780848FDF7ABF90749087048
:104FA00000200249087010BD4C000020380000208D
:104FB0003000002031000020340000204400002098
:104FC00001480068704700008C000020014800681C
:104FD000704700008800002010B54FF4F070FEF715
:104FE00039F82249086002202149487000204860B1
:104FF000002428E0012004EB44011C4A126802EB63
:1050000001110881002004EB4401184A126802EBE8
:1050100001118861002104EB4400144A126802EB7C
:1050200000100160002004EB4401104A126802EBFA
:105030000111C86104EB44010C4A126802EB011132
:105040000884601CC4B20A2CD4DB0920094908700A
:1050500000200949086009498873094BFF224FF471
:105060007A71064800F03CFC10BD0000540000209E
:10507000440000204C00002058000020F4040020D0
:10508000C9590008FCF764FCFDF716FD06E0FDF7C2
:105090002DFD642000F00EF900F06CFCF7E7000035
:1050A00038B51849B1F1807F00D31DE021F07F4071
:1050B000401E4FF0E022506150170F22002807DAFF
:1050C00013071D0E104B00F00F04241F1D5503E0A5
:1050D00013071C0E0D4B1C5400BF00204FF0E022A4
:1050E00090610720106100BF4FF47A7008A300227E
:1050F0000A490090092000F045F8092000F004FB5F
:1051000038BD00004019010018ED00E000E400E0A7
:105110005461736B526F6F7400000000855000087B
:1051200010B5FFF71FFF00F013FA0D484078402834
:1051300005D103210BA0FCF742FAFDF755FF1048FB
:105140008089401C0E4988810846808909898842E7
:1051500005DD0B490869804700200949888110BD99
:10516000440000205461736B2054696D654F757461
:105170002057696C6C20544F53205265736574003E
:10518000F40400202DE9F04704460D4691461F46E1
:10519000DDF820800DB9BDE8F08704EB44002C4910
:1051A000096801EB00100089012800D0F3E704EB47
:1051B00044002749096801EB0010008C98B91FFAD8
:1051C00088F0FDF747FF064604EB4401204A1268C9
:1051D00002EB0111A1F8208004EB44011C4A126883
:1051E00002EB0111CE6104EB4402194B1B6803EB87
:1051F0000212118C04EB4402154B1B6803EB0212E4
:10520000D06900F039FB8246022104EB4400104AC9
:10521000126802EB0010018104EB44000C4909689C
:1052200001EB0010456004EB44000949096801EBFB
:105230000010C7624A462946504600F02DFA04EB9A
:105240004401034A126802EB0111086000BFA2E7A3
:105250005400002010B5154A127802EB4202144B9C
:105260001B6803EB02129062104A127802EB4202B2
:105270000F4B1B6803EB021282F8231000220B4B2A
:105280001B7803EB43030A4C246804EB031383F8F5
:1052900024200023054A127802EB4202044C2468C1
:1052A00004EB021282F8253010BD00004C000020F3
:1052B0005400002010B504461348407801281FD040
:1052C00000201249097801EB4101114A126802EBF2
:1052D000011188610D48007800EB40000C49096815
:1052E00001EB0010446110210848007800EB4000F9
:1052F000074A126802EB0010018100F06DFA02E02B
:105300002046FBF781FD10BD440000204C0000202A
:105310005400002001460D48006800EB4110007A5F
:1053200008B9002070470948006800EB4110407937
:10533000074A1278904201D00020F3E70120034A87
:10534000126802EB4112107200BFEBE76000002010
:105350004C00002070B504460D4600BF1E48006892
:1053600000EB4410007A30B1012815D0022804D097
:1053700003282FD11FE0002070BD1748006800EB04
:105380004410407915490978884201D10120F3E79A
:10539000204600F041FBE1E702200F49096801EBDC
:1053A000441108720D4800780B49096801EB44115B
:1053B00048710120E0E702200749096801EB441128
:1053C0000872064800780449096801EB44114871E5
:1053D0000120D1E70020CFE7600000204C00002032
:1053E0000248007802490870704700004C00002015
:1053F0009A00002070B51848007800EB400017496B
:10540000096801EB0014A06A08B9002070BD94F887
:10541000250018B91048007800F088F994F82500A4
:1054200008B90020F2E704F12304D4F805006178FC
:1054300000EBC105607800F10100217890FBF1F2EA
:1054400001FB12006070A078A0F10100A070A4F12F
:1054500023042846DAE700004C0000205400002016
:1054600070B506461748007800EB400016490968F9
:1054700001EB0014A06A08B9002070BD94F8250063
:1054800010B93046FFF716FF94F8250008B9002040
:10549000F3E704F12304D4F80500617800EBC105BB
:1054A000607800F10100217890FBF1F201FB12001D
:1054B0006070A078A0F10100A070A4F12304284638
:1054C000DBE700004C000020540000202DE9F047ED
:1054D0000646884691469A460A2E01DBBDE8F087CB
:1054E00006EB46001949096801EB0014A06A00B9EF
:1054F000F4E794F8250094F82310884220DA04F1A8
:1055000023046078A1780844217890FBF1F201FB34
:105510001200C7B214F82309B84200DCDEE7A06A23
:1055200000EBC70585F800804A4650466968FBF7DE
:1055300093FC85F8019094F82500401C84F8250020
:10554000304600F065F800BFC8E7000054000020B6
:10555000002055E000EB40012B4A126802EB0111DC
:105560000989022902D0102946D11CE000EB400134
:10557000254A126802EB01118969491C00EB4002BF
:10558000214B1B6803EB0212916100EB40011E4AA4
:10559000126802EB01118969B1F5FA6F02D9402155
:1055A0001A4A517029E0002100EB4002164B1B689B
:1055B00003EB0212916100EB4001134A126802EB07
:1055C0000111496941B9022100EB40020E4B1B68F1
:1055D00003EB021211810EE000EB40010A4A12684F
:1055E00002EB01114969491E00EB4002064B1B68A2
:1055F00003EB0212516100E000BF00BF411CC8B2C2
:105600000A28A7DB70470000540000204400002057
:105610000A2800DB704700EB4001094A126802EBE0
:1056200001110989012900D1F4E7102100EB4002A2
:10563000034B1B6803EB0212118100BFEAE7000075
:105640005400002010B504460F480078A04200D155
:1056500010BD0D48007800EB40000C49096801EBD3
:1056600000100B49086008480470007800EB400007
:105670000649096801EB0010006806490860FBF75D
:10568000B9F900BFE4E700004C00002054000020FE
:10569000400000203C00002030B503461846041F9F
:1056A00020462160041F204623600025041F204659
:1056B0002560041F20462560041F20462560041F26
:1056C00020462560041F20462560041F20462560D3
:1056D000041F20462560041F20462560041F204625
:1056E0002560041F20462560041F20462560041FF6
:1056F00020462560041F204622604FF08075041F5D
:105700002046256030BD000010B5044604EB44007F
:105710000449096801EB0010006803490860FBF7C1
:1057200082F910BD540000203C00002010B5044652
:105730000A2C00DB10BD04EB44000E49096801EBA4
:1057400000100089012800D1F4E7042004EB440193
:10575000084A126802EB01110881002104EB4400A1
:10576000044A126802EB0010416100F035F800BFF6
:10577000E0E700005400002010B504460A2C00DBCE
:1057800010BD04EB44001349096801EB00100089C7
:10579000012800D1F4E704EB44000E49096801EB4D
:1057A00000100089042800D1EAE7082004EB440136
:1057B000084A126802EB01110881002004EB440141
:1057C000044A126802EB0111486100F005F800BFBD
:1057D000D6E700005400002010B5022123480068DD
:1057E000A0F8B81100243DE004EB44001F4909680B
:1057F00001EB00100089022802D020282ED107E0FA
:105800001B480078A04202D02046FFF71BFF10BDC6
:1058100004EB44001549096801EB001090F82200E0
:105820001449096801EB4010007A012815D11020B5
:1058300004EB44010D4A126802EB011108810320B8
:1058400004EB4401094A126802EB011191F822109D
:10585000084A126802EB4111087200E000BF00BF65
:10586000601CC4B20A2CBFDB00BFD0E7540000208C
:105870004C000020600000200246501820F0030376
:10588000A3F1300020F007007047000010B50A288F
:1058900000DB10BD00EB4002104B1B6803EB021253
:1058A0001289042A00D1F4E7002200EB40030B4CDC
:1058B000246804EB03139A61102300EB4002074CA9
:1058C000246804EB0212138100EB4002034B1B68B7
:1058D00003EB0212516100BFDBE70000540000201F
:1058E00070B504460D46164601221449887B0028EF
:1058F00016DD0AE04968002A07DD0878904202D0E8
:105900002270002201E0501CC2B248680028F1D188
:10591000002A00DD22700A480078A0734C6005E080
:105920000C460020207006480078A073258166810F
:105930000020A08123616060207870BDF404002005
:105940004C00002002460A490CE04868007890426A
:1059500007D100204B68588148684068486010466D
:105960007047496848680028EFD100BFF8E7000099
:10597000F404002010B5134C1FE06068807B10F029
:10598000400F19D06068807B10F0800F12D06168E2
:10599000086980476068807B20F0800061688873B8
:1059A0006068408920B961680878FFF7CBFF04E0A0
:1059B000646802E0646800E0646860680028DCD124
:1059C00010BD0000F404002012481EE04068817BF6
:1059D00011F0400F19D04189002916DD8189028913
:1059E000914203DA8189491C81810EE04189FF29B6
:1059F00002DA4189491E41814189002901DD0021E6
:105A00008181817B41F08001817341680029DDD172
:105A100070470000F404002010B504460B480078DD
:105A200000EB40000A49096801EB001080F82240B1
:105A300020200649097801EB4101054A126802EB72
:105A400001110881FFF7C8FE10BD00004C000020C6
:105A50005400002010B540F225510E4800F0CDF959
:105A6000B8B10C48001D0088C4B20B48C0880B496F
:105A7000C98888420DDA0848C188C088401C064A97
:105A8000D0800748C06844540649C8780A21FFF707
:105A9000FDFE10BD004C0040EA040020E0040020A0
:105AA000B80400202800002010B540F225510E480F
:105AB00000F0A3F9B0B10C488088C4B20B4800894B
:105AC0000B49098988420DDA084801890089401C80
:105AD000064A1081074800694454074908790A2199
:105AE000FFF7D4FE10BD000000500040EA04002083
:105AF000E0040020B80400202800002010B540F287
:105B000025510E4800F079F9B8B10C48001D008805
:105B1000C4B20B4800880B49098888420DDA08484E
:105B200001880088401C064A1080074800684454D9
:105B3000064908780A21FFF7A9FE10BD0038014088
:105B4000EA040020E0040020B8040020280000201F
:105B500010B540F22551114800F04FF9C0B10F487F
:105B6000001D0088C4B20E4840880E49498888420A
:105B700013DA0B4841884088401C094A50800A4883
:105B800040684454094948780A21FFF77FFE04E041
:105B900040F22551014800F014F810BD00440040C7
:105BA000EA040020E0040020B804002028000020BF
:105BB00001F40072B2F5007F00D100BFCA43028039
:105BC000704710B500220023A1F510646A3C00D193
:105BD00000BF0A1201249440A3B2DC43048010BD2C
:105BE00021B1828942F40052828104E082894DF61B
:105BF000FF731A408281704770B50446204600F05A
:105C00004BF9054600F06EF8052C27D2DFE804F0CA
:105C1000030A11181F0025224FF41651104800F0F6
:105C200029F81BE026224FF4E1310E4800F022F85B
:105C300014E027224FF4E1310B4800F01BF80DE08F
:105C400034224FF4E131094800F014F806E035221F
:105C50004FF4E131064800F00DF800BF00BF70BD01
:105C6000003801400044004000480040004C004023
:105C70000050004070B586B006460C4615460194AB
:105C80000020ADF80800ADF80A00ADF80C00ADF842
:105C900010000C20ADF80E0001A9304600F040F9CC
:105CA000012240F22551304600F014F9012130461E
:105CB000FFF796FF40213046FFF77AFF4FF48060F0
:105CC000FDF776FA8DF8145002208DF815000120AA
:105CD0008DF816008DF8170005A8FDF72FFA06B00D
:105CE00070BD000038B50446254884420BD10D2014
:105CF0002315244A51150090234800F053F8012140
:105D00008803FDF737FD214884420BD10420082386
:105D10001C4A01460090104600F044F80121480456
:105D2000FDF728FD1A4884420BD10920E314164AD6
:105D300011150090104600F035F801218804FDF798
:105D400019FD144884420BD11120E314124A111595
:105D50000090104600F026F80121C804FDF70AFD66
:105D60000E4884420BD1312004230D4A9114009037
:105D7000094800F017F801210805FDF7FBFC38BDC4
:105D80000038014000080140000C01400044004080
:105D900000480040004C004000100140005000400E
:105DA000001401402DE9F84307460D4616461C46EF
:105DB000DDF8208001214046FDF7ECFCADF80050F5
:105DC00003208DF8020018208DF80300694638463C
:105DD000FCF720FBADF8004048208DF80300694631
:105DE0003046FCF717FB29463846FCF7F0FB214606
:105DF0003046FCF7ECFBBDE8F88370B502460024A2
:105E0000002300250020A1F510666A3E00D100BFE6
:105E1000C1F3421501F01F03012606FA03F3012D19
:105E200002D19689334006E0022D02D1168A334012
:105E300001E0968A33400C12012606FA04F4168813
:105E4000344013B10CB1012000E0002070BD00000F
:105E500001460F4A881A914213D006DC0D480818F3
:105E60000BD0B0F5806F10D109E0B0F5806F0AD08B
:105E7000B0F56C4F09D1002070470120FCE70220EB
:105E8000FAE70320F8E70420F6E70020F4E7000033
:105E9000004C004000BCFFBF014605290ED2DFE8E0
:105EA00001F0030507090B00054870470548FCE7AA
:105EB0000548FAE70548F8E70548F6E70020F4E763
:105EC000003801400044004000480040004C0040C1
:105ED00000500040F0B503460024002600250020B5
:105EE000A1F510676A3F00D100BF1846C1F3421404
:105EF00001F01F06012707FA06F5012C01D10C302D
:105F000004E0022C01D1103000E014301AB107680F
:105F10002F43076002E00768AF430760F0BD000051
:105F20002DE9F04786B005460E460024A24600BF84
:105F3000A1460027B08900B100BF2F462C8A4CF63D
:105F4000FF700440F08804432C82AC894EF6F310B5
:105F50000440B08831890843718908430443AC8107
:105F6000AC8A4FF6FF400440B0890443AC8201A8DC
:105F7000FDF730FC1F48874202D1DDF810A001E098
:105F8000DDF80CA0A88910F4004F08D00AEBCA0075
:105F900000EB0A1031684900B0FBF1F807E00AEBAA
:105FA000CA0000EB0A1031688900B0FBF1F86420E8
:105FB000B8FBF0F004012009642101FB1089A889D5
:105FC00010F4004F08D0322000EBC900B0FBF1F014
:105FD00000F00700044308E0322000EB09106421C0
:105FE000B0FBF1F000F00F0004432C8106B0BDE8D7
:105FF000F0870000003801402DE9F04705460E46C5
:1060000014462F46B046A1463846FFF721FF824688
:10601000002304224146384600F004F8A9F80000A5
:10602000BDE8F0872DE9F04780460F4615461E462D
:106030004046FFF70DFF04461A49085D0021FFF7AF
:1060400089F98146B9F1000F1CD01748007817492B
:106050000855B5F5967F01DB4FF49675144820F886
:1060600014500020134921F814001EB13046FFF7E8
:1060700021F903E00D49085DFFF77EFB0949085D42
:10608000FFF748F947B10B4931F814200A4951F894
:1060900024003946FAF7E0FE064830F81400BDE85F
:1060A000F08700001E0000204C0000202800002087
:1060B000E0040020EA040020B80400202DE9F043A9
:1060C00004460D4616462746A846B6F800904A46AE
:1060D0004146384600F002F8BDE8F08310B50B46A3
:1060E000002108E000BF048814F0800FFBD05C5C46
:1060F00084804C1CA1B29142F4DB10BD10B54FF46A
:106100008020FBF7A9FF10BD00BFFEE770B5054674
:106110000C46A01E81B2A81CFEF704FF06462819F3
:1061200000223146FDF774FE204484B2204670BD43
:106130002DE9F0410446E078851D281F81B2A01C9E
:10614000FEF7F0FE0646A91E08190021FCF76AFBBF
:106150000746B74202D10120BDE8F0810020FBE7ED
:106160002DE9F0470546894617469846089E0024C3
:106170004C2E02DD0020BDE8F08728190122494697
:10618000FDF746FE204484B22046611C8CB22F5499
:106190002046611C8CB22E54291932464046FAF72B
:1061A0005BFE204484B221462846FFF7AFFF044639
:1061B000E0B2E0E737B514460846064B6A4621468A
:1061C00000F0C8F804466946002000F066FC20464E
:1061D0003EBD00009B6A000802E008C8121F08C10B
:1061E000002AFAD170477047002001E001C1121F58
:1061F000002AFBD1704700002DE9FF5FDDE9022096
:10620000010DDDF838B0024310D10F9801244CA2E3
:10621000012808D0002100980F9BC0E90021C0E9A7
:106220000243BDE8FF9F6FEA0B01F4E7A1F2FF31E3
:1062300044F6105041430D140F9801280ED0A5EBE1
:106240000B00401C4FF000043E4EDFF8FC90B0F114
:10625000000AA04605DACAF1000717E0CBF10000FA
:10626000F0E7074612E0F80707D0224633464046DB
:106270004946FAF700F980468946224633461046D9
:106280001946FAF7F8F804460E467F10002FEAD1B7
:10629000DDE90201BAF1000F42464B4602DAFAF795
:1062A000EAF801E0FAF759F904460E460022274BB6
:1062B000FAF77AFB03D84FF0FF30014607E00022DF
:1062C000234B20463146FAF72FF8FAF754FB1024F7
:1062D00009E0002C0ADB0A220023FAF755FA019B99
:1062E00030321A55641E50EA0102F2D1641C019A40
:1062F000C4F1110314440F9A012A09D00122084362
:1063000001D15B450FDD4FF0000205F101050DE005
:10631000084303D1A3EB0B056D1E09E000204FF0ED
:10632000110B0F9088E701DA00226D1E002A83D03E
:1063300000980F99C0E90231C0E9004571E70000FB
:1063400030000000000024400000F03F0000F04357
:106350000000E03F2DE9FF4F95B09B468946064679
:10636000002512E2252878D10024761CF94A274618
:10637000012105943378203B01FA03F0104202D04A
:106380000443761CF6E730782A2811D06FF02F03EB
:106390003078A0F13002092A16D8059A44F0020498
:1063A00002EB820203EB42021044761C0590EFE7F9
:1063B00059F8042B0592002A03DA504244F40054A1
:1063C000059044F00204761C30782E2816D116F879
:1063D000010F44F004042A280DD06FF02F0230780A
:1063E000A0F13003092B09D807EB870302EB430325
:1063F000C718761CF3E759F8047B761C30786C28B4
:106400000FD006DC4C2817D068280DD06A2814D18C
:1064100004E0742810D07A280FD10DE044F4001461
:106420000AE044F4801401E044F44014727882429B
:1064300002D1761C04F58014761C307866280BD0C7
:1064400013DC582877D009DC002875D04528F6D011
:106450004628F4D047281AD19FE118E0632835D0A8
:10646000642879D0652812D197E1702873D008DCB0
:106470006728F1D069286FD06E280DD06F2806D11B
:10648000B5E073282CD0752875D0782874D05A467A
:10649000179990476D1C76E1C4F30250022809D089
:1064A00003280DD0D9F8001004280DD00D6009F193
:1064B000040968E1D9F80010EA17C1E90052F6E7CB
:1064C000D9F800100D80F2E70D70F0E719F8041B01
:1064D0008DF8001000208DF80100EA46012003E04D
:1064E00059F804AB4FF0FF3061074FF0000102D4C0
:1064F0000DE008F101018846B9420FDA8045F8DB6A
:106500001AF808100029F4D108E008F101018846C2
:106510008142FADB1AF808100029F6D105985B468B
:10652000A0EB080721463846179A00F09EFA284447
:1065300000EB080507E04DE02BE10DE01AF8010B38
:106540005A4617999047B8F10108F7D25B462146A1
:106550003846179A14E142E00A220092C4F302522C
:106560004FF0000A022A08D059F804CB032A4FEA58
:10657000EC710AD00DE029E02AE009F1070121F0D1
:106580000702F2E802C1914609E00FFA8CFC4FEADB
:10659000EC71042A03D14FFA8CFC4FEAEC7100290C
:1065A00007DA0A460021DCF1000C61EB02012D2222
:1065B00002E0220504D52B228DF80420012203E0FD
:1065C000E20701D02022F7E7904653E00A2102E0DB
:1065D00010220DE010214FF0000A00910BE0102274
:1065E0004FF0000A44F004040827009203E0082258
:1065F0004FF0000A0092C4F30252022A05D059F863
:1066000004CB0021032A08D009E009F1070121F099
:106610000702F2E802C1914605E01FFA8CFC042A49
:1066200001D10CF0FF0C4FF00008220722D5702892
:1066300027D0009B83F0100353EA0A0309D15CEAD8
:10664000010206D030228DF804208DF805000222C8
:106650009046009B83F0080353EA0A030AD15CEAE0
:10666000010201D1620705D530228DF804204FF0D8
:1066700001087F1E582809D037A003900EA8029069
:1066800013E040228DF804200122E1E737A0F4E76F
:1066900053466046009AFAF777F884460398825C7E
:1066A0000298A0F10100029002705CEA0100EFD1B3
:1066B000029806A9A1EB000000F1200A600702D5AC
:1066C00024F4803400E00127574502DDA7EB0A00DF
:1066D00000E0002000EB0A01009005984144A0EB87
:1066E00001000590E00306D45B462146179A059801
:1066F00000F0BBF90544002706E001A85A46C05D3A
:10670000179990476D1C7F1C4745F6DBE0030CD5BD
:106710005B462146179A059800F0A7F9054404E066
:1067200030205A46179990476D1C0099481E0090DA
:106730000029F5DC08E0029802995A460078491CC5
:106740000291179990476D1CBAF10001AAF1010A54
:10675000F1DC6BE109280100303132333435363752
:10676000383961626364656600000000303132339D
:10677000343536373839414243444546000000003D
:1067800000F060F9054406F10106307800287FF436
:10679000E9AD19B02846BDE8F08F620700D406279E
:1067A00009F1070222F0070CFCE80223E14603F09E
:1067B00000485FEA080C02D00FF27C2C0DE05FEA83
:1067C000045C02D50FF2742C07E05FEAC47C02D0AF
:1067D0000FF26C2C01E0AFF2700C4FF0FF3823F099
:1067E0000043CDF850C065280CD006DC452809D000
:1067F00046281DD047283ED13EE0662818D067289D
:1068000039D139E00021112F01DB112000E0781C83
:10681000CDE9000106A90EA8FFF7EEFCDDE90F01A6
:106820000E9A03910021009207F1010A04914EE0B3
:106830004FF000400097CDE9011006A90EA8FFF720
:10684000DBFCDDE90F0203920E9B11990022DDF8BB
:106850000CA00093049219B907F1010100EB010AA1
:10686000B7EB0A0004D4C0F1FF3007F1010A04902D
:10687000AAEB0700019046E0012F00DA0127002172
:10688000112F01DD112000E03846CDE9000106A9F5
:106890000EA8FFF7B1FCDDE90F010E9A039100216C
:1068A00004910092BA4621070CD40399514500DAAD
:1068B0008A46BAF1010F05DD009AAAF10101515C87
:1068C000302908D0B84202DA10F1040F06DA0121AB
:1068D000CDE9011017E0AAF10101E9E7002805DC84
:1068E000049901440491AAEB000102E0411C5145C6
:1068F00000DD8A460499A0EB010000F1010001903F
:106900004FF000400290200704D40198504501DB6D
:10691000CDF8048000208DF84F0002980DF14F074C
:10692000B0F1004F25D02B200E9002984FF00208B6
:1069300000280CDA404202902D200E9007E00A2138
:106940000298F9F70BFF3031029007F8011DB8F1FA
:106950000001A8F10108F2DC02980028EFD1791EAD
:106960000E980870307800F0200040F0450007F8DD
:10697000020D12A8A0EB070000F107081498007898
:1069800000B1012000EB0A01019801EBE0710598CC
:106990004144A0EB0100A0F101000590E00306D402
:1069A0005B462146179A059800F05FF80544149855
:1069B000007820B15A461799904705F10105E00388
:1069C00023D55B462146179A059800F04EF80544FA
:1069D0001BE00498002807DBDDE90301884203DDA2
:1069E0000098405C179901E0179930205A4690476B
:1069F00004986D1C401C04900198401E019004D125
:106A00002E205A46179990476D1CBAF10001AAF141
:106A1000010ADEDC05E017F8010B5A46179990478A
:106A20006D1CB8F10001A8F10108F4DC5B462146B9
:106A3000179A0598A4E600002D0000002B00000026
:106A4000200000002DE9F041044600251E461746AF
:106A5000880405D406E039462020B04705F1010539
:106A6000641EF8D52846BDE8F0812DE9F0410446C2
:106A700000251E469046C80301D5302700E0202798
:106A8000880405D506E041463846B04705F10105C2
:106A9000641EF8D52846BDE8F0810A68531C0B60D7
:106AA0001070704708B51B48FCF7C6FAFAF794FD5A
:106AB0001948FAF777FEFAF71DFEFAF7BFFDFEF761
:106AC0008BFA40F6B83015A3002216490090104604
:106AD000FEF758FB40F6B83013A30022144900908B
:106AE0000120FEF74FFB40F6B83012A300221349F5
:106AF00000900220FEF746FB40F6B8300DA30022BE
:106B00000F4900900320FEF73DFBFEF7C9FA00BFD6
:106B1000FEE7000010060020003801405461737445
:106B200030000000B5480008546173743100000063
:106B3000494E000854617374320000007149000826
:106B4000014A000800C1814001C0804101C080416C
:106B500000C1814001C0804100C1814000C181402D
:106B600001C0804101C0804100C1814000C181401D
:106B700001C0804100C1814001C0804101C080410D
:106B800000C1814001C0804100C1814000C18140FD
:106B900001C0804100C1814001C0804101C08041ED
:106BA00000C1814000C1814001C0804101C08041DD
:106BB00000C1814001C0804100C1814000C18140CD
:106BC00001C0804101C0804100C1814000C18140BD
:106BD00001C0804100C1814001C0804101C08041AD
:106BE00000C1814000C1814001C0804101C080419D
:106BF00000C1814001C0804100C1814000C181408D
:106C000001C0804100C1814001C0804101C080417C
:106C100000C1814001C0804100C1814000C181406C
:106C200001C0804101C0804100C1814000C181405C
:106C300001C0804100C1814001C0804101C080414C
:106C400000C1814000C0C101C30302C2C60607C71C
:106C500005C5C404CC0C0DCD0FCFCE0E0ACACB0B8C
:106C6000C90908C8D81819D91BDBDA1A1EDEDF1FBC
:106C7000DD1D1CDC14D4D515D71716D6D21213D3AC
:106C800011D1D010F03031F133F3F23236F6F7375C
:106C9000F53534F43CFCFD3DFF3F3EFEFA3A3BFB4C
:106CA00039F9F83828E8E929EB2B2AEAEE2E2FEFFC
:106CB0002DEDEC2CE42425E527E7E62622E2E3236C
:106CC000E12120E0A06061A163A3A26266A6A7679C
:106CD000A56564A46CACAD6DAF6F6EAEAA6A6BAB0C
:106CE00069A9A86878B8B979BB7B7ABABE7E7FBF3C
:106CF0007DBDBC7CB47475B577B7B67672B2B3732C
:106D0000B17170B0509091519353529296565797DB
:106D1000559594549C5C5D9D5F9F9E5E5A9A9B5BCB
:106D200099595898884849894B8B8A4A4E8E8F4F7B
:106D30008D4D4C8C448485458747468682424383EB
:106D400041818040060C0000BC6D0008000000007E
:106D500039720008307200080810000099720008AB
:106D600000000000927800088978000808180000E8
:106D7000127900080000000003820008FA81000870
:106D80000C180000C3820008000000009C9400085A
:106D90009394000810200000BC950008000000003B
:106DA00085AD00087CAD00081830000085AF0008F4
:106DB00000000000FEE40008F5E400080000000008
:106DC00000000000000000000000040404040400AF
:106DD0000004000014140A0000000000000000007D
:106DE00000000A0A1F0A0A1F0A0A000000040E1502
:106DF00005060C14150E0400000012150D152E2C9E
:106E00002A1200000000040A0A361515291600008F
:106E10000202010000000000000000001008080449
:106E20000404040408081000020404080808080800
:106E30000404020000000004150E0E1504000000FA
:106E400000000008083E08080000000000000000E4
:106E5000000000000202010000000000003F0000EE
:106E60000000000000000000000000000002000020
:106E700000201010080804040202010000000E1196
:106E800011111111110E0000000004060404040485
:106E9000040E000000000E1111080402011F000082
:106EA00000000E11100C1010110E00000000080C54
:106EB0000C0A091F081C000000001F01010F11101F
:106EC000110E000000000C12010D1311110E000034
:106ED00000001E10080804040404000000000E1145
:106EE000110E1111110E000000000E1111191610D3
:106EF000090600000000000004000000000400007B
:106F0000000000000004000000040400000010085D
:106F10000402020408100000000000003F003F00CF
:106F20000000000000000204081010080402000025
:106F300000000E11110804040004000000001C22CF
:106F4000292D2D1D221C0000000004040C0A0A1E1D
:106F50001233000000000F12120E1212120F000066
:106F600000001E1101010101110E000000000F12AE
:106F700012121212120F000000001F120A0E0A0253
:106F8000121F000000001F120A0E0A020207000072
:106F900000001C1201013911120C00000000331214
:106FA000121E12121233000000001F040404040415
:106FB000041F000000003E08080808080808090728
:106FC000000037120A060A121237000000000702FA
:106FD00002020202223F000000003B1B1B1B151592
:106FE0001535000000003B1216161A1A1217000081
:106FF00000000E1111111111110E000000000F12EE
:10700000120E02020207000000000E1111111117EA
:10701000190E180000000F12120E0A12123700008B
:1070200000001E1101060810110F000000001F15BE
:1070300004040404040E00000000331212121212A1
:10704000120C000000003312120A0A0C04040000A3
:107050000000151515150E0A0A0A000000001B0A8B
:107060000A04040A0A1B000000001B0A0A0A04049E
:10707000040E000000001F0908040402121F000093
:107080001C0404040404040404041C00000202049C
:1070900004040808081010000E080808080808086A
:1070A00008080E00040A00000000000000000000B4
:1070B00000000000000000000000003F020400008B
:1070C000000000000000000000000000000C121C86
:1070D000123C000000030202020E1212120E000007
:1070E00000000000001C1202120C0000001810101A
:1070F000101C1212123C000000000000000C121EB6
:10710000021C000000182404041E0404041E0000D5
:1071100000000000003C120C021C221C00030202B2
:10712000020E1212123700000004040000060404CC
:10713000040E000000080800000C080808080807F2
:1071400000030202021A0A060A13000000070404E0
:1071500004040404041F000000000000000F1515C3
:107160001515000000000000000F12121237000079
:1071700000000000000C1212120C000000000000C1
:10718000000F1212120E020700000000001C121263
:10719000121C103800000000001B0602020700004D
:1071A00000000000001E020C101E00000000000481
:1071B000041E0404041C000000000000001B121246
:1071C000123C000000000000001B0A0A040400003A
:1071D000000000000015150E0A0A00000000000063
:1071E000001B0A040A1B00000000000000331212FA
:1071F0000C08040300000000001E0804041E000028
:1072000018080808080C08080808180008080808E2
:107210000808080808080808060404040408040408
:107220000404060016090000000000000000000031
:10723000B2E2CAD4D7D6CCE500007D4654545556A8
:1072400054541229440404050505050505050404E4
:10725000060102F0000372222222623602050107B3
:107260000101010101010506041020FF0100FC805D
:1072700040FF202038000007040001000007000044
:1072800000444442FA43E2524A46F24242000000BD
:1072900003000001020401000000000000000000E3
:1072A00000000000000000000000000008080808BE
:1072B0000808080000080800000048242412000004
:1072C0000000000000000000000000004848487E68
:1072D0002424247E24242400000000103C52521256
:1072E0001C30505052523C10100000002225151541
:1072F0000D2A585454522200000000000C121212A1
:107300000A76252919916E00000006040402000087
:1073100000000000000000000000402010100808DD
:107320000808080810102040000002040808101087
:107330001010101008080402000000000008086B7C
:107340001C1C6B080800000000000000000010106A
:1073500010FE1010100000000000000000000000EF
:10736000000000000006040402000000000000000D
:10737000007E00000000000000000000000000008F
:107380000000000000060600000000402020201041
:1073900010080808040402020000000018244242F9
:1073A000424242424224180000000000101C10100B
:1073B0001010101010107C00000000003C424242EF
:1073C0004020100804427E00000000003C42424081
:1073D0002018204042423C000000000020303028AD
:1073E000242422FE2020F800000000007E02020279
:1073F0001E22404042221C0000000000182402020D
:107400003A46424242443800000000007E422020BA
:107410001010080808080800000000003C42424222
:107420002418244242423C00000000001C22424238
:1074300042625C4040241800000000000000001878
:1074400018000000001818000000000000000000F4
:107450000800000000000808080000004020100894
:107460000402040810204000000000000000007E1C
:1074700000007E0000000000000000000204081070
:107480002040201008040200000000003C42424658
:107490002010101000181800000000001C225A557F
:1074A000555555553A423C00000000000808181494
:1074B00014243C224242E700000000001F22222246
:1074C0001E22424242221F00000000007C42420174
:1074D0000101010142221C00000000001F22424263
:1074E0004242424242221F00000000003F4212126C
:1074F0001E12120242423F00000000003F421212E0
:107500001E12120202020700000000003C222201AB
:107510000101712122221C0000000000E7424242CA
:10752000427E42424242E700000000003E08080856
:107530000808080808083E00000000007C10101031
:1075400010101010101010110F0000007722120AF6
:107550000E0A121222227700000000000702020227
:107560000202020202427F00000000007736363637
:1075700036362A2A2A2A6B0000000000E346464AD3
:107580004A52525262624700000000001C224141F0
:107590004141414141221C00000000003F42424263
:1075A000423E020202020700000000001C2241418C
:1075B000414141414D321C60000000003F424242C7
:1075C0003E1212222242C700000000007C4242020A
:1075D0000418204042423E00000000007F49080895
:1075E0000808080808081C0000000000E7424242A2
:1075F0004242424242423C0000000000E742422236
:107600002424141418080800000000006B2A2A2AF9
:107610002A2A36141414140000000000E74224241F
:10762000181818242442E7000000000077222214D2
:107630001408080808081C00000000007E21201023
:107640001008040442423F000000780808080808B7
:107650000808080808080878000000020404040864
:10766000080810102020204040001E10101010109C
:10767000101010101010101E000018240000000040
:1076800000000000000000000000000000000000FA
:107690000000000000000000FF00060800000000DD
:1076A00000000000000000000000000000000000DA
:1076B0001C22302C22326C00000000000003020269
:1076C0001A26424242261A00000000000000000074
:1076D00038440202024438000000000000604040CC
:1076E0007C4242424262DC000000000000000000D8
:1076F0003C42427E02423C0000000000003048084C
:107700003E08080808083E000000000000000000D5
:107710007C22221C023C42423C0000000003020288
:107720003A4642424242E700000000000C0C0000D2
:107730000E08080808083E00000000003030000075
:1077400038202020202020221E00000000030202FA
:1077500072120A0E1222770000000000080E0808BC
:107760000808080808083E000000000000000000AB
:107770007F9292929292B7000000000000000000F9
:107780003B4642424242E700000000000000000089
:107790003C42424242423C00000000000000000027
:1077A0001B26424242261A02070000000000000089
:1077B0005864424242645840E0000000000000006B
:1077C000774C040404041F000000000000000000C7
:1077D0007C42023C40423E000000000000000808DD
:1077E0003E080808084830000000000000000000C3
:1077F000634242424262DC000000000000000000E0
:107800007722221414080800000000000000000085
:10781000DB91525A2A2424000000000000000000DE
:107820006E241818182476000000000000000000E4
:10783000E742242418180808060000000000000091
:107840007E22100808447E000000C0202020202056
:1078500020102020202020C0001010101010101028
:107860001010101010101010100003040404040471
:10787000040804040404040300045A200000000067
:10788000000000000000000000B2E2CAD4D7D6CC4D
:10789000E50000E42828A1A2A2A8A8A4A784444443
:1078A00024102023222A2A2A2A2A2A2A2A2021228C
:1078B000281000040808E0000FE8888888A898E8E5
:1078C0004000142424047F040407040808085350CB
:1078D00060404080FE0201F8000080FF80808080D0
:1078E000A04000007F4020070201007F0000000050
:1078F000000010101008E80C0C0A898848A8180825
:107900000808020202023F0207070A0A122F420277
:107910000202000000000000000000000000000063
:107920000000000000000000000000000000081837
:107930001818180808080808080000000818180097
:1079400000000000686C2414120000000000000019
:1079500000000000000000000000000000000444DF
:1079600024247E7E24242424247E7E22222220009D
:107970000000000000001834347232140C18183063
:1079800030505656523418100000000000000226F5
:107990002529191919156E689898949494626200B3
:1079A0000000000000000814121212120C04262617
:1079B0002929291191B24C00000000000606040498
:1079C00002020000000000000000000000000000B3
:1079D0000000000040402020101010100808080887
:1079E00008101010102020400000000002020404C3
:1079F000080808080808100808080808080404020D
:107A000000000000000000000018184A6E3C182C0E
:107A10006E4A08180000000000000000000000008E
:107A2000001010101010FE101010100000000000C8
:107A30000000000000000000000000000000000046
:107A4000000000000606040402020000000000001E
:107A50000000000000007F000000000000000000A7
:107A60000000000000000000000000000000000016
:107A70000000000006060600000000000040404034
:107A80002020201010100808080804040402020234
:107A900000000000000018242442424242424242B8
:107AA000424242422424180000000000000010104E
:107AB00018101010101010101010101010183C009A
:107AC00000000000000018244242424240202010E2
:107AD00008080444427E7E000000000000001824D4
:107AE00022626220201010204040424242221C00AC
:107AF000000000000000202030302828242422220A
:107B0000227E202020207800000000000000007C61
:107B1000020202021A2662404040424242221C00F7
:107B2000000000000000102C64020202122A4642EB
:107B30004242424246241800000000000000007E3D
:107B40004222202010101010080808080808080019
:107B5000000000000000182442424242262C1C3241
:107B60006242424242221C00000000000000182431
:107B700022424242424262564840402026160C00B1
:107B800000000000000000000000000018180000C5
:107B900000000000081818000000000000000000AD
:107BA000000000001818000000000000001818086D
:107BB0000800000000004020201008080402020411
:107BC00004081010204040000000000000000000E9
:107BD000000000003E0000007F00000000000000E8
:107BE00000000000000002040408101020404020A3
:107BF0002010080804020200000000000000182401
:107C000042424242402010100808000008181800A4
:107C1000000000000000102C4472AAAAAAAAA6A67E
:107C2000A6762A82424438000000000000000018B6
:107C300018181814142424243C2222624242E3001F
:107C4000000000000000003E4242424262322E42EA
:107C50004242424242621F00000000000000106CDD
:107C600044420202020202020202024242241800BC
:107C7000000000000000003E2242424242424242D6
:107C80004242424222320F00000000000000007E0B
:107C90004202022222223E222202028242427F002D
:107CA000000000000000007E4282020202223E220A
:107CB0000202020202020700000000000000182475
:107CC0004442420202030303424242424264180019
:107CD00000000000000000424242424242427E4216
:107CE000424242424242E700000000000000003CE5
:107CF00018181818181818181818181818187E00B6
:107D000000000000000000782020202020202020FB
:107D10002020202020201012120C00000000002241
:107D2000222212120A0A1616123222222242E700D8
:107D3000000000000000000606060606060606060D
:107D40000606068646467F0000000000000000424E
:107D50004262666666565656565A4A4A4A4AEB0088
:107D600000000000000000424646464A4A4A52527D
:107D70005262626242424700000000000000182484
:107D80004442424242C2C2C24242424242241800DB
:107D9000000000000000003E4242424242423E02D9
:107DA0000202020202020700000000000000182484
:107DB000424242424242424242425E565624386069
:107DC000600000000000003E4242424242221E1279
:107DD000122222222242C700000000000000186484
:107DE00042420202060C182060404042422618001F
:107DF000000000000000007E490908080808080883
:107E00000808080808083C000000000000000042C4
:107E100042424242424242424242424242241800CC
:107E200000000000000000424242242424242414C4
:107E30001818181808080000000000000000005280
:107E400052525252525A5A5A34342424242404008E
:107E50000000000000000046242424181818101800
:107E6000181824242442E70000000000000000420B
:107E700042242424241818180808080808083C007C
:107E8000000000000000007E422020201010180892
:107E90000804040442427E0000000000780808083C
:107EA0000808080808080808080808080808080852
:107EB0007800000000000204040404080808081008
:107EC0001010102020204040404000001E101010D4
:107ED00010101010101010101010101010101010A2
:107EE0001E00000018240000000000000000000038
:107EF0000000000000000000000000000000000082
:107F00000000000000000000000000000000000071
:107F100000FF00000C100000000000000000000046
:107F20000000000000000000000000000000000051
:107F3000000000003C22222038242222A2B24C0061
:107F40000000000000000202020202023A4646421D
:107F50004242424242261A00000000000000000097
:107F600000000000382462020202020242241800CB
:107F70000000000000004040404040405864424241
:107F80004242424262E4180000000000000000008B
:107F90000000000038244242423E020242241800FF
:107FA0000000000000000070C80808083E0808082B
:107FB0000808080808083E00000000000000000053
:107FC000000000005C24222222241C020C7C42427D
:107FD000423C000000000202020202023A26424233
:107FE000424242424242E700000000000000001806
:107FF000100000000C0808080808080808083C00E1
:108000000000000000002020200000003820202078
:108010002020202020202020221C00000000000220
:1080200002020202722212120A1612222242E600F2
:1080300000000000000008080808080808080808F0
:108040000808080808083C000000000000000000C4
:10805000000000006F525252525252525252DB00F4
:108060000000000000000000000000003A2642422C
:10807000424242424242E70000000000000000008D
:10808000000000003824424242424242422418008A
:108090000000000000000000000000003B464242DB
:1080A0004242424242261A0202060000000000003C
:1080B000000000005864424242424242426458403A
:1080C00040600000000000000000000066540C0446
:1080D0000404040404041F00000000000000000069
:1080E000000000003C4442040C38604242463A0022
:1080F0000000000000000000080808083E0808080A
:10810000080808084848300000000000000000008F
:1081100000000000634242424242424262D40C00EC
:10812000000000000000000000000000664424245D
:1081300024241818180800000000000000000000A7
:1081400000000000DB5252525A5A343424240400F6
:108150000000000000000000000000006E24241851
:1081600018101824242466000000000000000000FD
:108170000000000066242424242818181810080879
:108180000A06000000000000000000003E2222104D
:108190001008084444423E00000000002020202037
:1081A0002020202010100810102020202020202027
:1081B000400010101010101010101010101010109F
:1081C00010101010101010101010000004040404FF
:1081D0000404040408081008040404040404040447
:1081E0000200000E8A506000000000000000000045
:1081F00000000000000000000000B2E2CAD4D7D6A0
:10820000CCE500000004E8282820A2B2B4B4A8A855
:10821000A8A8A46644444424140800000022232291
:108220003A2A2A2A2A2A2A2A2A2A2A2828212222BB
:1082300032200000000004080808E800000C0AC80A
:10824000080808082828987808000000001C242442
:1082500024447F0404080A0D0909090911537160B7
:108260006040000000800000F804040CF0000000F2
:1082700000FE000000000000E0800000000001217E
:108280007F2010080F040201017F0101010101019B
:1082900000000000001010100808E8080C0C8A8A82
:1082A00088484828E8180808080800000006020264
:1082B00002227F070B0B0A0A121222621F0202021D
:1082C00002020000000000000000000000000000AA
:1082D000000000000000000000000000000000009E
:1082E000000000000000000000000000000000008E
:1082F000000000000000006060606060606040207E
:10830000202000000060606000000000000000000D
:10831000000000000000000000000000000000005D
:1083200000000000006060309888440000000000F9
:10833000000000000000000000000000000606032E
:10834000010000000000000000000000000000002C
:108350000000000000000010101010FEFE080808C9
:108360000808FEFE040404040000000000000002EF
:1083700002020207070201010101070701010101D1
:108380000000000000004040F0584CCC4C5870E019
:10839000C0C0404C5C4C48F0404000000000000071
:1083A00001030303000000000101030303030100B4
:1083B000000000000000000E0A91919151513AAE68
:1083C000A05050484848848400000000000000018C
:1083D000010000000000000302040404040402037E
:1083E00000000000000000386C6C6C6C6C2C981C59
:1083F0001A333363E3C3C63C0000000000000000F2
:108400000000000000000701010101010008090748
:1084100000000000000C1C10100804000000000008
:10842000000000000000000000000000000000004C
:10843000000000000000000000000000000000003C
:10844000000000000000000080804040202020202C
:108450002020204040808000000000000004020135
:10846000000000000000000000000000000000010B
:108470000204000000020408101020204040404088
:1084800040404020201010080402000000000000BE
:1084900000000000000000000000000000000000DC
:1084A00000000000000000000040C040464ED0F038
:1084B0005E46404040000000000000000000000058
:1084C000000000000C0F01010F0C00000000000074
:1084D000000000000000000000004040404040FE5E
:1084E000404040404000000000000000000000004C
:1084F000000000000000000F00000000000000006D
:10850000000000000000000000000000000000006B
:1085100000000000000C1C10100804000000000007
:10852000000000000000000000000000000000004B
:10853000000000000000000000000000000000FE3D
:10854000000000000000000000000000000000002B
:108550000000000000000007000000000000000014
:10856000000000000000000000000000000000000B
:1085700000000000001C1C1C0000000000000000A7
:1085800000000000000000000000000000000000EB
:1085900000000000000000000000008080404060FB
:1085A0002020101008080C04060200000004060237
:1085B00003010100000000000000000000000000B6
:1085C0000000000000000000F0980C0C06060606F3
:1085D000060606060C0C98F00000000000000000E3
:1085E000000103030606060606060606030301004D
:1085F0000000000000000000407C6060606060607F
:1086000060606060606060FC0000000000000000CE
:108610000000000000000000000000000000000357
:108620000000000000000000F88402060600008040
:10863000C0602010080406FE0000000000000000DA
:108640000001030303030101000000000202020312
:10865000000000000000000078C686868080C070A0
:1086600080000000060686F8000000000000000000
:1086700000000101010100000101030303030100E7
:1086800000000000000000008080C0A0A09088884A
:108690008482FE80808080E00000000000000000F6
:1086A000010101010101010101010F0101010107A6
:1086B0000000000000000000FC0404040404F48C2A
:1086C00004000006068284F800000000000000009C
:1086D0000300000000000001030303030301010085
:1086E0000000000000000000E0180C0C0406E61674
:1086F0000E060606040C18F0000000000000000042
:10870000010303000000010306060606060203003B
:108710000000000000000000F80C0404000080804D
:1087200040404060606060600000000000000000A9
:108730000706020101010000000000000000000027
:108740000000000000000000F80C0606060C1CF0FB
:10875000C80C060606060CF0000000000000000031
:1087600001030606060203000103060606060301CE
:108770000000000000000000F00C0C0606060606D3
:108780008C780000000C8C780000000000000000D5
:1087900000010302060606070606060303010100A0
:1087A00000000000000000000000000000E0E0E029
:1087B0000000000000E0E0E0000000000000000019
:1087C00000000000000000000000000000000000A9
:1087D00000000000000000000000000000606000D9
:1087E0000000000000006060402020000000000049
:1087F0000000000000000000000000000000000079
:10880000000000000000000000008040201008046C
:10881000081020408000000000000000000000045C
:10882000020100000000000000000000000102043E
:1088300000000000000000000000000000FE00003A
:1088400000FE00000000000000000000000000002A
:10885000000000000007000000070000000000000A
:10886000000000000000000408102040800000000C
:1088700000008040201008040000000000000000FC
:1088800000000000000102040201000000000000DE
:108890000000000000000000E01804040C0C008040
:1088A0004040400000E0E0E0000000000000000068
:1088B00003060C0C0C0C0701000000000000000077
:1088C00000000000000000E0180CCC6466A6B6B6FC
:1088D000B6B6B6E40C0C18F0000000000000000072
:1088E0000302050505050404040402010402030053
:1088F0000000000000000000606050D09090888868
:1089000008F804040402020F000000000000000048
:108910000000000000000001010103030202060F35
:108920000000000000000000FE8C0C0C0C0C8CFC05
:108930000C0C0C0C0C0C0CFE0000000000000000E5
:1089400000030303030301000302060606060301F6
:108950000000000000000000E0180C0C04060606F1
:10896000060606060C0C18F00000000000000000CF
:1089700003030604040000000000000404020300D6
:1089800000000000000000007F8C0C0C0C0C0C0C94
:108990000C0C0C0C0C0C8C7F000000000000000084
:1089A0000001030306060606060606060303010089
:1089B0000000000000000000FF060606068686FE96
:1089C00086868606060606FF0000000000000000FE
:1089D000030304040000000000000000040402037C
:1089E0000000000000000000FF060606068686FE66
:1089F000868686060606061F0000000000000000AE
:108A00000303040400000000000000000000000058
:108A10000000000000000000F0180C0C0406060620
:108A200006C606060C0C18F000000000000000004E
:108A30000001020202000000000F03030303030011
:108A400000000000000000000F060606060606FEF5
:108A5000060606060606060F0000000000000000DD
:108A60000F06060606060607060606060606060F93
:108A70000000000000000000FC606060606060605A
:108A800060606060606060FC00000000000000004A
:108A900003000000000000000000000000000003D0
:108AA0000000000000000000F8C0C0C0C0C0C0C08E
:108AB000C0C0C0C0C0C0C0C0C6663C00000000004E
:108AC000070000000000000000000000000000009F
:108AD0000000000000000000CF86C6462616362E95
:108AE0006E46C6868606068F000000000000000065
:108AF0000301000000000000000000000101030766
:108B000000000000000000001F060606060606061C
:108B100006060606060606FF00000000000000002C
:108B20000000000000000000000000000404020338
:108B300000000000000000000786868E8E4E4E4A20
:108B40005A5A3A3232321287000000000000000008
:108B500007030303030303030303030303030307DD
:108B600000000000000000008E0C1C1C3434646403
:108B700044C484848404041F00000000000000003A
:108B80000F020202020202020202020303030302B4
:108B90000000000000000000F0980C0C060606061D
:108BA000060606060C0C98F000000000000000000D
:108BB0000001030206060606060606060203010079
:108BC0000000000000000000FF06060606060686FC
:108BD000FE0606060606061F000000000000000054
:108BE0000003060606060603000000000000000061
:108BF0000000000000000000F0980C0C06060606BD
:108C0000060606764CCC98F08000000000000000BC
:108C10000001030206060606060606060203010018
:108C20000703000000000000FF060606060606FE19
:108C300046C686860606060F0000000000000000FB
:108C40000103060606060300000000010303060EEA
:108C50000000000000000000F80C0606060E3CF8BC
:108C6000E080000202060CF000000000000000009E
:108C700002030202000000000303070606060301C8
:108C80000000000000000000FE6261616060606042
:108C900060606060606060F800000000000000003C
:108CA00007040808000000000000000000000001A8
:108CB00000000000000000001E0C0C0C0C0C0C0C42
:108CC0000C0C0C0C0C0C18F0000000000000000054
:108CD0000702020202020202020202020202010072
:108CE00000000000000000000F0604040C0C88883F
:108CF00098985050703020200000000000000000C4
:108D00000702010101010000000000000000000056
:108D10000000000000000000F7624246466464E480
:108D2000E49C9C989888888800000000000000005F
:108D30000E04040404020202020201010101000007
:108D400000000000000000009E0C081890B0602099
:108D50006060D0908808048E0000000000000000D1
:108D600007010101000000000000000001010307ED
:108D700000000000000000000F06040C0818B8B046
:108D800070606060606060F800000000000000003B
:108D90000F040202010100000000000000000001B9
:108DA0000000000000000000FC0C06028080404033
:108DB00020201018080C04FE000000000000000035
:108DC0000702030101000000000000000404020388
:108DD0000000000000E02020202020202020202073
:108DE000202020202020202020E000000003000080
:108DF0000000000000000000000000000000000073
:108E000000030000000000040408081010102020D7
:108E10004040C08080000000000000000000000012
:108E2000000000000000000000000000000101023E
:108E300002020400007C404040404040404040402E
:108E40004040404040404040407C00000000000066
:108E50000000000000000000000000000000000012
:108E6000000000006090080000000000000000000A
:108E700000000000000000000000000000000100F1
:108E800000000000000000000000000000000000E2
:108E900000000000000000000000000000000000D2
:108EA00000000000000000000000FF0000000000C3
:108EB00000000000000000000000000000000000B2
:108EC00000000F000018600000000000000000001B
:108ED0000000000000000000000000000000000092
:108EE0000000000000000000000000000000000082
:108EF00000000000000000000000000000F00C0C6A
:108F000000E01C0E06068E7C000000000000000041
:108F100000000000000103030303030303030B0E1F
:108F200000000000000000080E0C0C0C0CCC3C1CD7
:108F30000C0C0C0C0C0C1CE40000000000000000E9
:108F400000000000000103060606060606020301F3
:108F500000000000000000000000000000F08C8C09
:108F600086060606060C0CF000000000000000005B
:108F700000000000000001010100000002020100E9
:108F80000000000000000000C000000000788C0C11
:108F90000606060606048C780000000000000002A9
:108FA000030303030303030303030303030307018F
:108FB00000000000000000000000000000E01808B1
:108FC0000C0CFC0C0C1818E0000000000000000065
:108FD0000000000000010302060607000004020171
:108FE0000000000000000000C060303030FE303073
:108FF00030303030303030FC000000000000000025
:10900000030606000001000000000000000000014F
:1090100000000000000000000000000000F0D88CFC
:109020008C8C98F80CFCCC06068EF8000000000032
:109030000000000000070601010101000000030319
:1090400003030000000000080E0C0C0C0CEC1C0CC0
:109050000C0C0C0C0C0C0C9E00000000000000001E
:1090600000000000000103030303030303030307DD
:10907000000000000000000060600000407C6060B4
:1090800060606060606060FC000000000000000044
:1090900000000000000000000000000000000003CD
:1090A0000000000000000000C0C0000000F0808050
:1090B000808080808080808080CC7C0000000000E8
:1090C0000101000001010101010101010101010192
:1090D00001000000000000080E0C0C0C0C8C8C8CA5
:1090E0004C6C5C8C8C0C0C9E00000000000000009E
:1090F0000000000000030000000000000101030761
:1091000000000000000000407C6060606060606003
:1091100060606060606060FC0000000000000000B3
:10912000000000000000000000000000000000033C
:109130000000000000000000000000000037EE66A4
:1091400066666666666666FF000000000000000056
:109150000000000000070606060606060606060FC3
:1091600000000000000000000000000000EE1C0CE9
:109170000C0C0C0C0C0C0C9E0000000000000000FD
:1091800000000000000103030303030303030307BC
:1091900000000000000000000000000000F0980C3B
:1091A00006060606060C0CF0000000000000000099
:1091B0000000000000000103060606060603030087
:1091C00000000000000000000000000000EE1C0C89
:1091D0000C0C0C0C0C0C1CEC0C0C3E0000000000E9
:1091E0000000000000010306060606060603030150
:1091F00000000000000000000000000000788C0C5F
:109200000606060606048C780000C0000000000078
:10921000000000000002030303030303030303032E
:10922000030307000000000000000000009F583802
:1092300018181818181818FF000000000000000087
:10924000000000000003060600000000000000000F
:1092500000000000000000000000000000F01C0CF6
:109260000C38F0C004048CFC00000000000000007A
:1092700000000000000303020200000303030301D7
:1092800000000000000000000020203030FE3030E0
:1092900030303030303030E000000000000000009E
:1092A00000000000000100000000000000020201B8
:1092B000000000000000000000000000088E0C0C00
:1092C0000C0C0C0C0C0C9C78000000000000000042
:1092D0000000000002030303030303030303070169
:1092E000000000000000000000000000001E0C084C
:1092F000081890B0B060602000000000000000007E
:109300000000000000070201010100000000000051
:1093100000000000000000000000000000F76246AE
:109320006464EC9C9898980800000000000000001D
:1093300000000000000E040402020201010101000D
:1093400000000000000000000000000000BC181039
:10935000B06060E09008089E00000000000000007F
:1093600000000000000701010000000000010307E9
:10937000000000000000000000000000009E08083F
:10938000089090B06060602020241C000000000065
:1093900000000000000701010100000000000000C3
:1093A00000000000000000000000000000FC84C479
:1093B0004460203018080CFC000000000000000091
:1093C0000000000000010100000000000202030193
:1093D000000000000000808080808080808040202D
:1093E000408080808080808080000000000300003A
:1093F000000000000000000000000000000000006D
:109400000003004040404040404040404040404019
:10941000404040404040404040404000000000008C
:10942000000000000000000000000000000000003C
:1094300000000000000C1010101010101010204040
:109440002010101010101010100C00000000000070
:10945000000000000000000000000000000000000C
:10946000000000001C22C28000000000000000007C
:1094700000000000000000000000000000040403E1
:1094800000000000000000000000000000000000DC
:10949000000000B2E2CAD4D7D6CCE50000000890A4
:1094A000B0808082CCC8C8A0A0A090909C981818CA
:1094B00018D820000000007F61616D6D6D6D6D6DCD
:1094C0006D6D656525061A236140000000001010CF
:1094D0001010161212121212121212121210101072
:1094E000101C1800000000081030202000007E2012
:1094F000202020202020A06070200000000080801C
:10950000000000FF000040FF101010101291700EBC
:10951000020000000000000F1911217F010101016C
:109520000103020206444C4838704000000000006D
:1095300010F01018EC0000000000FE000000000019
:10954000000000000004181810FF0000FF80C02079
:109550001818FF1818181818181F0C000000000021
:10956000103F18080703000000003F000000000043
:10957000000000000040C040602020107028282417
:109580002220202020A06020202020000040C04079
:109590004040FF60705050484844464241FE4040C1
:1095A000404040000000000000003F0101010202B5
:1095B00006040C18343F000000000000000000000A
:1095C000000000000000000000000000000000009B
:1095D000000000000000000000000000000000008B
:1095E000000000000000000000000000000000007B
:1095F000000000000000000000000000000000006B
:109600000000C0C0C0C0C0C08080808080808080DA
:109610008000000080C0C08000000000000000004A
:10962000000003030303030303010101010101011E
:109630000100000001030301000000000000C0E081
:10964000E07030188C840000000000000000000072
:109650000000000000000000000000000000181CD6
:109660001C0E0603010000000000000000000000C6
:1096700000000000000000000000000000000000EA
:1096800000002020202020FEFEFE101010101010E0
:10969000FEFEFE1808080808000000000000000098
:1096A000000010101010107F7F7F080808080808BD
:1096B0007F7F7F0C04040404000000000000000011
:1096C0008080C0B090989898B8B0F0E0C08080805A
:1096D00080809C9C8C8C98E0808080000000000042
:1096E0000000030C18181C1C0000000003070F0CDE
:1096F0001C181818180C06030000000000000000D9
:1097000000001C362263636363636322B69C40409F
:109710004020201010100808000000000000000089
:109720000000080804040202020101011C36226341
:10973000636363636322361C0000000000000000C6
:109740000000F0988C8C8C8C8CCC5C381C3C327378
:1097500063E3C38383068C780000000000000000F0
:109760000000000001010101000000003E0808089F
:109770000404040343673E1C0000000000001C3C7E
:109780003C3030100C06000000000000000000001B
:1097900000000000000000000000000000000000C9
:1097A00000000000000000000000000000000000B9
:1097B00000000000000000000000000000000000A9
:1097C0000000000000000000808080808080808099
:1097D00080000000000000000000000000004020A9
:1097E00010180C040602030301010101010101012B
:1097F0000103030206040C181020400000000204BC
:10980000081830206040C0C08080808080808080C8
:1098100080C0C0C0602030180804020000000000B2
:109820000000000000000000010101010101010130
:109830000100000000000000000000000000000027
:10984000000000000080800C1C3860808060381CA4
:109850008C808080000000000000000000000000FC
:10986000000000000303036371390D03030D397118
:10987000610303030000000000000000000000007E
:10988000000000000000000000000000FC000000DC
:1098900000000000000000000000000000000000C8
:1098A0000000000000010101010101017F0101012F
:1098B00001010101000000000000000000000000A4
:1098C0000000000000000000000000000000000098
:1098D000000000001C3C3C3030100C060000000072
:1098E0000000000000000000000000000000000078
:1098F0000000000000000000000000000000000068
:10990000000000000000000000000000FE00000059
:109910000000000000000000000000000000000047
:109920000000000000000000000000007F000000B8
:109930000000000000000000000000000000000027
:109940000000000000000000000000000000000017
:1099500000000000183C3C1800000000000000005F
:1099600000000000000000000000000000000000F7
:1099700000000000000000000000000000000000E7
:109980000000000000000000000000008080C040D7
:109990006020301018080C0406020000000000408F
:1099A0006020301018080C040602030101000000BA
:1099B00000000000000000000000000000000000A7
:1099C0000000C060301818180C0C0C0C0C0C0C0C9F
:1099D0000C0C1818183060C00000000000000000D7
:1099E000000003040C1818103030303030303030A4
:1099F00030301018180C04030000000000000000B4
:109A000000000080F880808080808080808080805E
:109A1000808080808080C0F800000000000000008E
:109A20000000010101010101010101010101010128
:109A3000010101010101031F0000000000000000FE
:109A40000000E0100804040C0C000000000000807E
:109A5000C04020100804FCFC0000000000000000D2
:109A60000000071C18303030303018180C06030185
:109A70000000202020301F1F000000000000000018
:109A80000000E0180C0C0C0C00000000C0000000EE
:109A900000000C0C0C0C18E000000000000000009E
:109AA000000003060C18181818180C06030E1810DE
:109AB0003030303010180C030000000000000000AF
:109AC00000000000000080804020201010080C04DE
:109AD00002FE0000000000C00000000000000000C6
:109AE0000000060607070606060606060606060620
:109AF000063F06060606063F0000000000000000C4
:109B00000000F0F0080808080808C8281808000035
:109B100000000C0C040418E000000000000000002D
:109B200000003F3F000000000000070C181030301C
:109B30003030303018180C03000000000000000026
:109B40000000806030101808080CCC6C1C1C0C0C39
:109B50000C0C0C18183070C0000000000000000051
:109B600000000718181800000000070C181030300B
:109B70003030303010180C070000000000000000EA
:109B80000000F8F8080C04040000000000008080C9
:109B90008080C0C0C0C0C0C0000000000000000045
:109BA00000003F3F10080804040202020101000007
:109BB00000000000000000000000000000000000A5
:109BC0000000E030180C0C0C1C1C78F0E0180C0C99
:109BD00006060606060C18E0000000000000000063
:109BE0000000070C1830303030101804030F1E1C12
:109BF0003830303030180C03000000000000000046
:109C00000000E0180C0C0606060606060E0C18F0FE
:109C1000000000000C0C0CF0000000000000000030
:109C2000000003040818103030303030383436313A
:109C3000301818080C0603010000000000000000A6
:109C400000000000000000000080C0C08000000094
:109C50000000000080C0C080000000000000000084
:109C600000000000000000000001030301000000EC
:109C700000000000010303010000000000000000DC
:109C800000000000000000000000C0C0C000000094
:109C90000000000000C0C0C080C0C0000000000084
:109CA00000000000000000000000010101000000B1
:109CB00000000000000101010100000000000000A0
:109CC0000000000000000000804020100808102064
:109CD00040800000000000000000000000000000C4
:109CE0000000201008040201000000000000000035
:109CF0000000010204081020000000000000000025
:109D0000000000000000000000FE0000000000FE57
:109D10000000000000000000000000000000000043
:109D20000000000000000000007F00000000007F35
:109D30000000000000000000000000000000000023
:109D40000000040810204080000000000000000017
:109D50000000804020100804000000000000000007
:109D600000000000000000000102040810100804B8
:109D700002010000000000000000000000000000E0
:109D80000000C03018080C1C1C1C00000000000063
:109D90000000000080C0C080000000000000000043
:109DA0000000071830606060606030180E03010129
:109DB0000101000001030301000000000000000099
:109DC0000000C06030180C8C84C6C6666666666685
:109DD0006664CC0C081830C00000000000000000D1
:109DE0000000070810202B4D4C4C444444444626A8
:109DF00026170C402030180700000000000000006B
:109E00000000C0C0C0C0202020203010101010F86A
:109E1000080808040404061F0000000000000000F9
:109E20000000010101010303030302060606040FFB
:109E30000C0C0C181818387C000000000000000002
:109E40000000FE181818181818181818F8181818FC
:109E500018181818181818FE00000000000000005C
:109E60000000071C183030303030180C0718302034
:109E7000606060606030180F0000000000000000AB
:109E80000000C06010180C0C0C060606060606063C
:109E900006060C0C081830C000000000000000008E
:109EA0000000073830604040000000000000000063
:109EB00000004040201008070000000000000000E3
:109EC0000000FE181818181818181818181818185C
:109ED00018181818181818FE0000000000000000DC
:109EE0000000030E181030306060606060606060D9
:109EF0006020303018180603000000000000000049
:109F00000000FE181818181818181818F81818183B
:109F100018181818181818FE00000000000000009B
:109F200000003F30204040000008080C0F0C0808DB
:109F3000000000404020303F000000000000000012
:109F40000000FE181818181818181818F8181818FB
:109F5000181818181818187E0000000000000000DB
:109F600000003F38204040000008080C0F0C080893
:109F700008000000000000000000000000000000D9
:109F80000000C03010180C0C040606060606060673
:109F900006040C0C081830E000000000000000006F
:109FA0000000030C081810100000000000007E18CC
:109FB000181818181818040300000000000000000A
:109FC00000003F0C0C0C0C0C0C0C0C0CFC0C0C0CC6
:109FD0000C0C0C0C0C0C0C3F0000000000000000EE
:109FE0000000FC3030303030303030303F303030F6
:109FF00030303030303030FC000000000000000015
:10A000000000F880808080808080808080808080D8
:10A0100080808080808080F80000000000000000C8
:10A0200000001F0101010101010101010101010104
:10A03000010101010101011F0000000000000000FA
:10A040000000E00000000000000000000000000030
:10A0500000000000000000000E0E8EFC000000005A
:10A0600000007F0606060606060606060606060623
:10A0700006060606060606060603010000000000A6
:10A0800000007E1818181818189898D8B8B818181A
:10A09000181818181818187E00000000000000009A
:10A0A00000003E0C04060201010000000101030350
:10A0B00006060C0C0C18187C0000000000000000C4
:10A0C00000007E18181818181818181818181818DA
:10A0D00018181818181818FE0000000000000000DA
:10A0E0000000000000000000000000000000000070
:10A0F000000000404020303F000000000000000051
:10A1000000000F1C1C1C1C1C343434343464646484
:10A110006444C4C4C4C4848F000000000000000074
:10A120000000F03838383834343434323232323295
:10A1300031313131303030FC0000000000000000CF
:10A1400000000F1C1C34346464C4C48484040404FC
:10A15000040404040404041F0000000000000000C4
:10A160000000F82020202020202020212123232649
:10A17000262C2C3838303020000000000000000071
:10A180000000C03018080C0C060606060606060677
:10A1900006040C0C081830C000000000000000008D
:10A1A0000000030C18103030206060606060606058
:10A1B0006060303010180C03000000000000000048
:10A1C0000000FE18181818181818181818F8181879
:10A1D000181818181818187E000000000000000059
:10A1E00000000F1830606060606060301807000089
:10A1F000000000000000000000000000000000005F
:10A200000000C03018080C0C0606060606060606F6
:10A210000606E41C1C1830C000000000000000000E
:10A220000000030C18103030606060606060606097
:10A2300060602133361E0E074C3C380000000000E1
:10A240000000FE181818181818181818F8181818F8
:10A25000181818181818187E0000000000000000D8
:10A260000000071C183030303030180C070303068C
:10A2700006060C0C0C181878000000000000000006
:10A280000000F0180C060606060E3CF8E080000000
:10A2900000020206040C1CE40000000000000000A4
:10A2A0000000131E1818101000000000030F1E18E5
:10A2B0003830303030180C0700000000000000007B
:10A2C0000000FC8C848282808080808080808080FE
:10A2D00080808080808080E000000000000000001E
:10A2E00000003F2161414101010101010101010122
:10A2F0000101010101010107000000000000000050
:10A3000000003F0C0C0C0C0C0C0C0C0C0C0C0C0C72
:10A310000C0C0C0C0C1838E00000000000000000D1
:10A3200000007C10101010101010101010101010E1
:10A3300010101010100804030000000000000000BE
:10A3400000003E18181818303030303060606060FF
:10A35000C0C0C0C0808080800000000000000000FD
:10A3600000007830101010080808080404040402E3
:10A3700002020201010100000000000000000000D4
:10A380000000CF868684040C8C8C8C8C88485858AE
:10A39000583830303030101000000000000000004D
:10A3A0000000F36121212123232313131312161616
:10A3B0000E0E0E0E0C04040400000000000000004D
:10A3C00000003E181830306060C0C080808080403F
:10A3D000402020101018083E00000000000000007F
:10A3E00000007C10080804040202010101010303BB
:10A3F00006060E0C0C18387C00000000000000005F
:10A4000000007E1C18183030306060C0C0C08080F2
:10A4100080808080808080E00000000000000000DC
:10A4200000007C1010080808040404020201010165
:10A43000010101010101010700000000000000000E
:10A440000000F838180C0400000000008080C0C034
:10A4500060603018180C0CFE0000000000000000C6
:10A4600000007F303018180C0606030301010000BD
:10A47000000000406020383F00000000000000C0E5
:10A48000C0C0C0C0C0C0C0C0C0C0C0C0C0C0C0C0CC
:10A49000C0C0C0C0C0C0C0C0C0C000000000003FFD
:10A4A00000000000000000000000000000000000AC
:10A4B0000000000000000000003F0000000000005D
:10A4C000001818103020606040C0808080000000BC
:10A4D000000000000000000000000000000000007C
:10A4E0000000000000000000000000010101030264
:10A4F00006060C0C0C18183030306000000000FC10
:10A50000000000000000000000000000000000004B
:10A51000000000000000000000FC0000000000033C
:10A5200003030303030303030303030303030303FB
:10A530000303030303030303030300000000C0C07D
:10A54000601000000000000000000000000000009B
:10A5500000000000000000000000000000000307F1
:10A5600004080000000000000000000000000000DF
:10A5700000000000000000000000000000000000DB
:10A5800000000000000000000000000000000000CB
:10A590000000000000000000000000FF00000000BC
:10A5A00000000000000000000000000000000000AB
:10A5B0000000000000000000000000FF000078C064
:10A5C000000000000000000000000000000000008B
:10A5D000000000000000000000000000000000007B
:10A5E000010000000000000000000000000000006A
:10A5F000000000000000000000000000000000005B
:10A60000000000000000000000E0180C0C0C00E04E
:10A61000380C060606060CF80000000000000000DA
:10A62000000000000000000000070C1818181C1B98
:10A630001818181818989E710000000000000000FB
:10A6400000101E18181818181898583838181818A4
:10A6500018181818183838C800000000000000004A
:10A66000000000000000000000071C1830303030EF
:10A670003030303010180C070000000000000000DF
:10A68000000000000000000000C07030180C0C0C2E
:10A690000C0C0C0C181830C000000000000000006A
:10A6A0000000000000000000000708181818000053
:10A6B000000000202010080700000000000000003B
:10A6C000000000000000000000E03018180C0C0C26
:10A6D0000C0C0C0C081830E000000000000000001A
:10A6E00000101E1818181818181B1C1818181818FD
:10A6F00018181818181C7A09000000000000000043
:10A70000000000000000000000C03010180C0C0C0D
:10A71000FC0C0C0C181870C00000000000000000B9
:10A72000000000000000000000030C181030303062
:10A730003F0000002010180700000000000000008B
:10A740000000008080C0C0C0C0FCC0C0C0C0C0C08D
:10A75000C0C0C0C0C0C0C0F80000000000000000C1
:10A7600000003E6160600000001F0000000000006B
:10A77000000000000000000F0000000000000000CA
:10A78000000000000000000000C030101818181071
:10A7900030F01818F8F0180C0C0C18E0000000004D
:10A7A000000000000000000000776C18181818184E
:10A7B0000C070000031F383030301807000000007D
:10A7C00000101E1818181818189858381818181843
:10A7D000181818181818187E000000000000000053
:10A7E000000000000000000000070C1818181818DE
:10A7F000181818181818187E000000000000000033
:10A80000000080C08000000000F880808080808090
:10A8100080808080808080F80000000000000000C0
:10A82000000001030100000001010101010101011B
:10A83000010101010101011F0000000000000000F2
:10A84000000000000000000000C000000000000048
:10A850000000000000000000001818F000000000D8
:10A8600000001C1E0C000000080F0C0C0C0C0C0C43
:10A870000C0C0C0C0C0C0C0C0C0602010000000063
:10A8800000101E181818181818181818181898D822
:10A89000783818181818187E000000000000000012
:10A8A0000000000000000000003E0C040201010155
:10A8B0000303060C0C18387C0000000000000000A8
:10A8C0000000F88080808080808080808080808010
:10A8D00080808080808080F8000000000000000000
:10A8E0000001010101010101010101010101010159
:10A8F000010101010101011F000000000000000032
:10A90000000000000000000004F78E868686868620
:10A9100086868686868686CF0000000000000000BE
:10A920000000000000000000003C636161616161A3
:10A9300061616161616161F300000000000000007D
:10A94000000000000000000000905E381818181881
:10A95000181818181818187E0000000000000000D1
:10A96000000000000000000000070C18181818185C
:10A97000181818181818187E0000000000000000B1
:10A98000000000000000000000C0301018080C0C8F
:10A990000C0C0C0C181830C0000000000000000067
:10A9A000000000000000000000030C1818303030D8
:10A9B0003030303018180C03000000000000000098
:10A9C000000000000000000000905E381818181801
:10A9D00018181818183878981818187E00000000F1
:10A9E000000000000000000000070C18103030309C
:10A9F0003030303018180C07000000000000000054
:10AA0000000000000000000000C03018180C0C0C02
:10AA10000C0C0C0C081830E00000000000000000D6
:10AA2000000000000000000000131E1C1818181879
:10AA300018181818181C1E191818187E0000000085
:10AA4000000000000000000000607E60E0E0606048
:10AA500060606060606060FE000000000000000058
:10AA600000000000000000000038666101000000E6
:10AA700000000000000000070000000000000000CF
:10AA8000000000000000000000C06030303070E0C6
:10AA900080000008081838C800000000000000000E
:10AAA00000000000000000000027383020200003D4
:10AAB0000F1E38303030180F00000000000000007A
:10AAC00000000000808080C0E0FCC0C0C0C0C0C0EA
:10AAD000C0C0C0C0C0C08000000000000000000076
:10AAE0000000000000000000001F00000000000047
:10AAF000000000002020110F0000000000000000F6
:10AB00000000000000000000101E18181818181887
:10AB100018181818181830E0000000000000000095
:10AB20000000000000000000101E18181818181867
:10AB300018181818181C7A090000000000000000FE
:10AB40000000000000000000003E181818303020FF
:10AB50006060C0C0C0808080000000000000000075
:10AB60000000000000000000007C301018080804FD
:10AB700004040202030101000000000000000000C4
:10AB8000000000000000000000DF86848C8C8C88B0
:10AB9000585858703030302000000000000000008D
:10ABA000000000000000000000F3612121211313C8
:10ABB00013120E0E0E0C0404000000000000000032
:10ABC0000000000000000000007C307060C0C08009
:10ABD000808040202010183E00000000000000008F
:10ABE0000000000000000000003E0808040202010E
:10ABF000010306060C18187E00000000000000008B
:10AC00000000000000000000003E18181030206016
:10AC10006040C0808080808080407C3C00000000DC
:10AC20000000000000000000007C18080808040470
:10AC30000402020201010000000000000000000008
:10AC4000000000000000000000FC0C0C0404008068
:10AC5000C0C0607030180CFC000000000000000054
:10AC60000000000000000000001F1C0C060703018C
:10AC7000010000202030181F00000000000000002C
:10AC80000000000000000000000000008000000044
:10AC9000000000000000000000000000000030087C
:10ACA000040404040404040404040403010204046A
:10ACB0000404040404040404040830000000000038
:10ACC0000000000000000000000000000000000084
:10ACD0000000000000000000000000000101010170
:10ACE0000101010101010101010101010101010154
:10ACF0000101010101010101010101010000182010
:10AD00004040404040404040404040800080404003
:10AD100040404040404040404020180000000000BB
:10AD2000000000000000000000000001030000001F
:10AD30000000000000000000000000000078C48255
:10AD40000200000000000000000000000000000001
:10AD500000000000000000000000000000000041B2
:10AD600041271C000000000000000000000000005F
:10AD7000000000000000000000000000B2E2CAD4A1
:10AD8000D7D6CCE5000000103060C0C00000000C39
:10AD9000183830908080804040607E3830303030CD
:10ADA000303000800000000004FC0C0C0C4CCCCCBB
:10ADB000CDCDCDCCCC4C4C4C4C4C6C64A030101850
:10ADC0000C06010000000000000F0C0CCCCCCDCC18
:10ADD000CCCCCCCCCCCCCCCCCCCCC4C0C001020E26
:10ADE0000C8C0800000000081818181818191818FA
:10ADF00018181818181818181818181818181818D3
:10AE0000180F0E0400000000003060C0C0C0000039
:10AE1000000080FEC0C0C0C0C0C0C0C0C0C0C0C0B4
:10AE2000C0C0800000000000000000000000FC0026
:10AE300000000001F8808080808080908884C27B40
:10AE40001101000000000020E06060606060FF60B1
:10AE5000606060685F41C1C1C1818181310F0300C1
:10AE60000000000000000000030E0C0818103F0056
:10AE70000000000000000000000001012323262E36
:10AE80003C3830200000000000000020E02030307E
:10AE90001880000000000000FC000000000000001E
:10AEA0000000000000000060C0808000FF00000083
:10AEB00000FF000000808080FF8080808080808094
:10AEC00080FCE0400000000000010301FF000000E2
:10AED00040FFE0380C020101FF0101010101010105
:10AEE0000101010000000000000000081F0C060224
:10AEF00000000000000000183F00000000000000FB
:10AF000000000000000000000000008080C0C04081
:10AF1000E0E0D0D8C8C4C2C0C0C0C0C0C0C0C0C0BB
:10AF2000C0C0C04000000000070303010100FC0096
:10AF30000100008080C0C0602010180CE4020000F6
:10AF40000000000000000000381818181818FF3E14
:10AF50003E5B5B599998181818181818FF1818189C
:10AF600018181800000000000000000000183F0042
:10AF70000000000000000103060E1C3D1F00000041
:10AF800000000000000000000000000000000000C1
:10AF900000000000000000000000000000000000B1
:10AFA00000000000000000000000000000000000A1
:10AFB0000000000000000000000000000000000091
:10AFC0000000000000000000000000000000000081
:10AFD0000000000000000000000000000000000071
:10AFE0000000000000000000000000000000000061
:10AFF0000000000000000000000000000000000051
:10B000000000000000000000000000000000000040
:10B010000000000000000000000000000000000030
:10B020000000000000000000000000000000000020
:10B030000000000000000000000000000000000010
:10B04000000000000000000000000000181C1C1C94
:10B050001C1C1C1C1C1C18180808080808080808D8
:10B060000808080000000000001C3E3E3E1C0000D6
:10B0700000000000000000000000000000000000D0
:10B0800000000000000000000000000000000000C0
:10B0900000000000000000000000000000000000B0
:10B0A000000000000000000000008080C0C0E0E060
:10B0B00070301808000000000000000000000000D0
:10B0C0000000000000000000000000000000000080
:10B0D0000000000000000000060F8F8FC7C3E1E0F2
:10B0E00070301808000000000000000000000000A0
:10B0F0000000000000000000000000000000000050
:10B100000000000000000000060F0F0F0703010001
:10B11000000000000000000000000000000000002F
:10B12000000000000000000000000000000000001F
:10B13000000000000000000000000000008080808F
:10B140008080808080FCFCFCFCC0C0C0C0C0C0C04F
:10B150004040FCFCFCFC606060606060606000007F
:10B1600000000000000000000000000000010101DC
:10B170000000000000FFFFFFFF00000000000000D3
:10B180000000FFFFFFFF80808080808080800000C3
:10B19000000000000000000000000000000606069D
:10B1A00002020202023F3F3F3F0303030303030384
:10B1B00001013F3F3F3F0101010101010101000089
:10B1C000000000000000000000000000000080C03F
:10B1D000E06070707070F0E0E0C08000000000007F
:10B1E000000000007078787838303060C0000000CF
:10B1F00000000000000000000000181818FE9B1856
:10B2000018181818181818191B1F1F3F7EFCF8F87B
:10B21000D89818181818181818181818D87F181847
:10B2200018181800000000000000000000000307CC
:10B23000060E0E0F0F0700000000000000000103C3
:10B2400007070F0F0E0E0E0E0E060703010000007B
:10B2500000000000000000000000000000F0180CDA
:10B26000040606060606060606060C0C98F0000004
:10B27000000000000000008080804040602000004E
:10B2800000000000000000000000000000000103BA
:10B290000206068686C6464666263213111888CCF4
:10B2A000C444666262616161606040C08000000009
:10B2B0000000000000000000000000000004060282
:10B2C000030101010000000000000000000F193020
:10B2D000302060606060606060602030190F0000A6
:10B2E0000000000000000000000000000080C0E03E
:10B2F0006070707070707070F0E0E0E0E0D0D89C2A
:10B300008C8C0E0E0E0E0E0E1E1C3C78F0E0000013
:10B31000000000000000000000000000000F1C18EA
:10B32000383838383838181C0C0E0601E101030390
:10B3300007070F0F9E9CBCF870F0F0D88F03000039
:10B3400000000000000000000000000000000000FD
:10B350000000000000000000000000001F070303C1
:10B360000303010101010000004061233F0E0000C2
:10B37000000000000000000070F8F8F8F0C0C0C045
:10B380006070380C000000000000000000000000A9
:10B3900000000000000000000000000000000000AD
:10B3A0000000000000000000000001010101010098
:10B3B000000000000000000000000000000000008D
:10B3C000000000000000000000000000000000007D
:10B3D000000000000000000000000000000000006D
:10B3E000000000000000000000000000000000005D
:10B3F000000000000000000000000000000000004D
:10B40000000000000000000000000000000000003C
:10B41000000000000000000000000000000000002C
:10B42000000000000000000000000000000000001C
:10B430000000000000000000000000008080C060EC
:10B44000603030301818180C0C0C0C0C0C0C0C0C58
:10B450000C0C1818181030306060C080800000009C
:10B460000000000000000010080C060301000000AE
:10B4700000000000000000000000000000000000CC
:10B480000000000000000000000000000103060CA6
:10B490000810000000000008103060C080000000AC
:10B4A000000000000000000000000000000000009C
:10B4B00000000000000000000000000080C06030BC
:10B4C0001008000000000000000000000101030659
:10B4D000060C0C0C1818183030303030303030304A
:10B4E0003030181818080C0C060603010100000083
:10B4F000000000000000000000000000000000004C
:10B50000000000000000000000000000000000003B
:10B51000000000000000000000000000000000002B
:10B52000000000000000000000000000000000001B
:10B530000000000000000C3E7EFCF080000080F067
:10B54000FC7E3E0E00000000000000000000000035
:10B5500000000000000000000000000000000000EB
:10B56000001C1C1C1C1C1C1C0888C9EB1C1CEBC9E7
:10B5700088081C1C1C1C1C1C1C0000000000000077
:10B5800000000000000000000000000000000000BB
:10B590000000000000001C3E3F1F070000000007E5
:10B5A0001F3F3E38000000000000000000000000C7
:10B5B000000000000000000000000000000000008B
:10B5C000000000000000000000000000FCFC000083
:10B5D000000000000000000000000000000000006B
:10B5E000000000000000000000000000000000005B
:10B5F000001818181818181818181818FFFF181815
:10B600001818181818181818180000000000000062
:10B61000000000000000000000000000000000002A
:10B620000000000000000000000000003F3F00009C
:10B63000000000000000000000000000000000000A
:10B6400000000000000000000000000000000000FA
:10B6500000000000000000000000000000000000EA
:10B66000000000000000000070F8F8F8F0C0C0C052
:10B670006070380C000000000000000000000000B6
:10B6800000000000000000000000000000000000BA
:10B6900000000000000000000000010101010100A5
:10B6A000000000000000000000000000000000009A
:10B6B000000000000000000000000000000000008A
:10B6C000000000000000000000000000000000007A
:10B6D000000000000000000000000000000000006A
:10B6E000000000000000000000000000FCFC000062
:10B6F000000000000000000000000000000000004A
:10B700000000000000000000000000000000000039
:10B71000000000000000000000000000FFFF00002B
:10B720000000000000000000000000000000000019
:10B730000000000000000000000000000000000009
:10B740000000000000000000000000003F3F00007B
:10B7500000000000000000000000000000000000E9
:10B7600000000000000000000000000000000000D9
:10B7700000000000000000000000000000000000C9
:10B780000000000000000000F0F8F8F8F8F00000F9
:10B7900000000000000000000000000000000000A9
:10B7A0000000000000000000000000000000000099
:10B7B0000000000000000000000101010100000085
:10B7C0000000000000000000000000000000000079
:10B7D0000000000000000000000000000000000069
:10B7E0000000000000000000000000000000000059
:10B7F0000000000000000000000000000000000049
:10B800000000000000000000000000000000000038
:10B8100000000000000080804040602030101808C8
:10B820000C04000000000000000000000000000008
:10B8300000000000008080C0406020301018080C1C
:10B8400004060203010100000000000000000000E7
:10B8500000000000000000000020301018080C0458
:10B8600006020201010000000000000000000000CC
:10B8700000000000000000000000000000000000C8
:10B88000000000000000000000000000000080C078
:10B89000C0607030383838181C1C1C1C1C1C1C1C48
:10B8A0001C1C1C18383838307060C0C00000000004
:10B8B000000000000000000000000000007EC30146
:10B8C0000000000000000000000000000000000078
:10B8D000000000000000000000000001C37E000026
:10B8E0000000000000000000000000000000010354
:10B8F00007060E0C1C1C1C383838383838383838D5
:10B90000383838181C1C1C0C0E06070301000000F8
:10B910000000000000000000000000000000000027
:10B92000C000000000000000000000000000000057
:10B9300000000000000000000000000000C0000047
:10B94000000000000000000000000000002030386F
:10B950003F38383838383838383838383838383860
:10B960003838383838383838383838387CFF0000BC
:10B9700000000000000000000000000000000000C7
:10B9800000000000000000000000000000000000B7
:10B9900000000000000000000000000000070000A0
:10B9A00000000000000000000000000000008060B7
:10B9B000303038383878787000000000000000001F
:10B9C0000000000080C0E06030381CFCFCFC00007F
:10B9D00000000000000000000000000000FEC100A8
:10B9E00000000000000000000000000080C0E070C7
:10B9F000381C0E0703010000000000FFFFFF0000DD
:10BA0000000000000000000000000000000003072C
:10BA10000E0E1C1C1C1C1C1C0E0E07070301000034
:10BA2000000000000000101018080E0F0F0F00009B
:10BA30000000000000000000000000000000804046
:10BA40002030307070600000000000000000000036
:10BA5000000000000030787878383060C0000000C6
:10BA6000000000000000000000000000007EC18017
:10BA70000000000000000000000080E03EE08000C8
:10BA8000000000000000000000000000C07F000077
:10BA900000000000000000000000000000000103A2
:10BAA00007070E0E0E0E0E06070301000000030727
:10BAB0000E0C1C1C1C1C1C1C0C0E060301000000A0
:10BAC0000000000000000000000000000000000076
:10BAD0000000000000000000000080C04060203036
:10BAE00018180CFC0000000000000000000000001E
:10BAF0000000000000000000000000000080C0C046
:10BB0000E0F0D0C8C8C4C6C2C3C1C0C0C0C0C0C0B5
:10BB1000C0C0C0FFC0C0C0C0C0C0C0C0E0FE000008
:10BB20000000000000000000000000000001010112
:10BB300001010101010101010101010101010101F5
:10BB40000101013F0101010101010101033F000069
:10BB500000000000000000000000000000E0E0E045
:10BB60002020202020303030303030B0F0703000D5
:10BB7000000000003078787838303060C000000075
:10BB800000000000000000000000000000FFFFFFB8
:10BB9000000000000000000000FEFF810000000027
:10BBA000000000000000000000000000C17F000055
:10BBB000000000000000000000000000000F0F0F58
:10BBC000000000000000000000000107070E0E1E2C
:10BBD0001C1C1C1C1C1C1C0C0E0E0703010000006E
:10BBE00000000000000000000000000000000080D5
:10BBF000C060603030383818181C1C9CDC7C3C3C21
:10BC00001C1C1C1C1C1838383070E0C08000000060
:10BC100000000000000000000000000000F8070124
:10BC2000000000000000000000FCFF830000000096
:10BC300000000000000000000000000183FE000082
:10BC400000000000000000000000000000010206EB
:10BC50000E0E0E0000000000000003070E1C1C3832
:10BC600038383838383838181C1C0C0603000000E7
:10BC700000000000000000000000000000F0F0F0F4
:10BC800070301818080000000000000000000000DC
:10BC900000000000000000000000000000000000A4
:10BCA00000000000000000000000000000FFFFFF97
:10BCB00000000000008080C040606030301818181C
:10BCC0001C0C0E0E0E0E0F0F0F0F0F0F0F060000A5
:10BCD000000000000000000000000000001F1F0F17
:10BCE0000C0402030101000000000000000000003D
:10BCF0000000000000000000000000000000000044
:10BD00000000000000000000000000000000C0E093
:10BD10007070383838387878F0E0E08000C0E07033
:10BD20003038381C1C1C1C1C18383060C000000047
:10BD300000000000000000000000000000FE810084
:10BD40000000000000000000000387DF7FFDF0C05E
:10BD5000800000000000000000000000817F000063
:10BD600000000000000000000000000000000307C9
:10BD70000E0E1C1C1C1C1C0C0E07030100000307EC
:10BD8000070F0E1E1C1C1C1C0C0E060301000000DD
:10BD90000000000000000000000000000000C06083
:10BDA000703838181C1C1C1C1C1C1C3C383878F0C3
:10BDB000E080000000000000707070706080000083
:10BDC000000000000000000000000000003FC180F3
:10BDD000000000000000000000000000000080E102
:10BDE0007F1F0000000000000080C0E0701F000006
:10BDF0000000000000000000000000000000000142
:10BE00000306060E0C0C1C1C1C1C1C1E1F1D1D1CDE
:10BE10001C1C0E0E0E0E060703030100000000009E
:10BE20000000000000000000000000000000000012
:10BE30000000000000000000000000000000000002
:10BE400000000000000000000000000000000000F2
:10BE500000000000000000000000000000000000E2
:10BE6000000000000000001C3E3E3E1C00000000E0
:10BE70000000000000000000001C3E3E3E1C0000D0
:10BE800000000000000000000000000000000000B2
:10BE900000000000000000000000000000000000A2
:10BEA0000000000000000000000000000000000092
:10BEB0000000000000000000000000000000000082
:10BEC0000000000000000000000000000000000072
:10BED0000000000000000000000000000000000062
:10BEE0000000000000000000000000000000000052
:10BEF0000000000000000000003C3C3C3C00000052
:10BF0000000000000000000000003C3C3C3C3018F9
:10BF100018080C00000000000000000000000000F5
:10BF20000000000000000000000000000000000011
:10BF30000000000000000000000000000000000001
:10BF400000000000000000000000000000000000F1
:10BF500000000000000000000080C0603018306069
:10BF6000C080000000000000000000000000000091
:10BF700000000000000000000000000000000000C1
:10BF80000080C06030180C060301000000000000B3
:10BF9000000103060C183060C080000000000000A3
:10BFA00000000000000000000000000000081C0E5F
:10BFB0000703010000000000000000000000000076
:10BFC00000000000000000000103070E1C08000034
:10BFD0000000000000000000000000000000000061
:10BFE00000000000000000FCFC0000000000000059
:10BFF000FCFC000000000000000000000000000049
:10C000000000000000000000000000000000000030
:10C0100000000000000000FFFF0000000000000022
:10C02000FFFF000000000000000000000000000012
:10C030000000000000000000000000000000000000
:10C04000000000000000003F3F0000000000000072
:10C050003F3F000000000000000000000000000062
:10C060000000000000000000000000000010387018
:10C07000E0C08000000000000000000000000000A0
:10C08000000000000000000080C0E07038100000D8
:10C0900000000000000000000000000000000000A0
:10C0A000000103060C183060C08000000000000092
:10C0B0000080C06030180C06030100000000000082
:10C0C0000000000000000000000000000000000070
:10C0D0000000000000000000000103060C180C0620
:10C0E000030100000000000000000000000000004C
:10C0F0000000000000000000000000000000C0E0A0
:10C100003018080C0C3C7C7C78000000000000001B
:10C11000000000000000000000000000000000001F
:10C12000000000000000000000000000007FFFC0D1
:10C130008000000000000000000080C0E070381C9B
:10C140000C0C0C0C0C0C0000001C3E3E3E1C0000B5
:10C1500000000000000000000000000000000103DB
:10C16000070F0E1E1E1E1E1E1E0F0F0701000000D1
:10C1700000000000000000000000000000000000BF
:10C18000000000000000000000000000000000802F
:10C19000C0E06030303838181C1C1C1C1C1C1C1CD7
:10C1A0001C1C1C383838307070E0C0800000000063
:10C1B00000000000000000000000000000FC07017B
:10C1C000000000E03038181C0C0E0E0686878787AA
:10C1D0008787C7C7A6BE1C0000000107FFFC000040
:10C1E0000000000000000000000000000000030646
:10C1F000081830363767676363636363636361613D
:10C2000031313119190F076020301C0F0700000071
:10C21000000000000000000000000000000000001E
:10C220000000000000000080808080C0C0404060AE
:10C23000E0202030301010181818181C1C7F000047
:10C24000000000000000000000000000001C1C3E78
:10C250003E3E323373716161E1E0C0C0C0C0C08056
:10C26000FF8080000000000000000000008000004F
:10C2700000000000000000000000000000000000BE
:10C2800000000000000000000000000001010101AA
:10C2900003030303070707070E0E0E0E1E7F0000A1
:10C2A00000000000000000000000000000FE7070B0
:10C2B000707070707070707070707070F0707070FE
:10C2C00070707070707070707070707070FE0000C0
:10C2D00000000000000000000000000000FFC0009F
:10C2E0000000000000000000000000C07F8000008F
:10C2F00000000000000000000000000080FF0000BF
:10C300000000000000000000000000000000030723
:10C310000E1C1C1C1C1C1C1C0E0E07010003060E10
:10C320001C1C383838383838381C1C0E0300000004
:10C33000000000000000000000000000000000807D
:10C34000C0E06070303838181C1C1C1C1C1C1C1CE5
:10C350001C1C1C1C3838387070E0E0C00000000065
:10C3600000000000000000000000000000FC0701C9
:10C3700000000000000000000000000000000000BD
:10C38000000000000000000000000103FFFC0000AE
:10C3900000000000000000000000000000001F1C62
:10C3A00018181030200000000000000000000000FD
:10C3B0000000000020201010180C060701000000EB
:10C3C00000000000000000000000000000FEF0700F
:10C3D000707070707070707070707070707070705D
:10C3E00070707070707070707070707070FE00009F
:10C3F000000000000000000000000000001FE080BE
:10C40000000000000000000000000000000000002C
:10C410000000000000000000000080C0F01F0000CD
:10C42000000000000000000000000000000000010B
:10C4300003060E0C1C1C1C3838383838383838388D
:10C44000383838181C1C1C0C0E07030100000000B3
:10C4500000000000000000000000000000FE7070FE
:10C46000707070707070707070707070F07070704C
:10C4700070707070707070707070707070FE00000E
:10C4800000000000000000000000000000FF0000AD
:10C49000000000000000000000000080FFC08000DD
:10C4A00000000000000000000000000000FF00008D
:10C4B0000000000000000000000000000007070E60
:10C4C0000C08181000000001010101010101010127
:10C4D00001010000000020201010181C0F0F0000A8
:10C4E00000000000000000000000000000FE70706E
:10C4F000707070707070707070707070F0707070BC
:10C5000070707070707070707070707070FE00007D
:10C5100000000000000000000000000000FF00001C
:10C52000000000000000000000000000FF8000008C
:10C5300000000000000000000000000000030000F8
:10C54000000000000000000000000000001F1E3C72
:10C5500030206040000000020202020303030302D5
:10C5600002020000000000000000000000000000C7
:10C57000000000000000000000000000000080C07B
:10C5800060703038181C1C0C0C0E0E0E0E0E0E0EA9
:10C590000E0E0E1C1C1C1838383060E080000000A5
:10C5A000000000000000000000000000007EC3004A
:10C5B000000000000000000000000000000000C0BB
:10C5C000000000000000000000000000837E00006A
:10C5D0000000000000000000000000000004070749
:10C5E0000706040C0C080000000000000000007F9B
:10C5F0001F0E0E0E0E0E0E0E0E0E0E0F0100000080
:10C6000000000000000000000000000000FF3838BB
:10C61000383838383838383838383838F8383838DA
:10C6200038383838383838383838383838FF000033
:10C6300000000000000000000000000000C1000039
:10C64000000000000000000000000000FF000000EB
:10C6500000000000000000000000000000C1000019
:10C66000000000000000000000000000007F0E0E2F
:10C670000E0E0E0E0E0E0E0E0E0E0E0E0F0E0E0ED9
:10C680000E0E0E0E0E0E0E0E0E0E0E0E0E7F000075
:10C6900000000000000000000000000000E00000BA
:10C6A000000000000000000000000000000000008A
:10C6B00000000000000000000000000000E000009A
:10C6C00000000000000000000000000000FF3838FB
:10C6D00038383838383838383838383838383838DA
:10C6E00038383838383838383838383838FF000073
:10C6F000000000000000000000000000000F00002B
:10C700000000000000000000000000000000000029
:10C71000000000000000000000000000000F00000A
:10C720000000000000000000000000000000000009
:10C7300000000000000000000000000000000000F9
:10C740000000000000000000000000000000183C95
:10C750003C3C38E0000000000000000000FFC0C0CA
:10C76000C0C0C0C0C0C0C0C0C0C0C0C0C0C0C0C0C9
:10C77000C0C0C0C0C0C0C0C0C0C0C0C0C0C0C0E099
:10C78000603018070000000000000000007F010179
:10C790000101010101010101010101010101010189
:10C7A000010101010101010101010101010100007B
:10C7B00000000000000000000000000000FE70709B
:10C7C0007070707070707070707070707070F0F069
:10C7D00070707070707070707070707070FE0000AB
:10C7E00000000000000000000000000000C3000086
:10C7F000008080C060203010080C1C1E1F3938706B
:10C8000070E0E0C0C0C08080000000000083000035
:10C81000000000000000000000000000003F0F07C3
:10C820000301000000000000000000000000000004
:10C83000000000010101030307070E0E1E7F000028
:10C8400000000000000000000000000000FCE0E02C
:10C85000E0E0E0E0E0E0E0E0E0E0E0E0E0E0E0E0D8
:10C86000E0E0E0E0E0E0E0E0E0E0E0E0E0FC00006C
:10C8700000000000000000000000000000070000B1
:10C8800000000000000000000000000000000000A8
:10C8900000000000000000000000000000FF000099
:10C8A0000000000000000000000000000000000088
:10C8B0000000000000000000000000000000000078
:10C8C00000000000000020203010181C1E1F000077
:10C8D000000000000000000000000000003E3838AA
:10C8E0007878787878E8E8E8E8C8C8C8C8C8888858
:10C8F000888808080808080808080808083E000092
:10C900000000000000000000000000000000000027
:10C9100000000000008080808081C141414163238C
:10C920002323373717171F1E0E0E0E0C0C84000022
:10C93000000000000000000000000000007E1E1E3D
:10C940001E1D1D1D1D1D1C1C1C1C1C1C1C1C1C1C20
:10C950001C1C1C1C1C1C1C1C1C1C1C1C1C7F0000EC
:10C96000000000000000000000000000007E70F0E9
:10C97000F0F0D0D090901010101010101010101077
:10C9800010101010101010101010101010FE0000D9
:10C990000000000000000000000000000000000097
:10C9A00000010103030707070E0E1C1C38387070C6
:10C9B000E0E0C0C0C0808000000000000000000077
:10C9C000000000000000000000000000007F0808D8
:10C9D00008080808080808080808080808080808D7
:10C9E000080809090B0B0F0F0F0E0E0C0C080000A6
:10C9F00000000000000000000000000000000080B7
:10CA0000C0607030383838181C1C1C1C1C1C1C1CC6
:10CA10001C1C1C18383830307060C08000000000CA
:10CA2000000000000000000000000000007C830106
:10CA300000000000000000000000000000000000F6
:10CA4000000000000000000000000001837C0000E6
:10CA500000000000000000000000000000000102D3
:10CA6000060C1C1818383830707070707070707048
:10CA700070707030303838181C0C0603010000004C
:10CA800000000000000000000000000000FE7070C8
:10CA900070707070707070707070707070F0707016
:10CAA00070707070707070707070707070FE0000D8
:10CAB00000000000000000000000000000FF8000F7
:10CAC00000000000000000000000000080FF0000E7
:10CAD0000000000000000000000000000003000053
:10CAE0000000000000000000000000000000030E35
:10CAF0001C1C383838383838381C0C0E030000003D
:10CB00000000000000000000000000000000000025
:10CB1000000000000000000000000000000080C0D5
:10CB2000E0607030383818181C1C1C1C1C1C1C1CA5
:10CB30001C1C1C1C18B8B8F0F060E0C0800000009D
:10CB4000000000000000000000000000007EC300A4
:10CB500000000000000000000000000000000000D5
:10CB6000000000001F3F7170E0E0E0C0C3FEC08025
:10CB70008000000000000000000000000000010331
:10CB800006060C0C1C1C1838383838383838383839
:10CB90003838383818181C1C0C0606030101131FFE
:10CBA0000F070000000000000000000000FE707091
:10CBB000707070707070707070707070F0707070F5
:10CBC00070707070707070707070707070FE0000B7
:10CBD00000000000000000000000000000FFC00096
:10CBE0000000000000000000000000C0FF30707076
:10CBF000E0E0E0C0C0808080000000000003000092
:10CC0000000000000000000000000000000003071A
:10CC10000E1E1C1C1C1C1C1C0E0E0703000000001A
:10CC2000000000010103030307070F0E1E7C000034
:10CC30000000000000000000000000000000C070C4
:10CC400030381C1C1C1C1C3C78F8F0C08000000014
:10CC50000000000000040C0C08183878F8080000E8
:10CC6000000000000000000000000000007FC00085
:10CC700000000000000000000001071F7FFEF0E040
:10CC8000800000000000000000000000817E000025
:10CC90000000000000000000000000000000070786
:10CCA0000E0E0C0C0800000000000000000003073E
:10CCB0000F0F1E1C1C1C1C1C0C0E06070100000084
:10CCC00000000000000000000000000000F81C0C44
:10CCD0000C0406020000000000000000000000003C
:10CCE00000000000000000000000000000800000C4
:10CCF00000000000000000000000000000FF1C1CFD
:10CD00001C1C1C1C1C1C1C1C1C1C1C1C1C1C1C1C63
:10CD10001C1C1C1C1C1C1C1C1C1C1C1C1CFF0000A8
:10CD2000000000000000000000000000001F1C18B0
:10CD30001010302000000000000000000000000083
:10CD400000000000000000000000000000000000E3
:10CD500000000000000000000000000000FF383864
:10CD60003838383838383838383838383838383843
:10CD70003838383838383838383070E0C00000007B
:10CD800000000000000000000000000000010000A2
:10CD90000000000000000000000000000000000093
:10CDA000000000000000000000000000817F000083
:10CDB000000000000000000000000000007F0808E4
:10CDC00008080808080808080808080808080808E3
:10CDD00008080808080808080804060300000000FE
:10CDE00000000000000000000000000000FE78705D
:10CDF0007070F0E0E0E0E0C0C0C0C08080808000E3
:10CE00000000000000000000000000000000000022
:10CE10000000000000000000000000000001000011
:10CE200000000000000000010101010383838387EB
:10CE3000C747474F6E2E2E3E3C1C1C1C08080000A6
:10CE4000000000000000000000000000007F1C0C3B
:10CE50000C0C04040606020203010101010000009B
:10CE600000000000000000000000000000000000C2
:10CE7000000000000000000000000000007F1C1CFB
:10CE80001C1C1C18183838383838303070707070E6
:10CE9000606060E0E0E0E0C0C0C0C0C0C0800000F2
:10CEA000000000000000000000000000007E383894
:10CEB0003838383838387878787C7C7464E4E6E63A
:10CEC000E2E2C2C3C3C1C1C1C181808080800000D1
:10CED00000000000000000000000000000FC3030F6
:10CEE00030101010101818080808080C0404040466
:10CEF0000606020203030303010101010101000010
:10CF000000000000000000000000000000FC707045
:10CF1000E0E0C0C0808000000000000000000000D1
:10CF200000000000008080C04060603038FE0000DB
:10CF30000000000000000000000000000081000070
:10CF40000000018183C3C7476F2E3E1C1C383C7C08
:10CF50007676E3E3C1C1808080000000008000009D
:10CF6000000000000000000000000000003F0E066E
:10CF700006030301010000000000000000000000A3
:10CF8000000000000101030307070F0E1E7F0000D1
:10CF900000000000000000000000000000FE7870AB
:10CFA0007070E0E0E0C0C0C08080000000000000C1
:10CFB00000000000000000000000000000800000F1
:10CFC00000000000000000000000000000810000E0
:10CFD0000000000000818183C3434747272E3E1E87
:10CFE0001C1C1C1C1C1C1C1C1C1C1C1C1CFF0000D6
:10CFF000000000000000000000000000003F0E06DE
:10D000000602030101010000000000000000000012
:10D010000000000000000000000000000000000010
:10D0200000000000000000000000000000E0E0F050
:10D030003030180800000000000000000000000070
:10D040000000008080C0C0E0E0F0707838FC000094
:10D0500000000000000000000000000000FF0100D0
:10D060000000008080C0C0E0E0F07078383C1C1EFA
:10D070000E0F0707030301010000000000FF00007E
:10D08000000000000000000000000000003F1C1E27
:10D090000E0F07070303010100000000000000005D
:10D0A00000000000000000203010181C0F0F0000CE
:10D0B0000000000000000000000000000000000070
:10D0C0000000000000000000000000000000000060
:10D0D0000000000000000000000000000000000050
:10D0E0000000000000000000FEFE06060606060620
:10D0F00006060606060606060606060606060606D0
:10D1000006060606060606060606060606060606BF
:10D11000FEFE0000000000001F1F000000000000D5
:10D1200000000000000000000000000000000000FF
:10D1300000000000000000000000000000000000EF
:10D140001F1F000000000000000000303070606011
:10D15000C0C0C0808000000000000000000000008F
:10D1600000000000000000000000000000000000BF
:10D1700000000000000000000000000000000000AF
:10D180000000010101030306060E0C0C18183830CC
:10D19000306060C0C0C0808000000000000000005F
:10D1A000000000000000000000000000000000007F
:10D1B000000000000000000000000000000000006F
:10D1C000000000000000010103030706060C0C1814
:10D1D0001818300000000000F8F8000000000000FF
:10D1E000000000000000000000000000000000003F
:10D1F000000000000000000000000000000000002F
:10D20000F8F80000000000003F3F202020202020F0
:10D21000202020202020202020202020202020200E
:10D2200020202020202020202020202020202020FE
:10D230003F3F000000000000000000000000000070
:10D2400000000000000000000000000000000000DE
:10D2500000000000000000000000000000000000CE
:10D2600000000000000000000000008040000000FE
:10D2700000000000000000000000000000000000AE
:10D28000000000000000000000000000000000009E
:10D2900000000000000000007CEE8701000000009C
:10D2A000000000000000000000000000000000007E
:10D2B000000000000000000000000000000000006E
:10D2C0000000000000000000000001030400000056
:10D2D000000000000000000000000000000000004E
:10D2E000000000000000000000000000000000003E
:10D2F000000000000000000000000000000000002E
:10D30000000000000000000000000000000000001D
:10D31000000000000000000000000000000000000D
:10D3200000000000FF0000000000000000000000FE
:10D3300000000000000000000000000000000000ED
:10D3400000000000000000000000000000000000DD
:10D3500000000000FF0000000000000000000000CE
:10D3600000000000000000000000000000000000BD
:10D3700000000000000000000000000000000000AD
:10D3800000000000FF0000F0C000000000000000EE
:10D39000000000000000000000000000000000008D
:10D3A000000000000000000000000000000000007D
:10D3B0000000000000000003070F1C200000000018
:10D3C000000000000000000000000000000000005D
:10D3D000000000000000000000000000000000004D
:10D3E000000000000000000000000000000000003D
:10D3F000000000000000000000000000000000002D
:10D40000000000000000000000000000000000001C
:10D41000000000000000000000000000000000000C
:10D42000000000000000000000C03038383838002C
:10D430000000C07038381C1C1C1C1C3870C0000058
:10D4400000000000000000000000000000000000DC
:10D4500000000000000000007FC08000000000000D
:10D46000F00F010000000000000000C0701F00006D
:10D4700000000000000000000000000000000000AC
:10D480000000000000000000000103070707070775
:10D49000070707070707070707474747271E000033
:10D4A00000000000000000000000000040607E70EE
:10D4B0007070707070707070707070F0F0F07070EC
:10D4C00070707070707070707070F0F030100000DC
:10D4D000000000000000000000000000000000004C
:10D4E0000000000000000000F886030100000000BA
:10D4F000000000000000000000000000837C00002D
:10D50000000000000000000000000000000000001B
:10D5100000000000000000000003070E0E0C1C1CA1
:10D520001C1C1C1C1C1C1C0C0E0E06030100000005
:10D5300000000000000000000000000000000000EB
:10D5400000000000000000000000C0C0E070703863
:10D5500038383838383838307070E0C08000000013
:10D5600000000000000000000000000000000000BB
:10D570000000000000000000FC07010000000000A7
:10D5800000000000000000000000000103FE000099
:10D59000000000000000000000000000000000008B
:10D5A00000000000000000000003060E0E0E0E003A
:10D5B000000000000000001010080C06030000002E
:10D5C000000000000000000000000000000000005B
:10D5D00000000000000000000080C0E070707038A3
:10D5E0003838383838383830707060C08000000003
:10D5F0000000000000000000000000000000C0006B
:10D6000000000000000000003EC300000000000019
:10D61000000000000000000000000080413F00000A
:10D62000000000000000000000000000080C0F0EC9
:10D630000E0E0E0E0E0E0E0E0E0E0F0E0E0E0E0E09
:10D640000E0E0E0E0E0E0E0E0E0F0F0E7E060000AC
:10D6500000000000000000000000000000000000CA
:10D6600000000000000000000080C0E06070303862
:10D670003838F838383838307070E0C08000000032
:10D68000000000000000000000000000000000009A
:10D6900000000000000000007E8301000000000088
:10D6A0000000FF000000000000000001837E000079
:10D6B000000000000000000000000000000000006A
:10D6C0000000000000000000000103060E0C1C1CFE
:10D6D0001C1C1F00000000000804040201000000E0
:10D6E000000000000000000000000000000000003A
:10D6F0000000000000000000FC000000000000002E
:10D7000000000000000000000000000000F8000021
:10D710000000000000000000000000000000E038F1
:10D720000C0E070707070707FF0707070707070785
:10D7300007070707070707070707070707FF00008F
:10D7400000000000000000000000000000000F309A
:10D750007070700000000000070000000000000072
:10D7600000000000000000000000000000010000B8
:10D7700000000000000000000000000000000000A9
:10D7800000000000000000000080C0E070707070B9
:10D7900070E0C080E0707070F0E0C07030383838F1
:10D7A0003870E000000000000000000000000000F1
:10D7B00000000000000000007FC180800000000029
:10D7C000000080C17E0000000FFFFF80000000000D
:10D7D000000081FF000000000000000000000000C9
:10D7E0000000000000000000383F33030707070770
:10D7F000070303010000000000030F0F1E1C1C1C88
:10D800000C0E0300000000000000000040607E706D
:10D810007070707070707070707070F0F070707008
:10D8200070707070707070707070707070FE00004A
:10D8300000000000000000000000000000000000E8
:10D840000000000000000000F88603010000000056
:10D8500000000000000000000000000000C3000005
:10D8600000000000000000000000000000000000B8
:10D8700000000000000000000103070E0E0E0E0E57
:10D880000E0E0E0E0E0E0E0E0E0E0E0E0E7F000063
:10D890000000000000000000000000000000000088
:10D8A0000000000000000000E00000000000000098
:10D8B00000000000000000000000000000E0000088
:10D8C00000000000000000000000000000387C7C28
:10D8D0007C380000000000303F383838383838389D
:10D8E00038383838383838383838383838FF000061
:10D8F0000000000000000000000000000000000028
:10D900000000000000000000000000000000000017
:10D91000000000000000000000000000000F0000F8
:10D9200000000000000000000000000000000000F7
:10D9300000000000000000000000000000000000E7
:10D940000000000000000000000000000000007067
:10D950007070E0C000000000000000000000808047
:10D960008000000000000000F8000000000000003F
:10D9700000000000000000000000000000000000A7
:10D9800080C0601F000000000000000000070F0FB3
:10D990000F07000000000006070707070707070733
:10D9A000070707070707070707070707070707030B
:10D9B00003010000000000000000000040607E70D5
:10D9C0007070707070707070707070707070707057
:10D9D000707070F0F07070707070707070FE000099
:10D9E0000000000000000000000000000000000037
:10D9F0000000000000000000E080C0C06030180C93
:10DA00001C1E3B3970E0E0C0C080000000C3000075
:10DA10000000000000000000000000000000000006
:10DA200000000000000000000F01000000000000E6
:10DA30000000000000000001010307070F3F000085
:10DA40000000000000000000000000000000E000F6
:10DA500000000000000000000000000000000000C6
:10DA600000000000000000000000000000E00000D6
:10DA700000000000000000000000000020383F38D7
:10DA80003838383838383838383838383838383816
:10DA900038383838383838383838383838FF0000AF
:10DAA0000000000000000000000000000000000076
:10DAB0000000000000000000000000000000000066
:10DAC000000000000000000000000000000F000047
:10DAD0000000000000000000000000000000000046
:10DAE00000000000000000203EB878383838383890
:10DAF00038383838383838383838383838FE000050
:10DB00000000000000000000000000000000000015
:10DB100000000000000000001FBC7838383838389A
:10DB200038383838383838383838383838FE00001F
:10DB300000000000000000000000000000000000E5
:10DB400000000000000000000F1C3838383838385A
:10DB500038383838383838383838383838FE0000EF
:10DB600000000000000000000000000000000000B5
:10DB700000000000000000407E7070F0F0707070D7
:10DB800070707070707070707070707070FE0000E7
:10DB90000000000000000000000000000000000085
:10DBA0000000000000000000F886030100000000F3
:10DBB00000000000000000000000000000C30000A2
:10DBC0000000000000000000000000000000000055
:10DBD0000000000000000000010307060E0E0E0EFC
:10DBE0000E0E0E0E0E0E0E0E0E0E0E0E0E7F000000
:10DBF0000000000000000000000000000000000025
:10DC000000000000000000000080C060703838187C
:10DC10001C1C1C1C1C1C1C38383060E080000000E0
:10DC200000000000000000000000000000000000F4
:10DC300000000000000000007EC3000000000000A3
:10DC4000000000000000000000000000837E0000D3
:10DC500000000000000000000000000000000000C4
:10DC60000000000000000000000103060C1C1C184E
:10DC7000383838383838381C1C0C060301000000CE
:10DC80000000000000000000000000000000000094
:10DC90000000000000000000407E70F0F070707026
:10DCA00070707070707070707070F0F07070707074
:10DCB000707070FE00000000000000000000000016
:10DCC0000000000000000000F80601000000000055
:10DCD00000000000000000000000000183FC0000C4
:10DCE0000000000300000000000000000000000031
:10DCF00000000000000000000003060C1C1C383867
:10DD0000383838383838381C1C1C0E07030000001F
:10DD10000000000000000000000000000000000003
:10DD200000000000000000000080E0703038381C67
:10DD30001C1C1C1C1C1C1C1838383060C000000047
:10DD400000000000000000000000000000000000D3
:10DD500000000000000000003FC180000000000043
:10DD6000000000000000000000000080C13F000033
:10DD7000000000C0000000000000000000000000E3
:10DD80000000000000000000080C0F0F0E0E0E0E29
:10DD90000E0E0E0E0E0E0E0E0E0E0F0F0E0E0E0EA1
:10DDA0000E0E0E7F000000000000000000000000CA
:10DDB0000000000000000000FC80808080808080E7
:10DDC00080808080808080808080808080FC0000D7
:10DDD0000000000000000000000000000000000043
:10DDE000000000000000000303C363131B0F0707BC
:10DDF00003030303030303030303030303FF0000FD
:10DE00000000000000000000000000000000000012
:10DE100000000000000000000F3838383800000013
:10DE200000000000000000000000000000000000F2
:10DE300000000000000000000000000000000000E2
:10DE400000000000000000000080C0E0E0E0E0E032
:10DE5000C08000000000001010303070F0000000A2
:10DE600000000000000000000000000000000000B2
:10DE700000000000000000007E830100000000019F
:10DE8000071FFFFCE08000000000000081FE000092
:10DE90000000000000000000000000000000000082
:10DEA0000000000000000000000307060604000058
:10DEB0000000000107070F0E0E0E0607030000000A
:10DEC0000000000000000000000000000000000052
:10DED0000000000000000080F800000000000000CA
:10DEE0000000000000000000000000000000000032
:10DEF0000000000000000000000000000000000022
:10DF000000080C0C0C0C0E0FFF0E0E0E0E0E0E0E5B
:10DF10000E0E0E0E0E0E0E0E0E0E0E1C18F0000043
:10DF200000000000000000000000000000000000F1
:10DF300000000000000000000700000000000000DA
:10DF400000000000000000000808040402010000B6
:10DF500000000000000000000000000000000000C1
:10DF600000000000000000407E70707070707070E3
:10DF70007070707070707070707060E0C0800000C1
:10DF80000000000000000000000000000000000091
:10DF90000000000000000000C000000000000000C1
:10DFA000000000000000000000000080413F000071
:10DFB0000000000000000000000000000000000061
:10DFC00000000000000000080F0E0E0E0E0E0E0ED8
:10DFD0000E0E0E0E0E0E0E0E0E0F0F0E7E06000013
:10DFE0000000000000000000000000000000000031
:10DFF0000000000000000000FCF0E0E0C0C0C080B5
:10E000008080000000000000000000000000000010
:10E010000000000000000000000000000000000000
:10E02000000000000000000083000000000101016A
:10E0300003838387C747466E2E3C3C1C181800009C
:10E0400000000000000000000000000000000000D0
:10E0500000000000000000003F0E0606020203015F
:10E0600001010000000000000000000000000000AE
:10E0700000000000000000000000000000000000A0
:10E0800000000000000000007F1C1C181838383801
:10E090003070707060E0E0E0C0C0C0C08080000000
:10E0A0000000000000000000000000000000000070
:10E0B00000000000000000007E3C18183838383C92
:10E0C0007474646662E2E3C3C1C1C18181800000EF
:10E0D0000000000000000000000000000000000040
:10E0E0000000000000000000FC30101018180808A4
:10E0F0000C0C0404040602020203010101010000E9
:10E10000000000000000000000000000000000000F
:10E110000000000000000000F8E0C0808000000067
:10E1200000000000000000000080C0C0E0FC000013
:10E1300000000000000000000000000000000000DF
:10E140000000000000000000C701010383C74E6EFD
:10E150003C3C38387CE6E6C3C181000000C10000C9
:10E1600000000000000000000000000000000000AF
:10E1700000000000000000001F0703010100000074
:10E180000000000000000001010303070F3F000032
:10E19000000000000000000000000000000000007F
:10E1A0000000000000000000FCF0E0E0C0C0C08003
:10E1B000808000000000000000000000000000005F
:10E1C0003078F8F0000000000000000000000000BF
:10E1D0000000000000000000C300000000010181F9
:10E1E0008383C34746662E2C3C1C181808080C0471
:10E1F0000602030000000000000000000000000014
:10E2000000000000000000003F07060203010101BA
:10E2100000000000000000000000000000000000FE
:10E2200000000000000000000000000000000000EE
:10E230000000000000000000F0703818180800000E
:10E240000000000000008080C0E0E07078F800006E
:10E2500000000000000000000000000000000000BE
:10E260000000000000000000FF000080C0C0E0F0DF
:10E2700070381C1E0E0707030101000000FF00009C
:10E28000000000000000000000000000000000008E
:10E2900000000000000000000F0F07030301000052
:10E2A000000000000000001018180C0C0F0F0000F8
:10E2B000000000000000000000000000000000005E
:10E2C000000000000000000000000000000000004E
:10E2D000000000000000000000000000000000003E
:10E2E0000000000000000000000080C0C0C0C0C0EE
:10E2F000C0C0C0C0C0C0C0C0C0C060300C3060C0B2
:10E30000C0C0C0C0C0C0C0C0C0C0C0C0C0C080808D
:10E3100000000000000000001C03010000000000DD
:10E3200000000000000000000000000000000000ED
:10E3300000000000000000000000000000000101DB
:10E34000031C0000000000000000000000000000AE
:10E3500000000000000000000000000000000000BD
:10E3600000000000000000000000000000000000AD
:10E370000000000000181818181818181818181895
:10E38000181818181818181818181818181818180D
:10E3900018181818181818181818181818181818FD
:10E3A00018181818180000000000000000000000F5
:10E3B000000000000000000000000000000000005D
:10E3C000000000000000000000000000000000004D
:10E3D000000000000000000038C0800000000000C5
:10E3E000000000000000000000000000000000002D
:10E3F000000000000000000000000000000000809D
:10E40000C038000000000000000001030303030304
:10E4100003030303030303030303060C300C060387
:10E4200003030303030303030303030303030101C0
:10E4300000000000000000000000000000000000DC
:10E4400000000000000000000000000000000000CC
:10E4500000000000000000000000000000000000BC
:10E460000000000000C0F0100808040400000000D4
:10E47000000000000000000000000000000000009C
:10E48000000000000000000000000000000000008C
:10E49000000000000003070E1C3870E0C080000080
:10E4A000000000000000000000000000000000006C
:10E4B000000000000000000000000000000000005C
:10E4C0000000000000000040402020111F07000055
:10E4D000000000000000000000000000000000003C
:10E4E000000000000000000000000000000000002C
:10E4F0000000000000B2E2CAD4D7D6CCE50000008C
:10E500000040C0800000000000000000183070E0F3
:10E51000E0C0C00000000000000000000084F8E03F
:10E52000C08080C0C0C0C0E0C0000000000000008B
:10E5300000000083878F8E8E8480808080A0A090D2
:10E540009090908888888C84848686838383838156
:10E550000101010101010181C13118040000000025
:10E5600000000001FF010101010121E1E1616161A0
:10E5700061616161616161616161617171313130FC
:10E5800038981C0C0E07030100000000000000007A
:10E59000000000183F3818181818181818181818FC
:10E5A000181818181818181818181818181800001B
:10E5B000000103061C1C3838303000000000000049
:10E5C00000000000000000000C3C1C0C0C0C0C0CAB
:10E5D0000C0C0C0C0C0C0C0C0C0C0C0C0C0C0C0C7B
:10E5E0000C0000000000000EF8E0C08000000000F9
:10E5F00000010707070707070707070707070707B8
:10E60000070707070707070707070707070707079A
:10E6100007070707070707070703030000000000B5
:10E6200000000080800000000000000000000000EA
:10E63000000000FC080000000000000000000000D6
:10E6400000000000000000000000000000000000CA
:10E65000000000000103070F0E0E0E0E0400000064
:10E6600000041E1F0E0E0E0E0E0E0E0E0E0E0E0EC1
:10E670000E8ECECE6E7E3E1E1C08000000000000F6
:10E68000000000000000000000000000FF0000008B
:10E690000000000000FE8080808080808080848276
:10E6A00083818180F0FF1E0C040000000000000048
:10E6B000808080808080808080808080FF0000005B
:10E6C0000000003078FF0303030303030303030385
:10E6D00003C33B0F03000000000000000000000027
:10E6E000001367C3C383030303030303FF0303038D
:10E6F0000303030707070706060E0E0C0C1C1C3845
:10E70000387170E0E0C0C080000000000000000030
:10E71000000000010307070703000C1E3F00000074
:10E7200000000000000000000000000000000010D9
:10E730001010101019191B1F1F1E183000000000A8
:10E7400000000000000000008080C0C0E0E0000089
:10E7500000000000000000000000F80000000000C1
:10E7600000000000000000000000000000000000A9
:10E7700000000000000101FF010101010100F8009B
:10E7800000000000000000000000FF00000000008A
:10E7900000000000000000800000000000000010E9
:10E7A00060C0C080800000FF000000000000FF008B
:10E7B00000000000008080808080FF80808080805A
:10E7C00080808080808080C7FEF8F06000000000BC
:10E7D00000010303030301FF000000000000FF80AD
:10E7E000C0E070380C0603070303FF0303030303B1
:10E7F00003030303030303030101000000000000FF
:10E8000000000000000080FF80C0C06026070F1FCE
:10E8100003010000000000000080FF000000000075
:10E8200000000000000000000000000000000000E8
:10E83000000000000003070F0701000000000000B7
:10E840000000000000000000060F1F000000000094
:10E8500000000000000000000000000000000000B8
:10E860000000000000000000000000000000008028
:10E8700080C060603010080400000000000000004C
:10E880000000000000000000000000000000000088
:10E890002060F070703838181C0C0E0606071F1F19
:10E8A0000D0C0C0C0C0C0C0C0C0C0C0C0C0C0C8C27
:10E8B000CC2C0C0C0C0C0C0C0C0C0C0000000000F4
:10E8C0000000010000000000000000FF0000000048
:10E8D00000008080C0C0E0703038180C06060301CC
:10E8E000F000000000000000000000000000000038
:10E8F0001070F07070707070707070FF7C7E7E773A
:10E9000077737371717070707070707070707070F8
:10E91000FF70707070707070707070100000000088
:10E920000000000000000000000000FF01010103E2
:10E93000020606040C1818387070E0C0C080B07869
:10E94000FF000000000000000000000000000000C8
:10E95000000000000000000000060F1F0000000083
:10E9600000000000000000000000000103071F3F3E
:10E970000600000000000000000000000000C2FAD5
:10E98000B2D9B6EEBBD6B2C9BCAFD6C6D5E6BCD9F5
:10E99000B5BDB7E2D2BBB6FECBD9C7B0BDF8B5E3C3
:10E9A000BAF3CDCBBFAAC9CFB7A7C3C5B9FDC6DAE5
:10E9B000D0E8D2AABCA4BBEECEB4D2D1BFC9D3C3D7
:10E9C000B4CED7A2B2E1D4ADD0C2D4D9D4B1B0B212
:10E9D000C8ABB9DCC0EDD0DEB8C4C3DCC2EBD0C577
:10E9E000CFA2B4EDCEF3BEAFB8E6A3A1C9E8D6C3BB
:10E9F000B7B5BBD8B8B4CEBBB1E4C6B5C6F7B5E7BA
:10EA0000C1BFC6F4B6AFCDA3D6B9B9A4D7F7B9DEA6
:10EA1000D6D8B1BEB5D8D4B6B3CCC7E5C1E3CEBB6A
:10EA2000D6C3B1EAB6A8C7EBCAE4C8EBB9CAD5CF1A
:10EA3000BCECB2E2B4ABB8D0D7B4CCACB3F6D4CB68
:10EA4000D0D0B2CECAFDC1C1B6C8CBAFC3DFB1A36F
:10EA5000B4E6B9D8D3DAC9E8B1B8B9ABCBBECFB553
:10EA6000CDB3BBB0B9CAD5CFD6B7D6D0BFD8B3B562
:10EA7000B5CD0010FD1200FCA1FEA4A456050401B2
:10EA80000701000700070404050406E424E40F74EA
:10EA9000547C87F4C4A4960302030007050700070B
:10EAA000010204C83FA5DE534C52615E129E52071C
:10EAB00001000704050505050102042424F42D25A1
:10EAC00025555414944C240000070001050301014E
:10EAD000020204C03E10220420FF70A82423200359
:10EAE000000002010007000001060048FC46FD444A
:10EAF000FC44FC20FF242300070003000300070060
:10EB0000070106080ABE89FF88BEAAAA2A3A080495
:10EB1000040404040404040404040720FE20FC0488
:10EB2000FC04FC04FF880400030001010101010151
:10EB300007000104BC2A2ABB0ABA8ABA0A8A4A0018
:10EB40000704040700070404030204007F04227F73
:10EB500048087F080878070404050505050505052C
:10EB600004040608083EC8083F4088BE08388702EB
:10EB70000202070202020202020203000000000079
:10EB800000FF00000000000000000000000700007F
:10EB90000000000000FE00000000000000FF000078
:10EBA000000300000000000000070041FA40F84B9D
:10EBB0004AFAE2524A42FD00070003020203000142
:10EBC0000200070488FF003EA2BEA2BEA2223201BC
:10EBD00000070002020202020202032224F02027A0
:10EBE00024FC2424140AF10101030101010701019D
:10EBF00001000720E02020FE020202FE004A9100F0
:10EC00000700000302020203000204807C0404FCEB
:10EC10000404F41412F211030000000700000704BA
:10EC2000040704F214F010F754945434140AF10356
:10EC3000020302030402010202000700FE88888822
:10EC400088FF888884848200030000000007000099
:10EC500000000010101010F0101010101010FF0025
:10EC60000000000300000000000007F902A825E7EB
:10EC70003DA5A545A51501070404040504040405E4
:10EC8000050506F204000202020202020202020765
:10EC90000404040404040404040407020400F00748
:10ECA00024444404840AF10202020702020202021E
:10ECB0000300071292BF929E929E92BF80926100C3
:10ECC0000704040704040704040406FE20FFAD2023
:10ECD000AE00FF20FE5252030007050003000700AC
:10ECE00003020300FF50FE52FE10FF088C708F00DD
:10ECF00007000302030007010000031039AAB868E7
:10ED0000B992BC083AA9740101000702020202018B
:10ED100001020480794240FC4142F80C0AF90803E0
:10ED200000000007000003020203022020FE202052
:10ED3000FF70A8242320200000030000070000012A
:10ED400006000000FE00000202FE02020202FC00B9
:10ED5000030202020203000004040700FF00007E19
:10ED60004242427E020080000702020202020202C8
:10ED700002020300FE2222FE2222FE222222810023
:10ED800003020203020203020202032021E21050E6
:10ED90004840A4A21108040000070402000000007B
:10EDA000010204204102F8404142F8404241FC0087
:10EDB000000003000000030000000700DE52525272
:10EDC00052FF52525252390003020202020702025B
:10EDD00002020300FE22FA0AFA0AFA42524A6500C7
:10EDE000070003020302030001020408BE80A2948C
:10EDF000BF88BE88AA492C04030000070202020251
:10EE0000020202FF20FE2222FE2222FF02028207CD
:10EE10000003020203020207020203FC04FC00FEDC
:10EE200002222222D00C030101010003020202028D
:10EE30000003041020FF1110FF08049C60980700D5
:10EE400000070400070101000001022050880403AC
:10EE5000FC2020FE2020FF0000000106010000032E
:10EE600000000742DE29FF01FC04FC04FC04FC0056
:10EE70000701070401010100030203F09792F292D7
:10EE800097F282F28683F807040407040407000758
:10EE900000000744C422CA3B0A8A6A8A6A02F20056
:10EEA0000302010601000201040300404F48C82884
:10EEB0005F41418945231100000007020202010061
:10EEC00001020420FF11A04A2AF10C202222FE0098
:10EED0000704000205050000020203F00F242422AB
:10EEE000EE0B0AFA0E0A00030202020207040405EE
:10EEF0000404034484FA02F302F202F212F2120052
:10EF0000000700030003000302030210FE02FE02DA
:10EF1000FE02FE204A0AF10003020302030203007C
:10EF20000205054242EE41F702E22FE22AE6220202
:10EF30000207020700070407040704F11210F00398
:10EF4000FA42FE42A6120801010101000300070077
:10EF500000010692BF52BE2BAE50FF00FE04FC0023
:10EF600007020201020407000301012024FC222001
:10EF7000FF00FE0202FE0200000300000700030281
:10EF8000020302000C0C0C0C0C00000C0C00000026
:10EF90000000000000000000000000E22420201714
:10EFA00004F424448C4430010101010600030201F1
:10EFB000000106FE52FE20FF20FC04042424FF036F
:10EFC0000203000700010101010107817A08F80B23
:10EFD0002A4A8A4A2605F8030000030202010001BA
:10EFE00002000300FF0101794949790101FF010095
:10EFF0000302020202020202020302FC02FD04FCFE
:10F0000004FC08FC0AF00E070003020302030003DD
:10F01000010007448402FA03121222222282FA001B
:10F02000000007000202020101000720FF888A8910
:10F0300000FE0488708C0300070002040001010038
:10F04000000106C83A8ACA7F484A6A5108844307C1
:10F050000100070405050505010204DE52DE20203B
:10F06000FF508C03DE52DE0302030102070001069B
:10F070000302031010FF1111FF1111FF1110E00026
:10F080000001010101010101040407FE2242FF22E7
:10F09000FE22FE20FE20FF030202070203020300FD
:10F0A0000300072040FC0404FC04FC0C0AFA0900DD
:10F0B0000007040407000704040704808E80C09F33
:10F0C00084828A915F402000000007040404040445
:10F0D00004040388F804E426E504F414E484C4007A
:10F0E000070003020300070403000040404044C43B
:10F0F000444444444444FF00000000030000000076
:10F1000000000700F8808080808080808080FC0084
:10F110000F0000000000000000001FA0A090501889
:10F120001410101010101000001F01010F01011F1A
:10F1300001010122F22E755474AFF42DE52DE30286
:10F140000702070507000701070107C03E20FF224D
:10F15000FE22FE20FE20FF03000007020302030040
:10F160000300072020FF2070A8A82422FD202000F3
:10F1700000070000000001020500008484A4A4EF41
:10F18000B4A4A4A42C23C0000006050404040600B3
:10F1900004040704C80000E08C8888482808F400AC
:10F1A0000F00001F0404041418001FA09C90903C42
:10F1B000903858941010D00F08080F000F02020F5B
:10F1C00002021F40FD42F840FD0AF808FA09080053
:10F1D0000700030007020302030203FE20FFAD2025
:10F1E000AE50ACFB4038C003000705000300010629
:10F1F000000000101008E80C484888888808E801DA
:10F2000002001F000808080404021FF848F880FCE8
:10F2100080F010109090FC0F090F001F00070404ED
:10F2200004041F1090103CD0183894905010100017
:10F230000F00001F02020A121202034080FC0400A9
:10F24000FC80909090A8C400001F10001F00000FC9
:10F2500000001F41FA40F043FA12F212F2161200B7
:10F26000070003000702030203020384442FD205B0
:10F270007F547C57745454000102050004050505B1
:10F280000504060C1020205050508888040201000C
:10F290000000000000000000010204444444DF2498
:10F2A000445F5151915F31000000070202020201E8
:10F2B00000010680EF49F925E529E989F7818100F8
:10F2C00003010702030203000700008484442F1493
:10F2D000E60E4594A424F400000102040300020297
:10F2E000020107007D4654545556545412294404D3
:10F2F00004050505050505050404068888F444464B
:10F30000FD24E404648404000003000007000302F9
:10F3100001010280FE82BA823A2ABA412A4AF102E7
:10F32000070002020105060402050584848586F4AF
:10F33000844446452424140002040007000101010E
:10F340000202042020FF50882443204A4A09F0008A
:10F35000000700000106000204050120222222FE0F
:10F360002020212121FF00000202020300000404EA
:10F3700004070402E40000F7844424F4040AF100C2
:10F38000030000070000020704000708E40209F474
:10F39000060504040404C400030000070101010180
:10F3A0000101010804FE10FF44328D601EC03E00C2
:10F3B000010300070102040002010088AA88BF4C73
:10F3C0009AA9849F128C53000000070202020202D5
:10F3D00001020420FF00FC04FC00FF01FC84030088
:10F3E000070001010100070400040740FE12FE129D
:10F3F000F202FA1222C239000701070101000302DA
:10F4000001000700E785F5A7A5FDA7A5F587E5039A
:10F410000000070202070202070003EF2929EF2973
:10F4200029EF29292F692007040407010107010199
:10F4300005060408E82424E685F484C4A494840022
:10F4400003020203000700010204001010FF08E499
:10F450000486F5848484C4000007000301000700CB
:10F46000000000048800FE2020FF205088040301D3
:10F470000000030000070000000106FE20202020FD
:10F48000FF2020202020380300000000070000009B
:10F49000000000E22420201704F424448C443001AE
:10F4A000010101060003020100010608FC8A708CBC
:10F4B00003FC24FC24FC04000100000106010101FE
:10F4C00001010188888804242211108804FE0000AC
:10F4D000000001010204000001030200FE00FF0021
:10F4E0007E4242427E02C000030202020202020287
:10F4F000020201C03E1008FC6018FE2024223103E5
:10F5000000000100000207040102048404E28947AC
:10F5100024E24F404C2310000107000204070501BC
:10F5200001050602F48080FB8282F21A16F21007AF
:10F530000000000700000704040704444444DF24DB
:10F54000445F5151915F3100000007020202020145
:10F5500000010680EF49F925E529E989F781810055
:10F560000301070203020300070000040404242F20
:10F57000242424242C23F0010101010701010101AD
:10F58000010107202020FE222222FE22202020002E
:10F5900000000302020203020000004282F217424E
:10F5A0002216E3828282F3000007040102040300B2
:10F5B0000000071010FF082422FE2020FF2020005A
:10F5C000000700000003000007000008F89494966C
:10F5D000F59494543454840300000000070000059F
:10F5E000050604303132333435363738392E2D2B79
:10F5F0000000000058FE0008D4F7000801000000D9
:10F6000001000000A9FB0008A20500200B0000007B
:10F610000000000095FB0008A30500200B0000007F
:10F6200000000000BDFB0008A40500200B00000046
:10F63000000000004CFE0008093C00080200000029
:10F6400000000000000000000000000000000000BA
:10F6500000000000000000000000000000000000AA
:10F660000000000058FE0008D4F700080100000068
:10F6700001000000CFFB0008A00500200B000000E7
:10F6800000000000E2FB0008A10500200B000000C4
:10F690000000000040FE0008093C000802000000D5
:10F6A000000000000000000000000000000000005A
:10F6B000000000000000000000000000000000004A
:10F6C000000000000000000000000000000000003A
:10F6D0000000000058FE0008D4F7000801000000F8
:10F6E000010000008AFE0008B110000802000000BE
:10F6F0000000000008FE0008991100080200000048
:10F70000000000007EFE00085D10000802000000FE
:10F7100000000000FCFD00083D1100080200000090
:10F720000000000060FE0008ED100008020000006C
:10F730000000000048FC0008F11100080200000071
:10F740000000000057FC0008291300080200000018
:10F75000000000009AFC0008D4050020080000000A
:10F760000000000079FC0008D80500200800000017
:10F770000000000000000000000000000000000089
:10F780000000000058FE0008D4F700080100000047
:10F7900001000000A2FE0008A90F000802000000FE
:10F7A0000000000096FE000851130008020000004F
:10F7B0000000000000000000000000000000000049
:10F7C0000000000000000000000000000000000039
:10F7D0000000000058FE000894FA00080100000034
:10F7E0000000000034FE000864F60008010000007C
:10F7F0000200000028FE0008D4F600080100000006
:10F8000002000000AEFE000884F7000801000000BE
:10F8100002000000000000000000000000000000E6
:10F8200000000000000000000000000000000000D8
:10F8300000000000000000000000000000000000C8
:10F840000000000058FE000894FA000801000000C3
:10F8500000000000E2FD0008E005002009000000B3
:10F8600000000000EFFD0008DC050020090000009A
:10F8700000000000D5FD0008CC05002009000000B4
:10F880000000000038FC0008D20500200A0000003B
:10F8900000000000F4FB0008E40500200A0000005E
:10F8A0000000000005FC0008E60500200A0000003A
:10F8B0000000000016FC0008E80500200A00000017
:10F8C0000000000027FC0008EA0500200A000000F4
:10F8D0000000000000000000000000000000000028
:10F8E0000000000058FE000894FA00080100000023
:10F8F00000000000E2FC0008CC0500201100000020
:10F9000002000000FEFC0008CC05002011000000F1
:10F91000040000000EFD0008CC05002011000000CE
:10F92000080000001EFD0008CC05002011000000AA
:10F930001000000073FD0008CC050020110000003D
:10F9400020000000D6FC0008CC05002011000000BB
:10F9500000200000F2FC0008CC050020110000008F
:10F960000040000098FD0008CC05002011000000B8
:10F9700080000000A3FD0008CC050020110000005D
:10F98000000100003FFD0008CC0500201100000030
:10F990000002000051FD0008CC050020110000000D
:10F9A0000004000063FD0008CC05002011000000E9
:10F9B0000008000082FD0008CC05002011000000B6
:10F9C000008000002EFD0008CC0500201100000082
:10F9D00000000200AFFD0008CC050020110000006F
:10F9E0000000040000000000000000000000000013
:10F9F0000000000058FE000894FA00080100000012
:10FA00000000000066FC000800000000000000008C
:10FA100000000000CAFD0008C00500200D00000025
:10FA200000000000C0FC0008B00500200F0000002E
:10FA3000000000006FFE00080D1200080200000028
:10FA400000000000000000000000000000000000B6
:10FA500000000000000000000000000000000000A6
:10FA60000000000000000000000000000000000096
:10FA70000000000000000000000000000000000086
:10FA80000000000000000000000000000000000076
:10FA90000000000020FE0008D4F70008010000006C
:10FAA00001000000BAFE00080D130008020000006B
:10FAB00000000000C8FE000844F800080100000033
:10FAC0000100000088FB0008E4F8000801000000C5
:10FAD0000100000014FE0008F4F900080100000015
:10FAE00001000000B2FC00089005002008000000A2
:10FAF0000000000000000000000000000000000006
:10FB000000000000000000000000000000000000F5
:10FB100000000000A8FC0008D4050020040000003C
:10FB20000000000088FC0008D80500200400000048
:10FB300000000000C2FD0008C80500200D00000004
:10FB40000000000092FC0008EC0500200B00000003
:10FB50000000000090FD0008CC050020110000000E
:10FB6000000008000000000000000000000000008D
:10FB70000000000000000000000000000000000085
:10FB800000000000D5E62000283429B9CAD5CFBC32
:10FB9000ECB2E22100283329B3B5B5D8D6B7202579
:10FBA0006428302D3235352900283229B9DEB5D800
:10FBB000D6B720256428302D323535290028342940
:10FBC000D6D0BFD820256428302D323535290028DD
:10FBD0003229C1C1B6C82025642835302D323535CB
:10FBE0002900283229CBAFC3DF20256428312D32EC
:10FBF00035352900283629D6D8C1BF4120256428AB
:10FC00004144432900283729D6D8C1BF4220256462
:10FC1000284144432900283829D6D8C1BF4320258C
:10FC200064284144432900283929D6D8C1BF44203B
:10FC30002564284144432900283529CEBBD6C3205A
:10FC40002564284144432900283729BBD6B8B4C9C4
:10FC5000E8D6C328522900283829B1A3B4E6C9E858
:10FC6000D6C328522900283229CFB5CDB33A5452F1
:10FC7000544F532076322E310028313029CEBBD656
:10FC8000C320252E31664D00CEBBD6C3252E31664E
:10FC90004D00B6EED6D825645400283929D6D8C1EF
:10FCA000BF20252E31665400D6D8C1BF252E31661F
:10FCB0005400283629B5E7C1BF20252E31665600ED
:10FCC000283429D7A2B2E1D0C5CFA23A2564005783
:10FCD0006174696E6700283729B9DECEBB412025E3
:10FCE0007300283229D6D8C1BFB4ABB8D041202583
:10FCF0007300283829B9DECEBB4220257300283393
:10FD000029D6D8C1BFB4ABB8D0422025730028345F
:10FD100029D6D8C1BFB4ABB8D0432025730028354D
:10FD200029D6D8C1BFB4ABB8D04420257300283140
:10FD3000352943414EB2C9BCAF494F202573002835
:10FD4000313129B7A7C3C5BFAAB5BDCEBB20257326
:10FD50000028313229B7A7C3C5B9D8B5BDCEBB205D
:10FD600025730028313329C3DCB7E2B5BDCEBB20F3
:10FD7000257300283629CEBBD6C3B4ABB8D0202516
:10FD8000730028313429B3B5D4CBD0D020257300EB
:10FD9000C2FAB9DE20257300283929C9CFB5E7207A
:10FDA00025730028313029B4EDCEF32025730028C7
:10FDB00031362943414EB9DEBFD8D6C6C6F7202515
:10FDC0007300B2D9D7F720257300283329D7B4CCD4
:10FDD000AC3A257300283429D7B4CCAC2030782530
:10FDE0007800283229CAE4C8EB203078257800282A
:10FDF0003329CAE4B3F6203078257800283529CE97
:10FE0000BBD6C3B1EAB6A800283329B9DED6D8B12B
:10FE1000EAB6A800283529B9D8D3DAC9E8B1B800BC
:10FE2000283129C9E8D6C300283329D4B6B3CCC9B0
:10FE3000E8D6C300283229B1BEB5D8C9E8D6C30078
:10FE4000283329B1A3B4E6C9E8D6C300283529B1BF
:10FE5000A3B4E6C9E8D6C300283129B7B5BBD8009A
:10FE6000283629C9E8D6C3B6EED6D800BCD90028B2
:10FE70003529D7A2B2E100CEB4D7A2B2E10028342E
:10FE800029CEBBD6C3C7E5C1E300283229B9DED6E7
:10FE9000D8C7E5C1E300283329C9E8D6C3C3DCC20B
:10FEA000EB00283229D0DEB8C4C3DCC2EB00283412
:10FEB00029B0B2C8ABB9DCC0ED00283229B8B4CE45
:10FEC000BBB1E4C6B5C6F700283329B3B5D4CBD04F
:10FED000D0B2CECAFD000000F8FE000800000020ED
:10FEE000B8000000D8610008B0FF0008B80000208A
:10FEF00098A50000E861000800000000010203046A
:10FF0000010203040607080902040608FF000AA00C
:10FF1000AAFFFF0000000000000000000000000039
:10FF200000000000000000000000000000000000D1
:10FF300000000000000000000000000000000000C1
:10FF400000000000000000000000000000000000B1
:10FF500000000000000000000000000000000000A1
:10FF6000FF00FF00FF0000006CFE000884FB00089B
:10FF7000CFFC000877FE0008000000000000000031
:10FF80000000000000000000000000000000000071
:10FF90000000000000000000000000000000000061
:10FFA0000000000000000000000000000000000051
:0400000508000131BD
:00000001FF
